{
	"Bulksender.sol": {
		"BulkSender": {
			"abi": [
				{
					"inputs": [],
					"stateMutability": "nonpayable",
					"type": "constructor"
				},
				{
					"inputs": [
						{
							"internalType": "address",
							"name": "owner",
							"type": "address"
						}
					],
					"name": "OwnableInvalidOwner",
					"type": "error"
				},
				{
					"inputs": [
						{
							"internalType": "address",
							"name": "account",
							"type": "address"
						}
					],
					"name": "OwnableUnauthorizedAccount",
					"type": "error"
				},
				{
					"inputs": [
						{
							"internalType": "address",
							"name": "token",
							"type": "address"
						}
					],
					"name": "SafeERC20FailedOperation",
					"type": "error"
				},
				{
					"anonymous": false,
					"inputs": [
						{
							"indexed": true,
							"internalType": "address",
							"name": "token",
							"type": "address"
						},
						{
							"indexed": true,
							"internalType": "address",
							"name": "sender",
							"type": "address"
						},
						{
							"indexed": false,
							"internalType": "uint256",
							"name": "total",
							"type": "uint256"
						},
						{
							"indexed": false,
							"internalType": "uint256",
							"name": "recipientsCount",
							"type": "uint256"
						}
					],
					"name": "BulkERC20Transferred",
					"type": "event"
				},
				{
					"anonymous": false,
					"inputs": [
						{
							"indexed": true,
							"internalType": "address",
							"name": "sender",
							"type": "address"
						},
						{
							"indexed": false,
							"internalType": "uint256",
							"name": "total",
							"type": "uint256"
						},
						{
							"indexed": false,
							"internalType": "uint256",
							"name": "recipientsCount",
							"type": "uint256"
						}
					],
					"name": "BulkETHTransferred",
					"type": "event"
				},
				{
					"anonymous": false,
					"inputs": [
						{
							"indexed": true,
							"internalType": "address",
							"name": "token",
							"type": "address"
						},
						{
							"indexed": true,
							"internalType": "address",
							"name": "to",
							"type": "address"
						},
						{
							"indexed": false,
							"internalType": "uint256",
							"name": "amount",
							"type": "uint256"
						}
					],
					"name": "ERC20Withdrawn",
					"type": "event"
				},
				{
					"anonymous": false,
					"inputs": [
						{
							"indexed": true,
							"internalType": "address",
							"name": "to",
							"type": "address"
						},
						{
							"indexed": false,
							"internalType": "uint256",
							"name": "amount",
							"type": "uint256"
						}
					],
					"name": "ETHWithdrawn",
					"type": "event"
				},
				{
					"anonymous": false,
					"inputs": [
						{
							"indexed": true,
							"internalType": "address",
							"name": "previousOwner",
							"type": "address"
						},
						{
							"indexed": true,
							"internalType": "address",
							"name": "newOwner",
							"type": "address"
						}
					],
					"name": "OwnershipTransferred",
					"type": "event"
				},
				{
					"stateMutability": "payable",
					"type": "fallback"
				},
				{
					"inputs": [
						{
							"internalType": "contract IERC20",
							"name": "token",
							"type": "address"
						},
						{
							"internalType": "address[]",
							"name": "recipients",
							"type": "address[]"
						},
						{
							"internalType": "uint256[]",
							"name": "amounts",
							"type": "uint256[]"
						}
					],
					"name": "bulkTransferERC20",
					"outputs": [],
					"stateMutability": "nonpayable",
					"type": "function"
				},
				{
					"inputs": [
						{
							"internalType": "contract IERC20",
							"name": "token",
							"type": "address"
						},
						{
							"internalType": "address[]",
							"name": "recipients",
							"type": "address[]"
						},
						{
							"internalType": "uint256[]",
							"name": "amounts",
							"type": "uint256[]"
						}
					],
					"name": "bulkTransferERC20FromContract",
					"outputs": [],
					"stateMutability": "nonpayable",
					"type": "function"
				},
				{
					"inputs": [
						{
							"internalType": "address[]",
							"name": "recipients",
							"type": "address[]"
						},
						{
							"internalType": "uint256[]",
							"name": "amounts",
							"type": "uint256[]"
						}
					],
					"name": "bulkTransferETH",
					"outputs": [],
					"stateMutability": "payable",
					"type": "function"
				},
				{
					"inputs": [],
					"name": "owner",
					"outputs": [
						{
							"internalType": "address",
							"name": "",
							"type": "address"
						}
					],
					"stateMutability": "view",
					"type": "function"
				},
				{
					"inputs": [],
					"name": "renounceOwnership",
					"outputs": [],
					"stateMutability": "nonpayable",
					"type": "function"
				},
				{
					"inputs": [
						{
							"internalType": "address",
							"name": "newOwner",
							"type": "address"
						}
					],
					"name": "transferOwnership",
					"outputs": [],
					"stateMutability": "nonpayable",
					"type": "function"
				},
				{
					"inputs": [
						{
							"internalType": "contract IERC20",
							"name": "token",
							"type": "address"
						},
						{
							"internalType": "address",
							"name": "to",
							"type": "address"
						},
						{
							"internalType": "uint256",
							"name": "amount",
							"type": "uint256"
						}
					],
					"name": "withdrawERC20",
					"outputs": [],
					"stateMutability": "nonpayable",
					"type": "function"
				},
				{
					"inputs": [
						{
							"internalType": "address payable",
							"name": "to",
							"type": "address"
						},
						{
							"internalType": "uint256",
							"name": "amount",
							"type": "uint256"
						}
					],
					"name": "withdrawETH",
					"outputs": [],
					"stateMutability": "nonpayable",
					"type": "function"
				},
				{
					"stateMutability": "payable",
					"type": "receive"
				}
			],
			"devdoc": {
				"details": "ERC20 bulk transfer uses transferFrom, so users must approve this contract first.",
				"errors": {
					"OwnableInvalidOwner(address)": [
						{
							"details": "The owner is not a valid owner account. (eg. `address(0)`)"
						}
					],
					"OwnableUnauthorizedAccount(address)": [
						{
							"details": "The caller account is not authorized to perform an operation."
						}
					],
					"SafeERC20FailedOperation(address)": [
						{
							"details": "An operation with an ERC-20 token failed."
						}
					]
				},
				"kind": "dev",
				"methods": {
					"bulkTransferERC20(address,address[],uint256[])": {
						"params": {
							"amounts": "Array of amounts corresponding to each recipient (in token units). Requirements: - caller must approve this contract for at least sum(amounts) before calling.",
							"recipients": "Array of recipient addresses.",
							"token": "ERC20 token contract."
						}
					},
					"bulkTransferETH(address[],uint256[])": {
						"params": {
							"amounts": "Array of amounts corresponding to each recipient (in wei). Requirements: - `recipients.length == amounts.length` - sum(amounts) must equal msg.value",
							"recipients": "Array of recipient addresses."
						}
					},
					"owner()": {
						"details": "Returns the address of the current owner."
					},
					"renounceOwnership()": {
						"details": "Leaves the contract without owner. It will not be possible to call `onlyOwner` functions. Can only be called by the current owner. NOTE: Renouncing ownership will leave the contract without an owner, thereby disabling any functionality that is only available to the owner."
					},
					"transferOwnership(address)": {
						"details": "Transfers ownership of the contract to a new account (`newOwner`). Can only be called by the current owner."
					}
				},
				"title": "BulkSender",
				"version": 1
			},
			"evm": {
				"assembly": "    /* \"Bulksender.sol\":478:4542  contract BulkSender is Ownable, ReentrancyGuard {... */\n  mstore(0x40, 0x80)\n    /* \"Bulksender.sol\":926:963  constructor() Ownable(msg.sender) {... */\n  callvalue\n  dup1\n  iszero\n  tag_1\n  jumpi\n  0x00\n  dup1\n  revert\ntag_1:\n  pop\n    /* \"Bulksender.sol\":948:958  msg.sender */\n  caller\n    /* \"@openzeppelin/contracts/access/Ownable.sol\":1297:1298  0 */\n  0x00\n    /* \"@openzeppelin/contracts/access/Ownable.sol\":1273:1299  initialOwner == address(0) */\n  0xffffffffffffffffffffffffffffffffffffffff\n  and\n    /* \"@openzeppelin/contracts/access/Ownable.sol\":1273:1285  initialOwner */\n  dup2\n    /* \"@openzeppelin/contracts/access/Ownable.sol\":1273:1299  initialOwner == address(0) */\n  0xffffffffffffffffffffffffffffffffffffffff\n  and\n  sub\n    /* \"@openzeppelin/contracts/access/Ownable.sol\":1269:1364  if (initialOwner == address(0)) {... */\n  tag_6\n  jumpi\n    /* \"@openzeppelin/contracts/access/Ownable.sol\":1350:1351  0 */\n  0x00\n    /* \"@openzeppelin/contracts/access/Ownable.sol\":1322:1353  OwnableInvalidOwner(address(0)) */\n  mload(0x40)\n  0x1e4fbdf700000000000000000000000000000000000000000000000000000000\n  dup2\n  mstore\n  0x04\n  add\n  tag_7\n  swap2\n  swap1\n  tag_8\n  jump\t// in\ntag_7:\n  mload(0x40)\n  dup1\n  swap2\n  sub\n  swap1\n  revert\n    /* \"@openzeppelin/contracts/access/Ownable.sol\":1269:1364  if (initialOwner == address(0)) {... */\ntag_6:\n    /* \"@openzeppelin/contracts/access/Ownable.sol\":1373:1405  _transferOwnership(initialOwner) */\n  tag_9\n    /* \"@openzeppelin/contracts/access/Ownable.sol\":1392:1404  initialOwner */\n  dup2\n    /* \"@openzeppelin/contracts/access/Ownable.sol\":1373:1391  _transferOwnership */\n  shl(0x20, tag_10)\n    /* \"@openzeppelin/contracts/access/Ownable.sol\":1373:1405  _transferOwnership(initialOwner) */\n  0x20\n  shr\n  jump\t// in\ntag_9:\n    /* \"@openzeppelin/contracts/access/Ownable.sol\":1225:1412  constructor(address initialOwner) {... */\n  pop\n    /* \"@openzeppelin/contracts/security/ReentrancyGuard.sol\":1716:1717  1 */\n  0x01\n    /* \"@openzeppelin/contracts/security/ReentrancyGuard.sol\":1821:1828  _status */\n  dup1\n    /* \"@openzeppelin/contracts/security/ReentrancyGuard.sol\":1821:1843  _status = _NOT_ENTERED */\n  dup2\n  swap1\n  sstore\n  pop\n    /* \"Bulksender.sol\":478:4542  contract BulkSender is Ownable, ReentrancyGuard {... */\n  jump(tag_13)\n    /* \"@openzeppelin/contracts/access/Ownable.sol\":2912:3099  function _transferOwnership(address newOwner) internal virtual {... */\ntag_10:\n    /* \"@openzeppelin/contracts/access/Ownable.sol\":2985:3001  address oldOwner */\n  0x00\n    /* \"@openzeppelin/contracts/access/Ownable.sol\":3004:3010  _owner */\n  dup1\n  0x00\n  swap1\n  sload\n  swap1\n  0x0100\n  exp\n  swap1\n  div\n  0xffffffffffffffffffffffffffffffffffffffff\n  and\n    /* \"@openzeppelin/contracts/access/Ownable.sol\":2985:3010  address oldOwner = _owner */\n  swap1\n  pop\n    /* \"@openzeppelin/contracts/access/Ownable.sol\":3029:3037  newOwner */\n  dup2\n    /* \"@openzeppelin/contracts/access/Ownable.sol\":3020:3026  _owner */\n  0x00\n  dup1\n    /* \"@openzeppelin/contracts/access/Ownable.sol\":3020:3037  _owner = newOwner */\n  0x0100\n  exp\n  dup2\n  sload\n  dup2\n  0xffffffffffffffffffffffffffffffffffffffff\n  mul\n  not\n  and\n  swap1\n  dup4\n  0xffffffffffffffffffffffffffffffffffffffff\n  and\n  mul\n  or\n  swap1\n  sstore\n  pop\n    /* \"@openzeppelin/contracts/access/Ownable.sol\":3083:3091  newOwner */\n  dup2\n    /* \"@openzeppelin/contracts/access/Ownable.sol\":3052:3092  OwnershipTransferred(oldOwner, newOwner) */\n  0xffffffffffffffffffffffffffffffffffffffff\n  and\n    /* \"@openzeppelin/contracts/access/Ownable.sol\":3073:3081  oldOwner */\n  dup2\n    /* \"@openzeppelin/contracts/access/Ownable.sol\":3052:3092  OwnershipTransferred(oldOwner, newOwner) */\n  0xffffffffffffffffffffffffffffffffffffffff\n  and\n  0x8be0079c531659141344cd1fd0a4f28419497f9722a3daafe3b4186f6b6457e0\n  mload(0x40)\n  mload(0x40)\n  dup1\n  swap2\n  sub\n  swap1\n  log3\n    /* \"@openzeppelin/contracts/access/Ownable.sol\":2975:3099  {... */\n  pop\n    /* \"@openzeppelin/contracts/access/Ownable.sol\":2912:3099  function _transferOwnership(address newOwner) internal virtual {... */\n  pop\n  jump\t// out\n    /* \"#utility.yul\":7:133   */\ntag_15:\n    /* \"#utility.yul\":44:51   */\n  0x00\n    /* \"#utility.yul\":84:126   */\n  0xffffffffffffffffffffffffffffffffffffffff\n    /* \"#utility.yul\":77:82   */\n  dup3\n    /* \"#utility.yul\":73:127   */\n  and\n    /* \"#utility.yul\":62:127   */\n  swap1\n  pop\n    /* \"#utility.yul\":7:133   */\n  swap2\n  swap1\n  pop\n  jump\t// out\n    /* \"#utility.yul\":139:235   */\ntag_16:\n    /* \"#utility.yul\":176:183   */\n  0x00\n    /* \"#utility.yul\":205:229   */\n  tag_21\n    /* \"#utility.yul\":223:228   */\n  dup3\n    /* \"#utility.yul\":205:229   */\n  tag_15\n  jump\t// in\ntag_21:\n    /* \"#utility.yul\":194:229   */\n  swap1\n  pop\n    /* \"#utility.yul\":139:235   */\n  swap2\n  swap1\n  pop\n  jump\t// out\n    /* \"#utility.yul\":241:359   */\ntag_17:\n    /* \"#utility.yul\":328:352   */\n  tag_23\n    /* \"#utility.yul\":346:351   */\n  dup2\n    /* \"#utility.yul\":328:352   */\n  tag_16\n  jump\t// in\ntag_23:\n    /* \"#utility.yul\":323:326   */\n  dup3\n    /* \"#utility.yul\":316:353   */\n  mstore\n    /* \"#utility.yul\":241:359   */\n  pop\n  pop\n  jump\t// out\n    /* \"#utility.yul\":365:587   */\ntag_8:\n    /* \"#utility.yul\":458:462   */\n  0x00\n    /* \"#utility.yul\":496:498   */\n  0x20\n    /* \"#utility.yul\":485:494   */\n  dup3\n    /* \"#utility.yul\":481:499   */\n  add\n    /* \"#utility.yul\":473:499   */\n  swap1\n  pop\n    /* \"#utility.yul\":509:580   */\n  tag_25\n    /* \"#utility.yul\":577:578   */\n  0x00\n    /* \"#utility.yul\":566:575   */\n  dup4\n    /* \"#utility.yul\":562:579   */\n  add\n    /* \"#utility.yul\":553:559   */\n  dup5\n    /* \"#utility.yul\":509:580   */\n  tag_17\n  jump\t// in\ntag_25:\n    /* \"#utility.yul\":365:587   */\n  swap3\n  swap2\n  pop\n  pop\n  jump\t// out\n    /* \"Bulksender.sol\":478:4542  contract BulkSender is Ownable, ReentrancyGuard {... */\ntag_13:\n  dataSize(sub_0)\n  dup1\n  dataOffset(sub_0)\n  0x00\n  codecopy\n  0x00\n  return\nstop\n\nsub_0: assembly {\n        /* \"Bulksender.sol\":478:4542  contract BulkSender is Ownable, ReentrancyGuard {... */\n      mstore(0x40, 0x80)\n      jumpi(tag_1, lt(calldatasize, 0x04))\n      shr(0xe0, calldataload(0x00))\n      dup1\n      0x8da5cb5b\n      gt\n      tag_11\n      jumpi\n      dup1\n      0x8da5cb5b\n      eq\n      tag_7\n      jumpi\n      dup1\n      0x9f62eafe\n      eq\n      tag_8\n      jumpi\n      dup1\n      0xb874fa6a\n      eq\n      tag_9\n      jumpi\n      dup1\n      0xf2fde38b\n      eq\n      tag_10\n      jumpi\n      jump(tag_2)\n    tag_11:\n      dup1\n      0x3e46cd53\n      eq\n      tag_3\n      jumpi\n      dup1\n      0x44004cc1\n      eq\n      tag_4\n      jumpi\n      dup1\n      0x4782f779\n      eq\n      tag_5\n      jumpi\n      dup1\n      0x715018a6\n      eq\n      tag_6\n      jumpi\n      jump(tag_2)\n    tag_1:\n      jumpi(tag_2, calldatasize)\n      stop\n    tag_2:\n      stop\n        /* \"Bulksender.sol\":2338:2956  function bulkTransferERC20(... */\n    tag_3:\n      callvalue\n      dup1\n      iszero\n      tag_16\n      jumpi\n      0x00\n      dup1\n      revert\n    tag_16:\n      pop\n      tag_17\n      0x04\n      dup1\n      calldatasize\n      sub\n      dup2\n      add\n      swap1\n      tag_18\n      swap2\n      swap1\n      tag_19\n      jump\t// in\n    tag_18:\n      tag_20\n      jump\t// in\n    tag_17:\n      stop\n        /* \"Bulksender.sol\":4232:4433  function withdrawERC20(IERC20 token, address to, uint256 amount) external onlyOwner nonReentrant {... */\n    tag_4:\n      callvalue\n      dup1\n      iszero\n      tag_21\n      jumpi\n      0x00\n      dup1\n      revert\n    tag_21:\n      pop\n      tag_22\n      0x04\n      dup1\n      calldatasize\n      sub\n      dup2\n      add\n      swap1\n      tag_23\n      swap2\n      swap1\n      tag_24\n      jump\t// in\n    tag_23:\n      tag_25\n      jump\t// in\n    tag_22:\n      stop\n        /* \"Bulksender.sol\":3860:4155  function withdrawETH(address payable to, uint256 amount) external onlyOwner nonReentrant {... */\n    tag_5:\n      callvalue\n      dup1\n      iszero\n      tag_26\n      jumpi\n      0x00\n      dup1\n      revert\n    tag_26:\n      pop\n      tag_27\n      0x04\n      dup1\n      calldatasize\n      sub\n      dup2\n      add\n      swap1\n      tag_28\n      swap2\n      swap1\n      tag_29\n      jump\t// in\n    tag_28:\n      tag_30\n      jump\t// in\n    tag_27:\n      stop\n        /* \"@openzeppelin/contracts/access/Ownable.sol\":2293:2394  function renounceOwnership() public virtual onlyOwner {... */\n    tag_6:\n      callvalue\n      dup1\n      iszero\n      tag_31\n      jumpi\n      0x00\n      dup1\n      revert\n    tag_31:\n      pop\n      tag_32\n      tag_33\n      jump\t// in\n    tag_32:\n      stop\n        /* \"@openzeppelin/contracts/access/Ownable.sol\":1638:1723  function owner() public view virtual returns (address) {... */\n    tag_7:\n      callvalue\n      dup1\n      iszero\n      tag_34\n      jumpi\n      0x00\n      dup1\n      revert\n    tag_34:\n      pop\n      tag_35\n      tag_36\n      jump\t// in\n    tag_35:\n      mload(0x40)\n      tag_37\n      swap2\n      swap1\n      tag_38\n      jump\t// in\n    tag_37:\n      mload(0x40)\n      dup1\n      swap2\n      sub\n      swap1\n      return\n        /* \"Bulksender.sol\":3062:3776  function bulkTransferERC20FromContract(... */\n    tag_8:\n      callvalue\n      dup1\n      iszero\n      tag_39\n      jumpi\n      0x00\n      dup1\n      revert\n    tag_39:\n      pop\n      tag_40\n      0x04\n      dup1\n      calldatasize\n      sub\n      dup2\n      add\n      swap1\n      tag_41\n      swap2\n      swap1\n      tag_19\n      jump\t// in\n    tag_41:\n      tag_42\n      jump\t// in\n    tag_40:\n      stop\n        /* \"Bulksender.sol\":1271:1956  function bulkTransferETH(address[] calldata recipients, uint256[] calldata amounts)... */\n    tag_9:\n      tag_43\n      0x04\n      dup1\n      calldatasize\n      sub\n      dup2\n      add\n      swap1\n      tag_44\n      swap2\n      swap1\n      tag_45\n      jump\t// in\n    tag_44:\n      tag_46\n      jump\t// in\n    tag_43:\n      stop\n        /* \"@openzeppelin/contracts/access/Ownable.sol\":2543:2758  function transferOwnership(address newOwner) public virtual onlyOwner {... */\n    tag_10:\n      callvalue\n      dup1\n      iszero\n      tag_47\n      jumpi\n      0x00\n      dup1\n      revert\n    tag_47:\n      pop\n      tag_48\n      0x04\n      dup1\n      calldatasize\n      sub\n      dup2\n      add\n      swap1\n      tag_49\n      swap2\n      swap1\n      tag_50\n      jump\t// in\n    tag_49:\n      tag_51\n      jump\t// in\n    tag_48:\n      stop\n        /* \"Bulksender.sol\":2338:2956  function bulkTransferERC20(... */\n    tag_20:\n        /* \"@openzeppelin/contracts/security/ReentrancyGuard.sol\":2261:2282  _nonReentrantBefore() */\n      tag_53\n        /* \"@openzeppelin/contracts/security/ReentrancyGuard.sol\":2261:2280  _nonReentrantBefore */\n      tag_54\n        /* \"@openzeppelin/contracts/security/ReentrancyGuard.sol\":2261:2282  _nonReentrantBefore() */\n      jump\t// in\n    tag_53:\n        /* \"Bulksender.sol\":2500:2509  uint256 n */\n      0x00\n        /* \"Bulksender.sol\":2512:2522  recipients */\n      dup5\n      dup5\n        /* \"Bulksender.sol\":2512:2529  recipients.length */\n      swap1\n      pop\n        /* \"Bulksender.sol\":2500:2529  uint256 n = recipients.length */\n      swap1\n      pop\n        /* \"Bulksender.sol\":2552:2559  amounts */\n      dup3\n      dup3\n        /* \"Bulksender.sol\":2552:2566  amounts.length */\n      swap1\n      pop\n        /* \"Bulksender.sol\":2547:2548  n */\n      dup2\n        /* \"Bulksender.sol\":2547:2566  n == amounts.length */\n      eq\n        /* \"Bulksender.sol\":2539:2586  require(n == amounts.length, \"length-mismatch\") */\n      tag_56\n      jumpi\n      mload(0x40)\n      0x08c379a000000000000000000000000000000000000000000000000000000000\n      dup2\n      mstore\n      0x04\n      add\n      tag_57\n      swap1\n      tag_58\n      jump\t// in\n    tag_57:\n      mload(0x40)\n      dup1\n      swap2\n      sub\n      swap1\n      revert\n    tag_56:\n        /* \"Bulksender.sol\":2597:2610  uint256 total */\n      0x00\n        /* \"Bulksender.sol\":2629:2638  uint256 i */\n      dup1\n        /* \"Bulksender.sol\":2624:2700  for (uint256 i = 0; i < n; ++i) {... */\n    tag_59:\n        /* \"Bulksender.sol\":2648:2649  n */\n      dup3\n        /* \"Bulksender.sol\":2644:2645  i */\n      dup2\n        /* \"Bulksender.sol\":2644:2649  i < n */\n      lt\n        /* \"Bulksender.sol\":2624:2700  for (uint256 i = 0; i < n; ++i) {... */\n      iszero\n      tag_60\n      jumpi\n        /* \"Bulksender.sol\":2679:2686  amounts */\n      dup5\n      dup5\n        /* \"Bulksender.sol\":2687:2688  i */\n      dup3\n        /* \"Bulksender.sol\":2679:2689  amounts[i] */\n      dup2\n      dup2\n      lt\n      tag_62\n      jumpi\n      tag_63\n      tag_64\n      jump\t// in\n    tag_63:\n    tag_62:\n      swap1\n      pop\n      0x20\n      mul\n      add\n      calldataload\n        /* \"Bulksender.sol\":2670:2689  total += amounts[i] */\n      dup3\n      tag_65\n      swap2\n      swap1\n      tag_66\n      jump\t// in\n    tag_65:\n      swap2\n      pop\n        /* \"Bulksender.sol\":2651:2654  ++i */\n      dup1\n      0x01\n      add\n      swap1\n      pop\n        /* \"Bulksender.sol\":2624:2700  for (uint256 i = 0; i < n; ++i) {... */\n      jump(tag_59)\n    tag_60:\n      pop\n        /* \"Bulksender.sol\":2763:2772  uint256 i */\n      0x00\n        /* \"Bulksender.sol\":2758:2876  for (uint256 i = 0; i < n; ++i) {... */\n    tag_67:\n        /* \"Bulksender.sol\":2782:2783  n */\n      dup3\n        /* \"Bulksender.sol\":2778:2779  i */\n      dup2\n        /* \"Bulksender.sol\":2778:2783  i < n */\n      lt\n        /* \"Bulksender.sol\":2758:2876  for (uint256 i = 0; i < n; ++i) {... */\n      iszero\n      tag_68\n      jumpi\n        /* \"Bulksender.sol\":2804:2865  token.safeTransferFrom(msg.sender, recipients[i], amounts[i]) */\n      tag_70\n        /* \"Bulksender.sol\":2827:2837  msg.sender */\n      caller\n        /* \"Bulksender.sol\":2839:2849  recipients */\n      dup9\n      dup9\n        /* \"Bulksender.sol\":2850:2851  i */\n      dup5\n        /* \"Bulksender.sol\":2839:2852  recipients[i] */\n      dup2\n      dup2\n      lt\n      tag_71\n      jumpi\n      tag_72\n      tag_64\n      jump\t// in\n    tag_72:\n    tag_71:\n      swap1\n      pop\n      0x20\n      mul\n      add\n      0x20\n      dup2\n      add\n      swap1\n      tag_73\n      swap2\n      swap1\n      tag_50\n      jump\t// in\n    tag_73:\n        /* \"Bulksender.sol\":2854:2861  amounts */\n      dup8\n      dup8\n        /* \"Bulksender.sol\":2862:2863  i */\n      dup6\n        /* \"Bulksender.sol\":2854:2864  amounts[i] */\n      dup2\n      dup2\n      lt\n      tag_74\n      jumpi\n      tag_75\n      tag_64\n      jump\t// in\n    tag_75:\n    tag_74:\n      swap1\n      pop\n      0x20\n      mul\n      add\n      calldataload\n        /* \"Bulksender.sol\":2804:2809  token */\n      dup12\n        /* \"Bulksender.sol\":2804:2826  token.safeTransferFrom */\n      0xffffffffffffffffffffffffffffffffffffffff\n      and\n      tag_76\n      swap1\n        /* \"Bulksender.sol\":2804:2865  token.safeTransferFrom(msg.sender, recipients[i], amounts[i]) */\n      swap4\n      swap3\n      swap2\n      swap1\n      0xffffffff\n      and\n      jump\t// in\n    tag_70:\n        /* \"Bulksender.sol\":2785:2788  ++i */\n      dup1\n      0x01\n      add\n      swap1\n      pop\n        /* \"Bulksender.sol\":2758:2876  for (uint256 i = 0; i < n; ++i) {... */\n      jump(tag_67)\n    tag_68:\n      pop\n        /* \"Bulksender.sol\":2928:2938  msg.sender */\n      caller\n        /* \"Bulksender.sol\":2891:2949  BulkERC20Transferred(address(token), msg.sender, total, n) */\n      0xffffffffffffffffffffffffffffffffffffffff\n      and\n        /* \"Bulksender.sol\":2920:2925  token */\n      dup8\n        /* \"Bulksender.sol\":2891:2949  BulkERC20Transferred(address(token), msg.sender, total, n) */\n      0xffffffffffffffffffffffffffffffffffffffff\n      and\n      0x8a88ad5eb4d4acfb8c47fcc9c5b0e66c5162ea704dd1e08cce235927434e18d2\n        /* \"Bulksender.sol\":2940:2945  total */\n      dup4\n        /* \"Bulksender.sol\":2947:2948  n */\n      dup6\n        /* \"Bulksender.sol\":2891:2949  BulkERC20Transferred(address(token), msg.sender, total, n) */\n      mload(0x40)\n      tag_77\n      swap3\n      swap2\n      swap1\n      tag_78\n      jump\t// in\n    tag_77:\n      mload(0x40)\n      dup1\n      swap2\n      sub\n      swap1\n      log3\n        /* \"Bulksender.sol\":2490:2956  {... */\n      pop\n      pop\n        /* \"@openzeppelin/contracts/security/ReentrancyGuard.sol\":2303:2323  _nonReentrantAfter() */\n      tag_79\n        /* \"@openzeppelin/contracts/security/ReentrancyGuard.sol\":2303:2321  _nonReentrantAfter */\n      tag_80\n        /* \"@openzeppelin/contracts/security/ReentrancyGuard.sol\":2303:2323  _nonReentrantAfter() */\n      jump\t// in\n    tag_79:\n        /* \"Bulksender.sol\":2338:2956  function bulkTransferERC20(... */\n      pop\n      pop\n      pop\n      pop\n      pop\n      jump\t// out\n        /* \"Bulksender.sol\":4232:4433  function withdrawERC20(IERC20 token, address to, uint256 amount) external onlyOwner nonReentrant {... */\n    tag_25:\n        /* \"@openzeppelin/contracts/access/Ownable.sol\":1531:1544  _checkOwner() */\n      tag_82\n        /* \"@openzeppelin/contracts/access/Ownable.sol\":1531:1542  _checkOwner */\n      tag_83\n        /* \"@openzeppelin/contracts/access/Ownable.sol\":1531:1544  _checkOwner() */\n      jump\t// in\n    tag_82:\n        /* \"@openzeppelin/contracts/security/ReentrancyGuard.sol\":2261:2282  _nonReentrantBefore() */\n      tag_85\n        /* \"@openzeppelin/contracts/security/ReentrancyGuard.sol\":2261:2280  _nonReentrantBefore */\n      tag_54\n        /* \"@openzeppelin/contracts/security/ReentrancyGuard.sol\":2261:2282  _nonReentrantBefore() */\n      jump\t// in\n    tag_85:\n        /* \"Bulksender.sol\":4339:4369  token.safeTransfer(to, amount) */\n      tag_87\n        /* \"Bulksender.sol\":4358:4360  to */\n      dup3\n        /* \"Bulksender.sol\":4362:4368  amount */\n      dup3\n        /* \"Bulksender.sol\":4339:4344  token */\n      dup6\n        /* \"Bulksender.sol\":4339:4357  token.safeTransfer */\n      0xffffffffffffffffffffffffffffffffffffffff\n      and\n      tag_88\n      swap1\n        /* \"Bulksender.sol\":4339:4369  token.safeTransfer(to, amount) */\n      swap3\n      swap2\n      swap1\n      0xffffffff\n      and\n      jump\t// in\n    tag_87:\n        /* \"Bulksender.sol\":4415:4417  to */\n      dup2\n        /* \"Bulksender.sol\":4384:4426  ERC20Withdrawn(address(token), to, amount) */\n      0xffffffffffffffffffffffffffffffffffffffff\n      and\n        /* \"Bulksender.sol\":4407:4412  token */\n      dup4\n        /* \"Bulksender.sol\":4384:4426  ERC20Withdrawn(address(token), to, amount) */\n      0xffffffffffffffffffffffffffffffffffffffff\n      and\n      0xbfed55bdcd242e3dd0f60ddd7d1e87c67f61c34cd9527b3e6455d841b1025362\n        /* \"Bulksender.sol\":4419:4425  amount */\n      dup4\n        /* \"Bulksender.sol\":4384:4426  ERC20Withdrawn(address(token), to, amount) */\n      mload(0x40)\n      tag_89\n      swap2\n      swap1\n      tag_90\n      jump\t// in\n    tag_89:\n      mload(0x40)\n      dup1\n      swap2\n      sub\n      swap1\n      log3\n        /* \"@openzeppelin/contracts/security/ReentrancyGuard.sol\":2303:2323  _nonReentrantAfter() */\n      tag_91\n        /* \"@openzeppelin/contracts/security/ReentrancyGuard.sol\":2303:2321  _nonReentrantAfter */\n      tag_80\n        /* \"@openzeppelin/contracts/security/ReentrancyGuard.sol\":2303:2323  _nonReentrantAfter() */\n      jump\t// in\n    tag_91:\n        /* \"Bulksender.sol\":4232:4433  function withdrawERC20(IERC20 token, address to, uint256 amount) external onlyOwner nonReentrant {... */\n      pop\n      pop\n      pop\n      jump\t// out\n        /* \"Bulksender.sol\":3860:4155  function withdrawETH(address payable to, uint256 amount) external onlyOwner nonReentrant {... */\n    tag_30:\n        /* \"@openzeppelin/contracts/access/Ownable.sol\":1531:1544  _checkOwner() */\n      tag_93\n        /* \"@openzeppelin/contracts/access/Ownable.sol\":1531:1542  _checkOwner */\n      tag_83\n        /* \"@openzeppelin/contracts/access/Ownable.sol\":1531:1544  _checkOwner() */\n      jump\t// in\n    tag_93:\n        /* \"@openzeppelin/contracts/security/ReentrancyGuard.sol\":2261:2282  _nonReentrantBefore() */\n      tag_95\n        /* \"@openzeppelin/contracts/security/ReentrancyGuard.sol\":2261:2280  _nonReentrantBefore */\n      tag_54\n        /* \"@openzeppelin/contracts/security/ReentrancyGuard.sol\":2261:2282  _nonReentrantBefore() */\n      jump\t// in\n    tag_95:\n        /* \"Bulksender.sol\":3992:3998  amount */\n      dup1\n        /* \"Bulksender.sol\":3967:3988  address(this).balance */\n      selfbalance\n        /* \"Bulksender.sol\":3967:3998  address(this).balance >= amount */\n      lt\n      iszero\n        /* \"Bulksender.sol\":3959:4019  require(address(this).balance >= amount, \"insufficient-eth\") */\n      tag_97\n      jumpi\n      mload(0x40)\n      0x08c379a000000000000000000000000000000000000000000000000000000000\n      dup2\n      mstore\n      0x04\n      add\n      tag_98\n      swap1\n      tag_99\n      jump\t// in\n    tag_98:\n      mload(0x40)\n      dup1\n      swap2\n      sub\n      swap1\n      revert\n    tag_97:\n        /* \"Bulksender.sol\":4030:4037  bool ok */\n      0x00\n        /* \"Bulksender.sol\":4043:4045  to */\n      dup3\n        /* \"Bulksender.sol\":4043:4050  to.call */\n      0xffffffffffffffffffffffffffffffffffffffff\n      and\n        /* \"Bulksender.sol\":4058:4064  amount */\n      dup3\n        /* \"Bulksender.sol\":4043:4069  to.call{value: amount}(\"\") */\n      mload(0x40)\n      tag_100\n      swap1\n      tag_101\n      jump\t// in\n    tag_100:\n      0x00\n      mload(0x40)\n      dup1\n      dup4\n      sub\n      dup2\n      dup6\n      dup8\n      gas\n      call\n      swap3\n      pop\n      pop\n      pop\n      returndatasize\n      dup1\n      0x00\n      dup2\n      eq\n      tag_104\n      jumpi\n      mload(0x40)\n      swap2\n      pop\n      and(add(returndatasize, 0x3f), not(0x1f))\n      dup3\n      add\n      0x40\n      mstore\n      returndatasize\n      dup3\n      mstore\n      returndatasize\n      0x00\n      0x20\n      dup5\n      add\n      returndatacopy\n      jump(tag_103)\n    tag_104:\n      0x60\n      swap2\n      pop\n    tag_103:\n      pop\n        /* \"Bulksender.sol\":4029:4069  (bool ok, ) = to.call{value: amount}(\"\") */\n      pop\n      swap1\n      pop\n        /* \"Bulksender.sol\":4087:4089  ok */\n      dup1\n        /* \"Bulksender.sol\":4079:4109  require(ok, \"withdraw-failed\") */\n      tag_105\n      jumpi\n      mload(0x40)\n      0x08c379a000000000000000000000000000000000000000000000000000000000\n      dup2\n      mstore\n      0x04\n      add\n      tag_106\n      swap1\n      tag_107\n      jump\t// in\n    tag_106:\n      mload(0x40)\n      dup1\n      swap2\n      sub\n      swap1\n      revert\n    tag_105:\n        /* \"Bulksender.sol\":4137:4139  to */\n      dup3\n        /* \"Bulksender.sol\":4124:4148  ETHWithdrawn(to, amount) */\n      0xffffffffffffffffffffffffffffffffffffffff\n      and\n      0x94b2de810873337ed265c5f8cf98c9cffefa06b8607f9a2f1fbaebdfbcfbef1c\n        /* \"Bulksender.sol\":4141:4147  amount */\n      dup4\n        /* \"Bulksender.sol\":4124:4148  ETHWithdrawn(to, amount) */\n      mload(0x40)\n      tag_108\n      swap2\n      swap1\n      tag_90\n      jump\t// in\n    tag_108:\n      mload(0x40)\n      dup1\n      swap2\n      sub\n      swap1\n      log2\n        /* \"Bulksender.sol\":3949:4155  {... */\n      pop\n        /* \"@openzeppelin/contracts/security/ReentrancyGuard.sol\":2303:2323  _nonReentrantAfter() */\n      tag_109\n        /* \"@openzeppelin/contracts/security/ReentrancyGuard.sol\":2303:2321  _nonReentrantAfter */\n      tag_80\n        /* \"@openzeppelin/contracts/security/ReentrancyGuard.sol\":2303:2323  _nonReentrantAfter() */\n      jump\t// in\n    tag_109:\n        /* \"Bulksender.sol\":3860:4155  function withdrawETH(address payable to, uint256 amount) external onlyOwner nonReentrant {... */\n      pop\n      pop\n      jump\t// out\n        /* \"@openzeppelin/contracts/access/Ownable.sol\":2293:2394  function renounceOwnership() public virtual onlyOwner {... */\n    tag_33:\n        /* \"@openzeppelin/contracts/access/Ownable.sol\":1531:1544  _checkOwner() */\n      tag_111\n        /* \"@openzeppelin/contracts/access/Ownable.sol\":1531:1542  _checkOwner */\n      tag_83\n        /* \"@openzeppelin/contracts/access/Ownable.sol\":1531:1544  _checkOwner() */\n      jump\t// in\n    tag_111:\n        /* \"@openzeppelin/contracts/access/Ownable.sol\":2357:2387  _transferOwnership(address(0)) */\n      tag_113\n        /* \"@openzeppelin/contracts/access/Ownable.sol\":2384:2385  0 */\n      0x00\n        /* \"@openzeppelin/contracts/access/Ownable.sol\":2357:2375  _transferOwnership */\n      tag_114\n        /* \"@openzeppelin/contracts/access/Ownable.sol\":2357:2387  _transferOwnership(address(0)) */\n      jump\t// in\n    tag_113:\n        /* \"@openzeppelin/contracts/access/Ownable.sol\":2293:2394  function renounceOwnership() public virtual onlyOwner {... */\n      jump\t// out\n        /* \"@openzeppelin/contracts/access/Ownable.sol\":1638:1723  function owner() public view virtual returns (address) {... */\n    tag_36:\n        /* \"@openzeppelin/contracts/access/Ownable.sol\":1684:1691  address */\n      0x00\n        /* \"@openzeppelin/contracts/access/Ownable.sol\":1710:1716  _owner */\n      dup1\n      0x00\n      swap1\n      sload\n      swap1\n      0x0100\n      exp\n      swap1\n      div\n      0xffffffffffffffffffffffffffffffffffffffff\n      and\n        /* \"@openzeppelin/contracts/access/Ownable.sol\":1703:1716  return _owner */\n      swap1\n      pop\n        /* \"@openzeppelin/contracts/access/Ownable.sol\":1638:1723  function owner() public view virtual returns (address) {... */\n      swap1\n      jump\t// out\n        /* \"Bulksender.sol\":3062:3776  function bulkTransferERC20FromContract(... */\n    tag_42:\n        /* \"@openzeppelin/contracts/access/Ownable.sol\":1531:1544  _checkOwner() */\n      tag_117\n        /* \"@openzeppelin/contracts/access/Ownable.sol\":1531:1542  _checkOwner */\n      tag_83\n        /* \"@openzeppelin/contracts/access/Ownable.sol\":1531:1544  _checkOwner() */\n      jump\t// in\n    tag_117:\n        /* \"@openzeppelin/contracts/security/ReentrancyGuard.sol\":2261:2282  _nonReentrantBefore() */\n      tag_119\n        /* \"@openzeppelin/contracts/security/ReentrancyGuard.sol\":2261:2280  _nonReentrantBefore */\n      tag_54\n        /* \"@openzeppelin/contracts/security/ReentrancyGuard.sol\":2261:2282  _nonReentrantBefore() */\n      jump\t// in\n    tag_119:\n        /* \"Bulksender.sol\":3246:3255  uint256 n */\n      0x00\n        /* \"Bulksender.sol\":3258:3268  recipients */\n      dup5\n      dup5\n        /* \"Bulksender.sol\":3258:3275  recipients.length */\n      swap1\n      pop\n        /* \"Bulksender.sol\":3246:3275  uint256 n = recipients.length */\n      swap1\n      pop\n        /* \"Bulksender.sol\":3298:3305  amounts */\n      dup3\n      dup3\n        /* \"Bulksender.sol\":3298:3312  amounts.length */\n      swap1\n      pop\n        /* \"Bulksender.sol\":3293:3294  n */\n      dup2\n        /* \"Bulksender.sol\":3293:3312  n == amounts.length */\n      eq\n        /* \"Bulksender.sol\":3285:3332  require(n == amounts.length, \"length-mismatch\") */\n      tag_121\n      jumpi\n      mload(0x40)\n      0x08c379a000000000000000000000000000000000000000000000000000000000\n      dup2\n      mstore\n      0x04\n      add\n      tag_122\n      swap1\n      tag_58\n      jump\t// in\n    tag_122:\n      mload(0x40)\n      dup1\n      swap2\n      sub\n      swap1\n      revert\n    tag_121:\n        /* \"Bulksender.sol\":3343:3356  uint256 total */\n      0x00\n        /* \"Bulksender.sol\":3375:3384  uint256 i */\n      dup1\n        /* \"Bulksender.sol\":3370:3446  for (uint256 i = 0; i < n; ++i) {... */\n    tag_123:\n        /* \"Bulksender.sol\":3394:3395  n */\n      dup3\n        /* \"Bulksender.sol\":3390:3391  i */\n      dup2\n        /* \"Bulksender.sol\":3390:3395  i < n */\n      lt\n        /* \"Bulksender.sol\":3370:3446  for (uint256 i = 0; i < n; ++i) {... */\n      iszero\n      tag_124\n      jumpi\n        /* \"Bulksender.sol\":3425:3432  amounts */\n      dup5\n      dup5\n        /* \"Bulksender.sol\":3433:3434  i */\n      dup3\n        /* \"Bulksender.sol\":3425:3435  amounts[i] */\n      dup2\n      dup2\n      lt\n      tag_126\n      jumpi\n      tag_127\n      tag_64\n      jump\t// in\n    tag_127:\n    tag_126:\n      swap1\n      pop\n      0x20\n      mul\n      add\n      calldataload\n        /* \"Bulksender.sol\":3416:3435  total += amounts[i] */\n      dup3\n      tag_128\n      swap2\n      swap1\n      tag_66\n      jump\t// in\n    tag_128:\n      swap2\n      pop\n        /* \"Bulksender.sol\":3397:3400  ++i */\n      dup1\n      0x01\n      add\n      swap1\n      pop\n        /* \"Bulksender.sol\":3370:3446  for (uint256 i = 0; i < n; ++i) {... */\n      jump(tag_123)\n    tag_124:\n      pop\n        /* \"Bulksender.sol\":3456:3475  uint256 contractBal */\n      0x00\n        /* \"Bulksender.sol\":3478:3483  token */\n      dup8\n        /* \"Bulksender.sol\":3478:3493  token.balanceOf */\n      0xffffffffffffffffffffffffffffffffffffffff\n      and\n      0x70a08231\n        /* \"Bulksender.sol\":3502:3506  this */\n      address\n        /* \"Bulksender.sol\":3478:3508  token.balanceOf(address(this)) */\n      mload(0x40)\n      dup3\n      0xffffffff\n      and\n      0xe0\n      shl\n      dup2\n      mstore\n      0x04\n      add\n      tag_129\n      swap2\n      swap1\n      tag_38\n      jump\t// in\n    tag_129:\n      0x20\n      mload(0x40)\n      dup1\n      dup4\n      sub\n      dup2\n      dup7\n      gas\n      staticcall\n      iszero\n      dup1\n      iszero\n      tag_131\n      jumpi\n      returndatasize\n      0x00\n      dup1\n      returndatacopy\n      revert(0x00, returndatasize)\n    tag_131:\n      pop\n      pop\n      pop\n      pop\n      mload(0x40)\n      returndatasize\n      not(0x1f)\n      0x1f\n      dup3\n      add\n      and\n      dup3\n      add\n      dup1\n      0x40\n      mstore\n      pop\n      dup2\n      add\n      swap1\n      tag_132\n      swap2\n      swap1\n      tag_133\n      jump\t// in\n    tag_132:\n        /* \"Bulksender.sol\":3456:3508  uint256 contractBal = token.balanceOf(address(this)) */\n      swap1\n      pop\n        /* \"Bulksender.sol\":3541:3546  total */\n      dup2\n        /* \"Bulksender.sol\":3526:3537  contractBal */\n      dup2\n        /* \"Bulksender.sol\":3526:3546  contractBal >= total */\n      lt\n      iszero\n        /* \"Bulksender.sol\":3518:3580  require(contractBal >= total, \"insufficient-contract-balance\") */\n      tag_134\n      jumpi\n      mload(0x40)\n      0x08c379a000000000000000000000000000000000000000000000000000000000\n      dup2\n      mstore\n      0x04\n      add\n      tag_135\n      swap1\n      tag_136\n      jump\t// in\n    tag_135:\n      mload(0x40)\n      dup1\n      swap2\n      sub\n      swap1\n      revert\n    tag_134:\n        /* \"Bulksender.sol\":3596:3605  uint256 i */\n      0x00\n        /* \"Bulksender.sol\":3591:3693  for (uint256 i = 0; i < n; ++i) {... */\n    tag_137:\n        /* \"Bulksender.sol\":3615:3616  n */\n      dup4\n        /* \"Bulksender.sol\":3611:3612  i */\n      dup2\n        /* \"Bulksender.sol\":3611:3616  i < n */\n      lt\n        /* \"Bulksender.sol\":3591:3693  for (uint256 i = 0; i < n; ++i) {... */\n      iszero\n      tag_138\n      jumpi\n        /* \"Bulksender.sol\":3637:3682  token.safeTransfer(recipients[i], amounts[i]) */\n      tag_140\n        /* \"Bulksender.sol\":3656:3666  recipients */\n      dup9\n      dup9\n        /* \"Bulksender.sol\":3667:3668  i */\n      dup4\n        /* \"Bulksender.sol\":3656:3669  recipients[i] */\n      dup2\n      dup2\n      lt\n      tag_141\n      jumpi\n      tag_142\n      tag_64\n      jump\t// in\n    tag_142:\n    tag_141:\n      swap1\n      pop\n      0x20\n      mul\n      add\n      0x20\n      dup2\n      add\n      swap1\n      tag_143\n      swap2\n      swap1\n      tag_50\n      jump\t// in\n    tag_143:\n        /* \"Bulksender.sol\":3671:3678  amounts */\n      dup8\n      dup8\n        /* \"Bulksender.sol\":3679:3680  i */\n      dup5\n        /* \"Bulksender.sol\":3671:3681  amounts[i] */\n      dup2\n      dup2\n      lt\n      tag_144\n      jumpi\n      tag_145\n      tag_64\n      jump\t// in\n    tag_145:\n    tag_144:\n      swap1\n      pop\n      0x20\n      mul\n      add\n      calldataload\n        /* \"Bulksender.sol\":3637:3642  token */\n      dup12\n        /* \"Bulksender.sol\":3637:3655  token.safeTransfer */\n      0xffffffffffffffffffffffffffffffffffffffff\n      and\n      tag_88\n      swap1\n        /* \"Bulksender.sol\":3637:3682  token.safeTransfer(recipients[i], amounts[i]) */\n      swap3\n      swap2\n      swap1\n      0xffffffff\n      and\n      jump\t// in\n    tag_140:\n        /* \"Bulksender.sol\":3618:3621  ++i */\n      dup1\n      0x01\n      add\n      swap1\n      pop\n        /* \"Bulksender.sol\":3591:3693  for (uint256 i = 0; i < n; ++i) {... */\n      jump(tag_137)\n    tag_138:\n      pop\n        /* \"Bulksender.sol\":3753:3757  this */\n      address\n        /* \"Bulksender.sol\":3708:3769  BulkERC20Transferred(address(token), address(this), total, n) */\n      0xffffffffffffffffffffffffffffffffffffffff\n      and\n        /* \"Bulksender.sol\":3737:3742  token */\n      dup9\n        /* \"Bulksender.sol\":3708:3769  BulkERC20Transferred(address(token), address(this), total, n) */\n      0xffffffffffffffffffffffffffffffffffffffff\n      and\n      0x8a88ad5eb4d4acfb8c47fcc9c5b0e66c5162ea704dd1e08cce235927434e18d2\n        /* \"Bulksender.sol\":3760:3765  total */\n      dup5\n        /* \"Bulksender.sol\":3767:3768  n */\n      dup7\n        /* \"Bulksender.sol\":3708:3769  BulkERC20Transferred(address(token), address(this), total, n) */\n      mload(0x40)\n      tag_146\n      swap3\n      swap2\n      swap1\n      tag_78\n      jump\t// in\n    tag_146:\n      mload(0x40)\n      dup1\n      swap2\n      sub\n      swap1\n      log3\n        /* \"Bulksender.sol\":3236:3776  {... */\n      pop\n      pop\n      pop\n        /* \"@openzeppelin/contracts/security/ReentrancyGuard.sol\":2303:2323  _nonReentrantAfter() */\n      tag_147\n        /* \"@openzeppelin/contracts/security/ReentrancyGuard.sol\":2303:2321  _nonReentrantAfter */\n      tag_80\n        /* \"@openzeppelin/contracts/security/ReentrancyGuard.sol\":2303:2323  _nonReentrantAfter() */\n      jump\t// in\n    tag_147:\n        /* \"Bulksender.sol\":3062:3776  function bulkTransferERC20FromContract(... */\n      pop\n      pop\n      pop\n      pop\n      pop\n      jump\t// out\n        /* \"Bulksender.sol\":1271:1956  function bulkTransferETH(address[] calldata recipients, uint256[] calldata amounts)... */\n    tag_46:\n        /* \"@openzeppelin/contracts/security/ReentrancyGuard.sol\":2261:2282  _nonReentrantBefore() */\n      tag_149\n        /* \"@openzeppelin/contracts/security/ReentrancyGuard.sol\":2261:2280  _nonReentrantBefore */\n      tag_54\n        /* \"@openzeppelin/contracts/security/ReentrancyGuard.sol\":2261:2282  _nonReentrantBefore() */\n      jump\t// in\n    tag_149:\n        /* \"Bulksender.sol\":1423:1432  uint256 n */\n      0x00\n        /* \"Bulksender.sol\":1435:1445  recipients */\n      dup5\n      dup5\n        /* \"Bulksender.sol\":1435:1452  recipients.length */\n      swap1\n      pop\n        /* \"Bulksender.sol\":1423:1452  uint256 n = recipients.length */\n      swap1\n      pop\n        /* \"Bulksender.sol\":1475:1482  amounts */\n      dup3\n      dup3\n        /* \"Bulksender.sol\":1475:1489  amounts.length */\n      swap1\n      pop\n        /* \"Bulksender.sol\":1470:1471  n */\n      dup2\n        /* \"Bulksender.sol\":1470:1489  n == amounts.length */\n      eq\n        /* \"Bulksender.sol\":1462:1509  require(n == amounts.length, \"length-mismatch\") */\n      tag_151\n      jumpi\n      mload(0x40)\n      0x08c379a000000000000000000000000000000000000000000000000000000000\n      dup2\n      mstore\n      0x04\n      add\n      tag_152\n      swap1\n      tag_58\n      jump\t// in\n    tag_152:\n      mload(0x40)\n      dup1\n      swap2\n      sub\n      swap1\n      revert\n    tag_151:\n        /* \"Bulksender.sol\":1519:1532  uint256 total */\n      0x00\n        /* \"Bulksender.sol\":1579:1588  uint256 i */\n      dup1\n        /* \"Bulksender.sol\":1574:1650  for (uint256 i = 0; i < n; ++i) {... */\n    tag_153:\n        /* \"Bulksender.sol\":1598:1599  n */\n      dup3\n        /* \"Bulksender.sol\":1594:1595  i */\n      dup2\n        /* \"Bulksender.sol\":1594:1599  i < n */\n      lt\n        /* \"Bulksender.sol\":1574:1650  for (uint256 i = 0; i < n; ++i) {... */\n      iszero\n      tag_154\n      jumpi\n        /* \"Bulksender.sol\":1629:1636  amounts */\n      dup5\n      dup5\n        /* \"Bulksender.sol\":1637:1638  i */\n      dup3\n        /* \"Bulksender.sol\":1629:1639  amounts[i] */\n      dup2\n      dup2\n      lt\n      tag_156\n      jumpi\n      tag_157\n      tag_64\n      jump\t// in\n    tag_157:\n    tag_156:\n      swap1\n      pop\n      0x20\n      mul\n      add\n      calldataload\n        /* \"Bulksender.sol\":1620:1639  total += amounts[i] */\n      dup3\n      tag_158\n      swap2\n      swap1\n      tag_66\n      jump\t// in\n    tag_158:\n      swap2\n      pop\n        /* \"Bulksender.sol\":1601:1604  ++i */\n      dup1\n      0x01\n      add\n      swap1\n      pop\n        /* \"Bulksender.sol\":1574:1650  for (uint256 i = 0; i < n; ++i) {... */\n      jump(tag_153)\n    tag_154:\n      pop\n        /* \"Bulksender.sol\":1677:1686  msg.value */\n      callvalue\n        /* \"Bulksender.sol\":1668:1673  total */\n      dup2\n        /* \"Bulksender.sol\":1668:1686  total == msg.value */\n      eq\n        /* \"Bulksender.sol\":1660:1705  require(total == msg.value, \"value-mismatch\") */\n      tag_159\n      jumpi\n      mload(0x40)\n      0x08c379a000000000000000000000000000000000000000000000000000000000\n      dup2\n      mstore\n      0x04\n      add\n      tag_160\n      swap1\n      tag_161\n      jump\t// in\n    tag_160:\n      mload(0x40)\n      dup1\n      swap2\n      sub\n      swap1\n      revert\n    tag_159:\n        /* \"Bulksender.sol\":1743:1752  uint256 i */\n      0x00\n        /* \"Bulksender.sol\":1738:1894  for (uint256 i = 0; i < n; ++i) {... */\n    tag_162:\n        /* \"Bulksender.sol\":1762:1763  n */\n      dup3\n        /* \"Bulksender.sol\":1758:1759  i */\n      dup2\n        /* \"Bulksender.sol\":1758:1763  i < n */\n      lt\n        /* \"Bulksender.sol\":1738:1894  for (uint256 i = 0; i < n; ++i) {... */\n      iszero\n      tag_163\n      jumpi\n        /* \"Bulksender.sol\":1785:1792  bool ok */\n      0x00\n        /* \"Bulksender.sol\":1798:1808  recipients */\n      dup8\n      dup8\n        /* \"Bulksender.sol\":1809:1810  i */\n      dup4\n        /* \"Bulksender.sol\":1798:1811  recipients[i] */\n      dup2\n      dup2\n      lt\n      tag_165\n      jumpi\n      tag_166\n      tag_64\n      jump\t// in\n    tag_166:\n    tag_165:\n      swap1\n      pop\n      0x20\n      mul\n      add\n      0x20\n      dup2\n      add\n      swap1\n      tag_167\n      swap2\n      swap1\n      tag_50\n      jump\t// in\n    tag_167:\n        /* \"Bulksender.sol\":1798:1816  recipients[i].call */\n      0xffffffffffffffffffffffffffffffffffffffff\n      and\n        /* \"Bulksender.sol\":1824:1831  amounts */\n      dup7\n      dup7\n        /* \"Bulksender.sol\":1832:1833  i */\n      dup5\n        /* \"Bulksender.sol\":1824:1834  amounts[i] */\n      dup2\n      dup2\n      lt\n      tag_168\n      jumpi\n      tag_169\n      tag_64\n      jump\t// in\n    tag_169:\n    tag_168:\n      swap1\n      pop\n      0x20\n      mul\n      add\n      calldataload\n        /* \"Bulksender.sol\":1798:1839  recipients[i].call{value: amounts[i]}(\"\") */\n      mload(0x40)\n      tag_170\n      swap1\n      tag_101\n      jump\t// in\n    tag_170:\n      0x00\n      mload(0x40)\n      dup1\n      dup4\n      sub\n      dup2\n      dup6\n      dup8\n      gas\n      call\n      swap3\n      pop\n      pop\n      pop\n      returndatasize\n      dup1\n      0x00\n      dup2\n      eq\n      tag_173\n      jumpi\n      mload(0x40)\n      swap2\n      pop\n      and(add(returndatasize, 0x3f), not(0x1f))\n      dup3\n      add\n      0x40\n      mstore\n      returndatasize\n      dup3\n      mstore\n      returndatasize\n      0x00\n      0x20\n      dup5\n      add\n      returndatacopy\n      jump(tag_172)\n    tag_173:\n      0x60\n      swap2\n      pop\n    tag_172:\n      pop\n        /* \"Bulksender.sol\":1784:1839  (bool ok, ) = recipients[i].call{value: amounts[i]}(\"\") */\n      pop\n      swap1\n      pop\n        /* \"Bulksender.sol\":1861:1863  ok */\n      dup1\n        /* \"Bulksender.sol\":1853:1883  require(ok, \"eth-send-failed\") */\n      tag_174\n      jumpi\n      mload(0x40)\n      0x08c379a000000000000000000000000000000000000000000000000000000000\n      dup2\n      mstore\n      0x04\n      add\n      tag_175\n      swap1\n      tag_176\n      jump\t// in\n    tag_175:\n      mload(0x40)\n      dup1\n      swap2\n      sub\n      swap1\n      revert\n    tag_174:\n        /* \"Bulksender.sol\":1770:1894  {... */\n      pop\n        /* \"Bulksender.sol\":1765:1768  ++i */\n      dup1\n      0x01\n      add\n      swap1\n      pop\n        /* \"Bulksender.sol\":1738:1894  for (uint256 i = 0; i < n; ++i) {... */\n      jump(tag_162)\n    tag_163:\n      pop\n        /* \"Bulksender.sol\":1928:1938  msg.sender */\n      caller\n        /* \"Bulksender.sol\":1909:1949  BulkETHTransferred(msg.sender, total, n) */\n      0xffffffffffffffffffffffffffffffffffffffff\n      and\n      0x45d6845dd4f0bdd735a522e3076f82702e80547a0e2b1304a2e483bca6d9cdc4\n        /* \"Bulksender.sol\":1940:1945  total */\n      dup3\n        /* \"Bulksender.sol\":1947:1948  n */\n      dup5\n        /* \"Bulksender.sol\":1909:1949  BulkETHTransferred(msg.sender, total, n) */\n      mload(0x40)\n      tag_177\n      swap3\n      swap2\n      swap1\n      tag_78\n      jump\t// in\n    tag_177:\n      mload(0x40)\n      dup1\n      swap2\n      sub\n      swap1\n      log2\n        /* \"Bulksender.sol\":1413:1956  {... */\n      pop\n      pop\n        /* \"@openzeppelin/contracts/security/ReentrancyGuard.sol\":2303:2323  _nonReentrantAfter() */\n      tag_178\n        /* \"@openzeppelin/contracts/security/ReentrancyGuard.sol\":2303:2321  _nonReentrantAfter */\n      tag_80\n        /* \"@openzeppelin/contracts/security/ReentrancyGuard.sol\":2303:2323  _nonReentrantAfter() */\n      jump\t// in\n    tag_178:\n        /* \"Bulksender.sol\":1271:1956  function bulkTransferETH(address[] calldata recipients, uint256[] calldata amounts)... */\n      pop\n      pop\n      pop\n      pop\n      jump\t// out\n        /* \"@openzeppelin/contracts/access/Ownable.sol\":2543:2758  function transferOwnership(address newOwner) public virtual onlyOwner {... */\n    tag_51:\n        /* \"@openzeppelin/contracts/access/Ownable.sol\":1531:1544  _checkOwner() */\n      tag_180\n        /* \"@openzeppelin/contracts/access/Ownable.sol\":1531:1542  _checkOwner */\n      tag_83\n        /* \"@openzeppelin/contracts/access/Ownable.sol\":1531:1544  _checkOwner() */\n      jump\t// in\n    tag_180:\n        /* \"@openzeppelin/contracts/access/Ownable.sol\":2647:2648  0 */\n      0x00\n        /* \"@openzeppelin/contracts/access/Ownable.sol\":2627:2649  newOwner == address(0) */\n      0xffffffffffffffffffffffffffffffffffffffff\n      and\n        /* \"@openzeppelin/contracts/access/Ownable.sol\":2627:2635  newOwner */\n      dup2\n        /* \"@openzeppelin/contracts/access/Ownable.sol\":2627:2649  newOwner == address(0) */\n      0xffffffffffffffffffffffffffffffffffffffff\n      and\n      sub\n        /* \"@openzeppelin/contracts/access/Ownable.sol\":2623:2714  if (newOwner == address(0)) {... */\n      tag_182\n      jumpi\n        /* \"@openzeppelin/contracts/access/Ownable.sol\":2700:2701  0 */\n      0x00\n        /* \"@openzeppelin/contracts/access/Ownable.sol\":2672:2703  OwnableInvalidOwner(address(0)) */\n      mload(0x40)\n      0x1e4fbdf700000000000000000000000000000000000000000000000000000000\n      dup2\n      mstore\n      0x04\n      add\n      tag_183\n      swap2\n      swap1\n      tag_38\n      jump\t// in\n    tag_183:\n      mload(0x40)\n      dup1\n      swap2\n      sub\n      swap1\n      revert\n        /* \"@openzeppelin/contracts/access/Ownable.sol\":2623:2714  if (newOwner == address(0)) {... */\n    tag_182:\n        /* \"@openzeppelin/contracts/access/Ownable.sol\":2723:2751  _transferOwnership(newOwner) */\n      tag_184\n        /* \"@openzeppelin/contracts/access/Ownable.sol\":2742:2750  newOwner */\n      dup2\n        /* \"@openzeppelin/contracts/access/Ownable.sol\":2723:2741  _transferOwnership */\n      tag_114\n        /* \"@openzeppelin/contracts/access/Ownable.sol\":2723:2751  _transferOwnership(newOwner) */\n      jump\t// in\n    tag_184:\n        /* \"@openzeppelin/contracts/access/Ownable.sol\":2543:2758  function transferOwnership(address newOwner) public virtual onlyOwner {... */\n      pop\n      jump\t// out\n        /* \"@openzeppelin/contracts/security/ReentrancyGuard.sol\":2336:2623  function _nonReentrantBefore() private {... */\n    tag_54:\n        /* \"@openzeppelin/contracts/security/ReentrancyGuard.sol\":1759:1760  2 */\n      0x02\n        /* \"@openzeppelin/contracts/security/ReentrancyGuard.sol\":2468:2475  _status */\n      sload(0x01)\n        /* \"@openzeppelin/contracts/security/ReentrancyGuard.sol\":2468:2487  _status != _ENTERED */\n      sub\n        /* \"@openzeppelin/contracts/security/ReentrancyGuard.sol\":2460:2523  require(_status != _ENTERED, \"ReentrancyGuard: reentrant call\") */\n      tag_186\n      jumpi\n      mload(0x40)\n      0x08c379a000000000000000000000000000000000000000000000000000000000\n      dup2\n      mstore\n      0x04\n      add\n      tag_187\n      swap1\n      tag_188\n      jump\t// in\n    tag_187:\n      mload(0x40)\n      dup1\n      swap2\n      sub\n      swap1\n      revert\n    tag_186:\n        /* \"@openzeppelin/contracts/security/ReentrancyGuard.sol\":1759:1760  2 */\n      0x02\n        /* \"@openzeppelin/contracts/security/ReentrancyGuard.sol\":2598:2605  _status */\n      0x01\n        /* \"@openzeppelin/contracts/security/ReentrancyGuard.sol\":2598:2616  _status = _ENTERED */\n      dup2\n      swap1\n      sstore\n      pop\n        /* \"@openzeppelin/contracts/security/ReentrancyGuard.sol\":2336:2623  function _nonReentrantBefore() private {... */\n      jump\t// out\n        /* \"@openzeppelin/contracts/token/ERC20/utils/SafeERC20.sol\":1618:1806  function safeTransferFrom(IERC20 token, address from, address to, uint256 value) internal {... */\n    tag_76:\n        /* \"@openzeppelin/contracts/token/ERC20/utils/SafeERC20.sol\":1718:1799  _callOptionalReturn(token, abi.encodeCall(token.transferFrom, (from, to, value))) */\n      tag_190\n        /* \"@openzeppelin/contracts/token/ERC20/utils/SafeERC20.sol\":1738:1743  token */\n      dup5\n        /* \"@openzeppelin/contracts/token/ERC20/utils/SafeERC20.sol\":1760:1765  token */\n      dup6\n        /* \"@openzeppelin/contracts/token/ERC20/utils/SafeERC20.sol\":1760:1778  token.transferFrom */\n      0xffffffffffffffffffffffffffffffffffffffff\n      and\n      0x23b872dd\n        /* \"@openzeppelin/contracts/token/ERC20/utils/SafeERC20.sol\":1781:1785  from */\n      dup7\n        /* \"@openzeppelin/contracts/token/ERC20/utils/SafeERC20.sol\":1787:1789  to */\n      dup7\n        /* \"@openzeppelin/contracts/token/ERC20/utils/SafeERC20.sol\":1791:1796  value */\n      dup7\n        /* \"@openzeppelin/contracts/token/ERC20/utils/SafeERC20.sol\":1745:1798  abi.encodeCall(token.transferFrom, (from, to, value)) */\n      add(0x24, mload(0x40))\n      tag_191\n      swap4\n      swap3\n      swap2\n      swap1\n      tag_192\n      jump\t// in\n    tag_191:\n      mload(0x40)\n      0x20\n      dup2\n      dup4\n      sub\n      sub\n      dup2\n      mstore\n      swap1\n      0x40\n      mstore\n      swap2\n      pop\n      0xe0\n      shl\n      0x20\n      dup3\n      add\n      dup1\n      mload\n      0xffffffffffffffffffffffffffffffffffffffffffffffffffffffff\n      dup4\n      dup2\n      dup4\n      and\n      or\n      dup4\n      mstore\n      pop\n      pop\n      pop\n      pop\n        /* \"@openzeppelin/contracts/token/ERC20/utils/SafeERC20.sol\":1718:1737  _callOptionalReturn */\n      tag_193\n        /* \"@openzeppelin/contracts/token/ERC20/utils/SafeERC20.sol\":1718:1799  _callOptionalReturn(token, abi.encodeCall(token.transferFrom, (from, to, value))) */\n      jump\t// in\n    tag_190:\n        /* \"@openzeppelin/contracts/token/ERC20/utils/SafeERC20.sol\":1618:1806  function safeTransferFrom(IERC20 token, address from, address to, uint256 value) internal {... */\n      pop\n      pop\n      pop\n      pop\n      jump\t// out\n        /* \"@openzeppelin/contracts/security/ReentrancyGuard.sol\":2629:2838  function _nonReentrantAfter() private {... */\n    tag_80:\n        /* \"@openzeppelin/contracts/security/ReentrancyGuard.sol\":1716:1717  1 */\n      0x01\n        /* \"@openzeppelin/contracts/security/ReentrancyGuard.sol\":2809:2816  _status */\n      dup1\n        /* \"@openzeppelin/contracts/security/ReentrancyGuard.sol\":2809:2831  _status = _NOT_ENTERED */\n      dup2\n      swap1\n      sstore\n      pop\n        /* \"@openzeppelin/contracts/security/ReentrancyGuard.sol\":2629:2838  function _nonReentrantAfter() private {... */\n      jump\t// out\n        /* \"@openzeppelin/contracts/access/Ownable.sol\":1796:1958  function _checkOwner() internal view virtual {... */\n    tag_83:\n        /* \"@openzeppelin/contracts/access/Ownable.sol\":1866:1878  _msgSender() */\n      tag_196\n        /* \"@openzeppelin/contracts/access/Ownable.sol\":1866:1876  _msgSender */\n      tag_197\n        /* \"@openzeppelin/contracts/access/Ownable.sol\":1866:1878  _msgSender() */\n      jump\t// in\n    tag_196:\n        /* \"@openzeppelin/contracts/access/Ownable.sol\":1855:1878  owner() != _msgSender() */\n      0xffffffffffffffffffffffffffffffffffffffff\n      and\n        /* \"@openzeppelin/contracts/access/Ownable.sol\":1855:1862  owner() */\n      tag_198\n        /* \"@openzeppelin/contracts/access/Ownable.sol\":1855:1860  owner */\n      tag_36\n        /* \"@openzeppelin/contracts/access/Ownable.sol\":1855:1862  owner() */\n      jump\t// in\n    tag_198:\n        /* \"@openzeppelin/contracts/access/Ownable.sol\":1855:1878  owner() != _msgSender() */\n      0xffffffffffffffffffffffffffffffffffffffff\n      and\n      eq\n        /* \"@openzeppelin/contracts/access/Ownable.sol\":1851:1952  if (owner() != _msgSender()) {... */\n      tag_199\n      jumpi\n        /* \"@openzeppelin/contracts/access/Ownable.sol\":1928:1940  _msgSender() */\n      tag_200\n        /* \"@openzeppelin/contracts/access/Ownable.sol\":1928:1938  _msgSender */\n      tag_197\n        /* \"@openzeppelin/contracts/access/Ownable.sol\":1928:1940  _msgSender() */\n      jump\t// in\n    tag_200:\n        /* \"@openzeppelin/contracts/access/Ownable.sol\":1901:1941  OwnableUnauthorizedAccount(_msgSender()) */\n      mload(0x40)\n      0x118cdaa700000000000000000000000000000000000000000000000000000000\n      dup2\n      mstore\n      0x04\n      add\n      tag_201\n      swap2\n      swap1\n      tag_38\n      jump\t// in\n    tag_201:\n      mload(0x40)\n      dup1\n      swap2\n      sub\n      swap1\n      revert\n        /* \"@openzeppelin/contracts/access/Ownable.sol\":1851:1952  if (owner() != _msgSender()) {... */\n    tag_199:\n        /* \"@openzeppelin/contracts/access/Ownable.sol\":1796:1958  function _checkOwner() internal view virtual {... */\n      jump\t// out\n        /* \"@openzeppelin/contracts/token/ERC20/utils/SafeERC20.sol\":1219:1379  function safeTransfer(IERC20 token, address to, uint256 value) internal {... */\n    tag_88:\n        /* \"@openzeppelin/contracts/token/ERC20/utils/SafeERC20.sol\":1301:1372  _callOptionalReturn(token, abi.encodeCall(token.transfer, (to, value))) */\n      tag_203\n        /* \"@openzeppelin/contracts/token/ERC20/utils/SafeERC20.sol\":1321:1326  token */\n      dup4\n        /* \"@openzeppelin/contracts/token/ERC20/utils/SafeERC20.sol\":1343:1348  token */\n      dup5\n        /* \"@openzeppelin/contracts/token/ERC20/utils/SafeERC20.sol\":1343:1357  token.transfer */\n      0xffffffffffffffffffffffffffffffffffffffff\n      and\n      0xa9059cbb\n        /* \"@openzeppelin/contracts/token/ERC20/utils/SafeERC20.sol\":1360:1362  to */\n      dup6\n        /* \"@openzeppelin/contracts/token/ERC20/utils/SafeERC20.sol\":1364:1369  value */\n      dup6\n        /* \"@openzeppelin/contracts/token/ERC20/utils/SafeERC20.sol\":1328:1371  abi.encodeCall(token.transfer, (to, value)) */\n      add(0x24, mload(0x40))\n      tag_204\n      swap3\n      swap2\n      swap1\n      tag_205\n      jump\t// in\n    tag_204:\n      mload(0x40)\n      0x20\n      dup2\n      dup4\n      sub\n      sub\n      dup2\n      mstore\n      swap1\n      0x40\n      mstore\n      swap2\n      pop\n      0xe0\n      shl\n      0x20\n      dup3\n      add\n      dup1\n      mload\n      0xffffffffffffffffffffffffffffffffffffffffffffffffffffffff\n      dup4\n      dup2\n      dup4\n      and\n      or\n      dup4\n      mstore\n      pop\n      pop\n      pop\n      pop\n        /* \"@openzeppelin/contracts/token/ERC20/utils/SafeERC20.sol\":1301:1320  _callOptionalReturn */\n      tag_193\n        /* \"@openzeppelin/contracts/token/ERC20/utils/SafeERC20.sol\":1301:1372  _callOptionalReturn(token, abi.encodeCall(token.transfer, (to, value))) */\n      jump\t// in\n    tag_203:\n        /* \"@openzeppelin/contracts/token/ERC20/utils/SafeERC20.sol\":1219:1379  function safeTransfer(IERC20 token, address to, uint256 value) internal {... */\n      pop\n      pop\n      pop\n      jump\t// out\n        /* \"@openzeppelin/contracts/access/Ownable.sol\":2912:3099  function _transferOwnership(address newOwner) internal virtual {... */\n    tag_114:\n        /* \"@openzeppelin/contracts/access/Ownable.sol\":2985:3001  address oldOwner */\n      0x00\n        /* \"@openzeppelin/contracts/access/Ownable.sol\":3004:3010  _owner */\n      dup1\n      0x00\n      swap1\n      sload\n      swap1\n      0x0100\n      exp\n      swap1\n      div\n      0xffffffffffffffffffffffffffffffffffffffff\n      and\n        /* \"@openzeppelin/contracts/access/Ownable.sol\":2985:3010  address oldOwner = _owner */\n      swap1\n      pop\n        /* \"@openzeppelin/contracts/access/Ownable.sol\":3029:3037  newOwner */\n      dup2\n        /* \"@openzeppelin/contracts/access/Ownable.sol\":3020:3026  _owner */\n      0x00\n      dup1\n        /* \"@openzeppelin/contracts/access/Ownable.sol\":3020:3037  _owner = newOwner */\n      0x0100\n      exp\n      dup2\n      sload\n      dup2\n      0xffffffffffffffffffffffffffffffffffffffff\n      mul\n      not\n      and\n      swap1\n      dup4\n      0xffffffffffffffffffffffffffffffffffffffff\n      and\n      mul\n      or\n      swap1\n      sstore\n      pop\n        /* \"@openzeppelin/contracts/access/Ownable.sol\":3083:3091  newOwner */\n      dup2\n        /* \"@openzeppelin/contracts/access/Ownable.sol\":3052:3092  OwnershipTransferred(oldOwner, newOwner) */\n      0xffffffffffffffffffffffffffffffffffffffff\n      and\n        /* \"@openzeppelin/contracts/access/Ownable.sol\":3073:3081  oldOwner */\n      dup2\n        /* \"@openzeppelin/contracts/access/Ownable.sol\":3052:3092  OwnershipTransferred(oldOwner, newOwner) */\n      0xffffffffffffffffffffffffffffffffffffffff\n      and\n      0x8be0079c531659141344cd1fd0a4f28419497f9722a3daafe3b4186f6b6457e0\n      mload(0x40)\n      mload(0x40)\n      dup1\n      swap2\n      sub\n      swap1\n      log3\n        /* \"@openzeppelin/contracts/access/Ownable.sol\":2975:3099  {... */\n      pop\n        /* \"@openzeppelin/contracts/access/Ownable.sol\":2912:3099  function _transferOwnership(address newOwner) internal virtual {... */\n      pop\n      jump\t// out\n        /* \"@openzeppelin/contracts/token/ERC20/utils/SafeERC20.sol\":8370:9090  function _callOptionalReturn(IERC20 token, bytes memory data) private {... */\n    tag_193:\n        /* \"@openzeppelin/contracts/token/ERC20/utils/SafeERC20.sol\":8450:8468  uint256 returnSize */\n      0x00\n        /* \"@openzeppelin/contracts/token/ERC20/utils/SafeERC20.sol\":8478:8497  uint256 returnValue */\n      dup1\n        /* \"@openzeppelin/contracts/token/ERC20/utils/SafeERC20.sol\":8616:8620  0x20 */\n      0x20\n        /* \"@openzeppelin/contracts/token/ERC20/utils/SafeERC20.sol\":8613:8614  0 */\n      0x00\n        /* \"@openzeppelin/contracts/token/ERC20/utils/SafeERC20.sol\":8606:8610  data */\n      dup5\n        /* \"@openzeppelin/contracts/token/ERC20/utils/SafeERC20.sol\":8600:8611  mload(data) */\n      mload\n        /* \"@openzeppelin/contracts/token/ERC20/utils/SafeERC20.sol\":8593:8597  0x20 */\n      0x20\n        /* \"@openzeppelin/contracts/token/ERC20/utils/SafeERC20.sol\":8587:8591  data */\n      dup7\n        /* \"@openzeppelin/contracts/token/ERC20/utils/SafeERC20.sol\":8583:8598  add(data, 0x20) */\n      add\n        /* \"@openzeppelin/contracts/token/ERC20/utils/SafeERC20.sol\":8580:8581  0 */\n      0x00\n        /* \"@openzeppelin/contracts/token/ERC20/utils/SafeERC20.sol\":8573:8578  token */\n      dup9\n        /* \"@openzeppelin/contracts/token/ERC20/utils/SafeERC20.sol\":8566:8571  gas() */\n      gas\n        /* \"@openzeppelin/contracts/token/ERC20/utils/SafeERC20.sol\":8561:8621  call(gas(), token, 0, add(data, 0x20), mload(data), 0, 0x20) */\n      call\n        /* \"@openzeppelin/contracts/token/ERC20/utils/SafeERC20.sol\":8673:8680  success */\n      dup1\n        /* \"@openzeppelin/contracts/token/ERC20/utils/SafeERC20.sol\":8663:8839  if iszero(success) {... */\n      tag_208\n      jumpi\n        /* \"@openzeppelin/contracts/token/ERC20/utils/SafeERC20.sol\":8717:8721  0x40 */\n      0x40\n        /* \"@openzeppelin/contracts/token/ERC20/utils/SafeERC20.sol\":8711:8722  mload(0x40) */\n      mload\n        /* \"@openzeppelin/contracts/token/ERC20/utils/SafeERC20.sol\":8762:8778  returndatasize() */\n      returndatasize\n        /* \"@openzeppelin/contracts/token/ERC20/utils/SafeERC20.sol\":8759:8760  0 */\n      0x00\n        /* \"@openzeppelin/contracts/token/ERC20/utils/SafeERC20.sol\":8754:8757  ptr */\n      dup3\n        /* \"@openzeppelin/contracts/token/ERC20/utils/SafeERC20.sol\":8739:8779  returndatacopy(ptr, 0, returndatasize()) */\n      returndatacopy\n        /* \"@openzeppelin/contracts/token/ERC20/utils/SafeERC20.sol\":8808:8824  returndatasize() */\n      returndatasize\n        /* \"@openzeppelin/contracts/token/ERC20/utils/SafeERC20.sol\":8803:8806  ptr */\n      dup2\n        /* \"@openzeppelin/contracts/token/ERC20/utils/SafeERC20.sol\":8796:8825  revert(ptr, returndatasize()) */\n      revert\n        /* \"@openzeppelin/contracts/token/ERC20/utils/SafeERC20.sol\":8663:8839  if iszero(success) {... */\n    tag_208:\n        /* \"@openzeppelin/contracts/token/ERC20/utils/SafeERC20.sol\":8866:8882  returndatasize() */\n      returndatasize\n        /* \"@openzeppelin/contracts/token/ERC20/utils/SafeERC20.sol\":8852:8882  returnSize := returndatasize() */\n      swap3\n      pop\n        /* \"@openzeppelin/contracts/token/ERC20/utils/SafeERC20.sol\":8916:8917  0 */\n      0x00\n        /* \"@openzeppelin/contracts/token/ERC20/utils/SafeERC20.sol\":8910:8918  mload(0) */\n      mload\n        /* \"@openzeppelin/contracts/token/ERC20/utils/SafeERC20.sol\":8895:8918  returnValue := mload(0) */\n      swap2\n      pop\n        /* \"@openzeppelin/contracts/token/ERC20/utils/SafeERC20.sol\":8532:8928  {... */\n      pop\n        /* \"@openzeppelin/contracts/token/ERC20/utils/SafeERC20.sol\":8956:8957  0 */\n      0x00\n        /* \"@openzeppelin/contracts/token/ERC20/utils/SafeERC20.sol\":8942:8952  returnSize */\n      dup3\n        /* \"@openzeppelin/contracts/token/ERC20/utils/SafeERC20.sol\":8942:8957  returnSize == 0 */\n      eq\n        /* \"@openzeppelin/contracts/token/ERC20/utils/SafeERC20.sol\":8942:9010  returnSize == 0 ? address(token).code.length == 0 : returnValue != 1 */\n      tag_209\n      jumpi\n        /* \"@openzeppelin/contracts/token/ERC20/utils/SafeERC20.sol\":9009:9010  1 */\n      0x01\n        /* \"@openzeppelin/contracts/token/ERC20/utils/SafeERC20.sol\":8994:9005  returnValue */\n      dup2\n        /* \"@openzeppelin/contracts/token/ERC20/utils/SafeERC20.sol\":8994:9010  returnValue != 1 */\n      eq\n      iszero\n        /* \"@openzeppelin/contracts/token/ERC20/utils/SafeERC20.sol\":8942:9010  returnSize == 0 ? address(token).code.length == 0 : returnValue != 1 */\n      jump(tag_210)\n    tag_209:\n        /* \"@openzeppelin/contracts/token/ERC20/utils/SafeERC20.sol\":8990:8991  0 */\n      0x00\n        /* \"@openzeppelin/contracts/token/ERC20/utils/SafeERC20.sol\":8968:8973  token */\n      dup5\n        /* \"@openzeppelin/contracts/token/ERC20/utils/SafeERC20.sol\":8960:8986  address(token).code.length */\n      0xffffffffffffffffffffffffffffffffffffffff\n      and\n      extcodesize\n        /* \"@openzeppelin/contracts/token/ERC20/utils/SafeERC20.sol\":8960:8991  address(token).code.length == 0 */\n      eq\n        /* \"@openzeppelin/contracts/token/ERC20/utils/SafeERC20.sol\":8942:9010  returnSize == 0 ? address(token).code.length == 0 : returnValue != 1 */\n    tag_210:\n        /* \"@openzeppelin/contracts/token/ERC20/utils/SafeERC20.sol\":8938:9084  if (returnSize == 0 ? address(token).code.length == 0 : returnValue != 1) {... */\n      iszero\n      tag_211\n      jumpi\n        /* \"@openzeppelin/contracts/token/ERC20/utils/SafeERC20.sol\":9066:9071  token */\n      dup4\n        /* \"@openzeppelin/contracts/token/ERC20/utils/SafeERC20.sol\":9033:9073  SafeERC20FailedOperation(address(token)) */\n      mload(0x40)\n      0x5274afe700000000000000000000000000000000000000000000000000000000\n      dup2\n      mstore\n      0x04\n      add\n      tag_212\n      swap2\n      swap1\n      tag_38\n      jump\t// in\n    tag_212:\n      mload(0x40)\n      dup1\n      swap2\n      sub\n      swap1\n      revert\n        /* \"@openzeppelin/contracts/token/ERC20/utils/SafeERC20.sol\":8938:9084  if (returnSize == 0 ? address(token).code.length == 0 : returnValue != 1) {... */\n    tag_211:\n        /* \"@openzeppelin/contracts/token/ERC20/utils/SafeERC20.sol\":8440:9090  {... */\n      pop\n      pop\n        /* \"@openzeppelin/contracts/token/ERC20/utils/SafeERC20.sol\":8370:9090  function _callOptionalReturn(IERC20 token, bytes memory data) private {... */\n      pop\n      pop\n      jump\t// out\n        /* \"@openzeppelin/contracts/utils/Context.sol\":656:752  function _msgSender() internal view virtual returns (address) {... */\n    tag_197:\n        /* \"@openzeppelin/contracts/utils/Context.sol\":709:716  address */\n      0x00\n        /* \"@openzeppelin/contracts/utils/Context.sol\":735:745  msg.sender */\n      caller\n        /* \"@openzeppelin/contracts/utils/Context.sol\":728:745  return msg.sender */\n      swap1\n      pop\n        /* \"@openzeppelin/contracts/utils/Context.sol\":656:752  function _msgSender() internal view virtual returns (address) {... */\n      swap1\n      jump\t// out\n        /* \"#utility.yul\":88:205   */\n    tag_215:\n        /* \"#utility.yul\":197:198   */\n      0x00\n        /* \"#utility.yul\":194:195   */\n      dup1\n        /* \"#utility.yul\":187:199   */\n      revert\n        /* \"#utility.yul\":211:328   */\n    tag_216:\n        /* \"#utility.yul\":320:321   */\n      0x00\n        /* \"#utility.yul\":317:318   */\n      dup1\n        /* \"#utility.yul\":310:322   */\n      revert\n        /* \"#utility.yul\":334:460   */\n    tag_217:\n        /* \"#utility.yul\":371:378   */\n      0x00\n        /* \"#utility.yul\":411:453   */\n      0xffffffffffffffffffffffffffffffffffffffff\n        /* \"#utility.yul\":404:409   */\n      dup3\n        /* \"#utility.yul\":400:454   */\n      and\n        /* \"#utility.yul\":389:454   */\n      swap1\n      pop\n        /* \"#utility.yul\":334:460   */\n      swap2\n      swap1\n      pop\n      jump\t// out\n        /* \"#utility.yul\":466:562   */\n    tag_218:\n        /* \"#utility.yul\":503:510   */\n      0x00\n        /* \"#utility.yul\":532:556   */\n      tag_263\n        /* \"#utility.yul\":550:555   */\n      dup3\n        /* \"#utility.yul\":532:556   */\n      tag_217\n      jump\t// in\n    tag_263:\n        /* \"#utility.yul\":521:556   */\n      swap1\n      pop\n        /* \"#utility.yul\":466:562   */\n      swap2\n      swap1\n      pop\n      jump\t// out\n        /* \"#utility.yul\":568:678   */\n    tag_219:\n        /* \"#utility.yul\":619:626   */\n      0x00\n        /* \"#utility.yul\":648:672   */\n      tag_265\n        /* \"#utility.yul\":666:671   */\n      dup3\n        /* \"#utility.yul\":648:672   */\n      tag_218\n      jump\t// in\n    tag_265:\n        /* \"#utility.yul\":637:672   */\n      swap1\n      pop\n        /* \"#utility.yul\":568:678   */\n      swap2\n      swap1\n      pop\n      jump\t// out\n        /* \"#utility.yul\":684:834   */\n    tag_220:\n        /* \"#utility.yul\":771:809   */\n      tag_267\n        /* \"#utility.yul\":803:808   */\n      dup2\n        /* \"#utility.yul\":771:809   */\n      tag_219\n      jump\t// in\n    tag_267:\n        /* \"#utility.yul\":764:769   */\n      dup2\n        /* \"#utility.yul\":761:810   */\n      eq\n        /* \"#utility.yul\":751:828   */\n      tag_268\n      jumpi\n        /* \"#utility.yul\":824:825   */\n      0x00\n        /* \"#utility.yul\":821:822   */\n      dup1\n        /* \"#utility.yul\":814:826   */\n      revert\n        /* \"#utility.yul\":751:828   */\n    tag_268:\n        /* \"#utility.yul\":684:834   */\n      pop\n      jump\t// out\n        /* \"#utility.yul\":840:1007   */\n    tag_221:\n        /* \"#utility.yul\":900:905   */\n      0x00\n        /* \"#utility.yul\":938:944   */\n      dup2\n        /* \"#utility.yul\":925:945   */\n      calldataload\n        /* \"#utility.yul\":916:945   */\n      swap1\n      pop\n        /* \"#utility.yul\":954:1001   */\n      tag_270\n        /* \"#utility.yul\":995:1000   */\n      dup2\n        /* \"#utility.yul\":954:1001   */\n      tag_220\n      jump\t// in\n    tag_270:\n        /* \"#utility.yul\":840:1007   */\n      swap3\n      swap2\n      pop\n      pop\n      jump\t// out\n        /* \"#utility.yul\":1013:1130   */\n    tag_222:\n        /* \"#utility.yul\":1122:1123   */\n      0x00\n        /* \"#utility.yul\":1119:1120   */\n      dup1\n        /* \"#utility.yul\":1112:1124   */\n      revert\n        /* \"#utility.yul\":1136:1253   */\n    tag_223:\n        /* \"#utility.yul\":1245:1246   */\n      0x00\n        /* \"#utility.yul\":1242:1243   */\n      dup1\n        /* \"#utility.yul\":1235:1247   */\n      revert\n        /* \"#utility.yul\":1259:1376   */\n    tag_224:\n        /* \"#utility.yul\":1368:1369   */\n      0x00\n        /* \"#utility.yul\":1365:1366   */\n      dup1\n        /* \"#utility.yul\":1358:1370   */\n      revert\n        /* \"#utility.yul\":1399:1967   */\n    tag_225:\n        /* \"#utility.yul\":1472:1480   */\n      0x00\n        /* \"#utility.yul\":1482:1488   */\n      dup1\n        /* \"#utility.yul\":1532:1535   */\n      dup4\n        /* \"#utility.yul\":1525:1529   */\n      0x1f\n        /* \"#utility.yul\":1517:1523   */\n      dup5\n        /* \"#utility.yul\":1513:1530   */\n      add\n        /* \"#utility.yul\":1509:1536   */\n      slt\n        /* \"#utility.yul\":1499:1621   */\n      tag_275\n      jumpi\n        /* \"#utility.yul\":1540:1619   */\n      tag_276\n      tag_222\n      jump\t// in\n    tag_276:\n        /* \"#utility.yul\":1499:1621   */\n    tag_275:\n        /* \"#utility.yul\":1653:1659   */\n      dup3\n        /* \"#utility.yul\":1640:1660   */\n      calldataload\n        /* \"#utility.yul\":1630:1660   */\n      swap1\n      pop\n        /* \"#utility.yul\":1683:1701   */\n      0xffffffffffffffff\n        /* \"#utility.yul\":1675:1681   */\n      dup2\n        /* \"#utility.yul\":1672:1702   */\n      gt\n        /* \"#utility.yul\":1669:1786   */\n      iszero\n      tag_277\n      jumpi\n        /* \"#utility.yul\":1705:1784   */\n      tag_278\n      tag_223\n      jump\t// in\n    tag_278:\n        /* \"#utility.yul\":1669:1786   */\n    tag_277:\n        /* \"#utility.yul\":1819:1823   */\n      0x20\n        /* \"#utility.yul\":1811:1817   */\n      dup4\n        /* \"#utility.yul\":1807:1824   */\n      add\n        /* \"#utility.yul\":1795:1824   */\n      swap2\n      pop\n        /* \"#utility.yul\":1873:1876   */\n      dup4\n        /* \"#utility.yul\":1865:1869   */\n      0x20\n        /* \"#utility.yul\":1857:1863   */\n      dup3\n        /* \"#utility.yul\":1853:1870   */\n      mul\n        /* \"#utility.yul\":1843:1851   */\n      dup4\n        /* \"#utility.yul\":1839:1871   */\n      add\n        /* \"#utility.yul\":1836:1877   */\n      gt\n        /* \"#utility.yul\":1833:1961   */\n      iszero\n      tag_279\n      jumpi\n        /* \"#utility.yul\":1880:1959   */\n      tag_280\n      tag_224\n      jump\t// in\n    tag_280:\n        /* \"#utility.yul\":1833:1961   */\n    tag_279:\n        /* \"#utility.yul\":1399:1967   */\n      swap3\n      pop\n      swap3\n      swap1\n      pop\n      jump\t// out\n        /* \"#utility.yul\":1990:2558   */\n    tag_226:\n        /* \"#utility.yul\":2063:2071   */\n      0x00\n        /* \"#utility.yul\":2073:2079   */\n      dup1\n        /* \"#utility.yul\":2123:2126   */\n      dup4\n        /* \"#utility.yul\":2116:2120   */\n      0x1f\n        /* \"#utility.yul\":2108:2114   */\n      dup5\n        /* \"#utility.yul\":2104:2121   */\n      add\n        /* \"#utility.yul\":2100:2127   */\n      slt\n        /* \"#utility.yul\":2090:2212   */\n      tag_282\n      jumpi\n        /* \"#utility.yul\":2131:2210   */\n      tag_283\n      tag_222\n      jump\t// in\n    tag_283:\n        /* \"#utility.yul\":2090:2212   */\n    tag_282:\n        /* \"#utility.yul\":2244:2250   */\n      dup3\n        /* \"#utility.yul\":2231:2251   */\n      calldataload\n        /* \"#utility.yul\":2221:2251   */\n      swap1\n      pop\n        /* \"#utility.yul\":2274:2292   */\n      0xffffffffffffffff\n        /* \"#utility.yul\":2266:2272   */\n      dup2\n        /* \"#utility.yul\":2263:2293   */\n      gt\n        /* \"#utility.yul\":2260:2377   */\n      iszero\n      tag_284\n      jumpi\n        /* \"#utility.yul\":2296:2375   */\n      tag_285\n      tag_223\n      jump\t// in\n    tag_285:\n        /* \"#utility.yul\":2260:2377   */\n    tag_284:\n        /* \"#utility.yul\":2410:2414   */\n      0x20\n        /* \"#utility.yul\":2402:2408   */\n      dup4\n        /* \"#utility.yul\":2398:2415   */\n      add\n        /* \"#utility.yul\":2386:2415   */\n      swap2\n      pop\n        /* \"#utility.yul\":2464:2467   */\n      dup4\n        /* \"#utility.yul\":2456:2460   */\n      0x20\n        /* \"#utility.yul\":2448:2454   */\n      dup3\n        /* \"#utility.yul\":2444:2461   */\n      mul\n        /* \"#utility.yul\":2434:2442   */\n      dup4\n        /* \"#utility.yul\":2430:2462   */\n      add\n        /* \"#utility.yul\":2427:2468   */\n      gt\n        /* \"#utility.yul\":2424:2552   */\n      iszero\n      tag_286\n      jumpi\n        /* \"#utility.yul\":2471:2550   */\n      tag_287\n      tag_224\n      jump\t// in\n    tag_287:\n        /* \"#utility.yul\":2424:2552   */\n    tag_286:\n        /* \"#utility.yul\":1990:2558   */\n      swap3\n      pop\n      swap3\n      swap1\n      pop\n      jump\t// out\n        /* \"#utility.yul\":2564:3671   */\n    tag_19:\n        /* \"#utility.yul\":2709:2715   */\n      0x00\n        /* \"#utility.yul\":2717:2723   */\n      dup1\n        /* \"#utility.yul\":2725:2731   */\n      0x00\n        /* \"#utility.yul\":2733:2739   */\n      dup1\n        /* \"#utility.yul\":2741:2747   */\n      0x00\n        /* \"#utility.yul\":2790:2792   */\n      0x60\n        /* \"#utility.yul\":2778:2787   */\n      dup7\n        /* \"#utility.yul\":2769:2776   */\n      dup9\n        /* \"#utility.yul\":2765:2788   */\n      sub\n        /* \"#utility.yul\":2761:2793   */\n      slt\n        /* \"#utility.yul\":2758:2877   */\n      iszero\n      tag_289\n      jumpi\n        /* \"#utility.yul\":2796:2875   */\n      tag_290\n      tag_215\n      jump\t// in\n    tag_290:\n        /* \"#utility.yul\":2758:2877   */\n    tag_289:\n        /* \"#utility.yul\":2916:2917   */\n      0x00\n        /* \"#utility.yul\":2941:3008   */\n      tag_291\n        /* \"#utility.yul\":3000:3007   */\n      dup9\n        /* \"#utility.yul\":2991:2997   */\n      dup3\n        /* \"#utility.yul\":2980:2989   */\n      dup10\n        /* \"#utility.yul\":2976:2998   */\n      add\n        /* \"#utility.yul\":2941:3008   */\n      tag_221\n      jump\t// in\n    tag_291:\n        /* \"#utility.yul\":2931:3008   */\n      swap6\n      pop\n        /* \"#utility.yul\":2887:3018   */\n      pop\n        /* \"#utility.yul\":3085:3087   */\n      0x20\n        /* \"#utility.yul\":3074:3083   */\n      dup7\n        /* \"#utility.yul\":3070:3088   */\n      add\n        /* \"#utility.yul\":3057:3089   */\n      calldataload\n        /* \"#utility.yul\":3116:3134   */\n      0xffffffffffffffff\n        /* \"#utility.yul\":3108:3114   */\n      dup2\n        /* \"#utility.yul\":3105:3135   */\n      gt\n        /* \"#utility.yul\":3102:3219   */\n      iszero\n      tag_292\n      jumpi\n        /* \"#utility.yul\":3138:3217   */\n      tag_293\n      tag_216\n      jump\t// in\n    tag_293:\n        /* \"#utility.yul\":3102:3219   */\n    tag_292:\n        /* \"#utility.yul\":3251:3331   */\n      tag_294\n        /* \"#utility.yul\":3323:3330   */\n      dup9\n        /* \"#utility.yul\":3314:3320   */\n      dup3\n        /* \"#utility.yul\":3303:3312   */\n      dup10\n        /* \"#utility.yul\":3299:3321   */\n      add\n        /* \"#utility.yul\":3251:3331   */\n      tag_225\n      jump\t// in\n    tag_294:\n        /* \"#utility.yul\":3233:3331   */\n      swap5\n      pop\n      swap5\n      pop\n        /* \"#utility.yul\":3028:3341   */\n      pop\n        /* \"#utility.yul\":3408:3410   */\n      0x40\n        /* \"#utility.yul\":3397:3406   */\n      dup7\n        /* \"#utility.yul\":3393:3411   */\n      add\n        /* \"#utility.yul\":3380:3412   */\n      calldataload\n        /* \"#utility.yul\":3439:3457   */\n      0xffffffffffffffff\n        /* \"#utility.yul\":3431:3437   */\n      dup2\n        /* \"#utility.yul\":3428:3458   */\n      gt\n        /* \"#utility.yul\":3425:3542   */\n      iszero\n      tag_295\n      jumpi\n        /* \"#utility.yul\":3461:3540   */\n      tag_296\n      tag_216\n      jump\t// in\n    tag_296:\n        /* \"#utility.yul\":3425:3542   */\n    tag_295:\n        /* \"#utility.yul\":3574:3654   */\n      tag_297\n        /* \"#utility.yul\":3646:3653   */\n      dup9\n        /* \"#utility.yul\":3637:3643   */\n      dup3\n        /* \"#utility.yul\":3626:3635   */\n      dup10\n        /* \"#utility.yul\":3622:3644   */\n      add\n        /* \"#utility.yul\":3574:3654   */\n      tag_226\n      jump\t// in\n    tag_297:\n        /* \"#utility.yul\":3556:3654   */\n      swap3\n      pop\n      swap3\n      pop\n        /* \"#utility.yul\":3351:3664   */\n      pop\n        /* \"#utility.yul\":2564:3671   */\n      swap3\n      swap6\n      pop\n      swap3\n      swap6\n      swap1\n      swap4\n      pop\n      jump\t// out\n        /* \"#utility.yul\":3677:3799   */\n    tag_227:\n        /* \"#utility.yul\":3750:3774   */\n      tag_299\n        /* \"#utility.yul\":3768:3773   */\n      dup2\n        /* \"#utility.yul\":3750:3774   */\n      tag_218\n      jump\t// in\n    tag_299:\n        /* \"#utility.yul\":3743:3748   */\n      dup2\n        /* \"#utility.yul\":3740:3775   */\n      eq\n        /* \"#utility.yul\":3730:3793   */\n      tag_300\n      jumpi\n        /* \"#utility.yul\":3789:3790   */\n      0x00\n        /* \"#utility.yul\":3786:3787   */\n      dup1\n        /* \"#utility.yul\":3779:3791   */\n      revert\n        /* \"#utility.yul\":3730:3793   */\n    tag_300:\n        /* \"#utility.yul\":3677:3799   */\n      pop\n      jump\t// out\n        /* \"#utility.yul\":3805:3944   */\n    tag_228:\n        /* \"#utility.yul\":3851:3856   */\n      0x00\n        /* \"#utility.yul\":3889:3895   */\n      dup2\n        /* \"#utility.yul\":3876:3896   */\n      calldataload\n        /* \"#utility.yul\":3867:3896   */\n      swap1\n      pop\n        /* \"#utility.yul\":3905:3938   */\n      tag_302\n        /* \"#utility.yul\":3932:3937   */\n      dup2\n        /* \"#utility.yul\":3905:3938   */\n      tag_227\n      jump\t// in\n    tag_302:\n        /* \"#utility.yul\":3805:3944   */\n      swap3\n      swap2\n      pop\n      pop\n      jump\t// out\n        /* \"#utility.yul\":3950:4027   */\n    tag_229:\n        /* \"#utility.yul\":3987:3994   */\n      0x00\n        /* \"#utility.yul\":4016:4021   */\n      dup2\n        /* \"#utility.yul\":4005:4021   */\n      swap1\n      pop\n        /* \"#utility.yul\":3950:4027   */\n      swap2\n      swap1\n      pop\n      jump\t// out\n        /* \"#utility.yul\":4033:4155   */\n    tag_230:\n        /* \"#utility.yul\":4106:4130   */\n      tag_305\n        /* \"#utility.yul\":4124:4129   */\n      dup2\n        /* \"#utility.yul\":4106:4130   */\n      tag_229\n      jump\t// in\n    tag_305:\n        /* \"#utility.yul\":4099:4104   */\n      dup2\n        /* \"#utility.yul\":4096:4131   */\n      eq\n        /* \"#utility.yul\":4086:4149   */\n      tag_306\n      jumpi\n        /* \"#utility.yul\":4145:4146   */\n      0x00\n        /* \"#utility.yul\":4142:4143   */\n      dup1\n        /* \"#utility.yul\":4135:4147   */\n      revert\n        /* \"#utility.yul\":4086:4149   */\n    tag_306:\n        /* \"#utility.yul\":4033:4155   */\n      pop\n      jump\t// out\n        /* \"#utility.yul\":4161:4300   */\n    tag_231:\n        /* \"#utility.yul\":4207:4212   */\n      0x00\n        /* \"#utility.yul\":4245:4251   */\n      dup2\n        /* \"#utility.yul\":4232:4252   */\n      calldataload\n        /* \"#utility.yul\":4223:4252   */\n      swap1\n      pop\n        /* \"#utility.yul\":4261:4294   */\n      tag_308\n        /* \"#utility.yul\":4288:4293   */\n      dup2\n        /* \"#utility.yul\":4261:4294   */\n      tag_230\n      jump\t// in\n    tag_308:\n        /* \"#utility.yul\":4161:4300   */\n      swap3\n      swap2\n      pop\n      pop\n      jump\t// out\n        /* \"#utility.yul\":4306:4953   */\n    tag_24:\n        /* \"#utility.yul\":4397:4403   */\n      0x00\n        /* \"#utility.yul\":4405:4411   */\n      dup1\n        /* \"#utility.yul\":4413:4419   */\n      0x00\n        /* \"#utility.yul\":4462:4464   */\n      0x60\n        /* \"#utility.yul\":4450:4459   */\n      dup5\n        /* \"#utility.yul\":4441:4448   */\n      dup7\n        /* \"#utility.yul\":4437:4460   */\n      sub\n        /* \"#utility.yul\":4433:4465   */\n      slt\n        /* \"#utility.yul\":4430:4549   */\n      iszero\n      tag_310\n      jumpi\n        /* \"#utility.yul\":4468:4547   */\n      tag_311\n      tag_215\n      jump\t// in\n    tag_311:\n        /* \"#utility.yul\":4430:4549   */\n    tag_310:\n        /* \"#utility.yul\":4588:4589   */\n      0x00\n        /* \"#utility.yul\":4613:4680   */\n      tag_312\n        /* \"#utility.yul\":4672:4679   */\n      dup7\n        /* \"#utility.yul\":4663:4669   */\n      dup3\n        /* \"#utility.yul\":4652:4661   */\n      dup8\n        /* \"#utility.yul\":4648:4670   */\n      add\n        /* \"#utility.yul\":4613:4680   */\n      tag_221\n      jump\t// in\n    tag_312:\n        /* \"#utility.yul\":4603:4680   */\n      swap4\n      pop\n        /* \"#utility.yul\":4559:4690   */\n      pop\n        /* \"#utility.yul\":4729:4731   */\n      0x20\n        /* \"#utility.yul\":4755:4808   */\n      tag_313\n        /* \"#utility.yul\":4800:4807   */\n      dup7\n        /* \"#utility.yul\":4791:4797   */\n      dup3\n        /* \"#utility.yul\":4780:4789   */\n      dup8\n        /* \"#utility.yul\":4776:4798   */\n      add\n        /* \"#utility.yul\":4755:4808   */\n      tag_228\n      jump\t// in\n    tag_313:\n        /* \"#utility.yul\":4745:4808   */\n      swap3\n      pop\n        /* \"#utility.yul\":4700:4818   */\n      pop\n        /* \"#utility.yul\":4857:4859   */\n      0x40\n        /* \"#utility.yul\":4883:4936   */\n      tag_314\n        /* \"#utility.yul\":4928:4935   */\n      dup7\n        /* \"#utility.yul\":4919:4925   */\n      dup3\n        /* \"#utility.yul\":4908:4917   */\n      dup8\n        /* \"#utility.yul\":4904:4926   */\n      add\n        /* \"#utility.yul\":4883:4936   */\n      tag_231\n      jump\t// in\n    tag_314:\n        /* \"#utility.yul\":4873:4936   */\n      swap2\n      pop\n        /* \"#utility.yul\":4828:4946   */\n      pop\n        /* \"#utility.yul\":4306:4953   */\n      swap3\n      pop\n      swap3\n      pop\n      swap3\n      jump\t// out\n        /* \"#utility.yul\":4959:5063   */\n    tag_232:\n        /* \"#utility.yul\":5004:5011   */\n      0x00\n        /* \"#utility.yul\":5033:5057   */\n      tag_316\n        /* \"#utility.yul\":5051:5056   */\n      dup3\n        /* \"#utility.yul\":5033:5057   */\n      tag_217\n      jump\t// in\n    tag_316:\n        /* \"#utility.yul\":5022:5057   */\n      swap1\n      pop\n        /* \"#utility.yul\":4959:5063   */\n      swap2\n      swap1\n      pop\n      jump\t// out\n        /* \"#utility.yul\":5069:5207   */\n    tag_233:\n        /* \"#utility.yul\":5150:5182   */\n      tag_318\n        /* \"#utility.yul\":5176:5181   */\n      dup2\n        /* \"#utility.yul\":5150:5182   */\n      tag_232\n      jump\t// in\n    tag_318:\n        /* \"#utility.yul\":5143:5148   */\n      dup2\n        /* \"#utility.yul\":5140:5183   */\n      eq\n        /* \"#utility.yul\":5130:5201   */\n      tag_319\n      jumpi\n        /* \"#utility.yul\":5197:5198   */\n      0x00\n        /* \"#utility.yul\":5194:5195   */\n      dup1\n        /* \"#utility.yul\":5187:5199   */\n      revert\n        /* \"#utility.yul\":5130:5201   */\n    tag_319:\n        /* \"#utility.yul\":5069:5207   */\n      pop\n      jump\t// out\n        /* \"#utility.yul\":5213:5368   */\n    tag_234:\n        /* \"#utility.yul\":5267:5272   */\n      0x00\n        /* \"#utility.yul\":5305:5311   */\n      dup2\n        /* \"#utility.yul\":5292:5312   */\n      calldataload\n        /* \"#utility.yul\":5283:5312   */\n      swap1\n      pop\n        /* \"#utility.yul\":5321:5362   */\n      tag_321\n        /* \"#utility.yul\":5356:5361   */\n      dup2\n        /* \"#utility.yul\":5321:5362   */\n      tag_233\n      jump\t// in\n    tag_321:\n        /* \"#utility.yul\":5213:5368   */\n      swap3\n      swap2\n      pop\n      pop\n      jump\t// out\n        /* \"#utility.yul\":5374:5864   */\n    tag_29:\n        /* \"#utility.yul\":5450:5456   */\n      0x00\n        /* \"#utility.yul\":5458:5464   */\n      dup1\n        /* \"#utility.yul\":5507:5509   */\n      0x40\n        /* \"#utility.yul\":5495:5504   */\n      dup4\n        /* \"#utility.yul\":5486:5493   */\n      dup6\n        /* \"#utility.yul\":5482:5505   */\n      sub\n        /* \"#utility.yul\":5478:5510   */\n      slt\n        /* \"#utility.yul\":5475:5594   */\n      iszero\n      tag_323\n      jumpi\n        /* \"#utility.yul\":5513:5592   */\n      tag_324\n      tag_215\n      jump\t// in\n    tag_324:\n        /* \"#utility.yul\":5475:5594   */\n    tag_323:\n        /* \"#utility.yul\":5633:5634   */\n      0x00\n        /* \"#utility.yul\":5658:5719   */\n      tag_325\n        /* \"#utility.yul\":5711:5718   */\n      dup6\n        /* \"#utility.yul\":5702:5708   */\n      dup3\n        /* \"#utility.yul\":5691:5700   */\n      dup7\n        /* \"#utility.yul\":5687:5709   */\n      add\n        /* \"#utility.yul\":5658:5719   */\n      tag_234\n      jump\t// in\n    tag_325:\n        /* \"#utility.yul\":5648:5719   */\n      swap3\n      pop\n        /* \"#utility.yul\":5604:5729   */\n      pop\n        /* \"#utility.yul\":5768:5770   */\n      0x20\n        /* \"#utility.yul\":5794:5847   */\n      tag_326\n        /* \"#utility.yul\":5839:5846   */\n      dup6\n        /* \"#utility.yul\":5830:5836   */\n      dup3\n        /* \"#utility.yul\":5819:5828   */\n      dup7\n        /* \"#utility.yul\":5815:5837   */\n      add\n        /* \"#utility.yul\":5794:5847   */\n      tag_231\n      jump\t// in\n    tag_326:\n        /* \"#utility.yul\":5784:5847   */\n      swap2\n      pop\n        /* \"#utility.yul\":5739:5857   */\n      pop\n        /* \"#utility.yul\":5374:5864   */\n      swap3\n      pop\n      swap3\n      swap1\n      pop\n      jump\t// out\n        /* \"#utility.yul\":5870:5988   */\n    tag_235:\n        /* \"#utility.yul\":5957:5981   */\n      tag_328\n        /* \"#utility.yul\":5975:5980   */\n      dup2\n        /* \"#utility.yul\":5957:5981   */\n      tag_218\n      jump\t// in\n    tag_328:\n        /* \"#utility.yul\":5952:5955   */\n      dup3\n        /* \"#utility.yul\":5945:5982   */\n      mstore\n        /* \"#utility.yul\":5870:5988   */\n      pop\n      pop\n      jump\t// out\n        /* \"#utility.yul\":5994:6216   */\n    tag_38:\n        /* \"#utility.yul\":6087:6091   */\n      0x00\n        /* \"#utility.yul\":6125:6127   */\n      0x20\n        /* \"#utility.yul\":6114:6123   */\n      dup3\n        /* \"#utility.yul\":6110:6128   */\n      add\n        /* \"#utility.yul\":6102:6128   */\n      swap1\n      pop\n        /* \"#utility.yul\":6138:6209   */\n      tag_330\n        /* \"#utility.yul\":6206:6207   */\n      0x00\n        /* \"#utility.yul\":6195:6204   */\n      dup4\n        /* \"#utility.yul\":6191:6208   */\n      add\n        /* \"#utility.yul\":6182:6188   */\n      dup5\n        /* \"#utility.yul\":6138:6209   */\n      tag_235\n      jump\t// in\n    tag_330:\n        /* \"#utility.yul\":5994:6216   */\n      swap3\n      swap2\n      pop\n      pop\n      jump\t// out\n        /* \"#utility.yul\":6222:7156   */\n    tag_45:\n        /* \"#utility.yul\":6344:6350   */\n      0x00\n        /* \"#utility.yul\":6352:6358   */\n      dup1\n        /* \"#utility.yul\":6360:6366   */\n      0x00\n        /* \"#utility.yul\":6368:6374   */\n      dup1\n        /* \"#utility.yul\":6417:6419   */\n      0x40\n        /* \"#utility.yul\":6405:6414   */\n      dup6\n        /* \"#utility.yul\":6396:6403   */\n      dup8\n        /* \"#utility.yul\":6392:6415   */\n      sub\n        /* \"#utility.yul\":6388:6420   */\n      slt\n        /* \"#utility.yul\":6385:6504   */\n      iszero\n      tag_332\n      jumpi\n        /* \"#utility.yul\":6423:6502   */\n      tag_333\n      tag_215\n      jump\t// in\n    tag_333:\n        /* \"#utility.yul\":6385:6504   */\n    tag_332:\n        /* \"#utility.yul\":6571:6572   */\n      0x00\n        /* \"#utility.yul\":6560:6569   */\n      dup6\n        /* \"#utility.yul\":6556:6573   */\n      add\n        /* \"#utility.yul\":6543:6574   */\n      calldataload\n        /* \"#utility.yul\":6601:6619   */\n      0xffffffffffffffff\n        /* \"#utility.yul\":6593:6599   */\n      dup2\n        /* \"#utility.yul\":6590:6620   */\n      gt\n        /* \"#utility.yul\":6587:6704   */\n      iszero\n      tag_334\n      jumpi\n        /* \"#utility.yul\":6623:6702   */\n      tag_335\n      tag_216\n      jump\t// in\n    tag_335:\n        /* \"#utility.yul\":6587:6704   */\n    tag_334:\n        /* \"#utility.yul\":6736:6816   */\n      tag_336\n        /* \"#utility.yul\":6808:6815   */\n      dup8\n        /* \"#utility.yul\":6799:6805   */\n      dup3\n        /* \"#utility.yul\":6788:6797   */\n      dup9\n        /* \"#utility.yul\":6784:6806   */\n      add\n        /* \"#utility.yul\":6736:6816   */\n      tag_225\n      jump\t// in\n    tag_336:\n        /* \"#utility.yul\":6718:6816   */\n      swap5\n      pop\n      swap5\n      pop\n        /* \"#utility.yul\":6514:6826   */\n      pop\n        /* \"#utility.yul\":6893:6895   */\n      0x20\n        /* \"#utility.yul\":6882:6891   */\n      dup6\n        /* \"#utility.yul\":6878:6896   */\n      add\n        /* \"#utility.yul\":6865:6897   */\n      calldataload\n        /* \"#utility.yul\":6924:6942   */\n      0xffffffffffffffff\n        /* \"#utility.yul\":6916:6922   */\n      dup2\n        /* \"#utility.yul\":6913:6943   */\n      gt\n        /* \"#utility.yul\":6910:7027   */\n      iszero\n      tag_337\n      jumpi\n        /* \"#utility.yul\":6946:7025   */\n      tag_338\n      tag_216\n      jump\t// in\n    tag_338:\n        /* \"#utility.yul\":6910:7027   */\n    tag_337:\n        /* \"#utility.yul\":7059:7139   */\n      tag_339\n        /* \"#utility.yul\":7131:7138   */\n      dup8\n        /* \"#utility.yul\":7122:7128   */\n      dup3\n        /* \"#utility.yul\":7111:7120   */\n      dup9\n        /* \"#utility.yul\":7107:7129   */\n      add\n        /* \"#utility.yul\":7059:7139   */\n      tag_226\n      jump\t// in\n    tag_339:\n        /* \"#utility.yul\":7041:7139   */\n      swap3\n      pop\n      swap3\n      pop\n        /* \"#utility.yul\":6836:7149   */\n      pop\n        /* \"#utility.yul\":6222:7156   */\n      swap3\n      swap6\n      swap2\n      swap5\n      pop\n      swap3\n      pop\n      jump\t// out\n        /* \"#utility.yul\":7162:7491   */\n    tag_50:\n        /* \"#utility.yul\":7221:7227   */\n      0x00\n        /* \"#utility.yul\":7270:7272   */\n      0x20\n        /* \"#utility.yul\":7258:7267   */\n      dup3\n        /* \"#utility.yul\":7249:7256   */\n      dup5\n        /* \"#utility.yul\":7245:7268   */\n      sub\n        /* \"#utility.yul\":7241:7273   */\n      slt\n        /* \"#utility.yul\":7238:7357   */\n      iszero\n      tag_341\n      jumpi\n        /* \"#utility.yul\":7276:7355   */\n      tag_342\n      tag_215\n      jump\t// in\n    tag_342:\n        /* \"#utility.yul\":7238:7357   */\n    tag_341:\n        /* \"#utility.yul\":7396:7397   */\n      0x00\n        /* \"#utility.yul\":7421:7474   */\n      tag_343\n        /* \"#utility.yul\":7466:7473   */\n      dup5\n        /* \"#utility.yul\":7457:7463   */\n      dup3\n        /* \"#utility.yul\":7446:7455   */\n      dup6\n        /* \"#utility.yul\":7442:7464   */\n      add\n        /* \"#utility.yul\":7421:7474   */\n      tag_228\n      jump\t// in\n    tag_343:\n        /* \"#utility.yul\":7411:7474   */\n      swap2\n      pop\n        /* \"#utility.yul\":7367:7484   */\n      pop\n        /* \"#utility.yul\":7162:7491   */\n      swap3\n      swap2\n      pop\n      pop\n      jump\t// out\n        /* \"#utility.yul\":7497:7666   */\n    tag_236:\n        /* \"#utility.yul\":7581:7592   */\n      0x00\n        /* \"#utility.yul\":7615:7621   */\n      dup3\n        /* \"#utility.yul\":7610:7613   */\n      dup3\n        /* \"#utility.yul\":7603:7622   */\n      mstore\n        /* \"#utility.yul\":7655:7659   */\n      0x20\n        /* \"#utility.yul\":7650:7653   */\n      dup3\n        /* \"#utility.yul\":7646:7660   */\n      add\n        /* \"#utility.yul\":7631:7660   */\n      swap1\n      pop\n        /* \"#utility.yul\":7497:7666   */\n      swap3\n      swap2\n      pop\n      pop\n      jump\t// out\n        /* \"#utility.yul\":7672:7837   */\n    tag_237:\n        /* \"#utility.yul\":7812:7829   */\n      0x6c656e6774682d6d69736d617463680000000000000000000000000000000000\n        /* \"#utility.yul\":7808:7809   */\n      0x00\n        /* \"#utility.yul\":7800:7806   */\n      dup3\n        /* \"#utility.yul\":7796:7810   */\n      add\n        /* \"#utility.yul\":7789:7830   */\n      mstore\n        /* \"#utility.yul\":7672:7837   */\n      pop\n      jump\t// out\n        /* \"#utility.yul\":7843:8209   */\n    tag_238:\n        /* \"#utility.yul\":7985:7988   */\n      0x00\n        /* \"#utility.yul\":8006:8073   */\n      tag_347\n        /* \"#utility.yul\":8070:8072   */\n      0x0f\n        /* \"#utility.yul\":8065:8068   */\n      dup4\n        /* \"#utility.yul\":8006:8073   */\n      tag_236\n      jump\t// in\n    tag_347:\n        /* \"#utility.yul\":7999:8073   */\n      swap2\n      pop\n        /* \"#utility.yul\":8082:8175   */\n      tag_348\n        /* \"#utility.yul\":8171:8174   */\n      dup3\n        /* \"#utility.yul\":8082:8175   */\n      tag_237\n      jump\t// in\n    tag_348:\n        /* \"#utility.yul\":8200:8202   */\n      0x20\n        /* \"#utility.yul\":8195:8198   */\n      dup3\n        /* \"#utility.yul\":8191:8203   */\n      add\n        /* \"#utility.yul\":8184:8203   */\n      swap1\n      pop\n        /* \"#utility.yul\":7843:8209   */\n      swap2\n      swap1\n      pop\n      jump\t// out\n        /* \"#utility.yul\":8215:8634   */\n    tag_58:\n        /* \"#utility.yul\":8381:8385   */\n      0x00\n        /* \"#utility.yul\":8419:8421   */\n      0x20\n        /* \"#utility.yul\":8408:8417   */\n      dup3\n        /* \"#utility.yul\":8404:8422   */\n      add\n        /* \"#utility.yul\":8396:8422   */\n      swap1\n      pop\n        /* \"#utility.yul\":8468:8477   */\n      dup2\n        /* \"#utility.yul\":8462:8466   */\n      dup2\n        /* \"#utility.yul\":8458:8478   */\n      sub\n        /* \"#utility.yul\":8454:8455   */\n      0x00\n        /* \"#utility.yul\":8443:8452   */\n      dup4\n        /* \"#utility.yul\":8439:8456   */\n      add\n        /* \"#utility.yul\":8432:8479   */\n      mstore\n        /* \"#utility.yul\":8496:8627   */\n      tag_350\n        /* \"#utility.yul\":8622:8626   */\n      dup2\n        /* \"#utility.yul\":8496:8627   */\n      tag_238\n      jump\t// in\n    tag_350:\n        /* \"#utility.yul\":8488:8627   */\n      swap1\n      pop\n        /* \"#utility.yul\":8215:8634   */\n      swap2\n      swap1\n      pop\n      jump\t// out\n        /* \"#utility.yul\":8640:8820   */\n    tag_64:\n        /* \"#utility.yul\":8688:8765   */\n      0x4e487b7100000000000000000000000000000000000000000000000000000000\n        /* \"#utility.yul\":8685:8686   */\n      0x00\n        /* \"#utility.yul\":8678:8766   */\n      mstore\n        /* \"#utility.yul\":8785:8789   */\n      0x32\n        /* \"#utility.yul\":8782:8783   */\n      0x04\n        /* \"#utility.yul\":8775:8790   */\n      mstore\n        /* \"#utility.yul\":8809:8813   */\n      0x24\n        /* \"#utility.yul\":8806:8807   */\n      0x00\n        /* \"#utility.yul\":8799:8814   */\n      revert\n        /* \"#utility.yul\":8826:9006   */\n    tag_239:\n        /* \"#utility.yul\":8874:8951   */\n      0x4e487b7100000000000000000000000000000000000000000000000000000000\n        /* \"#utility.yul\":8871:8872   */\n      0x00\n        /* \"#utility.yul\":8864:8952   */\n      mstore\n        /* \"#utility.yul\":8971:8975   */\n      0x11\n        /* \"#utility.yul\":8968:8969   */\n      0x04\n        /* \"#utility.yul\":8961:8976   */\n      mstore\n        /* \"#utility.yul\":8995:8999   */\n      0x24\n        /* \"#utility.yul\":8992:8993   */\n      0x00\n        /* \"#utility.yul\":8985:9000   */\n      revert\n        /* \"#utility.yul\":9012:9203   */\n    tag_66:\n        /* \"#utility.yul\":9052:9055   */\n      0x00\n        /* \"#utility.yul\":9071:9091   */\n      tag_354\n        /* \"#utility.yul\":9089:9090   */\n      dup3\n        /* \"#utility.yul\":9071:9091   */\n      tag_229\n      jump\t// in\n    tag_354:\n        /* \"#utility.yul\":9066:9091   */\n      swap2\n      pop\n        /* \"#utility.yul\":9105:9125   */\n      tag_355\n        /* \"#utility.yul\":9123:9124   */\n      dup4\n        /* \"#utility.yul\":9105:9125   */\n      tag_229\n      jump\t// in\n    tag_355:\n        /* \"#utility.yul\":9100:9125   */\n      swap3\n      pop\n        /* \"#utility.yul\":9148:9149   */\n      dup3\n        /* \"#utility.yul\":9145:9146   */\n      dup3\n        /* \"#utility.yul\":9141:9150   */\n      add\n        /* \"#utility.yul\":9134:9150   */\n      swap1\n      pop\n        /* \"#utility.yul\":9169:9172   */\n      dup1\n        /* \"#utility.yul\":9166:9167   */\n      dup3\n        /* \"#utility.yul\":9163:9173   */\n      gt\n        /* \"#utility.yul\":9160:9196   */\n      iszero\n      tag_356\n      jumpi\n        /* \"#utility.yul\":9176:9194   */\n      tag_357\n      tag_239\n      jump\t// in\n    tag_357:\n        /* \"#utility.yul\":9160:9196   */\n    tag_356:\n        /* \"#utility.yul\":9012:9203   */\n      swap3\n      swap2\n      pop\n      pop\n      jump\t// out\n        /* \"#utility.yul\":9209:9327   */\n    tag_240:\n        /* \"#utility.yul\":9296:9320   */\n      tag_359\n        /* \"#utility.yul\":9314:9319   */\n      dup2\n        /* \"#utility.yul\":9296:9320   */\n      tag_229\n      jump\t// in\n    tag_359:\n        /* \"#utility.yul\":9291:9294   */\n      dup3\n        /* \"#utility.yul\":9284:9321   */\n      mstore\n        /* \"#utility.yul\":9209:9327   */\n      pop\n      pop\n      jump\t// out\n        /* \"#utility.yul\":9333:9665   */\n    tag_78:\n        /* \"#utility.yul\":9454:9458   */\n      0x00\n        /* \"#utility.yul\":9492:9494   */\n      0x40\n        /* \"#utility.yul\":9481:9490   */\n      dup3\n        /* \"#utility.yul\":9477:9495   */\n      add\n        /* \"#utility.yul\":9469:9495   */\n      swap1\n      pop\n        /* \"#utility.yul\":9505:9576   */\n      tag_361\n        /* \"#utility.yul\":9573:9574   */\n      0x00\n        /* \"#utility.yul\":9562:9571   */\n      dup4\n        /* \"#utility.yul\":9558:9575   */\n      add\n        /* \"#utility.yul\":9549:9555   */\n      dup6\n        /* \"#utility.yul\":9505:9576   */\n      tag_240\n      jump\t// in\n    tag_361:\n        /* \"#utility.yul\":9586:9658   */\n      tag_362\n        /* \"#utility.yul\":9654:9656   */\n      0x20\n        /* \"#utility.yul\":9643:9652   */\n      dup4\n        /* \"#utility.yul\":9639:9657   */\n      add\n        /* \"#utility.yul\":9630:9636   */\n      dup5\n        /* \"#utility.yul\":9586:9658   */\n      tag_240\n      jump\t// in\n    tag_362:\n        /* \"#utility.yul\":9333:9665   */\n      swap4\n      swap3\n      pop\n      pop\n      pop\n      jump\t// out\n        /* \"#utility.yul\":9671:9893   */\n    tag_90:\n        /* \"#utility.yul\":9764:9768   */\n      0x00\n        /* \"#utility.yul\":9802:9804   */\n      0x20\n        /* \"#utility.yul\":9791:9800   */\n      dup3\n        /* \"#utility.yul\":9787:9805   */\n      add\n        /* \"#utility.yul\":9779:9805   */\n      swap1\n      pop\n        /* \"#utility.yul\":9815:9886   */\n      tag_364\n        /* \"#utility.yul\":9883:9884   */\n      0x00\n        /* \"#utility.yul\":9872:9881   */\n      dup4\n        /* \"#utility.yul\":9868:9885   */\n      add\n        /* \"#utility.yul\":9859:9865   */\n      dup5\n        /* \"#utility.yul\":9815:9886   */\n      tag_240\n      jump\t// in\n    tag_364:\n        /* \"#utility.yul\":9671:9893   */\n      swap3\n      swap2\n      pop\n      pop\n      jump\t// out\n        /* \"#utility.yul\":9899:10065   */\n    tag_241:\n        /* \"#utility.yul\":10039:10057   */\n      0x696e73756666696369656e742d65746800000000000000000000000000000000\n        /* \"#utility.yul\":10035:10036   */\n      0x00\n        /* \"#utility.yul\":10027:10033   */\n      dup3\n        /* \"#utility.yul\":10023:10037   */\n      add\n        /* \"#utility.yul\":10016:10058   */\n      mstore\n        /* \"#utility.yul\":9899:10065   */\n      pop\n      jump\t// out\n        /* \"#utility.yul\":10071:10437   */\n    tag_242:\n        /* \"#utility.yul\":10213:10216   */\n      0x00\n        /* \"#utility.yul\":10234:10301   */\n      tag_367\n        /* \"#utility.yul\":10298:10300   */\n      0x10\n        /* \"#utility.yul\":10293:10296   */\n      dup4\n        /* \"#utility.yul\":10234:10301   */\n      tag_236\n      jump\t// in\n    tag_367:\n        /* \"#utility.yul\":10227:10301   */\n      swap2\n      pop\n        /* \"#utility.yul\":10310:10403   */\n      tag_368\n        /* \"#utility.yul\":10399:10402   */\n      dup3\n        /* \"#utility.yul\":10310:10403   */\n      tag_241\n      jump\t// in\n    tag_368:\n        /* \"#utility.yul\":10428:10430   */\n      0x20\n        /* \"#utility.yul\":10423:10426   */\n      dup3\n        /* \"#utility.yul\":10419:10431   */\n      add\n        /* \"#utility.yul\":10412:10431   */\n      swap1\n      pop\n        /* \"#utility.yul\":10071:10437   */\n      swap2\n      swap1\n      pop\n      jump\t// out\n        /* \"#utility.yul\":10443:10862   */\n    tag_99:\n        /* \"#utility.yul\":10609:10613   */\n      0x00\n        /* \"#utility.yul\":10647:10649   */\n      0x20\n        /* \"#utility.yul\":10636:10645   */\n      dup3\n        /* \"#utility.yul\":10632:10650   */\n      add\n        /* \"#utility.yul\":10624:10650   */\n      swap1\n      pop\n        /* \"#utility.yul\":10696:10705   */\n      dup2\n        /* \"#utility.yul\":10690:10694   */\n      dup2\n        /* \"#utility.yul\":10686:10706   */\n      sub\n        /* \"#utility.yul\":10682:10683   */\n      0x00\n        /* \"#utility.yul\":10671:10680   */\n      dup4\n        /* \"#utility.yul\":10667:10684   */\n      add\n        /* \"#utility.yul\":10660:10707   */\n      mstore\n        /* \"#utility.yul\":10724:10855   */\n      tag_370\n        /* \"#utility.yul\":10850:10854   */\n      dup2\n        /* \"#utility.yul\":10724:10855   */\n      tag_242\n      jump\t// in\n    tag_370:\n        /* \"#utility.yul\":10716:10855   */\n      swap1\n      pop\n        /* \"#utility.yul\":10443:10862   */\n      swap2\n      swap1\n      pop\n      jump\t// out\n        /* \"#utility.yul\":10868:11015   */\n    tag_243:\n        /* \"#utility.yul\":10969:10980   */\n      0x00\n        /* \"#utility.yul\":11006:11009   */\n      dup2\n        /* \"#utility.yul\":10991:11009   */\n      swap1\n      pop\n        /* \"#utility.yul\":10868:11015   */\n      swap3\n      swap2\n      pop\n      pop\n      jump\t// out\n        /* \"#utility.yul\":11021:11135   */\n    tag_244:\n      pop\n      jump\t// out\n        /* \"#utility.yul\":11141:11539   */\n    tag_245:\n        /* \"#utility.yul\":11300:11303   */\n      0x00\n        /* \"#utility.yul\":11321:11404   */\n      tag_374\n        /* \"#utility.yul\":11402:11403   */\n      0x00\n        /* \"#utility.yul\":11397:11400   */\n      dup4\n        /* \"#utility.yul\":11321:11404   */\n      tag_243\n      jump\t// in\n    tag_374:\n        /* \"#utility.yul\":11314:11404   */\n      swap2\n      pop\n        /* \"#utility.yul\":11413:11506   */\n      tag_375\n        /* \"#utility.yul\":11502:11505   */\n      dup3\n        /* \"#utility.yul\":11413:11506   */\n      tag_244\n      jump\t// in\n    tag_375:\n        /* \"#utility.yul\":11531:11532   */\n      0x00\n        /* \"#utility.yul\":11526:11529   */\n      dup3\n        /* \"#utility.yul\":11522:11533   */\n      add\n        /* \"#utility.yul\":11515:11533   */\n      swap1\n      pop\n        /* \"#utility.yul\":11141:11539   */\n      swap2\n      swap1\n      pop\n      jump\t// out\n        /* \"#utility.yul\":11545:11924   */\n    tag_101:\n        /* \"#utility.yul\":11729:11732   */\n      0x00\n        /* \"#utility.yul\":11751:11898   */\n      tag_377\n        /* \"#utility.yul\":11894:11897   */\n      dup3\n        /* \"#utility.yul\":11751:11898   */\n      tag_245\n      jump\t// in\n    tag_377:\n        /* \"#utility.yul\":11744:11898   */\n      swap2\n      pop\n        /* \"#utility.yul\":11915:11918   */\n      dup2\n        /* \"#utility.yul\":11908:11918   */\n      swap1\n      pop\n        /* \"#utility.yul\":11545:11924   */\n      swap2\n      swap1\n      pop\n      jump\t// out\n        /* \"#utility.yul\":11930:12095   */\n    tag_246:\n        /* \"#utility.yul\":12070:12087   */\n      0x77697468647261772d6661696c65640000000000000000000000000000000000\n        /* \"#utility.yul\":12066:12067   */\n      0x00\n        /* \"#utility.yul\":12058:12064   */\n      dup3\n        /* \"#utility.yul\":12054:12068   */\n      add\n        /* \"#utility.yul\":12047:12088   */\n      mstore\n        /* \"#utility.yul\":11930:12095   */\n      pop\n      jump\t// out\n        /* \"#utility.yul\":12101:12467   */\n    tag_247:\n        /* \"#utility.yul\":12243:12246   */\n      0x00\n        /* \"#utility.yul\":12264:12331   */\n      tag_380\n        /* \"#utility.yul\":12328:12330   */\n      0x0f\n        /* \"#utility.yul\":12323:12326   */\n      dup4\n        /* \"#utility.yul\":12264:12331   */\n      tag_236\n      jump\t// in\n    tag_380:\n        /* \"#utility.yul\":12257:12331   */\n      swap2\n      pop\n        /* \"#utility.yul\":12340:12433   */\n      tag_381\n        /* \"#utility.yul\":12429:12432   */\n      dup3\n        /* \"#utility.yul\":12340:12433   */\n      tag_246\n      jump\t// in\n    tag_381:\n        /* \"#utility.yul\":12458:12460   */\n      0x20\n        /* \"#utility.yul\":12453:12456   */\n      dup3\n        /* \"#utility.yul\":12449:12461   */\n      add\n        /* \"#utility.yul\":12442:12461   */\n      swap1\n      pop\n        /* \"#utility.yul\":12101:12467   */\n      swap2\n      swap1\n      pop\n      jump\t// out\n        /* \"#utility.yul\":12473:12892   */\n    tag_107:\n        /* \"#utility.yul\":12639:12643   */\n      0x00\n        /* \"#utility.yul\":12677:12679   */\n      0x20\n        /* \"#utility.yul\":12666:12675   */\n      dup3\n        /* \"#utility.yul\":12662:12680   */\n      add\n        /* \"#utility.yul\":12654:12680   */\n      swap1\n      pop\n        /* \"#utility.yul\":12726:12735   */\n      dup2\n        /* \"#utility.yul\":12720:12724   */\n      dup2\n        /* \"#utility.yul\":12716:12736   */\n      sub\n        /* \"#utility.yul\":12712:12713   */\n      0x00\n        /* \"#utility.yul\":12701:12710   */\n      dup4\n        /* \"#utility.yul\":12697:12714   */\n      add\n        /* \"#utility.yul\":12690:12737   */\n      mstore\n        /* \"#utility.yul\":12754:12885   */\n      tag_383\n        /* \"#utility.yul\":12880:12884   */\n      dup2\n        /* \"#utility.yul\":12754:12885   */\n      tag_247\n      jump\t// in\n    tag_383:\n        /* \"#utility.yul\":12746:12885   */\n      swap1\n      pop\n        /* \"#utility.yul\":12473:12892   */\n      swap2\n      swap1\n      pop\n      jump\t// out\n        /* \"#utility.yul\":12898:13041   */\n    tag_248:\n        /* \"#utility.yul\":12955:12960   */\n      0x00\n        /* \"#utility.yul\":12986:12992   */\n      dup2\n        /* \"#utility.yul\":12980:12993   */\n      mload\n        /* \"#utility.yul\":12971:12993   */\n      swap1\n      pop\n        /* \"#utility.yul\":13002:13035   */\n      tag_385\n        /* \"#utility.yul\":13029:13034   */\n      dup2\n        /* \"#utility.yul\":13002:13035   */\n      tag_230\n      jump\t// in\n    tag_385:\n        /* \"#utility.yul\":12898:13041   */\n      swap3\n      swap2\n      pop\n      pop\n      jump\t// out\n        /* \"#utility.yul\":13047:13398   */\n    tag_133:\n        /* \"#utility.yul\":13117:13123   */\n      0x00\n        /* \"#utility.yul\":13166:13168   */\n      0x20\n        /* \"#utility.yul\":13154:13163   */\n      dup3\n        /* \"#utility.yul\":13145:13152   */\n      dup5\n        /* \"#utility.yul\":13141:13164   */\n      sub\n        /* \"#utility.yul\":13137:13169   */\n      slt\n        /* \"#utility.yul\":13134:13253   */\n      iszero\n      tag_387\n      jumpi\n        /* \"#utility.yul\":13172:13251   */\n      tag_388\n      tag_215\n      jump\t// in\n    tag_388:\n        /* \"#utility.yul\":13134:13253   */\n    tag_387:\n        /* \"#utility.yul\":13292:13293   */\n      0x00\n        /* \"#utility.yul\":13317:13381   */\n      tag_389\n        /* \"#utility.yul\":13373:13380   */\n      dup5\n        /* \"#utility.yul\":13364:13370   */\n      dup3\n        /* \"#utility.yul\":13353:13362   */\n      dup6\n        /* \"#utility.yul\":13349:13371   */\n      add\n        /* \"#utility.yul\":13317:13381   */\n      tag_248\n      jump\t// in\n    tag_389:\n        /* \"#utility.yul\":13307:13381   */\n      swap2\n      pop\n        /* \"#utility.yul\":13263:13391   */\n      pop\n        /* \"#utility.yul\":13047:13398   */\n      swap3\n      swap2\n      pop\n      pop\n      jump\t// out\n        /* \"#utility.yul\":13404:13583   */\n    tag_249:\n        /* \"#utility.yul\":13544:13575   */\n      0x696e73756666696369656e742d636f6e74726163742d62616c616e6365000000\n        /* \"#utility.yul\":13540:13541   */\n      0x00\n        /* \"#utility.yul\":13532:13538   */\n      dup3\n        /* \"#utility.yul\":13528:13542   */\n      add\n        /* \"#utility.yul\":13521:13576   */\n      mstore\n        /* \"#utility.yul\":13404:13583   */\n      pop\n      jump\t// out\n        /* \"#utility.yul\":13589:13955   */\n    tag_250:\n        /* \"#utility.yul\":13731:13734   */\n      0x00\n        /* \"#utility.yul\":13752:13819   */\n      tag_392\n        /* \"#utility.yul\":13816:13818   */\n      0x1d\n        /* \"#utility.yul\":13811:13814   */\n      dup4\n        /* \"#utility.yul\":13752:13819   */\n      tag_236\n      jump\t// in\n    tag_392:\n        /* \"#utility.yul\":13745:13819   */\n      swap2\n      pop\n        /* \"#utility.yul\":13828:13921   */\n      tag_393\n        /* \"#utility.yul\":13917:13920   */\n      dup3\n        /* \"#utility.yul\":13828:13921   */\n      tag_249\n      jump\t// in\n    tag_393:\n        /* \"#utility.yul\":13946:13948   */\n      0x20\n        /* \"#utility.yul\":13941:13944   */\n      dup3\n        /* \"#utility.yul\":13937:13949   */\n      add\n        /* \"#utility.yul\":13930:13949   */\n      swap1\n      pop\n        /* \"#utility.yul\":13589:13955   */\n      swap2\n      swap1\n      pop\n      jump\t// out\n        /* \"#utility.yul\":13961:14380   */\n    tag_136:\n        /* \"#utility.yul\":14127:14131   */\n      0x00\n        /* \"#utility.yul\":14165:14167   */\n      0x20\n        /* \"#utility.yul\":14154:14163   */\n      dup3\n        /* \"#utility.yul\":14150:14168   */\n      add\n        /* \"#utility.yul\":14142:14168   */\n      swap1\n      pop\n        /* \"#utility.yul\":14214:14223   */\n      dup2\n        /* \"#utility.yul\":14208:14212   */\n      dup2\n        /* \"#utility.yul\":14204:14224   */\n      sub\n        /* \"#utility.yul\":14200:14201   */\n      0x00\n        /* \"#utility.yul\":14189:14198   */\n      dup4\n        /* \"#utility.yul\":14185:14202   */\n      add\n        /* \"#utility.yul\":14178:14225   */\n      mstore\n        /* \"#utility.yul\":14242:14373   */\n      tag_395\n        /* \"#utility.yul\":14368:14372   */\n      dup2\n        /* \"#utility.yul\":14242:14373   */\n      tag_250\n      jump\t// in\n    tag_395:\n        /* \"#utility.yul\":14234:14373   */\n      swap1\n      pop\n        /* \"#utility.yul\":13961:14380   */\n      swap2\n      swap1\n      pop\n      jump\t// out\n        /* \"#utility.yul\":14386:14550   */\n    tag_251:\n        /* \"#utility.yul\":14526:14542   */\n      0x76616c75652d6d69736d61746368000000000000000000000000000000000000\n        /* \"#utility.yul\":14522:14523   */\n      0x00\n        /* \"#utility.yul\":14514:14520   */\n      dup3\n        /* \"#utility.yul\":14510:14524   */\n      add\n        /* \"#utility.yul\":14503:14543   */\n      mstore\n        /* \"#utility.yul\":14386:14550   */\n      pop\n      jump\t// out\n        /* \"#utility.yul\":14556:14922   */\n    tag_252:\n        /* \"#utility.yul\":14698:14701   */\n      0x00\n        /* \"#utility.yul\":14719:14786   */\n      tag_398\n        /* \"#utility.yul\":14783:14785   */\n      0x0e\n        /* \"#utility.yul\":14778:14781   */\n      dup4\n        /* \"#utility.yul\":14719:14786   */\n      tag_236\n      jump\t// in\n    tag_398:\n        /* \"#utility.yul\":14712:14786   */\n      swap2\n      pop\n        /* \"#utility.yul\":14795:14888   */\n      tag_399\n        /* \"#utility.yul\":14884:14887   */\n      dup3\n        /* \"#utility.yul\":14795:14888   */\n      tag_251\n      jump\t// in\n    tag_399:\n        /* \"#utility.yul\":14913:14915   */\n      0x20\n        /* \"#utility.yul\":14908:14911   */\n      dup3\n        /* \"#utility.yul\":14904:14916   */\n      add\n        /* \"#utility.yul\":14897:14916   */\n      swap1\n      pop\n        /* \"#utility.yul\":14556:14922   */\n      swap2\n      swap1\n      pop\n      jump\t// out\n        /* \"#utility.yul\":14928:15347   */\n    tag_161:\n        /* \"#utility.yul\":15094:15098   */\n      0x00\n        /* \"#utility.yul\":15132:15134   */\n      0x20\n        /* \"#utility.yul\":15121:15130   */\n      dup3\n        /* \"#utility.yul\":15117:15135   */\n      add\n        /* \"#utility.yul\":15109:15135   */\n      swap1\n      pop\n        /* \"#utility.yul\":15181:15190   */\n      dup2\n        /* \"#utility.yul\":15175:15179   */\n      dup2\n        /* \"#utility.yul\":15171:15191   */\n      sub\n        /* \"#utility.yul\":15167:15168   */\n      0x00\n        /* \"#utility.yul\":15156:15165   */\n      dup4\n        /* \"#utility.yul\":15152:15169   */\n      add\n        /* \"#utility.yul\":15145:15192   */\n      mstore\n        /* \"#utility.yul\":15209:15340   */\n      tag_401\n        /* \"#utility.yul\":15335:15339   */\n      dup2\n        /* \"#utility.yul\":15209:15340   */\n      tag_252\n      jump\t// in\n    tag_401:\n        /* \"#utility.yul\":15201:15340   */\n      swap1\n      pop\n        /* \"#utility.yul\":14928:15347   */\n      swap2\n      swap1\n      pop\n      jump\t// out\n        /* \"#utility.yul\":15353:15518   */\n    tag_253:\n        /* \"#utility.yul\":15493:15510   */\n      0x6574682d73656e642d6661696c65640000000000000000000000000000000000\n        /* \"#utility.yul\":15489:15490   */\n      0x00\n        /* \"#utility.yul\":15481:15487   */\n      dup3\n        /* \"#utility.yul\":15477:15491   */\n      add\n        /* \"#utility.yul\":15470:15511   */\n      mstore\n        /* \"#utility.yul\":15353:15518   */\n      pop\n      jump\t// out\n        /* \"#utility.yul\":15524:15890   */\n    tag_254:\n        /* \"#utility.yul\":15666:15669   */\n      0x00\n        /* \"#utility.yul\":15687:15754   */\n      tag_404\n        /* \"#utility.yul\":15751:15753   */\n      0x0f\n        /* \"#utility.yul\":15746:15749   */\n      dup4\n        /* \"#utility.yul\":15687:15754   */\n      tag_236\n      jump\t// in\n    tag_404:\n        /* \"#utility.yul\":15680:15754   */\n      swap2\n      pop\n        /* \"#utility.yul\":15763:15856   */\n      tag_405\n        /* \"#utility.yul\":15852:15855   */\n      dup3\n        /* \"#utility.yul\":15763:15856   */\n      tag_253\n      jump\t// in\n    tag_405:\n        /* \"#utility.yul\":15881:15883   */\n      0x20\n        /* \"#utility.yul\":15876:15879   */\n      dup3\n        /* \"#utility.yul\":15872:15884   */\n      add\n        /* \"#utility.yul\":15865:15884   */\n      swap1\n      pop\n        /* \"#utility.yul\":15524:15890   */\n      swap2\n      swap1\n      pop\n      jump\t// out\n        /* \"#utility.yul\":15896:16315   */\n    tag_176:\n        /* \"#utility.yul\":16062:16066   */\n      0x00\n        /* \"#utility.yul\":16100:16102   */\n      0x20\n        /* \"#utility.yul\":16089:16098   */\n      dup3\n        /* \"#utility.yul\":16085:16103   */\n      add\n        /* \"#utility.yul\":16077:16103   */\n      swap1\n      pop\n        /* \"#utility.yul\":16149:16158   */\n      dup2\n        /* \"#utility.yul\":16143:16147   */\n      dup2\n        /* \"#utility.yul\":16139:16159   */\n      sub\n        /* \"#utility.yul\":16135:16136   */\n      0x00\n        /* \"#utility.yul\":16124:16133   */\n      dup4\n        /* \"#utility.yul\":16120:16137   */\n      add\n        /* \"#utility.yul\":16113:16160   */\n      mstore\n        /* \"#utility.yul\":16177:16308   */\n      tag_407\n        /* \"#utility.yul\":16303:16307   */\n      dup2\n        /* \"#utility.yul\":16177:16308   */\n      tag_254\n      jump\t// in\n    tag_407:\n        /* \"#utility.yul\":16169:16308   */\n      swap1\n      pop\n        /* \"#utility.yul\":15896:16315   */\n      swap2\n      swap1\n      pop\n      jump\t// out\n        /* \"#utility.yul\":16321:16502   */\n    tag_255:\n        /* \"#utility.yul\":16461:16494   */\n      0x5265656e7472616e637947756172643a207265656e7472616e742063616c6c00\n        /* \"#utility.yul\":16457:16458   */\n      0x00\n        /* \"#utility.yul\":16449:16455   */\n      dup3\n        /* \"#utility.yul\":16445:16459   */\n      add\n        /* \"#utility.yul\":16438:16495   */\n      mstore\n        /* \"#utility.yul\":16321:16502   */\n      pop\n      jump\t// out\n        /* \"#utility.yul\":16508:16874   */\n    tag_256:\n        /* \"#utility.yul\":16650:16653   */\n      0x00\n        /* \"#utility.yul\":16671:16738   */\n      tag_410\n        /* \"#utility.yul\":16735:16737   */\n      0x1f\n        /* \"#utility.yul\":16730:16733   */\n      dup4\n        /* \"#utility.yul\":16671:16738   */\n      tag_236\n      jump\t// in\n    tag_410:\n        /* \"#utility.yul\":16664:16738   */\n      swap2\n      pop\n        /* \"#utility.yul\":16747:16840   */\n      tag_411\n        /* \"#utility.yul\":16836:16839   */\n      dup3\n        /* \"#utility.yul\":16747:16840   */\n      tag_255\n      jump\t// in\n    tag_411:\n        /* \"#utility.yul\":16865:16867   */\n      0x20\n        /* \"#utility.yul\":16860:16863   */\n      dup3\n        /* \"#utility.yul\":16856:16868   */\n      add\n        /* \"#utility.yul\":16849:16868   */\n      swap1\n      pop\n        /* \"#utility.yul\":16508:16874   */\n      swap2\n      swap1\n      pop\n      jump\t// out\n        /* \"#utility.yul\":16880:17299   */\n    tag_188:\n        /* \"#utility.yul\":17046:17050   */\n      0x00\n        /* \"#utility.yul\":17084:17086   */\n      0x20\n        /* \"#utility.yul\":17073:17082   */\n      dup3\n        /* \"#utility.yul\":17069:17087   */\n      add\n        /* \"#utility.yul\":17061:17087   */\n      swap1\n      pop\n        /* \"#utility.yul\":17133:17142   */\n      dup2\n        /* \"#utility.yul\":17127:17131   */\n      dup2\n        /* \"#utility.yul\":17123:17143   */\n      sub\n        /* \"#utility.yul\":17119:17120   */\n      0x00\n        /* \"#utility.yul\":17108:17117   */\n      dup4\n        /* \"#utility.yul\":17104:17121   */\n      add\n        /* \"#utility.yul\":17097:17144   */\n      mstore\n        /* \"#utility.yul\":17161:17292   */\n      tag_413\n        /* \"#utility.yul\":17287:17291   */\n      dup2\n        /* \"#utility.yul\":17161:17292   */\n      tag_256\n      jump\t// in\n    tag_413:\n        /* \"#utility.yul\":17153:17292   */\n      swap1\n      pop\n        /* \"#utility.yul\":16880:17299   */\n      swap2\n      swap1\n      pop\n      jump\t// out\n        /* \"#utility.yul\":17305:17747   */\n    tag_192:\n        /* \"#utility.yul\":17454:17458   */\n      0x00\n        /* \"#utility.yul\":17492:17494   */\n      0x60\n        /* \"#utility.yul\":17481:17490   */\n      dup3\n        /* \"#utility.yul\":17477:17495   */\n      add\n        /* \"#utility.yul\":17469:17495   */\n      swap1\n      pop\n        /* \"#utility.yul\":17505:17576   */\n      tag_415\n        /* \"#utility.yul\":17573:17574   */\n      0x00\n        /* \"#utility.yul\":17562:17571   */\n      dup4\n        /* \"#utility.yul\":17558:17575   */\n      add\n        /* \"#utility.yul\":17549:17555   */\n      dup7\n        /* \"#utility.yul\":17505:17576   */\n      tag_235\n      jump\t// in\n    tag_415:\n        /* \"#utility.yul\":17586:17658   */\n      tag_416\n        /* \"#utility.yul\":17654:17656   */\n      0x20\n        /* \"#utility.yul\":17643:17652   */\n      dup4\n        /* \"#utility.yul\":17639:17657   */\n      add\n        /* \"#utility.yul\":17630:17636   */\n      dup6\n        /* \"#utility.yul\":17586:17658   */\n      tag_235\n      jump\t// in\n    tag_416:\n        /* \"#utility.yul\":17668:17740   */\n      tag_417\n        /* \"#utility.yul\":17736:17738   */\n      0x40\n        /* \"#utility.yul\":17725:17734   */\n      dup4\n        /* \"#utility.yul\":17721:17739   */\n      add\n        /* \"#utility.yul\":17712:17718   */\n      dup5\n        /* \"#utility.yul\":17668:17740   */\n      tag_240\n      jump\t// in\n    tag_417:\n        /* \"#utility.yul\":17305:17747   */\n      swap5\n      swap4\n      pop\n      pop\n      pop\n      pop\n      jump\t// out\n        /* \"#utility.yul\":17753:18085   */\n    tag_205:\n        /* \"#utility.yul\":17874:17878   */\n      0x00\n        /* \"#utility.yul\":17912:17914   */\n      0x40\n        /* \"#utility.yul\":17901:17910   */\n      dup3\n        /* \"#utility.yul\":17897:17915   */\n      add\n        /* \"#utility.yul\":17889:17915   */\n      swap1\n      pop\n        /* \"#utility.yul\":17925:17996   */\n      tag_419\n        /* \"#utility.yul\":17993:17994   */\n      0x00\n        /* \"#utility.yul\":17982:17991   */\n      dup4\n        /* \"#utility.yul\":17978:17995   */\n      add\n        /* \"#utility.yul\":17969:17975   */\n      dup6\n        /* \"#utility.yul\":17925:17996   */\n      tag_235\n      jump\t// in\n    tag_419:\n        /* \"#utility.yul\":18006:18078   */\n      tag_420\n        /* \"#utility.yul\":18074:18076   */\n      0x20\n        /* \"#utility.yul\":18063:18072   */\n      dup4\n        /* \"#utility.yul\":18059:18077   */\n      add\n        /* \"#utility.yul\":18050:18056   */\n      dup5\n        /* \"#utility.yul\":18006:18078   */\n      tag_240\n      jump\t// in\n    tag_420:\n        /* \"#utility.yul\":17753:18085   */\n      swap4\n      swap3\n      pop\n      pop\n      pop\n      jump\t// out\n\n    auxdata: 0xa2646970667358221220f7bad7108ed2b561543a3de5b304f23772009fc7bd22663295e568f357442cd564736f6c634300081a0033\n}\n",
				"bytecode": {
					"linkReferences": {},
					"object": "608060405234801561000f575f80fd5b50335f73ffffffffffffffffffffffffffffffffffffffff168173ffffffffffffffffffffffffffffffffffffffff1603610081575f6040517f1e4fbdf7000000000000000000000000000000000000000000000000000000008152600401610078919061019d565b60405180910390fd5b6100908161009d60201b60201c565b50600180819055506101b6565b5f805f9054906101000a900473ffffffffffffffffffffffffffffffffffffffff169050815f806101000a81548173ffffffffffffffffffffffffffffffffffffffff021916908373ffffffffffffffffffffffffffffffffffffffff1602179055508173ffffffffffffffffffffffffffffffffffffffff168173ffffffffffffffffffffffffffffffffffffffff167f8be0079c531659141344cd1fd0a4f28419497f9722a3daafe3b4186f6b6457e060405160405180910390a35050565b5f73ffffffffffffffffffffffffffffffffffffffff82169050919050565b5f6101878261015e565b9050919050565b6101978161017d565b82525050565b5f6020820190506101b05f83018461018e565b92915050565b611648806101c35f395ff3fe60806040526004361061007e575f3560e01c80638da5cb5b1161004d5780638da5cb5b146101155780639f62eafe1461013f578063b874fa6a14610167578063f2fde38b1461018357610085565b80633e46cd531461008757806344004cc1146100af5780634782f779146100d7578063715018a6146100ff57610085565b3661008557005b005b348015610092575f80fd5b506100ad60048036038101906100a89190610eea565b6101ab565b005b3480156100ba575f80fd5b506100d560048036038101906100d09190610fd8565b610338565b005b3480156100e2575f80fd5b506100fd60048036038101906100f89190611063565b6103e5565b005b34801561010a575f80fd5b5061011361053b565b005b348015610120575f80fd5b5061012961054e565b60405161013691906110b0565b60405180910390f35b34801561014a575f80fd5b5061016560048036038101906101609190610eea565b610575565b005b610181600480360381019061017c91906110c9565b6107c7565b005b34801561018e575f80fd5b506101a960048036038101906101a49190611147565b6109fa565b005b6101b3610a7e565b5f8484905090508282905081146101ff576040517f08c379a00000000000000000000000000000000000000000000000000000000081526004016101f6906111cc565b60405180910390fd5b5f805b8281101561023c5784848281811061021d5761021c6111ea565b5b905060200201358261022f9190611244565b9150806001019050610202565b505f5b828110156102bf576102b43388888481811061025e5761025d6111ea565b5b90506020020160208101906102739190611147565b878785818110610286576102856111ea565b5b905060200201358b73ffffffffffffffffffffffffffffffffffffffff16610acd909392919063ffffffff16565b80600101905061023f565b503373ffffffffffffffffffffffffffffffffffffffff168773ffffffffffffffffffffffffffffffffffffffff167f8a88ad5eb4d4acfb8c47fcc9c5b0e66c5162ea704dd1e08cce235927434e18d2838560405161031f929190611286565b60405180910390a35050610331610b4f565b5050505050565b610340610b58565b610348610a7e565b61037382828573ffffffffffffffffffffffffffffffffffffffff16610bdf9092919063ffffffff16565b8173ffffffffffffffffffffffffffffffffffffffff168373ffffffffffffffffffffffffffffffffffffffff167fbfed55bdcd242e3dd0f60ddd7d1e87c67f61c34cd9527b3e6455d841b1025362836040516103d091906112ad565b60405180910390a36103e0610b4f565b505050565b6103ed610b58565b6103f5610a7e565b80471015610438576040517f08c379a000000000000000000000000000000000000000000000000000000000815260040161042f90611310565b60405180910390fd5b5f8273ffffffffffffffffffffffffffffffffffffffff168260405161045d9061135b565b5f6040518083038185875af1925050503d805f8114610497576040519150601f19603f3d011682016040523d82523d5f602084013e61049c565b606091505b50509050806104e0576040517f08c379a00000000000000000000000000000000000000000000000000000000081526004016104d7906113b9565b60405180910390fd5b8273ffffffffffffffffffffffffffffffffffffffff167f94b2de810873337ed265c5f8cf98c9cffefa06b8607f9a2f1fbaebdfbcfbef1c8360405161052691906112ad565b60405180910390a250610537610b4f565b5050565b610543610b58565b61054c5f610c5e565b565b5f805f9054906101000a900473ffffffffffffffffffffffffffffffffffffffff16905090565b61057d610b58565b610585610a7e565b5f8484905090508282905081146105d1576040517f08c379a00000000000000000000000000000000000000000000000000000000081526004016105c8906111cc565b60405180910390fd5b5f805b8281101561060e578484828181106105ef576105ee6111ea565b5b90506020020135826106019190611244565b91508060010190506105d4565b505f8773ffffffffffffffffffffffffffffffffffffffff166370a08231306040518263ffffffff1660e01b815260040161064991906110b0565b602060405180830381865afa158015610664573d5f803e3d5ffd5b505050506040513d601f19601f8201168201806040525081019061068891906113eb565b9050818110156106cd576040517f08c379a00000000000000000000000000000000000000000000000000000000081526004016106c490611460565b60405180910390fd5b5f5b8381101561074d576107428888838181106106ed576106ec6111ea565b5b90506020020160208101906107029190611147565b878784818110610715576107146111ea565b5b905060200201358b73ffffffffffffffffffffffffffffffffffffffff16610bdf9092919063ffffffff16565b8060010190506106cf565b503073ffffffffffffffffffffffffffffffffffffffff168873ffffffffffffffffffffffffffffffffffffffff167f8a88ad5eb4d4acfb8c47fcc9c5b0e66c5162ea704dd1e08cce235927434e18d284866040516107ad929190611286565b60405180910390a35050506107c0610b4f565b5050505050565b6107cf610a7e565b5f84849050905082829050811461081b576040517f08c379a0000000000000000000000000000000000000000000000000000000008152600401610812906111cc565b60405180910390fd5b5f805b8281101561085857848482818110610839576108386111ea565b5b905060200201358261084b9190611244565b915080600101905061081e565b5034811461089b576040517f08c379a0000000000000000000000000000000000000000000000000000000008152600401610892906114c8565b60405180910390fd5b5f5b82811015610999575f8787838181106108b9576108b86111ea565b5b90506020020160208101906108ce9190611147565b73ffffffffffffffffffffffffffffffffffffffff168686848181106108f7576108f66111ea565b5b9050602002013560405161090a9061135b565b5f6040518083038185875af1925050503d805f8114610944576040519150601f19603f3d011682016040523d82523d5f602084013e610949565b606091505b505090508061098d576040517f08c379a000000000000000000000000000000000000000000000000000000000815260040161098490611530565b60405180910390fd5b5080600101905061089d565b503373ffffffffffffffffffffffffffffffffffffffff167f45d6845dd4f0bdd735a522e3076f82702e80547a0e2b1304a2e483bca6d9cdc482846040516109e2929190611286565b60405180910390a250506109f4610b4f565b50505050565b610a02610b58565b5f73ffffffffffffffffffffffffffffffffffffffff168173ffffffffffffffffffffffffffffffffffffffff1603610a72575f6040517f1e4fbdf7000000000000000000000000000000000000000000000000000000008152600401610a6991906110b0565b60405180910390fd5b610a7b81610c5e565b50565b600260015403610ac3576040517f08c379a0000000000000000000000000000000000000000000000000000000008152600401610aba90611598565b60405180910390fd5b6002600181905550565b610b49848573ffffffffffffffffffffffffffffffffffffffff166323b872dd868686604051602401610b02939291906115b6565b604051602081830303815290604052915060e01b6020820180517bffffffffffffffffffffffffffffffffffffffffffffffffffffffff8381831617835250505050610d1f565b50505050565b60018081905550565b610b60610dba565b73ffffffffffffffffffffffffffffffffffffffff16610b7e61054e565b73ffffffffffffffffffffffffffffffffffffffff1614610bdd57610ba1610dba565b6040517f118cdaa7000000000000000000000000000000000000000000000000000000008152600401610bd491906110b0565b60405180910390fd5b565b610c59838473ffffffffffffffffffffffffffffffffffffffff1663a9059cbb8585604051602401610c129291906115eb565b604051602081830303815290604052915060e01b6020820180517bffffffffffffffffffffffffffffffffffffffffffffffffffffffff8381831617835250505050610d1f565b505050565b5f805f9054906101000a900473ffffffffffffffffffffffffffffffffffffffff169050815f806101000a81548173ffffffffffffffffffffffffffffffffffffffff021916908373ffffffffffffffffffffffffffffffffffffffff1602179055508173ffffffffffffffffffffffffffffffffffffffff168173ffffffffffffffffffffffffffffffffffffffff167f8be0079c531659141344cd1fd0a4f28419497f9722a3daafe3b4186f6b6457e060405160405180910390a35050565b5f8060205f8451602086015f885af180610d3e576040513d5f823e3d81fd5b3d92505f519150505f8214610d57576001811415610d72565b5f8473ffffffffffffffffffffffffffffffffffffffff163b145b15610db457836040517f5274afe7000000000000000000000000000000000000000000000000000000008152600401610dab91906110b0565b60405180910390fd5b50505050565b5f33905090565b5f80fd5b5f80fd5b5f73ffffffffffffffffffffffffffffffffffffffff82169050919050565b5f610df282610dc9565b9050919050565b5f610e0382610de8565b9050919050565b610e1381610df9565b8114610e1d575f80fd5b50565b5f81359050610e2e81610e0a565b92915050565b5f80fd5b5f80fd5b5f80fd5b5f8083601f840112610e5557610e54610e34565b5b8235905067ffffffffffffffff811115610e7257610e71610e38565b5b602083019150836020820283011115610e8e57610e8d610e3c565b5b9250929050565b5f8083601f840112610eaa57610ea9610e34565b5b8235905067ffffffffffffffff811115610ec757610ec6610e38565b5b602083019150836020820283011115610ee357610ee2610e3c565b5b9250929050565b5f805f805f60608688031215610f0357610f02610dc1565b5b5f610f1088828901610e20565b955050602086013567ffffffffffffffff811115610f3157610f30610dc5565b5b610f3d88828901610e40565b9450945050604086013567ffffffffffffffff811115610f6057610f5f610dc5565b5b610f6c88828901610e95565b92509250509295509295909350565b610f8481610de8565b8114610f8e575f80fd5b50565b5f81359050610f9f81610f7b565b92915050565b5f819050919050565b610fb781610fa5565b8114610fc1575f80fd5b50565b5f81359050610fd281610fae565b92915050565b5f805f60608486031215610fef57610fee610dc1565b5b5f610ffc86828701610e20565b935050602061100d86828701610f91565b925050604061101e86828701610fc4565b9150509250925092565b5f61103282610dc9565b9050919050565b61104281611028565b811461104c575f80fd5b50565b5f8135905061105d81611039565b92915050565b5f806040838503121561107957611078610dc1565b5b5f6110868582860161104f565b925050602061109785828601610fc4565b9150509250929050565b6110aa81610de8565b82525050565b5f6020820190506110c35f8301846110a1565b92915050565b5f805f80604085870312156110e1576110e0610dc1565b5b5f85013567ffffffffffffffff8111156110fe576110fd610dc5565b5b61110a87828801610e40565b9450945050602085013567ffffffffffffffff81111561112d5761112c610dc5565b5b61113987828801610e95565b925092505092959194509250565b5f6020828403121561115c5761115b610dc1565b5b5f61116984828501610f91565b91505092915050565b5f82825260208201905092915050565b7f6c656e6774682d6d69736d6174636800000000000000000000000000000000005f82015250565b5f6111b6600f83611172565b91506111c182611182565b602082019050919050565b5f6020820190508181035f8301526111e3816111aa565b9050919050565b7f4e487b71000000000000000000000000000000000000000000000000000000005f52603260045260245ffd5b7f4e487b71000000000000000000000000000000000000000000000000000000005f52601160045260245ffd5b5f61124e82610fa5565b915061125983610fa5565b925082820190508082111561127157611270611217565b5b92915050565b61128081610fa5565b82525050565b5f6040820190506112995f830185611277565b6112a66020830184611277565b9392505050565b5f6020820190506112c05f830184611277565b92915050565b7f696e73756666696369656e742d657468000000000000000000000000000000005f82015250565b5f6112fa601083611172565b9150611305826112c6565b602082019050919050565b5f6020820190508181035f830152611327816112ee565b9050919050565b5f81905092915050565b50565b5f6113465f8361132e565b915061135182611338565b5f82019050919050565b5f6113658261133b565b9150819050919050565b7f77697468647261772d6661696c656400000000000000000000000000000000005f82015250565b5f6113a3600f83611172565b91506113ae8261136f565b602082019050919050565b5f6020820190508181035f8301526113d081611397565b9050919050565b5f815190506113e581610fae565b92915050565b5f60208284031215611400576113ff610dc1565b5b5f61140d848285016113d7565b91505092915050565b7f696e73756666696369656e742d636f6e74726163742d62616c616e63650000005f82015250565b5f61144a601d83611172565b915061145582611416565b602082019050919050565b5f6020820190508181035f8301526114778161143e565b9050919050565b7f76616c75652d6d69736d617463680000000000000000000000000000000000005f82015250565b5f6114b2600e83611172565b91506114bd8261147e565b602082019050919050565b5f6020820190508181035f8301526114df816114a6565b9050919050565b7f6574682d73656e642d6661696c656400000000000000000000000000000000005f82015250565b5f61151a600f83611172565b9150611525826114e6565b602082019050919050565b5f6020820190508181035f8301526115478161150e565b9050919050565b7f5265656e7472616e637947756172643a207265656e7472616e742063616c6c005f82015250565b5f611582601f83611172565b915061158d8261154e565b602082019050919050565b5f6020820190508181035f8301526115af81611576565b9050919050565b5f6060820190506115c95f8301866110a1565b6115d660208301856110a1565b6115e36040830184611277565b949350505050565b5f6040820190506115fe5f8301856110a1565b61160b6020830184611277565b939250505056fea2646970667358221220f7bad7108ed2b561543a3de5b304f23772009fc7bd22663295e568f357442cd564736f6c634300081a0033",
					"opcodes": "PUSH1 0x80 PUSH1 0x40 MSTORE CALLVALUE DUP1 ISZERO PUSH2 0xF JUMPI PUSH0 DUP1 REVERT JUMPDEST POP CALLER PUSH0 PUSH20 0xFFFFFFFFFFFFFFFFFFFFFFFFFFFFFFFFFFFFFFFF AND DUP2 PUSH20 0xFFFFFFFFFFFFFFFFFFFFFFFFFFFFFFFFFFFFFFFF AND SUB PUSH2 0x81 JUMPI PUSH0 PUSH1 0x40 MLOAD PUSH32 0x1E4FBDF700000000000000000000000000000000000000000000000000000000 DUP2 MSTORE PUSH1 0x4 ADD PUSH2 0x78 SWAP2 SWAP1 PUSH2 0x19D JUMP JUMPDEST PUSH1 0x40 MLOAD DUP1 SWAP2 SUB SWAP1 REVERT JUMPDEST PUSH2 0x90 DUP2 PUSH2 0x9D PUSH1 0x20 SHL PUSH1 0x20 SHR JUMP JUMPDEST POP PUSH1 0x1 DUP1 DUP2 SWAP1 SSTORE POP PUSH2 0x1B6 JUMP JUMPDEST PUSH0 DUP1 PUSH0 SWAP1 SLOAD SWAP1 PUSH2 0x100 EXP SWAP1 DIV PUSH20 0xFFFFFFFFFFFFFFFFFFFFFFFFFFFFFFFFFFFFFFFF AND SWAP1 POP DUP2 PUSH0 DUP1 PUSH2 0x100 EXP DUP2 SLOAD DUP2 PUSH20 0xFFFFFFFFFFFFFFFFFFFFFFFFFFFFFFFFFFFFFFFF MUL NOT AND SWAP1 DUP4 PUSH20 0xFFFFFFFFFFFFFFFFFFFFFFFFFFFFFFFFFFFFFFFF AND MUL OR SWAP1 SSTORE POP DUP2 PUSH20 0xFFFFFFFFFFFFFFFFFFFFFFFFFFFFFFFFFFFFFFFF AND DUP2 PUSH20 0xFFFFFFFFFFFFFFFFFFFFFFFFFFFFFFFFFFFFFFFF AND PUSH32 0x8BE0079C531659141344CD1FD0A4F28419497F9722A3DAAFE3B4186F6B6457E0 PUSH1 0x40 MLOAD PUSH1 0x40 MLOAD DUP1 SWAP2 SUB SWAP1 LOG3 POP POP JUMP JUMPDEST PUSH0 PUSH20 0xFFFFFFFFFFFFFFFFFFFFFFFFFFFFFFFFFFFFFFFF DUP3 AND SWAP1 POP SWAP2 SWAP1 POP JUMP JUMPDEST PUSH0 PUSH2 0x187 DUP3 PUSH2 0x15E JUMP JUMPDEST SWAP1 POP SWAP2 SWAP1 POP JUMP JUMPDEST PUSH2 0x197 DUP2 PUSH2 0x17D JUMP JUMPDEST DUP3 MSTORE POP POP JUMP JUMPDEST PUSH0 PUSH1 0x20 DUP3 ADD SWAP1 POP PUSH2 0x1B0 PUSH0 DUP4 ADD DUP5 PUSH2 0x18E JUMP JUMPDEST SWAP3 SWAP2 POP POP JUMP JUMPDEST PUSH2 0x1648 DUP1 PUSH2 0x1C3 PUSH0 CODECOPY PUSH0 RETURN INVALID PUSH1 0x80 PUSH1 0x40 MSTORE PUSH1 0x4 CALLDATASIZE LT PUSH2 0x7E JUMPI PUSH0 CALLDATALOAD PUSH1 0xE0 SHR DUP1 PUSH4 0x8DA5CB5B GT PUSH2 0x4D JUMPI DUP1 PUSH4 0x8DA5CB5B EQ PUSH2 0x115 JUMPI DUP1 PUSH4 0x9F62EAFE EQ PUSH2 0x13F JUMPI DUP1 PUSH4 0xB874FA6A EQ PUSH2 0x167 JUMPI DUP1 PUSH4 0xF2FDE38B EQ PUSH2 0x183 JUMPI PUSH2 0x85 JUMP JUMPDEST DUP1 PUSH4 0x3E46CD53 EQ PUSH2 0x87 JUMPI DUP1 PUSH4 0x44004CC1 EQ PUSH2 0xAF JUMPI DUP1 PUSH4 0x4782F779 EQ PUSH2 0xD7 JUMPI DUP1 PUSH4 0x715018A6 EQ PUSH2 0xFF JUMPI PUSH2 0x85 JUMP JUMPDEST CALLDATASIZE PUSH2 0x85 JUMPI STOP JUMPDEST STOP JUMPDEST CALLVALUE DUP1 ISZERO PUSH2 0x92 JUMPI PUSH0 DUP1 REVERT JUMPDEST POP PUSH2 0xAD PUSH1 0x4 DUP1 CALLDATASIZE SUB DUP2 ADD SWAP1 PUSH2 0xA8 SWAP2 SWAP1 PUSH2 0xEEA JUMP JUMPDEST PUSH2 0x1AB JUMP JUMPDEST STOP JUMPDEST CALLVALUE DUP1 ISZERO PUSH2 0xBA JUMPI PUSH0 DUP1 REVERT JUMPDEST POP PUSH2 0xD5 PUSH1 0x4 DUP1 CALLDATASIZE SUB DUP2 ADD SWAP1 PUSH2 0xD0 SWAP2 SWAP1 PUSH2 0xFD8 JUMP JUMPDEST PUSH2 0x338 JUMP JUMPDEST STOP JUMPDEST CALLVALUE DUP1 ISZERO PUSH2 0xE2 JUMPI PUSH0 DUP1 REVERT JUMPDEST POP PUSH2 0xFD PUSH1 0x4 DUP1 CALLDATASIZE SUB DUP2 ADD SWAP1 PUSH2 0xF8 SWAP2 SWAP1 PUSH2 0x1063 JUMP JUMPDEST PUSH2 0x3E5 JUMP JUMPDEST STOP JUMPDEST CALLVALUE DUP1 ISZERO PUSH2 0x10A JUMPI PUSH0 DUP1 REVERT JUMPDEST POP PUSH2 0x113 PUSH2 0x53B JUMP JUMPDEST STOP JUMPDEST CALLVALUE DUP1 ISZERO PUSH2 0x120 JUMPI PUSH0 DUP1 REVERT JUMPDEST POP PUSH2 0x129 PUSH2 0x54E JUMP JUMPDEST PUSH1 0x40 MLOAD PUSH2 0x136 SWAP2 SWAP1 PUSH2 0x10B0 JUMP JUMPDEST PUSH1 0x40 MLOAD DUP1 SWAP2 SUB SWAP1 RETURN JUMPDEST CALLVALUE DUP1 ISZERO PUSH2 0x14A JUMPI PUSH0 DUP1 REVERT JUMPDEST POP PUSH2 0x165 PUSH1 0x4 DUP1 CALLDATASIZE SUB DUP2 ADD SWAP1 PUSH2 0x160 SWAP2 SWAP1 PUSH2 0xEEA JUMP JUMPDEST PUSH2 0x575 JUMP JUMPDEST STOP JUMPDEST PUSH2 0x181 PUSH1 0x4 DUP1 CALLDATASIZE SUB DUP2 ADD SWAP1 PUSH2 0x17C SWAP2 SWAP1 PUSH2 0x10C9 JUMP JUMPDEST PUSH2 0x7C7 JUMP JUMPDEST STOP JUMPDEST CALLVALUE DUP1 ISZERO PUSH2 0x18E JUMPI PUSH0 DUP1 REVERT JUMPDEST POP PUSH2 0x1A9 PUSH1 0x4 DUP1 CALLDATASIZE SUB DUP2 ADD SWAP1 PUSH2 0x1A4 SWAP2 SWAP1 PUSH2 0x1147 JUMP JUMPDEST PUSH2 0x9FA JUMP JUMPDEST STOP JUMPDEST PUSH2 0x1B3 PUSH2 0xA7E JUMP JUMPDEST PUSH0 DUP5 DUP5 SWAP1 POP SWAP1 POP DUP3 DUP3 SWAP1 POP DUP2 EQ PUSH2 0x1FF JUMPI PUSH1 0x40 MLOAD PUSH32 0x8C379A000000000000000000000000000000000000000000000000000000000 DUP2 MSTORE PUSH1 0x4 ADD PUSH2 0x1F6 SWAP1 PUSH2 0x11CC JUMP JUMPDEST PUSH1 0x40 MLOAD DUP1 SWAP2 SUB SWAP1 REVERT JUMPDEST PUSH0 DUP1 JUMPDEST DUP3 DUP2 LT ISZERO PUSH2 0x23C JUMPI DUP5 DUP5 DUP3 DUP2 DUP2 LT PUSH2 0x21D JUMPI PUSH2 0x21C PUSH2 0x11EA JUMP JUMPDEST JUMPDEST SWAP1 POP PUSH1 0x20 MUL ADD CALLDATALOAD DUP3 PUSH2 0x22F SWAP2 SWAP1 PUSH2 0x1244 JUMP JUMPDEST SWAP2 POP DUP1 PUSH1 0x1 ADD SWAP1 POP PUSH2 0x202 JUMP JUMPDEST POP PUSH0 JUMPDEST DUP3 DUP2 LT ISZERO PUSH2 0x2BF JUMPI PUSH2 0x2B4 CALLER DUP9 DUP9 DUP5 DUP2 DUP2 LT PUSH2 0x25E JUMPI PUSH2 0x25D PUSH2 0x11EA JUMP JUMPDEST JUMPDEST SWAP1 POP PUSH1 0x20 MUL ADD PUSH1 0x20 DUP2 ADD SWAP1 PUSH2 0x273 SWAP2 SWAP1 PUSH2 0x1147 JUMP JUMPDEST DUP8 DUP8 DUP6 DUP2 DUP2 LT PUSH2 0x286 JUMPI PUSH2 0x285 PUSH2 0x11EA JUMP JUMPDEST JUMPDEST SWAP1 POP PUSH1 0x20 MUL ADD CALLDATALOAD DUP12 PUSH20 0xFFFFFFFFFFFFFFFFFFFFFFFFFFFFFFFFFFFFFFFF AND PUSH2 0xACD SWAP1 SWAP4 SWAP3 SWAP2 SWAP1 PUSH4 0xFFFFFFFF AND JUMP JUMPDEST DUP1 PUSH1 0x1 ADD SWAP1 POP PUSH2 0x23F JUMP JUMPDEST POP CALLER PUSH20 0xFFFFFFFFFFFFFFFFFFFFFFFFFFFFFFFFFFFFFFFF AND DUP8 PUSH20 0xFFFFFFFFFFFFFFFFFFFFFFFFFFFFFFFFFFFFFFFF AND PUSH32 0x8A88AD5EB4D4ACFB8C47FCC9C5B0E66C5162EA704DD1E08CCE235927434E18D2 DUP4 DUP6 PUSH1 0x40 MLOAD PUSH2 0x31F SWAP3 SWAP2 SWAP1 PUSH2 0x1286 JUMP JUMPDEST PUSH1 0x40 MLOAD DUP1 SWAP2 SUB SWAP1 LOG3 POP POP PUSH2 0x331 PUSH2 0xB4F JUMP JUMPDEST POP POP POP POP POP JUMP JUMPDEST PUSH2 0x340 PUSH2 0xB58 JUMP JUMPDEST PUSH2 0x348 PUSH2 0xA7E JUMP JUMPDEST PUSH2 0x373 DUP3 DUP3 DUP6 PUSH20 0xFFFFFFFFFFFFFFFFFFFFFFFFFFFFFFFFFFFFFFFF AND PUSH2 0xBDF SWAP1 SWAP3 SWAP2 SWAP1 PUSH4 0xFFFFFFFF AND JUMP JUMPDEST DUP2 PUSH20 0xFFFFFFFFFFFFFFFFFFFFFFFFFFFFFFFFFFFFFFFF AND DUP4 PUSH20 0xFFFFFFFFFFFFFFFFFFFFFFFFFFFFFFFFFFFFFFFF AND PUSH32 0xBFED55BDCD242E3DD0F60DDD7D1E87C67F61C34CD9527B3E6455D841B1025362 DUP4 PUSH1 0x40 MLOAD PUSH2 0x3D0 SWAP2 SWAP1 PUSH2 0x12AD JUMP JUMPDEST PUSH1 0x40 MLOAD DUP1 SWAP2 SUB SWAP1 LOG3 PUSH2 0x3E0 PUSH2 0xB4F JUMP JUMPDEST POP POP POP JUMP JUMPDEST PUSH2 0x3ED PUSH2 0xB58 JUMP JUMPDEST PUSH2 0x3F5 PUSH2 0xA7E JUMP JUMPDEST DUP1 SELFBALANCE LT ISZERO PUSH2 0x438 JUMPI PUSH1 0x40 MLOAD PUSH32 0x8C379A000000000000000000000000000000000000000000000000000000000 DUP2 MSTORE PUSH1 0x4 ADD PUSH2 0x42F SWAP1 PUSH2 0x1310 JUMP JUMPDEST PUSH1 0x40 MLOAD DUP1 SWAP2 SUB SWAP1 REVERT JUMPDEST PUSH0 DUP3 PUSH20 0xFFFFFFFFFFFFFFFFFFFFFFFFFFFFFFFFFFFFFFFF AND DUP3 PUSH1 0x40 MLOAD PUSH2 0x45D SWAP1 PUSH2 0x135B JUMP JUMPDEST PUSH0 PUSH1 0x40 MLOAD DUP1 DUP4 SUB DUP2 DUP6 DUP8 GAS CALL SWAP3 POP POP POP RETURNDATASIZE DUP1 PUSH0 DUP2 EQ PUSH2 0x497 JUMPI PUSH1 0x40 MLOAD SWAP2 POP PUSH1 0x1F NOT PUSH1 0x3F RETURNDATASIZE ADD AND DUP3 ADD PUSH1 0x40 MSTORE RETURNDATASIZE DUP3 MSTORE RETURNDATASIZE PUSH0 PUSH1 0x20 DUP5 ADD RETURNDATACOPY PUSH2 0x49C JUMP JUMPDEST PUSH1 0x60 SWAP2 POP JUMPDEST POP POP SWAP1 POP DUP1 PUSH2 0x4E0 JUMPI PUSH1 0x40 MLOAD PUSH32 0x8C379A000000000000000000000000000000000000000000000000000000000 DUP2 MSTORE PUSH1 0x4 ADD PUSH2 0x4D7 SWAP1 PUSH2 0x13B9 JUMP JUMPDEST PUSH1 0x40 MLOAD DUP1 SWAP2 SUB SWAP1 REVERT JUMPDEST DUP3 PUSH20 0xFFFFFFFFFFFFFFFFFFFFFFFFFFFFFFFFFFFFFFFF AND PUSH32 0x94B2DE810873337ED265C5F8CF98C9CFFEFA06B8607F9A2F1FBAEBDFBCFBEF1C DUP4 PUSH1 0x40 MLOAD PUSH2 0x526 SWAP2 SWAP1 PUSH2 0x12AD JUMP JUMPDEST PUSH1 0x40 MLOAD DUP1 SWAP2 SUB SWAP1 LOG2 POP PUSH2 0x537 PUSH2 0xB4F JUMP JUMPDEST POP POP JUMP JUMPDEST PUSH2 0x543 PUSH2 0xB58 JUMP JUMPDEST PUSH2 0x54C PUSH0 PUSH2 0xC5E JUMP JUMPDEST JUMP JUMPDEST PUSH0 DUP1 PUSH0 SWAP1 SLOAD SWAP1 PUSH2 0x100 EXP SWAP1 DIV PUSH20 0xFFFFFFFFFFFFFFFFFFFFFFFFFFFFFFFFFFFFFFFF AND SWAP1 POP SWAP1 JUMP JUMPDEST PUSH2 0x57D PUSH2 0xB58 JUMP JUMPDEST PUSH2 0x585 PUSH2 0xA7E JUMP JUMPDEST PUSH0 DUP5 DUP5 SWAP1 POP SWAP1 POP DUP3 DUP3 SWAP1 POP DUP2 EQ PUSH2 0x5D1 JUMPI PUSH1 0x40 MLOAD PUSH32 0x8C379A000000000000000000000000000000000000000000000000000000000 DUP2 MSTORE PUSH1 0x4 ADD PUSH2 0x5C8 SWAP1 PUSH2 0x11CC JUMP JUMPDEST PUSH1 0x40 MLOAD DUP1 SWAP2 SUB SWAP1 REVERT JUMPDEST PUSH0 DUP1 JUMPDEST DUP3 DUP2 LT ISZERO PUSH2 0x60E JUMPI DUP5 DUP5 DUP3 DUP2 DUP2 LT PUSH2 0x5EF JUMPI PUSH2 0x5EE PUSH2 0x11EA JUMP JUMPDEST JUMPDEST SWAP1 POP PUSH1 0x20 MUL ADD CALLDATALOAD DUP3 PUSH2 0x601 SWAP2 SWAP1 PUSH2 0x1244 JUMP JUMPDEST SWAP2 POP DUP1 PUSH1 0x1 ADD SWAP1 POP PUSH2 0x5D4 JUMP JUMPDEST POP PUSH0 DUP8 PUSH20 0xFFFFFFFFFFFFFFFFFFFFFFFFFFFFFFFFFFFFFFFF AND PUSH4 0x70A08231 ADDRESS PUSH1 0x40 MLOAD DUP3 PUSH4 0xFFFFFFFF AND PUSH1 0xE0 SHL DUP2 MSTORE PUSH1 0x4 ADD PUSH2 0x649 SWAP2 SWAP1 PUSH2 0x10B0 JUMP JUMPDEST PUSH1 0x20 PUSH1 0x40 MLOAD DUP1 DUP4 SUB DUP2 DUP7 GAS STATICCALL ISZERO DUP1 ISZERO PUSH2 0x664 JUMPI RETURNDATASIZE PUSH0 DUP1 RETURNDATACOPY RETURNDATASIZE PUSH0 REVERT JUMPDEST POP POP POP POP PUSH1 0x40 MLOAD RETURNDATASIZE PUSH1 0x1F NOT PUSH1 0x1F DUP3 ADD AND DUP3 ADD DUP1 PUSH1 0x40 MSTORE POP DUP2 ADD SWAP1 PUSH2 0x688 SWAP2 SWAP1 PUSH2 0x13EB JUMP JUMPDEST SWAP1 POP DUP2 DUP2 LT ISZERO PUSH2 0x6CD JUMPI PUSH1 0x40 MLOAD PUSH32 0x8C379A000000000000000000000000000000000000000000000000000000000 DUP2 MSTORE PUSH1 0x4 ADD PUSH2 0x6C4 SWAP1 PUSH2 0x1460 JUMP JUMPDEST PUSH1 0x40 MLOAD DUP1 SWAP2 SUB SWAP1 REVERT JUMPDEST PUSH0 JUMPDEST DUP4 DUP2 LT ISZERO PUSH2 0x74D JUMPI PUSH2 0x742 DUP9 DUP9 DUP4 DUP2 DUP2 LT PUSH2 0x6ED JUMPI PUSH2 0x6EC PUSH2 0x11EA JUMP JUMPDEST JUMPDEST SWAP1 POP PUSH1 0x20 MUL ADD PUSH1 0x20 DUP2 ADD SWAP1 PUSH2 0x702 SWAP2 SWAP1 PUSH2 0x1147 JUMP JUMPDEST DUP8 DUP8 DUP5 DUP2 DUP2 LT PUSH2 0x715 JUMPI PUSH2 0x714 PUSH2 0x11EA JUMP JUMPDEST JUMPDEST SWAP1 POP PUSH1 0x20 MUL ADD CALLDATALOAD DUP12 PUSH20 0xFFFFFFFFFFFFFFFFFFFFFFFFFFFFFFFFFFFFFFFF AND PUSH2 0xBDF SWAP1 SWAP3 SWAP2 SWAP1 PUSH4 0xFFFFFFFF AND JUMP JUMPDEST DUP1 PUSH1 0x1 ADD SWAP1 POP PUSH2 0x6CF JUMP JUMPDEST POP ADDRESS PUSH20 0xFFFFFFFFFFFFFFFFFFFFFFFFFFFFFFFFFFFFFFFF AND DUP9 PUSH20 0xFFFFFFFFFFFFFFFFFFFFFFFFFFFFFFFFFFFFFFFF AND PUSH32 0x8A88AD5EB4D4ACFB8C47FCC9C5B0E66C5162EA704DD1E08CCE235927434E18D2 DUP5 DUP7 PUSH1 0x40 MLOAD PUSH2 0x7AD SWAP3 SWAP2 SWAP1 PUSH2 0x1286 JUMP JUMPDEST PUSH1 0x40 MLOAD DUP1 SWAP2 SUB SWAP1 LOG3 POP POP POP PUSH2 0x7C0 PUSH2 0xB4F JUMP JUMPDEST POP POP POP POP POP JUMP JUMPDEST PUSH2 0x7CF PUSH2 0xA7E JUMP JUMPDEST PUSH0 DUP5 DUP5 SWAP1 POP SWAP1 POP DUP3 DUP3 SWAP1 POP DUP2 EQ PUSH2 0x81B JUMPI PUSH1 0x40 MLOAD PUSH32 0x8C379A000000000000000000000000000000000000000000000000000000000 DUP2 MSTORE PUSH1 0x4 ADD PUSH2 0x812 SWAP1 PUSH2 0x11CC JUMP JUMPDEST PUSH1 0x40 MLOAD DUP1 SWAP2 SUB SWAP1 REVERT JUMPDEST PUSH0 DUP1 JUMPDEST DUP3 DUP2 LT ISZERO PUSH2 0x858 JUMPI DUP5 DUP5 DUP3 DUP2 DUP2 LT PUSH2 0x839 JUMPI PUSH2 0x838 PUSH2 0x11EA JUMP JUMPDEST JUMPDEST SWAP1 POP PUSH1 0x20 MUL ADD CALLDATALOAD DUP3 PUSH2 0x84B SWAP2 SWAP1 PUSH2 0x1244 JUMP JUMPDEST SWAP2 POP DUP1 PUSH1 0x1 ADD SWAP1 POP PUSH2 0x81E JUMP JUMPDEST POP CALLVALUE DUP2 EQ PUSH2 0x89B JUMPI PUSH1 0x40 MLOAD PUSH32 0x8C379A000000000000000000000000000000000000000000000000000000000 DUP2 MSTORE PUSH1 0x4 ADD PUSH2 0x892 SWAP1 PUSH2 0x14C8 JUMP JUMPDEST PUSH1 0x40 MLOAD DUP1 SWAP2 SUB SWAP1 REVERT JUMPDEST PUSH0 JUMPDEST DUP3 DUP2 LT ISZERO PUSH2 0x999 JUMPI PUSH0 DUP8 DUP8 DUP4 DUP2 DUP2 LT PUSH2 0x8B9 JUMPI PUSH2 0x8B8 PUSH2 0x11EA JUMP JUMPDEST JUMPDEST SWAP1 POP PUSH1 0x20 MUL ADD PUSH1 0x20 DUP2 ADD SWAP1 PUSH2 0x8CE SWAP2 SWAP1 PUSH2 0x1147 JUMP JUMPDEST PUSH20 0xFFFFFFFFFFFFFFFFFFFFFFFFFFFFFFFFFFFFFFFF AND DUP7 DUP7 DUP5 DUP2 DUP2 LT PUSH2 0x8F7 JUMPI PUSH2 0x8F6 PUSH2 0x11EA JUMP JUMPDEST JUMPDEST SWAP1 POP PUSH1 0x20 MUL ADD CALLDATALOAD PUSH1 0x40 MLOAD PUSH2 0x90A SWAP1 PUSH2 0x135B JUMP JUMPDEST PUSH0 PUSH1 0x40 MLOAD DUP1 DUP4 SUB DUP2 DUP6 DUP8 GAS CALL SWAP3 POP POP POP RETURNDATASIZE DUP1 PUSH0 DUP2 EQ PUSH2 0x944 JUMPI PUSH1 0x40 MLOAD SWAP2 POP PUSH1 0x1F NOT PUSH1 0x3F RETURNDATASIZE ADD AND DUP3 ADD PUSH1 0x40 MSTORE RETURNDATASIZE DUP3 MSTORE RETURNDATASIZE PUSH0 PUSH1 0x20 DUP5 ADD RETURNDATACOPY PUSH2 0x949 JUMP JUMPDEST PUSH1 0x60 SWAP2 POP JUMPDEST POP POP SWAP1 POP DUP1 PUSH2 0x98D JUMPI PUSH1 0x40 MLOAD PUSH32 0x8C379A000000000000000000000000000000000000000000000000000000000 DUP2 MSTORE PUSH1 0x4 ADD PUSH2 0x984 SWAP1 PUSH2 0x1530 JUMP JUMPDEST PUSH1 0x40 MLOAD DUP1 SWAP2 SUB SWAP1 REVERT JUMPDEST POP DUP1 PUSH1 0x1 ADD SWAP1 POP PUSH2 0x89D JUMP JUMPDEST POP CALLER PUSH20 0xFFFFFFFFFFFFFFFFFFFFFFFFFFFFFFFFFFFFFFFF AND PUSH32 0x45D6845DD4F0BDD735A522E3076F82702E80547A0E2B1304A2E483BCA6D9CDC4 DUP3 DUP5 PUSH1 0x40 MLOAD PUSH2 0x9E2 SWAP3 SWAP2 SWAP1 PUSH2 0x1286 JUMP JUMPDEST PUSH1 0x40 MLOAD DUP1 SWAP2 SUB SWAP1 LOG2 POP POP PUSH2 0x9F4 PUSH2 0xB4F JUMP JUMPDEST POP POP POP POP JUMP JUMPDEST PUSH2 0xA02 PUSH2 0xB58 JUMP JUMPDEST PUSH0 PUSH20 0xFFFFFFFFFFFFFFFFFFFFFFFFFFFFFFFFFFFFFFFF AND DUP2 PUSH20 0xFFFFFFFFFFFFFFFFFFFFFFFFFFFFFFFFFFFFFFFF AND SUB PUSH2 0xA72 JUMPI PUSH0 PUSH1 0x40 MLOAD PUSH32 0x1E4FBDF700000000000000000000000000000000000000000000000000000000 DUP2 MSTORE PUSH1 0x4 ADD PUSH2 0xA69 SWAP2 SWAP1 PUSH2 0x10B0 JUMP JUMPDEST PUSH1 0x40 MLOAD DUP1 SWAP2 SUB SWAP1 REVERT JUMPDEST PUSH2 0xA7B DUP2 PUSH2 0xC5E JUMP JUMPDEST POP JUMP JUMPDEST PUSH1 0x2 PUSH1 0x1 SLOAD SUB PUSH2 0xAC3 JUMPI PUSH1 0x40 MLOAD PUSH32 0x8C379A000000000000000000000000000000000000000000000000000000000 DUP2 MSTORE PUSH1 0x4 ADD PUSH2 0xABA SWAP1 PUSH2 0x1598 JUMP JUMPDEST PUSH1 0x40 MLOAD DUP1 SWAP2 SUB SWAP1 REVERT JUMPDEST PUSH1 0x2 PUSH1 0x1 DUP2 SWAP1 SSTORE POP JUMP JUMPDEST PUSH2 0xB49 DUP5 DUP6 PUSH20 0xFFFFFFFFFFFFFFFFFFFFFFFFFFFFFFFFFFFFFFFF AND PUSH4 0x23B872DD DUP7 DUP7 DUP7 PUSH1 0x40 MLOAD PUSH1 0x24 ADD PUSH2 0xB02 SWAP4 SWAP3 SWAP2 SWAP1 PUSH2 0x15B6 JUMP JUMPDEST PUSH1 0x40 MLOAD PUSH1 0x20 DUP2 DUP4 SUB SUB DUP2 MSTORE SWAP1 PUSH1 0x40 MSTORE SWAP2 POP PUSH1 0xE0 SHL PUSH1 0x20 DUP3 ADD DUP1 MLOAD PUSH28 0xFFFFFFFFFFFFFFFFFFFFFFFFFFFFFFFFFFFFFFFFFFFFFFFFFFFFFFFF DUP4 DUP2 DUP4 AND OR DUP4 MSTORE POP POP POP POP PUSH2 0xD1F JUMP JUMPDEST POP POP POP POP JUMP JUMPDEST PUSH1 0x1 DUP1 DUP2 SWAP1 SSTORE POP JUMP JUMPDEST PUSH2 0xB60 PUSH2 0xDBA JUMP JUMPDEST PUSH20 0xFFFFFFFFFFFFFFFFFFFFFFFFFFFFFFFFFFFFFFFF AND PUSH2 0xB7E PUSH2 0x54E JUMP JUMPDEST PUSH20 0xFFFFFFFFFFFFFFFFFFFFFFFFFFFFFFFFFFFFFFFF AND EQ PUSH2 0xBDD JUMPI PUSH2 0xBA1 PUSH2 0xDBA JUMP JUMPDEST PUSH1 0x40 MLOAD PUSH32 0x118CDAA700000000000000000000000000000000000000000000000000000000 DUP2 MSTORE PUSH1 0x4 ADD PUSH2 0xBD4 SWAP2 SWAP1 PUSH2 0x10B0 JUMP JUMPDEST PUSH1 0x40 MLOAD DUP1 SWAP2 SUB SWAP1 REVERT JUMPDEST JUMP JUMPDEST PUSH2 0xC59 DUP4 DUP5 PUSH20 0xFFFFFFFFFFFFFFFFFFFFFFFFFFFFFFFFFFFFFFFF AND PUSH4 0xA9059CBB DUP6 DUP6 PUSH1 0x40 MLOAD PUSH1 0x24 ADD PUSH2 0xC12 SWAP3 SWAP2 SWAP1 PUSH2 0x15EB JUMP JUMPDEST PUSH1 0x40 MLOAD PUSH1 0x20 DUP2 DUP4 SUB SUB DUP2 MSTORE SWAP1 PUSH1 0x40 MSTORE SWAP2 POP PUSH1 0xE0 SHL PUSH1 0x20 DUP3 ADD DUP1 MLOAD PUSH28 0xFFFFFFFFFFFFFFFFFFFFFFFFFFFFFFFFFFFFFFFFFFFFFFFFFFFFFFFF DUP4 DUP2 DUP4 AND OR DUP4 MSTORE POP POP POP POP PUSH2 0xD1F JUMP JUMPDEST POP POP POP JUMP JUMPDEST PUSH0 DUP1 PUSH0 SWAP1 SLOAD SWAP1 PUSH2 0x100 EXP SWAP1 DIV PUSH20 0xFFFFFFFFFFFFFFFFFFFFFFFFFFFFFFFFFFFFFFFF AND SWAP1 POP DUP2 PUSH0 DUP1 PUSH2 0x100 EXP DUP2 SLOAD DUP2 PUSH20 0xFFFFFFFFFFFFFFFFFFFFFFFFFFFFFFFFFFFFFFFF MUL NOT AND SWAP1 DUP4 PUSH20 0xFFFFFFFFFFFFFFFFFFFFFFFFFFFFFFFFFFFFFFFF AND MUL OR SWAP1 SSTORE POP DUP2 PUSH20 0xFFFFFFFFFFFFFFFFFFFFFFFFFFFFFFFFFFFFFFFF AND DUP2 PUSH20 0xFFFFFFFFFFFFFFFFFFFFFFFFFFFFFFFFFFFFFFFF AND PUSH32 0x8BE0079C531659141344CD1FD0A4F28419497F9722A3DAAFE3B4186F6B6457E0 PUSH1 0x40 MLOAD PUSH1 0x40 MLOAD DUP1 SWAP2 SUB SWAP1 LOG3 POP POP JUMP JUMPDEST PUSH0 DUP1 PUSH1 0x20 PUSH0 DUP5 MLOAD PUSH1 0x20 DUP7 ADD PUSH0 DUP9 GAS CALL DUP1 PUSH2 0xD3E JUMPI PUSH1 0x40 MLOAD RETURNDATASIZE PUSH0 DUP3 RETURNDATACOPY RETURNDATASIZE DUP2 REVERT JUMPDEST RETURNDATASIZE SWAP3 POP PUSH0 MLOAD SWAP2 POP POP PUSH0 DUP3 EQ PUSH2 0xD57 JUMPI PUSH1 0x1 DUP2 EQ ISZERO PUSH2 0xD72 JUMP JUMPDEST PUSH0 DUP5 PUSH20 0xFFFFFFFFFFFFFFFFFFFFFFFFFFFFFFFFFFFFFFFF AND EXTCODESIZE EQ JUMPDEST ISZERO PUSH2 0xDB4 JUMPI DUP4 PUSH1 0x40 MLOAD PUSH32 0x5274AFE700000000000000000000000000000000000000000000000000000000 DUP2 MSTORE PUSH1 0x4 ADD PUSH2 0xDAB SWAP2 SWAP1 PUSH2 0x10B0 JUMP JUMPDEST PUSH1 0x40 MLOAD DUP1 SWAP2 SUB SWAP1 REVERT JUMPDEST POP POP POP POP JUMP JUMPDEST PUSH0 CALLER SWAP1 POP SWAP1 JUMP JUMPDEST PUSH0 DUP1 REVERT JUMPDEST PUSH0 DUP1 REVERT JUMPDEST PUSH0 PUSH20 0xFFFFFFFFFFFFFFFFFFFFFFFFFFFFFFFFFFFFFFFF DUP3 AND SWAP1 POP SWAP2 SWAP1 POP JUMP JUMPDEST PUSH0 PUSH2 0xDF2 DUP3 PUSH2 0xDC9 JUMP JUMPDEST SWAP1 POP SWAP2 SWAP1 POP JUMP JUMPDEST PUSH0 PUSH2 0xE03 DUP3 PUSH2 0xDE8 JUMP JUMPDEST SWAP1 POP SWAP2 SWAP1 POP JUMP JUMPDEST PUSH2 0xE13 DUP2 PUSH2 0xDF9 JUMP JUMPDEST DUP2 EQ PUSH2 0xE1D JUMPI PUSH0 DUP1 REVERT JUMPDEST POP JUMP JUMPDEST PUSH0 DUP2 CALLDATALOAD SWAP1 POP PUSH2 0xE2E DUP2 PUSH2 0xE0A JUMP JUMPDEST SWAP3 SWAP2 POP POP JUMP JUMPDEST PUSH0 DUP1 REVERT JUMPDEST PUSH0 DUP1 REVERT JUMPDEST PUSH0 DUP1 REVERT JUMPDEST PUSH0 DUP1 DUP4 PUSH1 0x1F DUP5 ADD SLT PUSH2 0xE55 JUMPI PUSH2 0xE54 PUSH2 0xE34 JUMP JUMPDEST JUMPDEST DUP3 CALLDATALOAD SWAP1 POP PUSH8 0xFFFFFFFFFFFFFFFF DUP2 GT ISZERO PUSH2 0xE72 JUMPI PUSH2 0xE71 PUSH2 0xE38 JUMP JUMPDEST JUMPDEST PUSH1 0x20 DUP4 ADD SWAP2 POP DUP4 PUSH1 0x20 DUP3 MUL DUP4 ADD GT ISZERO PUSH2 0xE8E JUMPI PUSH2 0xE8D PUSH2 0xE3C JUMP JUMPDEST JUMPDEST SWAP3 POP SWAP3 SWAP1 POP JUMP JUMPDEST PUSH0 DUP1 DUP4 PUSH1 0x1F DUP5 ADD SLT PUSH2 0xEAA JUMPI PUSH2 0xEA9 PUSH2 0xE34 JUMP JUMPDEST JUMPDEST DUP3 CALLDATALOAD SWAP1 POP PUSH8 0xFFFFFFFFFFFFFFFF DUP2 GT ISZERO PUSH2 0xEC7 JUMPI PUSH2 0xEC6 PUSH2 0xE38 JUMP JUMPDEST JUMPDEST PUSH1 0x20 DUP4 ADD SWAP2 POP DUP4 PUSH1 0x20 DUP3 MUL DUP4 ADD GT ISZERO PUSH2 0xEE3 JUMPI PUSH2 0xEE2 PUSH2 0xE3C JUMP JUMPDEST JUMPDEST SWAP3 POP SWAP3 SWAP1 POP JUMP JUMPDEST PUSH0 DUP1 PUSH0 DUP1 PUSH0 PUSH1 0x60 DUP7 DUP9 SUB SLT ISZERO PUSH2 0xF03 JUMPI PUSH2 0xF02 PUSH2 0xDC1 JUMP JUMPDEST JUMPDEST PUSH0 PUSH2 0xF10 DUP9 DUP3 DUP10 ADD PUSH2 0xE20 JUMP JUMPDEST SWAP6 POP POP PUSH1 0x20 DUP7 ADD CALLDATALOAD PUSH8 0xFFFFFFFFFFFFFFFF DUP2 GT ISZERO PUSH2 0xF31 JUMPI PUSH2 0xF30 PUSH2 0xDC5 JUMP JUMPDEST JUMPDEST PUSH2 0xF3D DUP9 DUP3 DUP10 ADD PUSH2 0xE40 JUMP JUMPDEST SWAP5 POP SWAP5 POP POP PUSH1 0x40 DUP7 ADD CALLDATALOAD PUSH8 0xFFFFFFFFFFFFFFFF DUP2 GT ISZERO PUSH2 0xF60 JUMPI PUSH2 0xF5F PUSH2 0xDC5 JUMP JUMPDEST JUMPDEST PUSH2 0xF6C DUP9 DUP3 DUP10 ADD PUSH2 0xE95 JUMP JUMPDEST SWAP3 POP SWAP3 POP POP SWAP3 SWAP6 POP SWAP3 SWAP6 SWAP1 SWAP4 POP JUMP JUMPDEST PUSH2 0xF84 DUP2 PUSH2 0xDE8 JUMP JUMPDEST DUP2 EQ PUSH2 0xF8E JUMPI PUSH0 DUP1 REVERT JUMPDEST POP JUMP JUMPDEST PUSH0 DUP2 CALLDATALOAD SWAP1 POP PUSH2 0xF9F DUP2 PUSH2 0xF7B JUMP JUMPDEST SWAP3 SWAP2 POP POP JUMP JUMPDEST PUSH0 DUP2 SWAP1 POP SWAP2 SWAP1 POP JUMP JUMPDEST PUSH2 0xFB7 DUP2 PUSH2 0xFA5 JUMP JUMPDEST DUP2 EQ PUSH2 0xFC1 JUMPI PUSH0 DUP1 REVERT JUMPDEST POP JUMP JUMPDEST PUSH0 DUP2 CALLDATALOAD SWAP1 POP PUSH2 0xFD2 DUP2 PUSH2 0xFAE JUMP JUMPDEST SWAP3 SWAP2 POP POP JUMP JUMPDEST PUSH0 DUP1 PUSH0 PUSH1 0x60 DUP5 DUP7 SUB SLT ISZERO PUSH2 0xFEF JUMPI PUSH2 0xFEE PUSH2 0xDC1 JUMP JUMPDEST JUMPDEST PUSH0 PUSH2 0xFFC DUP7 DUP3 DUP8 ADD PUSH2 0xE20 JUMP JUMPDEST SWAP4 POP POP PUSH1 0x20 PUSH2 0x100D DUP7 DUP3 DUP8 ADD PUSH2 0xF91 JUMP JUMPDEST SWAP3 POP POP PUSH1 0x40 PUSH2 0x101E DUP7 DUP3 DUP8 ADD PUSH2 0xFC4 JUMP JUMPDEST SWAP2 POP POP SWAP3 POP SWAP3 POP SWAP3 JUMP JUMPDEST PUSH0 PUSH2 0x1032 DUP3 PUSH2 0xDC9 JUMP JUMPDEST SWAP1 POP SWAP2 SWAP1 POP JUMP JUMPDEST PUSH2 0x1042 DUP2 PUSH2 0x1028 JUMP JUMPDEST DUP2 EQ PUSH2 0x104C JUMPI PUSH0 DUP1 REVERT JUMPDEST POP JUMP JUMPDEST PUSH0 DUP2 CALLDATALOAD SWAP1 POP PUSH2 0x105D DUP2 PUSH2 0x1039 JUMP JUMPDEST SWAP3 SWAP2 POP POP JUMP JUMPDEST PUSH0 DUP1 PUSH1 0x40 DUP4 DUP6 SUB SLT ISZERO PUSH2 0x1079 JUMPI PUSH2 0x1078 PUSH2 0xDC1 JUMP JUMPDEST JUMPDEST PUSH0 PUSH2 0x1086 DUP6 DUP3 DUP7 ADD PUSH2 0x104F JUMP JUMPDEST SWAP3 POP POP PUSH1 0x20 PUSH2 0x1097 DUP6 DUP3 DUP7 ADD PUSH2 0xFC4 JUMP JUMPDEST SWAP2 POP POP SWAP3 POP SWAP3 SWAP1 POP JUMP JUMPDEST PUSH2 0x10AA DUP2 PUSH2 0xDE8 JUMP JUMPDEST DUP3 MSTORE POP POP JUMP JUMPDEST PUSH0 PUSH1 0x20 DUP3 ADD SWAP1 POP PUSH2 0x10C3 PUSH0 DUP4 ADD DUP5 PUSH2 0x10A1 JUMP JUMPDEST SWAP3 SWAP2 POP POP JUMP JUMPDEST PUSH0 DUP1 PUSH0 DUP1 PUSH1 0x40 DUP6 DUP8 SUB SLT ISZERO PUSH2 0x10E1 JUMPI PUSH2 0x10E0 PUSH2 0xDC1 JUMP JUMPDEST JUMPDEST PUSH0 DUP6 ADD CALLDATALOAD PUSH8 0xFFFFFFFFFFFFFFFF DUP2 GT ISZERO PUSH2 0x10FE JUMPI PUSH2 0x10FD PUSH2 0xDC5 JUMP JUMPDEST JUMPDEST PUSH2 0x110A DUP8 DUP3 DUP9 ADD PUSH2 0xE40 JUMP JUMPDEST SWAP5 POP SWAP5 POP POP PUSH1 0x20 DUP6 ADD CALLDATALOAD PUSH8 0xFFFFFFFFFFFFFFFF DUP2 GT ISZERO PUSH2 0x112D JUMPI PUSH2 0x112C PUSH2 0xDC5 JUMP JUMPDEST JUMPDEST PUSH2 0x1139 DUP8 DUP3 DUP9 ADD PUSH2 0xE95 JUMP JUMPDEST SWAP3 POP SWAP3 POP POP SWAP3 SWAP6 SWAP2 SWAP5 POP SWAP3 POP JUMP JUMPDEST PUSH0 PUSH1 0x20 DUP3 DUP5 SUB SLT ISZERO PUSH2 0x115C JUMPI PUSH2 0x115B PUSH2 0xDC1 JUMP JUMPDEST JUMPDEST PUSH0 PUSH2 0x1169 DUP5 DUP3 DUP6 ADD PUSH2 0xF91 JUMP JUMPDEST SWAP2 POP POP SWAP3 SWAP2 POP POP JUMP JUMPDEST PUSH0 DUP3 DUP3 MSTORE PUSH1 0x20 DUP3 ADD SWAP1 POP SWAP3 SWAP2 POP POP JUMP JUMPDEST PUSH32 0x6C656E6774682D6D69736D617463680000000000000000000000000000000000 PUSH0 DUP3 ADD MSTORE POP JUMP JUMPDEST PUSH0 PUSH2 0x11B6 PUSH1 0xF DUP4 PUSH2 0x1172 JUMP JUMPDEST SWAP2 POP PUSH2 0x11C1 DUP3 PUSH2 0x1182 JUMP JUMPDEST PUSH1 0x20 DUP3 ADD SWAP1 POP SWAP2 SWAP1 POP JUMP JUMPDEST PUSH0 PUSH1 0x20 DUP3 ADD SWAP1 POP DUP2 DUP2 SUB PUSH0 DUP4 ADD MSTORE PUSH2 0x11E3 DUP2 PUSH2 0x11AA JUMP JUMPDEST SWAP1 POP SWAP2 SWAP1 POP JUMP JUMPDEST PUSH32 0x4E487B7100000000000000000000000000000000000000000000000000000000 PUSH0 MSTORE PUSH1 0x32 PUSH1 0x4 MSTORE PUSH1 0x24 PUSH0 REVERT JUMPDEST PUSH32 0x4E487B7100000000000000000000000000000000000000000000000000000000 PUSH0 MSTORE PUSH1 0x11 PUSH1 0x4 MSTORE PUSH1 0x24 PUSH0 REVERT JUMPDEST PUSH0 PUSH2 0x124E DUP3 PUSH2 0xFA5 JUMP JUMPDEST SWAP2 POP PUSH2 0x1259 DUP4 PUSH2 0xFA5 JUMP JUMPDEST SWAP3 POP DUP3 DUP3 ADD SWAP1 POP DUP1 DUP3 GT ISZERO PUSH2 0x1271 JUMPI PUSH2 0x1270 PUSH2 0x1217 JUMP JUMPDEST JUMPDEST SWAP3 SWAP2 POP POP JUMP JUMPDEST PUSH2 0x1280 DUP2 PUSH2 0xFA5 JUMP JUMPDEST DUP3 MSTORE POP POP JUMP JUMPDEST PUSH0 PUSH1 0x40 DUP3 ADD SWAP1 POP PUSH2 0x1299 PUSH0 DUP4 ADD DUP6 PUSH2 0x1277 JUMP JUMPDEST PUSH2 0x12A6 PUSH1 0x20 DUP4 ADD DUP5 PUSH2 0x1277 JUMP JUMPDEST SWAP4 SWAP3 POP POP POP JUMP JUMPDEST PUSH0 PUSH1 0x20 DUP3 ADD SWAP1 POP PUSH2 0x12C0 PUSH0 DUP4 ADD DUP5 PUSH2 0x1277 JUMP JUMPDEST SWAP3 SWAP2 POP POP JUMP JUMPDEST PUSH32 0x696E73756666696369656E742D65746800000000000000000000000000000000 PUSH0 DUP3 ADD MSTORE POP JUMP JUMPDEST PUSH0 PUSH2 0x12FA PUSH1 0x10 DUP4 PUSH2 0x1172 JUMP JUMPDEST SWAP2 POP PUSH2 0x1305 DUP3 PUSH2 0x12C6 JUMP JUMPDEST PUSH1 0x20 DUP3 ADD SWAP1 POP SWAP2 SWAP1 POP JUMP JUMPDEST PUSH0 PUSH1 0x20 DUP3 ADD SWAP1 POP DUP2 DUP2 SUB PUSH0 DUP4 ADD MSTORE PUSH2 0x1327 DUP2 PUSH2 0x12EE JUMP JUMPDEST SWAP1 POP SWAP2 SWAP1 POP JUMP JUMPDEST PUSH0 DUP2 SWAP1 POP SWAP3 SWAP2 POP POP JUMP JUMPDEST POP JUMP JUMPDEST PUSH0 PUSH2 0x1346 PUSH0 DUP4 PUSH2 0x132E JUMP JUMPDEST SWAP2 POP PUSH2 0x1351 DUP3 PUSH2 0x1338 JUMP JUMPDEST PUSH0 DUP3 ADD SWAP1 POP SWAP2 SWAP1 POP JUMP JUMPDEST PUSH0 PUSH2 0x1365 DUP3 PUSH2 0x133B JUMP JUMPDEST SWAP2 POP DUP2 SWAP1 POP SWAP2 SWAP1 POP JUMP JUMPDEST PUSH32 0x77697468647261772D6661696C65640000000000000000000000000000000000 PUSH0 DUP3 ADD MSTORE POP JUMP JUMPDEST PUSH0 PUSH2 0x13A3 PUSH1 0xF DUP4 PUSH2 0x1172 JUMP JUMPDEST SWAP2 POP PUSH2 0x13AE DUP3 PUSH2 0x136F JUMP JUMPDEST PUSH1 0x20 DUP3 ADD SWAP1 POP SWAP2 SWAP1 POP JUMP JUMPDEST PUSH0 PUSH1 0x20 DUP3 ADD SWAP1 POP DUP2 DUP2 SUB PUSH0 DUP4 ADD MSTORE PUSH2 0x13D0 DUP2 PUSH2 0x1397 JUMP JUMPDEST SWAP1 POP SWAP2 SWAP1 POP JUMP JUMPDEST PUSH0 DUP2 MLOAD SWAP1 POP PUSH2 0x13E5 DUP2 PUSH2 0xFAE JUMP JUMPDEST SWAP3 SWAP2 POP POP JUMP JUMPDEST PUSH0 PUSH1 0x20 DUP3 DUP5 SUB SLT ISZERO PUSH2 0x1400 JUMPI PUSH2 0x13FF PUSH2 0xDC1 JUMP JUMPDEST JUMPDEST PUSH0 PUSH2 0x140D DUP5 DUP3 DUP6 ADD PUSH2 0x13D7 JUMP JUMPDEST SWAP2 POP POP SWAP3 SWAP2 POP POP JUMP JUMPDEST PUSH32 0x696E73756666696369656E742D636F6E74726163742D62616C616E6365000000 PUSH0 DUP3 ADD MSTORE POP JUMP JUMPDEST PUSH0 PUSH2 0x144A PUSH1 0x1D DUP4 PUSH2 0x1172 JUMP JUMPDEST SWAP2 POP PUSH2 0x1455 DUP3 PUSH2 0x1416 JUMP JUMPDEST PUSH1 0x20 DUP3 ADD SWAP1 POP SWAP2 SWAP1 POP JUMP JUMPDEST PUSH0 PUSH1 0x20 DUP3 ADD SWAP1 POP DUP2 DUP2 SUB PUSH0 DUP4 ADD MSTORE PUSH2 0x1477 DUP2 PUSH2 0x143E JUMP JUMPDEST SWAP1 POP SWAP2 SWAP1 POP JUMP JUMPDEST PUSH32 0x76616C75652D6D69736D61746368000000000000000000000000000000000000 PUSH0 DUP3 ADD MSTORE POP JUMP JUMPDEST PUSH0 PUSH2 0x14B2 PUSH1 0xE DUP4 PUSH2 0x1172 JUMP JUMPDEST SWAP2 POP PUSH2 0x14BD DUP3 PUSH2 0x147E JUMP JUMPDEST PUSH1 0x20 DUP3 ADD SWAP1 POP SWAP2 SWAP1 POP JUMP JUMPDEST PUSH0 PUSH1 0x20 DUP3 ADD SWAP1 POP DUP2 DUP2 SUB PUSH0 DUP4 ADD MSTORE PUSH2 0x14DF DUP2 PUSH2 0x14A6 JUMP JUMPDEST SWAP1 POP SWAP2 SWAP1 POP JUMP JUMPDEST PUSH32 0x6574682D73656E642D6661696C65640000000000000000000000000000000000 PUSH0 DUP3 ADD MSTORE POP JUMP JUMPDEST PUSH0 PUSH2 0x151A PUSH1 0xF DUP4 PUSH2 0x1172 JUMP JUMPDEST SWAP2 POP PUSH2 0x1525 DUP3 PUSH2 0x14E6 JUMP JUMPDEST PUSH1 0x20 DUP3 ADD SWAP1 POP SWAP2 SWAP1 POP JUMP JUMPDEST PUSH0 PUSH1 0x20 DUP3 ADD SWAP1 POP DUP2 DUP2 SUB PUSH0 DUP4 ADD MSTORE PUSH2 0x1547 DUP2 PUSH2 0x150E JUMP JUMPDEST SWAP1 POP SWAP2 SWAP1 POP JUMP JUMPDEST PUSH32 0x5265656E7472616E637947756172643A207265656E7472616E742063616C6C00 PUSH0 DUP3 ADD MSTORE POP JUMP JUMPDEST PUSH0 PUSH2 0x1582 PUSH1 0x1F DUP4 PUSH2 0x1172 JUMP JUMPDEST SWAP2 POP PUSH2 0x158D DUP3 PUSH2 0x154E JUMP JUMPDEST PUSH1 0x20 DUP3 ADD SWAP1 POP SWAP2 SWAP1 POP JUMP JUMPDEST PUSH0 PUSH1 0x20 DUP3 ADD SWAP1 POP DUP2 DUP2 SUB PUSH0 DUP4 ADD MSTORE PUSH2 0x15AF DUP2 PUSH2 0x1576 JUMP JUMPDEST SWAP1 POP SWAP2 SWAP1 POP JUMP JUMPDEST PUSH0 PUSH1 0x60 DUP3 ADD SWAP1 POP PUSH2 0x15C9 PUSH0 DUP4 ADD DUP7 PUSH2 0x10A1 JUMP JUMPDEST PUSH2 0x15D6 PUSH1 0x20 DUP4 ADD DUP6 PUSH2 0x10A1 JUMP JUMPDEST PUSH2 0x15E3 PUSH1 0x40 DUP4 ADD DUP5 PUSH2 0x1277 JUMP JUMPDEST SWAP5 SWAP4 POP POP POP POP JUMP JUMPDEST PUSH0 PUSH1 0x40 DUP3 ADD SWAP1 POP PUSH2 0x15FE PUSH0 DUP4 ADD DUP6 PUSH2 0x10A1 JUMP JUMPDEST PUSH2 0x160B PUSH1 0x20 DUP4 ADD DUP5 PUSH2 0x1277 JUMP JUMPDEST SWAP4 SWAP3 POP POP POP JUMP INVALID LOG2 PUSH5 0x6970667358 0x22 SLT KECCAK256 0xF7 0xBA 0xD7 LT DUP15 0xD2 0xB5 PUSH2 0x543A RETURNDATASIZE 0xE5 0xB3 DIV CALLCODE CALLDATACOPY PUSH19 0x9FC7BD22663295E568F357442CD564736F6C PUSH4 0x4300081A STOP CALLER "
				},
				"gasEstimates": {
					"creation": {
						"codeDepositCost": "1140800",
						"executionCost": "infinite",
						"totalCost": "infinite"
					},
					"external": {
						"": "173",
						"bulkTransferERC20(address,address[],uint256[])": "infinite",
						"bulkTransferERC20FromContract(address,address[],uint256[])": "infinite",
						"bulkTransferETH(address[],uint256[])": "infinite",
						"owner()": "2515",
						"renounceOwnership()": "infinite",
						"transferOwnership(address)": "infinite",
						"withdrawERC20(address,address,uint256)": "infinite",
						"withdrawETH(address,uint256)": "infinite"
					}
				},
				"methodIdentifiers": {
					"bulkTransferERC20(address,address[],uint256[])": "3e46cd53",
					"bulkTransferERC20FromContract(address,address[],uint256[])": "9f62eafe",
					"bulkTransferETH(address[],uint256[])": "b874fa6a",
					"owner()": "8da5cb5b",
					"renounceOwnership()": "715018a6",
					"transferOwnership(address)": "f2fde38b",
					"withdrawERC20(address,address,uint256)": "44004cc1",
					"withdrawETH(address,uint256)": "4782f779"
				}
			},
			"storageLayout": {
				"storage": [
					{
						"astId": 8,
						"contract": "Bulksender.sol:BulkSender",
						"label": "_owner",
						"offset": 0,
						"slot": "0",
						"type": "t_address"
					},
					{
						"astId": 248,
						"contract": "Bulksender.sol:BulkSender",
						"label": "_status",
						"offset": 0,
						"slot": "1",
						"type": "t_uint256"
					}
				],
				"types": {
					"t_address": {
						"encoding": "inplace",
						"label": "address",
						"numberOfBytes": "20"
					},
					"t_uint256": {
						"encoding": "inplace",
						"label": "uint256",
						"numberOfBytes": "32"
					}
				}
			},
			"userdoc": {
				"kind": "user",
				"methods": {
					"bulkTransferERC20(address,address[],uint256[])": {
						"notice": "Batch-send ERC20 tokens to many recipients using transferFrom."
					},
					"bulkTransferERC20FromContract(address,address[],uint256[])": {
						"notice": "Owner-only: send ERC20 tokens that are already held by this contract to recipients."
					},
					"bulkTransferETH(address[],uint256[])": {
						"notice": "Batch-send ETH to many recipients."
					},
					"withdrawERC20(address,address,uint256)": {
						"notice": "Owner helper: withdraw ERC20 tokens from the contract."
					},
					"withdrawETH(address,uint256)": {
						"notice": "Owner helper: withdraw ETH accidentally left in the contract."
					}
				},
				"notice": "Send ETH or ERC20 tokens to many recipients in one tx.",
				"version": 1
			}
		}
	}
}