{
	"v1.sol": {
		"PolicastMarket": {
			"abi": [
				{
					"inputs": [
						{
							"internalType": "address",
							"name": "_bettingToken",
							"type": "address"
						}
					],
					"stateMutability": "nonpayable",
					"type": "constructor"
				},
				{
					"inputs": [],
					"name": "AccessControlBadConfirmation",
					"type": "error"
				},
				{
					"inputs": [
						{
							"internalType": "address",
							"name": "account",
							"type": "address"
						},
						{
							"internalType": "bytes32",
							"name": "neededRole",
							"type": "bytes32"
						}
					],
					"name": "AccessControlUnauthorizedAccount",
					"type": "error"
				},
				{
					"inputs": [
						{
							"internalType": "address",
							"name": "owner",
							"type": "address"
						}
					],
					"name": "OwnableInvalidOwner",
					"type": "error"
				},
				{
					"inputs": [
						{
							"internalType": "address",
							"name": "account",
							"type": "address"
						}
					],
					"name": "OwnableUnauthorizedAccount",
					"type": "error"
				},
				{
					"inputs": [],
					"name": "ReentrancyGuardReentrantCall",
					"type": "error"
				},
				{
					"anonymous": false,
					"inputs": [
						{
							"indexed": true,
							"internalType": "uint256",
							"name": "marketId",
							"type": "uint256"
						},
						{
							"indexed": true,
							"internalType": "address",
							"name": "user",
							"type": "address"
						},
						{
							"indexed": false,
							"internalType": "uint256",
							"name": "amount",
							"type": "uint256"
						}
					],
					"name": "Claimed",
					"type": "event"
				},
				{
					"anonymous": false,
					"inputs": [
						{
							"indexed": true,
							"internalType": "uint256",
							"name": "marketId",
							"type": "uint256"
						},
						{
							"indexed": false,
							"internalType": "string",
							"name": "question",
							"type": "string"
						},
						{
							"indexed": false,
							"internalType": "string",
							"name": "optionA",
							"type": "string"
						},
						{
							"indexed": false,
							"internalType": "string",
							"name": "optionB",
							"type": "string"
						},
						{
							"indexed": false,
							"internalType": "uint256",
							"name": "endTime",
							"type": "uint256"
						}
					],
					"name": "MarketCreated",
					"type": "event"
				},
				{
					"anonymous": false,
					"inputs": [
						{
							"indexed": true,
							"internalType": "uint256",
							"name": "marketId",
							"type": "uint256"
						},
						{
							"indexed": false,
							"internalType": "enum PolicastMarket.MarketOutcome",
							"name": "outcome",
							"type": "uint8"
						}
					],
					"name": "MarketResolved",
					"type": "event"
				},
				{
					"anonymous": false,
					"inputs": [
						{
							"indexed": true,
							"internalType": "uint256",
							"name": "marketId",
							"type": "uint256"
						},
						{
							"indexed": false,
							"internalType": "enum PolicastMarket.MarketOutcome",
							"name": "outcome",
							"type": "uint8"
						},
						{
							"indexed": false,
							"internalType": "uint256",
							"name": "totalOptionAShares",
							"type": "uint256"
						},
						{
							"indexed": false,
							"internalType": "uint256",
							"name": "totalOptionBShares",
							"type": "uint256"
						},
						{
							"indexed": false,
							"internalType": "uint256",
							"name": "participantsLength",
							"type": "uint256"
						}
					],
					"name": "MarketResolvedDetailed",
					"type": "event"
				},
				{
					"anonymous": false,
					"inputs": [
						{
							"indexed": true,
							"internalType": "address",
							"name": "previousOwner",
							"type": "address"
						},
						{
							"indexed": true,
							"internalType": "address",
							"name": "newOwner",
							"type": "address"
						}
					],
					"name": "OwnershipTransferred",
					"type": "event"
				},
				{
					"anonymous": false,
					"inputs": [
						{
							"indexed": true,
							"internalType": "address",
							"name": "account",
							"type": "address"
						}
					],
					"name": "QuestionCreatorRoleGranted",
					"type": "event"
				},
				{
					"anonymous": false,
					"inputs": [
						{
							"indexed": true,
							"internalType": "address",
							"name": "account",
							"type": "address"
						}
					],
					"name": "QuestionResolveRoleGranted",
					"type": "event"
				},
				{
					"anonymous": false,
					"inputs": [
						{
							"indexed": true,
							"internalType": "bytes32",
							"name": "role",
							"type": "bytes32"
						},
						{
							"indexed": true,
							"internalType": "bytes32",
							"name": "previousAdminRole",
							"type": "bytes32"
						},
						{
							"indexed": true,
							"internalType": "bytes32",
							"name": "newAdminRole",
							"type": "bytes32"
						}
					],
					"name": "RoleAdminChanged",
					"type": "event"
				},
				{
					"anonymous": false,
					"inputs": [
						{
							"indexed": true,
							"internalType": "bytes32",
							"name": "role",
							"type": "bytes32"
						},
						{
							"indexed": true,
							"internalType": "address",
							"name": "account",
							"type": "address"
						},
						{
							"indexed": true,
							"internalType": "address",
							"name": "sender",
							"type": "address"
						}
					],
					"name": "RoleGranted",
					"type": "event"
				},
				{
					"anonymous": false,
					"inputs": [
						{
							"indexed": true,
							"internalType": "bytes32",
							"name": "role",
							"type": "bytes32"
						},
						{
							"indexed": true,
							"internalType": "address",
							"name": "account",
							"type": "address"
						},
						{
							"indexed": true,
							"internalType": "address",
							"name": "sender",
							"type": "address"
						}
					],
					"name": "RoleRevoked",
					"type": "event"
				},
				{
					"anonymous": false,
					"inputs": [
						{
							"indexed": true,
							"internalType": "uint256",
							"name": "marketId",
							"type": "uint256"
						},
						{
							"indexed": true,
							"internalType": "address",
							"name": "buyer",
							"type": "address"
						},
						{
							"indexed": false,
							"internalType": "bool",
							"name": "isOptionA",
							"type": "bool"
						},
						{
							"indexed": false,
							"internalType": "uint256",
							"name": "amount",
							"type": "uint256"
						}
					],
					"name": "SharesPurchased",
					"type": "event"
				},
				{
					"inputs": [],
					"name": "DEFAULT_ADMIN_ROLE",
					"outputs": [
						{
							"internalType": "bytes32",
							"name": "",
							"type": "bytes32"
						}
					],
					"stateMutability": "view",
					"type": "function"
				},
				{
					"inputs": [],
					"name": "QUESTION_CREATOR_ROLE",
					"outputs": [
						{
							"internalType": "bytes32",
							"name": "",
							"type": "bytes32"
						}
					],
					"stateMutability": "view",
					"type": "function"
				},
				{
					"inputs": [],
					"name": "QUESTION_RESOLVE_ROLE",
					"outputs": [
						{
							"internalType": "bytes32",
							"name": "",
							"type": "bytes32"
						}
					],
					"stateMutability": "view",
					"type": "function"
				},
				{
					"inputs": [
						{
							"internalType": "uint256",
							"name": "",
							"type": "uint256"
						}
					],
					"name": "allParticipants",
					"outputs": [
						{
							"internalType": "address",
							"name": "",
							"type": "address"
						}
					],
					"stateMutability": "view",
					"type": "function"
				},
				{
					"inputs": [],
					"name": "bettingToken",
					"outputs": [
						{
							"internalType": "contract IERC20",
							"name": "",
							"type": "address"
						}
					],
					"stateMutability": "view",
					"type": "function"
				},
				{
					"inputs": [
						{
							"internalType": "uint256",
							"name": "_marketId",
							"type": "uint256"
						},
						{
							"internalType": "bool",
							"name": "_isOptionA",
							"type": "bool"
						},
						{
							"internalType": "uint256",
							"name": "_amount",
							"type": "uint256"
						}
					],
					"name": "buyShares",
					"outputs": [],
					"stateMutability": "nonpayable",
					"type": "function"
				},
				{
					"inputs": [
						{
							"internalType": "string",
							"name": "_question",
							"type": "string"
						},
						{
							"internalType": "string",
							"name": "_optionA",
							"type": "string"
						},
						{
							"internalType": "string",
							"name": "_optionB",
							"type": "string"
						},
						{
							"internalType": "uint256",
							"name": "_duration",
							"type": "uint256"
						}
					],
					"name": "createMarket",
					"outputs": [
						{
							"internalType": "uint256",
							"name": "",
							"type": "uint256"
						}
					],
					"stateMutability": "nonpayable",
					"type": "function"
				},
				{
					"inputs": [
						{
							"internalType": "uint256",
							"name": "_marketId",
							"type": "uint256"
						},
						{
							"internalType": "uint256",
							"name": "batchSize",
							"type": "uint256"
						}
					],
					"name": "distributeWinningsBatch",
					"outputs": [],
					"stateMutability": "nonpayable",
					"type": "function"
				},
				{
					"inputs": [],
					"name": "getAllParticipantsCount",
					"outputs": [
						{
							"internalType": "uint256",
							"name": "",
							"type": "uint256"
						}
					],
					"stateMutability": "view",
					"type": "function"
				},
				{
					"inputs": [],
					"name": "getBettingToken",
					"outputs": [
						{
							"internalType": "address",
							"name": "",
							"type": "address"
						}
					],
					"stateMutability": "view",
					"type": "function"
				},
				{
					"inputs": [
						{
							"internalType": "uint256",
							"name": "start",
							"type": "uint256"
						},
						{
							"internalType": "uint256",
							"name": "limit",
							"type": "uint256"
						}
					],
					"name": "getLeaderboard",
					"outputs": [
						{
							"components": [
								{
									"internalType": "address",
									"name": "user",
									"type": "address"
								},
								{
									"internalType": "uint256",
									"name": "totalWinnings",
									"type": "uint256"
								},
								{
									"internalType": "uint256",
									"name": "voteCount",
									"type": "uint256"
								}
							],
							"internalType": "struct PolicastMarket.LeaderboardEntry[]",
							"name": "",
							"type": "tuple[]"
						}
					],
					"stateMutability": "view",
					"type": "function"
				},
				{
					"inputs": [],
					"name": "getMarketCount",
					"outputs": [
						{
							"internalType": "uint256",
							"name": "",
							"type": "uint256"
						}
					],
					"stateMutability": "view",
					"type": "function"
				},
				{
					"inputs": [
						{
							"internalType": "uint256",
							"name": "_marketId",
							"type": "uint256"
						}
					],
					"name": "getMarketInfo",
					"outputs": [
						{
							"internalType": "string",
							"name": "question",
							"type": "string"
						},
						{
							"internalType": "string",
							"name": "optionA",
							"type": "string"
						},
						{
							"internalType": "string",
							"name": "optionB",
							"type": "string"
						},
						{
							"internalType": "uint256",
							"name": "endTime",
							"type": "uint256"
						},
						{
							"internalType": "enum PolicastMarket.MarketOutcome",
							"name": "outcome",
							"type": "uint8"
						},
						{
							"internalType": "uint256",
							"name": "totalOptionAShares",
							"type": "uint256"
						},
						{
							"internalType": "uint256",
							"name": "totalOptionBShares",
							"type": "uint256"
						},
						{
							"internalType": "bool",
							"name": "resolved",
							"type": "bool"
						}
					],
					"stateMutability": "view",
					"type": "function"
				},
				{
					"inputs": [
						{
							"internalType": "uint256[]",
							"name": "_marketIds",
							"type": "uint256[]"
						}
					],
					"name": "getMarketInfoBatch",
					"outputs": [
						{
							"internalType": "string[]",
							"name": "questions",
							"type": "string[]"
						},
						{
							"internalType": "string[]",
							"name": "optionAs",
							"type": "string[]"
						},
						{
							"internalType": "string[]",
							"name": "optionBs",
							"type": "string[]"
						},
						{
							"internalType": "uint256[]",
							"name": "endTimes",
							"type": "uint256[]"
						},
						{
							"internalType": "enum PolicastMarket.MarketOutcome[]",
							"name": "outcomes",
							"type": "uint8[]"
						},
						{
							"internalType": "uint256[]",
							"name": "totalOptionASharesArray",
							"type": "uint256[]"
						},
						{
							"internalType": "uint256[]",
							"name": "totalOptionBSharesArray",
							"type": "uint256[]"
						},
						{
							"internalType": "bool[]",
							"name": "resolvedArray",
							"type": "bool[]"
						}
					],
					"stateMutability": "view",
					"type": "function"
				},
				{
					"inputs": [
						{
							"internalType": "bytes32",
							"name": "role",
							"type": "bytes32"
						}
					],
					"name": "getRoleAdmin",
					"outputs": [
						{
							"internalType": "bytes32",
							"name": "",
							"type": "bytes32"
						}
					],
					"stateMutability": "view",
					"type": "function"
				},
				{
					"inputs": [
						{
							"internalType": "uint256",
							"name": "_marketId",
							"type": "uint256"
						},
						{
							"internalType": "address",
							"name": "_user",
							"type": "address"
						}
					],
					"name": "getShareBalance",
					"outputs": [
						{
							"internalType": "uint256",
							"name": "optionAShares",
							"type": "uint256"
						},
						{
							"internalType": "uint256",
							"name": "optionBShares",
							"type": "uint256"
						}
					],
					"stateMutability": "view",
					"type": "function"
				},
				{
					"inputs": [
						{
							"internalType": "uint256",
							"name": "_marketId",
							"type": "uint256"
						},
						{
							"internalType": "address",
							"name": "_user",
							"type": "address"
						}
					],
					"name": "getUserClaimedStatus",
					"outputs": [
						{
							"internalType": "bool",
							"name": "",
							"type": "bool"
						}
					],
					"stateMutability": "view",
					"type": "function"
				},
				{
					"inputs": [
						{
							"internalType": "address",
							"name": "user",
							"type": "address"
						},
						{
							"internalType": "uint256",
							"name": "start",
							"type": "uint256"
						},
						{
							"internalType": "uint256",
							"name": "limit",
							"type": "uint256"
						}
					],
					"name": "getVoteHistory",
					"outputs": [
						{
							"components": [
								{
									"internalType": "uint256",
									"name": "marketId",
									"type": "uint256"
								},
								{
									"internalType": "bool",
									"name": "isOptionA",
									"type": "bool"
								},
								{
									"internalType": "uint256",
									"name": "amount",
									"type": "uint256"
								},
								{
									"internalType": "uint256",
									"name": "timestamp",
									"type": "uint256"
								}
							],
							"internalType": "struct PolicastMarket.Vote[]",
							"name": "",
							"type": "tuple[]"
						}
					],
					"stateMutability": "view",
					"type": "function"
				},
				{
					"inputs": [
						{
							"internalType": "address",
							"name": "user",
							"type": "address"
						}
					],
					"name": "getVoteHistoryCount",
					"outputs": [
						{
							"internalType": "uint256",
							"name": "",
							"type": "uint256"
						}
					],
					"stateMutability": "view",
					"type": "function"
				},
				{
					"inputs": [
						{
							"internalType": "address",
							"name": "_account",
							"type": "address"
						}
					],
					"name": "grantQuestionCreatorRole",
					"outputs": [],
					"stateMutability": "nonpayable",
					"type": "function"
				},
				{
					"inputs": [
						{
							"internalType": "address",
							"name": "_account",
							"type": "address"
						}
					],
					"name": "grantQuestionResolveRole",
					"outputs": [],
					"stateMutability": "nonpayable",
					"type": "function"
				},
				{
					"inputs": [
						{
							"internalType": "bytes32",
							"name": "role",
							"type": "bytes32"
						},
						{
							"internalType": "address",
							"name": "account",
							"type": "address"
						}
					],
					"name": "grantRole",
					"outputs": [],
					"stateMutability": "nonpayable",
					"type": "function"
				},
				{
					"inputs": [
						{
							"internalType": "bytes32",
							"name": "role",
							"type": "bytes32"
						},
						{
							"internalType": "address",
							"name": "account",
							"type": "address"
						}
					],
					"name": "hasRole",
					"outputs": [
						{
							"internalType": "bool",
							"name": "",
							"type": "bool"
						}
					],
					"stateMutability": "view",
					"type": "function"
				},
				{
					"inputs": [],
					"name": "marketCount",
					"outputs": [
						{
							"internalType": "uint256",
							"name": "",
							"type": "uint256"
						}
					],
					"stateMutability": "view",
					"type": "function"
				},
				{
					"inputs": [
						{
							"internalType": "uint256",
							"name": "",
							"type": "uint256"
						}
					],
					"name": "markets",
					"outputs": [
						{
							"internalType": "string",
							"name": "question",
							"type": "string"
						},
						{
							"internalType": "uint256",
							"name": "endTime",
							"type": "uint256"
						},
						{
							"internalType": "enum PolicastMarket.MarketOutcome",
							"name": "outcome",
							"type": "uint8"
						},
						{
							"internalType": "string",
							"name": "optionA",
							"type": "string"
						},
						{
							"internalType": "string",
							"name": "optionB",
							"type": "string"
						},
						{
							"internalType": "uint256",
							"name": "totalOptionAShares",
							"type": "uint256"
						},
						{
							"internalType": "uint256",
							"name": "totalOptionBShares",
							"type": "uint256"
						},
						{
							"internalType": "bool",
							"name": "resolved",
							"type": "bool"
						},
						{
							"internalType": "uint256",
							"name": "payoutIndex",
							"type": "uint256"
						}
					],
					"stateMutability": "view",
					"type": "function"
				},
				{
					"inputs": [],
					"name": "owner",
					"outputs": [
						{
							"internalType": "address",
							"name": "",
							"type": "address"
						}
					],
					"stateMutability": "view",
					"type": "function"
				},
				{
					"inputs": [],
					"name": "renounceOwnership",
					"outputs": [],
					"stateMutability": "nonpayable",
					"type": "function"
				},
				{
					"inputs": [
						{
							"internalType": "bytes32",
							"name": "role",
							"type": "bytes32"
						},
						{
							"internalType": "address",
							"name": "callerConfirmation",
							"type": "address"
						}
					],
					"name": "renounceRole",
					"outputs": [],
					"stateMutability": "nonpayable",
					"type": "function"
				},
				{
					"inputs": [
						{
							"internalType": "uint256",
							"name": "_marketId",
							"type": "uint256"
						},
						{
							"internalType": "enum PolicastMarket.MarketOutcome",
							"name": "_outcome",
							"type": "uint8"
						}
					],
					"name": "resolveMarket",
					"outputs": [],
					"stateMutability": "nonpayable",
					"type": "function"
				},
				{
					"inputs": [
						{
							"internalType": "bytes32",
							"name": "role",
							"type": "bytes32"
						},
						{
							"internalType": "address",
							"name": "account",
							"type": "address"
						}
					],
					"name": "revokeRole",
					"outputs": [],
					"stateMutability": "nonpayable",
					"type": "function"
				},
				{
					"inputs": [
						{
							"internalType": "bytes4",
							"name": "interfaceId",
							"type": "bytes4"
						}
					],
					"name": "supportsInterface",
					"outputs": [
						{
							"internalType": "bool",
							"name": "",
							"type": "bool"
						}
					],
					"stateMutability": "view",
					"type": "function"
				},
				{
					"inputs": [
						{
							"internalType": "address",
							"name": "",
							"type": "address"
						}
					],
					"name": "totalSharesPurchased",
					"outputs": [
						{
							"internalType": "uint256",
							"name": "",
							"type": "uint256"
						}
					],
					"stateMutability": "view",
					"type": "function"
				},
				{
					"inputs": [
						{
							"internalType": "address",
							"name": "",
							"type": "address"
						}
					],
					"name": "totalWinnings",
					"outputs": [
						{
							"internalType": "uint256",
							"name": "",
							"type": "uint256"
						}
					],
					"stateMutability": "view",
					"type": "function"
				},
				{
					"inputs": [
						{
							"internalType": "address",
							"name": "newOwner",
							"type": "address"
						}
					],
					"name": "transferOwnership",
					"outputs": [],
					"stateMutability": "nonpayable",
					"type": "function"
				},
				{
					"inputs": [
						{
							"internalType": "address",
							"name": "",
							"type": "address"
						},
						{
							"internalType": "uint256",
							"name": "",
							"type": "uint256"
						}
					],
					"name": "voteHistory",
					"outputs": [
						{
							"internalType": "uint256",
							"name": "marketId",
							"type": "uint256"
						},
						{
							"internalType": "bool",
							"name": "isOptionA",
							"type": "bool"
						},
						{
							"internalType": "uint256",
							"name": "amount",
							"type": "uint256"
						},
						{
							"internalType": "uint256",
							"name": "timestamp",
							"type": "uint256"
						}
					],
					"stateMutability": "view",
					"type": "function"
				}
			],
			"devdoc": {
				"errors": {
					"AccessControlBadConfirmation()": [
						{
							"details": "The caller of a function is not the expected one. NOTE: Don't confuse with {AccessControlUnauthorizedAccount}."
						}
					],
					"AccessControlUnauthorizedAccount(address,bytes32)": [
						{
							"details": "The `account` is missing a role."
						}
					],
					"OwnableInvalidOwner(address)": [
						{
							"details": "The owner is not a valid owner account. (eg. `address(0)`)"
						}
					],
					"OwnableUnauthorizedAccount(address)": [
						{
							"details": "The caller account is not authorized to perform an operation."
						}
					],
					"ReentrancyGuardReentrantCall()": [
						{
							"details": "Unauthorized reentrant call."
						}
					]
				},
				"events": {
					"RoleAdminChanged(bytes32,bytes32,bytes32)": {
						"details": "Emitted when `newAdminRole` is set as ``role``'s admin role, replacing `previousAdminRole` `DEFAULT_ADMIN_ROLE` is the starting admin for all roles, despite {RoleAdminChanged} not being emitted to signal this."
					},
					"RoleGranted(bytes32,address,address)": {
						"details": "Emitted when `account` is granted `role`. `sender` is the account that originated the contract call. This account bears the admin role (for the granted role). Expected in cases where the role was granted using the internal {AccessControl-_grantRole}."
					},
					"RoleRevoked(bytes32,address,address)": {
						"details": "Emitted when `account` is revoked `role`. `sender` is the account that originated the contract call:   - if using `revokeRole`, it is the admin role bearer   - if using `renounceRole`, it is the role bearer (i.e. `account`)"
					}
				},
				"kind": "dev",
				"methods": {
					"getRoleAdmin(bytes32)": {
						"details": "Returns the admin role that controls `role`. See {grantRole} and {revokeRole}. To change a role's admin, use {_setRoleAdmin}."
					},
					"grantRole(bytes32,address)": {
						"details": "Grants `role` to `account`. If `account` had not been already granted `role`, emits a {RoleGranted} event. Requirements: - the caller must have ``role``'s admin role. May emit a {RoleGranted} event."
					},
					"hasRole(bytes32,address)": {
						"details": "Returns `true` if `account` has been granted `role`."
					},
					"owner()": {
						"details": "Returns the address of the current owner."
					},
					"renounceOwnership()": {
						"details": "Leaves the contract without owner. It will not be possible to call `onlyOwner` functions. Can only be called by the current owner. NOTE: Renouncing ownership will leave the contract without an owner, thereby disabling any functionality that is only available to the owner."
					},
					"renounceRole(bytes32,address)": {
						"details": "Revokes `role` from the calling account. Roles are often managed via {grantRole} and {revokeRole}: this function's purpose is to provide a mechanism for accounts to lose their privileges if they are compromised (such as when a trusted device is misplaced). If the calling account had been revoked `role`, emits a {RoleRevoked} event. Requirements: - the caller must be `callerConfirmation`. May emit a {RoleRevoked} event."
					},
					"revokeRole(bytes32,address)": {
						"details": "Revokes `role` from `account`. If `account` had been granted `role`, emits a {RoleRevoked} event. Requirements: - the caller must have ``role``'s admin role. May emit a {RoleRevoked} event."
					},
					"supportsInterface(bytes4)": {
						"details": "Returns true if this contract implements the interface defined by `interfaceId`. See the corresponding https://eips.ethereum.org/EIPS/eip-165#how-interfaces-are-identified[ERC section] to learn more about how these ids are created. This function call must use less than 30 000 gas."
					},
					"transferOwnership(address)": {
						"details": "Transfers ownership of the contract to a new account (`newOwner`). Can only be called by the current owner."
					}
				},
				"version": 1
			},
			"evm": {
				"assembly": "    /* \"v1.sol\":361:12495  contract PolicastMarket is Ownable, ReentrancyGuard, AccessControl {... */\n  mstore(0x40, 0x80)\n    /* \"v1.sol\":2559:2728  constructor(address _bettingToken)   Ownable(msg.sender) {... */\n  callvalue\n  dup1\n  iszero\n  tag_1\n  jumpi\n  revert(0x00, 0x00)\ntag_1:\n  pop\n  mload(0x40)\n  sub(codesize, bytecodeSize)\n  dup1\n  bytecodeSize\n  dup4\n  codecopy\n  dup2\n  add\n  0x40\n  dup2\n  swap1\n  mstore\n  tag_2\n  swap2\n  tag_3\n  jump\t// in\ntag_2:\n    /* \"v1.sol\":2604:2614  msg.sender */\n  caller\n  dup1\n    /* \"@openzeppelin/contracts/access/Ownable.sol\":1269:1364  if (initialOwner == address(0)) {... */\n  tag_8\n  jumpi\n    /* \"@openzeppelin/contracts/access/Ownable.sol\":1322:1353  OwnableInvalidOwner(address(0)) */\n  mload(0x40)\n  shl(0xe0, 0x1e4fbdf7)\n  dup2\n  mstore\n    /* \"@openzeppelin/contracts/access/Ownable.sol\":1350:1351  0 */\n  0x00\n    /* \"@openzeppelin/contracts/access/Ownable.sol\":1322:1353  OwnableInvalidOwner(address(0)) */\n  0x04\n  dup3\n  add\n    /* \"#utility.yul\":455:506   */\n  mstore\n    /* \"#utility.yul\":428:446   */\n  0x24\n  add\n    /* \"@openzeppelin/contracts/access/Ownable.sol\":1322:1353  OwnableInvalidOwner(address(0)) */\n  mload(0x40)\n  dup1\n  swap2\n  sub\n  swap1\n  revert\n    /* \"@openzeppelin/contracts/access/Ownable.sol\":1269:1364  if (initialOwner == address(0)) {... */\ntag_8:\n    /* \"@openzeppelin/contracts/access/Ownable.sol\":1373:1405  _transferOwnership(initialOwner) */\n  tag_11\n    /* \"@openzeppelin/contracts/access/Ownable.sol\":1392:1404  initialOwner */\n  dup2\n    /* \"@openzeppelin/contracts/access/Ownable.sol\":1373:1391  _transferOwnership */\n  tag_12\n    /* \"@openzeppelin/contracts/access/Ownable.sol\":1373:1405  _transferOwnership(initialOwner) */\n  jump\t// in\ntag_11:\n  pop\n    /* \"@openzeppelin/contracts/utils/ReentrancyGuard.sol\":1857:1858  1 */\n  0x01\n    /* \"@openzeppelin/contracts/utils/ReentrancyGuard.sol\":2061:2082  _status = NOT_ENTERED */\n  dup1\n  sstore\n    /* \"v1.sol\":2626:2638  bettingToken */\n  0x03\n    /* \"v1.sol\":2626:2662  bettingToken = IERC20(_bettingToken) */\n  dup1\n  sload\n  not(sub(shl(0xa0, 0x01), 0x01))\n  and\n  sub(shl(0xa0, 0x01), 0x01)\n  dup4\n  and\n  or\n  swap1\n  sstore\n    /* \"v1.sol\":2679:2721  _grantRole(DEFAULT_ADMIN_ROLE, msg.sender) */\n  tag_15\n  0x00\n    /* \"v1.sol\":2710:2720  msg.sender */\n  caller\n    /* \"v1.sol\":2679:2689  _grantRole */\n  tag_16\n    /* \"v1.sol\":2679:2721  _grantRole(DEFAULT_ADMIN_ROLE, msg.sender) */\n  jump\t// in\ntag_15:\n  pop\n    /* \"v1.sol\":2559:2728  constructor(address _bettingToken)   Ownable(msg.sender) {... */\n  pop\n    /* \"v1.sol\":361:12495  contract PolicastMarket is Ownable, ReentrancyGuard, AccessControl {... */\n  jump(tag_28)\n    /* \"@openzeppelin/contracts/access/Ownable.sol\":2912:3099  function _transferOwnership(address newOwner) internal virtual {... */\ntag_12:\n    /* \"@openzeppelin/contracts/access/Ownable.sol\":2985:3001  address oldOwner */\n  0x00\n    /* \"@openzeppelin/contracts/access/Ownable.sol\":3004:3010  _owner */\n  dup1\n  sload\n  sub(shl(0xa0, 0x01), 0x01)\n    /* \"@openzeppelin/contracts/access/Ownable.sol\":3020:3037  _owner = newOwner */\n  dup4\n  dup2\n  and\n  not(sub(shl(0xa0, 0x01), 0x01))\n  dup4\n  and\n  dup2\n  or\n  dup5\n  sstore\n    /* \"@openzeppelin/contracts/access/Ownable.sol\":3052:3092  OwnershipTransferred(oldOwner, newOwner) */\n  mload(0x40)\n    /* \"@openzeppelin/contracts/access/Ownable.sol\":3004:3010  _owner */\n  swap2\n  swap1\n  swap3\n  and\n  swap3\n  dup4\n  swap2\n    /* \"@openzeppelin/contracts/access/Ownable.sol\":3052:3092  OwnershipTransferred(oldOwner, newOwner) */\n  0x8be0079c531659141344cd1fd0a4f28419497f9722a3daafe3b4186f6b6457e0\n  swap2\n    /* \"@openzeppelin/contracts/access/Ownable.sol\":2985:3001  address oldOwner */\n  swap1\n    /* \"@openzeppelin/contracts/access/Ownable.sol\":3052:3092  OwnershipTransferred(oldOwner, newOwner) */\n  log3\n    /* \"@openzeppelin/contracts/access/Ownable.sol\":2975:3099  {... */\n  pop\n    /* \"@openzeppelin/contracts/access/Ownable.sol\":2912:3099  function _transferOwnership(address newOwner) internal virtual {... */\n  pop\n  jump\t// out\n    /* \"@openzeppelin/contracts/access/AccessControl.sol\":6155:6471  function _grantRole(bytes32 role, address account) internal virtual returns (bool) {... */\ntag_16:\n    /* \"@openzeppelin/contracts/access/AccessControl.sol\":6232:6236  bool */\n  0x00\n    /* \"@openzeppelin/contracts/access/AccessControl.sol\":2930:2942  _roles[role] */\n  dup3\n  dup2\n  mstore\n    /* \"@openzeppelin/contracts/access/AccessControl.sol\":2930:2936  _roles */\n  0x02\n    /* \"@openzeppelin/contracts/access/AccessControl.sol\":2930:2942  _roles[role] */\n  0x20\n  swap1\n  dup2\n  mstore\n  0x40\n  dup1\n  dup4\n  keccak256\n  sub(shl(0xa0, 0x01), 0x01)\n    /* \"@openzeppelin/contracts/access/AccessControl.sol\":2930:2959  _roles[role].hasRole[account] */\n  dup6\n  and\n  dup5\n  mstore\n  swap1\n  swap2\n  mstore\n  dup2\n  keccak256\n  sload\n  0xff\n  and\n    /* \"@openzeppelin/contracts/access/AccessControl.sol\":6248:6465  if (!hasRole(role, account)) {... */\n  tag_22\n  jumpi\n    /* \"@openzeppelin/contracts/access/AccessControl.sol\":6291:6303  _roles[role] */\n  0x00\n  dup4\n  dup2\n  mstore\n    /* \"@openzeppelin/contracts/access/AccessControl.sol\":6291:6297  _roles */\n  0x02\n    /* \"@openzeppelin/contracts/access/AccessControl.sol\":6291:6303  _roles[role] */\n  0x20\n  swap1\n  dup2\n  mstore\n  0x40\n  dup1\n  dup4\n  keccak256\n  sub(shl(0xa0, 0x01), 0x01)\n    /* \"@openzeppelin/contracts/access/AccessControl.sol\":6291:6320  _roles[role].hasRole[account] */\n  dup7\n  and\n  dup5\n  mstore\n  swap1\n  swap2\n  mstore\n  swap1\n  keccak256\n    /* \"@openzeppelin/contracts/access/AccessControl.sol\":6291:6327  _roles[role].hasRole[account] = true */\n  dup1\n  sload\n  not(0xff)\n  and\n    /* \"@openzeppelin/contracts/access/AccessControl.sol\":6323:6327  true */\n  0x01\n    /* \"@openzeppelin/contracts/access/AccessControl.sol\":6291:6327  _roles[role].hasRole[account] = true */\n  or\n  swap1\n  sstore\n    /* \"@openzeppelin/contracts/access/AccessControl.sol\":6373:6385  _msgSender() */\n  tag_23\n    /* \"@openzeppelin/contracts/utils/Context.sol\":735:745  msg.sender */\n  caller\n  swap1\n    /* \"@openzeppelin/contracts/utils/Context.sol\":656:752  function _msgSender() internal view virtual returns (address) {... */\n  jump\n    /* \"@openzeppelin/contracts/access/AccessControl.sol\":6373:6385  _msgSender() */\ntag_23:\n  sub(shl(0xa0, 0x01), 0x01)\n    /* \"@openzeppelin/contracts/access/AccessControl.sol\":6346:6386  RoleGranted(role, account, _msgSender()) */\n  and\n    /* \"@openzeppelin/contracts/access/AccessControl.sol\":6364:6371  account */\n  dup3\n  sub(shl(0xa0, 0x01), 0x01)\n    /* \"@openzeppelin/contracts/access/AccessControl.sol\":6346:6386  RoleGranted(role, account, _msgSender()) */\n  and\n    /* \"@openzeppelin/contracts/access/AccessControl.sol\":6358:6362  role */\n  dup5\n    /* \"@openzeppelin/contracts/access/AccessControl.sol\":6346:6386  RoleGranted(role, account, _msgSender()) */\n  0x2f8788117e7eff1d82e926ec794901d17c78024a50270940304540a733656f0d\n  mload(0x40)\n  mload(0x40)\n  dup1\n  swap2\n  sub\n  swap1\n  log4\n  pop\n    /* \"@openzeppelin/contracts/access/AccessControl.sol\":6407:6411  true */\n  0x01\n    /* \"@openzeppelin/contracts/access/AccessControl.sol\":6400:6411  return true */\n  jump(tag_25)\n    /* \"@openzeppelin/contracts/access/AccessControl.sol\":6248:6465  if (!hasRole(role, account)) {... */\ntag_22:\n  pop\n    /* \"@openzeppelin/contracts/access/AccessControl.sol\":6449:6454  false */\n  0x00\n    /* \"@openzeppelin/contracts/access/AccessControl.sol\":6248:6465  if (!hasRole(role, account)) {... */\ntag_25:\n    /* \"@openzeppelin/contracts/access/AccessControl.sol\":6155:6471  function _grantRole(bytes32 role, address account) internal virtual returns (bool) {... */\n  swap3\n  swap2\n  pop\n  pop\n  jump\t// out\n    /* \"#utility.yul\":14:304   */\ntag_3:\n    /* \"#utility.yul\":84:90   */\n  0x00\n    /* \"#utility.yul\":137:139   */\n  0x20\n    /* \"#utility.yul\":125:134   */\n  dup3\n    /* \"#utility.yul\":116:123   */\n  dup5\n    /* \"#utility.yul\":112:135   */\n  sub\n    /* \"#utility.yul\":108:140   */\n  slt\n    /* \"#utility.yul\":105:157   */\n  iszero\n  tag_30\n  jumpi\n    /* \"#utility.yul\":153:154   */\n  0x00\n    /* \"#utility.yul\":150:151   */\n  0x00\n    /* \"#utility.yul\":143:155   */\n  revert\n    /* \"#utility.yul\":105:157   */\ntag_30:\n    /* \"#utility.yul\":179:195   */\n  dup2\n  mload\n  sub(shl(0xa0, 0x01), 0x01)\n    /* \"#utility.yul\":224:255   */\n  dup2\n  and\n    /* \"#utility.yul\":214:256   */\n  dup2\n  eq\n    /* \"#utility.yul\":204:274   */\n  tag_31\n  jumpi\n    /* \"#utility.yul\":270:271   */\n  0x00\n    /* \"#utility.yul\":267:268   */\n  0x00\n    /* \"#utility.yul\":260:272   */\n  revert\n    /* \"#utility.yul\":204:274   */\ntag_31:\n    /* \"#utility.yul\":293:298   */\n  swap4\n    /* \"#utility.yul\":14:304   */\n  swap3\n  pop\n  pop\n  pop\n  jump\t// out\n    /* \"#utility.yul\":309:512   */\ntag_28:\n    /* \"v1.sol\":361:12495  contract PolicastMarket is Ownable, ReentrancyGuard, AccessControl {... */\n  dataSize(sub_0)\n  dup1\n  dataOffset(sub_0)\n  0x00\n  codecopy\n  0x00\n  return\nstop\n\nsub_0: assembly {\n        /* \"v1.sol\":361:12495  contract PolicastMarket is Ownable, ReentrancyGuard, AccessControl {... */\n      mstore(0x40, 0x80)\n      callvalue\n      dup1\n      iszero\n      tag_1\n      jumpi\n      revert(0x00, 0x00)\n    tag_1:\n      pop\n      jumpi(tag_2, lt(calldatasize, 0x04))\n      shr(0xe0, calldataload(0x00))\n      dup1\n      0x715018a6\n      gt\n      tag_38\n      jumpi\n      dup1\n      0xa217fddf\n      gt\n      tag_39\n      jumpi\n      dup1\n      0xdf55406e\n      gt\n      tag_40\n      jumpi\n      dup1\n      0xdf55406e\n      eq\n      tag_33\n      jumpi\n      dup1\n      0xec979082\n      eq\n      tag_34\n      jumpi\n      dup1\n      0xf2fde38b\n      eq\n      tag_35\n      jumpi\n      dup1\n      0xfaa62253\n      eq\n      tag_36\n      jumpi\n      dup1\n      0xfd69f3c2\n      eq\n      tag_37\n      jumpi\n      revert(0x00, 0x00)\n    tag_40:\n      dup1\n      0xa217fddf\n      eq\n      tag_29\n      jumpi\n      dup1\n      0xb1283e77\n      eq\n      tag_30\n      jumpi\n      dup1\n      0xb47574ea\n      eq\n      tag_31\n      jumpi\n      dup1\n      0xd547741f\n      eq\n      tag_32\n      jumpi\n      revert(0x00, 0x00)\n    tag_39:\n      dup1\n      0x77b4a3e7\n      gt\n      tag_41\n      jumpi\n      dup1\n      0x77b4a3e7\n      eq\n      tag_24\n      jumpi\n      dup1\n      0x8b8840e0\n      eq\n      tag_25\n      jumpi\n      dup1\n      0x8da5cb5b\n      eq\n      tag_26\n      jumpi\n      dup1\n      0x8e1cc87b\n      eq\n      tag_27\n      jumpi\n      dup1\n      0x91d14854\n      eq\n      tag_28\n      jumpi\n      revert(0x00, 0x00)\n    tag_41:\n      dup1\n      0x715018a6\n      eq\n      tag_20\n      jumpi\n      dup1\n      0x73af16fc\n      eq\n      tag_21\n      jumpi\n      dup1\n      0x755f0629\n      eq\n      tag_22\n      jumpi\n      dup1\n      0x76e00406\n      eq\n      tag_23\n      jumpi\n      revert(0x00, 0x00)\n    tag_38:\n      dup1\n      0x3260ac90\n      gt\n      tag_42\n      jumpi\n      dup1\n      0x3ec79193\n      gt\n      tag_43\n      jumpi\n      dup1\n      0x3ec79193\n      eq\n      tag_15\n      jumpi\n      dup1\n      0x43425e88\n      eq\n      tag_16\n      jumpi\n      dup1\n      0x5e3dd526\n      eq\n      tag_17\n      jumpi\n      dup1\n      0x5e919f7c\n      eq\n      tag_18\n      jumpi\n      dup1\n      0x6db3b4dc\n      eq\n      tag_19\n      jumpi\n      revert(0x00, 0x00)\n    tag_43:\n      dup1\n      0x3260ac90\n      eq\n      tag_11\n      jumpi\n      dup1\n      0x35037e0b\n      eq\n      tag_12\n      jumpi\n      dup1\n      0x36568abe\n      eq\n      tag_13\n      jumpi\n      dup1\n      0x39b46372\n      eq\n      tag_14\n      jumpi\n      revert(0x00, 0x00)\n    tag_42:\n      dup1\n      0x0c6650b2\n      gt\n      tag_44\n      jumpi\n      dup1\n      0x0c6650b2\n      eq\n      tag_7\n      jumpi\n      dup1\n      0x248a9ca3\n      eq\n      tag_8\n      jumpi\n      dup1\n      0x29cf655b\n      eq\n      tag_9\n      jumpi\n      dup1\n      0x2f2ff15d\n      eq\n      tag_10\n      jumpi\n      revert(0x00, 0x00)\n    tag_44:\n      dup1\n      0x01ffc9a7\n      eq\n      tag_3\n      jumpi\n      dup1\n      0x0391f64c\n      eq\n      tag_4\n      jumpi\n      dup1\n      0x05e33dd0\n      eq\n      tag_5\n      jumpi\n      dup1\n      0x0b5a9a62\n      eq\n      tag_6\n      jumpi\n    tag_2:\n      revert(0x00, 0x00)\n        /* \"@openzeppelin/contracts/access/AccessControl.sol\":2541:2743  function supportsInterface(bytes4 interfaceId) public view virtual override returns (bool) {... */\n    tag_3:\n      tag_45\n      tag_46\n      calldatasize\n      0x04\n      tag_47\n      jump\t// in\n    tag_46:\n      tag_48\n      jump\t// in\n    tag_45:\n      mload(0x40)\n        /* \"#utility.yul\":470:484   */\n      swap1\n      iszero\n        /* \"#utility.yul\":463:485   */\n      iszero\n        /* \"#utility.yul\":445:486   */\n      dup2\n      mstore\n        /* \"#utility.yul\":433:435   */\n      0x20\n        /* \"#utility.yul\":418:436   */\n      add\n        /* \"@openzeppelin/contracts/access/AccessControl.sol\":2541:2743  function supportsInterface(bytes4 interfaceId) public view virtual override returns (bool) {... */\n    tag_49:\n      mload(0x40)\n      dup1\n      swap2\n      sub\n      swap1\n      return\n        /* \"v1.sol\":10370:10674  function getShareBalance(uint256 _marketId, address _user)... */\n    tag_4:\n      tag_51\n      tag_52\n      calldatasize\n      0x04\n      tag_53\n      jump\t// in\n    tag_52:\n        /* \"v1.sol\":10476:10497  uint256 optionAShares */\n      0x00\n        /* \"v1.sol\":10560:10578  markets[_marketId] */\n      swap2\n      dup3\n      mstore\n        /* \"v1.sol\":10560:10567  markets */\n      0x05\n        /* \"v1.sol\":10560:10578  markets[_marketId] */\n      0x20\n      swap1\n      dup2\n      mstore\n      0x40\n      dup1\n      dup5\n      keccak256\n      sub(shl(0xa0, 0x01), 0x01)\n        /* \"v1.sol\":10596:10630  market.optionASharesBalance[_user] */\n      swap4\n      swap1\n      swap4\n      and\n      dup5\n      mstore\n        /* \"v1.sol\":10596:10623  market.optionASharesBalance */\n      0x08\n      dup4\n      add\n        /* \"v1.sol\":10596:10630  market.optionASharesBalance[_user] */\n      dup3\n      mstore\n      dup1\n      dup5\n      keccak256\n      sload\n        /* \"v1.sol\":10632:10659  market.optionBSharesBalance */\n      0x09\n      swap1\n      swap4\n      add\n        /* \"v1.sol\":10632:10666  market.optionBSharesBalance[_user] */\n      swap1\n      swap2\n      mstore\n      swap1\n      swap2\n      keccak256\n      sload\n        /* \"v1.sol\":10596:10630  market.optionASharesBalance[_user] */\n      swap1\n      swap2\n        /* \"v1.sol\":10370:10674  function getShareBalance(uint256 _marketId, address _user)... */\n      jump\n    tag_51:\n      0x40\n      dup1\n      mload\n        /* \"#utility.yul\":1154:1179   */\n      swap3\n      dup4\n      mstore\n        /* \"#utility.yul\":1210:1212   */\n      0x20\n        /* \"#utility.yul\":1195:1213   */\n      dup4\n      add\n        /* \"#utility.yul\":1188:1222   */\n      swap2\n      swap1\n      swap2\n      mstore\n        /* \"#utility.yul\":1127:1145   */\n      add\n        /* \"v1.sol\":10370:10674  function getShareBalance(uint256 _marketId, address _user)... */\n      tag_49\n        /* \"#utility.yul\":980:1228   */\n      jump\n        /* \"v1.sol\":1730:1762  address[] public allParticipants */\n    tag_5:\n      tag_57\n      tag_58\n      calldatasize\n      0x04\n      tag_59\n      jump\t// in\n    tag_58:\n      tag_60\n      jump\t// in\n    tag_57:\n      mload(0x40)\n      sub(shl(0xa0, 0x01), 0x01)\n        /* \"#utility.yul\":1628:1660   */\n      swap1\n      swap2\n      and\n        /* \"#utility.yul\":1610:1661   */\n      dup2\n      mstore\n        /* \"#utility.yul\":1598:1600   */\n      0x20\n        /* \"#utility.yul\":1583:1601   */\n      add\n        /* \"v1.sol\":1730:1762  address[] public allParticipants */\n      tag_49\n        /* \"#utility.yul\":1464:1667   */\n      jump\n        /* \"v1.sol\":10680:10873  function getUserClaimedStatus(uint256 _marketId, address _user) external view returns (bool) {... */\n    tag_6:\n      tag_45\n      tag_64\n      calldatasize\n      0x04\n      tag_53\n      jump\t// in\n    tag_64:\n        /* \"v1.sol\":10767:10771  bool */\n      0x00\n        /* \"v1.sol\":10807:10825  markets[_marketId] */\n      dup3\n      dup2\n      mstore\n        /* \"v1.sol\":10807:10814  markets */\n      0x05\n        /* \"v1.sol\":10807:10825  markets[_marketId] */\n      0x20\n      swap1\n      dup2\n      mstore\n      0x40\n      dup1\n      dup4\n      keccak256\n      sub(shl(0xa0, 0x01), 0x01)\n        /* \"v1.sol\":10842:10866  market.hasClaimed[_user] */\n      dup6\n      and\n      dup5\n      mstore\n        /* \"v1.sol\":10842:10859  market.hasClaimed */\n      0x0a\n      add\n        /* \"v1.sol\":10842:10866  market.hasClaimed[_user] */\n      swap1\n      swap2\n      mstore\n      swap1\n      keccak256\n      sload\n      0xff\n      and\n        /* \"v1.sol\":10680:10873  function getUserClaimedStatus(uint256 _marketId, address _user) external view returns (bool) {... */\n      swap3\n      swap2\n      pop\n      pop\n      jump\n        /* \"v1.sol\":6252:8187  function distributeWinningsBatch(uint256 _marketId, uint256 batchSize) external nonReentrant {... */\n    tag_7:\n      tag_67\n      tag_68\n      calldatasize\n      0x04\n      tag_69\n      jump\t// in\n    tag_68:\n      tag_70\n      jump\t// in\n    tag_67:\n      stop\n        /* \"@openzeppelin/contracts/access/AccessControl.sol\":3786:3906  function getRoleAdmin(bytes32 role) public view virtual returns (bytes32) {... */\n    tag_8:\n      tag_71\n      tag_72\n      calldatasize\n      0x04\n      tag_59\n      jump\t// in\n    tag_72:\n        /* \"@openzeppelin/contracts/access/AccessControl.sol\":3851:3858  bytes32 */\n      0x00\n        /* \"@openzeppelin/contracts/access/AccessControl.sol\":3877:3889  _roles[role] */\n      swap1\n      dup2\n      mstore\n        /* \"@openzeppelin/contracts/access/AccessControl.sol\":3877:3883  _roles */\n      0x02\n        /* \"@openzeppelin/contracts/access/AccessControl.sol\":3877:3889  _roles[role] */\n      0x20\n      mstore\n      0x40\n      swap1\n      keccak256\n        /* \"@openzeppelin/contracts/access/AccessControl.sol\":3877:3899  _roles[role].adminRole */\n      0x01\n      add\n      sload\n      swap1\n        /* \"@openzeppelin/contracts/access/AccessControl.sol\":3786:3906  function getRoleAdmin(bytes32 role) public view virtual returns (bytes32) {... */\n      jump\n    tag_71:\n      mload(0x40)\n        /* \"#utility.yul\":2400:2425   */\n      swap1\n      dup2\n      mstore\n        /* \"#utility.yul\":2388:2390   */\n      0x20\n        /* \"#utility.yul\":2373:2391   */\n      add\n        /* \"@openzeppelin/contracts/access/AccessControl.sol\":3786:3906  function getRoleAdmin(bytes32 role) public view virtual returns (bytes32) {... */\n      tag_49\n        /* \"#utility.yul\":2254:2431   */\n      jump\n        /* \"v1.sol\":10978:11082  function getBettingToken() external view returns (address) {... */\n    tag_9:\n        /* \"v1.sol\":11062:11074  bettingToken */\n      and(sub(shl(0xa0, 0x01), 0x01), sload(0x03))\n        /* \"v1.sol\":10978:11082  function getBettingToken() external view returns (address) {... */\n      jump(tag_57)\n        /* \"@openzeppelin/contracts/access/AccessControl.sol\":4202:4338  function grantRole(bytes32 role, address account) public virtual onlyRole(getRoleAdmin(role)) {... */\n    tag_10:\n      tag_67\n      tag_81\n      calldatasize\n      0x04\n      tag_53\n      jump\t// in\n    tag_81:\n      tag_83\n      jump\t// in\n        /* \"v1.sol\":9531:9644  function getAllParticipantsCount() external view returns (uint256) {... */\n    tag_11:\n        /* \"v1.sol\":9615:9630  allParticipants */\n      0x09\n        /* \"v1.sol\":9615:9637  allParticipants.length */\n      sload\n        /* \"v1.sol\":9531:9644  function getAllParticipantsCount() external view returns (uint256) {... */\n      jump(tag_71)\n        /* \"v1.sol\":2991:3242  function grantQuestionResolveRole(address _account) external onlyOwner {... */\n    tag_12:\n      tag_67\n      tag_89\n      calldatasize\n      0x04\n      tag_90\n      jump\t// in\n    tag_89:\n      tag_91\n      jump\t// in\n        /* \"@openzeppelin/contracts/access/AccessControl.sol\":5304:5549  function renounceRole(bytes32 role, address callerConfirmation) public virtual {... */\n    tag_13:\n      tag_67\n      tag_93\n      calldatasize\n      0x04\n      tag_53\n      jump\t// in\n    tag_93:\n      tag_94\n      jump\t// in\n        /* \"v1.sol\":4204:5555  function buyShares(uint256 _marketId, bool _isOptionA, uint256 _amount) external nonReentrant {... */\n    tag_14:\n      tag_67\n      tag_96\n      calldatasize\n      0x04\n      tag_97\n      jump\t// in\n    tag_96:\n      tag_98\n      jump\t// in\n        /* \"v1.sol\":9650:10364  function getMarketInfo(uint256 _marketId)... */\n    tag_15:\n      tag_99\n      tag_100\n      calldatasize\n      0x04\n      tag_59\n      jump\t// in\n    tag_100:\n      tag_101\n      jump\t// in\n    tag_99:\n      mload(0x40)\n      tag_49\n      swap9\n      swap8\n      swap7\n      swap6\n      swap5\n      swap4\n      swap3\n      swap2\n      swap1\n      tag_103\n      jump\t// in\n        /* \"v1.sol\":1414:1440  IERC20 public bettingToken */\n    tag_16:\n      sload(0x03)\n      tag_57\n      swap1\n      sub(shl(0xa0, 0x01), 0x01)\n      and\n      dup2\n      jump\n        /* \"v1.sol\":9402:9525  function getVoteHistoryCount(address user) external view returns (uint256) {... */\n    tag_17:\n      tag_71\n      tag_109\n      calldatasize\n      0x04\n      tag_90\n      jump\t// in\n    tag_109:\n      sub(shl(0xa0, 0x01), 0x01)\n        /* \"v1.sol\":9494:9511  voteHistory[user] */\n      and\n        /* \"v1.sol\":9468:9475  uint256 */\n      0x00\n        /* \"v1.sol\":9494:9511  voteHistory[user] */\n      swap1\n      dup2\n      mstore\n        /* \"v1.sol\":9494:9505  voteHistory */\n      0x08\n        /* \"v1.sol\":9494:9511  voteHistory[user] */\n      0x20\n      mstore\n      0x40\n      swap1\n      keccak256\n        /* \"v1.sol\":9494:9518  voteHistory[user].length */\n      sload\n      swap1\n        /* \"v1.sol\":9402:9525  function getVoteHistoryCount(address user) external view returns (uint256) {... */\n      jump\n        /* \"v1.sol\":11088:12493  function getMarketInfoBatch(uint256[] calldata _marketIds)... */\n    tag_18:\n      tag_112\n      tag_113\n      calldatasize\n      0x04\n      tag_114\n      jump\t// in\n    tag_113:\n      tag_115\n      jump\t// in\n    tag_112:\n      mload(0x40)\n      tag_49\n      swap9\n      swap8\n      swap7\n      swap6\n      swap5\n      swap4\n      swap3\n      swap2\n      swap1\n      tag_117\n      jump\t// in\n        /* \"v1.sol\":2734:2985  function grantQuestionCreatorRole(address _account) external onlyOwner {... */\n    tag_19:\n      tag_67\n      tag_119\n      calldatasize\n      0x04\n      tag_90\n      jump\t// in\n    tag_119:\n      tag_120\n      jump\t// in\n        /* \"@openzeppelin/contracts/access/Ownable.sol\":2293:2394  function renounceOwnership() public virtual onlyOwner {... */\n    tag_20:\n      tag_67\n      tag_122\n      jump\t// in\n        /* \"v1.sol\":8193:8896  function getLeaderboard(uint256 start, uint256 limit) external view returns (LeaderboardEntry[] memory) {... */\n    tag_21:\n      tag_123\n      tag_124\n      calldatasize\n      0x04\n      tag_69\n      jump\t// in\n    tag_124:\n      tag_125\n      jump\t// in\n    tag_123:\n      mload(0x40)\n      tag_49\n      swap2\n      swap1\n      tag_127\n      jump\t// in\n        /* \"v1.sol\":522:604  bytes32 public constant QUESTION_RESOLVE_ROLE = keccak256(\"QUESTION_RESOLVE_ROLE\") */\n    tag_22:\n      tag_71\n      mload(0x00)\n      codecopy(0x00, data_dbe7ce371369c08dbc42c9c8a71c2316d4700de8ace8bc367af35ac832676709, 0x20)\n      mload(0x00)\n      swap1\n      0x00\n      mstore\n      dup2\n      jump\n        /* \"v1.sol\":3248:4198  function createMarket(string memory _question, string memory _optionA, string memory _optionB, uint256 _duration)... */\n    tag_23:\n      tag_71\n      tag_132\n      calldatasize\n      0x04\n      tag_133\n      jump\t// in\n    tag_132:\n      tag_134\n      jump\t// in\n        /* \"v1.sol\":434:516  bytes32 public constant QUESTION_CREATOR_ROLE = keccak256(\"QUESTION_CREATOR_ROLE\") */\n    tag_24:\n      tag_71\n        /* \"v1.sol\":482:516  keccak256(\"QUESTION_CREATOR_ROLE\") */\n      0xef485be696bbc0c91ad541bbd553ffb5bd0e18dac30ba76e992dda23cb807a8a\n        /* \"v1.sol\":434:516  bytes32 public constant QUESTION_CREATOR_ROLE = keccak256(\"QUESTION_CREATOR_ROLE\") */\n      dup2\n      jump\n        /* \"v1.sol\":1586:1634  mapping(address => uint256) public totalWinnings */\n    tag_25:\n      tag_71\n      tag_140\n      calldatasize\n      0x04\n      tag_90\n      jump\t// in\n    tag_140:\n      mstore(0x20, 0x07)\n      0x00\n      swap1\n      dup2\n      mstore\n      0x40\n      swap1\n      keccak256\n      sload\n      dup2\n      jump\n        /* \"@openzeppelin/contracts/access/Ownable.sol\":1638:1723  function owner() public view virtual returns (address) {... */\n    tag_26:\n        /* \"@openzeppelin/contracts/access/Ownable.sol\":1684:1691  address */\n      0x00\n        /* \"@openzeppelin/contracts/access/Ownable.sol\":1710:1716  _owner */\n      sload\n      sub(shl(0xa0, 0x01), 0x01)\n      and\n        /* \"@openzeppelin/contracts/access/Ownable.sol\":1638:1723  function owner() public view virtual returns (address) {... */\n      jump(tag_57)\n        /* \"v1.sol\":8902:9396  function getVoteHistory(address user, uint256 start, uint256 limit) external view returns (Vote[] memory) {... */\n    tag_27:\n      tag_146\n      tag_147\n      calldatasize\n      0x04\n      tag_148\n      jump\t// in\n    tag_147:\n      tag_149\n      jump\t// in\n    tag_146:\n      mload(0x40)\n      tag_49\n      swap2\n      swap1\n      tag_151\n      jump\t// in\n        /* \"@openzeppelin/contracts/access/AccessControl.sol\":2830:2966  function hasRole(bytes32 role, address account) public view virtual returns (bool) {... */\n    tag_28:\n      tag_45\n      tag_153\n      calldatasize\n      0x04\n      tag_53\n      jump\t// in\n    tag_153:\n      tag_154\n      jump\t// in\n        /* \"@openzeppelin/contracts/access/AccessControl.sol\":2196:2245  bytes32 public constant DEFAULT_ADMIN_ROLE = 0x00 */\n    tag_29:\n      tag_71\n        /* \"@openzeppelin/contracts/access/AccessControl.sol\":2241:2245  0x00 */\n      0x00\n        /* \"@openzeppelin/contracts/access/AccessControl.sol\":2196:2245  bytes32 public constant DEFAULT_ADMIN_ROLE = 0x00 */\n      dup2\n      jump\n        /* \"v1.sol\":1478:1519  mapping(uint256 => Market) public markets */\n    tag_30:\n      tag_159\n      tag_160\n      calldatasize\n      0x04\n      tag_59\n      jump\t// in\n    tag_160:\n      tag_161\n      jump\t// in\n    tag_159:\n      mload(0x40)\n      tag_49\n      swap10\n      swap9\n      swap8\n      swap7\n      swap6\n      swap5\n      swap4\n      swap3\n      swap2\n      swap1\n      tag_163\n      jump\t// in\n        /* \"v1.sol\":1525:1580  mapping(address => uint256) public totalSharesPurchased */\n    tag_31:\n      tag_71\n      tag_165\n      calldatasize\n      0x04\n      tag_90\n      jump\t// in\n    tag_165:\n      mstore(0x20, 0x06)\n      0x00\n      swap1\n      dup2\n      mstore\n      0x40\n      swap1\n      keccak256\n      sload\n      dup2\n      jump\n        /* \"@openzeppelin/contracts/access/AccessControl.sol\":4618:4756  function revokeRole(bytes32 role, address account) public virtual onlyRole(getRoleAdmin(role)) {... */\n    tag_32:\n      tag_67\n      tag_169\n      calldatasize\n      0x04\n      tag_53\n      jump\t// in\n    tag_169:\n      tag_170\n      jump\t// in\n        /* \"v1.sol\":5561:6246  function resolveMarket(uint256 _marketId, MarketOutcome _outcome) external {... */\n    tag_33:\n      tag_67\n      tag_172\n      calldatasize\n      0x04\n      tag_173\n      jump\t// in\n    tag_172:\n      tag_174\n      jump\t// in\n        /* \"v1.sol\":1446:1472  uint256 public marketCount */\n    tag_34:\n      tag_71\n      sload(0x04)\n      dup2\n      jump\n        /* \"@openzeppelin/contracts/access/Ownable.sol\":2543:2758  function transferOwnership(address newOwner) public virtual onlyOwner {... */\n    tag_35:\n      tag_67\n      tag_179\n      calldatasize\n      0x04\n      tag_90\n      jump\t// in\n    tag_179:\n      tag_180\n      jump\t// in\n        /* \"v1.sol\":1679:1724  mapping(address => Vote[]) public voteHistory */\n    tag_36:\n      tag_181\n      tag_182\n      calldatasize\n      0x04\n      tag_183\n      jump\t// in\n    tag_182:\n      tag_184\n      jump\t// in\n    tag_181:\n      0x40\n      dup1\n      mload\n        /* \"#utility.yul\":15552:15577   */\n      swap5\n      dup6\n      mstore\n        /* \"#utility.yul\":15620:15634   */\n      swap3\n      iszero\n        /* \"#utility.yul\":15613:15635   */\n      iszero\n        /* \"#utility.yul\":15608:15610   */\n      0x20\n        /* \"#utility.yul\":15593:15611   */\n      dup6\n      add\n        /* \"#utility.yul\":15586:15636   */\n      mstore\n        /* \"#utility.yul\":15652:15670   */\n      swap2\n      dup4\n      add\n        /* \"#utility.yul\":15645:15679   */\n      mstore\n        /* \"#utility.yul\":15710:15712   */\n      0x60\n        /* \"#utility.yul\":15695:15713   */\n      dup3\n      add\n        /* \"#utility.yul\":15688:15722   */\n      mstore\n        /* \"#utility.yul\":15539:15542   */\n      0x80\n        /* \"#utility.yul\":15524:15543   */\n      add\n        /* \"v1.sol\":1679:1724  mapping(address => Vote[]) public voteHistory */\n      tag_49\n        /* \"#utility.yul\":15327:15728   */\n      jump\n        /* \"v1.sol\":10879:10972  function getMarketCount() external view returns (uint256) {... */\n    tag_37:\n        /* \"v1.sol\":10954:10965  marketCount */\n      sload(0x04)\n        /* \"v1.sol\":10879:10972  function getMarketCount() external view returns (uint256) {... */\n      jump(tag_71)\n        /* \"@openzeppelin/contracts/access/AccessControl.sol\":2541:2743  function supportsInterface(bytes4 interfaceId) public view virtual override returns (bool) {... */\n    tag_48:\n        /* \"@openzeppelin/contracts/access/AccessControl.sol\":2626:2630  bool */\n      0x00\n      not(sub(shl(0xe0, 0x01), 0x01))\n        /* \"@openzeppelin/contracts/access/AccessControl.sol\":2649:2696  interfaceId == type(IAccessControl).interfaceId */\n      dup3\n      and\n      shl(0xe0, 0x7965db0b)\n      eq\n      dup1\n        /* \"@openzeppelin/contracts/access/AccessControl.sol\":2649:2736  interfaceId == type(IAccessControl).interfaceId || super.supportsInterface(interfaceId) */\n      tag_192\n      jumpi\n      pop\n      shl(0xe0, 0x01ffc9a7)\n      not(sub(shl(0xe0, 0x01), 0x01))\n        /* \"@openzeppelin/contracts/utils/introspection/ERC165.sol\":829:869  interfaceId == type(IERC165).interfaceId */\n      dup4\n      and\n      eq\n        /* \"@openzeppelin/contracts/access/AccessControl.sol\":2700:2736  super.supportsInterface(interfaceId) */\n    tag_192:\n        /* \"@openzeppelin/contracts/access/AccessControl.sol\":2642:2736  return interfaceId == type(IAccessControl).interfaceId || super.supportsInterface(interfaceId) */\n      swap3\n        /* \"@openzeppelin/contracts/access/AccessControl.sol\":2541:2743  function supportsInterface(bytes4 interfaceId) public view virtual override returns (bool) {... */\n      swap2\n      pop\n      pop\n      jump\t// out\n        /* \"v1.sol\":1730:1762  address[] public allParticipants */\n    tag_60:\n      0x09\n      dup2\n      dup2\n      sload\n      dup2\n      lt\n      tag_195\n      jumpi\n      0x00\n      dup1\n      revert\n    tag_195:\n      0x00\n      swap2\n      dup3\n      mstore\n      0x20\n      swap1\n      swap2\n      keccak256\n      add\n      sload\n      sub(shl(0xa0, 0x01), 0x01)\n      and\n      swap1\n      pop\n      dup2\n      jump\t// out\n        /* \"v1.sol\":6252:8187  function distributeWinningsBatch(uint256 _marketId, uint256 batchSize) external nonReentrant {... */\n    tag_70:\n        /* \"@openzeppelin/contracts/utils/ReentrancyGuard.sol\":2500:2521  _nonReentrantBefore() */\n      tag_199\n        /* \"@openzeppelin/contracts/utils/ReentrancyGuard.sol\":2500:2519  _nonReentrantBefore */\n      tag_200\n        /* \"@openzeppelin/contracts/utils/ReentrancyGuard.sol\":2500:2521  _nonReentrantBefore() */\n      jump\t// in\n    tag_199:\n        /* \"v1.sol\":6355:6376  Market storage market */\n      0x00\n        /* \"v1.sol\":6379:6397  markets[_marketId] */\n      dup3\n      dup2\n      mstore\n        /* \"v1.sol\":6379:6386  markets */\n      0x05\n        /* \"v1.sol\":6379:6397  markets[_marketId] */\n      0x20\n      mstore\n      0x40\n      dup2\n      keccak256\n        /* \"@openzeppelin/contracts/access/Ownable.sol\":1710:1716  _owner */\n      swap1\n      sload\n      sub(shl(0xa0, 0x01), 0x01)\n      and\n        /* \"v1.sol\":6415:6425  msg.sender */\n      caller\n        /* \"v1.sol\":6415:6436  msg.sender == owner() */\n      eq\n      dup1\n        /* \"v1.sol\":6415:6482  msg.sender == owner() || hasRole(QUESTION_RESOLVE_ROLE, msg.sender) */\n      tag_204\n      jumpi\n      pop\n        /* \"v1.sol\":6440:6482  hasRole(QUESTION_RESOLVE_ROLE, msg.sender) */\n      tag_204\n      mload(0x00)\n      codecopy(0x00, data_dbe7ce371369c08dbc42c9c8a71c2316d4700de8ace8bc367af35ac832676709, 0x20)\n      mload(0x00)\n      swap1\n      0x00\n      mstore\n        /* \"v1.sol\":6471:6481  msg.sender */\n      caller\n        /* \"v1.sol\":6440:6447  hasRole */\n      tag_154\n        /* \"v1.sol\":6440:6482  hasRole(QUESTION_RESOLVE_ROLE, msg.sender) */\n      jump\t// in\n    tag_204:\n        /* \"v1.sol\":6407:6520  require(msg.sender == owner() || hasRole(QUESTION_RESOLVE_ROLE, msg.sender), \"Not authorized to resolve markets\") */\n      tag_205\n      jumpi\n      mload(0x40)\n      shl(0xe5, 0x461bcd)\n      dup2\n      mstore\n      0x04\n      add\n      tag_206\n      swap1\n      tag_207\n      jump\t// in\n    tag_206:\n      mload(0x40)\n      dup1\n      swap2\n      sub\n      swap1\n      revert\n    tag_205:\n        /* \"v1.sol\":6538:6553  market.resolved */\n      0x07\n      dup2\n      add\n      sload\n      0xff\n      and\n        /* \"v1.sol\":6530:6581  require(market.resolved, \"Market not resolved yet\") */\n      tag_208\n      jumpi\n      mload(0x40)\n      shl(0xe5, 0x461bcd)\n      dup2\n      mstore\n        /* \"#utility.yul\":16337:16339   */\n      0x20\n        /* \"v1.sol\":6530:6581  require(market.resolved, \"Market not resolved yet\") */\n      0x04\n      dup3\n      add\n        /* \"#utility.yul\":16319:16340   */\n      mstore\n        /* \"#utility.yul\":16376:16378   */\n      0x17\n        /* \"#utility.yul\":16356:16374   */\n      0x24\n      dup3\n      add\n        /* \"#utility.yul\":16349:16379   */\n      mstore\n        /* \"#utility.yul\":16415:16440   */\n      0x4d61726b6574206e6f74207265736f6c76656420796574000000000000000000\n        /* \"#utility.yul\":16395:16413   */\n      0x44\n      dup3\n      add\n        /* \"#utility.yul\":16388:16441   */\n      mstore\n        /* \"#utility.yul\":16458:16476   */\n      0x64\n      add\n        /* \"v1.sol\":6530:6581  require(market.resolved, \"Market not resolved yet\") */\n      tag_206\n        /* \"#utility.yul\":16135:16482   */\n      jump\n        /* \"v1.sol\":6530:6581  require(market.resolved, \"Market not resolved yet\") */\n    tag_208:\n        /* \"v1.sol\":6620:6639  market.participants */\n      0x0b\n      dup2\n      add\n        /* \"v1.sol\":6620:6646  market.participants.length */\n      sload\n        /* \"v1.sol\":6676:6694  market.payoutIndex */\n      0x0c\n      dup3\n      add\n      sload\n        /* \"v1.sol\":6592:6617  uint256 totalParticipants */\n      0x00\n      swap1\n        /* \"v1.sol\":6676:6706  market.payoutIndex + batchSize */\n      tag_211\n      swap1\n        /* \"v1.sol\":6697:6706  batchSize */\n      dup6\n      swap1\n        /* \"v1.sol\":6676:6706  market.payoutIndex + batchSize */\n      tag_212\n      jump\t// in\n    tag_211:\n        /* \"v1.sol\":6656:6706  uint256 payoutEnd = market.payoutIndex + batchSize */\n      swap1\n      pop\n        /* \"v1.sol\":6732:6749  totalParticipants */\n      dup2\n        /* \"v1.sol\":6720:6729  payoutEnd */\n      dup2\n        /* \"v1.sol\":6720:6749  payoutEnd > totalParticipants */\n      gt\n        /* \"v1.sol\":6716:6805  if (payoutEnd > totalParticipants) {... */\n      iszero\n      tag_213\n      jumpi\n      pop\n        /* \"v1.sol\":6777:6794  totalParticipants */\n      dup1\n        /* \"v1.sol\":6716:6805  if (payoutEnd > totalParticipants) {... */\n    tag_213:\n        /* \"v1.sol\":6815:6836  uint256 winningShares */\n      0x00\n        /* \"v1.sol\":6857:6879  MarketOutcome.OPTION_A */\n      0x01\n        /* \"v1.sol\":6839:6853  market.outcome */\n      0x02\n      dup1\n      dup7\n      add\n      sload\n      0xff\n      and\n      swap1\n        /* \"v1.sol\":6839:6879  market.outcome == MarketOutcome.OPTION_A */\n      dup2\n      gt\n      iszero\n      tag_218\n      jumpi\n      tag_218\n      tag_216\n      jump\t// in\n    tag_218:\n      eq\n        /* \"v1.sol\":6839:6935  market.outcome == MarketOutcome.OPTION_A ? market.totalOptionAShares : market.totalOptionBShares */\n      tag_219\n      jumpi\n        /* \"v1.sol\":6910:6916  market */\n      dup4\n        /* \"v1.sol\":6910:6935  market.totalOptionBShares */\n      0x06\n      add\n      sload\n        /* \"v1.sol\":6839:6935  market.outcome == MarketOutcome.OPTION_A ? market.totalOptionAShares : market.totalOptionBShares */\n      jump(tag_220)\n    tag_219:\n        /* \"v1.sol\":6882:6888  market */\n      dup4\n        /* \"v1.sol\":6882:6907  market.totalOptionAShares */\n      0x05\n      add\n      sload\n        /* \"v1.sol\":6839:6935  market.outcome == MarketOutcome.OPTION_A ? market.totalOptionAShares : market.totalOptionBShares */\n    tag_220:\n        /* \"v1.sol\":6815:6935  uint256 winningShares = market.outcome == MarketOutcome.OPTION_A ? market.totalOptionAShares : market.totalOptionBShares */\n      swap1\n      pop\n        /* \"v1.sol\":6945:6965  uint256 losingShares */\n      0x00\n        /* \"v1.sol\":6986:7008  MarketOutcome.OPTION_A */\n      0x01\n        /* \"v1.sol\":6968:6982  market.outcome */\n      0x02\n      dup1\n      dup8\n      add\n      sload\n      0xff\n      and\n      swap1\n        /* \"v1.sol\":6968:7008  market.outcome == MarketOutcome.OPTION_A */\n      dup2\n      gt\n      iszero\n      tag_224\n      jumpi\n      tag_224\n      tag_216\n      jump\t// in\n    tag_224:\n      eq\n        /* \"v1.sol\":6968:7064  market.outcome == MarketOutcome.OPTION_A ? market.totalOptionBShares : market.totalOptionAShares */\n      tag_225\n      jumpi\n        /* \"v1.sol\":7039:7045  market */\n      dup5\n        /* \"v1.sol\":7039:7064  market.totalOptionAShares */\n      0x05\n      add\n      sload\n        /* \"v1.sol\":6968:7064  market.outcome == MarketOutcome.OPTION_A ? market.totalOptionBShares : market.totalOptionAShares */\n      jump(tag_226)\n    tag_225:\n        /* \"v1.sol\":7011:7017  market */\n      dup5\n        /* \"v1.sol\":7011:7036  market.totalOptionBShares */\n      0x06\n      add\n      sload\n        /* \"v1.sol\":6968:7064  market.outcome == MarketOutcome.OPTION_A ? market.totalOptionBShares : market.totalOptionAShares */\n    tag_226:\n        /* \"v1.sol\":6945:7064  uint256 losingShares = market.outcome == MarketOutcome.OPTION_A ? market.totalOptionBShares : market.totalOptionAShares */\n      swap1\n      pop\n        /* \"v1.sol\":7098:7099  0 */\n      0x00\n        /* \"v1.sol\":7082:7095  winningShares */\n      dup3\n        /* \"v1.sol\":7082:7099  winningShares > 0 */\n      gt\n        /* \"v1.sol\":7074:7121  require(winningShares > 0, \"No winning shares\") */\n      tag_227\n      jumpi\n      mload(0x40)\n      shl(0xe5, 0x461bcd)\n      dup2\n      mstore\n        /* \"#utility.yul\":16951:16953   */\n      0x20\n        /* \"v1.sol\":7074:7121  require(winningShares > 0, \"No winning shares\") */\n      0x04\n      dup3\n      add\n        /* \"#utility.yul\":16933:16954   */\n      mstore\n        /* \"#utility.yul\":16990:16992   */\n      0x11\n        /* \"#utility.yul\":16970:16988   */\n      0x24\n      dup3\n      add\n        /* \"#utility.yul\":16963:16993   */\n      mstore\n      shl(0x78, 0x4e6f2077696e6e696e6720736861726573)\n        /* \"#utility.yul\":17009:17027   */\n      0x44\n      dup3\n      add\n        /* \"#utility.yul\":17002:17049   */\n      mstore\n        /* \"#utility.yul\":17066:17084   */\n      0x64\n      add\n        /* \"v1.sol\":7074:7121  require(winningShares > 0, \"No winning shares\") */\n      tag_206\n        /* \"#utility.yul\":16749:17090   */\n      jump\n        /* \"v1.sol\":7074:7121  require(winningShares > 0, \"No winning shares\") */\n    tag_227:\n        /* \"v1.sol\":7132:7151  uint256 rewardRatio */\n      0x00\n        /* \"v1.sol\":7178:7191  winningShares */\n      dup3\n        /* \"v1.sol\":7155:7174  losingShares * 1e18 */\n      tag_230\n        /* \"v1.sol\":7155:7167  losingShares */\n      dup4\n        /* \"v1.sol\":7170:7174  1e18 */\n      0x0de0b6b3a7640000\n        /* \"v1.sol\":7155:7174  losingShares * 1e18 */\n      tag_231\n      jump\t// in\n    tag_230:\n        /* \"v1.sol\":7154:7191  (losingShares * 1e18) / winningShares */\n      tag_232\n      swap2\n      swap1\n      tag_233\n      jump\t// in\n    tag_232:\n        /* \"v1.sol\":7219:7237  market.payoutIndex */\n      0x0c\n      dup8\n      add\n      sload\n        /* \"v1.sol\":7132:7191  uint256 rewardRatio = (losingShares * 1e18) / winningShares */\n      swap1\n      swap2\n      pop\n        /* \"v1.sol\":7202:8141  for (uint256 i = market.payoutIndex; i < payoutEnd; i++) {... */\n    tag_234:\n        /* \"v1.sol\":7243:7252  payoutEnd */\n      dup5\n        /* \"v1.sol\":7239:7240  i */\n      dup2\n        /* \"v1.sol\":7239:7252  i < payoutEnd */\n      lt\n        /* \"v1.sol\":7202:8141  for (uint256 i = market.payoutIndex; i < payoutEnd; i++) {... */\n      iszero\n      tag_235\n      jumpi\n        /* \"v1.sol\":7273:7285  address user */\n      0x00\n        /* \"v1.sol\":7288:7294  market */\n      dup8\n        /* \"v1.sol\":7288:7307  market.participants */\n      0x0b\n      add\n        /* \"v1.sol\":7308:7309  i */\n      dup3\n        /* \"v1.sol\":7288:7310  market.participants[i] */\n      dup2\n      sload\n      dup2\n      lt\n      tag_238\n      jumpi\n      tag_238\n      tag_239\n      jump\t// in\n    tag_238:\n      0x00\n      swap2\n      dup3\n      mstore\n      0x20\n      dup3\n      keccak256\n      add\n      sload\n      sub(shl(0xa0, 0x01), 0x01)\n      and\n      swap2\n      pop\n      0x01\n        /* \"v1.sol\":7345:7359  market.outcome */\n      0x02\n      dup1\n      dup12\n      add\n      sload\n      0xff\n      and\n      swap1\n        /* \"v1.sol\":7345:7385  market.outcome == MarketOutcome.OPTION_A */\n      dup2\n      gt\n      iszero\n      tag_244\n      jumpi\n      tag_244\n      tag_216\n      jump\t// in\n    tag_244:\n      eq\n        /* \"v1.sol\":7345:7489  market.outcome == MarketOutcome.OPTION_A... */\n      tag_245\n      jumpi\n      sub(shl(0xa0, 0x01), 0x01)\n        /* \"v1.sol\":7456:7489  market.optionBSharesBalance[user] */\n      dup3\n      and\n      0x00\n      swap1\n      dup2\n      mstore\n        /* \"v1.sol\":7456:7483  market.optionBSharesBalance */\n      0x09\n      dup11\n      add\n        /* \"v1.sol\":7456:7489  market.optionBSharesBalance[user] */\n      0x20\n      mstore\n      0x40\n      swap1\n      keccak256\n      sload\n        /* \"v1.sol\":7345:7489  market.outcome == MarketOutcome.OPTION_A... */\n      jump(tag_246)\n    tag_245:\n      sub(shl(0xa0, 0x01), 0x01)\n        /* \"v1.sol\":7404:7437  market.optionASharesBalance[user] */\n      dup3\n      and\n      0x00\n      swap1\n      dup2\n      mstore\n        /* \"v1.sol\":7404:7431  market.optionASharesBalance */\n      0x08\n      dup11\n      add\n        /* \"v1.sol\":7404:7437  market.optionASharesBalance[user] */\n      0x20\n      mstore\n      0x40\n      swap1\n      keccak256\n      sload\n        /* \"v1.sol\":7345:7489  market.outcome == MarketOutcome.OPTION_A... */\n    tag_246:\n        /* \"v1.sol\":7324:7489  uint256 userShares = market.outcome == MarketOutcome.OPTION_A... */\n      swap1\n      pop\n        /* \"v1.sol\":7521:7522  0 */\n      0x00\n        /* \"v1.sol\":7508:7518  userShares */\n      dup2\n        /* \"v1.sol\":7508:7522  userShares > 0 */\n      gt\n        /* \"v1.sol\":7508:7550  userShares > 0 && !market.hasClaimed[user] */\n      dup1\n      iszero\n      tag_247\n      jumpi\n      pop\n      sub(shl(0xa0, 0x01), 0x01)\n        /* \"v1.sol\":7527:7550  market.hasClaimed[user] */\n      dup3\n      and\n      0x00\n      swap1\n      dup2\n      mstore\n        /* \"v1.sol\":7527:7544  market.hasClaimed */\n      0x0a\n      dup11\n      add\n        /* \"v1.sol\":7527:7550  market.hasClaimed[user] */\n      0x20\n      mstore\n      0x40\n      swap1\n      keccak256\n      sload\n      0xff\n      and\n        /* \"v1.sol\":7526:7550  !market.hasClaimed[user] */\n      iszero\n        /* \"v1.sol\":7508:7550  userShares > 0 && !market.hasClaimed[user] */\n    tag_247:\n        /* \"v1.sol\":7504:8131  if (userShares > 0 && !market.hasClaimed[user]) {... */\n      iszero\n      tag_248\n      jumpi\n        /* \"v1.sol\":7570:7586  uint256 winnings */\n      0x00\n        /* \"v1.sol\":7631:7635  1e18 */\n      0x0de0b6b3a7640000\n        /* \"v1.sol\":7603:7627  userShares * rewardRatio */\n      tag_249\n        /* \"v1.sol\":7616:7627  rewardRatio */\n      dup7\n        /* \"v1.sol\":7603:7613  userShares */\n      dup5\n        /* \"v1.sol\":7603:7627  userShares * rewardRatio */\n      tag_231\n      jump\t// in\n    tag_249:\n        /* \"v1.sol\":7602:7635  (userShares * rewardRatio) / 1e18 */\n      tag_250\n      swap2\n      swap1\n      tag_233\n      jump\t// in\n    tag_250:\n        /* \"v1.sol\":7589:7635  userShares + (userShares * rewardRatio) / 1e18 */\n      tag_251\n      swap1\n        /* \"v1.sol\":7589:7599  userShares */\n      dup4\n        /* \"v1.sol\":7589:7635  userShares + (userShares * rewardRatio) / 1e18 */\n      tag_212\n      jump\t// in\n    tag_251:\n        /* \"v1.sol\":7570:7635  uint256 winnings = userShares + (userShares * rewardRatio) / 1e18 */\n      swap1\n      pop\n        /* \"v1.sol\":7675:7697  MarketOutcome.OPTION_A */\n      0x01\n        /* \"v1.sol\":7657:7671  market.outcome */\n      0x02\n      dup1\n      dup13\n      add\n      sload\n      0xff\n      and\n      swap1\n        /* \"v1.sol\":7657:7697  market.outcome == MarketOutcome.OPTION_A */\n      dup2\n      gt\n      iszero\n      tag_255\n      jumpi\n      tag_255\n      tag_216\n      jump\t// in\n    tag_255:\n      sub\n        /* \"v1.sol\":7653:7861  if (market.outcome == MarketOutcome.OPTION_A) {... */\n      tag_256\n      jumpi\n      sub(shl(0xa0, 0x01), 0x01)\n        /* \"v1.sol\":7721:7754  market.optionASharesBalance[user] */\n      dup4\n      and\n        /* \"v1.sol\":7757:7758  0 */\n      0x00\n        /* \"v1.sol\":7721:7754  market.optionASharesBalance[user] */\n      swap1\n      dup2\n      mstore\n        /* \"v1.sol\":7721:7748  market.optionASharesBalance */\n      0x08\n      dup12\n      add\n        /* \"v1.sol\":7721:7754  market.optionASharesBalance[user] */\n      0x20\n      mstore\n      0x40\n      dup2\n      keccak256\n        /* \"v1.sol\":7721:7758  market.optionASharesBalance[user] = 0 */\n      sstore\n        /* \"v1.sol\":7653:7861  if (market.outcome == MarketOutcome.OPTION_A) {... */\n      jump(tag_257)\n    tag_256:\n      sub(shl(0xa0, 0x01), 0x01)\n        /* \"v1.sol\":7805:7838  market.optionBSharesBalance[user] */\n      dup4\n      and\n        /* \"v1.sol\":7841:7842  0 */\n      0x00\n        /* \"v1.sol\":7805:7838  market.optionBSharesBalance[user] */\n      swap1\n      dup2\n      mstore\n        /* \"v1.sol\":7805:7832  market.optionBSharesBalance */\n      0x09\n      dup12\n      add\n        /* \"v1.sol\":7805:7838  market.optionBSharesBalance[user] */\n      0x20\n      mstore\n      0x40\n      dup2\n      keccak256\n        /* \"v1.sol\":7805:7842  market.optionBSharesBalance[user] = 0 */\n      sstore\n        /* \"v1.sol\":7653:7861  if (market.outcome == MarketOutcome.OPTION_A) {... */\n    tag_257:\n      sub(shl(0xa0, 0x01), 0x01)\n        /* \"v1.sol\":7878:7901  market.hasClaimed[user] */\n      dup4\n      and\n      0x00\n      swap1\n      dup2\n      mstore\n        /* \"v1.sol\":7878:7895  market.hasClaimed */\n      0x0a\n      dup12\n      add\n        /* \"v1.sol\":7878:7901  market.hasClaimed[user] */\n      0x20\n      swap1\n      dup2\n      mstore\n      0x40\n      dup1\n      dup4\n      keccak256\n        /* \"v1.sol\":7878:7908  market.hasClaimed[user] = true */\n      dup1\n      sload\n      not(0xff)\n      and\n        /* \"v1.sol\":7904:7908  true */\n      0x01\n        /* \"v1.sol\":7878:7908  market.hasClaimed[user] = true */\n      or\n      swap1\n      sstore\n        /* \"v1.sol\":7926:7939  totalWinnings */\n      0x07\n        /* \"v1.sol\":7926:7945  totalWinnings[user] */\n      swap1\n      swap2\n      mstore\n      dup2\n      keccak256\n        /* \"v1.sol\":7926:7957  totalWinnings[user] += winnings */\n      dup1\n      sload\n        /* \"v1.sol\":7949:7957  winnings */\n      dup4\n      swap3\n        /* \"v1.sol\":7878:7901  market.hasClaimed[user] */\n      swap1\n        /* \"v1.sol\":7926:7957  totalWinnings[user] += winnings */\n      tag_258\n      swap1\n        /* \"v1.sol\":7949:7957  winnings */\n      dup5\n      swap1\n        /* \"v1.sol\":7926:7957  totalWinnings[user] += winnings */\n      tag_212\n      jump\t// in\n    tag_258:\n      swap1\n      swap2\n      sstore\n      pop\n      pop\n        /* \"v1.sol\":8002:8014  bettingToken */\n      sload(0x03)\n        /* \"v1.sol\":8002:8039  bettingToken.transfer(user, winnings) */\n      mload(0x40)\n      shl(0xe0, 0xa9059cbb)\n      dup2\n      mstore\n      sub(shl(0xa0, 0x01), 0x01)\n        /* \"#utility.yul\":17814:17846   */\n      dup6\n      dup2\n      and\n        /* \"v1.sol\":8002:8039  bettingToken.transfer(user, winnings) */\n      0x04\n      dup4\n      add\n        /* \"#utility.yul\":17796:17847   */\n      mstore\n        /* \"#utility.yul\":17863:17881   */\n      0x24\n      dup3\n      add\n        /* \"#utility.yul\":17856:17890   */\n      dup5\n      swap1\n      mstore\n        /* \"v1.sol\":8002:8014  bettingToken */\n      swap1\n      swap2\n      and\n      swap1\n        /* \"v1.sol\":8002:8023  bettingToken.transfer */\n      0xa9059cbb\n      swap1\n        /* \"#utility.yul\":17769:17787   */\n      0x44\n      add\n        /* \"v1.sol\":8002:8039  bettingToken.transfer(user, winnings) */\n      0x20\n      mload(0x40)\n      dup1\n      dup4\n      sub\n      dup2\n      0x00\n      dup8\n      gas\n      call\n      iszero\n      dup1\n      iszero\n      tag_262\n      jumpi\n      returndatacopy(0x00, 0x00, returndatasize)\n      revert(0x00, returndatasize)\n    tag_262:\n      pop\n      pop\n      pop\n      pop\n      mload(0x40)\n      returndatasize\n      not(0x1f)\n      0x1f\n      dup3\n      add\n      and\n      dup3\n      add\n      dup1\n      0x40\n      mstore\n      pop\n      dup2\n      add\n      swap1\n      tag_263\n      swap2\n      swap1\n      tag_264\n      jump\t// in\n    tag_263:\n        /* \"v1.sol\":7994:8059  require(bettingToken.transfer(user, winnings), \"Transfer failed\") */\n      tag_265\n      jumpi\n      mload(0x40)\n      shl(0xe5, 0x461bcd)\n      dup2\n      mstore\n        /* \"#utility.yul\":18353:18355   */\n      0x20\n        /* \"v1.sol\":7994:8059  require(bettingToken.transfer(user, winnings), \"Transfer failed\") */\n      0x04\n      dup3\n      add\n        /* \"#utility.yul\":18335:18356   */\n      mstore\n        /* \"#utility.yul\":18392:18394   */\n      0x0f\n        /* \"#utility.yul\":18372:18390   */\n      0x24\n      dup3\n      add\n        /* \"#utility.yul\":18365:18395   */\n      mstore\n      shl(0x8a, 0x151c985b9cd9995c8819985a5b1959)\n        /* \"#utility.yul\":18411:18429   */\n      0x44\n      dup3\n      add\n        /* \"#utility.yul\":18404:18449   */\n      mstore\n        /* \"#utility.yul\":18466:18484   */\n      0x64\n      add\n        /* \"v1.sol\":7994:8059  require(bettingToken.transfer(user, winnings), \"Transfer failed\") */\n      tag_206\n        /* \"#utility.yul\":18151:18490   */\n      jump\n        /* \"v1.sol\":7994:8059  require(bettingToken.transfer(user, winnings), \"Transfer failed\") */\n    tag_265:\n        /* \"v1.sol\":8101:8105  user */\n      dup3\n      sub(shl(0xa0, 0x01), 0x01)\n        /* \"v1.sol\":8082:8116  Claimed(_marketId, user, winnings) */\n      and\n        /* \"v1.sol\":8090:8099  _marketId */\n      dup13\n        /* \"v1.sol\":8082:8116  Claimed(_marketId, user, winnings) */\n      0x4ec90e965519d92681267467f775ada5bd214aa92c0dc93d90a5e880ce9ed026\n        /* \"v1.sol\":8107:8115  winnings */\n      dup4\n        /* \"v1.sol\":8082:8116  Claimed(_marketId, user, winnings) */\n      mload(0x40)\n      tag_268\n      swap2\n        /* \"#utility.yul\":2400:2425   */\n      dup2\n      mstore\n        /* \"#utility.yul\":2388:2390   */\n      0x20\n        /* \"#utility.yul\":2373:2391   */\n      add\n      swap1\n        /* \"#utility.yul\":2254:2431   */\n      jump\n        /* \"v1.sol\":8082:8116  Claimed(_marketId, user, winnings) */\n    tag_268:\n      mload(0x40)\n      dup1\n      swap2\n      sub\n      swap1\n      log3\n        /* \"v1.sol\":7552:8131  {... */\n      pop\n        /* \"v1.sol\":7504:8131  if (userShares > 0 && !market.hasClaimed[user]) {... */\n    tag_248:\n      pop\n      pop\n        /* \"v1.sol\":7254:7257  i++ */\n      0x01\n      add\n        /* \"v1.sol\":7202:8141  for (uint256 i = market.payoutIndex; i < payoutEnd; i++) {... */\n      jump(tag_234)\n    tag_235:\n      pop\n      pop\n      pop\n      pop\n        /* \"v1.sol\":8150:8168  market.payoutIndex */\n      0x0c\n      swap1\n      swap3\n      add\n        /* \"v1.sol\":8150:8180  market.payoutIndex = payoutEnd */\n      swap2\n      swap1\n      swap2\n      sstore\n      pop\n        /* \"@openzeppelin/contracts/utils/ReentrancyGuard.sol\":2542:2562  _nonReentrantAfter() */\n      tag_269\n        /* \"@openzeppelin/contracts/utils/ReentrancyGuard.sol\":1857:1858  1 */\n      0x01\n        /* \"@openzeppelin/contracts/utils/ReentrancyGuard.sol\":3068:3089  _status = NOT_ENTERED */\n      dup1\n      sstore\n        /* \"@openzeppelin/contracts/utils/ReentrancyGuard.sol\":2888:3096  function _nonReentrantAfter() private {... */\n      jump\n        /* \"@openzeppelin/contracts/utils/ReentrancyGuard.sol\":2542:2562  _nonReentrantAfter() */\n    tag_269:\n        /* \"v1.sol\":6252:8187  function distributeWinningsBatch(uint256 _marketId, uint256 batchSize) external nonReentrant {... */\n      pop\n      pop\n      jump\t// out\n        /* \"@openzeppelin/contracts/access/AccessControl.sol\":4202:4338  function grantRole(bytes32 role, address account) public virtual onlyRole(getRoleAdmin(role)) {... */\n    tag_83:\n        /* \"@openzeppelin/contracts/access/AccessControl.sol\":3851:3858  bytes32 */\n      0x00\n        /* \"@openzeppelin/contracts/access/AccessControl.sol\":3877:3889  _roles[role] */\n      dup3\n      dup2\n      mstore\n        /* \"@openzeppelin/contracts/access/AccessControl.sol\":3877:3883  _roles */\n      0x02\n        /* \"@openzeppelin/contracts/access/AccessControl.sol\":3877:3889  _roles[role] */\n      0x20\n      mstore\n      0x40\n      swap1\n      keccak256\n        /* \"@openzeppelin/contracts/access/AccessControl.sol\":3877:3899  _roles[role].adminRole */\n      0x01\n      add\n      sload\n        /* \"@openzeppelin/contracts/access/AccessControl.sol\":2473:2489  _checkRole(role) */\n      tag_275\n        /* \"@openzeppelin/contracts/access/AccessControl.sol\":2484:2488  role */\n      dup2\n        /* \"@openzeppelin/contracts/access/AccessControl.sol\":2473:2483  _checkRole */\n      tag_276\n        /* \"@openzeppelin/contracts/access/AccessControl.sol\":2473:2489  _checkRole(role) */\n      jump\t// in\n    tag_275:\n        /* \"@openzeppelin/contracts/access/AccessControl.sol\":4306:4331  _grantRole(role, account) */\n      tag_278\n        /* \"@openzeppelin/contracts/access/AccessControl.sol\":4317:4321  role */\n      dup4\n        /* \"@openzeppelin/contracts/access/AccessControl.sol\":4323:4330  account */\n      dup4\n        /* \"@openzeppelin/contracts/access/AccessControl.sol\":4306:4316  _grantRole */\n      tag_279\n        /* \"@openzeppelin/contracts/access/AccessControl.sol\":4306:4331  _grantRole(role, account) */\n      jump\t// in\n    tag_278:\n      pop\n        /* \"@openzeppelin/contracts/access/AccessControl.sol\":4202:4338  function grantRole(bytes32 role, address account) public virtual onlyRole(getRoleAdmin(role)) {... */\n      pop\n      pop\n      pop\n      jump\t// out\n        /* \"v1.sol\":2991:3242  function grantQuestionResolveRole(address _account) external onlyOwner {... */\n    tag_91:\n        /* \"@openzeppelin/contracts/access/Ownable.sol\":1531:1544  _checkOwner() */\n      tag_282\n        /* \"@openzeppelin/contracts/access/Ownable.sol\":1531:1542  _checkOwner */\n      tag_283\n        /* \"@openzeppelin/contracts/access/Ownable.sol\":1531:1544  _checkOwner() */\n      jump\t// in\n    tag_282:\n        /* \"@openzeppelin/contracts/access/Ownable.sol\":1684:1691  address */\n      0x00\n        /* \"@openzeppelin/contracts/access/Ownable.sol\":1710:1716  _owner */\n      sload\n      sub(shl(0xa0, 0x01), 0x01)\n      and\n        /* \"v1.sol\":3080:3090  msg.sender */\n      caller\n        /* \"v1.sol\":3080:3101  msg.sender == owner() */\n      eq\n        /* \"v1.sol\":3072:3132  require(msg.sender == owner(), \"Only owner can grant roles\") */\n      tag_286\n      jumpi\n      mload(0x40)\n      shl(0xe5, 0x461bcd)\n      dup2\n      mstore\n        /* \"#utility.yul\":18697:18699   */\n      0x20\n        /* \"v1.sol\":3072:3132  require(msg.sender == owner(), \"Only owner can grant roles\") */\n      0x04\n      dup3\n      add\n        /* \"#utility.yul\":18679:18700   */\n      mstore\n        /* \"#utility.yul\":18736:18738   */\n      0x1a\n        /* \"#utility.yul\":18716:18734   */\n      0x24\n      dup3\n      add\n        /* \"#utility.yul\":18709:18739   */\n      mstore\n        /* \"#utility.yul\":18775:18803   */\n      0x4f6e6c79206f776e65722063616e206772616e7420726f6c6573000000000000\n        /* \"#utility.yul\":18755:18773   */\n      0x44\n      dup3\n      add\n        /* \"#utility.yul\":18748:18804   */\n      mstore\n        /* \"#utility.yul\":18821:18839   */\n      0x64\n      add\n        /* \"v1.sol\":3072:3132  require(msg.sender == owner(), \"Only owner can grant roles\") */\n      tag_206\n        /* \"#utility.yul\":18495:18845   */\n      jump\n        /* \"v1.sol\":3072:3132  require(msg.sender == owner(), \"Only owner can grant roles\") */\n    tag_286:\n        /* \"v1.sol\":3142:3184  grantRole(QUESTION_RESOLVE_ROLE, _account) */\n      tag_289\n      mload(0x00)\n      codecopy(0x00, data_dbe7ce371369c08dbc42c9c8a71c2316d4700de8ace8bc367af35ac832676709, 0x20)\n      mload(0x00)\n      swap1\n      0x00\n      mstore\n        /* \"v1.sol\":3175:3183  _account */\n      dup3\n        /* \"v1.sol\":3142:3151  grantRole */\n      tag_83\n        /* \"v1.sol\":3142:3184  grantRole(QUESTION_RESOLVE_ROLE, _account) */\n      jump\t// in\n    tag_289:\n        /* \"v1.sol\":3199:3235  QuestionResolveRoleGranted(_account) */\n      mload(0x40)\n      sub(shl(0xa0, 0x01), 0x01)\n      dup3\n      and\n      swap1\n      0xddf51a9b6b1d679c1a24a62654089f8925a15663964afdca304816c3d608b9f3\n      swap1\n      0x00\n      swap1\n      log2\n        /* \"v1.sol\":2991:3242  function grantQuestionResolveRole(address _account) external onlyOwner {... */\n      pop\n      jump\t// out\n        /* \"@openzeppelin/contracts/access/AccessControl.sol\":5304:5549  function renounceRole(bytes32 role, address callerConfirmation) public virtual {... */\n    tag_94:\n      sub(shl(0xa0, 0x01), 0x01)\n        /* \"@openzeppelin/contracts/access/AccessControl.sol\":5397:5431  callerConfirmation != _msgSender() */\n      dup2\n      and\n        /* \"@openzeppelin/contracts/utils/Context.sol\":735:745  msg.sender */\n      caller\n        /* \"@openzeppelin/contracts/access/AccessControl.sol\":5397:5431  callerConfirmation != _msgSender() */\n      eq\n        /* \"@openzeppelin/contracts/access/AccessControl.sol\":5393:5495  if (callerConfirmation != _msgSender()) {... */\n      tag_293\n      jumpi\n        /* \"@openzeppelin/contracts/access/AccessControl.sol\":5454:5484  AccessControlBadConfirmation() */\n      mload(0x40)\n      shl(0xe1, 0x334bd919)\n      dup2\n      mstore\n      0x04\n      add\n      mload(0x40)\n      dup1\n      swap2\n      sub\n      swap1\n      revert\n        /* \"@openzeppelin/contracts/access/AccessControl.sol\":5393:5495  if (callerConfirmation != _msgSender()) {... */\n    tag_293:\n        /* \"@openzeppelin/contracts/access/AccessControl.sol\":5505:5542  _revokeRole(role, callerConfirmation) */\n      tag_294\n        /* \"@openzeppelin/contracts/access/AccessControl.sol\":5517:5521  role */\n      dup3\n        /* \"@openzeppelin/contracts/access/AccessControl.sol\":5523:5541  callerConfirmation */\n      dup3\n        /* \"@openzeppelin/contracts/access/AccessControl.sol\":5505:5516  _revokeRole */\n      tag_295\n        /* \"@openzeppelin/contracts/access/AccessControl.sol\":5505:5542  _revokeRole(role, callerConfirmation) */\n      jump\t// in\n    tag_294:\n      pop\n        /* \"@openzeppelin/contracts/access/AccessControl.sol\":5304:5549  function renounceRole(bytes32 role, address callerConfirmation) public virtual {... */\n      pop\n      pop\n      jump\t// out\n        /* \"v1.sol\":4204:5555  function buyShares(uint256 _marketId, bool _isOptionA, uint256 _amount) external nonReentrant {... */\n    tag_98:\n        /* \"@openzeppelin/contracts/utils/ReentrancyGuard.sol\":2500:2521  _nonReentrantBefore() */\n      tag_297\n        /* \"@openzeppelin/contracts/utils/ReentrancyGuard.sol\":2500:2519  _nonReentrantBefore */\n      tag_200\n        /* \"@openzeppelin/contracts/utils/ReentrancyGuard.sol\":2500:2521  _nonReentrantBefore() */\n      jump\t// in\n    tag_297:\n        /* \"v1.sol\":4308:4329  Market storage market */\n      0x00\n        /* \"v1.sol\":4332:4350  markets[_marketId] */\n      dup4\n      dup2\n      mstore\n        /* \"v1.sol\":4332:4339  markets */\n      0x05\n        /* \"v1.sol\":4332:4350  markets[_marketId] */\n      0x20\n      mstore\n      0x40\n      swap1\n      keccak256\n        /* \"v1.sol\":4386:4400  market.endTime */\n      0x01\n      dup2\n      add\n      sload\n        /* \"v1.sol\":4368:4383  block.timestamp */\n      timestamp\n        /* \"v1.sol\":4368:4400  block.timestamp < market.endTime */\n      lt\n        /* \"v1.sol\":4360:4436  require(block.timestamp < market.endTime, \"Market trading period has ended\") */\n      tag_299\n      jumpi\n      mload(0x40)\n      shl(0xe5, 0x461bcd)\n      dup2\n      mstore\n        /* \"#utility.yul\":19052:19054   */\n      0x20\n        /* \"v1.sol\":4360:4436  require(block.timestamp < market.endTime, \"Market trading period has ended\") */\n      0x04\n      dup3\n      add\n        /* \"#utility.yul\":19034:19055   */\n      mstore\n        /* \"#utility.yul\":19091:19093   */\n      0x1f\n        /* \"#utility.yul\":19071:19089   */\n      0x24\n      dup3\n      add\n        /* \"#utility.yul\":19064:19094   */\n      mstore\n        /* \"#utility.yul\":19130:19163   */\n      0x4d61726b65742074726164696e6720706572696f642068617320656e64656400\n        /* \"#utility.yul\":19110:19128   */\n      0x44\n      dup3\n      add\n        /* \"#utility.yul\":19103:19164   */\n      mstore\n        /* \"#utility.yul\":19181:19199   */\n      0x64\n      add\n        /* \"v1.sol\":4360:4436  require(block.timestamp < market.endTime, \"Market trading period has ended\") */\n      tag_206\n        /* \"#utility.yul\":18850:19205   */\n      jump\n        /* \"v1.sol\":4360:4436  require(block.timestamp < market.endTime, \"Market trading period has ended\") */\n    tag_299:\n        /* \"v1.sol\":4455:4470  market.resolved */\n      0x07\n      dup2\n      add\n      sload\n      0xff\n      and\n        /* \"v1.sol\":4454:4470  !market.resolved */\n      iszero\n        /* \"v1.sol\":4446:4498  require(!market.resolved, \"Market already resolved\") */\n      tag_302\n      jumpi\n      mload(0x40)\n      shl(0xe5, 0x461bcd)\n      dup2\n      mstore\n        /* \"#utility.yul\":19412:19414   */\n      0x20\n        /* \"v1.sol\":4446:4498  require(!market.resolved, \"Market already resolved\") */\n      0x04\n      dup3\n      add\n        /* \"#utility.yul\":19394:19415   */\n      mstore\n        /* \"#utility.yul\":19451:19453   */\n      0x17\n        /* \"#utility.yul\":19431:19449   */\n      0x24\n      dup3\n      add\n        /* \"#utility.yul\":19424:19454   */\n      mstore\n        /* \"#utility.yul\":19490:19515   */\n      0x4d61726b657420616c7265616479207265736f6c766564000000000000000000\n        /* \"#utility.yul\":19470:19488   */\n      0x44\n      dup3\n      add\n        /* \"#utility.yul\":19463:19516   */\n      mstore\n        /* \"#utility.yul\":19533:19551   */\n      0x64\n      add\n        /* \"v1.sol\":4446:4498  require(!market.resolved, \"Market already resolved\") */\n      tag_206\n        /* \"#utility.yul\":19210:19557   */\n      jump\n        /* \"v1.sol\":4446:4498  require(!market.resolved, \"Market already resolved\") */\n    tag_302:\n        /* \"v1.sol\":4526:4527  0 */\n      0x00\n        /* \"v1.sol\":4516:4523  _amount */\n      dup3\n        /* \"v1.sol\":4516:4527  _amount > 0 */\n      gt\n        /* \"v1.sol\":4508:4555  require(_amount > 0, \"Amount must be positive\") */\n      tag_305\n      jumpi\n      mload(0x40)\n      shl(0xe5, 0x461bcd)\n      dup2\n      mstore\n        /* \"#utility.yul\":19764:19766   */\n      0x20\n        /* \"v1.sol\":4508:4555  require(_amount > 0, \"Amount must be positive\") */\n      0x04\n      dup3\n      add\n        /* \"#utility.yul\":19746:19767   */\n      mstore\n        /* \"#utility.yul\":19803:19805   */\n      0x17\n        /* \"#utility.yul\":19783:19801   */\n      0x24\n      dup3\n      add\n        /* \"#utility.yul\":19776:19806   */\n      mstore\n        /* \"#utility.yul\":19842:19867   */\n      0x416d6f756e74206d75737420626520706f736974697665000000000000000000\n        /* \"#utility.yul\":19822:19840   */\n      0x44\n      dup3\n      add\n        /* \"#utility.yul\":19815:19868   */\n      mstore\n        /* \"#utility.yul\":19885:19903   */\n      0x64\n      add\n        /* \"v1.sol\":4508:4555  require(_amount > 0, \"Amount must be positive\") */\n      tag_206\n        /* \"#utility.yul\":19562:19909   */\n      jump\n        /* \"v1.sol\":4508:4555  require(_amount > 0, \"Amount must be positive\") */\n    tag_305:\n        /* \"v1.sol\":4573:4585  bettingToken */\n      sload(0x03)\n        /* \"v1.sol\":4573:4634  bettingToken.transferFrom(msg.sender, address(this), _amount) */\n      mload(0x40)\n      shl(0xe0, 0x23b872dd)\n      dup2\n      mstore\n        /* \"v1.sol\":4599:4609  msg.sender */\n      caller\n        /* \"v1.sol\":4573:4634  bettingToken.transferFrom(msg.sender, address(this), _amount) */\n      0x04\n      dup3\n      add\n        /* \"#utility.yul\":20116:20167   */\n      mstore\n        /* \"v1.sol\":4619:4623  this */\n      address\n        /* \"#utility.yul\":20183:20201   */\n      0x24\n      dup3\n      add\n        /* \"#utility.yul\":20176:20236   */\n      mstore\n        /* \"#utility.yul\":20252:20270   */\n      0x44\n      dup2\n      add\n        /* \"#utility.yul\":20245:20279   */\n      dup5\n      swap1\n      mstore\n      sub(shl(0xa0, 0x01), 0x01)\n        /* \"v1.sol\":4573:4585  bettingToken */\n      swap1\n      swap2\n      and\n      swap1\n        /* \"v1.sol\":4573:4598  bettingToken.transferFrom */\n      0x23b872dd\n      swap1\n        /* \"#utility.yul\":20089:20107   */\n      0x64\n      add\n        /* \"v1.sol\":4573:4634  bettingToken.transferFrom(msg.sender, address(this), _amount) */\n      0x20\n      mload(0x40)\n      dup1\n      dup4\n      sub\n      dup2\n      0x00\n      dup8\n      gas\n      call\n      iszero\n      dup1\n      iszero\n      tag_311\n      jumpi\n      returndatacopy(0x00, 0x00, returndatasize)\n      revert(0x00, returndatasize)\n    tag_311:\n      pop\n      pop\n      pop\n      pop\n      mload(0x40)\n      returndatasize\n      not(0x1f)\n      0x1f\n      dup3\n      add\n      and\n      dup3\n      add\n      dup1\n      0x40\n      mstore\n      pop\n      dup2\n      add\n      swap1\n      tag_312\n      swap2\n      swap1\n      tag_264\n      jump\t// in\n    tag_312:\n        /* \"v1.sol\":4565:4654  require(bettingToken.transferFrom(msg.sender, address(this), _amount), \"Transfer failed\") */\n      tag_313\n      jumpi\n      mload(0x40)\n      shl(0xe5, 0x461bcd)\n      dup2\n      mstore\n        /* \"#utility.yul\":18353:18355   */\n      0x20\n        /* \"v1.sol\":4565:4654  require(bettingToken.transferFrom(msg.sender, address(this), _amount), \"Transfer failed\") */\n      0x04\n      dup3\n      add\n        /* \"#utility.yul\":18335:18356   */\n      mstore\n        /* \"#utility.yul\":18392:18394   */\n      0x0f\n        /* \"#utility.yul\":18372:18390   */\n      0x24\n      dup3\n      add\n        /* \"#utility.yul\":18365:18395   */\n      mstore\n      shl(0x8a, 0x151c985b9cd9995c8819985a5b1959)\n        /* \"#utility.yul\":18411:18429   */\n      0x44\n      dup3\n      add\n        /* \"#utility.yul\":18404:18449   */\n      mstore\n        /* \"#utility.yul\":18466:18484   */\n      0x64\n      add\n        /* \"v1.sol\":4565:4654  require(bettingToken.transferFrom(msg.sender, address(this), _amount), \"Transfer failed\") */\n      tag_206\n        /* \"#utility.yul\":18151:18490   */\n      jump\n        /* \"v1.sol\":4565:4654  require(bettingToken.transferFrom(msg.sender, address(this), _amount), \"Transfer failed\") */\n    tag_313:\n        /* \"v1.sol\":4697:4707  msg.sender */\n      caller\n        /* \"v1.sol\":4669:4708  market.optionASharesBalance[msg.sender] */\n      0x00\n      swap1\n      dup2\n      mstore\n        /* \"v1.sol\":4669:4696  market.optionASharesBalance */\n      0x08\n      dup3\n      add\n        /* \"v1.sol\":4669:4708  market.optionASharesBalance[msg.sender] */\n      0x20\n      mstore\n      0x40\n      swap1\n      keccak256\n      sload\n        /* \"v1.sol\":4669:4713  market.optionASharesBalance[msg.sender] == 0 */\n      iszero\n        /* \"v1.sol\":4669:4761  market.optionASharesBalance[msg.sender] == 0 && market.optionBSharesBalance[msg.sender] == 0 */\n      dup1\n      iszero\n      tag_315\n      jumpi\n      pop\n        /* \"v1.sol\":4745:4755  msg.sender */\n      caller\n        /* \"v1.sol\":4717:4756  market.optionBSharesBalance[msg.sender] */\n      0x00\n      swap1\n      dup2\n      mstore\n        /* \"v1.sol\":4717:4744  market.optionBSharesBalance */\n      0x09\n      dup3\n      add\n        /* \"v1.sol\":4717:4756  market.optionBSharesBalance[msg.sender] */\n      0x20\n      mstore\n      0x40\n      swap1\n      keccak256\n      sload\n        /* \"v1.sol\":4717:4761  market.optionBSharesBalance[msg.sender] == 0 */\n      iszero\n        /* \"v1.sol\":4669:4761  market.optionASharesBalance[msg.sender] == 0 && market.optionBSharesBalance[msg.sender] == 0 */\n    tag_315:\n        /* \"v1.sol\":4665:4945  if (market.optionASharesBalance[msg.sender] == 0 && market.optionBSharesBalance[msg.sender] == 0) {... */\n      iszero\n      tag_318\n      jumpi\n        /* \"v1.sol\":4777:4796  market.participants */\n      0x0b\n      dup2\n      add\n        /* \"v1.sol\":4777:4813  market.participants.push(msg.sender) */\n      dup1\n      sload\n      0x01\n      dup2\n      add\n      dup3\n      sstore\n      0x00\n      swap2\n      dup3\n      mstore\n      0x20\n      dup1\n      dup4\n      keccak256\n      swap1\n      swap2\n      add\n      dup1\n      sload\n      not(sub(shl(0xa0, 0x01), 0x01))\n      and\n        /* \"v1.sol\":4802:4812  msg.sender */\n      caller\n        /* \"v1.sol\":4777:4813  market.participants.push(msg.sender) */\n      swap1\n      dup2\n      or\n      swap1\n      swap2\n      sstore\n        /* \"v1.sol\":4831:4863  totalSharesPurchased[msg.sender] */\n      dup3\n      mstore\n        /* \"v1.sol\":4831:4851  totalSharesPurchased */\n      0x06\n        /* \"v1.sol\":4831:4863  totalSharesPurchased[msg.sender] */\n      swap1\n      mstore\n      0x40\n      dup2\n      keccak256\n      sload\n        /* \"v1.sol\":4831:4868  totalSharesPurchased[msg.sender] == 0 */\n      swap1\n      sub\n        /* \"v1.sol\":4827:4935  if (totalSharesPurchased[msg.sender] == 0) {... */\n      tag_318\n      jumpi\n        /* \"v1.sol\":4888:4903  allParticipants */\n      0x09\n        /* \"v1.sol\":4888:4920  allParticipants.push(msg.sender) */\n      dup1\n      sload\n      0x01\n      dup2\n      add\n      dup3\n      sstore\n      0x00\n      swap2\n      swap1\n      swap2\n      mstore\n      0x6e1540171b6c0c960b71a7020d9f60077f6af931a8bbf590da0223dacf75c7af\n      add\n      dup1\n      sload\n      not(sub(shl(0xa0, 0x01), 0x01))\n      and\n        /* \"v1.sol\":4909:4919  msg.sender */\n      caller\n        /* \"v1.sol\":4888:4920  allParticipants.push(msg.sender) */\n      or\n      swap1\n      sstore\n        /* \"v1.sol\":4827:4935  if (totalSharesPurchased[msg.sender] == 0) {... */\n    tag_318:\n        /* \"v1.sol\":4959:4969  _isOptionA */\n      dup3\n        /* \"v1.sol\":4955:5227  if (_isOptionA) {... */\n      iszero\n      tag_320\n      jumpi\n        /* \"v1.sol\":5013:5023  msg.sender */\n      caller\n        /* \"v1.sol\":4985:5024  market.optionASharesBalance[msg.sender] */\n      0x00\n      swap1\n      dup2\n      mstore\n        /* \"v1.sol\":4985:5012  market.optionASharesBalance */\n      0x08\n      dup3\n      add\n        /* \"v1.sol\":4985:5024  market.optionASharesBalance[msg.sender] */\n      0x20\n      mstore\n      0x40\n      dup2\n      keccak256\n        /* \"v1.sol\":4985:5035  market.optionASharesBalance[msg.sender] += _amount */\n      dup1\n      sload\n        /* \"v1.sol\":5028:5035  _amount */\n      dup5\n      swap3\n        /* \"v1.sol\":4985:5024  market.optionASharesBalance[msg.sender] */\n      swap1\n        /* \"v1.sol\":4985:5035  market.optionASharesBalance[msg.sender] += _amount */\n      tag_321\n      swap1\n        /* \"v1.sol\":5028:5035  _amount */\n      dup5\n      swap1\n        /* \"v1.sol\":4985:5035  market.optionASharesBalance[msg.sender] += _amount */\n      tag_212\n      jump\t// in\n    tag_321:\n      swap3\n      pop\n      pop\n      dup2\n      swap1\n      sstore\n      pop\n        /* \"v1.sol\":5078:5085  _amount */\n      dup2\n        /* \"v1.sol\":5049:5055  market */\n      dup2\n        /* \"v1.sol\":5049:5074  market.totalOptionAShares */\n      0x05\n      add\n      0x00\n        /* \"v1.sol\":5049:5085  market.totalOptionAShares += _amount */\n      dup3\n      dup3\n      sload\n      tag_322\n      swap2\n      swap1\n      tag_212\n      jump\t// in\n    tag_322:\n      swap1\n      swap2\n      sstore\n      pop\n        /* \"v1.sol\":4955:5227  if (_isOptionA) {... */\n      tag_323\n      swap1\n      pop\n      jump\n    tag_320:\n        /* \"v1.sol\":5144:5154  msg.sender */\n      caller\n        /* \"v1.sol\":5116:5155  market.optionBSharesBalance[msg.sender] */\n      0x00\n      swap1\n      dup2\n      mstore\n        /* \"v1.sol\":5116:5143  market.optionBSharesBalance */\n      0x09\n      dup3\n      add\n        /* \"v1.sol\":5116:5155  market.optionBSharesBalance[msg.sender] */\n      0x20\n      mstore\n      0x40\n      dup2\n      keccak256\n        /* \"v1.sol\":5116:5166  market.optionBSharesBalance[msg.sender] += _amount */\n      dup1\n      sload\n        /* \"v1.sol\":5159:5166  _amount */\n      dup5\n      swap3\n        /* \"v1.sol\":5116:5155  market.optionBSharesBalance[msg.sender] */\n      swap1\n        /* \"v1.sol\":5116:5166  market.optionBSharesBalance[msg.sender] += _amount */\n      tag_324\n      swap1\n        /* \"v1.sol\":5159:5166  _amount */\n      dup5\n      swap1\n        /* \"v1.sol\":5116:5166  market.optionBSharesBalance[msg.sender] += _amount */\n      tag_212\n      jump\t// in\n    tag_324:\n      swap3\n      pop\n      pop\n      dup2\n      swap1\n      sstore\n      pop\n        /* \"v1.sol\":5209:5216  _amount */\n      dup2\n        /* \"v1.sol\":5180:5186  market */\n      dup2\n        /* \"v1.sol\":5180:5205  market.totalOptionBShares */\n      0x06\n      add\n      0x00\n        /* \"v1.sol\":5180:5216  market.totalOptionBShares += _amount */\n      dup3\n      dup3\n      sload\n      tag_325\n      swap2\n      swap1\n      tag_212\n      jump\t// in\n    tag_325:\n      swap1\n      swap2\n      sstore\n      pop\n      pop\n        /* \"v1.sol\":4955:5227  if (_isOptionA) {... */\n    tag_323:\n        /* \"v1.sol\":5258:5268  msg.sender */\n      caller\n        /* \"v1.sol\":5237:5269  totalSharesPurchased[msg.sender] */\n      0x00\n      swap1\n      dup2\n      mstore\n        /* \"v1.sol\":5237:5257  totalSharesPurchased */\n      0x06\n        /* \"v1.sol\":5237:5269  totalSharesPurchased[msg.sender] */\n      0x20\n      mstore\n      0x40\n      dup2\n      keccak256\n        /* \"v1.sol\":5237:5280  totalSharesPurchased[msg.sender] += _amount */\n      dup1\n      sload\n        /* \"v1.sol\":5273:5280  _amount */\n      dup5\n      swap3\n        /* \"v1.sol\":5237:5269  totalSharesPurchased[msg.sender] */\n      swap1\n        /* \"v1.sol\":5237:5280  totalSharesPurchased[msg.sender] += _amount */\n      tag_326\n      swap1\n        /* \"v1.sol\":5273:5280  _amount */\n      dup5\n      swap1\n        /* \"v1.sol\":5237:5280  totalSharesPurchased[msg.sender] += _amount */\n      tag_212\n      jump\t// in\n    tag_326:\n      swap1\n      swap2\n      sstore\n      pop\n      pop\n        /* \"v1.sol\":5302:5312  msg.sender */\n      caller\n        /* \"v1.sol\":5290:5313  voteHistory[msg.sender] */\n      0x00\n      dup2\n      dup2\n      mstore\n        /* \"v1.sol\":5290:5301  voteHistory */\n      0x08\n        /* \"v1.sol\":5290:5313  voteHistory[msg.sender] */\n      0x20\n      swap1\n      dup2\n      mstore\n      0x40\n      dup1\n      dup4\n      keccak256\n        /* \"v1.sol\":5319:5472  Vote({... */\n      dup2\n      mload\n      0x80\n      dup2\n      add\n      dup4\n      mstore\n      dup10\n      dup2\n      mstore\n      dup9\n      iszero\n      iszero\n      dup2\n      dup6\n      add\n      dup2\n      dup2\n      mstore\n      dup3\n      dup6\n      add\n      dup11\n      dup2\n      mstore\n        /* \"v1.sol\":5446:5461  block.timestamp */\n      timestamp\n        /* \"v1.sol\":5319:5472  Vote({... */\n      0x60\n      dup6\n      add\n      swap1\n      dup2\n      mstore\n        /* \"v1.sol\":5290:5473  voteHistory[msg.sender].push(Vote({... */\n      dup6\n      sload\n      0x01\n      dup1\n      dup3\n      add\n      dup9\n      sstore\n      swap7\n      dup11\n      mstore\n      swap9\n      dup9\n      swap1\n      keccak256\n      swap5\n      mload\n      0x04\n      swap1\n      swap10\n      mul\n      swap1\n      swap5\n      add\n      swap8\n      dup9\n      sstore\n      swap1\n      mload\n      swap4\n      dup8\n      add\n      dup1\n      sload\n      not(0xff)\n      and\n      swap5\n      iszero\n      iszero\n      swap5\n      swap1\n      swap5\n      or\n      swap1\n      swap4\n      sstore\n      swap2\n      mload\n      0x02\n      dup7\n      add\n      sstore\n      mload\n      0x03\n      swap1\n      swap5\n      add\n      swap4\n      swap1\n      swap4\n      sstore\n        /* \"v1.sol\":5489:5548  SharesPurchased(_marketId, msg.sender, _isOptionA, _amount) */\n      dup1\n      mload\n        /* \"#utility.yul\":20458:20499   */\n      swap3\n      dup4\n      mstore\n        /* \"#utility.yul\":20515:20533   */\n      swap1\n      dup3\n      add\n        /* \"#utility.yul\":20508:20542   */\n      dup6\n      swap1\n      mstore\n        /* \"v1.sol\":5319:5472  Vote({... */\n      dup7\n      swap2\n        /* \"v1.sol\":5489:5548  SharesPurchased(_marketId, msg.sender, _isOptionA, _amount) */\n      0xb3a1ddef05fa52ff8a462662e00f5fd54a3b35e85417cafcaa671fb30434bd11\n      swap2\n        /* \"#utility.yul\":20431:20449   */\n      add\n        /* \"v1.sol\":5489:5548  SharesPurchased(_marketId, msg.sender, _isOptionA, _amount) */\n      mload(0x40)\n      dup1\n      swap2\n      sub\n      swap1\n      log3\n        /* \"v1.sol\":4298:5555  {... */\n      pop\n        /* \"@openzeppelin/contracts/utils/ReentrancyGuard.sol\":2542:2562  _nonReentrantAfter() */\n      tag_294\n        /* \"@openzeppelin/contracts/utils/ReentrancyGuard.sol\":1857:1858  1 */\n      0x01\n        /* \"@openzeppelin/contracts/utils/ReentrancyGuard.sol\":3068:3089  _status = NOT_ENTERED */\n      dup1\n      sstore\n        /* \"@openzeppelin/contracts/utils/ReentrancyGuard.sol\":2888:3096  function _nonReentrantAfter() private {... */\n      jump\n        /* \"v1.sol\":9650:10364  function getMarketInfo(uint256 _marketId)... */\n    tag_101:\n        /* \"v1.sol\":9752:9774  string memory question */\n      0x60\n        /* \"v1.sol\":9788:9809  string memory optionA */\n      dup1\n        /* \"v1.sol\":9823:9844  string memory optionB */\n      0x60\n        /* \"v1.sol\":9858:9873  uint256 endTime */\n      0x00\n        /* \"v1.sol\":9887:9908  MarketOutcome outcome */\n      0x00\n        /* \"v1.sol\":9922:9948  uint256 totalOptionAShares */\n      0x00\n        /* \"v1.sol\":9962:9988  uint256 totalOptionBShares */\n      0x00\n        /* \"v1.sol\":10002:10015  bool resolved */\n      0x00\n        /* \"v1.sol\":10040:10061  Market storage market */\n      0x00\n        /* \"v1.sol\":10064:10071  markets */\n      0x05\n        /* \"v1.sol\":10064:10082  markets[_marketId] */\n      0x00\n        /* \"v1.sol\":10072:10081  _marketId */\n      dup12\n        /* \"v1.sol\":10064:10082  markets[_marketId] */\n      dup2\n      mstore\n      0x20\n      add\n      swap1\n      dup2\n      mstore\n      0x20\n      add\n      0x00\n      keccak256\n        /* \"v1.sol\":10040:10082  Market storage market = markets[_marketId] */\n      swap1\n      pop\n        /* \"v1.sol\":10113:10119  market */\n      dup1\n        /* \"v1.sol\":10113:10128  market.question */\n      0x00\n      add\n        /* \"v1.sol\":10142:10148  market */\n      dup2\n        /* \"v1.sol\":10142:10156  market.optionA */\n      0x03\n      add\n        /* \"v1.sol\":10170:10176  market */\n      dup3\n        /* \"v1.sol\":10170:10184  market.optionB */\n      0x04\n      add\n        /* \"v1.sol\":10198:10204  market */\n      dup4\n        /* \"v1.sol\":10198:10212  market.endTime */\n      0x01\n      add\n      sload\n        /* \"v1.sol\":10226:10232  market */\n      dup5\n        /* \"v1.sol\":10226:10240  market.outcome */\n      0x02\n      add\n      0x00\n      swap1\n      sload\n      swap1\n      0x0100\n      exp\n      swap1\n      div\n      0xff\n      and\n        /* \"v1.sol\":10254:10260  market */\n      dup6\n        /* \"v1.sol\":10254:10279  market.totalOptionAShares */\n      0x05\n      add\n      sload\n        /* \"v1.sol\":10293:10299  market */\n      dup7\n        /* \"v1.sol\":10293:10318  market.totalOptionBShares */\n      0x06\n      add\n      sload\n        /* \"v1.sol\":10332:10338  market */\n      dup8\n        /* \"v1.sol\":10332:10347  market.resolved */\n      0x07\n      add\n      0x00\n      swap1\n      sload\n      swap1\n      0x0100\n      exp\n      swap1\n      div\n      0xff\n      and\n        /* \"v1.sol\":10092:10357  return (... */\n      dup8\n      dup1\n      sload\n      tag_332\n      swap1\n      tag_333\n      jump\t// in\n    tag_332:\n      dup1\n      0x1f\n      add\n      0x20\n      dup1\n      swap2\n      div\n      mul\n      0x20\n      add\n      mload(0x40)\n      swap1\n      dup2\n      add\n      0x40\n      mstore\n      dup1\n      swap3\n      swap2\n      swap1\n      dup2\n      dup2\n      mstore\n      0x20\n      add\n      dup3\n      dup1\n      sload\n      tag_334\n      swap1\n      tag_333\n      jump\t// in\n    tag_334:\n      dup1\n      iszero\n      tag_335\n      jumpi\n      dup1\n      0x1f\n      lt\n      tag_336\n      jumpi\n      0x0100\n      dup1\n      dup4\n      sload\n      div\n      mul\n      dup4\n      mstore\n      swap2\n      0x20\n      add\n      swap2\n      jump(tag_335)\n    tag_336:\n      dup3\n      add\n      swap2\n      swap1\n      0x00\n      mstore\n      keccak256(0x00, 0x20)\n      swap1\n    tag_337:\n      dup2\n      sload\n      dup2\n      mstore\n      swap1\n      0x01\n      add\n      swap1\n      0x20\n      add\n      dup1\n      dup4\n      gt\n      tag_337\n      jumpi\n      dup3\n      swap1\n      sub\n      0x1f\n      and\n      dup3\n      add\n      swap2\n    tag_335:\n      pop\n      pop\n      pop\n      pop\n      pop\n      swap8\n      pop\n      dup7\n      dup1\n      sload\n      tag_338\n      swap1\n      tag_333\n      jump\t// in\n    tag_338:\n      dup1\n      0x1f\n      add\n      0x20\n      dup1\n      swap2\n      div\n      mul\n      0x20\n      add\n      mload(0x40)\n      swap1\n      dup2\n      add\n      0x40\n      mstore\n      dup1\n      swap3\n      swap2\n      swap1\n      dup2\n      dup2\n      mstore\n      0x20\n      add\n      dup3\n      dup1\n      sload\n      tag_339\n      swap1\n      tag_333\n      jump\t// in\n    tag_339:\n      dup1\n      iszero\n      tag_340\n      jumpi\n      dup1\n      0x1f\n      lt\n      tag_341\n      jumpi\n      0x0100\n      dup1\n      dup4\n      sload\n      div\n      mul\n      dup4\n      mstore\n      swap2\n      0x20\n      add\n      swap2\n      jump(tag_340)\n    tag_341:\n      dup3\n      add\n      swap2\n      swap1\n      0x00\n      mstore\n      keccak256(0x00, 0x20)\n      swap1\n    tag_342:\n      dup2\n      sload\n      dup2\n      mstore\n      swap1\n      0x01\n      add\n      swap1\n      0x20\n      add\n      dup1\n      dup4\n      gt\n      tag_342\n      jumpi\n      dup3\n      swap1\n      sub\n      0x1f\n      and\n      dup3\n      add\n      swap2\n    tag_340:\n      pop\n      pop\n      pop\n      pop\n      pop\n      swap7\n      pop\n      dup6\n      dup1\n      sload\n      tag_343\n      swap1\n      tag_333\n      jump\t// in\n    tag_343:\n      dup1\n      0x1f\n      add\n      0x20\n      dup1\n      swap2\n      div\n      mul\n      0x20\n      add\n      mload(0x40)\n      swap1\n      dup2\n      add\n      0x40\n      mstore\n      dup1\n      swap3\n      swap2\n      swap1\n      dup2\n      dup2\n      mstore\n      0x20\n      add\n      dup3\n      dup1\n      sload\n      tag_344\n      swap1\n      tag_333\n      jump\t// in\n    tag_344:\n      dup1\n      iszero\n      tag_345\n      jumpi\n      dup1\n      0x1f\n      lt\n      tag_346\n      jumpi\n      0x0100\n      dup1\n      dup4\n      sload\n      div\n      mul\n      dup4\n      mstore\n      swap2\n      0x20\n      add\n      swap2\n      jump(tag_345)\n    tag_346:\n      dup3\n      add\n      swap2\n      swap1\n      0x00\n      mstore\n      keccak256(0x00, 0x20)\n      swap1\n    tag_347:\n      dup2\n      sload\n      dup2\n      mstore\n      swap1\n      0x01\n      add\n      swap1\n      0x20\n      add\n      dup1\n      dup4\n      gt\n      tag_347\n      jumpi\n      dup3\n      swap1\n      sub\n      0x1f\n      and\n      dup3\n      add\n      swap2\n    tag_345:\n      pop\n      pop\n      pop\n      pop\n      pop\n      swap6\n      pop\n      swap9\n      pop\n      swap9\n      pop\n      swap9\n      pop\n      swap9\n      pop\n      swap9\n      pop\n      swap9\n      pop\n      swap9\n      pop\n      swap9\n      pop\n      pop\n        /* \"v1.sol\":9650:10364  function getMarketInfo(uint256 _marketId)... */\n      swap2\n      swap4\n      swap6\n      swap8\n      pop\n      swap2\n      swap4\n      swap6\n      swap8\n      jump\t// out\n        /* \"v1.sol\":11088:12493  function getMarketInfoBatch(uint256[] calldata _marketIds)... */\n    tag_115:\n        /* \"v1.sol\":11207:11232  string[] memory questions */\n      0x60\n      dup1\n      dup1\n      dup1\n      dup1\n      dup1\n      dup1\n      dup1\n        /* \"v1.sol\":11583:11593  _marketIds */\n      dup9\n      dup1\n      sub(shl(0x40, 0x01), 0x01)\n        /* \"v1.sol\":11622:11642  new string[](length) */\n      dup2\n      gt\n      iszero\n      tag_351\n      jumpi\n      tag_351\n      tag_352\n      jump\t// in\n    tag_351:\n      mload(0x40)\n      swap1\n      dup1\n      dup3\n      mstore\n      dup1\n      0x20\n      mul\n      0x20\n      add\n      dup3\n      add\n      0x40\n      mstore\n      dup1\n      iszero\n      tag_353\n      jumpi\n      dup2\n      0x20\n      add\n    tag_354:\n      0x60\n      dup2\n      mstore\n      0x20\n      add\n      swap1\n      0x01\n      swap1\n      sub\n      swap1\n      dup2\n      tag_354\n      jumpi\n      swap1\n      pop\n    tag_353:\n      pop\n        /* \"v1.sol\":11610:11642  questions = new string[](length) */\n      swap9\n      pop\n        /* \"v1.sol\":11676:11682  length */\n      dup1\n      sub(shl(0x40, 0x01), 0x01)\n        /* \"v1.sol\":11663:11683  new string[](length) */\n      dup2\n      gt\n      iszero\n      tag_356\n      jumpi\n      tag_356\n      tag_352\n      jump\t// in\n    tag_356:\n      mload(0x40)\n      swap1\n      dup1\n      dup3\n      mstore\n      dup1\n      0x20\n      mul\n      0x20\n      add\n      dup3\n      add\n      0x40\n      mstore\n      dup1\n      iszero\n      tag_357\n      jumpi\n      dup2\n      0x20\n      add\n    tag_358:\n      0x60\n      dup2\n      mstore\n      0x20\n      add\n      swap1\n      0x01\n      swap1\n      sub\n      swap1\n      dup2\n      tag_358\n      jumpi\n      swap1\n      pop\n    tag_357:\n      pop\n        /* \"v1.sol\":11652:11683  optionAs = new string[](length) */\n      swap8\n      pop\n        /* \"v1.sol\":11717:11723  length */\n      dup1\n      sub(shl(0x40, 0x01), 0x01)\n        /* \"v1.sol\":11704:11724  new string[](length) */\n      dup2\n      gt\n      iszero\n      tag_360\n      jumpi\n      tag_360\n      tag_352\n      jump\t// in\n    tag_360:\n      mload(0x40)\n      swap1\n      dup1\n      dup3\n      mstore\n      dup1\n      0x20\n      mul\n      0x20\n      add\n      dup3\n      add\n      0x40\n      mstore\n      dup1\n      iszero\n      tag_361\n      jumpi\n      dup2\n      0x20\n      add\n    tag_362:\n      0x60\n      dup2\n      mstore\n      0x20\n      add\n      swap1\n      0x01\n      swap1\n      sub\n      swap1\n      dup2\n      tag_362\n      jumpi\n      swap1\n      pop\n    tag_361:\n      pop\n        /* \"v1.sol\":11693:11724  optionBs = new string[](length) */\n      swap7\n      pop\n        /* \"v1.sol\":11759:11765  length */\n      dup1\n      sub(shl(0x40, 0x01), 0x01)\n        /* \"v1.sol\":11745:11766  new uint256[](length) */\n      dup2\n      gt\n      iszero\n      tag_364\n      jumpi\n      tag_364\n      tag_352\n      jump\t// in\n    tag_364:\n      mload(0x40)\n      swap1\n      dup1\n      dup3\n      mstore\n      dup1\n      0x20\n      mul\n      0x20\n      add\n      dup3\n      add\n      0x40\n      mstore\n      dup1\n      iszero\n      tag_365\n      jumpi\n      dup2\n      0x20\n      add\n      0x20\n      dup3\n      mul\n      dup1\n      calldatasize\n      dup4\n      calldatacopy\n      add\n      swap1\n      pop\n    tag_365:\n      pop\n        /* \"v1.sol\":11734:11766  endTimes = new uint256[](length) */\n      swap6\n      pop\n        /* \"v1.sol\":11807:11813  length */\n      dup1\n      sub(shl(0x40, 0x01), 0x01)\n        /* \"v1.sol\":11787:11814  new MarketOutcome[](length) */\n      dup2\n      gt\n      iszero\n      tag_367\n      jumpi\n      tag_367\n      tag_352\n      jump\t// in\n    tag_367:\n      mload(0x40)\n      swap1\n      dup1\n      dup3\n      mstore\n      dup1\n      0x20\n      mul\n      0x20\n      add\n      dup3\n      add\n      0x40\n      mstore\n      dup1\n      iszero\n      tag_368\n      jumpi\n      dup2\n      0x20\n      add\n      0x20\n      dup3\n      mul\n      dup1\n      calldatasize\n      dup4\n      calldatacopy\n      add\n      swap1\n      pop\n    tag_368:\n      pop\n        /* \"v1.sol\":11776:11814  outcomes = new MarketOutcome[](length) */\n      swap5\n      pop\n        /* \"v1.sol\":11864:11870  length */\n      dup1\n      sub(shl(0x40, 0x01), 0x01)\n        /* \"v1.sol\":11850:11871  new uint256[](length) */\n      dup2\n      gt\n      iszero\n      tag_370\n      jumpi\n      tag_370\n      tag_352\n      jump\t// in\n    tag_370:\n      mload(0x40)\n      swap1\n      dup1\n      dup3\n      mstore\n      dup1\n      0x20\n      mul\n      0x20\n      add\n      dup3\n      add\n      0x40\n      mstore\n      dup1\n      iszero\n      tag_371\n      jumpi\n      dup2\n      0x20\n      add\n      0x20\n      dup3\n      mul\n      dup1\n      calldatasize\n      dup4\n      calldatacopy\n      add\n      swap1\n      pop\n    tag_371:\n      pop\n        /* \"v1.sol\":11824:11871  totalOptionASharesArray = new uint256[](length) */\n      swap4\n      pop\n        /* \"v1.sol\":11921:11927  length */\n      dup1\n      sub(shl(0x40, 0x01), 0x01)\n        /* \"v1.sol\":11907:11928  new uint256[](length) */\n      dup2\n      gt\n      iszero\n      tag_373\n      jumpi\n      tag_373\n      tag_352\n      jump\t// in\n    tag_373:\n      mload(0x40)\n      swap1\n      dup1\n      dup3\n      mstore\n      dup1\n      0x20\n      mul\n      0x20\n      add\n      dup3\n      add\n      0x40\n      mstore\n      dup1\n      iszero\n      tag_374\n      jumpi\n      dup2\n      0x20\n      add\n      0x20\n      dup3\n      mul\n      dup1\n      calldatasize\n      dup4\n      calldatacopy\n      add\n      swap1\n      pop\n    tag_374:\n      pop\n        /* \"v1.sol\":11881:11928  totalOptionBSharesArray = new uint256[](length) */\n      swap3\n      pop\n        /* \"v1.sol\":11965:11971  length */\n      dup1\n      sub(shl(0x40, 0x01), 0x01)\n        /* \"v1.sol\":11954:11972  new bool[](length) */\n      dup2\n      gt\n      iszero\n      tag_376\n      jumpi\n      tag_376\n      tag_352\n      jump\t// in\n    tag_376:\n      mload(0x40)\n      swap1\n      dup1\n      dup3\n      mstore\n      dup1\n      0x20\n      mul\n      0x20\n      add\n      dup3\n      add\n      0x40\n      mstore\n      dup1\n      iszero\n      tag_377\n      jumpi\n      dup2\n      0x20\n      add\n      0x20\n      dup3\n      mul\n      dup1\n      calldatasize\n      dup4\n      calldatacopy\n      add\n      swap1\n      pop\n    tag_377:\n      pop\n        /* \"v1.sol\":11938:11972  resolvedArray = new bool[](length) */\n      swap2\n      pop\n        /* \"v1.sol\":11988:11997  uint256 i */\n      0x00\n        /* \"v1.sol\":11983:12487  for (uint256 i = 0; i < length; i++) {... */\n    tag_378:\n        /* \"v1.sol\":12007:12013  length */\n      dup2\n        /* \"v1.sol\":12003:12004  i */\n      dup2\n        /* \"v1.sol\":12003:12013  i < length */\n      lt\n        /* \"v1.sol\":11983:12487  for (uint256 i = 0; i < length; i++) {... */\n      iszero\n      tag_379\n      jumpi\n        /* \"v1.sol\":12034:12055  Market storage market */\n      0x00\n        /* \"v1.sol\":12058:12065  markets */\n      0x05\n        /* \"v1.sol\":12058:12080  markets[_marketIds[i]] */\n      0x00\n        /* \"v1.sol\":12066:12076  _marketIds */\n      dup15\n      dup15\n        /* \"v1.sol\":12077:12078  i */\n      dup6\n        /* \"v1.sol\":12066:12079  _marketIds[i] */\n      dup2\n      dup2\n      lt\n      tag_382\n      jumpi\n      tag_382\n      tag_239\n      jump\t// in\n    tag_382:\n      swap1\n      pop\n      0x20\n      mul\n      add\n      calldataload\n        /* \"v1.sol\":12058:12080  markets[_marketIds[i]] */\n      dup2\n      mstore\n      0x20\n      add\n      swap1\n      dup2\n      mstore\n      0x20\n      add\n      0x00\n      keccak256\n        /* \"v1.sol\":12034:12080  Market storage market = markets[_marketIds[i]] */\n      swap1\n      pop\n        /* \"v1.sol\":12109:12115  market */\n      dup1\n        /* \"v1.sol\":12109:12124  market.question */\n      0x00\n      add\n        /* \"v1.sol\":12094:12124  questions[i] = market.question */\n      dup1\n      sload\n      tag_383\n      swap1\n      tag_333\n      jump\t// in\n    tag_383:\n      dup1\n      0x1f\n      add\n      0x20\n      dup1\n      swap2\n      div\n      mul\n      0x20\n      add\n      mload(0x40)\n      swap1\n      dup2\n      add\n      0x40\n      mstore\n      dup1\n      swap3\n      swap2\n      swap1\n      dup2\n      dup2\n      mstore\n      0x20\n      add\n      dup3\n      dup1\n      sload\n      tag_384\n      swap1\n      tag_333\n      jump\t// in\n    tag_384:\n      dup1\n      iszero\n      tag_385\n      jumpi\n      dup1\n      0x1f\n      lt\n      tag_386\n      jumpi\n      0x0100\n      dup1\n      dup4\n      sload\n      div\n      mul\n      dup4\n      mstore\n      swap2\n      0x20\n      add\n      swap2\n      jump(tag_385)\n    tag_386:\n      dup3\n      add\n      swap2\n      swap1\n      0x00\n      mstore\n      keccak256(0x00, 0x20)\n      swap1\n    tag_387:\n      dup2\n      sload\n      dup2\n      mstore\n      swap1\n      0x01\n      add\n      swap1\n      0x20\n      add\n      dup1\n      dup4\n      gt\n      tag_387\n      jumpi\n      dup3\n      swap1\n      sub\n      0x1f\n      and\n      dup3\n      add\n      swap2\n    tag_385:\n      pop\n      pop\n      pop\n      pop\n      pop\n        /* \"v1.sol\":12094:12103  questions */\n      dup12\n        /* \"v1.sol\":12104:12105  i */\n      dup4\n        /* \"v1.sol\":12094:12106  questions[i] */\n      dup2\n      mload\n      dup2\n      lt\n      tag_389\n      jumpi\n      tag_389\n      tag_239\n      jump\t// in\n    tag_389:\n      0x20\n      mul\n      0x20\n      add\n      add\n        /* \"v1.sol\":12094:12124  questions[i] = market.question */\n      dup2\n      swap1\n      mstore\n      pop\n        /* \"v1.sol\":12152:12158  market */\n      dup1\n        /* \"v1.sol\":12152:12166  market.optionA */\n      0x03\n      add\n        /* \"v1.sol\":12138:12166  optionAs[i] = market.optionA */\n      dup1\n      sload\n      tag_390\n      swap1\n      tag_333\n      jump\t// in\n    tag_390:\n      dup1\n      0x1f\n      add\n      0x20\n      dup1\n      swap2\n      div\n      mul\n      0x20\n      add\n      mload(0x40)\n      swap1\n      dup2\n      add\n      0x40\n      mstore\n      dup1\n      swap3\n      swap2\n      swap1\n      dup2\n      dup2\n      mstore\n      0x20\n      add\n      dup3\n      dup1\n      sload\n      tag_391\n      swap1\n      tag_333\n      jump\t// in\n    tag_391:\n      dup1\n      iszero\n      tag_392\n      jumpi\n      dup1\n      0x1f\n      lt\n      tag_393\n      jumpi\n      0x0100\n      dup1\n      dup4\n      sload\n      div\n      mul\n      dup4\n      mstore\n      swap2\n      0x20\n      add\n      swap2\n      jump(tag_392)\n    tag_393:\n      dup3\n      add\n      swap2\n      swap1\n      0x00\n      mstore\n      keccak256(0x00, 0x20)\n      swap1\n    tag_394:\n      dup2\n      sload\n      dup2\n      mstore\n      swap1\n      0x01\n      add\n      swap1\n      0x20\n      add\n      dup1\n      dup4\n      gt\n      tag_394\n      jumpi\n      dup3\n      swap1\n      sub\n      0x1f\n      and\n      dup3\n      add\n      swap2\n    tag_392:\n      pop\n      pop\n      pop\n      pop\n      pop\n        /* \"v1.sol\":12138:12146  optionAs */\n      dup11\n        /* \"v1.sol\":12147:12148  i */\n      dup4\n        /* \"v1.sol\":12138:12149  optionAs[i] */\n      dup2\n      mload\n      dup2\n      lt\n      tag_396\n      jumpi\n      tag_396\n      tag_239\n      jump\t// in\n    tag_396:\n      0x20\n      mul\n      0x20\n      add\n      add\n        /* \"v1.sol\":12138:12166  optionAs[i] = market.optionA */\n      dup2\n      swap1\n      mstore\n      pop\n        /* \"v1.sol\":12194:12200  market */\n      dup1\n        /* \"v1.sol\":12194:12208  market.optionB */\n      0x04\n      add\n        /* \"v1.sol\":12180:12208  optionBs[i] = market.optionB */\n      dup1\n      sload\n      tag_397\n      swap1\n      tag_333\n      jump\t// in\n    tag_397:\n      dup1\n      0x1f\n      add\n      0x20\n      dup1\n      swap2\n      div\n      mul\n      0x20\n      add\n      mload(0x40)\n      swap1\n      dup2\n      add\n      0x40\n      mstore\n      dup1\n      swap3\n      swap2\n      swap1\n      dup2\n      dup2\n      mstore\n      0x20\n      add\n      dup3\n      dup1\n      sload\n      tag_398\n      swap1\n      tag_333\n      jump\t// in\n    tag_398:\n      dup1\n      iszero\n      tag_399\n      jumpi\n      dup1\n      0x1f\n      lt\n      tag_400\n      jumpi\n      0x0100\n      dup1\n      dup4\n      sload\n      div\n      mul\n      dup4\n      mstore\n      swap2\n      0x20\n      add\n      swap2\n      jump(tag_399)\n    tag_400:\n      dup3\n      add\n      swap2\n      swap1\n      0x00\n      mstore\n      keccak256(0x00, 0x20)\n      swap1\n    tag_401:\n      dup2\n      sload\n      dup2\n      mstore\n      swap1\n      0x01\n      add\n      swap1\n      0x20\n      add\n      dup1\n      dup4\n      gt\n      tag_401\n      jumpi\n      dup3\n      swap1\n      sub\n      0x1f\n      and\n      dup3\n      add\n      swap2\n    tag_399:\n      pop\n      pop\n      pop\n      pop\n      pop\n        /* \"v1.sol\":12180:12188  optionBs */\n      dup10\n        /* \"v1.sol\":12189:12190  i */\n      dup4\n        /* \"v1.sol\":12180:12191  optionBs[i] */\n      dup2\n      mload\n      dup2\n      lt\n      tag_403\n      jumpi\n      tag_403\n      tag_239\n      jump\t// in\n    tag_403:\n      0x20\n      mul\n      0x20\n      add\n      add\n        /* \"v1.sol\":12180:12208  optionBs[i] = market.optionB */\n      dup2\n      swap1\n      mstore\n      pop\n        /* \"v1.sol\":12236:12242  market */\n      dup1\n        /* \"v1.sol\":12236:12250  market.endTime */\n      0x01\n      add\n      sload\n        /* \"v1.sol\":12222:12230  endTimes */\n      dup9\n        /* \"v1.sol\":12231:12232  i */\n      dup4\n        /* \"v1.sol\":12222:12233  endTimes[i] */\n      dup2\n      mload\n      dup2\n      lt\n      tag_405\n      jumpi\n      tag_405\n      tag_239\n      jump\t// in\n    tag_405:\n      0x20\n      swap1\n      dup2\n      mul\n      swap2\n      swap1\n      swap2\n      add\n      add\n        /* \"v1.sol\":12222:12250  endTimes[i] = market.endTime */\n      mstore\n        /* \"v1.sol\":12278:12292  market.outcome */\n      0x02\n      dup2\n      add\n      sload\n        /* \"v1.sol\":12264:12275  outcomes[i] */\n      dup8\n      mload\n        /* \"v1.sol\":12278:12292  market.outcome */\n      0xff\n      swap1\n      swap2\n      and\n      swap1\n        /* \"v1.sol\":12264:12272  outcomes */\n      dup9\n      swap1\n        /* \"v1.sol\":12273:12274  i */\n      dup5\n      swap1\n        /* \"v1.sol\":12264:12275  outcomes[i] */\n      dup2\n      lt\n      tag_407\n      jumpi\n      tag_407\n      tag_239\n      jump\t// in\n    tag_407:\n      0x20\n      mul\n      0x20\n      add\n      add\n        /* \"v1.sol\":12264:12292  outcomes[i] = market.outcome */\n      swap1\n      0x02\n      dup2\n      gt\n      iszero\n      tag_409\n      jumpi\n      tag_409\n      tag_216\n      jump\t// in\n    tag_409:\n      swap1\n      dup2\n      0x02\n      dup2\n      gt\n      iszero\n      tag_411\n      jumpi\n      tag_411\n      tag_216\n      jump\t// in\n    tag_411:\n      dup2\n      mstore\n      pop\n      pop\n        /* \"v1.sol\":12335:12341  market */\n      dup1\n        /* \"v1.sol\":12335:12360  market.totalOptionAShares */\n      0x05\n      add\n      sload\n        /* \"v1.sol\":12306:12329  totalOptionASharesArray */\n      dup7\n        /* \"v1.sol\":12330:12331  i */\n      dup4\n        /* \"v1.sol\":12306:12332  totalOptionASharesArray[i] */\n      dup2\n      mload\n      dup2\n      lt\n      tag_413\n      jumpi\n      tag_413\n      tag_239\n      jump\t// in\n    tag_413:\n      0x20\n      mul\n      0x20\n      add\n      add\n        /* \"v1.sol\":12306:12360  totalOptionASharesArray[i] = market.totalOptionAShares */\n      dup2\n      dup2\n      mstore\n      pop\n      pop\n        /* \"v1.sol\":12403:12409  market */\n      dup1\n        /* \"v1.sol\":12403:12428  market.totalOptionBShares */\n      0x06\n      add\n      sload\n        /* \"v1.sol\":12374:12397  totalOptionBSharesArray */\n      dup6\n        /* \"v1.sol\":12398:12399  i */\n      dup4\n        /* \"v1.sol\":12374:12400  totalOptionBSharesArray[i] */\n      dup2\n      mload\n      dup2\n      lt\n      tag_415\n      jumpi\n      tag_415\n      tag_239\n      jump\t// in\n    tag_415:\n      0x20\n      swap1\n      dup2\n      mul\n      swap2\n      swap1\n      swap2\n      add\n      add\n        /* \"v1.sol\":12374:12428  totalOptionBSharesArray[i] = market.totalOptionBShares */\n      mstore\n        /* \"v1.sol\":12461:12476  market.resolved */\n      0x07\n      dup2\n      add\n      sload\n        /* \"v1.sol\":12442:12458  resolvedArray[i] */\n      dup5\n      mload\n        /* \"v1.sol\":12461:12476  market.resolved */\n      0xff\n      swap1\n      swap2\n      and\n      swap1\n        /* \"v1.sol\":12442:12455  resolvedArray */\n      dup6\n      swap1\n        /* \"v1.sol\":12456:12457  i */\n      dup5\n      swap1\n        /* \"v1.sol\":12442:12458  resolvedArray[i] */\n      dup2\n      lt\n      tag_417\n      jumpi\n      tag_417\n      tag_239\n      jump\t// in\n    tag_417:\n        /* \"v1.sol\":12442:12476  resolvedArray[i] = market.resolved */\n      swap2\n      iszero\n      iszero\n        /* \"v1.sol\":12442:12458  resolvedArray[i] */\n      0x20\n      swap3\n      dup4\n      mul\n      swap2\n      swap1\n      swap2\n      add\n      swap1\n      swap2\n      add\n        /* \"v1.sol\":12442:12476  resolvedArray[i] = market.resolved */\n      mstore\n      pop\n        /* \"v1.sol\":12015:12018  i++ */\n      0x01\n      add\n        /* \"v1.sol\":11983:12487  for (uint256 i = 0; i < length; i++) {... */\n      jump(tag_378)\n    tag_379:\n      pop\n        /* \"v1.sol\":11556:12493  {... */\n      pop\n        /* \"v1.sol\":11088:12493  function getMarketInfoBatch(uint256[] calldata _marketIds)... */\n      swap3\n      swap6\n      swap9\n      pop\n      swap3\n      swap6\n      swap9\n      swap1\n      swap4\n      swap7\n      pop\n      jump\t// out\n        /* \"v1.sol\":2734:2985  function grantQuestionCreatorRole(address _account) external onlyOwner {... */\n    tag_120:\n        /* \"@openzeppelin/contracts/access/Ownable.sol\":1531:1544  _checkOwner() */\n      tag_419\n        /* \"@openzeppelin/contracts/access/Ownable.sol\":1531:1542  _checkOwner */\n      tag_283\n        /* \"@openzeppelin/contracts/access/Ownable.sol\":1531:1544  _checkOwner() */\n      jump\t// in\n    tag_419:\n        /* \"@openzeppelin/contracts/access/Ownable.sol\":1684:1691  address */\n      0x00\n        /* \"@openzeppelin/contracts/access/Ownable.sol\":1710:1716  _owner */\n      sload\n      sub(shl(0xa0, 0x01), 0x01)\n      and\n        /* \"v1.sol\":2823:2833  msg.sender */\n      caller\n        /* \"v1.sol\":2823:2844  msg.sender == owner() */\n      eq\n        /* \"v1.sol\":2815:2875  require(msg.sender == owner(), \"Only owner can grant roles\") */\n      tag_422\n      jumpi\n      mload(0x40)\n      shl(0xe5, 0x461bcd)\n      dup2\n      mstore\n        /* \"#utility.yul\":18697:18699   */\n      0x20\n        /* \"v1.sol\":2815:2875  require(msg.sender == owner(), \"Only owner can grant roles\") */\n      0x04\n      dup3\n      add\n        /* \"#utility.yul\":18679:18700   */\n      mstore\n        /* \"#utility.yul\":18736:18738   */\n      0x1a\n        /* \"#utility.yul\":18716:18734   */\n      0x24\n      dup3\n      add\n        /* \"#utility.yul\":18709:18739   */\n      mstore\n        /* \"#utility.yul\":18775:18803   */\n      0x4f6e6c79206f776e65722063616e206772616e7420726f6c6573000000000000\n        /* \"#utility.yul\":18755:18773   */\n      0x44\n      dup3\n      add\n        /* \"#utility.yul\":18748:18804   */\n      mstore\n        /* \"#utility.yul\":18821:18839   */\n      0x64\n      add\n        /* \"v1.sol\":2815:2875  require(msg.sender == owner(), \"Only owner can grant roles\") */\n      tag_206\n        /* \"#utility.yul\":18495:18845   */\n      jump\n        /* \"v1.sol\":2815:2875  require(msg.sender == owner(), \"Only owner can grant roles\") */\n    tag_422:\n        /* \"v1.sol\":2885:2927  grantRole(QUESTION_CREATOR_ROLE, _account) */\n      tag_424\n        /* \"v1.sol\":482:516  keccak256(\"QUESTION_CREATOR_ROLE\") */\n      0xef485be696bbc0c91ad541bbd553ffb5bd0e18dac30ba76e992dda23cb807a8a\n        /* \"v1.sol\":2918:2926  _account */\n      dup3\n        /* \"v1.sol\":2885:2894  grantRole */\n      tag_83\n        /* \"v1.sol\":2885:2927  grantRole(QUESTION_CREATOR_ROLE, _account) */\n      jump\t// in\n    tag_424:\n        /* \"v1.sol\":2942:2978  QuestionCreatorRoleGranted(_account) */\n      mload(0x40)\n      sub(shl(0xa0, 0x01), 0x01)\n      dup3\n      and\n      swap1\n      0xd09af131a5ae3cf07db0755a24028dbf03aced9071495f1baa3b6bb4446ac27a\n      swap1\n      0x00\n      swap1\n      log2\n        /* \"v1.sol\":2734:2985  function grantQuestionCreatorRole(address _account) external onlyOwner {... */\n      pop\n      jump\t// out\n        /* \"@openzeppelin/contracts/access/Ownable.sol\":2293:2394  function renounceOwnership() public virtual onlyOwner {... */\n    tag_122:\n        /* \"@openzeppelin/contracts/access/Ownable.sol\":1531:1544  _checkOwner() */\n      tag_426\n        /* \"@openzeppelin/contracts/access/Ownable.sol\":1531:1542  _checkOwner */\n      tag_283\n        /* \"@openzeppelin/contracts/access/Ownable.sol\":1531:1544  _checkOwner() */\n      jump\t// in\n    tag_426:\n        /* \"@openzeppelin/contracts/access/Ownable.sol\":2357:2387  _transferOwnership(address(0)) */\n      tag_428\n        /* \"@openzeppelin/contracts/access/Ownable.sol\":2384:2385  0 */\n      0x00\n        /* \"@openzeppelin/contracts/access/Ownable.sol\":2357:2375  _transferOwnership */\n      tag_429\n        /* \"@openzeppelin/contracts/access/Ownable.sol\":2357:2387  _transferOwnership(address(0)) */\n      jump\t// in\n    tag_428:\n        /* \"@openzeppelin/contracts/access/Ownable.sol\":2293:2394  function renounceOwnership() public virtual onlyOwner {... */\n      jump\t// out\n        /* \"v1.sol\":8193:8896  function getLeaderboard(uint256 start, uint256 limit) external view returns (LeaderboardEntry[] memory) {... */\n    tag_125:\n        /* \"v1.sol\":8323:8338  allParticipants */\n      0x09\n        /* \"v1.sol\":8323:8345  allParticipants.length */\n      sload\n        /* \"v1.sol\":8270:8295  LeaderboardEntry[] memory */\n      0x60\n      swap1\n        /* \"v1.sol\":8315:8345  start < allParticipants.length */\n      dup4\n      lt\n        /* \"v1.sol\":8307:8375  require(start < allParticipants.length, \"Start index out of bounds\") */\n      tag_431\n      jumpi\n      mload(0x40)\n      shl(0xe5, 0x461bcd)\n      dup2\n      mstore\n        /* \"#utility.yul\":21140:21142   */\n      0x20\n        /* \"v1.sol\":8307:8375  require(start < allParticipants.length, \"Start index out of bounds\") */\n      0x04\n      dup3\n      add\n        /* \"#utility.yul\":21122:21143   */\n      mstore\n        /* \"#utility.yul\":21179:21181   */\n      0x19\n        /* \"#utility.yul\":21159:21177   */\n      0x24\n      dup3\n      add\n        /* \"#utility.yul\":21152:21182   */\n      mstore\n      shl(0x38, 0x537461727420696e646578206f7574206f6620626f756e6473)\n        /* \"#utility.yul\":21198:21216   */\n      0x44\n      dup3\n      add\n        /* \"#utility.yul\":21191:21246   */\n      mstore\n        /* \"#utility.yul\":21263:21281   */\n      0x64\n      add\n        /* \"v1.sol\":8307:8375  require(start < allParticipants.length, \"Start index out of bounds\") */\n      tag_206\n        /* \"#utility.yul\":20938:21287   */\n      jump\n        /* \"v1.sol\":8307:8375  require(start < allParticipants.length, \"Start index out of bounds\") */\n    tag_431:\n        /* \"v1.sol\":8415:8430  allParticipants */\n      0x09\n        /* \"v1.sol\":8415:8437  allParticipants.length */\n      sload\n        /* \"v1.sol\":8385:8396  uint256 end */\n      0x00\n      swap1\n        /* \"v1.sol\":8399:8412  start + limit */\n      tag_434\n        /* \"v1.sol\":8407:8412  limit */\n      dup5\n        /* \"v1.sol\":8399:8404  start */\n      dup7\n        /* \"v1.sol\":8399:8412  start + limit */\n      tag_212\n      jump\t// in\n    tag_434:\n        /* \"v1.sol\":8399:8437  start + limit > allParticipants.length */\n      gt\n        /* \"v1.sol\":8399:8478  start + limit > allParticipants.length ? allParticipants.length : start + limit */\n      tag_435\n      jumpi\n        /* \"v1.sol\":8465:8478  start + limit */\n      tag_436\n        /* \"v1.sol\":8473:8478  limit */\n      dup4\n        /* \"v1.sol\":8465:8470  start */\n      dup6\n        /* \"v1.sol\":8465:8478  start + limit */\n      tag_212\n      jump\t// in\n    tag_436:\n        /* \"v1.sol\":8399:8478  start + limit > allParticipants.length ? allParticipants.length : start + limit */\n      jump(tag_437)\n    tag_435:\n        /* \"v1.sol\":8440:8455  allParticipants */\n      0x09\n        /* \"v1.sol\":8440:8462  allParticipants.length */\n      sload\n        /* \"v1.sol\":8399:8478  start + limit > allParticipants.length ? allParticipants.length : start + limit */\n    tag_437:\n        /* \"v1.sol\":8385:8478  uint256 end = start + limit > allParticipants.length ? allParticipants.length : start + limit */\n      swap1\n      pop\n        /* \"v1.sol\":8488:8521  LeaderboardEntry[] memory entries */\n      0x00\n        /* \"v1.sol\":8547:8558  end - start */\n      tag_438\n        /* \"v1.sol\":8553:8558  start */\n      dup6\n        /* \"v1.sol\":8385:8478  uint256 end = start + limit > allParticipants.length ? allParticipants.length : start + limit */\n      dup4\n        /* \"v1.sol\":8547:8558  end - start */\n      tag_439\n      jump\t// in\n    tag_438:\n      sub(shl(0x40, 0x01), 0x01)\n        /* \"v1.sol\":8524:8559  new LeaderboardEntry[](end - start) */\n      dup2\n      gt\n      iszero\n      tag_441\n      jumpi\n      tag_441\n      tag_352\n      jump\t// in\n    tag_441:\n      mload(0x40)\n      swap1\n      dup1\n      dup3\n      mstore\n      dup1\n      0x20\n      mul\n      0x20\n      add\n      dup3\n      add\n      0x40\n      mstore\n      dup1\n      iszero\n      tag_442\n      jumpi\n      dup2\n      0x20\n      add\n    tag_443:\n      tag_444\n      mload(0x40)\n      dup1\n      0x60\n      add\n      0x40\n      mstore\n      dup1\n      and(sub(shl(0xa0, 0x01), 0x01), 0x00)\n      dup2\n      mstore\n      0x20\n      add\n      0x00\n      dup2\n      mstore\n      0x20\n      add\n      0x00\n      dup2\n      mstore\n      pop\n      swap1\n      jump\n    tag_444:\n      dup2\n      mstore\n      0x20\n      add\n      swap1\n      0x01\n      swap1\n      sub\n      swap1\n      dup2\n      tag_443\n      jumpi\n      swap1\n      pop\n    tag_442:\n      pop\n        /* \"v1.sol\":8488:8559  LeaderboardEntry[] memory entries = new LeaderboardEntry[](end - start) */\n      swap1\n      pop\n        /* \"v1.sol\":8587:8592  start */\n      dup5\n        /* \"v1.sol\":8570:8866  for (uint256 i = start; i < end; i++) {... */\n    tag_446:\n        /* \"v1.sol\":8598:8601  end */\n      dup3\n        /* \"v1.sol\":8594:8595  i */\n      dup2\n        /* \"v1.sol\":8594:8601  i < end */\n      lt\n        /* \"v1.sol\":8570:8866  for (uint256 i = start; i < end; i++) {... */\n      iszero\n      tag_447\n      jumpi\n        /* \"v1.sol\":8622:8634  address user */\n      0x00\n        /* \"v1.sol\":8637:8652  allParticipants */\n      0x09\n        /* \"v1.sol\":8653:8654  i */\n      dup3\n        /* \"v1.sol\":8637:8655  allParticipants[i] */\n      dup2\n      sload\n      dup2\n      lt\n      tag_450\n      jumpi\n      tag_450\n      tag_239\n      jump\t// in\n    tag_450:\n      0x00\n      swap2\n      dup3\n      mstore\n      0x20\n      dup1\n      dup4\n      keccak256\n      swap1\n      swap2\n      add\n      sload\n        /* \"v1.sol\":8690:8855  LeaderboardEntry({... */\n      0x40\n      dup1\n      mload\n      0x60\n      dup2\n      add\n      dup3\n      mstore\n      sub(shl(0xa0, 0x01), 0x01)\n        /* \"v1.sol\":8637:8655  allParticipants[i] */\n      swap1\n      swap3\n      and\n        /* \"v1.sol\":8690:8855  LeaderboardEntry({... */\n      dup1\n      dup4\n      mstore\n        /* \"v1.sol\":8768:8787  totalWinnings[user] */\n      dup1\n      dup6\n      mstore\n        /* \"v1.sol\":8768:8781  totalWinnings */\n      0x07\n        /* \"v1.sol\":8768:8787  totalWinnings[user] */\n      dup5\n      mstore\n      dup2\n      dup6\n      keccak256\n      sload\n        /* \"v1.sol\":8690:8855  LeaderboardEntry({... */\n      dup4\n      dup6\n      add\n      mstore\n        /* \"v1.sol\":8816:8833  voteHistory[user] */\n      dup1\n      dup6\n      mstore\n        /* \"v1.sol\":8816:8827  voteHistory */\n      0x08\n        /* \"v1.sol\":8816:8833  voteHistory[user] */\n      swap1\n      swap4\n      mstore\n      swap3\n      dup4\n      swap1\n      keccak256\n        /* \"v1.sol\":8816:8840  voteHistory[user].length */\n      sload\n        /* \"v1.sol\":8690:8855  LeaderboardEntry({... */\n      swap3\n      dup2\n      add\n      swap3\n      swap1\n      swap3\n      mstore\n        /* \"v1.sol\":8637:8655  allParticipants[i] */\n      swap2\n      pop\n        /* \"v1.sol\":8669:8676  entries */\n      dup4\n        /* \"v1.sol\":8677:8686  i - start */\n      tag_452\n        /* \"v1.sol\":8681:8686  start */\n      dup10\n        /* \"v1.sol\":8677:8678  i */\n      dup6\n        /* \"v1.sol\":8677:8686  i - start */\n      tag_439\n      jump\t// in\n    tag_452:\n        /* \"v1.sol\":8669:8687  entries[i - start] */\n      dup2\n      mload\n      dup2\n      lt\n      tag_454\n      jumpi\n      tag_454\n      tag_239\n      jump\t// in\n    tag_454:\n      0x20\n      swap1\n      dup2\n      mul\n      swap2\n      swap1\n      swap2\n      add\n      add\n        /* \"v1.sol\":8669:8855  entries[i - start] = LeaderboardEntry({... */\n      mstore\n      pop\n        /* \"v1.sol\":8603:8606  i++ */\n      0x01\n      add\n        /* \"v1.sol\":8570:8866  for (uint256 i = start; i < end; i++) {... */\n      jump(tag_446)\n    tag_447:\n      pop\n        /* \"v1.sol\":8882:8889  entries */\n      swap5\n        /* \"v1.sol\":8193:8896  function getLeaderboard(uint256 start, uint256 limit) external view returns (LeaderboardEntry[] memory) {... */\n      swap4\n      pop\n      pop\n      pop\n      pop\n      jump\t// out\n        /* \"v1.sol\":3248:4198  function createMarket(string memory _question, string memory _optionA, string memory _optionB, uint256 _duration)... */\n    tag_134:\n        /* \"v1.sol\":3396:3403  uint256 */\n      0x00\n        /* \"@openzeppelin/contracts/access/Ownable.sol\":1710:1716  _owner */\n      dup1\n      sload\n      sub(shl(0xa0, 0x01), 0x01)\n      and\n        /* \"v1.sol\":3427:3437  msg.sender */\n      caller\n        /* \"v1.sol\":3427:3448  msg.sender == owner() */\n      eq\n      dup1\n        /* \"v1.sol\":3427:3494  msg.sender == owner() || hasRole(QUESTION_CREATOR_ROLE, msg.sender) */\n      tag_458\n      jumpi\n      pop\n        /* \"v1.sol\":3452:3494  hasRole(QUESTION_CREATOR_ROLE, msg.sender) */\n      tag_458\n        /* \"v1.sol\":482:516  keccak256(\"QUESTION_CREATOR_ROLE\") */\n      0xef485be696bbc0c91ad541bbd553ffb5bd0e18dac30ba76e992dda23cb807a8a\n        /* \"v1.sol\":3483:3493  msg.sender */\n      caller\n        /* \"v1.sol\":3452:3459  hasRole */\n      tag_154\n        /* \"v1.sol\":3452:3494  hasRole(QUESTION_CREATOR_ROLE, msg.sender) */\n      jump\t// in\n    tag_458:\n        /* \"v1.sol\":3419:3531  require(msg.sender == owner() || hasRole(QUESTION_CREATOR_ROLE, msg.sender), \"Not authorized to create markets\") */\n      tag_459\n      jumpi\n      mload(0x40)\n      shl(0xe5, 0x461bcd)\n      dup2\n      mstore\n        /* \"#utility.yul\":21627:21629   */\n      0x20\n        /* \"v1.sol\":3419:3531  require(msg.sender == owner() || hasRole(QUESTION_CREATOR_ROLE, msg.sender), \"Not authorized to create markets\") */\n      0x04\n      dup3\n      add\n        /* \"#utility.yul\":21609:21630   */\n      dup2\n      swap1\n      mstore\n        /* \"#utility.yul\":21646:21664   */\n      0x24\n      dup3\n      add\n        /* \"#utility.yul\":21639:21669   */\n      mstore\n        /* \"#utility.yul\":21705:21739   */\n      0x4e6f7420617574686f72697a656420746f20637265617465206d61726b657473\n        /* \"#utility.yul\":21685:21703   */\n      0x44\n      dup3\n      add\n        /* \"#utility.yul\":21678:21740   */\n      mstore\n        /* \"#utility.yul\":21757:21775   */\n      0x64\n      add\n        /* \"v1.sol\":3419:3531  require(msg.sender == owner() || hasRole(QUESTION_CREATOR_ROLE, msg.sender), \"Not authorized to create markets\") */\n      tag_206\n        /* \"#utility.yul\":21425:21781   */\n      jump\n        /* \"v1.sol\":3419:3531  require(msg.sender == owner() || hasRole(QUESTION_CREATOR_ROLE, msg.sender), \"Not authorized to create markets\") */\n    tag_459:\n        /* \"v1.sol\":3561:3562  0 */\n      0x00\n        /* \"v1.sol\":3549:3558  _duration */\n      dup3\n        /* \"v1.sol\":3549:3562  _duration > 0 */\n      gt\n        /* \"v1.sol\":3541:3598  require(_duration > 0, \"Duration must be greater than 0\") */\n      tag_462\n      jumpi\n      mload(0x40)\n      shl(0xe5, 0x461bcd)\n      dup2\n      mstore\n        /* \"#utility.yul\":21988:21990   */\n      0x20\n        /* \"v1.sol\":3541:3598  require(_duration > 0, \"Duration must be greater than 0\") */\n      0x04\n      dup3\n      add\n        /* \"#utility.yul\":21970:21991   */\n      mstore\n        /* \"#utility.yul\":22027:22029   */\n      0x1f\n        /* \"#utility.yul\":22007:22025   */\n      0x24\n      dup3\n      add\n        /* \"#utility.yul\":22000:22030   */\n      mstore\n        /* \"#utility.yul\":22066:22099   */\n      0x4475726174696f6e206d7573742062652067726561746572207468616e203000\n        /* \"#utility.yul\":22046:22064   */\n      0x44\n      dup3\n      add\n        /* \"#utility.yul\":22039:22100   */\n      mstore\n        /* \"#utility.yul\":22117:22135   */\n      0x64\n      add\n        /* \"v1.sol\":3541:3598  require(_duration > 0, \"Duration must be greater than 0\") */\n      tag_206\n        /* \"#utility.yul\":21786:22141   */\n      jump\n        /* \"v1.sol\":3541:3598  require(_duration > 0, \"Duration must be greater than 0\") */\n    tag_462:\n        /* \"v1.sol\":3642:3643  0 */\n      0x00\n        /* \"v1.sol\":3622:3631  _question */\n      dup6\n        /* \"v1.sol\":3616:3639  bytes(_question).length */\n      mload\n        /* \"v1.sol\":3616:3643  bytes(_question).length > 0 */\n      gt\n        /* \"v1.sol\":3608:3672  require(bytes(_question).length > 0, \"Question cannot be empty\") */\n      tag_465\n      jumpi\n      mload(0x40)\n      shl(0xe5, 0x461bcd)\n      dup2\n      mstore\n        /* \"#utility.yul\":22348:22350   */\n      0x20\n        /* \"v1.sol\":3608:3672  require(bytes(_question).length > 0, \"Question cannot be empty\") */\n      0x04\n      dup3\n      add\n        /* \"#utility.yul\":22330:22351   */\n      mstore\n        /* \"#utility.yul\":22387:22389   */\n      0x18\n        /* \"#utility.yul\":22367:22385   */\n      0x24\n      dup3\n      add\n        /* \"#utility.yul\":22360:22390   */\n      mstore\n        /* \"#utility.yul\":22426:22452   */\n      0x5175657374696f6e2063616e6e6f7420626520656d7074790000000000000000\n        /* \"#utility.yul\":22406:22424   */\n      0x44\n      dup3\n      add\n        /* \"#utility.yul\":22399:22453   */\n      mstore\n        /* \"#utility.yul\":22470:22488   */\n      0x64\n      add\n        /* \"v1.sol\":3608:3672  require(bytes(_question).length > 0, \"Question cannot be empty\") */\n      tag_206\n        /* \"#utility.yul\":22146:22494   */\n      jump\n        /* \"v1.sol\":3608:3672  require(bytes(_question).length > 0, \"Question cannot be empty\") */\n    tag_465:\n        /* \"v1.sol\":3715:3716  0 */\n      0x00\n        /* \"v1.sol\":3696:3704  _optionA */\n      dup5\n        /* \"v1.sol\":3690:3712  bytes(_optionA).length */\n      mload\n        /* \"v1.sol\":3690:3716  bytes(_optionA).length > 0 */\n      gt\n        /* \"v1.sol\":3690:3746  bytes(_optionA).length > 0 && bytes(_optionB).length > 0 */\n      dup1\n      iszero\n      tag_468\n      jumpi\n      pop\n        /* \"v1.sol\":3745:3746  0 */\n      0x00\n        /* \"v1.sol\":3726:3734  _optionB */\n      dup4\n        /* \"v1.sol\":3720:3742  bytes(_optionB).length */\n      mload\n        /* \"v1.sol\":3720:3746  bytes(_optionB).length > 0 */\n      gt\n        /* \"v1.sol\":3690:3746  bytes(_optionA).length > 0 && bytes(_optionB).length > 0 */\n    tag_468:\n        /* \"v1.sol\":3682:3774  require(bytes(_optionA).length > 0 && bytes(_optionB).length > 0, \"Options cannot be empty\") */\n      tag_469\n      jumpi\n      mload(0x40)\n      shl(0xe5, 0x461bcd)\n      dup2\n      mstore\n        /* \"#utility.yul\":22701:22703   */\n      0x20\n        /* \"v1.sol\":3682:3774  require(bytes(_optionA).length > 0 && bytes(_optionB).length > 0, \"Options cannot be empty\") */\n      0x04\n      dup3\n      add\n        /* \"#utility.yul\":22683:22704   */\n      mstore\n        /* \"#utility.yul\":22740:22742   */\n      0x17\n        /* \"#utility.yul\":22720:22738   */\n      0x24\n      dup3\n      add\n        /* \"#utility.yul\":22713:22743   */\n      mstore\n        /* \"#utility.yul\":22779:22804   */\n      0x4f7074696f6e732063616e6e6f7420626520656d707479000000000000000000\n        /* \"#utility.yul\":22759:22777   */\n      0x44\n      dup3\n      add\n        /* \"#utility.yul\":22752:22805   */\n      mstore\n        /* \"#utility.yul\":22822:22840   */\n      0x64\n      add\n        /* \"v1.sol\":3682:3774  require(bytes(_optionA).length > 0 && bytes(_optionB).length > 0, \"Options cannot be empty\") */\n      tag_206\n        /* \"#utility.yul\":22499:22846   */\n      jump\n        /* \"v1.sol\":3682:3774  require(bytes(_optionA).length > 0 && bytes(_optionB).length > 0, \"Options cannot be empty\") */\n    tag_469:\n        /* \"v1.sol\":3804:3815  marketCount */\n      0x04\n        /* \"v1.sol\":3804:3817  marketCount++ */\n      dup1\n      sload\n        /* \"v1.sol\":3785:3801  uint256 marketId */\n      0x00\n      swap2\n      dup3\n        /* \"v1.sol\":3804:3817  marketCount++ */\n      tag_472\n      dup4\n      tag_473\n      jump\t// in\n    tag_472:\n      swap1\n      swap2\n      sstore\n      pop\n        /* \"v1.sol\":3827:3848  Market storage market */\n      0x00\n        /* \"v1.sol\":3851:3868  markets[marketId] */\n      dup2\n      dup2\n      mstore\n        /* \"v1.sol\":3851:3858  markets */\n      0x05\n        /* \"v1.sol\":3851:3868  markets[marketId] */\n      0x20\n      mstore\n      0x40\n      swap1\n      keccak256\n        /* \"v1.sol\":3785:3817  uint256 marketId = marketCount++ */\n      swap1\n      swap2\n      pop\n        /* \"v1.sol\":3851:3868  markets[marketId] */\n      dup1\n        /* \"v1.sol\":3878:3905  market.question = _question */\n      tag_474\n        /* \"v1.sol\":3896:3905  _question */\n      dup9\n        /* \"v1.sol\":3851:3868  markets[marketId] */\n      dup3\n        /* \"v1.sol\":3878:3905  market.question = _question */\n      tag_475\n      jump\t// in\n    tag_474:\n      pop\n        /* \"v1.sol\":3915:3929  market.optionA */\n      0x03\n      dup2\n      add\n        /* \"v1.sol\":3915:3940  market.optionA = _optionA */\n      tag_476\n        /* \"v1.sol\":3932:3940  _optionA */\n      dup8\n        /* \"v1.sol\":3915:3929  market.optionA */\n      dup3\n        /* \"v1.sol\":3915:3940  market.optionA = _optionA */\n      tag_475\n      jump\t// in\n    tag_476:\n      pop\n        /* \"v1.sol\":3950:3964  market.optionB */\n      0x04\n      dup2\n      add\n        /* \"v1.sol\":3950:3975  market.optionB = _optionB */\n      tag_477\n        /* \"v1.sol\":3967:3975  _optionB */\n      dup7\n        /* \"v1.sol\":3950:3964  market.optionB */\n      dup3\n        /* \"v1.sol\":3950:3975  market.optionB = _optionB */\n      tag_475\n      jump\t// in\n    tag_477:\n      pop\n        /* \"v1.sol\":4002:4029  block.timestamp + _duration */\n      tag_478\n        /* \"v1.sol\":4020:4029  _duration */\n      dup5\n        /* \"v1.sol\":4002:4017  block.timestamp */\n      timestamp\n        /* \"v1.sol\":4002:4029  block.timestamp + _duration */\n      tag_212\n      jump\t// in\n    tag_478:\n        /* \"v1.sol\":3985:3999  market.endTime */\n      0x01\n      dup3\n      add\n        /* \"v1.sol\":3985:4029  market.endTime = block.timestamp + _duration */\n      dup2\n      swap1\n      sstore\n        /* \"v1.sol\":4039:4053  market.outcome */\n      0x02\n      dup3\n      add\n        /* \"v1.sol\":4039:4080  market.outcome = MarketOutcome.UNRESOLVED */\n      dup1\n      sload\n      not(0xff)\n      and\n      swap1\n      sstore\n        /* \"v1.sol\":4096:4166  MarketCreated(marketId, _question, _optionA, _optionB, market.endTime) */\n      mload(0x40)\n        /* \"v1.sol\":4110:4118  marketId */\n      dup4\n      swap2\n        /* \"v1.sol\":4096:4166  MarketCreated(marketId, _question, _optionA, _optionB, market.endTime) */\n      0xa2d123850430ad736c7d9b724e8f4ac57a15f478145540d7d4f9e01af14147f6\n      swap2\n      tag_481\n      swap2\n        /* \"v1.sol\":4120:4129  _question */\n      dup12\n      swap2\n        /* \"v1.sol\":4131:4139  _optionA */\n      dup12\n      swap2\n        /* \"v1.sol\":4141:4149  _optionB */\n      dup12\n      swap2\n        /* \"v1.sol\":4096:4166  MarketCreated(marketId, _question, _optionA, _optionB, market.endTime) */\n      tag_482\n      jump\t// in\n    tag_481:\n      mload(0x40)\n      dup1\n      swap2\n      sub\n      swap1\n      log2\n      pop\n        /* \"v1.sol\":4183:4191  marketId */\n      swap6\n        /* \"v1.sol\":3248:4198  function createMarket(string memory _question, string memory _optionA, string memory _optionB, uint256 _duration)... */\n      swap5\n      pop\n      pop\n      pop\n      pop\n      pop\n      jump\t// out\n        /* \"v1.sol\":8902:9396  function getVoteHistory(address user, uint256 start, uint256 limit) external view returns (Vote[] memory) {... */\n    tag_149:\n      sub(shl(0xa0, 0x01), 0x01)\n        /* \"v1.sol\":9041:9058  voteHistory[user] */\n      dup4\n      and\n        /* \"v1.sol\":9018:9038  Vote[] storage votes */\n      0x00\n        /* \"v1.sol\":9041:9058  voteHistory[user] */\n      swap1\n      dup2\n      mstore\n        /* \"v1.sol\":9041:9052  voteHistory */\n      0x08\n        /* \"v1.sol\":9041:9058  voteHistory[user] */\n      0x20\n      mstore\n      0x40\n      swap1\n      keccak256\n        /* \"v1.sol\":9084:9096  votes.length */\n      dup1\n      sload\n        /* \"v1.sol\":8993:9006  Vote[] memory */\n      0x60\n      swap2\n        /* \"v1.sol\":9041:9058  voteHistory[user] */\n      swap1\n        /* \"v1.sol\":9076:9096  start < votes.length */\n      dup5\n      lt\n        /* \"v1.sol\":9068:9126  require(start < votes.length, \"Start index out of bounds\") */\n      tag_485\n      jumpi\n      mload(0x40)\n      shl(0xe5, 0x461bcd)\n      dup2\n      mstore\n        /* \"#utility.yul\":21140:21142   */\n      0x20\n        /* \"v1.sol\":9068:9126  require(start < votes.length, \"Start index out of bounds\") */\n      0x04\n      dup3\n      add\n        /* \"#utility.yul\":21122:21143   */\n      mstore\n        /* \"#utility.yul\":21179:21181   */\n      0x19\n        /* \"#utility.yul\":21159:21177   */\n      0x24\n      dup3\n      add\n        /* \"#utility.yul\":21152:21182   */\n      mstore\n      shl(0x38, 0x537461727420696e646578206f7574206f6620626f756e6473)\n        /* \"#utility.yul\":21198:21216   */\n      0x44\n      dup3\n      add\n        /* \"#utility.yul\":21191:21246   */\n      mstore\n        /* \"#utility.yul\":21263:21281   */\n      0x64\n      add\n        /* \"v1.sol\":9068:9126  require(start < votes.length, \"Start index out of bounds\") */\n      tag_206\n        /* \"#utility.yul\":20938:21287   */\n      jump\n        /* \"v1.sol\":9068:9126  require(start < votes.length, \"Start index out of bounds\") */\n    tag_485:\n        /* \"v1.sol\":9166:9178  votes.length */\n      dup1\n      sload\n        /* \"v1.sol\":9136:9147  uint256 end */\n      0x00\n      swap1\n        /* \"v1.sol\":9150:9163  start + limit */\n      tag_487\n        /* \"v1.sol\":9158:9163  limit */\n      dup6\n        /* \"v1.sol\":9150:9155  start */\n      dup8\n        /* \"v1.sol\":9150:9163  start + limit */\n      tag_212\n      jump\t// in\n    tag_487:\n        /* \"v1.sol\":9150:9178  start + limit > votes.length */\n      gt\n        /* \"v1.sol\":9150:9209  start + limit > votes.length ? votes.length : start + limit */\n      tag_488\n      jumpi\n        /* \"v1.sol\":9196:9209  start + limit */\n      tag_489\n        /* \"v1.sol\":9204:9209  limit */\n      dup5\n        /* \"v1.sol\":9196:9201  start */\n      dup7\n        /* \"v1.sol\":9196:9209  start + limit */\n      tag_212\n      jump\t// in\n    tag_489:\n        /* \"v1.sol\":9150:9209  start + limit > votes.length ? votes.length : start + limit */\n      jump(tag_490)\n    tag_488:\n        /* \"v1.sol\":9181:9193  votes.length */\n      dup2\n      sload\n        /* \"v1.sol\":9150:9209  start + limit > votes.length ? votes.length : start + limit */\n    tag_490:\n        /* \"v1.sol\":9136:9209  uint256 end = start + limit > votes.length ? votes.length : start + limit */\n      swap1\n      pop\n        /* \"v1.sol\":9219:9239  Vote[] memory result */\n      0x00\n        /* \"v1.sol\":9253:9264  end - start */\n      tag_491\n        /* \"v1.sol\":9259:9264  start */\n      dup7\n        /* \"v1.sol\":9136:9209  uint256 end = start + limit > votes.length ? votes.length : start + limit */\n      dup4\n        /* \"v1.sol\":9253:9264  end - start */\n      tag_439\n      jump\t// in\n    tag_491:\n      sub(shl(0x40, 0x01), 0x01)\n        /* \"v1.sol\":9242:9265  new Vote[](end - start) */\n      dup2\n      gt\n      iszero\n      tag_493\n      jumpi\n      tag_493\n      tag_352\n      jump\t// in\n    tag_493:\n      mload(0x40)\n      swap1\n      dup1\n      dup3\n      mstore\n      dup1\n      0x20\n      mul\n      0x20\n      add\n      dup3\n      add\n      0x40\n      mstore\n      dup1\n      iszero\n      tag_494\n      jumpi\n      dup2\n      0x20\n      add\n    tag_495:\n      tag_496\n      mload(0x40)\n      dup1\n      0x80\n      add\n      0x40\n      mstore\n      dup1\n      0x00\n      dup2\n      mstore\n      0x20\n      add\n      iszero(iszero(0x00))\n      dup2\n      mstore\n      0x20\n      add\n      0x00\n      dup2\n      mstore\n      0x20\n      add\n      0x00\n      dup2\n      mstore\n      pop\n      swap1\n      jump\n    tag_496:\n      dup2\n      mstore\n      0x20\n      add\n      swap1\n      0x01\n      swap1\n      sub\n      swap1\n      dup2\n      tag_495\n      jumpi\n      swap1\n      pop\n    tag_494:\n      pop\n        /* \"v1.sol\":9219:9265  Vote[] memory result = new Vote[](end - start) */\n      swap1\n      pop\n        /* \"v1.sol\":9293:9298  start */\n      dup6\n        /* \"v1.sol\":9276:9367  for (uint256 i = start; i < end; i++) {... */\n    tag_498:\n        /* \"v1.sol\":9304:9307  end */\n      dup3\n        /* \"v1.sol\":9300:9301  i */\n      dup2\n        /* \"v1.sol\":9300:9307  i < end */\n      lt\n        /* \"v1.sol\":9276:9367  for (uint256 i = start; i < end; i++) {... */\n      iszero\n      tag_499\n      jumpi\n        /* \"v1.sol\":9348:9353  votes */\n      dup4\n        /* \"v1.sol\":9354:9355  i */\n      dup2\n        /* \"v1.sol\":9348:9356  votes[i] */\n      dup2\n      sload\n      dup2\n      lt\n      tag_502\n      jumpi\n      tag_502\n      tag_239\n      jump\t// in\n    tag_502:\n      0x00\n      swap2\n      dup3\n      mstore\n      0x20\n      swap2\n      dup3\n      swap1\n      keccak256\n        /* \"v1.sol\":9328:9356  result[i - start] = votes[i] */\n      0x40\n      dup1\n      mload\n      0x80\n      dup2\n      add\n      dup3\n      mstore\n        /* \"v1.sol\":9348:9356  votes[i] */\n      0x04\n      swap1\n      swap4\n      mul\n      swap1\n      swap2\n      add\n        /* \"v1.sol\":9328:9356  result[i - start] = votes[i] */\n      dup1\n      sload\n      dup4\n      mstore\n      0x01\n      dup2\n      add\n      sload\n      0xff\n      and\n      iszero\n      iszero\n      swap4\n      dup4\n      add\n      swap4\n      swap1\n      swap4\n      mstore\n      0x02\n      dup4\n      add\n      sload\n      swap1\n      dup3\n      add\n      mstore\n      0x03\n      swap1\n      swap2\n      add\n      sload\n      0x60\n      dup3\n      add\n      mstore\n        /* \"v1.sol\":9328:9334  result */\n      dup3\n        /* \"v1.sol\":9335:9344  i - start */\n      tag_504\n        /* \"v1.sol\":9339:9344  start */\n      dup10\n        /* \"v1.sol\":9335:9336  i */\n      dup5\n        /* \"v1.sol\":9335:9344  i - start */\n      tag_439\n      jump\t// in\n    tag_504:\n        /* \"v1.sol\":9328:9345  result[i - start] */\n      dup2\n      mload\n      dup2\n      lt\n      tag_506\n      jumpi\n      tag_506\n      tag_239\n      jump\t// in\n    tag_506:\n      0x20\n      swap1\n      dup2\n      mul\n      swap2\n      swap1\n      swap2\n      add\n      add\n        /* \"v1.sol\":9328:9356  result[i - start] = votes[i] */\n      mstore\n        /* \"v1.sol\":9309:9312  i++ */\n      0x01\n      add\n        /* \"v1.sol\":9276:9367  for (uint256 i = start; i < end; i++) {... */\n      jump(tag_498)\n    tag_499:\n      pop\n        /* \"v1.sol\":9383:9389  result */\n      swap7\n        /* \"v1.sol\":8902:9396  function getVoteHistory(address user, uint256 start, uint256 limit) external view returns (Vote[] memory) {... */\n      swap6\n      pop\n      pop\n      pop\n      pop\n      pop\n      pop\n      jump\t// out\n        /* \"@openzeppelin/contracts/access/AccessControl.sol\":2830:2966  function hasRole(bytes32 role, address account) public view virtual returns (bool) {... */\n    tag_154:\n        /* \"@openzeppelin/contracts/access/AccessControl.sol\":2907:2911  bool */\n      0x00\n        /* \"@openzeppelin/contracts/access/AccessControl.sol\":2930:2942  _roles[role] */\n      swap2\n      dup3\n      mstore\n        /* \"@openzeppelin/contracts/access/AccessControl.sol\":2930:2936  _roles */\n      0x02\n        /* \"@openzeppelin/contracts/access/AccessControl.sol\":2930:2942  _roles[role] */\n      0x20\n      swap1\n      dup2\n      mstore\n      0x40\n      dup1\n      dup5\n      keccak256\n      sub(shl(0xa0, 0x01), 0x01)\n        /* \"@openzeppelin/contracts/access/AccessControl.sol\":2930:2959  _roles[role].hasRole[account] */\n      swap4\n      swap1\n      swap4\n      and\n      dup5\n      mstore\n      swap2\n      swap1\n      mstore\n      swap1\n      keccak256\n      sload\n      0xff\n      and\n      swap1\n        /* \"@openzeppelin/contracts/access/AccessControl.sol\":2830:2966  function hasRole(bytes32 role, address account) public view virtual returns (bool) {... */\n      jump\t// out\n        /* \"v1.sol\":1478:1519  mapping(uint256 => Market) public markets */\n    tag_161:\n      mstore(0x20, 0x05)\n      0x00\n      swap1\n      dup2\n      mstore\n      0x40\n      swap1\n      keccak256\n      dup1\n      sload\n      dup2\n      swap1\n      tag_508\n      swap1\n      tag_333\n      jump\t// in\n    tag_508:\n      dup1\n      0x1f\n      add\n      0x20\n      dup1\n      swap2\n      div\n      mul\n      0x20\n      add\n      mload(0x40)\n      swap1\n      dup2\n      add\n      0x40\n      mstore\n      dup1\n      swap3\n      swap2\n      swap1\n      dup2\n      dup2\n      mstore\n      0x20\n      add\n      dup3\n      dup1\n      sload\n      tag_509\n      swap1\n      tag_333\n      jump\t// in\n    tag_509:\n      dup1\n      iszero\n      tag_510\n      jumpi\n      dup1\n      0x1f\n      lt\n      tag_511\n      jumpi\n      0x0100\n      dup1\n      dup4\n      sload\n      div\n      mul\n      dup4\n      mstore\n      swap2\n      0x20\n      add\n      swap2\n      jump(tag_510)\n    tag_511:\n      dup3\n      add\n      swap2\n      swap1\n      0x00\n      mstore\n      keccak256(0x00, 0x20)\n      swap1\n    tag_512:\n      dup2\n      sload\n      dup2\n      mstore\n      swap1\n      0x01\n      add\n      swap1\n      0x20\n      add\n      dup1\n      dup4\n      gt\n      tag_512\n      jumpi\n      dup3\n      swap1\n      sub\n      0x1f\n      and\n      dup3\n      add\n      swap2\n    tag_510:\n      pop\n      pop\n      pop\n      pop\n      0x01\n      dup4\n      add\n      sload\n      0x02\n      dup5\n      add\n      sload\n      0x03\n      dup6\n      add\n      dup1\n      sload\n      swap5\n      swap6\n      swap3\n      swap5\n      0xff\n      swap1\n      swap3\n      and\n      swap4\n      pop\n      swap1\n      tag_513\n      swap1\n      tag_333\n      jump\t// in\n    tag_513:\n      dup1\n      0x1f\n      add\n      0x20\n      dup1\n      swap2\n      div\n      mul\n      0x20\n      add\n      mload(0x40)\n      swap1\n      dup2\n      add\n      0x40\n      mstore\n      dup1\n      swap3\n      swap2\n      swap1\n      dup2\n      dup2\n      mstore\n      0x20\n      add\n      dup3\n      dup1\n      sload\n      tag_514\n      swap1\n      tag_333\n      jump\t// in\n    tag_514:\n      dup1\n      iszero\n      tag_515\n      jumpi\n      dup1\n      0x1f\n      lt\n      tag_516\n      jumpi\n      0x0100\n      dup1\n      dup4\n      sload\n      div\n      mul\n      dup4\n      mstore\n      swap2\n      0x20\n      add\n      swap2\n      jump(tag_515)\n    tag_516:\n      dup3\n      add\n      swap2\n      swap1\n      0x00\n      mstore\n      keccak256(0x00, 0x20)\n      swap1\n    tag_517:\n      dup2\n      sload\n      dup2\n      mstore\n      swap1\n      0x01\n      add\n      swap1\n      0x20\n      add\n      dup1\n      dup4\n      gt\n      tag_517\n      jumpi\n      dup3\n      swap1\n      sub\n      0x1f\n      and\n      dup3\n      add\n      swap2\n    tag_515:\n      pop\n      pop\n      pop\n      pop\n      pop\n      swap1\n      dup1\n      0x04\n      add\n      dup1\n      sload\n      tag_518\n      swap1\n      tag_333\n      jump\t// in\n    tag_518:\n      dup1\n      0x1f\n      add\n      0x20\n      dup1\n      swap2\n      div\n      mul\n      0x20\n      add\n      mload(0x40)\n      swap1\n      dup2\n      add\n      0x40\n      mstore\n      dup1\n      swap3\n      swap2\n      swap1\n      dup2\n      dup2\n      mstore\n      0x20\n      add\n      dup3\n      dup1\n      sload\n      tag_519\n      swap1\n      tag_333\n      jump\t// in\n    tag_519:\n      dup1\n      iszero\n      tag_520\n      jumpi\n      dup1\n      0x1f\n      lt\n      tag_521\n      jumpi\n      0x0100\n      dup1\n      dup4\n      sload\n      div\n      mul\n      dup4\n      mstore\n      swap2\n      0x20\n      add\n      swap2\n      jump(tag_520)\n    tag_521:\n      dup3\n      add\n      swap2\n      swap1\n      0x00\n      mstore\n      keccak256(0x00, 0x20)\n      swap1\n    tag_522:\n      dup2\n      sload\n      dup2\n      mstore\n      swap1\n      0x01\n      add\n      swap1\n      0x20\n      add\n      dup1\n      dup4\n      gt\n      tag_522\n      jumpi\n      dup3\n      swap1\n      sub\n      0x1f\n      and\n      dup3\n      add\n      swap2\n    tag_520:\n      pop\n      pop\n      pop\n      0x05\n      dup5\n      add\n      sload\n      0x06\n      dup6\n      add\n      sload\n      0x07\n      dup7\n      add\n      sload\n      0x0c\n      swap1\n      swap7\n      add\n      sload\n      swap5\n      swap6\n      swap2\n      swap5\n      swap1\n      swap4\n      pop\n      0xff\n      swap1\n      swap2\n      and\n      swap2\n      pop\n      dup10\n      jump\t// out\n        /* \"@openzeppelin/contracts/access/AccessControl.sol\":4618:4756  function revokeRole(bytes32 role, address account) public virtual onlyRole(getRoleAdmin(role)) {... */\n    tag_170:\n        /* \"@openzeppelin/contracts/access/AccessControl.sol\":3851:3858  bytes32 */\n      0x00\n        /* \"@openzeppelin/contracts/access/AccessControl.sol\":3877:3889  _roles[role] */\n      dup3\n      dup2\n      mstore\n        /* \"@openzeppelin/contracts/access/AccessControl.sol\":3877:3883  _roles */\n      0x02\n        /* \"@openzeppelin/contracts/access/AccessControl.sol\":3877:3889  _roles[role] */\n      0x20\n      mstore\n      0x40\n      swap1\n      keccak256\n        /* \"@openzeppelin/contracts/access/AccessControl.sol\":3877:3899  _roles[role].adminRole */\n      0x01\n      add\n      sload\n        /* \"@openzeppelin/contracts/access/AccessControl.sol\":2473:2489  _checkRole(role) */\n      tag_525\n        /* \"@openzeppelin/contracts/access/AccessControl.sol\":2484:2488  role */\n      dup2\n        /* \"@openzeppelin/contracts/access/AccessControl.sol\":2473:2483  _checkRole */\n      tag_276\n        /* \"@openzeppelin/contracts/access/AccessControl.sol\":2473:2489  _checkRole(role) */\n      jump\t// in\n    tag_525:\n        /* \"@openzeppelin/contracts/access/AccessControl.sol\":4723:4749  _revokeRole(role, account) */\n      tag_278\n        /* \"@openzeppelin/contracts/access/AccessControl.sol\":4735:4739  role */\n      dup4\n        /* \"@openzeppelin/contracts/access/AccessControl.sol\":4741:4748  account */\n      dup4\n        /* \"@openzeppelin/contracts/access/AccessControl.sol\":4723:4734  _revokeRole */\n      tag_295\n        /* \"@openzeppelin/contracts/access/AccessControl.sol\":4723:4749  _revokeRole(role, account) */\n      jump\t// in\n        /* \"v1.sol\":5561:6246  function resolveMarket(uint256 _marketId, MarketOutcome _outcome) external {... */\n    tag_174:\n        /* \"@openzeppelin/contracts/access/Ownable.sol\":1684:1691  address */\n      0x00\n        /* \"@openzeppelin/contracts/access/Ownable.sol\":1710:1716  _owner */\n      sload\n      sub(shl(0xa0, 0x01), 0x01)\n      and\n        /* \"v1.sol\":5654:5664  msg.sender */\n      caller\n        /* \"v1.sol\":5654:5675  msg.sender == owner() */\n      eq\n      dup1\n        /* \"v1.sol\":5654:5721  msg.sender == owner() || hasRole(QUESTION_RESOLVE_ROLE, msg.sender) */\n      tag_531\n      jumpi\n      pop\n        /* \"v1.sol\":5679:5721  hasRole(QUESTION_RESOLVE_ROLE, msg.sender) */\n      tag_531\n      mload(0x00)\n      codecopy(0x00, data_dbe7ce371369c08dbc42c9c8a71c2316d4700de8ace8bc367af35ac832676709, 0x20)\n      mload(0x00)\n      swap1\n      0x00\n      mstore\n        /* \"v1.sol\":5710:5720  msg.sender */\n      caller\n        /* \"v1.sol\":5679:5686  hasRole */\n      tag_154\n        /* \"v1.sol\":5679:5721  hasRole(QUESTION_RESOLVE_ROLE, msg.sender) */\n      jump\t// in\n    tag_531:\n        /* \"v1.sol\":5646:5759  require(msg.sender == owner() || hasRole(QUESTION_RESOLVE_ROLE, msg.sender), \"Not authorized to resolve markets\") */\n      tag_532\n      jumpi\n      mload(0x40)\n      shl(0xe5, 0x461bcd)\n      dup2\n      mstore\n      0x04\n      add\n      tag_206\n      swap1\n      tag_207\n      jump\t// in\n    tag_532:\n        /* \"v1.sol\":5769:5790  Market storage market */\n      0x00\n        /* \"v1.sol\":5793:5811  markets[_marketId] */\n      dup3\n      dup2\n      mstore\n        /* \"v1.sol\":5793:5800  markets */\n      0x05\n        /* \"v1.sol\":5793:5811  markets[_marketId] */\n      0x20\n      mstore\n      0x40\n      swap1\n      keccak256\n        /* \"v1.sol\":5848:5862  market.endTime */\n      0x01\n      dup2\n      add\n      sload\n        /* \"v1.sol\":5829:5844  block.timestamp */\n      timestamp\n        /* \"v1.sol\":5829:5862  block.timestamp >= market.endTime */\n      lt\n      iszero\n        /* \"v1.sol\":5821:5891  require(block.timestamp >= market.endTime, \"Market has not ended yet\") */\n      tag_534\n      jumpi\n      mload(0x40)\n      shl(0xe5, 0x461bcd)\n      dup2\n      mstore\n        /* \"#utility.yul\":25941:25943   */\n      0x20\n        /* \"v1.sol\":5821:5891  require(block.timestamp >= market.endTime, \"Market has not ended yet\") */\n      0x04\n      dup3\n      add\n        /* \"#utility.yul\":25923:25944   */\n      mstore\n        /* \"#utility.yul\":25980:25982   */\n      0x18\n        /* \"#utility.yul\":25960:25978   */\n      0x24\n      dup3\n      add\n        /* \"#utility.yul\":25953:25983   */\n      mstore\n        /* \"#utility.yul\":26019:26045   */\n      0x4d61726b657420686173206e6f7420656e646564207965740000000000000000\n        /* \"#utility.yul\":25999:26017   */\n      0x44\n      dup3\n      add\n        /* \"#utility.yul\":25992:26046   */\n      mstore\n        /* \"#utility.yul\":26063:26081   */\n      0x64\n      add\n        /* \"v1.sol\":5821:5891  require(block.timestamp >= market.endTime, \"Market has not ended yet\") */\n      tag_206\n        /* \"#utility.yul\":25739:26087   */\n      jump\n        /* \"v1.sol\":5821:5891  require(block.timestamp >= market.endTime, \"Market has not ended yet\") */\n    tag_534:\n        /* \"v1.sol\":5910:5925  market.resolved */\n      0x07\n      dup2\n      add\n      sload\n      0xff\n      and\n        /* \"v1.sol\":5909:5925  !market.resolved */\n      iszero\n        /* \"v1.sol\":5901:5956  require(!market.resolved, \"Market is already resolved\") */\n      tag_537\n      jumpi\n      mload(0x40)\n      shl(0xe5, 0x461bcd)\n      dup2\n      mstore\n        /* \"#utility.yul\":26294:26296   */\n      0x20\n        /* \"v1.sol\":5901:5956  require(!market.resolved, \"Market is already resolved\") */\n      0x04\n      dup3\n      add\n        /* \"#utility.yul\":26276:26297   */\n      mstore\n        /* \"#utility.yul\":26333:26335   */\n      0x1a\n        /* \"#utility.yul\":26313:26331   */\n      0x24\n      dup3\n      add\n        /* \"#utility.yul\":26306:26336   */\n      mstore\n        /* \"#utility.yul\":26372:26400   */\n      0x4d61726b657420697320616c7265616479207265736f6c766564000000000000\n        /* \"#utility.yul\":26352:26370   */\n      0x44\n      dup3\n      add\n        /* \"#utility.yul\":26345:26401   */\n      mstore\n        /* \"#utility.yul\":26418:26436   */\n      0x64\n      add\n        /* \"v1.sol\":5901:5956  require(!market.resolved, \"Market is already resolved\") */\n      tag_206\n        /* \"#utility.yul\":26092:26442   */\n      jump\n        /* \"v1.sol\":5901:5956  require(!market.resolved, \"Market is already resolved\") */\n    tag_537:\n        /* \"v1.sol\":5986:6010  MarketOutcome.UNRESOLVED */\n      0x00\n        /* \"v1.sol\":5974:5982  _outcome */\n      dup3\n        /* \"v1.sol\":5974:6010  _outcome != MarketOutcome.UNRESOLVED */\n      0x02\n      dup2\n      gt\n      iszero\n      tag_543\n      jumpi\n      tag_543\n      tag_216\n      jump\t// in\n    tag_543:\n      sub\n        /* \"v1.sol\":5966:6030  require(_outcome != MarketOutcome.UNRESOLVED, \"Invalid outcome\") */\n      tag_544\n      jumpi\n      mload(0x40)\n      shl(0xe5, 0x461bcd)\n      dup2\n      mstore\n        /* \"#utility.yul\":26649:26651   */\n      0x20\n        /* \"v1.sol\":5966:6030  require(_outcome != MarketOutcome.UNRESOLVED, \"Invalid outcome\") */\n      0x04\n      dup3\n      add\n        /* \"#utility.yul\":26631:26652   */\n      mstore\n        /* \"#utility.yul\":26688:26690   */\n      0x0f\n        /* \"#utility.yul\":26668:26686   */\n      0x24\n      dup3\n      add\n        /* \"#utility.yul\":26661:26691   */\n      mstore\n      shl(0x88, 0x496e76616c6964206f7574636f6d65)\n        /* \"#utility.yul\":26707:26725   */\n      0x44\n      dup3\n      add\n        /* \"#utility.yul\":26700:26745   */\n      mstore\n        /* \"#utility.yul\":26762:26780   */\n      0x64\n      add\n        /* \"v1.sol\":5966:6030  require(_outcome != MarketOutcome.UNRESOLVED, \"Invalid outcome\") */\n      tag_206\n        /* \"#utility.yul\":26447:26786   */\n      jump\n        /* \"v1.sol\":5966:6030  require(_outcome != MarketOutcome.UNRESOLVED, \"Invalid outcome\") */\n    tag_544:\n        /* \"v1.sol\":6058:6066  _outcome */\n      dup2\n        /* \"v1.sol\":6041:6047  market */\n      dup2\n        /* \"v1.sol\":6041:6055  market.outcome */\n      0x02\n      add\n      0x00\n        /* \"v1.sol\":6041:6066  market.outcome = _outcome */\n      0x0100\n      exp\n      dup2\n      sload\n      dup2\n      0xff\n      mul\n      not\n      and\n      swap1\n      dup4\n      0x02\n      dup2\n      gt\n      iszero\n      tag_548\n      jumpi\n      tag_548\n      tag_216\n      jump\t// in\n    tag_548:\n      mul\n      or\n      swap1\n      sstore\n      pop\n        /* \"v1.sol\":6076:6091  market.resolved */\n      0x07\n      dup2\n      add\n        /* \"v1.sol\":6076:6098  market.resolved = true */\n      dup1\n      sload\n      not(0xff)\n      and\n        /* \"v1.sol\":6094:6098  true */\n      0x01\n        /* \"v1.sol\":6076:6098  market.resolved = true */\n      or\n      swap1\n      sstore\n        /* \"v1.sol\":6157:6182  market.totalOptionAShares */\n      0x05\n      dup2\n      add\n      sload\n        /* \"v1.sol\":6184:6209  market.totalOptionBShares */\n      0x06\n      dup3\n      add\n      sload\n        /* \"v1.sol\":6211:6230  market.participants */\n      0x0b\n      dup4\n      add\n        /* \"v1.sol\":6211:6237  market.participants.length */\n      sload\n        /* \"v1.sol\":6113:6238  MarketResolvedDetailed(_marketId, _outcome, market.totalOptionAShares, market.totalOptionBShares, market.participants.length) */\n      mload(0x40)\n        /* \"v1.sol\":6136:6145  _marketId */\n      dup7\n      swap4\n        /* \"v1.sol\":6113:6238  MarketResolvedDetailed(_marketId, _outcome, market.totalOptionAShares, market.totalOptionBShares, market.participants.length) */\n      0x7f873a806061058da82f5e998782021c8613f1bfc3afdcc3c1d6217ced6e0306\n      swap4\n      tag_549\n      swap4\n        /* \"v1.sol\":6147:6155  _outcome */\n      dup9\n      swap4\n        /* \"v1.sol\":6113:6238  MarketResolvedDetailed(_marketId, _outcome, market.totalOptionAShares, market.totalOptionBShares, market.participants.length) */\n      tag_550\n      jump\t// in\n    tag_549:\n      mload(0x40)\n      dup1\n      swap2\n      sub\n      swap1\n      log2\n        /* \"v1.sol\":5636:6246  {... */\n      pop\n        /* \"v1.sol\":5561:6246  function resolveMarket(uint256 _marketId, MarketOutcome _outcome) external {... */\n      pop\n      pop\n      jump\t// out\n        /* \"@openzeppelin/contracts/access/Ownable.sol\":2543:2758  function transferOwnership(address newOwner) public virtual onlyOwner {... */\n    tag_180:\n        /* \"@openzeppelin/contracts/access/Ownable.sol\":1531:1544  _checkOwner() */\n      tag_552\n        /* \"@openzeppelin/contracts/access/Ownable.sol\":1531:1542  _checkOwner */\n      tag_283\n        /* \"@openzeppelin/contracts/access/Ownable.sol\":1531:1544  _checkOwner() */\n      jump\t// in\n    tag_552:\n      sub(shl(0xa0, 0x01), 0x01)\n        /* \"@openzeppelin/contracts/access/Ownable.sol\":2627:2649  newOwner == address(0) */\n      dup2\n      and\n        /* \"@openzeppelin/contracts/access/Ownable.sol\":2623:2714  if (newOwner == address(0)) {... */\n      tag_554\n      jumpi\n        /* \"@openzeppelin/contracts/access/Ownable.sol\":2672:2703  OwnableInvalidOwner(address(0)) */\n      mload(0x40)\n      shl(0xe0, 0x1e4fbdf7)\n      dup2\n      mstore\n        /* \"@openzeppelin/contracts/access/Ownable.sol\":2700:2701  0 */\n      0x00\n        /* \"@openzeppelin/contracts/access/Ownable.sol\":2672:2703  OwnableInvalidOwner(address(0)) */\n      0x04\n      dup3\n      add\n        /* \"#utility.yul\":1610:1661   */\n      mstore\n        /* \"#utility.yul\":1583:1601   */\n      0x24\n      add\n        /* \"@openzeppelin/contracts/access/Ownable.sol\":2672:2703  OwnableInvalidOwner(address(0)) */\n      tag_206\n        /* \"#utility.yul\":1464:1667   */\n      jump\n        /* \"@openzeppelin/contracts/access/Ownable.sol\":2623:2714  if (newOwner == address(0)) {... */\n    tag_554:\n        /* \"@openzeppelin/contracts/access/Ownable.sol\":2723:2751  _transferOwnership(newOwner) */\n      tag_556\n        /* \"@openzeppelin/contracts/access/Ownable.sol\":2742:2750  newOwner */\n      dup2\n        /* \"@openzeppelin/contracts/access/Ownable.sol\":2723:2741  _transferOwnership */\n      tag_429\n        /* \"@openzeppelin/contracts/access/Ownable.sol\":2723:2751  _transferOwnership(newOwner) */\n      jump\t// in\n    tag_556:\n        /* \"@openzeppelin/contracts/access/Ownable.sol\":2543:2758  function transferOwnership(address newOwner) public virtual onlyOwner {... */\n      pop\n      jump\t// out\n        /* \"v1.sol\":1679:1724  mapping(address => Vote[]) public voteHistory */\n    tag_184:\n      mstore(0x20, 0x08)\n      dup2\n      0x00\n      mstore\n      keccak256(0x00, 0x40)\n      dup2\n      dup2\n      sload\n      dup2\n      lt\n      tag_557\n      jumpi\n      0x00\n      dup1\n      revert\n    tag_557:\n      0x00\n      swap2\n      dup3\n      mstore\n      0x20\n      swap1\n      swap2\n      keccak256\n      0x04\n      swap1\n      swap2\n      mul\n      add\n      dup1\n      sload\n      0x01\n      dup3\n      add\n      sload\n      0x02\n      dup4\n      add\n      sload\n      0x03\n      swap1\n      swap4\n      add\n      sload\n      swap2\n      swap5\n      pop\n      0xff\n      and\n      swap3\n      pop\n      dup5\n      jump\t// out\n        /* \"@openzeppelin/contracts/utils/ReentrancyGuard.sol\":2575:2882  function _nonReentrantBefore() private {... */\n    tag_200:\n        /* \"@openzeppelin/contracts/utils/ReentrancyGuard.sol\":1899:1900  2 */\n      0x02\n        /* \"@openzeppelin/contracts/utils/ReentrancyGuard.sol\":2702:2709  _status */\n      sload(0x01)\n        /* \"@openzeppelin/contracts/utils/ReentrancyGuard.sol\":2702:2720  _status == ENTERED */\n      sub\n        /* \"@openzeppelin/contracts/utils/ReentrancyGuard.sol\":2698:2784  if (_status == ENTERED) {... */\n      tag_562\n      jumpi\n        /* \"@openzeppelin/contracts/utils/ReentrancyGuard.sol\":2743:2773  ReentrancyGuardReentrantCall() */\n      mload(0x40)\n      shl(0xe0, 0x3ee5aeb5)\n      dup2\n      mstore\n      0x04\n      add\n      mload(0x40)\n      dup1\n      swap2\n      sub\n      swap1\n      revert\n        /* \"@openzeppelin/contracts/utils/ReentrancyGuard.sol\":2698:2784  if (_status == ENTERED) {... */\n    tag_562:\n        /* \"@openzeppelin/contracts/utils/ReentrancyGuard.sol\":1899:1900  2 */\n      0x02\n        /* \"@openzeppelin/contracts/utils/ReentrancyGuard.sol\":2858:2865  _status */\n      0x01\n        /* \"@openzeppelin/contracts/utils/ReentrancyGuard.sol\":2858:2875  _status = ENTERED */\n      sstore\n        /* \"@openzeppelin/contracts/utils/ReentrancyGuard.sol\":2575:2882  function _nonReentrantBefore() private {... */\n      jump\t// out\n        /* \"@openzeppelin/contracts/access/AccessControl.sol\":3175:3278  function _checkRole(bytes32 role) internal view virtual {... */\n    tag_276:\n        /* \"@openzeppelin/contracts/access/AccessControl.sol\":3241:3271  _checkRole(role, _msgSender()) */\n      tag_556\n        /* \"@openzeppelin/contracts/access/AccessControl.sol\":3252:3256  role */\n      dup2\n        /* \"@openzeppelin/contracts/utils/Context.sol\":735:745  msg.sender */\n      caller\n        /* \"@openzeppelin/contracts/access/AccessControl.sol\":3241:3251  _checkRole */\n      tag_567\n        /* \"@openzeppelin/contracts/access/AccessControl.sol\":3241:3271  _checkRole(role, _msgSender()) */\n      jump\t// in\n        /* \"@openzeppelin/contracts/access/AccessControl.sol\":6155:6471  function _grantRole(bytes32 role, address account) internal virtual returns (bool) {... */\n    tag_279:\n        /* \"@openzeppelin/contracts/access/AccessControl.sol\":6232:6236  bool */\n      0x00\n        /* \"@openzeppelin/contracts/access/AccessControl.sol\":6253:6275  hasRole(role, account) */\n      tag_569\n        /* \"@openzeppelin/contracts/access/AccessControl.sol\":6261:6265  role */\n      dup4\n        /* \"@openzeppelin/contracts/access/AccessControl.sol\":6267:6274  account */\n      dup4\n        /* \"@openzeppelin/contracts/access/AccessControl.sol\":6253:6260  hasRole */\n      tag_154\n        /* \"@openzeppelin/contracts/access/AccessControl.sol\":6253:6275  hasRole(role, account) */\n      jump\t// in\n    tag_569:\n        /* \"@openzeppelin/contracts/access/AccessControl.sol\":6248:6465  if (!hasRole(role, account)) {... */\n      tag_570\n      jumpi\n        /* \"@openzeppelin/contracts/access/AccessControl.sol\":6291:6303  _roles[role] */\n      0x00\n      dup4\n      dup2\n      mstore\n        /* \"@openzeppelin/contracts/access/AccessControl.sol\":6291:6297  _roles */\n      0x02\n        /* \"@openzeppelin/contracts/access/AccessControl.sol\":6291:6303  _roles[role] */\n      0x20\n      swap1\n      dup2\n      mstore\n      0x40\n      dup1\n      dup4\n      keccak256\n      sub(shl(0xa0, 0x01), 0x01)\n        /* \"@openzeppelin/contracts/access/AccessControl.sol\":6291:6320  _roles[role].hasRole[account] */\n      dup7\n      and\n      dup5\n      mstore\n      swap1\n      swap2\n      mstore\n      swap1\n      keccak256\n        /* \"@openzeppelin/contracts/access/AccessControl.sol\":6291:6327  _roles[role].hasRole[account] = true */\n      dup1\n      sload\n      not(0xff)\n      and\n        /* \"@openzeppelin/contracts/access/AccessControl.sol\":6323:6327  true */\n      0x01\n        /* \"@openzeppelin/contracts/access/AccessControl.sol\":6291:6327  _roles[role].hasRole[account] = true */\n      or\n      swap1\n      sstore\n        /* \"@openzeppelin/contracts/access/AccessControl.sol\":6373:6385  _msgSender() */\n      tag_571\n        /* \"@openzeppelin/contracts/utils/Context.sol\":735:745  msg.sender */\n      caller\n      swap1\n        /* \"@openzeppelin/contracts/utils/Context.sol\":656:752  function _msgSender() internal view virtual returns (address) {... */\n      jump\n        /* \"@openzeppelin/contracts/access/AccessControl.sol\":6373:6385  _msgSender() */\n    tag_571:\n      sub(shl(0xa0, 0x01), 0x01)\n        /* \"@openzeppelin/contracts/access/AccessControl.sol\":6346:6386  RoleGranted(role, account, _msgSender()) */\n      and\n        /* \"@openzeppelin/contracts/access/AccessControl.sol\":6364:6371  account */\n      dup3\n      sub(shl(0xa0, 0x01), 0x01)\n        /* \"@openzeppelin/contracts/access/AccessControl.sol\":6346:6386  RoleGranted(role, account, _msgSender()) */\n      and\n        /* \"@openzeppelin/contracts/access/AccessControl.sol\":6358:6362  role */\n      dup5\n        /* \"@openzeppelin/contracts/access/AccessControl.sol\":6346:6386  RoleGranted(role, account, _msgSender()) */\n      0x2f8788117e7eff1d82e926ec794901d17c78024a50270940304540a733656f0d\n      mload(0x40)\n      mload(0x40)\n      dup1\n      swap2\n      sub\n      swap1\n      log4\n      pop\n        /* \"@openzeppelin/contracts/access/AccessControl.sol\":6407:6411  true */\n      0x01\n        /* \"@openzeppelin/contracts/access/AccessControl.sol\":6400:6411  return true */\n      jump(tag_192)\n        /* \"@openzeppelin/contracts/access/AccessControl.sol\":6248:6465  if (!hasRole(role, account)) {... */\n    tag_570:\n      pop\n        /* \"@openzeppelin/contracts/access/AccessControl.sol\":6449:6454  false */\n      0x00\n        /* \"@openzeppelin/contracts/access/AccessControl.sol\":6442:6454  return false */\n      jump(tag_192)\n        /* \"@openzeppelin/contracts/access/Ownable.sol\":1796:1958  function _checkOwner() internal view virtual {... */\n    tag_283:\n        /* \"@openzeppelin/contracts/access/Ownable.sol\":1684:1691  address */\n      0x00\n        /* \"@openzeppelin/contracts/access/Ownable.sol\":1710:1716  _owner */\n      sload\n      sub(shl(0xa0, 0x01), 0x01)\n      and\n        /* \"@openzeppelin/contracts/utils/Context.sol\":735:745  msg.sender */\n      caller\n        /* \"@openzeppelin/contracts/access/Ownable.sol\":1855:1878  owner() != _msgSender() */\n      eq\n        /* \"@openzeppelin/contracts/access/Ownable.sol\":1851:1952  if (owner() != _msgSender()) {... */\n      tag_428\n      jumpi\n        /* \"@openzeppelin/contracts/access/Ownable.sol\":1901:1941  OwnableUnauthorizedAccount(_msgSender()) */\n      mload(0x40)\n      shl(0xe0, 0x118cdaa7)\n      dup2\n      mstore\n        /* \"@openzeppelin/contracts/utils/Context.sol\":735:745  msg.sender */\n      caller\n        /* \"@openzeppelin/contracts/access/Ownable.sol\":1901:1941  OwnableUnauthorizedAccount(_msgSender()) */\n      0x04\n      dup3\n      add\n        /* \"#utility.yul\":1610:1661   */\n      mstore\n        /* \"#utility.yul\":1583:1601   */\n      0x24\n      add\n        /* \"@openzeppelin/contracts/access/Ownable.sol\":1901:1941  OwnableUnauthorizedAccount(_msgSender()) */\n      tag_206\n        /* \"#utility.yul\":1464:1667   */\n      jump\n        /* \"@openzeppelin/contracts/access/AccessControl.sol\":6708:7025  function _revokeRole(bytes32 role, address account) internal virtual returns (bool) {... */\n    tag_295:\n        /* \"@openzeppelin/contracts/access/AccessControl.sol\":6786:6790  bool */\n      0x00\n        /* \"@openzeppelin/contracts/access/AccessControl.sol\":6806:6828  hasRole(role, account) */\n      tag_581\n        /* \"@openzeppelin/contracts/access/AccessControl.sol\":6814:6818  role */\n      dup4\n        /* \"@openzeppelin/contracts/access/AccessControl.sol\":6820:6827  account */\n      dup4\n        /* \"@openzeppelin/contracts/access/AccessControl.sol\":6806:6813  hasRole */\n      tag_154\n        /* \"@openzeppelin/contracts/access/AccessControl.sol\":6806:6828  hasRole(role, account) */\n      jump\t// in\n    tag_581:\n        /* \"@openzeppelin/contracts/access/AccessControl.sol\":6802:7019  if (hasRole(role, account)) {... */\n      iszero\n      tag_570\n      jumpi\n        /* \"@openzeppelin/contracts/access/AccessControl.sol\":6876:6881  false */\n      0x00\n        /* \"@openzeppelin/contracts/access/AccessControl.sol\":6844:6856  _roles[role] */\n      dup4\n      dup2\n      mstore\n        /* \"@openzeppelin/contracts/access/AccessControl.sol\":6844:6850  _roles */\n      0x02\n        /* \"@openzeppelin/contracts/access/AccessControl.sol\":6844:6856  _roles[role] */\n      0x20\n      swap1\n      dup2\n      mstore\n      0x40\n      dup1\n      dup4\n      keccak256\n      sub(shl(0xa0, 0x01), 0x01)\n        /* \"@openzeppelin/contracts/access/AccessControl.sol\":6844:6873  _roles[role].hasRole[account] */\n      dup7\n      and\n      dup1\n      dup6\n      mstore\n      swap3\n      mstore\n      dup1\n      dup4\n      keccak256\n        /* \"@openzeppelin/contracts/access/AccessControl.sol\":6844:6881  _roles[role].hasRole[account] = false */\n      dup1\n      sload\n      not(0xff)\n      and\n      swap1\n      sstore\n        /* \"@openzeppelin/contracts/access/AccessControl.sol\":6900:6940  RoleRevoked(role, account, _msgSender()) */\n      mload\n        /* \"@openzeppelin/contracts/utils/Context.sol\":735:745  msg.sender */\n      caller\n      swap3\n        /* \"@openzeppelin/contracts/access/AccessControl.sol\":6844:6856  _roles[role] */\n      dup7\n      swap2\n        /* \"@openzeppelin/contracts/access/AccessControl.sol\":6900:6940  RoleRevoked(role, account, _msgSender()) */\n      0xf6391f5c32d9c69d2a47ea670b442974b53935d1edc7fd64eb21e047a839171b\n      swap2\n        /* \"@openzeppelin/contracts/access/AccessControl.sol\":6876:6881  false */\n      swap1\n        /* \"@openzeppelin/contracts/access/AccessControl.sol\":6900:6940  RoleRevoked(role, account, _msgSender()) */\n      log4\n      pop\n        /* \"@openzeppelin/contracts/access/AccessControl.sol\":6961:6965  true */\n      0x01\n        /* \"@openzeppelin/contracts/access/AccessControl.sol\":6954:6965  return true */\n      jump(tag_192)\n        /* \"@openzeppelin/contracts/access/Ownable.sol\":2912:3099  function _transferOwnership(address newOwner) internal virtual {... */\n    tag_429:\n        /* \"@openzeppelin/contracts/access/Ownable.sol\":2985:3001  address oldOwner */\n      0x00\n        /* \"@openzeppelin/contracts/access/Ownable.sol\":3004:3010  _owner */\n      dup1\n      sload\n      sub(shl(0xa0, 0x01), 0x01)\n        /* \"@openzeppelin/contracts/access/Ownable.sol\":3020:3037  _owner = newOwner */\n      dup4\n      dup2\n      and\n      not(sub(shl(0xa0, 0x01), 0x01))\n      dup4\n      and\n      dup2\n      or\n      dup5\n      sstore\n        /* \"@openzeppelin/contracts/access/Ownable.sol\":3052:3092  OwnershipTransferred(oldOwner, newOwner) */\n      mload(0x40)\n        /* \"@openzeppelin/contracts/access/Ownable.sol\":3004:3010  _owner */\n      swap2\n      swap1\n      swap3\n      and\n      swap3\n      dup4\n      swap2\n        /* \"@openzeppelin/contracts/access/Ownable.sol\":3052:3092  OwnershipTransferred(oldOwner, newOwner) */\n      0x8be0079c531659141344cd1fd0a4f28419497f9722a3daafe3b4186f6b6457e0\n      swap2\n        /* \"@openzeppelin/contracts/access/Ownable.sol\":2985:3001  address oldOwner */\n      swap1\n        /* \"@openzeppelin/contracts/access/Ownable.sol\":3052:3092  OwnershipTransferred(oldOwner, newOwner) */\n      log3\n        /* \"@openzeppelin/contracts/access/Ownable.sol\":2975:3099  {... */\n      pop\n        /* \"@openzeppelin/contracts/access/Ownable.sol\":2912:3099  function _transferOwnership(address newOwner) internal virtual {... */\n      pop\n      jump\t// out\n        /* \"@openzeppelin/contracts/access/AccessControl.sol\":3408:3605  function _checkRole(bytes32 role, address account) internal view virtual {... */\n    tag_567:\n        /* \"@openzeppelin/contracts/access/AccessControl.sol\":3496:3518  hasRole(role, account) */\n      tag_587\n        /* \"@openzeppelin/contracts/access/AccessControl.sol\":3504:3508  role */\n      dup3\n        /* \"@openzeppelin/contracts/access/AccessControl.sol\":3510:3517  account */\n      dup3\n        /* \"@openzeppelin/contracts/access/AccessControl.sol\":3496:3503  hasRole */\n      tag_154\n        /* \"@openzeppelin/contracts/access/AccessControl.sol\":3496:3518  hasRole(role, account) */\n      jump\t// in\n    tag_587:\n        /* \"@openzeppelin/contracts/access/AccessControl.sol\":3491:3599  if (!hasRole(role, account)) {... */\n      tag_269\n      jumpi\n        /* \"@openzeppelin/contracts/access/AccessControl.sol\":3541:3588  AccessControlUnauthorizedAccount(account, role) */\n      mload(0x40)\n      shl(0xe0, 0xe2517d3f)\n      dup2\n      mstore\n      sub(shl(0xa0, 0x01), 0x01)\n        /* \"#utility.yul\":17814:17846   */\n      dup3\n      and\n        /* \"@openzeppelin/contracts/access/AccessControl.sol\":3541:3588  AccessControlUnauthorizedAccount(account, role) */\n      0x04\n      dup3\n      add\n        /* \"#utility.yul\":17796:17847   */\n      mstore\n        /* \"#utility.yul\":17863:17881   */\n      0x24\n      dup2\n      add\n        /* \"#utility.yul\":17856:17890   */\n      dup4\n      swap1\n      mstore\n        /* \"#utility.yul\":17769:17787   */\n      0x44\n      add\n        /* \"@openzeppelin/contracts/access/AccessControl.sol\":3541:3588  AccessControlUnauthorizedAccount(account, role) */\n      tag_206\n        /* \"#utility.yul\":17622:17896   */\n      jump\n        /* \"#utility.yul\":14:300   */\n    tag_47:\n        /* \"#utility.yul\":72:78   */\n      0x00\n        /* \"#utility.yul\":125:127   */\n      0x20\n        /* \"#utility.yul\":113:122   */\n      dup3\n        /* \"#utility.yul\":104:111   */\n      dup5\n        /* \"#utility.yul\":100:123   */\n      sub\n        /* \"#utility.yul\":96:128   */\n      slt\n        /* \"#utility.yul\":93:145   */\n      iszero\n      tag_605\n      jumpi\n        /* \"#utility.yul\":141:142   */\n      0x00\n        /* \"#utility.yul\":138:139   */\n      0x00\n        /* \"#utility.yul\":131:143   */\n      revert\n        /* \"#utility.yul\":93:145   */\n    tag_605:\n        /* \"#utility.yul\":167:190   */\n      dup2\n      calldataload\n      not(sub(shl(0xe0, 0x01), 0x01))\n        /* \"#utility.yul\":219:251   */\n      dup2\n      and\n        /* \"#utility.yul\":209:252   */\n      dup2\n      eq\n        /* \"#utility.yul\":199:270   */\n      tag_606\n      jumpi\n        /* \"#utility.yul\":266:267   */\n      0x00\n        /* \"#utility.yul\":263:264   */\n      0x00\n        /* \"#utility.yul\":256:268   */\n      revert\n        /* \"#utility.yul\":199:270   */\n    tag_606:\n        /* \"#utility.yul\":289:294   */\n      swap4\n        /* \"#utility.yul\":14:300   */\n      swap3\n      pop\n      pop\n      pop\n      jump\t// out\n        /* \"#utility.yul\":497:670   */\n    tag_591:\n        /* \"#utility.yul\":565:585   */\n      dup1\n      calldataload\n      sub(shl(0xa0, 0x01), 0x01)\n        /* \"#utility.yul\":614:645   */\n      dup2\n      and\n        /* \"#utility.yul\":604:646   */\n      dup2\n      eq\n        /* \"#utility.yul\":594:664   */\n      tag_609\n      jumpi\n        /* \"#utility.yul\":660:661   */\n      0x00\n        /* \"#utility.yul\":657:658   */\n      0x00\n        /* \"#utility.yul\":650:662   */\n      revert\n        /* \"#utility.yul\":594:664   */\n    tag_609:\n        /* \"#utility.yul\":497:670   */\n      swap2\n      swap1\n      pop\n      jump\t// out\n        /* \"#utility.yul\":675:975   */\n    tag_53:\n        /* \"#utility.yul\":743:749   */\n      0x00\n        /* \"#utility.yul\":751:757   */\n      0x00\n        /* \"#utility.yul\":804:806   */\n      0x40\n        /* \"#utility.yul\":792:801   */\n      dup4\n        /* \"#utility.yul\":783:790   */\n      dup6\n        /* \"#utility.yul\":779:802   */\n      sub\n        /* \"#utility.yul\":775:807   */\n      slt\n        /* \"#utility.yul\":772:824   */\n      iszero\n      tag_611\n      jumpi\n        /* \"#utility.yul\":820:821   */\n      0x00\n        /* \"#utility.yul\":817:818   */\n      0x00\n        /* \"#utility.yul\":810:822   */\n      revert\n        /* \"#utility.yul\":772:824   */\n    tag_611:\n        /* \"#utility.yul\":865:888   */\n      dup3\n      calldataload\n      swap2\n      pop\n        /* \"#utility.yul\":931:969   */\n      tag_612\n        /* \"#utility.yul\":965:967   */\n      0x20\n        /* \"#utility.yul\":950:968   */\n      dup5\n      add\n        /* \"#utility.yul\":931:969   */\n      tag_591\n      jump\t// in\n    tag_612:\n        /* \"#utility.yul\":921:969   */\n      swap1\n      pop\n        /* \"#utility.yul\":675:975   */\n      swap3\n      pop\n      swap3\n      swap1\n      pop\n      jump\t// out\n        /* \"#utility.yul\":1233:1459   */\n    tag_59:\n        /* \"#utility.yul\":1292:1298   */\n      0x00\n        /* \"#utility.yul\":1345:1347   */\n      0x20\n        /* \"#utility.yul\":1333:1342   */\n      dup3\n        /* \"#utility.yul\":1324:1331   */\n      dup5\n        /* \"#utility.yul\":1320:1343   */\n      sub\n        /* \"#utility.yul\":1316:1348   */\n      slt\n        /* \"#utility.yul\":1313:1365   */\n      iszero\n      tag_615\n      jumpi\n        /* \"#utility.yul\":1361:1362   */\n      0x00\n        /* \"#utility.yul\":1358:1359   */\n      0x00\n        /* \"#utility.yul\":1351:1363   */\n      revert\n        /* \"#utility.yul\":1313:1365   */\n    tag_615:\n      pop\n        /* \"#utility.yul\":1406:1429   */\n      calldataload\n      swap2\n        /* \"#utility.yul\":1233:1459   */\n      swap1\n      pop\n      jump\t// out\n        /* \"#utility.yul\":1672:2018   */\n    tag_69:\n        /* \"#utility.yul\":1740:1746   */\n      0x00\n        /* \"#utility.yul\":1748:1754   */\n      0x00\n        /* \"#utility.yul\":1801:1803   */\n      0x40\n        /* \"#utility.yul\":1789:1798   */\n      dup4\n        /* \"#utility.yul\":1780:1787   */\n      dup6\n        /* \"#utility.yul\":1776:1799   */\n      sub\n        /* \"#utility.yul\":1772:1804   */\n      slt\n        /* \"#utility.yul\":1769:1821   */\n      iszero\n      tag_618\n      jumpi\n        /* \"#utility.yul\":1817:1818   */\n      0x00\n        /* \"#utility.yul\":1814:1815   */\n      0x00\n        /* \"#utility.yul\":1807:1819   */\n      revert\n        /* \"#utility.yul\":1769:1821   */\n    tag_618:\n      pop\n      pop\n        /* \"#utility.yul\":1862:1885   */\n      dup1\n      calldataload\n      swap3\n        /* \"#utility.yul\":1982:1984   */\n      0x20\n        /* \"#utility.yul\":1967:1985   */\n      swap1\n      swap2\n      add\n        /* \"#utility.yul\":1954:1986   */\n      calldataload\n      swap2\n      pop\n        /* \"#utility.yul\":1672:2018   */\n      jump\t// out\n        /* \"#utility.yul\":2923:3109   */\n    tag_90:\n        /* \"#utility.yul\":2982:2988   */\n      0x00\n        /* \"#utility.yul\":3035:3037   */\n      0x20\n        /* \"#utility.yul\":3023:3032   */\n      dup3\n        /* \"#utility.yul\":3014:3021   */\n      dup5\n        /* \"#utility.yul\":3010:3033   */\n      sub\n        /* \"#utility.yul\":3006:3038   */\n      slt\n        /* \"#utility.yul\":3003:3055   */\n      iszero\n      tag_627\n      jumpi\n        /* \"#utility.yul\":3051:3052   */\n      0x00\n        /* \"#utility.yul\":3048:3049   */\n      0x00\n        /* \"#utility.yul\":3041:3053   */\n      revert\n        /* \"#utility.yul\":3003:3055   */\n    tag_627:\n        /* \"#utility.yul\":3074:3103   */\n      tag_606\n        /* \"#utility.yul\":3093:3102   */\n      dup3\n        /* \"#utility.yul\":3074:3103   */\n      tag_591\n      jump\t// in\n        /* \"#utility.yul\":3114:3232   */\n    tag_592:\n        /* \"#utility.yul\":3200:3205   */\n      dup1\n        /* \"#utility.yul\":3193:3206   */\n      iszero\n        /* \"#utility.yul\":3186:3207   */\n      iszero\n        /* \"#utility.yul\":3179:3184   */\n      dup2\n        /* \"#utility.yul\":3176:3208   */\n      eq\n        /* \"#utility.yul\":3166:3226   */\n      tag_556\n      jumpi\n        /* \"#utility.yul\":3222:3223   */\n      0x00\n        /* \"#utility.yul\":3219:3220   */\n      0x00\n        /* \"#utility.yul\":3212:3224   */\n      revert\n        /* \"#utility.yul\":3237:3718   */\n    tag_97:\n        /* \"#utility.yul\":3311:3317   */\n      0x00\n        /* \"#utility.yul\":3319:3325   */\n      0x00\n        /* \"#utility.yul\":3327:3333   */\n      0x00\n        /* \"#utility.yul\":3380:3382   */\n      0x60\n        /* \"#utility.yul\":3368:3377   */\n      dup5\n        /* \"#utility.yul\":3359:3366   */\n      dup7\n        /* \"#utility.yul\":3355:3378   */\n      sub\n        /* \"#utility.yul\":3351:3383   */\n      slt\n        /* \"#utility.yul\":3348:3400   */\n      iszero\n      tag_632\n      jumpi\n        /* \"#utility.yul\":3396:3397   */\n      0x00\n        /* \"#utility.yul\":3393:3394   */\n      0x00\n        /* \"#utility.yul\":3386:3398   */\n      revert\n        /* \"#utility.yul\":3348:3400   */\n    tag_632:\n        /* \"#utility.yul\":3441:3464   */\n      dup4\n      calldataload\n      swap3\n      pop\n        /* \"#utility.yul\":3540:3542   */\n      0x20\n        /* \"#utility.yul\":3525:3543   */\n      dup5\n      add\n        /* \"#utility.yul\":3512:3544   */\n      calldataload\n        /* \"#utility.yul\":3553:3583   */\n      tag_633\n        /* \"#utility.yul\":3512:3544   */\n      dup2\n        /* \"#utility.yul\":3553:3583   */\n      tag_592\n      jump\t// in\n    tag_633:\n        /* \"#utility.yul\":3237:3718   */\n      swap3\n      swap6\n        /* \"#utility.yul\":3602:3609   */\n      swap3\n      swap5\n      pop\n      pop\n      pop\n        /* \"#utility.yul\":3682:3684   */\n      0x40\n        /* \"#utility.yul\":3667:3685   */\n      swap2\n      swap1\n      swap2\n      add\n        /* \"#utility.yul\":3654:3686   */\n      calldataload\n      swap1\n        /* \"#utility.yul\":3237:3718   */\n      jump\t// out\n        /* \"#utility.yul\":3723:4012   */\n    tag_593:\n        /* \"#utility.yul\":3765:3768   */\n      0x00\n        /* \"#utility.yul\":3803:3808   */\n      dup2\n        /* \"#utility.yul\":3797:3809   */\n      mload\n        /* \"#utility.yul\":3830:3836   */\n      dup1\n        /* \"#utility.yul\":3825:3828   */\n      dup5\n        /* \"#utility.yul\":3818:3837   */\n      mstore\n        /* \"#utility.yul\":3886:3892   */\n      dup1\n        /* \"#utility.yul\":3879:3883   */\n      0x20\n        /* \"#utility.yul\":3872:3877   */\n      dup5\n        /* \"#utility.yul\":3868:3884   */\n      add\n        /* \"#utility.yul\":3861:3865   */\n      0x20\n        /* \"#utility.yul\":3856:3859   */\n      dup7\n        /* \"#utility.yul\":3852:3866   */\n      add\n        /* \"#utility.yul\":3846:3893   */\n      mcopy\n        /* \"#utility.yul\":3938:3939   */\n      0x00\n        /* \"#utility.yul\":3931:3935   */\n      0x20\n        /* \"#utility.yul\":3922:3928   */\n      dup3\n        /* \"#utility.yul\":3917:3920   */\n      dup7\n        /* \"#utility.yul\":3913:3929   */\n      add\n        /* \"#utility.yul\":3909:3936   */\n      add\n        /* \"#utility.yul\":3902:3940   */\n      mstore\n        /* \"#utility.yul\":4001:4005   */\n      0x20\n        /* \"#utility.yul\":3994:3996   */\n      0x1f\n        /* \"#utility.yul\":3990:3997   */\n      not\n        /* \"#utility.yul\":3985:3987   */\n      0x1f\n        /* \"#utility.yul\":3977:3983   */\n      dup4\n        /* \"#utility.yul\":3973:3988   */\n      add\n        /* \"#utility.yul\":3969:3998   */\n      and\n        /* \"#utility.yul\":3964:3967   */\n      dup6\n        /* \"#utility.yul\":3960:3999   */\n      add\n        /* \"#utility.yul\":3956:4006   */\n      add\n        /* \"#utility.yul\":3949:4006   */\n      swap2\n      pop\n      pop\n        /* \"#utility.yul\":3723:4012   */\n      swap3\n      swap2\n      pop\n      pop\n      jump\t// out\n        /* \"#utility.yul\":4017:4144   */\n    tag_216:\n        /* \"#utility.yul\":4078:4088   */\n      0x4e487b71\n        /* \"#utility.yul\":4073:4076   */\n      0xe0\n        /* \"#utility.yul\":4069:4089   */\n      shl\n        /* \"#utility.yul\":4066:4067   */\n      0x00\n        /* \"#utility.yul\":4059:4090   */\n      mstore\n        /* \"#utility.yul\":4109:4113   */\n      0x21\n        /* \"#utility.yul\":4106:4107   */\n      0x04\n        /* \"#utility.yul\":4099:4114   */\n      mstore\n        /* \"#utility.yul\":4133:4137   */\n      0x24\n        /* \"#utility.yul\":4130:4131   */\n      0x00\n        /* \"#utility.yul\":4123:4138   */\n      revert\n        /* \"#utility.yul\":4149:4390   */\n    tag_594:\n        /* \"#utility.yul\":4234:4235   */\n      0x03\n        /* \"#utility.yul\":4227:4232   */\n      dup2\n        /* \"#utility.yul\":4224:4236   */\n      lt\n        /* \"#utility.yul\":4214:4357   */\n      tag_637\n      jumpi\n        /* \"#utility.yul\":4279:4289   */\n      0x4e487b71\n        /* \"#utility.yul\":4274:4277   */\n      0xe0\n        /* \"#utility.yul\":4270:4290   */\n      shl\n        /* \"#utility.yul\":4267:4268   */\n      0x00\n        /* \"#utility.yul\":4260:4291   */\n      mstore\n        /* \"#utility.yul\":4314:4318   */\n      0x21\n        /* \"#utility.yul\":4311:4312   */\n      0x04\n        /* \"#utility.yul\":4304:4319   */\n      mstore\n        /* \"#utility.yul\":4342:4346   */\n      0x24\n        /* \"#utility.yul\":4339:4340   */\n      0x00\n        /* \"#utility.yul\":4332:4347   */\n      revert\n        /* \"#utility.yul\":4214:4357   */\n    tag_637:\n        /* \"#utility.yul\":4366:4384   */\n      swap1\n      mstore\n        /* \"#utility.yul\":4149:4390   */\n      jump\t// out\n        /* \"#utility.yul\":4395:5350   */\n    tag_103:\n        /* \"#utility.yul\":4789:4792   */\n      0x0100\n        /* \"#utility.yul\":4778:4787   */\n      dup2\n        /* \"#utility.yul\":4771:4793   */\n      mstore\n        /* \"#utility.yul\":4752:4756   */\n      0x00\n        /* \"#utility.yul\":4816:4862   */\n      tag_639\n        /* \"#utility.yul\":4857:4860   */\n      0x0100\n        /* \"#utility.yul\":4846:4855   */\n      dup4\n        /* \"#utility.yul\":4842:4861   */\n      add\n        /* \"#utility.yul\":4834:4840   */\n      dup12\n        /* \"#utility.yul\":4816:4862   */\n      tag_593\n      jump\t// in\n    tag_639:\n        /* \"#utility.yul\":4910:4919   */\n      dup3\n        /* \"#utility.yul\":4902:4908   */\n      dup2\n        /* \"#utility.yul\":4898:4920   */\n      sub\n        /* \"#utility.yul\":4893:4895   */\n      0x20\n        /* \"#utility.yul\":4882:4891   */\n      dup5\n        /* \"#utility.yul\":4878:4896   */\n      add\n        /* \"#utility.yul\":4871:4921   */\n      mstore\n        /* \"#utility.yul\":4944:4977   */\n      tag_640\n        /* \"#utility.yul\":4970:4976   */\n      dup2\n        /* \"#utility.yul\":4962:4968   */\n      dup12\n        /* \"#utility.yul\":4944:4977   */\n      tag_593\n      jump\t// in\n    tag_640:\n        /* \"#utility.yul\":4930:4977   */\n      swap1\n      pop\n        /* \"#utility.yul\":5025:5034   */\n      dup3\n        /* \"#utility.yul\":5017:5023   */\n      dup2\n        /* \"#utility.yul\":5013:5035   */\n      sub\n        /* \"#utility.yul\":5008:5010   */\n      0x40\n        /* \"#utility.yul\":4997:5006   */\n      dup5\n        /* \"#utility.yul\":4993:5011   */\n      add\n        /* \"#utility.yul\":4986:5036   */\n      mstore\n        /* \"#utility.yul\":5053:5086   */\n      tag_641\n        /* \"#utility.yul\":5079:5085   */\n      dup2\n        /* \"#utility.yul\":5071:5077   */\n      dup11\n        /* \"#utility.yul\":5053:5086   */\n      tag_593\n      jump\t// in\n    tag_641:\n        /* \"#utility.yul\":5045:5086   */\n      swap2\n      pop\n      pop\n        /* \"#utility.yul\":5122:5128   */\n      dup7\n        /* \"#utility.yul\":5117:5119   */\n      0x60\n        /* \"#utility.yul\":5106:5115   */\n      dup4\n        /* \"#utility.yul\":5102:5120   */\n      add\n        /* \"#utility.yul\":5095:5129   */\n      mstore\n        /* \"#utility.yul\":5138:5196   */\n      tag_642\n        /* \"#utility.yul\":5191:5194   */\n      0x80\n        /* \"#utility.yul\":5180:5189   */\n      dup4\n        /* \"#utility.yul\":5176:5195   */\n      add\n        /* \"#utility.yul\":5168:5174   */\n      dup8\n        /* \"#utility.yul\":5138:5196   */\n      tag_594\n      jump\t// in\n    tag_642:\n        /* \"#utility.yul\":5233:5239   */\n      dup5\n        /* \"#utility.yul\":5227:5230   */\n      0xa0\n        /* \"#utility.yul\":5216:5225   */\n      dup4\n        /* \"#utility.yul\":5212:5231   */\n      add\n        /* \"#utility.yul\":5205:5240   */\n      mstore\n        /* \"#utility.yul\":5277:5283   */\n      dup4\n        /* \"#utility.yul\":5271:5274   */\n      0xc0\n        /* \"#utility.yul\":5260:5269   */\n      dup4\n        /* \"#utility.yul\":5256:5275   */\n      add\n        /* \"#utility.yul\":5249:5284   */\n      mstore\n        /* \"#utility.yul\":5335:5341   */\n      dup3\n        /* \"#utility.yul\":5328:5342   */\n      iszero\n        /* \"#utility.yul\":5321:5343   */\n      iszero\n        /* \"#utility.yul\":5315:5318   */\n      0xe0\n        /* \"#utility.yul\":5304:5313   */\n      dup4\n        /* \"#utility.yul\":5300:5319   */\n      add\n        /* \"#utility.yul\":5293:5344   */\n      mstore\n        /* \"#utility.yul\":4395:5350   */\n      swap10\n      swap9\n      pop\n      pop\n      pop\n      pop\n      pop\n      pop\n      pop\n      pop\n      pop\n      jump\t// out\n        /* \"#utility.yul\":5577:6187   */\n    tag_114:\n        /* \"#utility.yul\":5663:5669   */\n      0x00\n        /* \"#utility.yul\":5671:5677   */\n      0x00\n        /* \"#utility.yul\":5724:5726   */\n      0x20\n        /* \"#utility.yul\":5712:5721   */\n      dup4\n        /* \"#utility.yul\":5703:5710   */\n      dup6\n        /* \"#utility.yul\":5699:5722   */\n      sub\n        /* \"#utility.yul\":5695:5727   */\n      slt\n        /* \"#utility.yul\":5692:5744   */\n      iszero\n      tag_645\n      jumpi\n        /* \"#utility.yul\":5740:5741   */\n      0x00\n        /* \"#utility.yul\":5737:5738   */\n      0x00\n        /* \"#utility.yul\":5730:5742   */\n      revert\n        /* \"#utility.yul\":5692:5744   */\n    tag_645:\n        /* \"#utility.yul\":5780:5789   */\n      dup3\n        /* \"#utility.yul\":5767:5790   */\n      calldataload\n      sub(shl(0x40, 0x01), 0x01)\n        /* \"#utility.yul\":5805:5811   */\n      dup2\n        /* \"#utility.yul\":5802:5832   */\n      gt\n        /* \"#utility.yul\":5799:5849   */\n      iszero\n      tag_646\n      jumpi\n        /* \"#utility.yul\":5845:5846   */\n      0x00\n        /* \"#utility.yul\":5842:5843   */\n      0x00\n        /* \"#utility.yul\":5835:5847   */\n      revert\n        /* \"#utility.yul\":5799:5849   */\n    tag_646:\n        /* \"#utility.yul\":5868:5890   */\n      dup4\n      add\n        /* \"#utility.yul\":5921:5925   */\n      0x1f\n        /* \"#utility.yul\":5913:5926   */\n      dup2\n      add\n        /* \"#utility.yul\":5909:5936   */\n      dup6\n      sgt\n        /* \"#utility.yul\":5899:5954   */\n      tag_647\n      jumpi\n        /* \"#utility.yul\":5950:5951   */\n      0x00\n        /* \"#utility.yul\":5947:5948   */\n      0x00\n        /* \"#utility.yul\":5940:5952   */\n      revert\n        /* \"#utility.yul\":5899:5954   */\n    tag_647:\n        /* \"#utility.yul\":5990:5992   */\n      dup1\n        /* \"#utility.yul\":5977:5993   */\n      calldataload\n      sub(shl(0x40, 0x01), 0x01)\n        /* \"#utility.yul\":6008:6014   */\n      dup2\n        /* \"#utility.yul\":6005:6035   */\n      gt\n        /* \"#utility.yul\":6002:6052   */\n      iszero\n      tag_648\n      jumpi\n        /* \"#utility.yul\":6048:6049   */\n      0x00\n        /* \"#utility.yul\":6045:6046   */\n      0x00\n        /* \"#utility.yul\":6038:6050   */\n      revert\n        /* \"#utility.yul\":6002:6052   */\n    tag_648:\n        /* \"#utility.yul\":6101:6108   */\n      dup6\n        /* \"#utility.yul\":6096:6098   */\n      0x20\n        /* \"#utility.yul\":6086:6092   */\n      dup3\n        /* \"#utility.yul\":6083:6084   */\n      0x05\n        /* \"#utility.yul\":6079:6093   */\n      shl\n        /* \"#utility.yul\":6075:6077   */\n      dup5\n        /* \"#utility.yul\":6071:6094   */\n      add\n        /* \"#utility.yul\":6067:6099   */\n      add\n        /* \"#utility.yul\":6064:6109   */\n      gt\n        /* \"#utility.yul\":6061:6126   */\n      iszero\n      tag_649\n      jumpi\n        /* \"#utility.yul\":6122:6123   */\n      0x00\n        /* \"#utility.yul\":6119:6120   */\n      0x00\n        /* \"#utility.yul\":6112:6124   */\n      revert\n        /* \"#utility.yul\":6061:6126   */\n    tag_649:\n        /* \"#utility.yul\":6153:6155   */\n      0x20\n        /* \"#utility.yul\":6145:6156   */\n      swap2\n      swap1\n      swap2\n      add\n      swap6\n        /* \"#utility.yul\":6175:6181   */\n      swap1\n      swap5\n      pop\n        /* \"#utility.yul\":5577:6187   */\n      swap3\n      pop\n      pop\n      pop\n      jump\t// out\n        /* \"#utility.yul\":6192:6771   */\n    tag_595:\n        /* \"#utility.yul\":6244:6247   */\n      0x00\n        /* \"#utility.yul\":6275:6278   */\n      dup3\n        /* \"#utility.yul\":6307:6312   */\n      dup3\n        /* \"#utility.yul\":6301:6313   */\n      mload\n        /* \"#utility.yul\":6334:6340   */\n      dup1\n        /* \"#utility.yul\":6329:6332   */\n      dup6\n        /* \"#utility.yul\":6322:6341   */\n      mstore\n        /* \"#utility.yul\":6366:6370   */\n      0x20\n        /* \"#utility.yul\":6361:6364   */\n      dup6\n        /* \"#utility.yul\":6357:6371   */\n      add\n        /* \"#utility.yul\":6350:6371   */\n      swap5\n      pop\n        /* \"#utility.yul\":6424:6428   */\n      0x20\n        /* \"#utility.yul\":6414:6420   */\n      dup2\n        /* \"#utility.yul\":6411:6412   */\n      0x05\n        /* \"#utility.yul\":6407:6421   */\n      shl\n        /* \"#utility.yul\":6400:6405   */\n      dup4\n        /* \"#utility.yul\":6396:6422   */\n      add\n        /* \"#utility.yul\":6392:6429   */\n      add\n        /* \"#utility.yul\":6463:6467   */\n      0x20\n        /* \"#utility.yul\":6456:6461   */\n      dup6\n        /* \"#utility.yul\":6452:6468   */\n      add\n        /* \"#utility.yul\":6486:6487   */\n      0x00\n        /* \"#utility.yul\":6496:6745   */\n    tag_651:\n        /* \"#utility.yul\":6510:6516   */\n      dup4\n        /* \"#utility.yul\":6507:6508   */\n      dup2\n        /* \"#utility.yul\":6504:6517   */\n      lt\n        /* \"#utility.yul\":6496:6745   */\n      iszero\n      tag_653\n      jumpi\n        /* \"#utility.yul\":6597:6599   */\n      0x1f\n        /* \"#utility.yul\":6593:6600   */\n      not\n        /* \"#utility.yul\":6585:6590   */\n      dup6\n        /* \"#utility.yul\":6579:6583   */\n      dup5\n        /* \"#utility.yul\":6575:6591   */\n      sub\n        /* \"#utility.yul\":6571:6601   */\n      add\n        /* \"#utility.yul\":6566:6569   */\n      dup9\n        /* \"#utility.yul\":6559:6602   */\n      mstore\n        /* \"#utility.yul\":6623:6661   */\n      tag_654\n        /* \"#utility.yul\":6656:6660   */\n      dup4\n        /* \"#utility.yul\":6647:6653   */\n      dup4\n        /* \"#utility.yul\":6641:6654   */\n      mload\n        /* \"#utility.yul\":6623:6661   */\n      tag_593\n      jump\t// in\n    tag_654:\n        /* \"#utility.yul\":6696:6700   */\n      0x20\n        /* \"#utility.yul\":6721:6735   */\n      swap9\n      dup10\n      add\n      swap9\n        /* \"#utility.yul\":6615:6661   */\n      swap1\n      swap4\n      pop\n        /* \"#utility.yul\":6684:6701   */\n      swap2\n      swap1\n      swap2\n      add\n      swap1\n        /* \"#utility.yul\":6532:6533   */\n      0x01\n        /* \"#utility.yul\":6525:6534   */\n      add\n        /* \"#utility.yul\":6496:6745   */\n      jump(tag_651)\n    tag_653:\n      pop\n        /* \"#utility.yul\":6761:6765   */\n      swap1\n      swap7\n        /* \"#utility.yul\":6192:6771   */\n      swap6\n      pop\n      pop\n      pop\n      pop\n      pop\n      pop\n      jump\t// out\n        /* \"#utility.yul\":6776:7196   */\n    tag_596:\n        /* \"#utility.yul\":6829:6832   */\n      0x00\n        /* \"#utility.yul\":6867:6872   */\n      dup2\n        /* \"#utility.yul\":6861:6873   */\n      mload\n        /* \"#utility.yul\":6894:6900   */\n      dup1\n        /* \"#utility.yul\":6889:6892   */\n      dup5\n        /* \"#utility.yul\":6882:6901   */\n      mstore\n        /* \"#utility.yul\":6926:6930   */\n      0x20\n        /* \"#utility.yul\":6921:6924   */\n      dup5\n        /* \"#utility.yul\":6917:6931   */\n      add\n        /* \"#utility.yul\":6910:6931   */\n      swap4\n      pop\n        /* \"#utility.yul\":6965:6969   */\n      0x20\n        /* \"#utility.yul\":6958:6963   */\n      dup4\n        /* \"#utility.yul\":6954:6970   */\n      add\n        /* \"#utility.yul\":6988:6989   */\n      0x00\n        /* \"#utility.yul\":6998:7171   */\n    tag_656:\n        /* \"#utility.yul\":7012:7018   */\n      dup3\n        /* \"#utility.yul\":7009:7010   */\n      dup2\n        /* \"#utility.yul\":7006:7019   */\n      lt\n        /* \"#utility.yul\":6998:7171   */\n      iszero\n      tag_658\n      jumpi\n        /* \"#utility.yul\":7073:7086   */\n      dup2\n      mload\n        /* \"#utility.yul\":7061:7087   */\n      dup7\n      mstore\n        /* \"#utility.yul\":7116:7120   */\n      0x20\n        /* \"#utility.yul\":7107:7121   */\n      swap6\n      dup7\n      add\n      swap6\n        /* \"#utility.yul\":7144:7161   */\n      swap1\n      swap2\n      add\n      swap1\n        /* \"#utility.yul\":7034:7035   */\n      0x01\n        /* \"#utility.yul\":7027:7036   */\n      add\n        /* \"#utility.yul\":6998:7171   */\n      jump(tag_656)\n    tag_658:\n      pop\n        /* \"#utility.yul\":7187:7190   */\n      swap4\n      swap5\n        /* \"#utility.yul\":6776:7196   */\n      swap4\n      pop\n      pop\n      pop\n      pop\n      jump\t// out\n        /* \"#utility.yul\":7201:7634   */\n    tag_597:\n        /* \"#utility.yul\":7251:7254   */\n      0x00\n        /* \"#utility.yul\":7289:7294   */\n      dup2\n        /* \"#utility.yul\":7283:7295   */\n      mload\n        /* \"#utility.yul\":7316:7322   */\n      dup1\n        /* \"#utility.yul\":7311:7314   */\n      dup5\n        /* \"#utility.yul\":7304:7323   */\n      mstore\n        /* \"#utility.yul\":7348:7352   */\n      0x20\n        /* \"#utility.yul\":7343:7346   */\n      dup5\n        /* \"#utility.yul\":7339:7353   */\n      add\n        /* \"#utility.yul\":7332:7353   */\n      swap4\n      pop\n        /* \"#utility.yul\":7387:7391   */\n      0x20\n        /* \"#utility.yul\":7380:7385   */\n      dup4\n        /* \"#utility.yul\":7376:7392   */\n      add\n        /* \"#utility.yul\":7410:7411   */\n      0x00\n        /* \"#utility.yul\":7420:7609   */\n    tag_660:\n        /* \"#utility.yul\":7434:7440   */\n      dup3\n        /* \"#utility.yul\":7431:7432   */\n      dup2\n        /* \"#utility.yul\":7428:7441   */\n      lt\n        /* \"#utility.yul\":7420:7609   */\n      iszero\n      tag_658\n      jumpi\n        /* \"#utility.yul\":7509:7522   */\n      dup2\n      mload\n        /* \"#utility.yul\":7502:7523   */\n      iszero\n        /* \"#utility.yul\":7495:7524   */\n      iszero\n        /* \"#utility.yul\":7483:7525   */\n      dup7\n      mstore\n        /* \"#utility.yul\":7554:7558   */\n      0x20\n        /* \"#utility.yul\":7545:7559   */\n      swap6\n      dup7\n      add\n      swap6\n        /* \"#utility.yul\":7582:7599   */\n      swap1\n      swap2\n      add\n      swap1\n        /* \"#utility.yul\":7456:7457   */\n      0x01\n        /* \"#utility.yul\":7449:7458   */\n      add\n        /* \"#utility.yul\":7420:7609   */\n      jump(tag_660)\n        /* \"#utility.yul\":7639:9706   */\n    tag_117:\n        /* \"#utility.yul\":8433:8436   */\n      0x0100\n        /* \"#utility.yul\":8422:8431   */\n      dup2\n        /* \"#utility.yul\":8415:8437   */\n      mstore\n        /* \"#utility.yul\":8396:8400   */\n      0x00\n        /* \"#utility.yul\":8460:8516   */\n      tag_664\n        /* \"#utility.yul\":8511:8514   */\n      0x0100\n        /* \"#utility.yul\":8500:8509   */\n      dup4\n        /* \"#utility.yul\":8496:8515   */\n      add\n        /* \"#utility.yul\":8488:8494   */\n      dup12\n        /* \"#utility.yul\":8460:8516   */\n      tag_595\n      jump\t// in\n    tag_664:\n        /* \"#utility.yul\":8564:8573   */\n      dup3\n        /* \"#utility.yul\":8556:8562   */\n      dup2\n        /* \"#utility.yul\":8552:8574   */\n      sub\n        /* \"#utility.yul\":8547:8549   */\n      0x20\n        /* \"#utility.yul\":8536:8545   */\n      dup5\n        /* \"#utility.yul\":8532:8550   */\n      add\n        /* \"#utility.yul\":8525:8575   */\n      mstore\n        /* \"#utility.yul\":8598:8641   */\n      tag_665\n        /* \"#utility.yul\":8634:8640   */\n      dup2\n        /* \"#utility.yul\":8626:8632   */\n      dup12\n        /* \"#utility.yul\":8598:8641   */\n      tag_595\n      jump\t// in\n    tag_665:\n        /* \"#utility.yul\":8584:8641   */\n      swap1\n      pop\n        /* \"#utility.yul\":8689:8698   */\n      dup3\n        /* \"#utility.yul\":8681:8687   */\n      dup2\n        /* \"#utility.yul\":8677:8699   */\n      sub\n        /* \"#utility.yul\":8672:8674   */\n      0x40\n        /* \"#utility.yul\":8661:8670   */\n      dup5\n        /* \"#utility.yul\":8657:8675   */\n      add\n        /* \"#utility.yul\":8650:8700   */\n      mstore\n        /* \"#utility.yul\":8723:8766   */\n      tag_666\n        /* \"#utility.yul\":8759:8765   */\n      dup2\n        /* \"#utility.yul\":8751:8757   */\n      dup11\n        /* \"#utility.yul\":8723:8766   */\n      tag_595\n      jump\t// in\n    tag_666:\n        /* \"#utility.yul\":8709:8766   */\n      swap1\n      pop\n        /* \"#utility.yul\":8814:8823   */\n      dup3\n        /* \"#utility.yul\":8806:8812   */\n      dup2\n        /* \"#utility.yul\":8802:8824   */\n      sub\n        /* \"#utility.yul\":8797:8799   */\n      0x60\n        /* \"#utility.yul\":8786:8795   */\n      dup5\n        /* \"#utility.yul\":8782:8800   */\n      add\n        /* \"#utility.yul\":8775:8825   */\n      mstore\n        /* \"#utility.yul\":8848:8892   */\n      tag_667\n        /* \"#utility.yul\":8885:8891   */\n      dup2\n        /* \"#utility.yul\":8877:8883   */\n      dup10\n        /* \"#utility.yul\":8848:8892   */\n      tag_596\n      jump\t// in\n    tag_667:\n        /* \"#utility.yul\":8929:8951   */\n      dup4\n      dup2\n      sub\n        /* \"#utility.yul\":8923:8926   */\n      0x80\n        /* \"#utility.yul\":8908:8927   */\n      dup6\n      add\n        /* \"#utility.yul\":8901:8952   */\n      mstore\n        /* \"#utility.yul\":9001:9014   */\n      dup8\n      mload\n        /* \"#utility.yul\":9023:9045   */\n      dup1\n      dup3\n      mstore\n        /* \"#utility.yul\":9073:9075   */\n      0x20\n        /* \"#utility.yul\":9099:9114   */\n      dup1\n      dup11\n      add\n      swap4\n      pop\n        /* \"#utility.yul\":9061:9076   */\n      swap1\n      swap2\n      add\n      swap1\n        /* \"#utility.yul\":9132:9133   */\n      0x00\n        /* \"#utility.yul\":9142:9334   */\n    tag_668:\n        /* \"#utility.yul\":9156:9162   */\n      dup2\n        /* \"#utility.yul\":9153:9154   */\n      dup2\n        /* \"#utility.yul\":9150:9163   */\n      lt\n        /* \"#utility.yul\":9142:9334   */\n      iszero\n      tag_670\n      jumpi\n        /* \"#utility.yul\":9205:9254   */\n      tag_671\n        /* \"#utility.yul\":9250:9253   */\n      dup4\n        /* \"#utility.yul\":9241:9247   */\n      dup6\n        /* \"#utility.yul\":9235:9248   */\n      mload\n        /* \"#utility.yul\":9205:9254   */\n      tag_594\n      jump\t// in\n    tag_671:\n        /* \"#utility.yul\":9283:9285   */\n      0x20\n        /* \"#utility.yul\":9309:9324   */\n      swap4\n      dup5\n      add\n      swap4\n        /* \"#utility.yul\":9274:9286   */\n      swap3\n      swap1\n      swap3\n      add\n      swap2\n        /* \"#utility.yul\":9178:9179   */\n      0x01\n        /* \"#utility.yul\":9171:9180   */\n      add\n        /* \"#utility.yul\":9142:9334   */\n      jump(tag_668)\n    tag_670:\n        /* \"#utility.yul\":9146:9149   */\n      pop\n      pop\n        /* \"#utility.yul\":9380:9389   */\n      dup4\n        /* \"#utility.yul\":9375:9378   */\n      dup2\n        /* \"#utility.yul\":9371:9390   */\n      sub\n        /* \"#utility.yul\":9365:9368   */\n      0xa0\n        /* \"#utility.yul\":9354:9363   */\n      dup6\n        /* \"#utility.yul\":9350:9369   */\n      add\n        /* \"#utility.yul\":9343:9391   */\n      mstore\n        /* \"#utility.yul\":9414:9455   */\n      tag_672\n        /* \"#utility.yul\":9451:9454   */\n      dup2\n        /* \"#utility.yul\":9443:9449   */\n      dup9\n        /* \"#utility.yul\":9414:9455   */\n      tag_596\n      jump\t// in\n    tag_672:\n        /* \"#utility.yul\":9400:9455   */\n      swap2\n      pop\n      pop\n        /* \"#utility.yul\":9504:9513   */\n      dup3\n        /* \"#utility.yul\":9496:9502   */\n      dup2\n        /* \"#utility.yul\":9492:9514   */\n      sub\n        /* \"#utility.yul\":9486:9489   */\n      0xc0\n        /* \"#utility.yul\":9475:9484   */\n      dup5\n        /* \"#utility.yul\":9471:9490   */\n      add\n        /* \"#utility.yul\":9464:9515   */\n      mstore\n        /* \"#utility.yul\":9538:9582   */\n      tag_673\n        /* \"#utility.yul\":9575:9581   */\n      dup2\n        /* \"#utility.yul\":9567:9573   */\n      dup7\n        /* \"#utility.yul\":9538:9582   */\n      tag_596\n      jump\t// in\n    tag_673:\n        /* \"#utility.yul\":9524:9582   */\n      swap1\n      pop\n        /* \"#utility.yul\":9631:9640   */\n      dup3\n        /* \"#utility.yul\":9623:9629   */\n      dup2\n        /* \"#utility.yul\":9619:9641   */\n      sub\n        /* \"#utility.yul\":9613:9616   */\n      0xe0\n        /* \"#utility.yul\":9602:9611   */\n      dup5\n        /* \"#utility.yul\":9598:9617   */\n      add\n        /* \"#utility.yul\":9591:9642   */\n      mstore\n        /* \"#utility.yul\":9659:9700   */\n      tag_674\n        /* \"#utility.yul\":9693:9699   */\n      dup2\n        /* \"#utility.yul\":9685:9691   */\n      dup6\n        /* \"#utility.yul\":9659:9700   */\n      tag_597\n      jump\t// in\n    tag_674:\n        /* \"#utility.yul\":9651:9700   */\n      swap12\n        /* \"#utility.yul\":7639:9706   */\n      swap11\n      pop\n      pop\n      pop\n      pop\n      pop\n      pop\n      pop\n      pop\n      pop\n      pop\n      pop\n      jump\t// out\n        /* \"#utility.yul\":9711:10554   */\n    tag_127:\n        /* \"#utility.yul\":9967:9969   */\n      0x20\n        /* \"#utility.yul\":9979:10000   */\n      dup1\n      dup3\n      mstore\n        /* \"#utility.yul\":10049:10062   */\n      dup3\n      mload\n        /* \"#utility.yul\":9952:9970   */\n      dup3\n      dup3\n      add\n        /* \"#utility.yul\":10071:10093   */\n      dup2\n      swap1\n      mstore\n        /* \"#utility.yul\":9919:9923   */\n      0x00\n      swap2\n        /* \"#utility.yul\":10150:10165   */\n      dup5\n      add\n      swap1\n        /* \"#utility.yul\":10124:10126   */\n      0x40\n        /* \"#utility.yul\":10109:10127   */\n      dup5\n      add\n      swap1\n        /* \"#utility.yul\":9919:9923   */\n      dup4\n        /* \"#utility.yul\":10193:10528   */\n    tag_676:\n        /* \"#utility.yul\":10207:10213   */\n      dup2\n        /* \"#utility.yul\":10204:10205   */\n      dup2\n        /* \"#utility.yul\":10201:10214   */\n      lt\n        /* \"#utility.yul\":10193:10528   */\n      iszero\n      tag_678\n      jumpi\n        /* \"#utility.yul\":10266:10279   */\n      dup4\n      mload\n        /* \"#utility.yul\":10308:10317   */\n      dup1\n      mload\n      sub(shl(0xa0, 0x01), 0x01)\n        /* \"#utility.yul\":10304:10339   */\n      and\n        /* \"#utility.yul\":10292:10340   */\n      dup5\n      mstore\n        /* \"#utility.yul\":10388:10390   */\n      0x20\n        /* \"#utility.yul\":10380:10391   */\n      dup1\n      dup3\n      add\n        /* \"#utility.yul\":10374:10392   */\n      mload\n        /* \"#utility.yul\":10360:10372   */\n      dup2\n      dup7\n      add\n        /* \"#utility.yul\":10353:10393   */\n      mstore\n        /* \"#utility.yul\":10441:10443   */\n      0x40\n        /* \"#utility.yul\":10433:10444   */\n      swap2\n      dup3\n      add\n        /* \"#utility.yul\":10427:10445   */\n      mload\n        /* \"#utility.yul\":10413:10425   */\n      swap2\n      dup6\n      add\n        /* \"#utility.yul\":10406:10446   */\n      swap2\n      swap1\n      swap2\n      mstore\n        /* \"#utility.yul\":10503:10518   */\n      swap1\n      swap4\n      add\n      swap3\n        /* \"#utility.yul\":10475:10479   */\n      0x60\n        /* \"#utility.yul\":10466:10480   */\n      swap1\n      swap3\n      add\n      swap2\n        /* \"#utility.yul\":10336:10337   */\n      0x01\n        /* \"#utility.yul\":10222:10231   */\n      add\n        /* \"#utility.yul\":10193:10528   */\n      jump(tag_676)\n    tag_678:\n      pop\n        /* \"#utility.yul\":10545:10548   */\n      swap1\n      swap6\n        /* \"#utility.yul\":9711:10554   */\n      swap5\n      pop\n      pop\n      pop\n      pop\n      pop\n      jump\t// out\n        /* \"#utility.yul\":10559:10686   */\n    tag_352:\n        /* \"#utility.yul\":10620:10630   */\n      0x4e487b71\n        /* \"#utility.yul\":10615:10618   */\n      0xe0\n        /* \"#utility.yul\":10611:10631   */\n      shl\n        /* \"#utility.yul\":10608:10609   */\n      0x00\n        /* \"#utility.yul\":10601:10632   */\n      mstore\n        /* \"#utility.yul\":10651:10655   */\n      0x41\n        /* \"#utility.yul\":10648:10649   */\n      0x04\n        /* \"#utility.yul\":10641:10656   */\n      mstore\n        /* \"#utility.yul\":10675:10679   */\n      0x24\n        /* \"#utility.yul\":10672:10673   */\n      0x00\n        /* \"#utility.yul\":10665:10680   */\n      revert\n        /* \"#utility.yul\":10691:11417   */\n    tag_598:\n        /* \"#utility.yul\":10734:10739   */\n      0x00\n        /* \"#utility.yul\":10787:10790   */\n      dup3\n        /* \"#utility.yul\":10780:10784   */\n      0x1f\n        /* \"#utility.yul\":10772:10778   */\n      dup4\n        /* \"#utility.yul\":10768:10785   */\n      add\n        /* \"#utility.yul\":10764:10791   */\n      slt\n        /* \"#utility.yul\":10754:10809   */\n      tag_681\n      jumpi\n        /* \"#utility.yul\":10805:10806   */\n      0x00\n        /* \"#utility.yul\":10802:10803   */\n      0x00\n        /* \"#utility.yul\":10795:10807   */\n      revert\n        /* \"#utility.yul\":10754:10809   */\n    tag_681:\n        /* \"#utility.yul\":10845:10851   */\n      dup2\n        /* \"#utility.yul\":10832:10852   */\n      calldataload\n      sub(shl(0x40, 0x01), 0x01)\n        /* \"#utility.yul\":10867:10873   */\n      dup2\n        /* \"#utility.yul\":10864:10894   */\n      gt\n        /* \"#utility.yul\":10861:10917   */\n      iszero\n      tag_683\n      jumpi\n        /* \"#utility.yul\":10897:10915   */\n      tag_683\n      tag_352\n      jump\t// in\n    tag_683:\n        /* \"#utility.yul\":10946:10948   */\n      0x40\n        /* \"#utility.yul\":10940:10949   */\n      mload\n        /* \"#utility.yul\":11038:11040   */\n      0x1f\n        /* \"#utility.yul\":11000:11017   */\n      dup3\n      add\n      not(0x1f)\n        /* \"#utility.yul\":10996:11027   */\n      swap1\n      dup2\n      and\n        /* \"#utility.yul\":11029:11031   */\n      0x3f\n        /* \"#utility.yul\":10992:11032   */\n      add\n        /* \"#utility.yul\":10988:11042   */\n      and\n        /* \"#utility.yul\":10976:11043   */\n      dup2\n      add\n      sub(shl(0x40, 0x01), 0x01)\n        /* \"#utility.yul\":11058:11092   */\n      dup2\n      gt\n        /* \"#utility.yul\":11094:11116   */\n      dup3\n      dup3\n      lt\n        /* \"#utility.yul\":11055:11117   */\n      or\n        /* \"#utility.yul\":11052:11140   */\n      iszero\n      tag_685\n      jumpi\n        /* \"#utility.yul\":11120:11138   */\n      tag_685\n      tag_352\n      jump\t// in\n    tag_685:\n        /* \"#utility.yul\":11156:11158   */\n      0x40\n        /* \"#utility.yul\":11149:11171   */\n      mstore\n        /* \"#utility.yul\":11180:11202   */\n      dup2\n      dup2\n      mstore\n        /* \"#utility.yul\":11221:11240   */\n      dup4\n      dup3\n      add\n        /* \"#utility.yul\":11242:11246   */\n      0x20\n        /* \"#utility.yul\":11217:11247   */\n      add\n        /* \"#utility.yul\":11214:11253   */\n      dup6\n      lt\n        /* \"#utility.yul\":11211:11270   */\n      iszero\n      tag_686\n      jumpi\n        /* \"#utility.yul\":11266:11267   */\n      0x00\n        /* \"#utility.yul\":11263:11264   */\n      0x00\n        /* \"#utility.yul\":11256:11268   */\n      revert\n        /* \"#utility.yul\":11211:11270   */\n    tag_686:\n        /* \"#utility.yul\":11330:11336   */\n      dup2\n        /* \"#utility.yul\":11323:11327   */\n      0x20\n        /* \"#utility.yul\":11315:11321   */\n      dup6\n        /* \"#utility.yul\":11311:11328   */\n      add\n        /* \"#utility.yul\":11304:11308   */\n      0x20\n        /* \"#utility.yul\":11296:11302   */\n      dup4\n        /* \"#utility.yul\":11292:11309   */\n      add\n        /* \"#utility.yul\":11279:11337   */\n      calldatacopy\n        /* \"#utility.yul\":11385:11386   */\n      0x00\n        /* \"#utility.yul\":11357:11376   */\n      swap2\n      dup2\n      add\n        /* \"#utility.yul\":11378:11382   */\n      0x20\n        /* \"#utility.yul\":11353:11383   */\n      add\n        /* \"#utility.yul\":11346:11387   */\n      swap2\n      swap1\n      swap2\n      mstore\n        /* \"#utility.yul\":11361:11367   */\n      swap4\n        /* \"#utility.yul\":10691:11417   */\n      swap3\n      pop\n      pop\n      pop\n      jump\t// out\n        /* \"#utility.yul\":11422:12291   */\n    tag_133:\n        /* \"#utility.yul\":11538:11544   */\n      0x00\n        /* \"#utility.yul\":11546:11552   */\n      0x00\n        /* \"#utility.yul\":11554:11560   */\n      0x00\n        /* \"#utility.yul\":11562:11568   */\n      0x00\n        /* \"#utility.yul\":11615:11618   */\n      0x80\n        /* \"#utility.yul\":11603:11612   */\n      dup6\n        /* \"#utility.yul\":11594:11601   */\n      dup8\n        /* \"#utility.yul\":11590:11613   */\n      sub\n        /* \"#utility.yul\":11586:11619   */\n      slt\n        /* \"#utility.yul\":11583:11636   */\n      iszero\n      tag_688\n      jumpi\n        /* \"#utility.yul\":11632:11633   */\n      0x00\n        /* \"#utility.yul\":11629:11630   */\n      0x00\n        /* \"#utility.yul\":11622:11634   */\n      revert\n        /* \"#utility.yul\":11583:11636   */\n    tag_688:\n        /* \"#utility.yul\":11672:11681   */\n      dup5\n        /* \"#utility.yul\":11659:11682   */\n      calldataload\n      sub(shl(0x40, 0x01), 0x01)\n        /* \"#utility.yul\":11697:11703   */\n      dup2\n        /* \"#utility.yul\":11694:11724   */\n      gt\n        /* \"#utility.yul\":11691:11741   */\n      iszero\n      tag_689\n      jumpi\n        /* \"#utility.yul\":11737:11738   */\n      0x00\n        /* \"#utility.yul\":11734:11735   */\n      0x00\n        /* \"#utility.yul\":11727:11739   */\n      revert\n        /* \"#utility.yul\":11691:11741   */\n    tag_689:\n        /* \"#utility.yul\":11760:11810   */\n      tag_690\n        /* \"#utility.yul\":11802:11809   */\n      dup8\n        /* \"#utility.yul\":11793:11799   */\n      dup3\n        /* \"#utility.yul\":11782:11791   */\n      dup9\n        /* \"#utility.yul\":11778:11800   */\n      add\n        /* \"#utility.yul\":11760:11810   */\n      tag_598\n      jump\t// in\n    tag_690:\n        /* \"#utility.yul\":11750:11810   */\n      swap5\n      pop\n      pop\n        /* \"#utility.yul\":11863:11865   */\n      0x20\n        /* \"#utility.yul\":11852:11861   */\n      dup6\n        /* \"#utility.yul\":11848:11866   */\n      add\n        /* \"#utility.yul\":11835:11867   */\n      calldataload\n      sub(shl(0x40, 0x01), 0x01)\n        /* \"#utility.yul\":11882:11890   */\n      dup2\n        /* \"#utility.yul\":11879:11911   */\n      gt\n        /* \"#utility.yul\":11876:11928   */\n      iszero\n      tag_691\n      jumpi\n        /* \"#utility.yul\":11924:11925   */\n      0x00\n        /* \"#utility.yul\":11921:11922   */\n      0x00\n        /* \"#utility.yul\":11914:11926   */\n      revert\n        /* \"#utility.yul\":11876:11928   */\n    tag_691:\n        /* \"#utility.yul\":11947:11999   */\n      tag_692\n        /* \"#utility.yul\":11991:11998   */\n      dup8\n        /* \"#utility.yul\":11980:11988   */\n      dup3\n        /* \"#utility.yul\":11969:11978   */\n      dup9\n        /* \"#utility.yul\":11965:11989   */\n      add\n        /* \"#utility.yul\":11947:11999   */\n      tag_598\n      jump\t// in\n    tag_692:\n        /* \"#utility.yul\":11937:11999   */\n      swap4\n      pop\n      pop\n        /* \"#utility.yul\":12052:12054   */\n      0x40\n        /* \"#utility.yul\":12041:12050   */\n      dup6\n        /* \"#utility.yul\":12037:12055   */\n      add\n        /* \"#utility.yul\":12024:12056   */\n      calldataload\n      sub(shl(0x40, 0x01), 0x01)\n        /* \"#utility.yul\":12071:12079   */\n      dup2\n        /* \"#utility.yul\":12068:12100   */\n      gt\n        /* \"#utility.yul\":12065:12117   */\n      iszero\n      tag_693\n      jumpi\n        /* \"#utility.yul\":12113:12114   */\n      0x00\n        /* \"#utility.yul\":12110:12111   */\n      0x00\n        /* \"#utility.yul\":12103:12115   */\n      revert\n        /* \"#utility.yul\":12065:12117   */\n    tag_693:\n        /* \"#utility.yul\":12136:12188   */\n      tag_694\n        /* \"#utility.yul\":12180:12187   */\n      dup8\n        /* \"#utility.yul\":12169:12177   */\n      dup3\n        /* \"#utility.yul\":12158:12167   */\n      dup9\n        /* \"#utility.yul\":12154:12178   */\n      add\n        /* \"#utility.yul\":12136:12188   */\n      tag_598\n      jump\t// in\n    tag_694:\n        /* \"#utility.yul\":11422:12291   */\n      swap5\n      swap8\n      swap4\n      swap7\n      pop\n        /* \"#utility.yul\":12126:12188   */\n      swap4\n      swap5\n        /* \"#utility.yul\":12257:12259   */\n      0x60\n        /* \"#utility.yul\":12242:12260   */\n      add\n        /* \"#utility.yul\":12229:12261   */\n      calldataload\n      swap4\n      pop\n      pop\n      pop\n        /* \"#utility.yul\":11422:12291   */\n      jump\t// out\n        /* \"#utility.yul\":12296:12716   */\n    tag_148:\n        /* \"#utility.yul\":12373:12379   */\n      0x00\n        /* \"#utility.yul\":12381:12387   */\n      0x00\n        /* \"#utility.yul\":12389:12395   */\n      0x00\n        /* \"#utility.yul\":12442:12444   */\n      0x60\n        /* \"#utility.yul\":12430:12439   */\n      dup5\n        /* \"#utility.yul\":12421:12428   */\n      dup7\n        /* \"#utility.yul\":12417:12440   */\n      sub\n        /* \"#utility.yul\":12413:12445   */\n      slt\n        /* \"#utility.yul\":12410:12462   */\n      iszero\n      tag_696\n      jumpi\n        /* \"#utility.yul\":12458:12459   */\n      0x00\n        /* \"#utility.yul\":12455:12456   */\n      0x00\n        /* \"#utility.yul\":12448:12460   */\n      revert\n        /* \"#utility.yul\":12410:12462   */\n    tag_696:\n        /* \"#utility.yul\":12481:12510   */\n      tag_697\n        /* \"#utility.yul\":12500:12509   */\n      dup5\n        /* \"#utility.yul\":12481:12510   */\n      tag_591\n      jump\t// in\n    tag_697:\n        /* \"#utility.yul\":12471:12510   */\n      swap6\n        /* \"#utility.yul\":12579:12581   */\n      0x20\n        /* \"#utility.yul\":12564:12582   */\n      dup6\n      add\n        /* \"#utility.yul\":12551:12583   */\n      calldataload\n      swap6\n      pop\n        /* \"#utility.yul\":12680:12682   */\n      0x40\n        /* \"#utility.yul\":12665:12683   */\n      swap1\n      swap5\n      add\n        /* \"#utility.yul\":12652:12684   */\n      calldataload\n      swap4\n        /* \"#utility.yul\":12296:12716   */\n      swap3\n      pop\n      pop\n      pop\n      jump\t// out\n        /* \"#utility.yul\":12721:13587   */\n    tag_151:\n        /* \"#utility.yul\":12953:12955   */\n      0x20\n        /* \"#utility.yul\":12965:12986   */\n      dup1\n      dup3\n      mstore\n        /* \"#utility.yul\":13035:13048   */\n      dup3\n      mload\n        /* \"#utility.yul\":12938:12956   */\n      dup3\n      dup3\n      add\n        /* \"#utility.yul\":13057:13079   */\n      dup2\n      swap1\n      mstore\n        /* \"#utility.yul\":12905:12909   */\n      0x00\n      swap2\n        /* \"#utility.yul\":13136:13151   */\n      dup5\n      add\n      swap1\n        /* \"#utility.yul\":13110:13112   */\n      0x40\n        /* \"#utility.yul\":13095:13113   */\n      dup5\n      add\n      swap1\n        /* \"#utility.yul\":12905:12909   */\n      dup4\n        /* \"#utility.yul\":13179:13561   */\n    tag_699:\n        /* \"#utility.yul\":13193:13199   */\n      dup2\n        /* \"#utility.yul\":13190:13191   */\n      dup2\n        /* \"#utility.yul\":13187:13200   */\n      lt\n        /* \"#utility.yul\":13179:13561   */\n      iszero\n      tag_678\n      jumpi\n        /* \"#utility.yul\":13258:13264   */\n      dup4\n        /* \"#utility.yul\":13252:13265   */\n      mload\n        /* \"#utility.yul\":13296:13298   */\n      dup1\n        /* \"#utility.yul\":13290:13299   */\n      mload\n        /* \"#utility.yul\":13285:13288   */\n      dup5\n        /* \"#utility.yul\":13278:13300   */\n      mstore\n        /* \"#utility.yul\":13362:13364   */\n      0x20\n        /* \"#utility.yul\":13358:13360   */\n      dup2\n        /* \"#utility.yul\":13354:13365   */\n      add\n        /* \"#utility.yul\":13348:13366   */\n      mload\n        /* \"#utility.yul\":13341:13367   */\n      iszero\n        /* \"#utility.yul\":13334:13368   */\n      iszero\n        /* \"#utility.yul\":13329:13331   */\n      0x20\n        /* \"#utility.yul\":13324:13327   */\n      dup6\n        /* \"#utility.yul\":13320:13332   */\n      add\n        /* \"#utility.yul\":13313:13369   */\n      mstore\n        /* \"#utility.yul\":13417:13419   */\n      0x40\n        /* \"#utility.yul\":13413:13415   */\n      dup2\n        /* \"#utility.yul\":13409:13420   */\n      add\n        /* \"#utility.yul\":13403:13421   */\n      mload\n        /* \"#utility.yul\":13398:13400   */\n      0x40\n        /* \"#utility.yul\":13393:13396   */\n      dup6\n        /* \"#utility.yul\":13389:13401   */\n      add\n        /* \"#utility.yul\":13382:13422   */\n      mstore\n        /* \"#utility.yul\":13472:13476   */\n      0x60\n        /* \"#utility.yul\":13468:13470   */\n      dup2\n        /* \"#utility.yul\":13464:13477   */\n      add\n        /* \"#utility.yul\":13458:13478   */\n      mload\n        /* \"#utility.yul\":13451:13455   */\n      0x60\n        /* \"#utility.yul\":13446:13449   */\n      dup6\n        /* \"#utility.yul\":13442:13456   */\n      add\n        /* \"#utility.yul\":13435:13479   */\n      mstore\n      pop\n        /* \"#utility.yul\":13508:13512   */\n      0x80\n        /* \"#utility.yul\":13503:13506   */\n      dup4\n        /* \"#utility.yul\":13499:13513   */\n      add\n        /* \"#utility.yul\":13492:13513   */\n      swap3\n      pop\n        /* \"#utility.yul\":13548:13550   */\n      0x20\n        /* \"#utility.yul\":13540:13546   */\n      dup5\n        /* \"#utility.yul\":13536:13551   */\n      add\n        /* \"#utility.yul\":13526:13551   */\n      swap4\n      pop\n        /* \"#utility.yul\":13215:13216   */\n      0x01\n        /* \"#utility.yul\":13212:13213   */\n      dup2\n        /* \"#utility.yul\":13208:13217   */\n      add\n        /* \"#utility.yul\":13203:13217   */\n      swap1\n      pop\n        /* \"#utility.yul\":13179:13561   */\n      jump(tag_699)\n        /* \"#utility.yul\":13592:14619   */\n    tag_163:\n        /* \"#utility.yul\":14014:14017   */\n      0x0120\n        /* \"#utility.yul\":14003:14012   */\n      dup2\n        /* \"#utility.yul\":13996:14018   */\n      mstore\n        /* \"#utility.yul\":13977:13981   */\n      0x00\n        /* \"#utility.yul\":14041:14087   */\n      tag_703\n        /* \"#utility.yul\":14082:14085   */\n      0x0120\n        /* \"#utility.yul\":14071:14080   */\n      dup4\n        /* \"#utility.yul\":14067:14086   */\n      add\n        /* \"#utility.yul\":14059:14065   */\n      dup13\n        /* \"#utility.yul\":14041:14087   */\n      tag_593\n      jump\t// in\n    tag_703:\n        /* \"#utility.yul\":14123:14129   */\n      dup11\n        /* \"#utility.yul\":14118:14120   */\n      0x20\n        /* \"#utility.yul\":14107:14116   */\n      dup5\n        /* \"#utility.yul\":14103:14121   */\n      add\n        /* \"#utility.yul\":14096:14130   */\n      mstore\n        /* \"#utility.yul\":14139:14196   */\n      tag_704\n        /* \"#utility.yul\":14192:14194   */\n      0x40\n        /* \"#utility.yul\":14181:14190   */\n      dup5\n        /* \"#utility.yul\":14177:14195   */\n      add\n        /* \"#utility.yul\":14169:14175   */\n      dup12\n        /* \"#utility.yul\":14139:14196   */\n      tag_594\n      jump\t// in\n    tag_704:\n        /* \"#utility.yul\":14244:14253   */\n      dup3\n        /* \"#utility.yul\":14236:14242   */\n      dup2\n        /* \"#utility.yul\":14232:14254   */\n      sub\n        /* \"#utility.yul\":14227:14229   */\n      0x60\n        /* \"#utility.yul\":14216:14225   */\n      dup5\n        /* \"#utility.yul\":14212:14230   */\n      add\n        /* \"#utility.yul\":14205:14255   */\n      mstore\n        /* \"#utility.yul\":14278:14311   */\n      tag_705\n        /* \"#utility.yul\":14304:14310   */\n      dup2\n        /* \"#utility.yul\":14296:14302   */\n      dup11\n        /* \"#utility.yul\":14278:14311   */\n      tag_593\n      jump\t// in\n    tag_705:\n        /* \"#utility.yul\":14264:14311   */\n      swap1\n      pop\n        /* \"#utility.yul\":14360:14369   */\n      dup3\n        /* \"#utility.yul\":14352:14358   */\n      dup2\n        /* \"#utility.yul\":14348:14370   */\n      sub\n        /* \"#utility.yul\":14342:14345   */\n      0x80\n        /* \"#utility.yul\":14331:14340   */\n      dup5\n        /* \"#utility.yul\":14327:14346   */\n      add\n        /* \"#utility.yul\":14320:14371   */\n      mstore\n        /* \"#utility.yul\":14388:14421   */\n      tag_706\n        /* \"#utility.yul\":14414:14420   */\n      dup2\n        /* \"#utility.yul\":14406:14412   */\n      dup10\n        /* \"#utility.yul\":14388:14421   */\n      tag_593\n      jump\t// in\n    tag_706:\n        /* \"#utility.yul\":14452:14455   */\n      0xa0\n        /* \"#utility.yul\":14437:14456   */\n      dup5\n      add\n        /* \"#utility.yul\":14430:14465   */\n      swap8\n      swap1\n      swap8\n      mstore\n      pop\n      pop\n        /* \"#utility.yul\":14496:14499   */\n      0xc0\n        /* \"#utility.yul\":14481:14500   */\n      dup2\n      add\n        /* \"#utility.yul\":14474:14509   */\n      swap4\n      swap1\n      swap4\n      mstore\n        /* \"#utility.yul\":14553:14567   */\n      swap1\n      iszero\n        /* \"#utility.yul\":14546:14568   */\n      iszero\n        /* \"#utility.yul\":14540:14543   */\n      0xe0\n        /* \"#utility.yul\":14525:14544   */\n      dup4\n      add\n        /* \"#utility.yul\":14518:14569   */\n      mstore\n        /* \"#utility.yul\":14600:14603   */\n      0x0100\n        /* \"#utility.yul\":14585:14604   */\n      swap1\n      swap2\n      add\n        /* \"#utility.yul\":14578:14613   */\n      mstore\n        /* \"#utility.yul\":14380:14421   */\n      swap6\n        /* \"#utility.yul\":13592:14619   */\n      swap5\n      pop\n      pop\n      pop\n      pop\n      pop\n      jump\t// out\n        /* \"#utility.yul\":14624:15017   */\n    tag_173:\n        /* \"#utility.yul\":14709:14715   */\n      0x00\n        /* \"#utility.yul\":14717:14723   */\n      0x00\n        /* \"#utility.yul\":14770:14772   */\n      0x40\n        /* \"#utility.yul\":14758:14767   */\n      dup4\n        /* \"#utility.yul\":14749:14756   */\n      dup6\n        /* \"#utility.yul\":14745:14768   */\n      sub\n        /* \"#utility.yul\":14741:14773   */\n      slt\n        /* \"#utility.yul\":14738:14790   */\n      iszero\n      tag_708\n      jumpi\n        /* \"#utility.yul\":14786:14787   */\n      0x00\n        /* \"#utility.yul\":14783:14784   */\n      0x00\n        /* \"#utility.yul\":14776:14788   */\n      revert\n        /* \"#utility.yul\":14738:14790   */\n    tag_708:\n        /* \"#utility.yul\":14831:14854   */\n      dup3\n      calldataload\n      swap2\n      pop\n        /* \"#utility.yul\":14930:14932   */\n      0x20\n        /* \"#utility.yul\":14915:14933   */\n      dup4\n      add\n        /* \"#utility.yul\":14902:14934   */\n      calldataload\n        /* \"#utility.yul\":14965:14966   */\n      0x03\n        /* \"#utility.yul\":14953:14967   */\n      dup2\n      lt\n        /* \"#utility.yul\":14943:14985   */\n      tag_709\n      jumpi\n        /* \"#utility.yul\":14981:14982   */\n      0x00\n        /* \"#utility.yul\":14978:14979   */\n      0x00\n        /* \"#utility.yul\":14971:14983   */\n      revert\n        /* \"#utility.yul\":14943:14985   */\n    tag_709:\n        /* \"#utility.yul\":15004:15011   */\n      dup1\n        /* \"#utility.yul\":14994:15011   */\n      swap2\n      pop\n      pop\n        /* \"#utility.yul\":14624:15017   */\n      swap3\n      pop\n      swap3\n      swap1\n      pop\n      jump\t// out\n        /* \"#utility.yul\":15022:15322   */\n    tag_183:\n        /* \"#utility.yul\":15090:15096   */\n      0x00\n        /* \"#utility.yul\":15098:15104   */\n      0x00\n        /* \"#utility.yul\":15151:15153   */\n      0x40\n        /* \"#utility.yul\":15139:15148   */\n      dup4\n        /* \"#utility.yul\":15130:15137   */\n      dup6\n        /* \"#utility.yul\":15126:15149   */\n      sub\n        /* \"#utility.yul\":15122:15154   */\n      slt\n        /* \"#utility.yul\":15119:15171   */\n      iszero\n      tag_711\n      jumpi\n        /* \"#utility.yul\":15167:15168   */\n      0x00\n        /* \"#utility.yul\":15164:15165   */\n      0x00\n        /* \"#utility.yul\":15157:15169   */\n      revert\n        /* \"#utility.yul\":15119:15171   */\n    tag_711:\n        /* \"#utility.yul\":15190:15219   */\n      tag_712\n        /* \"#utility.yul\":15209:15218   */\n      dup4\n        /* \"#utility.yul\":15190:15219   */\n      tag_591\n      jump\t// in\n    tag_712:\n        /* \"#utility.yul\":15180:15219   */\n      swap5\n        /* \"#utility.yul\":15288:15290   */\n      0x20\n        /* \"#utility.yul\":15273:15291   */\n      swap4\n      swap1\n      swap4\n      add\n        /* \"#utility.yul\":15260:15292   */\n      calldataload\n      swap4\n      pop\n      pop\n      pop\n        /* \"#utility.yul\":15022:15322   */\n      jump\t// out\n        /* \"#utility.yul\":15733:16130   */\n    tag_207:\n        /* \"#utility.yul\":15935:15937   */\n      0x20\n        /* \"#utility.yul\":15917:15938   */\n      dup1\n      dup3\n      mstore\n        /* \"#utility.yul\":15974:15976   */\n      0x21\n        /* \"#utility.yul\":15954:15972   */\n      swap1\n      dup3\n      add\n        /* \"#utility.yul\":15947:15977   */\n      mstore\n        /* \"#utility.yul\":16013:16047   */\n      0x4e6f7420617574686f72697a656420746f207265736f6c7665206d61726b6574\n        /* \"#utility.yul\":16008:16010   */\n      0x40\n        /* \"#utility.yul\":15993:16011   */\n      dup3\n      add\n        /* \"#utility.yul\":15986:16048   */\n      mstore\n      shl(0xf8, 0x73)\n        /* \"#utility.yul\":16079:16081   */\n      0x60\n        /* \"#utility.yul\":16064:16082   */\n      dup3\n      add\n        /* \"#utility.yul\":16057:16088   */\n      mstore\n        /* \"#utility.yul\":16120:16123   */\n      0x80\n        /* \"#utility.yul\":16105:16124   */\n      add\n      swap1\n        /* \"#utility.yul\":15733:16130   */\n      jump\t// out\n        /* \"#utility.yul\":16487:16614   */\n    tag_599:\n        /* \"#utility.yul\":16548:16558   */\n      0x4e487b71\n        /* \"#utility.yul\":16543:16546   */\n      0xe0\n        /* \"#utility.yul\":16539:16559   */\n      shl\n        /* \"#utility.yul\":16536:16537   */\n      0x00\n        /* \"#utility.yul\":16529:16560   */\n      mstore\n        /* \"#utility.yul\":16579:16583   */\n      0x11\n        /* \"#utility.yul\":16576:16577   */\n      0x04\n        /* \"#utility.yul\":16569:16584   */\n      mstore\n        /* \"#utility.yul\":16603:16607   */\n      0x24\n        /* \"#utility.yul\":16600:16601   */\n      0x00\n        /* \"#utility.yul\":16593:16608   */\n      revert\n        /* \"#utility.yul\":16619:16744   */\n    tag_212:\n        /* \"#utility.yul\":16684:16693   */\n      dup1\n      dup3\n      add\n        /* \"#utility.yul\":16705:16715   */\n      dup1\n      dup3\n      gt\n        /* \"#utility.yul\":16702:16738   */\n      iszero\n      tag_192\n      jumpi\n        /* \"#utility.yul\":16718:16736   */\n      tag_192\n      tag_599\n      jump\t// in\n        /* \"#utility.yul\":17095:17263   */\n    tag_231:\n        /* \"#utility.yul\":17168:17177   */\n      dup1\n      dup3\n      mul\n        /* \"#utility.yul\":17199:17208   */\n      dup2\n      iszero\n        /* \"#utility.yul\":17216:17231   */\n      dup3\n      dup3\n      div\n        /* \"#utility.yul\":17210:17232   */\n      dup5\n      eq\n        /* \"#utility.yul\":17196:17233   */\n      or\n        /* \"#utility.yul\":17186:17257   */\n      tag_192\n      jumpi\n        /* \"#utility.yul\":17237:17255   */\n      tag_192\n      tag_599\n      jump\t// in\n        /* \"#utility.yul\":17268:17485   */\n    tag_233:\n        /* \"#utility.yul\":17308:17309   */\n      0x00\n        /* \"#utility.yul\":17334:17335   */\n      dup3\n        /* \"#utility.yul\":17324:17456   */\n      tag_725\n      jumpi\n        /* \"#utility.yul\":17378:17388   */\n      0x4e487b71\n        /* \"#utility.yul\":17373:17376   */\n      0xe0\n        /* \"#utility.yul\":17369:17389   */\n      shl\n        /* \"#utility.yul\":17366:17367   */\n      0x00\n        /* \"#utility.yul\":17359:17390   */\n      mstore\n        /* \"#utility.yul\":17413:17417   */\n      0x12\n        /* \"#utility.yul\":17410:17411   */\n      0x04\n        /* \"#utility.yul\":17403:17418   */\n      mstore\n        /* \"#utility.yul\":17441:17445   */\n      0x24\n        /* \"#utility.yul\":17438:17439   */\n      0x00\n        /* \"#utility.yul\":17431:17446   */\n      revert\n        /* \"#utility.yul\":17324:17456   */\n    tag_725:\n      pop\n        /* \"#utility.yul\":17470:17479   */\n      div\n      swap1\n        /* \"#utility.yul\":17268:17485   */\n      jump\t// out\n        /* \"#utility.yul\":17490:17617   */\n    tag_239:\n        /* \"#utility.yul\":17551:17561   */\n      0x4e487b71\n        /* \"#utility.yul\":17546:17549   */\n      0xe0\n        /* \"#utility.yul\":17542:17562   */\n      shl\n        /* \"#utility.yul\":17539:17540   */\n      0x00\n        /* \"#utility.yul\":17532:17563   */\n      mstore\n        /* \"#utility.yul\":17582:17586   */\n      0x32\n        /* \"#utility.yul\":17579:17580   */\n      0x04\n        /* \"#utility.yul\":17572:17587   */\n      mstore\n        /* \"#utility.yul\":17606:17610   */\n      0x24\n        /* \"#utility.yul\":17603:17604   */\n      0x00\n        /* \"#utility.yul\":17596:17611   */\n      revert\n        /* \"#utility.yul\":17901:18146   */\n    tag_264:\n        /* \"#utility.yul\":17968:17974   */\n      0x00\n        /* \"#utility.yul\":18021:18023   */\n      0x20\n        /* \"#utility.yul\":18009:18018   */\n      dup3\n        /* \"#utility.yul\":18000:18007   */\n      dup5\n        /* \"#utility.yul\":17996:18019   */\n      sub\n        /* \"#utility.yul\":17992:18024   */\n      slt\n        /* \"#utility.yul\":17989:18041   */\n      iszero\n      tag_729\n      jumpi\n        /* \"#utility.yul\":18037:18038   */\n      0x00\n        /* \"#utility.yul\":18034:18035   */\n      0x00\n        /* \"#utility.yul\":18027:18039   */\n      revert\n        /* \"#utility.yul\":17989:18041   */\n    tag_729:\n        /* \"#utility.yul\":18069:18078   */\n      dup2\n        /* \"#utility.yul\":18063:18079   */\n      mload\n        /* \"#utility.yul\":18088:18116   */\n      tag_606\n        /* \"#utility.yul\":18110:18115   */\n      dup2\n        /* \"#utility.yul\":18088:18116   */\n      tag_592\n      jump\t// in\n        /* \"#utility.yul\":20553:20933   */\n    tag_333:\n        /* \"#utility.yul\":20632:20633   */\n      0x01\n        /* \"#utility.yul\":20628:20640   */\n      dup2\n      dup2\n      shr\n      swap1\n        /* \"#utility.yul\":20675:20687   */\n      dup3\n      and\n      dup1\n        /* \"#utility.yul\":20696:20757   */\n      tag_739\n      jumpi\n        /* \"#utility.yul\":20750:20754   */\n      0x7f\n        /* \"#utility.yul\":20742:20748   */\n      dup3\n        /* \"#utility.yul\":20738:20755   */\n      and\n        /* \"#utility.yul\":20728:20755   */\n      swap2\n      pop\n        /* \"#utility.yul\":20696:20757   */\n    tag_739:\n        /* \"#utility.yul\":20803:20805   */\n      0x20\n        /* \"#utility.yul\":20795:20801   */\n      dup3\n        /* \"#utility.yul\":20792:20806   */\n      lt\n        /* \"#utility.yul\":20772:20790   */\n      dup2\n        /* \"#utility.yul\":20769:20807   */\n      sub\n        /* \"#utility.yul\":20766:20927   */\n      tag_740\n      jumpi\n        /* \"#utility.yul\":20849:20859   */\n      0x4e487b71\n        /* \"#utility.yul\":20844:20847   */\n      0xe0\n        /* \"#utility.yul\":20840:20860   */\n      shl\n        /* \"#utility.yul\":20837:20838   */\n      0x00\n        /* \"#utility.yul\":20830:20861   */\n      mstore\n        /* \"#utility.yul\":20884:20888   */\n      0x22\n        /* \"#utility.yul\":20881:20882   */\n      0x04\n        /* \"#utility.yul\":20874:20889   */\n      mstore\n        /* \"#utility.yul\":20912:20916   */\n      0x24\n        /* \"#utility.yul\":20909:20910   */\n      0x00\n        /* \"#utility.yul\":20902:20917   */\n      revert\n        /* \"#utility.yul\":20766:20927   */\n    tag_740:\n      pop\n        /* \"#utility.yul\":20553:20933   */\n      swap2\n      swap1\n      pop\n      jump\t// out\n        /* \"#utility.yul\":21292:21420   */\n    tag_439:\n        /* \"#utility.yul\":21359:21368   */\n      dup2\n      dup2\n      sub\n        /* \"#utility.yul\":21380:21391   */\n      dup2\n      dup2\n      gt\n        /* \"#utility.yul\":21377:21414   */\n      iszero\n      tag_192\n      jumpi\n        /* \"#utility.yul\":21394:21412   */\n      tag_192\n      tag_599\n      jump\t// in\n        /* \"#utility.yul\":22851:22986   */\n    tag_473:\n        /* \"#utility.yul\":22890:22893   */\n      0x00\n        /* \"#utility.yul\":22911:22928   */\n      0x01\n      dup3\n      add\n        /* \"#utility.yul\":22908:22951   */\n      tag_751\n      jumpi\n        /* \"#utility.yul\":22931:22949   */\n      tag_751\n      tag_599\n      jump\t// in\n    tag_751:\n      pop\n        /* \"#utility.yul\":22978:22979   */\n      0x01\n        /* \"#utility.yul\":22967:22980   */\n      add\n      swap1\n        /* \"#utility.yul\":22851:22986   */\n      jump\t// out\n        /* \"#utility.yul\":23117:23635   */\n    tag_601:\n        /* \"#utility.yul\":23219:23221   */\n      0x1f\n        /* \"#utility.yul\":23214:23217   */\n      dup3\n        /* \"#utility.yul\":23211:23222   */\n      gt\n        /* \"#utility.yul\":23208:23629   */\n      iszero\n      tag_294\n      jumpi\n        /* \"#utility.yul\":23255:23260   */\n      dup1\n        /* \"#utility.yul\":23252:23253   */\n      0x00\n        /* \"#utility.yul\":23245:23261   */\n      mstore\n        /* \"#utility.yul\":23299:23303   */\n      0x20\n        /* \"#utility.yul\":23296:23297   */\n      0x00\n        /* \"#utility.yul\":23286:23304   */\n      keccak256\n        /* \"#utility.yul\":23369:23371   */\n      0x1f\n        /* \"#utility.yul\":23357:23367   */\n      dup5\n        /* \"#utility.yul\":23353:23372   */\n      add\n        /* \"#utility.yul\":23350:23351   */\n      0x05\n        /* \"#utility.yul\":23346:23373   */\n      shr\n        /* \"#utility.yul\":23340:23344   */\n      dup2\n        /* \"#utility.yul\":23336:23374   */\n      add\n        /* \"#utility.yul\":23405:23409   */\n      0x20\n        /* \"#utility.yul\":23393:23403   */\n      dup6\n        /* \"#utility.yul\":23390:23410   */\n      lt\n        /* \"#utility.yul\":23387:23434   */\n      iszero\n      tag_755\n      jumpi\n      pop\n        /* \"#utility.yul\":23428:23432   */\n      dup1\n        /* \"#utility.yul\":23387:23434   */\n    tag_755:\n        /* \"#utility.yul\":23483:23485   */\n      0x1f\n        /* \"#utility.yul\":23478:23481   */\n      dup5\n        /* \"#utility.yul\":23474:23486   */\n      add\n        /* \"#utility.yul\":23471:23472   */\n      0x05\n        /* \"#utility.yul\":23467:23487   */\n      shr\n        /* \"#utility.yul\":23461:23465   */\n      dup3\n        /* \"#utility.yul\":23457:23488   */\n      add\n        /* \"#utility.yul\":23447:23488   */\n      swap2\n      pop\n        /* \"#utility.yul\":23538:23619   */\n    tag_756:\n        /* \"#utility.yul\":23556:23558   */\n      dup2\n        /* \"#utility.yul\":23549:23554   */\n      dup2\n        /* \"#utility.yul\":23546:23559   */\n      lt\n        /* \"#utility.yul\":23538:23619   */\n      iszero\n      tag_758\n      jumpi\n        /* \"#utility.yul\":23615:23616   */\n      0x00\n        /* \"#utility.yul\":23601:23617   */\n      dup2\n      sstore\n        /* \"#utility.yul\":23582:23583   */\n      0x01\n        /* \"#utility.yul\":23571:23584   */\n      add\n        /* \"#utility.yul\":23538:23619   */\n      jump(tag_756)\n    tag_758:\n        /* \"#utility.yul\":23542:23545   */\n      pop\n      pop\n        /* \"#utility.yul\":23117:23635   */\n      pop\n      pop\n      pop\n      jump\t// out\n        /* \"#utility.yul\":23811:25110   */\n    tag_475:\n        /* \"#utility.yul\":23937:23940   */\n      dup2\n        /* \"#utility.yul\":23931:23941   */\n      mload\n      sub(shl(0x40, 0x01), 0x01)\n        /* \"#utility.yul\":23956:23962   */\n      dup2\n        /* \"#utility.yul\":23953:23983   */\n      gt\n        /* \"#utility.yul\":23950:24006   */\n      iszero\n      tag_762\n      jumpi\n        /* \"#utility.yul\":23986:24004   */\n      tag_762\n      tag_352\n      jump\t// in\n    tag_762:\n        /* \"#utility.yul\":24015:24112   */\n      tag_763\n        /* \"#utility.yul\":24105:24111   */\n      dup2\n        /* \"#utility.yul\":24065:24103   */\n      tag_764\n        /* \"#utility.yul\":24097:24101   */\n      dup5\n        /* \"#utility.yul\":24091:24102   */\n      sload\n        /* \"#utility.yul\":24065:24103   */\n      tag_333\n      jump\t// in\n    tag_764:\n        /* \"#utility.yul\":24059:24063   */\n      dup5\n        /* \"#utility.yul\":24015:24112   */\n      tag_601\n      jump\t// in\n    tag_763:\n        /* \"#utility.yul\":24161:24165   */\n      0x20\n        /* \"#utility.yul\":24192:24194   */\n      0x1f\n        /* \"#utility.yul\":24181:24195   */\n      dup3\n      gt\n        /* \"#utility.yul\":24209:24210   */\n      0x01\n        /* \"#utility.yul\":24204:24853   */\n      dup2\n      eq\n      tag_766\n      jumpi\n        /* \"#utility.yul\":24897:24898   */\n      0x00\n        /* \"#utility.yul\":24914:24920   */\n      dup4\n        /* \"#utility.yul\":24911:25000   */\n      iszero\n      tag_767\n      jumpi\n      pop\n        /* \"#utility.yul\":24966:24985   */\n      dup5\n      dup3\n      add\n        /* \"#utility.yul\":24960:24986   */\n      mload\n        /* \"#utility.yul\":24911:25000   */\n    tag_767:\n      not(0x00)\n        /* \"#utility.yul\":23768:23769   */\n      0x03\n        /* \"#utility.yul\":23764:23775   */\n      dup6\n      swap1\n      shl\n        /* \"#utility.yul\":23760:23784   */\n      shr\n        /* \"#utility.yul\":23756:23785   */\n      not\n        /* \"#utility.yul\":23746:23786   */\n      and\n        /* \"#utility.yul\":23792:23793   */\n      0x01\n        /* \"#utility.yul\":23788:23799   */\n      dup5\n      swap1\n      shl\n        /* \"#utility.yul\":23743:23800   */\n      or\n        /* \"#utility.yul\":25013:25094   */\n      dup5\n      sstore\n        /* \"#utility.yul\":24174:25104   */\n      jump(tag_758)\n        /* \"#utility.yul\":24204:24853   */\n    tag_766:\n        /* \"#utility.yul\":23064:23065   */\n      0x00\n        /* \"#utility.yul\":23057:23071   */\n      dup5\n      dup2\n      mstore\n        /* \"#utility.yul\":23101:23105   */\n      0x20\n        /* \"#utility.yul\":23088:23106   */\n      dup2\n      keccak256\n      not(0x1f)\n        /* \"#utility.yul\":24240:24260   */\n      dup6\n      and\n      swap2\n        /* \"#utility.yul\":24358:24580   */\n    tag_770:\n        /* \"#utility.yul\":24372:24379   */\n      dup3\n        /* \"#utility.yul\":24369:24370   */\n      dup2\n        /* \"#utility.yul\":24366:24380   */\n      lt\n        /* \"#utility.yul\":24358:24580   */\n      iszero\n      tag_772\n      jumpi\n        /* \"#utility.yul\":24454:24473   */\n      dup8\n      dup6\n      add\n        /* \"#utility.yul\":24448:24474   */\n      mload\n        /* \"#utility.yul\":24433:24475   */\n      dup3\n      sstore\n        /* \"#utility.yul\":24561:24565   */\n      0x20\n        /* \"#utility.yul\":24546:24566   */\n      swap5\n      dup6\n      add\n      swap5\n        /* \"#utility.yul\":24514:24515   */\n      0x01\n        /* \"#utility.yul\":24502:24516   */\n      swap1\n      swap3\n      add\n      swap2\n        /* \"#utility.yul\":24388:24400   */\n      add\n        /* \"#utility.yul\":24358:24580   */\n      jump(tag_770)\n    tag_772:\n        /* \"#utility.yul\":24362:24365   */\n      pop\n        /* \"#utility.yul\":24608:24614   */\n      dup5\n        /* \"#utility.yul\":24599:24606   */\n      dup3\n        /* \"#utility.yul\":24596:24615   */\n      lt\n        /* \"#utility.yul\":24593:24794   */\n      iszero\n      tag_773\n      jumpi\n        /* \"#utility.yul\":24669:24688   */\n      dup7\n      dup5\n      add\n        /* \"#utility.yul\":24663:24689   */\n      mload\n      not(0x00)\n        /* \"#utility.yul\":24752:24753   */\n      0x03\n        /* \"#utility.yul\":24748:24762   */\n      dup8\n      swap1\n      shl\n        /* \"#utility.yul\":24764:24767   */\n      0xf8\n        /* \"#utility.yul\":24744:24768   */\n      and\n        /* \"#utility.yul\":24740:24777   */\n      shr\n        /* \"#utility.yul\":24736:24778   */\n      not\n        /* \"#utility.yul\":24721:24779   */\n      and\n        /* \"#utility.yul\":24706:24780   */\n      dup2\n      sstore\n        /* \"#utility.yul\":24593:24794   */\n    tag_773:\n      pop\n      pop\n      pop\n      pop\n        /* \"#utility.yul\":24840:24841   */\n      0x01\n        /* \"#utility.yul\":24824:24838   */\n      swap1\n      dup2\n      shl\n        /* \"#utility.yul\":24820:24842   */\n      add\n        /* \"#utility.yul\":24807:24843   */\n      swap1\n      sstore\n      pop\n        /* \"#utility.yul\":23811:25110   */\n      jump\t// out\n        /* \"#utility.yul\":25115:25734   */\n    tag_482:\n        /* \"#utility.yul\":25388:25391   */\n      0x80\n        /* \"#utility.yul\":25377:25386   */\n      dup2\n        /* \"#utility.yul\":25370:25392   */\n      mstore\n        /* \"#utility.yul\":25351:25355   */\n      0x00\n        /* \"#utility.yul\":25415:25461   */\n      tag_775\n        /* \"#utility.yul\":25456:25459   */\n      0x80\n        /* \"#utility.yul\":25445:25454   */\n      dup4\n        /* \"#utility.yul\":25441:25460   */\n      add\n        /* \"#utility.yul\":25433:25439   */\n      dup8\n        /* \"#utility.yul\":25415:25461   */\n      tag_593\n      jump\t// in\n    tag_775:\n        /* \"#utility.yul\":25509:25518   */\n      dup3\n        /* \"#utility.yul\":25501:25507   */\n      dup2\n        /* \"#utility.yul\":25497:25519   */\n      sub\n        /* \"#utility.yul\":25492:25494   */\n      0x20\n        /* \"#utility.yul\":25481:25490   */\n      dup5\n        /* \"#utility.yul\":25477:25495   */\n      add\n        /* \"#utility.yul\":25470:25520   */\n      mstore\n        /* \"#utility.yul\":25543:25576   */\n      tag_776\n        /* \"#utility.yul\":25569:25575   */\n      dup2\n        /* \"#utility.yul\":25561:25567   */\n      dup8\n        /* \"#utility.yul\":25543:25576   */\n      tag_593\n      jump\t// in\n    tag_776:\n        /* \"#utility.yul\":25529:25576   */\n      swap1\n      pop\n        /* \"#utility.yul\":25624:25633   */\n      dup3\n        /* \"#utility.yul\":25616:25622   */\n      dup2\n        /* \"#utility.yul\":25612:25634   */\n      sub\n        /* \"#utility.yul\":25607:25609   */\n      0x40\n        /* \"#utility.yul\":25596:25605   */\n      dup5\n        /* \"#utility.yul\":25592:25610   */\n      add\n        /* \"#utility.yul\":25585:25635   */\n      mstore\n        /* \"#utility.yul\":25652:25685   */\n      tag_777\n        /* \"#utility.yul\":25678:25684   */\n      dup2\n        /* \"#utility.yul\":25670:25676   */\n      dup7\n        /* \"#utility.yul\":25652:25685   */\n      tag_593\n      jump\t// in\n    tag_777:\n        /* \"#utility.yul\":25644:25685   */\n      swap2\n      pop\n      pop\n        /* \"#utility.yul\":25721:25727   */\n      dup3\n        /* \"#utility.yul\":25716:25718   */\n      0x60\n        /* \"#utility.yul\":25705:25714   */\n      dup4\n        /* \"#utility.yul\":25701:25719   */\n      add\n        /* \"#utility.yul\":25694:25728   */\n      mstore\n        /* \"#utility.yul\":25115:25734   */\n      swap6\n      swap5\n      pop\n      pop\n      pop\n      pop\n      pop\n      jump\t// out\n        /* \"#utility.yul\":26791:27220   */\n    tag_550:\n        /* \"#utility.yul\":27024:27027   */\n      0x80\n        /* \"#utility.yul\":27009:27028   */\n      dup2\n      add\n        /* \"#utility.yul\":27037:27085   */\n      tag_782\n        /* \"#utility.yul\":27013:27022   */\n      dup3\n        /* \"#utility.yul\":27067:27073   */\n      dup8\n        /* \"#utility.yul\":27037:27085   */\n      tag_594\n      jump\t// in\n    tag_782:\n        /* \"#utility.yul\":27121:27127   */\n      dup5\n        /* \"#utility.yul\":27116:27118   */\n      0x20\n        /* \"#utility.yul\":27105:27114   */\n      dup4\n        /* \"#utility.yul\":27101:27119   */\n      add\n        /* \"#utility.yul\":27094:27128   */\n      mstore\n        /* \"#utility.yul\":27164:27170   */\n      dup4\n        /* \"#utility.yul\":27159:27161   */\n      0x40\n        /* \"#utility.yul\":27148:27157   */\n      dup4\n        /* \"#utility.yul\":27144:27162   */\n      add\n        /* \"#utility.yul\":27137:27171   */\n      mstore\n        /* \"#utility.yul\":27207:27213   */\n      dup3\n        /* \"#utility.yul\":27202:27204   */\n      0x60\n        /* \"#utility.yul\":27191:27200   */\n      dup4\n        /* \"#utility.yul\":27187:27205   */\n      add\n        /* \"#utility.yul\":27180:27214   */\n      mstore\n        /* \"#utility.yul\":26791:27220   */\n      swap6\n      swap5\n      pop\n      pop\n      pop\n      pop\n      pop\n      jump\t// out\n    stop\n    data_dbe7ce371369c08dbc42c9c8a71c2316d4700de8ace8bc367af35ac832676709 dcee1d35c83a32b436264a5c9afd68685c124f3f9097e87804c55410e67fc59a\n\n    auxdata: 0xa264697066735822122054d93b17bc1b7057208e2d69d5897ec7fdb734e2bacf500b9152505460a6a95f64736f6c634300081e0033\n}\n",
				"bytecode": {
					"linkReferences": {},
					"object": "608060405234801561000f575f5ffd5b50604051612f4d380380612f4d83398101604081905261002e91610189565b338061005357604051631e4fbdf760e01b81525f600482015260240160405180910390fd5b61005c8161008d565b5060018055600380546001600160a01b0319166001600160a01b0383161790556100865f336100dc565b50506101b6565b5f80546001600160a01b038381166001600160a01b0319831681178455604051919092169283917f8be0079c531659141344cd1fd0a4f28419497f9722a3daafe3b4186f6b6457e09190a35050565b5f8281526002602090815260408083206001600160a01b038516845290915281205460ff16610180575f8381526002602090815260408083206001600160a01b03861684529091529020805460ff191660011790556101383390565b6001600160a01b0316826001600160a01b0316847f2f8788117e7eff1d82e926ec794901d17c78024a50270940304540a733656f0d60405160405180910390a4506001610183565b505f5b92915050565b5f60208284031215610199575f5ffd5b81516001600160a01b03811681146101af575f5ffd5b9392505050565b612d8a806101c35f395ff3fe608060405234801561000f575f5ffd5b5060043610610208575f3560e01c8063715018a61161011f578063a217fddf116100a9578063df55406e11610079578063df55406e14610575578063ec97908214610588578063f2fde38b14610591578063faa62253146105a4578063fd69f3c2146105d7575f5ffd5b8063a217fddf14610514578063b1283e771461051b578063b47574ea14610543578063d547741f14610562575f5ffd5b806377b4a3e7116100ef57806377b4a3e71461048b5780638b8840e0146104b25780638da5cb5b146104d15780638e1cc87b146104e157806391d1485414610501575f5ffd5b8063715018a61461043c57806373af16fc14610444578063755f06291461046457806376e0040614610478575f5ffd5b80633260ac90116101a05780633ec79193116101705780633ec79193146103a057806343425e88146103c75780635e3dd526146103da5780635e919f7c146104025780636db3b4dc14610429575f5ffd5b80633260ac901461035f57806335037e0b1461036757806336568abe1461037a57806339b463721461038d575f5ffd5b80630c6650b2116101db5780630c6650b2146102f6578063248a9ca31461030b57806329cf655b1461033b5780632f2ff15d1461034c575f5ffd5b806301ffc9a71461020c5780630391f64c1461023457806305e33dd01461028f5780630b5a9a62146102ba575b5f5ffd5b61021f61021a3660046123b2565b6105df565b60405190151581526020015b60405180910390f35b61027a6102423660046123fb565b5f9182526005602090815260408084206001600160a01b03939093168452600883018252808420546009909301909152909120549091565b6040805192835260208301919091520161022b565b6102a261029d366004612425565b610615565b6040516001600160a01b03909116815260200161022b565b61021f6102c83660046123fb565b5f8281526005602090815260408083206001600160a01b0385168452600a0190915290205460ff1692915050565b61030961030436600461243c565b61063d565b005b61032d610319366004612425565b5f9081526002602052604090206001015490565b60405190815260200161022b565b6003546001600160a01b03166102a2565b61030961035a3660046123fb565b610a8a565b60095461032d565b61030961037536600461245c565b610ab4565b6103096103883660046123fb565b610b62565b61030961039b366004612482565b610b9a565b6103b36103ae366004612425565b610f71565b60405161022b989796959493929190612519565b6003546102a2906001600160a01b031681565b61032d6103e836600461245c565b6001600160a01b03165f9081526008602052604090205490565b61041561041036600461258a565b611185565b60405161022b9897969594939291906126bf565b61030961043736600461245c565b6116f7565b6103096117b8565b61045761045236600461243c565b6117cb565b60405161022b9190612799565b61032d5f516020612d355f395f51905f5281565b61032d61048636600461289a565b611964565b61032d7fef485be696bbc0c91ad541bbd553ffb5bd0e18dac30ba76e992dda23cb807a8a81565b61032d6104c036600461245c565b60076020525f908152604090205481565b5f546001600160a01b03166102a2565b6104f46104ef36600461292d565b611b9c565b60405161022b919061295d565b61021f61050f3660046123fb565b611d43565b61032d5f81565b61052e610529366004612425565b611d6d565b60405161022b999897969594939291906129bc565b61032d61055136600461245c565b60066020525f908152604090205481565b6103096105703660046123fb565b611f53565b610309610583366004612a33565b611f77565b61032d60045481565b61030961059f36600461245c565b61214c565b6105b76105b2366004612a64565b612189565b60408051948552921515602085015291830152606082015260800161022b565b60045461032d565b5f6001600160e01b03198216637965db0b60e01b148061060f57506301ffc9a760e01b6001600160e01b03198316145b92915050565b60098181548110610624575f80fd5b5f918252602090912001546001600160a01b0316905081565b6106456121ce565b5f82815260056020526040812090546001600160a01b031633148061067c575061067c5f516020612d355f395f51905f5233611d43565b6106a15760405162461bcd60e51b815260040161069890612a8c565b60405180910390fd5b600781015460ff166106f55760405162461bcd60e51b815260206004820152601760248201527f4d61726b6574206e6f74207265736f6c766564207965740000000000000000006044820152606401610698565b600b810154600c8201545f9061070c908590612ae1565b9050818111156107195750805b5f600160028086015460ff1690811115610735576107356124e5565b1461074457836006015461074a565b83600501545b90505f600160028087015460ff1690811115610768576107686124e5565b1461077757846005015461077d565b84600601545b90505f82116107c25760405162461bcd60e51b81526020600482015260116024820152704e6f2077696e6e696e672073686172657360781b6044820152606401610698565b5f826107d683670de0b6b3a7640000612af4565b6107e09190612b0b565b600c8701549091505b84811015610a6f575f87600b01828154811061080757610807612b2a565b5f9182526020822001546001600160a01b0316915060016002808b015460ff1690811115610837576108376124e5565b1461085b576001600160a01b0382165f90815260098a016020526040902054610876565b6001600160a01b0382165f90815260088a0160205260409020545b90505f811180156108a157506001600160a01b0382165f908152600a8a01602052604090205460ff16155b15610a65575f670de0b6b3a76400006108ba8684612af4565b6108c49190612b0b565b6108ce9083612ae1565b905060016002808c015460ff16908111156108eb576108eb6124e5565b0361090f576001600160a01b0383165f90815260088b01602052604081205561092a565b6001600160a01b0383165f90815260098b0160205260408120555b6001600160a01b0383165f908152600a8b0160209081526040808320805460ff19166001179055600790915281208054839290610968908490612ae1565b909155505060035460405163a9059cbb60e01b81526001600160a01b038581166004830152602482018490529091169063a9059cbb906044016020604051808303815f875af11580156109bd573d5f5f3e3d5ffd5b505050506040513d601f19601f820116820180604052508101906109e19190612b3e565b610a1f5760405162461bcd60e51b815260206004820152600f60248201526e151c985b9cd9995c8819985a5b1959608a1b6044820152606401610698565b826001600160a01b03168c7f4ec90e965519d92681267467f775ada5bd214aa92c0dc93d90a5e880ce9ed02683604051610a5b91815260200190565b60405180910390a3505b50506001016107e9565b50505050600c9092019190915550610a8660018055565b5050565b5f82815260026020526040902060010154610aa4816121f8565b610aae8383612202565b50505050565b610abc612293565b5f546001600160a01b03163314610b155760405162461bcd60e51b815260206004820152601a60248201527f4f6e6c79206f776e65722063616e206772616e7420726f6c65730000000000006044820152606401610698565b610b2c5f516020612d355f395f51905f5282610a8a565b6040516001600160a01b038216907fddf51a9b6b1d679c1a24a62654089f8925a15663964afdca304816c3d608b9f3905f90a250565b6001600160a01b0381163314610b8b5760405163334bd91960e11b815260040160405180910390fd5b610b9582826122bf565b505050565b610ba26121ce565b5f83815260056020526040902060018101544210610c025760405162461bcd60e51b815260206004820152601f60248201527f4d61726b65742074726164696e6720706572696f642068617320656e646564006044820152606401610698565b600781015460ff1615610c575760405162461bcd60e51b815260206004820152601760248201527f4d61726b657420616c7265616479207265736f6c7665640000000000000000006044820152606401610698565b5f8211610ca65760405162461bcd60e51b815260206004820152601760248201527f416d6f756e74206d75737420626520706f7369746976650000000000000000006044820152606401610698565b6003546040516323b872dd60e01b8152336004820152306024820152604481018490526001600160a01b03909116906323b872dd906064016020604051808303815f875af1158015610cfa573d5f5f3e3d5ffd5b505050506040513d601f19601f82011682018060405250810190610d1e9190612b3e565b610d5c5760405162461bcd60e51b815260206004820152600f60248201526e151c985b9cd9995c8819985a5b1959608a1b6044820152606401610698565b335f908152600882016020526040902054158015610d885750335f908152600982016020526040902054155b15610e0b57600b810180546001810182555f918252602080832090910180546001600160a01b0319163390811790915582526006905260408120549003610e0b57600980546001810182555f919091527f6e1540171b6c0c960b71a7020d9f60077f6af931a8bbf590da0223dacf75c7af0180546001600160a01b031916331790555b8215610e5657335f90815260088201602052604081208054849290610e31908490612ae1565b9250508190555081816005015f828254610e4b9190612ae1565b90915550610e969050565b335f90815260098201602052604081208054849290610e76908490612ae1565b9250508190555081816006015f828254610e909190612ae1565b90915550505b335f9081526006602052604081208054849290610eb4908490612ae1565b9091555050335f81815260086020908152604080832081516080810183528981528815158185018181528285018a81524260608501908152855460018082018855968a5298889020945160049099029094019788559051938701805460ff1916941515949094179093559151600286015551600390940193909355805192835290820185905286917fb3a1ddef05fa52ff8a462662e00f5fd54a3b35e85417cafcaa671fb30434bd11910160405180910390a350610b9560018055565b60608060605f5f5f5f5f5f60055f8b81526020019081526020015f209050805f0181600301826004018360010154846002015f9054906101000a900460ff1685600501548660060154876007015f9054906101000a900460ff16878054610fd790612b59565b80601f016020809104026020016040519081016040528092919081815260200182805461100390612b59565b801561104e5780601f106110255761010080835404028352916020019161104e565b820191905f5260205f20905b81548152906001019060200180831161103157829003601f168201915b5050505050975086805461106190612b59565b80601f016020809104026020016040519081016040528092919081815260200182805461108d90612b59565b80156110d85780601f106110af576101008083540402835291602001916110d8565b820191905f5260205f20905b8154815290600101906020018083116110bb57829003601f168201915b505050505096508580546110eb90612b59565b80601f016020809104026020016040519081016040528092919081815260200182805461111790612b59565b80156111625780601f1061113957610100808354040283529160200191611162565b820191905f5260205f20905b81548152906001019060200180831161114557829003601f168201915b505050505095509850985098509850985098509850985050919395975091939597565b60608080808080808088806001600160401b038111156111a7576111a76127fd565b6040519080825280602002602001820160405280156111da57816020015b60608152602001906001900390816111c55790505b509850806001600160401b038111156111f5576111f56127fd565b60405190808252806020026020018201604052801561122857816020015b60608152602001906001900390816112135790505b509750806001600160401b03811115611243576112436127fd565b60405190808252806020026020018201604052801561127657816020015b60608152602001906001900390816112615790505b509650806001600160401b03811115611291576112916127fd565b6040519080825280602002602001820160405280156112ba578160200160208202803683370190505b509550806001600160401b038111156112d5576112d56127fd565b6040519080825280602002602001820160405280156112fe578160200160208202803683370190505b509450806001600160401b03811115611319576113196127fd565b604051908082528060200260200182016040528015611342578160200160208202803683370190505b509350806001600160401b0381111561135d5761135d6127fd565b604051908082528060200260200182016040528015611386578160200160208202803683370190505b509250806001600160401b038111156113a1576113a16127fd565b6040519080825280602002602001820160405280156113ca578160200160208202803683370190505b5091505f5b818110156116e8575f60055f8e8e858181106113ed576113ed612b2a565b9050602002013581526020019081526020015f209050805f01805461141190612b59565b80601f016020809104026020016040519081016040528092919081815260200182805461143d90612b59565b80156114885780601f1061145f57610100808354040283529160200191611488565b820191905f5260205f20905b81548152906001019060200180831161146b57829003601f168201915b50505050508b838151811061149f5761149f612b2a565b60200260200101819052508060030180546114b990612b59565b80601f01602080910402602001604051908101604052809291908181526020018280546114e590612b59565b80156115305780601f1061150757610100808354040283529160200191611530565b820191905f5260205f20905b81548152906001019060200180831161151357829003601f168201915b50505050508a838151811061154757611547612b2a565b602002602001018190525080600401805461156190612b59565b80601f016020809104026020016040519081016040528092919081815260200182805461158d90612b59565b80156115d85780601f106115af576101008083540402835291602001916115d8565b820191905f5260205f20905b8154815290600101906020018083116115bb57829003601f168201915b50505050508983815181106115ef576115ef612b2a565b6020026020010181905250806001015488838151811061161157611611612b2a565b60209081029190910101526002810154875160ff9091169088908490811061163b5761163b612b2a565b60200260200101906002811115611654576116546124e5565b90816002811115611667576116676124e5565b81525050806005015486838151811061168257611682612b2a565b60200260200101818152505080600601548583815181106116a5576116a5612b2a565b60209081029190910101526007810154845160ff909116908590849081106116cf576116cf612b2a565b91151560209283029190910190910152506001016113cf565b50509295985092959890939650565b6116ff612293565b5f546001600160a01b031633146117585760405162461bcd60e51b815260206004820152601a60248201527f4f6e6c79206f776e65722063616e206772616e7420726f6c65730000000000006044820152606401610698565b6117827fef485be696bbc0c91ad541bbd553ffb5bd0e18dac30ba76e992dda23cb807a8a82610a8a565b6040516001600160a01b038216907fd09af131a5ae3cf07db0755a24028dbf03aced9071495f1baa3b6bb4446ac27a905f90a250565b6117c0612293565b6117c95f61232a565b565b600954606090831061181b5760405162461bcd60e51b8152602060048201526019602482015278537461727420696e646578206f7574206f6620626f756e647360381b6044820152606401610698565b6009545f9061182a8486612ae1565b1161183e576118398385612ae1565b611842565b6009545b90505f61184f8583612b91565b6001600160401b03811115611866576118666127fd565b6040519080825280602002602001820160405280156118c157816020015b6118ae60405180606001604052805f6001600160a01b031681526020015f81526020015f81525090565b8152602001906001900390816118845790505b509050845b8281101561195b575f600982815481106118e2576118e2612b2a565b5f918252602080832090910154604080516060810182526001600160a01b0390921680835280855260078452818520548385015280855260089093529283902054928101929092529150836119378985612b91565b8151811061194757611947612b2a565b6020908102919091010152506001016118c6565b50949350505050565b5f80546001600160a01b03163314806119a257506119a27fef485be696bbc0c91ad541bbd553ffb5bd0e18dac30ba76e992dda23cb807a8a33611d43565b6119ee5760405162461bcd60e51b815260206004820181905260248201527f4e6f7420617574686f72697a656420746f20637265617465206d61726b6574736044820152606401610698565b5f8211611a3d5760405162461bcd60e51b815260206004820152601f60248201527f4475726174696f6e206d7573742062652067726561746572207468616e2030006044820152606401610698565b5f855111611a8d5760405162461bcd60e51b815260206004820152601860248201527f5175657374696f6e2063616e6e6f7420626520656d70747900000000000000006044820152606401610698565b5f8451118015611a9d57505f8351115b611ae95760405162461bcd60e51b815260206004820152601760248201527f4f7074696f6e732063616e6e6f7420626520656d7074790000000000000000006044820152606401610698565b600480545f9182611af983612ba4565b909155505f81815260056020526040902090915080611b188882612c07565b5060038101611b278782612c07565b5060048101611b368682612c07565b50611b418442612ae1565b6001820181905560028201805460ff1916905560405183917fa2d123850430ad736c7d9b724e8f4ac57a15f478145540d7d4f9e01af14147f691611b8a918b918b918b91612cc1565b60405180910390a25095945050505050565b6001600160a01b0383165f9081526008602052604090208054606091908410611c035760405162461bcd60e51b8152602060048201526019602482015278537461727420696e646578206f7574206f6620626f756e647360381b6044820152606401610698565b80545f90611c118587612ae1565b11611c2557611c208486612ae1565b611c28565b81545b90505f611c358683612b91565b6001600160401b03811115611c4c57611c4c6127fd565b604051908082528060200260200182016040528015611ca657816020015b611c9360405180608001604052805f81526020015f151581526020015f81526020015f81525090565b815260200190600190039081611c6a5790505b509050855b82811015611d3857838181548110611cc557611cc5612b2a565b5f91825260209182902060408051608081018252600490930290910180548352600181015460ff16151593830193909352600283015490820152600390910154606082015282611d158984612b91565b81518110611d2557611d25612b2a565b6020908102919091010152600101611cab565b509695505050505050565b5f9182526002602090815260408084206001600160a01b0393909316845291905290205460ff1690565b60056020525f9081526040902080548190611d8790612b59565b80601f0160208091040260200160405190810160405280929190818152602001828054611db390612b59565b8015611dfe5780601f10611dd557610100808354040283529160200191611dfe565b820191905f5260205f20905b815481529060010190602001808311611de157829003601f168201915b50505050600183015460028401546003850180549495929460ff909216935090611e2790612b59565b80601f0160208091040260200160405190810160405280929190818152602001828054611e5390612b59565b8015611e9e5780601f10611e7557610100808354040283529160200191611e9e565b820191905f5260205f20905b815481529060010190602001808311611e8157829003601f168201915b505050505090806004018054611eb390612b59565b80601f0160208091040260200160405190810160405280929190818152602001828054611edf90612b59565b8015611f2a5780601f10611f0157610100808354040283529160200191611f2a565b820191905f5260205f20905b815481529060010190602001808311611f0d57829003601f168201915b505050600584015460068501546007860154600c909601549495919490935060ff909116915089565b5f82815260026020526040902060010154611f6d816121f8565b610aae83836122bf565b5f546001600160a01b0316331480611fa15750611fa15f516020612d355f395f51905f5233611d43565b611fbd5760405162461bcd60e51b815260040161069890612a8c565b5f828152600560205260409020600181015442101561201e5760405162461bcd60e51b815260206004820152601860248201527f4d61726b657420686173206e6f7420656e6465642079657400000000000000006044820152606401610698565b600781015460ff16156120735760405162461bcd60e51b815260206004820152601a60248201527f4d61726b657420697320616c7265616479207265736f6c7665640000000000006044820152606401610698565b5f826002811115612086576120866124e5565b036120c55760405162461bcd60e51b815260206004820152600f60248201526e496e76616c6964206f7574636f6d6560881b6044820152606401610698565b81816002015f6101000a81548160ff021916908360028111156120ea576120ea6124e5565b021790555060078101805460ff1916600117905560058101546006820154600b83015460405186937f7f873a806061058da82f5e998782021c8613f1bfc3afdcc3c1d6217ced6e03069361213f938893612d0b565b60405180910390a2505050565b612154612293565b6001600160a01b03811661217d57604051631e4fbdf760e01b81525f6004820152602401610698565b6121868161232a565b50565b6008602052815f5260405f2081815481106121a2575f80fd5b5f918252602090912060049091020180546001820154600283015460039093015491945060ff16925084565b6002600154036121f157604051633ee5aeb560e01b815260040160405180910390fd5b6002600155565b6121868133612379565b5f61220d8383611d43565b61228c575f8381526002602090815260408083206001600160a01b03861684529091529020805460ff191660011790556122443390565b6001600160a01b0316826001600160a01b0316847f2f8788117e7eff1d82e926ec794901d17c78024a50270940304540a733656f0d60405160405180910390a450600161060f565b505f61060f565b5f546001600160a01b031633146117c95760405163118cdaa760e01b8152336004820152602401610698565b5f6122ca8383611d43565b1561228c575f8381526002602090815260408083206001600160a01b0386168085529252808320805460ff1916905551339286917ff6391f5c32d9c69d2a47ea670b442974b53935d1edc7fd64eb21e047a839171b9190a450600161060f565b5f80546001600160a01b038381166001600160a01b0319831681178455604051919092169283917f8be0079c531659141344cd1fd0a4f28419497f9722a3daafe3b4186f6b6457e09190a35050565b6123838282611d43565b610a865760405163e2517d3f60e01b81526001600160a01b038216600482015260248101839052604401610698565b5f602082840312156123c2575f5ffd5b81356001600160e01b0319811681146123d9575f5ffd5b9392505050565b80356001600160a01b03811681146123f6575f5ffd5b919050565b5f5f6040838503121561240c575f5ffd5b8235915061241c602084016123e0565b90509250929050565b5f60208284031215612435575f5ffd5b5035919050565b5f5f6040838503121561244d575f5ffd5b50508035926020909101359150565b5f6020828403121561246c575f5ffd5b6123d9826123e0565b8015158114612186575f5ffd5b5f5f5f60608486031215612494575f5ffd5b8335925060208401356124a681612475565b929592945050506040919091013590565b5f81518084528060208401602086015e5f602082860101526020601f19601f83011685010191505092915050565b634e487b7160e01b5f52602160045260245ffd5b6003811061251557634e487b7160e01b5f52602160045260245ffd5b9052565b61010081525f61252d61010083018b6124b7565b828103602084015261253f818b6124b7565b90508281036040840152612553818a6124b7565b91505086606083015261256960808301876124f9565b8460a08301528360c083015282151560e08301529998505050505050505050565b5f5f6020838503121561259b575f5ffd5b82356001600160401b038111156125b0575f5ffd5b8301601f810185136125c0575f5ffd5b80356001600160401b038111156125d5575f5ffd5b8560208260051b84010111156125e9575f5ffd5b6020919091019590945092505050565b5f82825180855260208501945060208160051b830101602085015f5b8381101561264757601f198584030188526126318383516124b7565b6020988901989093509190910190600101612615565b50909695505050505050565b5f8151808452602084019350602083015f5b82811015612683578151865260209586019590910190600101612665565b5093949350505050565b5f8151808452602084019350602083015f5b82811015612683578151151586526020958601959091019060010161269f565b61010081525f6126d361010083018b6125f9565b82810360208401526126e5818b6125f9565b905082810360408401526126f9818a6125f9565b9050828103606084015261270d8189612653565b838103608085015287518082526020808a019350909101905f5b8181101561274d5761273a8385516124f9565b6020938401939290920191600101612727565b505083810360a08501526127618188612653565b91505082810360c08401526127768186612653565b905082810360e084015261278a818561268d565b9b9a5050505050505050505050565b602080825282518282018190525f918401906040840190835b818110156127f257835180516001600160a01b031684526020808201518186015260409182015191850191909152909301926060909201916001016127b2565b509095945050505050565b634e487b7160e01b5f52604160045260245ffd5b5f82601f830112612820575f5ffd5b81356001600160401b03811115612839576128396127fd565b604051601f8201601f19908116603f011681016001600160401b0381118282101715612867576128676127fd565b60405281815283820160200185101561287e575f5ffd5b816020850160208301375f918101602001919091529392505050565b5f5f5f5f608085870312156128ad575f5ffd5b84356001600160401b038111156128c2575f5ffd5b6128ce87828801612811565b94505060208501356001600160401b038111156128e9575f5ffd5b6128f587828801612811565b93505060408501356001600160401b03811115612910575f5ffd5b61291c87828801612811565b949793965093946060013593505050565b5f5f5f6060848603121561293f575f5ffd5b612948846123e0565b95602085013595506040909401359392505050565b602080825282518282018190525f918401906040840190835b818110156127f257835180518452602081015115156020850152604081015160408501526060810151606085015250608083019250602084019350600181019050612976565b61012081525f6129d061012083018c6124b7565b8a60208401526129e3604084018b6124f9565b82810360608401526129f5818a6124b7565b90508281036080840152612a0981896124b7565b60a0840197909752505060c081019390935290151560e08301526101009091015295945050505050565b5f5f60408385031215612a44575f5ffd5b82359150602083013560038110612a59575f5ffd5b809150509250929050565b5f5f60408385031215612a75575f5ffd5b612a7e836123e0565b946020939093013593505050565b60208082526021908201527f4e6f7420617574686f72697a656420746f207265736f6c7665206d61726b65746040820152607360f81b606082015260800190565b634e487b7160e01b5f52601160045260245ffd5b8082018082111561060f5761060f612acd565b808202811582820484141761060f5761060f612acd565b5f82612b2557634e487b7160e01b5f52601260045260245ffd5b500490565b634e487b7160e01b5f52603260045260245ffd5b5f60208284031215612b4e575f5ffd5b81516123d981612475565b600181811c90821680612b6d57607f821691505b602082108103612b8b57634e487b7160e01b5f52602260045260245ffd5b50919050565b8181038181111561060f5761060f612acd565b5f60018201612bb557612bb5612acd565b5060010190565b601f821115610b9557805f5260205f20601f840160051c81016020851015612be15750805b601f840160051c820191505b81811015612c00575f8155600101612bed565b5050505050565b81516001600160401b03811115612c2057612c206127fd565b612c3481612c2e8454612b59565b84612bbc565b6020601f821160018114612c66575f8315612c4f5750848201515b5f19600385901b1c1916600184901b178455612c00565b5f84815260208120601f198516915b82811015612c955787850151825560209485019460019092019101612c75565b5084821015612cb257868401515f19600387901b60f8161c191681555b50505050600190811b01905550565b608081525f612cd360808301876124b7565b8281036020840152612ce581876124b7565b90508281036040840152612cf981866124b7565b91505082606083015295945050505050565b60808101612d1982876124f9565b8460208301528360408301528260608301529594505050505056fedcee1d35c83a32b436264a5c9afd68685c124f3f9097e87804c55410e67fc59aa264697066735822122054d93b17bc1b7057208e2d69d5897ec7fdb734e2bacf500b9152505460a6a95f64736f6c634300081e0033",
					"opcodes": "PUSH1 0x80 PUSH1 0x40 MSTORE CALLVALUE DUP1 ISZERO PUSH2 0xF JUMPI PUSH0 PUSH0 REVERT JUMPDEST POP PUSH1 0x40 MLOAD PUSH2 0x2F4D CODESIZE SUB DUP1 PUSH2 0x2F4D DUP4 CODECOPY DUP2 ADD PUSH1 0x40 DUP2 SWAP1 MSTORE PUSH2 0x2E SWAP2 PUSH2 0x189 JUMP JUMPDEST CALLER DUP1 PUSH2 0x53 JUMPI PUSH1 0x40 MLOAD PUSH4 0x1E4FBDF7 PUSH1 0xE0 SHL DUP2 MSTORE PUSH0 PUSH1 0x4 DUP3 ADD MSTORE PUSH1 0x24 ADD PUSH1 0x40 MLOAD DUP1 SWAP2 SUB SWAP1 REVERT JUMPDEST PUSH2 0x5C DUP2 PUSH2 0x8D JUMP JUMPDEST POP PUSH1 0x1 DUP1 SSTORE PUSH1 0x3 DUP1 SLOAD PUSH1 0x1 PUSH1 0x1 PUSH1 0xA0 SHL SUB NOT AND PUSH1 0x1 PUSH1 0x1 PUSH1 0xA0 SHL SUB DUP4 AND OR SWAP1 SSTORE PUSH2 0x86 PUSH0 CALLER PUSH2 0xDC JUMP JUMPDEST POP POP PUSH2 0x1B6 JUMP JUMPDEST PUSH0 DUP1 SLOAD PUSH1 0x1 PUSH1 0x1 PUSH1 0xA0 SHL SUB DUP4 DUP2 AND PUSH1 0x1 PUSH1 0x1 PUSH1 0xA0 SHL SUB NOT DUP4 AND DUP2 OR DUP5 SSTORE PUSH1 0x40 MLOAD SWAP2 SWAP1 SWAP3 AND SWAP3 DUP4 SWAP2 PUSH32 0x8BE0079C531659141344CD1FD0A4F28419497F9722A3DAAFE3B4186F6B6457E0 SWAP2 SWAP1 LOG3 POP POP JUMP JUMPDEST PUSH0 DUP3 DUP2 MSTORE PUSH1 0x2 PUSH1 0x20 SWAP1 DUP2 MSTORE PUSH1 0x40 DUP1 DUP4 KECCAK256 PUSH1 0x1 PUSH1 0x1 PUSH1 0xA0 SHL SUB DUP6 AND DUP5 MSTORE SWAP1 SWAP2 MSTORE DUP2 KECCAK256 SLOAD PUSH1 0xFF AND PUSH2 0x180 JUMPI PUSH0 DUP4 DUP2 MSTORE PUSH1 0x2 PUSH1 0x20 SWAP1 DUP2 MSTORE PUSH1 0x40 DUP1 DUP4 KECCAK256 PUSH1 0x1 PUSH1 0x1 PUSH1 0xA0 SHL SUB DUP7 AND DUP5 MSTORE SWAP1 SWAP2 MSTORE SWAP1 KECCAK256 DUP1 SLOAD PUSH1 0xFF NOT AND PUSH1 0x1 OR SWAP1 SSTORE PUSH2 0x138 CALLER SWAP1 JUMP JUMPDEST PUSH1 0x1 PUSH1 0x1 PUSH1 0xA0 SHL SUB AND DUP3 PUSH1 0x1 PUSH1 0x1 PUSH1 0xA0 SHL SUB AND DUP5 PUSH32 0x2F8788117E7EFF1D82E926EC794901D17C78024A50270940304540A733656F0D PUSH1 0x40 MLOAD PUSH1 0x40 MLOAD DUP1 SWAP2 SUB SWAP1 LOG4 POP PUSH1 0x1 PUSH2 0x183 JUMP JUMPDEST POP PUSH0 JUMPDEST SWAP3 SWAP2 POP POP JUMP JUMPDEST PUSH0 PUSH1 0x20 DUP3 DUP5 SUB SLT ISZERO PUSH2 0x199 JUMPI PUSH0 PUSH0 REVERT JUMPDEST DUP2 MLOAD PUSH1 0x1 PUSH1 0x1 PUSH1 0xA0 SHL SUB DUP2 AND DUP2 EQ PUSH2 0x1AF JUMPI PUSH0 PUSH0 REVERT JUMPDEST SWAP4 SWAP3 POP POP POP JUMP JUMPDEST PUSH2 0x2D8A DUP1 PUSH2 0x1C3 PUSH0 CODECOPY PUSH0 RETURN INVALID PUSH1 0x80 PUSH1 0x40 MSTORE CALLVALUE DUP1 ISZERO PUSH2 0xF JUMPI PUSH0 PUSH0 REVERT JUMPDEST POP PUSH1 0x4 CALLDATASIZE LT PUSH2 0x208 JUMPI PUSH0 CALLDATALOAD PUSH1 0xE0 SHR DUP1 PUSH4 0x715018A6 GT PUSH2 0x11F JUMPI DUP1 PUSH4 0xA217FDDF GT PUSH2 0xA9 JUMPI DUP1 PUSH4 0xDF55406E GT PUSH2 0x79 JUMPI DUP1 PUSH4 0xDF55406E EQ PUSH2 0x575 JUMPI DUP1 PUSH4 0xEC979082 EQ PUSH2 0x588 JUMPI DUP1 PUSH4 0xF2FDE38B EQ PUSH2 0x591 JUMPI DUP1 PUSH4 0xFAA62253 EQ PUSH2 0x5A4 JUMPI DUP1 PUSH4 0xFD69F3C2 EQ PUSH2 0x5D7 JUMPI PUSH0 PUSH0 REVERT JUMPDEST DUP1 PUSH4 0xA217FDDF EQ PUSH2 0x514 JUMPI DUP1 PUSH4 0xB1283E77 EQ PUSH2 0x51B JUMPI DUP1 PUSH4 0xB47574EA EQ PUSH2 0x543 JUMPI DUP1 PUSH4 0xD547741F EQ PUSH2 0x562 JUMPI PUSH0 PUSH0 REVERT JUMPDEST DUP1 PUSH4 0x77B4A3E7 GT PUSH2 0xEF JUMPI DUP1 PUSH4 0x77B4A3E7 EQ PUSH2 0x48B JUMPI DUP1 PUSH4 0x8B8840E0 EQ PUSH2 0x4B2 JUMPI DUP1 PUSH4 0x8DA5CB5B EQ PUSH2 0x4D1 JUMPI DUP1 PUSH4 0x8E1CC87B EQ PUSH2 0x4E1 JUMPI DUP1 PUSH4 0x91D14854 EQ PUSH2 0x501 JUMPI PUSH0 PUSH0 REVERT JUMPDEST DUP1 PUSH4 0x715018A6 EQ PUSH2 0x43C JUMPI DUP1 PUSH4 0x73AF16FC EQ PUSH2 0x444 JUMPI DUP1 PUSH4 0x755F0629 EQ PUSH2 0x464 JUMPI DUP1 PUSH4 0x76E00406 EQ PUSH2 0x478 JUMPI PUSH0 PUSH0 REVERT JUMPDEST DUP1 PUSH4 0x3260AC90 GT PUSH2 0x1A0 JUMPI DUP1 PUSH4 0x3EC79193 GT PUSH2 0x170 JUMPI DUP1 PUSH4 0x3EC79193 EQ PUSH2 0x3A0 JUMPI DUP1 PUSH4 0x43425E88 EQ PUSH2 0x3C7 JUMPI DUP1 PUSH4 0x5E3DD526 EQ PUSH2 0x3DA JUMPI DUP1 PUSH4 0x5E919F7C EQ PUSH2 0x402 JUMPI DUP1 PUSH4 0x6DB3B4DC EQ PUSH2 0x429 JUMPI PUSH0 PUSH0 REVERT JUMPDEST DUP1 PUSH4 0x3260AC90 EQ PUSH2 0x35F JUMPI DUP1 PUSH4 0x35037E0B EQ PUSH2 0x367 JUMPI DUP1 PUSH4 0x36568ABE EQ PUSH2 0x37A JUMPI DUP1 PUSH4 0x39B46372 EQ PUSH2 0x38D JUMPI PUSH0 PUSH0 REVERT JUMPDEST DUP1 PUSH4 0xC6650B2 GT PUSH2 0x1DB JUMPI DUP1 PUSH4 0xC6650B2 EQ PUSH2 0x2F6 JUMPI DUP1 PUSH4 0x248A9CA3 EQ PUSH2 0x30B JUMPI DUP1 PUSH4 0x29CF655B EQ PUSH2 0x33B JUMPI DUP1 PUSH4 0x2F2FF15D EQ PUSH2 0x34C JUMPI PUSH0 PUSH0 REVERT JUMPDEST DUP1 PUSH4 0x1FFC9A7 EQ PUSH2 0x20C JUMPI DUP1 PUSH4 0x391F64C EQ PUSH2 0x234 JUMPI DUP1 PUSH4 0x5E33DD0 EQ PUSH2 0x28F JUMPI DUP1 PUSH4 0xB5A9A62 EQ PUSH2 0x2BA JUMPI JUMPDEST PUSH0 PUSH0 REVERT JUMPDEST PUSH2 0x21F PUSH2 0x21A CALLDATASIZE PUSH1 0x4 PUSH2 0x23B2 JUMP JUMPDEST PUSH2 0x5DF JUMP JUMPDEST PUSH1 0x40 MLOAD SWAP1 ISZERO ISZERO DUP2 MSTORE PUSH1 0x20 ADD JUMPDEST PUSH1 0x40 MLOAD DUP1 SWAP2 SUB SWAP1 RETURN JUMPDEST PUSH2 0x27A PUSH2 0x242 CALLDATASIZE PUSH1 0x4 PUSH2 0x23FB JUMP JUMPDEST PUSH0 SWAP2 DUP3 MSTORE PUSH1 0x5 PUSH1 0x20 SWAP1 DUP2 MSTORE PUSH1 0x40 DUP1 DUP5 KECCAK256 PUSH1 0x1 PUSH1 0x1 PUSH1 0xA0 SHL SUB SWAP4 SWAP1 SWAP4 AND DUP5 MSTORE PUSH1 0x8 DUP4 ADD DUP3 MSTORE DUP1 DUP5 KECCAK256 SLOAD PUSH1 0x9 SWAP1 SWAP4 ADD SWAP1 SWAP2 MSTORE SWAP1 SWAP2 KECCAK256 SLOAD SWAP1 SWAP2 JUMP JUMPDEST PUSH1 0x40 DUP1 MLOAD SWAP3 DUP4 MSTORE PUSH1 0x20 DUP4 ADD SWAP2 SWAP1 SWAP2 MSTORE ADD PUSH2 0x22B JUMP JUMPDEST PUSH2 0x2A2 PUSH2 0x29D CALLDATASIZE PUSH1 0x4 PUSH2 0x2425 JUMP JUMPDEST PUSH2 0x615 JUMP JUMPDEST PUSH1 0x40 MLOAD PUSH1 0x1 PUSH1 0x1 PUSH1 0xA0 SHL SUB SWAP1 SWAP2 AND DUP2 MSTORE PUSH1 0x20 ADD PUSH2 0x22B JUMP JUMPDEST PUSH2 0x21F PUSH2 0x2C8 CALLDATASIZE PUSH1 0x4 PUSH2 0x23FB JUMP JUMPDEST PUSH0 DUP3 DUP2 MSTORE PUSH1 0x5 PUSH1 0x20 SWAP1 DUP2 MSTORE PUSH1 0x40 DUP1 DUP4 KECCAK256 PUSH1 0x1 PUSH1 0x1 PUSH1 0xA0 SHL SUB DUP6 AND DUP5 MSTORE PUSH1 0xA ADD SWAP1 SWAP2 MSTORE SWAP1 KECCAK256 SLOAD PUSH1 0xFF AND SWAP3 SWAP2 POP POP JUMP JUMPDEST PUSH2 0x309 PUSH2 0x304 CALLDATASIZE PUSH1 0x4 PUSH2 0x243C JUMP JUMPDEST PUSH2 0x63D JUMP JUMPDEST STOP JUMPDEST PUSH2 0x32D PUSH2 0x319 CALLDATASIZE PUSH1 0x4 PUSH2 0x2425 JUMP JUMPDEST PUSH0 SWAP1 DUP2 MSTORE PUSH1 0x2 PUSH1 0x20 MSTORE PUSH1 0x40 SWAP1 KECCAK256 PUSH1 0x1 ADD SLOAD SWAP1 JUMP JUMPDEST PUSH1 0x40 MLOAD SWAP1 DUP2 MSTORE PUSH1 0x20 ADD PUSH2 0x22B JUMP JUMPDEST PUSH1 0x3 SLOAD PUSH1 0x1 PUSH1 0x1 PUSH1 0xA0 SHL SUB AND PUSH2 0x2A2 JUMP JUMPDEST PUSH2 0x309 PUSH2 0x35A CALLDATASIZE PUSH1 0x4 PUSH2 0x23FB JUMP JUMPDEST PUSH2 0xA8A JUMP JUMPDEST PUSH1 0x9 SLOAD PUSH2 0x32D JUMP JUMPDEST PUSH2 0x309 PUSH2 0x375 CALLDATASIZE PUSH1 0x4 PUSH2 0x245C JUMP JUMPDEST PUSH2 0xAB4 JUMP JUMPDEST PUSH2 0x309 PUSH2 0x388 CALLDATASIZE PUSH1 0x4 PUSH2 0x23FB JUMP JUMPDEST PUSH2 0xB62 JUMP JUMPDEST PUSH2 0x309 PUSH2 0x39B CALLDATASIZE PUSH1 0x4 PUSH2 0x2482 JUMP JUMPDEST PUSH2 0xB9A JUMP JUMPDEST PUSH2 0x3B3 PUSH2 0x3AE CALLDATASIZE PUSH1 0x4 PUSH2 0x2425 JUMP JUMPDEST PUSH2 0xF71 JUMP JUMPDEST PUSH1 0x40 MLOAD PUSH2 0x22B SWAP9 SWAP8 SWAP7 SWAP6 SWAP5 SWAP4 SWAP3 SWAP2 SWAP1 PUSH2 0x2519 JUMP JUMPDEST PUSH1 0x3 SLOAD PUSH2 0x2A2 SWAP1 PUSH1 0x1 PUSH1 0x1 PUSH1 0xA0 SHL SUB AND DUP2 JUMP JUMPDEST PUSH2 0x32D PUSH2 0x3E8 CALLDATASIZE PUSH1 0x4 PUSH2 0x245C JUMP JUMPDEST PUSH1 0x1 PUSH1 0x1 PUSH1 0xA0 SHL SUB AND PUSH0 SWAP1 DUP2 MSTORE PUSH1 0x8 PUSH1 0x20 MSTORE PUSH1 0x40 SWAP1 KECCAK256 SLOAD SWAP1 JUMP JUMPDEST PUSH2 0x415 PUSH2 0x410 CALLDATASIZE PUSH1 0x4 PUSH2 0x258A JUMP JUMPDEST PUSH2 0x1185 JUMP JUMPDEST PUSH1 0x40 MLOAD PUSH2 0x22B SWAP9 SWAP8 SWAP7 SWAP6 SWAP5 SWAP4 SWAP3 SWAP2 SWAP1 PUSH2 0x26BF JUMP JUMPDEST PUSH2 0x309 PUSH2 0x437 CALLDATASIZE PUSH1 0x4 PUSH2 0x245C JUMP JUMPDEST PUSH2 0x16F7 JUMP JUMPDEST PUSH2 0x309 PUSH2 0x17B8 JUMP JUMPDEST PUSH2 0x457 PUSH2 0x452 CALLDATASIZE PUSH1 0x4 PUSH2 0x243C JUMP JUMPDEST PUSH2 0x17CB JUMP JUMPDEST PUSH1 0x40 MLOAD PUSH2 0x22B SWAP2 SWAP1 PUSH2 0x2799 JUMP JUMPDEST PUSH2 0x32D PUSH0 MLOAD PUSH1 0x20 PUSH2 0x2D35 PUSH0 CODECOPY PUSH0 MLOAD SWAP1 PUSH0 MSTORE DUP2 JUMP JUMPDEST PUSH2 0x32D PUSH2 0x486 CALLDATASIZE PUSH1 0x4 PUSH2 0x289A JUMP JUMPDEST PUSH2 0x1964 JUMP JUMPDEST PUSH2 0x32D PUSH32 0xEF485BE696BBC0C91AD541BBD553FFB5BD0E18DAC30BA76E992DDA23CB807A8A DUP2 JUMP JUMPDEST PUSH2 0x32D PUSH2 0x4C0 CALLDATASIZE PUSH1 0x4 PUSH2 0x245C JUMP JUMPDEST PUSH1 0x7 PUSH1 0x20 MSTORE PUSH0 SWAP1 DUP2 MSTORE PUSH1 0x40 SWAP1 KECCAK256 SLOAD DUP2 JUMP JUMPDEST PUSH0 SLOAD PUSH1 0x1 PUSH1 0x1 PUSH1 0xA0 SHL SUB AND PUSH2 0x2A2 JUMP JUMPDEST PUSH2 0x4F4 PUSH2 0x4EF CALLDATASIZE PUSH1 0x4 PUSH2 0x292D JUMP JUMPDEST PUSH2 0x1B9C JUMP JUMPDEST PUSH1 0x40 MLOAD PUSH2 0x22B SWAP2 SWAP1 PUSH2 0x295D JUMP JUMPDEST PUSH2 0x21F PUSH2 0x50F CALLDATASIZE PUSH1 0x4 PUSH2 0x23FB JUMP JUMPDEST PUSH2 0x1D43 JUMP JUMPDEST PUSH2 0x32D PUSH0 DUP2 JUMP JUMPDEST PUSH2 0x52E PUSH2 0x529 CALLDATASIZE PUSH1 0x4 PUSH2 0x2425 JUMP JUMPDEST PUSH2 0x1D6D JUMP JUMPDEST PUSH1 0x40 MLOAD PUSH2 0x22B SWAP10 SWAP9 SWAP8 SWAP7 SWAP6 SWAP5 SWAP4 SWAP3 SWAP2 SWAP1 PUSH2 0x29BC JUMP JUMPDEST PUSH2 0x32D PUSH2 0x551 CALLDATASIZE PUSH1 0x4 PUSH2 0x245C JUMP JUMPDEST PUSH1 0x6 PUSH1 0x20 MSTORE PUSH0 SWAP1 DUP2 MSTORE PUSH1 0x40 SWAP1 KECCAK256 SLOAD DUP2 JUMP JUMPDEST PUSH2 0x309 PUSH2 0x570 CALLDATASIZE PUSH1 0x4 PUSH2 0x23FB JUMP JUMPDEST PUSH2 0x1F53 JUMP JUMPDEST PUSH2 0x309 PUSH2 0x583 CALLDATASIZE PUSH1 0x4 PUSH2 0x2A33 JUMP JUMPDEST PUSH2 0x1F77 JUMP JUMPDEST PUSH2 0x32D PUSH1 0x4 SLOAD DUP2 JUMP JUMPDEST PUSH2 0x309 PUSH2 0x59F CALLDATASIZE PUSH1 0x4 PUSH2 0x245C JUMP JUMPDEST PUSH2 0x214C JUMP JUMPDEST PUSH2 0x5B7 PUSH2 0x5B2 CALLDATASIZE PUSH1 0x4 PUSH2 0x2A64 JUMP JUMPDEST PUSH2 0x2189 JUMP JUMPDEST PUSH1 0x40 DUP1 MLOAD SWAP5 DUP6 MSTORE SWAP3 ISZERO ISZERO PUSH1 0x20 DUP6 ADD MSTORE SWAP2 DUP4 ADD MSTORE PUSH1 0x60 DUP3 ADD MSTORE PUSH1 0x80 ADD PUSH2 0x22B JUMP JUMPDEST PUSH1 0x4 SLOAD PUSH2 0x32D JUMP JUMPDEST PUSH0 PUSH1 0x1 PUSH1 0x1 PUSH1 0xE0 SHL SUB NOT DUP3 AND PUSH4 0x7965DB0B PUSH1 0xE0 SHL EQ DUP1 PUSH2 0x60F JUMPI POP PUSH4 0x1FFC9A7 PUSH1 0xE0 SHL PUSH1 0x1 PUSH1 0x1 PUSH1 0xE0 SHL SUB NOT DUP4 AND EQ JUMPDEST SWAP3 SWAP2 POP POP JUMP JUMPDEST PUSH1 0x9 DUP2 DUP2 SLOAD DUP2 LT PUSH2 0x624 JUMPI PUSH0 DUP1 REVERT JUMPDEST PUSH0 SWAP2 DUP3 MSTORE PUSH1 0x20 SWAP1 SWAP2 KECCAK256 ADD SLOAD PUSH1 0x1 PUSH1 0x1 PUSH1 0xA0 SHL SUB AND SWAP1 POP DUP2 JUMP JUMPDEST PUSH2 0x645 PUSH2 0x21CE JUMP JUMPDEST PUSH0 DUP3 DUP2 MSTORE PUSH1 0x5 PUSH1 0x20 MSTORE PUSH1 0x40 DUP2 KECCAK256 SWAP1 SLOAD PUSH1 0x1 PUSH1 0x1 PUSH1 0xA0 SHL SUB AND CALLER EQ DUP1 PUSH2 0x67C JUMPI POP PUSH2 0x67C PUSH0 MLOAD PUSH1 0x20 PUSH2 0x2D35 PUSH0 CODECOPY PUSH0 MLOAD SWAP1 PUSH0 MSTORE CALLER PUSH2 0x1D43 JUMP JUMPDEST PUSH2 0x6A1 JUMPI PUSH1 0x40 MLOAD PUSH3 0x461BCD PUSH1 0xE5 SHL DUP2 MSTORE PUSH1 0x4 ADD PUSH2 0x698 SWAP1 PUSH2 0x2A8C JUMP JUMPDEST PUSH1 0x40 MLOAD DUP1 SWAP2 SUB SWAP1 REVERT JUMPDEST PUSH1 0x7 DUP2 ADD SLOAD PUSH1 0xFF AND PUSH2 0x6F5 JUMPI PUSH1 0x40 MLOAD PUSH3 0x461BCD PUSH1 0xE5 SHL DUP2 MSTORE PUSH1 0x20 PUSH1 0x4 DUP3 ADD MSTORE PUSH1 0x17 PUSH1 0x24 DUP3 ADD MSTORE PUSH32 0x4D61726B6574206E6F74207265736F6C76656420796574000000000000000000 PUSH1 0x44 DUP3 ADD MSTORE PUSH1 0x64 ADD PUSH2 0x698 JUMP JUMPDEST PUSH1 0xB DUP2 ADD SLOAD PUSH1 0xC DUP3 ADD SLOAD PUSH0 SWAP1 PUSH2 0x70C SWAP1 DUP6 SWAP1 PUSH2 0x2AE1 JUMP JUMPDEST SWAP1 POP DUP2 DUP2 GT ISZERO PUSH2 0x719 JUMPI POP DUP1 JUMPDEST PUSH0 PUSH1 0x1 PUSH1 0x2 DUP1 DUP7 ADD SLOAD PUSH1 0xFF AND SWAP1 DUP2 GT ISZERO PUSH2 0x735 JUMPI PUSH2 0x735 PUSH2 0x24E5 JUMP JUMPDEST EQ PUSH2 0x744 JUMPI DUP4 PUSH1 0x6 ADD SLOAD PUSH2 0x74A JUMP JUMPDEST DUP4 PUSH1 0x5 ADD SLOAD JUMPDEST SWAP1 POP PUSH0 PUSH1 0x1 PUSH1 0x2 DUP1 DUP8 ADD SLOAD PUSH1 0xFF AND SWAP1 DUP2 GT ISZERO PUSH2 0x768 JUMPI PUSH2 0x768 PUSH2 0x24E5 JUMP JUMPDEST EQ PUSH2 0x777 JUMPI DUP5 PUSH1 0x5 ADD SLOAD PUSH2 0x77D JUMP JUMPDEST DUP5 PUSH1 0x6 ADD SLOAD JUMPDEST SWAP1 POP PUSH0 DUP3 GT PUSH2 0x7C2 JUMPI PUSH1 0x40 MLOAD PUSH3 0x461BCD PUSH1 0xE5 SHL DUP2 MSTORE PUSH1 0x20 PUSH1 0x4 DUP3 ADD MSTORE PUSH1 0x11 PUSH1 0x24 DUP3 ADD MSTORE PUSH17 0x4E6F2077696E6E696E6720736861726573 PUSH1 0x78 SHL PUSH1 0x44 DUP3 ADD MSTORE PUSH1 0x64 ADD PUSH2 0x698 JUMP JUMPDEST PUSH0 DUP3 PUSH2 0x7D6 DUP4 PUSH8 0xDE0B6B3A7640000 PUSH2 0x2AF4 JUMP JUMPDEST PUSH2 0x7E0 SWAP2 SWAP1 PUSH2 0x2B0B JUMP JUMPDEST PUSH1 0xC DUP8 ADD SLOAD SWAP1 SWAP2 POP JUMPDEST DUP5 DUP2 LT ISZERO PUSH2 0xA6F JUMPI PUSH0 DUP8 PUSH1 0xB ADD DUP3 DUP2 SLOAD DUP2 LT PUSH2 0x807 JUMPI PUSH2 0x807 PUSH2 0x2B2A JUMP JUMPDEST PUSH0 SWAP2 DUP3 MSTORE PUSH1 0x20 DUP3 KECCAK256 ADD SLOAD PUSH1 0x1 PUSH1 0x1 PUSH1 0xA0 SHL SUB AND SWAP2 POP PUSH1 0x1 PUSH1 0x2 DUP1 DUP12 ADD SLOAD PUSH1 0xFF AND SWAP1 DUP2 GT ISZERO PUSH2 0x837 JUMPI PUSH2 0x837 PUSH2 0x24E5 JUMP JUMPDEST EQ PUSH2 0x85B JUMPI PUSH1 0x1 PUSH1 0x1 PUSH1 0xA0 SHL SUB DUP3 AND PUSH0 SWAP1 DUP2 MSTORE PUSH1 0x9 DUP11 ADD PUSH1 0x20 MSTORE PUSH1 0x40 SWAP1 KECCAK256 SLOAD PUSH2 0x876 JUMP JUMPDEST PUSH1 0x1 PUSH1 0x1 PUSH1 0xA0 SHL SUB DUP3 AND PUSH0 SWAP1 DUP2 MSTORE PUSH1 0x8 DUP11 ADD PUSH1 0x20 MSTORE PUSH1 0x40 SWAP1 KECCAK256 SLOAD JUMPDEST SWAP1 POP PUSH0 DUP2 GT DUP1 ISZERO PUSH2 0x8A1 JUMPI POP PUSH1 0x1 PUSH1 0x1 PUSH1 0xA0 SHL SUB DUP3 AND PUSH0 SWAP1 DUP2 MSTORE PUSH1 0xA DUP11 ADD PUSH1 0x20 MSTORE PUSH1 0x40 SWAP1 KECCAK256 SLOAD PUSH1 0xFF AND ISZERO JUMPDEST ISZERO PUSH2 0xA65 JUMPI PUSH0 PUSH8 0xDE0B6B3A7640000 PUSH2 0x8BA DUP7 DUP5 PUSH2 0x2AF4 JUMP JUMPDEST PUSH2 0x8C4 SWAP2 SWAP1 PUSH2 0x2B0B JUMP JUMPDEST PUSH2 0x8CE SWAP1 DUP4 PUSH2 0x2AE1 JUMP JUMPDEST SWAP1 POP PUSH1 0x1 PUSH1 0x2 DUP1 DUP13 ADD SLOAD PUSH1 0xFF AND SWAP1 DUP2 GT ISZERO PUSH2 0x8EB JUMPI PUSH2 0x8EB PUSH2 0x24E5 JUMP JUMPDEST SUB PUSH2 0x90F JUMPI PUSH1 0x1 PUSH1 0x1 PUSH1 0xA0 SHL SUB DUP4 AND PUSH0 SWAP1 DUP2 MSTORE PUSH1 0x8 DUP12 ADD PUSH1 0x20 MSTORE PUSH1 0x40 DUP2 KECCAK256 SSTORE PUSH2 0x92A JUMP JUMPDEST PUSH1 0x1 PUSH1 0x1 PUSH1 0xA0 SHL SUB DUP4 AND PUSH0 SWAP1 DUP2 MSTORE PUSH1 0x9 DUP12 ADD PUSH1 0x20 MSTORE PUSH1 0x40 DUP2 KECCAK256 SSTORE JUMPDEST PUSH1 0x1 PUSH1 0x1 PUSH1 0xA0 SHL SUB DUP4 AND PUSH0 SWAP1 DUP2 MSTORE PUSH1 0xA DUP12 ADD PUSH1 0x20 SWAP1 DUP2 MSTORE PUSH1 0x40 DUP1 DUP4 KECCAK256 DUP1 SLOAD PUSH1 0xFF NOT AND PUSH1 0x1 OR SWAP1 SSTORE PUSH1 0x7 SWAP1 SWAP2 MSTORE DUP2 KECCAK256 DUP1 SLOAD DUP4 SWAP3 SWAP1 PUSH2 0x968 SWAP1 DUP5 SWAP1 PUSH2 0x2AE1 JUMP JUMPDEST SWAP1 SWAP2 SSTORE POP POP PUSH1 0x3 SLOAD PUSH1 0x40 MLOAD PUSH4 0xA9059CBB PUSH1 0xE0 SHL DUP2 MSTORE PUSH1 0x1 PUSH1 0x1 PUSH1 0xA0 SHL SUB DUP6 DUP2 AND PUSH1 0x4 DUP4 ADD MSTORE PUSH1 0x24 DUP3 ADD DUP5 SWAP1 MSTORE SWAP1 SWAP2 AND SWAP1 PUSH4 0xA9059CBB SWAP1 PUSH1 0x44 ADD PUSH1 0x20 PUSH1 0x40 MLOAD DUP1 DUP4 SUB DUP2 PUSH0 DUP8 GAS CALL ISZERO DUP1 ISZERO PUSH2 0x9BD JUMPI RETURNDATASIZE PUSH0 PUSH0 RETURNDATACOPY RETURNDATASIZE PUSH0 REVERT JUMPDEST POP POP POP POP PUSH1 0x40 MLOAD RETURNDATASIZE PUSH1 0x1F NOT PUSH1 0x1F DUP3 ADD AND DUP3 ADD DUP1 PUSH1 0x40 MSTORE POP DUP2 ADD SWAP1 PUSH2 0x9E1 SWAP2 SWAP1 PUSH2 0x2B3E JUMP JUMPDEST PUSH2 0xA1F JUMPI PUSH1 0x40 MLOAD PUSH3 0x461BCD PUSH1 0xE5 SHL DUP2 MSTORE PUSH1 0x20 PUSH1 0x4 DUP3 ADD MSTORE PUSH1 0xF PUSH1 0x24 DUP3 ADD MSTORE PUSH15 0x151C985B9CD9995C8819985A5B1959 PUSH1 0x8A SHL PUSH1 0x44 DUP3 ADD MSTORE PUSH1 0x64 ADD PUSH2 0x698 JUMP JUMPDEST DUP3 PUSH1 0x1 PUSH1 0x1 PUSH1 0xA0 SHL SUB AND DUP13 PUSH32 0x4EC90E965519D92681267467F775ADA5BD214AA92C0DC93D90A5E880CE9ED026 DUP4 PUSH1 0x40 MLOAD PUSH2 0xA5B SWAP2 DUP2 MSTORE PUSH1 0x20 ADD SWAP1 JUMP JUMPDEST PUSH1 0x40 MLOAD DUP1 SWAP2 SUB SWAP1 LOG3 POP JUMPDEST POP POP PUSH1 0x1 ADD PUSH2 0x7E9 JUMP JUMPDEST POP POP POP POP PUSH1 0xC SWAP1 SWAP3 ADD SWAP2 SWAP1 SWAP2 SSTORE POP PUSH2 0xA86 PUSH1 0x1 DUP1 SSTORE JUMP JUMPDEST POP POP JUMP JUMPDEST PUSH0 DUP3 DUP2 MSTORE PUSH1 0x2 PUSH1 0x20 MSTORE PUSH1 0x40 SWAP1 KECCAK256 PUSH1 0x1 ADD SLOAD PUSH2 0xAA4 DUP2 PUSH2 0x21F8 JUMP JUMPDEST PUSH2 0xAAE DUP4 DUP4 PUSH2 0x2202 JUMP JUMPDEST POP POP POP POP JUMP JUMPDEST PUSH2 0xABC PUSH2 0x2293 JUMP JUMPDEST PUSH0 SLOAD PUSH1 0x1 PUSH1 0x1 PUSH1 0xA0 SHL SUB AND CALLER EQ PUSH2 0xB15 JUMPI PUSH1 0x40 MLOAD PUSH3 0x461BCD PUSH1 0xE5 SHL DUP2 MSTORE PUSH1 0x20 PUSH1 0x4 DUP3 ADD MSTORE PUSH1 0x1A PUSH1 0x24 DUP3 ADD MSTORE PUSH32 0x4F6E6C79206F776E65722063616E206772616E7420726F6C6573000000000000 PUSH1 0x44 DUP3 ADD MSTORE PUSH1 0x64 ADD PUSH2 0x698 JUMP JUMPDEST PUSH2 0xB2C PUSH0 MLOAD PUSH1 0x20 PUSH2 0x2D35 PUSH0 CODECOPY PUSH0 MLOAD SWAP1 PUSH0 MSTORE DUP3 PUSH2 0xA8A JUMP JUMPDEST PUSH1 0x40 MLOAD PUSH1 0x1 PUSH1 0x1 PUSH1 0xA0 SHL SUB DUP3 AND SWAP1 PUSH32 0xDDF51A9B6B1D679C1A24A62654089F8925A15663964AFDCA304816C3D608B9F3 SWAP1 PUSH0 SWAP1 LOG2 POP JUMP JUMPDEST PUSH1 0x1 PUSH1 0x1 PUSH1 0xA0 SHL SUB DUP2 AND CALLER EQ PUSH2 0xB8B JUMPI PUSH1 0x40 MLOAD PUSH4 0x334BD919 PUSH1 0xE1 SHL DUP2 MSTORE PUSH1 0x4 ADD PUSH1 0x40 MLOAD DUP1 SWAP2 SUB SWAP1 REVERT JUMPDEST PUSH2 0xB95 DUP3 DUP3 PUSH2 0x22BF JUMP JUMPDEST POP POP POP JUMP JUMPDEST PUSH2 0xBA2 PUSH2 0x21CE JUMP JUMPDEST PUSH0 DUP4 DUP2 MSTORE PUSH1 0x5 PUSH1 0x20 MSTORE PUSH1 0x40 SWAP1 KECCAK256 PUSH1 0x1 DUP2 ADD SLOAD TIMESTAMP LT PUSH2 0xC02 JUMPI PUSH1 0x40 MLOAD PUSH3 0x461BCD PUSH1 0xE5 SHL DUP2 MSTORE PUSH1 0x20 PUSH1 0x4 DUP3 ADD MSTORE PUSH1 0x1F PUSH1 0x24 DUP3 ADD MSTORE PUSH32 0x4D61726B65742074726164696E6720706572696F642068617320656E64656400 PUSH1 0x44 DUP3 ADD MSTORE PUSH1 0x64 ADD PUSH2 0x698 JUMP JUMPDEST PUSH1 0x7 DUP2 ADD SLOAD PUSH1 0xFF AND ISZERO PUSH2 0xC57 JUMPI PUSH1 0x40 MLOAD PUSH3 0x461BCD PUSH1 0xE5 SHL DUP2 MSTORE PUSH1 0x20 PUSH1 0x4 DUP3 ADD MSTORE PUSH1 0x17 PUSH1 0x24 DUP3 ADD MSTORE PUSH32 0x4D61726B657420616C7265616479207265736F6C766564000000000000000000 PUSH1 0x44 DUP3 ADD MSTORE PUSH1 0x64 ADD PUSH2 0x698 JUMP JUMPDEST PUSH0 DUP3 GT PUSH2 0xCA6 JUMPI PUSH1 0x40 MLOAD PUSH3 0x461BCD PUSH1 0xE5 SHL DUP2 MSTORE PUSH1 0x20 PUSH1 0x4 DUP3 ADD MSTORE PUSH1 0x17 PUSH1 0x24 DUP3 ADD MSTORE PUSH32 0x416D6F756E74206D75737420626520706F736974697665000000000000000000 PUSH1 0x44 DUP3 ADD MSTORE PUSH1 0x64 ADD PUSH2 0x698 JUMP JUMPDEST PUSH1 0x3 SLOAD PUSH1 0x40 MLOAD PUSH4 0x23B872DD PUSH1 0xE0 SHL DUP2 MSTORE CALLER PUSH1 0x4 DUP3 ADD MSTORE ADDRESS PUSH1 0x24 DUP3 ADD MSTORE PUSH1 0x44 DUP2 ADD DUP5 SWAP1 MSTORE PUSH1 0x1 PUSH1 0x1 PUSH1 0xA0 SHL SUB SWAP1 SWAP2 AND SWAP1 PUSH4 0x23B872DD SWAP1 PUSH1 0x64 ADD PUSH1 0x20 PUSH1 0x40 MLOAD DUP1 DUP4 SUB DUP2 PUSH0 DUP8 GAS CALL ISZERO DUP1 ISZERO PUSH2 0xCFA JUMPI RETURNDATASIZE PUSH0 PUSH0 RETURNDATACOPY RETURNDATASIZE PUSH0 REVERT JUMPDEST POP POP POP POP PUSH1 0x40 MLOAD RETURNDATASIZE PUSH1 0x1F NOT PUSH1 0x1F DUP3 ADD AND DUP3 ADD DUP1 PUSH1 0x40 MSTORE POP DUP2 ADD SWAP1 PUSH2 0xD1E SWAP2 SWAP1 PUSH2 0x2B3E JUMP JUMPDEST PUSH2 0xD5C JUMPI PUSH1 0x40 MLOAD PUSH3 0x461BCD PUSH1 0xE5 SHL DUP2 MSTORE PUSH1 0x20 PUSH1 0x4 DUP3 ADD MSTORE PUSH1 0xF PUSH1 0x24 DUP3 ADD MSTORE PUSH15 0x151C985B9CD9995C8819985A5B1959 PUSH1 0x8A SHL PUSH1 0x44 DUP3 ADD MSTORE PUSH1 0x64 ADD PUSH2 0x698 JUMP JUMPDEST CALLER PUSH0 SWAP1 DUP2 MSTORE PUSH1 0x8 DUP3 ADD PUSH1 0x20 MSTORE PUSH1 0x40 SWAP1 KECCAK256 SLOAD ISZERO DUP1 ISZERO PUSH2 0xD88 JUMPI POP CALLER PUSH0 SWAP1 DUP2 MSTORE PUSH1 0x9 DUP3 ADD PUSH1 0x20 MSTORE PUSH1 0x40 SWAP1 KECCAK256 SLOAD ISZERO JUMPDEST ISZERO PUSH2 0xE0B JUMPI PUSH1 0xB DUP2 ADD DUP1 SLOAD PUSH1 0x1 DUP2 ADD DUP3 SSTORE PUSH0 SWAP2 DUP3 MSTORE PUSH1 0x20 DUP1 DUP4 KECCAK256 SWAP1 SWAP2 ADD DUP1 SLOAD PUSH1 0x1 PUSH1 0x1 PUSH1 0xA0 SHL SUB NOT AND CALLER SWAP1 DUP2 OR SWAP1 SWAP2 SSTORE DUP3 MSTORE PUSH1 0x6 SWAP1 MSTORE PUSH1 0x40 DUP2 KECCAK256 SLOAD SWAP1 SUB PUSH2 0xE0B JUMPI PUSH1 0x9 DUP1 SLOAD PUSH1 0x1 DUP2 ADD DUP3 SSTORE PUSH0 SWAP2 SWAP1 SWAP2 MSTORE PUSH32 0x6E1540171B6C0C960B71A7020D9F60077F6AF931A8BBF590DA0223DACF75C7AF ADD DUP1 SLOAD PUSH1 0x1 PUSH1 0x1 PUSH1 0xA0 SHL SUB NOT AND CALLER OR SWAP1 SSTORE JUMPDEST DUP3 ISZERO PUSH2 0xE56 JUMPI CALLER PUSH0 SWAP1 DUP2 MSTORE PUSH1 0x8 DUP3 ADD PUSH1 0x20 MSTORE PUSH1 0x40 DUP2 KECCAK256 DUP1 SLOAD DUP5 SWAP3 SWAP1 PUSH2 0xE31 SWAP1 DUP5 SWAP1 PUSH2 0x2AE1 JUMP JUMPDEST SWAP3 POP POP DUP2 SWAP1 SSTORE POP DUP2 DUP2 PUSH1 0x5 ADD PUSH0 DUP3 DUP3 SLOAD PUSH2 0xE4B SWAP2 SWAP1 PUSH2 0x2AE1 JUMP JUMPDEST SWAP1 SWAP2 SSTORE POP PUSH2 0xE96 SWAP1 POP JUMP JUMPDEST CALLER PUSH0 SWAP1 DUP2 MSTORE PUSH1 0x9 DUP3 ADD PUSH1 0x20 MSTORE PUSH1 0x40 DUP2 KECCAK256 DUP1 SLOAD DUP5 SWAP3 SWAP1 PUSH2 0xE76 SWAP1 DUP5 SWAP1 PUSH2 0x2AE1 JUMP JUMPDEST SWAP3 POP POP DUP2 SWAP1 SSTORE POP DUP2 DUP2 PUSH1 0x6 ADD PUSH0 DUP3 DUP3 SLOAD PUSH2 0xE90 SWAP2 SWAP1 PUSH2 0x2AE1 JUMP JUMPDEST SWAP1 SWAP2 SSTORE POP POP JUMPDEST CALLER PUSH0 SWAP1 DUP2 MSTORE PUSH1 0x6 PUSH1 0x20 MSTORE PUSH1 0x40 DUP2 KECCAK256 DUP1 SLOAD DUP5 SWAP3 SWAP1 PUSH2 0xEB4 SWAP1 DUP5 SWAP1 PUSH2 0x2AE1 JUMP JUMPDEST SWAP1 SWAP2 SSTORE POP POP CALLER PUSH0 DUP2 DUP2 MSTORE PUSH1 0x8 PUSH1 0x20 SWAP1 DUP2 MSTORE PUSH1 0x40 DUP1 DUP4 KECCAK256 DUP2 MLOAD PUSH1 0x80 DUP2 ADD DUP4 MSTORE DUP10 DUP2 MSTORE DUP9 ISZERO ISZERO DUP2 DUP6 ADD DUP2 DUP2 MSTORE DUP3 DUP6 ADD DUP11 DUP2 MSTORE TIMESTAMP PUSH1 0x60 DUP6 ADD SWAP1 DUP2 MSTORE DUP6 SLOAD PUSH1 0x1 DUP1 DUP3 ADD DUP9 SSTORE SWAP7 DUP11 MSTORE SWAP9 DUP9 SWAP1 KECCAK256 SWAP5 MLOAD PUSH1 0x4 SWAP1 SWAP10 MUL SWAP1 SWAP5 ADD SWAP8 DUP9 SSTORE SWAP1 MLOAD SWAP4 DUP8 ADD DUP1 SLOAD PUSH1 0xFF NOT AND SWAP5 ISZERO ISZERO SWAP5 SWAP1 SWAP5 OR SWAP1 SWAP4 SSTORE SWAP2 MLOAD PUSH1 0x2 DUP7 ADD SSTORE MLOAD PUSH1 0x3 SWAP1 SWAP5 ADD SWAP4 SWAP1 SWAP4 SSTORE DUP1 MLOAD SWAP3 DUP4 MSTORE SWAP1 DUP3 ADD DUP6 SWAP1 MSTORE DUP7 SWAP2 PUSH32 0xB3A1DDEF05FA52FF8A462662E00F5FD54A3B35E85417CAFCAA671FB30434BD11 SWAP2 ADD PUSH1 0x40 MLOAD DUP1 SWAP2 SUB SWAP1 LOG3 POP PUSH2 0xB95 PUSH1 0x1 DUP1 SSTORE JUMP JUMPDEST PUSH1 0x60 DUP1 PUSH1 0x60 PUSH0 PUSH0 PUSH0 PUSH0 PUSH0 PUSH0 PUSH1 0x5 PUSH0 DUP12 DUP2 MSTORE PUSH1 0x20 ADD SWAP1 DUP2 MSTORE PUSH1 0x20 ADD PUSH0 KECCAK256 SWAP1 POP DUP1 PUSH0 ADD DUP2 PUSH1 0x3 ADD DUP3 PUSH1 0x4 ADD DUP4 PUSH1 0x1 ADD SLOAD DUP5 PUSH1 0x2 ADD PUSH0 SWAP1 SLOAD SWAP1 PUSH2 0x100 EXP SWAP1 DIV PUSH1 0xFF AND DUP6 PUSH1 0x5 ADD SLOAD DUP7 PUSH1 0x6 ADD SLOAD DUP8 PUSH1 0x7 ADD PUSH0 SWAP1 SLOAD SWAP1 PUSH2 0x100 EXP SWAP1 DIV PUSH1 0xFF AND DUP8 DUP1 SLOAD PUSH2 0xFD7 SWAP1 PUSH2 0x2B59 JUMP JUMPDEST DUP1 PUSH1 0x1F ADD PUSH1 0x20 DUP1 SWAP2 DIV MUL PUSH1 0x20 ADD PUSH1 0x40 MLOAD SWAP1 DUP2 ADD PUSH1 0x40 MSTORE DUP1 SWAP3 SWAP2 SWAP1 DUP2 DUP2 MSTORE PUSH1 0x20 ADD DUP3 DUP1 SLOAD PUSH2 0x1003 SWAP1 PUSH2 0x2B59 JUMP JUMPDEST DUP1 ISZERO PUSH2 0x104E JUMPI DUP1 PUSH1 0x1F LT PUSH2 0x1025 JUMPI PUSH2 0x100 DUP1 DUP4 SLOAD DIV MUL DUP4 MSTORE SWAP2 PUSH1 0x20 ADD SWAP2 PUSH2 0x104E JUMP JUMPDEST DUP3 ADD SWAP2 SWAP1 PUSH0 MSTORE PUSH1 0x20 PUSH0 KECCAK256 SWAP1 JUMPDEST DUP2 SLOAD DUP2 MSTORE SWAP1 PUSH1 0x1 ADD SWAP1 PUSH1 0x20 ADD DUP1 DUP4 GT PUSH2 0x1031 JUMPI DUP3 SWAP1 SUB PUSH1 0x1F AND DUP3 ADD SWAP2 JUMPDEST POP POP POP POP POP SWAP8 POP DUP7 DUP1 SLOAD PUSH2 0x1061 SWAP1 PUSH2 0x2B59 JUMP JUMPDEST DUP1 PUSH1 0x1F ADD PUSH1 0x20 DUP1 SWAP2 DIV MUL PUSH1 0x20 ADD PUSH1 0x40 MLOAD SWAP1 DUP2 ADD PUSH1 0x40 MSTORE DUP1 SWAP3 SWAP2 SWAP1 DUP2 DUP2 MSTORE PUSH1 0x20 ADD DUP3 DUP1 SLOAD PUSH2 0x108D SWAP1 PUSH2 0x2B59 JUMP JUMPDEST DUP1 ISZERO PUSH2 0x10D8 JUMPI DUP1 PUSH1 0x1F LT PUSH2 0x10AF JUMPI PUSH2 0x100 DUP1 DUP4 SLOAD DIV MUL DUP4 MSTORE SWAP2 PUSH1 0x20 ADD SWAP2 PUSH2 0x10D8 JUMP JUMPDEST DUP3 ADD SWAP2 SWAP1 PUSH0 MSTORE PUSH1 0x20 PUSH0 KECCAK256 SWAP1 JUMPDEST DUP2 SLOAD DUP2 MSTORE SWAP1 PUSH1 0x1 ADD SWAP1 PUSH1 0x20 ADD DUP1 DUP4 GT PUSH2 0x10BB JUMPI DUP3 SWAP1 SUB PUSH1 0x1F AND DUP3 ADD SWAP2 JUMPDEST POP POP POP POP POP SWAP7 POP DUP6 DUP1 SLOAD PUSH2 0x10EB SWAP1 PUSH2 0x2B59 JUMP JUMPDEST DUP1 PUSH1 0x1F ADD PUSH1 0x20 DUP1 SWAP2 DIV MUL PUSH1 0x20 ADD PUSH1 0x40 MLOAD SWAP1 DUP2 ADD PUSH1 0x40 MSTORE DUP1 SWAP3 SWAP2 SWAP1 DUP2 DUP2 MSTORE PUSH1 0x20 ADD DUP3 DUP1 SLOAD PUSH2 0x1117 SWAP1 PUSH2 0x2B59 JUMP JUMPDEST DUP1 ISZERO PUSH2 0x1162 JUMPI DUP1 PUSH1 0x1F LT PUSH2 0x1139 JUMPI PUSH2 0x100 DUP1 DUP4 SLOAD DIV MUL DUP4 MSTORE SWAP2 PUSH1 0x20 ADD SWAP2 PUSH2 0x1162 JUMP JUMPDEST DUP3 ADD SWAP2 SWAP1 PUSH0 MSTORE PUSH1 0x20 PUSH0 KECCAK256 SWAP1 JUMPDEST DUP2 SLOAD DUP2 MSTORE SWAP1 PUSH1 0x1 ADD SWAP1 PUSH1 0x20 ADD DUP1 DUP4 GT PUSH2 0x1145 JUMPI DUP3 SWAP1 SUB PUSH1 0x1F AND DUP3 ADD SWAP2 JUMPDEST POP POP POP POP POP SWAP6 POP SWAP9 POP SWAP9 POP SWAP9 POP SWAP9 POP SWAP9 POP SWAP9 POP SWAP9 POP SWAP9 POP POP SWAP2 SWAP4 SWAP6 SWAP8 POP SWAP2 SWAP4 SWAP6 SWAP8 JUMP JUMPDEST PUSH1 0x60 DUP1 DUP1 DUP1 DUP1 DUP1 DUP1 DUP1 DUP9 DUP1 PUSH1 0x1 PUSH1 0x1 PUSH1 0x40 SHL SUB DUP2 GT ISZERO PUSH2 0x11A7 JUMPI PUSH2 0x11A7 PUSH2 0x27FD JUMP JUMPDEST PUSH1 0x40 MLOAD SWAP1 DUP1 DUP3 MSTORE DUP1 PUSH1 0x20 MUL PUSH1 0x20 ADD DUP3 ADD PUSH1 0x40 MSTORE DUP1 ISZERO PUSH2 0x11DA JUMPI DUP2 PUSH1 0x20 ADD JUMPDEST PUSH1 0x60 DUP2 MSTORE PUSH1 0x20 ADD SWAP1 PUSH1 0x1 SWAP1 SUB SWAP1 DUP2 PUSH2 0x11C5 JUMPI SWAP1 POP JUMPDEST POP SWAP9 POP DUP1 PUSH1 0x1 PUSH1 0x1 PUSH1 0x40 SHL SUB DUP2 GT ISZERO PUSH2 0x11F5 JUMPI PUSH2 0x11F5 PUSH2 0x27FD JUMP JUMPDEST PUSH1 0x40 MLOAD SWAP1 DUP1 DUP3 MSTORE DUP1 PUSH1 0x20 MUL PUSH1 0x20 ADD DUP3 ADD PUSH1 0x40 MSTORE DUP1 ISZERO PUSH2 0x1228 JUMPI DUP2 PUSH1 0x20 ADD JUMPDEST PUSH1 0x60 DUP2 MSTORE PUSH1 0x20 ADD SWAP1 PUSH1 0x1 SWAP1 SUB SWAP1 DUP2 PUSH2 0x1213 JUMPI SWAP1 POP JUMPDEST POP SWAP8 POP DUP1 PUSH1 0x1 PUSH1 0x1 PUSH1 0x40 SHL SUB DUP2 GT ISZERO PUSH2 0x1243 JUMPI PUSH2 0x1243 PUSH2 0x27FD JUMP JUMPDEST PUSH1 0x40 MLOAD SWAP1 DUP1 DUP3 MSTORE DUP1 PUSH1 0x20 MUL PUSH1 0x20 ADD DUP3 ADD PUSH1 0x40 MSTORE DUP1 ISZERO PUSH2 0x1276 JUMPI DUP2 PUSH1 0x20 ADD JUMPDEST PUSH1 0x60 DUP2 MSTORE PUSH1 0x20 ADD SWAP1 PUSH1 0x1 SWAP1 SUB SWAP1 DUP2 PUSH2 0x1261 JUMPI SWAP1 POP JUMPDEST POP SWAP7 POP DUP1 PUSH1 0x1 PUSH1 0x1 PUSH1 0x40 SHL SUB DUP2 GT ISZERO PUSH2 0x1291 JUMPI PUSH2 0x1291 PUSH2 0x27FD JUMP JUMPDEST PUSH1 0x40 MLOAD SWAP1 DUP1 DUP3 MSTORE DUP1 PUSH1 0x20 MUL PUSH1 0x20 ADD DUP3 ADD PUSH1 0x40 MSTORE DUP1 ISZERO PUSH2 0x12BA JUMPI DUP2 PUSH1 0x20 ADD PUSH1 0x20 DUP3 MUL DUP1 CALLDATASIZE DUP4 CALLDATACOPY ADD SWAP1 POP JUMPDEST POP SWAP6 POP DUP1 PUSH1 0x1 PUSH1 0x1 PUSH1 0x40 SHL SUB DUP2 GT ISZERO PUSH2 0x12D5 JUMPI PUSH2 0x12D5 PUSH2 0x27FD JUMP JUMPDEST PUSH1 0x40 MLOAD SWAP1 DUP1 DUP3 MSTORE DUP1 PUSH1 0x20 MUL PUSH1 0x20 ADD DUP3 ADD PUSH1 0x40 MSTORE DUP1 ISZERO PUSH2 0x12FE JUMPI DUP2 PUSH1 0x20 ADD PUSH1 0x20 DUP3 MUL DUP1 CALLDATASIZE DUP4 CALLDATACOPY ADD SWAP1 POP JUMPDEST POP SWAP5 POP DUP1 PUSH1 0x1 PUSH1 0x1 PUSH1 0x40 SHL SUB DUP2 GT ISZERO PUSH2 0x1319 JUMPI PUSH2 0x1319 PUSH2 0x27FD JUMP JUMPDEST PUSH1 0x40 MLOAD SWAP1 DUP1 DUP3 MSTORE DUP1 PUSH1 0x20 MUL PUSH1 0x20 ADD DUP3 ADD PUSH1 0x40 MSTORE DUP1 ISZERO PUSH2 0x1342 JUMPI DUP2 PUSH1 0x20 ADD PUSH1 0x20 DUP3 MUL DUP1 CALLDATASIZE DUP4 CALLDATACOPY ADD SWAP1 POP JUMPDEST POP SWAP4 POP DUP1 PUSH1 0x1 PUSH1 0x1 PUSH1 0x40 SHL SUB DUP2 GT ISZERO PUSH2 0x135D JUMPI PUSH2 0x135D PUSH2 0x27FD JUMP JUMPDEST PUSH1 0x40 MLOAD SWAP1 DUP1 DUP3 MSTORE DUP1 PUSH1 0x20 MUL PUSH1 0x20 ADD DUP3 ADD PUSH1 0x40 MSTORE DUP1 ISZERO PUSH2 0x1386 JUMPI DUP2 PUSH1 0x20 ADD PUSH1 0x20 DUP3 MUL DUP1 CALLDATASIZE DUP4 CALLDATACOPY ADD SWAP1 POP JUMPDEST POP SWAP3 POP DUP1 PUSH1 0x1 PUSH1 0x1 PUSH1 0x40 SHL SUB DUP2 GT ISZERO PUSH2 0x13A1 JUMPI PUSH2 0x13A1 PUSH2 0x27FD JUMP JUMPDEST PUSH1 0x40 MLOAD SWAP1 DUP1 DUP3 MSTORE DUP1 PUSH1 0x20 MUL PUSH1 0x20 ADD DUP3 ADD PUSH1 0x40 MSTORE DUP1 ISZERO PUSH2 0x13CA JUMPI DUP2 PUSH1 0x20 ADD PUSH1 0x20 DUP3 MUL DUP1 CALLDATASIZE DUP4 CALLDATACOPY ADD SWAP1 POP JUMPDEST POP SWAP2 POP PUSH0 JUMPDEST DUP2 DUP2 LT ISZERO PUSH2 0x16E8 JUMPI PUSH0 PUSH1 0x5 PUSH0 DUP15 DUP15 DUP6 DUP2 DUP2 LT PUSH2 0x13ED JUMPI PUSH2 0x13ED PUSH2 0x2B2A JUMP JUMPDEST SWAP1 POP PUSH1 0x20 MUL ADD CALLDATALOAD DUP2 MSTORE PUSH1 0x20 ADD SWAP1 DUP2 MSTORE PUSH1 0x20 ADD PUSH0 KECCAK256 SWAP1 POP DUP1 PUSH0 ADD DUP1 SLOAD PUSH2 0x1411 SWAP1 PUSH2 0x2B59 JUMP JUMPDEST DUP1 PUSH1 0x1F ADD PUSH1 0x20 DUP1 SWAP2 DIV MUL PUSH1 0x20 ADD PUSH1 0x40 MLOAD SWAP1 DUP2 ADD PUSH1 0x40 MSTORE DUP1 SWAP3 SWAP2 SWAP1 DUP2 DUP2 MSTORE PUSH1 0x20 ADD DUP3 DUP1 SLOAD PUSH2 0x143D SWAP1 PUSH2 0x2B59 JUMP JUMPDEST DUP1 ISZERO PUSH2 0x1488 JUMPI DUP1 PUSH1 0x1F LT PUSH2 0x145F JUMPI PUSH2 0x100 DUP1 DUP4 SLOAD DIV MUL DUP4 MSTORE SWAP2 PUSH1 0x20 ADD SWAP2 PUSH2 0x1488 JUMP JUMPDEST DUP3 ADD SWAP2 SWAP1 PUSH0 MSTORE PUSH1 0x20 PUSH0 KECCAK256 SWAP1 JUMPDEST DUP2 SLOAD DUP2 MSTORE SWAP1 PUSH1 0x1 ADD SWAP1 PUSH1 0x20 ADD DUP1 DUP4 GT PUSH2 0x146B JUMPI DUP3 SWAP1 SUB PUSH1 0x1F AND DUP3 ADD SWAP2 JUMPDEST POP POP POP POP POP DUP12 DUP4 DUP2 MLOAD DUP2 LT PUSH2 0x149F JUMPI PUSH2 0x149F PUSH2 0x2B2A JUMP JUMPDEST PUSH1 0x20 MUL PUSH1 0x20 ADD ADD DUP2 SWAP1 MSTORE POP DUP1 PUSH1 0x3 ADD DUP1 SLOAD PUSH2 0x14B9 SWAP1 PUSH2 0x2B59 JUMP JUMPDEST DUP1 PUSH1 0x1F ADD PUSH1 0x20 DUP1 SWAP2 DIV MUL PUSH1 0x20 ADD PUSH1 0x40 MLOAD SWAP1 DUP2 ADD PUSH1 0x40 MSTORE DUP1 SWAP3 SWAP2 SWAP1 DUP2 DUP2 MSTORE PUSH1 0x20 ADD DUP3 DUP1 SLOAD PUSH2 0x14E5 SWAP1 PUSH2 0x2B59 JUMP JUMPDEST DUP1 ISZERO PUSH2 0x1530 JUMPI DUP1 PUSH1 0x1F LT PUSH2 0x1507 JUMPI PUSH2 0x100 DUP1 DUP4 SLOAD DIV MUL DUP4 MSTORE SWAP2 PUSH1 0x20 ADD SWAP2 PUSH2 0x1530 JUMP JUMPDEST DUP3 ADD SWAP2 SWAP1 PUSH0 MSTORE PUSH1 0x20 PUSH0 KECCAK256 SWAP1 JUMPDEST DUP2 SLOAD DUP2 MSTORE SWAP1 PUSH1 0x1 ADD SWAP1 PUSH1 0x20 ADD DUP1 DUP4 GT PUSH2 0x1513 JUMPI DUP3 SWAP1 SUB PUSH1 0x1F AND DUP3 ADD SWAP2 JUMPDEST POP POP POP POP POP DUP11 DUP4 DUP2 MLOAD DUP2 LT PUSH2 0x1547 JUMPI PUSH2 0x1547 PUSH2 0x2B2A JUMP JUMPDEST PUSH1 0x20 MUL PUSH1 0x20 ADD ADD DUP2 SWAP1 MSTORE POP DUP1 PUSH1 0x4 ADD DUP1 SLOAD PUSH2 0x1561 SWAP1 PUSH2 0x2B59 JUMP JUMPDEST DUP1 PUSH1 0x1F ADD PUSH1 0x20 DUP1 SWAP2 DIV MUL PUSH1 0x20 ADD PUSH1 0x40 MLOAD SWAP1 DUP2 ADD PUSH1 0x40 MSTORE DUP1 SWAP3 SWAP2 SWAP1 DUP2 DUP2 MSTORE PUSH1 0x20 ADD DUP3 DUP1 SLOAD PUSH2 0x158D SWAP1 PUSH2 0x2B59 JUMP JUMPDEST DUP1 ISZERO PUSH2 0x15D8 JUMPI DUP1 PUSH1 0x1F LT PUSH2 0x15AF JUMPI PUSH2 0x100 DUP1 DUP4 SLOAD DIV MUL DUP4 MSTORE SWAP2 PUSH1 0x20 ADD SWAP2 PUSH2 0x15D8 JUMP JUMPDEST DUP3 ADD SWAP2 SWAP1 PUSH0 MSTORE PUSH1 0x20 PUSH0 KECCAK256 SWAP1 JUMPDEST DUP2 SLOAD DUP2 MSTORE SWAP1 PUSH1 0x1 ADD SWAP1 PUSH1 0x20 ADD DUP1 DUP4 GT PUSH2 0x15BB JUMPI DUP3 SWAP1 SUB PUSH1 0x1F AND DUP3 ADD SWAP2 JUMPDEST POP POP POP POP POP DUP10 DUP4 DUP2 MLOAD DUP2 LT PUSH2 0x15EF JUMPI PUSH2 0x15EF PUSH2 0x2B2A JUMP JUMPDEST PUSH1 0x20 MUL PUSH1 0x20 ADD ADD DUP2 SWAP1 MSTORE POP DUP1 PUSH1 0x1 ADD SLOAD DUP9 DUP4 DUP2 MLOAD DUP2 LT PUSH2 0x1611 JUMPI PUSH2 0x1611 PUSH2 0x2B2A JUMP JUMPDEST PUSH1 0x20 SWAP1 DUP2 MUL SWAP2 SWAP1 SWAP2 ADD ADD MSTORE PUSH1 0x2 DUP2 ADD SLOAD DUP8 MLOAD PUSH1 0xFF SWAP1 SWAP2 AND SWAP1 DUP9 SWAP1 DUP5 SWAP1 DUP2 LT PUSH2 0x163B JUMPI PUSH2 0x163B PUSH2 0x2B2A JUMP JUMPDEST PUSH1 0x20 MUL PUSH1 0x20 ADD ADD SWAP1 PUSH1 0x2 DUP2 GT ISZERO PUSH2 0x1654 JUMPI PUSH2 0x1654 PUSH2 0x24E5 JUMP JUMPDEST SWAP1 DUP2 PUSH1 0x2 DUP2 GT ISZERO PUSH2 0x1667 JUMPI PUSH2 0x1667 PUSH2 0x24E5 JUMP JUMPDEST DUP2 MSTORE POP POP DUP1 PUSH1 0x5 ADD SLOAD DUP7 DUP4 DUP2 MLOAD DUP2 LT PUSH2 0x1682 JUMPI PUSH2 0x1682 PUSH2 0x2B2A JUMP JUMPDEST PUSH1 0x20 MUL PUSH1 0x20 ADD ADD DUP2 DUP2 MSTORE POP POP DUP1 PUSH1 0x6 ADD SLOAD DUP6 DUP4 DUP2 MLOAD DUP2 LT PUSH2 0x16A5 JUMPI PUSH2 0x16A5 PUSH2 0x2B2A JUMP JUMPDEST PUSH1 0x20 SWAP1 DUP2 MUL SWAP2 SWAP1 SWAP2 ADD ADD MSTORE PUSH1 0x7 DUP2 ADD SLOAD DUP5 MLOAD PUSH1 0xFF SWAP1 SWAP2 AND SWAP1 DUP6 SWAP1 DUP5 SWAP1 DUP2 LT PUSH2 0x16CF JUMPI PUSH2 0x16CF PUSH2 0x2B2A JUMP JUMPDEST SWAP2 ISZERO ISZERO PUSH1 0x20 SWAP3 DUP4 MUL SWAP2 SWAP1 SWAP2 ADD SWAP1 SWAP2 ADD MSTORE POP PUSH1 0x1 ADD PUSH2 0x13CF JUMP JUMPDEST POP POP SWAP3 SWAP6 SWAP9 POP SWAP3 SWAP6 SWAP9 SWAP1 SWAP4 SWAP7 POP JUMP JUMPDEST PUSH2 0x16FF PUSH2 0x2293 JUMP JUMPDEST PUSH0 SLOAD PUSH1 0x1 PUSH1 0x1 PUSH1 0xA0 SHL SUB AND CALLER EQ PUSH2 0x1758 JUMPI PUSH1 0x40 MLOAD PUSH3 0x461BCD PUSH1 0xE5 SHL DUP2 MSTORE PUSH1 0x20 PUSH1 0x4 DUP3 ADD MSTORE PUSH1 0x1A PUSH1 0x24 DUP3 ADD MSTORE PUSH32 0x4F6E6C79206F776E65722063616E206772616E7420726F6C6573000000000000 PUSH1 0x44 DUP3 ADD MSTORE PUSH1 0x64 ADD PUSH2 0x698 JUMP JUMPDEST PUSH2 0x1782 PUSH32 0xEF485BE696BBC0C91AD541BBD553FFB5BD0E18DAC30BA76E992DDA23CB807A8A DUP3 PUSH2 0xA8A JUMP JUMPDEST PUSH1 0x40 MLOAD PUSH1 0x1 PUSH1 0x1 PUSH1 0xA0 SHL SUB DUP3 AND SWAP1 PUSH32 0xD09AF131A5AE3CF07DB0755A24028DBF03ACED9071495F1BAA3B6BB4446AC27A SWAP1 PUSH0 SWAP1 LOG2 POP JUMP JUMPDEST PUSH2 0x17C0 PUSH2 0x2293 JUMP JUMPDEST PUSH2 0x17C9 PUSH0 PUSH2 0x232A JUMP JUMPDEST JUMP JUMPDEST PUSH1 0x9 SLOAD PUSH1 0x60 SWAP1 DUP4 LT PUSH2 0x181B JUMPI PUSH1 0x40 MLOAD PUSH3 0x461BCD PUSH1 0xE5 SHL DUP2 MSTORE PUSH1 0x20 PUSH1 0x4 DUP3 ADD MSTORE PUSH1 0x19 PUSH1 0x24 DUP3 ADD MSTORE PUSH25 0x537461727420696E646578206F7574206F6620626F756E6473 PUSH1 0x38 SHL PUSH1 0x44 DUP3 ADD MSTORE PUSH1 0x64 ADD PUSH2 0x698 JUMP JUMPDEST PUSH1 0x9 SLOAD PUSH0 SWAP1 PUSH2 0x182A DUP5 DUP7 PUSH2 0x2AE1 JUMP JUMPDEST GT PUSH2 0x183E JUMPI PUSH2 0x1839 DUP4 DUP6 PUSH2 0x2AE1 JUMP JUMPDEST PUSH2 0x1842 JUMP JUMPDEST PUSH1 0x9 SLOAD JUMPDEST SWAP1 POP PUSH0 PUSH2 0x184F DUP6 DUP4 PUSH2 0x2B91 JUMP JUMPDEST PUSH1 0x1 PUSH1 0x1 PUSH1 0x40 SHL SUB DUP2 GT ISZERO PUSH2 0x1866 JUMPI PUSH2 0x1866 PUSH2 0x27FD JUMP JUMPDEST PUSH1 0x40 MLOAD SWAP1 DUP1 DUP3 MSTORE DUP1 PUSH1 0x20 MUL PUSH1 0x20 ADD DUP3 ADD PUSH1 0x40 MSTORE DUP1 ISZERO PUSH2 0x18C1 JUMPI DUP2 PUSH1 0x20 ADD JUMPDEST PUSH2 0x18AE PUSH1 0x40 MLOAD DUP1 PUSH1 0x60 ADD PUSH1 0x40 MSTORE DUP1 PUSH0 PUSH1 0x1 PUSH1 0x1 PUSH1 0xA0 SHL SUB AND DUP2 MSTORE PUSH1 0x20 ADD PUSH0 DUP2 MSTORE PUSH1 0x20 ADD PUSH0 DUP2 MSTORE POP SWAP1 JUMP JUMPDEST DUP2 MSTORE PUSH1 0x20 ADD SWAP1 PUSH1 0x1 SWAP1 SUB SWAP1 DUP2 PUSH2 0x1884 JUMPI SWAP1 POP JUMPDEST POP SWAP1 POP DUP5 JUMPDEST DUP3 DUP2 LT ISZERO PUSH2 0x195B JUMPI PUSH0 PUSH1 0x9 DUP3 DUP2 SLOAD DUP2 LT PUSH2 0x18E2 JUMPI PUSH2 0x18E2 PUSH2 0x2B2A JUMP JUMPDEST PUSH0 SWAP2 DUP3 MSTORE PUSH1 0x20 DUP1 DUP4 KECCAK256 SWAP1 SWAP2 ADD SLOAD PUSH1 0x40 DUP1 MLOAD PUSH1 0x60 DUP2 ADD DUP3 MSTORE PUSH1 0x1 PUSH1 0x1 PUSH1 0xA0 SHL SUB SWAP1 SWAP3 AND DUP1 DUP4 MSTORE DUP1 DUP6 MSTORE PUSH1 0x7 DUP5 MSTORE DUP2 DUP6 KECCAK256 SLOAD DUP4 DUP6 ADD MSTORE DUP1 DUP6 MSTORE PUSH1 0x8 SWAP1 SWAP4 MSTORE SWAP3 DUP4 SWAP1 KECCAK256 SLOAD SWAP3 DUP2 ADD SWAP3 SWAP1 SWAP3 MSTORE SWAP2 POP DUP4 PUSH2 0x1937 DUP10 DUP6 PUSH2 0x2B91 JUMP JUMPDEST DUP2 MLOAD DUP2 LT PUSH2 0x1947 JUMPI PUSH2 0x1947 PUSH2 0x2B2A JUMP JUMPDEST PUSH1 0x20 SWAP1 DUP2 MUL SWAP2 SWAP1 SWAP2 ADD ADD MSTORE POP PUSH1 0x1 ADD PUSH2 0x18C6 JUMP JUMPDEST POP SWAP5 SWAP4 POP POP POP POP JUMP JUMPDEST PUSH0 DUP1 SLOAD PUSH1 0x1 PUSH1 0x1 PUSH1 0xA0 SHL SUB AND CALLER EQ DUP1 PUSH2 0x19A2 JUMPI POP PUSH2 0x19A2 PUSH32 0xEF485BE696BBC0C91AD541BBD553FFB5BD0E18DAC30BA76E992DDA23CB807A8A CALLER PUSH2 0x1D43 JUMP JUMPDEST PUSH2 0x19EE JUMPI PUSH1 0x40 MLOAD PUSH3 0x461BCD PUSH1 0xE5 SHL DUP2 MSTORE PUSH1 0x20 PUSH1 0x4 DUP3 ADD DUP2 SWAP1 MSTORE PUSH1 0x24 DUP3 ADD MSTORE PUSH32 0x4E6F7420617574686F72697A656420746F20637265617465206D61726B657473 PUSH1 0x44 DUP3 ADD MSTORE PUSH1 0x64 ADD PUSH2 0x698 JUMP JUMPDEST PUSH0 DUP3 GT PUSH2 0x1A3D JUMPI PUSH1 0x40 MLOAD PUSH3 0x461BCD PUSH1 0xE5 SHL DUP2 MSTORE PUSH1 0x20 PUSH1 0x4 DUP3 ADD MSTORE PUSH1 0x1F PUSH1 0x24 DUP3 ADD MSTORE PUSH32 0x4475726174696F6E206D7573742062652067726561746572207468616E203000 PUSH1 0x44 DUP3 ADD MSTORE PUSH1 0x64 ADD PUSH2 0x698 JUMP JUMPDEST PUSH0 DUP6 MLOAD GT PUSH2 0x1A8D JUMPI PUSH1 0x40 MLOAD PUSH3 0x461BCD PUSH1 0xE5 SHL DUP2 MSTORE PUSH1 0x20 PUSH1 0x4 DUP3 ADD MSTORE PUSH1 0x18 PUSH1 0x24 DUP3 ADD MSTORE PUSH32 0x5175657374696F6E2063616E6E6F7420626520656D7074790000000000000000 PUSH1 0x44 DUP3 ADD MSTORE PUSH1 0x64 ADD PUSH2 0x698 JUMP JUMPDEST PUSH0 DUP5 MLOAD GT DUP1 ISZERO PUSH2 0x1A9D JUMPI POP PUSH0 DUP4 MLOAD GT JUMPDEST PUSH2 0x1AE9 JUMPI PUSH1 0x40 MLOAD PUSH3 0x461BCD PUSH1 0xE5 SHL DUP2 MSTORE PUSH1 0x20 PUSH1 0x4 DUP3 ADD MSTORE PUSH1 0x17 PUSH1 0x24 DUP3 ADD MSTORE PUSH32 0x4F7074696F6E732063616E6E6F7420626520656D707479000000000000000000 PUSH1 0x44 DUP3 ADD MSTORE PUSH1 0x64 ADD PUSH2 0x698 JUMP JUMPDEST PUSH1 0x4 DUP1 SLOAD PUSH0 SWAP2 DUP3 PUSH2 0x1AF9 DUP4 PUSH2 0x2BA4 JUMP JUMPDEST SWAP1 SWAP2 SSTORE POP PUSH0 DUP2 DUP2 MSTORE PUSH1 0x5 PUSH1 0x20 MSTORE PUSH1 0x40 SWAP1 KECCAK256 SWAP1 SWAP2 POP DUP1 PUSH2 0x1B18 DUP9 DUP3 PUSH2 0x2C07 JUMP JUMPDEST POP PUSH1 0x3 DUP2 ADD PUSH2 0x1B27 DUP8 DUP3 PUSH2 0x2C07 JUMP JUMPDEST POP PUSH1 0x4 DUP2 ADD PUSH2 0x1B36 DUP7 DUP3 PUSH2 0x2C07 JUMP JUMPDEST POP PUSH2 0x1B41 DUP5 TIMESTAMP PUSH2 0x2AE1 JUMP JUMPDEST PUSH1 0x1 DUP3 ADD DUP2 SWAP1 SSTORE PUSH1 0x2 DUP3 ADD DUP1 SLOAD PUSH1 0xFF NOT AND SWAP1 SSTORE PUSH1 0x40 MLOAD DUP4 SWAP2 PUSH32 0xA2D123850430AD736C7D9B724E8F4AC57A15F478145540D7D4F9E01AF14147F6 SWAP2 PUSH2 0x1B8A SWAP2 DUP12 SWAP2 DUP12 SWAP2 DUP12 SWAP2 PUSH2 0x2CC1 JUMP JUMPDEST PUSH1 0x40 MLOAD DUP1 SWAP2 SUB SWAP1 LOG2 POP SWAP6 SWAP5 POP POP POP POP POP JUMP JUMPDEST PUSH1 0x1 PUSH1 0x1 PUSH1 0xA0 SHL SUB DUP4 AND PUSH0 SWAP1 DUP2 MSTORE PUSH1 0x8 PUSH1 0x20 MSTORE PUSH1 0x40 SWAP1 KECCAK256 DUP1 SLOAD PUSH1 0x60 SWAP2 SWAP1 DUP5 LT PUSH2 0x1C03 JUMPI PUSH1 0x40 MLOAD PUSH3 0x461BCD PUSH1 0xE5 SHL DUP2 MSTORE PUSH1 0x20 PUSH1 0x4 DUP3 ADD MSTORE PUSH1 0x19 PUSH1 0x24 DUP3 ADD MSTORE PUSH25 0x537461727420696E646578206F7574206F6620626F756E6473 PUSH1 0x38 SHL PUSH1 0x44 DUP3 ADD MSTORE PUSH1 0x64 ADD PUSH2 0x698 JUMP JUMPDEST DUP1 SLOAD PUSH0 SWAP1 PUSH2 0x1C11 DUP6 DUP8 PUSH2 0x2AE1 JUMP JUMPDEST GT PUSH2 0x1C25 JUMPI PUSH2 0x1C20 DUP5 DUP7 PUSH2 0x2AE1 JUMP JUMPDEST PUSH2 0x1C28 JUMP JUMPDEST DUP2 SLOAD JUMPDEST SWAP1 POP PUSH0 PUSH2 0x1C35 DUP7 DUP4 PUSH2 0x2B91 JUMP JUMPDEST PUSH1 0x1 PUSH1 0x1 PUSH1 0x40 SHL SUB DUP2 GT ISZERO PUSH2 0x1C4C JUMPI PUSH2 0x1C4C PUSH2 0x27FD JUMP JUMPDEST PUSH1 0x40 MLOAD SWAP1 DUP1 DUP3 MSTORE DUP1 PUSH1 0x20 MUL PUSH1 0x20 ADD DUP3 ADD PUSH1 0x40 MSTORE DUP1 ISZERO PUSH2 0x1CA6 JUMPI DUP2 PUSH1 0x20 ADD JUMPDEST PUSH2 0x1C93 PUSH1 0x40 MLOAD DUP1 PUSH1 0x80 ADD PUSH1 0x40 MSTORE DUP1 PUSH0 DUP2 MSTORE PUSH1 0x20 ADD PUSH0 ISZERO ISZERO DUP2 MSTORE PUSH1 0x20 ADD PUSH0 DUP2 MSTORE PUSH1 0x20 ADD PUSH0 DUP2 MSTORE POP SWAP1 JUMP JUMPDEST DUP2 MSTORE PUSH1 0x20 ADD SWAP1 PUSH1 0x1 SWAP1 SUB SWAP1 DUP2 PUSH2 0x1C6A JUMPI SWAP1 POP JUMPDEST POP SWAP1 POP DUP6 JUMPDEST DUP3 DUP2 LT ISZERO PUSH2 0x1D38 JUMPI DUP4 DUP2 DUP2 SLOAD DUP2 LT PUSH2 0x1CC5 JUMPI PUSH2 0x1CC5 PUSH2 0x2B2A JUMP JUMPDEST PUSH0 SWAP2 DUP3 MSTORE PUSH1 0x20 SWAP2 DUP3 SWAP1 KECCAK256 PUSH1 0x40 DUP1 MLOAD PUSH1 0x80 DUP2 ADD DUP3 MSTORE PUSH1 0x4 SWAP1 SWAP4 MUL SWAP1 SWAP2 ADD DUP1 SLOAD DUP4 MSTORE PUSH1 0x1 DUP2 ADD SLOAD PUSH1 0xFF AND ISZERO ISZERO SWAP4 DUP4 ADD SWAP4 SWAP1 SWAP4 MSTORE PUSH1 0x2 DUP4 ADD SLOAD SWAP1 DUP3 ADD MSTORE PUSH1 0x3 SWAP1 SWAP2 ADD SLOAD PUSH1 0x60 DUP3 ADD MSTORE DUP3 PUSH2 0x1D15 DUP10 DUP5 PUSH2 0x2B91 JUMP JUMPDEST DUP2 MLOAD DUP2 LT PUSH2 0x1D25 JUMPI PUSH2 0x1D25 PUSH2 0x2B2A JUMP JUMPDEST PUSH1 0x20 SWAP1 DUP2 MUL SWAP2 SWAP1 SWAP2 ADD ADD MSTORE PUSH1 0x1 ADD PUSH2 0x1CAB JUMP JUMPDEST POP SWAP7 SWAP6 POP POP POP POP POP POP JUMP JUMPDEST PUSH0 SWAP2 DUP3 MSTORE PUSH1 0x2 PUSH1 0x20 SWAP1 DUP2 MSTORE PUSH1 0x40 DUP1 DUP5 KECCAK256 PUSH1 0x1 PUSH1 0x1 PUSH1 0xA0 SHL SUB SWAP4 SWAP1 SWAP4 AND DUP5 MSTORE SWAP2 SWAP1 MSTORE SWAP1 KECCAK256 SLOAD PUSH1 0xFF AND SWAP1 JUMP JUMPDEST PUSH1 0x5 PUSH1 0x20 MSTORE PUSH0 SWAP1 DUP2 MSTORE PUSH1 0x40 SWAP1 KECCAK256 DUP1 SLOAD DUP2 SWAP1 PUSH2 0x1D87 SWAP1 PUSH2 0x2B59 JUMP JUMPDEST DUP1 PUSH1 0x1F ADD PUSH1 0x20 DUP1 SWAP2 DIV MUL PUSH1 0x20 ADD PUSH1 0x40 MLOAD SWAP1 DUP2 ADD PUSH1 0x40 MSTORE DUP1 SWAP3 SWAP2 SWAP1 DUP2 DUP2 MSTORE PUSH1 0x20 ADD DUP3 DUP1 SLOAD PUSH2 0x1DB3 SWAP1 PUSH2 0x2B59 JUMP JUMPDEST DUP1 ISZERO PUSH2 0x1DFE JUMPI DUP1 PUSH1 0x1F LT PUSH2 0x1DD5 JUMPI PUSH2 0x100 DUP1 DUP4 SLOAD DIV MUL DUP4 MSTORE SWAP2 PUSH1 0x20 ADD SWAP2 PUSH2 0x1DFE JUMP JUMPDEST DUP3 ADD SWAP2 SWAP1 PUSH0 MSTORE PUSH1 0x20 PUSH0 KECCAK256 SWAP1 JUMPDEST DUP2 SLOAD DUP2 MSTORE SWAP1 PUSH1 0x1 ADD SWAP1 PUSH1 0x20 ADD DUP1 DUP4 GT PUSH2 0x1DE1 JUMPI DUP3 SWAP1 SUB PUSH1 0x1F AND DUP3 ADD SWAP2 JUMPDEST POP POP POP POP PUSH1 0x1 DUP4 ADD SLOAD PUSH1 0x2 DUP5 ADD SLOAD PUSH1 0x3 DUP6 ADD DUP1 SLOAD SWAP5 SWAP6 SWAP3 SWAP5 PUSH1 0xFF SWAP1 SWAP3 AND SWAP4 POP SWAP1 PUSH2 0x1E27 SWAP1 PUSH2 0x2B59 JUMP JUMPDEST DUP1 PUSH1 0x1F ADD PUSH1 0x20 DUP1 SWAP2 DIV MUL PUSH1 0x20 ADD PUSH1 0x40 MLOAD SWAP1 DUP2 ADD PUSH1 0x40 MSTORE DUP1 SWAP3 SWAP2 SWAP1 DUP2 DUP2 MSTORE PUSH1 0x20 ADD DUP3 DUP1 SLOAD PUSH2 0x1E53 SWAP1 PUSH2 0x2B59 JUMP JUMPDEST DUP1 ISZERO PUSH2 0x1E9E JUMPI DUP1 PUSH1 0x1F LT PUSH2 0x1E75 JUMPI PUSH2 0x100 DUP1 DUP4 SLOAD DIV MUL DUP4 MSTORE SWAP2 PUSH1 0x20 ADD SWAP2 PUSH2 0x1E9E JUMP JUMPDEST DUP3 ADD SWAP2 SWAP1 PUSH0 MSTORE PUSH1 0x20 PUSH0 KECCAK256 SWAP1 JUMPDEST DUP2 SLOAD DUP2 MSTORE SWAP1 PUSH1 0x1 ADD SWAP1 PUSH1 0x20 ADD DUP1 DUP4 GT PUSH2 0x1E81 JUMPI DUP3 SWAP1 SUB PUSH1 0x1F AND DUP3 ADD SWAP2 JUMPDEST POP POP POP POP POP SWAP1 DUP1 PUSH1 0x4 ADD DUP1 SLOAD PUSH2 0x1EB3 SWAP1 PUSH2 0x2B59 JUMP JUMPDEST DUP1 PUSH1 0x1F ADD PUSH1 0x20 DUP1 SWAP2 DIV MUL PUSH1 0x20 ADD PUSH1 0x40 MLOAD SWAP1 DUP2 ADD PUSH1 0x40 MSTORE DUP1 SWAP3 SWAP2 SWAP1 DUP2 DUP2 MSTORE PUSH1 0x20 ADD DUP3 DUP1 SLOAD PUSH2 0x1EDF SWAP1 PUSH2 0x2B59 JUMP JUMPDEST DUP1 ISZERO PUSH2 0x1F2A JUMPI DUP1 PUSH1 0x1F LT PUSH2 0x1F01 JUMPI PUSH2 0x100 DUP1 DUP4 SLOAD DIV MUL DUP4 MSTORE SWAP2 PUSH1 0x20 ADD SWAP2 PUSH2 0x1F2A JUMP JUMPDEST DUP3 ADD SWAP2 SWAP1 PUSH0 MSTORE PUSH1 0x20 PUSH0 KECCAK256 SWAP1 JUMPDEST DUP2 SLOAD DUP2 MSTORE SWAP1 PUSH1 0x1 ADD SWAP1 PUSH1 0x20 ADD DUP1 DUP4 GT PUSH2 0x1F0D JUMPI DUP3 SWAP1 SUB PUSH1 0x1F AND DUP3 ADD SWAP2 JUMPDEST POP POP POP PUSH1 0x5 DUP5 ADD SLOAD PUSH1 0x6 DUP6 ADD SLOAD PUSH1 0x7 DUP7 ADD SLOAD PUSH1 0xC SWAP1 SWAP7 ADD SLOAD SWAP5 SWAP6 SWAP2 SWAP5 SWAP1 SWAP4 POP PUSH1 0xFF SWAP1 SWAP2 AND SWAP2 POP DUP10 JUMP JUMPDEST PUSH0 DUP3 DUP2 MSTORE PUSH1 0x2 PUSH1 0x20 MSTORE PUSH1 0x40 SWAP1 KECCAK256 PUSH1 0x1 ADD SLOAD PUSH2 0x1F6D DUP2 PUSH2 0x21F8 JUMP JUMPDEST PUSH2 0xAAE DUP4 DUP4 PUSH2 0x22BF JUMP JUMPDEST PUSH0 SLOAD PUSH1 0x1 PUSH1 0x1 PUSH1 0xA0 SHL SUB AND CALLER EQ DUP1 PUSH2 0x1FA1 JUMPI POP PUSH2 0x1FA1 PUSH0 MLOAD PUSH1 0x20 PUSH2 0x2D35 PUSH0 CODECOPY PUSH0 MLOAD SWAP1 PUSH0 MSTORE CALLER PUSH2 0x1D43 JUMP JUMPDEST PUSH2 0x1FBD JUMPI PUSH1 0x40 MLOAD PUSH3 0x461BCD PUSH1 0xE5 SHL DUP2 MSTORE PUSH1 0x4 ADD PUSH2 0x698 SWAP1 PUSH2 0x2A8C JUMP JUMPDEST PUSH0 DUP3 DUP2 MSTORE PUSH1 0x5 PUSH1 0x20 MSTORE PUSH1 0x40 SWAP1 KECCAK256 PUSH1 0x1 DUP2 ADD SLOAD TIMESTAMP LT ISZERO PUSH2 0x201E JUMPI PUSH1 0x40 MLOAD PUSH3 0x461BCD PUSH1 0xE5 SHL DUP2 MSTORE PUSH1 0x20 PUSH1 0x4 DUP3 ADD MSTORE PUSH1 0x18 PUSH1 0x24 DUP3 ADD MSTORE PUSH32 0x4D61726B657420686173206E6F7420656E646564207965740000000000000000 PUSH1 0x44 DUP3 ADD MSTORE PUSH1 0x64 ADD PUSH2 0x698 JUMP JUMPDEST PUSH1 0x7 DUP2 ADD SLOAD PUSH1 0xFF AND ISZERO PUSH2 0x2073 JUMPI PUSH1 0x40 MLOAD PUSH3 0x461BCD PUSH1 0xE5 SHL DUP2 MSTORE PUSH1 0x20 PUSH1 0x4 DUP3 ADD MSTORE PUSH1 0x1A PUSH1 0x24 DUP3 ADD MSTORE PUSH32 0x4D61726B657420697320616C7265616479207265736F6C766564000000000000 PUSH1 0x44 DUP3 ADD MSTORE PUSH1 0x64 ADD PUSH2 0x698 JUMP JUMPDEST PUSH0 DUP3 PUSH1 0x2 DUP2 GT ISZERO PUSH2 0x2086 JUMPI PUSH2 0x2086 PUSH2 0x24E5 JUMP JUMPDEST SUB PUSH2 0x20C5 JUMPI PUSH1 0x40 MLOAD PUSH3 0x461BCD PUSH1 0xE5 SHL DUP2 MSTORE PUSH1 0x20 PUSH1 0x4 DUP3 ADD MSTORE PUSH1 0xF PUSH1 0x24 DUP3 ADD MSTORE PUSH15 0x496E76616C6964206F7574636F6D65 PUSH1 0x88 SHL PUSH1 0x44 DUP3 ADD MSTORE PUSH1 0x64 ADD PUSH2 0x698 JUMP JUMPDEST DUP2 DUP2 PUSH1 0x2 ADD PUSH0 PUSH2 0x100 EXP DUP2 SLOAD DUP2 PUSH1 0xFF MUL NOT AND SWAP1 DUP4 PUSH1 0x2 DUP2 GT ISZERO PUSH2 0x20EA JUMPI PUSH2 0x20EA PUSH2 0x24E5 JUMP JUMPDEST MUL OR SWAP1 SSTORE POP PUSH1 0x7 DUP2 ADD DUP1 SLOAD PUSH1 0xFF NOT AND PUSH1 0x1 OR SWAP1 SSTORE PUSH1 0x5 DUP2 ADD SLOAD PUSH1 0x6 DUP3 ADD SLOAD PUSH1 0xB DUP4 ADD SLOAD PUSH1 0x40 MLOAD DUP7 SWAP4 PUSH32 0x7F873A806061058DA82F5E998782021C8613F1BFC3AFDCC3C1D6217CED6E0306 SWAP4 PUSH2 0x213F SWAP4 DUP9 SWAP4 PUSH2 0x2D0B JUMP JUMPDEST PUSH1 0x40 MLOAD DUP1 SWAP2 SUB SWAP1 LOG2 POP POP POP JUMP JUMPDEST PUSH2 0x2154 PUSH2 0x2293 JUMP JUMPDEST PUSH1 0x1 PUSH1 0x1 PUSH1 0xA0 SHL SUB DUP2 AND PUSH2 0x217D JUMPI PUSH1 0x40 MLOAD PUSH4 0x1E4FBDF7 PUSH1 0xE0 SHL DUP2 MSTORE PUSH0 PUSH1 0x4 DUP3 ADD MSTORE PUSH1 0x24 ADD PUSH2 0x698 JUMP JUMPDEST PUSH2 0x2186 DUP2 PUSH2 0x232A JUMP JUMPDEST POP JUMP JUMPDEST PUSH1 0x8 PUSH1 0x20 MSTORE DUP2 PUSH0 MSTORE PUSH1 0x40 PUSH0 KECCAK256 DUP2 DUP2 SLOAD DUP2 LT PUSH2 0x21A2 JUMPI PUSH0 DUP1 REVERT JUMPDEST PUSH0 SWAP2 DUP3 MSTORE PUSH1 0x20 SWAP1 SWAP2 KECCAK256 PUSH1 0x4 SWAP1 SWAP2 MUL ADD DUP1 SLOAD PUSH1 0x1 DUP3 ADD SLOAD PUSH1 0x2 DUP4 ADD SLOAD PUSH1 0x3 SWAP1 SWAP4 ADD SLOAD SWAP2 SWAP5 POP PUSH1 0xFF AND SWAP3 POP DUP5 JUMP JUMPDEST PUSH1 0x2 PUSH1 0x1 SLOAD SUB PUSH2 0x21F1 JUMPI PUSH1 0x40 MLOAD PUSH4 0x3EE5AEB5 PUSH1 0xE0 SHL DUP2 MSTORE PUSH1 0x4 ADD PUSH1 0x40 MLOAD DUP1 SWAP2 SUB SWAP1 REVERT JUMPDEST PUSH1 0x2 PUSH1 0x1 SSTORE JUMP JUMPDEST PUSH2 0x2186 DUP2 CALLER PUSH2 0x2379 JUMP JUMPDEST PUSH0 PUSH2 0x220D DUP4 DUP4 PUSH2 0x1D43 JUMP JUMPDEST PUSH2 0x228C JUMPI PUSH0 DUP4 DUP2 MSTORE PUSH1 0x2 PUSH1 0x20 SWAP1 DUP2 MSTORE PUSH1 0x40 DUP1 DUP4 KECCAK256 PUSH1 0x1 PUSH1 0x1 PUSH1 0xA0 SHL SUB DUP7 AND DUP5 MSTORE SWAP1 SWAP2 MSTORE SWAP1 KECCAK256 DUP1 SLOAD PUSH1 0xFF NOT AND PUSH1 0x1 OR SWAP1 SSTORE PUSH2 0x2244 CALLER SWAP1 JUMP JUMPDEST PUSH1 0x1 PUSH1 0x1 PUSH1 0xA0 SHL SUB AND DUP3 PUSH1 0x1 PUSH1 0x1 PUSH1 0xA0 SHL SUB AND DUP5 PUSH32 0x2F8788117E7EFF1D82E926EC794901D17C78024A50270940304540A733656F0D PUSH1 0x40 MLOAD PUSH1 0x40 MLOAD DUP1 SWAP2 SUB SWAP1 LOG4 POP PUSH1 0x1 PUSH2 0x60F JUMP JUMPDEST POP PUSH0 PUSH2 0x60F JUMP JUMPDEST PUSH0 SLOAD PUSH1 0x1 PUSH1 0x1 PUSH1 0xA0 SHL SUB AND CALLER EQ PUSH2 0x17C9 JUMPI PUSH1 0x40 MLOAD PUSH4 0x118CDAA7 PUSH1 0xE0 SHL DUP2 MSTORE CALLER PUSH1 0x4 DUP3 ADD MSTORE PUSH1 0x24 ADD PUSH2 0x698 JUMP JUMPDEST PUSH0 PUSH2 0x22CA DUP4 DUP4 PUSH2 0x1D43 JUMP JUMPDEST ISZERO PUSH2 0x228C JUMPI PUSH0 DUP4 DUP2 MSTORE PUSH1 0x2 PUSH1 0x20 SWAP1 DUP2 MSTORE PUSH1 0x40 DUP1 DUP4 KECCAK256 PUSH1 0x1 PUSH1 0x1 PUSH1 0xA0 SHL SUB DUP7 AND DUP1 DUP6 MSTORE SWAP3 MSTORE DUP1 DUP4 KECCAK256 DUP1 SLOAD PUSH1 0xFF NOT AND SWAP1 SSTORE MLOAD CALLER SWAP3 DUP7 SWAP2 PUSH32 0xF6391F5C32D9C69D2A47EA670B442974B53935D1EDC7FD64EB21E047A839171B SWAP2 SWAP1 LOG4 POP PUSH1 0x1 PUSH2 0x60F JUMP JUMPDEST PUSH0 DUP1 SLOAD PUSH1 0x1 PUSH1 0x1 PUSH1 0xA0 SHL SUB DUP4 DUP2 AND PUSH1 0x1 PUSH1 0x1 PUSH1 0xA0 SHL SUB NOT DUP4 AND DUP2 OR DUP5 SSTORE PUSH1 0x40 MLOAD SWAP2 SWAP1 SWAP3 AND SWAP3 DUP4 SWAP2 PUSH32 0x8BE0079C531659141344CD1FD0A4F28419497F9722A3DAAFE3B4186F6B6457E0 SWAP2 SWAP1 LOG3 POP POP JUMP JUMPDEST PUSH2 0x2383 DUP3 DUP3 PUSH2 0x1D43 JUMP JUMPDEST PUSH2 0xA86 JUMPI PUSH1 0x40 MLOAD PUSH4 0xE2517D3F PUSH1 0xE0 SHL DUP2 MSTORE PUSH1 0x1 PUSH1 0x1 PUSH1 0xA0 SHL SUB DUP3 AND PUSH1 0x4 DUP3 ADD MSTORE PUSH1 0x24 DUP2 ADD DUP4 SWAP1 MSTORE PUSH1 0x44 ADD PUSH2 0x698 JUMP JUMPDEST PUSH0 PUSH1 0x20 DUP3 DUP5 SUB SLT ISZERO PUSH2 0x23C2 JUMPI PUSH0 PUSH0 REVERT JUMPDEST DUP2 CALLDATALOAD PUSH1 0x1 PUSH1 0x1 PUSH1 0xE0 SHL SUB NOT DUP2 AND DUP2 EQ PUSH2 0x23D9 JUMPI PUSH0 PUSH0 REVERT JUMPDEST SWAP4 SWAP3 POP POP POP JUMP JUMPDEST DUP1 CALLDATALOAD PUSH1 0x1 PUSH1 0x1 PUSH1 0xA0 SHL SUB DUP2 AND DUP2 EQ PUSH2 0x23F6 JUMPI PUSH0 PUSH0 REVERT JUMPDEST SWAP2 SWAP1 POP JUMP JUMPDEST PUSH0 PUSH0 PUSH1 0x40 DUP4 DUP6 SUB SLT ISZERO PUSH2 0x240C JUMPI PUSH0 PUSH0 REVERT JUMPDEST DUP3 CALLDATALOAD SWAP2 POP PUSH2 0x241C PUSH1 0x20 DUP5 ADD PUSH2 0x23E0 JUMP JUMPDEST SWAP1 POP SWAP3 POP SWAP3 SWAP1 POP JUMP JUMPDEST PUSH0 PUSH1 0x20 DUP3 DUP5 SUB SLT ISZERO PUSH2 0x2435 JUMPI PUSH0 PUSH0 REVERT JUMPDEST POP CALLDATALOAD SWAP2 SWAP1 POP JUMP JUMPDEST PUSH0 PUSH0 PUSH1 0x40 DUP4 DUP6 SUB SLT ISZERO PUSH2 0x244D JUMPI PUSH0 PUSH0 REVERT JUMPDEST POP POP DUP1 CALLDATALOAD SWAP3 PUSH1 0x20 SWAP1 SWAP2 ADD CALLDATALOAD SWAP2 POP JUMP JUMPDEST PUSH0 PUSH1 0x20 DUP3 DUP5 SUB SLT ISZERO PUSH2 0x246C JUMPI PUSH0 PUSH0 REVERT JUMPDEST PUSH2 0x23D9 DUP3 PUSH2 0x23E0 JUMP JUMPDEST DUP1 ISZERO ISZERO DUP2 EQ PUSH2 0x2186 JUMPI PUSH0 PUSH0 REVERT JUMPDEST PUSH0 PUSH0 PUSH0 PUSH1 0x60 DUP5 DUP7 SUB SLT ISZERO PUSH2 0x2494 JUMPI PUSH0 PUSH0 REVERT JUMPDEST DUP4 CALLDATALOAD SWAP3 POP PUSH1 0x20 DUP5 ADD CALLDATALOAD PUSH2 0x24A6 DUP2 PUSH2 0x2475 JUMP JUMPDEST SWAP3 SWAP6 SWAP3 SWAP5 POP POP POP PUSH1 0x40 SWAP2 SWAP1 SWAP2 ADD CALLDATALOAD SWAP1 JUMP JUMPDEST PUSH0 DUP2 MLOAD DUP1 DUP5 MSTORE DUP1 PUSH1 0x20 DUP5 ADD PUSH1 0x20 DUP7 ADD MCOPY PUSH0 PUSH1 0x20 DUP3 DUP7 ADD ADD MSTORE PUSH1 0x20 PUSH1 0x1F NOT PUSH1 0x1F DUP4 ADD AND DUP6 ADD ADD SWAP2 POP POP SWAP3 SWAP2 POP POP JUMP JUMPDEST PUSH4 0x4E487B71 PUSH1 0xE0 SHL PUSH0 MSTORE PUSH1 0x21 PUSH1 0x4 MSTORE PUSH1 0x24 PUSH0 REVERT JUMPDEST PUSH1 0x3 DUP2 LT PUSH2 0x2515 JUMPI PUSH4 0x4E487B71 PUSH1 0xE0 SHL PUSH0 MSTORE PUSH1 0x21 PUSH1 0x4 MSTORE PUSH1 0x24 PUSH0 REVERT JUMPDEST SWAP1 MSTORE JUMP JUMPDEST PUSH2 0x100 DUP2 MSTORE PUSH0 PUSH2 0x252D PUSH2 0x100 DUP4 ADD DUP12 PUSH2 0x24B7 JUMP JUMPDEST DUP3 DUP2 SUB PUSH1 0x20 DUP5 ADD MSTORE PUSH2 0x253F DUP2 DUP12 PUSH2 0x24B7 JUMP JUMPDEST SWAP1 POP DUP3 DUP2 SUB PUSH1 0x40 DUP5 ADD MSTORE PUSH2 0x2553 DUP2 DUP11 PUSH2 0x24B7 JUMP JUMPDEST SWAP2 POP POP DUP7 PUSH1 0x60 DUP4 ADD MSTORE PUSH2 0x2569 PUSH1 0x80 DUP4 ADD DUP8 PUSH2 0x24F9 JUMP JUMPDEST DUP5 PUSH1 0xA0 DUP4 ADD MSTORE DUP4 PUSH1 0xC0 DUP4 ADD MSTORE DUP3 ISZERO ISZERO PUSH1 0xE0 DUP4 ADD MSTORE SWAP10 SWAP9 POP POP POP POP POP POP POP POP POP JUMP JUMPDEST PUSH0 PUSH0 PUSH1 0x20 DUP4 DUP6 SUB SLT ISZERO PUSH2 0x259B JUMPI PUSH0 PUSH0 REVERT JUMPDEST DUP3 CALLDATALOAD PUSH1 0x1 PUSH1 0x1 PUSH1 0x40 SHL SUB DUP2 GT ISZERO PUSH2 0x25B0 JUMPI PUSH0 PUSH0 REVERT JUMPDEST DUP4 ADD PUSH1 0x1F DUP2 ADD DUP6 SGT PUSH2 0x25C0 JUMPI PUSH0 PUSH0 REVERT JUMPDEST DUP1 CALLDATALOAD PUSH1 0x1 PUSH1 0x1 PUSH1 0x40 SHL SUB DUP2 GT ISZERO PUSH2 0x25D5 JUMPI PUSH0 PUSH0 REVERT JUMPDEST DUP6 PUSH1 0x20 DUP3 PUSH1 0x5 SHL DUP5 ADD ADD GT ISZERO PUSH2 0x25E9 JUMPI PUSH0 PUSH0 REVERT JUMPDEST PUSH1 0x20 SWAP2 SWAP1 SWAP2 ADD SWAP6 SWAP1 SWAP5 POP SWAP3 POP POP POP JUMP JUMPDEST PUSH0 DUP3 DUP3 MLOAD DUP1 DUP6 MSTORE PUSH1 0x20 DUP6 ADD SWAP5 POP PUSH1 0x20 DUP2 PUSH1 0x5 SHL DUP4 ADD ADD PUSH1 0x20 DUP6 ADD PUSH0 JUMPDEST DUP4 DUP2 LT ISZERO PUSH2 0x2647 JUMPI PUSH1 0x1F NOT DUP6 DUP5 SUB ADD DUP9 MSTORE PUSH2 0x2631 DUP4 DUP4 MLOAD PUSH2 0x24B7 JUMP JUMPDEST PUSH1 0x20 SWAP9 DUP10 ADD SWAP9 SWAP1 SWAP4 POP SWAP2 SWAP1 SWAP2 ADD SWAP1 PUSH1 0x1 ADD PUSH2 0x2615 JUMP JUMPDEST POP SWAP1 SWAP7 SWAP6 POP POP POP POP POP POP JUMP JUMPDEST PUSH0 DUP2 MLOAD DUP1 DUP5 MSTORE PUSH1 0x20 DUP5 ADD SWAP4 POP PUSH1 0x20 DUP4 ADD PUSH0 JUMPDEST DUP3 DUP2 LT ISZERO PUSH2 0x2683 JUMPI DUP2 MLOAD DUP7 MSTORE PUSH1 0x20 SWAP6 DUP7 ADD SWAP6 SWAP1 SWAP2 ADD SWAP1 PUSH1 0x1 ADD PUSH2 0x2665 JUMP JUMPDEST POP SWAP4 SWAP5 SWAP4 POP POP POP POP JUMP JUMPDEST PUSH0 DUP2 MLOAD DUP1 DUP5 MSTORE PUSH1 0x20 DUP5 ADD SWAP4 POP PUSH1 0x20 DUP4 ADD PUSH0 JUMPDEST DUP3 DUP2 LT ISZERO PUSH2 0x2683 JUMPI DUP2 MLOAD ISZERO ISZERO DUP7 MSTORE PUSH1 0x20 SWAP6 DUP7 ADD SWAP6 SWAP1 SWAP2 ADD SWAP1 PUSH1 0x1 ADD PUSH2 0x269F JUMP JUMPDEST PUSH2 0x100 DUP2 MSTORE PUSH0 PUSH2 0x26D3 PUSH2 0x100 DUP4 ADD DUP12 PUSH2 0x25F9 JUMP JUMPDEST DUP3 DUP2 SUB PUSH1 0x20 DUP5 ADD MSTORE PUSH2 0x26E5 DUP2 DUP12 PUSH2 0x25F9 JUMP JUMPDEST SWAP1 POP DUP3 DUP2 SUB PUSH1 0x40 DUP5 ADD MSTORE PUSH2 0x26F9 DUP2 DUP11 PUSH2 0x25F9 JUMP JUMPDEST SWAP1 POP DUP3 DUP2 SUB PUSH1 0x60 DUP5 ADD MSTORE PUSH2 0x270D DUP2 DUP10 PUSH2 0x2653 JUMP JUMPDEST DUP4 DUP2 SUB PUSH1 0x80 DUP6 ADD MSTORE DUP8 MLOAD DUP1 DUP3 MSTORE PUSH1 0x20 DUP1 DUP11 ADD SWAP4 POP SWAP1 SWAP2 ADD SWAP1 PUSH0 JUMPDEST DUP2 DUP2 LT ISZERO PUSH2 0x274D JUMPI PUSH2 0x273A DUP4 DUP6 MLOAD PUSH2 0x24F9 JUMP JUMPDEST PUSH1 0x20 SWAP4 DUP5 ADD SWAP4 SWAP3 SWAP1 SWAP3 ADD SWAP2 PUSH1 0x1 ADD PUSH2 0x2727 JUMP JUMPDEST POP POP DUP4 DUP2 SUB PUSH1 0xA0 DUP6 ADD MSTORE PUSH2 0x2761 DUP2 DUP9 PUSH2 0x2653 JUMP JUMPDEST SWAP2 POP POP DUP3 DUP2 SUB PUSH1 0xC0 DUP5 ADD MSTORE PUSH2 0x2776 DUP2 DUP7 PUSH2 0x2653 JUMP JUMPDEST SWAP1 POP DUP3 DUP2 SUB PUSH1 0xE0 DUP5 ADD MSTORE PUSH2 0x278A DUP2 DUP6 PUSH2 0x268D JUMP JUMPDEST SWAP12 SWAP11 POP POP POP POP POP POP POP POP POP POP POP JUMP JUMPDEST PUSH1 0x20 DUP1 DUP3 MSTORE DUP3 MLOAD DUP3 DUP3 ADD DUP2 SWAP1 MSTORE PUSH0 SWAP2 DUP5 ADD SWAP1 PUSH1 0x40 DUP5 ADD SWAP1 DUP4 JUMPDEST DUP2 DUP2 LT ISZERO PUSH2 0x27F2 JUMPI DUP4 MLOAD DUP1 MLOAD PUSH1 0x1 PUSH1 0x1 PUSH1 0xA0 SHL SUB AND DUP5 MSTORE PUSH1 0x20 DUP1 DUP3 ADD MLOAD DUP2 DUP7 ADD MSTORE PUSH1 0x40 SWAP2 DUP3 ADD MLOAD SWAP2 DUP6 ADD SWAP2 SWAP1 SWAP2 MSTORE SWAP1 SWAP4 ADD SWAP3 PUSH1 0x60 SWAP1 SWAP3 ADD SWAP2 PUSH1 0x1 ADD PUSH2 0x27B2 JUMP JUMPDEST POP SWAP1 SWAP6 SWAP5 POP POP POP POP POP JUMP JUMPDEST PUSH4 0x4E487B71 PUSH1 0xE0 SHL PUSH0 MSTORE PUSH1 0x41 PUSH1 0x4 MSTORE PUSH1 0x24 PUSH0 REVERT JUMPDEST PUSH0 DUP3 PUSH1 0x1F DUP4 ADD SLT PUSH2 0x2820 JUMPI PUSH0 PUSH0 REVERT JUMPDEST DUP2 CALLDATALOAD PUSH1 0x1 PUSH1 0x1 PUSH1 0x40 SHL SUB DUP2 GT ISZERO PUSH2 0x2839 JUMPI PUSH2 0x2839 PUSH2 0x27FD JUMP JUMPDEST PUSH1 0x40 MLOAD PUSH1 0x1F DUP3 ADD PUSH1 0x1F NOT SWAP1 DUP2 AND PUSH1 0x3F ADD AND DUP2 ADD PUSH1 0x1 PUSH1 0x1 PUSH1 0x40 SHL SUB DUP2 GT DUP3 DUP3 LT OR ISZERO PUSH2 0x2867 JUMPI PUSH2 0x2867 PUSH2 0x27FD JUMP JUMPDEST PUSH1 0x40 MSTORE DUP2 DUP2 MSTORE DUP4 DUP3 ADD PUSH1 0x20 ADD DUP6 LT ISZERO PUSH2 0x287E JUMPI PUSH0 PUSH0 REVERT JUMPDEST DUP2 PUSH1 0x20 DUP6 ADD PUSH1 0x20 DUP4 ADD CALLDATACOPY PUSH0 SWAP2 DUP2 ADD PUSH1 0x20 ADD SWAP2 SWAP1 SWAP2 MSTORE SWAP4 SWAP3 POP POP POP JUMP JUMPDEST PUSH0 PUSH0 PUSH0 PUSH0 PUSH1 0x80 DUP6 DUP8 SUB SLT ISZERO PUSH2 0x28AD JUMPI PUSH0 PUSH0 REVERT JUMPDEST DUP5 CALLDATALOAD PUSH1 0x1 PUSH1 0x1 PUSH1 0x40 SHL SUB DUP2 GT ISZERO PUSH2 0x28C2 JUMPI PUSH0 PUSH0 REVERT JUMPDEST PUSH2 0x28CE DUP8 DUP3 DUP9 ADD PUSH2 0x2811 JUMP JUMPDEST SWAP5 POP POP PUSH1 0x20 DUP6 ADD CALLDATALOAD PUSH1 0x1 PUSH1 0x1 PUSH1 0x40 SHL SUB DUP2 GT ISZERO PUSH2 0x28E9 JUMPI PUSH0 PUSH0 REVERT JUMPDEST PUSH2 0x28F5 DUP8 DUP3 DUP9 ADD PUSH2 0x2811 JUMP JUMPDEST SWAP4 POP POP PUSH1 0x40 DUP6 ADD CALLDATALOAD PUSH1 0x1 PUSH1 0x1 PUSH1 0x40 SHL SUB DUP2 GT ISZERO PUSH2 0x2910 JUMPI PUSH0 PUSH0 REVERT JUMPDEST PUSH2 0x291C DUP8 DUP3 DUP9 ADD PUSH2 0x2811 JUMP JUMPDEST SWAP5 SWAP8 SWAP4 SWAP7 POP SWAP4 SWAP5 PUSH1 0x60 ADD CALLDATALOAD SWAP4 POP POP POP JUMP JUMPDEST PUSH0 PUSH0 PUSH0 PUSH1 0x60 DUP5 DUP7 SUB SLT ISZERO PUSH2 0x293F JUMPI PUSH0 PUSH0 REVERT JUMPDEST PUSH2 0x2948 DUP5 PUSH2 0x23E0 JUMP JUMPDEST SWAP6 PUSH1 0x20 DUP6 ADD CALLDATALOAD SWAP6 POP PUSH1 0x40 SWAP1 SWAP5 ADD CALLDATALOAD SWAP4 SWAP3 POP POP POP JUMP JUMPDEST PUSH1 0x20 DUP1 DUP3 MSTORE DUP3 MLOAD DUP3 DUP3 ADD DUP2 SWAP1 MSTORE PUSH0 SWAP2 DUP5 ADD SWAP1 PUSH1 0x40 DUP5 ADD SWAP1 DUP4 JUMPDEST DUP2 DUP2 LT ISZERO PUSH2 0x27F2 JUMPI DUP4 MLOAD DUP1 MLOAD DUP5 MSTORE PUSH1 0x20 DUP2 ADD MLOAD ISZERO ISZERO PUSH1 0x20 DUP6 ADD MSTORE PUSH1 0x40 DUP2 ADD MLOAD PUSH1 0x40 DUP6 ADD MSTORE PUSH1 0x60 DUP2 ADD MLOAD PUSH1 0x60 DUP6 ADD MSTORE POP PUSH1 0x80 DUP4 ADD SWAP3 POP PUSH1 0x20 DUP5 ADD SWAP4 POP PUSH1 0x1 DUP2 ADD SWAP1 POP PUSH2 0x2976 JUMP JUMPDEST PUSH2 0x120 DUP2 MSTORE PUSH0 PUSH2 0x29D0 PUSH2 0x120 DUP4 ADD DUP13 PUSH2 0x24B7 JUMP JUMPDEST DUP11 PUSH1 0x20 DUP5 ADD MSTORE PUSH2 0x29E3 PUSH1 0x40 DUP5 ADD DUP12 PUSH2 0x24F9 JUMP JUMPDEST DUP3 DUP2 SUB PUSH1 0x60 DUP5 ADD MSTORE PUSH2 0x29F5 DUP2 DUP11 PUSH2 0x24B7 JUMP JUMPDEST SWAP1 POP DUP3 DUP2 SUB PUSH1 0x80 DUP5 ADD MSTORE PUSH2 0x2A09 DUP2 DUP10 PUSH2 0x24B7 JUMP JUMPDEST PUSH1 0xA0 DUP5 ADD SWAP8 SWAP1 SWAP8 MSTORE POP POP PUSH1 0xC0 DUP2 ADD SWAP4 SWAP1 SWAP4 MSTORE SWAP1 ISZERO ISZERO PUSH1 0xE0 DUP4 ADD MSTORE PUSH2 0x100 SWAP1 SWAP2 ADD MSTORE SWAP6 SWAP5 POP POP POP POP POP JUMP JUMPDEST PUSH0 PUSH0 PUSH1 0x40 DUP4 DUP6 SUB SLT ISZERO PUSH2 0x2A44 JUMPI PUSH0 PUSH0 REVERT JUMPDEST DUP3 CALLDATALOAD SWAP2 POP PUSH1 0x20 DUP4 ADD CALLDATALOAD PUSH1 0x3 DUP2 LT PUSH2 0x2A59 JUMPI PUSH0 PUSH0 REVERT JUMPDEST DUP1 SWAP2 POP POP SWAP3 POP SWAP3 SWAP1 POP JUMP JUMPDEST PUSH0 PUSH0 PUSH1 0x40 DUP4 DUP6 SUB SLT ISZERO PUSH2 0x2A75 JUMPI PUSH0 PUSH0 REVERT JUMPDEST PUSH2 0x2A7E DUP4 PUSH2 0x23E0 JUMP JUMPDEST SWAP5 PUSH1 0x20 SWAP4 SWAP1 SWAP4 ADD CALLDATALOAD SWAP4 POP POP POP JUMP JUMPDEST PUSH1 0x20 DUP1 DUP3 MSTORE PUSH1 0x21 SWAP1 DUP3 ADD MSTORE PUSH32 0x4E6F7420617574686F72697A656420746F207265736F6C7665206D61726B6574 PUSH1 0x40 DUP3 ADD MSTORE PUSH1 0x73 PUSH1 0xF8 SHL PUSH1 0x60 DUP3 ADD MSTORE PUSH1 0x80 ADD SWAP1 JUMP JUMPDEST PUSH4 0x4E487B71 PUSH1 0xE0 SHL PUSH0 MSTORE PUSH1 0x11 PUSH1 0x4 MSTORE PUSH1 0x24 PUSH0 REVERT JUMPDEST DUP1 DUP3 ADD DUP1 DUP3 GT ISZERO PUSH2 0x60F JUMPI PUSH2 0x60F PUSH2 0x2ACD JUMP JUMPDEST DUP1 DUP3 MUL DUP2 ISZERO DUP3 DUP3 DIV DUP5 EQ OR PUSH2 0x60F JUMPI PUSH2 0x60F PUSH2 0x2ACD JUMP JUMPDEST PUSH0 DUP3 PUSH2 0x2B25 JUMPI PUSH4 0x4E487B71 PUSH1 0xE0 SHL PUSH0 MSTORE PUSH1 0x12 PUSH1 0x4 MSTORE PUSH1 0x24 PUSH0 REVERT JUMPDEST POP DIV SWAP1 JUMP JUMPDEST PUSH4 0x4E487B71 PUSH1 0xE0 SHL PUSH0 MSTORE PUSH1 0x32 PUSH1 0x4 MSTORE PUSH1 0x24 PUSH0 REVERT JUMPDEST PUSH0 PUSH1 0x20 DUP3 DUP5 SUB SLT ISZERO PUSH2 0x2B4E JUMPI PUSH0 PUSH0 REVERT JUMPDEST DUP2 MLOAD PUSH2 0x23D9 DUP2 PUSH2 0x2475 JUMP JUMPDEST PUSH1 0x1 DUP2 DUP2 SHR SWAP1 DUP3 AND DUP1 PUSH2 0x2B6D JUMPI PUSH1 0x7F DUP3 AND SWAP2 POP JUMPDEST PUSH1 0x20 DUP3 LT DUP2 SUB PUSH2 0x2B8B JUMPI PUSH4 0x4E487B71 PUSH1 0xE0 SHL PUSH0 MSTORE PUSH1 0x22 PUSH1 0x4 MSTORE PUSH1 0x24 PUSH0 REVERT JUMPDEST POP SWAP2 SWAP1 POP JUMP JUMPDEST DUP2 DUP2 SUB DUP2 DUP2 GT ISZERO PUSH2 0x60F JUMPI PUSH2 0x60F PUSH2 0x2ACD JUMP JUMPDEST PUSH0 PUSH1 0x1 DUP3 ADD PUSH2 0x2BB5 JUMPI PUSH2 0x2BB5 PUSH2 0x2ACD JUMP JUMPDEST POP PUSH1 0x1 ADD SWAP1 JUMP JUMPDEST PUSH1 0x1F DUP3 GT ISZERO PUSH2 0xB95 JUMPI DUP1 PUSH0 MSTORE PUSH1 0x20 PUSH0 KECCAK256 PUSH1 0x1F DUP5 ADD PUSH1 0x5 SHR DUP2 ADD PUSH1 0x20 DUP6 LT ISZERO PUSH2 0x2BE1 JUMPI POP DUP1 JUMPDEST PUSH1 0x1F DUP5 ADD PUSH1 0x5 SHR DUP3 ADD SWAP2 POP JUMPDEST DUP2 DUP2 LT ISZERO PUSH2 0x2C00 JUMPI PUSH0 DUP2 SSTORE PUSH1 0x1 ADD PUSH2 0x2BED JUMP JUMPDEST POP POP POP POP POP JUMP JUMPDEST DUP2 MLOAD PUSH1 0x1 PUSH1 0x1 PUSH1 0x40 SHL SUB DUP2 GT ISZERO PUSH2 0x2C20 JUMPI PUSH2 0x2C20 PUSH2 0x27FD JUMP JUMPDEST PUSH2 0x2C34 DUP2 PUSH2 0x2C2E DUP5 SLOAD PUSH2 0x2B59 JUMP JUMPDEST DUP5 PUSH2 0x2BBC JUMP JUMPDEST PUSH1 0x20 PUSH1 0x1F DUP3 GT PUSH1 0x1 DUP2 EQ PUSH2 0x2C66 JUMPI PUSH0 DUP4 ISZERO PUSH2 0x2C4F JUMPI POP DUP5 DUP3 ADD MLOAD JUMPDEST PUSH0 NOT PUSH1 0x3 DUP6 SWAP1 SHL SHR NOT AND PUSH1 0x1 DUP5 SWAP1 SHL OR DUP5 SSTORE PUSH2 0x2C00 JUMP JUMPDEST PUSH0 DUP5 DUP2 MSTORE PUSH1 0x20 DUP2 KECCAK256 PUSH1 0x1F NOT DUP6 AND SWAP2 JUMPDEST DUP3 DUP2 LT ISZERO PUSH2 0x2C95 JUMPI DUP8 DUP6 ADD MLOAD DUP3 SSTORE PUSH1 0x20 SWAP5 DUP6 ADD SWAP5 PUSH1 0x1 SWAP1 SWAP3 ADD SWAP2 ADD PUSH2 0x2C75 JUMP JUMPDEST POP DUP5 DUP3 LT ISZERO PUSH2 0x2CB2 JUMPI DUP7 DUP5 ADD MLOAD PUSH0 NOT PUSH1 0x3 DUP8 SWAP1 SHL PUSH1 0xF8 AND SHR NOT AND DUP2 SSTORE JUMPDEST POP POP POP POP PUSH1 0x1 SWAP1 DUP2 SHL ADD SWAP1 SSTORE POP JUMP JUMPDEST PUSH1 0x80 DUP2 MSTORE PUSH0 PUSH2 0x2CD3 PUSH1 0x80 DUP4 ADD DUP8 PUSH2 0x24B7 JUMP JUMPDEST DUP3 DUP2 SUB PUSH1 0x20 DUP5 ADD MSTORE PUSH2 0x2CE5 DUP2 DUP8 PUSH2 0x24B7 JUMP JUMPDEST SWAP1 POP DUP3 DUP2 SUB PUSH1 0x40 DUP5 ADD MSTORE PUSH2 0x2CF9 DUP2 DUP7 PUSH2 0x24B7 JUMP JUMPDEST SWAP2 POP POP DUP3 PUSH1 0x60 DUP4 ADD MSTORE SWAP6 SWAP5 POP POP POP POP POP JUMP JUMPDEST PUSH1 0x80 DUP2 ADD PUSH2 0x2D19 DUP3 DUP8 PUSH2 0x24F9 JUMP JUMPDEST DUP5 PUSH1 0x20 DUP4 ADD MSTORE DUP4 PUSH1 0x40 DUP4 ADD MSTORE DUP3 PUSH1 0x60 DUP4 ADD MSTORE SWAP6 SWAP5 POP POP POP POP POP JUMP INVALID 0xDC RETURNCONTRACT 0x1D CALLDATALOAD 0xC8 GASPRICE ORIGIN 0xB4 CALLDATASIZE 0x26 BLOBBASEFEE TLOAD SWAP11 REVERT PUSH9 0x685C124F3F9097E878 DIV 0xC5 SLOAD LT DUPN 0x7F 0xC5 SWAP11 LOG2 PUSH5 0x6970667358 0x22 SLT KECCAK256 SLOAD 0xD9 EXTCODESIZE OR 0xBC SHL PUSH17 0x57208E2D69D5897EC7FDB734E2BACF500B SWAP2 MSTORE POP SLOAD PUSH1 0xA6 0xA9 PUSH0 PUSH5 0x736F6C6343 STOP ADDMOD 0x1E STOP CALLER "
				},
				"gasEstimates": {
					"creation": {
						"codeDepositCost": "2331600",
						"executionCost": "infinite",
						"totalCost": "infinite"
					},
					"external": {
						"DEFAULT_ADMIN_ROLE()": "238",
						"QUESTION_CREATOR_ROLE()": "239",
						"QUESTION_RESOLVE_ROLE()": "infinite",
						"allParticipants(uint256)": "4702",
						"bettingToken()": "2403",
						"buyShares(uint256,bool,uint256)": "infinite",
						"createMarket(string,string,string,uint256)": "infinite",
						"distributeWinningsBatch(uint256,uint256)": "infinite",
						"getAllParticipantsCount()": "2337",
						"getBettingToken()": "2420",
						"getLeaderboard(uint256,uint256)": "infinite",
						"getMarketCount()": "2423",
						"getMarketInfo(uint256)": "infinite",
						"getMarketInfoBatch(uint256[])": "infinite",
						"getRoleAdmin(bytes32)": "2509",
						"getShareBalance(uint256,address)": "4911",
						"getUserClaimedStatus(uint256,address)": "2758",
						"getVoteHistory(address,uint256,uint256)": "infinite",
						"getVoteHistoryCount(address)": "2623",
						"grantQuestionCreatorRole(address)": "infinite",
						"grantQuestionResolveRole(address)": "infinite",
						"grantRole(bytes32,address)": "infinite",
						"hasRole(bytes32,address)": "2783",
						"marketCount()": "2360",
						"markets(uint256)": "infinite",
						"owner()": "2418",
						"renounceOwnership()": "infinite",
						"renounceRole(bytes32,address)": "29113",
						"resolveMarket(uint256,uint8)": "infinite",
						"revokeRole(bytes32,address)": "infinite",
						"supportsInterface(bytes4)": "470",
						"totalSharesPurchased(address)": "2605",
						"totalWinnings(address)": "2583",
						"transferOwnership(address)": "28417",
						"voteHistory(address,uint256)": "11262"
					},
					"internal": {
						"_canSetOwner()": "infinite"
					}
				},
				"methodIdentifiers": {
					"DEFAULT_ADMIN_ROLE()": "a217fddf",
					"QUESTION_CREATOR_ROLE()": "77b4a3e7",
					"QUESTION_RESOLVE_ROLE()": "755f0629",
					"allParticipants(uint256)": "05e33dd0",
					"bettingToken()": "43425e88",
					"buyShares(uint256,bool,uint256)": "39b46372",
					"createMarket(string,string,string,uint256)": "76e00406",
					"distributeWinningsBatch(uint256,uint256)": "0c6650b2",
					"getAllParticipantsCount()": "3260ac90",
					"getBettingToken()": "29cf655b",
					"getLeaderboard(uint256,uint256)": "73af16fc",
					"getMarketCount()": "fd69f3c2",
					"getMarketInfo(uint256)": "3ec79193",
					"getMarketInfoBatch(uint256[])": "5e919f7c",
					"getRoleAdmin(bytes32)": "248a9ca3",
					"getShareBalance(uint256,address)": "0391f64c",
					"getUserClaimedStatus(uint256,address)": "0b5a9a62",
					"getVoteHistory(address,uint256,uint256)": "8e1cc87b",
					"getVoteHistoryCount(address)": "5e3dd526",
					"grantQuestionCreatorRole(address)": "6db3b4dc",
					"grantQuestionResolveRole(address)": "35037e0b",
					"grantRole(bytes32,address)": "2f2ff15d",
					"hasRole(bytes32,address)": "91d14854",
					"marketCount()": "ec979082",
					"markets(uint256)": "b1283e77",
					"owner()": "8da5cb5b",
					"renounceOwnership()": "715018a6",
					"renounceRole(bytes32,address)": "36568abe",
					"resolveMarket(uint256,uint8)": "df55406e",
					"revokeRole(bytes32,address)": "d547741f",
					"supportsInterface(bytes4)": "01ffc9a7",
					"totalSharesPurchased(address)": "b47574ea",
					"totalWinnings(address)": "8b8840e0",
					"transferOwnership(address)": "f2fde38b",
					"voteHistory(address,uint256)": "faa62253"
				}
			},
			"storageLayout": {
				"storage": [
					{
						"astId": 388,
						"contract": "v1.sol:PolicastMarket",
						"label": "_owner",
						"offset": 0,
						"slot": "0",
						"type": "t_address"
					},
					{
						"astId": 646,
						"contract": "v1.sol:PolicastMarket",
						"label": "_status",
						"offset": 0,
						"slot": "1",
						"type": "t_uint256"
					},
					{
						"astId": 27,
						"contract": "v1.sol:PolicastMarket",
						"label": "_roles",
						"offset": 0,
						"slot": "2",
						"type": "t_mapping(t_bytes32,t_struct(RoleData)22_storage)"
					},
					{
						"astId": 824,
						"contract": "v1.sol:PolicastMarket",
						"label": "bettingToken",
						"offset": 0,
						"slot": "3",
						"type": "t_contract(IERC20)605"
					},
					{
						"astId": 826,
						"contract": "v1.sol:PolicastMarket",
						"label": "marketCount",
						"offset": 0,
						"slot": "4",
						"type": "t_uint256"
					},
					{
						"astId": 831,
						"contract": "v1.sol:PolicastMarket",
						"label": "markets",
						"offset": 0,
						"slot": "5",
						"type": "t_mapping(t_uint256,t_struct(Market)805_storage)"
					},
					{
						"astId": 835,
						"contract": "v1.sol:PolicastMarket",
						"label": "totalSharesPurchased",
						"offset": 0,
						"slot": "6",
						"type": "t_mapping(t_address,t_uint256)"
					},
					{
						"astId": 839,
						"contract": "v1.sol:PolicastMarket",
						"label": "totalWinnings",
						"offset": 0,
						"slot": "7",
						"type": "t_mapping(t_address,t_uint256)"
					},
					{
						"astId": 845,
						"contract": "v1.sol:PolicastMarket",
						"label": "voteHistory",
						"offset": 0,
						"slot": "8",
						"type": "t_mapping(t_address,t_array(t_struct(Vote)814_storage)dyn_storage)"
					},
					{
						"astId": 848,
						"contract": "v1.sol:PolicastMarket",
						"label": "allParticipants",
						"offset": 0,
						"slot": "9",
						"type": "t_array(t_address)dyn_storage"
					}
				],
				"types": {
					"t_address": {
						"encoding": "inplace",
						"label": "address",
						"numberOfBytes": "20"
					},
					"t_array(t_address)dyn_storage": {
						"base": "t_address",
						"encoding": "dynamic_array",
						"label": "address[]",
						"numberOfBytes": "32"
					},
					"t_array(t_struct(Vote)814_storage)dyn_storage": {
						"base": "t_struct(Vote)814_storage",
						"encoding": "dynamic_array",
						"label": "struct PolicastMarket.Vote[]",
						"numberOfBytes": "32"
					},
					"t_bool": {
						"encoding": "inplace",
						"label": "bool",
						"numberOfBytes": "1"
					},
					"t_bytes32": {
						"encoding": "inplace",
						"label": "bytes32",
						"numberOfBytes": "32"
					},
					"t_contract(IERC20)605": {
						"encoding": "inplace",
						"label": "contract IERC20",
						"numberOfBytes": "20"
					},
					"t_enum(MarketOutcome)770": {
						"encoding": "inplace",
						"label": "enum PolicastMarket.MarketOutcome",
						"numberOfBytes": "1"
					},
					"t_mapping(t_address,t_array(t_struct(Vote)814_storage)dyn_storage)": {
						"encoding": "mapping",
						"key": "t_address",
						"label": "mapping(address => struct PolicastMarket.Vote[])",
						"numberOfBytes": "32",
						"value": "t_array(t_struct(Vote)814_storage)dyn_storage"
					},
					"t_mapping(t_address,t_bool)": {
						"encoding": "mapping",
						"key": "t_address",
						"label": "mapping(address => bool)",
						"numberOfBytes": "32",
						"value": "t_bool"
					},
					"t_mapping(t_address,t_uint256)": {
						"encoding": "mapping",
						"key": "t_address",
						"label": "mapping(address => uint256)",
						"numberOfBytes": "32",
						"value": "t_uint256"
					},
					"t_mapping(t_bytes32,t_struct(RoleData)22_storage)": {
						"encoding": "mapping",
						"key": "t_bytes32",
						"label": "mapping(bytes32 => struct AccessControl.RoleData)",
						"numberOfBytes": "32",
						"value": "t_struct(RoleData)22_storage"
					},
					"t_mapping(t_uint256,t_struct(Market)805_storage)": {
						"encoding": "mapping",
						"key": "t_uint256",
						"label": "mapping(uint256 => struct PolicastMarket.Market)",
						"numberOfBytes": "32",
						"value": "t_struct(Market)805_storage"
					},
					"t_string_storage": {
						"encoding": "bytes",
						"label": "string",
						"numberOfBytes": "32"
					},
					"t_struct(Market)805_storage": {
						"encoding": "inplace",
						"label": "struct PolicastMarket.Market",
						"members": [
							{
								"astId": 772,
								"contract": "v1.sol:PolicastMarket",
								"label": "question",
								"offset": 0,
								"slot": "0",
								"type": "t_string_storage"
							},
							{
								"astId": 774,
								"contract": "v1.sol:PolicastMarket",
								"label": "endTime",
								"offset": 0,
								"slot": "1",
								"type": "t_uint256"
							},
							{
								"astId": 777,
								"contract": "v1.sol:PolicastMarket",
								"label": "outcome",
								"offset": 0,
								"slot": "2",
								"type": "t_enum(MarketOutcome)770"
							},
							{
								"astId": 779,
								"contract": "v1.sol:PolicastMarket",
								"label": "optionA",
								"offset": 0,
								"slot": "3",
								"type": "t_string_storage"
							},
							{
								"astId": 781,
								"contract": "v1.sol:PolicastMarket",
								"label": "optionB",
								"offset": 0,
								"slot": "4",
								"type": "t_string_storage"
							},
							{
								"astId": 783,
								"contract": "v1.sol:PolicastMarket",
								"label": "totalOptionAShares",
								"offset": 0,
								"slot": "5",
								"type": "t_uint256"
							},
							{
								"astId": 785,
								"contract": "v1.sol:PolicastMarket",
								"label": "totalOptionBShares",
								"offset": 0,
								"slot": "6",
								"type": "t_uint256"
							},
							{
								"astId": 787,
								"contract": "v1.sol:PolicastMarket",
								"label": "resolved",
								"offset": 0,
								"slot": "7",
								"type": "t_bool"
							},
							{
								"astId": 791,
								"contract": "v1.sol:PolicastMarket",
								"label": "optionASharesBalance",
								"offset": 0,
								"slot": "8",
								"type": "t_mapping(t_address,t_uint256)"
							},
							{
								"astId": 795,
								"contract": "v1.sol:PolicastMarket",
								"label": "optionBSharesBalance",
								"offset": 0,
								"slot": "9",
								"type": "t_mapping(t_address,t_uint256)"
							},
							{
								"astId": 799,
								"contract": "v1.sol:PolicastMarket",
								"label": "hasClaimed",
								"offset": 0,
								"slot": "10",
								"type": "t_mapping(t_address,t_bool)"
							},
							{
								"astId": 802,
								"contract": "v1.sol:PolicastMarket",
								"label": "participants",
								"offset": 0,
								"slot": "11",
								"type": "t_array(t_address)dyn_storage"
							},
							{
								"astId": 804,
								"contract": "v1.sol:PolicastMarket",
								"label": "payoutIndex",
								"offset": 0,
								"slot": "12",
								"type": "t_uint256"
							}
						],
						"numberOfBytes": "416"
					},
					"t_struct(RoleData)22_storage": {
						"encoding": "inplace",
						"label": "struct AccessControl.RoleData",
						"members": [
							{
								"astId": 19,
								"contract": "v1.sol:PolicastMarket",
								"label": "hasRole",
								"offset": 0,
								"slot": "0",
								"type": "t_mapping(t_address,t_bool)"
							},
							{
								"astId": 21,
								"contract": "v1.sol:PolicastMarket",
								"label": "adminRole",
								"offset": 0,
								"slot": "1",
								"type": "t_bytes32"
							}
						],
						"numberOfBytes": "64"
					},
					"t_struct(Vote)814_storage": {
						"encoding": "inplace",
						"label": "struct PolicastMarket.Vote",
						"members": [
							{
								"astId": 807,
								"contract": "v1.sol:PolicastMarket",
								"label": "marketId",
								"offset": 0,
								"slot": "0",
								"type": "t_uint256"
							},
							{
								"astId": 809,
								"contract": "v1.sol:PolicastMarket",
								"label": "isOptionA",
								"offset": 0,
								"slot": "1",
								"type": "t_bool"
							},
							{
								"astId": 811,
								"contract": "v1.sol:PolicastMarket",
								"label": "amount",
								"offset": 0,
								"slot": "2",
								"type": "t_uint256"
							},
							{
								"astId": 813,
								"contract": "v1.sol:PolicastMarket",
								"label": "timestamp",
								"offset": 0,
								"slot": "3",
								"type": "t_uint256"
							}
						],
						"numberOfBytes": "128"
					},
					"t_uint256": {
						"encoding": "inplace",
						"label": "uint256",
						"numberOfBytes": "32"
					}
				}
			},
			"userdoc": {
				"kind": "user",
				"methods": {},
				"version": 1
			}
		}
	}
}