{
	"v2.sol": {
		"PolicastMarketV2": {
			"abi": [
				{
					"inputs": [
						{
							"internalType": "address",
							"name": "_bettingToken",
							"type": "address"
						}
					],
					"stateMutability": "nonpayable",
					"type": "constructor"
				},
				{
					"inputs": [],
					"name": "AccessControlBadConfirmation",
					"type": "error"
				},
				{
					"inputs": [
						{
							"internalType": "address",
							"name": "account",
							"type": "address"
						},
						{
							"internalType": "bytes32",
							"name": "neededRole",
							"type": "bytes32"
						}
					],
					"name": "AccessControlUnauthorizedAccount",
					"type": "error"
				},
				{
					"inputs": [],
					"name": "EnforcedPause",
					"type": "error"
				},
				{
					"inputs": [],
					"name": "ExpectedPause",
					"type": "error"
				},
				{
					"inputs": [
						{
							"internalType": "address",
							"name": "owner",
							"type": "address"
						}
					],
					"name": "OwnableInvalidOwner",
					"type": "error"
				},
				{
					"inputs": [
						{
							"internalType": "address",
							"name": "account",
							"type": "address"
						}
					],
					"name": "OwnableUnauthorizedAccount",
					"type": "error"
				},
				{
					"inputs": [],
					"name": "ReentrancyGuardReentrantCall",
					"type": "error"
				},
				{
					"anonymous": false,
					"inputs": [
						{
							"indexed": true,
							"internalType": "uint256",
							"name": "marketId",
							"type": "uint256"
						},
						{
							"indexed": true,
							"internalType": "address",
							"name": "user",
							"type": "address"
						},
						{
							"indexed": false,
							"internalType": "uint256",
							"name": "amount",
							"type": "uint256"
						}
					],
					"name": "Claimed",
					"type": "event"
				},
				{
					"anonymous": false,
					"inputs": [
						{
							"indexed": true,
							"internalType": "uint256",
							"name": "marketId",
							"type": "uint256"
						},
						{
							"indexed": false,
							"internalType": "uint256",
							"name": "amount",
							"type": "uint256"
						}
					],
					"name": "FeeCollected",
					"type": "event"
				},
				{
					"anonymous": false,
					"inputs": [
						{
							"indexed": true,
							"internalType": "uint256",
							"name": "marketId",
							"type": "uint256"
						},
						{
							"indexed": false,
							"internalType": "string",
							"name": "question",
							"type": "string"
						},
						{
							"indexed": false,
							"internalType": "string[]",
							"name": "options",
							"type": "string[]"
						},
						{
							"indexed": false,
							"internalType": "uint256",
							"name": "endTime",
							"type": "uint256"
						},
						{
							"indexed": false,
							"internalType": "enum PolicastMarketV2.MarketCategory",
							"name": "category",
							"type": "uint8"
						},
						{
							"indexed": false,
							"internalType": "address",
							"name": "creator",
							"type": "address"
						}
					],
					"name": "MarketCreated",
					"type": "event"
				},
				{
					"anonymous": false,
					"inputs": [
						{
							"indexed": true,
							"internalType": "uint256",
							"name": "marketId",
							"type": "uint256"
						},
						{
							"indexed": false,
							"internalType": "address",
							"name": "disputer",
							"type": "address"
						},
						{
							"indexed": false,
							"internalType": "string",
							"name": "reason",
							"type": "string"
						}
					],
					"name": "MarketDisputed",
					"type": "event"
				},
				{
					"anonymous": false,
					"inputs": [
						{
							"indexed": true,
							"internalType": "uint256",
							"name": "marketId",
							"type": "uint256"
						},
						{
							"indexed": false,
							"internalType": "uint256",
							"name": "winningOptionId",
							"type": "uint256"
						},
						{
							"indexed": false,
							"internalType": "address",
							"name": "resolver",
							"type": "address"
						}
					],
					"name": "MarketResolved",
					"type": "event"
				},
				{
					"anonymous": false,
					"inputs": [
						{
							"indexed": true,
							"internalType": "uint256",
							"name": "marketId",
							"type": "uint256"
						},
						{
							"indexed": false,
							"internalType": "address",
							"name": "validator",
							"type": "address"
						}
					],
					"name": "MarketValidated",
					"type": "event"
				},
				{
					"anonymous": false,
					"inputs": [
						{
							"indexed": true,
							"internalType": "uint256",
							"name": "orderId",
							"type": "uint256"
						},
						{
							"indexed": false,
							"internalType": "address",
							"name": "maker",
							"type": "address"
						}
					],
					"name": "OrderCancelled",
					"type": "event"
				},
				{
					"anonymous": false,
					"inputs": [
						{
							"indexed": true,
							"internalType": "uint256",
							"name": "orderId",
							"type": "uint256"
						},
						{
							"indexed": true,
							"internalType": "uint256",
							"name": "marketId",
							"type": "uint256"
						},
						{
							"indexed": true,
							"internalType": "uint256",
							"name": "optionId",
							"type": "uint256"
						},
						{
							"indexed": false,
							"internalType": "address",
							"name": "maker",
							"type": "address"
						},
						{
							"indexed": false,
							"internalType": "enum PolicastMarketV2.OrderType",
							"name": "orderType",
							"type": "uint8"
						},
						{
							"indexed": false,
							"internalType": "enum PolicastMarketV2.OrderSide",
							"name": "side",
							"type": "uint8"
						},
						{
							"indexed": false,
							"internalType": "uint256",
							"name": "price",
							"type": "uint256"
						},
						{
							"indexed": false,
							"internalType": "uint256",
							"name": "quantity",
							"type": "uint256"
						}
					],
					"name": "OrderPlaced",
					"type": "event"
				},
				{
					"anonymous": false,
					"inputs": [
						{
							"indexed": true,
							"internalType": "address",
							"name": "previousOwner",
							"type": "address"
						},
						{
							"indexed": true,
							"internalType": "address",
							"name": "newOwner",
							"type": "address"
						}
					],
					"name": "OwnershipTransferred",
					"type": "event"
				},
				{
					"anonymous": false,
					"inputs": [
						{
							"indexed": false,
							"internalType": "address",
							"name": "account",
							"type": "address"
						}
					],
					"name": "Paused",
					"type": "event"
				},
				{
					"anonymous": false,
					"inputs": [
						{
							"indexed": true,
							"internalType": "bytes32",
							"name": "role",
							"type": "bytes32"
						},
						{
							"indexed": true,
							"internalType": "bytes32",
							"name": "previousAdminRole",
							"type": "bytes32"
						},
						{
							"indexed": true,
							"internalType": "bytes32",
							"name": "newAdminRole",
							"type": "bytes32"
						}
					],
					"name": "RoleAdminChanged",
					"type": "event"
				},
				{
					"anonymous": false,
					"inputs": [
						{
							"indexed": true,
							"internalType": "bytes32",
							"name": "role",
							"type": "bytes32"
						},
						{
							"indexed": true,
							"internalType": "address",
							"name": "account",
							"type": "address"
						},
						{
							"indexed": true,
							"internalType": "address",
							"name": "sender",
							"type": "address"
						}
					],
					"name": "RoleGranted",
					"type": "event"
				},
				{
					"anonymous": false,
					"inputs": [
						{
							"indexed": true,
							"internalType": "bytes32",
							"name": "role",
							"type": "bytes32"
						},
						{
							"indexed": true,
							"internalType": "address",
							"name": "account",
							"type": "address"
						},
						{
							"indexed": true,
							"internalType": "address",
							"name": "sender",
							"type": "address"
						}
					],
					"name": "RoleRevoked",
					"type": "event"
				},
				{
					"anonymous": false,
					"inputs": [
						{
							"indexed": true,
							"internalType": "uint256",
							"name": "marketId",
							"type": "uint256"
						},
						{
							"indexed": true,
							"internalType": "uint256",
							"name": "optionId",
							"type": "uint256"
						},
						{
							"indexed": true,
							"internalType": "address",
							"name": "seller",
							"type": "address"
						},
						{
							"indexed": false,
							"internalType": "uint256",
							"name": "quantity",
							"type": "uint256"
						},
						{
							"indexed": false,
							"internalType": "uint256",
							"name": "price",
							"type": "uint256"
						}
					],
					"name": "SharesSold",
					"type": "event"
				},
				{
					"anonymous": false,
					"inputs": [
						{
							"indexed": true,
							"internalType": "uint256",
							"name": "marketId",
							"type": "uint256"
						},
						{
							"indexed": true,
							"internalType": "uint256",
							"name": "optionId",
							"type": "uint256"
						},
						{
							"indexed": true,
							"internalType": "address",
							"name": "buyer",
							"type": "address"
						},
						{
							"indexed": false,
							"internalType": "address",
							"name": "seller",
							"type": "address"
						},
						{
							"indexed": false,
							"internalType": "uint256",
							"name": "price",
							"type": "uint256"
						},
						{
							"indexed": false,
							"internalType": "uint256",
							"name": "quantity",
							"type": "uint256"
						},
						{
							"indexed": false,
							"internalType": "uint256",
							"name": "tradeId",
							"type": "uint256"
						}
					],
					"name": "TradeExecuted",
					"type": "event"
				},
				{
					"anonymous": false,
					"inputs": [
						{
							"indexed": false,
							"internalType": "address",
							"name": "account",
							"type": "address"
						}
					],
					"name": "Unpaused",
					"type": "event"
				},
				{
					"inputs": [],
					"name": "DEFAULT_ADMIN_ROLE",
					"outputs": [
						{
							"internalType": "bytes32",
							"name": "",
							"type": "bytes32"
						}
					],
					"stateMutability": "view",
					"type": "function"
				},
				{
					"inputs": [],
					"name": "MARKET_VALIDATOR_ROLE",
					"outputs": [
						{
							"internalType": "bytes32",
							"name": "",
							"type": "bytes32"
						}
					],
					"stateMutability": "view",
					"type": "function"
				},
				{
					"inputs": [],
					"name": "MAX_MARKET_DURATION",
					"outputs": [
						{
							"internalType": "uint256",
							"name": "",
							"type": "uint256"
						}
					],
					"stateMutability": "view",
					"type": "function"
				},
				{
					"inputs": [],
					"name": "MAX_OPTIONS",
					"outputs": [
						{
							"internalType": "uint256",
							"name": "",
							"type": "uint256"
						}
					],
					"stateMutability": "view",
					"type": "function"
				},
				{
					"inputs": [],
					"name": "MIN_MARKET_DURATION",
					"outputs": [
						{
							"internalType": "uint256",
							"name": "",
							"type": "uint256"
						}
					],
					"stateMutability": "view",
					"type": "function"
				},
				{
					"inputs": [],
					"name": "QUESTION_CREATOR_ROLE",
					"outputs": [
						{
							"internalType": "bytes32",
							"name": "",
							"type": "bytes32"
						}
					],
					"stateMutability": "view",
					"type": "function"
				},
				{
					"inputs": [],
					"name": "QUESTION_RESOLVE_ROLE",
					"outputs": [
						{
							"internalType": "bytes32",
							"name": "",
							"type": "bytes32"
						}
					],
					"stateMutability": "view",
					"type": "function"
				},
				{
					"inputs": [
						{
							"internalType": "uint256",
							"name": "",
							"type": "uint256"
						}
					],
					"name": "allParticipants",
					"outputs": [
						{
							"internalType": "address",
							"name": "",
							"type": "address"
						}
					],
					"stateMutability": "view",
					"type": "function"
				},
				{
					"inputs": [],
					"name": "bettingToken",
					"outputs": [
						{
							"internalType": "contract IERC20",
							"name": "",
							"type": "address"
						}
					],
					"stateMutability": "view",
					"type": "function"
				},
				{
					"inputs": [
						{
							"internalType": "uint256",
							"name": "_marketId",
							"type": "uint256"
						},
						{
							"internalType": "uint256",
							"name": "_optionId",
							"type": "uint256"
						},
						{
							"internalType": "uint256",
							"name": "_quantity",
							"type": "uint256"
						},
						{
							"internalType": "uint256",
							"name": "_maxPricePerShare",
							"type": "uint256"
						}
					],
					"name": "buyShares",
					"outputs": [],
					"stateMutability": "nonpayable",
					"type": "function"
				},
				{
					"inputs": [
						{
							"internalType": "uint256",
							"name": "_marketId",
							"type": "uint256"
						},
						{
							"internalType": "uint256",
							"name": "_optionId",
							"type": "uint256"
						}
					],
					"name": "calculateCurrentPrice",
					"outputs": [
						{
							"internalType": "uint256",
							"name": "",
							"type": "uint256"
						}
					],
					"stateMutability": "view",
					"type": "function"
				},
				{
					"inputs": [
						{
							"internalType": "enum PolicastMarketV2.MarketCategory",
							"name": "",
							"type": "uint8"
						},
						{
							"internalType": "uint256",
							"name": "",
							"type": "uint256"
						}
					],
					"name": "categoryMarkets",
					"outputs": [
						{
							"internalType": "uint256",
							"name": "",
							"type": "uint256"
						}
					],
					"stateMutability": "view",
					"type": "function"
				},
				{
					"inputs": [
						{
							"internalType": "uint256",
							"name": "_marketId",
							"type": "uint256"
						}
					],
					"name": "claimWinnings",
					"outputs": [],
					"stateMutability": "nonpayable",
					"type": "function"
				},
				{
					"inputs": [
						{
							"internalType": "string",
							"name": "_question",
							"type": "string"
						},
						{
							"internalType": "string",
							"name": "_description",
							"type": "string"
						},
						{
							"internalType": "string[]",
							"name": "_optionNames",
							"type": "string[]"
						},
						{
							"internalType": "string[]",
							"name": "_optionDescriptions",
							"type": "string[]"
						},
						{
							"internalType": "uint256",
							"name": "_duration",
							"type": "uint256"
						},
						{
							"internalType": "enum PolicastMarketV2.MarketCategory",
							"name": "_category",
							"type": "uint8"
						}
					],
					"name": "createMarket",
					"outputs": [
						{
							"internalType": "uint256",
							"name": "",
							"type": "uint256"
						}
					],
					"stateMutability": "nonpayable",
					"type": "function"
				},
				{
					"inputs": [
						{
							"internalType": "uint256",
							"name": "_marketId",
							"type": "uint256"
						},
						{
							"internalType": "string",
							"name": "_reason",
							"type": "string"
						}
					],
					"name": "disputeMarket",
					"outputs": [],
					"stateMutability": "nonpayable",
					"type": "function"
				},
				{
					"inputs": [],
					"name": "getBettingToken",
					"outputs": [
						{
							"internalType": "address",
							"name": "",
							"type": "address"
						}
					],
					"stateMutability": "view",
					"type": "function"
				},
				{
					"inputs": [
						{
							"internalType": "uint256",
							"name": "_start",
							"type": "uint256"
						},
						{
							"internalType": "uint256",
							"name": "_limit",
							"type": "uint256"
						}
					],
					"name": "getLeaderboard",
					"outputs": [
						{
							"components": [
								{
									"internalType": "address",
									"name": "user",
									"type": "address"
								},
								{
									"internalType": "uint256",
									"name": "totalWinnings",
									"type": "uint256"
								},
								{
									"internalType": "uint256",
									"name": "totalVolume",
									"type": "uint256"
								},
								{
									"internalType": "uint256",
									"name": "winRate",
									"type": "uint256"
								},
								{
									"internalType": "uint256",
									"name": "tradeCount",
									"type": "uint256"
								}
							],
							"internalType": "struct PolicastMarketV2.LeaderboardEntry[]",
							"name": "",
							"type": "tuple[]"
						}
					],
					"stateMutability": "view",
					"type": "function"
				},
				{
					"inputs": [],
					"name": "getMarketCount",
					"outputs": [
						{
							"internalType": "uint256",
							"name": "",
							"type": "uint256"
						}
					],
					"stateMutability": "view",
					"type": "function"
				},
				{
					"inputs": [
						{
							"internalType": "uint256",
							"name": "_marketId",
							"type": "uint256"
						}
					],
					"name": "getMarketInfo",
					"outputs": [
						{
							"internalType": "string",
							"name": "question",
							"type": "string"
						},
						{
							"internalType": "string",
							"name": "description",
							"type": "string"
						},
						{
							"internalType": "uint256",
							"name": "endTime",
							"type": "uint256"
						},
						{
							"internalType": "enum PolicastMarketV2.MarketCategory",
							"name": "category",
							"type": "uint8"
						},
						{
							"internalType": "uint256",
							"name": "optionCount",
							"type": "uint256"
						},
						{
							"internalType": "bool",
							"name": "resolved",
							"type": "bool"
						},
						{
							"internalType": "bool",
							"name": "disputed",
							"type": "bool"
						},
						{
							"internalType": "uint256",
							"name": "winningOptionId",
							"type": "uint256"
						},
						{
							"internalType": "address",
							"name": "creator",
							"type": "address"
						}
					],
					"stateMutability": "view",
					"type": "function"
				},
				{
					"inputs": [
						{
							"internalType": "uint256",
							"name": "_marketId",
							"type": "uint256"
						},
						{
							"internalType": "uint256",
							"name": "_optionId",
							"type": "uint256"
						}
					],
					"name": "getMarketOption",
					"outputs": [
						{
							"internalType": "string",
							"name": "name",
							"type": "string"
						},
						{
							"internalType": "string",
							"name": "description",
							"type": "string"
						},
						{
							"internalType": "uint256",
							"name": "totalShares",
							"type": "uint256"
						},
						{
							"internalType": "uint256",
							"name": "totalVolume",
							"type": "uint256"
						},
						{
							"internalType": "uint256",
							"name": "currentPrice",
							"type": "uint256"
						},
						{
							"internalType": "bool",
							"name": "isActive",
							"type": "bool"
						}
					],
					"stateMutability": "view",
					"type": "function"
				},
				{
					"inputs": [
						{
							"internalType": "uint256",
							"name": "_marketId",
							"type": "uint256"
						}
					],
					"name": "getMarketStats",
					"outputs": [
						{
							"components": [
								{
									"internalType": "uint256",
									"name": "totalVolume",
									"type": "uint256"
								},
								{
									"internalType": "uint256",
									"name": "participantCount",
									"type": "uint256"
								},
								{
									"internalType": "uint256",
									"name": "averagePrice",
									"type": "uint256"
								},
								{
									"internalType": "uint256",
									"name": "priceVolatility",
									"type": "uint256"
								},
								{
									"internalType": "uint256",
									"name": "lastTradePrice",
									"type": "uint256"
								},
								{
									"internalType": "uint256",
									"name": "lastTradeTime",
									"type": "uint256"
								}
							],
							"internalType": "struct PolicastMarketV2.MarketStats",
							"name": "",
							"type": "tuple"
						}
					],
					"stateMutability": "view",
					"type": "function"
				},
				{
					"inputs": [
						{
							"internalType": "enum PolicastMarketV2.MarketCategory",
							"name": "_category",
							"type": "uint8"
						},
						{
							"internalType": "uint256",
							"name": "_limit",
							"type": "uint256"
						}
					],
					"name": "getMarketsByCategory",
					"outputs": [
						{
							"internalType": "uint256[]",
							"name": "",
							"type": "uint256[]"
						}
					],
					"stateMutability": "view",
					"type": "function"
				},
				{
					"inputs": [
						{
							"internalType": "uint256",
							"name": "_marketId",
							"type": "uint256"
						},
						{
							"internalType": "uint256",
							"name": "_optionId",
							"type": "uint256"
						},
						{
							"internalType": "uint256",
							"name": "_limit",
							"type": "uint256"
						}
					],
					"name": "getPriceHistory",
					"outputs": [
						{
							"components": [
								{
									"internalType": "uint256",
									"name": "price",
									"type": "uint256"
								},
								{
									"internalType": "uint256",
									"name": "timestamp",
									"type": "uint256"
								},
								{
									"internalType": "uint256",
									"name": "volume",
									"type": "uint256"
								}
							],
							"internalType": "struct PolicastMarketV2.PricePoint[]",
							"name": "",
							"type": "tuple[]"
						}
					],
					"stateMutability": "view",
					"type": "function"
				},
				{
					"inputs": [
						{
							"internalType": "bytes32",
							"name": "role",
							"type": "bytes32"
						}
					],
					"name": "getRoleAdmin",
					"outputs": [
						{
							"internalType": "bytes32",
							"name": "",
							"type": "bytes32"
						}
					],
					"stateMutability": "view",
					"type": "function"
				},
				{
					"inputs": [
						{
							"internalType": "address",
							"name": "_user",
							"type": "address"
						}
					],
					"name": "getUserPortfolio",
					"outputs": [
						{
							"components": [
								{
									"internalType": "uint256",
									"name": "totalInvested",
									"type": "uint256"
								},
								{
									"internalType": "uint256",
									"name": "totalWinnings",
									"type": "uint256"
								},
								{
									"internalType": "int256",
									"name": "unrealizedPnL",
									"type": "int256"
								},
								{
									"internalType": "int256",
									"name": "realizedPnL",
									"type": "int256"
								},
								{
									"internalType": "uint256",
									"name": "tradeCount",
									"type": "uint256"
								}
							],
							"internalType": "struct PolicastMarketV2.UserPortfolio",
							"name": "",
							"type": "tuple"
						}
					],
					"stateMutability": "view",
					"type": "function"
				},
				{
					"inputs": [
						{
							"internalType": "uint256",
							"name": "_marketId",
							"type": "uint256"
						},
						{
							"internalType": "address",
							"name": "_user",
							"type": "address"
						}
					],
					"name": "getUserShares",
					"outputs": [
						{
							"internalType": "uint256[]",
							"name": "",
							"type": "uint256[]"
						}
					],
					"stateMutability": "view",
					"type": "function"
				},
				{
					"inputs": [
						{
							"internalType": "address",
							"name": "_account",
							"type": "address"
						}
					],
					"name": "grantMarketValidatorRole",
					"outputs": [],
					"stateMutability": "nonpayable",
					"type": "function"
				},
				{
					"inputs": [
						{
							"internalType": "address",
							"name": "_account",
							"type": "address"
						}
					],
					"name": "grantQuestionCreatorRole",
					"outputs": [],
					"stateMutability": "nonpayable",
					"type": "function"
				},
				{
					"inputs": [
						{
							"internalType": "address",
							"name": "_account",
							"type": "address"
						}
					],
					"name": "grantQuestionResolveRole",
					"outputs": [],
					"stateMutability": "nonpayable",
					"type": "function"
				},
				{
					"inputs": [
						{
							"internalType": "bytes32",
							"name": "role",
							"type": "bytes32"
						},
						{
							"internalType": "address",
							"name": "account",
							"type": "address"
						}
					],
					"name": "grantRole",
					"outputs": [],
					"stateMutability": "nonpayable",
					"type": "function"
				},
				{
					"inputs": [
						{
							"internalType": "bytes32",
							"name": "role",
							"type": "bytes32"
						},
						{
							"internalType": "address",
							"name": "account",
							"type": "address"
						}
					],
					"name": "hasRole",
					"outputs": [
						{
							"internalType": "bool",
							"name": "",
							"type": "bool"
						}
					],
					"stateMutability": "view",
					"type": "function"
				},
				{
					"inputs": [],
					"name": "marketCount",
					"outputs": [
						{
							"internalType": "uint256",
							"name": "",
							"type": "uint256"
						}
					],
					"stateMutability": "view",
					"type": "function"
				},
				{
					"inputs": [
						{
							"internalType": "uint256",
							"name": "",
							"type": "uint256"
						},
						{
							"internalType": "uint256",
							"name": "",
							"type": "uint256"
						}
					],
					"name": "marketOrderBook",
					"outputs": [
						{
							"internalType": "uint256",
							"name": "",
							"type": "uint256"
						}
					],
					"stateMutability": "view",
					"type": "function"
				},
				{
					"inputs": [
						{
							"internalType": "uint256",
							"name": "",
							"type": "uint256"
						},
						{
							"internalType": "uint256",
							"name": "",
							"type": "uint256"
						}
					],
					"name": "marketTrades",
					"outputs": [
						{
							"internalType": "uint256",
							"name": "marketId",
							"type": "uint256"
						},
						{
							"internalType": "uint256",
							"name": "optionId",
							"type": "uint256"
						},
						{
							"internalType": "address",
							"name": "buyer",
							"type": "address"
						},
						{
							"internalType": "address",
							"name": "seller",
							"type": "address"
						},
						{
							"internalType": "uint256",
							"name": "price",
							"type": "uint256"
						},
						{
							"internalType": "uint256",
							"name": "quantity",
							"type": "uint256"
						},
						{
							"internalType": "uint256",
							"name": "timestamp",
							"type": "uint256"
						},
						{
							"internalType": "enum PolicastMarketV2.OrderType",
							"name": "orderType",
							"type": "uint8"
						}
					],
					"stateMutability": "view",
					"type": "function"
				},
				{
					"inputs": [
						{
							"internalType": "uint256",
							"name": "",
							"type": "uint256"
						}
					],
					"name": "markets",
					"outputs": [
						{
							"internalType": "string",
							"name": "question",
							"type": "string"
						},
						{
							"internalType": "string",
							"name": "description",
							"type": "string"
						},
						{
							"internalType": "uint256",
							"name": "endTime",
							"type": "uint256"
						},
						{
							"internalType": "enum PolicastMarketV2.MarketCategory",
							"name": "category",
							"type": "uint8"
						},
						{
							"internalType": "uint256",
							"name": "winningOptionId",
							"type": "uint256"
						},
						{
							"internalType": "bool",
							"name": "resolved",
							"type": "bool"
						},
						{
							"internalType": "bool",
							"name": "disputed",
							"type": "bool"
						},
						{
							"internalType": "bool",
							"name": "validated",
							"type": "bool"
						},
						{
							"internalType": "address",
							"name": "creator",
							"type": "address"
						},
						{
							"internalType": "uint256",
							"name": "totalLiquidity",
							"type": "uint256"
						},
						{
							"internalType": "uint256",
							"name": "totalVolume",
							"type": "uint256"
						},
						{
							"internalType": "uint256",
							"name": "createdAt",
							"type": "uint256"
						},
						{
							"internalType": "uint256",
							"name": "optionCount",
							"type": "uint256"
						},
						{
							"internalType": "uint256",
							"name": "payoutIndex",
							"type": "uint256"
						},
						{
							"internalType": "uint256",
							"name": "feeCollected",
							"type": "uint256"
						}
					],
					"stateMutability": "view",
					"type": "function"
				},
				{
					"inputs": [],
					"name": "orderCount",
					"outputs": [
						{
							"internalType": "uint256",
							"name": "",
							"type": "uint256"
						}
					],
					"stateMutability": "view",
					"type": "function"
				},
				{
					"inputs": [
						{
							"internalType": "uint256",
							"name": "",
							"type": "uint256"
						}
					],
					"name": "orders",
					"outputs": [
						{
							"internalType": "uint256",
							"name": "id",
							"type": "uint256"
						},
						{
							"internalType": "uint256",
							"name": "marketId",
							"type": "uint256"
						},
						{
							"internalType": "uint256",
							"name": "optionId",
							"type": "uint256"
						},
						{
							"internalType": "address",
							"name": "maker",
							"type": "address"
						},
						{
							"internalType": "enum PolicastMarketV2.OrderType",
							"name": "orderType",
							"type": "uint8"
						},
						{
							"internalType": "enum PolicastMarketV2.OrderSide",
							"name": "side",
							"type": "uint8"
						},
						{
							"internalType": "uint256",
							"name": "price",
							"type": "uint256"
						},
						{
							"internalType": "uint256",
							"name": "quantity",
							"type": "uint256"
						},
						{
							"internalType": "uint256",
							"name": "filled",
							"type": "uint256"
						},
						{
							"internalType": "uint256",
							"name": "timestamp",
							"type": "uint256"
						},
						{
							"internalType": "bool",
							"name": "isActive",
							"type": "bool"
						}
					],
					"stateMutability": "view",
					"type": "function"
				},
				{
					"inputs": [],
					"name": "owner",
					"outputs": [
						{
							"internalType": "address",
							"name": "",
							"type": "address"
						}
					],
					"stateMutability": "view",
					"type": "function"
				},
				{
					"inputs": [],
					"name": "pause",
					"outputs": [],
					"stateMutability": "nonpayable",
					"type": "function"
				},
				{
					"inputs": [],
					"name": "paused",
					"outputs": [
						{
							"internalType": "bool",
							"name": "",
							"type": "bool"
						}
					],
					"stateMutability": "view",
					"type": "function"
				},
				{
					"inputs": [],
					"name": "platformFeeRate",
					"outputs": [
						{
							"internalType": "uint256",
							"name": "",
							"type": "uint256"
						}
					],
					"stateMutability": "view",
					"type": "function"
				},
				{
					"inputs": [
						{
							"internalType": "uint256",
							"name": "",
							"type": "uint256"
						},
						{
							"internalType": "uint256",
							"name": "",
							"type": "uint256"
						},
						{
							"internalType": "uint256",
							"name": "",
							"type": "uint256"
						}
					],
					"name": "priceHistory",
					"outputs": [
						{
							"internalType": "uint256",
							"name": "price",
							"type": "uint256"
						},
						{
							"internalType": "uint256",
							"name": "timestamp",
							"type": "uint256"
						},
						{
							"internalType": "uint256",
							"name": "volume",
							"type": "uint256"
						}
					],
					"stateMutability": "view",
					"type": "function"
				},
				{
					"inputs": [],
					"name": "renounceOwnership",
					"outputs": [],
					"stateMutability": "nonpayable",
					"type": "function"
				},
				{
					"inputs": [
						{
							"internalType": "bytes32",
							"name": "role",
							"type": "bytes32"
						},
						{
							"internalType": "address",
							"name": "callerConfirmation",
							"type": "address"
						}
					],
					"name": "renounceRole",
					"outputs": [],
					"stateMutability": "nonpayable",
					"type": "function"
				},
				{
					"inputs": [
						{
							"internalType": "uint256",
							"name": "_marketId",
							"type": "uint256"
						},
						{
							"internalType": "uint256",
							"name": "_winningOptionId",
							"type": "uint256"
						}
					],
					"name": "resolveMarket",
					"outputs": [],
					"stateMutability": "nonpayable",
					"type": "function"
				},
				{
					"inputs": [
						{
							"internalType": "bytes32",
							"name": "role",
							"type": "bytes32"
						},
						{
							"internalType": "address",
							"name": "account",
							"type": "address"
						}
					],
					"name": "revokeRole",
					"outputs": [],
					"stateMutability": "nonpayable",
					"type": "function"
				},
				{
					"inputs": [
						{
							"internalType": "uint256",
							"name": "_marketId",
							"type": "uint256"
						},
						{
							"internalType": "uint256",
							"name": "_optionId",
							"type": "uint256"
						},
						{
							"internalType": "uint256",
							"name": "_quantity",
							"type": "uint256"
						},
						{
							"internalType": "uint256",
							"name": "_minPricePerShare",
							"type": "uint256"
						}
					],
					"name": "sellShares",
					"outputs": [],
					"stateMutability": "nonpayable",
					"type": "function"
				},
				{
					"inputs": [
						{
							"internalType": "uint256",
							"name": "_feeRate",
							"type": "uint256"
						}
					],
					"name": "setPlatformFeeRate",
					"outputs": [],
					"stateMutability": "nonpayable",
					"type": "function"
				},
				{
					"inputs": [
						{
							"internalType": "bytes4",
							"name": "interfaceId",
							"type": "bytes4"
						}
					],
					"name": "supportsInterface",
					"outputs": [
						{
							"internalType": "bool",
							"name": "",
							"type": "bool"
						}
					],
					"stateMutability": "view",
					"type": "function"
				},
				{
					"inputs": [
						{
							"internalType": "address",
							"name": "",
							"type": "address"
						}
					],
					"name": "totalWinnings",
					"outputs": [
						{
							"internalType": "uint256",
							"name": "",
							"type": "uint256"
						}
					],
					"stateMutability": "view",
					"type": "function"
				},
				{
					"inputs": [],
					"name": "tradeCount",
					"outputs": [
						{
							"internalType": "uint256",
							"name": "",
							"type": "uint256"
						}
					],
					"stateMutability": "view",
					"type": "function"
				},
				{
					"inputs": [
						{
							"internalType": "address",
							"name": "newOwner",
							"type": "address"
						}
					],
					"name": "transferOwnership",
					"outputs": [],
					"stateMutability": "nonpayable",
					"type": "function"
				},
				{
					"inputs": [],
					"name": "unpause",
					"outputs": [],
					"stateMutability": "nonpayable",
					"type": "function"
				},
				{
					"inputs": [
						{
							"internalType": "address",
							"name": "",
							"type": "address"
						},
						{
							"internalType": "uint256",
							"name": "",
							"type": "uint256"
						}
					],
					"name": "userOrders",
					"outputs": [
						{
							"internalType": "uint256",
							"name": "",
							"type": "uint256"
						}
					],
					"stateMutability": "view",
					"type": "function"
				},
				{
					"inputs": [
						{
							"internalType": "address",
							"name": "",
							"type": "address"
						}
					],
					"name": "userPortfolios",
					"outputs": [
						{
							"internalType": "uint256",
							"name": "totalInvested",
							"type": "uint256"
						},
						{
							"internalType": "uint256",
							"name": "totalWinnings",
							"type": "uint256"
						},
						{
							"internalType": "int256",
							"name": "unrealizedPnL",
							"type": "int256"
						},
						{
							"internalType": "int256",
							"name": "realizedPnL",
							"type": "int256"
						},
						{
							"internalType": "uint256",
							"name": "tradeCount",
							"type": "uint256"
						}
					],
					"stateMutability": "view",
					"type": "function"
				},
				{
					"inputs": [
						{
							"internalType": "address",
							"name": "",
							"type": "address"
						},
						{
							"internalType": "uint256",
							"name": "",
							"type": "uint256"
						}
					],
					"name": "userTradeHistory",
					"outputs": [
						{
							"internalType": "uint256",
							"name": "marketId",
							"type": "uint256"
						},
						{
							"internalType": "uint256",
							"name": "optionId",
							"type": "uint256"
						},
						{
							"internalType": "address",
							"name": "buyer",
							"type": "address"
						},
						{
							"internalType": "address",
							"name": "seller",
							"type": "address"
						},
						{
							"internalType": "uint256",
							"name": "price",
							"type": "uint256"
						},
						{
							"internalType": "uint256",
							"name": "quantity",
							"type": "uint256"
						},
						{
							"internalType": "uint256",
							"name": "timestamp",
							"type": "uint256"
						},
						{
							"internalType": "enum PolicastMarketV2.OrderType",
							"name": "orderType",
							"type": "uint8"
						}
					],
					"stateMutability": "view",
					"type": "function"
				},
				{
					"inputs": [
						{
							"internalType": "uint256",
							"name": "_marketId",
							"type": "uint256"
						}
					],
					"name": "validateMarket",
					"outputs": [],
					"stateMutability": "nonpayable",
					"type": "function"
				}
			],
			"devdoc": {
				"errors": {
					"AccessControlBadConfirmation()": [
						{
							"details": "The caller of a function is not the expected one. NOTE: Don't confuse with {AccessControlUnauthorizedAccount}."
						}
					],
					"AccessControlUnauthorizedAccount(address,bytes32)": [
						{
							"details": "The `account` is missing a role."
						}
					],
					"EnforcedPause()": [
						{
							"details": "The operation failed because the contract is paused."
						}
					],
					"ExpectedPause()": [
						{
							"details": "The operation failed because the contract is not paused."
						}
					],
					"OwnableInvalidOwner(address)": [
						{
							"details": "The owner is not a valid owner account. (eg. `address(0)`)"
						}
					],
					"OwnableUnauthorizedAccount(address)": [
						{
							"details": "The caller account is not authorized to perform an operation."
						}
					],
					"ReentrancyGuardReentrantCall()": [
						{
							"details": "Unauthorized reentrant call."
						}
					]
				},
				"events": {
					"Paused(address)": {
						"details": "Emitted when the pause is triggered by `account`."
					},
					"RoleAdminChanged(bytes32,bytes32,bytes32)": {
						"details": "Emitted when `newAdminRole` is set as ``role``'s admin role, replacing `previousAdminRole` `DEFAULT_ADMIN_ROLE` is the starting admin for all roles, despite {RoleAdminChanged} not being emitted to signal this."
					},
					"RoleGranted(bytes32,address,address)": {
						"details": "Emitted when `account` is granted `role`. `sender` is the account that originated the contract call. This account bears the admin role (for the granted role). Expected in cases where the role was granted using the internal {AccessControl-_grantRole}."
					},
					"RoleRevoked(bytes32,address,address)": {
						"details": "Emitted when `account` is revoked `role`. `sender` is the account that originated the contract call:   - if using `revokeRole`, it is the admin role bearer   - if using `renounceRole`, it is the role bearer (i.e. `account`)"
					},
					"Unpaused(address)": {
						"details": "Emitted when the pause is lifted by `account`."
					}
				},
				"kind": "dev",
				"methods": {
					"getRoleAdmin(bytes32)": {
						"details": "Returns the admin role that controls `role`. See {grantRole} and {revokeRole}. To change a role's admin, use {_setRoleAdmin}."
					},
					"grantRole(bytes32,address)": {
						"details": "Grants `role` to `account`. If `account` had not been already granted `role`, emits a {RoleGranted} event. Requirements: - the caller must have ``role``'s admin role. May emit a {RoleGranted} event."
					},
					"hasRole(bytes32,address)": {
						"details": "Returns `true` if `account` has been granted `role`."
					},
					"owner()": {
						"details": "Returns the address of the current owner."
					},
					"paused()": {
						"details": "Returns true if the contract is paused, and false otherwise."
					},
					"renounceOwnership()": {
						"details": "Leaves the contract without owner. It will not be possible to call `onlyOwner` functions. Can only be called by the current owner. NOTE: Renouncing ownership will leave the contract without an owner, thereby disabling any functionality that is only available to the owner."
					},
					"renounceRole(bytes32,address)": {
						"details": "Revokes `role` from the calling account. Roles are often managed via {grantRole} and {revokeRole}: this function's purpose is to provide a mechanism for accounts to lose their privileges if they are compromised (such as when a trusted device is misplaced). If the calling account had been revoked `role`, emits a {RoleRevoked} event. Requirements: - the caller must be `callerConfirmation`. May emit a {RoleRevoked} event."
					},
					"revokeRole(bytes32,address)": {
						"details": "Revokes `role` from `account`. If `account` had been granted `role`, emits a {RoleRevoked} event. Requirements: - the caller must have ``role``'s admin role. May emit a {RoleRevoked} event."
					},
					"supportsInterface(bytes4)": {
						"details": "Returns true if this contract implements the interface defined by `interfaceId`. See the corresponding https://eips.ethereum.org/EIPS/eip-165#how-interfaces-are-identified[ERC section] to learn more about how these ids are created. This function call must use less than 30 000 gas."
					},
					"transferOwnership(address)": {
						"details": "Transfers ownership of the contract to a new account (`newOwner`). Can only be called by the current owner."
					}
				},
				"version": 1
			},
			"evm": {
				"assembly": "    /* \"v2.sol\":430:24350  contract PolicastMarketV2 is Ownable, ReentrancyGuard, AccessControl, Pausable {... */\n  0x80\n  jumpi(tag_8, callvalue)\n  0x1f\n  bytecodeSize\n  codesize\n  dup2\n  swap1\n  sub\n  swap2\n  dup3\n  add\n  not(0x1f)\n  and\n  dup4\n  add\n  swap2\n  sub(shl(0x40, 0x01), 0x01)\n  dup4\n  gt\n  dup5\n  dup5\n  lt\n  or\n  tag_4\n  jumpi\n  dup1\n  dup5\n  swap3\n  0x20\n  swap5\n  0x40\n  mstore\n  dup4\n  codecopy\n  dup2\n  add\n  sub\n  slt\n  tag_8\n  jumpi\n  mload\n  sub(shl(0xa0, 0x01), 0x01)\n  dup1\n  dup3\n  and\n  dup3\n  sub\n  tag_8\n  jumpi\n    /* \"v2.sol\":5776:5786  msg.sender */\n  caller\n    /* \"@openzeppelin/contracts/access/Ownable.sol\":1273:1299  initialOwner == address(0) */\n  iszero\n    /* \"@openzeppelin/contracts/access/Ownable.sol\":1269:1364  if (initialOwner == address(0)) {... */\n  tag_10\n  jumpi\n  0x00\n    /* \"v2.sol\":430:24350  contract PolicastMarketV2 is Ownable, ReentrancyGuard, AccessControl, Pausable {... */\n  dup1\n  sload\n    /* \"v2.sol\":5776:5786  msg.sender */\n  caller\n  not(sub(shl(0xa0, 0x01), 0x01))\n    /* \"v2.sol\":430:24350  contract PolicastMarketV2 is Ownable, ReentrancyGuard, AccessControl, Pausable {... */\n  dup3\n  and\n  dup2\n  or\n  dup4\n  sstore\n    /* \"v2.sol\":5776:5786  msg.sender */\n  swap3\n    /* \"v2.sol\":430:24350  contract PolicastMarketV2 is Ownable, ReentrancyGuard, AccessControl, Pausable {... */\n  and\n  swap1\n    /* \"@openzeppelin/contracts/access/Ownable.sol\":3052:3092  OwnershipTransferred(oldOwner, newOwner) */\n  0x8be0079c531659141344cd1fd0a4f28419497f9722a3daafe3b4186f6b6457e0\n  swap1\n  dup1\n  log3\n    /* \"@openzeppelin/contracts/utils/ReentrancyGuard.sol\":1857:1858  1 */\n  0x01\n    /* \"v2.sol\":430:24350  contract PolicastMarketV2 is Ownable, ReentrancyGuard, AccessControl, Pausable {... */\n  dup1\n  sstore\n    /* \"v2.sol\":3512:3515  200 */\n  0xc8\n  0x07\n    /* \"v2.sol\":430:24350  contract PolicastMarketV2 is Ownable, ReentrancyGuard, AccessControl, Pausable {... */\n  sstore\n    /* \"v2.sol\":5798:5834  bettingToken = IERC20(_bettingToken) */\n  0x03\n    /* \"v2.sol\":430:24350  contract PolicastMarketV2 is Ownable, ReentrancyGuard, AccessControl, Pausable {... */\n  dup1\n  sload\n  not(sub(shl(0xa8, 0x01), 0x0100))\n  and\n  0x08\n  swap3\n  swap1\n  swap3\n  shl\n  sub(shl(0xa8, 0x01), 0x0100)\n  and\n  swap2\n  swap1\n  swap2\n  or\n  swap1\n  sstore\n    /* \"v2.sol\":5844:5886  _grantRole(DEFAULT_ADMIN_ROLE, msg.sender) */\n  tag_12\n    /* \"v2.sol\":5776:5786  msg.sender */\n  caller\n    /* \"v2.sol\":5844:5886  _grantRole(DEFAULT_ADMIN_ROLE, msg.sender) */\n  tag_1\n  jump\t// in\ntag_12:\n  pop\n    /* \"v2.sol\":430:24350  contract PolicastMarketV2 is Ownable, ReentrancyGuard, AccessControl, Pausable {... */\n  mload(0x40)\n  dataSize(sub_0)\n  swap1\n  dup2\n  dataOffset(sub_0)\n  dup3\n  codecopy\n  return\n    /* \"@openzeppelin/contracts/access/Ownable.sol\":1269:1364  if (initialOwner == address(0)) {... */\ntag_10:\n    /* \"v2.sol\":430:24350  contract PolicastMarketV2 is Ownable, ReentrancyGuard, AccessControl, Pausable {... */\n  mload(0x40)\n  shl(0xe0, 0x1e4fbdf7)\n    /* \"@openzeppelin/contracts/access/Ownable.sol\":1322:1353  OwnableInvalidOwner(address(0)) */\n  dup2\n  mstore\n  0x00\n  0x04\n  dup3\n  add\n    /* \"v2.sol\":430:24350  contract PolicastMarketV2 is Ownable, ReentrancyGuard, AccessControl, Pausable {... */\n  mstore\n  0x24\n  swap1\n    /* \"@openzeppelin/contracts/access/Ownable.sol\":1322:1353  OwnableInvalidOwner(address(0)) */\n  revert\n    /* \"v2.sol\":430:24350  contract PolicastMarketV2 is Ownable, ReentrancyGuard, AccessControl, Pausable {... */\ntag_8:\n  0x00\n  dup1\n  revert\ntag_4:\n  mstore(0x00, shl(0xe0, 0x4e487b71))\n  mstore(0x04, 0x41)\n  revert(0x00, 0x24)\n    /* \"@openzeppelin/contracts/access/AccessControl.sol\":6155:6471  function _grantRole(bytes32 role, address account) internal virtual returns (bool) {... */\ntag_1:\n  sub(shl(0xa0, 0x01), 0x01)\n    /* \"v2.sol\":430:24350  contract PolicastMarketV2 is Ownable, ReentrancyGuard, AccessControl, Pausable {... */\n  and\n    /* \"@openzeppelin/contracts/access/Ownable.sol\":1297:1298  0 */\n  0x00\n    /* \"v2.sol\":430:24350  contract PolicastMarketV2 is Ownable, ReentrancyGuard, AccessControl, Pausable {... */\n  dup2\n  dup2\n  mstore\n  0x00\n  dup1\n  mload\n  0x20\n  data_7d2944a272ac5bae96b5bd2f67b6c13276d541dc09eb1cf414d96b19a09e1c2f\n  dup4\n  codecopy\n  dup2\n  mload\n  swap2\n  mstore\n  0x20\n  mstore\n  0x40\n  swap1\n  keccak256\n  sload\n  0xff\n  and\n  tag_13\n  jumpi\n    /* \"@openzeppelin/contracts/access/Ownable.sol\":1297:1298  0 */\n  0x00\n    /* \"v2.sol\":430:24350  contract PolicastMarketV2 is Ownable, ReentrancyGuard, AccessControl, Pausable {... */\n  dup2\n  dup2\n  mstore\n  0x00\n  dup1\n  mload\n  0x20\n  data_7d2944a272ac5bae96b5bd2f67b6c13276d541dc09eb1cf414d96b19a09e1c2f\n  dup4\n  codecopy\n  dup2\n  mload\n  swap2\n  mstore\n  0x20\n  mstore\n  0x40\n  dup2\n  keccak256\n  dup1\n  sload\n  not(0xff)\n  and\n    /* \"@openzeppelin/contracts/access/AccessControl.sol\":6323:6327  true */\n  0x01\n    /* \"v2.sol\":430:24350  contract PolicastMarketV2 is Ownable, ReentrancyGuard, AccessControl, Pausable {... */\n  or\n  swap1\n  sstore\n    /* \"@openzeppelin/contracts/utils/Context.sol\":735:745  msg.sender */\n  caller\n  swap2\n    /* \"v2.sol\":430:24350  contract PolicastMarketV2 is Ownable, ReentrancyGuard, AccessControl, Pausable {... */\n  swap1\n    /* \"@openzeppelin/contracts/access/AccessControl.sol\":6346:6386  RoleGranted(role, account, _msgSender()) */\n  0x2f8788117e7eff1d82e926ec794901d17c78024a50270940304540a733656f0d\n    /* \"@openzeppelin/contracts/access/Ownable.sol\":1297:1298  0 */\n  dup2\n  dup1\n    /* \"@openzeppelin/contracts/access/AccessControl.sol\":6346:6386  RoleGranted(role, account, _msgSender()) */\n  log4\n    /* \"@openzeppelin/contracts/access/AccessControl.sol\":6323:6327  true */\n  0x01\n    /* \"@openzeppelin/contracts/access/AccessControl.sol\":6400:6411  return true */\n  swap1\n  jump\t// out\n    /* \"@openzeppelin/contracts/access/AccessControl.sol\":6248:6465  if (!hasRole(role, account)) {... */\ntag_13:\n    /* \"@openzeppelin/contracts/access/AccessControl.sol\":6442:6454  return false */\n  pop\n    /* \"@openzeppelin/contracts/access/Ownable.sol\":1297:1298  0 */\n  0x00\n    /* \"@openzeppelin/contracts/access/AccessControl.sol\":6442:6454  return false */\n  swap1\n  jump\t// out\nstop\ndata_7d2944a272ac5bae96b5bd2f67b6c13276d541dc09eb1cf414d96b19a09e1c2f ac33ff75c19e70fe83507db0d683fd3465c996598dc972688b7ace676c89077b\n\nsub_0: assembly {\n        /* \"v2.sol\":430:24350  contract PolicastMarketV2 is Ownable, ReentrancyGuard, AccessControl, Pausable {... */\n      0x80\n      dup1\n      0x40\n      mstore\n      jumpi(tag_56, iszero(lt(calldatasize, 0x04)))\n      0x00\n      dup1\n      revert\n    tag_56:\n      shr(0xe0, calldataload(0x00))\n      swap1\n      dup2\n      0x01ffc9a7\n      eq\n      tag_58\n      jumpi\n      pop\n      dup1\n      0x05e33dd0\n      eq\n      tag_60\n      jumpi\n      dup1\n      0x08693f3c\n      eq\n      tag_62\n      jumpi\n      dup1\n      0x0da183d6\n      eq\n      tag_64\n      jumpi\n      dup1\n      0x1cb1de2f\n      eq\n      tag_66\n      jumpi\n      dup1\n      0x1edb27e9\n      eq\n      tag_68\n      jumpi\n      dup1\n      0x204f6125\n      eq\n      tag_70\n      jumpi\n      dup1\n      0x222fa267\n      eq\n      tag_72\n      jumpi\n      dup1\n      0x2453ffa8\n      eq\n      tag_74\n      jumpi\n      dup1\n      0x248a9ca3\n      eq\n      tag_76\n      jumpi\n      dup1\n      0x257ff7b6\n      eq\n      tag_78\n      jumpi\n      dup1\n      0x29cf655b\n      eq\n      tag_94\n      jumpi\n      dup1\n      0x2f2ff15d\n      eq\n      tag_82\n      jumpi\n      dup1\n      0x32617b70\n      eq\n      tag_84\n      jumpi\n      dup1\n      0x35037e0b\n      eq\n      tag_86\n      jumpi\n      dup1\n      0x36568abe\n      eq\n      tag_88\n      jumpi\n      dup1\n      0x3ec79193\n      eq\n      tag_90\n      jumpi\n      dup1\n      0x3f4ba83a\n      eq\n      tag_92\n      jumpi\n      dup1\n      0x43425e88\n      eq\n      tag_94\n      jumpi\n      dup1\n      0x4a2021ef\n      eq\n      tag_96\n      jumpi\n      dup1\n      0x58057fe5\n      eq\n      tag_98\n      jumpi\n      dup1\n      0x5a2db6fb\n      eq\n      tag_100\n      jumpi\n      dup1\n      0x5c975abb\n      eq\n      tag_102\n      jumpi\n      dup1\n      0x60557333\n      eq\n      tag_104\n      jumpi\n      dup1\n      0x677bd9ff\n      eq\n      tag_106\n      jumpi\n      dup1\n      0x6db3b4dc\n      eq\n      tag_108\n      jumpi\n      dup1\n      0x715018a6\n      eq\n      tag_110\n      jumpi\n      dup1\n      0x73af16fc\n      eq\n      tag_112\n      jumpi\n      dup1\n      0x755f0629\n      eq\n      tag_114\n      jumpi\n      dup1\n      0x77b4a3e7\n      eq\n      tag_116\n      jumpi\n      dup1\n      0x7c946454\n      eq\n      tag_118\n      jumpi\n      dup1\n      0x7e50898e\n      eq\n      tag_120\n      jumpi\n      dup1\n      0x835dc40b\n      eq\n      tag_122\n      jumpi\n      dup1\n      0x8456cb59\n      eq\n      tag_124\n      jumpi\n      dup1\n      0x856652e9\n      eq\n      tag_126\n      jumpi\n      dup1\n      0x8b8840e0\n      eq\n      tag_128\n      jumpi\n      dup1\n      0x8da5cb5b\n      eq\n      tag_130\n      jumpi\n      dup1\n      0x91d14854\n      eq\n      tag_132\n      jumpi\n      dup1\n      0x927fef2e\n      eq\n      tag_134\n      jumpi\n      dup1\n      0x92f012b2\n      eq\n      tag_136\n      jumpi\n      dup1\n      0xa217fddf\n      eq\n      tag_138\n      jumpi\n      dup1\n      0xa75dd115\n      eq\n      tag_140\n      jumpi\n      dup1\n      0xa85c38ef\n      eq\n      tag_142\n      jumpi\n      dup1\n      0xa8cc7f19\n      eq\n      tag_144\n      jumpi\n      dup1\n      0xab44e635\n      eq\n      tag_146\n      jumpi\n      dup1\n      0xabdce1a4\n      eq\n      tag_148\n      jumpi\n      dup1\n      0xb1283e77\n      eq\n      tag_150\n      jumpi\n      dup1\n      0xb1ab13ff\n      eq\n      tag_152\n      jumpi\n      dup1\n      0xb61920c1\n      eq\n      tag_154\n      jumpi\n      dup1\n      0xbd55022a\n      eq\n      tag_156\n      jumpi\n      dup1\n      0xc2454af7\n      eq\n      tag_158\n      jumpi\n      dup1\n      0xd547741f\n      eq\n      tag_160\n      jumpi\n      dup1\n      0xec979082\n      eq\n      tag_170\n      jumpi\n      dup1\n      0xed881230\n      eq\n      tag_164\n      jumpi\n      dup1\n      0xeeca08f0\n      eq\n      tag_166\n      jumpi\n      dup1\n      0xf2fde38b\n      eq\n      tag_168\n      jumpi\n      0xfd69f3c2\n      eq\n      tag_170\n      jumpi\n      0x00\n      dup1\n      revert\n    tag_170:\n      jumpi(tag_174, callvalue)\n      jumpi(tag_174, slt(add(not(0x03), calldatasize), 0x00))\n      0x20\n      sload(0x04)\n      mload(0x40)\n      swap1\n      dup2\n      mstore\n      return\n    tag_174:\n      0x00\n      dup1\n      revert\n    tag_168:\n      jumpi(tag_174, callvalue)\n      jumpi(tag_174, slt(add(not(0x03), calldatasize), 0x20))\n      tag_180\n      tag_3\n      jump\t// in\n    tag_180:\n        /* \"@openzeppelin/contracts/access/Ownable.sol\":1500:1562  modifier onlyOwner() {... */\n      tag_181\n      tag_52\n      jump\t// in\n    tag_181:\n      sub(shl(0xa0, 0x01), 0x01)\n        /* \"v2.sol\":430:24350  contract PolicastMarketV2 is Ownable, ReentrancyGuard, AccessControl, Pausable {... */\n      swap1\n      dup2\n      and\n      swap1\n        /* \"@openzeppelin/contracts/access/Ownable.sol\":2627:2649  newOwner == address(0) */\n      dup2\n      iszero\n        /* \"@openzeppelin/contracts/access/Ownable.sol\":2623:2714  if (newOwner == address(0)) {... */\n      tag_182\n      jumpi\n        /* \"v2.sol\":430:24350  contract PolicastMarketV2 is Ownable, ReentrancyGuard, AccessControl, Pausable {... */\n      sload(0x00)\n      dup3\n      shl(0xa0, 0xffffffffffffffffffffffff)\n      dup3\n      and\n      or\n      0x00\n      sstore\n      and\n        /* \"@openzeppelin/contracts/access/Ownable.sol\":3052:3092  OwnershipTransferred(oldOwner, newOwner) */\n      0x8be0079c531659141344cd1fd0a4f28419497f9722a3daafe3b4186f6b6457e0\n        /* \"v2.sol\":430:24350  contract PolicastMarketV2 is Ownable, ReentrancyGuard, AccessControl, Pausable {... */\n      0x00\n        /* \"@openzeppelin/contracts/access/Ownable.sol\":3052:3092  OwnershipTransferred(oldOwner, newOwner) */\n      dup1\n      log3\n        /* \"v2.sol\":430:24350  contract PolicastMarketV2 is Ownable, ReentrancyGuard, AccessControl, Pausable {... */\n      stop\n        /* \"@openzeppelin/contracts/access/Ownable.sol\":2623:2714  if (newOwner == address(0)) {... */\n    tag_182:\n        /* \"v2.sol\":430:24350  contract PolicastMarketV2 is Ownable, ReentrancyGuard, AccessControl, Pausable {... */\n      mload(0x40)\n      shl(0xe0, 0x1e4fbdf7)\n        /* \"@openzeppelin/contracts/access/Ownable.sol\":2672:2703  OwnableInvalidOwner(address(0)) */\n      dup2\n      mstore\n        /* \"v2.sol\":430:24350  contract PolicastMarketV2 is Ownable, ReentrancyGuard, AccessControl, Pausable {... */\n      0x00\n      0x04\n        /* \"@openzeppelin/contracts/access/Ownable.sol\":2672:2703  OwnableInvalidOwner(address(0)) */\n      dup3\n      add\n        /* \"v2.sol\":430:24350  contract PolicastMarketV2 is Ownable, ReentrancyGuard, AccessControl, Pausable {... */\n      mstore\n      0x24\n      swap1\n        /* \"@openzeppelin/contracts/access/Ownable.sol\":2672:2703  OwnableInvalidOwner(address(0)) */\n      revert\n        /* \"v2.sol\":430:24350  contract PolicastMarketV2 is Ownable, ReentrancyGuard, AccessControl, Pausable {... */\n    tag_166:\n      jumpi(tag_174, callvalue)\n      jumpi(tag_174, slt(add(not(0x03), calldatasize), 0x00))\n      0x20\n        /* \"v2.sol\":3479:3515  uint256 public platformFeeRate = 200 */\n      0x07\n        /* \"v2.sol\":430:24350  contract PolicastMarketV2 is Ownable, ReentrancyGuard, AccessControl, Pausable {... */\n      sload\n      mload(0x40)\n      swap1\n      dup2\n      mstore\n      return\n    tag_164:\n      jumpi(tag_174, callvalue)\n      tag_190\n      calldatasize\n      tag_19\n      jump\t// in\n    tag_190:\n        /* \"@openzeppelin/contracts/utils/ReentrancyGuard.sol\":2466:2569  modifier nonReentrant() {... */\n      tag_191\n      tag_54\n      jump\t// in\n    tag_191:\n        /* \"@openzeppelin/contracts/utils/Pausable.sol\":1315:1387  modifier whenNotPaused() {... */\n      tag_192\n      tag_46\n      jump\t// in\n    tag_192:\n        /* \"v2.sol\":5966:6023  require(_marketId < marketCount, \"Market does not exist\") */\n      tag_193\n        /* \"v2.sol\":430:24350  contract PolicastMarketV2 is Ownable, ReentrancyGuard, AccessControl, Pausable {... */\n      sload(0x04)\n        /* \"v2.sol\":5974:5997  _marketId < marketCount */\n      dup6\n      lt\n        /* \"v2.sol\":5966:6023  require(_marketId < marketCount, \"Market does not exist\") */\n      tag_33\n      jump\t// in\n    tag_193:\n        /* \"v2.sol\":430:24350  contract PolicastMarketV2 is Ownable, ReentrancyGuard, AccessControl, Pausable {... */\n      dup4\n      0x00\n      mstore\n        /* \"v2.sol\":6124:6131  markets */\n      0x08\n        /* \"v2.sol\":430:24350  contract PolicastMarketV2 is Ownable, ReentrancyGuard, AccessControl, Pausable {... */\n      0x20\n      mstore\n        /* \"v2.sol\":6098:6171  require(block.timestamp < markets[_marketId].endTime, \"Market has ended\") */\n      tag_194\n        /* \"v2.sol\":6124:6150  markets[_marketId].endTime */\n      0x02\n        /* \"v2.sol\":430:24350  contract PolicastMarketV2 is Ownable, ReentrancyGuard, AccessControl, Pausable {... */\n      keccak256(0x00, 0x40)\n        /* \"v2.sol\":6124:6150  markets[_marketId].endTime */\n      add\n        /* \"v2.sol\":430:24350  contract PolicastMarketV2 is Ownable, ReentrancyGuard, AccessControl, Pausable {... */\n      sload\n        /* \"v2.sol\":6106:6121  block.timestamp */\n      timestamp\n        /* \"v2.sol\":6106:6150  block.timestamp < markets[_marketId].endTime */\n      lt\n        /* \"v2.sol\":6098:6171  require(block.timestamp < markets[_marketId].endTime, \"Market has ended\") */\n      tag_35\n      jump\t// in\n    tag_194:\n        /* \"v2.sol\":430:24350  contract PolicastMarketV2 is Ownable, ReentrancyGuard, AccessControl, Pausable {... */\n      dup4\n      0x00\n      mstore\n        /* \"v2.sol\":6124:6131  markets */\n      0x08\n        /* \"v2.sol\":430:24350  contract PolicastMarketV2 is Ownable, ReentrancyGuard, AccessControl, Pausable {... */\n      0x20\n      mstore\n        /* \"v2.sol\":6181:6245  require(!markets[_marketId].resolved, \"Market already resolved\") */\n      tag_195\n        /* \"v2.sol\":430:24350  contract PolicastMarketV2 is Ownable, ReentrancyGuard, AccessControl, Pausable {... */\n      0xff\n        /* \"v2.sol\":6190:6217  markets[_marketId].resolved */\n      0x05\n        /* \"v2.sol\":430:24350  contract PolicastMarketV2 is Ownable, ReentrancyGuard, AccessControl, Pausable {... */\n      keccak256(0x00, 0x40)\n        /* \"v2.sol\":6190:6217  markets[_marketId].resolved */\n      add\n        /* \"v2.sol\":430:24350  contract PolicastMarketV2 is Ownable, ReentrancyGuard, AccessControl, Pausable {... */\n      sload\n      and\n        /* \"v2.sol\":6189:6217  !markets[_marketId].resolved */\n      iszero\n        /* \"v2.sol\":6181:6245  require(!markets[_marketId].resolved, \"Market already resolved\") */\n      tag_36\n      jump\t// in\n    tag_195:\n        /* \"v2.sol\":430:24350  contract PolicastMarketV2 is Ownable, ReentrancyGuard, AccessControl, Pausable {... */\n      dup4\n      0x00\n      mstore\n        /* \"v2.sol\":6124:6131  markets */\n      0x08\n        /* \"v2.sol\":430:24350  contract PolicastMarketV2 is Ownable, ReentrancyGuard, AccessControl, Pausable {... */\n      0x20\n      mstore\n        /* \"v2.sol\":6338:6407  require(_optionId < markets[_marketId].optionCount, \"Invalid option\") */\n      tag_196\n        /* \"v2.sol\":6358:6388  markets[_marketId].optionCount */\n      0x09\n        /* \"v2.sol\":430:24350  contract PolicastMarketV2 is Ownable, ReentrancyGuard, AccessControl, Pausable {... */\n      keccak256(0x00, 0x40)\n        /* \"v2.sol\":6358:6388  markets[_marketId].optionCount */\n      add\n        /* \"v2.sol\":430:24350  contract PolicastMarketV2 is Ownable, ReentrancyGuard, AccessControl, Pausable {... */\n      sload\n        /* \"v2.sol\":6346:6388  _optionId < markets[_marketId].optionCount */\n      dup5\n      lt\n        /* \"v2.sol\":6338:6407  require(_optionId < markets[_marketId].optionCount, \"Invalid option\") */\n      tag_37\n      jump\t// in\n    tag_196:\n        /* \"v2.sol\":430:24350  contract PolicastMarketV2 is Ownable, ReentrancyGuard, AccessControl, Pausable {... */\n      dup4\n      0x00\n      mstore\n        /* \"v2.sol\":6124:6131  markets */\n      0x08\n        /* \"v2.sol\":430:24350  contract PolicastMarketV2 is Ownable, ReentrancyGuard, AccessControl, Pausable {... */\n      0x20\n      mstore\n        /* \"v2.sol\":6425:6451  markets[_marketId].options */\n      0x0a\n        /* \"v2.sol\":430:24350  contract PolicastMarketV2 is Ownable, ReentrancyGuard, AccessControl, Pausable {... */\n      keccak256(0x00, 0x40)\n        /* \"v2.sol\":6425:6451  markets[_marketId].options */\n      add\n        /* \"v2.sol\":430:24350  contract PolicastMarketV2 is Ownable, ReentrancyGuard, AccessControl, Pausable {... */\n      dup4\n      0x00\n      mstore\n      0x20\n      mstore\n        /* \"v2.sol\":6417:6493  require(markets[_marketId].options[_optionId].isActive, \"Option not active\") */\n      tag_197\n        /* \"v2.sol\":430:24350  contract PolicastMarketV2 is Ownable, ReentrancyGuard, AccessControl, Pausable {... */\n      0xff\n        /* \"v2.sol\":6190:6217  markets[_marketId].resolved */\n      0x05\n        /* \"v2.sol\":430:24350  contract PolicastMarketV2 is Ownable, ReentrancyGuard, AccessControl, Pausable {... */\n      keccak256(0x00, 0x40)\n        /* \"v2.sol\":6425:6471  markets[_marketId].options[_optionId].isActive */\n      add\n        /* \"v2.sol\":430:24350  contract PolicastMarketV2 is Ownable, ReentrancyGuard, AccessControl, Pausable {... */\n      sload\n      and\n        /* \"v2.sol\":6417:6493  require(markets[_marketId].options[_optionId].isActive, \"Option not active\") */\n      tag_38\n      jump\t// in\n    tag_197:\n        /* \"v2.sol\":10124:10175  require(_quantity > 0, \"Quantity must be positive\") */\n      tag_198\n        /* \"v2.sol\":10132:10145  _quantity > 0 */\n      dup3\n      iszero\n      iszero\n        /* \"v2.sol\":10124:10175  require(_quantity > 0, \"Quantity must be positive\") */\n      tag_39\n      jump\t// in\n    tag_198:\n        /* \"v2.sol\":430:24350  contract PolicastMarketV2 is Ownable, ReentrancyGuard, AccessControl, Pausable {... */\n      dup4\n      0x00\n      mstore\n        /* \"v2.sol\":6124:6131  markets */\n      0x08\n        /* \"v2.sol\":430:24350  contract PolicastMarketV2 is Ownable, ReentrancyGuard, AccessControl, Pausable {... */\n      0x20\n      mstore\n      0xff\n        /* \"v2.sol\":6190:6217  markets[_marketId].resolved */\n      0x05\n        /* \"v2.sol\":430:24350  contract PolicastMarketV2 is Ownable, ReentrancyGuard, AccessControl, Pausable {... */\n      keccak256(0x00, 0x40)\n        /* \"v2.sol\":10193:10221  markets[_marketId].validated */\n      add\n        /* \"v2.sol\":430:24350  contract PolicastMarketV2 is Ownable, ReentrancyGuard, AccessControl, Pausable {... */\n      sload\n      0x10\n      shr\n      and\n      iszero\n      tag_199\n      jumpi\n      0x00\n      dup5\n      dup2\n      mstore\n        /* \"v2.sol\":6124:6131  markets */\n      0x08\n        /* \"v2.sol\":430:24350  contract PolicastMarketV2 is Ownable, ReentrancyGuard, AccessControl, Pausable {... */\n      0x20\n      swap1\n      dup2\n      mstore\n      0x40\n      dup1\n      dup4\n      keccak256\n      dup7\n      dup5\n      mstore\n        /* \"v2.sol\":6425:6451  markets[_marketId].options */\n      0x0a\n        /* \"v2.sol\":10339:10353  market.options */\n      dup2\n      add\n        /* \"v2.sol\":430:24350  contract PolicastMarketV2 is Ownable, ReentrancyGuard, AccessControl, Pausable {... */\n      swap1\n      swap3\n      mstore\n      swap1\n      swap2\n      keccak256\n      0x04\n        /* \"v2.sol\":17728:17766  market.options[_optionId].currentPrice */\n      dup2\n      add\n        /* \"v2.sol\":430:24350  contract PolicastMarketV2 is Ownable, ReentrancyGuard, AccessControl, Pausable {... */\n      sload\n      swap1\n      swap5\n      swap2\n      swap3\n      swap1\n      swap2\n      swap1\n        /* \"v2.sol\":10459:10492  currentPrice <= _maxPricePerShare */\n      dup3\n      gt\n        /* \"v2.sol\":430:24350  contract PolicastMarketV2 is Ownable, ReentrancyGuard, AccessControl, Pausable {... */\n      tag_201\n      jumpi\n        /* \"v2.sol\":10569:10573  1e18 */\n      0x0de0b6b3a7640000\n        /* \"v2.sol\":10542:10566  currentPrice * _quantity */\n      tag_203\n      dup6\n      dup5\n      tag_40\n      jump\t// in\n    tag_203:\n        /* \"v2.sol\":430:24350  contract PolicastMarketV2 is Ownable, ReentrancyGuard, AccessControl, Pausable {... */\n      div\n      swap4\n        /* \"v2.sol\":10627:10632  10000 */\n      0x2710\n        /* \"v2.sol\":10597:10624  totalCost * platformFeeRate */\n      tag_204\n        /* \"v2.sol\":10609:10624  platformFeeRate */\n      0x07\n        /* \"v2.sol\":430:24350  contract PolicastMarketV2 is Ownable, ReentrancyGuard, AccessControl, Pausable {... */\n      sload\n        /* \"v2.sol\":10597:10624  totalCost * platformFeeRate */\n      dup8\n      tag_40\n      jump\t// in\n    tag_204:\n        /* \"v2.sol\":430:24350  contract PolicastMarketV2 is Ownable, ReentrancyGuard, AccessControl, Pausable {... */\n      div\n        /* \"v2.sol\":10660:10675  totalCost + fee */\n      swap4\n      tag_205\n      dup6\n      dup8\n      tag_29\n      jump\t// in\n    tag_205:\n        /* \"v2.sol\":430:24350  contract PolicastMarketV2 is Ownable, ReentrancyGuard, AccessControl, Pausable {... */\n      swap1\n      0x00\n      0x20\n      0x01\n      dup1\n      0xa0\n      shl\n      sub\n        /* \"v2.sol\":10694:10706  bettingToken */\n      0x03\n        /* \"v2.sol\":430:24350  contract PolicastMarketV2 is Ownable, ReentrancyGuard, AccessControl, Pausable {... */\n      sload\n        /* \"v2.sol\":6124:6131  markets */\n      0x08\n        /* \"v2.sol\":430:24350  contract PolicastMarketV2 is Ownable, ReentrancyGuard, AccessControl, Pausable {... */\n      shr\n      and\n      0x64\n      mload(0x40)\n      dup1\n      swap5\n      dup2\n      swap4\n      shl(0xe0, 0x23b872dd)\n        /* \"v2.sol\":10694:10755  bettingToken.transferFrom(msg.sender, address(this), netCost) */\n      dup4\n      mstore\n        /* \"v2.sol\":10720:10730  msg.sender */\n      caller\n        /* \"v2.sol\":430:24350  contract PolicastMarketV2 is Ownable, ReentrancyGuard, AccessControl, Pausable {... */\n      0x04\n        /* \"v2.sol\":10694:10755  bettingToken.transferFrom(msg.sender, address(this), netCost) */\n      dup5\n      add\n        /* \"v2.sol\":430:24350  contract PolicastMarketV2 is Ownable, ReentrancyGuard, AccessControl, Pausable {... */\n      mstore\n        /* \"v2.sol\":10740:10744  this */\n      address\n        /* \"v2.sol\":430:24350  contract PolicastMarketV2 is Ownable, ReentrancyGuard, AccessControl, Pausable {... */\n      0x24\n      dup5\n      add\n      mstore\n      dup9\n      0x44\n      dup5\n      add\n      mstore\n        /* \"v2.sol\":10694:10755  bettingToken.transferFrom(msg.sender, address(this), netCost) */\n      gas\n      call\n      dup1\n      iszero\n      tag_206\n      jumpi\n        /* \"v2.sol\":10686:10775  require(bettingToken.transferFrom(msg.sender, address(this), netCost), \"Transfer failed\") */\n      tag_208\n        /* \"v2.sol\":10694:10755  bettingToken.transferFrom(msg.sender, address(this), netCost) */\n      swap2\n        /* \"v2.sol\":430:24350  contract PolicastMarketV2 is Ownable, ReentrancyGuard, AccessControl, Pausable {... */\n      0x00\n        /* \"v2.sol\":10694:10755  bettingToken.transferFrom(msg.sender, address(this), netCost) */\n      swap2\n      tag_209\n      jumpi\n        /* \"v2.sol\":430:24350  contract PolicastMarketV2 is Ownable, ReentrancyGuard, AccessControl, Pausable {... */\n    tag_210:\n        /* \"v2.sol\":10686:10775  require(bettingToken.transferFrom(msg.sender, address(this), netCost), \"Transfer failed\") */\n      pop\n      tag_44\n      jump\t// in\n    tag_208:\n        /* \"v2.sol\":10720:10730  msg.sender */\n      caller\n        /* \"v2.sol\":430:24350  contract PolicastMarketV2 is Ownable, ReentrancyGuard, AccessControl, Pausable {... */\n      0x00\n      mstore\n        /* \"v2.sol\":10820:10837  market.userShares */\n      0x0b\n      dup2\n      add\n        /* \"v2.sol\":430:24350  contract PolicastMarketV2 is Ownable, ReentrancyGuard, AccessControl, Pausable {... */\n      0x20\n      mstore\n      keccak256(0x00, 0x40)\n      dup5\n      0x00\n      mstore\n      0x20\n      mstore\n      sload(keccak256(0x00, 0x40))\n        /* \"v2.sol\":10820:10865  market.userShares[msg.sender][_optionId] == 0 */\n      iszero\n        /* \"v2.sol\":10820:10909  market.userShares[msg.sender][_optionId] == 0 && _isNewParticipant(msg.sender, _marketId) */\n      dup1\n      tag_211\n      jumpi\n        /* \"v2.sol\":430:24350  contract PolicastMarketV2 is Ownable, ReentrancyGuard, AccessControl, Pausable {... */\n    tag_212:\n        /* \"v2.sol\":10816:11101  if (market.userShares[msg.sender][_optionId] == 0 && _isNewParticipant(msg.sender, _marketId)) {... */\n      tag_213\n      jumpi\n        /* \"v2.sol\":430:24350  contract PolicastMarketV2 is Ownable, ReentrancyGuard, AccessControl, Pausable {... */\n    tag_214:\n        /* \"v2.sol\":11341:11360  market.feeCollected */\n      0x0f\n        /* \"v2.sol\":10720:10730  msg.sender */\n      swap1\n      caller\n        /* \"v2.sol\":430:24350  contract PolicastMarketV2 is Ownable, ReentrancyGuard, AccessControl, Pausable {... */\n      0x00\n      mstore\n        /* \"v2.sol\":10820:10837  market.userShares */\n      0x0b\n      dup2\n      add\n        /* \"v2.sol\":430:24350  contract PolicastMarketV2 is Ownable, ReentrancyGuard, AccessControl, Pausable {... */\n      0x20\n      mstore\n      keccak256(0x00, 0x40)\n      dup6\n      0x00\n      mstore\n      0x20\n      mstore\n      keccak256(0x00, 0x40)\n        /* \"v2.sol\":11111:11164  market.userShares[msg.sender][_optionId] += _quantity */\n      tag_215\n        /* \"v2.sol\":430:24350  contract PolicastMarketV2 is Ownable, ReentrancyGuard, AccessControl, Pausable {... */\n      dup6\n      dup3\n      sload\n        /* \"v2.sol\":11111:11164  market.userShares[msg.sender][_optionId] += _quantity */\n      tag_29\n      jump\t// in\n    tag_215:\n        /* \"v2.sol\":430:24350  contract PolicastMarketV2 is Ownable, ReentrancyGuard, AccessControl, Pausable {... */\n      swap1\n      sstore\n        /* \"v2.sol\":6124:6150  markets[_marketId].endTime */\n      0x02\n        /* \"v2.sol\":11174:11192  option.totalShares */\n      dup10\n      add\n        /* \"v2.sol\":11174:11205  option.totalShares += _quantity */\n      tag_216\n        /* \"v2.sol\":430:24350  contract PolicastMarketV2 is Ownable, ReentrancyGuard, AccessControl, Pausable {... */\n      dup6\n      dup3\n      sload\n        /* \"v2.sol\":11174:11205  option.totalShares += _quantity */\n      tag_29\n      jump\t// in\n    tag_216:\n        /* \"v2.sol\":430:24350  contract PolicastMarketV2 is Ownable, ReentrancyGuard, AccessControl, Pausable {... */\n      swap1\n      sstore\n        /* \"v2.sol\":10694:10706  bettingToken */\n      0x03\n        /* \"v2.sol\":11215:11233  option.totalVolume */\n      dup10\n      add\n        /* \"v2.sol\":11215:11246  option.totalVolume += totalCost */\n      tag_217\n        /* \"v2.sol\":430:24350  contract PolicastMarketV2 is Ownable, ReentrancyGuard, AccessControl, Pausable {... */\n      dup10\n      dup3\n      sload\n        /* \"v2.sol\":11215:11246  option.totalVolume += totalCost */\n      tag_29\n      jump\t// in\n    tag_217:\n        /* \"v2.sol\":430:24350  contract PolicastMarketV2 is Ownable, ReentrancyGuard, AccessControl, Pausable {... */\n      swap1\n      sstore\n        /* \"v2.sol\":11256:11277  market.totalLiquidity */\n      0x06\n      dup2\n      add\n        /* \"v2.sol\":11256:11290  market.totalLiquidity += totalCost */\n      tag_218\n        /* \"v2.sol\":430:24350  contract PolicastMarketV2 is Ownable, ReentrancyGuard, AccessControl, Pausable {... */\n      dup10\n      dup3\n      sload\n        /* \"v2.sol\":11256:11290  market.totalLiquidity += totalCost */\n      tag_29\n      jump\t// in\n    tag_218:\n        /* \"v2.sol\":430:24350  contract PolicastMarketV2 is Ownable, ReentrancyGuard, AccessControl, Pausable {... */\n      swap1\n      sstore\n        /* \"v2.sol\":10609:10624  platformFeeRate */\n      0x07\n        /* \"v2.sol\":11300:11318  market.totalVolume */\n      dup2\n      add\n        /* \"v2.sol\":11300:11331  market.totalVolume += totalCost */\n      tag_219\n        /* \"v2.sol\":430:24350  contract PolicastMarketV2 is Ownable, ReentrancyGuard, AccessControl, Pausable {... */\n      dup10\n      dup3\n      sload\n        /* \"v2.sol\":11300:11331  market.totalVolume += totalCost */\n      tag_29\n      jump\t// in\n    tag_219:\n        /* \"v2.sol\":430:24350  contract PolicastMarketV2 is Ownable, ReentrancyGuard, AccessControl, Pausable {... */\n      swap1\n      sstore\n        /* \"v2.sol\":11341:11360  market.feeCollected */\n      add\n        /* \"v2.sol\":11341:11367  market.feeCollected += fee */\n      tag_220\n        /* \"v2.sol\":430:24350  contract PolicastMarketV2 is Ownable, ReentrancyGuard, AccessControl, Pausable {... */\n      dup7\n      dup3\n      sload\n        /* \"v2.sol\":11341:11367  market.feeCollected += fee */\n      tag_29\n      jump\t// in\n    tag_220:\n        /* \"v2.sol\":430:24350  contract PolicastMarketV2 is Ownable, ReentrancyGuard, AccessControl, Pausable {... */\n      swap1\n      sstore\n        /* \"v2.sol\":10720:10730  msg.sender */\n      caller\n        /* \"v2.sol\":430:24350  contract PolicastMarketV2 is Ownable, ReentrancyGuard, AccessControl, Pausable {... */\n      0x00\n      mstore\n        /* \"v2.sol\":6425:6451  markets[_marketId].options */\n      0x0a\n        /* \"v2.sol\":430:24350  contract PolicastMarketV2 is Ownable, ReentrancyGuard, AccessControl, Pausable {... */\n      0x20\n      mstore\n        /* \"v2.sol\":11411:11462  userPortfolios[msg.sender].totalInvested += netCost */\n      tag_221\n        /* \"v2.sol\":430:24350  contract PolicastMarketV2 is Ownable, ReentrancyGuard, AccessControl, Pausable {... */\n      keccak256(0x00, 0x40)\n      swap2\n      dup3\n      sload\n        /* \"v2.sol\":11411:11462  userPortfolios[msg.sender].totalInvested += netCost */\n      tag_29\n      jump\t// in\n    tag_221:\n        /* \"v2.sol\":430:24350  contract PolicastMarketV2 is Ownable, ReentrancyGuard, AccessControl, Pausable {... */\n      swap1\n      sstore\n        /* \"v2.sol\":10720:10730  msg.sender */\n      caller\n        /* \"v2.sol\":430:24350  contract PolicastMarketV2 is Ownable, ReentrancyGuard, AccessControl, Pausable {... */\n      0x00\n      mstore\n        /* \"v2.sol\":6425:6451  markets[_marketId].options */\n      0x0a\n        /* \"v2.sol\":430:24350  contract PolicastMarketV2 is Ownable, ReentrancyGuard, AccessControl, Pausable {... */\n      0x20\n      mstore\n      0x04\n      keccak256(0x00, 0x40)\n        /* \"v2.sol\":11472:11509  userPortfolios[msg.sender].tradeCount */\n      add\n        /* \"v2.sol\":11472:11511  userPortfolios[msg.sender].tradeCount++ */\n      tag_222\n        /* \"v2.sol\":430:24350  contract PolicastMarketV2 is Ownable, ReentrancyGuard, AccessControl, Pausable {... */\n      dup2\n      sload\n        /* \"v2.sol\":11472:11511  userPortfolios[msg.sender].tradeCount++ */\n      tag_28\n      jump\t// in\n    tag_222:\n        /* \"v2.sol\":430:24350  contract PolicastMarketV2 is Ownable, ReentrancyGuard, AccessControl, Pausable {... */\n      swap1\n      sstore\n      dup7\n      0x00\n      mstore\n        /* \"v2.sol\":6124:6131  markets */\n      0x08\n        /* \"v2.sol\":430:24350  contract PolicastMarketV2 is Ownable, ReentrancyGuard, AccessControl, Pausable {... */\n      0x20\n      mstore\n        /* \"v2.sol\":6425:6451  markets[_marketId].options */\n      0x0a\n        /* \"v2.sol\":430:24350  contract PolicastMarketV2 is Ownable, ReentrancyGuard, AccessControl, Pausable {... */\n      keccak256(0x00, 0x40)\n        /* \"v2.sol\":18000:18014  market.options */\n      add\n        /* \"v2.sol\":430:24350  contract PolicastMarketV2 is Ownable, ReentrancyGuard, AccessControl, Pausable {... */\n      dup3\n      0x00\n      mstore\n      0x20\n      mstore\n      keccak256(0x00, 0x40)\n        /* \"v2.sol\":6124:6150  markets[_marketId].endTime */\n      0x02\n        /* \"v2.sol\":18112:18130  option.totalShares */\n      dup2\n      add\n        /* \"v2.sol\":430:24350  contract PolicastMarketV2 is Ownable, ReentrancyGuard, AccessControl, Pausable {... */\n      sload\n        /* \"v2.sol\":10569:10573  1e18 */\n      0x0de0b6b3a7640000\n        /* \"v2.sol\":430:24350  contract PolicastMarketV2 is Ownable, ReentrancyGuard, AccessControl, Pausable {... */\n      dup4\n      mul\n      swap7\n      dup4\n      dup9\n      div\n        /* \"v2.sol\":10569:10573  1e18 */\n      0x0de0b6b3a7640000\n        /* \"v2.sol\":430:24350  contract PolicastMarketV2 is Ownable, ReentrancyGuard, AccessControl, Pausable {... */\n      eq\n        /* \"v2.sol\":10132:10145  _quantity > 0 */\n      dup5\n      iszero\n        /* \"v2.sol\":430:24350  contract PolicastMarketV2 is Ownable, ReentrancyGuard, AccessControl, Pausable {... */\n      or\n      iszero\n      tag_225\n      jumpi\n        /* \"v2.sol\":18152:18156  1000 */\n      0x03e8\n        /* \"v2.sol\":430:24350  contract PolicastMarketV2 is Ownable, ReentrancyGuard, AccessControl, Pausable {... */\n      dup3\n      add\n      dup1\n      swap3\n      gt\n      tag_225\n      jumpi\n        /* \"v2.sol\":12447:12475  FeeCollected(_marketId, fee) */\n      0xaf7c505ee772ec188af7067e1f73db08ab028e3d564273442b907742b9c41fa0\n        /* \"v2.sol\":18290:18328  (_quantity * 1e18) / (totalShares + k) */\n      swap9\n        /* \"v2.sol\":18349:18384  option.currentPrice + priceIncrease */\n      tag_227\n        /* \"v2.sol\":11683:11857  priceHistory[_marketId][_optionId].push(PricePoint({... */\n      tag_228\n        /* \"v2.sol\":18290:18328  (_quantity * 1e18) / (totalShares + k) */\n      swap5\n        /* \"v2.sol\":430:24350  contract PolicastMarketV2 is Ownable, ReentrancyGuard, AccessControl, Pausable {... */\n      0x04\n        /* \"v2.sol\":18290:18328  (_quantity * 1e18) / (totalShares + k) */\n      tag_229\n      dup2\n      swap7\n        /* \"v2.sol\":430:24350  contract PolicastMarketV2 is Ownable, ReentrancyGuard, AccessControl, Pausable {... */\n      0x20\n        /* \"v2.sol\":18290:18328  (_quantity * 1e18) / (totalShares + k) */\n      swap14\n      tag_30\n      jump\t// in\n    tag_229:\n        /* \"v2.sol\":18349:18368  option.currentPrice */\n      swap2\n      add\n        /* \"v2.sol\":430:24350  contract PolicastMarketV2 is Ownable, ReentrancyGuard, AccessControl, Pausable {... */\n      sload\n        /* \"v2.sol\":18349:18384  option.currentPrice + priceIncrease */\n      tag_29\n      jump\t// in\n    tag_227:\n        /* \"v2.sol\":11562:11581  option.currentPrice */\n      swap3\n      dup4\n      swap2\n      add\n        /* \"v2.sol\":430:24350  contract PolicastMarketV2 is Ownable, ReentrancyGuard, AccessControl, Pausable {... */\n      sstore\n      dup10\n      0x00\n      mstore\n        /* \"v2.sol\":11683:11695  priceHistory */\n      0x0d\n        /* \"v2.sol\":430:24350  contract PolicastMarketV2 is Ownable, ReentrancyGuard, AccessControl, Pausable {... */\n      dup9\n      mstore\n      keccak256(0x00, 0x40)\n      dup6\n      0x00\n      mstore\n      dup9\n      mstore\n      keccak256(0x00, 0x40)\n      swap1\n      mload(0x40)\n      swap3\n      tag_230\n      dup5\n      tag_11\n      jump\t// in\n    tag_230:\n      dup4\n      mstore\n        /* \"v2.sol\":6106:6121  block.timestamp */\n      timestamp\n        /* \"v2.sol\":11723:11856  PricePoint({... */\n      dup10\n      dup5\n      add\n        /* \"v2.sol\":430:24350  contract PolicastMarketV2 is Ownable, ReentrancyGuard, AccessControl, Pausable {... */\n      mstore\n      0x40\n        /* \"v2.sol\":11723:11856  PricePoint({... */\n      dup4\n      add\n        /* \"v2.sol\":430:24350  contract PolicastMarketV2 is Ownable, ReentrancyGuard, AccessControl, Pausable {... */\n      mstore\n        /* \"v2.sol\":11683:11857  priceHistory[_marketId][_optionId].push(PricePoint({... */\n      tag_32\n      jump\t// in\n    tag_228:\n        /* \"v2.sol\":12283:12318  marketTrades[_marketId].push(trade) */\n      tag_231\n        /* \"v2.sol\":430:24350  contract PolicastMarketV2 is Ownable, ReentrancyGuard, AccessControl, Pausable {... */\n      mload(0x40)\n      tag_232\n      dup2\n      tag_12\n      jump\t// in\n    tag_232:\n      dup9\n      dup2\n      mstore\n        /* \"v2.sol\":11913:12222  Trade({... */\n      dup4\n      dup8\n      dup3\n      add\n        /* \"v2.sol\":430:24350  contract PolicastMarketV2 is Ownable, ReentrancyGuard, AccessControl, Pausable {... */\n      mstore\n        /* \"v2.sol\":10720:10730  msg.sender */\n      caller\n        /* \"v2.sol\":430:24350  contract PolicastMarketV2 is Ownable, ReentrancyGuard, AccessControl, Pausable {... */\n      0x40\n        /* \"v2.sol\":11913:12222  Trade({... */\n      dup3\n      add\n        /* \"v2.sol\":430:24350  contract PolicastMarketV2 is Ownable, ReentrancyGuard, AccessControl, Pausable {... */\n      mstore\n      0x00\n      0x60\n        /* \"v2.sol\":11913:12222  Trade({... */\n      dup3\n      add\n        /* \"v2.sol\":430:24350  contract PolicastMarketV2 is Ownable, ReentrancyGuard, AccessControl, Pausable {... */\n      mstore\n        /* \"v2.sol\":11913:12222  Trade({... */\n      dup5\n      0x80\n      dup3\n      add\n        /* \"v2.sol\":430:24350  contract PolicastMarketV2 is Ownable, ReentrancyGuard, AccessControl, Pausable {... */\n      mstore\n        /* \"v2.sol\":11913:12222  Trade({... */\n      dup3\n      0xa0\n      dup3\n      add\n        /* \"v2.sol\":430:24350  contract PolicastMarketV2 is Ownable, ReentrancyGuard, AccessControl, Pausable {... */\n      mstore\n        /* \"v2.sol\":6106:6121  block.timestamp */\n      timestamp\n        /* \"v2.sol\":11913:12222  Trade({... */\n      0xc0\n      dup3\n      add\n        /* \"v2.sol\":430:24350  contract PolicastMarketV2 is Ownable, ReentrancyGuard, AccessControl, Pausable {... */\n      mstore\n      0x00\n      0xe0\n        /* \"v2.sol\":11913:12222  Trade({... */\n      dup3\n      add\n        /* \"v2.sol\":430:24350  contract PolicastMarketV2 is Ownable, ReentrancyGuard, AccessControl, Pausable {... */\n      mstore\n        /* \"v2.sol\":10720:10730  msg.sender */\n      caller\n        /* \"v2.sol\":430:24350  contract PolicastMarketV2 is Ownable, ReentrancyGuard, AccessControl, Pausable {... */\n      0x00\n      mstore\n        /* \"v2.sol\":10820:10837  market.userShares */\n      0x0b\n        /* \"v2.sol\":430:24350  contract PolicastMarketV2 is Ownable, ReentrancyGuard, AccessControl, Pausable {... */\n      dup8\n      mstore\n        /* \"v2.sol\":12233:12273  userTradeHistory[msg.sender].push(trade) */\n      tag_233\n        /* \"v2.sol\":430:24350  contract PolicastMarketV2 is Ownable, ReentrancyGuard, AccessControl, Pausable {... */\n      dup2\n      keccak256(0x00, 0x40)\n        /* \"v2.sol\":12233:12273  userTradeHistory[msg.sender].push(trade) */\n      tag_41\n      jump\t// in\n    tag_233:\n        /* \"v2.sol\":430:24350  contract PolicastMarketV2 is Ownable, ReentrancyGuard, AccessControl, Pausable {... */\n      dup9\n      0x00\n      mstore\n        /* \"v2.sol\":12283:12295  marketTrades */\n      0x0c\n        /* \"v2.sol\":430:24350  contract PolicastMarketV2 is Ownable, ReentrancyGuard, AccessControl, Pausable {... */\n      dup8\n      mstore\n      keccak256(0x00, 0x40)\n        /* \"v2.sol\":12283:12318  marketTrades[_marketId].push(trade) */\n      tag_41\n      jump\t// in\n    tag_231:\n        /* \"v2.sol\":11256:11277  market.totalLiquidity */\n      0x06\n        /* \"v2.sol\":430:24350  contract PolicastMarketV2 is Ownable, ReentrancyGuard, AccessControl, Pausable {... */\n      sload\n        /* \"v2.sol\":12419:12431  tradeCount++ */\n      swap1\n      tag_234\n      dup3\n      tag_28\n      jump\t// in\n    tag_234:\n        /* \"v2.sol\":11256:11277  market.totalLiquidity */\n      0x06\n        /* \"v2.sol\":430:24350  contract PolicastMarketV2 is Ownable, ReentrancyGuard, AccessControl, Pausable {... */\n      sstore\n      mload(0x40)\n      swap4\n      0x00\n      dup6\n      mstore\n      dup7\n      dup6\n      add\n      mstore\n      0x40\n      dup5\n      add\n      mstore\n      0x60\n      dup4\n      add\n      mstore\n        /* \"v2.sol\":10720:10730  msg.sender */\n      dup6\n        /* \"v2.sol\":12334:12432  TradeExecuted(_marketId, _optionId, msg.sender, address(0), currentPrice, _quantity, tradeCount++) */\n      0x976184626638b6c7e51a4ab66b297beb1714b545ce4e867a70d622566573098c\n        /* \"v2.sol\":11913:12222  Trade({... */\n      0x80\n        /* \"v2.sol\":10720:10730  msg.sender */\n      caller\n        /* \"v2.sol\":12334:12432  TradeExecuted(_marketId, _optionId, msg.sender, address(0), currentPrice, _quantity, tradeCount++) */\n      swap5\n      log4\n        /* \"v2.sol\":430:24350  contract PolicastMarketV2 is Ownable, ReentrancyGuard, AccessControl, Pausable {... */\n      mload(0x40)\n      swap1\n      dup2\n      mstore\n        /* \"v2.sol\":12447:12475  FeeCollected(_marketId, fee) */\n      log2\n        /* \"v2.sol\":11635:11639  true */\n      0x01\n        /* \"v2.sol\":430:24350  contract PolicastMarketV2 is Ownable, ReentrancyGuard, AccessControl, Pausable {... */\n      dup1\n      sstore\n      stop\n    tag_225:\n      mstore(0x00, shl(0xe0, 0x4e487b71))\n      mstore(0x04, 0x11)\n      revert(0x00, 0x24)\n        /* \"v2.sol\":10816:11101  if (market.userShares[msg.sender][_optionId] == 0 && _isNewParticipant(msg.sender, _marketId)) {... */\n    tag_213:\n        /* \"v2.sol\":10925:10944  market.participants */\n      0x0d\n      dup2\n      add\n        /* \"v2.sol\":430:24350  contract PolicastMarketV2 is Ownable, ReentrancyGuard, AccessControl, Pausable {... */\n      sload\n      shl(0x40, 0x01)\n      dup2\n      lt\n      iszero\n      tag_240\n      jumpi\n      dup1\n      0x01\n      tag_237\n      swap3\n      add\n        /* \"v2.sol\":10925:10944  market.participants */\n      0x0d\n      dup5\n      add\n        /* \"v2.sol\":430:24350  contract PolicastMarketV2 is Ownable, ReentrancyGuard, AccessControl, Pausable {... */\n      sstore\n        /* \"v2.sol\":10925:10944  market.participants */\n      0x0d\n      dup4\n      add\n        /* \"v2.sol\":430:24350  contract PolicastMarketV2 is Ownable, ReentrancyGuard, AccessControl, Pausable {... */\n      tag_2\n      jump\t// in\n    tag_237:\n      dup2\n      sload\n      swap1\n        /* \"v2.sol\":10694:10706  bettingToken */\n      0x03\n        /* \"v2.sol\":430:24350  contract PolicastMarketV2 is Ownable, ReentrancyGuard, AccessControl, Pausable {... */\n      shl\n        /* \"v2.sol\":10720:10730  msg.sender */\n      swap1\n      caller\n        /* \"v2.sol\":430:24350  contract PolicastMarketV2 is Ownable, ReentrancyGuard, AccessControl, Pausable {... */\n      dup3\n      shl\n      swap2\n      0x01\n      dup1\n      0xa0\n      shl\n      sub\n      swap1\n      shl\n      not\n      and\n      or\n      swap1\n      sstore\n        /* \"v2.sol\":10720:10730  msg.sender */\n      caller\n        /* \"v2.sol\":430:24350  contract PolicastMarketV2 is Ownable, ReentrancyGuard, AccessControl, Pausable {... */\n      0x00\n      mstore\n        /* \"v2.sol\":6425:6451  markets[_marketId].options */\n      0x0a\n        /* \"v2.sol\":430:24350  contract PolicastMarketV2 is Ownable, ReentrancyGuard, AccessControl, Pausable {... */\n      0x20\n      mstore\n      sload(keccak256(0x00, 0x40))\n        /* \"v2.sol\":10816:11101  if (market.userShares[msg.sender][_optionId] == 0 && _isNewParticipant(msg.sender, _marketId)) {... */\n      tag_214\n        /* \"v2.sol\":10975:11091  if (userPortfolios[msg.sender].totalInvested == 0) {... */\n      jumpi\n        /* \"v2.sol\":11044:11059  allParticipants */\n      0x12\n        /* \"v2.sol\":430:24350  contract PolicastMarketV2 is Ownable, ReentrancyGuard, AccessControl, Pausable {... */\n      sload\n      swap1\n      shl(0x40, 0x01)\n      dup3\n      lt\n      iszero\n      tag_240\n      jumpi\n      tag_242\n      dup3\n      0x01\n        /* \"v2.sol\":11341:11360  market.feeCollected */\n      0x0f\n        /* \"v2.sol\":430:24350  contract PolicastMarketV2 is Ownable, ReentrancyGuard, AccessControl, Pausable {... */\n      swap5\n      add\n        /* \"v2.sol\":11044:11059  allParticipants */\n      0x12\n        /* \"v2.sol\":430:24350  contract PolicastMarketV2 is Ownable, ReentrancyGuard, AccessControl, Pausable {... */\n      sstore\n      tag_1\n      jump\t// in\n    tag_242:\n      dup2\n      sload\n      sub(shl(0xa0, 0x01), 0x01)\n        /* \"v2.sol\":10694:10706  bettingToken */\n      0x03\n        /* \"v2.sol\":430:24350  contract PolicastMarketV2 is Ownable, ReentrancyGuard, AccessControl, Pausable {... */\n      swap3\n      swap1\n      swap3\n      shl\n      swap2\n      dup3\n      shl\n      not\n      and\n        /* \"v2.sol\":10720:10730  msg.sender */\n      caller\n        /* \"v2.sol\":430:24350  contract PolicastMarketV2 is Ownable, ReentrancyGuard, AccessControl, Pausable {... */\n      swap1\n      swap2\n      shl\n      or\n      swap1\n      sstore\n        /* \"v2.sol\":10975:11091  if (userPortfolios[msg.sender].totalInvested == 0) {... */\n      swap1\n      pop\n        /* \"v2.sol\":10816:11101  if (market.userShares[msg.sender][_optionId] == 0 && _isNewParticipant(msg.sender, _marketId)) {... */\n      jump(tag_214)\n        /* \"v2.sol\":430:24350  contract PolicastMarketV2 is Ownable, ReentrancyGuard, AccessControl, Pausable {... */\n    tag_240:\n      mstore(0x00, shl(0xe0, 0x4e487b71))\n      mstore(0x04, 0x41)\n      revert(0x00, 0x24)\n        /* \"v2.sol\":10820:10909  market.userShares[msg.sender][_optionId] == 0 && _isNewParticipant(msg.sender, _marketId) */\n    tag_211:\n        /* \"v2.sol\":10720:10730  msg.sender */\n      pop\n        /* \"v2.sol\":10869:10909  _isNewParticipant(msg.sender, _marketId) */\n      tag_243\n        /* \"v2.sol\":10720:10730  msg.sender */\n      dup10\n      caller\n        /* \"v2.sol\":10869:10909  _isNewParticipant(msg.sender, _marketId) */\n      tag_55\n      jump\t// in\n    tag_243:\n        /* \"v2.sol\":10820:10909  market.userShares[msg.sender][_optionId] == 0 && _isNewParticipant(msg.sender, _marketId) */\n      jump(tag_212)\n        /* \"v2.sol\":10694:10755  bettingToken.transferFrom(msg.sender, address(this), netCost) */\n    tag_209:\n      tag_244\n      swap2\n      pop\n        /* \"v2.sol\":430:24350  contract PolicastMarketV2 is Ownable, ReentrancyGuard, AccessControl, Pausable {... */\n      0x20\n        /* \"v2.sol\":10694:10755  bettingToken.transferFrom(msg.sender, address(this), netCost) */\n      returndatasize\n        /* \"v2.sol\":430:24350  contract PolicastMarketV2 is Ownable, ReentrancyGuard, AccessControl, Pausable {... */\n      0x20\n        /* \"v2.sol\":10694:10755  bettingToken.transferFrom(msg.sender, address(this), netCost) */\n      gt\n      tag_245\n      jumpi\n    tag_246:\n      tag_247\n      dup2\n      dup4\n      tag_13\n      jump\t// in\n    tag_247:\n      dup2\n      add\n      swap1\n      tag_42\n      jump\t// in\n    tag_244:\n      dup12\n      jump(tag_210)\n    tag_245:\n      pop\n      returndatasize\n      jump(tag_246)\n    tag_206:\n        /* \"v2.sol\":430:24350  contract PolicastMarketV2 is Ownable, ReentrancyGuard, AccessControl, Pausable {... */\n      mload(0x40)\n      returndatasize\n      0x00\n      dup3\n      returndatacopy\n      returndatasize\n      swap1\n      revert\n    tag_201:\n      mload(0x40)\n      shl(0xe5, 0x461bcd)\n      dup2\n      mstore\n      0x20\n      0x04\n      dup3\n      add\n      mstore\n      0x0e\n      0x24\n      dup3\n      add\n      mstore\n      shl(0x93, 0x0a0e4d2c6ca40e8dede40d0d2ced)\n      0x44\n      dup3\n      add\n      mstore\n      0x64\n      swap1\n      revert\n    tag_199:\n      mload(0x40)\n      shl(0xe5, 0x461bcd)\n      dup2\n      mstore\n      0x20\n      0x04\n      dup3\n      add\n      mstore\n      0x14\n      0x24\n      dup3\n      add\n      mstore\n      shl(0x62, 0x13585c9ad95d081b9bdd081d985b1a59185d1959)\n      0x44\n      dup3\n      add\n      mstore\n      0x64\n      swap1\n      revert\n    tag_160:\n      jumpi(tag_174, callvalue)\n      jumpi(tag_174, slt(add(not(0x03), calldatasize), 0x40))\n        /* \"@openzeppelin/contracts/access/AccessControl.sol\":4723:4749  _revokeRole(role, account) */\n      tag_256\n        /* \"v2.sol\":430:24350  contract PolicastMarketV2 is Ownable, ReentrancyGuard, AccessControl, Pausable {... */\n      calldataload(0x04)\n      tag_257\n      tag_4\n      jump\t// in\n    tag_257:\n      swap1\n      dup1\n      0x00\n      mstore\n        /* \"@openzeppelin/contracts/access/AccessControl.sol\":3877:3883  _roles */\n      0x02\n        /* \"v2.sol\":430:24350  contract PolicastMarketV2 is Ownable, ReentrancyGuard, AccessControl, Pausable {... */\n      0x20\n      mstore\n        /* \"@openzeppelin/contracts/access/AccessControl.sol\":2484:2488  role */\n      tag_258\n        /* \"v2.sol\":430:24350  contract PolicastMarketV2 is Ownable, ReentrancyGuard, AccessControl, Pausable {... */\n      0x01\n      keccak256(0x00, 0x40)\n        /* \"@openzeppelin/contracts/access/AccessControl.sol\":3877:3899  _roles[role].adminRole */\n      add\n        /* \"v2.sol\":430:24350  contract PolicastMarketV2 is Ownable, ReentrancyGuard, AccessControl, Pausable {... */\n      sload\n        /* \"@openzeppelin/contracts/access/AccessControl.sol\":2484:2488  role */\n      tag_47\n      jump\t// in\n    tag_258:\n        /* \"@openzeppelin/contracts/access/AccessControl.sol\":4723:4749  _revokeRole(role, account) */\n      tag_53\n      jump\t// in\n    tag_256:\n        /* \"v2.sol\":430:24350  contract PolicastMarketV2 is Ownable, ReentrancyGuard, AccessControl, Pausable {... */\n      stop\n    tag_158:\n      jumpi(tag_174, callvalue)\n        /* \"v2.sol\":22660:22686  categoryMarkets[_category] */\n      tag_261\n        /* \"v2.sol\":430:24350  contract PolicastMarketV2 is Ownable, ReentrancyGuard, AccessControl, Pausable {... */\n      tag_262\n      calldatasize\n      tag_23\n      jump\t// in\n    tag_262:\n        /* \"v2.sol\":22660:22686  categoryMarkets[_category] */\n      swap2\n      swap1\n      tag_24\n      jump\t// in\n    tag_261:\n        /* \"v2.sol\":430:24350  contract PolicastMarketV2 is Ownable, ReentrancyGuard, AccessControl, Pausable {... */\n      dup1\n      sload\n      swap1\n        /* \"v2.sol\":22770:22785  _limit > length */\n      dup2\n      dup4\n      gt\n      iszero\n      tag_263\n      jumpi\n        /* \"v2.sol\":22770:22803  _limit > length ? length : _limit */\n      dup2\n    tag_265:\n        /* \"v2.sol\":22848:22875  new uint256[](returnLength) */\n      tag_266\n      dup4\n      tag_45\n      jump\t// in\n    tag_266:\n        /* \"v2.sol\":22906:22943  length > _limit ? length - _limit : 0 */\n      swap4\n        /* \"v2.sol\":22906:22921  length > _limit */\n      dup1\n      dup3\n      gt\n      iszero\n      tag_267\n      jumpi\n        /* \"v2.sol\":22924:22939  length - _limit */\n      tag_269\n      swap2\n      tag_34\n      jump\t// in\n    tag_269:\n        /* \"v2.sol\":430:24350  contract PolicastMarketV2 is Ownable, ReentrancyGuard, AccessControl, Pausable {... */\n      0x00\n        /* \"v2.sol\":22982:22998  i < returnLength */\n    tag_271:\n      dup4\n      dup2\n      lt\n      tag_272\n      jumpi\n        /* \"v2.sol\":430:24350  contract PolicastMarketV2 is Ownable, ReentrancyGuard, AccessControl, Pausable {... */\n      mload(0x40)\n      dup1\n      tag_274\n      dup8\n      dup3\n      tag_21\n      jump\t// in\n    tag_274:\n      sub\n      swap1\n      return\n        /* \"v2.sol\":23000:23003  i++ */\n    tag_272:\n        /* \"v2.sol\":23049:23063  startIndex + i */\n      dup1\n        /* \"v2.sol\":23031:23064  categoryMarketIds[startIndex + i] */\n      tag_275\n        /* \"v2.sol\":23049:23063  startIndex + i */\n      tag_276\n        /* \"v2.sol\":430:24350  contract PolicastMarketV2 is Ownable, ReentrancyGuard, AccessControl, Pausable {... */\n      0x01\n        /* \"v2.sol\":23049:23063  startIndex + i */\n      swap4\n      dup6\n      tag_29\n      jump\t// in\n    tag_276:\n        /* \"v2.sol\":23031:23064  categoryMarketIds[startIndex + i] */\n      dup6\n      tag_2\n      jump\t// in\n    tag_275:\n        /* \"v2.sol\":430:24350  contract PolicastMarketV2 is Ownable, ReentrancyGuard, AccessControl, Pausable {... */\n      swap1\n      sload\n      swap1\n      0x03\n      shl\n      shr\n        /* \"v2.sol\":23019:23064  result[i] = categoryMarketIds[startIndex + i] */\n      tag_277\n      dup3\n      dup9\n      tag_31\n      jump\t// in\n    tag_277:\n        /* \"v2.sol\":430:24350  contract PolicastMarketV2 is Ownable, ReentrancyGuard, AccessControl, Pausable {... */\n      mstore\n      add\n        /* \"v2.sol\":22967:22980  uint256 i = 0 */\n      jump(tag_271)\n        /* \"v2.sol\":22906:22943  length > _limit ? length - _limit : 0 */\n    tag_267:\n      pop\n      pop\n        /* \"v2.sol\":430:24350  contract PolicastMarketV2 is Ownable, ReentrancyGuard, AccessControl, Pausable {... */\n      0x00\n        /* \"v2.sol\":22906:22943  length > _limit ? length - _limit : 0 */\n      jump(tag_269)\n        /* \"v2.sol\":22770:22803  _limit > length ? length : _limit */\n    tag_263:\n      dup3\n      swap2\n      jump(tag_265)\n        /* \"v2.sol\":430:24350  contract PolicastMarketV2 is Ownable, ReentrancyGuard, AccessControl, Pausable {... */\n    tag_156:\n      jumpi(tag_174, callvalue)\n      jumpi(tag_174, slt(add(not(0x03), calldatasize), 0x00))\n      0x20\n        /* \"v2.sol\":3448:3473  uint256 public tradeCount */\n      0x06\n        /* \"v2.sol\":430:24350  contract PolicastMarketV2 is Ownable, ReentrancyGuard, AccessControl, Pausable {... */\n      sload\n      mload(0x40)\n      swap1\n      dup2\n      mstore\n      return\n    tag_154:\n      jumpi(tag_174, callvalue)\n      jumpi(tag_174, slt(add(not(0x03), calldatasize), 0x20))\n      sub(shl(0xa0, 0x01), 0x01)\n      tag_286\n      tag_3\n      jump\t// in\n    tag_286:\n      and\n      0x00\n      mstore\n        /* \"v2.sol\":3816:3871  mapping(address => UserPortfolio) public userPortfolios */\n      0x0a\n        /* \"v2.sol\":430:24350  contract PolicastMarketV2 is Ownable, ReentrancyGuard, AccessControl, Pausable {... */\n      0x20\n      mstore\n      0xa0\n      keccak256(0x00, 0x40)\n      dup1\n      sload\n        /* \"v2.sol\":3816:3871  mapping(address => UserPortfolio) public userPortfolios */\n      swap1\n      0x01\n      dup2\n      add\n        /* \"v2.sol\":430:24350  contract PolicastMarketV2 is Ownable, ReentrancyGuard, AccessControl, Pausable {... */\n      sload\n        /* \"v2.sol\":3816:3871  mapping(address => UserPortfolio) public userPortfolios */\n      swap1\n      0x02\n      dup2\n      add\n        /* \"v2.sol\":430:24350  contract PolicastMarketV2 is Ownable, ReentrancyGuard, AccessControl, Pausable {... */\n      sload\n      0x04\n        /* \"v2.sol\":3816:3871  mapping(address => UserPortfolio) public userPortfolios */\n      0x03\n      dup4\n      add\n        /* \"v2.sol\":430:24350  contract PolicastMarketV2 is Ownable, ReentrancyGuard, AccessControl, Pausable {... */\n      sload\n        /* \"v2.sol\":3816:3871  mapping(address => UserPortfolio) public userPortfolios */\n      swap3\n      add\n        /* \"v2.sol\":430:24350  contract PolicastMarketV2 is Ownable, ReentrancyGuard, AccessControl, Pausable {... */\n      sload\n      swap3\n      mload(0x40)\n      swap5\n      dup6\n      mstore\n      0x20\n      dup6\n      add\n      mstore\n      0x40\n      dup5\n      add\n      mstore\n      0x60\n      dup4\n      add\n      mstore\n      0x80\n      dup3\n      add\n      mstore\n      return\n    tag_152:\n      jumpi(tag_174, callvalue)\n      tag_289\n      calldatasize\n      tag_8\n      jump\t// in\n    tag_289:\n      swap1\n      0x00\n      mstore\n        /* \"v2.sol\":17693:17700  markets */\n      0x08\n        /* \"v2.sol\":430:24350  contract PolicastMarketV2 is Ownable, ReentrancyGuard, AccessControl, Pausable {... */\n      0x20\n      mstore\n        /* \"v2.sol\":17728:17742  market.options */\n      0x0a\n        /* \"v2.sol\":430:24350  contract PolicastMarketV2 is Ownable, ReentrancyGuard, AccessControl, Pausable {... */\n      keccak256(0x00, 0x40)\n        /* \"v2.sol\":17728:17742  market.options */\n      add\n        /* \"v2.sol\":430:24350  contract PolicastMarketV2 is Ownable, ReentrancyGuard, AccessControl, Pausable {... */\n      swap1\n      0x00\n      mstore\n      0x20\n      mstore\n      0x20\n      0x04\n      keccak256(0x00, 0x40)\n        /* \"v2.sol\":17728:17766  market.options[_optionId].currentPrice */\n      add\n        /* \"v2.sol\":430:24350  contract PolicastMarketV2 is Ownable, ReentrancyGuard, AccessControl, Pausable {... */\n      sload\n      mload(0x40)\n      swap1\n      dup2\n      mstore\n      return\n    tag_150:\n      jumpi(tag_174, callvalue)\n      jumpi(tag_174, slt(add(not(0x03), calldatasize), 0x20))\n      mstore(0x00, calldataload(0x04))\n        /* \"v2.sol\":3724:3765  mapping(uint256 => Market) public markets */\n      0x08\n        /* \"v2.sol\":430:24350  contract PolicastMarketV2 is Ownable, ReentrancyGuard, AccessControl, Pausable {... */\n      0x20\n      mstore\n      keccak256(0x00, 0x40)\n      tag_294\n        /* \"v2.sol\":3724:3765  mapping(uint256 => Market) public markets */\n      tag_295\n      dup3\n      tag_26\n      jump\t// in\n    tag_295:\n      swap2\n      tag_296\n        /* \"v2.sol\":430:24350  contract PolicastMarketV2 is Ownable, ReentrancyGuard, AccessControl, Pausable {... */\n      0x01\n        /* \"v2.sol\":3724:3765  mapping(uint256 => Market) public markets */\n      dup3\n      add\n      tag_26\n      jump\t// in\n    tag_296:\n      swap3\n      0x02\n      dup3\n      add\n        /* \"v2.sol\":430:24350  contract PolicastMarketV2 is Ownable, ReentrancyGuard, AccessControl, Pausable {... */\n      sload\n        /* \"v2.sol\":3724:3765  mapping(uint256 => Market) public markets */\n      swap2\n        /* \"v2.sol\":430:24350  contract PolicastMarketV2 is Ownable, ReentrancyGuard, AccessControl, Pausable {... */\n      0xff\n        /* \"v2.sol\":3724:3765  mapping(uint256 => Market) public markets */\n      0x03\n      dup3\n      add\n        /* \"v2.sol\":430:24350  contract PolicastMarketV2 is Ownable, ReentrancyGuard, AccessControl, Pausable {... */\n      sload\n      and\n      0x04\n        /* \"v2.sol\":3724:3765  mapping(uint256 => Market) public markets */\n      dup3\n      add\n        /* \"v2.sol\":430:24350  contract PolicastMarketV2 is Ownable, ReentrancyGuard, AccessControl, Pausable {... */\n      sload\n        /* \"v2.sol\":3724:3765  mapping(uint256 => Market) public markets */\n      0x05\n      dup4\n      add\n        /* \"v2.sol\":430:24350  contract PolicastMarketV2 is Ownable, ReentrancyGuard, AccessControl, Pausable {... */\n      sload\n        /* \"v2.sol\":3724:3765  mapping(uint256 => Market) public markets */\n      0x06\n      dup5\n      add\n        /* \"v2.sol\":430:24350  contract PolicastMarketV2 is Ownable, ReentrancyGuard, AccessControl, Pausable {... */\n      sload\n        /* \"v2.sol\":3724:3765  mapping(uint256 => Market) public markets */\n      0x07\n      dup6\n      add\n        /* \"v2.sol\":430:24350  contract PolicastMarketV2 is Ownable, ReentrancyGuard, AccessControl, Pausable {... */\n      sload\n        /* \"v2.sol\":3724:3765  mapping(uint256 => Market) public markets */\n      swap2\n      0x08\n      dup7\n      add\n        /* \"v2.sol\":430:24350  contract PolicastMarketV2 is Ownable, ReentrancyGuard, AccessControl, Pausable {... */\n      sload\n        /* \"v2.sol\":3724:3765  mapping(uint256 => Market) public markets */\n      swap4\n        /* \"v2.sol\":430:24350  contract PolicastMarketV2 is Ownable, ReentrancyGuard, AccessControl, Pausable {... */\n      tag_297\n        /* \"v2.sol\":3724:3765  mapping(uint256 => Market) public markets */\n      0x09\n      dup9\n      add\n        /* \"v2.sol\":430:24350  contract PolicastMarketV2 is Ownable, ReentrancyGuard, AccessControl, Pausable {... */\n      sload\n        /* \"v2.sol\":3724:3765  mapping(uint256 => Market) public markets */\n      swap7\n        /* \"v2.sol\":430:24350  contract PolicastMarketV2 is Ownable, ReentrancyGuard, AccessControl, Pausable {... */\n      tag_298\n        /* \"v2.sol\":3724:3765  mapping(uint256 => Market) public markets */\n      0x0f\n      0x0e\n      dup12\n      add\n        /* \"v2.sol\":430:24350  contract PolicastMarketV2 is Ownable, ReentrancyGuard, AccessControl, Pausable {... */\n      sload\n        /* \"v2.sol\":3724:3765  mapping(uint256 => Market) public markets */\n      swap11\n      add\n        /* \"v2.sol\":430:24350  contract PolicastMarketV2 is Ownable, ReentrancyGuard, AccessControl, Pausable {... */\n      sload\n      swap11\n      mload(0x40)\n      swap15\n      dup16\n      swap15\n      dup16\n      swap3\n      0x01e0\n      dup1\n      dup6\n      mstore\n      dup5\n      add\n      swap1\n      tag_17\n      jump\t// in\n    tag_294:\n      swap2\n      0x20\n      dup2\n      dup5\n      sub\n      swap2\n      add\n      mstore\n      tag_17\n      jump\t// in\n    tag_298:\n      swap11\n      0x40\n      dup14\n      add\n      mstore\n      0x60\n      dup13\n      add\n      swap1\n      tag_18\n      jump\t// in\n    tag_297:\n      0x80\n      dup11\n      add\n      mstore\n      0xff\n      dup2\n      dup2\n      and\n      iszero\n      iszero\n      0xa0\n      dup12\n      add\n      mstore\n        /* \"v2.sol\":3724:3765  mapping(uint256 => Market) public markets */\n      0x08\n        /* \"v2.sol\":430:24350  contract PolicastMarketV2 is Ownable, ReentrancyGuard, AccessControl, Pausable {... */\n      dup3\n      swap1\n      shr\n      dup2\n      and\n      iszero\n      iszero\n      0xc0\n      dup12\n      add\n      mstore\n      0x10\n      dup3\n      swap1\n      shr\n      and\n      iszero\n      iszero\n      0xe0\n      dup11\n      add\n      mstore\n      0x18\n      shr\n      sub(shl(0xa0, 0x01), 0x01)\n      and\n      0x0100\n      dup10\n      add\n      mstore\n      0x0120\n      dup9\n      add\n      mstore\n      0x0140\n      dup8\n      add\n      mstore\n      0x0160\n      dup7\n      add\n      mstore\n      0x0180\n      dup6\n      add\n      mstore\n      0x01a0\n      dup5\n      add\n      mstore\n      0x01c0\n      dup4\n      add\n      mstore\n      sub\n      swap1\n      return\n    tag_148:\n      jumpi(tag_174, callvalue)\n      jumpi(tag_174, slt(add(not(0x03), calldatasize), 0x20))\n        /* \"@openzeppelin/contracts/access/AccessControl.sol\":4306:4331  _grantRole(role, account) */\n      tag_256\n        /* \"v2.sol\":430:24350  contract PolicastMarketV2 is Ownable, ReentrancyGuard, AccessControl, Pausable {... */\n      tag_304\n      tag_3\n      jump\t// in\n    tag_304:\n        /* \"@openzeppelin/contracts/access/Ownable.sol\":1500:1562  modifier onlyOwner() {... */\n      tag_305\n      tag_52\n      jump\t// in\n    tag_305:\n      0x00\n      dup1\n      mload\n      0x20\n      data_860935a53c6b0c8ee6d33171a40b66407cec30e1ca1fb8ad5b1ec07e62732162\n      dup4\n      codecopy\n      dup2\n      mload\n      swap2\n      mstore\n        /* \"v2.sol\":430:24350  contract PolicastMarketV2 is Ownable, ReentrancyGuard, AccessControl, Pausable {... */\n      0x00\n      mstore\n        /* \"@openzeppelin/contracts/access/AccessControl.sol\":3877:3883  _roles */\n      0x02\n        /* \"v2.sol\":430:24350  contract PolicastMarketV2 is Ownable, ReentrancyGuard, AccessControl, Pausable {... */\n      0x20\n      mstore\n        /* \"@openzeppelin/contracts/access/AccessControl.sol\":3877:3899  _roles[role].adminRole */\n      0xd3dccf8d8289b9deee17e361620d7577de7b525dd57f668d5c1bb85ec53112b6\n        /* \"v2.sol\":430:24350  contract PolicastMarketV2 is Ownable, ReentrancyGuard, AccessControl, Pausable {... */\n      sload\n        /* \"@openzeppelin/contracts/access/AccessControl.sol\":2484:2488  role */\n      tag_306\n      swap1\n      tag_47\n      jump\t// in\n    tag_306:\n        /* \"@openzeppelin/contracts/access/AccessControl.sol\":4306:4331  _grantRole(role, account) */\n      tag_50\n      jump\t// in\n        /* \"v2.sol\":430:24350  contract PolicastMarketV2 is Ownable, ReentrancyGuard, AccessControl, Pausable {... */\n    tag_146:\n      jumpi(tag_174, callvalue)\n      0x20\n      dup1\n      add(calldatasize, not(0x03))\n      slt\n      tag_174\n      jumpi\n      calldataload(0x04)\n      swap1\n        /* \"v2.sol\":5966:6023  require(_marketId < marketCount, \"Market does not exist\") */\n      tag_311\n        /* \"v2.sol\":430:24350  contract PolicastMarketV2 is Ownable, ReentrancyGuard, AccessControl, Pausable {... */\n      sload(0x04)\n        /* \"v2.sol\":5974:5997  _marketId < marketCount */\n      dup4\n      lt\n        /* \"v2.sol\":5966:6023  require(_marketId < marketCount, \"Market does not exist\") */\n      tag_33\n      jump\t// in\n    tag_311:\n      0x00\n      dup1\n      mload\n      0x20\n      data_860935a53c6b0c8ee6d33171a40b66407cec30e1ca1fb8ad5b1ec07e62732162\n      dup4\n      codecopy\n      dup2\n      mload\n      swap2\n      mstore\n        /* \"v2.sol\":430:24350  contract PolicastMarketV2 is Ownable, ReentrancyGuard, AccessControl, Pausable {... */\n      0x00\n      mstore\n        /* \"@openzeppelin/contracts/access/AccessControl.sol\":2930:2936  _roles */\n      0x02\n        /* \"v2.sol\":430:24350  contract PolicastMarketV2 is Ownable, ReentrancyGuard, AccessControl, Pausable {... */\n      dup2\n      mstore\n      keccak256(0x00, 0x40)\n        /* \"v2.sol\":9580:9590  msg.sender */\n      caller\n        /* \"v2.sol\":430:24350  contract PolicastMarketV2 is Ownable, ReentrancyGuard, AccessControl, Pausable {... */\n      0x00\n      mstore\n      dup2\n      mstore\n      and(sload(keccak256(0x00, 0x40)), 0xff)\n        /* \"v2.sol\":9549:9616  hasRole(MARKET_VALIDATOR_ROLE, msg.sender) || msg.sender == owner() */\n      dup1\n      iszero\n      tag_312\n      jumpi\n        /* \"v2.sol\":430:24350  contract PolicastMarketV2 is Ownable, ReentrancyGuard, AccessControl, Pausable {... */\n    tag_313:\n      iszero\n      tag_314\n      jumpi\n      dup2\n      0x00\n      mstore\n        /* \"v2.sol\":9654:9661  markets */\n      0x08\n        /* \"v2.sol\":430:24350  contract PolicastMarketV2 is Ownable, ReentrancyGuard, AccessControl, Pausable {... */\n      dup2\n      mstore\n      0xff\n        /* \"v2.sol\":9654:9682  markets[_marketId].validated */\n      0x05\n        /* \"v2.sol\":430:24350  contract PolicastMarketV2 is Ownable, ReentrancyGuard, AccessControl, Pausable {... */\n      keccak256(0x00, 0x40)\n        /* \"v2.sol\":9654:9682  markets[_marketId].validated */\n      add\n        /* \"v2.sol\":430:24350  contract PolicastMarketV2 is Ownable, ReentrancyGuard, AccessControl, Pausable {... */\n      sload\n      0x10\n      shr\n      and\n      tag_316\n      jumpi\n        /* \"v2.sol\":9780:9818  MarketValidated(_marketId, msg.sender) */\n      0xcd5b0c95d548cdba5f9a45b4210642d0b866a0cc878e0a863855455908c6db65\n        /* \"v2.sol\":430:24350  contract PolicastMarketV2 is Ownable, ReentrancyGuard, AccessControl, Pausable {... */\n      swap1\n      dup3\n      0x00\n      mstore\n        /* \"v2.sol\":9654:9661  markets */\n      0x08\n        /* \"v2.sol\":430:24350  contract PolicastMarketV2 is Ownable, ReentrancyGuard, AccessControl, Pausable {... */\n      dup2\n      mstore\n        /* \"v2.sol\":9654:9682  markets[_marketId].validated */\n      0x05\n        /* \"v2.sol\":430:24350  contract PolicastMarketV2 is Ownable, ReentrancyGuard, AccessControl, Pausable {... */\n      keccak256(0x00, 0x40)\n        /* \"v2.sol\":9730:9758  markets[_marketId].validated */\n      add\n        /* \"v2.sol\":430:24350  contract PolicastMarketV2 is Ownable, ReentrancyGuard, AccessControl, Pausable {... */\n      0x010000\n      not(0xff0000)\n      dup3\n      sload\n      and\n      or\n      swap1\n      sstore\n      mload(0x40)\n        /* \"v2.sol\":9580:9590  msg.sender */\n      caller\n        /* \"v2.sol\":430:24350  contract PolicastMarketV2 is Ownable, ReentrancyGuard, AccessControl, Pausable {... */\n      dup2\n      mstore\n        /* \"v2.sol\":9780:9818  MarketValidated(_marketId, msg.sender) */\n      log2\n        /* \"v2.sol\":430:24350  contract PolicastMarketV2 is Ownable, ReentrancyGuard, AccessControl, Pausable {... */\n      stop\n    tag_316:\n      0x64\n      swap1\n      mload(0x40)\n      swap1\n      shl(0xe5, 0x461bcd)\n      dup3\n      mstore\n      0x04\n      dup3\n      add\n      mstore\n      0x18\n      0x24\n      dup3\n      add\n      mstore\n      0x4d61726b657420616c72656164792076616c6964617465640000000000000000\n      0x44\n      dup3\n      add\n      mstore\n      revert\n    tag_314:\n      0x64\n      swap1\n      mload(0x40)\n      swap1\n      shl(0xe5, 0x461bcd)\n      dup3\n      mstore\n      0x04\n      dup3\n      add\n      mstore\n      0x0e\n      0x24\n      dup3\n      add\n      mstore\n      shl(0x92, 0x139bdd08185d5d1a1bdc9a5e9959)\n      0x44\n      dup3\n      add\n      mstore\n      revert\n        /* \"v2.sol\":9549:9616  hasRole(MARKET_VALIDATOR_ROLE, msg.sender) || msg.sender == owner() */\n    tag_312:\n      pop\n        /* \"v2.sol\":430:24350  contract PolicastMarketV2 is Ownable, ReentrancyGuard, AccessControl, Pausable {... */\n      and(sub(shl(0xa0, 0x01), 0x01), sload(0x00))\n        /* \"v2.sol\":9580:9590  msg.sender */\n      caller\n        /* \"v2.sol\":9595:9616  msg.sender == owner() */\n      eq\n        /* \"v2.sol\":9549:9616  hasRole(MARKET_VALIDATOR_ROLE, msg.sender) || msg.sender == owner() */\n      jump(tag_313)\n        /* \"v2.sol\":430:24350  contract PolicastMarketV2 is Ownable, ReentrancyGuard, AccessControl, Pausable {... */\n    tag_144:\n      jumpi(tag_174, callvalue)\n        /* \"v2.sol\":4234:4293  mapping(MarketCategory => uint256[]) public categoryMarkets */\n      tag_320\n        /* \"v2.sol\":430:24350  contract PolicastMarketV2 is Ownable, ReentrancyGuard, AccessControl, Pausable {... */\n      tag_262\n      calldatasize\n      tag_23\n      jump\t// in\n        /* \"v2.sol\":4234:4293  mapping(MarketCategory => uint256[]) public categoryMarkets */\n    tag_320:\n        /* \"v2.sol\":430:24350  contract PolicastMarketV2 is Ownable, ReentrancyGuard, AccessControl, Pausable {... */\n      dup1\n      sload\n        /* \"v2.sol\":4234:4293  mapping(MarketCategory => uint256[]) public categoryMarkets */\n      dup3\n      lt\n      iszero\n      tag_174\n      jumpi\n        /* \"v2.sol\":430:24350  contract PolicastMarketV2 is Ownable, ReentrancyGuard, AccessControl, Pausable {... */\n      0x20\n        /* \"v2.sol\":4234:4293  mapping(MarketCategory => uint256[]) public categoryMarkets */\n      swap2\n      tag_324\n      swap2\n      tag_2\n      jump\t// in\n    tag_324:\n        /* \"v2.sol\":430:24350  contract PolicastMarketV2 is Ownable, ReentrancyGuard, AccessControl, Pausable {... */\n      swap1\n      sload\n      mload(0x40)\n      swap2\n      0x03\n      shl\n      shr\n      dup2\n      mstore\n      return\n    tag_142:\n      jumpi(tag_174, callvalue)\n      jumpi(tag_174, slt(add(not(0x03), calldatasize), 0x20))\n      mstore(0x00, calldataload(0x04))\n        /* \"v2.sol\":3771:3810  mapping(uint256 => Order) public orders */\n      0x09\n        /* \"v2.sol\":430:24350  contract PolicastMarketV2 is Ownable, ReentrancyGuard, AccessControl, Pausable {... */\n      0x20\n      mstore\n      0x0160\n      keccak256(0x00, 0x40)\n      dup1\n      sload\n        /* \"v2.sol\":3771:3810  mapping(uint256 => Order) public orders */\n      swap1\n        /* \"v2.sol\":430:24350  contract PolicastMarketV2 is Ownable, ReentrancyGuard, AccessControl, Pausable {... */\n      0x01\n        /* \"v2.sol\":3771:3810  mapping(uint256 => Order) public orders */\n      dup2\n      add\n        /* \"v2.sol\":430:24350  contract PolicastMarketV2 is Ownable, ReentrancyGuard, AccessControl, Pausable {... */\n      sload\n        /* \"v2.sol\":3771:3810  mapping(uint256 => Order) public orders */\n      swap1\n      0x02\n      dup2\n      add\n        /* \"v2.sol\":430:24350  contract PolicastMarketV2 is Ownable, ReentrancyGuard, AccessControl, Pausable {... */\n      sload\n        /* \"v2.sol\":3771:3810  mapping(uint256 => Order) public orders */\n      0x03\n      dup3\n      add\n        /* \"v2.sol\":430:24350  contract PolicastMarketV2 is Ownable, ReentrancyGuard, AccessControl, Pausable {... */\n      sload\n      0xff\n      dup2\n      0xa0\n      shr\n      and\n      0xff\n      dup3\n      0xa8\n      shr\n      and\n      0x04\n        /* \"v2.sol\":3771:3810  mapping(uint256 => Order) public orders */\n      dup6\n      add\n        /* \"v2.sol\":430:24350  contract PolicastMarketV2 is Ownable, ReentrancyGuard, AccessControl, Pausable {... */\n      sload\n        /* \"v2.sol\":3771:3810  mapping(uint256 => Order) public orders */\n      swap2\n      0x05\n      dup7\n      add\n        /* \"v2.sol\":430:24350  contract PolicastMarketV2 is Ownable, ReentrancyGuard, AccessControl, Pausable {... */\n      sload\n        /* \"v2.sol\":3771:3810  mapping(uint256 => Order) public orders */\n      swap4\n      0x06\n      dup8\n      add\n        /* \"v2.sol\":430:24350  contract PolicastMarketV2 is Ownable, ReentrancyGuard, AccessControl, Pausable {... */\n      sload\n        /* \"v2.sol\":3771:3810  mapping(uint256 => Order) public orders */\n      swap6\n        /* \"v2.sol\":430:24350  contract PolicastMarketV2 is Ownable, ReentrancyGuard, AccessControl, Pausable {... */\n      0xff\n        /* \"v2.sol\":3771:3810  mapping(uint256 => Order) public orders */\n      0x08\n      0x07\n      dup11\n      add\n        /* \"v2.sol\":430:24350  contract PolicastMarketV2 is Ownable, ReentrancyGuard, AccessControl, Pausable {... */\n      sload\n        /* \"v2.sol\":3771:3810  mapping(uint256 => Order) public orders */\n      swap10\n      add\n        /* \"v2.sol\":430:24350  contract PolicastMarketV2 is Ownable, ReentrancyGuard, AccessControl, Pausable {... */\n      sload\n      and\n      swap9\n      mload(0x40)\n      swap11\n      dup12\n      mstore\n      0x20\n      dup12\n      add\n      mstore\n      0x40\n      dup11\n      add\n      mstore\n      0x01\n      dup1\n      0xa0\n      shl\n      sub\n      and\n      0x60\n      dup10\n      add\n      mstore\n      tag_329\n      dup2\n      tag_6\n      jump\t// in\n    tag_329:\n      0x80\n      dup9\n      add\n      mstore\n      tag_330\n      dup2\n      tag_6\n      jump\t// in\n    tag_330:\n      0xa0\n      dup8\n      add\n      mstore\n      0xc0\n      dup7\n      add\n      mstore\n      0xe0\n      dup6\n      add\n      mstore\n      0x0100\n      dup5\n      add\n      mstore\n      0x0120\n      dup4\n      add\n      mstore\n      iszero\n      iszero\n      0x0140\n      dup3\n      add\n      mstore\n      return\n    tag_140:\n      jumpi(tag_174, callvalue)\n      tag_333\n      calldatasize\n      tag_20\n      jump\t// in\n    tag_333:\n      swap2\n      0x00\n      mstore\n        /* \"v2.sol\":3987:4059  mapping(uint256 => mapping(uint256 => PricePoint[])) public priceHistory */\n      0x0d\n        /* \"v2.sol\":430:24350  contract PolicastMarketV2 is Ownable, ReentrancyGuard, AccessControl, Pausable {... */\n      0x20\n      mstore\n      keccak256(0x00, 0x40)\n      swap1\n      0x00\n      mstore\n      0x20\n      mstore\n      keccak256(0x00, 0x40)\n      dup1\n      sload\n        /* \"v2.sol\":3987:4059  mapping(uint256 => mapping(uint256 => PricePoint[])) public priceHistory */\n      dup3\n      lt\n      iszero\n      tag_174\n      jumpi\n        /* \"v2.sol\":430:24350  contract PolicastMarketV2 is Ownable, ReentrancyGuard, AccessControl, Pausable {... */\n      0x60\n        /* \"v2.sol\":3987:4059  mapping(uint256 => mapping(uint256 => PricePoint[])) public priceHistory */\n      swap2\n      tag_336\n      swap2\n      tag_22\n      jump\t// in\n    tag_336:\n        /* \"v2.sol\":430:24350  contract PolicastMarketV2 is Ownable, ReentrancyGuard, AccessControl, Pausable {... */\n      pop\n      dup1\n      sload\n        /* \"v2.sol\":3987:4059  mapping(uint256 => mapping(uint256 => PricePoint[])) public priceHistory */\n      swap1\n      0x02\n      0x01\n      dup3\n      add\n        /* \"v2.sol\":430:24350  contract PolicastMarketV2 is Ownable, ReentrancyGuard, AccessControl, Pausable {... */\n      sload\n        /* \"v2.sol\":3987:4059  mapping(uint256 => mapping(uint256 => PricePoint[])) public priceHistory */\n      swap2\n      add\n        /* \"v2.sol\":430:24350  contract PolicastMarketV2 is Ownable, ReentrancyGuard, AccessControl, Pausable {... */\n      sload\n      swap1\n      mload(0x40)\n      swap3\n      dup4\n      mstore\n      0x20\n      dup4\n      add\n      mstore\n      0x40\n      dup3\n      add\n      mstore\n      return\n    tag_138:\n      jumpi(tag_174, callvalue)\n      jumpi(tag_174, slt(add(not(0x03), calldatasize), 0x00))\n      0x20\n      mload(0x40)\n      0x00\n      dup2\n      mstore\n      return\n    tag_136:\n      jumpi(tag_174, callvalue)\n      jumpi(tag_174, slt(add(not(0x03), calldatasize), 0x00))\n      0x20\n      mload(0x40)\n        /* \"v2.sol\":3634:3641  1 hours */\n      0x0e10\n        /* \"v2.sol\":430:24350  contract PolicastMarketV2 is Ownable, ReentrancyGuard, AccessControl, Pausable {... */\n      dup2\n      mstore\n      return\n    tag_134:\n      jumpi(tag_174, callvalue)\n      jumpi(tag_174, slt(add(not(0x03), calldatasize), 0x20))\n      calldataload(0x04)\n        /* \"@openzeppelin/contracts/access/Ownable.sol\":1500:1562  modifier onlyOwner() {... */\n      tag_349\n      tag_52\n      jump\t// in\n    tag_349:\n        /* \"v2.sol\":7043:7047  1000 */\n      0x03e8\n        /* \"v2.sol\":7031:7047  _feeRate <= 1000 */\n      dup2\n      gt\n        /* \"v2.sol\":430:24350  contract PolicastMarketV2 is Ownable, ReentrancyGuard, AccessControl, Pausable {... */\n      tag_350\n      jumpi\n        /* \"v2.sol\":7090:7116  platformFeeRate = _feeRate */\n      0x07\n        /* \"v2.sol\":430:24350  contract PolicastMarketV2 is Ownable, ReentrancyGuard, AccessControl, Pausable {... */\n      sstore\n      stop\n    tag_350:\n      mload(0x40)\n      shl(0xe5, 0x461bcd)\n      dup2\n      mstore\n      0x20\n      0x04\n      dup3\n      add\n      mstore\n      0x11\n      0x24\n      dup3\n      add\n      mstore\n      shl(0x7b, 0x08ccaca40e4c2e8ca40e8dede40d0d2ced)\n      0x44\n      dup3\n      add\n      mstore\n      0x64\n      swap1\n      revert\n    tag_132:\n      jumpi(tag_174, callvalue)\n      jumpi(tag_174, slt(add(not(0x03), calldatasize), 0x40))\n      tag_356\n      tag_4\n      jump\t// in\n    tag_356:\n      mstore(0x00, calldataload(0x04))\n        /* \"@openzeppelin/contracts/access/AccessControl.sol\":2930:2936  _roles */\n      0x02\n        /* \"v2.sol\":430:24350  contract PolicastMarketV2 is Ownable, ReentrancyGuard, AccessControl, Pausable {... */\n      0x20\n      mstore\n      keccak256(0x00, 0x40)\n      swap1\n      0x01\n      dup1\n      0xa0\n      shl\n      sub\n      and\n      0x00\n      mstore\n      0x20\n      mstore\n      0x20\n      and(sload(keccak256(0x00, 0x40)), 0xff)\n      mload(0x40)\n      swap1\n      iszero\n      iszero\n      dup2\n      mstore\n      return\n    tag_130:\n      jumpi(tag_174, callvalue)\n      jumpi(tag_174, slt(add(not(0x03), calldatasize), 0x00))\n      sload(0x00)\n      mload(0x40)\n      sub(shl(0xa0, 0x01), 0x01)\n      swap1\n      swap2\n      and\n      dup2\n      mstore\n      0x20\n      swap1\n      return\n    tag_128:\n      jumpi(tag_174, callvalue)\n      jumpi(tag_174, slt(add(not(0x03), calldatasize), 0x20))\n      sub(shl(0xa0, 0x01), 0x01)\n      tag_365\n      tag_3\n      jump\t// in\n    tag_365:\n      and\n      0x00\n      mstore\n        /* \"v2.sol\":4299:4347  mapping(address => uint256) public totalWinnings */\n      0x11\n        /* \"v2.sol\":430:24350  contract PolicastMarketV2 is Ownable, ReentrancyGuard, AccessControl, Pausable {... */\n      0x20\n      mstore\n      0x20\n      sload(keccak256(0x00, 0x40))\n      mload(0x40)\n      swap1\n      dup2\n      mstore\n      return\n    tag_126:\n      jumpi(tag_174, callvalue)\n      jumpi(tag_174, slt(add(not(0x03), calldatasize), 0x40))\n      tag_370\n      tag_3\n      jump\t// in\n    tag_370:\n      sub(shl(0xa0, 0x01), 0x01)\n      and\n      0x00\n      swap1\n      dup2\n      mstore\n        /* \"v2.sol\":4181:4228  mapping(address => uint256[]) public userOrders */\n      0x0f\n        /* \"v2.sol\":430:24350  contract PolicastMarketV2 is Ownable, ReentrancyGuard, AccessControl, Pausable {... */\n      0x20\n      mstore\n      0x40\n      swap1\n      keccak256\n      dup1\n      sload\n      calldataload(0x24)\n      swap2\n      swap1\n        /* \"v2.sol\":4181:4228  mapping(address => uint256[]) public userOrders */\n      dup3\n      lt\n      iszero\n      tag_174\n      jumpi\n        /* \"v2.sol\":430:24350  contract PolicastMarketV2 is Ownable, ReentrancyGuard, AccessControl, Pausable {... */\n      0x20\n        /* \"v2.sol\":4181:4228  mapping(address => uint256[]) public userOrders */\n      swap2\n      tag_324\n      swap2\n      tag_2\n      jump\t// in\n        /* \"v2.sol\":430:24350  contract PolicastMarketV2 is Ownable, ReentrancyGuard, AccessControl, Pausable {... */\n    tag_124:\n      jumpi(tag_174, callvalue)\n      jumpi(tag_174, slt(add(not(0x03), calldatasize), 0x00))\n        /* \"@openzeppelin/contracts/access/Ownable.sol\":1500:1562  modifier onlyOwner() {... */\n      tag_378\n      tag_52\n      jump\t// in\n    tag_378:\n        /* \"@openzeppelin/contracts/utils/Pausable.sol\":1315:1387  modifier whenNotPaused() {... */\n      tag_379\n      tag_46\n      jump\t// in\n    tag_379:\n        /* \"@openzeppelin/contracts/utils/Pausable.sol\":2408:2412  true */\n      0x01\n        /* \"v2.sol\":430:24350  contract PolicastMarketV2 is Ownable, ReentrancyGuard, AccessControl, Pausable {... */\n      not(0xff)\n        /* \"@openzeppelin/contracts/utils/Pausable.sol\":2398:2412  _paused = true */\n      0x03\n        /* \"v2.sol\":430:24350  contract PolicastMarketV2 is Ownable, ReentrancyGuard, AccessControl, Pausable {... */\n      sload\n      and\n      or\n        /* \"@openzeppelin/contracts/utils/Pausable.sol\":2398:2412  _paused = true */\n      0x03\n        /* \"v2.sol\":430:24350  contract PolicastMarketV2 is Ownable, ReentrancyGuard, AccessControl, Pausable {... */\n      sstore\n        /* \"@openzeppelin/contracts/utils/Pausable.sol\":2427:2447  Paused(_msgSender()) */\n      0x62e78cea01bee320cd4e420270b5ea74000d11b0c9f74754ebdbfc544b05a258\n        /* \"v2.sol\":430:24350  contract PolicastMarketV2 is Ownable, ReentrancyGuard, AccessControl, Pausable {... */\n      0x20\n      mload(0x40)\n        /* \"@openzeppelin/contracts/utils/Context.sol\":735:745  msg.sender */\n      caller\n        /* \"v2.sol\":430:24350  contract PolicastMarketV2 is Ownable, ReentrancyGuard, AccessControl, Pausable {... */\n      dup2\n      mstore\n        /* \"@openzeppelin/contracts/utils/Pausable.sol\":2427:2447  Paused(_msgSender()) */\n      log1\n        /* \"v2.sol\":430:24350  contract PolicastMarketV2 is Ownable, ReentrancyGuard, AccessControl, Pausable {... */\n      stop\n    tag_122:\n      jumpi(tag_174, callvalue)\n      jumpi(tag_174, slt(add(not(0x03), calldatasize), 0x40))\n      calldataload(0x04)\n      tag_384\n      tag_4\n      jump\t// in\n    tag_384:\n      swap1\n        /* \"v2.sol\":5966:6023  require(_marketId < marketCount, \"Market does not exist\") */\n      tag_385\n        /* \"v2.sol\":430:24350  contract PolicastMarketV2 is Ownable, ReentrancyGuard, AccessControl, Pausable {... */\n      sload(0x04)\n        /* \"v2.sol\":5974:5997  _marketId < marketCount */\n      dup3\n      lt\n        /* \"v2.sol\":5966:6023  require(_marketId < marketCount, \"Market does not exist\") */\n      tag_33\n      jump\t// in\n    tag_385:\n        /* \"v2.sol\":430:24350  contract PolicastMarketV2 is Ownable, ReentrancyGuard, AccessControl, Pausable {... */\n      0x00\n      mstore\n      0x20\n      swap1\n        /* \"v2.sol\":20509:20516  markets */\n      0x08\n        /* \"v2.sol\":430:24350  contract PolicastMarketV2 is Ownable, ReentrancyGuard, AccessControl, Pausable {... */\n      0x20\n      mstore\n      keccak256(0x00, 0x40)\n        /* \"v2.sol\":20577:20595  market.optionCount */\n      swap2\n      0x09\n      dup4\n      add\n        /* \"v2.sol\":430:24350  contract PolicastMarketV2 is Ownable, ReentrancyGuard, AccessControl, Pausable {... */\n      sload\n        /* \"v2.sol\":20563:20596  new uint256[](market.optionCount) */\n      swap2\n      tag_386\n      dup4\n      tag_45\n      jump\t// in\n    tag_386:\n        /* \"v2.sol\":20611:20624  uint256 i = 0 */\n      swap4\n        /* \"v2.sol\":20681:20698  market.userShares */\n      0x0b\n      add\n      swap1\n      sub(shl(0xa0, 0x01), 0x01)\n        /* \"v2.sol\":430:24350  contract PolicastMarketV2 is Ownable, ReentrancyGuard, AccessControl, Pausable {... */\n      and\n      0x00\n        /* \"v2.sol\":20626:20648  i < market.optionCount */\n    tag_387:\n      dup5\n      dup2\n      lt\n      tag_388\n      jumpi\n        /* \"v2.sol\":430:24350  contract PolicastMarketV2 is Ownable, ReentrancyGuard, AccessControl, Pausable {... */\n      mload(0x40)\n      dup1\n      tag_274\n      dup9\n      dup3\n      tag_21\n      jump\t// in\n        /* \"v2.sol\":20650:20653  i++ */\n    tag_388:\n        /* \"v2.sol\":430:24350  contract PolicastMarketV2 is Ownable, ReentrancyGuard, AccessControl, Pausable {... */\n      0x01\n      swap1\n      dup3\n      0x00\n      mstore\n      dup4\n      dup6\n      mstore\n      keccak256(0x00, 0x40)\n      dup2\n      0x00\n      mstore\n      dup6\n      mstore\n      sload(keccak256(0x00, 0x40))\n        /* \"v2.sol\":20669:20708  shares[i] = market.userShares[_user][i] */\n      tag_391\n      dup3\n      dup10\n      tag_31\n      jump\t// in\n    tag_391:\n        /* \"v2.sol\":430:24350  contract PolicastMarketV2 is Ownable, ReentrancyGuard, AccessControl, Pausable {... */\n      mstore\n      add\n        /* \"v2.sol\":20611:20624  uint256 i = 0 */\n      jump(tag_387)\n        /* \"v2.sol\":430:24350  contract PolicastMarketV2 is Ownable, ReentrancyGuard, AccessControl, Pausable {... */\n    tag_120:\n      jumpi(tag_174, callvalue)\n      jumpi(tag_174, slt(add(not(0x03), calldatasize), 0x00))\n      0x20\n      mload(0x40)\n        /* \"v2.sol\":3693:3701  365 days */\n      0x01e13380\n        /* \"v2.sol\":430:24350  contract PolicastMarketV2 is Ownable, ReentrancyGuard, AccessControl, Pausable {... */\n      dup2\n      mstore\n      return\n    tag_118:\n      jumpi(tag_174, callvalue)\n      tag_398\n      calldatasize\n      tag_20\n      jump\t// in\n    tag_398:\n      swap2\n      0x00\n      mstore\n      0x20\n      swap1\n        /* \"v2.sol\":22046:22058  priceHistory */\n      0x0d\n        /* \"v2.sol\":430:24350  contract PolicastMarketV2 is Ownable, ReentrancyGuard, AccessControl, Pausable {... */\n      dup3\n      mstore\n      keccak256(0x00, 0x40)\n      swap1\n      0x00\n      mstore\n      dup2\n      mstore\n      keccak256(0x00, 0x40)\n      dup1\n      sload\n        /* \"v2.sol\":22154:22187  _limit > length ? length : _limit */\n      swap1\n        /* \"v2.sol\":22154:22169  _limit > length */\n      dup2\n      dup5\n      gt\n        /* \"v2.sol\":22154:22187  _limit > length ? length : _limit */\n      0x00\n        /* \"v2.sol\":22154:22169  _limit > length */\n      eq\n      tag_399\n      jumpi\n        /* \"v2.sol\":22154:22187  _limit > length ? length : _limit */\n      dup2\n    tag_401:\n        /* \"v2.sol\":430:24350  contract PolicastMarketV2 is Ownable, ReentrancyGuard, AccessControl, Pausable {... */\n      tag_402\n      dup4\n      tag_15\n      jump\t// in\n    tag_402:\n      swap5\n      tag_403\n      mload(0x40)\n      swap7\n      dup8\n      tag_13\n      jump\t// in\n    tag_403:\n      dup4\n      dup7\n      mstore\n      tag_404\n      dup5\n      tag_15\n      jump\t// in\n    tag_404:\n      not(0x1f)\n      add\n      dup6\n      0x00\n    tag_405:\n      dup3\n      dup2\n      lt\n      tag_406\n      jumpi\n      pop\n      pop\n      pop\n        /* \"v2.sol\":22296:22311  length > _limit */\n      dup1\n      dup3\n      gt\n      iszero\n      tag_408\n      jumpi\n        /* \"v2.sol\":22314:22329  length - _limit */\n      tag_410\n      swap2\n      tag_34\n      jump\t// in\n    tag_410:\n        /* \"v2.sol\":430:24350  contract PolicastMarketV2 is Ownable, ReentrancyGuard, AccessControl, Pausable {... */\n      0x00\n        /* \"v2.sol\":22372:22388  i < returnLength */\n    tag_412:\n      dup4\n      dup2\n      lt\n      tag_413\n      jumpi\n        /* \"v2.sol\":430:24350  contract PolicastMarketV2 is Ownable, ReentrancyGuard, AccessControl, Pausable {... */\n      0x40\n      dup1\n      mload\n      dup7\n      dup2\n      mstore\n      dup8\n      mload\n      dup2\n      dup9\n      add\n      dup2\n      swap1\n      mstore\n      dup9\n      dup9\n      add\n      swap3\n      dup3\n      add\n      swap1\n      dup9\n      0x00\n    tag_415:\n      dup3\n      dup2\n      lt\n      tag_416\n      jumpi\n      dup5\n      dup5\n      sub\n      dup6\n      return\n    tag_416:\n      dup6\n      mload\n      dup1\n      mload\n      dup6\n      mstore\n      dup1\n      dup4\n      add\n      mload\n      dup6\n      dup5\n      add\n      mstore\n      0x40\n      swap1\n      dup2\n      add\n      mload\n      swap1\n      dup6\n      add\n      mstore\n      swap5\n      dup2\n      add\n      swap5\n      0x60\n      swap1\n      swap4\n      add\n      swap3\n      0x01\n      add\n      jump(tag_415)\n        /* \"v2.sol\":22390:22393  i++ */\n    tag_413:\n        /* \"v2.sol\":22429:22443  startIndex + i */\n      dup1\n        /* \"v2.sol\":22421:22444  history[startIndex + i] */\n      tag_418\n        /* \"v2.sol\":22429:22443  startIndex + i */\n      tag_419\n        /* \"v2.sol\":430:24350  contract PolicastMarketV2 is Ownable, ReentrancyGuard, AccessControl, Pausable {... */\n      0x01\n        /* \"v2.sol\":22429:22443  startIndex + i */\n      swap4\n      dup6\n      tag_29\n      jump\t// in\n    tag_419:\n        /* \"v2.sol\":22421:22444  history[startIndex + i] */\n      dup6\n      tag_22\n      jump\t// in\n    tag_418:\n        /* \"v2.sol\":430:24350  contract PolicastMarketV2 is Ownable, ReentrancyGuard, AccessControl, Pausable {... */\n      pop\n      0x02\n      mload(0x40)\n      swap2\n      tag_420\n      dup4\n      tag_11\n      jump\t// in\n    tag_420:\n      dup1\n      sload\n      dup4\n      mstore\n      dup5\n      dup2\n      add\n      sload\n      dup10\n      dup5\n      add\n      mstore\n      add\n      sload\n      0x40\n      dup3\n      add\n      mstore\n        /* \"v2.sol\":22409:22444  result[i] = history[startIndex + i] */\n      tag_421\n      dup3\n      dup10\n      tag_31\n      jump\t// in\n    tag_421:\n      mstore\n      tag_422\n      dup2\n      dup9\n      tag_31\n      jump\t// in\n    tag_422:\n      pop\n        /* \"v2.sol\":430:24350  contract PolicastMarketV2 is Ownable, ReentrancyGuard, AccessControl, Pausable {... */\n      add\n        /* \"v2.sol\":22357:22370  uint256 i = 0 */\n      jump(tag_412)\n        /* \"v2.sol\":22296:22333  length > _limit ? length - _limit : 0 */\n    tag_408:\n      pop\n      pop\n        /* \"v2.sol\":430:24350  contract PolicastMarketV2 is Ownable, ReentrancyGuard, AccessControl, Pausable {... */\n      0x00\n        /* \"v2.sol\":22296:22333  length > _limit ? length - _limit : 0 */\n      jump(tag_410)\n        /* \"v2.sol\":430:24350  contract PolicastMarketV2 is Ownable, ReentrancyGuard, AccessControl, Pausable {... */\n    tag_406:\n      mload(0x40)\n      tag_423\n      dup2\n      tag_11\n      jump\t// in\n    tag_423:\n      0x00\n      dup2\n      mstore\n      0x00\n      dup4\n      dup3\n      add\n      mstore\n      0x00\n      0x40\n      dup3\n      add\n      mstore\n      dup3\n      dup3\n      dup12\n      add\n      add\n      mstore\n      add\n      dup7\n      swap1\n      jump(tag_405)\n        /* \"v2.sol\":22154:22187  _limit > length ? length : _limit */\n    tag_399:\n      dup4\n      swap2\n      jump(tag_401)\n        /* \"v2.sol\":430:24350  contract PolicastMarketV2 is Ownable, ReentrancyGuard, AccessControl, Pausable {... */\n    tag_116:\n      jumpi(tag_174, callvalue)\n      jumpi(tag_174, slt(add(not(0x03), calldatasize), 0x00))\n      0x20\n      mload(0x40)\n        /* \"v2.sol\":563:597  keccak256(\"QUESTION_CREATOR_ROLE\") */\n      0xef485be696bbc0c91ad541bbd553ffb5bd0e18dac30ba76e992dda23cb807a8a\n        /* \"v2.sol\":430:24350  contract PolicastMarketV2 is Ownable, ReentrancyGuard, AccessControl, Pausable {... */\n      dup2\n      mstore\n      return\n    tag_114:\n      jumpi(tag_174, callvalue)\n      jumpi(tag_174, slt(add(not(0x03), calldatasize), 0x00))\n      0x20\n      mload(0x40)\n        /* \"v2.sol\":651:685  keccak256(\"QUESTION_RESOLVE_ROLE\") */\n      0xdcee1d35c83a32b436264a5c9afd68685c124f3f9097e87804c55410e67fc59a\n        /* \"v2.sol\":430:24350  contract PolicastMarketV2 is Ownable, ReentrancyGuard, AccessControl, Pausable {... */\n      dup2\n      mstore\n      return\n    tag_112:\n      jumpi(tag_174, callvalue)\n      tag_434\n      calldatasize\n      tag_8\n      jump\t// in\n    tag_434:\n        /* \"v2.sol\":23252:23267  allParticipants */\n      0x12\n        /* \"v2.sol\":430:24350  contract PolicastMarketV2 is Ownable, ReentrancyGuard, AccessControl, Pausable {... */\n      sload\n        /* \"v2.sol\":23243:23274  _start < allParticipants.length */\n      swap1\n      dup2\n      dup4\n      lt\n        /* \"v2.sol\":430:24350  contract PolicastMarketV2 is Ownable, ReentrancyGuard, AccessControl, Pausable {... */\n      iszero\n      tag_435\n      jumpi\n        /* \"v2.sol\":23328:23343  _start + _limit */\n      dup2\n      tag_437\n      dup3\n      dup6\n      tag_29\n      jump\t// in\n    tag_437:\n        /* \"v2.sol\":23328:23368  _start + _limit > allParticipants.length */\n      gt\n        /* \"v2.sol\":23328:23411  _start + _limit > allParticipants.length ? allParticipants.length : _start + _limit */\n      iszero\n      tag_438\n      jumpi\n      pop\n    tag_440:\n        /* \"v2.sol\":23480:23492  end - _start */\n      tag_441\n      dup3\n      dup3\n      tag_34\n      jump\t// in\n    tag_441:\n        /* \"v2.sol\":430:24350  contract PolicastMarketV2 is Ownable, ReentrancyGuard, AccessControl, Pausable {... */\n      swap1\n      tag_442\n      tag_443\n      dup4\n      tag_15\n      jump\t// in\n    tag_443:\n      swap3\n      tag_444\n      mload(0x40)\n      swap5\n      dup6\n      tag_13\n      jump\t// in\n    tag_444:\n      dup1\n      dup5\n      mstore\n      tag_15\n      jump\t// in\n    tag_442:\n      0x20\n      swap4\n      swap1\n      not(0x1f)\n      add\n      0x00\n    tag_445:\n      dup2\n      dup2\n      lt\n      tag_446\n      jumpi\n        /* \"v2.sol\":23509:23527  uint256 i = _start */\n      pop\n      pop\n      dup1\n        /* \"v2.sol\":23529:23536  i < end */\n    tag_448:\n      dup3\n      dup2\n      lt\n      tag_449\n      jumpi\n        /* \"v2.sol\":430:24350  contract PolicastMarketV2 is Ownable, ReentrancyGuard, AccessControl, Pausable {... */\n      pop\n      pop\n      pop\n      mload(0x40)\n      swap1\n      dup3\n      dup3\n      add\n      dup4\n      dup4\n      mstore\n      dup2\n      mload\n      dup1\n      swap2\n      mstore\n      dup4\n      0x40\n      dup5\n      add\n      swap3\n      add\n      swap4\n      0x00\n    tag_451:\n      dup3\n      dup2\n      lt\n      tag_452\n      jumpi\n      dup5\n      dup5\n      sub\n      dup6\n      return\n    tag_452:\n      dup6\n      mload\n      dup1\n      mload\n      sub(shl(0xa0, 0x01), 0x01)\n      and\n      dup6\n      mstore\n      dup1\n      dup4\n      add\n      mload\n      dup6\n      dup5\n      add\n      mstore\n      0x40\n      dup1\n      dup3\n      add\n      mload\n      swap1\n      dup7\n      add\n      mstore\n      0x60\n      dup1\n      dup3\n      add\n      mload\n      swap1\n      dup7\n      add\n      mstore\n      0x80\n      swap1\n      dup2\n      add\n      mload\n      swap1\n      dup6\n      add\n      mstore\n      swap5\n      dup2\n      add\n      swap5\n      0xa0\n      swap1\n      swap4\n      add\n      swap3\n      0x01\n      add\n      jump(tag_451)\n        /* \"v2.sol\":23538:23541  i++ */\n    tag_449:\n        /* \"v2.sol\":23572:23590  allParticipants[i] */\n      tag_454\n      dup2\n      swap6\n      swap4\n      swap5\n      swap6\n      tag_1\n      jump\t// in\n    tag_454:\n        /* \"v2.sol\":430:24350  contract PolicastMarketV2 is Ownable, ReentrancyGuard, AccessControl, Pausable {... */\n      swap2\n      swap1\n      sload\n      swap2\n      0x03\n      swap3\n      0x01\n      dup1\n      0xa0\n      shl\n      sub\n      swap2\n      dup5\n      shl\n      shr\n      and\n      dup1\n      0x00\n      mstore\n        /* \"v2.sol\":23637:23651  userPortfolios */\n      0x0a\n        /* \"v2.sol\":430:24350  contract PolicastMarketV2 is Ownable, ReentrancyGuard, AccessControl, Pausable {... */\n      dup6\n      mstore\n      keccak256(0x00, 0x40)\n      swap1\n      mload(0x40)\n      tag_455\n      dup2\n      tag_9\n      jump\t// in\n    tag_455:\n      dup3\n      sload\n      dup2\n      mstore\n      0x01\n      dup4\n      add\n      sload\n      swap3\n      0x04\n      dup9\n      dup4\n      add\n      swap7\n      dup6\n      dup9\n      mstore\n      0x02\n      dup4\n      add\n      sload\n      0x40\n      dup6\n      add\n      mstore\n      dup3\n      add\n      sload\n      swap2\n      0x60\n      swap3\n      dup4\n      dup6\n      add\n      mstore\n      add\n      sload\n      swap6\n      0x80\n      swap2\n      dup3\n      dup5\n      add\n      swap8\n      dup1\n      dup10\n      mstore\n        /* \"v2.sol\":23702:23726  portfolio.tradeCount > 0 */\n      iszero\n      iszero\n        /* \"v2.sol\":23702:23807  portfolio.tradeCount > 0 ? ... */\n      0x00\n        /* \"v2.sol\":23702:23726  portfolio.tradeCount > 0 */\n      eq\n      tag_456\n      jumpi\n        /* \"v2.sol\":23773:23776  100 */\n      0x64\n        /* \"v2.sol\":430:24350  contract PolicastMarketV2 is Ownable, ReentrancyGuard, AccessControl, Pausable {... */\n      swap6\n      dup7\n      dup2\n      mul\n      swap7\n      dup2\n      dup9\n      div\n      eq\n      swap1\n      iszero\n      or\n      iszero\n      tag_225\n      jumpi\n      0x01\n      swap8\n        /* \"v2.sol\":23747:23802  portfolio.totalWinnings * 100 / portfolio.totalInvested */\n      tag_460\n        /* \"v2.sol\":23822:24098  entries[i - _start] = LeaderboardEntry({... */\n      tag_461\n        /* \"v2.sol\":430:24350  contract PolicastMarketV2 is Ownable, ReentrancyGuard, AccessControl, Pausable {... */\n      swap8\n      dup7\n      mload\n        /* \"v2.sol\":23747:23802  portfolio.totalWinnings * 100 / portfolio.totalInvested */\n      swap1\n      tag_30\n      jump\t// in\n    tag_460:\n        /* \"v2.sol\":23702:23807  portfolio.tradeCount > 0 ? ... */\n      swap3\n    tag_462:\n        /* \"v2.sol\":430:24350  contract PolicastMarketV2 is Ownable, ReentrancyGuard, AccessControl, Pausable {... */\n      mload\n      swap5\n      mload\n      swap1\n      mload\n      swap5\n      mload(0x40)\n      swap7\n      tag_463\n      dup9\n      tag_9\n      jump\t// in\n    tag_463:\n      dup8\n      mstore\n        /* \"v2.sol\":23844:24098  LeaderboardEntry({... */\n      dup12\n      dup8\n      add\n        /* \"v2.sol\":430:24350  contract PolicastMarketV2 is Ownable, ReentrancyGuard, AccessControl, Pausable {... */\n      mstore\n      0x40\n        /* \"v2.sol\":23844:24098  LeaderboardEntry({... */\n      dup7\n      add\n        /* \"v2.sol\":430:24350  contract PolicastMarketV2 is Ownable, ReentrancyGuard, AccessControl, Pausable {... */\n      mstore\n        /* \"v2.sol\":23844:24098  LeaderboardEntry({... */\n      dup5\n      add\n        /* \"v2.sol\":430:24350  contract PolicastMarketV2 is Ownable, ReentrancyGuard, AccessControl, Pausable {... */\n      mstore\n        /* \"v2.sol\":23844:24098  LeaderboardEntry({... */\n      dup3\n      add\n        /* \"v2.sol\":430:24350  contract PolicastMarketV2 is Ownable, ReentrancyGuard, AccessControl, Pausable {... */\n      mstore\n        /* \"v2.sol\":23830:23840  i - _start */\n      tag_464\n      dup6\n      dup5\n      tag_34\n      jump\t// in\n    tag_464:\n        /* \"v2.sol\":23822:24098  entries[i - _start] = LeaderboardEntry({... */\n      swap1\n      tag_465\n      dup3\n      dup11\n      tag_31\n      jump\t// in\n    tag_465:\n      mstore\n      dup8\n      tag_31\n      jump\t// in\n    tag_461:\n      pop\n        /* \"v2.sol\":430:24350  contract PolicastMarketV2 is Ownable, ReentrancyGuard, AccessControl, Pausable {... */\n      add\n        /* \"v2.sol\":23509:23527  uint256 i = _start */\n      swap4\n      swap3\n      swap2\n      swap4\n      jump(tag_448)\n        /* \"v2.sol\":23702:23807  portfolio.tradeCount > 0 ? ... */\n    tag_456:\n        /* \"v2.sol\":23822:24098  entries[i - _start] = LeaderboardEntry({... */\n      tag_461\n        /* \"v2.sol\":23702:23807  portfolio.tradeCount > 0 ? ... */\n      swap6\n      pop\n        /* \"v2.sol\":430:24350  contract PolicastMarketV2 is Ownable, ReentrancyGuard, AccessControl, Pausable {... */\n      0x01\n        /* \"v2.sol\":23702:23807  portfolio.tradeCount > 0 ? ... */\n      swap8\n        /* \"v2.sol\":430:24350  contract PolicastMarketV2 is Ownable, ReentrancyGuard, AccessControl, Pausable {... */\n      0x00\n        /* \"v2.sol\":23702:23807  portfolio.tradeCount > 0 ? ... */\n      swap3\n      jump(tag_462)\n        /* \"v2.sol\":430:24350  contract PolicastMarketV2 is Ownable, ReentrancyGuard, AccessControl, Pausable {... */\n    tag_446:\n      swap5\n      dup1\n      swap4\n      swap5\n      swap6\n      tag_466\n      tag_27\n      jump\t// in\n    tag_466:\n      dup3\n      dup3\n      dup10\n      add\n      add\n      mstore\n      add\n      swap5\n      swap4\n      swap3\n      swap5\n      jump(tag_445)\n        /* \"v2.sol\":23328:23411  _start + _limit > allParticipants.length ? allParticipants.length : _start + _limit */\n    tag_438:\n        /* \"v2.sol\":23396:23411  _start + _limit */\n      tag_467\n      swap2\n      pop\n      dup3\n      tag_29\n      jump\t// in\n    tag_467:\n        /* \"v2.sol\":23328:23411  _start + _limit > allParticipants.length ? allParticipants.length : _start + _limit */\n      jump(tag_440)\n        /* \"v2.sol\":430:24350  contract PolicastMarketV2 is Ownable, ReentrancyGuard, AccessControl, Pausable {... */\n    tag_435:\n      mload(0x40)\n      shl(0xe5, 0x461bcd)\n      dup2\n      mstore\n      0x20\n      0x04\n      dup3\n      add\n      mstore\n      0x19\n      0x24\n      dup3\n      add\n      mstore\n      0x537461727420696e646578206f7574206f6620626f756e647300000000000000\n      0x44\n      dup3\n      add\n      mstore\n      0x64\n      swap1\n      revert\n    tag_110:\n      jumpi(tag_174, callvalue)\n      jumpi(tag_174, slt(add(not(0x03), calldatasize), 0x00))\n        /* \"@openzeppelin/contracts/access/Ownable.sol\":1500:1562  modifier onlyOwner() {... */\n      tag_472\n      tag_52\n      jump\t// in\n    tag_472:\n        /* \"v2.sol\":430:24350  contract PolicastMarketV2 is Ownable, ReentrancyGuard, AccessControl, Pausable {... */\n      0x00\n      dup1\n      sload\n      not(sub(shl(0xa0, 0x01), 0x01))\n      dup2\n      and\n      dup3\n      sstore\n      sub(shl(0xa0, 0x01), 0x01)\n      and\n        /* \"@openzeppelin/contracts/access/Ownable.sol\":3052:3092  OwnershipTransferred(oldOwner, newOwner) */\n      0x8be0079c531659141344cd1fd0a4f28419497f9722a3daafe3b4186f6b6457e0\n        /* \"v2.sol\":430:24350  contract PolicastMarketV2 is Ownable, ReentrancyGuard, AccessControl, Pausable {... */\n      dup3\n      dup1\n        /* \"@openzeppelin/contracts/access/Ownable.sol\":3052:3092  OwnershipTransferred(oldOwner, newOwner) */\n      log3\n        /* \"v2.sol\":430:24350  contract PolicastMarketV2 is Ownable, ReentrancyGuard, AccessControl, Pausable {... */\n      stop\n    tag_108:\n      jumpi(tag_174, callvalue)\n      jumpi(tag_174, slt(add(not(0x03), calldatasize), 0x20))\n        /* \"@openzeppelin/contracts/access/AccessControl.sol\":4306:4331  _grantRole(role, account) */\n      tag_256\n        /* \"v2.sol\":430:24350  contract PolicastMarketV2 is Ownable, ReentrancyGuard, AccessControl, Pausable {... */\n      tag_478\n      tag_3\n      jump\t// in\n    tag_478:\n        /* \"@openzeppelin/contracts/access/Ownable.sol\":1500:1562  modifier onlyOwner() {... */\n      tag_479\n      tag_52\n      jump\t// in\n    tag_479:\n        /* \"v2.sol\":563:597  keccak256(\"QUESTION_CREATOR_ROLE\") */\n      0xef485be696bbc0c91ad541bbd553ffb5bd0e18dac30ba76e992dda23cb807a8a\n        /* \"v2.sol\":430:24350  contract PolicastMarketV2 is Ownable, ReentrancyGuard, AccessControl, Pausable {... */\n      0x00\n      mstore\n        /* \"@openzeppelin/contracts/access/AccessControl.sol\":3877:3883  _roles */\n      0x02\n        /* \"v2.sol\":430:24350  contract PolicastMarketV2 is Ownable, ReentrancyGuard, AccessControl, Pausable {... */\n      0x20\n      mstore\n        /* \"@openzeppelin/contracts/access/AccessControl.sol\":3877:3899  _roles[role].adminRole */\n      0x30d995518b427f5a5863ad73fe356ca50cf70941f42c516830919c845fa58070\n        /* \"v2.sol\":430:24350  contract PolicastMarketV2 is Ownable, ReentrancyGuard, AccessControl, Pausable {... */\n      sload\n        /* \"@openzeppelin/contracts/access/AccessControl.sol\":2484:2488  role */\n      tag_480\n      swap1\n      tag_47\n      jump\t// in\n    tag_480:\n        /* \"@openzeppelin/contracts/access/AccessControl.sol\":4306:4331  _grantRole(role, account) */\n      tag_49\n      jump\t// in\n        /* \"v2.sol\":430:24350  contract PolicastMarketV2 is Ownable, ReentrancyGuard, AccessControl, Pausable {... */\n    tag_106:\n      jumpi(tag_174, callvalue)\n      0x20\n      dup1\n      add(calldatasize, not(0x03))\n      slt\n      tag_174\n      jumpi\n      calldataload(0x04)\n        /* \"@openzeppelin/contracts/utils/ReentrancyGuard.sol\":2466:2569  modifier nonReentrant() {... */\n      tag_485\n      tag_54\n      jump\t// in\n    tag_485:\n        /* \"v2.sol\":5966:6023  require(_marketId < marketCount, \"Market does not exist\") */\n      tag_486\n        /* \"v2.sol\":430:24350  contract PolicastMarketV2 is Ownable, ReentrancyGuard, AccessControl, Pausable {... */\n      sload(0x04)\n        /* \"v2.sol\":5974:5997  _marketId < marketCount */\n      dup3\n      lt\n        /* \"v2.sol\":5966:6023  require(_marketId < marketCount, \"Market does not exist\") */\n      tag_33\n      jump\t// in\n    tag_486:\n        /* \"v2.sol\":430:24350  contract PolicastMarketV2 is Ownable, ReentrancyGuard, AccessControl, Pausable {... */\n      dup1\n      0x00\n      mstore\n        /* \"v2.sol\":16456:16463  markets */\n      0x08\n        /* \"v2.sol\":430:24350  contract PolicastMarketV2 is Ownable, ReentrancyGuard, AccessControl, Pausable {... */\n      dup3\n      mstore\n      keccak256(0x00, 0x40)\n        /* \"v2.sol\":16492:16507  market.resolved */\n      swap2\n      0x05\n      dup4\n      add\n        /* \"v2.sol\":430:24350  contract PolicastMarketV2 is Ownable, ReentrancyGuard, AccessControl, Pausable {... */\n      sload\n      0xff\n      dup2\n      and\n        /* \"v2.sol\":16492:16527  market.resolved && !market.disputed */\n      swap1\n      dup2\n      tag_487\n      jumpi\n        /* \"v2.sol\":430:24350  contract PolicastMarketV2 is Ownable, ReentrancyGuard, AccessControl, Pausable {... */\n    tag_488:\n      pop\n      iszero\n      tag_489\n      jumpi\n        /* \"v2.sol\":16578:16595  market.hasClaimed */\n      0x0c\n      dup4\n      add\n        /* \"v2.sol\":16596:16606  msg.sender */\n      swap3\n      caller\n        /* \"v2.sol\":430:24350  contract PolicastMarketV2 is Ownable, ReentrancyGuard, AccessControl, Pausable {... */\n      0x00\n      mstore\n      dup4\n      dup3\n      mstore\n      jumpi(tag_491, and(sload(keccak256(0x00, 0x40)), 0xff))\n        /* \"v2.sol\":16596:16606  msg.sender */\n      caller\n        /* \"v2.sol\":430:24350  contract PolicastMarketV2 is Ownable, ReentrancyGuard, AccessControl, Pausable {... */\n      0x00\n      mstore\n        /* \"v2.sol\":16666:16683  market.userShares */\n      0x0b\n      dup2\n      add\n        /* \"v2.sol\":430:24350  contract PolicastMarketV2 is Ownable, ReentrancyGuard, AccessControl, Pausable {... */\n      dup3\n      mstore\n      keccak256(0x00, 0x40)\n        /* \"v2.sol\":16696:16718  market.winningOptionId */\n      swap1\n        /* \"v2.sol\":430:24350  contract PolicastMarketV2 is Ownable, ReentrancyGuard, AccessControl, Pausable {... */\n      0x04\n        /* \"v2.sol\":16696:16718  market.winningOptionId */\n      dup2\n      add\n        /* \"v2.sol\":430:24350  contract PolicastMarketV2 is Ownable, ReentrancyGuard, AccessControl, Pausable {... */\n      sload\n      swap2\n      dup3\n      0x00\n      mstore\n      dup4\n      mstore\n      sload(keccak256(0x00, 0x40))\n        /* \"v2.sol\":16737:16758  userWinningShares > 0 */\n      swap2\n      dup3\n      iszero\n        /* \"v2.sol\":430:24350  contract PolicastMarketV2 is Ownable, ReentrancyGuard, AccessControl, Pausable {... */\n      tag_493\n      jumpi\n        /* \"v2.sol\":16820:16834  market.options */\n      dup2\n        /* \"v2.sol\":17161:17197  userWinningShares * totalLosingValue */\n      tag_495\n        /* \"v2.sol\":17161:17218  userWinningShares * totalLosingValue / totalWinningShares */\n      tag_496\n        /* \"v2.sol\":16820:16834  market.options */\n      swap3\n        /* \"v2.sol\":430:24350  contract PolicastMarketV2 is Ownable, ReentrancyGuard, AccessControl, Pausable {... */\n      0x04\n        /* \"v2.sol\":16820:16834  market.options */\n      0x0a\n        /* \"v2.sol\":17050:17219  (userWinningShares * market.options[market.winningOptionId].currentPrice / 1e18) + ... */\n      tag_497\n        /* \"v2.sol\":16820:16834  market.options */\n      swap8\n      swap7\n      add\n        /* \"v2.sol\":430:24350  contract PolicastMarketV2 is Ownable, ReentrancyGuard, AccessControl, Pausable {... */\n      dup3\n      0x00\n      mstore\n      dup1\n      dup10\n      mstore\n        /* \"v2.sol\":16907:17012  market.totalLiquidity - (totalWinningShares * market.options[market.winningOptionId].currentPrice / 1e18) */\n      tag_498\n        /* \"v2.sol\":430:24350  contract PolicastMarketV2 is Ownable, ReentrancyGuard, AccessControl, Pausable {... */\n      keccak256(0x00, 0x40)\n        /* \"v2.sol\":16907:16928  market.totalLiquidity */\n      0x06\n        /* \"v2.sol\":16820:16870  market.options[market.winningOptionId].totalShares */\n      0x02\n      dup3\n      add\n        /* \"v2.sol\":430:24350  contract PolicastMarketV2 is Ownable, ReentrancyGuard, AccessControl, Pausable {... */\n      sload\n        /* \"v2.sol\":16907:16928  market.totalLiquidity */\n      swap8\n      add\n        /* \"v2.sol\":430:24350  contract PolicastMarketV2 is Ownable, ReentrancyGuard, AccessControl, Pausable {... */\n      sload\n        /* \"v2.sol\":17007:17011  1e18 */\n      swap1\n        /* \"v2.sol\":16932:17004  totalWinningShares * market.options[market.winningOptionId].currentPrice */\n      tag_499\n        /* \"v2.sol\":17007:17011  1e18 */\n      0x0de0b6b3a7640000\n        /* \"v2.sol\":16953:17004  market.options[market.winningOptionId].currentPrice */\n      swap6\n      dup7\n      swap3\n      add\n        /* \"v2.sol\":430:24350  contract PolicastMarketV2 is Ownable, ReentrancyGuard, AccessControl, Pausable {... */\n      sload\n        /* \"v2.sol\":16932:17004  totalWinningShares * market.options[market.winningOptionId].currentPrice */\n      dup10\n      tag_40\n      jump\t// in\n    tag_499:\n        /* \"v2.sol\":430:24350  contract PolicastMarketV2 is Ownable, ReentrancyGuard, AccessControl, Pausable {... */\n      div\n        /* \"v2.sol\":16907:17012  market.totalLiquidity - (totalWinningShares * market.options[market.winningOptionId].currentPrice / 1e18) */\n      swap1\n      tag_34\n      jump\t// in\n    tag_498:\n        /* \"v2.sol\":430:24350  contract PolicastMarketV2 is Ownable, ReentrancyGuard, AccessControl, Pausable {... */\n      swap3\n      0x00\n      mstore\n      dup9\n      mstore\n        /* \"v2.sol\":17051:17122  userWinningShares * market.options[market.winningOptionId].currentPrice */\n      tag_500\n        /* \"v2.sol\":430:24350  contract PolicastMarketV2 is Ownable, ReentrancyGuard, AccessControl, Pausable {... */\n      0x04\n      keccak256(0x00, 0x40)\n        /* \"v2.sol\":17071:17122  market.options[market.winningOptionId].currentPrice */\n      add\n        /* \"v2.sol\":430:24350  contract PolicastMarketV2 is Ownable, ReentrancyGuard, AccessControl, Pausable {... */\n      sload\n        /* \"v2.sol\":17051:17122  userWinningShares * market.options[market.winningOptionId].currentPrice */\n      dup8\n      tag_40\n      jump\t// in\n    tag_500:\n        /* \"v2.sol\":430:24350  contract PolicastMarketV2 is Ownable, ReentrancyGuard, AccessControl, Pausable {... */\n      div\n        /* \"v2.sol\":17161:17197  userWinningShares * totalLosingValue */\n      swap5\n      tag_40\n      jump\t// in\n    tag_495:\n        /* \"v2.sol\":17161:17218  userWinningShares * totalLosingValue / totalWinningShares */\n      tag_30\n      jump\t// in\n    tag_496:\n        /* \"v2.sol\":17050:17219  (userWinningShares * market.options[market.winningOptionId].currentPrice / 1e18) + ... */\n      swap1\n      tag_29\n      jump\t// in\n    tag_497:\n        /* \"v2.sol\":16596:16606  msg.sender */\n      swap3\n      caller\n        /* \"v2.sol\":430:24350  contract PolicastMarketV2 is Ownable, ReentrancyGuard, AccessControl, Pausable {... */\n      0x00\n      mstore\n      dup2\n      mstore\n      keccak256(0x00, 0x40)\n      0x01\n      not(0xff)\n      dup3\n      sload\n      and\n      or\n      swap1\n      sstore\n        /* \"v2.sol\":16820:16834  market.options */\n      0x0a\n        /* \"v2.sol\":430:24350  contract PolicastMarketV2 is Ownable, ReentrancyGuard, AccessControl, Pausable {... */\n      dup2\n      mstore\n      0x01\n      keccak256(0x00, 0x40)\n        /* \"v2.sol\":17276:17316  userPortfolios[msg.sender].totalWinnings */\n      add\n        /* \"v2.sol\":17276:17328  userPortfolios[msg.sender].totalWinnings += winnings */\n      tag_501\n        /* \"v2.sol\":430:24350  contract PolicastMarketV2 is Ownable, ReentrancyGuard, AccessControl, Pausable {... */\n      dup5\n      dup3\n      sload\n        /* \"v2.sol\":17276:17328  userPortfolios[msg.sender].totalWinnings += winnings */\n      tag_29\n      jump\t// in\n    tag_501:\n        /* \"v2.sol\":430:24350  contract PolicastMarketV2 is Ownable, ReentrancyGuard, AccessControl, Pausable {... */\n      swap1\n      sstore\n        /* \"v2.sol\":16596:16606  msg.sender */\n      caller\n        /* \"v2.sol\":430:24350  contract PolicastMarketV2 is Ownable, ReentrancyGuard, AccessControl, Pausable {... */\n      0x00\n      mstore\n        /* \"v2.sol\":17338:17351  totalWinnings */\n      0x11\n        /* \"v2.sol\":430:24350  contract PolicastMarketV2 is Ownable, ReentrancyGuard, AccessControl, Pausable {... */\n      dup2\n      mstore\n      keccak256(0x00, 0x40)\n        /* \"v2.sol\":17338:17375  totalWinnings[msg.sender] += winnings */\n      tag_502\n        /* \"v2.sol\":430:24350  contract PolicastMarketV2 is Ownable, ReentrancyGuard, AccessControl, Pausable {... */\n      dup5\n      dup3\n      sload\n        /* \"v2.sol\":17338:17375  totalWinnings[msg.sender] += winnings */\n      tag_29\n      jump\t// in\n    tag_502:\n        /* \"v2.sol\":430:24350  contract PolicastMarketV2 is Ownable, ReentrancyGuard, AccessControl, Pausable {... */\n      swap1\n      sstore\n        /* \"v2.sol\":17394:17406  bettingToken */\n      0x03\n        /* \"v2.sol\":430:24350  contract PolicastMarketV2 is Ownable, ReentrancyGuard, AccessControl, Pausable {... */\n      sload\n      mload(0x40)\n      shl(0xe0, 0xa9059cbb)\n        /* \"v2.sol\":17394:17437  bettingToken.transfer(msg.sender, winnings) */\n      dup2\n      mstore\n        /* \"v2.sol\":16596:16606  msg.sender */\n      caller\n        /* \"v2.sol\":430:24350  contract PolicastMarketV2 is Ownable, ReentrancyGuard, AccessControl, Pausable {... */\n      0x04\n        /* \"v2.sol\":17394:17437  bettingToken.transfer(msg.sender, winnings) */\n      dup3\n      add\n        /* \"v2.sol\":430:24350  contract PolicastMarketV2 is Ownable, ReentrancyGuard, AccessControl, Pausable {... */\n      mstore\n      0x24\n      dup2\n      add\n      dup6\n      swap1\n      mstore\n      swap2\n      swap1\n      dup2\n      swap1\n      dup4\n      swap1\n        /* \"v2.sol\":16456:16463  markets */\n      0x08\n        /* \"v2.sol\":430:24350  contract PolicastMarketV2 is Ownable, ReentrancyGuard, AccessControl, Pausable {... */\n      shr\n      sub(shl(0xa0, 0x01), 0x01)\n      and\n      dup2\n      0x00\n      dup2\n      0x44\n      dup2\n      add\n        /* \"v2.sol\":17394:17437  bettingToken.transfer(msg.sender, winnings) */\n      sub\n      swap3\n      gas\n      call\n      swap2\n      dup3\n      iszero\n      tag_206\n      jumpi\n        /* \"v2.sol\":17472:17512  Claimed(_marketId, msg.sender, winnings) */\n      0x4ec90e965519d92681267467f775ada5bd214aa92c0dc93d90a5e880ce9ed026\n        /* \"v2.sol\":17394:17437  bettingToken.transfer(msg.sender, winnings) */\n      swap3\n        /* \"v2.sol\":17386:17457  require(bettingToken.transfer(msg.sender, winnings), \"Transfer failed\") */\n      tag_506\n        /* \"v2.sol\":17394:17437  bettingToken.transfer(msg.sender, winnings) */\n      swap2\n        /* \"v2.sol\":430:24350  contract PolicastMarketV2 is Ownable, ReentrancyGuard, AccessControl, Pausable {... */\n      0x00\n        /* \"v2.sol\":17394:17437  bettingToken.transfer(msg.sender, winnings) */\n      swap2\n      tag_507\n      jumpi\n        /* \"v2.sol\":17386:17457  require(bettingToken.transfer(msg.sender, winnings), \"Transfer failed\") */\n      pop\n      tag_44\n      jump\t// in\n    tag_506:\n        /* \"v2.sol\":430:24350  contract PolicastMarketV2 is Ownable, ReentrancyGuard, AccessControl, Pausable {... */\n      mload(0x40)\n      swap4\n      dup5\n      mstore\n        /* \"v2.sol\":16596:16606  msg.sender */\n      caller\n        /* \"v2.sol\":17472:17512  Claimed(_marketId, msg.sender, winnings) */\n      swap4\n      log3\n        /* \"v2.sol\":430:24350  contract PolicastMarketV2 is Ownable, ReentrancyGuard, AccessControl, Pausable {... */\n      0x01\n      dup1\n      sstore\n      stop\n        /* \"v2.sol\":17394:17437  bettingToken.transfer(msg.sender, winnings) */\n    tag_507:\n      tag_509\n      swap2\n      pop\n      dup4\n      returndatasize\n      dup6\n      gt\n      tag_245\n      jumpi\n      tag_247\n      dup2\n      dup4\n      tag_13\n      jump\t// in\n    tag_509:\n      dup7\n      jump(tag_210)\n        /* \"v2.sol\":430:24350  contract PolicastMarketV2 is Ownable, ReentrancyGuard, AccessControl, Pausable {... */\n    tag_493:\n      mload(0x40)\n      shl(0xe5, 0x461bcd)\n      dup2\n      mstore\n      0x04\n      dup2\n      add\n      dup6\n      swap1\n      mstore\n      0x11\n      0x24\n      dup3\n      add\n      mstore\n      shl(0x78, 0x4e6f2077696e6e696e6720736861726573)\n      0x44\n      dup3\n      add\n      mstore\n      0x64\n      swap1\n      revert\n    tag_491:\n      mload(0x40)\n      shl(0xe5, 0x461bcd)\n      dup2\n      mstore\n      0x04\n      dup2\n      add\n      dup4\n      swap1\n      mstore\n      0x0f\n      0x24\n      dup3\n      add\n      mstore\n      shl(0x8a, 0x105b1c9958591e4818db185a5b5959)\n      0x44\n      dup3\n      add\n      mstore\n      0x64\n      swap1\n      revert\n    tag_489:\n      0x64\n      swap1\n      mload(0x40)\n      swap1\n      shl(0xe5, 0x461bcd)\n      dup3\n      mstore\n      0x04\n      dup3\n      add\n      mstore\n      0x1b\n      0x24\n      dup3\n      add\n      mstore\n      0x4d61726b6574206e6f7420726561647920666f7220636c61696d730000000000\n      0x44\n      dup3\n      add\n      mstore\n      revert\n        /* \"v2.sol\":16492:16527  market.resolved && !market.disputed */\n    tag_487:\n        /* \"v2.sol\":430:24350  contract PolicastMarketV2 is Ownable, ReentrancyGuard, AccessControl, Pausable {... */\n      0xff\n      swap2\n      pop\n        /* \"v2.sol\":16456:16463  markets */\n      0x08\n        /* \"v2.sol\":430:24350  contract PolicastMarketV2 is Ownable, ReentrancyGuard, AccessControl, Pausable {... */\n      shr\n      and\n        /* \"v2.sol\":16511:16527  !market.disputed */\n      iszero\n        /* \"v2.sol\":16492:16527  market.resolved && !market.disputed */\n      dup5\n      jump(tag_488)\n        /* \"v2.sol\":430:24350  contract PolicastMarketV2 is Ownable, ReentrancyGuard, AccessControl, Pausable {... */\n    tag_104:\n      jumpi(tag_174, callvalue)\n      tag_515\n      calldatasize\n      tag_8\n      jump\t// in\n    tag_515:\n        /* \"v2.sol\":5966:6023  require(_marketId < marketCount, \"Market does not exist\") */\n      tag_516\n        /* \"v2.sol\":430:24350  contract PolicastMarketV2 is Ownable, ReentrancyGuard, AccessControl, Pausable {... */\n      sload(0x04)\n        /* \"v2.sol\":5974:5997  _marketId < marketCount */\n      dup4\n      lt\n        /* \"v2.sol\":5966:6023  require(_marketId < marketCount, \"Market does not exist\") */\n      tag_33\n      jump\t// in\n    tag_516:\n        /* \"v2.sol\":430:24350  contract PolicastMarketV2 is Ownable, ReentrancyGuard, AccessControl, Pausable {... */\n      and(sub(shl(0xa0, 0x01), 0x01), sload(0x00))\n        /* \"v2.sol\":15248:15258  msg.sender */\n      caller\n        /* \"v2.sol\":15248:15269  msg.sender == owner() */\n      eq\n        /* \"v2.sol\":15248:15315  msg.sender == owner() || hasRole(QUESTION_RESOLVE_ROLE, msg.sender) */\n      dup1\n      iszero\n      tag_517\n      jumpi\n        /* \"v2.sol\":430:24350  contract PolicastMarketV2 is Ownable, ReentrancyGuard, AccessControl, Pausable {... */\n    tag_518:\n      iszero\n      tag_519\n      jumpi\n      dup2\n      0x00\n      mstore\n        /* \"v2.sol\":15408:15415  markets */\n      0x08\n        /* \"v2.sol\":430:24350  contract PolicastMarketV2 is Ownable, ReentrancyGuard, AccessControl, Pausable {... */\n      0x20\n      mstore\n      keccak256(0x00, 0x40)\n        /* \"v2.sol\":15463:15477  market.endTime */\n      swap1\n      0x02\n      dup3\n      add\n        /* \"v2.sol\":430:24350  contract PolicastMarketV2 is Ownable, ReentrancyGuard, AccessControl, Pausable {... */\n      sload\n        /* \"v2.sol\":15444:15459  block.timestamp */\n      timestamp\n        /* \"v2.sol\":15444:15477  block.timestamp >= market.endTime */\n      lt\n        /* \"v2.sol\":430:24350  contract PolicastMarketV2 is Ownable, ReentrancyGuard, AccessControl, Pausable {... */\n      tag_521\n      jumpi\n        /* \"v2.sol\":15525:15540  market.resolved */\n      0x05\n      dup3\n      add\n        /* \"v2.sol\":430:24350  contract PolicastMarketV2 is Ownable, ReentrancyGuard, AccessControl, Pausable {... */\n      swap1\n      dup2\n      sload\n      swap2\n        /* \"v2.sol\":15516:15568  require(!market.resolved, \"Market already resolved\") */\n      tag_523\n        /* \"v2.sol\":430:24350  contract PolicastMarketV2 is Ownable, ReentrancyGuard, AccessControl, Pausable {... */\n      0xff\n      dup5\n      and\n        /* \"v2.sol\":15524:15540  !market.resolved */\n      iszero\n        /* \"v2.sol\":15516:15568  require(!market.resolved, \"Market already resolved\") */\n      tag_36\n      jump\t// in\n    tag_523:\n        /* \"v2.sol\":15605:15623  market.optionCount */\n      0x09\n      dup5\n      add\n        /* \"v2.sol\":430:24350  contract PolicastMarketV2 is Ownable, ReentrancyGuard, AccessControl, Pausable {... */\n      sload\n        /* \"v2.sol\":15586:15623  _winningOptionId < market.optionCount */\n      dup3\n      lt\n        /* \"v2.sol\":430:24350  contract PolicastMarketV2 is Ownable, ReentrancyGuard, AccessControl, Pausable {... */\n      iszero\n      tag_524\n      jumpi\n        /* \"v2.sol\":15730:15734  true */\n      0x01\n        /* \"v2.sol\":430:24350  contract PolicastMarketV2 is Ownable, ReentrancyGuard, AccessControl, Pausable {... */\n      0x40\n        /* \"v2.sol\":15661:15683  market.winningOptionId */\n      swap4\n      dup4\n        /* \"v2.sol\":430:24350  contract PolicastMarketV2 is Ownable, ReentrancyGuard, AccessControl, Pausable {... */\n      0x04\n        /* \"v2.sol\":15750:15805  MarketResolved(_marketId, _winningOptionId, msg.sender) */\n      0xc160a477581cb2155b1578581d805dcc0e6623403811fc2853465045bc0b0492\n        /* \"v2.sol\":15661:15683  market.winningOptionId */\n      swap8\n      add\n        /* \"v2.sol\":430:24350  contract PolicastMarketV2 is Ownable, ReentrancyGuard, AccessControl, Pausable {... */\n      sstore\n      not(0xff)\n      and\n      or\n      swap1\n      sstore\n      dup2\n      mload\n      swap1\n      dup2\n      mstore\n        /* \"v2.sol\":15248:15258  msg.sender */\n      caller\n        /* \"v2.sol\":430:24350  contract PolicastMarketV2 is Ownable, ReentrancyGuard, AccessControl, Pausable {... */\n      0x20\n      dup3\n      add\n      mstore\n        /* \"v2.sol\":15750:15805  MarketResolved(_marketId, _winningOptionId, msg.sender) */\n      log2\n        /* \"v2.sol\":430:24350  contract PolicastMarketV2 is Ownable, ReentrancyGuard, AccessControl, Pausable {... */\n      stop\n    tag_524:\n      mload(0x40)\n      shl(0xe5, 0x461bcd)\n      dup2\n      mstore\n      0x20\n      0x04\n      dup3\n      add\n      mstore\n      0x16\n      0x24\n      dup3\n      add\n      mstore\n      shl(0x51, 0x24b73b30b634b2103bb4b73734b7339037b83a34b7b7)\n      0x44\n      dup3\n      add\n      mstore\n      0x64\n      swap1\n      revert\n    tag_521:\n      mload(0x40)\n      shl(0xe5, 0x461bcd)\n      dup2\n      mstore\n      0x20\n      0x04\n      dup3\n      add\n      mstore\n      0x18\n      0x24\n      dup3\n      add\n      mstore\n      0x4d61726b657420686173206e6f7420656e646564207965740000000000000000\n      0x44\n      dup3\n      add\n      mstore\n      0x64\n      swap1\n      revert\n    tag_519:\n      mload(0x40)\n      shl(0xe5, 0x461bcd)\n      dup2\n      mstore\n      0x20\n      0x04\n      dup3\n      add\n      mstore\n      0x21\n      0x24\n      dup3\n      add\n      mstore\n      0x4e6f7420617574686f72697a656420746f207265736f6c7665206d61726b6574\n      0x44\n      dup3\n      add\n      mstore\n      shl(0xf8, 0x73)\n      0x64\n      dup3\n      add\n      mstore\n      0x84\n      swap1\n      revert\n        /* \"v2.sol\":15248:15315  msg.sender == owner() || hasRole(QUESTION_RESOLVE_ROLE, msg.sender) */\n    tag_517:\n      pop\n        /* \"v2.sol\":15248:15258  msg.sender */\n      caller\n        /* \"v2.sol\":430:24350  contract PolicastMarketV2 is Ownable, ReentrancyGuard, AccessControl, Pausable {... */\n      0x00\n      swap1\n      dup2\n      mstore\n      mstore(0x20, 0x8e2c297e756b2a427c5dc4607f639842a8ea6e0f6322302f4ea76306b642cfc2)\n      0x40\n      swap1\n      keccak256\n      sload\n      0xff\n      and\n        /* \"v2.sol\":15248:15315  msg.sender == owner() || hasRole(QUESTION_RESOLVE_ROLE, msg.sender) */\n      jump(tag_518)\n        /* \"v2.sol\":430:24350  contract PolicastMarketV2 is Ownable, ReentrancyGuard, AccessControl, Pausable {... */\n    tag_102:\n      jumpi(tag_174, callvalue)\n      jumpi(tag_174, slt(add(not(0x03), calldatasize), 0x00))\n      0x20\n      0xff\n        /* \"@openzeppelin/contracts/utils/Pausable.sol\":1796:1803  _paused */\n      0x03\n        /* \"v2.sol\":430:24350  contract PolicastMarketV2 is Ownable, ReentrancyGuard, AccessControl, Pausable {... */\n      sload\n      and\n      mload(0x40)\n      swap1\n      iszero\n      iszero\n      dup2\n      mstore\n      return\n    tag_100:\n      jumpi(tag_174, callvalue)\n      tag_532\n      calldatasize\n      tag_19\n      jump\t// in\n    tag_532:\n        /* \"@openzeppelin/contracts/utils/ReentrancyGuard.sol\":2466:2569  modifier nonReentrant() {... */\n      tag_533\n      tag_54\n      jump\t// in\n    tag_533:\n        /* \"@openzeppelin/contracts/utils/Pausable.sol\":1315:1387  modifier whenNotPaused() {... */\n      tag_534\n      tag_46\n      jump\t// in\n    tag_534:\n        /* \"v2.sol\":5966:6023  require(_marketId < marketCount, \"Market does not exist\") */\n      tag_535\n        /* \"v2.sol\":430:24350  contract PolicastMarketV2 is Ownable, ReentrancyGuard, AccessControl, Pausable {... */\n      sload(0x04)\n        /* \"v2.sol\":5974:5997  _marketId < marketCount */\n      dup6\n      lt\n        /* \"v2.sol\":5966:6023  require(_marketId < marketCount, \"Market does not exist\") */\n      tag_33\n      jump\t// in\n    tag_535:\n        /* \"v2.sol\":430:24350  contract PolicastMarketV2 is Ownable, ReentrancyGuard, AccessControl, Pausable {... */\n      dup4\n      0x00\n      mstore\n        /* \"v2.sol\":6124:6131  markets */\n      0x08\n        /* \"v2.sol\":430:24350  contract PolicastMarketV2 is Ownable, ReentrancyGuard, AccessControl, Pausable {... */\n      0x20\n      mstore\n        /* \"v2.sol\":6098:6171  require(block.timestamp < markets[_marketId].endTime, \"Market has ended\") */\n      tag_536\n        /* \"v2.sol\":6124:6150  markets[_marketId].endTime */\n      0x02\n        /* \"v2.sol\":430:24350  contract PolicastMarketV2 is Ownable, ReentrancyGuard, AccessControl, Pausable {... */\n      keccak256(0x00, 0x40)\n        /* \"v2.sol\":6124:6150  markets[_marketId].endTime */\n      add\n        /* \"v2.sol\":430:24350  contract PolicastMarketV2 is Ownable, ReentrancyGuard, AccessControl, Pausable {... */\n      sload\n        /* \"v2.sol\":6106:6121  block.timestamp */\n      timestamp\n        /* \"v2.sol\":6106:6150  block.timestamp < markets[_marketId].endTime */\n      lt\n        /* \"v2.sol\":6098:6171  require(block.timestamp < markets[_marketId].endTime, \"Market has ended\") */\n      tag_35\n      jump\t// in\n    tag_536:\n        /* \"v2.sol\":430:24350  contract PolicastMarketV2 is Ownable, ReentrancyGuard, AccessControl, Pausable {... */\n      dup4\n      0x00\n      mstore\n        /* \"v2.sol\":6124:6131  markets */\n      0x08\n        /* \"v2.sol\":430:24350  contract PolicastMarketV2 is Ownable, ReentrancyGuard, AccessControl, Pausable {... */\n      0x20\n      mstore\n        /* \"v2.sol\":6181:6245  require(!markets[_marketId].resolved, \"Market already resolved\") */\n      tag_537\n        /* \"v2.sol\":430:24350  contract PolicastMarketV2 is Ownable, ReentrancyGuard, AccessControl, Pausable {... */\n      0xff\n        /* \"v2.sol\":6190:6217  markets[_marketId].resolved */\n      0x05\n        /* \"v2.sol\":430:24350  contract PolicastMarketV2 is Ownable, ReentrancyGuard, AccessControl, Pausable {... */\n      keccak256(0x00, 0x40)\n        /* \"v2.sol\":6190:6217  markets[_marketId].resolved */\n      add\n        /* \"v2.sol\":430:24350  contract PolicastMarketV2 is Ownable, ReentrancyGuard, AccessControl, Pausable {... */\n      sload\n      and\n        /* \"v2.sol\":6189:6217  !markets[_marketId].resolved */\n      iszero\n        /* \"v2.sol\":6181:6245  require(!markets[_marketId].resolved, \"Market already resolved\") */\n      tag_36\n      jump\t// in\n    tag_537:\n        /* \"v2.sol\":430:24350  contract PolicastMarketV2 is Ownable, ReentrancyGuard, AccessControl, Pausable {... */\n      dup4\n      0x00\n      mstore\n        /* \"v2.sol\":6124:6131  markets */\n      0x08\n        /* \"v2.sol\":430:24350  contract PolicastMarketV2 is Ownable, ReentrancyGuard, AccessControl, Pausable {... */\n      0x20\n      mstore\n        /* \"v2.sol\":6338:6407  require(_optionId < markets[_marketId].optionCount, \"Invalid option\") */\n      tag_538\n        /* \"v2.sol\":6358:6388  markets[_marketId].optionCount */\n      0x09\n        /* \"v2.sol\":430:24350  contract PolicastMarketV2 is Ownable, ReentrancyGuard, AccessControl, Pausable {... */\n      keccak256(0x00, 0x40)\n        /* \"v2.sol\":6358:6388  markets[_marketId].optionCount */\n      add\n        /* \"v2.sol\":430:24350  contract PolicastMarketV2 is Ownable, ReentrancyGuard, AccessControl, Pausable {... */\n      sload\n        /* \"v2.sol\":6346:6388  _optionId < markets[_marketId].optionCount */\n      dup5\n      lt\n        /* \"v2.sol\":6338:6407  require(_optionId < markets[_marketId].optionCount, \"Invalid option\") */\n      tag_37\n      jump\t// in\n    tag_538:\n        /* \"v2.sol\":430:24350  contract PolicastMarketV2 is Ownable, ReentrancyGuard, AccessControl, Pausable {... */\n      dup4\n      0x00\n      mstore\n        /* \"v2.sol\":6124:6131  markets */\n      0x08\n        /* \"v2.sol\":430:24350  contract PolicastMarketV2 is Ownable, ReentrancyGuard, AccessControl, Pausable {... */\n      0x20\n      mstore\n        /* \"v2.sol\":6425:6451  markets[_marketId].options */\n      0x0a\n        /* \"v2.sol\":430:24350  contract PolicastMarketV2 is Ownable, ReentrancyGuard, AccessControl, Pausable {... */\n      keccak256(0x00, 0x40)\n        /* \"v2.sol\":6425:6451  markets[_marketId].options */\n      add\n        /* \"v2.sol\":430:24350  contract PolicastMarketV2 is Ownable, ReentrancyGuard, AccessControl, Pausable {... */\n      dup4\n      0x00\n      mstore\n      0x20\n      mstore\n        /* \"v2.sol\":6417:6493  require(markets[_marketId].options[_optionId].isActive, \"Option not active\") */\n      tag_539\n        /* \"v2.sol\":430:24350  contract PolicastMarketV2 is Ownable, ReentrancyGuard, AccessControl, Pausable {... */\n      0xff\n        /* \"v2.sol\":6190:6217  markets[_marketId].resolved */\n      0x05\n        /* \"v2.sol\":430:24350  contract PolicastMarketV2 is Ownable, ReentrancyGuard, AccessControl, Pausable {... */\n      keccak256(0x00, 0x40)\n        /* \"v2.sol\":6425:6471  markets[_marketId].options[_optionId].isActive */\n      add\n        /* \"v2.sol\":430:24350  contract PolicastMarketV2 is Ownable, ReentrancyGuard, AccessControl, Pausable {... */\n      sload\n      and\n        /* \"v2.sol\":6417:6493  require(markets[_marketId].options[_optionId].isActive, \"Option not active\") */\n      tag_38\n      jump\t// in\n    tag_539:\n        /* \"v2.sol\":12757:12808  require(_quantity > 0, \"Quantity must be positive\") */\n      tag_540\n        /* \"v2.sol\":12765:12778  _quantity > 0 */\n      dup3\n      iszero\n      iszero\n        /* \"v2.sol\":12757:12808  require(_quantity > 0, \"Quantity must be positive\") */\n      tag_39\n      jump\t// in\n    tag_540:\n        /* \"v2.sol\":430:24350  contract PolicastMarketV2 is Ownable, ReentrancyGuard, AccessControl, Pausable {... */\n      dup4\n      0x00\n      mstore\n        /* \"v2.sol\":6124:6131  markets */\n      0x08\n        /* \"v2.sol\":430:24350  contract PolicastMarketV2 is Ownable, ReentrancyGuard, AccessControl, Pausable {... */\n      0x20\n      mstore\n        /* \"v2.sol\":12826:12855  markets[_marketId].userShares */\n      0x0b\n        /* \"v2.sol\":430:24350  contract PolicastMarketV2 is Ownable, ReentrancyGuard, AccessControl, Pausable {... */\n      keccak256(0x00, 0x40)\n        /* \"v2.sol\":12826:12855  markets[_marketId].userShares */\n      add\n        /* \"v2.sol\":12856:12866  msg.sender */\n      caller\n        /* \"v2.sol\":430:24350  contract PolicastMarketV2 is Ownable, ReentrancyGuard, AccessControl, Pausable {... */\n      0x00\n      mstore\n      0x20\n      mstore\n      keccak256(0x00, 0x40)\n      dup4\n      0x00\n      mstore\n      0x20\n      mstore\n      dup2\n      sload(keccak256(0x00, 0x40))\n        /* \"v2.sol\":12826:12891  markets[_marketId].userShares[msg.sender][_optionId] >= _quantity */\n      lt\n        /* \"v2.sol\":430:24350  contract PolicastMarketV2 is Ownable, ReentrancyGuard, AccessControl, Pausable {... */\n      tag_541\n      jumpi\n      0x00\n      dup5\n      dup2\n      mstore\n        /* \"v2.sol\":6124:6131  markets */\n      0x08\n        /* \"v2.sol\":430:24350  contract PolicastMarketV2 is Ownable, ReentrancyGuard, AccessControl, Pausable {... */\n      0x20\n      swap1\n      dup2\n      mstore\n      0x40\n      dup1\n      dup4\n      keccak256\n      dup7\n      dup5\n      mstore\n        /* \"v2.sol\":6425:6451  markets[_marketId].options */\n      0x0a\n        /* \"v2.sol\":13008:13022  market.options */\n      dup2\n      add\n        /* \"v2.sol\":430:24350  contract PolicastMarketV2 is Ownable, ReentrancyGuard, AccessControl, Pausable {... */\n      swap1\n      swap3\n      mstore\n      swap1\n      swap2\n      keccak256\n      0x04\n        /* \"v2.sol\":17728:17766  market.options[_optionId].currentPrice */\n      dup2\n      add\n        /* \"v2.sol\":430:24350  contract PolicastMarketV2 is Ownable, ReentrancyGuard, AccessControl, Pausable {... */\n      sload\n      swap1\n      swap5\n      swap2\n      swap3\n      swap1\n      swap2\n      swap1\n        /* \"v2.sol\":13128:13161  currentPrice >= _minPricePerShare */\n      dup3\n      lt\n        /* \"v2.sol\":430:24350  contract PolicastMarketV2 is Ownable, ReentrancyGuard, AccessControl, Pausable {... */\n      tag_543\n      jumpi\n        /* \"v2.sol\":13240:13244  1e18 */\n      0x0de0b6b3a7640000\n        /* \"v2.sol\":13213:13237  currentPrice * _quantity */\n      tag_545\n      dup6\n      dup5\n      tag_40\n      jump\t// in\n    tag_545:\n        /* \"v2.sol\":430:24350  contract PolicastMarketV2 is Ownable, ReentrancyGuard, AccessControl, Pausable {... */\n      div\n      swap5\n        /* \"v2.sol\":13301:13306  10000 */\n      0x2710\n        /* \"v2.sol\":13268:13298  totalRevenue * platformFeeRate */\n      tag_546\n        /* \"v2.sol\":13283:13298  platformFeeRate */\n      0x07\n        /* \"v2.sol\":430:24350  contract PolicastMarketV2 is Ownable, ReentrancyGuard, AccessControl, Pausable {... */\n      sload\n        /* \"v2.sol\":13268:13298  totalRevenue * platformFeeRate */\n      dup9\n      tag_40\n      jump\t// in\n    tag_546:\n        /* \"v2.sol\":430:24350  contract PolicastMarketV2 is Ownable, ReentrancyGuard, AccessControl, Pausable {... */\n      div\n        /* \"v2.sol\":13337:13355  totalRevenue - fee */\n      swap4\n        /* \"v2.sol\":13583:13602  market.feeCollected */\n      0x0f\n        /* \"v2.sol\":13337:13355  totalRevenue - fee */\n      tag_547\n      dup7\n      dup10\n      tag_34\n      jump\t// in\n    tag_547:\n        /* \"v2.sol\":12856:12866  msg.sender */\n      swap2\n      caller\n        /* \"v2.sol\":430:24350  contract PolicastMarketV2 is Ownable, ReentrancyGuard, AccessControl, Pausable {... */\n      0x00\n      mstore\n        /* \"v2.sol\":12826:12855  markets[_marketId].userShares */\n      0x0b\n        /* \"v2.sol\":13391:13408  market.userShares */\n      dup2\n      add\n        /* \"v2.sol\":430:24350  contract PolicastMarketV2 is Ownable, ReentrancyGuard, AccessControl, Pausable {... */\n      0x20\n      mstore\n      keccak256(0x00, 0x40)\n      dup6\n      0x00\n      mstore\n      0x20\n      mstore\n      keccak256(0x00, 0x40)\n        /* \"v2.sol\":13391:13444  market.userShares[msg.sender][_optionId] -= _quantity */\n      tag_548\n        /* \"v2.sol\":430:24350  contract PolicastMarketV2 is Ownable, ReentrancyGuard, AccessControl, Pausable {... */\n      dup10\n      dup3\n      sload\n        /* \"v2.sol\":13391:13444  market.userShares[msg.sender][_optionId] -= _quantity */\n      tag_34\n      jump\t// in\n    tag_548:\n        /* \"v2.sol\":430:24350  contract PolicastMarketV2 is Ownable, ReentrancyGuard, AccessControl, Pausable {... */\n      swap1\n      sstore\n        /* \"v2.sol\":6124:6150  markets[_marketId].endTime */\n      0x02\n        /* \"v2.sol\":13454:13472  option.totalShares */\n      dup5\n      add\n        /* \"v2.sol\":13454:13485  option.totalShares -= _quantity */\n      tag_549\n        /* \"v2.sol\":430:24350  contract PolicastMarketV2 is Ownable, ReentrancyGuard, AccessControl, Pausable {... */\n      dup10\n      dup3\n      sload\n        /* \"v2.sol\":13454:13485  option.totalShares -= _quantity */\n      tag_34\n      jump\t// in\n    tag_549:\n        /* \"v2.sol\":430:24350  contract PolicastMarketV2 is Ownable, ReentrancyGuard, AccessControl, Pausable {... */\n      swap1\n      sstore\n        /* \"v2.sol\":13495:13513  option.totalVolume */\n      0x03\n      dup5\n      add\n        /* \"v2.sol\":13495:13529  option.totalVolume += totalRevenue */\n      tag_550\n        /* \"v2.sol\":430:24350  contract PolicastMarketV2 is Ownable, ReentrancyGuard, AccessControl, Pausable {... */\n      dup11\n      dup3\n      sload\n        /* \"v2.sol\":13495:13529  option.totalVolume += totalRevenue */\n      tag_29\n      jump\t// in\n    tag_550:\n        /* \"v2.sol\":430:24350  contract PolicastMarketV2 is Ownable, ReentrancyGuard, AccessControl, Pausable {... */\n      swap1\n      sstore\n        /* \"v2.sol\":13283:13298  platformFeeRate */\n      0x07\n        /* \"v2.sol\":13539:13557  market.totalVolume */\n      dup2\n      add\n        /* \"v2.sol\":13539:13573  market.totalVolume += totalRevenue */\n      tag_551\n        /* \"v2.sol\":430:24350  contract PolicastMarketV2 is Ownable, ReentrancyGuard, AccessControl, Pausable {... */\n      dup11\n      dup3\n      sload\n        /* \"v2.sol\":13539:13573  market.totalVolume += totalRevenue */\n      tag_29\n      jump\t// in\n    tag_551:\n        /* \"v2.sol\":430:24350  contract PolicastMarketV2 is Ownable, ReentrancyGuard, AccessControl, Pausable {... */\n      swap1\n      sstore\n        /* \"v2.sol\":13583:13602  market.feeCollected */\n      add\n        /* \"v2.sol\":13583:13609  market.feeCollected += fee */\n      tag_552\n        /* \"v2.sol\":430:24350  contract PolicastMarketV2 is Ownable, ReentrancyGuard, AccessControl, Pausable {... */\n      dup7\n      dup3\n      sload\n        /* \"v2.sol\":13583:13609  market.feeCollected += fee */\n      tag_29\n      jump\t// in\n    tag_552:\n        /* \"v2.sol\":430:24350  contract PolicastMarketV2 is Ownable, ReentrancyGuard, AccessControl, Pausable {... */\n      swap1\n      sstore\n      dup8\n      0x00\n      mstore\n        /* \"v2.sol\":6124:6131  markets */\n      0x08\n        /* \"v2.sol\":430:24350  contract PolicastMarketV2 is Ownable, ReentrancyGuard, AccessControl, Pausable {... */\n      0x20\n      mstore\n        /* \"v2.sol\":6425:6451  markets[_marketId].options */\n      0x0a\n        /* \"v2.sol\":430:24350  contract PolicastMarketV2 is Ownable, ReentrancyGuard, AccessControl, Pausable {... */\n      keccak256(0x00, 0x40)\n        /* \"v2.sol\":18000:18014  market.options */\n      add\n        /* \"v2.sol\":430:24350  contract PolicastMarketV2 is Ownable, ReentrancyGuard, AccessControl, Pausable {... */\n      dup4\n      0x00\n      mstore\n      0x20\n      mstore\n      keccak256(0x00, 0x40)\n        /* \"v2.sol\":6124:6150  markets[_marketId].endTime */\n      0x02\n        /* \"v2.sol\":18112:18130  option.totalShares */\n      dup2\n      add\n        /* \"v2.sol\":430:24350  contract PolicastMarketV2 is Ownable, ReentrancyGuard, AccessControl, Pausable {... */\n      sload\n      swap1\n        /* \"v2.sol\":13240:13244  1e18 */\n      0x0de0b6b3a7640000\n        /* \"v2.sol\":430:24350  contract PolicastMarketV2 is Ownable, ReentrancyGuard, AccessControl, Pausable {... */\n      dup9\n      mul\n      swap2\n      dup9\n      dup4\n      div\n        /* \"v2.sol\":13240:13244  1e18 */\n      0x0de0b6b3a7640000\n        /* \"v2.sol\":430:24350  contract PolicastMarketV2 is Ownable, ReentrancyGuard, AccessControl, Pausable {... */\n      eq\n        /* \"v2.sol\":12765:12778  _quantity > 0 */\n      dup10\n      iszero\n        /* \"v2.sol\":430:24350  contract PolicastMarketV2 is Ownable, ReentrancyGuard, AccessControl, Pausable {... */\n      or\n      iszero\n      tag_225\n      jumpi\n        /* \"v2.sol\":18152:18156  1000 */\n      0x03e8\n        /* \"v2.sol\":430:24350  contract PolicastMarketV2 is Ownable, ReentrancyGuard, AccessControl, Pausable {... */\n      dup2\n      add\n      dup1\n      swap2\n      gt\n      tag_225\n      jumpi\n        /* \"v2.sol\":18482:18520  (_quantity * 1e18) / (totalShares + k) */\n      tag_557\n        /* \"v2.sol\":430:24350  contract PolicastMarketV2 is Ownable, ReentrancyGuard, AccessControl, Pausable {... */\n      0x04\n        /* \"v2.sol\":18482:18520  (_quantity * 1e18) / (totalShares + k) */\n      swap4\n      swap2\n      dup5\n      swap3\n      tag_30\n      jump\t// in\n    tag_557:\n        /* \"v2.sol\":18541:18560  option.currentPrice */\n      swap2\n      add\n        /* \"v2.sol\":430:24350  contract PolicastMarketV2 is Ownable, ReentrancyGuard, AccessControl, Pausable {... */\n      sload\n      swap1\n        /* \"v2.sol\":18541:18576  option.currentPrice > priceDecrease */\n      dup1\n      dup3\n      gt\n      iszero\n      tag_558\n      jumpi\n        /* \"v2.sol\":18579:18614  option.currentPrice - priceDecrease */\n      tag_560\n      swap2\n      tag_34\n      jump\t// in\n    tag_560:\n        /* \"v2.sol\":18541:18640  option.currentPrice > priceDecrease ? option.currentPrice - priceDecrease : option.currentPrice / 2 */\n      swap3\n    tag_561:\n        /* \"v2.sol\":13660:13679  option.currentPrice */\n      add\n        /* \"v2.sol\":430:24350  contract PolicastMarketV2 is Ownable, ReentrancyGuard, AccessControl, Pausable {... */\n      swap2\n      dup3\n      sstore\n        /* \"v2.sol\":13240:13244  1e18 */\n      0x0de0b6b3a7640000\n        /* \"v2.sol\":13937:13961  currentPrice * _quantity */\n      tag_562\n      dup8\n      dup7\n      tag_40\n      jump\t// in\n    tag_562:\n        /* \"v2.sol\":430:24350  contract PolicastMarketV2 is Ownable, ReentrancyGuard, AccessControl, Pausable {... */\n      div\n      swap1\n      0x00\n      dup3\n      dup3\n      sub\n      swap3\n      slt\n      dup2\n      dup4\n      slt\n      dup2\n      and\n      swap1\n      dup3\n      dup5\n      sgt\n      swap1\n      iszero\n      and\n      or\n      tag_225\n      jumpi\n        /* \"v2.sol\":12856:12866  msg.sender */\n      caller\n        /* \"v2.sol\":430:24350  contract PolicastMarketV2 is Ownable, ReentrancyGuard, AccessControl, Pausable {... */\n      0x00\n      mstore\n        /* \"v2.sol\":6425:6451  markets[_marketId].options */\n      0x0a\n        /* \"v2.sol\":430:24350  contract PolicastMarketV2 is Ownable, ReentrancyGuard, AccessControl, Pausable {... */\n      0x20\n      mstore\n        /* \"v2.sol\":13495:13513  option.totalVolume */\n      0x03\n        /* \"v2.sol\":430:24350  contract PolicastMarketV2 is Ownable, ReentrancyGuard, AccessControl, Pausable {... */\n      keccak256(0x00, 0x40)\n        /* \"v2.sol\":13979:14017  userPortfolios[msg.sender].realizedPnL */\n      add\n        /* \"v2.sol\":430:24350  contract PolicastMarketV2 is Ownable, ReentrancyGuard, AccessControl, Pausable {... */\n      dup1\n      sload\n      0x00\n      dup5\n      dup3\n      add\n      swap5\n      dup6\n      slt\n      swap2\n      slt\n      swap1\n      dup1\n      iszero\n      dup3\n      and\n      swap2\n      iszero\n      and\n      or\n      tag_225\n      jumpi\n      0x00\n      swap9\n      0x20\n      swap5\n        /* \"v2.sol\":14773:14818  bettingToken.transfer(msg.sender, netRevenue) */\n      tag_567\n        /* \"v2.sol\":430:24350  contract PolicastMarketV2 is Ownable, ReentrancyGuard, AccessControl, Pausable {... */\n      swap5\n        /* \"v2.sol\":14116:14293  priceHistory[_marketId][_optionId].push(PricePoint({... */\n      tag_568\n        /* \"v2.sol\":430:24350  contract PolicastMarketV2 is Ownable, ReentrancyGuard, AccessControl, Pausable {... */\n      swap4\n      sstore\n        /* \"v2.sol\":12856:12866  msg.sender */\n      caller\n        /* \"v2.sol\":430:24350  contract PolicastMarketV2 is Ownable, ReentrancyGuard, AccessControl, Pausable {... */\n      dup12\n      mstore\n        /* \"v2.sol\":6425:6451  markets[_marketId].options */\n      0x0a\n        /* \"v2.sol\":430:24350  contract PolicastMarketV2 is Ownable, ReentrancyGuard, AccessControl, Pausable {... */\n      dup7\n      mstore\n      0x04\n      0x40\n      dup13\n      keccak256\n        /* \"v2.sol\":14034:14071  userPortfolios[msg.sender].tradeCount */\n      add\n        /* \"v2.sol\":14034:14073  userPortfolios[msg.sender].tradeCount++ */\n      tag_569\n        /* \"v2.sol\":430:24350  contract PolicastMarketV2 is Ownable, ReentrancyGuard, AccessControl, Pausable {... */\n      dup2\n      sload\n        /* \"v2.sol\":14034:14073  userPortfolios[msg.sender].tradeCount++ */\n      tag_28\n      jump\t// in\n    tag_569:\n        /* \"v2.sol\":430:24350  contract PolicastMarketV2 is Ownable, ReentrancyGuard, AccessControl, Pausable {... */\n      swap1\n      sstore\n      dup12\n      dup12\n      mstore\n        /* \"v2.sol\":14116:14128  priceHistory */\n      0x0d\n        /* \"v2.sol\":430:24350  contract PolicastMarketV2 is Ownable, ReentrancyGuard, AccessControl, Pausable {... */\n      dup7\n      mstore\n      0x40\n      dup12\n      keccak256\n      dup8\n      dup13\n      mstore\n      dup7\n      mstore\n      0x40\n      dup12\n      keccak256\n      swap1\n      sload\n      swap2\n      mload(0x40)\n      swap3\n      tag_570\n      dup5\n      tag_11\n      jump\t// in\n    tag_570:\n      dup4\n      mstore\n        /* \"v2.sol\":6106:6121  block.timestamp */\n      timestamp\n        /* \"v2.sol\":14156:14292  PricePoint({... */\n      dup8\n      dup5\n      add\n        /* \"v2.sol\":430:24350  contract PolicastMarketV2 is Ownable, ReentrancyGuard, AccessControl, Pausable {... */\n      mstore\n      0x40\n        /* \"v2.sol\":14156:14292  PricePoint({... */\n      dup4\n      add\n        /* \"v2.sol\":430:24350  contract PolicastMarketV2 is Ownable, ReentrancyGuard, AccessControl, Pausable {... */\n      mstore\n        /* \"v2.sol\":14116:14293  priceHistory[_marketId][_optionId].push(PricePoint({... */\n      tag_32\n      jump\t// in\n    tag_568:\n        /* \"v2.sol\":14719:14754  marketTrades[_marketId].push(trade) */\n      tag_571\n        /* \"v2.sol\":430:24350  contract PolicastMarketV2 is Ownable, ReentrancyGuard, AccessControl, Pausable {... */\n      mload(0x40)\n      tag_572\n      dup2\n      tag_12\n      jump\t// in\n    tag_572:\n      dup11\n      dup2\n      mstore\n        /* \"v2.sol\":14349:14658  Trade({... */\n      dup6\n      dup6\n      dup3\n      add\n        /* \"v2.sol\":430:24350  contract PolicastMarketV2 is Ownable, ReentrancyGuard, AccessControl, Pausable {... */\n      mstore\n        /* \"v2.sol\":14349:14658  Trade({... */\n      dup10\n        /* \"v2.sol\":430:24350  contract PolicastMarketV2 is Ownable, ReentrancyGuard, AccessControl, Pausable {... */\n      0x40\n        /* \"v2.sol\":14349:14658  Trade({... */\n      dup3\n      add\n        /* \"v2.sol\":430:24350  contract PolicastMarketV2 is Ownable, ReentrancyGuard, AccessControl, Pausable {... */\n      mstore\n        /* \"v2.sol\":12856:12866  msg.sender */\n      caller\n        /* \"v2.sol\":430:24350  contract PolicastMarketV2 is Ownable, ReentrancyGuard, AccessControl, Pausable {... */\n      0x60\n        /* \"v2.sol\":14349:14658  Trade({... */\n      dup3\n      add\n        /* \"v2.sol\":430:24350  contract PolicastMarketV2 is Ownable, ReentrancyGuard, AccessControl, Pausable {... */\n      mstore\n        /* \"v2.sol\":14349:14658  Trade({... */\n      dup7\n      0x80\n      dup3\n      add\n        /* \"v2.sol\":430:24350  contract PolicastMarketV2 is Ownable, ReentrancyGuard, AccessControl, Pausable {... */\n      mstore\n        /* \"v2.sol\":14349:14658  Trade({... */\n      dup9\n      0xa0\n      dup3\n      add\n        /* \"v2.sol\":430:24350  contract PolicastMarketV2 is Ownable, ReentrancyGuard, AccessControl, Pausable {... */\n      mstore\n        /* \"v2.sol\":6106:6121  block.timestamp */\n      timestamp\n        /* \"v2.sol\":14349:14658  Trade({... */\n      0xc0\n      dup3\n      add\n        /* \"v2.sol\":430:24350  contract PolicastMarketV2 is Ownable, ReentrancyGuard, AccessControl, Pausable {... */\n      mstore\n        /* \"v2.sol\":14349:14658  Trade({... */\n      dup10\n        /* \"v2.sol\":430:24350  contract PolicastMarketV2 is Ownable, ReentrancyGuard, AccessControl, Pausable {... */\n      0xe0\n        /* \"v2.sol\":14349:14658  Trade({... */\n      dup3\n      add\n        /* \"v2.sol\":430:24350  contract PolicastMarketV2 is Ownable, ReentrancyGuard, AccessControl, Pausable {... */\n      mstore\n        /* \"v2.sol\":12856:12866  msg.sender */\n      caller\n        /* \"v2.sol\":430:24350  contract PolicastMarketV2 is Ownable, ReentrancyGuard, AccessControl, Pausable {... */\n      dup11\n      mstore\n        /* \"v2.sol\":12826:12855  markets[_marketId].userShares */\n      0x0b\n        /* \"v2.sol\":430:24350  contract PolicastMarketV2 is Ownable, ReentrancyGuard, AccessControl, Pausable {... */\n      dup6\n      mstore\n        /* \"v2.sol\":14669:14709  userTradeHistory[msg.sender].push(trade) */\n      tag_573\n        /* \"v2.sol\":430:24350  contract PolicastMarketV2 is Ownable, ReentrancyGuard, AccessControl, Pausable {... */\n      dup2\n      0x40\n      dup13\n      keccak256\n        /* \"v2.sol\":14669:14709  userTradeHistory[msg.sender].push(trade) */\n      tag_41\n      jump\t// in\n    tag_573:\n        /* \"v2.sol\":430:24350  contract PolicastMarketV2 is Ownable, ReentrancyGuard, AccessControl, Pausable {... */\n      dup11\n      dup11\n      mstore\n        /* \"v2.sol\":14719:14731  marketTrades */\n      0x0c\n        /* \"v2.sol\":430:24350  contract PolicastMarketV2 is Ownable, ReentrancyGuard, AccessControl, Pausable {... */\n      dup6\n      mstore\n      0x40\n      dup11\n      keccak256\n        /* \"v2.sol\":14719:14754  marketTrades[_marketId].push(trade) */\n      tag_41\n      jump\t// in\n    tag_571:\n        /* \"v2.sol\":13495:13513  option.totalVolume */\n      0x03\n        /* \"v2.sol\":430:24350  contract PolicastMarketV2 is Ownable, ReentrancyGuard, AccessControl, Pausable {... */\n      sload\n      mload(0x40)\n      shl(0xe0, 0xa9059cbb)\n        /* \"v2.sol\":14773:14818  bettingToken.transfer(msg.sender, netRevenue) */\n      dup2\n      mstore\n        /* \"v2.sol\":12856:12866  msg.sender */\n      caller\n        /* \"v2.sol\":430:24350  contract PolicastMarketV2 is Ownable, ReentrancyGuard, AccessControl, Pausable {... */\n      0x04\n        /* \"v2.sol\":14773:14818  bettingToken.transfer(msg.sender, netRevenue) */\n      dup3\n      add\n        /* \"v2.sol\":430:24350  contract PolicastMarketV2 is Ownable, ReentrancyGuard, AccessControl, Pausable {... */\n      mstore\n      0x24\n      dup2\n      add\n      swap3\n      swap1\n      swap3\n      mstore\n      swap1\n      swap8\n      dup9\n      swap3\n        /* \"v2.sol\":6124:6131  markets */\n      0x08\n        /* \"v2.sol\":430:24350  contract PolicastMarketV2 is Ownable, ReentrancyGuard, AccessControl, Pausable {... */\n      swap3\n      swap1\n      swap3\n      shr\n      sub(shl(0xa0, 0x01), 0x01)\n      and\n      swap2\n      dup4\n      swap2\n      swap1\n      dup3\n      swap1\n      0x44\n      dup3\n      add\n      swap1\n      jump\n        /* \"v2.sol\":14773:14818  bettingToken.transfer(msg.sender, netRevenue) */\n    tag_567:\n      sub\n      swap3\n      gas\n      call\n      swap4\n      dup5\n      iszero\n      tag_206\n      jumpi\n        /* \"v2.sol\":14938:15036  TradeExecuted(_marketId, _optionId, address(0), msg.sender, currentPrice, _quantity, tradeCount++) */\n      0x976184626638b6c7e51a4ab66b297beb1714b545ce4e867a70d622566573098c\n        /* \"v2.sol\":14349:14658  Trade({... */\n      0x80\n        /* \"v2.sol\":430:24350  contract PolicastMarketV2 is Ownable, ReentrancyGuard, AccessControl, Pausable {... */\n      0x00\n        /* \"v2.sol\":14773:14818  bettingToken.transfer(msg.sender, netRevenue) */\n      swap5\n      dup10\n      swap4\n        /* \"v2.sol\":14765:14838  require(bettingToken.transfer(msg.sender, netRevenue), \"Transfer failed\") */\n      tag_576\n        /* \"v2.sol\":430:24350  contract PolicastMarketV2 is Ownable, ReentrancyGuard, AccessControl, Pausable {... */\n      0x20\n        /* \"v2.sol\":14773:14818  bettingToken.transfer(msg.sender, netRevenue) */\n      swap10\n        /* \"v2.sol\":15051:15079  FeeCollected(_marketId, fee) */\n      0xaf7c505ee772ec188af7067e1f73db08ab028e3d564273442b907742b9c41fa0\n        /* \"v2.sol\":14773:14818  bettingToken.transfer(msg.sender, netRevenue) */\n      swap12\n      dup10\n      swap2\n      tag_577\n      jumpi\n        /* \"v2.sol\":14765:14838  require(bettingToken.transfer(msg.sender, netRevenue), \"Transfer failed\") */\n      pop\n      tag_44\n      jump\t// in\n    tag_576:\n        /* \"v2.sol\":430:24350  contract PolicastMarketV2 is Ownable, ReentrancyGuard, AccessControl, Pausable {... */\n      mload(0x40)\n      dup2\n      dup2\n      mstore\n      dup3\n      dup11\n      dup3\n      add\n      mstore\n        /* \"v2.sol\":12856:12866  msg.sender */\n      dup7\n      dup7\n        /* \"v2.sol\":14854:14923  SharesSold(_marketId, _optionId, msg.sender, _quantity, currentPrice) */\n      0x33c49da1ff633ff516cc2661d0cd94af11b7b76985b6fe549151782c14db745a\n        /* \"v2.sol\":430:24350  contract PolicastMarketV2 is Ownable, ReentrancyGuard, AccessControl, Pausable {... */\n      0x40\n        /* \"v2.sol\":12856:12866  msg.sender */\n      caller\n        /* \"v2.sol\":14854:14923  SharesSold(_marketId, _optionId, msg.sender, _quantity, currentPrice) */\n      swap5\n      log4\n        /* \"v2.sol\":15023:15035  tradeCount++ */\n      0x06\n        /* \"v2.sol\":430:24350  contract PolicastMarketV2 is Ownable, ReentrancyGuard, AccessControl, Pausable {... */\n      sload\n        /* \"v2.sol\":15023:15035  tradeCount++ */\n      swap1\n      tag_579\n      dup3\n      tag_28\n      jump\t// in\n    tag_579:\n      0x06\n        /* \"v2.sol\":430:24350  contract PolicastMarketV2 is Ownable, ReentrancyGuard, AccessControl, Pausable {... */\n      sstore\n      mload(0x40)\n        /* \"v2.sol\":12856:12866  msg.sender */\n      swap3\n      caller\n        /* \"v2.sol\":430:24350  contract PolicastMarketV2 is Ownable, ReentrancyGuard, AccessControl, Pausable {... */\n      dup5\n      mstore\n      dup11\n      dup5\n      add\n      mstore\n      0x40\n      dup4\n      add\n      mstore\n      0x60\n      dup3\n      add\n      mstore\n        /* \"v2.sol\":14938:15036  TradeExecuted(_marketId, _optionId, address(0), msg.sender, currentPrice, _quantity, tradeCount++) */\n      log4\n        /* \"v2.sol\":430:24350  contract PolicastMarketV2 is Ownable, ReentrancyGuard, AccessControl, Pausable {... */\n      mload(0x40)\n      swap1\n      dup2\n      mstore\n        /* \"v2.sol\":15051:15079  FeeCollected(_marketId, fee) */\n      log2\n        /* \"@openzeppelin/contracts/utils/ReentrancyGuard.sol\":1857:1858  1 */\n      0x01\n        /* \"v2.sol\":430:24350  contract PolicastMarketV2 is Ownable, ReentrancyGuard, AccessControl, Pausable {... */\n      dup1\n      sstore\n      stop\n        /* \"v2.sol\":14773:14818  bettingToken.transfer(msg.sender, netRevenue) */\n    tag_577:\n      tag_580\n      swap2\n      pop\n      dup12\n      returndatasize\n      dup14\n      gt\n      tag_245\n      jumpi\n      tag_247\n      dup2\n      dup4\n      tag_13\n      jump\t// in\n    tag_580:\n      dup14\n      jump(tag_210)\n        /* \"v2.sol\":18541:18640  option.currentPrice > priceDecrease ? option.currentPrice - priceDecrease : option.currentPrice / 2 */\n    tag_558:\n        /* \"v2.sol\":430:24350  contract PolicastMarketV2 is Ownable, ReentrancyGuard, AccessControl, Pausable {... */\n      pop\n      0x01\n      shr\n        /* \"v2.sol\":18541:18640  option.currentPrice > priceDecrease ? option.currentPrice - priceDecrease : option.currentPrice / 2 */\n      swap3\n      jump(tag_561)\n        /* \"v2.sol\":430:24350  contract PolicastMarketV2 is Ownable, ReentrancyGuard, AccessControl, Pausable {... */\n    tag_543:\n      mload(0x40)\n      shl(0xe5, 0x461bcd)\n      dup2\n      mstore\n      0x20\n      0x04\n      dup3\n      add\n      mstore\n      0x0d\n      0x24\n      dup3\n      add\n      mstore\n      shl(0x98, 0x507269636520746f6f206c6f77)\n      0x44\n      dup3\n      add\n      mstore\n      0x64\n      swap1\n      revert\n    tag_541:\n      mload(0x40)\n      shl(0xe5, 0x461bcd)\n      dup2\n      mstore\n      0x20\n      0x04\n      dup3\n      add\n      mstore\n      0x13\n      0x24\n      dup3\n      add\n      mstore\n      shl(0x68, 0x496e73756666696369656e7420736861726573)\n      0x44\n      dup3\n      add\n      mstore\n      0x64\n      swap1\n      revert\n    tag_98:\n      jumpi(tag_174, callvalue)\n      0x20\n      dup1\n      add(calldatasize, not(0x03))\n      slt\n      tag_174\n      jumpi\n      calldataload(0x04)\n      swap1\n      0x00\n      0xa0\n      mload(0x40)\n      tag_588\n      dup2\n      tag_10\n      jump\t// in\n    tag_588:\n      dup3\n      dup2\n      mstore\n      dup3\n      dup5\n      dup3\n      add\n      mstore\n      dup3\n      0x40\n      dup3\n      add\n      mstore\n      dup3\n      0x60\n      dup3\n      add\n      mstore\n      dup3\n      0x80\n      dup3\n      add\n      mstore\n      add\n      mstore\n        /* \"v2.sol\":5966:6023  require(_marketId < marketCount, \"Market does not exist\") */\n      tag_589\n        /* \"v2.sol\":430:24350  contract PolicastMarketV2 is Ownable, ReentrancyGuard, AccessControl, Pausable {... */\n      sload(0x04)\n        /* \"v2.sol\":5974:5997  _marketId < marketCount */\n      dup4\n      lt\n        /* \"v2.sol\":5966:6023  require(_marketId < marketCount, \"Market does not exist\") */\n      tag_33\n      jump\t// in\n    tag_589:\n        /* \"v2.sol\":430:24350  contract PolicastMarketV2 is Ownable, ReentrancyGuard, AccessControl, Pausable {... */\n      dup2\n      0x00\n      mstore\n        /* \"v2.sol\":21034:21041  markets */\n      0x08\n        /* \"v2.sol\":430:24350  contract PolicastMarketV2 is Ownable, ReentrancyGuard, AccessControl, Pausable {... */\n      dup2\n      mstore\n      keccak256(0x00, 0x40)\n        /* \"v2.sol\":21125:21147  uint256 totalPrice = 0 */\n      swap1\n        /* \"v2.sol\":430:24350  contract PolicastMarketV2 is Ownable, ReentrancyGuard, AccessControl, Pausable {... */\n      0x00\n      dup1\n        /* \"v2.sol\":21181:21199  market.optionCount */\n      0x09\n      dup5\n      add\n        /* \"v2.sol\":430:24350  contract PolicastMarketV2 is Ownable, ReentrancyGuard, AccessControl, Pausable {... */\n      sload\n        /* \"v2.sol\":21234:21248  market.options */\n      swap2\n      0x0a\n      dup6\n      add\n        /* \"v2.sol\":21177:21199  i < market.optionCount */\n    tag_590:\n      dup4\n      dup3\n      lt\n      tag_591\n      jumpi\n        /* \"v2.sol\":21307:21338  totalPrice / market.optionCount */\n      pop\n      pop\n      swap1\n      tag_593\n      swap2\n      tag_30\n      jump\t// in\n    tag_593:\n        /* \"v2.sol\":21395:21413  market.totalVolume */\n      swap3\n        /* \"v2.sol\":21445:21464  market.participants */\n      0x0d\n        /* \"v2.sol\":21395:21413  market.totalVolume */\n      0x07\n      dup5\n      add\n        /* \"v2.sol\":430:24350  contract PolicastMarketV2 is Ownable, ReentrancyGuard, AccessControl, Pausable {... */\n      sload\n        /* \"v2.sol\":21445:21464  market.participants */\n      swap4\n      add\n        /* \"v2.sol\":430:24350  contract PolicastMarketV2 is Ownable, ReentrancyGuard, AccessControl, Pausable {... */\n      sload\n      dup2\n      0x00\n      mstore\n        /* \"v2.sol\":21613:21625  marketTrades */\n      0x0c\n        /* \"v2.sol\":430:24350  contract PolicastMarketV2 is Ownable, ReentrancyGuard, AccessControl, Pausable {... */\n      dup4\n      mstore\n      keccak256(0x00, 0x40)\n      dup1\n      sload\n        /* \"v2.sol\":21613:21719  marketTrades[_marketId].length > 0 ? marketTrades[_marketId][marketTrades[_marketId].length - 1].price : 0 */\n      swap1\n        /* \"v2.sol\":21613:21647  marketTrades[_marketId].length > 0 */\n      dup2\n      iszero\n      iszero\n        /* \"v2.sol\":21613:21719  marketTrades[_marketId].length > 0 ? marketTrades[_marketId][marketTrades[_marketId].length - 1].price : 0 */\n      0x00\n        /* \"v2.sol\":21613:21647  marketTrades[_marketId].length > 0 */\n      eq\n      tag_594\n      jumpi\n      not(0x00)\n        /* \"v2.sol\":430:24350  contract PolicastMarketV2 is Ownable, ReentrancyGuard, AccessControl, Pausable {... */\n      dup3\n      add\n      swap2\n      dup3\n      gt\n      tag_225\n      jumpi\n      0x04\n        /* \"v2.sol\":21650:21709  marketTrades[_marketId][marketTrades[_marketId].length - 1] */\n      swap2\n      tag_598\n      swap2\n      tag_5\n      jump\t// in\n    tag_598:\n        /* \"v2.sol\":21650:21715  marketTrades[_marketId][marketTrades[_marketId].length - 1].price */\n      pop\n      add\n        /* \"v2.sol\":430:24350  contract PolicastMarketV2 is Ownable, ReentrancyGuard, AccessControl, Pausable {... */\n      sload\n        /* \"v2.sol\":21613:21719  marketTrades[_marketId].length > 0 ? marketTrades[_marketId][marketTrades[_marketId].length - 1].price : 0 */\n      swap2\n    tag_599:\n        /* \"v2.sol\":430:24350  contract PolicastMarketV2 is Ownable, ReentrancyGuard, AccessControl, Pausable {... */\n      0x00\n      mstore\n        /* \"v2.sol\":21613:21625  marketTrades */\n      0x0c\n        /* \"v2.sol\":430:24350  contract PolicastMarketV2 is Ownable, ReentrancyGuard, AccessControl, Pausable {... */\n      dup4\n      mstore\n      keccak256(0x00, 0x40)\n      swap5\n      dup6\n      sload\n        /* \"v2.sol\":21748:21782  marketTrades[_marketId].length > 0 */\n      dup1\n      iszero\n      iszero\n        /* \"v2.sol\":21748:21858  marketTrades[_marketId].length > 0 ? marketTrades[_marketId][marketTrades[_marketId].length - 1].timestamp : 0 */\n      0x00\n        /* \"v2.sol\":21748:21782  marketTrades[_marketId].length > 0 */\n      eq\n      tag_600\n      jumpi\n      not(0x00)\n        /* \"v2.sol\":430:24350  contract PolicastMarketV2 is Ownable, ReentrancyGuard, AccessControl, Pausable {... */\n      dup2\n      add\n      swap1\n      dup2\n      gt\n      tag_225\n      jumpi\n        /* \"v2.sol\":21785:21844  marketTrades[_marketId][marketTrades[_marketId].length - 1] */\n      tag_604\n        /* \"v2.sol\":21785:21854  marketTrades[_marketId][marketTrades[_marketId].length - 1].timestamp */\n      0x06\n        /* \"v2.sol\":21785:21844  marketTrades[_marketId][marketTrades[_marketId].length - 1] */\n      swap2\n        /* \"v2.sol\":430:24350  contract PolicastMarketV2 is Ownable, ReentrancyGuard, AccessControl, Pausable {... */\n      0xc0\n        /* \"v2.sol\":21785:21844  marketTrades[_marketId][marketTrades[_marketId].length - 1] */\n      swap9\n      tag_5\n      jump\t// in\n    tag_604:\n        /* \"v2.sol\":21785:21854  marketTrades[_marketId][marketTrades[_marketId].length - 1].timestamp */\n      pop\n      add\n        /* \"v2.sol\":430:24350  contract PolicastMarketV2 is Ownable, ReentrancyGuard, AccessControl, Pausable {... */\n      sload\n        /* \"v2.sol\":21748:21858  marketTrades[_marketId].length > 0 ? marketTrades[_marketId][marketTrades[_marketId].length - 1].timestamp : 0 */\n      swap4\n    tag_605:\n        /* \"v2.sol\":430:24350  contract PolicastMarketV2 is Ownable, ReentrancyGuard, AccessControl, Pausable {... */\n      mload(0x40)\n      swap3\n      tag_606\n      dup5\n      tag_10\n      jump\t// in\n    tag_606:\n      dup7\n      dup5\n      mstore\n        /* \"v2.sol\":21356:21869  MarketStats({... */\n      dup2\n      dup5\n      add\n        /* \"v2.sol\":430:24350  contract PolicastMarketV2 is Ownable, ReentrancyGuard, AccessControl, Pausable {... */\n      swap1\n      dup2\n      mstore\n      0x40\n        /* \"v2.sol\":21356:21869  MarketStats({... */\n      dup5\n      add\n        /* \"v2.sol\":430:24350  contract PolicastMarketV2 is Ownable, ReentrancyGuard, AccessControl, Pausable {... */\n      swap3\n      dup4\n      mstore\n      0xa0\n      0x60\n        /* \"v2.sol\":21356:21869  MarketStats({... */\n      dup6\n      add\n        /* \"v2.sol\":430:24350  contract PolicastMarketV2 is Ownable, ReentrancyGuard, AccessControl, Pausable {... */\n      swap5\n      0x00\n      dup7\n      mstore\n      0x80\n        /* \"v2.sol\":21356:21869  MarketStats({... */\n      dup2\n      add\n        /* \"v2.sol\":430:24350  contract PolicastMarketV2 is Ownable, ReentrancyGuard, AccessControl, Pausable {... */\n      swap7\n      dup8\n      mstore\n        /* \"v2.sol\":21356:21869  MarketStats({... */\n      add\n        /* \"v2.sol\":430:24350  contract PolicastMarketV2 is Ownable, ReentrancyGuard, AccessControl, Pausable {... */\n      swap6\n      dup7\n      mstore\n      mload(0x40)\n      swap7\n      dup8\n      mstore\n      mload\n      swap1\n      dup7\n      add\n      mstore\n      mload\n      0x40\n      dup6\n      add\n      mstore\n      mload\n      0x60\n      dup5\n      add\n      mstore\n      mload\n      0x80\n      dup4\n      add\n      mstore\n      mload\n      0xa0\n      dup3\n      add\n      mstore\n      return\n        /* \"v2.sol\":21748:21858  marketTrades[_marketId].length > 0 ? marketTrades[_marketId][marketTrades[_marketId].length - 1].timestamp : 0 */\n    tag_600:\n      pop\n        /* \"v2.sol\":430:24350  contract PolicastMarketV2 is Ownable, ReentrancyGuard, AccessControl, Pausable {... */\n      0xc0\n        /* \"v2.sol\":21748:21858  marketTrades[_marketId].length > 0 ? marketTrades[_marketId][marketTrades[_marketId].length - 1].timestamp : 0 */\n      swap6\n      pop\n        /* \"v2.sol\":430:24350  contract PolicastMarketV2 is Ownable, ReentrancyGuard, AccessControl, Pausable {... */\n      0x00\n        /* \"v2.sol\":21748:21858  marketTrades[_marketId].length > 0 ? marketTrades[_marketId][marketTrades[_marketId].length - 1].timestamp : 0 */\n      swap4\n      jump(tag_605)\n        /* \"v2.sol\":21613:21719  marketTrades[_marketId].length > 0 ? marketTrades[_marketId][marketTrades[_marketId].length - 1].price : 0 */\n    tag_594:\n      pop\n      pop\n        /* \"v2.sol\":430:24350  contract PolicastMarketV2 is Ownable, ReentrancyGuard, AccessControl, Pausable {... */\n      0x00\n        /* \"v2.sol\":21613:21719  marketTrades[_marketId].length > 0 ? marketTrades[_marketId][marketTrades[_marketId].length - 1].price : 0 */\n      swap2\n      jump(tag_599)\n        /* \"v2.sol\":21201:21204  i++ */\n    tag_591:\n        /* \"v2.sol\":430:24350  contract PolicastMarketV2 is Ownable, ReentrancyGuard, AccessControl, Pausable {... */\n      swap1\n      swap2\n        /* \"v2.sol\":21220:21264  totalPrice += market.options[i].currentPrice */\n      tag_607\n        /* \"v2.sol\":430:24350  contract PolicastMarketV2 is Ownable, ReentrancyGuard, AccessControl, Pausable {... */\n      0x01\n      swap2\n      dup5\n      0x00\n      mstore\n      dup4\n      dup8\n      mstore\n      0x04\n      keccak256(0x00, 0x40)\n        /* \"v2.sol\":21234:21264  market.options[i].currentPrice */\n      add\n        /* \"v2.sol\":430:24350  contract PolicastMarketV2 is Ownable, ReentrancyGuard, AccessControl, Pausable {... */\n      sload\n        /* \"v2.sol\":21220:21264  totalPrice += market.options[i].currentPrice */\n      swap1\n      tag_29\n      jump\t// in\n    tag_607:\n        /* \"v2.sol\":21201:21204  i++ */\n      swap3\n        /* \"v2.sol\":430:24350  contract PolicastMarketV2 is Ownable, ReentrancyGuard, AccessControl, Pausable {... */\n      add\n        /* \"v2.sol\":21162:21175  uint256 i = 0 */\n      swap1\n      jump(tag_590)\n        /* \"v2.sol\":430:24350  contract PolicastMarketV2 is Ownable, ReentrancyGuard, AccessControl, Pausable {... */\n    tag_96:\n      jumpi(tag_174, callvalue)\n      jumpi(tag_174, slt(add(not(0x03), calldatasize), 0x40))\n      calldataload(0x04)\n      calldataload(0x24)\n      sub(shl(0x40, 0x01), 0x01)\n      dup2\n      gt\n      tag_174\n      jumpi\n      tag_614\n      swap1\n      calldatasize\n      swap1\n      0x04\n      add\n      tag_14\n      jump\t// in\n    tag_614:\n        /* \"v2.sol\":5966:6023  require(_marketId < marketCount, \"Market does not exist\") */\n      tag_615\n        /* \"v2.sol\":430:24350  contract PolicastMarketV2 is Ownable, ReentrancyGuard, AccessControl, Pausable {... */\n      sload(0x04)\n        /* \"v2.sol\":5974:5997  _marketId < marketCount */\n      dup4\n      lt\n        /* \"v2.sol\":5966:6023  require(_marketId < marketCount, \"Market does not exist\") */\n      tag_33\n      jump\t// in\n    tag_615:\n        /* \"v2.sol\":430:24350  contract PolicastMarketV2 is Ownable, ReentrancyGuard, AccessControl, Pausable {... */\n      dup2\n      0x00\n      mstore\n        /* \"v2.sol\":15933:15940  markets */\n      0x08\n        /* \"v2.sol\":430:24350  contract PolicastMarketV2 is Ownable, ReentrancyGuard, AccessControl, Pausable {... */\n      swap1\n      0x20\n      swap2\n      dup1\n      dup4\n      mstore\n      0xff\n        /* \"v2.sol\":15933:15960  markets[_marketId].resolved */\n      0x05\n        /* \"v2.sol\":430:24350  contract PolicastMarketV2 is Ownable, ReentrancyGuard, AccessControl, Pausable {... */\n      keccak256(0x00, 0x40)\n        /* \"v2.sol\":15933:15960  markets[_marketId].resolved */\n      add\n        /* \"v2.sol\":430:24350  contract PolicastMarketV2 is Ownable, ReentrancyGuard, AccessControl, Pausable {... */\n      sload\n      and\n      iszero\n      tag_616\n      jumpi\n      dup4\n      0x00\n      mstore\n      dup1\n      dup4\n      mstore\n      0xff\n        /* \"v2.sol\":15933:15960  markets[_marketId].resolved */\n      0x05\n        /* \"v2.sol\":430:24350  contract PolicastMarketV2 is Ownable, ReentrancyGuard, AccessControl, Pausable {... */\n      keccak256(0x00, 0x40)\n        /* \"v2.sol\":16007:16034  markets[_marketId].disputed */\n      add\n        /* \"v2.sol\":430:24350  contract PolicastMarketV2 is Ownable, ReentrancyGuard, AccessControl, Pausable {... */\n      sload\n      dup3\n      shr\n      and\n      tag_618\n      jumpi\n      dup4\n      0x00\n      mstore\n      dup1\n      dup4\n      mstore\n        /* \"v2.sol\":16080:16109  markets[_marketId].userShares */\n      0x0b\n        /* \"v2.sol\":430:24350  contract PolicastMarketV2 is Ownable, ReentrancyGuard, AccessControl, Pausable {... */\n      keccak256(0x00, 0x40)\n        /* \"v2.sol\":16080:16109  markets[_marketId].userShares */\n      add\n        /* \"v2.sol\":16110:16120  msg.sender */\n      caller\n        /* \"v2.sol\":430:24350  contract PolicastMarketV2 is Ownable, ReentrancyGuard, AccessControl, Pausable {... */\n      0x00\n      mstore\n      dup4\n      mstore\n      keccak256(0x00, 0x40)\n      dup5\n      0x00\n      mstore\n      dup2\n      dup5\n      mstore\n      0x04\n      keccak256(0x00, 0x40)\n        /* \"v2.sol\":16122:16156  markets[_marketId].winningOptionId */\n      add\n        /* \"v2.sol\":430:24350  contract PolicastMarketV2 is Ownable, ReentrancyGuard, AccessControl, Pausable {... */\n      sload\n      0x00\n      mstore\n      dup4\n      mstore\n      jumpi(tag_620, sload(keccak256(0x00, 0x40)))\n      swap2\n      tag_622\n      0x40\n      swap3\n        /* \"v2.sol\":16252:16298  MarketDisputed(_marketId, msg.sender, _reason) */\n      0xf20590b2cb9af0bb070ad77de2c0b74db291dd43666e7a386ffb0e65974b050a\n        /* \"v2.sol\":430:24350  contract PolicastMarketV2 is Ownable, ReentrancyGuard, AccessControl, Pausable {... */\n      swap5\n      dup7\n      0x00\n      mstore\n      dup4\n      mstore\n        /* \"v2.sol\":15933:15960  markets[_marketId].resolved */\n      0x05\n        /* \"v2.sol\":430:24350  contract PolicastMarketV2 is Ownable, ReentrancyGuard, AccessControl, Pausable {... */\n      dup5\n      0x00\n      keccak256\n        /* \"v2.sol\":16203:16230  markets[_marketId].disputed */\n      add\n        /* \"v2.sol\":430:24350  contract PolicastMarketV2 is Ownable, ReentrancyGuard, AccessControl, Pausable {... */\n      0x0100\n      not(0xff00)\n      dup3\n      sload\n      and\n      or\n      swap1\n      sstore\n      dup4\n      mload\n        /* \"v2.sol\":16110:16120  msg.sender */\n      swap4\n      dup5\n      swap4\n      caller\n        /* \"v2.sol\":430:24350  contract PolicastMarketV2 is Ownable, ReentrancyGuard, AccessControl, Pausable {... */\n      dup6\n      mstore\n      dup5\n      add\n      mstore\n      0x40\n      dup4\n      add\n      swap1\n      tag_17\n      jump\t// in\n    tag_622:\n        /* \"v2.sol\":16252:16298  MarketDisputed(_marketId, msg.sender, _reason) */\n      sub\n      swap1\n      log2\n        /* \"v2.sol\":430:24350  contract PolicastMarketV2 is Ownable, ReentrancyGuard, AccessControl, Pausable {... */\n      stop\n    tag_620:\n      mload(0x40)\n      shl(0xe5, 0x461bcd)\n      dup2\n      mstore\n      0x04\n      dup2\n      add\n      dup5\n      swap1\n      mstore\n      0x19\n      0x24\n      dup3\n      add\n      mstore\n      0x43616e6e6f74206469737075746520696620796f7520776f6e00000000000000\n      0x44\n      dup3\n      add\n      mstore\n      0x64\n      swap1\n      revert\n    tag_618:\n      mload(0x40)\n      shl(0xe5, 0x461bcd)\n      dup2\n      mstore\n      0x04\n      dup2\n      add\n      dup5\n      swap1\n      mstore\n      0x17\n      0x24\n      dup3\n      add\n      mstore\n      0x4d61726b657420616c7265616479206469737075746564000000000000000000\n      0x44\n      dup3\n      add\n      mstore\n      0x64\n      swap1\n      revert\n    tag_616:\n      mload(0x40)\n      shl(0xe5, 0x461bcd)\n      dup2\n      mstore\n      0x04\n      dup2\n      add\n      dup5\n      swap1\n      mstore\n      0x17\n      0x24\n      dup3\n      add\n      mstore\n      0x4d61726b6574206e6f74207265736f6c76656420796574000000000000000000\n      0x44\n      dup3\n      add\n      mstore\n      0x64\n      swap1\n      revert\n    tag_94:\n      jumpi(tag_174, callvalue)\n      jumpi(tag_174, slt(add(not(0x03), calldatasize), 0x00))\n        /* \"v2.sol\":3353:3379  IERC20 public bettingToken */\n      0x03\n        /* \"v2.sol\":430:24350  contract PolicastMarketV2 is Ownable, ReentrancyGuard, AccessControl, Pausable {... */\n      sload\n      mload(0x40)\n      0x08\n      swap2\n      swap1\n      swap2\n      shr\n      sub(shl(0xa0, 0x01), 0x01)\n      and\n      dup2\n      mstore\n      0x20\n      swap1\n      return\n    tag_92:\n      jumpi(tag_174, callvalue)\n      jumpi(tag_174, slt(add(not(0x03), calldatasize), 0x00))\n        /* \"@openzeppelin/contracts/access/Ownable.sol\":1500:1562  modifier onlyOwner() {... */\n      tag_631\n      tag_52\n      jump\t// in\n    tag_631:\n        /* \"@openzeppelin/contracts/utils/Pausable.sol\":1796:1803  _paused */\n      0x03\n        /* \"v2.sol\":430:24350  contract PolicastMarketV2 is Ownable, ReentrancyGuard, AccessControl, Pausable {... */\n      sload\n      0xff\n      dup2\n      and\n        /* \"@openzeppelin/contracts/utils/Pausable.sol\":2140:2149  !paused() */\n      iszero\n        /* \"@openzeppelin/contracts/utils/Pausable.sol\":2136:2198  if (!paused()) {... */\n      tag_632\n      jumpi\n        /* \"v2.sol\":430:24350  contract PolicastMarketV2 is Ownable, ReentrancyGuard, AccessControl, Pausable {... */\n      not(0xff)\n      and\n        /* \"@openzeppelin/contracts/utils/Pausable.sol\":1796:1803  _paused */\n      0x03\n        /* \"v2.sol\":430:24350  contract PolicastMarketV2 is Ownable, ReentrancyGuard, AccessControl, Pausable {... */\n      sstore\n        /* \"@openzeppelin/contracts/utils/Pausable.sol\":2674:2696  Unpaused(_msgSender()) */\n      0x5db9ee0a495bf2e6ff9c91a7834c1ba4fdd244a5e8aa4e537bd38aeae4b073aa\n        /* \"v2.sol\":430:24350  contract PolicastMarketV2 is Ownable, ReentrancyGuard, AccessControl, Pausable {... */\n      0x20\n      mload(0x40)\n        /* \"@openzeppelin/contracts/utils/Context.sol\":735:745  msg.sender */\n      caller\n        /* \"v2.sol\":430:24350  contract PolicastMarketV2 is Ownable, ReentrancyGuard, AccessControl, Pausable {... */\n      dup2\n      mstore\n        /* \"@openzeppelin/contracts/utils/Pausable.sol\":2674:2696  Unpaused(_msgSender()) */\n      log1\n        /* \"v2.sol\":430:24350  contract PolicastMarketV2 is Ownable, ReentrancyGuard, AccessControl, Pausable {... */\n      stop\n        /* \"@openzeppelin/contracts/utils/Pausable.sol\":2136:2198  if (!paused()) {... */\n    tag_632:\n        /* \"v2.sol\":430:24350  contract PolicastMarketV2 is Ownable, ReentrancyGuard, AccessControl, Pausable {... */\n      mload(0x40)\n      shl(0xe0, 0x8dfc202b)\n        /* \"@openzeppelin/contracts/utils/Pausable.sol\":2172:2187  ExpectedPause() */\n      dup2\n      mstore\n        /* \"v2.sol\":430:24350  contract PolicastMarketV2 is Ownable, ReentrancyGuard, AccessControl, Pausable {... */\n      0x04\n      swap1\n        /* \"@openzeppelin/contracts/utils/Pausable.sol\":2172:2187  ExpectedPause() */\n      revert\n        /* \"v2.sol\":430:24350  contract PolicastMarketV2 is Ownable, ReentrancyGuard, AccessControl, Pausable {... */\n    tag_90:\n      jumpi(tag_174, callvalue)\n      jumpi(tag_174, slt(add(not(0x03), calldatasize), 0x20))\n      calldataload(0x04)\n        /* \"v2.sol\":5966:6023  require(_marketId < marketCount, \"Market does not exist\") */\n      tag_638\n        /* \"v2.sol\":430:24350  contract PolicastMarketV2 is Ownable, ReentrancyGuard, AccessControl, Pausable {... */\n      sload(0x04)\n        /* \"v2.sol\":5974:5997  _marketId < marketCount */\n      dup3\n      lt\n        /* \"v2.sol\":5966:6023  require(_marketId < marketCount, \"Market does not exist\") */\n      tag_33\n      jump\t// in\n    tag_638:\n        /* \"v2.sol\":430:24350  contract PolicastMarketV2 is Ownable, ReentrancyGuard, AccessControl, Pausable {... */\n      0x00\n      mstore\n        /* \"v2.sol\":19435:19442  markets */\n      0x08\n        /* \"v2.sol\":430:24350  contract PolicastMarketV2 is Ownable, ReentrancyGuard, AccessControl, Pausable {... */\n      0x20\n      mstore\n      tag_639\n      keccak256(0x00, 0x40)\n        /* \"v2.sol\":19545:19559  market.endTime */\n      0x02\n      dup2\n      add\n        /* \"v2.sol\":430:24350  contract PolicastMarketV2 is Ownable, ReentrancyGuard, AccessControl, Pausable {... */\n      sload\n      0xff\n        /* \"v2.sol\":19573:19588  market.category */\n      0x03\n      dup4\n      add\n        /* \"v2.sol\":430:24350  contract PolicastMarketV2 is Ownable, ReentrancyGuard, AccessControl, Pausable {... */\n      sload\n      and\n        /* \"v2.sol\":19602:19620  market.optionCount */\n      0x09\n      dup4\n      add\n        /* \"v2.sol\":430:24350  contract PolicastMarketV2 is Ownable, ReentrancyGuard, AccessControl, Pausable {... */\n      sload\n        /* \"v2.sol\":19634:19649  market.resolved */\n      swap1\n      0x05\n      dup5\n      add\n        /* \"v2.sol\":430:24350  contract PolicastMarketV2 is Ownable, ReentrancyGuard, AccessControl, Pausable {... */\n      sload\n        /* \"v2.sol\":19692:19714  market.winningOptionId */\n      swap2\n        /* \"v2.sol\":430:24350  contract PolicastMarketV2 is Ownable, ReentrancyGuard, AccessControl, Pausable {... */\n      tag_640\n      0x04\n        /* \"v2.sol\":19692:19714  market.winningOptionId */\n      dup7\n      add\n        /* \"v2.sol\":430:24350  contract PolicastMarketV2 is Ownable, ReentrancyGuard, AccessControl, Pausable {... */\n      sload\n      swap3\n      tag_641\n      tag_642\n      0x01\n      tag_643\n      dup11\n      tag_26\n      jump\t// in\n    tag_643:\n        /* \"v2.sol\":19513:19531  market.description */\n      swap10\n      add\n        /* \"v2.sol\":430:24350  contract PolicastMarketV2 is Ownable, ReentrancyGuard, AccessControl, Pausable {... */\n      tag_26\n      jump\t// in\n    tag_642:\n      mload(0x40)\n      swap10\n      dup11\n      swap10\n      0x0120\n      dup1\n      dup13\n      mstore\n      dup12\n      add\n      swap1\n      tag_17\n      jump\t// in\n    tag_639:\n      swap1\n      dup10\n      dup3\n      sub\n      0x20\n      dup12\n      add\n      mstore\n      tag_17\n      jump\t// in\n    tag_641:\n      swap6\n      0x40\n      dup9\n      add\n      mstore\n      0x60\n      dup8\n      add\n      swap1\n      tag_18\n      jump\t// in\n    tag_640:\n      0x80\n      dup6\n      add\n      mstore\n      0xff\n      dup3\n      dup2\n      and\n      iszero\n      iszero\n      0xa0\n      dup7\n      add\n      mstore\n        /* \"v2.sol\":19435:19442  markets */\n      0x08\n        /* \"v2.sol\":430:24350  contract PolicastMarketV2 is Ownable, ReentrancyGuard, AccessControl, Pausable {... */\n      dup4\n      swap1\n      shr\n      and\n      iszero\n      iszero\n      0xc0\n      dup6\n      add\n      mstore\n      0xe0\n      dup5\n      add\n      mstore\n      0x18\n      shr\n      sub(shl(0xa0, 0x01), 0x01)\n      and\n      0x0100\n      dup4\n      add\n      mstore\n      sub\n      swap1\n      return\n    tag_88:\n      jumpi(tag_174, callvalue)\n      jumpi(tag_174, slt(add(not(0x03), calldatasize), 0x40))\n      tag_648\n      tag_4\n      jump\t// in\n    tag_648:\n        /* \"@openzeppelin/contracts/utils/Context.sol\":735:745  msg.sender */\n      caller\n      sub(shl(0xa0, 0x01), 0x01)\n        /* \"v2.sol\":430:24350  contract PolicastMarketV2 is Ownable, ReentrancyGuard, AccessControl, Pausable {... */\n      dup3\n      and\n        /* \"@openzeppelin/contracts/access/AccessControl.sol\":5397:5431  callerConfirmation != _msgSender() */\n      sub\n        /* \"@openzeppelin/contracts/access/AccessControl.sol\":5393:5495  if (callerConfirmation != _msgSender()) {... */\n      tag_649\n      jumpi\n        /* \"@openzeppelin/contracts/access/AccessControl.sol\":5505:5542  _revokeRole(role, callerConfirmation) */\n      tag_256\n        /* \"v2.sol\":430:24350  contract PolicastMarketV2 is Ownable, ReentrancyGuard, AccessControl, Pausable {... */\n      swap1\n      calldataload(0x04)\n        /* \"@openzeppelin/contracts/access/AccessControl.sol\":5505:5542  _revokeRole(role, callerConfirmation) */\n      tag_53\n      jump\t// in\n        /* \"@openzeppelin/contracts/access/AccessControl.sol\":5393:5495  if (callerConfirmation != _msgSender()) {... */\n    tag_649:\n        /* \"v2.sol\":430:24350  contract PolicastMarketV2 is Ownable, ReentrancyGuard, AccessControl, Pausable {... */\n      mload(0x40)\n      shl(0xe1, 0x334bd919)\n        /* \"@openzeppelin/contracts/access/AccessControl.sol\":5454:5484  AccessControlBadConfirmation() */\n      dup2\n      mstore\n        /* \"v2.sol\":430:24350  contract PolicastMarketV2 is Ownable, ReentrancyGuard, AccessControl, Pausable {... */\n      0x04\n      swap1\n        /* \"@openzeppelin/contracts/access/AccessControl.sol\":5454:5484  AccessControlBadConfirmation() */\n      revert\n        /* \"v2.sol\":430:24350  contract PolicastMarketV2 is Ownable, ReentrancyGuard, AccessControl, Pausable {... */\n    tag_86:\n      jumpi(tag_174, callvalue)\n      jumpi(tag_174, slt(add(not(0x03), calldatasize), 0x20))\n        /* \"@openzeppelin/contracts/access/AccessControl.sol\":4306:4331  _grantRole(role, account) */\n      tag_256\n        /* \"v2.sol\":430:24350  contract PolicastMarketV2 is Ownable, ReentrancyGuard, AccessControl, Pausable {... */\n      tag_657\n      tag_3\n      jump\t// in\n    tag_657:\n        /* \"@openzeppelin/contracts/access/Ownable.sol\":1500:1562  modifier onlyOwner() {... */\n      tag_658\n      tag_52\n      jump\t// in\n    tag_658:\n        /* \"v2.sol\":651:685  keccak256(\"QUESTION_RESOLVE_ROLE\") */\n      0xdcee1d35c83a32b436264a5c9afd68685c124f3f9097e87804c55410e67fc59a\n        /* \"v2.sol\":430:24350  contract PolicastMarketV2 is Ownable, ReentrancyGuard, AccessControl, Pausable {... */\n      0x00\n      mstore\n        /* \"@openzeppelin/contracts/access/AccessControl.sol\":3877:3883  _roles */\n      0x02\n        /* \"v2.sol\":430:24350  contract PolicastMarketV2 is Ownable, ReentrancyGuard, AccessControl, Pausable {... */\n      0x20\n      mstore\n        /* \"@openzeppelin/contracts/access/AccessControl.sol\":3877:3899  _roles[role].adminRole */\n      0x8e2c297e756b2a427c5dc4607f639842a8ea6e0f6322302f4ea76306b642cfc3\n        /* \"v2.sol\":430:24350  contract PolicastMarketV2 is Ownable, ReentrancyGuard, AccessControl, Pausable {... */\n      sload\n        /* \"@openzeppelin/contracts/access/AccessControl.sol\":2484:2488  role */\n      tag_659\n      swap1\n      tag_47\n      jump\t// in\n    tag_659:\n        /* \"@openzeppelin/contracts/access/AccessControl.sol\":4306:4331  _grantRole(role, account) */\n      tag_48\n      jump\t// in\n        /* \"v2.sol\":430:24350  contract PolicastMarketV2 is Ownable, ReentrancyGuard, AccessControl, Pausable {... */\n    tag_84:\n      jumpi(tag_174, callvalue)\n      jumpi(tag_174, slt(add(not(0x03), calldatasize), 0x00))\n      0x20\n      mload(0x40)\n      0x00\n      dup1\n      mload\n      0x20\n      data_860935a53c6b0c8ee6d33171a40b66407cec30e1ca1fb8ad5b1ec07e62732162\n      dup4\n      codecopy\n      dup2\n      mload\n      swap2\n      mstore\n      dup2\n      mstore\n      return\n    tag_82:\n      jumpi(tag_174, callvalue)\n      jumpi(tag_174, slt(add(not(0x03), calldatasize), 0x40))\n        /* \"@openzeppelin/contracts/access/AccessControl.sol\":4306:4331  _grantRole(role, account) */\n      tag_256\n        /* \"v2.sol\":430:24350  contract PolicastMarketV2 is Ownable, ReentrancyGuard, AccessControl, Pausable {... */\n      calldataload(0x04)\n      tag_669\n      tag_4\n      jump\t// in\n    tag_669:\n      swap1\n      dup1\n      0x00\n      mstore\n        /* \"@openzeppelin/contracts/access/AccessControl.sol\":3877:3883  _roles */\n      0x02\n        /* \"v2.sol\":430:24350  contract PolicastMarketV2 is Ownable, ReentrancyGuard, AccessControl, Pausable {... */\n      0x20\n      mstore\n        /* \"@openzeppelin/contracts/access/AccessControl.sol\":2484:2488  role */\n      tag_670\n        /* \"v2.sol\":430:24350  contract PolicastMarketV2 is Ownable, ReentrancyGuard, AccessControl, Pausable {... */\n      0x01\n      keccak256(0x00, 0x40)\n        /* \"@openzeppelin/contracts/access/AccessControl.sol\":3877:3899  _roles[role].adminRole */\n      add\n        /* \"v2.sol\":430:24350  contract PolicastMarketV2 is Ownable, ReentrancyGuard, AccessControl, Pausable {... */\n      sload\n        /* \"@openzeppelin/contracts/access/AccessControl.sol\":2484:2488  role */\n      tag_47\n      jump\t// in\n    tag_670:\n        /* \"@openzeppelin/contracts/access/AccessControl.sol\":4306:4331  _grantRole(role, account) */\n      tag_51\n      jump\t// in\n        /* \"v2.sol\":430:24350  contract PolicastMarketV2 is Ownable, ReentrancyGuard, AccessControl, Pausable {... */\n    tag_78:\n      jumpi(tag_174, callvalue)\n      tag_677\n      calldatasize\n      tag_8\n      jump\t// in\n    tag_677:\n      swap1\n      0x00\n      mstore\n        /* \"v2.sol\":4099:4151  mapping(uint256 => uint256[]) public marketOrderBook */\n      0x0e\n        /* \"v2.sol\":430:24350  contract PolicastMarketV2 is Ownable, ReentrancyGuard, AccessControl, Pausable {... */\n      0x20\n      mstore\n      keccak256(0x00, 0x40)\n      dup1\n      sload\n        /* \"v2.sol\":4099:4151  mapping(uint256 => uint256[]) public marketOrderBook */\n      dup3\n      lt\n      iszero\n      tag_174\n      jumpi\n        /* \"v2.sol\":430:24350  contract PolicastMarketV2 is Ownable, ReentrancyGuard, AccessControl, Pausable {... */\n      0x20\n        /* \"v2.sol\":4099:4151  mapping(uint256 => uint256[]) public marketOrderBook */\n      swap2\n      tag_324\n      swap2\n      tag_2\n      jump\t// in\n        /* \"v2.sol\":430:24350  contract PolicastMarketV2 is Ownable, ReentrancyGuard, AccessControl, Pausable {... */\n    tag_76:\n      jumpi(tag_174, callvalue)\n      jumpi(tag_174, slt(add(not(0x03), calldatasize), 0x20))\n      mstore(0x00, calldataload(0x04))\n        /* \"@openzeppelin/contracts/access/AccessControl.sol\":3877:3883  _roles */\n      0x02\n        /* \"v2.sol\":430:24350  contract PolicastMarketV2 is Ownable, ReentrancyGuard, AccessControl, Pausable {... */\n      0x20\n      mstore\n      0x20\n      0x01\n      keccak256(0x00, 0x40)\n        /* \"@openzeppelin/contracts/access/AccessControl.sol\":3877:3899  _roles[role].adminRole */\n      add\n        /* \"v2.sol\":430:24350  contract PolicastMarketV2 is Ownable, ReentrancyGuard, AccessControl, Pausable {... */\n      sload\n      mload(0x40)\n      swap1\n      dup2\n      mstore\n      return\n    tag_74:\n      jumpi(tag_174, callvalue)\n      jumpi(tag_174, slt(add(not(0x03), calldatasize), 0x00))\n      0x20\n        /* \"v2.sol\":3417:3442  uint256 public orderCount */\n      0x05\n        /* \"v2.sol\":430:24350  contract PolicastMarketV2 is Ownable, ReentrancyGuard, AccessControl, Pausable {... */\n      sload\n      mload(0x40)\n      swap1\n      dup2\n      mstore\n      return\n    tag_72:\n      jumpi(tag_174, callvalue)\n      tag_691\n      calldatasize\n      tag_8\n      jump\t// in\n    tag_691:\n      swap1\n        /* \"v2.sol\":5966:6023  require(_marketId < marketCount, \"Market does not exist\") */\n      tag_692\n        /* \"v2.sol\":430:24350  contract PolicastMarketV2 is Ownable, ReentrancyGuard, AccessControl, Pausable {... */\n      sload(0x04)\n        /* \"v2.sol\":5974:5997  _marketId < marketCount */\n      dup3\n      lt\n        /* \"v2.sol\":5966:6023  require(_marketId < marketCount, \"Market does not exist\") */\n      tag_33\n      jump\t// in\n    tag_692:\n        /* \"v2.sol\":430:24350  contract PolicastMarketV2 is Ownable, ReentrancyGuard, AccessControl, Pausable {... */\n      0x00\n      mstore\n        /* \"v2.sol\":20094:20101  markets */\n      0x08\n        /* \"v2.sol\":430:24350  contract PolicastMarketV2 is Ownable, ReentrancyGuard, AccessControl, Pausable {... */\n      0x20\n      mstore\n        /* \"v2.sol\":20094:20120  markets[_marketId].options */\n      0x0a\n        /* \"v2.sol\":430:24350  contract PolicastMarketV2 is Ownable, ReentrancyGuard, AccessControl, Pausable {... */\n      keccak256(0x00, 0x40)\n        /* \"v2.sol\":20094:20120  markets[_marketId].options */\n      add\n        /* \"v2.sol\":430:24350  contract PolicastMarketV2 is Ownable, ReentrancyGuard, AccessControl, Pausable {... */\n      swap1\n      0x00\n      mstore\n      0x20\n      mstore\n      tag_693\n      keccak256(0x00, 0x40)\n        /* \"v2.sol\":20219:20237  option.totalShares */\n      0x02\n      dup2\n      add\n        /* \"v2.sol\":430:24350  contract PolicastMarketV2 is Ownable, ReentrancyGuard, AccessControl, Pausable {... */\n      sload\n        /* \"v2.sol\":20251:20269  option.totalVolume */\n      0x03\n      dup3\n      add\n        /* \"v2.sol\":430:24350  contract PolicastMarketV2 is Ownable, ReentrancyGuard, AccessControl, Pausable {... */\n      sload\n      0x04\n        /* \"v2.sol\":20283:20302  option.currentPrice */\n      dup4\n      add\n        /* \"v2.sol\":430:24350  contract PolicastMarketV2 is Ownable, ReentrancyGuard, AccessControl, Pausable {... */\n      sload\n      0xff\n        /* \"v2.sol\":20316:20331  option.isActive */\n      0x05\n      dup6\n      add\n        /* \"v2.sol\":430:24350  contract PolicastMarketV2 is Ownable, ReentrancyGuard, AccessControl, Pausable {... */\n      sload\n      and\n      swap2\n      tag_694\n      tag_695\n        /* \"v2.sol\":20187:20205  option.description */\n      0x01\n        /* \"v2.sol\":430:24350  contract PolicastMarketV2 is Ownable, ReentrancyGuard, AccessControl, Pausable {... */\n      tag_696\n      dup9\n      tag_26\n      jump\t// in\n    tag_696:\n        /* \"v2.sol\":20187:20205  option.description */\n      swap8\n      add\n        /* \"v2.sol\":430:24350  contract PolicastMarketV2 is Ownable, ReentrancyGuard, AccessControl, Pausable {... */\n      tag_26\n      jump\t// in\n    tag_695:\n      mload(0x40)\n      swap8\n      dup9\n      swap8\n      0xc0\n      dup10\n      mstore\n      0xc0\n      dup10\n      add\n      swap1\n      tag_17\n      jump\t// in\n    tag_693:\n      swap1\n      dup8\n      dup3\n      sub\n      0x20\n      dup10\n      add\n      mstore\n      tag_17\n      jump\t// in\n    tag_694:\n      swap4\n      0x40\n      dup7\n      add\n      mstore\n      0x60\n      dup6\n      add\n      mstore\n      0x80\n      dup5\n      add\n      mstore\n      iszero\n      iszero\n      0xa0\n      dup4\n      add\n      mstore\n      sub\n      swap1\n      return\n    tag_70:\n      jumpi(tag_174, callvalue)\n      jumpi(tag_174, slt(add(not(0x03), calldatasize), 0xc0))\n      calldataload(0x04)\n      sub(shl(0x40, 0x01), 0x01)\n      dup2\n      gt\n      tag_174\n      jumpi\n      tag_703\n      swap1\n      calldatasize\n      swap1\n      0x04\n      add\n      tag_14\n      jump\t// in\n    tag_703:\n      calldataload(0x24)\n      sub(shl(0x40, 0x01), 0x01)\n      dup2\n      gt\n      tag_174\n      jumpi\n      tag_706\n      swap1\n      calldatasize\n      swap1\n      0x04\n      add\n      tag_14\n      jump\t// in\n    tag_706:\n      swap1\n      0x44\n      swap2\n      dup3\n      calldataload\n      sub(shl(0x40, 0x01), 0x01)\n      dup2\n      gt\n      tag_174\n      jumpi\n      tag_709\n      swap1\n      calldatasize\n      swap1\n      0x04\n      add\n      tag_16\n      jump\t// in\n    tag_709:\n      swap1\n      0x64\n      swap4\n      dup5\n      calldataload\n      sub(shl(0x40, 0x01), 0x01)\n      dup2\n      gt\n      tag_174\n      jumpi\n      tag_712\n      swap1\n      calldatasize\n      swap1\n      0x04\n      add\n      tag_16\n      jump\t// in\n    tag_712:\n      swap5\n      jumpi(tag_174, iszero(lt(calldataload(0xa4), 0x0a)))\n        /* \"@openzeppelin/contracts/utils/Pausable.sol\":1315:1387  modifier whenNotPaused() {... */\n      tag_715\n      tag_46\n      jump\t// in\n    tag_715:\n        /* \"v2.sol\":430:24350  contract PolicastMarketV2 is Ownable, ReentrancyGuard, AccessControl, Pausable {... */\n      and(sub(shl(0xa0, 0x01), 0x01), sload(0x00))\n        /* \"v2.sol\":7603:7613  msg.sender */\n      caller\n        /* \"v2.sol\":7603:7624  msg.sender == owner() */\n      eq\n        /* \"v2.sol\":7603:7670  msg.sender == owner() || hasRole(QUESTION_CREATOR_ROLE, msg.sender) */\n      dup1\n      iszero\n      tag_716\n      jumpi\n        /* \"v2.sol\":430:24350  contract PolicastMarketV2 is Ownable, ReentrancyGuard, AccessControl, Pausable {... */\n    tag_717:\n      iszero\n      tag_718\n      jumpi\n        /* \"v2.sol\":3634:3641  1 hours */\n      0x0e10\n        /* \"v2.sol\":430:24350  contract PolicastMarketV2 is Ownable, ReentrancyGuard, AccessControl, Pausable {... */\n      calldataload(0x84)\n        /* \"v2.sol\":7746:7778  _duration >= MIN_MARKET_DURATION */\n      lt\n      iszero\n        /* \"v2.sol\":7746:7814  _duration >= MIN_MARKET_DURATION && _duration <= MAX_MARKET_DURATION */\n      dup1\n      tag_720\n      jumpi\n        /* \"v2.sol\":430:24350  contract PolicastMarketV2 is Ownable, ReentrancyGuard, AccessControl, Pausable {... */\n    tag_721:\n      iszero\n      tag_722\n      jumpi\n      dup5\n      mload\n        /* \"v2.sol\":7853:7880  bytes(_question).length > 0 */\n      iszero\n        /* \"v2.sol\":430:24350  contract PolicastMarketV2 is Ownable, ReentrancyGuard, AccessControl, Pausable {... */\n      tag_724\n      jumpi\n      dup4\n      mload\n        /* \"v2.sol\":7950:7951  2 */\n      0x02\n        /* \"v2.sol\":7927:7951  _optionNames.length >= 2 */\n      dup2\n      lt\n      iszero\n        /* \"v2.sol\":7927:7989  _optionNames.length >= 2 && _optionNames.length <= MAX_OPTIONS */\n      swap1\n      dup2\n      tag_726\n      jumpi\n        /* \"v2.sol\":430:24350  contract PolicastMarketV2 is Ownable, ReentrancyGuard, AccessControl, Pausable {... */\n    tag_727:\n      pop\n      iszero\n      tag_728\n      jumpi\n      dup4\n      mload\n      dup7\n      mload\n        /* \"v2.sol\":8037:8086  _optionNames.length == _optionDescriptions.length */\n      sub\n        /* \"v2.sol\":430:24350  contract PolicastMarketV2 is Ownable, ReentrancyGuard, AccessControl, Pausable {... */\n      tag_730\n      jumpi\n      pop\n      pop\n      sload(0x04)\n        /* \"v2.sol\":8161:8174  marketCount++ */\n      swap1\n      tag_732\n      dup3\n      tag_28\n      jump\t// in\n    tag_732:\n        /* \"v2.sol\":430:24350  contract PolicastMarketV2 is Ownable, ReentrancyGuard, AccessControl, Pausable {... */\n      0x04\n      sstore\n      dup2\n      0x00\n      mstore\n        /* \"v2.sol\":8208:8215  markets */\n      0x08\n        /* \"v2.sol\":430:24350  contract PolicastMarketV2 is Ownable, ReentrancyGuard, AccessControl, Pausable {... */\n      0x20\n      mstore\n      keccak256(0x00, 0x40)\n      swap1\n      dup5\n      mload\n      sub(shl(0x40, 0x01), 0x01)\n      dup2\n      gt\n      tag_240\n      jumpi\n      tag_735\n      dup4\n      sload\n      tag_25\n      jump\t// in\n    tag_735:\n      0x1f\n      dup2\n      gt\n      tag_736\n      jumpi\n    tag_737:\n      pop\n      dup1\n      0x20\n      0x1f\n      dup3\n      gt\n      0x01\n      eq\n      tag_738\n      jumpi\n      0x00\n      swap2\n      tag_740\n      jumpi\n    tag_741:\n      pop\n      dup2\n      0x01\n      shl\n      swap2\n      not(0x00)\n      swap1\n      0x03\n      shl\n      shr\n      not\n      and\n      or\n      dup3\n      sstore\n    tag_742:\n      dup1\n      mload\n      swap1\n      sub(shl(0x40, 0x01), 0x01)\n      dup3\n      gt\n      tag_240\n      jumpi\n        /* \"v2.sol\":8272:8290  market.description */\n      dup2\n      swap1\n        /* \"v2.sol\":430:24350  contract PolicastMarketV2 is Ownable, ReentrancyGuard, AccessControl, Pausable {... */\n      tag_745\n      0x01\n        /* \"v2.sol\":8272:8290  market.description */\n      dup6\n      add\n        /* \"v2.sol\":430:24350  contract PolicastMarketV2 is Ownable, ReentrancyGuard, AccessControl, Pausable {... */\n      sload\n      tag_25\n      jump\t// in\n    tag_745:\n      0x1f\n      dup2\n      gt\n      tag_746\n      jumpi\n    tag_747:\n      pop\n      0x20\n      swap1\n      0x1f\n      dup4\n      gt\n      0x01\n      eq\n      tag_748\n      jumpi\n      0x00\n      swap3\n      tag_750\n      jumpi\n    tag_751:\n      pop\n      pop\n      dup2\n      0x01\n      shl\n      swap2\n      not(0x00)\n      swap1\n      0x03\n      shl\n      shr\n      not\n      and\n      or\n      0x01\n        /* \"v2.sol\":8272:8290  market.description */\n      dup3\n      add\n        /* \"v2.sol\":430:24350  contract PolicastMarketV2 is Ownable, ReentrancyGuard, AccessControl, Pausable {... */\n      sstore\n    tag_752:\n        /* \"v2.sol\":8332:8359  block.timestamp + _duration */\n      tag_753\n        /* \"v2.sol\":430:24350  contract PolicastMarketV2 is Ownable, ReentrancyGuard, AccessControl, Pausable {... */\n      calldataload(0x84)\n        /* \"v2.sol\":8332:8347  block.timestamp */\n      timestamp\n        /* \"v2.sol\":8332:8359  block.timestamp + _duration */\n      tag_29\n      jump\t// in\n    tag_753:\n        /* \"v2.sol\":7950:7951  2 */\n      0x02\n        /* \"v2.sol\":8315:8329  market.endTime */\n      dup3\n      add\n        /* \"v2.sol\":430:24350  contract PolicastMarketV2 is Ownable, ReentrancyGuard, AccessControl, Pausable {... */\n      sstore\n        /* \"v2.sol\":8369:8384  market.category */\n      0x03\n      dup2\n      add\n        /* \"v2.sol\":430:24350  contract PolicastMarketV2 is Ownable, ReentrancyGuard, AccessControl, Pausable {... */\n      dup1\n      sload\n      not(0xff)\n      and\n      and(calldataload(0xa4), 0xff)\n      or\n      swap1\n      sstore\n        /* \"v2.sol\":8406:8420  market.creator */\n      0x05\n      dup2\n      add\n        /* \"v2.sol\":430:24350  contract PolicastMarketV2 is Ownable, ReentrancyGuard, AccessControl, Pausable {... */\n      dup1\n      sload\n      sub(shl(0xb8, 0x01), 0x01000000)\n        /* \"v2.sol\":7603:7613  msg.sender */\n      caller\n        /* \"v2.sol\":430:24350  contract PolicastMarketV2 is Ownable, ReentrancyGuard, AccessControl, Pausable {... */\n      0x18\n      shl\n      and\n      not(sub(shl(0xb8, 0x01), 0x01000000))\n      swap1\n      swap2\n      and\n      or\n      swap1\n      sstore\n        /* \"v2.sol\":8332:8347  block.timestamp */\n      timestamp\n        /* \"v2.sol\":8208:8215  markets */\n      0x08\n        /* \"v2.sol\":8443:8459  market.createdAt */\n      dup3\n      add\n        /* \"v2.sol\":430:24350  contract PolicastMarketV2 is Ownable, ReentrancyGuard, AccessControl, Pausable {... */\n      sstore\n      dup3\n      mload\n        /* \"v2.sol\":8487:8505  market.optionCount */\n      0x09\n      dup3\n      add\n        /* \"v2.sol\":430:24350  contract PolicastMarketV2 is Ownable, ReentrancyGuard, AccessControl, Pausable {... */\n      dup2\n      swap1\n      sstore\n      swap3\n      dup4\n      iszero\n      tag_754\n      jumpi\n      0x00\n        /* \"v2.sol\":8733:8736  i++ */\n    tag_756:\n        /* \"v2.sol\":430:24350  contract PolicastMarketV2 is Ownable, ReentrancyGuard, AccessControl, Pausable {... */\n      dup2\n      mload\n        /* \"v2.sol\":8708:8731  i < _optionNames.length */\n      dup2\n      lt\n      iszero\n      tag_757\n      jumpi\n        /* \"v2.sol\":8809:8824  _optionNames[i] */\n      tag_759\n      dup2\n      dup4\n      tag_31\n      jump\t// in\n    tag_759:\n      mload\n        /* \"v2.sol\":8855:8877  _optionDescriptions[i] */\n      tag_760\n      dup3\n      dup10\n      tag_31\n      jump\t// in\n    tag_760:\n      mload\n        /* \"v2.sol\":430:24350  contract PolicastMarketV2 is Ownable, ReentrancyGuard, AccessControl, Pausable {... */\n      mload(0x40)\n      swap2\n      tag_761\n      dup4\n      tag_10\n      jump\t// in\n    tag_761:\n      dup3\n      mstore\n      0x20\n        /* \"v2.sol\":8772:9032  MarketOption({... */\n      dup3\n      add\n        /* \"v2.sol\":430:24350  contract PolicastMarketV2 is Ownable, ReentrancyGuard, AccessControl, Pausable {... */\n      mstore\n      0x00\n      0x40\n        /* \"v2.sol\":8772:9032  MarketOption({... */\n      dup3\n      add\n        /* \"v2.sol\":430:24350  contract PolicastMarketV2 is Ownable, ReentrancyGuard, AccessControl, Pausable {... */\n      mstore\n      0x00\n      0x60\n        /* \"v2.sol\":8772:9032  MarketOption({... */\n      dup3\n      add\n        /* \"v2.sol\":430:24350  contract PolicastMarketV2 is Ownable, ReentrancyGuard, AccessControl, Pausable {... */\n      mstore\n      dup6\n        /* \"v2.sol\":8618:8622  1e18 */\n      0x0de0b6b3a7640000\n        /* \"v2.sol\":430:24350  contract PolicastMarketV2 is Ownable, ReentrancyGuard, AccessControl, Pausable {... */\n      div\n      0x80\n        /* \"v2.sol\":8772:9032  MarketOption({... */\n      dup3\n      add\n        /* \"v2.sol\":430:24350  contract PolicastMarketV2 is Ownable, ReentrancyGuard, AccessControl, Pausable {... */\n      mstore\n      0x01\n      0xa0\n        /* \"v2.sol\":8772:9032  MarketOption({... */\n      dup3\n      add\n        /* \"v2.sol\":430:24350  contract PolicastMarketV2 is Ownable, ReentrancyGuard, AccessControl, Pausable {... */\n      mstore\n      dup2\n      0x00\n      mstore\n      0x0a\n        /* \"v2.sol\":8752:8766  market.options */\n      dup5\n      add\n        /* \"v2.sol\":430:24350  contract PolicastMarketV2 is Ownable, ReentrancyGuard, AccessControl, Pausable {... */\n      0x20\n      mstore\n      keccak256(0x00, 0x40)\n      dup2\n      mload\n      dup1\n      mload\n      swap1\n      sub(shl(0x40, 0x01), 0x01)\n      dup3\n      gt\n      tag_240\n      jumpi\n      dup2\n      swap1\n      tag_764\n      dup5\n      sload\n      tag_25\n      jump\t// in\n    tag_764:\n      0x1f\n      dup2\n      gt\n      tag_765\n      jumpi\n        /* \"v2.sol\":8733:8736  i++ */\n    tag_766:\n        /* \"v2.sol\":430:24350  contract PolicastMarketV2 is Ownable, ReentrancyGuard, AccessControl, Pausable {... */\n      pop\n      0x20\n      swap1\n      0x1f\n      dup4\n      gt\n      0x01\n      eq\n      tag_767\n      jumpi\n      0x00\n      swap3\n      tag_769\n      jumpi\n    tag_770:\n      pop\n      pop\n      dup2\n      0x01\n      shl\n      swap2\n      not(0x00)\n      swap1\n        /* \"v2.sol\":8369:8384  market.category */\n      0x03\n        /* \"v2.sol\":430:24350  contract PolicastMarketV2 is Ownable, ReentrancyGuard, AccessControl, Pausable {... */\n      shl\n      shr\n      not\n      and\n      or\n      dup2\n      sstore\n    tag_771:\n      0x20\n        /* \"v2.sol\":8772:9032  MarketOption({... */\n      dup3\n      add\n        /* \"v2.sol\":430:24350  contract PolicastMarketV2 is Ownable, ReentrancyGuard, AccessControl, Pausable {... */\n      mload\n      dup1\n      mload\n      swap1\n      sub(shl(0x40, 0x01), 0x01)\n      dup3\n      gt\n      tag_240\n      jumpi\n      tag_774\n      0x01\n      dup5\n      add\n      sload\n      tag_25\n      jump\t// in\n    tag_774:\n      0x1f\n      dup2\n      gt\n      tag_775\n      jumpi\n    tag_776:\n      pop\n      0x20\n      swap1\n      0x1f\n      dup4\n      gt\n      0x01\n      eq\n      tag_777\n      jumpi\n      swap3\n      dup3\n      0xa0\n      swap4\n        /* \"v2.sol\":8406:8420  market.creator */\n      0x05\n        /* \"v2.sol\":430:24350  contract PolicastMarketV2 is Ownable, ReentrancyGuard, AccessControl, Pausable {... */\n      swap4\n      0x01\n      swap9\n      swap8\n      swap7\n      0x00\n      swap3\n      tag_779\n      jumpi\n    tag_780:\n      pop\n      pop\n      not(0x00)\n        /* \"v2.sol\":8369:8384  market.category */\n      0x03\n        /* \"v2.sol\":430:24350  contract PolicastMarketV2 is Ownable, ReentrancyGuard, AccessControl, Pausable {... */\n      dup4\n      swap1\n      shl\n      shr\n      not\n      and\n      swap1\n      dup8\n      shl\n      or\n      dup2\n      dup8\n      add\n      sstore\n    tag_781:\n      0x40\n        /* \"v2.sol\":8772:9032  MarketOption({... */\n      dup5\n      add\n        /* \"v2.sol\":430:24350  contract PolicastMarketV2 is Ownable, ReentrancyGuard, AccessControl, Pausable {... */\n      mload\n        /* \"v2.sol\":7950:7951  2 */\n      0x02\n        /* \"v2.sol\":430:24350  contract PolicastMarketV2 is Ownable, ReentrancyGuard, AccessControl, Pausable {... */\n      dup3\n      add\n      sstore\n      0x60\n        /* \"v2.sol\":8772:9032  MarketOption({... */\n      dup5\n      add\n        /* \"v2.sol\":430:24350  contract PolicastMarketV2 is Ownable, ReentrancyGuard, AccessControl, Pausable {... */\n      mload\n        /* \"v2.sol\":8369:8384  market.category */\n      0x03\n        /* \"v2.sol\":430:24350  contract PolicastMarketV2 is Ownable, ReentrancyGuard, AccessControl, Pausable {... */\n      dup3\n      add\n      sstore\n      0x80\n        /* \"v2.sol\":8772:9032  MarketOption({... */\n      dup5\n      add\n        /* \"v2.sol\":430:24350  contract PolicastMarketV2 is Ownable, ReentrancyGuard, AccessControl, Pausable {... */\n      mload\n      0x04\n      dup3\n      add\n      sstore\n      add\n        /* \"v2.sol\":8772:9032  MarketOption({... */\n      swap2\n      add\n        /* \"v2.sol\":430:24350  contract PolicastMarketV2 is Ownable, ReentrancyGuard, AccessControl, Pausable {... */\n      mload\n      iszero\n      iszero\n      0xff\n      dup1\n      not\n      dup4\n      sload\n      and\n      swap2\n      and\n      or\n      swap1\n      sstore\n      dup5\n      0x00\n      mstore\n        /* \"v2.sol\":9087:9099  priceHistory */\n      0x0d\n        /* \"v2.sol\":430:24350  contract PolicastMarketV2 is Ownable, ReentrancyGuard, AccessControl, Pausable {... */\n      0x20\n      mstore\n      keccak256(0x00, 0x40)\n      dup2\n      0x00\n      mstore\n      0x20\n      mstore\n        /* \"v2.sol\":9087:9253  priceHistory[marketId][i].push(PricePoint({... */\n      tag_782\n        /* \"v2.sol\":430:24350  contract PolicastMarketV2 is Ownable, ReentrancyGuard, AccessControl, Pausable {... */\n      keccak256(0x00, 0x40)\n      mload(0x40)\n      swap1\n      tag_783\n      dup3\n      tag_11\n      jump\t// in\n    tag_783:\n      dup9\n        /* \"v2.sol\":8618:8622  1e18 */\n      0x0de0b6b3a7640000\n        /* \"v2.sol\":430:24350  contract PolicastMarketV2 is Ownable, ReentrancyGuard, AccessControl, Pausable {... */\n      div\n      dup3\n      mstore\n        /* \"v2.sol\":8332:8347  block.timestamp */\n      timestamp\n        /* \"v2.sol\":430:24350  contract PolicastMarketV2 is Ownable, ReentrancyGuard, AccessControl, Pausable {... */\n      0x20\n        /* \"v2.sol\":9118:9252  PricePoint({... */\n      dup4\n      add\n        /* \"v2.sol\":430:24350  contract PolicastMarketV2 is Ownable, ReentrancyGuard, AccessControl, Pausable {... */\n      mstore\n      0x00\n      0x40\n        /* \"v2.sol\":9118:9252  PricePoint({... */\n      dup4\n      add\n        /* \"v2.sol\":430:24350  contract PolicastMarketV2 is Ownable, ReentrancyGuard, AccessControl, Pausable {... */\n      mstore\n        /* \"v2.sol\":9087:9253  priceHistory[marketId][i].push(PricePoint({... */\n      tag_32\n      jump\t// in\n    tag_782:\n        /* \"v2.sol\":430:24350  contract PolicastMarketV2 is Ownable, ReentrancyGuard, AccessControl, Pausable {... */\n      add\n        /* \"v2.sol\":8693:8706  uint256 i = 0 */\n      jump(tag_756)\n        /* \"v2.sol\":430:24350  contract PolicastMarketV2 is Ownable, ReentrancyGuard, AccessControl, Pausable {... */\n    tag_779:\n      add\n      mload\n      swap1\n      pop\n      dup15\n      dup1\n      jump(tag_780)\n    tag_777:\n      swap1\n      0x01\n      dup5\n      add\n      0x00\n      mstore\n      keccak256(0x00, 0x20)\n      swap2\n      0x00\n    tag_784:\n      not(0x1f)\n      dup6\n      and\n      dup2\n      lt\n      tag_785\n      jumpi\n      pop\n      dup4\n        /* \"v2.sol\":8406:8420  market.creator */\n      0x05\n        /* \"v2.sol\":430:24350  contract PolicastMarketV2 is Ownable, ReentrancyGuard, AccessControl, Pausable {... */\n      swap4\n      0x01\n      swap9\n      swap8\n      swap7\n      swap4\n      dup10\n      swap4\n      0xa0\n      swap8\n      not(0x1f)\n      dup2\n      and\n      lt\n      tag_787\n      jumpi\n    tag_788:\n      pop\n      pop\n      pop\n      dup2\n      shl\n      add\n      dup7\n      dup3\n      add\n      sstore\n      jump(tag_781)\n    tag_787:\n      add\n      mload\n      not(0x00)\n      0xf8\n      dup5\n        /* \"v2.sol\":8369:8384  market.category */\n      0x03\n        /* \"v2.sol\":430:24350  contract PolicastMarketV2 is Ownable, ReentrancyGuard, AccessControl, Pausable {... */\n      shl\n      and\n      shr\n      not\n      and\n      swap1\n      sstore\n      dup15\n      dup1\n      dup1\n      jump(tag_788)\n    tag_785:\n      swap2\n      swap3\n      0x20\n      0x01\n      dup2\n      swap3\n      dup7\n      dup6\n      add\n      mload\n      dup2\n      sstore\n      add\n      swap5\n      add\n      swap3\n      add\n      jump(tag_784)\n    tag_775:\n      0x01\n      dup5\n      add\n      0x00\n      mstore\n      keccak256(0x00, 0x20)\n      0x1f\n      dup5\n      add\n        /* \"v2.sol\":8406:8420  market.creator */\n      0x05\n        /* \"v2.sol\":430:24350  contract PolicastMarketV2 is Ownable, ReentrancyGuard, AccessControl, Pausable {... */\n      shr\n      dup2\n      add\n      0x20\n      dup6\n      lt\n      tag_789\n      jumpi\n    tag_790:\n      0x1f\n      dup4\n      add\n        /* \"v2.sol\":8406:8420  market.creator */\n      0x05\n        /* \"v2.sol\":430:24350  contract PolicastMarketV2 is Ownable, ReentrancyGuard, AccessControl, Pausable {... */\n      shr\n      dup3\n      add\n      dup2\n      lt\n      tag_792\n      jumpi\n      pop\n      pop\n      jump(tag_776)\n    tag_792:\n      0x00\n      dup2\n      sstore\n      0x01\n      add\n      jump(tag_790)\n    tag_789:\n      pop\n      dup1\n      jump(tag_790)\n    tag_769:\n      add\n      mload\n      swap1\n      pop\n      dup12\n      dup1\n      jump(tag_770)\n    tag_767:\n      swap3\n      pop\n      dup4\n      0x00\n      mstore\n      keccak256(0x00, 0x20)\n      swap1\n      0x00\n      swap4\n    tag_794:\n      not(0x1f)\n      dup5\n      and\n      dup6\n      lt\n      tag_795\n      jumpi\n      0x01\n      swap5\n      pop\n      dup4\n      not(0x1f)\n      dup2\n      and\n      lt\n      tag_797\n      jumpi\n    tag_798:\n      pop\n      pop\n      pop\n      dup2\n      shl\n      add\n      dup2\n      sstore\n      jump(tag_771)\n    tag_797:\n      add\n      mload\n      not(0x00)\n      0xf8\n      dup5\n        /* \"v2.sol\":8369:8384  market.category */\n      0x03\n        /* \"v2.sol\":430:24350  contract PolicastMarketV2 is Ownable, ReentrancyGuard, AccessControl, Pausable {... */\n      shl\n      and\n      shr\n      not\n      and\n      swap1\n      sstore\n      dup12\n      dup1\n      dup1\n      jump(tag_798)\n    tag_795:\n      dup2\n      dup2\n      add\n      mload\n      dup4\n      sstore\n      0x20\n      swap5\n      dup6\n      add\n      swap5\n      0x01\n      swap1\n      swap4\n      add\n      swap3\n      swap1\n      swap2\n      add\n      swap1\n      jump(tag_794)\n    tag_765:\n      swap1\n      swap2\n      pop\n      dup4\n      0x00\n      mstore\n      keccak256(0x00, 0x20)\n      0x1f\n      dup5\n      add\n        /* \"v2.sol\":8406:8420  market.creator */\n      0x05\n        /* \"v2.sol\":430:24350  contract PolicastMarketV2 is Ownable, ReentrancyGuard, AccessControl, Pausable {... */\n      shr\n      dup2\n      add\n      0x20\n      dup6\n      lt\n      tag_799\n      jumpi\n    tag_800:\n      swap1\n      dup5\n      swap4\n      swap3\n      swap2\n    tag_801:\n      0x1f\n      dup4\n      add\n        /* \"v2.sol\":8406:8420  market.creator */\n      0x05\n        /* \"v2.sol\":430:24350  contract PolicastMarketV2 is Ownable, ReentrancyGuard, AccessControl, Pausable {... */\n      shr\n      dup3\n      add\n      dup2\n      lt\n      tag_802\n      jumpi\n      pop\n      pop\n      jump(tag_766)\n    tag_802:\n      0x00\n      dup2\n      sstore\n      dup6\n      swap5\n      pop\n      0x01\n      add\n      jump(tag_801)\n    tag_799:\n      pop\n      dup1\n      jump(tag_800)\n        /* \"v2.sol\":8708:8731  i < _optionNames.length */\n    tag_757:\n      pop\n      swap2\n      swap3\n      pop\n        /* \"v2.sol\":9274:9300  categoryMarkets[_category] */\n      tag_804\n        /* \"v2.sol\":430:24350  contract PolicastMarketV2 is Ownable, ReentrancyGuard, AccessControl, Pausable {... */\n      calldataload(0xa4)\n        /* \"v2.sol\":9274:9300  categoryMarkets[_category] */\n      tag_24\n      jump\t// in\n    tag_804:\n        /* \"v2.sol\":430:24350  contract PolicastMarketV2 is Ownable, ReentrancyGuard, AccessControl, Pausable {... */\n      swap1\n      dup2\n      sload\n      swap2\n      shl(0x40, 0x01)\n      dup4\n      lt\n      iszero\n      tag_240\n      jumpi\n      dup3\n      tag_807\n      swap2\n      0x01\n        /* \"v2.sol\":7950:7951  2 */\n      0x02\n        /* \"v2.sol\":430:24350  contract PolicastMarketV2 is Ownable, ReentrancyGuard, AccessControl, Pausable {... */\n      swap6\n      add\n      dup2\n      sstore\n      tag_2\n      jump\t// in\n    tag_807:\n      dup2\n      sload\n      swap1\n        /* \"v2.sol\":8369:8384  market.category */\n      0x03\n        /* \"v2.sol\":430:24350  contract PolicastMarketV2 is Ownable, ReentrancyGuard, AccessControl, Pausable {... */\n      shl\n      swap1\n      dup7\n      dup3\n      shl\n      swap2\n      not(0x00)\n      swap1\n      shl\n      not\n      and\n      or\n      swap1\n      sstore\n        /* \"v2.sol\":8315:8329  market.endTime */\n      add\n        /* \"v2.sol\":430:24350  contract PolicastMarketV2 is Ownable, ReentrancyGuard, AccessControl, Pausable {... */\n      sload\n      tag_808\n      mload(0x40)\n      swap5\n      0xa0\n      dup7\n      mstore\n      0xa0\n      dup7\n      add\n      swap1\n      tag_17\n      jump\t// in\n    tag_808:\n      dup5\n      dup2\n      sub\n      0x20\n      dup7\n      add\n      mstore\n      dup3\n      mload\n      dup1\n      dup3\n      mstore\n      0x20\n      dup3\n      add\n      swap2\n      0x20\n      dup1\n      dup4\n        /* \"v2.sol\":8406:8420  market.creator */\n      0x05\n        /* \"v2.sol\":430:24350  contract PolicastMarketV2 is Ownable, ReentrancyGuard, AccessControl, Pausable {... */\n      shl\n      dup4\n      add\n      add\n      swap6\n      add\n      swap3\n      0x00\n      swap2\n    tag_809:\n      dup4\n      dup4\n      lt\n      tag_810\n      jumpi\n      0x20\n      dup9\n      dup1\n        /* \"v2.sol\":9331:9418  MarketCreated(marketId, _question, _optionNames, market.endTime, _category, msg.sender) */\n      0x93f20d1ee811e3a7847933eca44474c052f00d323ddac70f72ad001fb49fe915\n        /* \"v2.sol\":430:24350  contract PolicastMarketV2 is Ownable, ReentrancyGuard, AccessControl, Pausable {... */\n      dup13\n      dup1\n      dup13\n      dup13\n      0x40\n      dup4\n      add\n      mstore\n      tag_812\n      0x60\n      dup4\n      add\n      calldataload(0xa4)\n      tag_18\n      jump\t// in\n    tag_812:\n        /* \"v2.sol\":7603:7613  msg.sender */\n      caller\n        /* \"v2.sol\":430:24350  contract PolicastMarketV2 is Ownable, ReentrancyGuard, AccessControl, Pausable {... */\n      0x80\n      dup4\n      add\n      mstore\n        /* \"v2.sol\":9331:9418  MarketCreated(marketId, _question, _optionNames, market.endTime, _category, msg.sender) */\n      sub\n      swap1\n      log2\n        /* \"v2.sol\":430:24350  contract PolicastMarketV2 is Ownable, ReentrancyGuard, AccessControl, Pausable {... */\n      mload(0x40)\n      swap1\n      dup2\n      mstore\n      return\n    tag_810:\n      swap1\n      swap2\n      swap3\n      swap4\n      swap6\n      0x20\n      dup1\n      tag_813\n      0x01\n      swap4\n      not(0x1f)\n      dup7\n      dup3\n      sub\n      add\n      dup8\n      mstore\n      dup11\n      mload\n      tag_17\n      jump\t// in\n    tag_813:\n      swap9\n      add\n      swap4\n      add\n      swap4\n      add\n      swap2\n      swap4\n      swap3\n      swap1\n      jump(tag_809)\n    tag_754:\n      mstore(0x00, shl(0xe0, 0x4e487b71))\n      mstore(0x04, 0x12)\n      revert(0x00, 0x24)\n    tag_750:\n      add\n      mload\n      swap1\n      pop\n      dup8\n      dup1\n      jump(tag_751)\n    tag_748:\n        /* \"v2.sol\":8272:8290  market.description */\n      swap3\n      pop\n        /* \"v2.sol\":430:24350  contract PolicastMarketV2 is Ownable, ReentrancyGuard, AccessControl, Pausable {... */\n      0x01\n        /* \"v2.sol\":8272:8290  market.description */\n      dup5\n      add\n        /* \"v2.sol\":430:24350  contract PolicastMarketV2 is Ownable, ReentrancyGuard, AccessControl, Pausable {... */\n      0x00\n      mstore\n      keccak256(0x00, 0x20)\n      swap1\n      0x00\n      swap4\n    tag_814:\n      not(0x1f)\n      dup5\n      and\n      dup6\n      lt\n      tag_815\n      jumpi\n      0x01\n      swap5\n      pop\n      dup4\n      not(0x1f)\n      dup2\n      and\n      lt\n      tag_817\n      jumpi\n    tag_818:\n      pop\n      pop\n      pop\n      dup2\n      shl\n      add\n      0x01\n        /* \"v2.sol\":8272:8290  market.description */\n      dup3\n      add\n        /* \"v2.sol\":430:24350  contract PolicastMarketV2 is Ownable, ReentrancyGuard, AccessControl, Pausable {... */\n      sstore\n      jump(tag_752)\n    tag_817:\n      add\n      mload\n      not(0x00)\n      0xf8\n      dup5\n      0x03\n      shl\n      and\n      shr\n      not\n      and\n      swap1\n      sstore\n      dup8\n      dup1\n      dup1\n      jump(tag_818)\n    tag_815:\n      dup2\n      dup2\n      add\n      mload\n      dup4\n      sstore\n      0x20\n      swap5\n      dup6\n      add\n      swap5\n      0x01\n      swap1\n      swap4\n      add\n      swap3\n      swap1\n      swap2\n      add\n      swap1\n      jump(tag_814)\n    tag_746:\n        /* \"v2.sol\":8272:8290  market.description */\n      swap1\n      swap2\n      pop\n        /* \"v2.sol\":430:24350  contract PolicastMarketV2 is Ownable, ReentrancyGuard, AccessControl, Pausable {... */\n      0x01\n        /* \"v2.sol\":8272:8290  market.description */\n      dup5\n      add\n        /* \"v2.sol\":430:24350  contract PolicastMarketV2 is Ownable, ReentrancyGuard, AccessControl, Pausable {... */\n      0x00\n      mstore\n      keccak256(0x00, 0x20)\n      0x1f\n      dup5\n      add\n      0x05\n      shr\n      dup2\n      add\n      0x20\n      dup6\n      lt\n      tag_819\n      jumpi\n    tag_820:\n      swap1\n      dup5\n      swap4\n      swap3\n      swap2\n    tag_821:\n      0x1f\n      dup4\n      add\n      0x05\n      shr\n      dup3\n      add\n      dup2\n      lt\n      tag_822\n      jumpi\n      pop\n      pop\n      jump(tag_747)\n    tag_822:\n      0x00\n      dup2\n      sstore\n      dup6\n      swap5\n      pop\n      0x01\n      add\n      jump(tag_821)\n    tag_819:\n      pop\n      dup1\n      jump(tag_820)\n    tag_740:\n      swap1\n      pop\n      dup7\n      add\n      mload\n      dup9\n      jump(tag_741)\n    tag_738:\n      swap2\n      pop\n      dup4\n      0x00\n      mstore\n      keccak256(0x00, 0x20)\n      0x00\n      swap3\n    tag_824:\n      not(0x1f)\n      dup4\n      and\n      dup5\n      lt\n      tag_825\n      jumpi\n      0x01\n      swap4\n      pop\n      dup3\n      not(0x1f)\n      dup2\n      and\n      lt\n      tag_827\n      jumpi\n    tag_828:\n      pop\n      pop\n      dup2\n      shl\n      add\n      dup3\n      sstore\n      jump(tag_742)\n    tag_827:\n      dup9\n      add\n      mload\n      not(0x00)\n      0xf8\n      dup5\n      0x03\n      shl\n      and\n      shr\n      not\n      and\n      swap1\n      sstore\n      dup9\n      dup1\n      jump(tag_828)\n    tag_825:\n      dup9\n      dup2\n      add\n      mload\n      dup3\n      sstore\n      0x20\n      swap4\n      dup5\n      add\n      swap4\n      0x01\n      swap1\n      swap3\n      add\n      swap2\n      add\n      jump(tag_824)\n    tag_736:\n      dup4\n      0x00\n      mstore\n      keccak256(0x00, 0x20)\n      0x1f\n      dup4\n      add\n      0x05\n      shr\n      dup2\n      add\n      0x20\n      dup5\n      lt\n      tag_829\n      jumpi\n    tag_830:\n      0x1f\n      dup4\n      add\n      0x05\n      shr\n      dup3\n      add\n      dup2\n      lt\n      tag_832\n      jumpi\n      pop\n      pop\n      jump(tag_737)\n    tag_832:\n      0x00\n      dup2\n      sstore\n      0x01\n      add\n      jump(tag_830)\n    tag_829:\n      pop\n      dup1\n      jump(tag_830)\n    tag_730:\n      swap1\n      shl(0xc3, 0x0dad2e6dac2e8c6d)\n      0x84\n      swap3\n      0x4f7074696f6e7320616e64206465736372697074696f6e73206c656e67746820\n      mload(0x40)\n      swap4\n      shl(0xe5, 0x461bcd)\n      dup6\n      mstore\n      0x20\n      0x04\n      dup7\n      add\n      mstore\n      0x28\n      0x24\n      dup7\n      add\n      mstore\n      dup5\n      add\n      mstore\n      dup3\n      add\n      mstore\n      revert\n    tag_728:\n      swap1\n      0x496e76616c6964206e756d626572206f66206f7074696f6e7300000000000000\n      mload(0x40)\n      swap2\n      shl(0xe5, 0x461bcd)\n      dup4\n      mstore\n      0x20\n      0x04\n      dup5\n      add\n      mstore\n      0x19\n      0x24\n      dup5\n      add\n      mstore\n      dup3\n      add\n      mstore\n      revert\n        /* \"v2.sol\":7927:7989  _optionNames.length >= 2 && _optionNames.length <= MAX_OPTIONS */\n    tag_726:\n        /* \"v2.sol\":430:24350  contract PolicastMarketV2 is Ownable, ReentrancyGuard, AccessControl, Pausable {... */\n      0x0a\n        /* \"v2.sol\":7955:7989  _optionNames.length <= MAX_OPTIONS */\n      swap2\n      pop\n      gt\n      iszero\n        /* \"v2.sol\":7927:7989  _optionNames.length >= 2 && _optionNames.length <= MAX_OPTIONS */\n      dup8\n      jump(tag_727)\n        /* \"v2.sol\":430:24350  contract PolicastMarketV2 is Ownable, ReentrancyGuard, AccessControl, Pausable {... */\n    tag_724:\n      swap1\n      0x5175657374696f6e2063616e6e6f7420626520656d7074790000000000000000\n      mload(0x40)\n      swap2\n      shl(0xe5, 0x461bcd)\n      dup4\n      mstore\n      0x20\n      0x04\n      dup5\n      add\n      mstore\n      0x18\n      0x24\n      dup5\n      add\n      mstore\n      dup3\n      add\n      mstore\n      revert\n    tag_722:\n      swap1\n      shl(0x81, 0x24b73b30b634b210323ab930ba34b7b7)\n      mload(0x40)\n      swap2\n      shl(0xe5, 0x461bcd)\n      dup4\n      mstore\n      0x20\n      0x04\n      dup5\n      add\n      mstore\n      0x10\n      0x24\n      dup5\n      add\n      mstore\n      dup3\n      add\n      mstore\n      revert\n        /* \"v2.sol\":7746:7814  _duration >= MIN_MARKET_DURATION && _duration <= MAX_MARKET_DURATION */\n    tag_720:\n        /* \"v2.sol\":430:24350  contract PolicastMarketV2 is Ownable, ReentrancyGuard, AccessControl, Pausable {... */\n      pop\n        /* \"v2.sol\":3693:3701  365 days */\n      0x01e13380\n        /* \"v2.sol\":430:24350  contract PolicastMarketV2 is Ownable, ReentrancyGuard, AccessControl, Pausable {... */\n      calldataload(0x84)\n        /* \"v2.sol\":7782:7814  _duration <= MAX_MARKET_DURATION */\n      gt\n      iszero\n        /* \"v2.sol\":7746:7814  _duration >= MIN_MARKET_DURATION && _duration <= MAX_MARKET_DURATION */\n      jump(tag_721)\n        /* \"v2.sol\":430:24350  contract PolicastMarketV2 is Ownable, ReentrancyGuard, AccessControl, Pausable {... */\n    tag_718:\n      swap1\n      0x4e6f7420617574686f72697a656420746f20637265617465206d61726b657473\n      mload(0x40)\n      swap2\n      shl(0xe5, 0x461bcd)\n      dup4\n      mstore\n      0x20\n      0x04\n      dup5\n      add\n      mstore\n      0x20\n      0x24\n      dup5\n      add\n      mstore\n      dup3\n      add\n      mstore\n      revert\n        /* \"v2.sol\":7603:7670  msg.sender == owner() || hasRole(QUESTION_CREATOR_ROLE, msg.sender) */\n    tag_716:\n      pop\n        /* \"v2.sol\":7603:7613  msg.sender */\n      caller\n        /* \"v2.sol\":430:24350  contract PolicastMarketV2 is Ownable, ReentrancyGuard, AccessControl, Pausable {... */\n      0x00\n      swap1\n      dup2\n      mstore\n      mstore(0x20, 0x30d995518b427f5a5863ad73fe356ca50cf70941f42c516830919c845fa5806f)\n      0x40\n      swap1\n      keccak256\n      sload\n      0xff\n      and\n        /* \"v2.sol\":7603:7670  msg.sender == owner() || hasRole(QUESTION_CREATOR_ROLE, msg.sender) */\n      jump(tag_717)\n        /* \"v2.sol\":430:24350  contract PolicastMarketV2 is Ownable, ReentrancyGuard, AccessControl, Pausable {... */\n    tag_68:\n      jumpi(tag_174, callvalue)\n      jumpi(tag_174, slt(add(not(0x03), calldatasize), 0x20))\n      tag_838\n      tag_3\n      jump\t// in\n    tag_838:\n      tag_839\n      tag_27\n      jump\t// in\n    tag_839:\n      pop\n      0x01\n      dup1\n      0xa0\n      shl\n      sub\n      and\n      0x00\n      mstore\n        /* \"v2.sol\":20857:20871  userPortfolios */\n      0x0a\n        /* \"v2.sol\":430:24350  contract PolicastMarketV2 is Ownable, ReentrancyGuard, AccessControl, Pausable {... */\n      0x20\n      mstore\n      0xa0\n      keccak256(0x00, 0x40)\n      mload(0x40)\n      tag_840\n      dup2\n      tag_9\n      jump\t// in\n    tag_840:\n      dup2\n      sload\n      swap2\n      dup3\n      dup3\n      mstore\n      0x01\n      dup2\n      add\n      sload\n      0x20\n      dup4\n      add\n      swap1\n      dup2\n      mstore\n      0x02\n      dup3\n      add\n      sload\n      swap1\n      0x40\n      dup5\n      add\n      swap2\n      dup3\n      mstore\n      0x80\n      0x04\n      0x03\n      dup6\n      add\n      sload\n      swap5\n      0x60\n      dup8\n      add\n      swap6\n      dup7\n      mstore\n      add\n      sload\n      swap5\n      add\n      swap4\n      dup5\n      mstore\n      mload(0x40)\n      swap5\n      dup6\n      mstore\n      mload\n      0x20\n      dup6\n      add\n      mstore\n      mload\n      0x40\n      dup5\n      add\n      mstore\n      mload\n      0x60\n      dup4\n      add\n      mstore\n      mload\n      0x80\n      dup3\n      add\n      mstore\n      return\n    tag_66:\n      jumpi(tag_174, callvalue)\n      tag_843\n      calldatasize\n      tag_8\n      jump\t// in\n    tag_843:\n      swap1\n      0x00\n      mstore\n        /* \"v2.sol\":3934:3981  mapping(uint256 => Trade[]) public marketTrades */\n      0x0c\n        /* \"v2.sol\":430:24350  contract PolicastMarketV2 is Ownable, ReentrancyGuard, AccessControl, Pausable {... */\n      0x20\n      mstore\n      keccak256(0x00, 0x40)\n      swap1\n      dup2\n      sload\n        /* \"v2.sol\":3934:3981  mapping(uint256 => Trade[]) public marketTrades */\n      dup2\n      lt\n      iszero\n      tag_174\n      jumpi\n      tag_846\n      swap2\n      tag_5\n      jump\t// in\n    tag_846:\n        /* \"v2.sol\":430:24350  contract PolicastMarketV2 is Ownable, ReentrancyGuard, AccessControl, Pausable {... */\n      pop\n      dup1\n      sload\n      tag_274\n        /* \"v2.sol\":3934:3981  mapping(uint256 => Trade[]) public marketTrades */\n      0x01\n      dup4\n      add\n        /* \"v2.sol\":430:24350  contract PolicastMarketV2 is Ownable, ReentrancyGuard, AccessControl, Pausable {... */\n      sload\n      swap3\n      0x01\n      dup1\n      0xa0\n      shl\n      sub\n        /* \"v2.sol\":3934:3981  mapping(uint256 => Trade[]) public marketTrades */\n      swap1\n      dup2\n      0x02\n      dup3\n      add\n        /* \"v2.sol\":430:24350  contract PolicastMarketV2 is Ownable, ReentrancyGuard, AccessControl, Pausable {... */\n      sload\n      and\n        /* \"v2.sol\":3934:3981  mapping(uint256 => Trade[]) public marketTrades */\n      swap2\n      0x03\n      dup3\n      add\n        /* \"v2.sol\":430:24350  contract PolicastMarketV2 is Ownable, ReentrancyGuard, AccessControl, Pausable {... */\n      sload\n      and\n      0x04\n        /* \"v2.sol\":3934:3981  mapping(uint256 => Trade[]) public marketTrades */\n      dup3\n      add\n        /* \"v2.sol\":430:24350  contract PolicastMarketV2 is Ownable, ReentrancyGuard, AccessControl, Pausable {... */\n      sload\n        /* \"v2.sol\":3934:3981  mapping(uint256 => Trade[]) public marketTrades */\n      0x05\n      dup4\n      add\n        /* \"v2.sol\":430:24350  contract PolicastMarketV2 is Ownable, ReentrancyGuard, AccessControl, Pausable {... */\n      sload\n        /* \"v2.sol\":3934:3981  mapping(uint256 => Trade[]) public marketTrades */\n      swap2\n        /* \"v2.sol\":430:24350  contract PolicastMarketV2 is Ownable, ReentrancyGuard, AccessControl, Pausable {... */\n      0xff\n        /* \"v2.sol\":3934:3981  mapping(uint256 => Trade[]) public marketTrades */\n      0x07\n      0x06\n      dup7\n      add\n        /* \"v2.sol\":430:24350  contract PolicastMarketV2 is Ownable, ReentrancyGuard, AccessControl, Pausable {... */\n      sload\n        /* \"v2.sol\":3934:3981  mapping(uint256 => Trade[]) public marketTrades */\n      swap6\n      add\n        /* \"v2.sol\":430:24350  contract PolicastMarketV2 is Ownable, ReentrancyGuard, AccessControl, Pausable {... */\n      sload\n      and\n      swap5\n      mload(0x40)\n      swap9\n      dup10\n      swap9\n      dup10\n      tag_7\n      jump\t// in\n    tag_64:\n      jumpi(tag_174, callvalue)\n      jumpi(tag_174, slt(add(not(0x03), calldatasize), 0x00))\n      0x20\n      mload(0x40)\n        /* \"v2.sol\":3580:3582  10 */\n      0x0a\n        /* \"v2.sol\":430:24350  contract PolicastMarketV2 is Ownable, ReentrancyGuard, AccessControl, Pausable {... */\n      dup2\n      mstore\n      return\n    tag_62:\n      jumpi(tag_174, callvalue)\n      jumpi(tag_174, slt(add(not(0x03), calldatasize), 0x40))\n      tag_856\n      tag_3\n      jump\t// in\n    tag_856:\n      sub(shl(0xa0, 0x01), 0x01)\n      swap1\n      dup2\n      and\n      0x00\n      swap1\n      dup2\n      mstore\n        /* \"v2.sol\":3877:3928  mapping(address => Trade[]) public userTradeHistory */\n      0x0b\n        /* \"v2.sol\":430:24350  contract PolicastMarketV2 is Ownable, ReentrancyGuard, AccessControl, Pausable {... */\n      0x20\n      mstore\n      0x40\n      swap1\n      keccak256\n      dup1\n      sload\n      calldataload(0x24)\n      swap1\n        /* \"v2.sol\":3877:3928  mapping(address => Trade[]) public userTradeHistory */\n      dup2\n      lt\n      iszero\n      tag_174\n      jumpi\n      tag_859\n      swap2\n      tag_5\n      jump\t// in\n    tag_859:\n        /* \"v2.sol\":430:24350  contract PolicastMarketV2 is Ownable, ReentrancyGuard, AccessControl, Pausable {... */\n      pop\n      swap1\n      tag_274\n      dup3\n      sload\n        /* \"v2.sol\":3877:3928  mapping(address => Trade[]) public userTradeHistory */\n      swap2\n        /* \"v2.sol\":430:24350  contract PolicastMarketV2 is Ownable, ReentrancyGuard, AccessControl, Pausable {... */\n      0x01\n        /* \"v2.sol\":3877:3928  mapping(address => Trade[]) public userTradeHistory */\n      dup5\n      add\n        /* \"v2.sol\":430:24350  contract PolicastMarketV2 is Ownable, ReentrancyGuard, AccessControl, Pausable {... */\n      sload\n        /* \"v2.sol\":3877:3928  mapping(address => Trade[]) public userTradeHistory */\n      swap4\n      dup2\n      0x02\n      dup3\n      add\n        /* \"v2.sol\":430:24350  contract PolicastMarketV2 is Ownable, ReentrancyGuard, AccessControl, Pausable {... */\n      sload\n      and\n        /* \"v2.sol\":3877:3928  mapping(address => Trade[]) public userTradeHistory */\n      swap2\n      0x03\n      dup3\n      add\n        /* \"v2.sol\":430:24350  contract PolicastMarketV2 is Ownable, ReentrancyGuard, AccessControl, Pausable {... */\n      sload\n      and\n      0x04\n        /* \"v2.sol\":3877:3928  mapping(address => Trade[]) public userTradeHistory */\n      dup3\n      add\n        /* \"v2.sol\":430:24350  contract PolicastMarketV2 is Ownable, ReentrancyGuard, AccessControl, Pausable {... */\n      sload\n        /* \"v2.sol\":3877:3928  mapping(address => Trade[]) public userTradeHistory */\n      0x05\n      dup4\n      add\n        /* \"v2.sol\":430:24350  contract PolicastMarketV2 is Ownable, ReentrancyGuard, AccessControl, Pausable {... */\n      sload\n        /* \"v2.sol\":3877:3928  mapping(address => Trade[]) public userTradeHistory */\n      swap2\n        /* \"v2.sol\":430:24350  contract PolicastMarketV2 is Ownable, ReentrancyGuard, AccessControl, Pausable {... */\n      0xff\n        /* \"v2.sol\":3877:3928  mapping(address => Trade[]) public userTradeHistory */\n      0x07\n      0x06\n      dup7\n      add\n        /* \"v2.sol\":430:24350  contract PolicastMarketV2 is Ownable, ReentrancyGuard, AccessControl, Pausable {... */\n      sload\n        /* \"v2.sol\":3877:3928  mapping(address => Trade[]) public userTradeHistory */\n      swap6\n      add\n        /* \"v2.sol\":430:24350  contract PolicastMarketV2 is Ownable, ReentrancyGuard, AccessControl, Pausable {... */\n      sload\n      and\n      swap5\n      mload(0x40)\n      swap9\n      dup10\n      swap9\n      dup10\n      tag_7\n      jump\t// in\n    tag_60:\n      jumpi(tag_174, callvalue)\n      jumpi(tag_174, slt(add(not(0x03), calldatasize), 0x20))\n      calldataload(0x04)\n        /* \"v2.sol\":4353:4385  address[] public allParticipants */\n      0x12\n        /* \"v2.sol\":430:24350  contract PolicastMarketV2 is Ownable, ReentrancyGuard, AccessControl, Pausable {... */\n      sload\n        /* \"v2.sol\":4353:4385  address[] public allParticipants */\n      dup2\n      lt\n      iszero\n      tag_174\n      jumpi\n      tag_867\n        /* \"v2.sol\":430:24350  contract PolicastMarketV2 is Ownable, ReentrancyGuard, AccessControl, Pausable {... */\n      0x20\n        /* \"v2.sol\":4353:4385  address[] public allParticipants */\n      swap2\n      tag_1\n      jump\t// in\n    tag_867:\n        /* \"v2.sol\":430:24350  contract PolicastMarketV2 is Ownable, ReentrancyGuard, AccessControl, Pausable {... */\n      swap1\n      sload\n      mload(0x40)\n      0x03\n      swap3\n      swap1\n      swap3\n      shl\n      shr\n      sub(shl(0xa0, 0x01), 0x01)\n      and\n      dup2\n      mstore\n      return\n    tag_58:\n      jumpi(tag_174, callvalue)\n      jumpi(tag_174, slt(add(not(0x03), calldatasize), 0x20))\n      calldataload(0x04)\n      swap1\n      shl(0xe0, 0xffffffff)\n      dup3\n      and\n      dup1\n      swap3\n      sub\n      tag_174\n      jumpi\n      0x20\n      swap2\n      shl(0xe0, 0x7965db0b)\n        /* \"@openzeppelin/contracts/access/AccessControl.sol\":2649:2696  interfaceId == type(IAccessControl).interfaceId */\n      dup2\n      eq\n      swap1\n        /* \"@openzeppelin/contracts/access/AccessControl.sol\":2649:2736  interfaceId == type(IAccessControl).interfaceId || super.supportsInterface(interfaceId) */\n      dup2\n      iszero\n      tag_874\n      jumpi\n        /* \"v2.sol\":430:24350  contract PolicastMarketV2 is Ownable, ReentrancyGuard, AccessControl, Pausable {... */\n    tag_875:\n      pop\n      iszero\n      iszero\n      dup2\n      mstore\n      return\n        /* \"@openzeppelin/contracts/access/AccessControl.sol\":2649:2736  interfaceId == type(IAccessControl).interfaceId || super.supportsInterface(interfaceId) */\n    tag_874:\n      shl(0xe0, 0x01ffc9a7)\n        /* \"@openzeppelin/contracts/utils/introspection/ERC165.sol\":829:869  interfaceId == type(IERC165).interfaceId */\n      eq\n      swap1\n      pop\n        /* \"@openzeppelin/contracts/access/AccessControl.sol\":2649:2736  interfaceId == type(IAccessControl).interfaceId || super.supportsInterface(interfaceId) */\n      dup4\n      jump(tag_875)\n        /* \"v2.sol\":430:24350  contract PolicastMarketV2 is Ownable, ReentrancyGuard, AccessControl, Pausable {... */\n    tag_1:\n        /* \"v2.sol\":4353:4385  address[] public allParticipants */\n      0x12\n        /* \"v2.sol\":430:24350  contract PolicastMarketV2 is Ownable, ReentrancyGuard, AccessControl, Pausable {... */\n      sload\n      dup2\n      lt\n      iszero\n      tag_876\n      jumpi\n        /* \"v2.sol\":4353:4385  address[] public allParticipants */\n      0x12\n      0x00\n        /* \"v2.sol\":430:24350  contract PolicastMarketV2 is Ownable, ReentrancyGuard, AccessControl, Pausable {... */\n      mstore\n      0xbb8a6a4669ba250d26cd7a459eca9d215f8307e33aebe50379bc5a3617ec3444\n      add\n      swap1\n      0x00\n      swap1\n      jump\t// out\n    tag_876:\n      mstore(0x00, shl(0xe0, 0x4e487b71))\n      mstore(0x04, 0x32)\n      revert(0x00, 0x24)\n    tag_2:\n      dup1\n      sload\n      dup3\n      lt\n      iszero\n      tag_876\n      jumpi\n      0x00\n      mstore\n      keccak256(0x00, 0x20)\n      add\n      swap1\n      0x00\n      swap1\n      jump\t// out\n    tag_3:\n      calldataload(0x04)\n      swap1\n      sub(shl(0xa0, 0x01), 0x01)\n      dup3\n      and\n      dup3\n      sub\n      tag_174\n      jumpi\n      jump\t// out\n    tag_4:\n      calldataload(0x24)\n      swap1\n      sub(shl(0xa0, 0x01), 0x01)\n      dup3\n      and\n      dup3\n      sub\n      tag_174\n      jumpi\n      jump\t// out\n    tag_5:\n      dup1\n      sload\n      dup3\n      lt\n      iszero\n      tag_876\n      jumpi\n      0x00\n      mstore\n      keccak256(0x00, 0x20)\n      swap1\n      0x03\n      shl\n      add\n      swap1\n      0x00\n      swap1\n      jump\t// out\n    tag_6:\n      0x02\n      gt\n      iszero\n      tag_886\n      jumpi\n      jump\t// out\n    tag_886:\n      mstore(0x00, shl(0xe0, 0x4e487b71))\n      mstore(0x04, 0x21)\n      revert(0x00, 0x24)\n    tag_7:\n      swap5\n      swap2\n      swap4\n      0xe0\n      swap7\n      swap4\n      swap2\n      swap10\n      swap9\n      swap8\n      swap5\n      0x0100\n      dup8\n      add\n      swap11\n      dup8\n      mstore\n      0x20\n      dup8\n      add\n      mstore\n      0x01\n      dup1\n      0xa0\n      shl\n      sub\n      dup1\n      swap3\n      and\n      0x40\n      dup8\n      add\n      mstore\n      and\n      0x60\n      dup6\n      add\n      mstore\n      0x80\n      dup5\n      add\n      mstore\n      0xa0\n      dup4\n      add\n      mstore\n      0xc0\n      dup3\n      add\n      mstore\n      tag_888\n      dup4\n      tag_6\n      jump\t// in\n    tag_888:\n      add\n      mstore\n      jump\t// out\n    tag_8:\n      0x40\n      swap1\n      not(0x03)\n      add\n      slt\n      tag_174\n      jumpi\n      calldataload(0x04)\n      swap1\n      calldataload(0x24)\n      swap1\n      jump\t// out\n    tag_9:\n      0xa0\n      dup2\n      add\n      swap1\n      dup2\n      lt\n      sub(shl(0x40, 0x01), 0x01)\n      dup3\n      gt\n      or\n      tag_240\n      jumpi\n      0x40\n      mstore\n      jump\t// out\n    tag_10:\n      0xc0\n      dup2\n      add\n      swap1\n      dup2\n      lt\n      sub(shl(0x40, 0x01), 0x01)\n      dup3\n      gt\n      or\n      tag_240\n      jumpi\n      0x40\n      mstore\n      jump\t// out\n    tag_11:\n      0x60\n      dup2\n      add\n      swap1\n      dup2\n      lt\n      sub(shl(0x40, 0x01), 0x01)\n      dup3\n      gt\n      or\n      tag_240\n      jumpi\n      0x40\n      mstore\n      jump\t// out\n    tag_12:\n      0x0100\n      dup2\n      add\n      swap1\n      dup2\n      lt\n      sub(shl(0x40, 0x01), 0x01)\n      dup3\n      gt\n      or\n      tag_240\n      jumpi\n      0x40\n      mstore\n      jump\t// out\n    tag_13:\n      swap1\n      0x1f\n      dup1\n      not\n      swap2\n      add\n      and\n      dup2\n      add\n      swap1\n      dup2\n      lt\n      sub(shl(0x40, 0x01), 0x01)\n      dup3\n      gt\n      or\n      tag_240\n      jumpi\n      0x40\n      mstore\n      jump\t// out\n    tag_14:\n      dup2\n      0x1f\n      dup3\n      add\n      slt\n      iszero\n      tag_174\n      jumpi\n      dup1\n      calldataload\n      swap1\n      sub(shl(0x40, 0x01), 0x01)\n      dup3\n      gt\n      tag_240\n      jumpi\n      mload(0x40)\n      swap3\n      tag_905\n      0x1f\n      dup5\n      add\n      not(0x1f)\n      and\n      0x20\n      add\n      dup6\n      tag_13\n      jump\t// in\n    tag_905:\n      dup3\n      dup5\n      mstore\n      0x20\n      dup4\n      dup4\n      add\n      add\n      gt\n      tag_174\n      jumpi\n      dup2\n      0x00\n      swap3\n      0x20\n      dup1\n      swap4\n      add\n      dup4\n      dup7\n      add\n      calldatacopy\n      dup4\n      add\n      add\n      mstore\n      swap1\n      jump\t// out\n    tag_15:\n      sub(shl(0x40, 0x01), 0x01)\n      dup2\n      gt\n      tag_240\n      jumpi\n      0x05\n      shl\n      0x20\n      add\n      swap1\n      jump\t// out\n    tag_16:\n      dup2\n      0x1f\n      dup3\n      add\n      slt\n      iszero\n      tag_174\n      jumpi\n      dup1\n      calldataload\n      swap2\n      0x20\n      swap2\n      tag_912\n      dup5\n      tag_15\n      jump\t// in\n    tag_912:\n      swap4\n      tag_913\n      mload(0x40)\n      swap6\n      dup7\n      tag_13\n      jump\t// in\n    tag_913:\n      dup1\n      dup6\n      mstore\n      dup4\n      dup1\n      dup7\n      add\n      swap2\n      0x05\n      shl\n      dup4\n      add\n      add\n      swap3\n      dup1\n      dup5\n      gt\n      tag_174\n      jumpi\n      dup5\n      dup4\n      add\n      swap2\n    tag_916:\n      dup5\n      dup4\n      lt\n      tag_917\n      jumpi\n      pop\n      pop\n      pop\n      pop\n      pop\n      pop\n      swap1\n      jump\t// out\n    tag_917:\n      dup3\n      calldataload\n      sub(shl(0x40, 0x01), 0x01)\n      dup2\n      gt\n      tag_174\n      jumpi\n      dup7\n      swap2\n      tag_921\n      dup5\n      dup5\n      dup1\n      swap5\n      dup10\n      add\n      add\n      tag_14\n      jump\t// in\n    tag_921:\n      dup2\n      mstore\n      add\n      swap3\n      add\n      swap2\n      jump(tag_916)\n    tag_17:\n      swap2\n      swap1\n      dup3\n      mload\n      swap3\n      dup4\n      dup3\n      mstore\n      0x00\n    tag_922:\n      dup5\n      dup2\n      lt\n      tag_923\n      jumpi\n      pop\n      pop\n      dup3\n      0x00\n      0x20\n      dup1\n      swap5\n      swap6\n      dup5\n      add\n      add\n      mstore\n      0x1f\n      dup1\n      not\n      swap2\n      add\n      and\n      add\n      add\n      swap1\n      jump\t// out\n    tag_923:\n      0x20\n      dup2\n      dup4\n      add\n      dup2\n      add\n      mload\n      dup5\n      dup4\n      add\n      dup3\n      add\n      mstore\n      add\n      jump(tag_922)\n    tag_18:\n      swap1\n      0x0a\n      dup3\n      lt\n      iszero\n      tag_886\n      jumpi\n      mstore\n      jump\t// out\n    tag_19:\n      0x80\n      swap1\n      not(0x03)\n      add\n      slt\n      tag_174\n      jumpi\n      calldataload(0x04)\n      swap1\n      calldataload(0x24)\n      swap1\n      calldataload(0x44)\n      swap1\n      calldataload(0x64)\n      swap1\n      jump\t// out\n    tag_20:\n      0x60\n      swap1\n      not(0x03)\n      add\n      slt\n      tag_174\n      jumpi\n      calldataload(0x04)\n      swap1\n      calldataload(0x24)\n      swap1\n      calldataload(0x44)\n      swap1\n      jump\t// out\n    tag_21:\n      0x20\n      swap1\n      0x20\n      0x40\n      dup2\n      dup4\n      add\n      swap3\n      dup3\n      dup2\n      mstore\n      dup6\n      mload\n      dup1\n      swap5\n      mstore\n      add\n      swap4\n      add\n      swap2\n      0x00\n    tag_931:\n      dup3\n      dup2\n      lt\n      tag_932\n      jumpi\n      pop\n      pop\n      pop\n      pop\n      swap1\n      jump\t// out\n    tag_932:\n      dup4\n      mload\n      dup6\n      mstore\n      swap4\n      dup2\n      add\n      swap4\n      swap3\n      dup2\n      add\n      swap3\n      0x01\n      add\n      jump(tag_931)\n    tag_22:\n      dup1\n      sload\n      dup3\n      lt\n      iszero\n      tag_876\n      jumpi\n      0x00\n      mstore\n      0x03\n      keccak256(0x00, 0x20)\n      swap2\n      mul\n      add\n      swap1\n      0x00\n      swap1\n      jump\t// out\n    tag_23:\n      0x40\n      swap1\n      not(0x03)\n      add\n      slt\n      tag_174\n      jumpi\n      calldataload(0x04)\n      0x0a\n      dup2\n      lt\n      iszero\n      tag_174\n      jumpi\n      swap1\n      calldataload(0x24)\n      swap1\n      jump\t// out\n    tag_24:\n      0x0a\n      dup2\n      lt\n      iszero\n      tag_886\n      jumpi\n      0x00\n      mstore\n        /* \"v2.sol\":9274:9289  categoryMarkets */\n      0x10\n        /* \"v2.sol\":430:24350  contract PolicastMarketV2 is Ownable, ReentrancyGuard, AccessControl, Pausable {... */\n      0x20\n      mstore\n      keccak256(0x00, 0x40)\n      swap1\n      jump\t// out\n    tag_25:\n      swap1\n      0x01\n      dup3\n      dup2\n      shr\n      swap3\n      and\n      dup1\n      iszero\n      tag_942\n      jumpi\n    tag_943:\n      0x20\n      dup4\n      lt\n      eq\n      tag_944\n      jumpi\n      jump\t// out\n    tag_944:\n      mstore(0x00, shl(0xe0, 0x4e487b71))\n      mstore(0x04, 0x22)\n      revert(0x00, 0x24)\n    tag_942:\n      swap2\n      0x7f\n      and\n      swap2\n      jump(tag_943)\n    tag_26:\n      swap1\n      mload(0x40)\n      swap2\n      dup3\n      0x00\n      dup3\n      sload\n      tag_946\n      dup2\n      tag_25\n      jump\t// in\n    tag_946:\n      swap1\n      dup2\n      dup5\n      mstore\n      0x20\n      swap5\n      0x01\n      swap2\n      0x01\n      dup2\n      and\n      swap1\n      dup2\n      0x00\n      eq\n      tag_947\n      jumpi\n      pop\n      0x01\n      eq\n      tag_949\n      jumpi\n    tag_950:\n      pop\n      pop\n      pop\n      tag_951\n      swap3\n      pop\n      sub\n      dup4\n      tag_13\n      jump\t// in\n    tag_951:\n      jump\t// out\n    tag_949:\n      0x00\n      swap1\n      dup2\n      mstore\n      dup6\n      dup2\n      keccak256\n      swap6\n      swap4\n      pop\n      swap2\n      swap1\n    tag_952:\n      dup2\n      dup4\n      lt\n      tag_953\n      jumpi\n      pop\n      pop\n      tag_951\n      swap4\n      pop\n      dup3\n      add\n      add\n      0x00\n      dup1\n      dup1\n      jump(tag_950)\n    tag_953:\n      dup6\n      sload\n      dup9\n      dup5\n      add\n      dup6\n      add\n      mstore\n      swap5\n      dup6\n      add\n      swap5\n      dup8\n      swap5\n      pop\n      swap2\n      dup4\n      add\n      swap2\n      jump(tag_952)\n    tag_947:\n      swap3\n      pop\n      pop\n      pop\n      tag_951\n      swap5\n      swap3\n      pop\n      not(0xff)\n      and\n      dup3\n      dup5\n      add\n      mstore\n      iszero\n      iszero\n      0x05\n      shl\n      dup3\n      add\n      add\n      0x00\n      dup1\n      dup1\n      jump(tag_950)\n    tag_27:\n      mload(0x40)\n      swap1\n      tag_955\n      dup3\n      tag_9\n      jump\t// in\n    tag_955:\n      0x00\n      0x80\n      dup4\n      dup3\n      dup2\n      mstore\n      dup3\n      0x20\n      dup3\n      add\n      mstore\n      dup3\n      0x40\n      dup3\n      add\n      mstore\n      dup3\n      0x60\n      dup3\n      add\n      mstore\n      add\n      mstore\n      jump\t// out\n    tag_28:\n      not(0x00)\n      dup2\n      eq\n      tag_225\n      jumpi\n      0x01\n      add\n      swap1\n      jump\t// out\n    tag_29:\n      swap2\n      swap1\n      dup3\n      add\n      dup1\n      swap3\n      gt\n      tag_225\n      jumpi\n      jump\t// out\n    tag_30:\n      dup2\n      iszero\n      tag_754\n      jumpi\n      div\n      swap1\n      jump\t// out\n    tag_31:\n      dup1\n      mload\n      dup3\n      lt\n      iszero\n      tag_876\n      jumpi\n      0x20\n      swap2\n      0x05\n      shl\n      add\n      add\n      swap1\n      jump\t// out\n    tag_32:\n      dup1\n      sload\n      shl(0x40, 0x01)\n      dup2\n      lt\n      iszero\n      tag_240\n      jumpi\n      tag_966\n      swap2\n      0x01\n      dup3\n      add\n      dup2\n      sstore\n      tag_22\n      jump\t// in\n    tag_966:\n      swap2\n      swap1\n      swap2\n      tag_967\n      jumpi\n      0x40\n      dup2\n      0x02\n      swap3\n      mload\n      dup5\n      sstore\n      0x20\n      dup2\n      add\n      mload\n      0x01\n      dup6\n      add\n      sstore\n      add\n      mload\n      swap2\n      add\n      sstore\n      jump\t// out\n    tag_967:\n      mstore(0x00, shl(0xe0, 0x4e487b71))\n      mstore(0x04, 0x00)\n      revert(0x00, 0x24)\n    tag_33:\n      iszero\n      tag_969\n      jumpi\n      jump\t// out\n    tag_969:\n      mload(0x40)\n      shl(0xe5, 0x461bcd)\n      dup2\n      mstore\n      0x20\n      0x04\n      dup3\n      add\n      mstore\n      0x15\n      0x24\n      dup3\n      add\n      mstore\n      shl(0x5a, 0x13585c9ad95d08191bd95cc81b9bdd08195e1a5cdd)\n      0x44\n      dup3\n      add\n      mstore\n      0x64\n      swap1\n      revert\n    tag_34:\n      swap2\n      swap1\n      dup3\n      sub\n      swap2\n      dup3\n      gt\n      tag_225\n      jumpi\n      jump\t// out\n    tag_35:\n      iszero\n      tag_973\n      jumpi\n      jump\t// out\n    tag_973:\n      mload(0x40)\n      shl(0xe5, 0x461bcd)\n      dup2\n      mstore\n      0x20\n      0x04\n      dup3\n      add\n      mstore\n      0x10\n      0x24\n      dup3\n      add\n      mstore\n      shl(0x82, 0x13585c9ad95d081a185cc8195b991959)\n      0x44\n      dup3\n      add\n      mstore\n      0x64\n      swap1\n      revert\n    tag_36:\n      iszero\n      tag_975\n      jumpi\n      jump\t// out\n    tag_975:\n      mload(0x40)\n      shl(0xe5, 0x461bcd)\n      dup2\n      mstore\n      0x20\n      0x04\n      dup3\n      add\n      mstore\n      0x17\n      0x24\n      dup3\n      add\n      mstore\n      0x4d61726b657420616c7265616479207265736f6c766564000000000000000000\n      0x44\n      dup3\n      add\n      mstore\n      0x64\n      swap1\n      revert\n    tag_37:\n      iszero\n      tag_977\n      jumpi\n      jump\t// out\n    tag_977:\n      mload(0x40)\n      shl(0xe5, 0x461bcd)\n      dup2\n      mstore\n      0x20\n      0x04\n      dup3\n      add\n      mstore\n      0x0e\n      0x24\n      dup3\n      add\n      mstore\n      shl(0x91, 0x24b73b30b634b21037b83a34b7b7)\n      0x44\n      dup3\n      add\n      mstore\n      0x64\n      swap1\n      revert\n    tag_38:\n      iszero\n      tag_979\n      jumpi\n      jump\t// out\n    tag_979:\n      mload(0x40)\n      shl(0xe5, 0x461bcd)\n      dup2\n      mstore\n      0x20\n      0x04\n      dup3\n      add\n      mstore\n      0x11\n      0x24\n      dup3\n      add\n      mstore\n      shl(0x78, 0x4f7074696f6e206e6f7420616374697665)\n      0x44\n      dup3\n      add\n      mstore\n      0x64\n      swap1\n      revert\n    tag_39:\n      iszero\n      tag_981\n      jumpi\n      jump\t// out\n    tag_981:\n      mload(0x40)\n      shl(0xe5, 0x461bcd)\n      dup2\n      mstore\n      0x20\n      0x04\n      dup3\n      add\n      mstore\n      0x19\n      0x24\n      dup3\n      add\n      mstore\n      0x5175616e74697479206d75737420626520706f73697469766500000000000000\n      0x44\n      dup3\n      add\n      mstore\n      0x64\n      swap1\n      revert\n    tag_40:\n      dup2\n      dup2\n      mul\n      swap3\n      swap2\n      dup2\n      iszero\n      swap2\n      dup5\n      div\n      eq\n      or\n      iszero\n      tag_225\n      jumpi\n      jump\t// out\n    tag_41:\n      dup1\n      sload\n      shl(0x40, 0x01)\n      dup2\n      lt\n      iszero\n      tag_240\n      jumpi\n      tag_987\n      swap2\n      0x01\n      dup3\n      add\n      dup2\n      sstore\n      tag_5\n      jump\t// in\n    tag_987:\n      tag_967\n      jumpi\n      0x07\n      0xe0\n      swap2\n      dup4\n      mload\n      dup2\n      sstore\n      0x20\n      dup5\n      add\n      mload\n      0x01\n      dup3\n      add\n      sstore\n      0x02\n      dup2\n      add\n      0x01\n      dup1\n      0xa0\n      shl\n      sub\n      swap1\n      dup2\n      0x40\n      dup8\n      add\n      mload\n      and\n      swap1\n      shl(0xa0, 0xffffffffffffffffffffffff)\n      swap2\n      dup3\n      dup3\n      sload\n      and\n      or\n      swap1\n      sstore\n      0x03\n      dup4\n      add\n      swap2\n      0x60\n      dup8\n      add\n      mload\n      and\n      swap1\n      dup3\n      sload\n      and\n      or\n      swap1\n      sstore\n      0x80\n      dup5\n      add\n      mload\n      0x04\n      dup3\n      add\n      sstore\n      0xa0\n      dup5\n      add\n      mload\n      0x05\n      dup3\n      add\n      sstore\n      0xc0\n      dup5\n      add\n      mload\n      0x06\n      dup3\n      add\n      sstore\n      add\n      swap2\n      add\n      mload\n      tag_990\n      dup2\n      tag_6\n      jump\t// in\n    tag_990:\n      tag_991\n      dup2\n      tag_6\n      jump\t// in\n    tag_991:\n      0xff\n      dup1\n      not\n      dup4\n      sload\n      and\n      swap2\n      and\n      or\n      swap1\n      sstore\n      jump\t// out\n    tag_42:\n      swap1\n      dup2\n      0x20\n      swap2\n      sub\n      slt\n      tag_174\n      jumpi\n      mload\n      dup1\n      iszero\n      iszero\n      dup2\n      sub\n      tag_174\n      jumpi\n      swap1\n      jump\t// out\n    tag_44:\n      iszero\n      tag_996\n      jumpi\n      jump\t// out\n    tag_996:\n      mload(0x40)\n      shl(0xe5, 0x461bcd)\n      dup2\n      mstore\n      0x20\n      0x04\n      dup3\n      add\n      mstore\n      0x0f\n      0x24\n      dup3\n      add\n      mstore\n      shl(0x8a, 0x151c985b9cd9995c8819985a5b1959)\n      0x44\n      dup3\n      add\n      mstore\n      0x64\n      swap1\n      revert\n    tag_45:\n      swap1\n      tag_998\n      dup3\n      tag_15\n      jump\t// in\n    tag_998:\n      tag_999\n      mload(0x40)\n      swap2\n      dup3\n      tag_13\n      jump\t// in\n    tag_999:\n      dup3\n      dup2\n      mstore\n      dup1\n      swap3\n      tag_1000\n      not(0x1f)\n      swap2\n      tag_15\n      jump\t// in\n    tag_1000:\n      add\n      swap1\n      0x20\n      calldatasize\n      swap2\n      add\n      calldatacopy\n      jump\t// out\n        /* \"@openzeppelin/contracts/utils/Pausable.sol\":1878:2006  function _requireNotPaused() internal view virtual {... */\n    tag_46:\n        /* \"v2.sol\":430:24350  contract PolicastMarketV2 is Ownable, ReentrancyGuard, AccessControl, Pausable {... */\n      0xff\n        /* \"@openzeppelin/contracts/utils/Pausable.sol\":1796:1803  _paused */\n      0x03\n        /* \"v2.sol\":430:24350  contract PolicastMarketV2 is Ownable, ReentrancyGuard, AccessControl, Pausable {... */\n      sload\n      and\n        /* \"@openzeppelin/contracts/utils/Pausable.sol\":1939:2000  if (paused()) {... */\n      tag_1001\n      jumpi\n        /* \"@openzeppelin/contracts/utils/Pausable.sol\":1878:2006  function _requireNotPaused() internal view virtual {... */\n      jump\t// out\n        /* \"@openzeppelin/contracts/utils/Pausable.sol\":1939:2000  if (paused()) {... */\n    tag_1001:\n        /* \"v2.sol\":430:24350  contract PolicastMarketV2 is Ownable, ReentrancyGuard, AccessControl, Pausable {... */\n      mload(0x40)\n      shl(0xe0, 0xd93c0665)\n        /* \"@openzeppelin/contracts/utils/Pausable.sol\":1974:1989  EnforcedPause() */\n      dup2\n      mstore\n      0x04\n      swap1\n      revert\n        /* \"@openzeppelin/contracts/access/AccessControl.sol\":3175:3278  function _checkRole(bytes32 role) internal view virtual {... */\n    tag_47:\n        /* \"v2.sol\":430:24350  contract PolicastMarketV2 is Ownable, ReentrancyGuard, AccessControl, Pausable {... */\n      dup1\n      0x00\n      mstore\n        /* \"@openzeppelin/contracts/access/AccessControl.sol\":2930:2936  _roles */\n      0x02\n        /* \"v2.sol\":430:24350  contract PolicastMarketV2 is Ownable, ReentrancyGuard, AccessControl, Pausable {... */\n      0x20\n      mstore\n      keccak256(0x00, 0x40)\n        /* \"@openzeppelin/contracts/utils/Context.sol\":735:745  msg.sender */\n      caller\n      0x00\n        /* \"v2.sol\":430:24350  contract PolicastMarketV2 is Ownable, ReentrancyGuard, AccessControl, Pausable {... */\n      mstore\n      0x20\n      mstore\n      and(sload(keccak256(0x00, 0x40)), 0xff)\n        /* \"@openzeppelin/contracts/access/AccessControl.sol\":3495:3518  !hasRole(role, account) */\n      iszero\n        /* \"@openzeppelin/contracts/access/AccessControl.sol\":3491:3599  if (!hasRole(role, account)) {... */\n      tag_1003\n      jumpi\n        /* \"@openzeppelin/contracts/access/AccessControl.sol\":3175:3278  function _checkRole(bytes32 role) internal view virtual {... */\n      pop\n      jump\t// out\n        /* \"@openzeppelin/contracts/access/AccessControl.sol\":3491:3599  if (!hasRole(role, account)) {... */\n    tag_1003:\n        /* \"v2.sol\":430:24350  contract PolicastMarketV2 is Ownable, ReentrancyGuard, AccessControl, Pausable {... */\n      0x44\n      swap1\n      mload(0x40)\n        /* \"@openzeppelin/contracts/access/AccessControl.sol\":3541:3588  AccessControlUnauthorizedAccount(account, role) */\n      swap1\n      shl(0xe0, 0xe2517d3f)\n      dup3\n      mstore\n        /* \"@openzeppelin/contracts/utils/Context.sol\":735:745  msg.sender */\n      caller\n        /* \"@openzeppelin/contracts/access/AccessControl.sol\":3541:3588  AccessControlUnauthorizedAccount(account, role) */\n      0x04\n      dup4\n      add\n        /* \"v2.sol\":430:24350  contract PolicastMarketV2 is Ownable, ReentrancyGuard, AccessControl, Pausable {... */\n      mstore\n      0x24\n      dup3\n      add\n      mstore\n        /* \"@openzeppelin/contracts/access/AccessControl.sol\":3541:3588  AccessControlUnauthorizedAccount(account, role) */\n      revert\n        /* \"@openzeppelin/contracts/access/AccessControl.sol\":6155:6471  function _grantRole(bytes32 role, address account) internal virtual returns (bool) {... */\n    tag_48:\n      sub(shl(0xa0, 0x01), 0x01)\n        /* \"v2.sol\":430:24350  contract PolicastMarketV2 is Ownable, ReentrancyGuard, AccessControl, Pausable {... */\n      and\n      0x00\n      dup2\n      dup2\n      mstore\n      mstore(0x20, 0x8e2c297e756b2a427c5dc4607f639842a8ea6e0f6322302f4ea76306b642cfc2)\n      0x40\n      swap1\n      keccak256\n      sload\n        /* \"v2.sol\":651:685  keccak256(\"QUESTION_RESOLVE_ROLE\") */\n      0xdcee1d35c83a32b436264a5c9afd68685c124f3f9097e87804c55410e67fc59a\n      swap2\n        /* \"v2.sol\":430:24350  contract PolicastMarketV2 is Ownable, ReentrancyGuard, AccessControl, Pausable {... */\n      swap1\n      0xff\n      and\n      tag_1005\n      jumpi\n      dup2\n      0x00\n      mstore\n        /* \"@openzeppelin/contracts/access/AccessControl.sol\":2930:2936  _roles */\n      0x02\n        /* \"v2.sol\":430:24350  contract PolicastMarketV2 is Ownable, ReentrancyGuard, AccessControl, Pausable {... */\n      0x20\n      mstore\n      keccak256(0x00, 0x40)\n      dup2\n      0x00\n      mstore\n      0x20\n      mstore\n      keccak256(0x00, 0x40)\n        /* \"@openzeppelin/contracts/access/AccessControl.sol\":6323:6327  true */\n      0x01\n        /* \"v2.sol\":430:24350  contract PolicastMarketV2 is Ownable, ReentrancyGuard, AccessControl, Pausable {... */\n      not(0xff)\n      dup3\n      sload\n      and\n      or\n      swap1\n      sstore\n        /* \"@openzeppelin/contracts/utils/Context.sol\":735:745  msg.sender */\n      caller\n        /* \"@openzeppelin/contracts/access/AccessControl.sol\":6346:6386  RoleGranted(role, account, _msgSender()) */\n      swap2\n      0x00\n      dup1\n      mload\n      0x20\n      data_01400fe2f234cf888b5e4c66700c7903f33f31bfc9675e51cb0119f915eb534d\n      dup4\n      codecopy\n      dup2\n      mload\n      swap2\n      mstore\n      0x00\n      dup1\n      log4\n        /* \"@openzeppelin/contracts/access/AccessControl.sol\":6323:6327  true */\n      0x01\n        /* \"@openzeppelin/contracts/access/AccessControl.sol\":6400:6411  return true */\n      swap1\n      jump\t// out\n        /* \"@openzeppelin/contracts/access/AccessControl.sol\":6248:6465  if (!hasRole(role, account)) {... */\n    tag_1005:\n        /* \"@openzeppelin/contracts/access/AccessControl.sol\":6442:6454  return false */\n      pop\n      pop\n      0x00\n      swap1\n      jump\t// out\n        /* \"@openzeppelin/contracts/access/AccessControl.sol\":6155:6471  function _grantRole(bytes32 role, address account) internal virtual returns (bool) {... */\n    tag_49:\n      sub(shl(0xa0, 0x01), 0x01)\n        /* \"v2.sol\":430:24350  contract PolicastMarketV2 is Ownable, ReentrancyGuard, AccessControl, Pausable {... */\n      and\n      0x00\n      dup2\n      dup2\n      mstore\n      mstore(0x20, 0x30d995518b427f5a5863ad73fe356ca50cf70941f42c516830919c845fa5806f)\n      0x40\n      swap1\n      keccak256\n      sload\n        /* \"v2.sol\":563:597  keccak256(\"QUESTION_CREATOR_ROLE\") */\n      0xef485be696bbc0c91ad541bbd553ffb5bd0e18dac30ba76e992dda23cb807a8a\n      swap2\n        /* \"v2.sol\":430:24350  contract PolicastMarketV2 is Ownable, ReentrancyGuard, AccessControl, Pausable {... */\n      swap1\n      0xff\n      and\n      tag_1005\n      jumpi\n      dup2\n      0x00\n      mstore\n        /* \"@openzeppelin/contracts/access/AccessControl.sol\":2930:2936  _roles */\n      0x02\n        /* \"v2.sol\":430:24350  contract PolicastMarketV2 is Ownable, ReentrancyGuard, AccessControl, Pausable {... */\n      0x20\n      mstore\n      keccak256(0x00, 0x40)\n      dup2\n      0x00\n      mstore\n      0x20\n      mstore\n      keccak256(0x00, 0x40)\n        /* \"@openzeppelin/contracts/access/AccessControl.sol\":6323:6327  true */\n      0x01\n        /* \"v2.sol\":430:24350  contract PolicastMarketV2 is Ownable, ReentrancyGuard, AccessControl, Pausable {... */\n      not(0xff)\n      dup3\n      sload\n      and\n      or\n      swap1\n      sstore\n        /* \"@openzeppelin/contracts/utils/Context.sol\":735:745  msg.sender */\n      caller\n        /* \"@openzeppelin/contracts/access/AccessControl.sol\":6346:6386  RoleGranted(role, account, _msgSender()) */\n      swap2\n      0x00\n      dup1\n      mload\n      0x20\n      data_01400fe2f234cf888b5e4c66700c7903f33f31bfc9675e51cb0119f915eb534d\n      dup4\n      codecopy\n      dup2\n      mload\n      swap2\n      mstore\n      0x00\n      dup1\n      log4\n        /* \"@openzeppelin/contracts/access/AccessControl.sol\":6323:6327  true */\n      0x01\n        /* \"@openzeppelin/contracts/access/AccessControl.sol\":6400:6411  return true */\n      swap1\n      jump\t// out\n        /* \"@openzeppelin/contracts/access/AccessControl.sol\":6155:6471  function _grantRole(bytes32 role, address account) internal virtual returns (bool) {... */\n    tag_50:\n      sub(shl(0xa0, 0x01), 0x01)\n        /* \"v2.sol\":430:24350  contract PolicastMarketV2 is Ownable, ReentrancyGuard, AccessControl, Pausable {... */\n      and\n      0x00\n      dup2\n      dup2\n      mstore\n      mstore(0x20, 0xd3dccf8d8289b9deee17e361620d7577de7b525dd57f668d5c1bb85ec53112b5)\n      0x40\n      swap1\n      keccak256\n      sload\n      0x00\n      dup1\n      mload\n      0x20\n      data_860935a53c6b0c8ee6d33171a40b66407cec30e1ca1fb8ad5b1ec07e62732162\n      dup4\n      codecopy\n      dup2\n      mload\n      swap2\n      mstore\n        /* \"v2.sol\":739:773  keccak256(\"MARKET_VALIDATOR_ROLE\") */\n      swap2\n        /* \"v2.sol\":430:24350  contract PolicastMarketV2 is Ownable, ReentrancyGuard, AccessControl, Pausable {... */\n      swap1\n      0xff\n      and\n      tag_1005\n      jumpi\n      dup2\n      0x00\n      mstore\n        /* \"@openzeppelin/contracts/access/AccessControl.sol\":2930:2936  _roles */\n      0x02\n        /* \"v2.sol\":430:24350  contract PolicastMarketV2 is Ownable, ReentrancyGuard, AccessControl, Pausable {... */\n      0x20\n      mstore\n      keccak256(0x00, 0x40)\n      dup2\n      0x00\n      mstore\n      0x20\n      mstore\n      keccak256(0x00, 0x40)\n        /* \"@openzeppelin/contracts/access/AccessControl.sol\":6323:6327  true */\n      0x01\n        /* \"v2.sol\":430:24350  contract PolicastMarketV2 is Ownable, ReentrancyGuard, AccessControl, Pausable {... */\n      not(0xff)\n      dup3\n      sload\n      and\n      or\n      swap1\n      sstore\n        /* \"@openzeppelin/contracts/utils/Context.sol\":735:745  msg.sender */\n      caller\n        /* \"@openzeppelin/contracts/access/AccessControl.sol\":6346:6386  RoleGranted(role, account, _msgSender()) */\n      swap2\n      0x00\n      dup1\n      mload\n      0x20\n      data_01400fe2f234cf888b5e4c66700c7903f33f31bfc9675e51cb0119f915eb534d\n      dup4\n      codecopy\n      dup2\n      mload\n      swap2\n      mstore\n      0x00\n      dup1\n      log4\n        /* \"@openzeppelin/contracts/access/AccessControl.sol\":6323:6327  true */\n      0x01\n        /* \"@openzeppelin/contracts/access/AccessControl.sol\":6400:6411  return true */\n      swap1\n      jump\t// out\n        /* \"@openzeppelin/contracts/access/AccessControl.sol\":6155:6471  function _grantRole(bytes32 role, address account) internal virtual returns (bool) {... */\n    tag_51:\n      swap1\n        /* \"v2.sol\":430:24350  contract PolicastMarketV2 is Ownable, ReentrancyGuard, AccessControl, Pausable {... */\n      dup2\n      0x00\n      mstore\n        /* \"@openzeppelin/contracts/access/AccessControl.sol\":2930:2936  _roles */\n      0x02\n        /* \"v2.sol\":430:24350  contract PolicastMarketV2 is Ownable, ReentrancyGuard, AccessControl, Pausable {... */\n      0x20\n      mstore\n      keccak256(0x00, 0x40)\n      swap1\n      0x01\n      dup1\n      0xa0\n      shl\n      sub\n      and\n      swap1\n      dup2\n      0x00\n      mstore\n      0x20\n      mstore\n      and(sload(keccak256(0x00, 0x40)), 0xff)\n        /* \"@openzeppelin/contracts/access/AccessControl.sol\":6252:6275  !hasRole(role, account) */\n      iszero\n        /* \"@openzeppelin/contracts/access/AccessControl.sol\":6248:6465  if (!hasRole(role, account)) {... */\n      0x00\n        /* \"v2.sol\":430:24350  contract PolicastMarketV2 is Ownable, ReentrancyGuard, AccessControl, Pausable {... */\n      eq\n      tag_1005\n      jumpi\n      dup2\n      0x00\n      mstore\n        /* \"@openzeppelin/contracts/access/AccessControl.sol\":2930:2936  _roles */\n      0x02\n        /* \"v2.sol\":430:24350  contract PolicastMarketV2 is Ownable, ReentrancyGuard, AccessControl, Pausable {... */\n      0x20\n      mstore\n      keccak256(0x00, 0x40)\n      dup2\n      0x00\n      mstore\n      0x20\n      mstore\n      keccak256(0x00, 0x40)\n        /* \"@openzeppelin/contracts/access/AccessControl.sol\":6323:6327  true */\n      0x01\n        /* \"v2.sol\":430:24350  contract PolicastMarketV2 is Ownable, ReentrancyGuard, AccessControl, Pausable {... */\n      not(0xff)\n      dup3\n      sload\n      and\n      or\n      swap1\n      sstore\n        /* \"@openzeppelin/contracts/utils/Context.sol\":735:745  msg.sender */\n      caller\n        /* \"@openzeppelin/contracts/access/AccessControl.sol\":6346:6386  RoleGranted(role, account, _msgSender()) */\n      swap2\n      0x00\n      dup1\n      mload\n      0x20\n      data_01400fe2f234cf888b5e4c66700c7903f33f31bfc9675e51cb0119f915eb534d\n      dup4\n      codecopy\n      dup2\n      mload\n      swap2\n      mstore\n      0x00\n      dup1\n      log4\n        /* \"@openzeppelin/contracts/access/AccessControl.sol\":6323:6327  true */\n      0x01\n        /* \"@openzeppelin/contracts/access/AccessControl.sol\":6400:6411  return true */\n      swap1\n      jump\t// out\n        /* \"@openzeppelin/contracts/access/Ownable.sol\":1796:1958  function _checkOwner() internal view virtual {... */\n    tag_52:\n        /* \"@openzeppelin/contracts/access/Ownable.sol\":1710:1716  _owner */\n      0x00\n        /* \"v2.sol\":430:24350  contract PolicastMarketV2 is Ownable, ReentrancyGuard, AccessControl, Pausable {... */\n      sload\n      sub(shl(0xa0, 0x01), 0x01)\n      and\n        /* \"@openzeppelin/contracts/utils/Context.sol\":735:745  msg.sender */\n      caller\n        /* \"@openzeppelin/contracts/access/Ownable.sol\":1855:1878  owner() != _msgSender() */\n      sub\n        /* \"@openzeppelin/contracts/access/Ownable.sol\":1851:1952  if (owner() != _msgSender()) {... */\n      tag_1013\n      jumpi\n        /* \"@openzeppelin/contracts/access/Ownable.sol\":1796:1958  function _checkOwner() internal view virtual {... */\n      jump\t// out\n        /* \"@openzeppelin/contracts/access/Ownable.sol\":1851:1952  if (owner() != _msgSender()) {... */\n    tag_1013:\n        /* \"v2.sol\":430:24350  contract PolicastMarketV2 is Ownable, ReentrancyGuard, AccessControl, Pausable {... */\n      mload(0x40)\n      shl(0xe0, 0x118cdaa7)\n        /* \"@openzeppelin/contracts/access/Ownable.sol\":1901:1941  OwnableUnauthorizedAccount(_msgSender()) */\n      dup2\n      mstore\n        /* \"@openzeppelin/contracts/utils/Context.sol\":735:745  msg.sender */\n      caller\n        /* \"@openzeppelin/contracts/access/Ownable.sol\":1901:1941  OwnableUnauthorizedAccount(_msgSender()) */\n      0x04\n      dup3\n      add\n        /* \"v2.sol\":430:24350  contract PolicastMarketV2 is Ownable, ReentrancyGuard, AccessControl, Pausable {... */\n      mstore\n      0x24\n      swap1\n        /* \"@openzeppelin/contracts/access/Ownable.sol\":1901:1941  OwnableUnauthorizedAccount(_msgSender()) */\n      revert\n        /* \"@openzeppelin/contracts/access/AccessControl.sol\":6708:7025  function _revokeRole(bytes32 role, address account) internal virtual returns (bool) {... */\n    tag_53:\n      swap1\n        /* \"v2.sol\":430:24350  contract PolicastMarketV2 is Ownable, ReentrancyGuard, AccessControl, Pausable {... */\n      dup2\n      0x00\n      mstore\n        /* \"@openzeppelin/contracts/access/AccessControl.sol\":2930:2936  _roles */\n      0x02\n        /* \"v2.sol\":430:24350  contract PolicastMarketV2 is Ownable, ReentrancyGuard, AccessControl, Pausable {... */\n      0x20\n      mstore\n      keccak256(0x00, 0x40)\n      swap1\n      0x01\n      dup1\n      0xa0\n      shl\n      sub\n      and\n      swap1\n      dup2\n      0x00\n      mstore\n      0x20\n      mstore\n      and(sload(keccak256(0x00, 0x40)), 0xff)\n        /* \"@openzeppelin/contracts/access/AccessControl.sol\":6802:7019  if (hasRole(role, account)) {... */\n      0x00\n        /* \"v2.sol\":430:24350  contract PolicastMarketV2 is Ownable, ReentrancyGuard, AccessControl, Pausable {... */\n      eq\n      tag_1005\n      jumpi\n      dup2\n      0x00\n      mstore\n        /* \"@openzeppelin/contracts/access/AccessControl.sol\":2930:2936  _roles */\n      0x02\n        /* \"v2.sol\":430:24350  contract PolicastMarketV2 is Ownable, ReentrancyGuard, AccessControl, Pausable {... */\n      0x20\n      mstore\n      keccak256(0x00, 0x40)\n      dup2\n      0x00\n      mstore\n      0x20\n      mstore\n      keccak256(0x00, 0x40)\n      not(0xff)\n      dup2\n      sload\n      and\n      swap1\n      sstore\n        /* \"@openzeppelin/contracts/utils/Context.sol\":735:745  msg.sender */\n      caller\n        /* \"@openzeppelin/contracts/access/AccessControl.sol\":6900:6940  RoleRevoked(role, account, _msgSender()) */\n      swap2\n      0xf6391f5c32d9c69d2a47ea670b442974b53935d1edc7fd64eb21e047a839171b\n      0x00\n      dup1\n      log4\n        /* \"v2.sol\":430:24350  contract PolicastMarketV2 is Ownable, ReentrancyGuard, AccessControl, Pausable {... */\n      0x01\n        /* \"@openzeppelin/contracts/access/AccessControl.sol\":6954:6965  return true */\n      swap1\n      jump\t// out\n        /* \"@openzeppelin/contracts/utils/ReentrancyGuard.sol\":2575:2882  function _nonReentrantBefore() private {... */\n    tag_54:\n        /* \"@openzeppelin/contracts/utils/ReentrancyGuard.sol\":1899:1900  2 */\n      0x02\n        /* \"@openzeppelin/contracts/utils/ReentrancyGuard.sol\":2702:2709  _status */\n      0x01\n        /* \"v2.sol\":430:24350  contract PolicastMarketV2 is Ownable, ReentrancyGuard, AccessControl, Pausable {... */\n      sload\n        /* \"@openzeppelin/contracts/utils/ReentrancyGuard.sol\":2702:2720  _status == ENTERED */\n      eq\n        /* \"@openzeppelin/contracts/utils/ReentrancyGuard.sol\":2698:2784  if (_status == ENTERED) {... */\n      tag_1017\n      jumpi\n        /* \"@openzeppelin/contracts/utils/ReentrancyGuard.sol\":1899:1900  2 */\n      0x02\n        /* \"@openzeppelin/contracts/utils/ReentrancyGuard.sol\":2702:2709  _status */\n      0x01\n        /* \"v2.sol\":430:24350  contract PolicastMarketV2 is Ownable, ReentrancyGuard, AccessControl, Pausable {... */\n      sstore\n        /* \"@openzeppelin/contracts/utils/ReentrancyGuard.sol\":2575:2882  function _nonReentrantBefore() private {... */\n      jump\t// out\n        /* \"@openzeppelin/contracts/utils/ReentrancyGuard.sol\":2698:2784  if (_status == ENTERED) {... */\n    tag_1017:\n        /* \"v2.sol\":430:24350  contract PolicastMarketV2 is Ownable, ReentrancyGuard, AccessControl, Pausable {... */\n      mload(0x40)\n      shl(0xe0, 0x3ee5aeb5)\n        /* \"@openzeppelin/contracts/utils/ReentrancyGuard.sol\":2743:2773  ReentrancyGuardReentrantCall() */\n      dup2\n      mstore\n      0x04\n      swap1\n      revert\n        /* \"v2.sol\":18687:19021  function _isNewParticipant(address _user, uint256 _marketId) internal view returns (bool) {... */\n    tag_55:\n      swap1\n      0x00\n        /* \"v2.sol\":430:24350  contract PolicastMarketV2 is Ownable, ReentrancyGuard, AccessControl, Pausable {... */\n      mstore\n      0x20\n        /* \"v2.sol\":18811:18818  markets */\n      0x08\n        /* \"v2.sol\":430:24350  contract PolicastMarketV2 is Ownable, ReentrancyGuard, AccessControl, Pausable {... */\n      0x20\n      mstore\n      0x40\n      swap1\n      keccak256(0x00, 0x40)\n        /* \"v2.sol\":18844:18857  uint256 i = 0 */\n      swap3\n      0x00\n        /* \"v2.sol\":18863:18881  market.optionCount */\n      swap1\n        /* \"v2.sol\":18906:18923  market.userShares */\n      0x0b\n        /* \"v2.sol\":18863:18881  market.optionCount */\n      0x09\n      dup7\n      add\n        /* \"v2.sol\":430:24350  contract PolicastMarketV2 is Ownable, ReentrancyGuard, AccessControl, Pausable {... */\n      sload\n        /* \"v2.sol\":18906:18923  market.userShares */\n      swap6\n      add\n        /* \"v2.sol\":18839:18994  for (uint256 i = 0; i < market.optionCount; i++) {... */\n      swap2\n        /* \"v2.sol\":18859:18881  i < market.optionCount */\n    tag_1019:\n      dup6\n      dup2\n      lt\n      tag_1020\n      jumpi\n        /* \"v2.sol\":19003:19014  return true */\n      pop\n      pop\n      pop\n      pop\n      pop\n      pop\n        /* \"v2.sol\":430:24350  contract PolicastMarketV2 is Ownable, ReentrancyGuard, AccessControl, Pausable {... */\n      0x01\n        /* \"v2.sol\":18687:19021  function _isNewParticipant(address _user, uint256 _marketId) internal view returns (bool) {... */\n      swap1\n      jump\t// out\n        /* \"v2.sol\":18883:18886  i++ */\n    tag_1020:\n      sub(shl(0xa0, 0x01), 0x01)\n        /* \"v2.sol\":430:24350  contract PolicastMarketV2 is Ownable, ReentrancyGuard, AccessControl, Pausable {... */\n      dup3\n      and\n      0x00\n      swap1\n      dup2\n      mstore\n      dup4\n      dup6\n      mstore\n      dup6\n      dup2\n      keccak256\n      dup3\n      dup3\n      mstore\n      dup6\n      mstore\n      dup6\n      swap1\n      keccak256\n      sload\n        /* \"v2.sol\":18902:18984  if (market.userShares[_user][i] > 0) {... */\n      tag_1022\n      jumpi\n        /* \"v2.sol\":430:24350  contract PolicastMarketV2 is Ownable, ReentrancyGuard, AccessControl, Pausable {... */\n      0x01\n      add\n        /* \"v2.sol\":18844:18857  uint256 i = 0 */\n      jump(tag_1019)\n        /* \"v2.sol\":18902:18984  if (market.userShares[_user][i] > 0) {... */\n    tag_1022:\n        /* \"v2.sol\":18957:18969  return false */\n      pop\n      pop\n      pop\n      pop\n      pop\n      pop\n      0x00\n      swap1\n      jump\t// out\n    stop\n    data_01400fe2f234cf888b5e4c66700c7903f33f31bfc9675e51cb0119f915eb534d 2f8788117e7eff1d82e926ec794901d17c78024a50270940304540a733656f0d\n    data_860935a53c6b0c8ee6d33171a40b66407cec30e1ca1fb8ad5b1ec07e62732162 d486618b282cb35034d59c30c062b5b3822d6cdf87ec459191ce7f5b7b8a4873\n\n    auxdata: 0xa2646970667358221220699e9e024bdcf3a9aafa4e222f0ab9fbef5347fabe48cb6369407299848657fb64736f6c63430008180033\n}\n",
				"bytecode": {
					"linkReferences": {},
					"object": "608034620000f857601f62003f8638819003918201601f19168301916001600160401b03831184841017620000fc57808492602094604052833981010312620000f857516001600160a01b038082168203620000f8573315620000e0575f8054336001600160a01b03198216811783559216907f8be0079c531659141344cd1fd0a4f28419497f9722a3daafe3b4186f6b6457e09080a36001805560c860075560038054610100600160a81b03191660089290921b610100600160a81b0316919091179055620000cf3362000110565b50604051613dd39081620001938239f35b604051631e4fbdf760e01b81525f6004820152602490fd5b5f80fd5b634e487b7160e01b5f52604160045260245ffd5b6001600160a01b03165f8181525f8051602062003f66833981519152602052604090205460ff166200018d575f8181525f8051602062003f6683398151915260205260408120805460ff191660011790553391907f2f8788117e7eff1d82e926ec794901d17c78024a50270940304540a733656f0d8180a4600190565b505f9056fe6080806040526004361015610012575f80fd5b5f3560e01c90816301ffc9a71461313a5750806305e33dd0146130f857806308693f3c146130705780630da183d6146130555780631cb1de2f14612fe15780631edb27e914612f47578063204f6125146125e7578063222fa267146125435780632453ffa814612526578063248a9ca3146124f9578063257ff7b6146124ca57806329cf655b1461223a5780632f2ff15d1461248d57806332617b701461246657806335037e0b146123ea57806336568abe146123a35780633ec79193146122cf5780633f4ba83a1461226657806343425e881461223a5780634a2021ef1461206c57806358057fe514611ef05780635a2db6fb14611a2b5780635c975abb14611a095780636055733314611852578063677bd9ff146115b35780636db3b4dc14611537578063715018a6146114e057806373af16fc14611292578063755f06291461125857806377b4a3e71461121e5780637c946454146110c15780637e50898e146110a3578063835dc40b1461100e5780638456cb5914610fb5578063856652e914610f6c5780638b8840e014610f345780638da5cb5b14610f0d57806391d1485414610ec4578063927fef2e14610e6157806392f012b214610e45578063a217fddf14610e2b578063a75dd11514610dd1578063a85c38ef14610d15578063a8cc7f1914610ce1578063ab44e63514610ba0578063abdce1a414610b37578063b1283e7714610a24578063b1ab13ff146109ef578063b61920c11461098b578063bd55022a1461096e578063c2454af7146108d6578063d547741f14610897578063ec9790821461028f578063ed88123014610357578063eeca08f01461033a578063f2fde38b146102b05763fd69f3c21461028f575f80fd5b346102ac575f3660031901126102ac576020600454604051908152f35b5f80fd5b346102ac5760203660031901126102ac576102c96131eb565b6102d1613c37565b6001600160a01b03908116908115610322575f54826bffffffffffffffffffffffff60a01b8216175f55167f8be0079c531659141344cd1fd0a4f28419497f9722a3daafe3b4186f6b6457e05f80a3005b604051631e4fbdf760e01b81525f6004820152602490fd5b346102ac575f3660031901126102ac576020600754604051908152f35b346102ac5761036536613472565b61036d613cd6565b6103756139b6565b61038260045485106136c2565b835f52600860205261039c600260405f2001544210613713565b835f5260086020526103b860ff600560405f2001541615613752565b835f5260086020526103d2600960405f200154841061379e565b835f526008602052600a60405f2001835f526020526103fa60ff600560405f200154166137db565b61040582151561381b565b835f52600860205260ff600560405f20015460101c161561085b575f848152600860209081526040808320868452600a8101909252909120600481015490949192909190821161082557670de0b6b3a76400006104628584613867565b049361271061047360075487613867565b049361047f8587613646565b905f602060018060a01b0360035460081c166064604051809481936323b872dd60e01b83523360048401523060248401528860448401525af1801561081a576104cf915f916107eb575b50613946565b335f52600b810160205260405f20845f5260205260405f205415806107db575b610731575b600f90335f52600b810160205260405f20855f5260205260405f2061051a858254613646565b90556002890161052b858254613646565b90556003890161053c898254613646565b90556006810161054d898254613646565b90556007810161055e898254613646565b90550161056c868254613646565b9055335f52600a60205261058560405f20918254613646565b9055335f52600a602052600460405f20016105a08154613638565b9055865f526008602052600a60405f2001825f5260205260405f206002810154670de0b6b3a7640000830296838804670de0b6b3a7640000148415171561071d576103e8820180921161071d577faf7c505ee772ec188af7067e1f73db08ab028e3d564273442b907742b9c41fa09861062d610665946004610625819660209d613653565b910154613646565b9283910155895f52600d885260405f20855f52885260405f209060405192610654846132e4565b835242898401526040830152613671565b6106c4604051610674816132ff565b88815283878201523360408201525f60608201528460808201528260a08201524260c08201525f60e0820152335f52600b87526106b48160405f2061387a565b885f52600c875260405f2061387a565b600654906106d182613638565b600655604051935f85528685015260408401526060830152857f976184626638b6c7e51a4ab66b297beb1714b545ce4e867a70d622566573098c60803394a4604051908152a260018055005b634e487b7160e01b5f52601160045260245ffd5b600d810154600160401b8110156107c7578060016107589201600d840155600d83016131d6565b81549060031b9033821b9160018060a01b03901b1916179055335f52600a60205260405f20546104f45760125490600160401b8210156107c7576107a4826001600f940160125561318d565b81546001600160a01b0360039290921b91821b19163390911b17905590506104f4565b634e487b7160e01b5f52604160045260245ffd5b506107e68933613cf9565b6104ef565b61080d915060203d602011610813575b610805818361331b565b81019061392e565b8b6104c9565b503d6107fb565b6040513d5f823e3d90fd5b60405162461bcd60e51b815260206004820152600e60248201526d0a0e4d2c6ca40e8dede40d0d2ced60931b6044820152606490fd5b60405162461bcd60e51b815260206004820152601460248201527313585c9ad95d081b9bdd081d985b1a59185d195960621b6044820152606490fd5b346102ac5760403660031901126102ac576108d46004356108b6613201565b90805f5260026020526108cf600160405f2001546139d4565b613c62565b005b346102ac576108ee6108e7366134fe565b919061351d565b8054908183111561096757815b61090483613984565b938082111561095f5761091691613706565b5f5b838110610931576040518061092d87826134aa565b0390f35b8061094761094160019385613646565b856131d6565b90549060031b1c610958828861365d565b5201610918565b50505f610916565b82916108fb565b346102ac575f3660031901126102ac576020600654604051908152f35b346102ac5760203660031901126102ac576001600160a01b036109ac6131eb565b165f52600a60205260a060405f20805490600181015490600281015460046003830154920154926040519485526020850152604084015260608301526080820152f35b346102ac576109fd36613298565b905f526008602052600a60405f2001905f526020526020600460405f200154604051908152f35b346102ac5760203660031901126102ac576004355f52600860205260405f20610ab3610a4f8261356c565b91610a5c6001820161356c565b9260028201549160ff600382015416600482015460058301546006840154600785015491600886015493610ad1600988015496610ac1600f600e8b01549a01549a6040519e8f9e8f926101e0808552840190613427565b916020818403910152613427565b9a60408d015260608c0190613465565b60808a015260ff818116151560a08b0152600882901c8116151560c08b0152601082901c16151560e08a015260181c6001600160a01b03166101008901526101208801526101408701526101608601526101808501526101a08401526101c08301520390f35b346102ac5760203660031901126102ac576108d4610b536131eb565b610b5b613c37565b5f80516020613d7e8339815191525f5260026020527fd3dccf8d8289b9deee17e361620d7577de7b525dd57f668d5c1bb85ec53112b654610b9b906139d4565b613b4c565b346102ac576020806003193601126102ac5760043590610bc360045483106136c2565b5f80516020613d7e8339815191525f526002815260405f20335f52815260ff60405f2054168015610cce575b15610c9957815f526008815260ff600560405f20015460101c16610c55577fcd5b0c95d548cdba5f9a45b4210642d0b866a0cc878e0a863855455908c6db6590825f5260088152600560405f20016201000062ff000019825416179055604051338152a2005b6064906040519062461bcd60e51b82526004820152601860248201527f4d61726b657420616c72656164792076616c69646174656400000000000000006044820152fd5b6064906040519062461bcd60e51b82526004820152600e60248201526d139bdd08185d5d1a1bdc9a5e995960921b6044820152fd5b505f546001600160a01b03163314610bef565b346102ac57610cf26108e7366134fe565b80548210156102ac57602091610d07916131d6565b90546040519160031b1c8152f35b346102ac5760203660031901126102ac576004355f52600960205261016060405f208054906001810154906002810154600382015460ff8160a01c1660ff8260a81c1660048501549160058601549360068701549560ff600860078a015499015416986040519a8b5260208b015260408a015260018060a01b03166060890152610d9e81613230565b6080880152610dac81613230565b60a087015260c086015260e08501526101008401526101208301521515610140820152f35b346102ac57610ddf36613490565b915f52600d60205260405f20905f5260205260405f2080548210156102ac57606091610e0a916134e5565b50805490600260018201549101549060405192835260208301526040820152f35b346102ac575f3660031901126102ac5760206040515f8152f35b346102ac575f3660031901126102ac576020604051610e108152f35b346102ac5760203660031901126102ac57600435610e7d613c37565b6103e88111610e8b57600755005b60405162461bcd60e51b815260206004820152601160248201527008ccaca40e4c2e8ca40e8dede40d0d2ced607b1b6044820152606490fd5b346102ac5760403660031901126102ac57610edd613201565b6004355f52600260205260405f209060018060a01b03165f52602052602060ff60405f2054166040519015158152f35b346102ac575f3660031901126102ac575f546040516001600160a01b039091168152602090f35b346102ac5760203660031901126102ac576001600160a01b03610f556131eb565b165f526011602052602060405f2054604051908152f35b346102ac5760403660031901126102ac57610f856131eb565b6001600160a01b03165f908152600f60205260409020805460243591908210156102ac57602091610d07916131d6565b346102ac575f3660031901126102ac57610fcd613c37565b610fd56139b6565b600160ff1960035416176003557f62e78cea01bee320cd4e420270b5ea74000d11b0c9f74754ebdbfc544b05a2586020604051338152a1005b346102ac5760403660031901126102ac5760043561102a613201565b9061103860045482106136c2565b5f52602090600860205260405f209160098301549161105683613984565b93600b01906001600160a01b03165f5b84811061107b576040518061092d88826134aa565b600190825f5283855260405f20815f52855260405f205461109c828961365d565b5201611066565b346102ac575f3660031901126102ac5760206040516301e133808152f35b346102ac576110cf36613490565b915f52602090600d825260405f20905f52815260405f208054908184115f1461121757815b6110fd83613391565b9461110b604051968761331b565b83865261111784613391565b601f1901855f5b8281106111ef57505050808211156111e75761113991613706565b5f5b8381106111925760408051868152875181880181905288880192820190885f5b8281106111685784840385f35b8551805185528083015185840152604090810151908501529481019460609093019260010161115b565b806111a86111a260019385613646565b856134e5565b506002604051916111b8836132e4565b805483528481015489840152015460408201526111d5828961365d565b526111e0818861365d565b500161113b565b50505f611139565b6040516111fb816132e4565b5f81525f838201525f604082015282828b01015201869061111e565b83916110f4565b346102ac575f3660031901126102ac5760206040517fef485be696bbc0c91ad541bbd553ffb5bd0e18dac30ba76e992dda23cb807a8a8152f35b346102ac575f3660031901126102ac5760206040517fdcee1d35c83a32b436264a5c9afd68685c124f3f9097e87804c55410e67fc59a8152f35b346102ac576112a036613298565b601254908183101561149b57816112b78285613646565b111561148b57505b6112c98282613706565b906112ec6112d683613391565b926112e4604051948561331b565b808452613391565b60209390601f19015f5b81811061146e575050805b8281106113785750505060405190828201838352815180915283604084019201935f5b8281106113315784840385f35b855180516001600160a01b0316855280830151858401526040808201519086015260608082015190860152608090810151908501529481019460a090930192600101611324565b611385819593949561318d565b9190549160039260018060a01b0391841b1c16805f52600a855260405f20906040516113b0816132ae565b825481526001830154926004888301968588526002830154604085015282015491606092838501520154956080918284019780895215155f1461145f5760649586810296818804149015171561071d5760019761141261145497865190613653565b925b51945190519460405196611427886132ae565b87528b87015260408601528401528201526114428584613706565b9061144d828a61365d565b528761365d565b500193929193611301565b61145495506001975f92611414565b948093949561147b61360e565b82828901015201949392946112f6565b611496915082613646565b6112bf565b60405162461bcd60e51b815260206004820152601960248201527f537461727420696e646578206f7574206f6620626f756e6473000000000000006044820152606490fd5b346102ac575f3660031901126102ac576114f8613c37565b5f80546001600160a01b0319811682556001600160a01b03167f8be0079c531659141344cd1fd0a4f28419497f9722a3daafe3b4186f6b6457e08280a3005b346102ac5760203660031901126102ac576108d46115536131eb565b61155b613c37565b7fef485be696bbc0c91ad541bbd553ffb5bd0e18dac30ba76e992dda23cb807a8a5f5260026020527f30d995518b427f5a5863ad73fe356ca50cf70941f42c516830919c845fa58070546115ae906139d4565b613ab3565b346102ac576020806003193601126102ac576004356115d0613cd6565b6115dd60045482106136c2565b805f526008825260405f2091600583015460ff81169081611843575b50156117ff57600c830192335f5283825260ff60405f2054166117c857335f52600b8101825260405f2090600481015491825f52835260405f205491821561178f57816116a06116a5926004600a6116ab979601825f5280895261168360405f20600660028201549701549061167c670de0b6b3a7640000958692015489613867565b0490613706565b925f528852611699600460405f20015487613867565b0494613867565b613653565b90613646565b92335f52815260405f20600160ff19825416179055600a8152600160405f20016116d6848254613646565b9055335f526011815260405f206116ee848254613646565b905560035460405163a9059cbb60e01b81523360048201526024810185905291908190839060081c6001600160a01b0316815f816044810103925af191821561081a577f4ec90e965519d92681267467f775ada5bd214aa92c0dc93d90a5e880ce9ed02692611763915f916117725750613946565b6040519384523393a360018055005b6117899150833d851161081357610805818361331b565b866104c9565b60405162461bcd60e51b81526004810185905260116024820152704e6f2077696e6e696e672073686172657360781b6044820152606490fd5b60405162461bcd60e51b815260048101839052600f60248201526e105b1c9958591e4818db185a5b5959608a1b6044820152606490fd5b6064906040519062461bcd60e51b82526004820152601b60248201527f4d61726b6574206e6f7420726561647920666f7220636c61696d7300000000006044820152fd5b60ff915060081c1615846115f9565b346102ac5761186036613298565b61186d60045483106136c2565b5f546001600160a01b0316331480156119d2575b1561198357815f52600860205260405f20906002820154421061193e5760058201908154916118b360ff841615613752565b60098401548210156119005760016040938360047fc160a477581cb2155b1578581d805dcc0e6623403811fc2853465045bc0b049297015560ff19161790558151908152336020820152a2005b60405162461bcd60e51b815260206004820152601660248201527524b73b30b634b2103bb4b73734b7339037b83a34b7b760511b6044820152606490fd5b60405162461bcd60e51b815260206004820152601860248201527f4d61726b657420686173206e6f7420656e6465642079657400000000000000006044820152606490fd5b60405162461bcd60e51b815260206004820152602160248201527f4e6f7420617574686f72697a656420746f207265736f6c7665206d61726b65746044820152607360f81b6064820152608490fd5b50335f9081527f8e2c297e756b2a427c5dc4607f639842a8ea6e0f6322302f4ea76306b642cfc2602052604090205460ff16611881565b346102ac575f3660031901126102ac57602060ff600354166040519015158152f35b346102ac57611a3936613472565b611a41613cd6565b611a496139b6565b611a5660045485106136c2565b835f526008602052611a70600260405f2001544210613713565b835f526008602052611a8c60ff600560405f2001541615613752565b835f526008602052611aa6600960405f200154841061379e565b835f526008602052600a60405f2001835f52602052611ace60ff600560405f200154166137db565b611ad982151561381b565b835f526008602052600b60405f2001335f5260205260405f20835f526020528160405f205410611eb5575f848152600860209081526040808320868452600a81019092529091206004810154909491929091908210611e8057670de0b6b3a7640000611b458584613867565b0494612710611b5660075488613867565b0493600f611b648689613706565b91335f52600b810160205260405f20855f5260205260405f20611b88898254613706565b905560028401611b99898254613706565b905560038401611baa8a8254613646565b905560078101611bbb8a8254613646565b905501611bc9868254613646565b9055875f526008602052600a60405f2001835f5260205260405f20600281015490670de0b6b3a7640000880291888304670de0b6b3a7640000148915171561071d576103e8810180911161071d57611c25600493918492613653565b9101549080821115611e7657611c3a91613706565b925b01918255670de0b6b3a7640000611c538786613867565b04905f82820392128183128116908284139015161761071d57335f52600a602052600360405f200180545f848201948512911290801582169115161761071d575f98602094611d8d94611cf09355338b52600a8652600460408c2001611cb98154613638565b90558b8b52600d865260408b20878c52865260408b2090549160405192611cdf846132e4565b835242878401526040830152613671565b611d4f604051611cff816132ff565b8a815285858201528960408201523360608201528660808201528860a08201524260c08201528960e0820152338a52600b8552611d3f8160408c2061387a565b8a8a52600c855260408a2061387a565b60035460405163a9059cbb60e01b815233600482015260248101929092529097889260089290921c6001600160a01b03169183919082906044820190565b03925af193841561081a577f976184626638b6c7e51a4ab66b297beb1714b545ce4e867a70d622566573098c60805f948993611df36020997faf7c505ee772ec188af7067e1f73db08ab028e3d564273442b907742b9c41fa09b8991611e595750613946565b604051818152828a82015286867f33c49da1ff633ff516cc2661d0cd94af11b7b76985b6fe549151782c14db745a60403394a460065490611e3382613638565b600655604051923384528a84015260408301526060820152a4604051908152a260018055005b611e7091508b3d8d1161081357610805818361331b565b8d6104c9565b5060011c92611c3c565b60405162461bcd60e51b815260206004820152600d60248201526c507269636520746f6f206c6f7760981b6044820152606490fd5b60405162461bcd60e51b8152602060048201526013602482015272496e73756666696369656e742073686172657360681b6044820152606490fd5b346102ac576020806003193601126102ac57600435905f60a0604051611f15816132c9565b82815282848201528260408201528260608201528260808201520152611f3e60045483106136c2565b815f526008815260405f20905f80600984015491600a85015b83821061204857505090611f6a91613653565b92600d6007840154930154815f52600c835260405f208054908115155f1461203f575f19820191821161071d57600491611fa391613217565b500154915b5f52600c835260405f209485548015155f14612033575f19810190811161071d57611fd760069160c098613217565b500154935b60405192611fe9846132c9565b8684528184019081526040840192835260a060608501945f8652608081019687520195865260405196875251908601525160408501525160608401525160808301525160a0820152f35b5060c095505f93611fdc565b50505f91611fa8565b9091612064600191845f52838752600460405f20015490613646565b920190611f57565b346102ac5760403660031901126102ac576004356024356001600160401b0381116102ac5761209f90369060040161333c565b6120ac60045483106136c2565b815f5260089060209180835260ff600560405f20015416156121f557835f5280835260ff600560405f200154821c166121b057835f52808352600b60405f2001335f52835260405f20845f52818452600460405f2001545f52835260405f205461216b57916121666040927ff20590b2cb9af0bb070ad77de2c0b74db291dd43666e7a386ffb0e65974b050a94865f5283526005845f200161010061ff001982541617905583519384933385528401526040830190613427565b0390a2005b60405162461bcd60e51b815260048101849052601960248201527f43616e6e6f74206469737075746520696620796f7520776f6e000000000000006044820152606490fd5b60405162461bcd60e51b815260048101849052601760248201527f4d61726b657420616c72656164792064697370757465640000000000000000006044820152606490fd5b60405162461bcd60e51b815260048101849052601760248201527f4d61726b6574206e6f74207265736f6c766564207965740000000000000000006044820152606490fd5b346102ac575f3660031901126102ac5760035460405160089190911c6001600160a01b03168152602090f35b346102ac575f3660031901126102ac5761227e613c37565b60035460ff8116156122bd5760ff19166003557f5db9ee0a495bf2e6ff9c91a7834c1ba4fdd244a5e8aa4e537bd38aeae4b073aa6020604051338152a1005b604051638dfc202b60e01b8152600490fd5b346102ac5760203660031901126102ac576004356122f060045482106136c2565b5f52600860205261234c60405f20600281015460ff60038301541660098301549060058401549161236a60048601549261235a61233860016123318a61356c565b990161356c565b604051998a99610120808c528b0190613427565b9089820360208b0152613427565b9560408801526060870190613465565b608085015260ff828116151560a0860152600883901c16151560c085015260e084015260181c6001600160a01b03166101008301520390f35b346102ac5760403660031901126102ac576123bc613201565b336001600160a01b038216036123d8576108d490600435613c62565b60405163334bd91960e11b8152600490fd5b346102ac5760203660031901126102ac576108d46124066131eb565b61240e613c37565b7fdcee1d35c83a32b436264a5c9afd68685c124f3f9097e87804c55410e67fc59a5f5260026020527f8e2c297e756b2a427c5dc4607f639842a8ea6e0f6322302f4ea76306b642cfc354612461906139d4565b613a14565b346102ac575f3660031901126102ac5760206040515f80516020613d7e8339815191528152f35b346102ac5760403660031901126102ac576108d46004356124ac613201565b90805f5260026020526124c5600160405f2001546139d4565b613bd2565b346102ac576124d836613298565b905f52600e60205260405f2080548210156102ac57602091610d07916131d6565b346102ac5760203660031901126102ac576004355f5260026020526020600160405f200154604051908152f35b346102ac575f3660031901126102ac576020600554604051908152f35b346102ac5761255136613298565b9061255f60045482106136c2565b5f526008602052600a60405f2001905f526020526125be60405f2060028101546003820154600483015460ff600585015416916125cc6125aa60016125a38861356c565b970161356c565b60405197889760c0895260c0890190613427565b908782036020890152613427565b93604086015260608501526080840152151560a08301520390f35b346102ac5760c03660031901126102ac576004356001600160401b0381116102ac5761261790369060040161333c565b6024356001600160401b0381116102ac5761263690369060040161333c565b9060449182356001600160401b0381116102ac576126589036906004016133a8565b9060649384356001600160401b0381116102ac5761267a9036906004016133a8565b94600a60a43510156102ac5761268e6139b6565b5f546001600160a01b031633148015612f10575b15612ece57610e10608435101580612ebe575b15612e8957845115612e4757835160028110159081612e3b575b5015612df9578351865103612da5575050600454906126ed82613638565b600455815f52600860205260405f209084516001600160401b0381116107c7576127178354613534565b601f8111612d64575b50806020601f8211600114612d01575f91612cf6575b508160011b915f199060031b1c19161782555b8051906001600160401b0382116107c75781906127696001850154613534565b601f8111612ca6575b50602090601f8311600114612c38575f92612c2d575b50508160011b915f199060031b1c19161760018201555b6127ab60843542613646565b600282015560038101805460ff191660ff60a435161790556005810180546301000000600160b81b033360181b166301000000600160b81b0319909116179055426008820155825160098201819055928315612c19575f5b8151811015612b1957612816818361365d565b51612821828961365d565b516040519161282f836132c9565b825260208201525f60408201525f606082015285670de0b6b3a7640000046080820152600160a0820152815f52600a840160205260405f2081518051906001600160401b0382116107c75781906128868454613534565b601f8111612acc575b50602090601f8311600114612a64575f92612a59575b50508160011b915f199060031b1c19161781555b60208201518051906001600160401b0382116107c7576128dc6001840154613534565b601f8111612a15575b50602090601f83116001146129a257928260a09360059360019897965f92612997575b50505f19600383901b1c191690871b17818701555b60408401516002820155606084015160038201556080840151600482015501910151151560ff80198354169116179055845f52600d60205260405f20815f5260205261299160405f2060405190612973826132e4565b88670de0b6b3a76400000482524260208301525f6040830152613671565b01612803565b015190508e80612908565b90600184015f5260205f20915f5b601f19851681106129fd575083600593600198979693899360a097601f198116106129e5575b505050811b018682015561291d565b01515f1960f88460031b161c191690558e80806129d6565b919260206001819286850151815501940192016129b0565b600184015f5260205f20601f840160051c810160208510612a52575b601f830160051c82018110612a475750506128e5565b5f8155600101612a31565b5080612a31565b015190508b806128a5565b9250835f5260205f20905f935b601f1984168510612ab1576001945083601f19811610612a99575b505050811b0181556128b9565b01515f1960f88460031b161c191690558b8080612a8c565b81810151835560209485019460019093019290910190612a71565b909150835f5260205f20601f840160051c810160208510612b12575b90849392915b601f830160051c82018110612b0457505061288f565b5f8155859450600101612aee565b5080612ae8565b50919250612b2860a43561351d565b90815491600160401b8310156107c75782612b4a9160016002950181556131d6565b81549060031b9086821b915f19901b19161790550154612b756040519460a0865260a0860190613427565b8481036020860152825180825260208201916020808360051b8301019501925f915b838310612bec57602088807f93f20d1ee811e3a7847933eca44474c052f00d323ddac70f72ad001fb49fe9158c808c8c6040830152612bdb6060830160a435613465565b3360808301520390a2604051908152f35b9091929395602080612c0a600193601f198682030187528a51613427565b98019301930191939290612b97565b634e487b7160e01b5f52601260045260245ffd5b015190508780612788565b9250600184015f5260205f20905f935b601f1984168510612c8b576001945083601f19811610612c73575b505050811b01600182015561279f565b01515f1960f88460031b161c19169055878080612c63565b81810151835560209485019460019093019290910190612c48565b909150600184015f5260205f20601f840160051c810160208510612cef575b90849392915b601f830160051c82018110612ce1575050612772565b5f8155859450600101612ccb565b5080612cc5565b905086015188612736565b9150835f5260205f205f925b601f1983168410612d4c576001935082601f19811610612d34575b5050811b018255612749565b8801515f1960f88460031b161c191690558880612d28565b88810151825560209384019360019092019101612d0d565b835f5260205f20601f830160051c810160208410612d9e575b601f830160051c82018110612d93575050612720565b5f8155600101612d7d565b5080612d7d565b90670dad2e6dac2e8c6d60c31b6084927f4f7074696f6e7320616e64206465736372697074696f6e73206c656e677468206040519362461bcd60e51b85526020600486015260286024860152840152820152fd5b907f496e76616c6964206e756d626572206f66206f7074696f6e73000000000000006040519162461bcd60e51b83526020600484015260196024840152820152fd5b600a91501115876126cf565b907f5175657374696f6e2063616e6e6f7420626520656d70747900000000000000006040519162461bcd60e51b83526020600484015260186024840152820152fd5b906f24b73b30b634b210323ab930ba34b7b760811b6040519162461bcd60e51b83526020600484015260106024840152820152fd5b506301e1338060843511156126b5565b907f4e6f7420617574686f72697a656420746f20637265617465206d61726b6574736040519162461bcd60e51b83526020600484015260206024840152820152fd5b50335f9081527f30d995518b427f5a5863ad73fe356ca50cf70941f42c516830919c845fa5806f602052604090205460ff166126a2565b346102ac5760203660031901126102ac57612f606131eb565b612f6861360e565b5060018060a01b03165f52600a60205260a060405f20604051612f8a816132ae565b81549182825260018101546020830190815260028201549060408401918252608060046003850154946060870195865201549401938452604051948552516020850152516040840152516060830152516080820152f35b346102ac57612fef36613298565b905f52600c60205260405f209081548110156102ac5761300e91613217565b50805461092d60018301549260018060a01b03908160028201541691600382015416600482015460058301549160ff6007600686015495015416946040519889988961324e565b346102ac575f3660031901126102ac576020604051600a8152f35b346102ac5760403660031901126102ac576130896131eb565b6001600160a01b039081165f908152600b602052604090208054602435908110156102ac576130b791613217565b509061092d8254916001840154938160028201541691600382015416600482015460058301549160ff6007600686015495015416946040519889988961324e565b346102ac5760203660031901126102ac576004356012548110156102ac5761312160209161318d565b905460405160039290921b1c6001600160a01b03168152f35b346102ac5760203660031901126102ac576004359063ffffffff60e01b82168092036102ac57602091637965db0b60e01b811490811561317c575b5015158152f35b6301ffc9a760e01b14905083613175565b6012548110156131c25760125f527fbb8a6a4669ba250d26cd7a459eca9d215f8307e33aebe50379bc5a3617ec344401905f90565b634e487b7160e01b5f52603260045260245ffd5b80548210156131c2575f5260205f2001905f90565b600435906001600160a01b03821682036102ac57565b602435906001600160a01b03821682036102ac57565b80548210156131c2575f5260205f209060031b01905f90565b6002111561323a57565b634e487b7160e01b5f52602160045260245ffd5b94919360e09693919998979461010087019a8752602087015260018060a01b038092166040870152166060850152608084015260a083015260c082015261329483613230565b0152565b60409060031901126102ac576004359060243590565b60a081019081106001600160401b038211176107c757604052565b60c081019081106001600160401b038211176107c757604052565b606081019081106001600160401b038211176107c757604052565b61010081019081106001600160401b038211176107c757604052565b90601f801991011681019081106001600160401b038211176107c757604052565b81601f820112156102ac578035906001600160401b0382116107c75760405192613370601f8401601f19166020018561331b565b828452602083830101116102ac57815f926020809301838601378301015290565b6001600160401b0381116107c75760051b60200190565b81601f820112156102ac578035916020916133c284613391565b936133d0604051958661331b565b808552838086019160051b830101928084116102ac57848301915b8483106133fb5750505050505090565b82356001600160401b0381116102ac57869161341c8484809489010161333c565b8152019201916133eb565b91908251928382525f5b848110613451575050825f602080949584010152601f8019910116010190565b602081830181015184830182015201613431565b90600a82101561323a5752565b60809060031901126102ac5760043590602435906044359060643590565b60609060031901126102ac57600435906024359060443590565b60209060206040818301928281528551809452019301915f5b8281106134d1575050505090565b8351855293810193928101926001016134c3565b80548210156131c2575f52600360205f20910201905f90565b60409060031901126102ac57600435600a8110156102ac579060243590565b600a81101561323a575f52601060205260405f2090565b90600182811c92168015613562575b602083101461354e57565b634e487b7160e01b5f52602260045260245ffd5b91607f1691613543565b9060405191825f825461357e81613534565b908184526020946001916001811690815f146135ec57506001146135ae575b5050506135ac9250038361331b565b565b5f90815285812095935091905b8183106135d45750506135ac93508201015f808061359d565b855488840185015294850194879450918301916135bb565b925050506135ac94925060ff191682840152151560051b8201015f808061359d565b6040519061361b826132ae565b5f6080838281528260208201528260408201528260608201520152565b5f19811461071d5760010190565b9190820180921161071d57565b8115612c19570490565b80518210156131c25760209160051b010190565b8054600160401b8110156107c75761368e916001820181556134e5565b9190916136af57604081600292518455602081015160018501550151910155565b634e487b7160e01b5f525f60045260245ffd5b156136c957565b60405162461bcd60e51b815260206004820152601560248201527413585c9ad95d08191bd95cc81b9bdd08195e1a5cdd605a1b6044820152606490fd5b9190820391821161071d57565b1561371a57565b60405162461bcd60e51b815260206004820152601060248201526f13585c9ad95d081a185cc8195b99195960821b6044820152606490fd5b1561375957565b60405162461bcd60e51b815260206004820152601760248201527f4d61726b657420616c7265616479207265736f6c7665640000000000000000006044820152606490fd5b156137a557565b60405162461bcd60e51b815260206004820152600e60248201526d24b73b30b634b21037b83a34b7b760911b6044820152606490fd5b156137e257565b60405162461bcd60e51b81526020600482015260116024820152704f7074696f6e206e6f742061637469766560781b6044820152606490fd5b1561382257565b60405162461bcd60e51b815260206004820152601960248201527f5175616e74697479206d75737420626520706f736974697665000000000000006044820152606490fd5b8181029291811591840414171561071d57565b8054600160401b8110156107c75761389791600182018155613217565b6136af57600760e09183518155602084015160018201556002810160018060a01b039081604087015116906bffffffffffffffffffffffff60a01b91828254161790556003830191606087015116908254161790556080840151600482015560a0840151600582015560c084015160068201550191015161391781613230565b61392081613230565b60ff80198354169116179055565b908160209103126102ac575180151581036102ac5790565b1561394d57565b60405162461bcd60e51b815260206004820152600f60248201526e151c985b9cd9995c8819985a5b1959608a1b6044820152606490fd5b9061398e82613391565b61399b604051918261331b565b82815280926139ac601f1991613391565b0190602036910137565b60ff600354166139c257565b60405163d93c066560e01b8152600490fd5b805f52600260205260405f20335f5260205260ff60405f205416156139f65750565b6044906040519063e2517d3f60e01b82523360048301526024820152fd5b6001600160a01b03165f8181527f8e2c297e756b2a427c5dc4607f639842a8ea6e0f6322302f4ea76306b642cfc260205260409020547fdcee1d35c83a32b436264a5c9afd68685c124f3f9097e87804c55410e67fc59a919060ff16613aad57815f52600260205260405f20815f5260205260405f20600160ff1982541617905533915f80516020613d5e8339815191525f80a4600190565b50505f90565b6001600160a01b03165f8181527f30d995518b427f5a5863ad73fe356ca50cf70941f42c516830919c845fa5806f60205260409020547fef485be696bbc0c91ad541bbd553ffb5bd0e18dac30ba76e992dda23cb807a8a919060ff16613aad57815f52600260205260405f20815f5260205260405f20600160ff1982541617905533915f80516020613d5e8339815191525f80a4600190565b6001600160a01b03165f8181527fd3dccf8d8289b9deee17e361620d7577de7b525dd57f668d5c1bb85ec53112b560205260409020545f80516020613d7e833981519152919060ff16613aad57815f52600260205260405f20815f5260205260405f20600160ff1982541617905533915f80516020613d5e8339815191525f80a4600190565b90815f52600260205260405f209060018060a01b031690815f5260205260ff60405f205416155f14613aad57815f52600260205260405f20815f5260205260405f20600160ff1982541617905533915f80516020613d5e8339815191525f80a4600190565b5f546001600160a01b03163303613c4a57565b60405163118cdaa760e01b8152336004820152602490fd5b90815f52600260205260405f209060018060a01b031690815f5260205260ff60405f2054165f14613aad57815f52600260205260405f20815f5260205260405f2060ff19815416905533917ff6391f5c32d9c69d2a47ea670b442974b53935d1edc7fd64eb21e047a839171b5f80a4600190565b600260015414613ce7576002600155565b604051633ee5aeb560e01b8152600490fd5b905f526020600860205260409060405f20925f90600b60098601549501915b858110613d2a57505050505050600190565b6001600160a01b0382165f908152838552858120828252855285902054613d5357600101613d18565b5050505050505f9056fe2f8788117e7eff1d82e926ec794901d17c78024a50270940304540a733656f0dd486618b282cb35034d59c30c062b5b3822d6cdf87ec459191ce7f5b7b8a4873a2646970667358221220699e9e024bdcf3a9aafa4e222f0ab9fbef5347fabe48cb6369407299848657fb64736f6c63430008180033ac33ff75c19e70fe83507db0d683fd3465c996598dc972688b7ace676c89077b",
					"opcodes": "PUSH1 0x80 CALLVALUE PUSH3 0xF8 JUMPI PUSH1 0x1F PUSH3 0x3F86 CODESIZE DUP2 SWAP1 SUB SWAP2 DUP3 ADD PUSH1 0x1F NOT AND DUP4 ADD SWAP2 PUSH1 0x1 PUSH1 0x1 PUSH1 0x40 SHL SUB DUP4 GT DUP5 DUP5 LT OR PUSH3 0xFC JUMPI DUP1 DUP5 SWAP3 PUSH1 0x20 SWAP5 PUSH1 0x40 MSTORE DUP4 CODECOPY DUP2 ADD SUB SLT PUSH3 0xF8 JUMPI MLOAD PUSH1 0x1 PUSH1 0x1 PUSH1 0xA0 SHL SUB DUP1 DUP3 AND DUP3 SUB PUSH3 0xF8 JUMPI CALLER ISZERO PUSH3 0xE0 JUMPI PUSH0 DUP1 SLOAD CALLER PUSH1 0x1 PUSH1 0x1 PUSH1 0xA0 SHL SUB NOT DUP3 AND DUP2 OR DUP4 SSTORE SWAP3 AND SWAP1 PUSH32 0x8BE0079C531659141344CD1FD0A4F28419497F9722A3DAAFE3B4186F6B6457E0 SWAP1 DUP1 LOG3 PUSH1 0x1 DUP1 SSTORE PUSH1 0xC8 PUSH1 0x7 SSTORE PUSH1 0x3 DUP1 SLOAD PUSH2 0x100 PUSH1 0x1 PUSH1 0xA8 SHL SUB NOT AND PUSH1 0x8 SWAP3 SWAP1 SWAP3 SHL PUSH2 0x100 PUSH1 0x1 PUSH1 0xA8 SHL SUB AND SWAP2 SWAP1 SWAP2 OR SWAP1 SSTORE PUSH3 0xCF CALLER PUSH3 0x110 JUMP JUMPDEST POP PUSH1 0x40 MLOAD PUSH2 0x3DD3 SWAP1 DUP2 PUSH3 0x193 DUP3 CODECOPY RETURN JUMPDEST PUSH1 0x40 MLOAD PUSH4 0x1E4FBDF7 PUSH1 0xE0 SHL DUP2 MSTORE PUSH0 PUSH1 0x4 DUP3 ADD MSTORE PUSH1 0x24 SWAP1 REVERT JUMPDEST PUSH0 DUP1 REVERT JUMPDEST PUSH4 0x4E487B71 PUSH1 0xE0 SHL PUSH0 MSTORE PUSH1 0x41 PUSH1 0x4 MSTORE PUSH1 0x24 PUSH0 REVERT JUMPDEST PUSH1 0x1 PUSH1 0x1 PUSH1 0xA0 SHL SUB AND PUSH0 DUP2 DUP2 MSTORE PUSH0 DUP1 MLOAD PUSH1 0x20 PUSH3 0x3F66 DUP4 CODECOPY DUP2 MLOAD SWAP2 MSTORE PUSH1 0x20 MSTORE PUSH1 0x40 SWAP1 KECCAK256 SLOAD PUSH1 0xFF AND PUSH3 0x18D JUMPI PUSH0 DUP2 DUP2 MSTORE PUSH0 DUP1 MLOAD PUSH1 0x20 PUSH3 0x3F66 DUP4 CODECOPY DUP2 MLOAD SWAP2 MSTORE PUSH1 0x20 MSTORE PUSH1 0x40 DUP2 KECCAK256 DUP1 SLOAD PUSH1 0xFF NOT AND PUSH1 0x1 OR SWAP1 SSTORE CALLER SWAP2 SWAP1 PUSH32 0x2F8788117E7EFF1D82E926EC794901D17C78024A50270940304540A733656F0D DUP2 DUP1 LOG4 PUSH1 0x1 SWAP1 JUMP JUMPDEST POP PUSH0 SWAP1 JUMP INVALID PUSH1 0x80 DUP1 PUSH1 0x40 MSTORE PUSH1 0x4 CALLDATASIZE LT ISZERO PUSH2 0x12 JUMPI PUSH0 DUP1 REVERT JUMPDEST PUSH0 CALLDATALOAD PUSH1 0xE0 SHR SWAP1 DUP2 PUSH4 0x1FFC9A7 EQ PUSH2 0x313A JUMPI POP DUP1 PUSH4 0x5E33DD0 EQ PUSH2 0x30F8 JUMPI DUP1 PUSH4 0x8693F3C EQ PUSH2 0x3070 JUMPI DUP1 PUSH4 0xDA183D6 EQ PUSH2 0x3055 JUMPI DUP1 PUSH4 0x1CB1DE2F EQ PUSH2 0x2FE1 JUMPI DUP1 PUSH4 0x1EDB27E9 EQ PUSH2 0x2F47 JUMPI DUP1 PUSH4 0x204F6125 EQ PUSH2 0x25E7 JUMPI DUP1 PUSH4 0x222FA267 EQ PUSH2 0x2543 JUMPI DUP1 PUSH4 0x2453FFA8 EQ PUSH2 0x2526 JUMPI DUP1 PUSH4 0x248A9CA3 EQ PUSH2 0x24F9 JUMPI DUP1 PUSH4 0x257FF7B6 EQ PUSH2 0x24CA JUMPI DUP1 PUSH4 0x29CF655B EQ PUSH2 0x223A JUMPI DUP1 PUSH4 0x2F2FF15D EQ PUSH2 0x248D JUMPI DUP1 PUSH4 0x32617B70 EQ PUSH2 0x2466 JUMPI DUP1 PUSH4 0x35037E0B EQ PUSH2 0x23EA JUMPI DUP1 PUSH4 0x36568ABE EQ PUSH2 0x23A3 JUMPI DUP1 PUSH4 0x3EC79193 EQ PUSH2 0x22CF JUMPI DUP1 PUSH4 0x3F4BA83A EQ PUSH2 0x2266 JUMPI DUP1 PUSH4 0x43425E88 EQ PUSH2 0x223A JUMPI DUP1 PUSH4 0x4A2021EF EQ PUSH2 0x206C JUMPI DUP1 PUSH4 0x58057FE5 EQ PUSH2 0x1EF0 JUMPI DUP1 PUSH4 0x5A2DB6FB EQ PUSH2 0x1A2B JUMPI DUP1 PUSH4 0x5C975ABB EQ PUSH2 0x1A09 JUMPI DUP1 PUSH4 0x60557333 EQ PUSH2 0x1852 JUMPI DUP1 PUSH4 0x677BD9FF EQ PUSH2 0x15B3 JUMPI DUP1 PUSH4 0x6DB3B4DC EQ PUSH2 0x1537 JUMPI DUP1 PUSH4 0x715018A6 EQ PUSH2 0x14E0 JUMPI DUP1 PUSH4 0x73AF16FC EQ PUSH2 0x1292 JUMPI DUP1 PUSH4 0x755F0629 EQ PUSH2 0x1258 JUMPI DUP1 PUSH4 0x77B4A3E7 EQ PUSH2 0x121E JUMPI DUP1 PUSH4 0x7C946454 EQ PUSH2 0x10C1 JUMPI DUP1 PUSH4 0x7E50898E EQ PUSH2 0x10A3 JUMPI DUP1 PUSH4 0x835DC40B EQ PUSH2 0x100E JUMPI DUP1 PUSH4 0x8456CB59 EQ PUSH2 0xFB5 JUMPI DUP1 PUSH4 0x856652E9 EQ PUSH2 0xF6C JUMPI DUP1 PUSH4 0x8B8840E0 EQ PUSH2 0xF34 JUMPI DUP1 PUSH4 0x8DA5CB5B EQ PUSH2 0xF0D JUMPI DUP1 PUSH4 0x91D14854 EQ PUSH2 0xEC4 JUMPI DUP1 PUSH4 0x927FEF2E EQ PUSH2 0xE61 JUMPI DUP1 PUSH4 0x92F012B2 EQ PUSH2 0xE45 JUMPI DUP1 PUSH4 0xA217FDDF EQ PUSH2 0xE2B JUMPI DUP1 PUSH4 0xA75DD115 EQ PUSH2 0xDD1 JUMPI DUP1 PUSH4 0xA85C38EF EQ PUSH2 0xD15 JUMPI DUP1 PUSH4 0xA8CC7F19 EQ PUSH2 0xCE1 JUMPI DUP1 PUSH4 0xAB44E635 EQ PUSH2 0xBA0 JUMPI DUP1 PUSH4 0xABDCE1A4 EQ PUSH2 0xB37 JUMPI DUP1 PUSH4 0xB1283E77 EQ PUSH2 0xA24 JUMPI DUP1 PUSH4 0xB1AB13FF EQ PUSH2 0x9EF JUMPI DUP1 PUSH4 0xB61920C1 EQ PUSH2 0x98B JUMPI DUP1 PUSH4 0xBD55022A EQ PUSH2 0x96E JUMPI DUP1 PUSH4 0xC2454AF7 EQ PUSH2 0x8D6 JUMPI DUP1 PUSH4 0xD547741F EQ PUSH2 0x897 JUMPI DUP1 PUSH4 0xEC979082 EQ PUSH2 0x28F JUMPI DUP1 PUSH4 0xED881230 EQ PUSH2 0x357 JUMPI DUP1 PUSH4 0xEECA08F0 EQ PUSH2 0x33A JUMPI DUP1 PUSH4 0xF2FDE38B EQ PUSH2 0x2B0 JUMPI PUSH4 0xFD69F3C2 EQ PUSH2 0x28F JUMPI PUSH0 DUP1 REVERT JUMPDEST CALLVALUE PUSH2 0x2AC JUMPI PUSH0 CALLDATASIZE PUSH1 0x3 NOT ADD SLT PUSH2 0x2AC JUMPI PUSH1 0x20 PUSH1 0x4 SLOAD PUSH1 0x40 MLOAD SWAP1 DUP2 MSTORE RETURN JUMPDEST PUSH0 DUP1 REVERT JUMPDEST CALLVALUE PUSH2 0x2AC JUMPI PUSH1 0x20 CALLDATASIZE PUSH1 0x3 NOT ADD SLT PUSH2 0x2AC JUMPI PUSH2 0x2C9 PUSH2 0x31EB JUMP JUMPDEST PUSH2 0x2D1 PUSH2 0x3C37 JUMP JUMPDEST PUSH1 0x1 PUSH1 0x1 PUSH1 0xA0 SHL SUB SWAP1 DUP2 AND SWAP1 DUP2 ISZERO PUSH2 0x322 JUMPI PUSH0 SLOAD DUP3 PUSH12 0xFFFFFFFFFFFFFFFFFFFFFFFF PUSH1 0xA0 SHL DUP3 AND OR PUSH0 SSTORE AND PUSH32 0x8BE0079C531659141344CD1FD0A4F28419497F9722A3DAAFE3B4186F6B6457E0 PUSH0 DUP1 LOG3 STOP JUMPDEST PUSH1 0x40 MLOAD PUSH4 0x1E4FBDF7 PUSH1 0xE0 SHL DUP2 MSTORE PUSH0 PUSH1 0x4 DUP3 ADD MSTORE PUSH1 0x24 SWAP1 REVERT JUMPDEST CALLVALUE PUSH2 0x2AC JUMPI PUSH0 CALLDATASIZE PUSH1 0x3 NOT ADD SLT PUSH2 0x2AC JUMPI PUSH1 0x20 PUSH1 0x7 SLOAD PUSH1 0x40 MLOAD SWAP1 DUP2 MSTORE RETURN JUMPDEST CALLVALUE PUSH2 0x2AC JUMPI PUSH2 0x365 CALLDATASIZE PUSH2 0x3472 JUMP JUMPDEST PUSH2 0x36D PUSH2 0x3CD6 JUMP JUMPDEST PUSH2 0x375 PUSH2 0x39B6 JUMP JUMPDEST PUSH2 0x382 PUSH1 0x4 SLOAD DUP6 LT PUSH2 0x36C2 JUMP JUMPDEST DUP4 PUSH0 MSTORE PUSH1 0x8 PUSH1 0x20 MSTORE PUSH2 0x39C PUSH1 0x2 PUSH1 0x40 PUSH0 KECCAK256 ADD SLOAD TIMESTAMP LT PUSH2 0x3713 JUMP JUMPDEST DUP4 PUSH0 MSTORE PUSH1 0x8 PUSH1 0x20 MSTORE PUSH2 0x3B8 PUSH1 0xFF PUSH1 0x5 PUSH1 0x40 PUSH0 KECCAK256 ADD SLOAD AND ISZERO PUSH2 0x3752 JUMP JUMPDEST DUP4 PUSH0 MSTORE PUSH1 0x8 PUSH1 0x20 MSTORE PUSH2 0x3D2 PUSH1 0x9 PUSH1 0x40 PUSH0 KECCAK256 ADD SLOAD DUP5 LT PUSH2 0x379E JUMP JUMPDEST DUP4 PUSH0 MSTORE PUSH1 0x8 PUSH1 0x20 MSTORE PUSH1 0xA PUSH1 0x40 PUSH0 KECCAK256 ADD DUP4 PUSH0 MSTORE PUSH1 0x20 MSTORE PUSH2 0x3FA PUSH1 0xFF PUSH1 0x5 PUSH1 0x40 PUSH0 KECCAK256 ADD SLOAD AND PUSH2 0x37DB JUMP JUMPDEST PUSH2 0x405 DUP3 ISZERO ISZERO PUSH2 0x381B JUMP JUMPDEST DUP4 PUSH0 MSTORE PUSH1 0x8 PUSH1 0x20 MSTORE PUSH1 0xFF PUSH1 0x5 PUSH1 0x40 PUSH0 KECCAK256 ADD SLOAD PUSH1 0x10 SHR AND ISZERO PUSH2 0x85B JUMPI PUSH0 DUP5 DUP2 MSTORE PUSH1 0x8 PUSH1 0x20 SWAP1 DUP2 MSTORE PUSH1 0x40 DUP1 DUP4 KECCAK256 DUP7 DUP5 MSTORE PUSH1 0xA DUP2 ADD SWAP1 SWAP3 MSTORE SWAP1 SWAP2 KECCAK256 PUSH1 0x4 DUP2 ADD SLOAD SWAP1 SWAP5 SWAP2 SWAP3 SWAP1 SWAP2 SWAP1 DUP3 GT PUSH2 0x825 JUMPI PUSH8 0xDE0B6B3A7640000 PUSH2 0x462 DUP6 DUP5 PUSH2 0x3867 JUMP JUMPDEST DIV SWAP4 PUSH2 0x2710 PUSH2 0x473 PUSH1 0x7 SLOAD DUP8 PUSH2 0x3867 JUMP JUMPDEST DIV SWAP4 PUSH2 0x47F DUP6 DUP8 PUSH2 0x3646 JUMP JUMPDEST SWAP1 PUSH0 PUSH1 0x20 PUSH1 0x1 DUP1 PUSH1 0xA0 SHL SUB PUSH1 0x3 SLOAD PUSH1 0x8 SHR AND PUSH1 0x64 PUSH1 0x40 MLOAD DUP1 SWAP5 DUP2 SWAP4 PUSH4 0x23B872DD PUSH1 0xE0 SHL DUP4 MSTORE CALLER PUSH1 0x4 DUP5 ADD MSTORE ADDRESS PUSH1 0x24 DUP5 ADD MSTORE DUP9 PUSH1 0x44 DUP5 ADD MSTORE GAS CALL DUP1 ISZERO PUSH2 0x81A JUMPI PUSH2 0x4CF SWAP2 PUSH0 SWAP2 PUSH2 0x7EB JUMPI JUMPDEST POP PUSH2 0x3946 JUMP JUMPDEST CALLER PUSH0 MSTORE PUSH1 0xB DUP2 ADD PUSH1 0x20 MSTORE PUSH1 0x40 PUSH0 KECCAK256 DUP5 PUSH0 MSTORE PUSH1 0x20 MSTORE PUSH1 0x40 PUSH0 KECCAK256 SLOAD ISZERO DUP1 PUSH2 0x7DB JUMPI JUMPDEST PUSH2 0x731 JUMPI JUMPDEST PUSH1 0xF SWAP1 CALLER PUSH0 MSTORE PUSH1 0xB DUP2 ADD PUSH1 0x20 MSTORE PUSH1 0x40 PUSH0 KECCAK256 DUP6 PUSH0 MSTORE PUSH1 0x20 MSTORE PUSH1 0x40 PUSH0 KECCAK256 PUSH2 0x51A DUP6 DUP3 SLOAD PUSH2 0x3646 JUMP JUMPDEST SWAP1 SSTORE PUSH1 0x2 DUP10 ADD PUSH2 0x52B DUP6 DUP3 SLOAD PUSH2 0x3646 JUMP JUMPDEST SWAP1 SSTORE PUSH1 0x3 DUP10 ADD PUSH2 0x53C DUP10 DUP3 SLOAD PUSH2 0x3646 JUMP JUMPDEST SWAP1 SSTORE PUSH1 0x6 DUP2 ADD PUSH2 0x54D DUP10 DUP3 SLOAD PUSH2 0x3646 JUMP JUMPDEST SWAP1 SSTORE PUSH1 0x7 DUP2 ADD PUSH2 0x55E DUP10 DUP3 SLOAD PUSH2 0x3646 JUMP JUMPDEST SWAP1 SSTORE ADD PUSH2 0x56C DUP7 DUP3 SLOAD PUSH2 0x3646 JUMP JUMPDEST SWAP1 SSTORE CALLER PUSH0 MSTORE PUSH1 0xA PUSH1 0x20 MSTORE PUSH2 0x585 PUSH1 0x40 PUSH0 KECCAK256 SWAP2 DUP3 SLOAD PUSH2 0x3646 JUMP JUMPDEST SWAP1 SSTORE CALLER PUSH0 MSTORE PUSH1 0xA PUSH1 0x20 MSTORE PUSH1 0x4 PUSH1 0x40 PUSH0 KECCAK256 ADD PUSH2 0x5A0 DUP2 SLOAD PUSH2 0x3638 JUMP JUMPDEST SWAP1 SSTORE DUP7 PUSH0 MSTORE PUSH1 0x8 PUSH1 0x20 MSTORE PUSH1 0xA PUSH1 0x40 PUSH0 KECCAK256 ADD DUP3 PUSH0 MSTORE PUSH1 0x20 MSTORE PUSH1 0x40 PUSH0 KECCAK256 PUSH1 0x2 DUP2 ADD SLOAD PUSH8 0xDE0B6B3A7640000 DUP4 MUL SWAP7 DUP4 DUP9 DIV PUSH8 0xDE0B6B3A7640000 EQ DUP5 ISZERO OR ISZERO PUSH2 0x71D JUMPI PUSH2 0x3E8 DUP3 ADD DUP1 SWAP3 GT PUSH2 0x71D JUMPI PUSH32 0xAF7C505EE772EC188AF7067E1F73DB08AB028E3D564273442B907742B9C41FA0 SWAP9 PUSH2 0x62D PUSH2 0x665 SWAP5 PUSH1 0x4 PUSH2 0x625 DUP2 SWAP7 PUSH1 0x20 SWAP14 PUSH2 0x3653 JUMP JUMPDEST SWAP2 ADD SLOAD PUSH2 0x3646 JUMP JUMPDEST SWAP3 DUP4 SWAP2 ADD SSTORE DUP10 PUSH0 MSTORE PUSH1 0xD DUP9 MSTORE PUSH1 0x40 PUSH0 KECCAK256 DUP6 PUSH0 MSTORE DUP9 MSTORE PUSH1 0x40 PUSH0 KECCAK256 SWAP1 PUSH1 0x40 MLOAD SWAP3 PUSH2 0x654 DUP5 PUSH2 0x32E4 JUMP JUMPDEST DUP4 MSTORE TIMESTAMP DUP10 DUP5 ADD MSTORE PUSH1 0x40 DUP4 ADD MSTORE PUSH2 0x3671 JUMP JUMPDEST PUSH2 0x6C4 PUSH1 0x40 MLOAD PUSH2 0x674 DUP2 PUSH2 0x32FF JUMP JUMPDEST DUP9 DUP2 MSTORE DUP4 DUP8 DUP3 ADD MSTORE CALLER PUSH1 0x40 DUP3 ADD MSTORE PUSH0 PUSH1 0x60 DUP3 ADD MSTORE DUP5 PUSH1 0x80 DUP3 ADD MSTORE DUP3 PUSH1 0xA0 DUP3 ADD MSTORE TIMESTAMP PUSH1 0xC0 DUP3 ADD MSTORE PUSH0 PUSH1 0xE0 DUP3 ADD MSTORE CALLER PUSH0 MSTORE PUSH1 0xB DUP8 MSTORE PUSH2 0x6B4 DUP2 PUSH1 0x40 PUSH0 KECCAK256 PUSH2 0x387A JUMP JUMPDEST DUP9 PUSH0 MSTORE PUSH1 0xC DUP8 MSTORE PUSH1 0x40 PUSH0 KECCAK256 PUSH2 0x387A JUMP JUMPDEST PUSH1 0x6 SLOAD SWAP1 PUSH2 0x6D1 DUP3 PUSH2 0x3638 JUMP JUMPDEST PUSH1 0x6 SSTORE PUSH1 0x40 MLOAD SWAP4 PUSH0 DUP6 MSTORE DUP7 DUP6 ADD MSTORE PUSH1 0x40 DUP5 ADD MSTORE PUSH1 0x60 DUP4 ADD MSTORE DUP6 PUSH32 0x976184626638B6C7E51A4AB66B297BEB1714B545CE4E867A70D622566573098C PUSH1 0x80 CALLER SWAP5 LOG4 PUSH1 0x40 MLOAD SWAP1 DUP2 MSTORE LOG2 PUSH1 0x1 DUP1 SSTORE STOP JUMPDEST PUSH4 0x4E487B71 PUSH1 0xE0 SHL PUSH0 MSTORE PUSH1 0x11 PUSH1 0x4 MSTORE PUSH1 0x24 PUSH0 REVERT JUMPDEST PUSH1 0xD DUP2 ADD SLOAD PUSH1 0x1 PUSH1 0x40 SHL DUP2 LT ISZERO PUSH2 0x7C7 JUMPI DUP1 PUSH1 0x1 PUSH2 0x758 SWAP3 ADD PUSH1 0xD DUP5 ADD SSTORE PUSH1 0xD DUP4 ADD PUSH2 0x31D6 JUMP JUMPDEST DUP2 SLOAD SWAP1 PUSH1 0x3 SHL SWAP1 CALLER DUP3 SHL SWAP2 PUSH1 0x1 DUP1 PUSH1 0xA0 SHL SUB SWAP1 SHL NOT AND OR SWAP1 SSTORE CALLER PUSH0 MSTORE PUSH1 0xA PUSH1 0x20 MSTORE PUSH1 0x40 PUSH0 KECCAK256 SLOAD PUSH2 0x4F4 JUMPI PUSH1 0x12 SLOAD SWAP1 PUSH1 0x1 PUSH1 0x40 SHL DUP3 LT ISZERO PUSH2 0x7C7 JUMPI PUSH2 0x7A4 DUP3 PUSH1 0x1 PUSH1 0xF SWAP5 ADD PUSH1 0x12 SSTORE PUSH2 0x318D JUMP JUMPDEST DUP2 SLOAD PUSH1 0x1 PUSH1 0x1 PUSH1 0xA0 SHL SUB PUSH1 0x3 SWAP3 SWAP1 SWAP3 SHL SWAP2 DUP3 SHL NOT AND CALLER SWAP1 SWAP2 SHL OR SWAP1 SSTORE SWAP1 POP PUSH2 0x4F4 JUMP JUMPDEST PUSH4 0x4E487B71 PUSH1 0xE0 SHL PUSH0 MSTORE PUSH1 0x41 PUSH1 0x4 MSTORE PUSH1 0x24 PUSH0 REVERT JUMPDEST POP PUSH2 0x7E6 DUP10 CALLER PUSH2 0x3CF9 JUMP JUMPDEST PUSH2 0x4EF JUMP JUMPDEST PUSH2 0x80D SWAP2 POP PUSH1 0x20 RETURNDATASIZE PUSH1 0x20 GT PUSH2 0x813 JUMPI JUMPDEST PUSH2 0x805 DUP2 DUP4 PUSH2 0x331B JUMP JUMPDEST DUP2 ADD SWAP1 PUSH2 0x392E JUMP JUMPDEST DUP12 PUSH2 0x4C9 JUMP JUMPDEST POP RETURNDATASIZE PUSH2 0x7FB JUMP JUMPDEST PUSH1 0x40 MLOAD RETURNDATASIZE PUSH0 DUP3 RETURNDATACOPY RETURNDATASIZE SWAP1 REVERT JUMPDEST PUSH1 0x40 MLOAD PUSH3 0x461BCD PUSH1 0xE5 SHL DUP2 MSTORE PUSH1 0x20 PUSH1 0x4 DUP3 ADD MSTORE PUSH1 0xE PUSH1 0x24 DUP3 ADD MSTORE PUSH14 0xA0E4D2C6CA40E8DEDE40D0D2CED PUSH1 0x93 SHL PUSH1 0x44 DUP3 ADD MSTORE PUSH1 0x64 SWAP1 REVERT JUMPDEST PUSH1 0x40 MLOAD PUSH3 0x461BCD PUSH1 0xE5 SHL DUP2 MSTORE PUSH1 0x20 PUSH1 0x4 DUP3 ADD MSTORE PUSH1 0x14 PUSH1 0x24 DUP3 ADD MSTORE PUSH20 0x13585C9AD95D081B9BDD081D985B1A59185D1959 PUSH1 0x62 SHL PUSH1 0x44 DUP3 ADD MSTORE PUSH1 0x64 SWAP1 REVERT JUMPDEST CALLVALUE PUSH2 0x2AC JUMPI PUSH1 0x40 CALLDATASIZE PUSH1 0x3 NOT ADD SLT PUSH2 0x2AC JUMPI PUSH2 0x8D4 PUSH1 0x4 CALLDATALOAD PUSH2 0x8B6 PUSH2 0x3201 JUMP JUMPDEST SWAP1 DUP1 PUSH0 MSTORE PUSH1 0x2 PUSH1 0x20 MSTORE PUSH2 0x8CF PUSH1 0x1 PUSH1 0x40 PUSH0 KECCAK256 ADD SLOAD PUSH2 0x39D4 JUMP JUMPDEST PUSH2 0x3C62 JUMP JUMPDEST STOP JUMPDEST CALLVALUE PUSH2 0x2AC JUMPI PUSH2 0x8EE PUSH2 0x8E7 CALLDATASIZE PUSH2 0x34FE JUMP JUMPDEST SWAP2 SWAP1 PUSH2 0x351D JUMP JUMPDEST DUP1 SLOAD SWAP1 DUP2 DUP4 GT ISZERO PUSH2 0x967 JUMPI DUP2 JUMPDEST PUSH2 0x904 DUP4 PUSH2 0x3984 JUMP JUMPDEST SWAP4 DUP1 DUP3 GT ISZERO PUSH2 0x95F JUMPI PUSH2 0x916 SWAP2 PUSH2 0x3706 JUMP JUMPDEST PUSH0 JUMPDEST DUP4 DUP2 LT PUSH2 0x931 JUMPI PUSH1 0x40 MLOAD DUP1 PUSH2 0x92D DUP8 DUP3 PUSH2 0x34AA JUMP JUMPDEST SUB SWAP1 RETURN JUMPDEST DUP1 PUSH2 0x947 PUSH2 0x941 PUSH1 0x1 SWAP4 DUP6 PUSH2 0x3646 JUMP JUMPDEST DUP6 PUSH2 0x31D6 JUMP JUMPDEST SWAP1 SLOAD SWAP1 PUSH1 0x3 SHL SHR PUSH2 0x958 DUP3 DUP9 PUSH2 0x365D JUMP JUMPDEST MSTORE ADD PUSH2 0x918 JUMP JUMPDEST POP POP PUSH0 PUSH2 0x916 JUMP JUMPDEST DUP3 SWAP2 PUSH2 0x8FB JUMP JUMPDEST CALLVALUE PUSH2 0x2AC JUMPI PUSH0 CALLDATASIZE PUSH1 0x3 NOT ADD SLT PUSH2 0x2AC JUMPI PUSH1 0x20 PUSH1 0x6 SLOAD PUSH1 0x40 MLOAD SWAP1 DUP2 MSTORE RETURN JUMPDEST CALLVALUE PUSH2 0x2AC JUMPI PUSH1 0x20 CALLDATASIZE PUSH1 0x3 NOT ADD SLT PUSH2 0x2AC JUMPI PUSH1 0x1 PUSH1 0x1 PUSH1 0xA0 SHL SUB PUSH2 0x9AC PUSH2 0x31EB JUMP JUMPDEST AND PUSH0 MSTORE PUSH1 0xA PUSH1 0x20 MSTORE PUSH1 0xA0 PUSH1 0x40 PUSH0 KECCAK256 DUP1 SLOAD SWAP1 PUSH1 0x1 DUP2 ADD SLOAD SWAP1 PUSH1 0x2 DUP2 ADD SLOAD PUSH1 0x4 PUSH1 0x3 DUP4 ADD SLOAD SWAP3 ADD SLOAD SWAP3 PUSH1 0x40 MLOAD SWAP5 DUP6 MSTORE PUSH1 0x20 DUP6 ADD MSTORE PUSH1 0x40 DUP5 ADD MSTORE PUSH1 0x60 DUP4 ADD MSTORE PUSH1 0x80 DUP3 ADD MSTORE RETURN JUMPDEST CALLVALUE PUSH2 0x2AC JUMPI PUSH2 0x9FD CALLDATASIZE PUSH2 0x3298 JUMP JUMPDEST SWAP1 PUSH0 MSTORE PUSH1 0x8 PUSH1 0x20 MSTORE PUSH1 0xA PUSH1 0x40 PUSH0 KECCAK256 ADD SWAP1 PUSH0 MSTORE PUSH1 0x20 MSTORE PUSH1 0x20 PUSH1 0x4 PUSH1 0x40 PUSH0 KECCAK256 ADD SLOAD PUSH1 0x40 MLOAD SWAP1 DUP2 MSTORE RETURN JUMPDEST CALLVALUE PUSH2 0x2AC JUMPI PUSH1 0x20 CALLDATASIZE PUSH1 0x3 NOT ADD SLT PUSH2 0x2AC JUMPI PUSH1 0x4 CALLDATALOAD PUSH0 MSTORE PUSH1 0x8 PUSH1 0x20 MSTORE PUSH1 0x40 PUSH0 KECCAK256 PUSH2 0xAB3 PUSH2 0xA4F DUP3 PUSH2 0x356C JUMP JUMPDEST SWAP2 PUSH2 0xA5C PUSH1 0x1 DUP3 ADD PUSH2 0x356C JUMP JUMPDEST SWAP3 PUSH1 0x2 DUP3 ADD SLOAD SWAP2 PUSH1 0xFF PUSH1 0x3 DUP3 ADD SLOAD AND PUSH1 0x4 DUP3 ADD SLOAD PUSH1 0x5 DUP4 ADD SLOAD PUSH1 0x6 DUP5 ADD SLOAD PUSH1 0x7 DUP6 ADD SLOAD SWAP2 PUSH1 0x8 DUP7 ADD SLOAD SWAP4 PUSH2 0xAD1 PUSH1 0x9 DUP9 ADD SLOAD SWAP7 PUSH2 0xAC1 PUSH1 0xF PUSH1 0xE DUP12 ADD SLOAD SWAP11 ADD SLOAD SWAP11 PUSH1 0x40 MLOAD SWAP15 DUP16 SWAP15 DUP16 SWAP3 PUSH2 0x1E0 DUP1 DUP6 MSTORE DUP5 ADD SWAP1 PUSH2 0x3427 JUMP JUMPDEST SWAP2 PUSH1 0x20 DUP2 DUP5 SUB SWAP2 ADD MSTORE PUSH2 0x3427 JUMP JUMPDEST SWAP11 PUSH1 0x40 DUP14 ADD MSTORE PUSH1 0x60 DUP13 ADD SWAP1 PUSH2 0x3465 JUMP JUMPDEST PUSH1 0x80 DUP11 ADD MSTORE PUSH1 0xFF DUP2 DUP2 AND ISZERO ISZERO PUSH1 0xA0 DUP12 ADD MSTORE PUSH1 0x8 DUP3 SWAP1 SHR DUP2 AND ISZERO ISZERO PUSH1 0xC0 DUP12 ADD MSTORE PUSH1 0x10 DUP3 SWAP1 SHR AND ISZERO ISZERO PUSH1 0xE0 DUP11 ADD MSTORE PUSH1 0x18 SHR PUSH1 0x1 PUSH1 0x1 PUSH1 0xA0 SHL SUB AND PUSH2 0x100 DUP10 ADD MSTORE PUSH2 0x120 DUP9 ADD MSTORE PUSH2 0x140 DUP8 ADD MSTORE PUSH2 0x160 DUP7 ADD MSTORE PUSH2 0x180 DUP6 ADD MSTORE PUSH2 0x1A0 DUP5 ADD MSTORE PUSH2 0x1C0 DUP4 ADD MSTORE SUB SWAP1 RETURN JUMPDEST CALLVALUE PUSH2 0x2AC JUMPI PUSH1 0x20 CALLDATASIZE PUSH1 0x3 NOT ADD SLT PUSH2 0x2AC JUMPI PUSH2 0x8D4 PUSH2 0xB53 PUSH2 0x31EB JUMP JUMPDEST PUSH2 0xB5B PUSH2 0x3C37 JUMP JUMPDEST PUSH0 DUP1 MLOAD PUSH1 0x20 PUSH2 0x3D7E DUP4 CODECOPY DUP2 MLOAD SWAP2 MSTORE PUSH0 MSTORE PUSH1 0x2 PUSH1 0x20 MSTORE PUSH32 0xD3DCCF8D8289B9DEEE17E361620D7577DE7B525DD57F668D5C1BB85EC53112B6 SLOAD PUSH2 0xB9B SWAP1 PUSH2 0x39D4 JUMP JUMPDEST PUSH2 0x3B4C JUMP JUMPDEST CALLVALUE PUSH2 0x2AC JUMPI PUSH1 0x20 DUP1 PUSH1 0x3 NOT CALLDATASIZE ADD SLT PUSH2 0x2AC JUMPI PUSH1 0x4 CALLDATALOAD SWAP1 PUSH2 0xBC3 PUSH1 0x4 SLOAD DUP4 LT PUSH2 0x36C2 JUMP JUMPDEST PUSH0 DUP1 MLOAD PUSH1 0x20 PUSH2 0x3D7E DUP4 CODECOPY DUP2 MLOAD SWAP2 MSTORE PUSH0 MSTORE PUSH1 0x2 DUP2 MSTORE PUSH1 0x40 PUSH0 KECCAK256 CALLER PUSH0 MSTORE DUP2 MSTORE PUSH1 0xFF PUSH1 0x40 PUSH0 KECCAK256 SLOAD AND DUP1 ISZERO PUSH2 0xCCE JUMPI JUMPDEST ISZERO PUSH2 0xC99 JUMPI DUP2 PUSH0 MSTORE PUSH1 0x8 DUP2 MSTORE PUSH1 0xFF PUSH1 0x5 PUSH1 0x40 PUSH0 KECCAK256 ADD SLOAD PUSH1 0x10 SHR AND PUSH2 0xC55 JUMPI PUSH32 0xCD5B0C95D548CDBA5F9A45B4210642D0B866A0CC878E0A863855455908C6DB65 SWAP1 DUP3 PUSH0 MSTORE PUSH1 0x8 DUP2 MSTORE PUSH1 0x5 PUSH1 0x40 PUSH0 KECCAK256 ADD PUSH3 0x10000 PUSH3 0xFF0000 NOT DUP3 SLOAD AND OR SWAP1 SSTORE PUSH1 0x40 MLOAD CALLER DUP2 MSTORE LOG2 STOP JUMPDEST PUSH1 0x64 SWAP1 PUSH1 0x40 MLOAD SWAP1 PUSH3 0x461BCD PUSH1 0xE5 SHL DUP3 MSTORE PUSH1 0x4 DUP3 ADD MSTORE PUSH1 0x18 PUSH1 0x24 DUP3 ADD MSTORE PUSH32 0x4D61726B657420616C72656164792076616C6964617465640000000000000000 PUSH1 0x44 DUP3 ADD MSTORE REVERT JUMPDEST PUSH1 0x64 SWAP1 PUSH1 0x40 MLOAD SWAP1 PUSH3 0x461BCD PUSH1 0xE5 SHL DUP3 MSTORE PUSH1 0x4 DUP3 ADD MSTORE PUSH1 0xE PUSH1 0x24 DUP3 ADD MSTORE PUSH14 0x139BDD08185D5D1A1BDC9A5E9959 PUSH1 0x92 SHL PUSH1 0x44 DUP3 ADD MSTORE REVERT JUMPDEST POP PUSH0 SLOAD PUSH1 0x1 PUSH1 0x1 PUSH1 0xA0 SHL SUB AND CALLER EQ PUSH2 0xBEF JUMP JUMPDEST CALLVALUE PUSH2 0x2AC JUMPI PUSH2 0xCF2 PUSH2 0x8E7 CALLDATASIZE PUSH2 0x34FE JUMP JUMPDEST DUP1 SLOAD DUP3 LT ISZERO PUSH2 0x2AC JUMPI PUSH1 0x20 SWAP2 PUSH2 0xD07 SWAP2 PUSH2 0x31D6 JUMP JUMPDEST SWAP1 SLOAD PUSH1 0x40 MLOAD SWAP2 PUSH1 0x3 SHL SHR DUP2 MSTORE RETURN JUMPDEST CALLVALUE PUSH2 0x2AC JUMPI PUSH1 0x20 CALLDATASIZE PUSH1 0x3 NOT ADD SLT PUSH2 0x2AC JUMPI PUSH1 0x4 CALLDATALOAD PUSH0 MSTORE PUSH1 0x9 PUSH1 0x20 MSTORE PUSH2 0x160 PUSH1 0x40 PUSH0 KECCAK256 DUP1 SLOAD SWAP1 PUSH1 0x1 DUP2 ADD SLOAD SWAP1 PUSH1 0x2 DUP2 ADD SLOAD PUSH1 0x3 DUP3 ADD SLOAD PUSH1 0xFF DUP2 PUSH1 0xA0 SHR AND PUSH1 0xFF DUP3 PUSH1 0xA8 SHR AND PUSH1 0x4 DUP6 ADD SLOAD SWAP2 PUSH1 0x5 DUP7 ADD SLOAD SWAP4 PUSH1 0x6 DUP8 ADD SLOAD SWAP6 PUSH1 0xFF PUSH1 0x8 PUSH1 0x7 DUP11 ADD SLOAD SWAP10 ADD SLOAD AND SWAP9 PUSH1 0x40 MLOAD SWAP11 DUP12 MSTORE PUSH1 0x20 DUP12 ADD MSTORE PUSH1 0x40 DUP11 ADD MSTORE PUSH1 0x1 DUP1 PUSH1 0xA0 SHL SUB AND PUSH1 0x60 DUP10 ADD MSTORE PUSH2 0xD9E DUP2 PUSH2 0x3230 JUMP JUMPDEST PUSH1 0x80 DUP9 ADD MSTORE PUSH2 0xDAC DUP2 PUSH2 0x3230 JUMP JUMPDEST PUSH1 0xA0 DUP8 ADD MSTORE PUSH1 0xC0 DUP7 ADD MSTORE PUSH1 0xE0 DUP6 ADD MSTORE PUSH2 0x100 DUP5 ADD MSTORE PUSH2 0x120 DUP4 ADD MSTORE ISZERO ISZERO PUSH2 0x140 DUP3 ADD MSTORE RETURN JUMPDEST CALLVALUE PUSH2 0x2AC JUMPI PUSH2 0xDDF CALLDATASIZE PUSH2 0x3490 JUMP JUMPDEST SWAP2 PUSH0 MSTORE PUSH1 0xD PUSH1 0x20 MSTORE PUSH1 0x40 PUSH0 KECCAK256 SWAP1 PUSH0 MSTORE PUSH1 0x20 MSTORE PUSH1 0x40 PUSH0 KECCAK256 DUP1 SLOAD DUP3 LT ISZERO PUSH2 0x2AC JUMPI PUSH1 0x60 SWAP2 PUSH2 0xE0A SWAP2 PUSH2 0x34E5 JUMP JUMPDEST POP DUP1 SLOAD SWAP1 PUSH1 0x2 PUSH1 0x1 DUP3 ADD SLOAD SWAP2 ADD SLOAD SWAP1 PUSH1 0x40 MLOAD SWAP3 DUP4 MSTORE PUSH1 0x20 DUP4 ADD MSTORE PUSH1 0x40 DUP3 ADD MSTORE RETURN JUMPDEST CALLVALUE PUSH2 0x2AC JUMPI PUSH0 CALLDATASIZE PUSH1 0x3 NOT ADD SLT PUSH2 0x2AC JUMPI PUSH1 0x20 PUSH1 0x40 MLOAD PUSH0 DUP2 MSTORE RETURN JUMPDEST CALLVALUE PUSH2 0x2AC JUMPI PUSH0 CALLDATASIZE PUSH1 0x3 NOT ADD SLT PUSH2 0x2AC JUMPI PUSH1 0x20 PUSH1 0x40 MLOAD PUSH2 0xE10 DUP2 MSTORE RETURN JUMPDEST CALLVALUE PUSH2 0x2AC JUMPI PUSH1 0x20 CALLDATASIZE PUSH1 0x3 NOT ADD SLT PUSH2 0x2AC JUMPI PUSH1 0x4 CALLDATALOAD PUSH2 0xE7D PUSH2 0x3C37 JUMP JUMPDEST PUSH2 0x3E8 DUP2 GT PUSH2 0xE8B JUMPI PUSH1 0x7 SSTORE STOP JUMPDEST PUSH1 0x40 MLOAD PUSH3 0x461BCD PUSH1 0xE5 SHL DUP2 MSTORE PUSH1 0x20 PUSH1 0x4 DUP3 ADD MSTORE PUSH1 0x11 PUSH1 0x24 DUP3 ADD MSTORE PUSH17 0x8CCACA40E4C2E8CA40E8DEDE40D0D2CED PUSH1 0x7B SHL PUSH1 0x44 DUP3 ADD MSTORE PUSH1 0x64 SWAP1 REVERT JUMPDEST CALLVALUE PUSH2 0x2AC JUMPI PUSH1 0x40 CALLDATASIZE PUSH1 0x3 NOT ADD SLT PUSH2 0x2AC JUMPI PUSH2 0xEDD PUSH2 0x3201 JUMP JUMPDEST PUSH1 0x4 CALLDATALOAD PUSH0 MSTORE PUSH1 0x2 PUSH1 0x20 MSTORE PUSH1 0x40 PUSH0 KECCAK256 SWAP1 PUSH1 0x1 DUP1 PUSH1 0xA0 SHL SUB AND PUSH0 MSTORE PUSH1 0x20 MSTORE PUSH1 0x20 PUSH1 0xFF PUSH1 0x40 PUSH0 KECCAK256 SLOAD AND PUSH1 0x40 MLOAD SWAP1 ISZERO ISZERO DUP2 MSTORE RETURN JUMPDEST CALLVALUE PUSH2 0x2AC JUMPI PUSH0 CALLDATASIZE PUSH1 0x3 NOT ADD SLT PUSH2 0x2AC JUMPI PUSH0 SLOAD PUSH1 0x40 MLOAD PUSH1 0x1 PUSH1 0x1 PUSH1 0xA0 SHL SUB SWAP1 SWAP2 AND DUP2 MSTORE PUSH1 0x20 SWAP1 RETURN JUMPDEST CALLVALUE PUSH2 0x2AC JUMPI PUSH1 0x20 CALLDATASIZE PUSH1 0x3 NOT ADD SLT PUSH2 0x2AC JUMPI PUSH1 0x1 PUSH1 0x1 PUSH1 0xA0 SHL SUB PUSH2 0xF55 PUSH2 0x31EB JUMP JUMPDEST AND PUSH0 MSTORE PUSH1 0x11 PUSH1 0x20 MSTORE PUSH1 0x20 PUSH1 0x40 PUSH0 KECCAK256 SLOAD PUSH1 0x40 MLOAD SWAP1 DUP2 MSTORE RETURN JUMPDEST CALLVALUE PUSH2 0x2AC JUMPI PUSH1 0x40 CALLDATASIZE PUSH1 0x3 NOT ADD SLT PUSH2 0x2AC JUMPI PUSH2 0xF85 PUSH2 0x31EB JUMP JUMPDEST PUSH1 0x1 PUSH1 0x1 PUSH1 0xA0 SHL SUB AND PUSH0 SWAP1 DUP2 MSTORE PUSH1 0xF PUSH1 0x20 MSTORE PUSH1 0x40 SWAP1 KECCAK256 DUP1 SLOAD PUSH1 0x24 CALLDATALOAD SWAP2 SWAP1 DUP3 LT ISZERO PUSH2 0x2AC JUMPI PUSH1 0x20 SWAP2 PUSH2 0xD07 SWAP2 PUSH2 0x31D6 JUMP JUMPDEST CALLVALUE PUSH2 0x2AC JUMPI PUSH0 CALLDATASIZE PUSH1 0x3 NOT ADD SLT PUSH2 0x2AC JUMPI PUSH2 0xFCD PUSH2 0x3C37 JUMP JUMPDEST PUSH2 0xFD5 PUSH2 0x39B6 JUMP JUMPDEST PUSH1 0x1 PUSH1 0xFF NOT PUSH1 0x3 SLOAD AND OR PUSH1 0x3 SSTORE PUSH32 0x62E78CEA01BEE320CD4E420270B5EA74000D11B0C9F74754EBDBFC544B05A258 PUSH1 0x20 PUSH1 0x40 MLOAD CALLER DUP2 MSTORE LOG1 STOP JUMPDEST CALLVALUE PUSH2 0x2AC JUMPI PUSH1 0x40 CALLDATASIZE PUSH1 0x3 NOT ADD SLT PUSH2 0x2AC JUMPI PUSH1 0x4 CALLDATALOAD PUSH2 0x102A PUSH2 0x3201 JUMP JUMPDEST SWAP1 PUSH2 0x1038 PUSH1 0x4 SLOAD DUP3 LT PUSH2 0x36C2 JUMP JUMPDEST PUSH0 MSTORE PUSH1 0x20 SWAP1 PUSH1 0x8 PUSH1 0x20 MSTORE PUSH1 0x40 PUSH0 KECCAK256 SWAP2 PUSH1 0x9 DUP4 ADD SLOAD SWAP2 PUSH2 0x1056 DUP4 PUSH2 0x3984 JUMP JUMPDEST SWAP4 PUSH1 0xB ADD SWAP1 PUSH1 0x1 PUSH1 0x1 PUSH1 0xA0 SHL SUB AND PUSH0 JUMPDEST DUP5 DUP2 LT PUSH2 0x107B JUMPI PUSH1 0x40 MLOAD DUP1 PUSH2 0x92D DUP9 DUP3 PUSH2 0x34AA JUMP JUMPDEST PUSH1 0x1 SWAP1 DUP3 PUSH0 MSTORE DUP4 DUP6 MSTORE PUSH1 0x40 PUSH0 KECCAK256 DUP2 PUSH0 MSTORE DUP6 MSTORE PUSH1 0x40 PUSH0 KECCAK256 SLOAD PUSH2 0x109C DUP3 DUP10 PUSH2 0x365D JUMP JUMPDEST MSTORE ADD PUSH2 0x1066 JUMP JUMPDEST CALLVALUE PUSH2 0x2AC JUMPI PUSH0 CALLDATASIZE PUSH1 0x3 NOT ADD SLT PUSH2 0x2AC JUMPI PUSH1 0x20 PUSH1 0x40 MLOAD PUSH4 0x1E13380 DUP2 MSTORE RETURN JUMPDEST CALLVALUE PUSH2 0x2AC JUMPI PUSH2 0x10CF CALLDATASIZE PUSH2 0x3490 JUMP JUMPDEST SWAP2 PUSH0 MSTORE PUSH1 0x20 SWAP1 PUSH1 0xD DUP3 MSTORE PUSH1 0x40 PUSH0 KECCAK256 SWAP1 PUSH0 MSTORE DUP2 MSTORE PUSH1 0x40 PUSH0 KECCAK256 DUP1 SLOAD SWAP1 DUP2 DUP5 GT PUSH0 EQ PUSH2 0x1217 JUMPI DUP2 JUMPDEST PUSH2 0x10FD DUP4 PUSH2 0x3391 JUMP JUMPDEST SWAP5 PUSH2 0x110B PUSH1 0x40 MLOAD SWAP7 DUP8 PUSH2 0x331B JUMP JUMPDEST DUP4 DUP7 MSTORE PUSH2 0x1117 DUP5 PUSH2 0x3391 JUMP JUMPDEST PUSH1 0x1F NOT ADD DUP6 PUSH0 JUMPDEST DUP3 DUP2 LT PUSH2 0x11EF JUMPI POP POP POP DUP1 DUP3 GT ISZERO PUSH2 0x11E7 JUMPI PUSH2 0x1139 SWAP2 PUSH2 0x3706 JUMP JUMPDEST PUSH0 JUMPDEST DUP4 DUP2 LT PUSH2 0x1192 JUMPI PUSH1 0x40 DUP1 MLOAD DUP7 DUP2 MSTORE DUP8 MLOAD DUP2 DUP9 ADD DUP2 SWAP1 MSTORE DUP9 DUP9 ADD SWAP3 DUP3 ADD SWAP1 DUP9 PUSH0 JUMPDEST DUP3 DUP2 LT PUSH2 0x1168 JUMPI DUP5 DUP5 SUB DUP6 RETURN JUMPDEST DUP6 MLOAD DUP1 MLOAD DUP6 MSTORE DUP1 DUP4 ADD MLOAD DUP6 DUP5 ADD MSTORE PUSH1 0x40 SWAP1 DUP2 ADD MLOAD SWAP1 DUP6 ADD MSTORE SWAP5 DUP2 ADD SWAP5 PUSH1 0x60 SWAP1 SWAP4 ADD SWAP3 PUSH1 0x1 ADD PUSH2 0x115B JUMP JUMPDEST DUP1 PUSH2 0x11A8 PUSH2 0x11A2 PUSH1 0x1 SWAP4 DUP6 PUSH2 0x3646 JUMP JUMPDEST DUP6 PUSH2 0x34E5 JUMP JUMPDEST POP PUSH1 0x2 PUSH1 0x40 MLOAD SWAP2 PUSH2 0x11B8 DUP4 PUSH2 0x32E4 JUMP JUMPDEST DUP1 SLOAD DUP4 MSTORE DUP5 DUP2 ADD SLOAD DUP10 DUP5 ADD MSTORE ADD SLOAD PUSH1 0x40 DUP3 ADD MSTORE PUSH2 0x11D5 DUP3 DUP10 PUSH2 0x365D JUMP JUMPDEST MSTORE PUSH2 0x11E0 DUP2 DUP9 PUSH2 0x365D JUMP JUMPDEST POP ADD PUSH2 0x113B JUMP JUMPDEST POP POP PUSH0 PUSH2 0x1139 JUMP JUMPDEST PUSH1 0x40 MLOAD PUSH2 0x11FB DUP2 PUSH2 0x32E4 JUMP JUMPDEST PUSH0 DUP2 MSTORE PUSH0 DUP4 DUP3 ADD MSTORE PUSH0 PUSH1 0x40 DUP3 ADD MSTORE DUP3 DUP3 DUP12 ADD ADD MSTORE ADD DUP7 SWAP1 PUSH2 0x111E JUMP JUMPDEST DUP4 SWAP2 PUSH2 0x10F4 JUMP JUMPDEST CALLVALUE PUSH2 0x2AC JUMPI PUSH0 CALLDATASIZE PUSH1 0x3 NOT ADD SLT PUSH2 0x2AC JUMPI PUSH1 0x20 PUSH1 0x40 MLOAD PUSH32 0xEF485BE696BBC0C91AD541BBD553FFB5BD0E18DAC30BA76E992DDA23CB807A8A DUP2 MSTORE RETURN JUMPDEST CALLVALUE PUSH2 0x2AC JUMPI PUSH0 CALLDATASIZE PUSH1 0x3 NOT ADD SLT PUSH2 0x2AC JUMPI PUSH1 0x20 PUSH1 0x40 MLOAD PUSH32 0xDCEE1D35C83A32B436264A5C9AFD68685C124F3F9097E87804C55410E67FC59A DUP2 MSTORE RETURN JUMPDEST CALLVALUE PUSH2 0x2AC JUMPI PUSH2 0x12A0 CALLDATASIZE PUSH2 0x3298 JUMP JUMPDEST PUSH1 0x12 SLOAD SWAP1 DUP2 DUP4 LT ISZERO PUSH2 0x149B JUMPI DUP2 PUSH2 0x12B7 DUP3 DUP6 PUSH2 0x3646 JUMP JUMPDEST GT ISZERO PUSH2 0x148B JUMPI POP JUMPDEST PUSH2 0x12C9 DUP3 DUP3 PUSH2 0x3706 JUMP JUMPDEST SWAP1 PUSH2 0x12EC PUSH2 0x12D6 DUP4 PUSH2 0x3391 JUMP JUMPDEST SWAP3 PUSH2 0x12E4 PUSH1 0x40 MLOAD SWAP5 DUP6 PUSH2 0x331B JUMP JUMPDEST DUP1 DUP5 MSTORE PUSH2 0x3391 JUMP JUMPDEST PUSH1 0x20 SWAP4 SWAP1 PUSH1 0x1F NOT ADD PUSH0 JUMPDEST DUP2 DUP2 LT PUSH2 0x146E JUMPI POP POP DUP1 JUMPDEST DUP3 DUP2 LT PUSH2 0x1378 JUMPI POP POP POP PUSH1 0x40 MLOAD SWAP1 DUP3 DUP3 ADD DUP4 DUP4 MSTORE DUP2 MLOAD DUP1 SWAP2 MSTORE DUP4 PUSH1 0x40 DUP5 ADD SWAP3 ADD SWAP4 PUSH0 JUMPDEST DUP3 DUP2 LT PUSH2 0x1331 JUMPI DUP5 DUP5 SUB DUP6 RETURN JUMPDEST DUP6 MLOAD DUP1 MLOAD PUSH1 0x1 PUSH1 0x1 PUSH1 0xA0 SHL SUB AND DUP6 MSTORE DUP1 DUP4 ADD MLOAD DUP6 DUP5 ADD MSTORE PUSH1 0x40 DUP1 DUP3 ADD MLOAD SWAP1 DUP7 ADD MSTORE PUSH1 0x60 DUP1 DUP3 ADD MLOAD SWAP1 DUP7 ADD MSTORE PUSH1 0x80 SWAP1 DUP2 ADD MLOAD SWAP1 DUP6 ADD MSTORE SWAP5 DUP2 ADD SWAP5 PUSH1 0xA0 SWAP1 SWAP4 ADD SWAP3 PUSH1 0x1 ADD PUSH2 0x1324 JUMP JUMPDEST PUSH2 0x1385 DUP2 SWAP6 SWAP4 SWAP5 SWAP6 PUSH2 0x318D JUMP JUMPDEST SWAP2 SWAP1 SLOAD SWAP2 PUSH1 0x3 SWAP3 PUSH1 0x1 DUP1 PUSH1 0xA0 SHL SUB SWAP2 DUP5 SHL SHR AND DUP1 PUSH0 MSTORE PUSH1 0xA DUP6 MSTORE PUSH1 0x40 PUSH0 KECCAK256 SWAP1 PUSH1 0x40 MLOAD PUSH2 0x13B0 DUP2 PUSH2 0x32AE JUMP JUMPDEST DUP3 SLOAD DUP2 MSTORE PUSH1 0x1 DUP4 ADD SLOAD SWAP3 PUSH1 0x4 DUP9 DUP4 ADD SWAP7 DUP6 DUP9 MSTORE PUSH1 0x2 DUP4 ADD SLOAD PUSH1 0x40 DUP6 ADD MSTORE DUP3 ADD SLOAD SWAP2 PUSH1 0x60 SWAP3 DUP4 DUP6 ADD MSTORE ADD SLOAD SWAP6 PUSH1 0x80 SWAP2 DUP3 DUP5 ADD SWAP8 DUP1 DUP10 MSTORE ISZERO ISZERO PUSH0 EQ PUSH2 0x145F JUMPI PUSH1 0x64 SWAP6 DUP7 DUP2 MUL SWAP7 DUP2 DUP9 DIV EQ SWAP1 ISZERO OR ISZERO PUSH2 0x71D JUMPI PUSH1 0x1 SWAP8 PUSH2 0x1412 PUSH2 0x1454 SWAP8 DUP7 MLOAD SWAP1 PUSH2 0x3653 JUMP JUMPDEST SWAP3 JUMPDEST MLOAD SWAP5 MLOAD SWAP1 MLOAD SWAP5 PUSH1 0x40 MLOAD SWAP7 PUSH2 0x1427 DUP9 PUSH2 0x32AE JUMP JUMPDEST DUP8 MSTORE DUP12 DUP8 ADD MSTORE PUSH1 0x40 DUP7 ADD MSTORE DUP5 ADD MSTORE DUP3 ADD MSTORE PUSH2 0x1442 DUP6 DUP5 PUSH2 0x3706 JUMP JUMPDEST SWAP1 PUSH2 0x144D DUP3 DUP11 PUSH2 0x365D JUMP JUMPDEST MSTORE DUP8 PUSH2 0x365D JUMP JUMPDEST POP ADD SWAP4 SWAP3 SWAP2 SWAP4 PUSH2 0x1301 JUMP JUMPDEST PUSH2 0x1454 SWAP6 POP PUSH1 0x1 SWAP8 PUSH0 SWAP3 PUSH2 0x1414 JUMP JUMPDEST SWAP5 DUP1 SWAP4 SWAP5 SWAP6 PUSH2 0x147B PUSH2 0x360E JUMP JUMPDEST DUP3 DUP3 DUP10 ADD ADD MSTORE ADD SWAP5 SWAP4 SWAP3 SWAP5 PUSH2 0x12F6 JUMP JUMPDEST PUSH2 0x1496 SWAP2 POP DUP3 PUSH2 0x3646 JUMP JUMPDEST PUSH2 0x12BF JUMP JUMPDEST PUSH1 0x40 MLOAD PUSH3 0x461BCD PUSH1 0xE5 SHL DUP2 MSTORE PUSH1 0x20 PUSH1 0x4 DUP3 ADD MSTORE PUSH1 0x19 PUSH1 0x24 DUP3 ADD MSTORE PUSH32 0x537461727420696E646578206F7574206F6620626F756E647300000000000000 PUSH1 0x44 DUP3 ADD MSTORE PUSH1 0x64 SWAP1 REVERT JUMPDEST CALLVALUE PUSH2 0x2AC JUMPI PUSH0 CALLDATASIZE PUSH1 0x3 NOT ADD SLT PUSH2 0x2AC JUMPI PUSH2 0x14F8 PUSH2 0x3C37 JUMP JUMPDEST PUSH0 DUP1 SLOAD PUSH1 0x1 PUSH1 0x1 PUSH1 0xA0 SHL SUB NOT DUP2 AND DUP3 SSTORE PUSH1 0x1 PUSH1 0x1 PUSH1 0xA0 SHL SUB AND PUSH32 0x8BE0079C531659141344CD1FD0A4F28419497F9722A3DAAFE3B4186F6B6457E0 DUP3 DUP1 LOG3 STOP JUMPDEST CALLVALUE PUSH2 0x2AC JUMPI PUSH1 0x20 CALLDATASIZE PUSH1 0x3 NOT ADD SLT PUSH2 0x2AC JUMPI PUSH2 0x8D4 PUSH2 0x1553 PUSH2 0x31EB JUMP JUMPDEST PUSH2 0x155B PUSH2 0x3C37 JUMP JUMPDEST PUSH32 0xEF485BE696BBC0C91AD541BBD553FFB5BD0E18DAC30BA76E992DDA23CB807A8A PUSH0 MSTORE PUSH1 0x2 PUSH1 0x20 MSTORE PUSH32 0x30D995518B427F5A5863AD73FE356CA50CF70941F42C516830919C845FA58070 SLOAD PUSH2 0x15AE SWAP1 PUSH2 0x39D4 JUMP JUMPDEST PUSH2 0x3AB3 JUMP JUMPDEST CALLVALUE PUSH2 0x2AC JUMPI PUSH1 0x20 DUP1 PUSH1 0x3 NOT CALLDATASIZE ADD SLT PUSH2 0x2AC JUMPI PUSH1 0x4 CALLDATALOAD PUSH2 0x15D0 PUSH2 0x3CD6 JUMP JUMPDEST PUSH2 0x15DD PUSH1 0x4 SLOAD DUP3 LT PUSH2 0x36C2 JUMP JUMPDEST DUP1 PUSH0 MSTORE PUSH1 0x8 DUP3 MSTORE PUSH1 0x40 PUSH0 KECCAK256 SWAP2 PUSH1 0x5 DUP4 ADD SLOAD PUSH1 0xFF DUP2 AND SWAP1 DUP2 PUSH2 0x1843 JUMPI JUMPDEST POP ISZERO PUSH2 0x17FF JUMPI PUSH1 0xC DUP4 ADD SWAP3 CALLER PUSH0 MSTORE DUP4 DUP3 MSTORE PUSH1 0xFF PUSH1 0x40 PUSH0 KECCAK256 SLOAD AND PUSH2 0x17C8 JUMPI CALLER PUSH0 MSTORE PUSH1 0xB DUP2 ADD DUP3 MSTORE PUSH1 0x40 PUSH0 KECCAK256 SWAP1 PUSH1 0x4 DUP2 ADD SLOAD SWAP2 DUP3 PUSH0 MSTORE DUP4 MSTORE PUSH1 0x40 PUSH0 KECCAK256 SLOAD SWAP2 DUP3 ISZERO PUSH2 0x178F JUMPI DUP2 PUSH2 0x16A0 PUSH2 0x16A5 SWAP3 PUSH1 0x4 PUSH1 0xA PUSH2 0x16AB SWAP8 SWAP7 ADD DUP3 PUSH0 MSTORE DUP1 DUP10 MSTORE PUSH2 0x1683 PUSH1 0x40 PUSH0 KECCAK256 PUSH1 0x6 PUSH1 0x2 DUP3 ADD SLOAD SWAP8 ADD SLOAD SWAP1 PUSH2 0x167C PUSH8 0xDE0B6B3A7640000 SWAP6 DUP7 SWAP3 ADD SLOAD DUP10 PUSH2 0x3867 JUMP JUMPDEST DIV SWAP1 PUSH2 0x3706 JUMP JUMPDEST SWAP3 PUSH0 MSTORE DUP9 MSTORE PUSH2 0x1699 PUSH1 0x4 PUSH1 0x40 PUSH0 KECCAK256 ADD SLOAD DUP8 PUSH2 0x3867 JUMP JUMPDEST DIV SWAP5 PUSH2 0x3867 JUMP JUMPDEST PUSH2 0x3653 JUMP JUMPDEST SWAP1 PUSH2 0x3646 JUMP JUMPDEST SWAP3 CALLER PUSH0 MSTORE DUP2 MSTORE PUSH1 0x40 PUSH0 KECCAK256 PUSH1 0x1 PUSH1 0xFF NOT DUP3 SLOAD AND OR SWAP1 SSTORE PUSH1 0xA DUP2 MSTORE PUSH1 0x1 PUSH1 0x40 PUSH0 KECCAK256 ADD PUSH2 0x16D6 DUP5 DUP3 SLOAD PUSH2 0x3646 JUMP JUMPDEST SWAP1 SSTORE CALLER PUSH0 MSTORE PUSH1 0x11 DUP2 MSTORE PUSH1 0x40 PUSH0 KECCAK256 PUSH2 0x16EE DUP5 DUP3 SLOAD PUSH2 0x3646 JUMP JUMPDEST SWAP1 SSTORE PUSH1 0x3 SLOAD PUSH1 0x40 MLOAD PUSH4 0xA9059CBB PUSH1 0xE0 SHL DUP2 MSTORE CALLER PUSH1 0x4 DUP3 ADD MSTORE PUSH1 0x24 DUP2 ADD DUP6 SWAP1 MSTORE SWAP2 SWAP1 DUP2 SWAP1 DUP4 SWAP1 PUSH1 0x8 SHR PUSH1 0x1 PUSH1 0x1 PUSH1 0xA0 SHL SUB AND DUP2 PUSH0 DUP2 PUSH1 0x44 DUP2 ADD SUB SWAP3 GAS CALL SWAP2 DUP3 ISZERO PUSH2 0x81A JUMPI PUSH32 0x4EC90E965519D92681267467F775ADA5BD214AA92C0DC93D90A5E880CE9ED026 SWAP3 PUSH2 0x1763 SWAP2 PUSH0 SWAP2 PUSH2 0x1772 JUMPI POP PUSH2 0x3946 JUMP JUMPDEST PUSH1 0x40 MLOAD SWAP4 DUP5 MSTORE CALLER SWAP4 LOG3 PUSH1 0x1 DUP1 SSTORE STOP JUMPDEST PUSH2 0x1789 SWAP2 POP DUP4 RETURNDATASIZE DUP6 GT PUSH2 0x813 JUMPI PUSH2 0x805 DUP2 DUP4 PUSH2 0x331B JUMP JUMPDEST DUP7 PUSH2 0x4C9 JUMP JUMPDEST PUSH1 0x40 MLOAD PUSH3 0x461BCD PUSH1 0xE5 SHL DUP2 MSTORE PUSH1 0x4 DUP2 ADD DUP6 SWAP1 MSTORE PUSH1 0x11 PUSH1 0x24 DUP3 ADD MSTORE PUSH17 0x4E6F2077696E6E696E6720736861726573 PUSH1 0x78 SHL PUSH1 0x44 DUP3 ADD MSTORE PUSH1 0x64 SWAP1 REVERT JUMPDEST PUSH1 0x40 MLOAD PUSH3 0x461BCD PUSH1 0xE5 SHL DUP2 MSTORE PUSH1 0x4 DUP2 ADD DUP4 SWAP1 MSTORE PUSH1 0xF PUSH1 0x24 DUP3 ADD MSTORE PUSH15 0x105B1C9958591E4818DB185A5B5959 PUSH1 0x8A SHL PUSH1 0x44 DUP3 ADD MSTORE PUSH1 0x64 SWAP1 REVERT JUMPDEST PUSH1 0x64 SWAP1 PUSH1 0x40 MLOAD SWAP1 PUSH3 0x461BCD PUSH1 0xE5 SHL DUP3 MSTORE PUSH1 0x4 DUP3 ADD MSTORE PUSH1 0x1B PUSH1 0x24 DUP3 ADD MSTORE PUSH32 0x4D61726B6574206E6F7420726561647920666F7220636C61696D730000000000 PUSH1 0x44 DUP3 ADD MSTORE REVERT JUMPDEST PUSH1 0xFF SWAP2 POP PUSH1 0x8 SHR AND ISZERO DUP5 PUSH2 0x15F9 JUMP JUMPDEST CALLVALUE PUSH2 0x2AC JUMPI PUSH2 0x1860 CALLDATASIZE PUSH2 0x3298 JUMP JUMPDEST PUSH2 0x186D PUSH1 0x4 SLOAD DUP4 LT PUSH2 0x36C2 JUMP JUMPDEST PUSH0 SLOAD PUSH1 0x1 PUSH1 0x1 PUSH1 0xA0 SHL SUB AND CALLER EQ DUP1 ISZERO PUSH2 0x19D2 JUMPI JUMPDEST ISZERO PUSH2 0x1983 JUMPI DUP2 PUSH0 MSTORE PUSH1 0x8 PUSH1 0x20 MSTORE PUSH1 0x40 PUSH0 KECCAK256 SWAP1 PUSH1 0x2 DUP3 ADD SLOAD TIMESTAMP LT PUSH2 0x193E JUMPI PUSH1 0x5 DUP3 ADD SWAP1 DUP2 SLOAD SWAP2 PUSH2 0x18B3 PUSH1 0xFF DUP5 AND ISZERO PUSH2 0x3752 JUMP JUMPDEST PUSH1 0x9 DUP5 ADD SLOAD DUP3 LT ISZERO PUSH2 0x1900 JUMPI PUSH1 0x1 PUSH1 0x40 SWAP4 DUP4 PUSH1 0x4 PUSH32 0xC160A477581CB2155B1578581D805DCC0E6623403811FC2853465045BC0B0492 SWAP8 ADD SSTORE PUSH1 0xFF NOT AND OR SWAP1 SSTORE DUP2 MLOAD SWAP1 DUP2 MSTORE CALLER PUSH1 0x20 DUP3 ADD MSTORE LOG2 STOP JUMPDEST PUSH1 0x40 MLOAD PUSH3 0x461BCD PUSH1 0xE5 SHL DUP2 MSTORE PUSH1 0x20 PUSH1 0x4 DUP3 ADD MSTORE PUSH1 0x16 PUSH1 0x24 DUP3 ADD MSTORE PUSH22 0x24B73B30B634B2103BB4B73734B7339037B83A34B7B7 PUSH1 0x51 SHL PUSH1 0x44 DUP3 ADD MSTORE PUSH1 0x64 SWAP1 REVERT JUMPDEST PUSH1 0x40 MLOAD PUSH3 0x461BCD PUSH1 0xE5 SHL DUP2 MSTORE PUSH1 0x20 PUSH1 0x4 DUP3 ADD MSTORE PUSH1 0x18 PUSH1 0x24 DUP3 ADD MSTORE PUSH32 0x4D61726B657420686173206E6F7420656E646564207965740000000000000000 PUSH1 0x44 DUP3 ADD MSTORE PUSH1 0x64 SWAP1 REVERT JUMPDEST PUSH1 0x40 MLOAD PUSH3 0x461BCD PUSH1 0xE5 SHL DUP2 MSTORE PUSH1 0x20 PUSH1 0x4 DUP3 ADD MSTORE PUSH1 0x21 PUSH1 0x24 DUP3 ADD MSTORE PUSH32 0x4E6F7420617574686F72697A656420746F207265736F6C7665206D61726B6574 PUSH1 0x44 DUP3 ADD MSTORE PUSH1 0x73 PUSH1 0xF8 SHL PUSH1 0x64 DUP3 ADD MSTORE PUSH1 0x84 SWAP1 REVERT JUMPDEST POP CALLER PUSH0 SWAP1 DUP2 MSTORE PUSH32 0x8E2C297E756B2A427C5DC4607F639842A8EA6E0F6322302F4EA76306B642CFC2 PUSH1 0x20 MSTORE PUSH1 0x40 SWAP1 KECCAK256 SLOAD PUSH1 0xFF AND PUSH2 0x1881 JUMP JUMPDEST CALLVALUE PUSH2 0x2AC JUMPI PUSH0 CALLDATASIZE PUSH1 0x3 NOT ADD SLT PUSH2 0x2AC JUMPI PUSH1 0x20 PUSH1 0xFF PUSH1 0x3 SLOAD AND PUSH1 0x40 MLOAD SWAP1 ISZERO ISZERO DUP2 MSTORE RETURN JUMPDEST CALLVALUE PUSH2 0x2AC JUMPI PUSH2 0x1A39 CALLDATASIZE PUSH2 0x3472 JUMP JUMPDEST PUSH2 0x1A41 PUSH2 0x3CD6 JUMP JUMPDEST PUSH2 0x1A49 PUSH2 0x39B6 JUMP JUMPDEST PUSH2 0x1A56 PUSH1 0x4 SLOAD DUP6 LT PUSH2 0x36C2 JUMP JUMPDEST DUP4 PUSH0 MSTORE PUSH1 0x8 PUSH1 0x20 MSTORE PUSH2 0x1A70 PUSH1 0x2 PUSH1 0x40 PUSH0 KECCAK256 ADD SLOAD TIMESTAMP LT PUSH2 0x3713 JUMP JUMPDEST DUP4 PUSH0 MSTORE PUSH1 0x8 PUSH1 0x20 MSTORE PUSH2 0x1A8C PUSH1 0xFF PUSH1 0x5 PUSH1 0x40 PUSH0 KECCAK256 ADD SLOAD AND ISZERO PUSH2 0x3752 JUMP JUMPDEST DUP4 PUSH0 MSTORE PUSH1 0x8 PUSH1 0x20 MSTORE PUSH2 0x1AA6 PUSH1 0x9 PUSH1 0x40 PUSH0 KECCAK256 ADD SLOAD DUP5 LT PUSH2 0x379E JUMP JUMPDEST DUP4 PUSH0 MSTORE PUSH1 0x8 PUSH1 0x20 MSTORE PUSH1 0xA PUSH1 0x40 PUSH0 KECCAK256 ADD DUP4 PUSH0 MSTORE PUSH1 0x20 MSTORE PUSH2 0x1ACE PUSH1 0xFF PUSH1 0x5 PUSH1 0x40 PUSH0 KECCAK256 ADD SLOAD AND PUSH2 0x37DB JUMP JUMPDEST PUSH2 0x1AD9 DUP3 ISZERO ISZERO PUSH2 0x381B JUMP JUMPDEST DUP4 PUSH0 MSTORE PUSH1 0x8 PUSH1 0x20 MSTORE PUSH1 0xB PUSH1 0x40 PUSH0 KECCAK256 ADD CALLER PUSH0 MSTORE PUSH1 0x20 MSTORE PUSH1 0x40 PUSH0 KECCAK256 DUP4 PUSH0 MSTORE PUSH1 0x20 MSTORE DUP2 PUSH1 0x40 PUSH0 KECCAK256 SLOAD LT PUSH2 0x1EB5 JUMPI PUSH0 DUP5 DUP2 MSTORE PUSH1 0x8 PUSH1 0x20 SWAP1 DUP2 MSTORE PUSH1 0x40 DUP1 DUP4 KECCAK256 DUP7 DUP5 MSTORE PUSH1 0xA DUP2 ADD SWAP1 SWAP3 MSTORE SWAP1 SWAP2 KECCAK256 PUSH1 0x4 DUP2 ADD SLOAD SWAP1 SWAP5 SWAP2 SWAP3 SWAP1 SWAP2 SWAP1 DUP3 LT PUSH2 0x1E80 JUMPI PUSH8 0xDE0B6B3A7640000 PUSH2 0x1B45 DUP6 DUP5 PUSH2 0x3867 JUMP JUMPDEST DIV SWAP5 PUSH2 0x2710 PUSH2 0x1B56 PUSH1 0x7 SLOAD DUP9 PUSH2 0x3867 JUMP JUMPDEST DIV SWAP4 PUSH1 0xF PUSH2 0x1B64 DUP7 DUP10 PUSH2 0x3706 JUMP JUMPDEST SWAP2 CALLER PUSH0 MSTORE PUSH1 0xB DUP2 ADD PUSH1 0x20 MSTORE PUSH1 0x40 PUSH0 KECCAK256 DUP6 PUSH0 MSTORE PUSH1 0x20 MSTORE PUSH1 0x40 PUSH0 KECCAK256 PUSH2 0x1B88 DUP10 DUP3 SLOAD PUSH2 0x3706 JUMP JUMPDEST SWAP1 SSTORE PUSH1 0x2 DUP5 ADD PUSH2 0x1B99 DUP10 DUP3 SLOAD PUSH2 0x3706 JUMP JUMPDEST SWAP1 SSTORE PUSH1 0x3 DUP5 ADD PUSH2 0x1BAA DUP11 DUP3 SLOAD PUSH2 0x3646 JUMP JUMPDEST SWAP1 SSTORE PUSH1 0x7 DUP2 ADD PUSH2 0x1BBB DUP11 DUP3 SLOAD PUSH2 0x3646 JUMP JUMPDEST SWAP1 SSTORE ADD PUSH2 0x1BC9 DUP7 DUP3 SLOAD PUSH2 0x3646 JUMP JUMPDEST SWAP1 SSTORE DUP8 PUSH0 MSTORE PUSH1 0x8 PUSH1 0x20 MSTORE PUSH1 0xA PUSH1 0x40 PUSH0 KECCAK256 ADD DUP4 PUSH0 MSTORE PUSH1 0x20 MSTORE PUSH1 0x40 PUSH0 KECCAK256 PUSH1 0x2 DUP2 ADD SLOAD SWAP1 PUSH8 0xDE0B6B3A7640000 DUP9 MUL SWAP2 DUP9 DUP4 DIV PUSH8 0xDE0B6B3A7640000 EQ DUP10 ISZERO OR ISZERO PUSH2 0x71D JUMPI PUSH2 0x3E8 DUP2 ADD DUP1 SWAP2 GT PUSH2 0x71D JUMPI PUSH2 0x1C25 PUSH1 0x4 SWAP4 SWAP2 DUP5 SWAP3 PUSH2 0x3653 JUMP JUMPDEST SWAP2 ADD SLOAD SWAP1 DUP1 DUP3 GT ISZERO PUSH2 0x1E76 JUMPI PUSH2 0x1C3A SWAP2 PUSH2 0x3706 JUMP JUMPDEST SWAP3 JUMPDEST ADD SWAP2 DUP3 SSTORE PUSH8 0xDE0B6B3A7640000 PUSH2 0x1C53 DUP8 DUP7 PUSH2 0x3867 JUMP JUMPDEST DIV SWAP1 PUSH0 DUP3 DUP3 SUB SWAP3 SLT DUP2 DUP4 SLT DUP2 AND SWAP1 DUP3 DUP5 SGT SWAP1 ISZERO AND OR PUSH2 0x71D JUMPI CALLER PUSH0 MSTORE PUSH1 0xA PUSH1 0x20 MSTORE PUSH1 0x3 PUSH1 0x40 PUSH0 KECCAK256 ADD DUP1 SLOAD PUSH0 DUP5 DUP3 ADD SWAP5 DUP6 SLT SWAP2 SLT SWAP1 DUP1 ISZERO DUP3 AND SWAP2 ISZERO AND OR PUSH2 0x71D JUMPI PUSH0 SWAP9 PUSH1 0x20 SWAP5 PUSH2 0x1D8D SWAP5 PUSH2 0x1CF0 SWAP4 SSTORE CALLER DUP12 MSTORE PUSH1 0xA DUP7 MSTORE PUSH1 0x4 PUSH1 0x40 DUP13 KECCAK256 ADD PUSH2 0x1CB9 DUP2 SLOAD PUSH2 0x3638 JUMP JUMPDEST SWAP1 SSTORE DUP12 DUP12 MSTORE PUSH1 0xD DUP7 MSTORE PUSH1 0x40 DUP12 KECCAK256 DUP8 DUP13 MSTORE DUP7 MSTORE PUSH1 0x40 DUP12 KECCAK256 SWAP1 SLOAD SWAP2 PUSH1 0x40 MLOAD SWAP3 PUSH2 0x1CDF DUP5 PUSH2 0x32E4 JUMP JUMPDEST DUP4 MSTORE TIMESTAMP DUP8 DUP5 ADD MSTORE PUSH1 0x40 DUP4 ADD MSTORE PUSH2 0x3671 JUMP JUMPDEST PUSH2 0x1D4F PUSH1 0x40 MLOAD PUSH2 0x1CFF DUP2 PUSH2 0x32FF JUMP JUMPDEST DUP11 DUP2 MSTORE DUP6 DUP6 DUP3 ADD MSTORE DUP10 PUSH1 0x40 DUP3 ADD MSTORE CALLER PUSH1 0x60 DUP3 ADD MSTORE DUP7 PUSH1 0x80 DUP3 ADD MSTORE DUP9 PUSH1 0xA0 DUP3 ADD MSTORE TIMESTAMP PUSH1 0xC0 DUP3 ADD MSTORE DUP10 PUSH1 0xE0 DUP3 ADD MSTORE CALLER DUP11 MSTORE PUSH1 0xB DUP6 MSTORE PUSH2 0x1D3F DUP2 PUSH1 0x40 DUP13 KECCAK256 PUSH2 0x387A JUMP JUMPDEST DUP11 DUP11 MSTORE PUSH1 0xC DUP6 MSTORE PUSH1 0x40 DUP11 KECCAK256 PUSH2 0x387A JUMP JUMPDEST PUSH1 0x3 SLOAD PUSH1 0x40 MLOAD PUSH4 0xA9059CBB PUSH1 0xE0 SHL DUP2 MSTORE CALLER PUSH1 0x4 DUP3 ADD MSTORE PUSH1 0x24 DUP2 ADD SWAP3 SWAP1 SWAP3 MSTORE SWAP1 SWAP8 DUP9 SWAP3 PUSH1 0x8 SWAP3 SWAP1 SWAP3 SHR PUSH1 0x1 PUSH1 0x1 PUSH1 0xA0 SHL SUB AND SWAP2 DUP4 SWAP2 SWAP1 DUP3 SWAP1 PUSH1 0x44 DUP3 ADD SWAP1 JUMP JUMPDEST SUB SWAP3 GAS CALL SWAP4 DUP5 ISZERO PUSH2 0x81A JUMPI PUSH32 0x976184626638B6C7E51A4AB66B297BEB1714B545CE4E867A70D622566573098C PUSH1 0x80 PUSH0 SWAP5 DUP10 SWAP4 PUSH2 0x1DF3 PUSH1 0x20 SWAP10 PUSH32 0xAF7C505EE772EC188AF7067E1F73DB08AB028E3D564273442B907742B9C41FA0 SWAP12 DUP10 SWAP2 PUSH2 0x1E59 JUMPI POP PUSH2 0x3946 JUMP JUMPDEST PUSH1 0x40 MLOAD DUP2 DUP2 MSTORE DUP3 DUP11 DUP3 ADD MSTORE DUP7 DUP7 PUSH32 0x33C49DA1FF633FF516CC2661D0CD94AF11B7B76985B6FE549151782C14DB745A PUSH1 0x40 CALLER SWAP5 LOG4 PUSH1 0x6 SLOAD SWAP1 PUSH2 0x1E33 DUP3 PUSH2 0x3638 JUMP JUMPDEST PUSH1 0x6 SSTORE PUSH1 0x40 MLOAD SWAP3 CALLER DUP5 MSTORE DUP11 DUP5 ADD MSTORE PUSH1 0x40 DUP4 ADD MSTORE PUSH1 0x60 DUP3 ADD MSTORE LOG4 PUSH1 0x40 MLOAD SWAP1 DUP2 MSTORE LOG2 PUSH1 0x1 DUP1 SSTORE STOP JUMPDEST PUSH2 0x1E70 SWAP2 POP DUP12 RETURNDATASIZE DUP14 GT PUSH2 0x813 JUMPI PUSH2 0x805 DUP2 DUP4 PUSH2 0x331B JUMP JUMPDEST DUP14 PUSH2 0x4C9 JUMP JUMPDEST POP PUSH1 0x1 SHR SWAP3 PUSH2 0x1C3C JUMP JUMPDEST PUSH1 0x40 MLOAD PUSH3 0x461BCD PUSH1 0xE5 SHL DUP2 MSTORE PUSH1 0x20 PUSH1 0x4 DUP3 ADD MSTORE PUSH1 0xD PUSH1 0x24 DUP3 ADD MSTORE PUSH13 0x507269636520746F6F206C6F77 PUSH1 0x98 SHL PUSH1 0x44 DUP3 ADD MSTORE PUSH1 0x64 SWAP1 REVERT JUMPDEST PUSH1 0x40 MLOAD PUSH3 0x461BCD PUSH1 0xE5 SHL DUP2 MSTORE PUSH1 0x20 PUSH1 0x4 DUP3 ADD MSTORE PUSH1 0x13 PUSH1 0x24 DUP3 ADD MSTORE PUSH19 0x496E73756666696369656E7420736861726573 PUSH1 0x68 SHL PUSH1 0x44 DUP3 ADD MSTORE PUSH1 0x64 SWAP1 REVERT JUMPDEST CALLVALUE PUSH2 0x2AC JUMPI PUSH1 0x20 DUP1 PUSH1 0x3 NOT CALLDATASIZE ADD SLT PUSH2 0x2AC JUMPI PUSH1 0x4 CALLDATALOAD SWAP1 PUSH0 PUSH1 0xA0 PUSH1 0x40 MLOAD PUSH2 0x1F15 DUP2 PUSH2 0x32C9 JUMP JUMPDEST DUP3 DUP2 MSTORE DUP3 DUP5 DUP3 ADD MSTORE DUP3 PUSH1 0x40 DUP3 ADD MSTORE DUP3 PUSH1 0x60 DUP3 ADD MSTORE DUP3 PUSH1 0x80 DUP3 ADD MSTORE ADD MSTORE PUSH2 0x1F3E PUSH1 0x4 SLOAD DUP4 LT PUSH2 0x36C2 JUMP JUMPDEST DUP2 PUSH0 MSTORE PUSH1 0x8 DUP2 MSTORE PUSH1 0x40 PUSH0 KECCAK256 SWAP1 PUSH0 DUP1 PUSH1 0x9 DUP5 ADD SLOAD SWAP2 PUSH1 0xA DUP6 ADD JUMPDEST DUP4 DUP3 LT PUSH2 0x2048 JUMPI POP POP SWAP1 PUSH2 0x1F6A SWAP2 PUSH2 0x3653 JUMP JUMPDEST SWAP3 PUSH1 0xD PUSH1 0x7 DUP5 ADD SLOAD SWAP4 ADD SLOAD DUP2 PUSH0 MSTORE PUSH1 0xC DUP4 MSTORE PUSH1 0x40 PUSH0 KECCAK256 DUP1 SLOAD SWAP1 DUP2 ISZERO ISZERO PUSH0 EQ PUSH2 0x203F JUMPI PUSH0 NOT DUP3 ADD SWAP2 DUP3 GT PUSH2 0x71D JUMPI PUSH1 0x4 SWAP2 PUSH2 0x1FA3 SWAP2 PUSH2 0x3217 JUMP JUMPDEST POP ADD SLOAD SWAP2 JUMPDEST PUSH0 MSTORE PUSH1 0xC DUP4 MSTORE PUSH1 0x40 PUSH0 KECCAK256 SWAP5 DUP6 SLOAD DUP1 ISZERO ISZERO PUSH0 EQ PUSH2 0x2033 JUMPI PUSH0 NOT DUP2 ADD SWAP1 DUP2 GT PUSH2 0x71D JUMPI PUSH2 0x1FD7 PUSH1 0x6 SWAP2 PUSH1 0xC0 SWAP9 PUSH2 0x3217 JUMP JUMPDEST POP ADD SLOAD SWAP4 JUMPDEST PUSH1 0x40 MLOAD SWAP3 PUSH2 0x1FE9 DUP5 PUSH2 0x32C9 JUMP JUMPDEST DUP7 DUP5 MSTORE DUP2 DUP5 ADD SWAP1 DUP2 MSTORE PUSH1 0x40 DUP5 ADD SWAP3 DUP4 MSTORE PUSH1 0xA0 PUSH1 0x60 DUP6 ADD SWAP5 PUSH0 DUP7 MSTORE PUSH1 0x80 DUP2 ADD SWAP7 DUP8 MSTORE ADD SWAP6 DUP7 MSTORE PUSH1 0x40 MLOAD SWAP7 DUP8 MSTORE MLOAD SWAP1 DUP7 ADD MSTORE MLOAD PUSH1 0x40 DUP6 ADD MSTORE MLOAD PUSH1 0x60 DUP5 ADD MSTORE MLOAD PUSH1 0x80 DUP4 ADD MSTORE MLOAD PUSH1 0xA0 DUP3 ADD MSTORE RETURN JUMPDEST POP PUSH1 0xC0 SWAP6 POP PUSH0 SWAP4 PUSH2 0x1FDC JUMP JUMPDEST POP POP PUSH0 SWAP2 PUSH2 0x1FA8 JUMP JUMPDEST SWAP1 SWAP2 PUSH2 0x2064 PUSH1 0x1 SWAP2 DUP5 PUSH0 MSTORE DUP4 DUP8 MSTORE PUSH1 0x4 PUSH1 0x40 PUSH0 KECCAK256 ADD SLOAD SWAP1 PUSH2 0x3646 JUMP JUMPDEST SWAP3 ADD SWAP1 PUSH2 0x1F57 JUMP JUMPDEST CALLVALUE PUSH2 0x2AC JUMPI PUSH1 0x40 CALLDATASIZE PUSH1 0x3 NOT ADD SLT PUSH2 0x2AC JUMPI PUSH1 0x4 CALLDATALOAD PUSH1 0x24 CALLDATALOAD PUSH1 0x1 PUSH1 0x1 PUSH1 0x40 SHL SUB DUP2 GT PUSH2 0x2AC JUMPI PUSH2 0x209F SWAP1 CALLDATASIZE SWAP1 PUSH1 0x4 ADD PUSH2 0x333C JUMP JUMPDEST PUSH2 0x20AC PUSH1 0x4 SLOAD DUP4 LT PUSH2 0x36C2 JUMP JUMPDEST DUP2 PUSH0 MSTORE PUSH1 0x8 SWAP1 PUSH1 0x20 SWAP2 DUP1 DUP4 MSTORE PUSH1 0xFF PUSH1 0x5 PUSH1 0x40 PUSH0 KECCAK256 ADD SLOAD AND ISZERO PUSH2 0x21F5 JUMPI DUP4 PUSH0 MSTORE DUP1 DUP4 MSTORE PUSH1 0xFF PUSH1 0x5 PUSH1 0x40 PUSH0 KECCAK256 ADD SLOAD DUP3 SHR AND PUSH2 0x21B0 JUMPI DUP4 PUSH0 MSTORE DUP1 DUP4 MSTORE PUSH1 0xB PUSH1 0x40 PUSH0 KECCAK256 ADD CALLER PUSH0 MSTORE DUP4 MSTORE PUSH1 0x40 PUSH0 KECCAK256 DUP5 PUSH0 MSTORE DUP2 DUP5 MSTORE PUSH1 0x4 PUSH1 0x40 PUSH0 KECCAK256 ADD SLOAD PUSH0 MSTORE DUP4 MSTORE PUSH1 0x40 PUSH0 KECCAK256 SLOAD PUSH2 0x216B JUMPI SWAP2 PUSH2 0x2166 PUSH1 0x40 SWAP3 PUSH32 0xF20590B2CB9AF0BB070AD77DE2C0B74DB291DD43666E7A386FFB0E65974B050A SWAP5 DUP7 PUSH0 MSTORE DUP4 MSTORE PUSH1 0x5 DUP5 PUSH0 KECCAK256 ADD PUSH2 0x100 PUSH2 0xFF00 NOT DUP3 SLOAD AND OR SWAP1 SSTORE DUP4 MLOAD SWAP4 DUP5 SWAP4 CALLER DUP6 MSTORE DUP5 ADD MSTORE PUSH1 0x40 DUP4 ADD SWAP1 PUSH2 0x3427 JUMP JUMPDEST SUB SWAP1 LOG2 STOP JUMPDEST PUSH1 0x40 MLOAD PUSH3 0x461BCD PUSH1 0xE5 SHL DUP2 MSTORE PUSH1 0x4 DUP2 ADD DUP5 SWAP1 MSTORE PUSH1 0x19 PUSH1 0x24 DUP3 ADD MSTORE PUSH32 0x43616E6E6F74206469737075746520696620796F7520776F6E00000000000000 PUSH1 0x44 DUP3 ADD MSTORE PUSH1 0x64 SWAP1 REVERT JUMPDEST PUSH1 0x40 MLOAD PUSH3 0x461BCD PUSH1 0xE5 SHL DUP2 MSTORE PUSH1 0x4 DUP2 ADD DUP5 SWAP1 MSTORE PUSH1 0x17 PUSH1 0x24 DUP3 ADD MSTORE PUSH32 0x4D61726B657420616C7265616479206469737075746564000000000000000000 PUSH1 0x44 DUP3 ADD MSTORE PUSH1 0x64 SWAP1 REVERT JUMPDEST PUSH1 0x40 MLOAD PUSH3 0x461BCD PUSH1 0xE5 SHL DUP2 MSTORE PUSH1 0x4 DUP2 ADD DUP5 SWAP1 MSTORE PUSH1 0x17 PUSH1 0x24 DUP3 ADD MSTORE PUSH32 0x4D61726B6574206E6F74207265736F6C76656420796574000000000000000000 PUSH1 0x44 DUP3 ADD MSTORE PUSH1 0x64 SWAP1 REVERT JUMPDEST CALLVALUE PUSH2 0x2AC JUMPI PUSH0 CALLDATASIZE PUSH1 0x3 NOT ADD SLT PUSH2 0x2AC JUMPI PUSH1 0x3 SLOAD PUSH1 0x40 MLOAD PUSH1 0x8 SWAP2 SWAP1 SWAP2 SHR PUSH1 0x1 PUSH1 0x1 PUSH1 0xA0 SHL SUB AND DUP2 MSTORE PUSH1 0x20 SWAP1 RETURN JUMPDEST CALLVALUE PUSH2 0x2AC JUMPI PUSH0 CALLDATASIZE PUSH1 0x3 NOT ADD SLT PUSH2 0x2AC JUMPI PUSH2 0x227E PUSH2 0x3C37 JUMP JUMPDEST PUSH1 0x3 SLOAD PUSH1 0xFF DUP2 AND ISZERO PUSH2 0x22BD JUMPI PUSH1 0xFF NOT AND PUSH1 0x3 SSTORE PUSH32 0x5DB9EE0A495BF2E6FF9C91A7834C1BA4FDD244A5E8AA4E537BD38AEAE4B073AA PUSH1 0x20 PUSH1 0x40 MLOAD CALLER DUP2 MSTORE LOG1 STOP JUMPDEST PUSH1 0x40 MLOAD PUSH4 0x8DFC202B PUSH1 0xE0 SHL DUP2 MSTORE PUSH1 0x4 SWAP1 REVERT JUMPDEST CALLVALUE PUSH2 0x2AC JUMPI PUSH1 0x20 CALLDATASIZE PUSH1 0x3 NOT ADD SLT PUSH2 0x2AC JUMPI PUSH1 0x4 CALLDATALOAD PUSH2 0x22F0 PUSH1 0x4 SLOAD DUP3 LT PUSH2 0x36C2 JUMP JUMPDEST PUSH0 MSTORE PUSH1 0x8 PUSH1 0x20 MSTORE PUSH2 0x234C PUSH1 0x40 PUSH0 KECCAK256 PUSH1 0x2 DUP2 ADD SLOAD PUSH1 0xFF PUSH1 0x3 DUP4 ADD SLOAD AND PUSH1 0x9 DUP4 ADD SLOAD SWAP1 PUSH1 0x5 DUP5 ADD SLOAD SWAP2 PUSH2 0x236A PUSH1 0x4 DUP7 ADD SLOAD SWAP3 PUSH2 0x235A PUSH2 0x2338 PUSH1 0x1 PUSH2 0x2331 DUP11 PUSH2 0x356C JUMP JUMPDEST SWAP10 ADD PUSH2 0x356C JUMP JUMPDEST PUSH1 0x40 MLOAD SWAP10 DUP11 SWAP10 PUSH2 0x120 DUP1 DUP13 MSTORE DUP12 ADD SWAP1 PUSH2 0x3427 JUMP JUMPDEST SWAP1 DUP10 DUP3 SUB PUSH1 0x20 DUP12 ADD MSTORE PUSH2 0x3427 JUMP JUMPDEST SWAP6 PUSH1 0x40 DUP9 ADD MSTORE PUSH1 0x60 DUP8 ADD SWAP1 PUSH2 0x3465 JUMP JUMPDEST PUSH1 0x80 DUP6 ADD MSTORE PUSH1 0xFF DUP3 DUP2 AND ISZERO ISZERO PUSH1 0xA0 DUP7 ADD MSTORE PUSH1 0x8 DUP4 SWAP1 SHR AND ISZERO ISZERO PUSH1 0xC0 DUP6 ADD MSTORE PUSH1 0xE0 DUP5 ADD MSTORE PUSH1 0x18 SHR PUSH1 0x1 PUSH1 0x1 PUSH1 0xA0 SHL SUB AND PUSH2 0x100 DUP4 ADD MSTORE SUB SWAP1 RETURN JUMPDEST CALLVALUE PUSH2 0x2AC JUMPI PUSH1 0x40 CALLDATASIZE PUSH1 0x3 NOT ADD SLT PUSH2 0x2AC JUMPI PUSH2 0x23BC PUSH2 0x3201 JUMP JUMPDEST CALLER PUSH1 0x1 PUSH1 0x1 PUSH1 0xA0 SHL SUB DUP3 AND SUB PUSH2 0x23D8 JUMPI PUSH2 0x8D4 SWAP1 PUSH1 0x4 CALLDATALOAD PUSH2 0x3C62 JUMP JUMPDEST PUSH1 0x40 MLOAD PUSH4 0x334BD919 PUSH1 0xE1 SHL DUP2 MSTORE PUSH1 0x4 SWAP1 REVERT JUMPDEST CALLVALUE PUSH2 0x2AC JUMPI PUSH1 0x20 CALLDATASIZE PUSH1 0x3 NOT ADD SLT PUSH2 0x2AC JUMPI PUSH2 0x8D4 PUSH2 0x2406 PUSH2 0x31EB JUMP JUMPDEST PUSH2 0x240E PUSH2 0x3C37 JUMP JUMPDEST PUSH32 0xDCEE1D35C83A32B436264A5C9AFD68685C124F3F9097E87804C55410E67FC59A PUSH0 MSTORE PUSH1 0x2 PUSH1 0x20 MSTORE PUSH32 0x8E2C297E756B2A427C5DC4607F639842A8EA6E0F6322302F4EA76306B642CFC3 SLOAD PUSH2 0x2461 SWAP1 PUSH2 0x39D4 JUMP JUMPDEST PUSH2 0x3A14 JUMP JUMPDEST CALLVALUE PUSH2 0x2AC JUMPI PUSH0 CALLDATASIZE PUSH1 0x3 NOT ADD SLT PUSH2 0x2AC JUMPI PUSH1 0x20 PUSH1 0x40 MLOAD PUSH0 DUP1 MLOAD PUSH1 0x20 PUSH2 0x3D7E DUP4 CODECOPY DUP2 MLOAD SWAP2 MSTORE DUP2 MSTORE RETURN JUMPDEST CALLVALUE PUSH2 0x2AC JUMPI PUSH1 0x40 CALLDATASIZE PUSH1 0x3 NOT ADD SLT PUSH2 0x2AC JUMPI PUSH2 0x8D4 PUSH1 0x4 CALLDATALOAD PUSH2 0x24AC PUSH2 0x3201 JUMP JUMPDEST SWAP1 DUP1 PUSH0 MSTORE PUSH1 0x2 PUSH1 0x20 MSTORE PUSH2 0x24C5 PUSH1 0x1 PUSH1 0x40 PUSH0 KECCAK256 ADD SLOAD PUSH2 0x39D4 JUMP JUMPDEST PUSH2 0x3BD2 JUMP JUMPDEST CALLVALUE PUSH2 0x2AC JUMPI PUSH2 0x24D8 CALLDATASIZE PUSH2 0x3298 JUMP JUMPDEST SWAP1 PUSH0 MSTORE PUSH1 0xE PUSH1 0x20 MSTORE PUSH1 0x40 PUSH0 KECCAK256 DUP1 SLOAD DUP3 LT ISZERO PUSH2 0x2AC JUMPI PUSH1 0x20 SWAP2 PUSH2 0xD07 SWAP2 PUSH2 0x31D6 JUMP JUMPDEST CALLVALUE PUSH2 0x2AC JUMPI PUSH1 0x20 CALLDATASIZE PUSH1 0x3 NOT ADD SLT PUSH2 0x2AC JUMPI PUSH1 0x4 CALLDATALOAD PUSH0 MSTORE PUSH1 0x2 PUSH1 0x20 MSTORE PUSH1 0x20 PUSH1 0x1 PUSH1 0x40 PUSH0 KECCAK256 ADD SLOAD PUSH1 0x40 MLOAD SWAP1 DUP2 MSTORE RETURN JUMPDEST CALLVALUE PUSH2 0x2AC JUMPI PUSH0 CALLDATASIZE PUSH1 0x3 NOT ADD SLT PUSH2 0x2AC JUMPI PUSH1 0x20 PUSH1 0x5 SLOAD PUSH1 0x40 MLOAD SWAP1 DUP2 MSTORE RETURN JUMPDEST CALLVALUE PUSH2 0x2AC JUMPI PUSH2 0x2551 CALLDATASIZE PUSH2 0x3298 JUMP JUMPDEST SWAP1 PUSH2 0x255F PUSH1 0x4 SLOAD DUP3 LT PUSH2 0x36C2 JUMP JUMPDEST PUSH0 MSTORE PUSH1 0x8 PUSH1 0x20 MSTORE PUSH1 0xA PUSH1 0x40 PUSH0 KECCAK256 ADD SWAP1 PUSH0 MSTORE PUSH1 0x20 MSTORE PUSH2 0x25BE PUSH1 0x40 PUSH0 KECCAK256 PUSH1 0x2 DUP2 ADD SLOAD PUSH1 0x3 DUP3 ADD SLOAD PUSH1 0x4 DUP4 ADD SLOAD PUSH1 0xFF PUSH1 0x5 DUP6 ADD SLOAD AND SWAP2 PUSH2 0x25CC PUSH2 0x25AA PUSH1 0x1 PUSH2 0x25A3 DUP9 PUSH2 0x356C JUMP JUMPDEST SWAP8 ADD PUSH2 0x356C JUMP JUMPDEST PUSH1 0x40 MLOAD SWAP8 DUP9 SWAP8 PUSH1 0xC0 DUP10 MSTORE PUSH1 0xC0 DUP10 ADD SWAP1 PUSH2 0x3427 JUMP JUMPDEST SWAP1 DUP8 DUP3 SUB PUSH1 0x20 DUP10 ADD MSTORE PUSH2 0x3427 JUMP JUMPDEST SWAP4 PUSH1 0x40 DUP7 ADD MSTORE PUSH1 0x60 DUP6 ADD MSTORE PUSH1 0x80 DUP5 ADD MSTORE ISZERO ISZERO PUSH1 0xA0 DUP4 ADD MSTORE SUB SWAP1 RETURN JUMPDEST CALLVALUE PUSH2 0x2AC JUMPI PUSH1 0xC0 CALLDATASIZE PUSH1 0x3 NOT ADD SLT PUSH2 0x2AC JUMPI PUSH1 0x4 CALLDATALOAD PUSH1 0x1 PUSH1 0x1 PUSH1 0x40 SHL SUB DUP2 GT PUSH2 0x2AC JUMPI PUSH2 0x2617 SWAP1 CALLDATASIZE SWAP1 PUSH1 0x4 ADD PUSH2 0x333C JUMP JUMPDEST PUSH1 0x24 CALLDATALOAD PUSH1 0x1 PUSH1 0x1 PUSH1 0x40 SHL SUB DUP2 GT PUSH2 0x2AC JUMPI PUSH2 0x2636 SWAP1 CALLDATASIZE SWAP1 PUSH1 0x4 ADD PUSH2 0x333C JUMP JUMPDEST SWAP1 PUSH1 0x44 SWAP2 DUP3 CALLDATALOAD PUSH1 0x1 PUSH1 0x1 PUSH1 0x40 SHL SUB DUP2 GT PUSH2 0x2AC JUMPI PUSH2 0x2658 SWAP1 CALLDATASIZE SWAP1 PUSH1 0x4 ADD PUSH2 0x33A8 JUMP JUMPDEST SWAP1 PUSH1 0x64 SWAP4 DUP5 CALLDATALOAD PUSH1 0x1 PUSH1 0x1 PUSH1 0x40 SHL SUB DUP2 GT PUSH2 0x2AC JUMPI PUSH2 0x267A SWAP1 CALLDATASIZE SWAP1 PUSH1 0x4 ADD PUSH2 0x33A8 JUMP JUMPDEST SWAP5 PUSH1 0xA PUSH1 0xA4 CALLDATALOAD LT ISZERO PUSH2 0x2AC JUMPI PUSH2 0x268E PUSH2 0x39B6 JUMP JUMPDEST PUSH0 SLOAD PUSH1 0x1 PUSH1 0x1 PUSH1 0xA0 SHL SUB AND CALLER EQ DUP1 ISZERO PUSH2 0x2F10 JUMPI JUMPDEST ISZERO PUSH2 0x2ECE JUMPI PUSH2 0xE10 PUSH1 0x84 CALLDATALOAD LT ISZERO DUP1 PUSH2 0x2EBE JUMPI JUMPDEST ISZERO PUSH2 0x2E89 JUMPI DUP5 MLOAD ISZERO PUSH2 0x2E47 JUMPI DUP4 MLOAD PUSH1 0x2 DUP2 LT ISZERO SWAP1 DUP2 PUSH2 0x2E3B JUMPI JUMPDEST POP ISZERO PUSH2 0x2DF9 JUMPI DUP4 MLOAD DUP7 MLOAD SUB PUSH2 0x2DA5 JUMPI POP POP PUSH1 0x4 SLOAD SWAP1 PUSH2 0x26ED DUP3 PUSH2 0x3638 JUMP JUMPDEST PUSH1 0x4 SSTORE DUP2 PUSH0 MSTORE PUSH1 0x8 PUSH1 0x20 MSTORE PUSH1 0x40 PUSH0 KECCAK256 SWAP1 DUP5 MLOAD PUSH1 0x1 PUSH1 0x1 PUSH1 0x40 SHL SUB DUP2 GT PUSH2 0x7C7 JUMPI PUSH2 0x2717 DUP4 SLOAD PUSH2 0x3534 JUMP JUMPDEST PUSH1 0x1F DUP2 GT PUSH2 0x2D64 JUMPI JUMPDEST POP DUP1 PUSH1 0x20 PUSH1 0x1F DUP3 GT PUSH1 0x1 EQ PUSH2 0x2D01 JUMPI PUSH0 SWAP2 PUSH2 0x2CF6 JUMPI JUMPDEST POP DUP2 PUSH1 0x1 SHL SWAP2 PUSH0 NOT SWAP1 PUSH1 0x3 SHL SHR NOT AND OR DUP3 SSTORE JUMPDEST DUP1 MLOAD SWAP1 PUSH1 0x1 PUSH1 0x1 PUSH1 0x40 SHL SUB DUP3 GT PUSH2 0x7C7 JUMPI DUP2 SWAP1 PUSH2 0x2769 PUSH1 0x1 DUP6 ADD SLOAD PUSH2 0x3534 JUMP JUMPDEST PUSH1 0x1F DUP2 GT PUSH2 0x2CA6 JUMPI JUMPDEST POP PUSH1 0x20 SWAP1 PUSH1 0x1F DUP4 GT PUSH1 0x1 EQ PUSH2 0x2C38 JUMPI PUSH0 SWAP3 PUSH2 0x2C2D JUMPI JUMPDEST POP POP DUP2 PUSH1 0x1 SHL SWAP2 PUSH0 NOT SWAP1 PUSH1 0x3 SHL SHR NOT AND OR PUSH1 0x1 DUP3 ADD SSTORE JUMPDEST PUSH2 0x27AB PUSH1 0x84 CALLDATALOAD TIMESTAMP PUSH2 0x3646 JUMP JUMPDEST PUSH1 0x2 DUP3 ADD SSTORE PUSH1 0x3 DUP2 ADD DUP1 SLOAD PUSH1 0xFF NOT AND PUSH1 0xFF PUSH1 0xA4 CALLDATALOAD AND OR SWAP1 SSTORE PUSH1 0x5 DUP2 ADD DUP1 SLOAD PUSH4 0x1000000 PUSH1 0x1 PUSH1 0xB8 SHL SUB CALLER PUSH1 0x18 SHL AND PUSH4 0x1000000 PUSH1 0x1 PUSH1 0xB8 SHL SUB NOT SWAP1 SWAP2 AND OR SWAP1 SSTORE TIMESTAMP PUSH1 0x8 DUP3 ADD SSTORE DUP3 MLOAD PUSH1 0x9 DUP3 ADD DUP2 SWAP1 SSTORE SWAP3 DUP4 ISZERO PUSH2 0x2C19 JUMPI PUSH0 JUMPDEST DUP2 MLOAD DUP2 LT ISZERO PUSH2 0x2B19 JUMPI PUSH2 0x2816 DUP2 DUP4 PUSH2 0x365D JUMP JUMPDEST MLOAD PUSH2 0x2821 DUP3 DUP10 PUSH2 0x365D JUMP JUMPDEST MLOAD PUSH1 0x40 MLOAD SWAP2 PUSH2 0x282F DUP4 PUSH2 0x32C9 JUMP JUMPDEST DUP3 MSTORE PUSH1 0x20 DUP3 ADD MSTORE PUSH0 PUSH1 0x40 DUP3 ADD MSTORE PUSH0 PUSH1 0x60 DUP3 ADD MSTORE DUP6 PUSH8 0xDE0B6B3A7640000 DIV PUSH1 0x80 DUP3 ADD MSTORE PUSH1 0x1 PUSH1 0xA0 DUP3 ADD MSTORE DUP2 PUSH0 MSTORE PUSH1 0xA DUP5 ADD PUSH1 0x20 MSTORE PUSH1 0x40 PUSH0 KECCAK256 DUP2 MLOAD DUP1 MLOAD SWAP1 PUSH1 0x1 PUSH1 0x1 PUSH1 0x40 SHL SUB DUP3 GT PUSH2 0x7C7 JUMPI DUP2 SWAP1 PUSH2 0x2886 DUP5 SLOAD PUSH2 0x3534 JUMP JUMPDEST PUSH1 0x1F DUP2 GT PUSH2 0x2ACC JUMPI JUMPDEST POP PUSH1 0x20 SWAP1 PUSH1 0x1F DUP4 GT PUSH1 0x1 EQ PUSH2 0x2A64 JUMPI PUSH0 SWAP3 PUSH2 0x2A59 JUMPI JUMPDEST POP POP DUP2 PUSH1 0x1 SHL SWAP2 PUSH0 NOT SWAP1 PUSH1 0x3 SHL SHR NOT AND OR DUP2 SSTORE JUMPDEST PUSH1 0x20 DUP3 ADD MLOAD DUP1 MLOAD SWAP1 PUSH1 0x1 PUSH1 0x1 PUSH1 0x40 SHL SUB DUP3 GT PUSH2 0x7C7 JUMPI PUSH2 0x28DC PUSH1 0x1 DUP5 ADD SLOAD PUSH2 0x3534 JUMP JUMPDEST PUSH1 0x1F DUP2 GT PUSH2 0x2A15 JUMPI JUMPDEST POP PUSH1 0x20 SWAP1 PUSH1 0x1F DUP4 GT PUSH1 0x1 EQ PUSH2 0x29A2 JUMPI SWAP3 DUP3 PUSH1 0xA0 SWAP4 PUSH1 0x5 SWAP4 PUSH1 0x1 SWAP9 SWAP8 SWAP7 PUSH0 SWAP3 PUSH2 0x2997 JUMPI JUMPDEST POP POP PUSH0 NOT PUSH1 0x3 DUP4 SWAP1 SHL SHR NOT AND SWAP1 DUP8 SHL OR DUP2 DUP8 ADD SSTORE JUMPDEST PUSH1 0x40 DUP5 ADD MLOAD PUSH1 0x2 DUP3 ADD SSTORE PUSH1 0x60 DUP5 ADD MLOAD PUSH1 0x3 DUP3 ADD SSTORE PUSH1 0x80 DUP5 ADD MLOAD PUSH1 0x4 DUP3 ADD SSTORE ADD SWAP2 ADD MLOAD ISZERO ISZERO PUSH1 0xFF DUP1 NOT DUP4 SLOAD AND SWAP2 AND OR SWAP1 SSTORE DUP5 PUSH0 MSTORE PUSH1 0xD PUSH1 0x20 MSTORE PUSH1 0x40 PUSH0 KECCAK256 DUP2 PUSH0 MSTORE PUSH1 0x20 MSTORE PUSH2 0x2991 PUSH1 0x40 PUSH0 KECCAK256 PUSH1 0x40 MLOAD SWAP1 PUSH2 0x2973 DUP3 PUSH2 0x32E4 JUMP JUMPDEST DUP9 PUSH8 0xDE0B6B3A7640000 DIV DUP3 MSTORE TIMESTAMP PUSH1 0x20 DUP4 ADD MSTORE PUSH0 PUSH1 0x40 DUP4 ADD MSTORE PUSH2 0x3671 JUMP JUMPDEST ADD PUSH2 0x2803 JUMP JUMPDEST ADD MLOAD SWAP1 POP DUP15 DUP1 PUSH2 0x2908 JUMP JUMPDEST SWAP1 PUSH1 0x1 DUP5 ADD PUSH0 MSTORE PUSH1 0x20 PUSH0 KECCAK256 SWAP2 PUSH0 JUMPDEST PUSH1 0x1F NOT DUP6 AND DUP2 LT PUSH2 0x29FD JUMPI POP DUP4 PUSH1 0x5 SWAP4 PUSH1 0x1 SWAP9 SWAP8 SWAP7 SWAP4 DUP10 SWAP4 PUSH1 0xA0 SWAP8 PUSH1 0x1F NOT DUP2 AND LT PUSH2 0x29E5 JUMPI JUMPDEST POP POP POP DUP2 SHL ADD DUP7 DUP3 ADD SSTORE PUSH2 0x291D JUMP JUMPDEST ADD MLOAD PUSH0 NOT PUSH1 0xF8 DUP5 PUSH1 0x3 SHL AND SHR NOT AND SWAP1 SSTORE DUP15 DUP1 DUP1 PUSH2 0x29D6 JUMP JUMPDEST SWAP2 SWAP3 PUSH1 0x20 PUSH1 0x1 DUP2 SWAP3 DUP7 DUP6 ADD MLOAD DUP2 SSTORE ADD SWAP5 ADD SWAP3 ADD PUSH2 0x29B0 JUMP JUMPDEST PUSH1 0x1 DUP5 ADD PUSH0 MSTORE PUSH1 0x20 PUSH0 KECCAK256 PUSH1 0x1F DUP5 ADD PUSH1 0x5 SHR DUP2 ADD PUSH1 0x20 DUP6 LT PUSH2 0x2A52 JUMPI JUMPDEST PUSH1 0x1F DUP4 ADD PUSH1 0x5 SHR DUP3 ADD DUP2 LT PUSH2 0x2A47 JUMPI POP POP PUSH2 0x28E5 JUMP JUMPDEST PUSH0 DUP2 SSTORE PUSH1 0x1 ADD PUSH2 0x2A31 JUMP JUMPDEST POP DUP1 PUSH2 0x2A31 JUMP JUMPDEST ADD MLOAD SWAP1 POP DUP12 DUP1 PUSH2 0x28A5 JUMP JUMPDEST SWAP3 POP DUP4 PUSH0 MSTORE PUSH1 0x20 PUSH0 KECCAK256 SWAP1 PUSH0 SWAP4 JUMPDEST PUSH1 0x1F NOT DUP5 AND DUP6 LT PUSH2 0x2AB1 JUMPI PUSH1 0x1 SWAP5 POP DUP4 PUSH1 0x1F NOT DUP2 AND LT PUSH2 0x2A99 JUMPI JUMPDEST POP POP POP DUP2 SHL ADD DUP2 SSTORE PUSH2 0x28B9 JUMP JUMPDEST ADD MLOAD PUSH0 NOT PUSH1 0xF8 DUP5 PUSH1 0x3 SHL AND SHR NOT AND SWAP1 SSTORE DUP12 DUP1 DUP1 PUSH2 0x2A8C JUMP JUMPDEST DUP2 DUP2 ADD MLOAD DUP4 SSTORE PUSH1 0x20 SWAP5 DUP6 ADD SWAP5 PUSH1 0x1 SWAP1 SWAP4 ADD SWAP3 SWAP1 SWAP2 ADD SWAP1 PUSH2 0x2A71 JUMP JUMPDEST SWAP1 SWAP2 POP DUP4 PUSH0 MSTORE PUSH1 0x20 PUSH0 KECCAK256 PUSH1 0x1F DUP5 ADD PUSH1 0x5 SHR DUP2 ADD PUSH1 0x20 DUP6 LT PUSH2 0x2B12 JUMPI JUMPDEST SWAP1 DUP5 SWAP4 SWAP3 SWAP2 JUMPDEST PUSH1 0x1F DUP4 ADD PUSH1 0x5 SHR DUP3 ADD DUP2 LT PUSH2 0x2B04 JUMPI POP POP PUSH2 0x288F JUMP JUMPDEST PUSH0 DUP2 SSTORE DUP6 SWAP5 POP PUSH1 0x1 ADD PUSH2 0x2AEE JUMP JUMPDEST POP DUP1 PUSH2 0x2AE8 JUMP JUMPDEST POP SWAP2 SWAP3 POP PUSH2 0x2B28 PUSH1 0xA4 CALLDATALOAD PUSH2 0x351D JUMP JUMPDEST SWAP1 DUP2 SLOAD SWAP2 PUSH1 0x1 PUSH1 0x40 SHL DUP4 LT ISZERO PUSH2 0x7C7 JUMPI DUP3 PUSH2 0x2B4A SWAP2 PUSH1 0x1 PUSH1 0x2 SWAP6 ADD DUP2 SSTORE PUSH2 0x31D6 JUMP JUMPDEST DUP2 SLOAD SWAP1 PUSH1 0x3 SHL SWAP1 DUP7 DUP3 SHL SWAP2 PUSH0 NOT SWAP1 SHL NOT AND OR SWAP1 SSTORE ADD SLOAD PUSH2 0x2B75 PUSH1 0x40 MLOAD SWAP5 PUSH1 0xA0 DUP7 MSTORE PUSH1 0xA0 DUP7 ADD SWAP1 PUSH2 0x3427 JUMP JUMPDEST DUP5 DUP2 SUB PUSH1 0x20 DUP7 ADD MSTORE DUP3 MLOAD DUP1 DUP3 MSTORE PUSH1 0x20 DUP3 ADD SWAP2 PUSH1 0x20 DUP1 DUP4 PUSH1 0x5 SHL DUP4 ADD ADD SWAP6 ADD SWAP3 PUSH0 SWAP2 JUMPDEST DUP4 DUP4 LT PUSH2 0x2BEC JUMPI PUSH1 0x20 DUP9 DUP1 PUSH32 0x93F20D1EE811E3A7847933ECA44474C052F00D323DDAC70F72AD001FB49FE915 DUP13 DUP1 DUP13 DUP13 PUSH1 0x40 DUP4 ADD MSTORE PUSH2 0x2BDB PUSH1 0x60 DUP4 ADD PUSH1 0xA4 CALLDATALOAD PUSH2 0x3465 JUMP JUMPDEST CALLER PUSH1 0x80 DUP4 ADD MSTORE SUB SWAP1 LOG2 PUSH1 0x40 MLOAD SWAP1 DUP2 MSTORE RETURN JUMPDEST SWAP1 SWAP2 SWAP3 SWAP4 SWAP6 PUSH1 0x20 DUP1 PUSH2 0x2C0A PUSH1 0x1 SWAP4 PUSH1 0x1F NOT DUP7 DUP3 SUB ADD DUP8 MSTORE DUP11 MLOAD PUSH2 0x3427 JUMP JUMPDEST SWAP9 ADD SWAP4 ADD SWAP4 ADD SWAP2 SWAP4 SWAP3 SWAP1 PUSH2 0x2B97 JUMP JUMPDEST PUSH4 0x4E487B71 PUSH1 0xE0 SHL PUSH0 MSTORE PUSH1 0x12 PUSH1 0x4 MSTORE PUSH1 0x24 PUSH0 REVERT JUMPDEST ADD MLOAD SWAP1 POP DUP8 DUP1 PUSH2 0x2788 JUMP JUMPDEST SWAP3 POP PUSH1 0x1 DUP5 ADD PUSH0 MSTORE PUSH1 0x20 PUSH0 KECCAK256 SWAP1 PUSH0 SWAP4 JUMPDEST PUSH1 0x1F NOT DUP5 AND DUP6 LT PUSH2 0x2C8B JUMPI PUSH1 0x1 SWAP5 POP DUP4 PUSH1 0x1F NOT DUP2 AND LT PUSH2 0x2C73 JUMPI JUMPDEST POP POP POP DUP2 SHL ADD PUSH1 0x1 DUP3 ADD SSTORE PUSH2 0x279F JUMP JUMPDEST ADD MLOAD PUSH0 NOT PUSH1 0xF8 DUP5 PUSH1 0x3 SHL AND SHR NOT AND SWAP1 SSTORE DUP8 DUP1 DUP1 PUSH2 0x2C63 JUMP JUMPDEST DUP2 DUP2 ADD MLOAD DUP4 SSTORE PUSH1 0x20 SWAP5 DUP6 ADD SWAP5 PUSH1 0x1 SWAP1 SWAP4 ADD SWAP3 SWAP1 SWAP2 ADD SWAP1 PUSH2 0x2C48 JUMP JUMPDEST SWAP1 SWAP2 POP PUSH1 0x1 DUP5 ADD PUSH0 MSTORE PUSH1 0x20 PUSH0 KECCAK256 PUSH1 0x1F DUP5 ADD PUSH1 0x5 SHR DUP2 ADD PUSH1 0x20 DUP6 LT PUSH2 0x2CEF JUMPI JUMPDEST SWAP1 DUP5 SWAP4 SWAP3 SWAP2 JUMPDEST PUSH1 0x1F DUP4 ADD PUSH1 0x5 SHR DUP3 ADD DUP2 LT PUSH2 0x2CE1 JUMPI POP POP PUSH2 0x2772 JUMP JUMPDEST PUSH0 DUP2 SSTORE DUP6 SWAP5 POP PUSH1 0x1 ADD PUSH2 0x2CCB JUMP JUMPDEST POP DUP1 PUSH2 0x2CC5 JUMP JUMPDEST SWAP1 POP DUP7 ADD MLOAD DUP9 PUSH2 0x2736 JUMP JUMPDEST SWAP2 POP DUP4 PUSH0 MSTORE PUSH1 0x20 PUSH0 KECCAK256 PUSH0 SWAP3 JUMPDEST PUSH1 0x1F NOT DUP4 AND DUP5 LT PUSH2 0x2D4C JUMPI PUSH1 0x1 SWAP4 POP DUP3 PUSH1 0x1F NOT DUP2 AND LT PUSH2 0x2D34 JUMPI JUMPDEST POP POP DUP2 SHL ADD DUP3 SSTORE PUSH2 0x2749 JUMP JUMPDEST DUP9 ADD MLOAD PUSH0 NOT PUSH1 0xF8 DUP5 PUSH1 0x3 SHL AND SHR NOT AND SWAP1 SSTORE DUP9 DUP1 PUSH2 0x2D28 JUMP JUMPDEST DUP9 DUP2 ADD MLOAD DUP3 SSTORE PUSH1 0x20 SWAP4 DUP5 ADD SWAP4 PUSH1 0x1 SWAP1 SWAP3 ADD SWAP2 ADD PUSH2 0x2D0D JUMP JUMPDEST DUP4 PUSH0 MSTORE PUSH1 0x20 PUSH0 KECCAK256 PUSH1 0x1F DUP4 ADD PUSH1 0x5 SHR DUP2 ADD PUSH1 0x20 DUP5 LT PUSH2 0x2D9E JUMPI JUMPDEST PUSH1 0x1F DUP4 ADD PUSH1 0x5 SHR DUP3 ADD DUP2 LT PUSH2 0x2D93 JUMPI POP POP PUSH2 0x2720 JUMP JUMPDEST PUSH0 DUP2 SSTORE PUSH1 0x1 ADD PUSH2 0x2D7D JUMP JUMPDEST POP DUP1 PUSH2 0x2D7D JUMP JUMPDEST SWAP1 PUSH8 0xDAD2E6DAC2E8C6D PUSH1 0xC3 SHL PUSH1 0x84 SWAP3 PUSH32 0x4F7074696F6E7320616E64206465736372697074696F6E73206C656E67746820 PUSH1 0x40 MLOAD SWAP4 PUSH3 0x461BCD PUSH1 0xE5 SHL DUP6 MSTORE PUSH1 0x20 PUSH1 0x4 DUP7 ADD MSTORE PUSH1 0x28 PUSH1 0x24 DUP7 ADD MSTORE DUP5 ADD MSTORE DUP3 ADD MSTORE REVERT JUMPDEST SWAP1 PUSH32 0x496E76616C6964206E756D626572206F66206F7074696F6E7300000000000000 PUSH1 0x40 MLOAD SWAP2 PUSH3 0x461BCD PUSH1 0xE5 SHL DUP4 MSTORE PUSH1 0x20 PUSH1 0x4 DUP5 ADD MSTORE PUSH1 0x19 PUSH1 0x24 DUP5 ADD MSTORE DUP3 ADD MSTORE REVERT JUMPDEST PUSH1 0xA SWAP2 POP GT ISZERO DUP8 PUSH2 0x26CF JUMP JUMPDEST SWAP1 PUSH32 0x5175657374696F6E2063616E6E6F7420626520656D7074790000000000000000 PUSH1 0x40 MLOAD SWAP2 PUSH3 0x461BCD PUSH1 0xE5 SHL DUP4 MSTORE PUSH1 0x20 PUSH1 0x4 DUP5 ADD MSTORE PUSH1 0x18 PUSH1 0x24 DUP5 ADD MSTORE DUP3 ADD MSTORE REVERT JUMPDEST SWAP1 PUSH16 0x24B73B30B634B210323AB930BA34B7B7 PUSH1 0x81 SHL PUSH1 0x40 MLOAD SWAP2 PUSH3 0x461BCD PUSH1 0xE5 SHL DUP4 MSTORE PUSH1 0x20 PUSH1 0x4 DUP5 ADD MSTORE PUSH1 0x10 PUSH1 0x24 DUP5 ADD MSTORE DUP3 ADD MSTORE REVERT JUMPDEST POP PUSH4 0x1E13380 PUSH1 0x84 CALLDATALOAD GT ISZERO PUSH2 0x26B5 JUMP JUMPDEST SWAP1 PUSH32 0x4E6F7420617574686F72697A656420746F20637265617465206D61726B657473 PUSH1 0x40 MLOAD SWAP2 PUSH3 0x461BCD PUSH1 0xE5 SHL DUP4 MSTORE PUSH1 0x20 PUSH1 0x4 DUP5 ADD MSTORE PUSH1 0x20 PUSH1 0x24 DUP5 ADD MSTORE DUP3 ADD MSTORE REVERT JUMPDEST POP CALLER PUSH0 SWAP1 DUP2 MSTORE PUSH32 0x30D995518B427F5A5863AD73FE356CA50CF70941F42C516830919C845FA5806F PUSH1 0x20 MSTORE PUSH1 0x40 SWAP1 KECCAK256 SLOAD PUSH1 0xFF AND PUSH2 0x26A2 JUMP JUMPDEST CALLVALUE PUSH2 0x2AC JUMPI PUSH1 0x20 CALLDATASIZE PUSH1 0x3 NOT ADD SLT PUSH2 0x2AC JUMPI PUSH2 0x2F60 PUSH2 0x31EB JUMP JUMPDEST PUSH2 0x2F68 PUSH2 0x360E JUMP JUMPDEST POP PUSH1 0x1 DUP1 PUSH1 0xA0 SHL SUB AND PUSH0 MSTORE PUSH1 0xA PUSH1 0x20 MSTORE PUSH1 0xA0 PUSH1 0x40 PUSH0 KECCAK256 PUSH1 0x40 MLOAD PUSH2 0x2F8A DUP2 PUSH2 0x32AE JUMP JUMPDEST DUP2 SLOAD SWAP2 DUP3 DUP3 MSTORE PUSH1 0x1 DUP2 ADD SLOAD PUSH1 0x20 DUP4 ADD SWAP1 DUP2 MSTORE PUSH1 0x2 DUP3 ADD SLOAD SWAP1 PUSH1 0x40 DUP5 ADD SWAP2 DUP3 MSTORE PUSH1 0x80 PUSH1 0x4 PUSH1 0x3 DUP6 ADD SLOAD SWAP5 PUSH1 0x60 DUP8 ADD SWAP6 DUP7 MSTORE ADD SLOAD SWAP5 ADD SWAP4 DUP5 MSTORE PUSH1 0x40 MLOAD SWAP5 DUP6 MSTORE MLOAD PUSH1 0x20 DUP6 ADD MSTORE MLOAD PUSH1 0x40 DUP5 ADD MSTORE MLOAD PUSH1 0x60 DUP4 ADD MSTORE MLOAD PUSH1 0x80 DUP3 ADD MSTORE RETURN JUMPDEST CALLVALUE PUSH2 0x2AC JUMPI PUSH2 0x2FEF CALLDATASIZE PUSH2 0x3298 JUMP JUMPDEST SWAP1 PUSH0 MSTORE PUSH1 0xC PUSH1 0x20 MSTORE PUSH1 0x40 PUSH0 KECCAK256 SWAP1 DUP2 SLOAD DUP2 LT ISZERO PUSH2 0x2AC JUMPI PUSH2 0x300E SWAP2 PUSH2 0x3217 JUMP JUMPDEST POP DUP1 SLOAD PUSH2 0x92D PUSH1 0x1 DUP4 ADD SLOAD SWAP3 PUSH1 0x1 DUP1 PUSH1 0xA0 SHL SUB SWAP1 DUP2 PUSH1 0x2 DUP3 ADD SLOAD AND SWAP2 PUSH1 0x3 DUP3 ADD SLOAD AND PUSH1 0x4 DUP3 ADD SLOAD PUSH1 0x5 DUP4 ADD SLOAD SWAP2 PUSH1 0xFF PUSH1 0x7 PUSH1 0x6 DUP7 ADD SLOAD SWAP6 ADD SLOAD AND SWAP5 PUSH1 0x40 MLOAD SWAP9 DUP10 SWAP9 DUP10 PUSH2 0x324E JUMP JUMPDEST CALLVALUE PUSH2 0x2AC JUMPI PUSH0 CALLDATASIZE PUSH1 0x3 NOT ADD SLT PUSH2 0x2AC JUMPI PUSH1 0x20 PUSH1 0x40 MLOAD PUSH1 0xA DUP2 MSTORE RETURN JUMPDEST CALLVALUE PUSH2 0x2AC JUMPI PUSH1 0x40 CALLDATASIZE PUSH1 0x3 NOT ADD SLT PUSH2 0x2AC JUMPI PUSH2 0x3089 PUSH2 0x31EB JUMP JUMPDEST PUSH1 0x1 PUSH1 0x1 PUSH1 0xA0 SHL SUB SWAP1 DUP2 AND PUSH0 SWAP1 DUP2 MSTORE PUSH1 0xB PUSH1 0x20 MSTORE PUSH1 0x40 SWAP1 KECCAK256 DUP1 SLOAD PUSH1 0x24 CALLDATALOAD SWAP1 DUP2 LT ISZERO PUSH2 0x2AC JUMPI PUSH2 0x30B7 SWAP2 PUSH2 0x3217 JUMP JUMPDEST POP SWAP1 PUSH2 0x92D DUP3 SLOAD SWAP2 PUSH1 0x1 DUP5 ADD SLOAD SWAP4 DUP2 PUSH1 0x2 DUP3 ADD SLOAD AND SWAP2 PUSH1 0x3 DUP3 ADD SLOAD AND PUSH1 0x4 DUP3 ADD SLOAD PUSH1 0x5 DUP4 ADD SLOAD SWAP2 PUSH1 0xFF PUSH1 0x7 PUSH1 0x6 DUP7 ADD SLOAD SWAP6 ADD SLOAD AND SWAP5 PUSH1 0x40 MLOAD SWAP9 DUP10 SWAP9 DUP10 PUSH2 0x324E JUMP JUMPDEST CALLVALUE PUSH2 0x2AC JUMPI PUSH1 0x20 CALLDATASIZE PUSH1 0x3 NOT ADD SLT PUSH2 0x2AC JUMPI PUSH1 0x4 CALLDATALOAD PUSH1 0x12 SLOAD DUP2 LT ISZERO PUSH2 0x2AC JUMPI PUSH2 0x3121 PUSH1 0x20 SWAP2 PUSH2 0x318D JUMP JUMPDEST SWAP1 SLOAD PUSH1 0x40 MLOAD PUSH1 0x3 SWAP3 SWAP1 SWAP3 SHL SHR PUSH1 0x1 PUSH1 0x1 PUSH1 0xA0 SHL SUB AND DUP2 MSTORE RETURN JUMPDEST CALLVALUE PUSH2 0x2AC JUMPI PUSH1 0x20 CALLDATASIZE PUSH1 0x3 NOT ADD SLT PUSH2 0x2AC JUMPI PUSH1 0x4 CALLDATALOAD SWAP1 PUSH4 0xFFFFFFFF PUSH1 0xE0 SHL DUP3 AND DUP1 SWAP3 SUB PUSH2 0x2AC JUMPI PUSH1 0x20 SWAP2 PUSH4 0x7965DB0B PUSH1 0xE0 SHL DUP2 EQ SWAP1 DUP2 ISZERO PUSH2 0x317C JUMPI JUMPDEST POP ISZERO ISZERO DUP2 MSTORE RETURN JUMPDEST PUSH4 0x1FFC9A7 PUSH1 0xE0 SHL EQ SWAP1 POP DUP4 PUSH2 0x3175 JUMP JUMPDEST PUSH1 0x12 SLOAD DUP2 LT ISZERO PUSH2 0x31C2 JUMPI PUSH1 0x12 PUSH0 MSTORE PUSH32 0xBB8A6A4669BA250D26CD7A459ECA9D215F8307E33AEBE50379BC5A3617EC3444 ADD SWAP1 PUSH0 SWAP1 JUMP JUMPDEST PUSH4 0x4E487B71 PUSH1 0xE0 SHL PUSH0 MSTORE PUSH1 0x32 PUSH1 0x4 MSTORE PUSH1 0x24 PUSH0 REVERT JUMPDEST DUP1 SLOAD DUP3 LT ISZERO PUSH2 0x31C2 JUMPI PUSH0 MSTORE PUSH1 0x20 PUSH0 KECCAK256 ADD SWAP1 PUSH0 SWAP1 JUMP JUMPDEST PUSH1 0x4 CALLDATALOAD SWAP1 PUSH1 0x1 PUSH1 0x1 PUSH1 0xA0 SHL SUB DUP3 AND DUP3 SUB PUSH2 0x2AC JUMPI JUMP JUMPDEST PUSH1 0x24 CALLDATALOAD SWAP1 PUSH1 0x1 PUSH1 0x1 PUSH1 0xA0 SHL SUB DUP3 AND DUP3 SUB PUSH2 0x2AC JUMPI JUMP JUMPDEST DUP1 SLOAD DUP3 LT ISZERO PUSH2 0x31C2 JUMPI PUSH0 MSTORE PUSH1 0x20 PUSH0 KECCAK256 SWAP1 PUSH1 0x3 SHL ADD SWAP1 PUSH0 SWAP1 JUMP JUMPDEST PUSH1 0x2 GT ISZERO PUSH2 0x323A JUMPI JUMP JUMPDEST PUSH4 0x4E487B71 PUSH1 0xE0 SHL PUSH0 MSTORE PUSH1 0x21 PUSH1 0x4 MSTORE PUSH1 0x24 PUSH0 REVERT JUMPDEST SWAP5 SWAP2 SWAP4 PUSH1 0xE0 SWAP7 SWAP4 SWAP2 SWAP10 SWAP9 SWAP8 SWAP5 PUSH2 0x100 DUP8 ADD SWAP11 DUP8 MSTORE PUSH1 0x20 DUP8 ADD MSTORE PUSH1 0x1 DUP1 PUSH1 0xA0 SHL SUB DUP1 SWAP3 AND PUSH1 0x40 DUP8 ADD MSTORE AND PUSH1 0x60 DUP6 ADD MSTORE PUSH1 0x80 DUP5 ADD MSTORE PUSH1 0xA0 DUP4 ADD MSTORE PUSH1 0xC0 DUP3 ADD MSTORE PUSH2 0x3294 DUP4 PUSH2 0x3230 JUMP JUMPDEST ADD MSTORE JUMP JUMPDEST PUSH1 0x40 SWAP1 PUSH1 0x3 NOT ADD SLT PUSH2 0x2AC JUMPI PUSH1 0x4 CALLDATALOAD SWAP1 PUSH1 0x24 CALLDATALOAD SWAP1 JUMP JUMPDEST PUSH1 0xA0 DUP2 ADD SWAP1 DUP2 LT PUSH1 0x1 PUSH1 0x1 PUSH1 0x40 SHL SUB DUP3 GT OR PUSH2 0x7C7 JUMPI PUSH1 0x40 MSTORE JUMP JUMPDEST PUSH1 0xC0 DUP2 ADD SWAP1 DUP2 LT PUSH1 0x1 PUSH1 0x1 PUSH1 0x40 SHL SUB DUP3 GT OR PUSH2 0x7C7 JUMPI PUSH1 0x40 MSTORE JUMP JUMPDEST PUSH1 0x60 DUP2 ADD SWAP1 DUP2 LT PUSH1 0x1 PUSH1 0x1 PUSH1 0x40 SHL SUB DUP3 GT OR PUSH2 0x7C7 JUMPI PUSH1 0x40 MSTORE JUMP JUMPDEST PUSH2 0x100 DUP2 ADD SWAP1 DUP2 LT PUSH1 0x1 PUSH1 0x1 PUSH1 0x40 SHL SUB DUP3 GT OR PUSH2 0x7C7 JUMPI PUSH1 0x40 MSTORE JUMP JUMPDEST SWAP1 PUSH1 0x1F DUP1 NOT SWAP2 ADD AND DUP2 ADD SWAP1 DUP2 LT PUSH1 0x1 PUSH1 0x1 PUSH1 0x40 SHL SUB DUP3 GT OR PUSH2 0x7C7 JUMPI PUSH1 0x40 MSTORE JUMP JUMPDEST DUP2 PUSH1 0x1F DUP3 ADD SLT ISZERO PUSH2 0x2AC JUMPI DUP1 CALLDATALOAD SWAP1 PUSH1 0x1 PUSH1 0x1 PUSH1 0x40 SHL SUB DUP3 GT PUSH2 0x7C7 JUMPI PUSH1 0x40 MLOAD SWAP3 PUSH2 0x3370 PUSH1 0x1F DUP5 ADD PUSH1 0x1F NOT AND PUSH1 0x20 ADD DUP6 PUSH2 0x331B JUMP JUMPDEST DUP3 DUP5 MSTORE PUSH1 0x20 DUP4 DUP4 ADD ADD GT PUSH2 0x2AC JUMPI DUP2 PUSH0 SWAP3 PUSH1 0x20 DUP1 SWAP4 ADD DUP4 DUP7 ADD CALLDATACOPY DUP4 ADD ADD MSTORE SWAP1 JUMP JUMPDEST PUSH1 0x1 PUSH1 0x1 PUSH1 0x40 SHL SUB DUP2 GT PUSH2 0x7C7 JUMPI PUSH1 0x5 SHL PUSH1 0x20 ADD SWAP1 JUMP JUMPDEST DUP2 PUSH1 0x1F DUP3 ADD SLT ISZERO PUSH2 0x2AC JUMPI DUP1 CALLDATALOAD SWAP2 PUSH1 0x20 SWAP2 PUSH2 0x33C2 DUP5 PUSH2 0x3391 JUMP JUMPDEST SWAP4 PUSH2 0x33D0 PUSH1 0x40 MLOAD SWAP6 DUP7 PUSH2 0x331B JUMP JUMPDEST DUP1 DUP6 MSTORE DUP4 DUP1 DUP7 ADD SWAP2 PUSH1 0x5 SHL DUP4 ADD ADD SWAP3 DUP1 DUP5 GT PUSH2 0x2AC JUMPI DUP5 DUP4 ADD SWAP2 JUMPDEST DUP5 DUP4 LT PUSH2 0x33FB JUMPI POP POP POP POP POP POP SWAP1 JUMP JUMPDEST DUP3 CALLDATALOAD PUSH1 0x1 PUSH1 0x1 PUSH1 0x40 SHL SUB DUP2 GT PUSH2 0x2AC JUMPI DUP7 SWAP2 PUSH2 0x341C DUP5 DUP5 DUP1 SWAP5 DUP10 ADD ADD PUSH2 0x333C JUMP JUMPDEST DUP2 MSTORE ADD SWAP3 ADD SWAP2 PUSH2 0x33EB JUMP JUMPDEST SWAP2 SWAP1 DUP3 MLOAD SWAP3 DUP4 DUP3 MSTORE PUSH0 JUMPDEST DUP5 DUP2 LT PUSH2 0x3451 JUMPI POP POP DUP3 PUSH0 PUSH1 0x20 DUP1 SWAP5 SWAP6 DUP5 ADD ADD MSTORE PUSH1 0x1F DUP1 NOT SWAP2 ADD AND ADD ADD SWAP1 JUMP JUMPDEST PUSH1 0x20 DUP2 DUP4 ADD DUP2 ADD MLOAD DUP5 DUP4 ADD DUP3 ADD MSTORE ADD PUSH2 0x3431 JUMP JUMPDEST SWAP1 PUSH1 0xA DUP3 LT ISZERO PUSH2 0x323A JUMPI MSTORE JUMP JUMPDEST PUSH1 0x80 SWAP1 PUSH1 0x3 NOT ADD SLT PUSH2 0x2AC JUMPI PUSH1 0x4 CALLDATALOAD SWAP1 PUSH1 0x24 CALLDATALOAD SWAP1 PUSH1 0x44 CALLDATALOAD SWAP1 PUSH1 0x64 CALLDATALOAD SWAP1 JUMP JUMPDEST PUSH1 0x60 SWAP1 PUSH1 0x3 NOT ADD SLT PUSH2 0x2AC JUMPI PUSH1 0x4 CALLDATALOAD SWAP1 PUSH1 0x24 CALLDATALOAD SWAP1 PUSH1 0x44 CALLDATALOAD SWAP1 JUMP JUMPDEST PUSH1 0x20 SWAP1 PUSH1 0x20 PUSH1 0x40 DUP2 DUP4 ADD SWAP3 DUP3 DUP2 MSTORE DUP6 MLOAD DUP1 SWAP5 MSTORE ADD SWAP4 ADD SWAP2 PUSH0 JUMPDEST DUP3 DUP2 LT PUSH2 0x34D1 JUMPI POP POP POP POP SWAP1 JUMP JUMPDEST DUP4 MLOAD DUP6 MSTORE SWAP4 DUP2 ADD SWAP4 SWAP3 DUP2 ADD SWAP3 PUSH1 0x1 ADD PUSH2 0x34C3 JUMP JUMPDEST DUP1 SLOAD DUP3 LT ISZERO PUSH2 0x31C2 JUMPI PUSH0 MSTORE PUSH1 0x3 PUSH1 0x20 PUSH0 KECCAK256 SWAP2 MUL ADD SWAP1 PUSH0 SWAP1 JUMP JUMPDEST PUSH1 0x40 SWAP1 PUSH1 0x3 NOT ADD SLT PUSH2 0x2AC JUMPI PUSH1 0x4 CALLDATALOAD PUSH1 0xA DUP2 LT ISZERO PUSH2 0x2AC JUMPI SWAP1 PUSH1 0x24 CALLDATALOAD SWAP1 JUMP JUMPDEST PUSH1 0xA DUP2 LT ISZERO PUSH2 0x323A JUMPI PUSH0 MSTORE PUSH1 0x10 PUSH1 0x20 MSTORE PUSH1 0x40 PUSH0 KECCAK256 SWAP1 JUMP JUMPDEST SWAP1 PUSH1 0x1 DUP3 DUP2 SHR SWAP3 AND DUP1 ISZERO PUSH2 0x3562 JUMPI JUMPDEST PUSH1 0x20 DUP4 LT EQ PUSH2 0x354E JUMPI JUMP JUMPDEST PUSH4 0x4E487B71 PUSH1 0xE0 SHL PUSH0 MSTORE PUSH1 0x22 PUSH1 0x4 MSTORE PUSH1 0x24 PUSH0 REVERT JUMPDEST SWAP2 PUSH1 0x7F AND SWAP2 PUSH2 0x3543 JUMP JUMPDEST SWAP1 PUSH1 0x40 MLOAD SWAP2 DUP3 PUSH0 DUP3 SLOAD PUSH2 0x357E DUP2 PUSH2 0x3534 JUMP JUMPDEST SWAP1 DUP2 DUP5 MSTORE PUSH1 0x20 SWAP5 PUSH1 0x1 SWAP2 PUSH1 0x1 DUP2 AND SWAP1 DUP2 PUSH0 EQ PUSH2 0x35EC JUMPI POP PUSH1 0x1 EQ PUSH2 0x35AE JUMPI JUMPDEST POP POP POP PUSH2 0x35AC SWAP3 POP SUB DUP4 PUSH2 0x331B JUMP JUMPDEST JUMP JUMPDEST PUSH0 SWAP1 DUP2 MSTORE DUP6 DUP2 KECCAK256 SWAP6 SWAP4 POP SWAP2 SWAP1 JUMPDEST DUP2 DUP4 LT PUSH2 0x35D4 JUMPI POP POP PUSH2 0x35AC SWAP4 POP DUP3 ADD ADD PUSH0 DUP1 DUP1 PUSH2 0x359D JUMP JUMPDEST DUP6 SLOAD DUP9 DUP5 ADD DUP6 ADD MSTORE SWAP5 DUP6 ADD SWAP5 DUP8 SWAP5 POP SWAP2 DUP4 ADD SWAP2 PUSH2 0x35BB JUMP JUMPDEST SWAP3 POP POP POP PUSH2 0x35AC SWAP5 SWAP3 POP PUSH1 0xFF NOT AND DUP3 DUP5 ADD MSTORE ISZERO ISZERO PUSH1 0x5 SHL DUP3 ADD ADD PUSH0 DUP1 DUP1 PUSH2 0x359D JUMP JUMPDEST PUSH1 0x40 MLOAD SWAP1 PUSH2 0x361B DUP3 PUSH2 0x32AE JUMP JUMPDEST PUSH0 PUSH1 0x80 DUP4 DUP3 DUP2 MSTORE DUP3 PUSH1 0x20 DUP3 ADD MSTORE DUP3 PUSH1 0x40 DUP3 ADD MSTORE DUP3 PUSH1 0x60 DUP3 ADD MSTORE ADD MSTORE JUMP JUMPDEST PUSH0 NOT DUP2 EQ PUSH2 0x71D JUMPI PUSH1 0x1 ADD SWAP1 JUMP JUMPDEST SWAP2 SWAP1 DUP3 ADD DUP1 SWAP3 GT PUSH2 0x71D JUMPI JUMP JUMPDEST DUP2 ISZERO PUSH2 0x2C19 JUMPI DIV SWAP1 JUMP JUMPDEST DUP1 MLOAD DUP3 LT ISZERO PUSH2 0x31C2 JUMPI PUSH1 0x20 SWAP2 PUSH1 0x5 SHL ADD ADD SWAP1 JUMP JUMPDEST DUP1 SLOAD PUSH1 0x1 PUSH1 0x40 SHL DUP2 LT ISZERO PUSH2 0x7C7 JUMPI PUSH2 0x368E SWAP2 PUSH1 0x1 DUP3 ADD DUP2 SSTORE PUSH2 0x34E5 JUMP JUMPDEST SWAP2 SWAP1 SWAP2 PUSH2 0x36AF JUMPI PUSH1 0x40 DUP2 PUSH1 0x2 SWAP3 MLOAD DUP5 SSTORE PUSH1 0x20 DUP2 ADD MLOAD PUSH1 0x1 DUP6 ADD SSTORE ADD MLOAD SWAP2 ADD SSTORE JUMP JUMPDEST PUSH4 0x4E487B71 PUSH1 0xE0 SHL PUSH0 MSTORE PUSH0 PUSH1 0x4 MSTORE PUSH1 0x24 PUSH0 REVERT JUMPDEST ISZERO PUSH2 0x36C9 JUMPI JUMP JUMPDEST PUSH1 0x40 MLOAD PUSH3 0x461BCD PUSH1 0xE5 SHL DUP2 MSTORE PUSH1 0x20 PUSH1 0x4 DUP3 ADD MSTORE PUSH1 0x15 PUSH1 0x24 DUP3 ADD MSTORE PUSH21 0x13585C9AD95D08191BD95CC81B9BDD08195E1A5CDD PUSH1 0x5A SHL PUSH1 0x44 DUP3 ADD MSTORE PUSH1 0x64 SWAP1 REVERT JUMPDEST SWAP2 SWAP1 DUP3 SUB SWAP2 DUP3 GT PUSH2 0x71D JUMPI JUMP JUMPDEST ISZERO PUSH2 0x371A JUMPI JUMP JUMPDEST PUSH1 0x40 MLOAD PUSH3 0x461BCD PUSH1 0xE5 SHL DUP2 MSTORE PUSH1 0x20 PUSH1 0x4 DUP3 ADD MSTORE PUSH1 0x10 PUSH1 0x24 DUP3 ADD MSTORE PUSH16 0x13585C9AD95D081A185CC8195B991959 PUSH1 0x82 SHL PUSH1 0x44 DUP3 ADD MSTORE PUSH1 0x64 SWAP1 REVERT JUMPDEST ISZERO PUSH2 0x3759 JUMPI JUMP JUMPDEST PUSH1 0x40 MLOAD PUSH3 0x461BCD PUSH1 0xE5 SHL DUP2 MSTORE PUSH1 0x20 PUSH1 0x4 DUP3 ADD MSTORE PUSH1 0x17 PUSH1 0x24 DUP3 ADD MSTORE PUSH32 0x4D61726B657420616C7265616479207265736F6C766564000000000000000000 PUSH1 0x44 DUP3 ADD MSTORE PUSH1 0x64 SWAP1 REVERT JUMPDEST ISZERO PUSH2 0x37A5 JUMPI JUMP JUMPDEST PUSH1 0x40 MLOAD PUSH3 0x461BCD PUSH1 0xE5 SHL DUP2 MSTORE PUSH1 0x20 PUSH1 0x4 DUP3 ADD MSTORE PUSH1 0xE PUSH1 0x24 DUP3 ADD MSTORE PUSH14 0x24B73B30B634B21037B83A34B7B7 PUSH1 0x91 SHL PUSH1 0x44 DUP3 ADD MSTORE PUSH1 0x64 SWAP1 REVERT JUMPDEST ISZERO PUSH2 0x37E2 JUMPI JUMP JUMPDEST PUSH1 0x40 MLOAD PUSH3 0x461BCD PUSH1 0xE5 SHL DUP2 MSTORE PUSH1 0x20 PUSH1 0x4 DUP3 ADD MSTORE PUSH1 0x11 PUSH1 0x24 DUP3 ADD MSTORE PUSH17 0x4F7074696F6E206E6F7420616374697665 PUSH1 0x78 SHL PUSH1 0x44 DUP3 ADD MSTORE PUSH1 0x64 SWAP1 REVERT JUMPDEST ISZERO PUSH2 0x3822 JUMPI JUMP JUMPDEST PUSH1 0x40 MLOAD PUSH3 0x461BCD PUSH1 0xE5 SHL DUP2 MSTORE PUSH1 0x20 PUSH1 0x4 DUP3 ADD MSTORE PUSH1 0x19 PUSH1 0x24 DUP3 ADD MSTORE PUSH32 0x5175616E74697479206D75737420626520706F73697469766500000000000000 PUSH1 0x44 DUP3 ADD MSTORE PUSH1 0x64 SWAP1 REVERT JUMPDEST DUP2 DUP2 MUL SWAP3 SWAP2 DUP2 ISZERO SWAP2 DUP5 DIV EQ OR ISZERO PUSH2 0x71D JUMPI JUMP JUMPDEST DUP1 SLOAD PUSH1 0x1 PUSH1 0x40 SHL DUP2 LT ISZERO PUSH2 0x7C7 JUMPI PUSH2 0x3897 SWAP2 PUSH1 0x1 DUP3 ADD DUP2 SSTORE PUSH2 0x3217 JUMP JUMPDEST PUSH2 0x36AF JUMPI PUSH1 0x7 PUSH1 0xE0 SWAP2 DUP4 MLOAD DUP2 SSTORE PUSH1 0x20 DUP5 ADD MLOAD PUSH1 0x1 DUP3 ADD SSTORE PUSH1 0x2 DUP2 ADD PUSH1 0x1 DUP1 PUSH1 0xA0 SHL SUB SWAP1 DUP2 PUSH1 0x40 DUP8 ADD MLOAD AND SWAP1 PUSH12 0xFFFFFFFFFFFFFFFFFFFFFFFF PUSH1 0xA0 SHL SWAP2 DUP3 DUP3 SLOAD AND OR SWAP1 SSTORE PUSH1 0x3 DUP4 ADD SWAP2 PUSH1 0x60 DUP8 ADD MLOAD AND SWAP1 DUP3 SLOAD AND OR SWAP1 SSTORE PUSH1 0x80 DUP5 ADD MLOAD PUSH1 0x4 DUP3 ADD SSTORE PUSH1 0xA0 DUP5 ADD MLOAD PUSH1 0x5 DUP3 ADD SSTORE PUSH1 0xC0 DUP5 ADD MLOAD PUSH1 0x6 DUP3 ADD SSTORE ADD SWAP2 ADD MLOAD PUSH2 0x3917 DUP2 PUSH2 0x3230 JUMP JUMPDEST PUSH2 0x3920 DUP2 PUSH2 0x3230 JUMP JUMPDEST PUSH1 0xFF DUP1 NOT DUP4 SLOAD AND SWAP2 AND OR SWAP1 SSTORE JUMP JUMPDEST SWAP1 DUP2 PUSH1 0x20 SWAP2 SUB SLT PUSH2 0x2AC JUMPI MLOAD DUP1 ISZERO ISZERO DUP2 SUB PUSH2 0x2AC JUMPI SWAP1 JUMP JUMPDEST ISZERO PUSH2 0x394D JUMPI JUMP JUMPDEST PUSH1 0x40 MLOAD PUSH3 0x461BCD PUSH1 0xE5 SHL DUP2 MSTORE PUSH1 0x20 PUSH1 0x4 DUP3 ADD MSTORE PUSH1 0xF PUSH1 0x24 DUP3 ADD MSTORE PUSH15 0x151C985B9CD9995C8819985A5B1959 PUSH1 0x8A SHL PUSH1 0x44 DUP3 ADD MSTORE PUSH1 0x64 SWAP1 REVERT JUMPDEST SWAP1 PUSH2 0x398E DUP3 PUSH2 0x3391 JUMP JUMPDEST PUSH2 0x399B PUSH1 0x40 MLOAD SWAP2 DUP3 PUSH2 0x331B JUMP JUMPDEST DUP3 DUP2 MSTORE DUP1 SWAP3 PUSH2 0x39AC PUSH1 0x1F NOT SWAP2 PUSH2 0x3391 JUMP JUMPDEST ADD SWAP1 PUSH1 0x20 CALLDATASIZE SWAP2 ADD CALLDATACOPY JUMP JUMPDEST PUSH1 0xFF PUSH1 0x3 SLOAD AND PUSH2 0x39C2 JUMPI JUMP JUMPDEST PUSH1 0x40 MLOAD PUSH4 0xD93C0665 PUSH1 0xE0 SHL DUP2 MSTORE PUSH1 0x4 SWAP1 REVERT JUMPDEST DUP1 PUSH0 MSTORE PUSH1 0x2 PUSH1 0x20 MSTORE PUSH1 0x40 PUSH0 KECCAK256 CALLER PUSH0 MSTORE PUSH1 0x20 MSTORE PUSH1 0xFF PUSH1 0x40 PUSH0 KECCAK256 SLOAD AND ISZERO PUSH2 0x39F6 JUMPI POP JUMP JUMPDEST PUSH1 0x44 SWAP1 PUSH1 0x40 MLOAD SWAP1 PUSH4 0xE2517D3F PUSH1 0xE0 SHL DUP3 MSTORE CALLER PUSH1 0x4 DUP4 ADD MSTORE PUSH1 0x24 DUP3 ADD MSTORE REVERT JUMPDEST PUSH1 0x1 PUSH1 0x1 PUSH1 0xA0 SHL SUB AND PUSH0 DUP2 DUP2 MSTORE PUSH32 0x8E2C297E756B2A427C5DC4607F639842A8EA6E0F6322302F4EA76306B642CFC2 PUSH1 0x20 MSTORE PUSH1 0x40 SWAP1 KECCAK256 SLOAD PUSH32 0xDCEE1D35C83A32B436264A5C9AFD68685C124F3F9097E87804C55410E67FC59A SWAP2 SWAP1 PUSH1 0xFF AND PUSH2 0x3AAD JUMPI DUP2 PUSH0 MSTORE PUSH1 0x2 PUSH1 0x20 MSTORE PUSH1 0x40 PUSH0 KECCAK256 DUP2 PUSH0 MSTORE PUSH1 0x20 MSTORE PUSH1 0x40 PUSH0 KECCAK256 PUSH1 0x1 PUSH1 0xFF NOT DUP3 SLOAD AND OR SWAP1 SSTORE CALLER SWAP2 PUSH0 DUP1 MLOAD PUSH1 0x20 PUSH2 0x3D5E DUP4 CODECOPY DUP2 MLOAD SWAP2 MSTORE PUSH0 DUP1 LOG4 PUSH1 0x1 SWAP1 JUMP JUMPDEST POP POP PUSH0 SWAP1 JUMP JUMPDEST PUSH1 0x1 PUSH1 0x1 PUSH1 0xA0 SHL SUB AND PUSH0 DUP2 DUP2 MSTORE PUSH32 0x30D995518B427F5A5863AD73FE356CA50CF70941F42C516830919C845FA5806F PUSH1 0x20 MSTORE PUSH1 0x40 SWAP1 KECCAK256 SLOAD PUSH32 0xEF485BE696BBC0C91AD541BBD553FFB5BD0E18DAC30BA76E992DDA23CB807A8A SWAP2 SWAP1 PUSH1 0xFF AND PUSH2 0x3AAD JUMPI DUP2 PUSH0 MSTORE PUSH1 0x2 PUSH1 0x20 MSTORE PUSH1 0x40 PUSH0 KECCAK256 DUP2 PUSH0 MSTORE PUSH1 0x20 MSTORE PUSH1 0x40 PUSH0 KECCAK256 PUSH1 0x1 PUSH1 0xFF NOT DUP3 SLOAD AND OR SWAP1 SSTORE CALLER SWAP2 PUSH0 DUP1 MLOAD PUSH1 0x20 PUSH2 0x3D5E DUP4 CODECOPY DUP2 MLOAD SWAP2 MSTORE PUSH0 DUP1 LOG4 PUSH1 0x1 SWAP1 JUMP JUMPDEST PUSH1 0x1 PUSH1 0x1 PUSH1 0xA0 SHL SUB AND PUSH0 DUP2 DUP2 MSTORE PUSH32 0xD3DCCF8D8289B9DEEE17E361620D7577DE7B525DD57F668D5C1BB85EC53112B5 PUSH1 0x20 MSTORE PUSH1 0x40 SWAP1 KECCAK256 SLOAD PUSH0 DUP1 MLOAD PUSH1 0x20 PUSH2 0x3D7E DUP4 CODECOPY DUP2 MLOAD SWAP2 MSTORE SWAP2 SWAP1 PUSH1 0xFF AND PUSH2 0x3AAD JUMPI DUP2 PUSH0 MSTORE PUSH1 0x2 PUSH1 0x20 MSTORE PUSH1 0x40 PUSH0 KECCAK256 DUP2 PUSH0 MSTORE PUSH1 0x20 MSTORE PUSH1 0x40 PUSH0 KECCAK256 PUSH1 0x1 PUSH1 0xFF NOT DUP3 SLOAD AND OR SWAP1 SSTORE CALLER SWAP2 PUSH0 DUP1 MLOAD PUSH1 0x20 PUSH2 0x3D5E DUP4 CODECOPY DUP2 MLOAD SWAP2 MSTORE PUSH0 DUP1 LOG4 PUSH1 0x1 SWAP1 JUMP JUMPDEST SWAP1 DUP2 PUSH0 MSTORE PUSH1 0x2 PUSH1 0x20 MSTORE PUSH1 0x40 PUSH0 KECCAK256 SWAP1 PUSH1 0x1 DUP1 PUSH1 0xA0 SHL SUB AND SWAP1 DUP2 PUSH0 MSTORE PUSH1 0x20 MSTORE PUSH1 0xFF PUSH1 0x40 PUSH0 KECCAK256 SLOAD AND ISZERO PUSH0 EQ PUSH2 0x3AAD JUMPI DUP2 PUSH0 MSTORE PUSH1 0x2 PUSH1 0x20 MSTORE PUSH1 0x40 PUSH0 KECCAK256 DUP2 PUSH0 MSTORE PUSH1 0x20 MSTORE PUSH1 0x40 PUSH0 KECCAK256 PUSH1 0x1 PUSH1 0xFF NOT DUP3 SLOAD AND OR SWAP1 SSTORE CALLER SWAP2 PUSH0 DUP1 MLOAD PUSH1 0x20 PUSH2 0x3D5E DUP4 CODECOPY DUP2 MLOAD SWAP2 MSTORE PUSH0 DUP1 LOG4 PUSH1 0x1 SWAP1 JUMP JUMPDEST PUSH0 SLOAD PUSH1 0x1 PUSH1 0x1 PUSH1 0xA0 SHL SUB AND CALLER SUB PUSH2 0x3C4A JUMPI JUMP JUMPDEST PUSH1 0x40 MLOAD PUSH4 0x118CDAA7 PUSH1 0xE0 SHL DUP2 MSTORE CALLER PUSH1 0x4 DUP3 ADD MSTORE PUSH1 0x24 SWAP1 REVERT JUMPDEST SWAP1 DUP2 PUSH0 MSTORE PUSH1 0x2 PUSH1 0x20 MSTORE PUSH1 0x40 PUSH0 KECCAK256 SWAP1 PUSH1 0x1 DUP1 PUSH1 0xA0 SHL SUB AND SWAP1 DUP2 PUSH0 MSTORE PUSH1 0x20 MSTORE PUSH1 0xFF PUSH1 0x40 PUSH0 KECCAK256 SLOAD AND PUSH0 EQ PUSH2 0x3AAD JUMPI DUP2 PUSH0 MSTORE PUSH1 0x2 PUSH1 0x20 MSTORE PUSH1 0x40 PUSH0 KECCAK256 DUP2 PUSH0 MSTORE PUSH1 0x20 MSTORE PUSH1 0x40 PUSH0 KECCAK256 PUSH1 0xFF NOT DUP2 SLOAD AND SWAP1 SSTORE CALLER SWAP2 PUSH32 0xF6391F5C32D9C69D2A47EA670B442974B53935D1EDC7FD64EB21E047A839171B PUSH0 DUP1 LOG4 PUSH1 0x1 SWAP1 JUMP JUMPDEST PUSH1 0x2 PUSH1 0x1 SLOAD EQ PUSH2 0x3CE7 JUMPI PUSH1 0x2 PUSH1 0x1 SSTORE JUMP JUMPDEST PUSH1 0x40 MLOAD PUSH4 0x3EE5AEB5 PUSH1 0xE0 SHL DUP2 MSTORE PUSH1 0x4 SWAP1 REVERT JUMPDEST SWAP1 PUSH0 MSTORE PUSH1 0x20 PUSH1 0x8 PUSH1 0x20 MSTORE PUSH1 0x40 SWAP1 PUSH1 0x40 PUSH0 KECCAK256 SWAP3 PUSH0 SWAP1 PUSH1 0xB PUSH1 0x9 DUP7 ADD SLOAD SWAP6 ADD SWAP2 JUMPDEST DUP6 DUP2 LT PUSH2 0x3D2A JUMPI POP POP POP POP POP POP PUSH1 0x1 SWAP1 JUMP JUMPDEST PUSH1 0x1 PUSH1 0x1 PUSH1 0xA0 SHL SUB DUP3 AND PUSH0 SWAP1 DUP2 MSTORE DUP4 DUP6 MSTORE DUP6 DUP2 KECCAK256 DUP3 DUP3 MSTORE DUP6 MSTORE DUP6 SWAP1 KECCAK256 SLOAD PUSH2 0x3D53 JUMPI PUSH1 0x1 ADD PUSH2 0x3D18 JUMP JUMPDEST POP POP POP POP POP POP PUSH0 SWAP1 JUMP INVALID 0x2F DUP8 DUP9 GT PUSH31 0x7EFF1D82E926EC794901D17C78024A50270940304540A733656F0DD486618B 0x28 0x2C 0xB3 POP CALLVALUE 0xD5 SWAP13 ADDRESS 0xC0 PUSH3 0xB5B382 0x2D PUSH13 0xDF87EC459191CE7F5B7B8A4873 LOG2 PUSH5 0x6970667358 0x22 SLT KECCAK256 PUSH10 0x9E9E024BDCF3A9AAFA4E 0x22 0x2F EXP 0xB9 0xFB 0xEF MSTORE8 SELFBALANCE STATICCALL 0xBE BASEFEE 0xCB PUSH4 0x69407299 DUP5 DUP7 JUMPI 0xFB PUSH5 0x736F6C6343 STOP ADDMOD XOR STOP CALLER 0xAC CALLER SELFDESTRUCT PUSH22 0xC19E70FE83507DB0D683FD3465C996598DC972688B7A 0xCE PUSH8 0x6C89077B00000000 "
				},
				"gasEstimates": {
					"creation": {
						"codeDepositCost": "3165400",
						"executionCost": "infinite",
						"totalCost": "infinite"
					},
					"external": {
						"DEFAULT_ADMIN_ROLE()": "1032",
						"MARKET_VALIDATOR_ROLE()": "471",
						"MAX_MARKET_DURATION()": "835",
						"MAX_OPTIONS()": "219",
						"MIN_MARKET_DURATION()": "1011",
						"QUESTION_CREATOR_ROLE()": "791",
						"QUESTION_RESOLVE_ROLE()": "769",
						"allParticipants(uint256)": "6617",
						"bettingToken()": "2685",
						"buyShares(uint256,uint256,uint256,uint256)": "infinite",
						"calculateCurrentPrice(uint256,uint256)": "3470",
						"categoryMarkets(uint8,uint256)": "7738",
						"claimWinnings(uint256)": "infinite",
						"createMarket(string,string,string[],string[],uint256,uint8)": "infinite",
						"disputeMarket(uint256,string)": "infinite",
						"getBettingToken()": "2531",
						"getLeaderboard(uint256,uint256)": "infinite",
						"getMarketCount()": "3485",
						"getMarketInfo(uint256)": "infinite",
						"getMarketOption(uint256,uint256)": "infinite",
						"getMarketStats(uint256)": "infinite",
						"getMarketsByCategory(uint8,uint256)": "infinite",
						"getPriceHistory(uint256,uint256,uint256)": "infinite",
						"getRoleAdmin(bytes32)": "2525",
						"getUserPortfolio(address)": "infinite",
						"getUserShares(uint256,address)": "infinite",
						"grantMarketValidatorRole(address)": "infinite",
						"grantQuestionCreatorRole(address)": "35820",
						"grantQuestionResolveRole(address)": "35578",
						"grantRole(bytes32,address)": "33493",
						"hasRole(bytes32,address)": "3299",
						"marketCount()": "3400",
						"marketOrderBook(uint256,uint256)": "6932",
						"marketTrades(uint256,uint256)": "21866",
						"markets(uint256)": "infinite",
						"orderCount()": "2432",
						"orders(uint256)": "infinite",
						"owner()": "3071",
						"pause()": "30416",
						"paused()": "2752",
						"platformFeeRate()": "3444",
						"priceHistory(uint256,uint256,uint256)": "11942",
						"renounceOwnership()": "28622",
						"renounceRole(bytes32,address)": "29115",
						"resolveMarket(uint256,uint256)": "59590",
						"revokeRole(bytes32,address)": "34310",
						"sellShares(uint256,uint256,uint256,uint256)": "infinite",
						"setPlatformFeeRate(uint256)": "25259",
						"supportsInterface(bytes4)": "270",
						"totalWinnings(address)": "3176",
						"tradeCount()": "3334",
						"transferOwnership(address)": "29357",
						"unpause()": "27937",
						"userOrders(address,uint256)": "7522",
						"userPortfolios(address)": "11970",
						"userTradeHistory(address,uint256)": "21872",
						"validateMarket(uint256)": "infinite"
					},
					"internal": {
						"_isNewParticipant(address,uint256)": "infinite",
						"calculateNewPrice(uint256,uint256,uint256,bool)": "infinite"
					}
				},
				"methodIdentifiers": {
					"DEFAULT_ADMIN_ROLE()": "a217fddf",
					"MARKET_VALIDATOR_ROLE()": "32617b70",
					"MAX_MARKET_DURATION()": "7e50898e",
					"MAX_OPTIONS()": "0da183d6",
					"MIN_MARKET_DURATION()": "92f012b2",
					"QUESTION_CREATOR_ROLE()": "77b4a3e7",
					"QUESTION_RESOLVE_ROLE()": "755f0629",
					"allParticipants(uint256)": "05e33dd0",
					"bettingToken()": "43425e88",
					"buyShares(uint256,uint256,uint256,uint256)": "ed881230",
					"calculateCurrentPrice(uint256,uint256)": "b1ab13ff",
					"categoryMarkets(uint8,uint256)": "a8cc7f19",
					"claimWinnings(uint256)": "677bd9ff",
					"createMarket(string,string,string[],string[],uint256,uint8)": "204f6125",
					"disputeMarket(uint256,string)": "4a2021ef",
					"getBettingToken()": "29cf655b",
					"getLeaderboard(uint256,uint256)": "73af16fc",
					"getMarketCount()": "fd69f3c2",
					"getMarketInfo(uint256)": "3ec79193",
					"getMarketOption(uint256,uint256)": "222fa267",
					"getMarketStats(uint256)": "58057fe5",
					"getMarketsByCategory(uint8,uint256)": "c2454af7",
					"getPriceHistory(uint256,uint256,uint256)": "7c946454",
					"getRoleAdmin(bytes32)": "248a9ca3",
					"getUserPortfolio(address)": "1edb27e9",
					"getUserShares(uint256,address)": "835dc40b",
					"grantMarketValidatorRole(address)": "abdce1a4",
					"grantQuestionCreatorRole(address)": "6db3b4dc",
					"grantQuestionResolveRole(address)": "35037e0b",
					"grantRole(bytes32,address)": "2f2ff15d",
					"hasRole(bytes32,address)": "91d14854",
					"marketCount()": "ec979082",
					"marketOrderBook(uint256,uint256)": "257ff7b6",
					"marketTrades(uint256,uint256)": "1cb1de2f",
					"markets(uint256)": "b1283e77",
					"orderCount()": "2453ffa8",
					"orders(uint256)": "a85c38ef",
					"owner()": "8da5cb5b",
					"pause()": "8456cb59",
					"paused()": "5c975abb",
					"platformFeeRate()": "eeca08f0",
					"priceHistory(uint256,uint256,uint256)": "a75dd115",
					"renounceOwnership()": "715018a6",
					"renounceRole(bytes32,address)": "36568abe",
					"resolveMarket(uint256,uint256)": "60557333",
					"revokeRole(bytes32,address)": "d547741f",
					"sellShares(uint256,uint256,uint256,uint256)": "5a2db6fb",
					"setPlatformFeeRate(uint256)": "927fef2e",
					"supportsInterface(bytes4)": "01ffc9a7",
					"totalWinnings(address)": "8b8840e0",
					"tradeCount()": "bd55022a",
					"transferOwnership(address)": "f2fde38b",
					"unpause()": "3f4ba83a",
					"userOrders(address,uint256)": "856652e9",
					"userPortfolios(address)": "b61920c1",
					"userTradeHistory(address,uint256)": "08693f3c",
					"validateMarket(uint256)": "ab44e635"
				}
			},
			"storageLayout": {
				"storage": [
					{
						"astId": 388,
						"contract": "v2.sol:PolicastMarketV2",
						"label": "_owner",
						"offset": 0,
						"slot": "0",
						"type": "t_address"
					},
					{
						"astId": 754,
						"contract": "v2.sol:PolicastMarketV2",
						"label": "_status",
						"offset": 0,
						"slot": "1",
						"type": "t_uint256"
					},
					{
						"astId": 27,
						"contract": "v2.sol:PolicastMarketV2",
						"label": "_roles",
						"offset": 0,
						"slot": "2",
						"type": "t_mapping(t_bytes32,t_struct(RoleData)22_storage)"
					},
					{
						"astId": 644,
						"contract": "v2.sol:PolicastMarketV2",
						"label": "_paused",
						"offset": 0,
						"slot": "3",
						"type": "t_bool"
					},
					{
						"astId": 1051,
						"contract": "v2.sol:PolicastMarketV2",
						"label": "bettingToken",
						"offset": 1,
						"slot": "3",
						"type": "t_contract(IERC20)605"
					},
					{
						"astId": 1053,
						"contract": "v2.sol:PolicastMarketV2",
						"label": "marketCount",
						"offset": 0,
						"slot": "4",
						"type": "t_uint256"
					},
					{
						"astId": 1055,
						"contract": "v2.sol:PolicastMarketV2",
						"label": "orderCount",
						"offset": 0,
						"slot": "5",
						"type": "t_uint256"
					},
					{
						"astId": 1057,
						"contract": "v2.sol:PolicastMarketV2",
						"label": "tradeCount",
						"offset": 0,
						"slot": "6",
						"type": "t_uint256"
					},
					{
						"astId": 1060,
						"contract": "v2.sol:PolicastMarketV2",
						"label": "platformFeeRate",
						"offset": 0,
						"slot": "7",
						"type": "t_uint256"
					},
					{
						"astId": 1074,
						"contract": "v2.sol:PolicastMarketV2",
						"label": "markets",
						"offset": 0,
						"slot": "8",
						"type": "t_mapping(t_uint256,t_struct(Market)963_storage)"
					},
					{
						"astId": 1079,
						"contract": "v2.sol:PolicastMarketV2",
						"label": "orders",
						"offset": 0,
						"slot": "9",
						"type": "t_mapping(t_uint256,t_struct(Order)988_storage)"
					},
					{
						"astId": 1084,
						"contract": "v2.sol:PolicastMarketV2",
						"label": "userPortfolios",
						"offset": 0,
						"slot": "10",
						"type": "t_mapping(t_address,t_struct(UserPortfolio)1024_storage)"
					},
					{
						"astId": 1090,
						"contract": "v2.sol:PolicastMarketV2",
						"label": "userTradeHistory",
						"offset": 0,
						"slot": "11",
						"type": "t_mapping(t_address,t_array(t_struct(Trade)1006_storage)dyn_storage)"
					},
					{
						"astId": 1096,
						"contract": "v2.sol:PolicastMarketV2",
						"label": "marketTrades",
						"offset": 0,
						"slot": "12",
						"type": "t_mapping(t_uint256,t_array(t_struct(Trade)1006_storage)dyn_storage)"
					},
					{
						"astId": 1104,
						"contract": "v2.sol:PolicastMarketV2",
						"label": "priceHistory",
						"offset": 0,
						"slot": "13",
						"type": "t_mapping(t_uint256,t_mapping(t_uint256,t_array(t_struct(PricePoint)1013_storage)dyn_storage))"
					},
					{
						"astId": 1109,
						"contract": "v2.sol:PolicastMarketV2",
						"label": "marketOrderBook",
						"offset": 0,
						"slot": "14",
						"type": "t_mapping(t_uint256,t_array(t_uint256)dyn_storage)"
					},
					{
						"astId": 1114,
						"contract": "v2.sol:PolicastMarketV2",
						"label": "userOrders",
						"offset": 0,
						"slot": "15",
						"type": "t_mapping(t_address,t_array(t_uint256)dyn_storage)"
					},
					{
						"astId": 1120,
						"contract": "v2.sol:PolicastMarketV2",
						"label": "categoryMarkets",
						"offset": 0,
						"slot": "16",
						"type": "t_mapping(t_enum(MarketCategory)894,t_array(t_uint256)dyn_storage)"
					},
					{
						"astId": 1124,
						"contract": "v2.sol:PolicastMarketV2",
						"label": "totalWinnings",
						"offset": 0,
						"slot": "17",
						"type": "t_mapping(t_address,t_uint256)"
					},
					{
						"astId": 1127,
						"contract": "v2.sol:PolicastMarketV2",
						"label": "allParticipants",
						"offset": 0,
						"slot": "18",
						"type": "t_array(t_address)dyn_storage"
					}
				],
				"types": {
					"t_address": {
						"encoding": "inplace",
						"label": "address",
						"numberOfBytes": "20"
					},
					"t_array(t_address)dyn_storage": {
						"base": "t_address",
						"encoding": "dynamic_array",
						"label": "address[]",
						"numberOfBytes": "32"
					},
					"t_array(t_struct(PricePoint)1013_storage)dyn_storage": {
						"base": "t_struct(PricePoint)1013_storage",
						"encoding": "dynamic_array",
						"label": "struct PolicastMarketV2.PricePoint[]",
						"numberOfBytes": "32"
					},
					"t_array(t_struct(Trade)1006_storage)dyn_storage": {
						"base": "t_struct(Trade)1006_storage",
						"encoding": "dynamic_array",
						"label": "struct PolicastMarketV2.Trade[]",
						"numberOfBytes": "32"
					},
					"t_array(t_uint256)dyn_storage": {
						"base": "t_uint256",
						"encoding": "dynamic_array",
						"label": "uint256[]",
						"numberOfBytes": "32"
					},
					"t_bool": {
						"encoding": "inplace",
						"label": "bool",
						"numberOfBytes": "1"
					},
					"t_bytes32": {
						"encoding": "inplace",
						"label": "bytes32",
						"numberOfBytes": "32"
					},
					"t_contract(IERC20)605": {
						"encoding": "inplace",
						"label": "contract IERC20",
						"numberOfBytes": "20"
					},
					"t_enum(MarketCategory)894": {
						"encoding": "inplace",
						"label": "enum PolicastMarketV2.MarketCategory",
						"numberOfBytes": "1"
					},
					"t_enum(OrderSide)900": {
						"encoding": "inplace",
						"label": "enum PolicastMarketV2.OrderSide",
						"numberOfBytes": "1"
					},
					"t_enum(OrderType)897": {
						"encoding": "inplace",
						"label": "enum PolicastMarketV2.OrderType",
						"numberOfBytes": "1"
					},
					"t_int256": {
						"encoding": "inplace",
						"label": "int256",
						"numberOfBytes": "32"
					},
					"t_mapping(t_address,t_array(t_struct(Trade)1006_storage)dyn_storage)": {
						"encoding": "mapping",
						"key": "t_address",
						"label": "mapping(address => struct PolicastMarketV2.Trade[])",
						"numberOfBytes": "32",
						"value": "t_array(t_struct(Trade)1006_storage)dyn_storage"
					},
					"t_mapping(t_address,t_array(t_uint256)dyn_storage)": {
						"encoding": "mapping",
						"key": "t_address",
						"label": "mapping(address => uint256[])",
						"numberOfBytes": "32",
						"value": "t_array(t_uint256)dyn_storage"
					},
					"t_mapping(t_address,t_bool)": {
						"encoding": "mapping",
						"key": "t_address",
						"label": "mapping(address => bool)",
						"numberOfBytes": "32",
						"value": "t_bool"
					},
					"t_mapping(t_address,t_mapping(t_uint256,t_uint256))": {
						"encoding": "mapping",
						"key": "t_address",
						"label": "mapping(address => mapping(uint256 => uint256))",
						"numberOfBytes": "32",
						"value": "t_mapping(t_uint256,t_uint256)"
					},
					"t_mapping(t_address,t_struct(UserPortfolio)1024_storage)": {
						"encoding": "mapping",
						"key": "t_address",
						"label": "mapping(address => struct PolicastMarketV2.UserPortfolio)",
						"numberOfBytes": "32",
						"value": "t_struct(UserPortfolio)1024_storage"
					},
					"t_mapping(t_address,t_uint256)": {
						"encoding": "mapping",
						"key": "t_address",
						"label": "mapping(address => uint256)",
						"numberOfBytes": "32",
						"value": "t_uint256"
					},
					"t_mapping(t_bytes32,t_struct(RoleData)22_storage)": {
						"encoding": "mapping",
						"key": "t_bytes32",
						"label": "mapping(bytes32 => struct AccessControl.RoleData)",
						"numberOfBytes": "32",
						"value": "t_struct(RoleData)22_storage"
					},
					"t_mapping(t_enum(MarketCategory)894,t_array(t_uint256)dyn_storage)": {
						"encoding": "mapping",
						"key": "t_enum(MarketCategory)894",
						"label": "mapping(enum PolicastMarketV2.MarketCategory => uint256[])",
						"numberOfBytes": "32",
						"value": "t_array(t_uint256)dyn_storage"
					},
					"t_mapping(t_uint256,t_array(t_struct(PricePoint)1013_storage)dyn_storage)": {
						"encoding": "mapping",
						"key": "t_uint256",
						"label": "mapping(uint256 => struct PolicastMarketV2.PricePoint[])",
						"numberOfBytes": "32",
						"value": "t_array(t_struct(PricePoint)1013_storage)dyn_storage"
					},
					"t_mapping(t_uint256,t_array(t_struct(Trade)1006_storage)dyn_storage)": {
						"encoding": "mapping",
						"key": "t_uint256",
						"label": "mapping(uint256 => struct PolicastMarketV2.Trade[])",
						"numberOfBytes": "32",
						"value": "t_array(t_struct(Trade)1006_storage)dyn_storage"
					},
					"t_mapping(t_uint256,t_array(t_uint256)dyn_storage)": {
						"encoding": "mapping",
						"key": "t_uint256",
						"label": "mapping(uint256 => uint256[])",
						"numberOfBytes": "32",
						"value": "t_array(t_uint256)dyn_storage"
					},
					"t_mapping(t_uint256,t_mapping(t_uint256,t_array(t_struct(PricePoint)1013_storage)dyn_storage))": {
						"encoding": "mapping",
						"key": "t_uint256",
						"label": "mapping(uint256 => mapping(uint256 => struct PolicastMarketV2.PricePoint[]))",
						"numberOfBytes": "32",
						"value": "t_mapping(t_uint256,t_array(t_struct(PricePoint)1013_storage)dyn_storage)"
					},
					"t_mapping(t_uint256,t_struct(Market)963_storage)": {
						"encoding": "mapping",
						"key": "t_uint256",
						"label": "mapping(uint256 => struct PolicastMarketV2.Market)",
						"numberOfBytes": "32",
						"value": "t_struct(Market)963_storage"
					},
					"t_mapping(t_uint256,t_struct(MarketOption)913_storage)": {
						"encoding": "mapping",
						"key": "t_uint256",
						"label": "mapping(uint256 => struct PolicastMarketV2.MarketOption)",
						"numberOfBytes": "32",
						"value": "t_struct(MarketOption)913_storage"
					},
					"t_mapping(t_uint256,t_struct(Order)988_storage)": {
						"encoding": "mapping",
						"key": "t_uint256",
						"label": "mapping(uint256 => struct PolicastMarketV2.Order)",
						"numberOfBytes": "32",
						"value": "t_struct(Order)988_storage"
					},
					"t_mapping(t_uint256,t_uint256)": {
						"encoding": "mapping",
						"key": "t_uint256",
						"label": "mapping(uint256 => uint256)",
						"numberOfBytes": "32",
						"value": "t_uint256"
					},
					"t_string_storage": {
						"encoding": "bytes",
						"label": "string",
						"numberOfBytes": "32"
					},
					"t_struct(Market)963_storage": {
						"encoding": "inplace",
						"label": "struct PolicastMarketV2.Market",
						"members": [
							{
								"astId": 915,
								"contract": "v2.sol:PolicastMarketV2",
								"label": "question",
								"offset": 0,
								"slot": "0",
								"type": "t_string_storage"
							},
							{
								"astId": 917,
								"contract": "v2.sol:PolicastMarketV2",
								"label": "description",
								"offset": 0,
								"slot": "1",
								"type": "t_string_storage"
							},
							{
								"astId": 919,
								"contract": "v2.sol:PolicastMarketV2",
								"label": "endTime",
								"offset": 0,
								"slot": "2",
								"type": "t_uint256"
							},
							{
								"astId": 922,
								"contract": "v2.sol:PolicastMarketV2",
								"label": "category",
								"offset": 0,
								"slot": "3",
								"type": "t_enum(MarketCategory)894"
							},
							{
								"astId": 924,
								"contract": "v2.sol:PolicastMarketV2",
								"label": "winningOptionId",
								"offset": 0,
								"slot": "4",
								"type": "t_uint256"
							},
							{
								"astId": 926,
								"contract": "v2.sol:PolicastMarketV2",
								"label": "resolved",
								"offset": 0,
								"slot": "5",
								"type": "t_bool"
							},
							{
								"astId": 928,
								"contract": "v2.sol:PolicastMarketV2",
								"label": "disputed",
								"offset": 1,
								"slot": "5",
								"type": "t_bool"
							},
							{
								"astId": 930,
								"contract": "v2.sol:PolicastMarketV2",
								"label": "validated",
								"offset": 2,
								"slot": "5",
								"type": "t_bool"
							},
							{
								"astId": 932,
								"contract": "v2.sol:PolicastMarketV2",
								"label": "creator",
								"offset": 3,
								"slot": "5",
								"type": "t_address"
							},
							{
								"astId": 934,
								"contract": "v2.sol:PolicastMarketV2",
								"label": "totalLiquidity",
								"offset": 0,
								"slot": "6",
								"type": "t_uint256"
							},
							{
								"astId": 936,
								"contract": "v2.sol:PolicastMarketV2",
								"label": "totalVolume",
								"offset": 0,
								"slot": "7",
								"type": "t_uint256"
							},
							{
								"astId": 938,
								"contract": "v2.sol:PolicastMarketV2",
								"label": "createdAt",
								"offset": 0,
								"slot": "8",
								"type": "t_uint256"
							},
							{
								"astId": 940,
								"contract": "v2.sol:PolicastMarketV2",
								"label": "optionCount",
								"offset": 0,
								"slot": "9",
								"type": "t_uint256"
							},
							{
								"astId": 945,
								"contract": "v2.sol:PolicastMarketV2",
								"label": "options",
								"offset": 0,
								"slot": "10",
								"type": "t_mapping(t_uint256,t_struct(MarketOption)913_storage)"
							},
							{
								"astId": 951,
								"contract": "v2.sol:PolicastMarketV2",
								"label": "userShares",
								"offset": 0,
								"slot": "11",
								"type": "t_mapping(t_address,t_mapping(t_uint256,t_uint256))"
							},
							{
								"astId": 955,
								"contract": "v2.sol:PolicastMarketV2",
								"label": "hasClaimed",
								"offset": 0,
								"slot": "12",
								"type": "t_mapping(t_address,t_bool)"
							},
							{
								"astId": 958,
								"contract": "v2.sol:PolicastMarketV2",
								"label": "participants",
								"offset": 0,
								"slot": "13",
								"type": "t_array(t_address)dyn_storage"
							},
							{
								"astId": 960,
								"contract": "v2.sol:PolicastMarketV2",
								"label": "payoutIndex",
								"offset": 0,
								"slot": "14",
								"type": "t_uint256"
							},
							{
								"astId": 962,
								"contract": "v2.sol:PolicastMarketV2",
								"label": "feeCollected",
								"offset": 0,
								"slot": "15",
								"type": "t_uint256"
							}
						],
						"numberOfBytes": "512"
					},
					"t_struct(MarketOption)913_storage": {
						"encoding": "inplace",
						"label": "struct PolicastMarketV2.MarketOption",
						"members": [
							{
								"astId": 902,
								"contract": "v2.sol:PolicastMarketV2",
								"label": "name",
								"offset": 0,
								"slot": "0",
								"type": "t_string_storage"
							},
							{
								"astId": 904,
								"contract": "v2.sol:PolicastMarketV2",
								"label": "description",
								"offset": 0,
								"slot": "1",
								"type": "t_string_storage"
							},
							{
								"astId": 906,
								"contract": "v2.sol:PolicastMarketV2",
								"label": "totalShares",
								"offset": 0,
								"slot": "2",
								"type": "t_uint256"
							},
							{
								"astId": 908,
								"contract": "v2.sol:PolicastMarketV2",
								"label": "totalVolume",
								"offset": 0,
								"slot": "3",
								"type": "t_uint256"
							},
							{
								"astId": 910,
								"contract": "v2.sol:PolicastMarketV2",
								"label": "currentPrice",
								"offset": 0,
								"slot": "4",
								"type": "t_uint256"
							},
							{
								"astId": 912,
								"contract": "v2.sol:PolicastMarketV2",
								"label": "isActive",
								"offset": 0,
								"slot": "5",
								"type": "t_bool"
							}
						],
						"numberOfBytes": "192"
					},
					"t_struct(Order)988_storage": {
						"encoding": "inplace",
						"label": "struct PolicastMarketV2.Order",
						"members": [
							{
								"astId": 965,
								"contract": "v2.sol:PolicastMarketV2",
								"label": "id",
								"offset": 0,
								"slot": "0",
								"type": "t_uint256"
							},
							{
								"astId": 967,
								"contract": "v2.sol:PolicastMarketV2",
								"label": "marketId",
								"offset": 0,
								"slot": "1",
								"type": "t_uint256"
							},
							{
								"astId": 969,
								"contract": "v2.sol:PolicastMarketV2",
								"label": "optionId",
								"offset": 0,
								"slot": "2",
								"type": "t_uint256"
							},
							{
								"astId": 971,
								"contract": "v2.sol:PolicastMarketV2",
								"label": "maker",
								"offset": 0,
								"slot": "3",
								"type": "t_address"
							},
							{
								"astId": 974,
								"contract": "v2.sol:PolicastMarketV2",
								"label": "orderType",
								"offset": 20,
								"slot": "3",
								"type": "t_enum(OrderType)897"
							},
							{
								"astId": 977,
								"contract": "v2.sol:PolicastMarketV2",
								"label": "side",
								"offset": 21,
								"slot": "3",
								"type": "t_enum(OrderSide)900"
							},
							{
								"astId": 979,
								"contract": "v2.sol:PolicastMarketV2",
								"label": "price",
								"offset": 0,
								"slot": "4",
								"type": "t_uint256"
							},
							{
								"astId": 981,
								"contract": "v2.sol:PolicastMarketV2",
								"label": "quantity",
								"offset": 0,
								"slot": "5",
								"type": "t_uint256"
							},
							{
								"astId": 983,
								"contract": "v2.sol:PolicastMarketV2",
								"label": "filled",
								"offset": 0,
								"slot": "6",
								"type": "t_uint256"
							},
							{
								"astId": 985,
								"contract": "v2.sol:PolicastMarketV2",
								"label": "timestamp",
								"offset": 0,
								"slot": "7",
								"type": "t_uint256"
							},
							{
								"astId": 987,
								"contract": "v2.sol:PolicastMarketV2",
								"label": "isActive",
								"offset": 0,
								"slot": "8",
								"type": "t_bool"
							}
						],
						"numberOfBytes": "288"
					},
					"t_struct(PricePoint)1013_storage": {
						"encoding": "inplace",
						"label": "struct PolicastMarketV2.PricePoint",
						"members": [
							{
								"astId": 1008,
								"contract": "v2.sol:PolicastMarketV2",
								"label": "price",
								"offset": 0,
								"slot": "0",
								"type": "t_uint256"
							},
							{
								"astId": 1010,
								"contract": "v2.sol:PolicastMarketV2",
								"label": "timestamp",
								"offset": 0,
								"slot": "1",
								"type": "t_uint256"
							},
							{
								"astId": 1012,
								"contract": "v2.sol:PolicastMarketV2",
								"label": "volume",
								"offset": 0,
								"slot": "2",
								"type": "t_uint256"
							}
						],
						"numberOfBytes": "96"
					},
					"t_struct(RoleData)22_storage": {
						"encoding": "inplace",
						"label": "struct AccessControl.RoleData",
						"members": [
							{
								"astId": 19,
								"contract": "v2.sol:PolicastMarketV2",
								"label": "hasRole",
								"offset": 0,
								"slot": "0",
								"type": "t_mapping(t_address,t_bool)"
							},
							{
								"astId": 21,
								"contract": "v2.sol:PolicastMarketV2",
								"label": "adminRole",
								"offset": 0,
								"slot": "1",
								"type": "t_bytes32"
							}
						],
						"numberOfBytes": "64"
					},
					"t_struct(Trade)1006_storage": {
						"encoding": "inplace",
						"label": "struct PolicastMarketV2.Trade",
						"members": [
							{
								"astId": 990,
								"contract": "v2.sol:PolicastMarketV2",
								"label": "marketId",
								"offset": 0,
								"slot": "0",
								"type": "t_uint256"
							},
							{
								"astId": 992,
								"contract": "v2.sol:PolicastMarketV2",
								"label": "optionId",
								"offset": 0,
								"slot": "1",
								"type": "t_uint256"
							},
							{
								"astId": 994,
								"contract": "v2.sol:PolicastMarketV2",
								"label": "buyer",
								"offset": 0,
								"slot": "2",
								"type": "t_address"
							},
							{
								"astId": 996,
								"contract": "v2.sol:PolicastMarketV2",
								"label": "seller",
								"offset": 0,
								"slot": "3",
								"type": "t_address"
							},
							{
								"astId": 998,
								"contract": "v2.sol:PolicastMarketV2",
								"label": "price",
								"offset": 0,
								"slot": "4",
								"type": "t_uint256"
							},
							{
								"astId": 1000,
								"contract": "v2.sol:PolicastMarketV2",
								"label": "quantity",
								"offset": 0,
								"slot": "5",
								"type": "t_uint256"
							},
							{
								"astId": 1002,
								"contract": "v2.sol:PolicastMarketV2",
								"label": "timestamp",
								"offset": 0,
								"slot": "6",
								"type": "t_uint256"
							},
							{
								"astId": 1005,
								"contract": "v2.sol:PolicastMarketV2",
								"label": "orderType",
								"offset": 0,
								"slot": "7",
								"type": "t_enum(OrderType)897"
							}
						],
						"numberOfBytes": "256"
					},
					"t_struct(UserPortfolio)1024_storage": {
						"encoding": "inplace",
						"label": "struct PolicastMarketV2.UserPortfolio",
						"members": [
							{
								"astId": 1015,
								"contract": "v2.sol:PolicastMarketV2",
								"label": "totalInvested",
								"offset": 0,
								"slot": "0",
								"type": "t_uint256"
							},
							{
								"astId": 1017,
								"contract": "v2.sol:PolicastMarketV2",
								"label": "totalWinnings",
								"offset": 0,
								"slot": "1",
								"type": "t_uint256"
							},
							{
								"astId": 1019,
								"contract": "v2.sol:PolicastMarketV2",
								"label": "unrealizedPnL",
								"offset": 0,
								"slot": "2",
								"type": "t_int256"
							},
							{
								"astId": 1021,
								"contract": "v2.sol:PolicastMarketV2",
								"label": "realizedPnL",
								"offset": 0,
								"slot": "3",
								"type": "t_int256"
							},
							{
								"astId": 1023,
								"contract": "v2.sol:PolicastMarketV2",
								"label": "tradeCount",
								"offset": 0,
								"slot": "4",
								"type": "t_uint256"
							}
						],
						"numberOfBytes": "160"
					},
					"t_uint256": {
						"encoding": "inplace",
						"label": "uint256",
						"numberOfBytes": "32"
					}
				}
			},
			"userdoc": {
				"kind": "user",
				"methods": {},
				"version": 1
			}
		}
	}
}