{
	"data": {
		"bytecode": {
			"linkReferences": {},
			"object": "6080346100f357601f61425038819003918201601f19168301916001600160401b038311848410176100f7578084926020946040528339810103126100f357516001600160a01b03811681036100f35733156100e0575f8054336001600160a01b0319821681178355916001600160a01b03909116907f8be0079c531659141344cd1fd0a4f28419497f9722a3daafe3b4186f6b6457e09080a36001805560c860075560038054610100600160a81b03191660089290921b610100600160a81b03169190911790556100d03361010b565b5060405161409b90816101958239f35b631e4fbdf760e01b5f525f60045260245ffd5b5f80fd5b634e487b7160e01b5f52604160045260245ffd5b6001600160a01b0381165f9081525f80516020614230833981519152602052604090205460ff1661018f576001600160a01b03165f8181525f8051602061423083398151915260205260408120805460ff191660011790553391907f2f8788117e7eff1d82e926ec794901d17c78024a50270940304540a733656f0d8180a4600190565b505f9056fe6080806040526004361015610012575f80fd5b5f3560e01c90816301ffc9a7146133da5750806305e33dd01461339857806308693f3c146133535780630da183d6146133385780631cb1de2f146132bf5780631edb27e914613225578063222fa267146131815780632453ffa814613164578063248a9ca314613139578063257ff7b61461310a57806329cf655b14612e6a5780632f2ff15d146130cc57806332617b701461309257806335037e0b1461301657806336568abe14612fd25780633ec7919314612efc5780633f4ba83a14612e9657806343425e8814612e6a5780634a2021ef14612c9b57806358057fe514612b035780635a2db6fb146126335780635c975abb14612611578063605573331461245a578063677bd9ff1461215a5780636db3b4dc146120de578063715018a61461208757806373af16fc14611e42578063755f062914611e0857806377b4a3e714611dce5780637c94645414611c665780637e50898e14611c48578063835dc40b14611bb45780638456cb5914611b5b578063856652e914611b125780638b8840e014611ada5780638da5cb5b14611ab357806391d1485414611a6a578063927fef2e14611a0757806392f012b2146119eb578063a217fddf146119d1578063a75dd11514611977578063a85c38ef146118bb578063a8cc7f1914611886578063ab44e63514611736578063abdce1a4146116ba578063b1283e7714611588578063b1ab13ff1461154d578063b61920c1146114e9578063bd55022a146114cc578063c2454af714611434578063caf9fd431461099f578063d547741f1461095a578063ec9790821461028f578063ed88123014610352578063eeca08f014610335578063f2fde38b146102b05763fd69f3c21461028f575f80fd5b346102ac575f3660031901126102ac576020600454604051908152f35b5f80fd5b346102ac5760203660031901126102ac576102c961346e565b6102d1613f04565b6001600160a01b03168015610322575f80546001600160a01b03198116831782556001600160a01b0316907f8be0079c531659141344cd1fd0a4f28419497f9722a3daafe3b4186f6b6457e09080a3005b631e4fbdf760e01b5f525f60045260245ffd5b346102ac575f3660031901126102ac576020600754604051908152f35b346102ac576103603661364d565b91610369613fae565b610371613fce565b61037e60045485106138a4565b835f526008602052610398600260405f200154421061390c565b835f5260086020526103b460ff600560405f200154161561394b565b835f5260086020526103ce600960405f2001548210613997565b835f526008602052600a60405f2001815f526020526103f660ff600560405f200154166139d4565b610401821515613a14565b835f52600860205260ff600560405f20015460101c161561091e57835f52600860205260405f2092815f52600a840160205260405f20905f8095601181019260ff845416156107eb575b50600b81019060018060a01b0333165f528160205260405f20865f5260205260405f205415806107db575b610735575b600f9160018060a01b0333165f5260205260405f20865f5260205260405f206104a58882546138e8565b9055600285016104b68882546138e8565b9055600385016104c78482546138e8565b9055600681016104d88482546138e8565b9055600781016104e98482546138e8565b9055016104f78782546138e8565b905561050386826138e8565b335f52600a60205261051a60405f209182546138e8565b9055335f52600a602052600460405f20016105358154613a73565b9055815460ff16156106ae5760046105879160ff945f9283915b0155885f52600d60205260405f20865f5260205260405f209060405192610575846135a0565b83524260208401526040830152613a81565b541615610685575f5b6105f360405161059f816135bb565b8681528360208201523360408201525f6060820152608081019283528460a08201524260c08201525f60e0820152335f52600b6020526105e28160405f20613ad2565b865f52600c60205260405f20613ad2565b51916006549061060282613a73565b600655604051935f8552602085015260408401526060830152837f976184626638b6c7e51a4ab66b297beb1714b545ce4e867a70d622566573098c339360808180030190a480610653575b60018055005b60207faf7c505ee772ec188af7067e1f73db08ab028e3d564273442b907742b9c41fa091604051908152a2808061064d565b6106a981855f526008602052600a60405f2001905f52602052600460405f20015490565b610590565b865f526008602052600a60405f2001845f5260205260405f2090600282015490670de0b6b3a7640000870294878604670de0b6b3a76400001488151715610721576103e8830180931161072157610719610587946004610711819660ff9a6138f5565b9101546138e8565b92839161054f565b634e487b7160e01b5f52601160045260245ffd5b600d81018054600160401b8110156107c75761075691600182018155613459565b81549060031b9033821b9160018060a01b03901b1916179055335f52600a60205260405f205461047b5760125491600160401b8310156107c7576107a4836001600f95016012556012613459565b81546001600160a01b0360039290921b91821b19163390911b179055915061047b565b634e487b7160e01b5f52604160045260245ffd5b506107e68933613fe9565b610476565b9150955061081384885f526008602052600a60405f2001905f52602052600460405f20015490565b9081116108e85761082d85670de0b6b3a764000092613a60565b0461271061083d60075483613a60565b04955f602061088d60018060a01b0360035460081c1661085d8b876138e8565b6040516323b872dd60e01b8152336004820152306024820152604481019190915293849283919082906064820190565b03925af180156108dd576108a8915f916108ae575b50613b9d565b8861044b565b6108d0915060203d6020116108d6575b6108c881836135d7565b810190613b85565b8a6108a2565b503d6108be565b6040513d5f823e3d90fd5b60405162461bcd60e51b815260206004820152600e60248201526d0a0e4d2c6ca40e8dede40d0d2ced60931b6044820152606490fd5b60405162461bcd60e51b815260206004820152601460248201527313585c9ad95d081b9bdd081d985b1a59185d195960621b6044820152606490fd5b346102ac5760403660031901126102ac5761099d600435610979613484565b90610998610993825f526002602052600160405f20015490565b613c21565b613f2a565b005b346102ac576101003660031901126102ac576004356001600160401b0381116102ac576109d09036906004016135f8565b6024356001600160401b0381116102ac576109ef9036906004016135f8565b6044356001600160401b0381116102ac57610a0e9036906004016137fc565b916064356001600160401b0381116102ac57610a2e9036906004016137fc565b6084359160a43594600a8610156102ac5760e4359160c43583151584036102ac57610a57613fce565b5f546001600160a01b0316331480156113fd575b156113b957610e10861015806113ab575b156113735781511561132e57825160028110159081611322575b50156112dd5782518551036112875783611180575b60045495610ab887613a73565b600455865f52600860205260405f209783516001600160401b0381116107c757610ae28a5461370d565b601f811161113b575b50806020601f82116001146110da575f916110cf575b508160011b915f199060031b1c19161789555b805160018a01916001600160401b0382116107c757610b33835461370d565b601f811161108a575b50602090601f831160011461102257610b74949392915f9183611017575b50508160011b915f199060031b1c19161790555b426138e8565b6002880190815560038801805460ff8b811660ff199283161790925560058a0180546301000000600160b81b0319163360181b6301000000600160b81b03161790554260088b0155855160098b0181905560108b019490945560118a018054881515909316929091169190911790559315610fea57505f969592955b600a5f9401935b8351811015610ef257610c0a8185613bdb565b51610c158288613bdb565b5160405191610c2383613585565b825260208201908152604082015f8152606083015f815260808401918d835260a085019360018552865f528a60205260405f2095518051906001600160401b0382116107c7578190610c75895461370d565b601f8111610ea2575b50602090601f8311600114610e3f575f92610e34575b50508160011b915f199060031b1c19161786555b51805160018701916001600160401b0382116107c757610cc8835461370d565b601f8111610def575b50602090601f8311600114610d7f57928260059693610d3499969360019c9b99965f92610d74575b50505f19600383901b1c1916908b1b1790555b51600286015551600385015551600484015551151591019060ff801983541691151516179055565b875f52600d60205260405f20815f52602052610d6e60405f2060405190610d5a826135a0565b8c82524260208301525f6040830152613a81565b01610bf7565b015190505f80610cf9565b90601f19831691845f52815f20925f5b818110610dd7575093610d3499969360019c9b9996938d938360059b9810610dbf575b505050811b019055610d0c565b01515f1960f88460031b161c191690555f8080610db2565b92936020600181928786015181550195019301610d8f565b835f5260205f20601f840160051c81019160208510610e2a575b601f0160051c01905b818110610e1f5750610cd1565b5f8155600101610e12565b9091508190610e09565b015190505f80610c94565b5f8a81528281209350601f198516905b818110610e8a5750908460019594939210610e72575b505050811b018655610ca8565b01515f1960f88460031b161c191690555f8080610e65565b92936020600181928786015181550195019301610e4f565b909150885f5260205f20601f840160051c81019160208510610ee8575b90601f859493920160051c01905b818110610eda5750610c7e565b5f8155849350600101610ecd565b9091508190610ebf565b5082869188610f00826136f6565b8054600160401b8110156107c757610f1d91600182018155613459565b81549060031b9086821b915f19901b191617905554610f476040519560a0875260a0870190613539565b8581036020870152835180825260208201916020808360051b8301019601925f915b838310610fbd57602089807f93f20d1ee811e3a7847933eca44474c052f00d323ddac70f72ad001fb49fe9158d808d610fac8e8e6040850152606084019061355d565b3360808301520390a2604051908152f35b9091929396602080610fdb600193601f198682030187528b51613539565b99019301930191939290610f69565b801561100357670de0b6b3a76400000496959295610bf0565b634e487b7160e01b5f52601260045260245ffd5b015190508d80610b5a565b90601f19831691845f52815f20925f5b8181106110725750916001939185610b74989796941061105a575b505050811b019055610b6e565b01515f1960f88460031b161c191690558d808061104d565b92936020600181928786015181550195019301611032565b835f5260205f20601f840160051c810191602085106110c5575b601f0160051c01905b8181106110ba5750610b3c565b5f81556001016110ad565b90915081906110a4565b90508501518c610b01565b5f8c81528181209250601f198416905b8181106111235750908360019493921061110b575b5050811b018955610b14565b8701515f1960f88460031b161c191690558c806110ff565b9192602060018192868c0151815501940192016110ea565b8a5f5260205f20601f830160051c81019160208410611176575b601f0160051c01905b81811061116b5750610aeb565b5f815560010161115e565b9091508190611155565b8015611236576003546040516323b872dd60e01b81523360048201523060248201526044810183905290602090829060081c6001600160a01b0316815f816064810103925af19081156108dd575f91611217575b50610aab5760405162461bcd60e51b815260206004820152601660248201527514995dd85c99081d1c985b9cd9995c8819985a5b195960521b6044820152606490fd5b611230915060203d6020116108d6576108c881836135d7565b896111d4565b60405162461bcd60e51b815260206004820152602360248201527f467265652d656e747279206d61726b6574207265717569726573206120726577604482015262185c9960ea1b6064820152608490fd5b60405162461bcd60e51b815260206004820152602860248201527f4f7074696f6e7320616e64206465736372697074696f6e73206c656e677468206044820152670dad2e6dac2e8c6d60c31b6064820152608490fd5b60405162461bcd60e51b815260206004820152601960248201527f496e76616c6964206e756d626572206f66206f7074696f6e73000000000000006044820152606490fd5b600a9150111589610a96565b60405162461bcd60e51b815260206004820152601860248201527f5175657374696f6e2063616e6e6f7420626520656d70747900000000000000006044820152606490fd5b60405162461bcd60e51b815260206004820152601060248201526f24b73b30b634b210323ab930ba34b7b760811b6044820152606490fd5b506301e13380861115610a7c565b606460405162461bcd60e51b815260206004820152602060248201527f4e6f7420617574686f72697a656420746f20637265617465206d61726b6574736044820152fd5b50335f9081527f30d995518b427f5a5863ad73fe356ca50cf70941f42c516830919c845fa5806f602052604090205460ff16610a6b565b346102ac5761144c611445366136d7565b91906136f6565b805490818311156114c557815b61146283613bef565b93808211156114bd57611474916138ff565b5f5b83811061148f576040518061148b8782613685565b0390f35b806114a561149f600193856138e8565b85613459565b90549060031b1c6114b68288613bdb565b5201611476565b50505f611474565b8291611459565b346102ac575f3660031901126102ac576020600654604051908152f35b346102ac5760203660031901126102ac576001600160a01b0361150a61346e565b165f52600a60205260a060405f20805490600181015490600281015460046003830154920154926040519485526020850152604084015260608301526080820152f35b346102ac57602061158061156036613523565b905f526008602052600a60405f2001905f52602052600460405f20015490565b604051908152f35b346102ac5760203660031901126102ac576004355f52600860205260405f206115b081613745565b6115bc60018301613745565b90600283015492600381015460ff16906004810154600582015460068301546007840154600885015490600986015492600e87015494600f880154966010890154986011015460ff16996040519d8e9d8e809e6102208252610220820161162291613539565b90808203906020015261163491613539565b9c6040015260608d016116469161355d565b60808c015260ff818116151560a08d0152600882901c8116151560c08d0152601082901c16151560e08c015260181c6001600160a01b03166101008b01526101208a01526101408901526101608801526101808701526101a08601526101c08501526101e084015215156102008301520390f35b346102ac5760203660031901126102ac5761099d6116d661346e565b6116de613f04565b7fd486618b282cb35034d59c30c062b5b3822d6cdf87ec459191ce7f5b7b8a48735f5260026020527fd3dccf8d8289b9deee17e361620d7577de7b525dd57f668d5c1bb85ec53112b65461173190613c21565b613dd2565b346102ac5760203660031901126102ac5760043561175760045482106138a4565b335f9081527fd3dccf8d8289b9deee17e361620d7577de7b525dd57f668d5c1bb85ec53112b5602052604090205460ff168015611873575b1561183d57805f52600860205260ff600560405f20015460101c166117f857805f526008602052600560405f20016201000062ff0000198254161790557fcd5b0c95d548cdba5f9a45b4210642d0b866a0cc878e0a863855455908c6db656020604051338152a2005b60405162461bcd60e51b815260206004820152601860248201527f4d61726b657420616c72656164792076616c69646174656400000000000000006044820152606490fd5b60405162461bcd60e51b815260206004820152600e60248201526d139bdd08185d5d1a1bdc9a5e995960921b6044820152606490fd5b505f546001600160a01b0316331461178f565b346102ac57611897611445366136d7565b80548210156102ac576020916118ac91613459565b90549060031b1c604051908152f35b346102ac5760203660031901126102ac576004355f52600960205261016060405f208054906001810154906002810154600382015460ff8160a01c1660ff8260a81c1660048501549160058601549360068701549560ff600860078a015499015416986040519a8b5260208b015260408a015260018060a01b03166060890152611944816134b3565b6080880152611952816134b3565b60a087015260c086015260e08501526101008401526101208301521515610140820152f35b346102ac576119853661366b565b915f52600d60205260405f20905f5260205260405f2080548210156102ac576060916119b0916136be565b50805490600260018201549101549060405192835260208301526040820152f35b346102ac575f3660031901126102ac5760206040515f8152f35b346102ac575f3660031901126102ac576020604051610e108152f35b346102ac5760203660031901126102ac57600435611a23613f04565b6103e88111611a3157600755005b60405162461bcd60e51b815260206004820152601160248201527008ccaca40e4c2e8ca40e8dede40d0d2ced607b1b6044820152606490fd5b346102ac5760403660031901126102ac57611a83613484565b6004355f52600260205260405f209060018060a01b03165f52602052602060ff60405f2054166040519015158152f35b346102ac575f3660031901126102ac575f546040516001600160a01b039091168152602090f35b346102ac5760203660031901126102ac576001600160a01b03611afb61346e565b165f526011602052602060405f2054604051908152f35b346102ac5760403660031901126102ac57611b2b61346e565b6001600160a01b03165f908152600f60205260409020805460243591908210156102ac576020916118ac91613459565b346102ac575f3660031901126102ac57611b73613f04565b611b7b613fce565b600160ff1960035416176003557f62e78cea01bee320cd4e420270b5ea74000d11b0c9f74754ebdbfc544b05a2586020604051338152a1005b346102ac5760403660031901126102ac57600435611bd0613484565b90611bde60045482106138a4565b5f52600860205260405f2090600982015490611bf982613bef565b92600b01906001600160a01b03165f5b838110611c1e576040518061148b8782613685565b600190825f528360205260405f20815f5260205260405f2054611c418288613bdb565b5201611c09565b346102ac575f3660031901126102ac5760206040516301e133808152f35b346102ac57611c743661366b565b915f52600d60205260405f20905f5260205260405f208054908183115f14611dc757815b611ca1836137e5565b93611caf60405195866135d7565b838552601f19611cbe856137e5565b015f5b818110611d9e57505080821115611d9657611cdb916138ff565b5f5b838110611d4057846040518091602082016020835281518091526020604084019201905f5b818110611d10575050500390f35b91935091602060606001926040875180518352848101518584015201516040820152019401910191849392611d02565b80611d56611d50600193856138e8565b856136be565b50600260405191611d66836135a0565b8054835284810154602084015201546040820152611d848288613bdb565b52611d8f8187613bdb565b5001611cdd565b50505f611cdb565b602090604051611dad816135a0565b5f81525f838201525f604082015282828a01015201611cc1565b8291611c98565b346102ac575f3660031901126102ac5760206040517fef485be696bbc0c91ad541bbd553ffb5bd0e18dac30ba76e992dda23cb807a8a8152f35b346102ac575f3660031901126102ac5760206040517fdcee1d35c83a32b436264a5c9afd68685c124f3f9097e87804c55410e67fc59a8152f35b346102ac57611e5036613523565b60125490818310156120425781611e6782856138e8565b111561203257505b611e7982826138ff565b91611e83836137e5565b92611e9160405194856135d7565b808452611ea0601f19916137e5565b015f5b81811061201b575050805b828110611f2b57836040518091602082016020835281518091526020604084019201905f5b818110611ee1575050500390f35b91935091602060a0600192608087518580851b0381511683528481015185840152604081015160408401526060810151606084015201516080820152019401910191849392611ed3565b611f348161342d565b60018060a01b0391549060031b1c1690815f52600a60205260405f209160405190611f5e8261356a565b83548252600184015491600460208201958487526002810154604084015260038101546060840152015494608082019580875215155f1461200c5760648402938085046064149015171561072157600195611fbe612005958451906138f5565b915b51925190519260405194611fd38661356a565b85526020850152604084015260608301526080820152611ff385846138ff565b90611ffe8289613bdb565b5286613bdb565b5001611eae565b61200593506001955f91611fc0565b60209061202661387a565b82828801015201611ea3565b61203d9150826138e8565b611e6f565b60405162461bcd60e51b815260206004820152601960248201527f537461727420696e646578206f7574206f6620626f756e6473000000000000006044820152606490fd5b346102ac575f3660031901126102ac5761209f613f04565b5f80546001600160a01b0319811682556001600160a01b03167f8be0079c531659141344cd1fd0a4f28419497f9722a3daafe3b4186f6b6457e08280a3005b346102ac5760203660031901126102ac5761099d6120fa61346e565b612102613f04565b7fef485be696bbc0c91ad541bbd553ffb5bd0e18dac30ba76e992dda23cb807a8a5f5260026020527f30d995518b427f5a5863ad73fe356ca50cf70941f42c516830919c845fa580705461215590613c21565b613d19565b346102ac5760203660031901126102ac57600435612176613fae565b61218360045482106138a4565b805f52600860205260405f2090600582015460ff8116908161244b575b501561240657600c82019160018060a01b0333165f528260205260ff60405f2054166123cf57335f908152600b820160209081526040808320600485015480855292529091205490811561239657601183015460ff1615612315576122259291612220915f52600a83016020526010600260405f20015493015490613a60565b6138f5565b915b335f90815260209182526040808220805460ff19166001908117909155600a90935290200180546122599084906138e8565b9055335f52601160205260405f206122728382546138e8565b905560035460405163a9059cbb60e01b81523360048201526024810184905290602090829060081c6001600160a01b0316815f816044810103925af180156108dd576122c4915f916122f65750613b9d565b6040519182527f4ec90e965519d92681267467f775ada5bd214aa92c0dc93d90a5e880ce9ed02660203393a360018055005b61230f915060203d6020116108d6576108c881836135d7565b846108a2565b8261222061238a92600a6123909601815f52806020526123636006600260405f200154950154835f5282602052670de0b6b3a764000061235c600460405f20015488613a60565b04906138ff565b915f52602052670de0b6b3a7640000612383600460405f20015487613a60565b0494613a60565b906138e8565b91612227565b60405162461bcd60e51b81526020600482015260116024820152704e6f2077696e6e696e672073686172657360781b6044820152606490fd5b60405162461bcd60e51b815260206004820152600f60248201526e105b1c9958591e4818db185a5b5959608a1b6044820152606490fd5b60405162461bcd60e51b815260206004820152601b60248201527f4d61726b6574206e6f7420726561647920666f7220636c61696d7300000000006044820152606490fd5b60ff915060081c1615836121a0565b346102ac5761246836613523565b61247560045483106138a4565b5f546001600160a01b0316331480156125da575b1561258b57815f52600860205260405f2090600282015442106125465760058201908154916124bb60ff84161561394b565b60098401548210156125085760016040938360047fc160a477581cb2155b1578581d805dcc0e6623403811fc2853465045bc0b049297015560ff19161790558151908152336020820152a2005b60405162461bcd60e51b815260206004820152601660248201527524b73b30b634b2103bb4b73734b7339037b83a34b7b760511b6044820152606490fd5b60405162461bcd60e51b815260206004820152601860248201527f4d61726b657420686173206e6f7420656e6465642079657400000000000000006044820152606490fd5b60405162461bcd60e51b815260206004820152602160248201527f4e6f7420617574686f72697a656420746f207265736f6c7665206d61726b65746044820152607360f81b6064820152608490fd5b50335f9081527f8e2c297e756b2a427c5dc4607f639842a8ea6e0f6322302f4ea76306b642cfc2602052604090205460ff16612489565b346102ac575f3660031901126102ac57602060ff600354166040519015158152f35b346102ac576126413661364d565b9061264a613fae565b612652613fce565b61265f60045485106138a4565b835f526008602052612679600260405f200154421061390c565b835f52600860205261269560ff600560405f200154161561394b565b835f5260086020526126af600960405f2001548410613997565b835f526008602052600a60405f2001835f526020526126d760ff600560405f200154166139d4565b6126e2811515613a14565b5f848152600860209081526040808320338452600b0182528083208684529091529020548111612ac8575f848152600860209081526040808320868452600a81019092529091206004810154909491929190938410612a9357670de0b6b3a764000061274e8386613a60565b049461271061275f60075488613a60565b0493600f61276d86896138ff565b9160018060a01b0333165f52600b810160205260405f20855f5260205260405f206127998782546138ff565b9055600284016127aa8782546138ff565b9055600384016127bb8a82546138e8565b9055600781016127cc8a82546138e8565b9055016127da8682546138e8565b9055875f526008602052600a60405f2001835f5260205260405f20600281015490670de0b6b3a7640000860291868304670de0b6b3a76400001487151715610721576103e88101809111610721576128366004939184926138f5565b9101549080821115612a895761284b916138ff565b925b01918255670de0b6b3a76400006128648588613a60565b04905f82820392128183128116908284139015161761072157335f52600a602052600360405f200180545f8482019485129112908015821691151617610721575f9860209461299e946129019355338b52600a8652600460408c20016128ca8154613a73565b90558b8b52600d865260408b20878c52865260408b20905491604051926128f0846135a0565b835242878401526040830152613a81565b612960604051612910816135bb565b8a815285858201528960408201523360608201528860808201528660a08201524260c08201528960e0820152338a52600b85526129508160408c20613ad2565b8a8a52600c855260408a20613ad2565b60035460405163a9059cbb60e01b815233600482015260248101929092529097889260089290921c6001600160a01b03169183919082906044820190565b03925af19485156108dd577f976184626638b6c7e51a4ab66b297beb1714b545ce4e867a70d622566573098c6020955f94612a027faf7c505ee772ec188af7067e1f73db08ab028e3d564273442b907742b9c41fa0998b958891612a6c5750613b9d565b604051818152828982015285857f33c49da1ff633ff516cc2661d0cd94af11b7b76985b6fe549151782c14db745a60403394a460065490612a4282613a73565b600655604080513381528a8101949094528301526060820152608090a4604051908152a260018055005b612a8391508a3d8c116108d6576108c881836135d7565b8c6108a2565b5060011c9261284d565b60405162461bcd60e51b815260206004820152600d60248201526c507269636520746f6f206c6f7760981b6044820152606490fd5b60405162461bcd60e51b8152602060048201526013602482015272496e73756666696369656e742073686172657360681b6044820152606490fd5b346102ac5760203660031901126102ac576004355f60a0604051612b2681613585565b8281528260208201528260408201528260608201528260808201520152612b5060045482106138a4565b805f52600860205260405f205f80600983015491600a84015b838210612c7657505090612b7c916138f5565b600d6007830154920154835f52600c60205260405f205415155f14612c6f575f848152600c6020526040902080545f1981019190821161072157600491612bc29161349a565b500154905b5f858152600c602052604090205415612c64575f948552600c602052604090942080549094905f19810190811161072157612c0660069160c09761349a565b500154925b60405191612c1883613585565b858352602083019081526040830191825260a060608401935f855260808101958652019485526040519586525160208601525160408501525160608401525160808301525160a0820152f35b60c094505f92612c0b565b5f90612bc7565b9091612c93600191845f5283602052600460405f200154906138e8565b920190612b69565b346102ac5760403660031901126102ac576004356024356001600160401b0381116102ac57612cce9036906004016135f8565b612cdb60045483106138a4565b815f52600860205260ff600560405f2001541615612e2557815f52600860205260ff600560405f20015460081c16612de0575f828152600860209081526040808320338452600b810183528184206004909101548452909152902054612d9b57612d967ff20590b2cb9af0bb070ad77de2c0b74db291dd43666e7a386ffb0e65974b050a91835f526008602052600560405f200161010061ff0019825416179055604051918291338352604060208401526040830190613539565b0390a2005b60405162461bcd60e51b815260206004820152601960248201527f43616e6e6f74206469737075746520696620796f7520776f6e000000000000006044820152606490fd5b60405162461bcd60e51b815260206004820152601760248201527f4d61726b657420616c72656164792064697370757465640000000000000000006044820152606490fd5b60405162461bcd60e51b815260206004820152601760248201527f4d61726b6574206e6f74207265736f6c766564207965740000000000000000006044820152606490fd5b346102ac575f3660031901126102ac5760035460405160089190911c6001600160a01b03168152602090f35b346102ac575f3660031901126102ac57612eae613f04565b60035460ff811615612eed5760ff19166003557f5db9ee0a495bf2e6ff9c91a7834c1ba4fdd244a5e8aa4e537bd38aeae4b073aa6020604051338152a1005b638dfc202b60e01b5f5260045ffd5b346102ac5760203660031901126102ac57600435612f1d60045482106138a4565b5f526008602052612f7b60405f20600281015460ff600383015416600983015490600584015491612f99600486015492612f89612f656001612f5e8a613745565b9901613745565b604051998a996101208b526101208b0190613539565b9089820360208b0152613539565b956040880152606087019061355d565b608085015260ff828116151560a0860152600883901c16151560c085015260e084015260181c6001600160a01b03166101008301520390f35b346102ac5760403660031901126102ac57612feb613484565b336001600160a01b038216036130075761099d90600435613f2a565b63334bd91960e11b5f5260045ffd5b346102ac5760203660031901126102ac5761099d61303261346e565b61303a613f04565b7fdcee1d35c83a32b436264a5c9afd68685c124f3f9097e87804c55410e67fc59a5f5260026020527f8e2c297e756b2a427c5dc4607f639842a8ea6e0f6322302f4ea76306b642cfc35461308d90613c21565b613c5b565b346102ac575f3660031901126102ac5760206040517fd486618b282cb35034d59c30c062b5b3822d6cdf87ec459191ce7f5b7b8a48738152f35b346102ac5760403660031901126102ac5761099d6004356130eb613484565b90613105610993825f526002602052600160405f20015490565b613e8b565b346102ac5761311836613523565b905f52600e60205260405f2080548210156102ac576020916118ac91613459565b346102ac5760203660031901126102ac5760206115806004355f526002602052600160405f20015490565b346102ac575f3660031901126102ac576020600554604051908152f35b346102ac5761318f36613523565b9061319d60045482106138a4565b5f526008602052600a60405f2001905f526020526131fc60405f2060028101546003820154600483015460ff6005850154169161320a6131e860016131e188613745565b9701613745565b60405197889760c0895260c0890190613539565b908782036020890152613539565b93604086015260608501526080840152151560a08301520390f35b346102ac5760203660031901126102ac5761323e61346e565b61324661387a565b5060018060a01b03165f52600a60205260a060405f206040516132688161356a565b81549182825260018101546020830190815260028201549060408401918252608060046003850154946060870195865201549401938452604051948552516020850152516040840152516060830152516080820152f35b346102ac576132cd36613523565b905f52600c60205260405f209081548110156102ac576132ec9161349a565b50805461148b60018301549260018060a01b036002820154169060018060a01b03600382015416600482015460058301549160ff600760068601549501541694604051988998896134d1565b346102ac575f3660031901126102ac576020604051600a8152f35b346102ac5760403660031901126102ac5761336c61346e565b6001600160a01b03165f908152600b602052604090208054602435908110156102ac576132ec9161349a565b346102ac5760203660031901126102ac576004356012548110156102ac576133c160209161342d565b905460405160039290921b1c6001600160a01b03168152f35b346102ac5760203660031901126102ac576004359063ffffffff60e01b82168092036102ac57602091637965db0b60e01b811490811561341c575b5015158152f35b6301ffc9a760e01b14905083613415565b6012548110156134455760125f5260205f2001905f90565b634e487b7160e01b5f52603260045260245ffd5b8054821015613445575f5260205f2001905f90565b600435906001600160a01b03821682036102ac57565b602435906001600160a01b03821682036102ac57565b8054821015613445575f5260205f209060031b01905f90565b600211156134bd57565b634e487b7160e01b5f52602160045260245ffd5b90815260208101919091526001600160a01b03918216604082015291166060820152608081019190915260a081019190915260c0810191909152610100810192919060e09061351f836134b3565b0152565b60409060031901126102ac576004359060243590565b805180835260209291819084018484015e5f828201840152601f01601f1916010190565b90600a8210156134bd5752565b60a081019081106001600160401b038211176107c757604052565b60c081019081106001600160401b038211176107c757604052565b606081019081106001600160401b038211176107c757604052565b61010081019081106001600160401b038211176107c757604052565b90601f801991011681019081106001600160401b038211176107c757604052565b81601f820112156102ac578035906001600160401b0382116107c7576040519261362c601f8401601f1916602001856135d7565b828452602083830101116102ac57815f926020809301838601378301015290565b60809060031901126102ac5760043590602435906044359060643590565b60609060031901126102ac57600435906024359060443590565b60206040818301928281528451809452019201905f5b8181106136a85750505090565b825184526020938401939092019160010161369b565b8054821015613445575f52600360205f20910201905f90565b60409060031901126102ac57600435600a8110156102ac579060243590565b600a8110156134bd575f52601060205260405f2090565b90600182811c9216801561373b575b602083101461372757565b634e487b7160e01b5f52602260045260245ffd5b91607f169161371c565b9060405191825f8254926137588461370d565b80845293600181169081156137c3575060011461377f575b5061377d925003836135d7565b565b90505f9291925260205f20905f915b8183106137a757505090602061377d928201015f613770565b602091935080600191548385890101520191019091849261378e565b90506020925061377d94915060ff191682840152151560051b8201015f613770565b6001600160401b0381116107c75760051b60200190565b9080601f830112156102ac578135613813816137e5565b9261382160405194856135d7565b81845260208085019260051b820101918383116102ac5760208201905b83821061384d57505050505090565b81356001600160401b0381116102ac5760209161386f878480948801016135f8565b81520191019061383e565b604051906138878261356a565b5f6080838281528260208201528260408201528260608201520152565b156138ab57565b60405162461bcd60e51b815260206004820152601560248201527413585c9ad95d08191bd95cc81b9bdd08195e1a5cdd605a1b6044820152606490fd5b9190820180921161072157565b8115611003570490565b9190820391821161072157565b1561391357565b60405162461bcd60e51b815260206004820152601060248201526f13585c9ad95d081a185cc8195b99195960821b6044820152606490fd5b1561395257565b60405162461bcd60e51b815260206004820152601760248201527f4d61726b657420616c7265616479207265736f6c7665640000000000000000006044820152606490fd5b1561399e57565b60405162461bcd60e51b815260206004820152600e60248201526d24b73b30b634b21037b83a34b7b760911b6044820152606490fd5b156139db57565b60405162461bcd60e51b81526020600482015260116024820152704f7074696f6e206e6f742061637469766560781b6044820152606490fd5b15613a1b57565b60405162461bcd60e51b815260206004820152601960248201527f5175616e74697479206d75737420626520706f736974697665000000000000006044820152606490fd5b8181029291811591840414171561072157565b5f1981146107215760010190565b8054600160401b8110156107c757613a9e916001820181556136be565b919091613abf57604081600292518455602081015160018501550151910155565b634e487b7160e01b5f525f60045260245ffd5b8054600160401b8110156107c757613aef9160018201815561349a565b613abf57815181556020820151600182015560408201516002820180546001600160a01b039283166001600160a01b03199182161790915560608401516003840180549190931691161790556080820151600482015560a0820151600582015560c0820151600682015560e090910151600790910190613b6e816134b3565b613b77816134b3565b60ff80198354169116179055565b908160209103126102ac575180151581036102ac5790565b15613ba457565b60405162461bcd60e51b815260206004820152600f60248201526e151c985b9cd9995c8819985a5b1959608a1b6044820152606490fd5b80518210156134455760209160051b010190565b90613bf9826137e5565b613c0660405191826135d7565b8281528092613c17601f19916137e5565b0190602036910137565b5f81815260026020908152604080832033845290915290205460ff1615613c455750565b63e2517d3f60e01b5f523360045260245260445ffd5b6001600160a01b0381165f9081527f8e2c297e756b2a427c5dc4607f639842a8ea6e0f6322302f4ea76306b642cfc2602052604090205460ff16613d14576001600160a01b03165f8181527f8e2c297e756b2a427c5dc4607f639842a8ea6e0f6322302f4ea76306b642cfc260205260408120805460ff191660011790553391907fdcee1d35c83a32b436264a5c9afd68685c124f3f9097e87804c55410e67fc59a905f805160206140468339815191529080a4600190565b505f90565b6001600160a01b0381165f9081527f30d995518b427f5a5863ad73fe356ca50cf70941f42c516830919c845fa5806f602052604090205460ff16613d14576001600160a01b03165f8181527f30d995518b427f5a5863ad73fe356ca50cf70941f42c516830919c845fa5806f60205260408120805460ff191660011790553391907fef485be696bbc0c91ad541bbd553ffb5bd0e18dac30ba76e992dda23cb807a8a905f805160206140468339815191529080a4600190565b6001600160a01b0381165f9081527fd3dccf8d8289b9deee17e361620d7577de7b525dd57f668d5c1bb85ec53112b5602052604090205460ff16613d14576001600160a01b03165f8181527fd3dccf8d8289b9deee17e361620d7577de7b525dd57f668d5c1bb85ec53112b560205260408120805460ff191660011790553391907fd486618b282cb35034d59c30c062b5b3822d6cdf87ec459191ce7f5b7b8a4873905f805160206140468339815191529080a4600190565b5f8181526002602090815260408083206001600160a01b038616845290915290205460ff16613efe575f8181526002602090815260408083206001600160a01b0395909516808452949091528120805460ff19166001179055339291905f805160206140468339815191529080a4600190565b50505f90565b5f546001600160a01b03163303613f1757565b63118cdaa760e01b5f523360045260245ffd5b5f8181526002602090815260408083206001600160a01b038616845290915290205460ff1615613efe575f8181526002602090815260408083206001600160a01b0395909516808452949091528120805460ff19169055339291907ff6391f5c32d9c69d2a47ea670b442974b53935d1edc7fd64eb21e047a839171b9080a4600190565b600260015414613fbf576002600155565b633ee5aeb560e01b5f5260045ffd5b60ff60035416613fda57565b63d93c066560e01b5f5260045ffd5b905f52600860205260405f20905f90600b60098401549301915b8381106140135750505050600190565b60018060a01b0382165f528260205260405f20815f5260205260405f205461403d57600101614003565b505050505f9056fe2f8788117e7eff1d82e926ec794901d17c78024a50270940304540a733656f0da26469706673582212204c2ef89c63c65f3cb2d6d8196c7cddaaa8b9ff94c9f02a1ea708380f33ea07e764736f6c634300081a0033ac33ff75c19e70fe83507db0d683fd3465c996598dc972688b7ace676c89077b",
			"opcodes": "PUSH1 0x80 CALLVALUE PUSH2 0xF3 JUMPI PUSH1 0x1F PUSH2 0x4250 CODESIZE DUP2 SWAP1 SUB SWAP2 DUP3 ADD PUSH1 0x1F NOT AND DUP4 ADD SWAP2 PUSH1 0x1 PUSH1 0x1 PUSH1 0x40 SHL SUB DUP4 GT DUP5 DUP5 LT OR PUSH2 0xF7 JUMPI DUP1 DUP5 SWAP3 PUSH1 0x20 SWAP5 PUSH1 0x40 MSTORE DUP4 CODECOPY DUP2 ADD SUB SLT PUSH2 0xF3 JUMPI MLOAD PUSH1 0x1 PUSH1 0x1 PUSH1 0xA0 SHL SUB DUP2 AND DUP2 SUB PUSH2 0xF3 JUMPI CALLER ISZERO PUSH2 0xE0 JUMPI PUSH0 DUP1 SLOAD CALLER PUSH1 0x1 PUSH1 0x1 PUSH1 0xA0 SHL SUB NOT DUP3 AND DUP2 OR DUP4 SSTORE SWAP2 PUSH1 0x1 PUSH1 0x1 PUSH1 0xA0 SHL SUB SWAP1 SWAP2 AND SWAP1 PUSH32 0x8BE0079C531659141344CD1FD0A4F28419497F9722A3DAAFE3B4186F6B6457E0 SWAP1 DUP1 LOG3 PUSH1 0x1 DUP1 SSTORE PUSH1 0xC8 PUSH1 0x7 SSTORE PUSH1 0x3 DUP1 SLOAD PUSH2 0x100 PUSH1 0x1 PUSH1 0xA8 SHL SUB NOT AND PUSH1 0x8 SWAP3 SWAP1 SWAP3 SHL PUSH2 0x100 PUSH1 0x1 PUSH1 0xA8 SHL SUB AND SWAP2 SWAP1 SWAP2 OR SWAP1 SSTORE PUSH2 0xD0 CALLER PUSH2 0x10B JUMP JUMPDEST POP PUSH1 0x40 MLOAD PUSH2 0x409B SWAP1 DUP2 PUSH2 0x195 DUP3 CODECOPY RETURN JUMPDEST PUSH4 0x1E4FBDF7 PUSH1 0xE0 SHL PUSH0 MSTORE PUSH0 PUSH1 0x4 MSTORE PUSH1 0x24 PUSH0 REVERT JUMPDEST PUSH0 DUP1 REVERT JUMPDEST PUSH4 0x4E487B71 PUSH1 0xE0 SHL PUSH0 MSTORE PUSH1 0x41 PUSH1 0x4 MSTORE PUSH1 0x24 PUSH0 REVERT JUMPDEST PUSH1 0x1 PUSH1 0x1 PUSH1 0xA0 SHL SUB DUP2 AND PUSH0 SWAP1 DUP2 MSTORE PUSH0 DUP1 MLOAD PUSH1 0x20 PUSH2 0x4230 DUP4 CODECOPY DUP2 MLOAD SWAP2 MSTORE PUSH1 0x20 MSTORE PUSH1 0x40 SWAP1 KECCAK256 SLOAD PUSH1 0xFF AND PUSH2 0x18F JUMPI PUSH1 0x1 PUSH1 0x1 PUSH1 0xA0 SHL SUB AND PUSH0 DUP2 DUP2 MSTORE PUSH0 DUP1 MLOAD PUSH1 0x20 PUSH2 0x4230 DUP4 CODECOPY DUP2 MLOAD SWAP2 MSTORE PUSH1 0x20 MSTORE PUSH1 0x40 DUP2 KECCAK256 DUP1 SLOAD PUSH1 0xFF NOT AND PUSH1 0x1 OR SWAP1 SSTORE CALLER SWAP2 SWAP1 PUSH32 0x2F8788117E7EFF1D82E926EC794901D17C78024A50270940304540A733656F0D DUP2 DUP1 LOG4 PUSH1 0x1 SWAP1 JUMP JUMPDEST POP PUSH0 SWAP1 JUMP INVALID PUSH1 0x80 DUP1 PUSH1 0x40 MSTORE PUSH1 0x4 CALLDATASIZE LT ISZERO PUSH2 0x12 JUMPI PUSH0 DUP1 REVERT JUMPDEST PUSH0 CALLDATALOAD PUSH1 0xE0 SHR SWAP1 DUP2 PUSH4 0x1FFC9A7 EQ PUSH2 0x33DA JUMPI POP DUP1 PUSH4 0x5E33DD0 EQ PUSH2 0x3398 JUMPI DUP1 PUSH4 0x8693F3C EQ PUSH2 0x3353 JUMPI DUP1 PUSH4 0xDA183D6 EQ PUSH2 0x3338 JUMPI DUP1 PUSH4 0x1CB1DE2F EQ PUSH2 0x32BF JUMPI DUP1 PUSH4 0x1EDB27E9 EQ PUSH2 0x3225 JUMPI DUP1 PUSH4 0x222FA267 EQ PUSH2 0x3181 JUMPI DUP1 PUSH4 0x2453FFA8 EQ PUSH2 0x3164 JUMPI DUP1 PUSH4 0x248A9CA3 EQ PUSH2 0x3139 JUMPI DUP1 PUSH4 0x257FF7B6 EQ PUSH2 0x310A JUMPI DUP1 PUSH4 0x29CF655B EQ PUSH2 0x2E6A JUMPI DUP1 PUSH4 0x2F2FF15D EQ PUSH2 0x30CC JUMPI DUP1 PUSH4 0x32617B70 EQ PUSH2 0x3092 JUMPI DUP1 PUSH4 0x35037E0B EQ PUSH2 0x3016 JUMPI DUP1 PUSH4 0x36568ABE EQ PUSH2 0x2FD2 JUMPI DUP1 PUSH4 0x3EC79193 EQ PUSH2 0x2EFC JUMPI DUP1 PUSH4 0x3F4BA83A EQ PUSH2 0x2E96 JUMPI DUP1 PUSH4 0x43425E88 EQ PUSH2 0x2E6A JUMPI DUP1 PUSH4 0x4A2021EF EQ PUSH2 0x2C9B JUMPI DUP1 PUSH4 0x58057FE5 EQ PUSH2 0x2B03 JUMPI DUP1 PUSH4 0x5A2DB6FB EQ PUSH2 0x2633 JUMPI DUP1 PUSH4 0x5C975ABB EQ PUSH2 0x2611 JUMPI DUP1 PUSH4 0x60557333 EQ PUSH2 0x245A JUMPI DUP1 PUSH4 0x677BD9FF EQ PUSH2 0x215A JUMPI DUP1 PUSH4 0x6DB3B4DC EQ PUSH2 0x20DE JUMPI DUP1 PUSH4 0x715018A6 EQ PUSH2 0x2087 JUMPI DUP1 PUSH4 0x73AF16FC EQ PUSH2 0x1E42 JUMPI DUP1 PUSH4 0x755F0629 EQ PUSH2 0x1E08 JUMPI DUP1 PUSH4 0x77B4A3E7 EQ PUSH2 0x1DCE JUMPI DUP1 PUSH4 0x7C946454 EQ PUSH2 0x1C66 JUMPI DUP1 PUSH4 0x7E50898E EQ PUSH2 0x1C48 JUMPI DUP1 PUSH4 0x835DC40B EQ PUSH2 0x1BB4 JUMPI DUP1 PUSH4 0x8456CB59 EQ PUSH2 0x1B5B JUMPI DUP1 PUSH4 0x856652E9 EQ PUSH2 0x1B12 JUMPI DUP1 PUSH4 0x8B8840E0 EQ PUSH2 0x1ADA JUMPI DUP1 PUSH4 0x8DA5CB5B EQ PUSH2 0x1AB3 JUMPI DUP1 PUSH4 0x91D14854 EQ PUSH2 0x1A6A JUMPI DUP1 PUSH4 0x927FEF2E EQ PUSH2 0x1A07 JUMPI DUP1 PUSH4 0x92F012B2 EQ PUSH2 0x19EB JUMPI DUP1 PUSH4 0xA217FDDF EQ PUSH2 0x19D1 JUMPI DUP1 PUSH4 0xA75DD115 EQ PUSH2 0x1977 JUMPI DUP1 PUSH4 0xA85C38EF EQ PUSH2 0x18BB JUMPI DUP1 PUSH4 0xA8CC7F19 EQ PUSH2 0x1886 JUMPI DUP1 PUSH4 0xAB44E635 EQ PUSH2 0x1736 JUMPI DUP1 PUSH4 0xABDCE1A4 EQ PUSH2 0x16BA JUMPI DUP1 PUSH4 0xB1283E77 EQ PUSH2 0x1588 JUMPI DUP1 PUSH4 0xB1AB13FF EQ PUSH2 0x154D JUMPI DUP1 PUSH4 0xB61920C1 EQ PUSH2 0x14E9 JUMPI DUP1 PUSH4 0xBD55022A EQ PUSH2 0x14CC JUMPI DUP1 PUSH4 0xC2454AF7 EQ PUSH2 0x1434 JUMPI DUP1 PUSH4 0xCAF9FD43 EQ PUSH2 0x99F JUMPI DUP1 PUSH4 0xD547741F EQ PUSH2 0x95A JUMPI DUP1 PUSH4 0xEC979082 EQ PUSH2 0x28F JUMPI DUP1 PUSH4 0xED881230 EQ PUSH2 0x352 JUMPI DUP1 PUSH4 0xEECA08F0 EQ PUSH2 0x335 JUMPI DUP1 PUSH4 0xF2FDE38B EQ PUSH2 0x2B0 JUMPI PUSH4 0xFD69F3C2 EQ PUSH2 0x28F JUMPI PUSH0 DUP1 REVERT JUMPDEST CALLVALUE PUSH2 0x2AC JUMPI PUSH0 CALLDATASIZE PUSH1 0x3 NOT ADD SLT PUSH2 0x2AC JUMPI PUSH1 0x20 PUSH1 0x4 SLOAD PUSH1 0x40 MLOAD SWAP1 DUP2 MSTORE RETURN JUMPDEST PUSH0 DUP1 REVERT JUMPDEST CALLVALUE PUSH2 0x2AC JUMPI PUSH1 0x20 CALLDATASIZE PUSH1 0x3 NOT ADD SLT PUSH2 0x2AC JUMPI PUSH2 0x2C9 PUSH2 0x346E JUMP JUMPDEST PUSH2 0x2D1 PUSH2 0x3F04 JUMP JUMPDEST PUSH1 0x1 PUSH1 0x1 PUSH1 0xA0 SHL SUB AND DUP1 ISZERO PUSH2 0x322 JUMPI PUSH0 DUP1 SLOAD PUSH1 0x1 PUSH1 0x1 PUSH1 0xA0 SHL SUB NOT DUP2 AND DUP4 OR DUP3 SSTORE PUSH1 0x1 PUSH1 0x1 PUSH1 0xA0 SHL SUB AND SWAP1 PUSH32 0x8BE0079C531659141344CD1FD0A4F28419497F9722A3DAAFE3B4186F6B6457E0 SWAP1 DUP1 LOG3 STOP JUMPDEST PUSH4 0x1E4FBDF7 PUSH1 0xE0 SHL PUSH0 MSTORE PUSH0 PUSH1 0x4 MSTORE PUSH1 0x24 PUSH0 REVERT JUMPDEST CALLVALUE PUSH2 0x2AC JUMPI PUSH0 CALLDATASIZE PUSH1 0x3 NOT ADD SLT PUSH2 0x2AC JUMPI PUSH1 0x20 PUSH1 0x7 SLOAD PUSH1 0x40 MLOAD SWAP1 DUP2 MSTORE RETURN JUMPDEST CALLVALUE PUSH2 0x2AC JUMPI PUSH2 0x360 CALLDATASIZE PUSH2 0x364D JUMP JUMPDEST SWAP2 PUSH2 0x369 PUSH2 0x3FAE JUMP JUMPDEST PUSH2 0x371 PUSH2 0x3FCE JUMP JUMPDEST PUSH2 0x37E PUSH1 0x4 SLOAD DUP6 LT PUSH2 0x38A4 JUMP JUMPDEST DUP4 PUSH0 MSTORE PUSH1 0x8 PUSH1 0x20 MSTORE PUSH2 0x398 PUSH1 0x2 PUSH1 0x40 PUSH0 KECCAK256 ADD SLOAD TIMESTAMP LT PUSH2 0x390C JUMP JUMPDEST DUP4 PUSH0 MSTORE PUSH1 0x8 PUSH1 0x20 MSTORE PUSH2 0x3B4 PUSH1 0xFF PUSH1 0x5 PUSH1 0x40 PUSH0 KECCAK256 ADD SLOAD AND ISZERO PUSH2 0x394B JUMP JUMPDEST DUP4 PUSH0 MSTORE PUSH1 0x8 PUSH1 0x20 MSTORE PUSH2 0x3CE PUSH1 0x9 PUSH1 0x40 PUSH0 KECCAK256 ADD SLOAD DUP3 LT PUSH2 0x3997 JUMP JUMPDEST DUP4 PUSH0 MSTORE PUSH1 0x8 PUSH1 0x20 MSTORE PUSH1 0xA PUSH1 0x40 PUSH0 KECCAK256 ADD DUP2 PUSH0 MSTORE PUSH1 0x20 MSTORE PUSH2 0x3F6 PUSH1 0xFF PUSH1 0x5 PUSH1 0x40 PUSH0 KECCAK256 ADD SLOAD AND PUSH2 0x39D4 JUMP JUMPDEST PUSH2 0x401 DUP3 ISZERO ISZERO PUSH2 0x3A14 JUMP JUMPDEST DUP4 PUSH0 MSTORE PUSH1 0x8 PUSH1 0x20 MSTORE PUSH1 0xFF PUSH1 0x5 PUSH1 0x40 PUSH0 KECCAK256 ADD SLOAD PUSH1 0x10 SHR AND ISZERO PUSH2 0x91E JUMPI DUP4 PUSH0 MSTORE PUSH1 0x8 PUSH1 0x20 MSTORE PUSH1 0x40 PUSH0 KECCAK256 SWAP3 DUP2 PUSH0 MSTORE PUSH1 0xA DUP5 ADD PUSH1 0x20 MSTORE PUSH1 0x40 PUSH0 KECCAK256 SWAP1 PUSH0 DUP1 SWAP6 PUSH1 0x11 DUP2 ADD SWAP3 PUSH1 0xFF DUP5 SLOAD AND ISZERO PUSH2 0x7EB JUMPI JUMPDEST POP PUSH1 0xB DUP2 ADD SWAP1 PUSH1 0x1 DUP1 PUSH1 0xA0 SHL SUB CALLER AND PUSH0 MSTORE DUP2 PUSH1 0x20 MSTORE PUSH1 0x40 PUSH0 KECCAK256 DUP7 PUSH0 MSTORE PUSH1 0x20 MSTORE PUSH1 0x40 PUSH0 KECCAK256 SLOAD ISZERO DUP1 PUSH2 0x7DB JUMPI JUMPDEST PUSH2 0x735 JUMPI JUMPDEST PUSH1 0xF SWAP2 PUSH1 0x1 DUP1 PUSH1 0xA0 SHL SUB CALLER AND PUSH0 MSTORE PUSH1 0x20 MSTORE PUSH1 0x40 PUSH0 KECCAK256 DUP7 PUSH0 MSTORE PUSH1 0x20 MSTORE PUSH1 0x40 PUSH0 KECCAK256 PUSH2 0x4A5 DUP9 DUP3 SLOAD PUSH2 0x38E8 JUMP JUMPDEST SWAP1 SSTORE PUSH1 0x2 DUP6 ADD PUSH2 0x4B6 DUP9 DUP3 SLOAD PUSH2 0x38E8 JUMP JUMPDEST SWAP1 SSTORE PUSH1 0x3 DUP6 ADD PUSH2 0x4C7 DUP5 DUP3 SLOAD PUSH2 0x38E8 JUMP JUMPDEST SWAP1 SSTORE PUSH1 0x6 DUP2 ADD PUSH2 0x4D8 DUP5 DUP3 SLOAD PUSH2 0x38E8 JUMP JUMPDEST SWAP1 SSTORE PUSH1 0x7 DUP2 ADD PUSH2 0x4E9 DUP5 DUP3 SLOAD PUSH2 0x38E8 JUMP JUMPDEST SWAP1 SSTORE ADD PUSH2 0x4F7 DUP8 DUP3 SLOAD PUSH2 0x38E8 JUMP JUMPDEST SWAP1 SSTORE PUSH2 0x503 DUP7 DUP3 PUSH2 0x38E8 JUMP JUMPDEST CALLER PUSH0 MSTORE PUSH1 0xA PUSH1 0x20 MSTORE PUSH2 0x51A PUSH1 0x40 PUSH0 KECCAK256 SWAP2 DUP3 SLOAD PUSH2 0x38E8 JUMP JUMPDEST SWAP1 SSTORE CALLER PUSH0 MSTORE PUSH1 0xA PUSH1 0x20 MSTORE PUSH1 0x4 PUSH1 0x40 PUSH0 KECCAK256 ADD PUSH2 0x535 DUP2 SLOAD PUSH2 0x3A73 JUMP JUMPDEST SWAP1 SSTORE DUP2 SLOAD PUSH1 0xFF AND ISZERO PUSH2 0x6AE JUMPI PUSH1 0x4 PUSH2 0x587 SWAP2 PUSH1 0xFF SWAP5 PUSH0 SWAP3 DUP4 SWAP2 JUMPDEST ADD SSTORE DUP9 PUSH0 MSTORE PUSH1 0xD PUSH1 0x20 MSTORE PUSH1 0x40 PUSH0 KECCAK256 DUP7 PUSH0 MSTORE PUSH1 0x20 MSTORE PUSH1 0x40 PUSH0 KECCAK256 SWAP1 PUSH1 0x40 MLOAD SWAP3 PUSH2 0x575 DUP5 PUSH2 0x35A0 JUMP JUMPDEST DUP4 MSTORE TIMESTAMP PUSH1 0x20 DUP5 ADD MSTORE PUSH1 0x40 DUP4 ADD MSTORE PUSH2 0x3A81 JUMP JUMPDEST SLOAD AND ISZERO PUSH2 0x685 JUMPI PUSH0 JUMPDEST PUSH2 0x5F3 PUSH1 0x40 MLOAD PUSH2 0x59F DUP2 PUSH2 0x35BB JUMP JUMPDEST DUP7 DUP2 MSTORE DUP4 PUSH1 0x20 DUP3 ADD MSTORE CALLER PUSH1 0x40 DUP3 ADD MSTORE PUSH0 PUSH1 0x60 DUP3 ADD MSTORE PUSH1 0x80 DUP2 ADD SWAP3 DUP4 MSTORE DUP5 PUSH1 0xA0 DUP3 ADD MSTORE TIMESTAMP PUSH1 0xC0 DUP3 ADD MSTORE PUSH0 PUSH1 0xE0 DUP3 ADD MSTORE CALLER PUSH0 MSTORE PUSH1 0xB PUSH1 0x20 MSTORE PUSH2 0x5E2 DUP2 PUSH1 0x40 PUSH0 KECCAK256 PUSH2 0x3AD2 JUMP JUMPDEST DUP7 PUSH0 MSTORE PUSH1 0xC PUSH1 0x20 MSTORE PUSH1 0x40 PUSH0 KECCAK256 PUSH2 0x3AD2 JUMP JUMPDEST MLOAD SWAP2 PUSH1 0x6 SLOAD SWAP1 PUSH2 0x602 DUP3 PUSH2 0x3A73 JUMP JUMPDEST PUSH1 0x6 SSTORE PUSH1 0x40 MLOAD SWAP4 PUSH0 DUP6 MSTORE PUSH1 0x20 DUP6 ADD MSTORE PUSH1 0x40 DUP5 ADD MSTORE PUSH1 0x60 DUP4 ADD MSTORE DUP4 PUSH32 0x976184626638B6C7E51A4AB66B297BEB1714B545CE4E867A70D622566573098C CALLER SWAP4 PUSH1 0x80 DUP2 DUP1 SUB ADD SWAP1 LOG4 DUP1 PUSH2 0x653 JUMPI JUMPDEST PUSH1 0x1 DUP1 SSTORE STOP JUMPDEST PUSH1 0x20 PUSH32 0xAF7C505EE772EC188AF7067E1F73DB08AB028E3D564273442B907742B9C41FA0 SWAP2 PUSH1 0x40 MLOAD SWAP1 DUP2 MSTORE LOG2 DUP1 DUP1 PUSH2 0x64D JUMP JUMPDEST PUSH2 0x6A9 DUP2 DUP6 PUSH0 MSTORE PUSH1 0x8 PUSH1 0x20 MSTORE PUSH1 0xA PUSH1 0x40 PUSH0 KECCAK256 ADD SWAP1 PUSH0 MSTORE PUSH1 0x20 MSTORE PUSH1 0x4 PUSH1 0x40 PUSH0 KECCAK256 ADD SLOAD SWAP1 JUMP JUMPDEST PUSH2 0x590 JUMP JUMPDEST DUP7 PUSH0 MSTORE PUSH1 0x8 PUSH1 0x20 MSTORE PUSH1 0xA PUSH1 0x40 PUSH0 KECCAK256 ADD DUP5 PUSH0 MSTORE PUSH1 0x20 MSTORE PUSH1 0x40 PUSH0 KECCAK256 SWAP1 PUSH1 0x2 DUP3 ADD SLOAD SWAP1 PUSH8 0xDE0B6B3A7640000 DUP8 MUL SWAP5 DUP8 DUP7 DIV PUSH8 0xDE0B6B3A7640000 EQ DUP9 ISZERO OR ISZERO PUSH2 0x721 JUMPI PUSH2 0x3E8 DUP4 ADD DUP1 SWAP4 GT PUSH2 0x721 JUMPI PUSH2 0x719 PUSH2 0x587 SWAP5 PUSH1 0x4 PUSH2 0x711 DUP2 SWAP7 PUSH1 0xFF SWAP11 PUSH2 0x38F5 JUMP JUMPDEST SWAP2 ADD SLOAD PUSH2 0x38E8 JUMP JUMPDEST SWAP3 DUP4 SWAP2 PUSH2 0x54F JUMP JUMPDEST PUSH4 0x4E487B71 PUSH1 0xE0 SHL PUSH0 MSTORE PUSH1 0x11 PUSH1 0x4 MSTORE PUSH1 0x24 PUSH0 REVERT JUMPDEST PUSH1 0xD DUP2 ADD DUP1 SLOAD PUSH1 0x1 PUSH1 0x40 SHL DUP2 LT ISZERO PUSH2 0x7C7 JUMPI PUSH2 0x756 SWAP2 PUSH1 0x1 DUP3 ADD DUP2 SSTORE PUSH2 0x3459 JUMP JUMPDEST DUP2 SLOAD SWAP1 PUSH1 0x3 SHL SWAP1 CALLER DUP3 SHL SWAP2 PUSH1 0x1 DUP1 PUSH1 0xA0 SHL SUB SWAP1 SHL NOT AND OR SWAP1 SSTORE CALLER PUSH0 MSTORE PUSH1 0xA PUSH1 0x20 MSTORE PUSH1 0x40 PUSH0 KECCAK256 SLOAD PUSH2 0x47B JUMPI PUSH1 0x12 SLOAD SWAP2 PUSH1 0x1 PUSH1 0x40 SHL DUP4 LT ISZERO PUSH2 0x7C7 JUMPI PUSH2 0x7A4 DUP4 PUSH1 0x1 PUSH1 0xF SWAP6 ADD PUSH1 0x12 SSTORE PUSH1 0x12 PUSH2 0x3459 JUMP JUMPDEST DUP2 SLOAD PUSH1 0x1 PUSH1 0x1 PUSH1 0xA0 SHL SUB PUSH1 0x3 SWAP3 SWAP1 SWAP3 SHL SWAP2 DUP3 SHL NOT AND CALLER SWAP1 SWAP2 SHL OR SWAP1 SSTORE SWAP2 POP PUSH2 0x47B JUMP JUMPDEST PUSH4 0x4E487B71 PUSH1 0xE0 SHL PUSH0 MSTORE PUSH1 0x41 PUSH1 0x4 MSTORE PUSH1 0x24 PUSH0 REVERT JUMPDEST POP PUSH2 0x7E6 DUP10 CALLER PUSH2 0x3FE9 JUMP JUMPDEST PUSH2 0x476 JUMP JUMPDEST SWAP2 POP SWAP6 POP PUSH2 0x813 DUP5 DUP9 PUSH0 MSTORE PUSH1 0x8 PUSH1 0x20 MSTORE PUSH1 0xA PUSH1 0x40 PUSH0 KECCAK256 ADD SWAP1 PUSH0 MSTORE PUSH1 0x20 MSTORE PUSH1 0x4 PUSH1 0x40 PUSH0 KECCAK256 ADD SLOAD SWAP1 JUMP JUMPDEST SWAP1 DUP2 GT PUSH2 0x8E8 JUMPI PUSH2 0x82D DUP6 PUSH8 0xDE0B6B3A7640000 SWAP3 PUSH2 0x3A60 JUMP JUMPDEST DIV PUSH2 0x2710 PUSH2 0x83D PUSH1 0x7 SLOAD DUP4 PUSH2 0x3A60 JUMP JUMPDEST DIV SWAP6 PUSH0 PUSH1 0x20 PUSH2 0x88D PUSH1 0x1 DUP1 PUSH1 0xA0 SHL SUB PUSH1 0x3 SLOAD PUSH1 0x8 SHR AND PUSH2 0x85D DUP12 DUP8 PUSH2 0x38E8 JUMP JUMPDEST PUSH1 0x40 MLOAD PUSH4 0x23B872DD PUSH1 0xE0 SHL DUP2 MSTORE CALLER PUSH1 0x4 DUP3 ADD MSTORE ADDRESS PUSH1 0x24 DUP3 ADD MSTORE PUSH1 0x44 DUP2 ADD SWAP2 SWAP1 SWAP2 MSTORE SWAP4 DUP5 SWAP3 DUP4 SWAP2 SWAP1 DUP3 SWAP1 PUSH1 0x64 DUP3 ADD SWAP1 JUMP JUMPDEST SUB SWAP3 GAS CALL DUP1 ISZERO PUSH2 0x8DD JUMPI PUSH2 0x8A8 SWAP2 PUSH0 SWAP2 PUSH2 0x8AE JUMPI JUMPDEST POP PUSH2 0x3B9D JUMP JUMPDEST DUP9 PUSH2 0x44B JUMP JUMPDEST PUSH2 0x8D0 SWAP2 POP PUSH1 0x20 RETURNDATASIZE PUSH1 0x20 GT PUSH2 0x8D6 JUMPI JUMPDEST PUSH2 0x8C8 DUP2 DUP4 PUSH2 0x35D7 JUMP JUMPDEST DUP2 ADD SWAP1 PUSH2 0x3B85 JUMP JUMPDEST DUP11 PUSH2 0x8A2 JUMP JUMPDEST POP RETURNDATASIZE PUSH2 0x8BE JUMP JUMPDEST PUSH1 0x40 MLOAD RETURNDATASIZE PUSH0 DUP3 RETURNDATACOPY RETURNDATASIZE SWAP1 REVERT JUMPDEST PUSH1 0x40 MLOAD PUSH3 0x461BCD PUSH1 0xE5 SHL DUP2 MSTORE PUSH1 0x20 PUSH1 0x4 DUP3 ADD MSTORE PUSH1 0xE PUSH1 0x24 DUP3 ADD MSTORE PUSH14 0xA0E4D2C6CA40E8DEDE40D0D2CED PUSH1 0x93 SHL PUSH1 0x44 DUP3 ADD MSTORE PUSH1 0x64 SWAP1 REVERT JUMPDEST PUSH1 0x40 MLOAD PUSH3 0x461BCD PUSH1 0xE5 SHL DUP2 MSTORE PUSH1 0x20 PUSH1 0x4 DUP3 ADD MSTORE PUSH1 0x14 PUSH1 0x24 DUP3 ADD MSTORE PUSH20 0x13585C9AD95D081B9BDD081D985B1A59185D1959 PUSH1 0x62 SHL PUSH1 0x44 DUP3 ADD MSTORE PUSH1 0x64 SWAP1 REVERT JUMPDEST CALLVALUE PUSH2 0x2AC JUMPI PUSH1 0x40 CALLDATASIZE PUSH1 0x3 NOT ADD SLT PUSH2 0x2AC JUMPI PUSH2 0x99D PUSH1 0x4 CALLDATALOAD PUSH2 0x979 PUSH2 0x3484 JUMP JUMPDEST SWAP1 PUSH2 0x998 PUSH2 0x993 DUP3 PUSH0 MSTORE PUSH1 0x2 PUSH1 0x20 MSTORE PUSH1 0x1 PUSH1 0x40 PUSH0 KECCAK256 ADD SLOAD SWAP1 JUMP JUMPDEST PUSH2 0x3C21 JUMP JUMPDEST PUSH2 0x3F2A JUMP JUMPDEST STOP JUMPDEST CALLVALUE PUSH2 0x2AC JUMPI PUSH2 0x100 CALLDATASIZE PUSH1 0x3 NOT ADD SLT PUSH2 0x2AC JUMPI PUSH1 0x4 CALLDATALOAD PUSH1 0x1 PUSH1 0x1 PUSH1 0x40 SHL SUB DUP2 GT PUSH2 0x2AC JUMPI PUSH2 0x9D0 SWAP1 CALLDATASIZE SWAP1 PUSH1 0x4 ADD PUSH2 0x35F8 JUMP JUMPDEST PUSH1 0x24 CALLDATALOAD PUSH1 0x1 PUSH1 0x1 PUSH1 0x40 SHL SUB DUP2 GT PUSH2 0x2AC JUMPI PUSH2 0x9EF SWAP1 CALLDATASIZE SWAP1 PUSH1 0x4 ADD PUSH2 0x35F8 JUMP JUMPDEST PUSH1 0x44 CALLDATALOAD PUSH1 0x1 PUSH1 0x1 PUSH1 0x40 SHL SUB DUP2 GT PUSH2 0x2AC JUMPI PUSH2 0xA0E SWAP1 CALLDATASIZE SWAP1 PUSH1 0x4 ADD PUSH2 0x37FC JUMP JUMPDEST SWAP2 PUSH1 0x64 CALLDATALOAD PUSH1 0x1 PUSH1 0x1 PUSH1 0x40 SHL SUB DUP2 GT PUSH2 0x2AC JUMPI PUSH2 0xA2E SWAP1 CALLDATASIZE SWAP1 PUSH1 0x4 ADD PUSH2 0x37FC JUMP JUMPDEST PUSH1 0x84 CALLDATALOAD SWAP2 PUSH1 0xA4 CALLDATALOAD SWAP5 PUSH1 0xA DUP7 LT ISZERO PUSH2 0x2AC JUMPI PUSH1 0xE4 CALLDATALOAD SWAP2 PUSH1 0xC4 CALLDATALOAD DUP4 ISZERO ISZERO DUP5 SUB PUSH2 0x2AC JUMPI PUSH2 0xA57 PUSH2 0x3FCE JUMP JUMPDEST PUSH0 SLOAD PUSH1 0x1 PUSH1 0x1 PUSH1 0xA0 SHL SUB AND CALLER EQ DUP1 ISZERO PUSH2 0x13FD JUMPI JUMPDEST ISZERO PUSH2 0x13B9 JUMPI PUSH2 0xE10 DUP7 LT ISZERO DUP1 PUSH2 0x13AB JUMPI JUMPDEST ISZERO PUSH2 0x1373 JUMPI DUP2 MLOAD ISZERO PUSH2 0x132E JUMPI DUP3 MLOAD PUSH1 0x2 DUP2 LT ISZERO SWAP1 DUP2 PUSH2 0x1322 JUMPI JUMPDEST POP ISZERO PUSH2 0x12DD JUMPI DUP3 MLOAD DUP6 MLOAD SUB PUSH2 0x1287 JUMPI DUP4 PUSH2 0x1180 JUMPI JUMPDEST PUSH1 0x4 SLOAD SWAP6 PUSH2 0xAB8 DUP8 PUSH2 0x3A73 JUMP JUMPDEST PUSH1 0x4 SSTORE DUP7 PUSH0 MSTORE PUSH1 0x8 PUSH1 0x20 MSTORE PUSH1 0x40 PUSH0 KECCAK256 SWAP8 DUP4 MLOAD PUSH1 0x1 PUSH1 0x1 PUSH1 0x40 SHL SUB DUP2 GT PUSH2 0x7C7 JUMPI PUSH2 0xAE2 DUP11 SLOAD PUSH2 0x370D JUMP JUMPDEST PUSH1 0x1F DUP2 GT PUSH2 0x113B JUMPI JUMPDEST POP DUP1 PUSH1 0x20 PUSH1 0x1F DUP3 GT PUSH1 0x1 EQ PUSH2 0x10DA JUMPI PUSH0 SWAP2 PUSH2 0x10CF JUMPI JUMPDEST POP DUP2 PUSH1 0x1 SHL SWAP2 PUSH0 NOT SWAP1 PUSH1 0x3 SHL SHR NOT AND OR DUP10 SSTORE JUMPDEST DUP1 MLOAD PUSH1 0x1 DUP11 ADD SWAP2 PUSH1 0x1 PUSH1 0x1 PUSH1 0x40 SHL SUB DUP3 GT PUSH2 0x7C7 JUMPI PUSH2 0xB33 DUP4 SLOAD PUSH2 0x370D JUMP JUMPDEST PUSH1 0x1F DUP2 GT PUSH2 0x108A JUMPI JUMPDEST POP PUSH1 0x20 SWAP1 PUSH1 0x1F DUP4 GT PUSH1 0x1 EQ PUSH2 0x1022 JUMPI PUSH2 0xB74 SWAP5 SWAP4 SWAP3 SWAP2 PUSH0 SWAP2 DUP4 PUSH2 0x1017 JUMPI JUMPDEST POP POP DUP2 PUSH1 0x1 SHL SWAP2 PUSH0 NOT SWAP1 PUSH1 0x3 SHL SHR NOT AND OR SWAP1 SSTORE JUMPDEST TIMESTAMP PUSH2 0x38E8 JUMP JUMPDEST PUSH1 0x2 DUP9 ADD SWAP1 DUP2 SSTORE PUSH1 0x3 DUP9 ADD DUP1 SLOAD PUSH1 0xFF DUP12 DUP2 AND PUSH1 0xFF NOT SWAP3 DUP4 AND OR SWAP1 SWAP3 SSTORE PUSH1 0x5 DUP11 ADD DUP1 SLOAD PUSH4 0x1000000 PUSH1 0x1 PUSH1 0xB8 SHL SUB NOT AND CALLER PUSH1 0x18 SHL PUSH4 0x1000000 PUSH1 0x1 PUSH1 0xB8 SHL SUB AND OR SWAP1 SSTORE TIMESTAMP PUSH1 0x8 DUP12 ADD SSTORE DUP6 MLOAD PUSH1 0x9 DUP12 ADD DUP2 SWAP1 SSTORE PUSH1 0x10 DUP12 ADD SWAP5 SWAP1 SWAP5 SSTORE PUSH1 0x11 DUP11 ADD DUP1 SLOAD DUP9 ISZERO ISZERO SWAP1 SWAP4 AND SWAP3 SWAP1 SWAP2 AND SWAP2 SWAP1 SWAP2 OR SWAP1 SSTORE SWAP4 ISZERO PUSH2 0xFEA JUMPI POP PUSH0 SWAP7 SWAP6 SWAP3 SWAP6 JUMPDEST PUSH1 0xA PUSH0 SWAP5 ADD SWAP4 JUMPDEST DUP4 MLOAD DUP2 LT ISZERO PUSH2 0xEF2 JUMPI PUSH2 0xC0A DUP2 DUP6 PUSH2 0x3BDB JUMP JUMPDEST MLOAD PUSH2 0xC15 DUP3 DUP9 PUSH2 0x3BDB JUMP JUMPDEST MLOAD PUSH1 0x40 MLOAD SWAP2 PUSH2 0xC23 DUP4 PUSH2 0x3585 JUMP JUMPDEST DUP3 MSTORE PUSH1 0x20 DUP3 ADD SWAP1 DUP2 MSTORE PUSH1 0x40 DUP3 ADD PUSH0 DUP2 MSTORE PUSH1 0x60 DUP4 ADD PUSH0 DUP2 MSTORE PUSH1 0x80 DUP5 ADD SWAP2 DUP14 DUP4 MSTORE PUSH1 0xA0 DUP6 ADD SWAP4 PUSH1 0x1 DUP6 MSTORE DUP7 PUSH0 MSTORE DUP11 PUSH1 0x20 MSTORE PUSH1 0x40 PUSH0 KECCAK256 SWAP6 MLOAD DUP1 MLOAD SWAP1 PUSH1 0x1 PUSH1 0x1 PUSH1 0x40 SHL SUB DUP3 GT PUSH2 0x7C7 JUMPI DUP2 SWAP1 PUSH2 0xC75 DUP10 SLOAD PUSH2 0x370D JUMP JUMPDEST PUSH1 0x1F DUP2 GT PUSH2 0xEA2 JUMPI JUMPDEST POP PUSH1 0x20 SWAP1 PUSH1 0x1F DUP4 GT PUSH1 0x1 EQ PUSH2 0xE3F JUMPI PUSH0 SWAP3 PUSH2 0xE34 JUMPI JUMPDEST POP POP DUP2 PUSH1 0x1 SHL SWAP2 PUSH0 NOT SWAP1 PUSH1 0x3 SHL SHR NOT AND OR DUP7 SSTORE JUMPDEST MLOAD DUP1 MLOAD PUSH1 0x1 DUP8 ADD SWAP2 PUSH1 0x1 PUSH1 0x1 PUSH1 0x40 SHL SUB DUP3 GT PUSH2 0x7C7 JUMPI PUSH2 0xCC8 DUP4 SLOAD PUSH2 0x370D JUMP JUMPDEST PUSH1 0x1F DUP2 GT PUSH2 0xDEF JUMPI JUMPDEST POP PUSH1 0x20 SWAP1 PUSH1 0x1F DUP4 GT PUSH1 0x1 EQ PUSH2 0xD7F JUMPI SWAP3 DUP3 PUSH1 0x5 SWAP7 SWAP4 PUSH2 0xD34 SWAP10 SWAP7 SWAP4 PUSH1 0x1 SWAP13 SWAP12 SWAP10 SWAP7 PUSH0 SWAP3 PUSH2 0xD74 JUMPI JUMPDEST POP POP PUSH0 NOT PUSH1 0x3 DUP4 SWAP1 SHL SHR NOT AND SWAP1 DUP12 SHL OR SWAP1 SSTORE JUMPDEST MLOAD PUSH1 0x2 DUP7 ADD SSTORE MLOAD PUSH1 0x3 DUP6 ADD SSTORE MLOAD PUSH1 0x4 DUP5 ADD SSTORE MLOAD ISZERO ISZERO SWAP2 ADD SWAP1 PUSH1 0xFF DUP1 NOT DUP4 SLOAD AND SWAP2 ISZERO ISZERO AND OR SWAP1 SSTORE JUMP JUMPDEST DUP8 PUSH0 MSTORE PUSH1 0xD PUSH1 0x20 MSTORE PUSH1 0x40 PUSH0 KECCAK256 DUP2 PUSH0 MSTORE PUSH1 0x20 MSTORE PUSH2 0xD6E PUSH1 0x40 PUSH0 KECCAK256 PUSH1 0x40 MLOAD SWAP1 PUSH2 0xD5A DUP3 PUSH2 0x35A0 JUMP JUMPDEST DUP13 DUP3 MSTORE TIMESTAMP PUSH1 0x20 DUP4 ADD MSTORE PUSH0 PUSH1 0x40 DUP4 ADD MSTORE PUSH2 0x3A81 JUMP JUMPDEST ADD PUSH2 0xBF7 JUMP JUMPDEST ADD MLOAD SWAP1 POP PUSH0 DUP1 PUSH2 0xCF9 JUMP JUMPDEST SWAP1 PUSH1 0x1F NOT DUP4 AND SWAP2 DUP5 PUSH0 MSTORE DUP2 PUSH0 KECCAK256 SWAP3 PUSH0 JUMPDEST DUP2 DUP2 LT PUSH2 0xDD7 JUMPI POP SWAP4 PUSH2 0xD34 SWAP10 SWAP7 SWAP4 PUSH1 0x1 SWAP13 SWAP12 SWAP10 SWAP7 SWAP4 DUP14 SWAP4 DUP4 PUSH1 0x5 SWAP12 SWAP9 LT PUSH2 0xDBF JUMPI JUMPDEST POP POP POP DUP2 SHL ADD SWAP1 SSTORE PUSH2 0xD0C JUMP JUMPDEST ADD MLOAD PUSH0 NOT PUSH1 0xF8 DUP5 PUSH1 0x3 SHL AND SHR NOT AND SWAP1 SSTORE PUSH0 DUP1 DUP1 PUSH2 0xDB2 JUMP JUMPDEST SWAP3 SWAP4 PUSH1 0x20 PUSH1 0x1 DUP2 SWAP3 DUP8 DUP7 ADD MLOAD DUP2 SSTORE ADD SWAP6 ADD SWAP4 ADD PUSH2 0xD8F JUMP JUMPDEST DUP4 PUSH0 MSTORE PUSH1 0x20 PUSH0 KECCAK256 PUSH1 0x1F DUP5 ADD PUSH1 0x5 SHR DUP2 ADD SWAP2 PUSH1 0x20 DUP6 LT PUSH2 0xE2A JUMPI JUMPDEST PUSH1 0x1F ADD PUSH1 0x5 SHR ADD SWAP1 JUMPDEST DUP2 DUP2 LT PUSH2 0xE1F JUMPI POP PUSH2 0xCD1 JUMP JUMPDEST PUSH0 DUP2 SSTORE PUSH1 0x1 ADD PUSH2 0xE12 JUMP JUMPDEST SWAP1 SWAP2 POP DUP2 SWAP1 PUSH2 0xE09 JUMP JUMPDEST ADD MLOAD SWAP1 POP PUSH0 DUP1 PUSH2 0xC94 JUMP JUMPDEST PUSH0 DUP11 DUP2 MSTORE DUP3 DUP2 KECCAK256 SWAP4 POP PUSH1 0x1F NOT DUP6 AND SWAP1 JUMPDEST DUP2 DUP2 LT PUSH2 0xE8A JUMPI POP SWAP1 DUP5 PUSH1 0x1 SWAP6 SWAP5 SWAP4 SWAP3 LT PUSH2 0xE72 JUMPI JUMPDEST POP POP POP DUP2 SHL ADD DUP7 SSTORE PUSH2 0xCA8 JUMP JUMPDEST ADD MLOAD PUSH0 NOT PUSH1 0xF8 DUP5 PUSH1 0x3 SHL AND SHR NOT AND SWAP1 SSTORE PUSH0 DUP1 DUP1 PUSH2 0xE65 JUMP JUMPDEST SWAP3 SWAP4 PUSH1 0x20 PUSH1 0x1 DUP2 SWAP3 DUP8 DUP7 ADD MLOAD DUP2 SSTORE ADD SWAP6 ADD SWAP4 ADD PUSH2 0xE4F JUMP JUMPDEST SWAP1 SWAP2 POP DUP9 PUSH0 MSTORE PUSH1 0x20 PUSH0 KECCAK256 PUSH1 0x1F DUP5 ADD PUSH1 0x5 SHR DUP2 ADD SWAP2 PUSH1 0x20 DUP6 LT PUSH2 0xEE8 JUMPI JUMPDEST SWAP1 PUSH1 0x1F DUP6 SWAP5 SWAP4 SWAP3 ADD PUSH1 0x5 SHR ADD SWAP1 JUMPDEST DUP2 DUP2 LT PUSH2 0xEDA JUMPI POP PUSH2 0xC7E JUMP JUMPDEST PUSH0 DUP2 SSTORE DUP5 SWAP4 POP PUSH1 0x1 ADD PUSH2 0xECD JUMP JUMPDEST SWAP1 SWAP2 POP DUP2 SWAP1 PUSH2 0xEBF JUMP JUMPDEST POP DUP3 DUP7 SWAP2 DUP9 PUSH2 0xF00 DUP3 PUSH2 0x36F6 JUMP JUMPDEST DUP1 SLOAD PUSH1 0x1 PUSH1 0x40 SHL DUP2 LT ISZERO PUSH2 0x7C7 JUMPI PUSH2 0xF1D SWAP2 PUSH1 0x1 DUP3 ADD DUP2 SSTORE PUSH2 0x3459 JUMP JUMPDEST DUP2 SLOAD SWAP1 PUSH1 0x3 SHL SWAP1 DUP7 DUP3 SHL SWAP2 PUSH0 NOT SWAP1 SHL NOT AND OR SWAP1 SSTORE SLOAD PUSH2 0xF47 PUSH1 0x40 MLOAD SWAP6 PUSH1 0xA0 DUP8 MSTORE PUSH1 0xA0 DUP8 ADD SWAP1 PUSH2 0x3539 JUMP JUMPDEST DUP6 DUP2 SUB PUSH1 0x20 DUP8 ADD MSTORE DUP4 MLOAD DUP1 DUP3 MSTORE PUSH1 0x20 DUP3 ADD SWAP2 PUSH1 0x20 DUP1 DUP4 PUSH1 0x5 SHL DUP4 ADD ADD SWAP7 ADD SWAP3 PUSH0 SWAP2 JUMPDEST DUP4 DUP4 LT PUSH2 0xFBD JUMPI PUSH1 0x20 DUP10 DUP1 PUSH32 0x93F20D1EE811E3A7847933ECA44474C052F00D323DDAC70F72AD001FB49FE915 DUP14 DUP1 DUP14 PUSH2 0xFAC DUP15 DUP15 PUSH1 0x40 DUP6 ADD MSTORE PUSH1 0x60 DUP5 ADD SWAP1 PUSH2 0x355D JUMP JUMPDEST CALLER PUSH1 0x80 DUP4 ADD MSTORE SUB SWAP1 LOG2 PUSH1 0x40 MLOAD SWAP1 DUP2 MSTORE RETURN JUMPDEST SWAP1 SWAP2 SWAP3 SWAP4 SWAP7 PUSH1 0x20 DUP1 PUSH2 0xFDB PUSH1 0x1 SWAP4 PUSH1 0x1F NOT DUP7 DUP3 SUB ADD DUP8 MSTORE DUP12 MLOAD PUSH2 0x3539 JUMP JUMPDEST SWAP10 ADD SWAP4 ADD SWAP4 ADD SWAP2 SWAP4 SWAP3 SWAP1 PUSH2 0xF69 JUMP JUMPDEST DUP1 ISZERO PUSH2 0x1003 JUMPI PUSH8 0xDE0B6B3A7640000 DIV SWAP7 SWAP6 SWAP3 SWAP6 PUSH2 0xBF0 JUMP JUMPDEST PUSH4 0x4E487B71 PUSH1 0xE0 SHL PUSH0 MSTORE PUSH1 0x12 PUSH1 0x4 MSTORE PUSH1 0x24 PUSH0 REVERT JUMPDEST ADD MLOAD SWAP1 POP DUP14 DUP1 PUSH2 0xB5A JUMP JUMPDEST SWAP1 PUSH1 0x1F NOT DUP4 AND SWAP2 DUP5 PUSH0 MSTORE DUP2 PUSH0 KECCAK256 SWAP3 PUSH0 JUMPDEST DUP2 DUP2 LT PUSH2 0x1072 JUMPI POP SWAP2 PUSH1 0x1 SWAP4 SWAP2 DUP6 PUSH2 0xB74 SWAP9 SWAP8 SWAP7 SWAP5 LT PUSH2 0x105A JUMPI JUMPDEST POP POP POP DUP2 SHL ADD SWAP1 SSTORE PUSH2 0xB6E JUMP JUMPDEST ADD MLOAD PUSH0 NOT PUSH1 0xF8 DUP5 PUSH1 0x3 SHL AND SHR NOT AND SWAP1 SSTORE DUP14 DUP1 DUP1 PUSH2 0x104D JUMP JUMPDEST SWAP3 SWAP4 PUSH1 0x20 PUSH1 0x1 DUP2 SWAP3 DUP8 DUP7 ADD MLOAD DUP2 SSTORE ADD SWAP6 ADD SWAP4 ADD PUSH2 0x1032 JUMP JUMPDEST DUP4 PUSH0 MSTORE PUSH1 0x20 PUSH0 KECCAK256 PUSH1 0x1F DUP5 ADD PUSH1 0x5 SHR DUP2 ADD SWAP2 PUSH1 0x20 DUP6 LT PUSH2 0x10C5 JUMPI JUMPDEST PUSH1 0x1F ADD PUSH1 0x5 SHR ADD SWAP1 JUMPDEST DUP2 DUP2 LT PUSH2 0x10BA JUMPI POP PUSH2 0xB3C JUMP JUMPDEST PUSH0 DUP2 SSTORE PUSH1 0x1 ADD PUSH2 0x10AD JUMP JUMPDEST SWAP1 SWAP2 POP DUP2 SWAP1 PUSH2 0x10A4 JUMP JUMPDEST SWAP1 POP DUP6 ADD MLOAD DUP13 PUSH2 0xB01 JUMP JUMPDEST PUSH0 DUP13 DUP2 MSTORE DUP2 DUP2 KECCAK256 SWAP3 POP PUSH1 0x1F NOT DUP5 AND SWAP1 JUMPDEST DUP2 DUP2 LT PUSH2 0x1123 JUMPI POP SWAP1 DUP4 PUSH1 0x1 SWAP5 SWAP4 SWAP3 LT PUSH2 0x110B JUMPI JUMPDEST POP POP DUP2 SHL ADD DUP10 SSTORE PUSH2 0xB14 JUMP JUMPDEST DUP8 ADD MLOAD PUSH0 NOT PUSH1 0xF8 DUP5 PUSH1 0x3 SHL AND SHR NOT AND SWAP1 SSTORE DUP13 DUP1 PUSH2 0x10FF JUMP JUMPDEST SWAP2 SWAP3 PUSH1 0x20 PUSH1 0x1 DUP2 SWAP3 DUP7 DUP13 ADD MLOAD DUP2 SSTORE ADD SWAP5 ADD SWAP3 ADD PUSH2 0x10EA JUMP JUMPDEST DUP11 PUSH0 MSTORE PUSH1 0x20 PUSH0 KECCAK256 PUSH1 0x1F DUP4 ADD PUSH1 0x5 SHR DUP2 ADD SWAP2 PUSH1 0x20 DUP5 LT PUSH2 0x1176 JUMPI JUMPDEST PUSH1 0x1F ADD PUSH1 0x5 SHR ADD SWAP1 JUMPDEST DUP2 DUP2 LT PUSH2 0x116B JUMPI POP PUSH2 0xAEB JUMP JUMPDEST PUSH0 DUP2 SSTORE PUSH1 0x1 ADD PUSH2 0x115E JUMP JUMPDEST SWAP1 SWAP2 POP DUP2 SWAP1 PUSH2 0x1155 JUMP JUMPDEST DUP1 ISZERO PUSH2 0x1236 JUMPI PUSH1 0x3 SLOAD PUSH1 0x40 MLOAD PUSH4 0x23B872DD PUSH1 0xE0 SHL DUP2 MSTORE CALLER PUSH1 0x4 DUP3 ADD MSTORE ADDRESS PUSH1 0x24 DUP3 ADD MSTORE PUSH1 0x44 DUP2 ADD DUP4 SWAP1 MSTORE SWAP1 PUSH1 0x20 SWAP1 DUP3 SWAP1 PUSH1 0x8 SHR PUSH1 0x1 PUSH1 0x1 PUSH1 0xA0 SHL SUB AND DUP2 PUSH0 DUP2 PUSH1 0x64 DUP2 ADD SUB SWAP3 GAS CALL SWAP1 DUP2 ISZERO PUSH2 0x8DD JUMPI PUSH0 SWAP2 PUSH2 0x1217 JUMPI JUMPDEST POP PUSH2 0xAAB JUMPI PUSH1 0x40 MLOAD PUSH3 0x461BCD PUSH1 0xE5 SHL DUP2 MSTORE PUSH1 0x20 PUSH1 0x4 DUP3 ADD MSTORE PUSH1 0x16 PUSH1 0x24 DUP3 ADD MSTORE PUSH22 0x14995DD85C99081D1C985B9CD9995C8819985A5B1959 PUSH1 0x52 SHL PUSH1 0x44 DUP3 ADD MSTORE PUSH1 0x64 SWAP1 REVERT JUMPDEST PUSH2 0x1230 SWAP2 POP PUSH1 0x20 RETURNDATASIZE PUSH1 0x20 GT PUSH2 0x8D6 JUMPI PUSH2 0x8C8 DUP2 DUP4 PUSH2 0x35D7 JUMP JUMPDEST DUP10 PUSH2 0x11D4 JUMP JUMPDEST PUSH1 0x40 MLOAD PUSH3 0x461BCD PUSH1 0xE5 SHL DUP2 MSTORE PUSH1 0x20 PUSH1 0x4 DUP3 ADD MSTORE PUSH1 0x23 PUSH1 0x24 DUP3 ADD MSTORE PUSH32 0x467265652D656E747279206D61726B6574207265717569726573206120726577 PUSH1 0x44 DUP3 ADD MSTORE PUSH3 0x185C99 PUSH1 0xEA SHL PUSH1 0x64 DUP3 ADD MSTORE PUSH1 0x84 SWAP1 REVERT JUMPDEST PUSH1 0x40 MLOAD PUSH3 0x461BCD PUSH1 0xE5 SHL DUP2 MSTORE PUSH1 0x20 PUSH1 0x4 DUP3 ADD MSTORE PUSH1 0x28 PUSH1 0x24 DUP3 ADD MSTORE PUSH32 0x4F7074696F6E7320616E64206465736372697074696F6E73206C656E67746820 PUSH1 0x44 DUP3 ADD MSTORE PUSH8 0xDAD2E6DAC2E8C6D PUSH1 0xC3 SHL PUSH1 0x64 DUP3 ADD MSTORE PUSH1 0x84 SWAP1 REVERT JUMPDEST PUSH1 0x40 MLOAD PUSH3 0x461BCD PUSH1 0xE5 SHL DUP2 MSTORE PUSH1 0x20 PUSH1 0x4 DUP3 ADD MSTORE PUSH1 0x19 PUSH1 0x24 DUP3 ADD MSTORE PUSH32 0x496E76616C6964206E756D626572206F66206F7074696F6E7300000000000000 PUSH1 0x44 DUP3 ADD MSTORE PUSH1 0x64 SWAP1 REVERT JUMPDEST PUSH1 0xA SWAP2 POP GT ISZERO DUP10 PUSH2 0xA96 JUMP JUMPDEST PUSH1 0x40 MLOAD PUSH3 0x461BCD PUSH1 0xE5 SHL DUP2 MSTORE PUSH1 0x20 PUSH1 0x4 DUP3 ADD MSTORE PUSH1 0x18 PUSH1 0x24 DUP3 ADD MSTORE PUSH32 0x5175657374696F6E2063616E6E6F7420626520656D7074790000000000000000 PUSH1 0x44 DUP3 ADD MSTORE PUSH1 0x64 SWAP1 REVERT JUMPDEST PUSH1 0x40 MLOAD PUSH3 0x461BCD PUSH1 0xE5 SHL DUP2 MSTORE PUSH1 0x20 PUSH1 0x4 DUP3 ADD MSTORE PUSH1 0x10 PUSH1 0x24 DUP3 ADD MSTORE PUSH16 0x24B73B30B634B210323AB930BA34B7B7 PUSH1 0x81 SHL PUSH1 0x44 DUP3 ADD MSTORE PUSH1 0x64 SWAP1 REVERT JUMPDEST POP PUSH4 0x1E13380 DUP7 GT ISZERO PUSH2 0xA7C JUMP JUMPDEST PUSH1 0x64 PUSH1 0x40 MLOAD PUSH3 0x461BCD PUSH1 0xE5 SHL DUP2 MSTORE PUSH1 0x20 PUSH1 0x4 DUP3 ADD MSTORE PUSH1 0x20 PUSH1 0x24 DUP3 ADD MSTORE PUSH32 0x4E6F7420617574686F72697A656420746F20637265617465206D61726B657473 PUSH1 0x44 DUP3 ADD MSTORE REVERT JUMPDEST POP CALLER PUSH0 SWAP1 DUP2 MSTORE PUSH32 0x30D995518B427F5A5863AD73FE356CA50CF70941F42C516830919C845FA5806F PUSH1 0x20 MSTORE PUSH1 0x40 SWAP1 KECCAK256 SLOAD PUSH1 0xFF AND PUSH2 0xA6B JUMP JUMPDEST CALLVALUE PUSH2 0x2AC JUMPI PUSH2 0x144C PUSH2 0x1445 CALLDATASIZE PUSH2 0x36D7 JUMP JUMPDEST SWAP2 SWAP1 PUSH2 0x36F6 JUMP JUMPDEST DUP1 SLOAD SWAP1 DUP2 DUP4 GT ISZERO PUSH2 0x14C5 JUMPI DUP2 JUMPDEST PUSH2 0x1462 DUP4 PUSH2 0x3BEF JUMP JUMPDEST SWAP4 DUP1 DUP3 GT ISZERO PUSH2 0x14BD JUMPI PUSH2 0x1474 SWAP2 PUSH2 0x38FF JUMP JUMPDEST PUSH0 JUMPDEST DUP4 DUP2 LT PUSH2 0x148F JUMPI PUSH1 0x40 MLOAD DUP1 PUSH2 0x148B DUP8 DUP3 PUSH2 0x3685 JUMP JUMPDEST SUB SWAP1 RETURN JUMPDEST DUP1 PUSH2 0x14A5 PUSH2 0x149F PUSH1 0x1 SWAP4 DUP6 PUSH2 0x38E8 JUMP JUMPDEST DUP6 PUSH2 0x3459 JUMP JUMPDEST SWAP1 SLOAD SWAP1 PUSH1 0x3 SHL SHR PUSH2 0x14B6 DUP3 DUP9 PUSH2 0x3BDB JUMP JUMPDEST MSTORE ADD PUSH2 0x1476 JUMP JUMPDEST POP POP PUSH0 PUSH2 0x1474 JUMP JUMPDEST DUP3 SWAP2 PUSH2 0x1459 JUMP JUMPDEST CALLVALUE PUSH2 0x2AC JUMPI PUSH0 CALLDATASIZE PUSH1 0x3 NOT ADD SLT PUSH2 0x2AC JUMPI PUSH1 0x20 PUSH1 0x6 SLOAD PUSH1 0x40 MLOAD SWAP1 DUP2 MSTORE RETURN JUMPDEST CALLVALUE PUSH2 0x2AC JUMPI PUSH1 0x20 CALLDATASIZE PUSH1 0x3 NOT ADD SLT PUSH2 0x2AC JUMPI PUSH1 0x1 PUSH1 0x1 PUSH1 0xA0 SHL SUB PUSH2 0x150A PUSH2 0x346E JUMP JUMPDEST AND PUSH0 MSTORE PUSH1 0xA PUSH1 0x20 MSTORE PUSH1 0xA0 PUSH1 0x40 PUSH0 KECCAK256 DUP1 SLOAD SWAP1 PUSH1 0x1 DUP2 ADD SLOAD SWAP1 PUSH1 0x2 DUP2 ADD SLOAD PUSH1 0x4 PUSH1 0x3 DUP4 ADD SLOAD SWAP3 ADD SLOAD SWAP3 PUSH1 0x40 MLOAD SWAP5 DUP6 MSTORE PUSH1 0x20 DUP6 ADD MSTORE PUSH1 0x40 DUP5 ADD MSTORE PUSH1 0x60 DUP4 ADD MSTORE PUSH1 0x80 DUP3 ADD MSTORE RETURN JUMPDEST CALLVALUE PUSH2 0x2AC JUMPI PUSH1 0x20 PUSH2 0x1580 PUSH2 0x1560 CALLDATASIZE PUSH2 0x3523 JUMP JUMPDEST SWAP1 PUSH0 MSTORE PUSH1 0x8 PUSH1 0x20 MSTORE PUSH1 0xA PUSH1 0x40 PUSH0 KECCAK256 ADD SWAP1 PUSH0 MSTORE PUSH1 0x20 MSTORE PUSH1 0x4 PUSH1 0x40 PUSH0 KECCAK256 ADD SLOAD SWAP1 JUMP JUMPDEST PUSH1 0x40 MLOAD SWAP1 DUP2 MSTORE RETURN JUMPDEST CALLVALUE PUSH2 0x2AC JUMPI PUSH1 0x20 CALLDATASIZE PUSH1 0x3 NOT ADD SLT PUSH2 0x2AC JUMPI PUSH1 0x4 CALLDATALOAD PUSH0 MSTORE PUSH1 0x8 PUSH1 0x20 MSTORE PUSH1 0x40 PUSH0 KECCAK256 PUSH2 0x15B0 DUP2 PUSH2 0x3745 JUMP JUMPDEST PUSH2 0x15BC PUSH1 0x1 DUP4 ADD PUSH2 0x3745 JUMP JUMPDEST SWAP1 PUSH1 0x2 DUP4 ADD SLOAD SWAP3 PUSH1 0x3 DUP2 ADD SLOAD PUSH1 0xFF AND SWAP1 PUSH1 0x4 DUP2 ADD SLOAD PUSH1 0x5 DUP3 ADD SLOAD PUSH1 0x6 DUP4 ADD SLOAD PUSH1 0x7 DUP5 ADD SLOAD PUSH1 0x8 DUP6 ADD SLOAD SWAP1 PUSH1 0x9 DUP7 ADD SLOAD SWAP3 PUSH1 0xE DUP8 ADD SLOAD SWAP5 PUSH1 0xF DUP9 ADD SLOAD SWAP7 PUSH1 0x10 DUP10 ADD SLOAD SWAP9 PUSH1 0x11 ADD SLOAD PUSH1 0xFF AND SWAP10 PUSH1 0x40 MLOAD SWAP14 DUP15 SWAP14 DUP15 DUP1 SWAP15 PUSH2 0x220 DUP3 MSTORE PUSH2 0x220 DUP3 ADD PUSH2 0x1622 SWAP2 PUSH2 0x3539 JUMP JUMPDEST SWAP1 DUP1 DUP3 SUB SWAP1 PUSH1 0x20 ADD MSTORE PUSH2 0x1634 SWAP2 PUSH2 0x3539 JUMP JUMPDEST SWAP13 PUSH1 0x40 ADD MSTORE PUSH1 0x60 DUP14 ADD PUSH2 0x1646 SWAP2 PUSH2 0x355D JUMP JUMPDEST PUSH1 0x80 DUP13 ADD MSTORE PUSH1 0xFF DUP2 DUP2 AND ISZERO ISZERO PUSH1 0xA0 DUP14 ADD MSTORE PUSH1 0x8 DUP3 SWAP1 SHR DUP2 AND ISZERO ISZERO PUSH1 0xC0 DUP14 ADD MSTORE PUSH1 0x10 DUP3 SWAP1 SHR AND ISZERO ISZERO PUSH1 0xE0 DUP13 ADD MSTORE PUSH1 0x18 SHR PUSH1 0x1 PUSH1 0x1 PUSH1 0xA0 SHL SUB AND PUSH2 0x100 DUP12 ADD MSTORE PUSH2 0x120 DUP11 ADD MSTORE PUSH2 0x140 DUP10 ADD MSTORE PUSH2 0x160 DUP9 ADD MSTORE PUSH2 0x180 DUP8 ADD MSTORE PUSH2 0x1A0 DUP7 ADD MSTORE PUSH2 0x1C0 DUP6 ADD MSTORE PUSH2 0x1E0 DUP5 ADD MSTORE ISZERO ISZERO PUSH2 0x200 DUP4 ADD MSTORE SUB SWAP1 RETURN JUMPDEST CALLVALUE PUSH2 0x2AC JUMPI PUSH1 0x20 CALLDATASIZE PUSH1 0x3 NOT ADD SLT PUSH2 0x2AC JUMPI PUSH2 0x99D PUSH2 0x16D6 PUSH2 0x346E JUMP JUMPDEST PUSH2 0x16DE PUSH2 0x3F04 JUMP JUMPDEST PUSH32 0xD486618B282CB35034D59C30C062B5B3822D6CDF87EC459191CE7F5B7B8A4873 PUSH0 MSTORE PUSH1 0x2 PUSH1 0x20 MSTORE PUSH32 0xD3DCCF8D8289B9DEEE17E361620D7577DE7B525DD57F668D5C1BB85EC53112B6 SLOAD PUSH2 0x1731 SWAP1 PUSH2 0x3C21 JUMP JUMPDEST PUSH2 0x3DD2 JUMP JUMPDEST CALLVALUE PUSH2 0x2AC JUMPI PUSH1 0x20 CALLDATASIZE PUSH1 0x3 NOT ADD SLT PUSH2 0x2AC JUMPI PUSH1 0x4 CALLDATALOAD PUSH2 0x1757 PUSH1 0x4 SLOAD DUP3 LT PUSH2 0x38A4 JUMP JUMPDEST CALLER PUSH0 SWAP1 DUP2 MSTORE PUSH32 0xD3DCCF8D8289B9DEEE17E361620D7577DE7B525DD57F668D5C1BB85EC53112B5 PUSH1 0x20 MSTORE PUSH1 0x40 SWAP1 KECCAK256 SLOAD PUSH1 0xFF AND DUP1 ISZERO PUSH2 0x1873 JUMPI JUMPDEST ISZERO PUSH2 0x183D JUMPI DUP1 PUSH0 MSTORE PUSH1 0x8 PUSH1 0x20 MSTORE PUSH1 0xFF PUSH1 0x5 PUSH1 0x40 PUSH0 KECCAK256 ADD SLOAD PUSH1 0x10 SHR AND PUSH2 0x17F8 JUMPI DUP1 PUSH0 MSTORE PUSH1 0x8 PUSH1 0x20 MSTORE PUSH1 0x5 PUSH1 0x40 PUSH0 KECCAK256 ADD PUSH3 0x10000 PUSH3 0xFF0000 NOT DUP3 SLOAD AND OR SWAP1 SSTORE PUSH32 0xCD5B0C95D548CDBA5F9A45B4210642D0B866A0CC878E0A863855455908C6DB65 PUSH1 0x20 PUSH1 0x40 MLOAD CALLER DUP2 MSTORE LOG2 STOP JUMPDEST PUSH1 0x40 MLOAD PUSH3 0x461BCD PUSH1 0xE5 SHL DUP2 MSTORE PUSH1 0x20 PUSH1 0x4 DUP3 ADD MSTORE PUSH1 0x18 PUSH1 0x24 DUP3 ADD MSTORE PUSH32 0x4D61726B657420616C72656164792076616C6964617465640000000000000000 PUSH1 0x44 DUP3 ADD MSTORE PUSH1 0x64 SWAP1 REVERT JUMPDEST PUSH1 0x40 MLOAD PUSH3 0x461BCD PUSH1 0xE5 SHL DUP2 MSTORE PUSH1 0x20 PUSH1 0x4 DUP3 ADD MSTORE PUSH1 0xE PUSH1 0x24 DUP3 ADD MSTORE PUSH14 0x139BDD08185D5D1A1BDC9A5E9959 PUSH1 0x92 SHL PUSH1 0x44 DUP3 ADD MSTORE PUSH1 0x64 SWAP1 REVERT JUMPDEST POP PUSH0 SLOAD PUSH1 0x1 PUSH1 0x1 PUSH1 0xA0 SHL SUB AND CALLER EQ PUSH2 0x178F JUMP JUMPDEST CALLVALUE PUSH2 0x2AC JUMPI PUSH2 0x1897 PUSH2 0x1445 CALLDATASIZE PUSH2 0x36D7 JUMP JUMPDEST DUP1 SLOAD DUP3 LT ISZERO PUSH2 0x2AC JUMPI PUSH1 0x20 SWAP2 PUSH2 0x18AC SWAP2 PUSH2 0x3459 JUMP JUMPDEST SWAP1 SLOAD SWAP1 PUSH1 0x3 SHL SHR PUSH1 0x40 MLOAD SWAP1 DUP2 MSTORE RETURN JUMPDEST CALLVALUE PUSH2 0x2AC JUMPI PUSH1 0x20 CALLDATASIZE PUSH1 0x3 NOT ADD SLT PUSH2 0x2AC JUMPI PUSH1 0x4 CALLDATALOAD PUSH0 MSTORE PUSH1 0x9 PUSH1 0x20 MSTORE PUSH2 0x160 PUSH1 0x40 PUSH0 KECCAK256 DUP1 SLOAD SWAP1 PUSH1 0x1 DUP2 ADD SLOAD SWAP1 PUSH1 0x2 DUP2 ADD SLOAD PUSH1 0x3 DUP3 ADD SLOAD PUSH1 0xFF DUP2 PUSH1 0xA0 SHR AND PUSH1 0xFF DUP3 PUSH1 0xA8 SHR AND PUSH1 0x4 DUP6 ADD SLOAD SWAP2 PUSH1 0x5 DUP7 ADD SLOAD SWAP4 PUSH1 0x6 DUP8 ADD SLOAD SWAP6 PUSH1 0xFF PUSH1 0x8 PUSH1 0x7 DUP11 ADD SLOAD SWAP10 ADD SLOAD AND SWAP9 PUSH1 0x40 MLOAD SWAP11 DUP12 MSTORE PUSH1 0x20 DUP12 ADD MSTORE PUSH1 0x40 DUP11 ADD MSTORE PUSH1 0x1 DUP1 PUSH1 0xA0 SHL SUB AND PUSH1 0x60 DUP10 ADD MSTORE PUSH2 0x1944 DUP2 PUSH2 0x34B3 JUMP JUMPDEST PUSH1 0x80 DUP9 ADD MSTORE PUSH2 0x1952 DUP2 PUSH2 0x34B3 JUMP JUMPDEST PUSH1 0xA0 DUP8 ADD MSTORE PUSH1 0xC0 DUP7 ADD MSTORE PUSH1 0xE0 DUP6 ADD MSTORE PUSH2 0x100 DUP5 ADD MSTORE PUSH2 0x120 DUP4 ADD MSTORE ISZERO ISZERO PUSH2 0x140 DUP3 ADD MSTORE RETURN JUMPDEST CALLVALUE PUSH2 0x2AC JUMPI PUSH2 0x1985 CALLDATASIZE PUSH2 0x366B JUMP JUMPDEST SWAP2 PUSH0 MSTORE PUSH1 0xD PUSH1 0x20 MSTORE PUSH1 0x40 PUSH0 KECCAK256 SWAP1 PUSH0 MSTORE PUSH1 0x20 MSTORE PUSH1 0x40 PUSH0 KECCAK256 DUP1 SLOAD DUP3 LT ISZERO PUSH2 0x2AC JUMPI PUSH1 0x60 SWAP2 PUSH2 0x19B0 SWAP2 PUSH2 0x36BE JUMP JUMPDEST POP DUP1 SLOAD SWAP1 PUSH1 0x2 PUSH1 0x1 DUP3 ADD SLOAD SWAP2 ADD SLOAD SWAP1 PUSH1 0x40 MLOAD SWAP3 DUP4 MSTORE PUSH1 0x20 DUP4 ADD MSTORE PUSH1 0x40 DUP3 ADD MSTORE RETURN JUMPDEST CALLVALUE PUSH2 0x2AC JUMPI PUSH0 CALLDATASIZE PUSH1 0x3 NOT ADD SLT PUSH2 0x2AC JUMPI PUSH1 0x20 PUSH1 0x40 MLOAD PUSH0 DUP2 MSTORE RETURN JUMPDEST CALLVALUE PUSH2 0x2AC JUMPI PUSH0 CALLDATASIZE PUSH1 0x3 NOT ADD SLT PUSH2 0x2AC JUMPI PUSH1 0x20 PUSH1 0x40 MLOAD PUSH2 0xE10 DUP2 MSTORE RETURN JUMPDEST CALLVALUE PUSH2 0x2AC JUMPI PUSH1 0x20 CALLDATASIZE PUSH1 0x3 NOT ADD SLT PUSH2 0x2AC JUMPI PUSH1 0x4 CALLDATALOAD PUSH2 0x1A23 PUSH2 0x3F04 JUMP JUMPDEST PUSH2 0x3E8 DUP2 GT PUSH2 0x1A31 JUMPI PUSH1 0x7 SSTORE STOP JUMPDEST PUSH1 0x40 MLOAD PUSH3 0x461BCD PUSH1 0xE5 SHL DUP2 MSTORE PUSH1 0x20 PUSH1 0x4 DUP3 ADD MSTORE PUSH1 0x11 PUSH1 0x24 DUP3 ADD MSTORE PUSH17 0x8CCACA40E4C2E8CA40E8DEDE40D0D2CED PUSH1 0x7B SHL PUSH1 0x44 DUP3 ADD MSTORE PUSH1 0x64 SWAP1 REVERT JUMPDEST CALLVALUE PUSH2 0x2AC JUMPI PUSH1 0x40 CALLDATASIZE PUSH1 0x3 NOT ADD SLT PUSH2 0x2AC JUMPI PUSH2 0x1A83 PUSH2 0x3484 JUMP JUMPDEST PUSH1 0x4 CALLDATALOAD PUSH0 MSTORE PUSH1 0x2 PUSH1 0x20 MSTORE PUSH1 0x40 PUSH0 KECCAK256 SWAP1 PUSH1 0x1 DUP1 PUSH1 0xA0 SHL SUB AND PUSH0 MSTORE PUSH1 0x20 MSTORE PUSH1 0x20 PUSH1 0xFF PUSH1 0x40 PUSH0 KECCAK256 SLOAD AND PUSH1 0x40 MLOAD SWAP1 ISZERO ISZERO DUP2 MSTORE RETURN JUMPDEST CALLVALUE PUSH2 0x2AC JUMPI PUSH0 CALLDATASIZE PUSH1 0x3 NOT ADD SLT PUSH2 0x2AC JUMPI PUSH0 SLOAD PUSH1 0x40 MLOAD PUSH1 0x1 PUSH1 0x1 PUSH1 0xA0 SHL SUB SWAP1 SWAP2 AND DUP2 MSTORE PUSH1 0x20 SWAP1 RETURN JUMPDEST CALLVALUE PUSH2 0x2AC JUMPI PUSH1 0x20 CALLDATASIZE PUSH1 0x3 NOT ADD SLT PUSH2 0x2AC JUMPI PUSH1 0x1 PUSH1 0x1 PUSH1 0xA0 SHL SUB PUSH2 0x1AFB PUSH2 0x346E JUMP JUMPDEST AND PUSH0 MSTORE PUSH1 0x11 PUSH1 0x20 MSTORE PUSH1 0x20 PUSH1 0x40 PUSH0 KECCAK256 SLOAD PUSH1 0x40 MLOAD SWAP1 DUP2 MSTORE RETURN JUMPDEST CALLVALUE PUSH2 0x2AC JUMPI PUSH1 0x40 CALLDATASIZE PUSH1 0x3 NOT ADD SLT PUSH2 0x2AC JUMPI PUSH2 0x1B2B PUSH2 0x346E JUMP JUMPDEST PUSH1 0x1 PUSH1 0x1 PUSH1 0xA0 SHL SUB AND PUSH0 SWAP1 DUP2 MSTORE PUSH1 0xF PUSH1 0x20 MSTORE PUSH1 0x40 SWAP1 KECCAK256 DUP1 SLOAD PUSH1 0x24 CALLDATALOAD SWAP2 SWAP1 DUP3 LT ISZERO PUSH2 0x2AC JUMPI PUSH1 0x20 SWAP2 PUSH2 0x18AC SWAP2 PUSH2 0x3459 JUMP JUMPDEST CALLVALUE PUSH2 0x2AC JUMPI PUSH0 CALLDATASIZE PUSH1 0x3 NOT ADD SLT PUSH2 0x2AC JUMPI PUSH2 0x1B73 PUSH2 0x3F04 JUMP JUMPDEST PUSH2 0x1B7B PUSH2 0x3FCE JUMP JUMPDEST PUSH1 0x1 PUSH1 0xFF NOT PUSH1 0x3 SLOAD AND OR PUSH1 0x3 SSTORE PUSH32 0x62E78CEA01BEE320CD4E420270B5EA74000D11B0C9F74754EBDBFC544B05A258 PUSH1 0x20 PUSH1 0x40 MLOAD CALLER DUP2 MSTORE LOG1 STOP JUMPDEST CALLVALUE PUSH2 0x2AC JUMPI PUSH1 0x40 CALLDATASIZE PUSH1 0x3 NOT ADD SLT PUSH2 0x2AC JUMPI PUSH1 0x4 CALLDATALOAD PUSH2 0x1BD0 PUSH2 0x3484 JUMP JUMPDEST SWAP1 PUSH2 0x1BDE PUSH1 0x4 SLOAD DUP3 LT PUSH2 0x38A4 JUMP JUMPDEST PUSH0 MSTORE PUSH1 0x8 PUSH1 0x20 MSTORE PUSH1 0x40 PUSH0 KECCAK256 SWAP1 PUSH1 0x9 DUP3 ADD SLOAD SWAP1 PUSH2 0x1BF9 DUP3 PUSH2 0x3BEF JUMP JUMPDEST SWAP3 PUSH1 0xB ADD SWAP1 PUSH1 0x1 PUSH1 0x1 PUSH1 0xA0 SHL SUB AND PUSH0 JUMPDEST DUP4 DUP2 LT PUSH2 0x1C1E JUMPI PUSH1 0x40 MLOAD DUP1 PUSH2 0x148B DUP8 DUP3 PUSH2 0x3685 JUMP JUMPDEST PUSH1 0x1 SWAP1 DUP3 PUSH0 MSTORE DUP4 PUSH1 0x20 MSTORE PUSH1 0x40 PUSH0 KECCAK256 DUP2 PUSH0 MSTORE PUSH1 0x20 MSTORE PUSH1 0x40 PUSH0 KECCAK256 SLOAD PUSH2 0x1C41 DUP3 DUP9 PUSH2 0x3BDB JUMP JUMPDEST MSTORE ADD PUSH2 0x1C09 JUMP JUMPDEST CALLVALUE PUSH2 0x2AC JUMPI PUSH0 CALLDATASIZE PUSH1 0x3 NOT ADD SLT PUSH2 0x2AC JUMPI PUSH1 0x20 PUSH1 0x40 MLOAD PUSH4 0x1E13380 DUP2 MSTORE RETURN JUMPDEST CALLVALUE PUSH2 0x2AC JUMPI PUSH2 0x1C74 CALLDATASIZE PUSH2 0x366B JUMP JUMPDEST SWAP2 PUSH0 MSTORE PUSH1 0xD PUSH1 0x20 MSTORE PUSH1 0x40 PUSH0 KECCAK256 SWAP1 PUSH0 MSTORE PUSH1 0x20 MSTORE PUSH1 0x40 PUSH0 KECCAK256 DUP1 SLOAD SWAP1 DUP2 DUP4 GT PUSH0 EQ PUSH2 0x1DC7 JUMPI DUP2 JUMPDEST PUSH2 0x1CA1 DUP4 PUSH2 0x37E5 JUMP JUMPDEST SWAP4 PUSH2 0x1CAF PUSH1 0x40 MLOAD SWAP6 DUP7 PUSH2 0x35D7 JUMP JUMPDEST DUP4 DUP6 MSTORE PUSH1 0x1F NOT PUSH2 0x1CBE DUP6 PUSH2 0x37E5 JUMP JUMPDEST ADD PUSH0 JUMPDEST DUP2 DUP2 LT PUSH2 0x1D9E JUMPI POP POP DUP1 DUP3 GT ISZERO PUSH2 0x1D96 JUMPI PUSH2 0x1CDB SWAP2 PUSH2 0x38FF JUMP JUMPDEST PUSH0 JUMPDEST DUP4 DUP2 LT PUSH2 0x1D40 JUMPI DUP5 PUSH1 0x40 MLOAD DUP1 SWAP2 PUSH1 0x20 DUP3 ADD PUSH1 0x20 DUP4 MSTORE DUP2 MLOAD DUP1 SWAP2 MSTORE PUSH1 0x20 PUSH1 0x40 DUP5 ADD SWAP3 ADD SWAP1 PUSH0 JUMPDEST DUP2 DUP2 LT PUSH2 0x1D10 JUMPI POP POP POP SUB SWAP1 RETURN JUMPDEST SWAP2 SWAP4 POP SWAP2 PUSH1 0x20 PUSH1 0x60 PUSH1 0x1 SWAP3 PUSH1 0x40 DUP8 MLOAD DUP1 MLOAD DUP4 MSTORE DUP5 DUP2 ADD MLOAD DUP6 DUP5 ADD MSTORE ADD MLOAD PUSH1 0x40 DUP3 ADD MSTORE ADD SWAP5 ADD SWAP2 ADD SWAP2 DUP5 SWAP4 SWAP3 PUSH2 0x1D02 JUMP JUMPDEST DUP1 PUSH2 0x1D56 PUSH2 0x1D50 PUSH1 0x1 SWAP4 DUP6 PUSH2 0x38E8 JUMP JUMPDEST DUP6 PUSH2 0x36BE JUMP JUMPDEST POP PUSH1 0x2 PUSH1 0x40 MLOAD SWAP2 PUSH2 0x1D66 DUP4 PUSH2 0x35A0 JUMP JUMPDEST DUP1 SLOAD DUP4 MSTORE DUP5 DUP2 ADD SLOAD PUSH1 0x20 DUP5 ADD MSTORE ADD SLOAD PUSH1 0x40 DUP3 ADD MSTORE PUSH2 0x1D84 DUP3 DUP9 PUSH2 0x3BDB JUMP JUMPDEST MSTORE PUSH2 0x1D8F DUP2 DUP8 PUSH2 0x3BDB JUMP JUMPDEST POP ADD PUSH2 0x1CDD JUMP JUMPDEST POP POP PUSH0 PUSH2 0x1CDB JUMP JUMPDEST PUSH1 0x20 SWAP1 PUSH1 0x40 MLOAD PUSH2 0x1DAD DUP2 PUSH2 0x35A0 JUMP JUMPDEST PUSH0 DUP2 MSTORE PUSH0 DUP4 DUP3 ADD MSTORE PUSH0 PUSH1 0x40 DUP3 ADD MSTORE DUP3 DUP3 DUP11 ADD ADD MSTORE ADD PUSH2 0x1CC1 JUMP JUMPDEST DUP3 SWAP2 PUSH2 0x1C98 JUMP JUMPDEST CALLVALUE PUSH2 0x2AC JUMPI PUSH0 CALLDATASIZE PUSH1 0x3 NOT ADD SLT PUSH2 0x2AC JUMPI PUSH1 0x20 PUSH1 0x40 MLOAD PUSH32 0xEF485BE696BBC0C91AD541BBD553FFB5BD0E18DAC30BA76E992DDA23CB807A8A DUP2 MSTORE RETURN JUMPDEST CALLVALUE PUSH2 0x2AC JUMPI PUSH0 CALLDATASIZE PUSH1 0x3 NOT ADD SLT PUSH2 0x2AC JUMPI PUSH1 0x20 PUSH1 0x40 MLOAD PUSH32 0xDCEE1D35C83A32B436264A5C9AFD68685C124F3F9097E87804C55410E67FC59A DUP2 MSTORE RETURN JUMPDEST CALLVALUE PUSH2 0x2AC JUMPI PUSH2 0x1E50 CALLDATASIZE PUSH2 0x3523 JUMP JUMPDEST PUSH1 0x12 SLOAD SWAP1 DUP2 DUP4 LT ISZERO PUSH2 0x2042 JUMPI DUP2 PUSH2 0x1E67 DUP3 DUP6 PUSH2 0x38E8 JUMP JUMPDEST GT ISZERO PUSH2 0x2032 JUMPI POP JUMPDEST PUSH2 0x1E79 DUP3 DUP3 PUSH2 0x38FF JUMP JUMPDEST SWAP2 PUSH2 0x1E83 DUP4 PUSH2 0x37E5 JUMP JUMPDEST SWAP3 PUSH2 0x1E91 PUSH1 0x40 MLOAD SWAP5 DUP6 PUSH2 0x35D7 JUMP JUMPDEST DUP1 DUP5 MSTORE PUSH2 0x1EA0 PUSH1 0x1F NOT SWAP2 PUSH2 0x37E5 JUMP JUMPDEST ADD PUSH0 JUMPDEST DUP2 DUP2 LT PUSH2 0x201B JUMPI POP POP DUP1 JUMPDEST DUP3 DUP2 LT PUSH2 0x1F2B JUMPI DUP4 PUSH1 0x40 MLOAD DUP1 SWAP2 PUSH1 0x20 DUP3 ADD PUSH1 0x20 DUP4 MSTORE DUP2 MLOAD DUP1 SWAP2 MSTORE PUSH1 0x20 PUSH1 0x40 DUP5 ADD SWAP3 ADD SWAP1 PUSH0 JUMPDEST DUP2 DUP2 LT PUSH2 0x1EE1 JUMPI POP POP POP SUB SWAP1 RETURN JUMPDEST SWAP2 SWAP4 POP SWAP2 PUSH1 0x20 PUSH1 0xA0 PUSH1 0x1 SWAP3 PUSH1 0x80 DUP8 MLOAD DUP6 DUP1 DUP6 SHL SUB DUP2 MLOAD AND DUP4 MSTORE DUP5 DUP2 ADD MLOAD DUP6 DUP5 ADD MSTORE PUSH1 0x40 DUP2 ADD MLOAD PUSH1 0x40 DUP5 ADD MSTORE PUSH1 0x60 DUP2 ADD MLOAD PUSH1 0x60 DUP5 ADD MSTORE ADD MLOAD PUSH1 0x80 DUP3 ADD MSTORE ADD SWAP5 ADD SWAP2 ADD SWAP2 DUP5 SWAP4 SWAP3 PUSH2 0x1ED3 JUMP JUMPDEST PUSH2 0x1F34 DUP2 PUSH2 0x342D JUMP JUMPDEST PUSH1 0x1 DUP1 PUSH1 0xA0 SHL SUB SWAP2 SLOAD SWAP1 PUSH1 0x3 SHL SHR AND SWAP1 DUP2 PUSH0 MSTORE PUSH1 0xA PUSH1 0x20 MSTORE PUSH1 0x40 PUSH0 KECCAK256 SWAP2 PUSH1 0x40 MLOAD SWAP1 PUSH2 0x1F5E DUP3 PUSH2 0x356A JUMP JUMPDEST DUP4 SLOAD DUP3 MSTORE PUSH1 0x1 DUP5 ADD SLOAD SWAP2 PUSH1 0x4 PUSH1 0x20 DUP3 ADD SWAP6 DUP5 DUP8 MSTORE PUSH1 0x2 DUP2 ADD SLOAD PUSH1 0x40 DUP5 ADD MSTORE PUSH1 0x3 DUP2 ADD SLOAD PUSH1 0x60 DUP5 ADD MSTORE ADD SLOAD SWAP5 PUSH1 0x80 DUP3 ADD SWAP6 DUP1 DUP8 MSTORE ISZERO ISZERO PUSH0 EQ PUSH2 0x200C JUMPI PUSH1 0x64 DUP5 MUL SWAP4 DUP1 DUP6 DIV PUSH1 0x64 EQ SWAP1 ISZERO OR ISZERO PUSH2 0x721 JUMPI PUSH1 0x1 SWAP6 PUSH2 0x1FBE PUSH2 0x2005 SWAP6 DUP5 MLOAD SWAP1 PUSH2 0x38F5 JUMP JUMPDEST SWAP2 JUMPDEST MLOAD SWAP3 MLOAD SWAP1 MLOAD SWAP3 PUSH1 0x40 MLOAD SWAP5 PUSH2 0x1FD3 DUP7 PUSH2 0x356A JUMP JUMPDEST DUP6 MSTORE PUSH1 0x20 DUP6 ADD MSTORE PUSH1 0x40 DUP5 ADD MSTORE PUSH1 0x60 DUP4 ADD MSTORE PUSH1 0x80 DUP3 ADD MSTORE PUSH2 0x1FF3 DUP6 DUP5 PUSH2 0x38FF JUMP JUMPDEST SWAP1 PUSH2 0x1FFE DUP3 DUP10 PUSH2 0x3BDB JUMP JUMPDEST MSTORE DUP7 PUSH2 0x3BDB JUMP JUMPDEST POP ADD PUSH2 0x1EAE JUMP JUMPDEST PUSH2 0x2005 SWAP4 POP PUSH1 0x1 SWAP6 PUSH0 SWAP2 PUSH2 0x1FC0 JUMP JUMPDEST PUSH1 0x20 SWAP1 PUSH2 0x2026 PUSH2 0x387A JUMP JUMPDEST DUP3 DUP3 DUP9 ADD ADD MSTORE ADD PUSH2 0x1EA3 JUMP JUMPDEST PUSH2 0x203D SWAP2 POP DUP3 PUSH2 0x38E8 JUMP JUMPDEST PUSH2 0x1E6F JUMP JUMPDEST PUSH1 0x40 MLOAD PUSH3 0x461BCD PUSH1 0xE5 SHL DUP2 MSTORE PUSH1 0x20 PUSH1 0x4 DUP3 ADD MSTORE PUSH1 0x19 PUSH1 0x24 DUP3 ADD MSTORE PUSH32 0x537461727420696E646578206F7574206F6620626F756E647300000000000000 PUSH1 0x44 DUP3 ADD MSTORE PUSH1 0x64 SWAP1 REVERT JUMPDEST CALLVALUE PUSH2 0x2AC JUMPI PUSH0 CALLDATASIZE PUSH1 0x3 NOT ADD SLT PUSH2 0x2AC JUMPI PUSH2 0x209F PUSH2 0x3F04 JUMP JUMPDEST PUSH0 DUP1 SLOAD PUSH1 0x1 PUSH1 0x1 PUSH1 0xA0 SHL SUB NOT DUP2 AND DUP3 SSTORE PUSH1 0x1 PUSH1 0x1 PUSH1 0xA0 SHL SUB AND PUSH32 0x8BE0079C531659141344CD1FD0A4F28419497F9722A3DAAFE3B4186F6B6457E0 DUP3 DUP1 LOG3 STOP JUMPDEST CALLVALUE PUSH2 0x2AC JUMPI PUSH1 0x20 CALLDATASIZE PUSH1 0x3 NOT ADD SLT PUSH2 0x2AC JUMPI PUSH2 0x99D PUSH2 0x20FA PUSH2 0x346E JUMP JUMPDEST PUSH2 0x2102 PUSH2 0x3F04 JUMP JUMPDEST PUSH32 0xEF485BE696BBC0C91AD541BBD553FFB5BD0E18DAC30BA76E992DDA23CB807A8A PUSH0 MSTORE PUSH1 0x2 PUSH1 0x20 MSTORE PUSH32 0x30D995518B427F5A5863AD73FE356CA50CF70941F42C516830919C845FA58070 SLOAD PUSH2 0x2155 SWAP1 PUSH2 0x3C21 JUMP JUMPDEST PUSH2 0x3D19 JUMP JUMPDEST CALLVALUE PUSH2 0x2AC JUMPI PUSH1 0x20 CALLDATASIZE PUSH1 0x3 NOT ADD SLT PUSH2 0x2AC JUMPI PUSH1 0x4 CALLDATALOAD PUSH2 0x2176 PUSH2 0x3FAE JUMP JUMPDEST PUSH2 0x2183 PUSH1 0x4 SLOAD DUP3 LT PUSH2 0x38A4 JUMP JUMPDEST DUP1 PUSH0 MSTORE PUSH1 0x8 PUSH1 0x20 MSTORE PUSH1 0x40 PUSH0 KECCAK256 SWAP1 PUSH1 0x5 DUP3 ADD SLOAD PUSH1 0xFF DUP2 AND SWAP1 DUP2 PUSH2 0x244B JUMPI JUMPDEST POP ISZERO PUSH2 0x2406 JUMPI PUSH1 0xC DUP3 ADD SWAP2 PUSH1 0x1 DUP1 PUSH1 0xA0 SHL SUB CALLER AND PUSH0 MSTORE DUP3 PUSH1 0x20 MSTORE PUSH1 0xFF PUSH1 0x40 PUSH0 KECCAK256 SLOAD AND PUSH2 0x23CF JUMPI CALLER PUSH0 SWAP1 DUP2 MSTORE PUSH1 0xB DUP3 ADD PUSH1 0x20 SWAP1 DUP2 MSTORE PUSH1 0x40 DUP1 DUP4 KECCAK256 PUSH1 0x4 DUP6 ADD SLOAD DUP1 DUP6 MSTORE SWAP3 MSTORE SWAP1 SWAP2 KECCAK256 SLOAD SWAP1 DUP2 ISZERO PUSH2 0x2396 JUMPI PUSH1 0x11 DUP4 ADD SLOAD PUSH1 0xFF AND ISZERO PUSH2 0x2315 JUMPI PUSH2 0x2225 SWAP3 SWAP2 PUSH2 0x2220 SWAP2 PUSH0 MSTORE PUSH1 0xA DUP4 ADD PUSH1 0x20 MSTORE PUSH1 0x10 PUSH1 0x2 PUSH1 0x40 PUSH0 KECCAK256 ADD SLOAD SWAP4 ADD SLOAD SWAP1 PUSH2 0x3A60 JUMP JUMPDEST PUSH2 0x38F5 JUMP JUMPDEST SWAP2 JUMPDEST CALLER PUSH0 SWAP1 DUP2 MSTORE PUSH1 0x20 SWAP2 DUP3 MSTORE PUSH1 0x40 DUP1 DUP3 KECCAK256 DUP1 SLOAD PUSH1 0xFF NOT AND PUSH1 0x1 SWAP1 DUP2 OR SWAP1 SWAP2 SSTORE PUSH1 0xA SWAP1 SWAP4 MSTORE SWAP1 KECCAK256 ADD DUP1 SLOAD PUSH2 0x2259 SWAP1 DUP5 SWAP1 PUSH2 0x38E8 JUMP JUMPDEST SWAP1 SSTORE CALLER PUSH0 MSTORE PUSH1 0x11 PUSH1 0x20 MSTORE PUSH1 0x40 PUSH0 KECCAK256 PUSH2 0x2272 DUP4 DUP3 SLOAD PUSH2 0x38E8 JUMP JUMPDEST SWAP1 SSTORE PUSH1 0x3 SLOAD PUSH1 0x40 MLOAD PUSH4 0xA9059CBB PUSH1 0xE0 SHL DUP2 MSTORE CALLER PUSH1 0x4 DUP3 ADD MSTORE PUSH1 0x24 DUP2 ADD DUP5 SWAP1 MSTORE SWAP1 PUSH1 0x20 SWAP1 DUP3 SWAP1 PUSH1 0x8 SHR PUSH1 0x1 PUSH1 0x1 PUSH1 0xA0 SHL SUB AND DUP2 PUSH0 DUP2 PUSH1 0x44 DUP2 ADD SUB SWAP3 GAS CALL DUP1 ISZERO PUSH2 0x8DD JUMPI PUSH2 0x22C4 SWAP2 PUSH0 SWAP2 PUSH2 0x22F6 JUMPI POP PUSH2 0x3B9D JUMP JUMPDEST PUSH1 0x40 MLOAD SWAP2 DUP3 MSTORE PUSH32 0x4EC90E965519D92681267467F775ADA5BD214AA92C0DC93D90A5E880CE9ED026 PUSH1 0x20 CALLER SWAP4 LOG3 PUSH1 0x1 DUP1 SSTORE STOP JUMPDEST PUSH2 0x230F SWAP2 POP PUSH1 0x20 RETURNDATASIZE PUSH1 0x20 GT PUSH2 0x8D6 JUMPI PUSH2 0x8C8 DUP2 DUP4 PUSH2 0x35D7 JUMP JUMPDEST DUP5 PUSH2 0x8A2 JUMP JUMPDEST DUP3 PUSH2 0x2220 PUSH2 0x238A SWAP3 PUSH1 0xA PUSH2 0x2390 SWAP7 ADD DUP2 PUSH0 MSTORE DUP1 PUSH1 0x20 MSTORE PUSH2 0x2363 PUSH1 0x6 PUSH1 0x2 PUSH1 0x40 PUSH0 KECCAK256 ADD SLOAD SWAP6 ADD SLOAD DUP4 PUSH0 MSTORE DUP3 PUSH1 0x20 MSTORE PUSH8 0xDE0B6B3A7640000 PUSH2 0x235C PUSH1 0x4 PUSH1 0x40 PUSH0 KECCAK256 ADD SLOAD DUP9 PUSH2 0x3A60 JUMP JUMPDEST DIV SWAP1 PUSH2 0x38FF JUMP JUMPDEST SWAP2 PUSH0 MSTORE PUSH1 0x20 MSTORE PUSH8 0xDE0B6B3A7640000 PUSH2 0x2383 PUSH1 0x4 PUSH1 0x40 PUSH0 KECCAK256 ADD SLOAD DUP8 PUSH2 0x3A60 JUMP JUMPDEST DIV SWAP5 PUSH2 0x3A60 JUMP JUMPDEST SWAP1 PUSH2 0x38E8 JUMP JUMPDEST SWAP2 PUSH2 0x2227 JUMP JUMPDEST PUSH1 0x40 MLOAD PUSH3 0x461BCD PUSH1 0xE5 SHL DUP2 MSTORE PUSH1 0x20 PUSH1 0x4 DUP3 ADD MSTORE PUSH1 0x11 PUSH1 0x24 DUP3 ADD MSTORE PUSH17 0x4E6F2077696E6E696E6720736861726573 PUSH1 0x78 SHL PUSH1 0x44 DUP3 ADD MSTORE PUSH1 0x64 SWAP1 REVERT JUMPDEST PUSH1 0x40 MLOAD PUSH3 0x461BCD PUSH1 0xE5 SHL DUP2 MSTORE PUSH1 0x20 PUSH1 0x4 DUP3 ADD MSTORE PUSH1 0xF PUSH1 0x24 DUP3 ADD MSTORE PUSH15 0x105B1C9958591E4818DB185A5B5959 PUSH1 0x8A SHL PUSH1 0x44 DUP3 ADD MSTORE PUSH1 0x64 SWAP1 REVERT JUMPDEST PUSH1 0x40 MLOAD PUSH3 0x461BCD PUSH1 0xE5 SHL DUP2 MSTORE PUSH1 0x20 PUSH1 0x4 DUP3 ADD MSTORE PUSH1 0x1B PUSH1 0x24 DUP3 ADD MSTORE PUSH32 0x4D61726B6574206E6F7420726561647920666F7220636C61696D730000000000 PUSH1 0x44 DUP3 ADD MSTORE PUSH1 0x64 SWAP1 REVERT JUMPDEST PUSH1 0xFF SWAP2 POP PUSH1 0x8 SHR AND ISZERO DUP4 PUSH2 0x21A0 JUMP JUMPDEST CALLVALUE PUSH2 0x2AC JUMPI PUSH2 0x2468 CALLDATASIZE PUSH2 0x3523 JUMP JUMPDEST PUSH2 0x2475 PUSH1 0x4 SLOAD DUP4 LT PUSH2 0x38A4 JUMP JUMPDEST PUSH0 SLOAD PUSH1 0x1 PUSH1 0x1 PUSH1 0xA0 SHL SUB AND CALLER EQ DUP1 ISZERO PUSH2 0x25DA JUMPI JUMPDEST ISZERO PUSH2 0x258B JUMPI DUP2 PUSH0 MSTORE PUSH1 0x8 PUSH1 0x20 MSTORE PUSH1 0x40 PUSH0 KECCAK256 SWAP1 PUSH1 0x2 DUP3 ADD SLOAD TIMESTAMP LT PUSH2 0x2546 JUMPI PUSH1 0x5 DUP3 ADD SWAP1 DUP2 SLOAD SWAP2 PUSH2 0x24BB PUSH1 0xFF DUP5 AND ISZERO PUSH2 0x394B JUMP JUMPDEST PUSH1 0x9 DUP5 ADD SLOAD DUP3 LT ISZERO PUSH2 0x2508 JUMPI PUSH1 0x1 PUSH1 0x40 SWAP4 DUP4 PUSH1 0x4 PUSH32 0xC160A477581CB2155B1578581D805DCC0E6623403811FC2853465045BC0B0492 SWAP8 ADD SSTORE PUSH1 0xFF NOT AND OR SWAP1 SSTORE DUP2 MLOAD SWAP1 DUP2 MSTORE CALLER PUSH1 0x20 DUP3 ADD MSTORE LOG2 STOP JUMPDEST PUSH1 0x40 MLOAD PUSH3 0x461BCD PUSH1 0xE5 SHL DUP2 MSTORE PUSH1 0x20 PUSH1 0x4 DUP3 ADD MSTORE PUSH1 0x16 PUSH1 0x24 DUP3 ADD MSTORE PUSH22 0x24B73B30B634B2103BB4B73734B7339037B83A34B7B7 PUSH1 0x51 SHL PUSH1 0x44 DUP3 ADD MSTORE PUSH1 0x64 SWAP1 REVERT JUMPDEST PUSH1 0x40 MLOAD PUSH3 0x461BCD PUSH1 0xE5 SHL DUP2 MSTORE PUSH1 0x20 PUSH1 0x4 DUP3 ADD MSTORE PUSH1 0x18 PUSH1 0x24 DUP3 ADD MSTORE PUSH32 0x4D61726B657420686173206E6F7420656E646564207965740000000000000000 PUSH1 0x44 DUP3 ADD MSTORE PUSH1 0x64 SWAP1 REVERT JUMPDEST PUSH1 0x40 MLOAD PUSH3 0x461BCD PUSH1 0xE5 SHL DUP2 MSTORE PUSH1 0x20 PUSH1 0x4 DUP3 ADD MSTORE PUSH1 0x21 PUSH1 0x24 DUP3 ADD MSTORE PUSH32 0x4E6F7420617574686F72697A656420746F207265736F6C7665206D61726B6574 PUSH1 0x44 DUP3 ADD MSTORE PUSH1 0x73 PUSH1 0xF8 SHL PUSH1 0x64 DUP3 ADD MSTORE PUSH1 0x84 SWAP1 REVERT JUMPDEST POP CALLER PUSH0 SWAP1 DUP2 MSTORE PUSH32 0x8E2C297E756B2A427C5DC4607F639842A8EA6E0F6322302F4EA76306B642CFC2 PUSH1 0x20 MSTORE PUSH1 0x40 SWAP1 KECCAK256 SLOAD PUSH1 0xFF AND PUSH2 0x2489 JUMP JUMPDEST CALLVALUE PUSH2 0x2AC JUMPI PUSH0 CALLDATASIZE PUSH1 0x3 NOT ADD SLT PUSH2 0x2AC JUMPI PUSH1 0x20 PUSH1 0xFF PUSH1 0x3 SLOAD AND PUSH1 0x40 MLOAD SWAP1 ISZERO ISZERO DUP2 MSTORE RETURN JUMPDEST CALLVALUE PUSH2 0x2AC JUMPI PUSH2 0x2641 CALLDATASIZE PUSH2 0x364D JUMP JUMPDEST SWAP1 PUSH2 0x264A PUSH2 0x3FAE JUMP JUMPDEST PUSH2 0x2652 PUSH2 0x3FCE JUMP JUMPDEST PUSH2 0x265F PUSH1 0x4 SLOAD DUP6 LT PUSH2 0x38A4 JUMP JUMPDEST DUP4 PUSH0 MSTORE PUSH1 0x8 PUSH1 0x20 MSTORE PUSH2 0x2679 PUSH1 0x2 PUSH1 0x40 PUSH0 KECCAK256 ADD SLOAD TIMESTAMP LT PUSH2 0x390C JUMP JUMPDEST DUP4 PUSH0 MSTORE PUSH1 0x8 PUSH1 0x20 MSTORE PUSH2 0x2695 PUSH1 0xFF PUSH1 0x5 PUSH1 0x40 PUSH0 KECCAK256 ADD SLOAD AND ISZERO PUSH2 0x394B JUMP JUMPDEST DUP4 PUSH0 MSTORE PUSH1 0x8 PUSH1 0x20 MSTORE PUSH2 0x26AF PUSH1 0x9 PUSH1 0x40 PUSH0 KECCAK256 ADD SLOAD DUP5 LT PUSH2 0x3997 JUMP JUMPDEST DUP4 PUSH0 MSTORE PUSH1 0x8 PUSH1 0x20 MSTORE PUSH1 0xA PUSH1 0x40 PUSH0 KECCAK256 ADD DUP4 PUSH0 MSTORE PUSH1 0x20 MSTORE PUSH2 0x26D7 PUSH1 0xFF PUSH1 0x5 PUSH1 0x40 PUSH0 KECCAK256 ADD SLOAD AND PUSH2 0x39D4 JUMP JUMPDEST PUSH2 0x26E2 DUP2 ISZERO ISZERO PUSH2 0x3A14 JUMP JUMPDEST PUSH0 DUP5 DUP2 MSTORE PUSH1 0x8 PUSH1 0x20 SWAP1 DUP2 MSTORE PUSH1 0x40 DUP1 DUP4 KECCAK256 CALLER DUP5 MSTORE PUSH1 0xB ADD DUP3 MSTORE DUP1 DUP4 KECCAK256 DUP7 DUP5 MSTORE SWAP1 SWAP2 MSTORE SWAP1 KECCAK256 SLOAD DUP2 GT PUSH2 0x2AC8 JUMPI PUSH0 DUP5 DUP2 MSTORE PUSH1 0x8 PUSH1 0x20 SWAP1 DUP2 MSTORE PUSH1 0x40 DUP1 DUP4 KECCAK256 DUP7 DUP5 MSTORE PUSH1 0xA DUP2 ADD SWAP1 SWAP3 MSTORE SWAP1 SWAP2 KECCAK256 PUSH1 0x4 DUP2 ADD SLOAD SWAP1 SWAP5 SWAP2 SWAP3 SWAP2 SWAP1 SWAP4 DUP5 LT PUSH2 0x2A93 JUMPI PUSH8 0xDE0B6B3A7640000 PUSH2 0x274E DUP4 DUP7 PUSH2 0x3A60 JUMP JUMPDEST DIV SWAP5 PUSH2 0x2710 PUSH2 0x275F PUSH1 0x7 SLOAD DUP9 PUSH2 0x3A60 JUMP JUMPDEST DIV SWAP4 PUSH1 0xF PUSH2 0x276D DUP7 DUP10 PUSH2 0x38FF JUMP JUMPDEST SWAP2 PUSH1 0x1 DUP1 PUSH1 0xA0 SHL SUB CALLER AND PUSH0 MSTORE PUSH1 0xB DUP2 ADD PUSH1 0x20 MSTORE PUSH1 0x40 PUSH0 KECCAK256 DUP6 PUSH0 MSTORE PUSH1 0x20 MSTORE PUSH1 0x40 PUSH0 KECCAK256 PUSH2 0x2799 DUP8 DUP3 SLOAD PUSH2 0x38FF JUMP JUMPDEST SWAP1 SSTORE PUSH1 0x2 DUP5 ADD PUSH2 0x27AA DUP8 DUP3 SLOAD PUSH2 0x38FF JUMP JUMPDEST SWAP1 SSTORE PUSH1 0x3 DUP5 ADD PUSH2 0x27BB DUP11 DUP3 SLOAD PUSH2 0x38E8 JUMP JUMPDEST SWAP1 SSTORE PUSH1 0x7 DUP2 ADD PUSH2 0x27CC DUP11 DUP3 SLOAD PUSH2 0x38E8 JUMP JUMPDEST SWAP1 SSTORE ADD PUSH2 0x27DA DUP7 DUP3 SLOAD PUSH2 0x38E8 JUMP JUMPDEST SWAP1 SSTORE DUP8 PUSH0 MSTORE PUSH1 0x8 PUSH1 0x20 MSTORE PUSH1 0xA PUSH1 0x40 PUSH0 KECCAK256 ADD DUP4 PUSH0 MSTORE PUSH1 0x20 MSTORE PUSH1 0x40 PUSH0 KECCAK256 PUSH1 0x2 DUP2 ADD SLOAD SWAP1 PUSH8 0xDE0B6B3A7640000 DUP7 MUL SWAP2 DUP7 DUP4 DIV PUSH8 0xDE0B6B3A7640000 EQ DUP8 ISZERO OR ISZERO PUSH2 0x721 JUMPI PUSH2 0x3E8 DUP2 ADD DUP1 SWAP2 GT PUSH2 0x721 JUMPI PUSH2 0x2836 PUSH1 0x4 SWAP4 SWAP2 DUP5 SWAP3 PUSH2 0x38F5 JUMP JUMPDEST SWAP2 ADD SLOAD SWAP1 DUP1 DUP3 GT ISZERO PUSH2 0x2A89 JUMPI PUSH2 0x284B SWAP2 PUSH2 0x38FF JUMP JUMPDEST SWAP3 JUMPDEST ADD SWAP2 DUP3 SSTORE PUSH8 0xDE0B6B3A7640000 PUSH2 0x2864 DUP6 DUP9 PUSH2 0x3A60 JUMP JUMPDEST DIV SWAP1 PUSH0 DUP3 DUP3 SUB SWAP3 SLT DUP2 DUP4 SLT DUP2 AND SWAP1 DUP3 DUP5 SGT SWAP1 ISZERO AND OR PUSH2 0x721 JUMPI CALLER PUSH0 MSTORE PUSH1 0xA PUSH1 0x20 MSTORE PUSH1 0x3 PUSH1 0x40 PUSH0 KECCAK256 ADD DUP1 SLOAD PUSH0 DUP5 DUP3 ADD SWAP5 DUP6 SLT SWAP2 SLT SWAP1 DUP1 ISZERO DUP3 AND SWAP2 ISZERO AND OR PUSH2 0x721 JUMPI PUSH0 SWAP9 PUSH1 0x20 SWAP5 PUSH2 0x299E SWAP5 PUSH2 0x2901 SWAP4 SSTORE CALLER DUP12 MSTORE PUSH1 0xA DUP7 MSTORE PUSH1 0x4 PUSH1 0x40 DUP13 KECCAK256 ADD PUSH2 0x28CA DUP2 SLOAD PUSH2 0x3A73 JUMP JUMPDEST SWAP1 SSTORE DUP12 DUP12 MSTORE PUSH1 0xD DUP7 MSTORE PUSH1 0x40 DUP12 KECCAK256 DUP8 DUP13 MSTORE DUP7 MSTORE PUSH1 0x40 DUP12 KECCAK256 SWAP1 SLOAD SWAP2 PUSH1 0x40 MLOAD SWAP3 PUSH2 0x28F0 DUP5 PUSH2 0x35A0 JUMP JUMPDEST DUP4 MSTORE TIMESTAMP DUP8 DUP5 ADD MSTORE PUSH1 0x40 DUP4 ADD MSTORE PUSH2 0x3A81 JUMP JUMPDEST PUSH2 0x2960 PUSH1 0x40 MLOAD PUSH2 0x2910 DUP2 PUSH2 0x35BB JUMP JUMPDEST DUP11 DUP2 MSTORE DUP6 DUP6 DUP3 ADD MSTORE DUP10 PUSH1 0x40 DUP3 ADD MSTORE CALLER PUSH1 0x60 DUP3 ADD MSTORE DUP9 PUSH1 0x80 DUP3 ADD MSTORE DUP7 PUSH1 0xA0 DUP3 ADD MSTORE TIMESTAMP PUSH1 0xC0 DUP3 ADD MSTORE DUP10 PUSH1 0xE0 DUP3 ADD MSTORE CALLER DUP11 MSTORE PUSH1 0xB DUP6 MSTORE PUSH2 0x2950 DUP2 PUSH1 0x40 DUP13 KECCAK256 PUSH2 0x3AD2 JUMP JUMPDEST DUP11 DUP11 MSTORE PUSH1 0xC DUP6 MSTORE PUSH1 0x40 DUP11 KECCAK256 PUSH2 0x3AD2 JUMP JUMPDEST PUSH1 0x3 SLOAD PUSH1 0x40 MLOAD PUSH4 0xA9059CBB PUSH1 0xE0 SHL DUP2 MSTORE CALLER PUSH1 0x4 DUP3 ADD MSTORE PUSH1 0x24 DUP2 ADD SWAP3 SWAP1 SWAP3 MSTORE SWAP1 SWAP8 DUP9 SWAP3 PUSH1 0x8 SWAP3 SWAP1 SWAP3 SHR PUSH1 0x1 PUSH1 0x1 PUSH1 0xA0 SHL SUB AND SWAP2 DUP4 SWAP2 SWAP1 DUP3 SWAP1 PUSH1 0x44 DUP3 ADD SWAP1 JUMP JUMPDEST SUB SWAP3 GAS CALL SWAP5 DUP6 ISZERO PUSH2 0x8DD JUMPI PUSH32 0x976184626638B6C7E51A4AB66B297BEB1714B545CE4E867A70D622566573098C PUSH1 0x20 SWAP6 PUSH0 SWAP5 PUSH2 0x2A02 PUSH32 0xAF7C505EE772EC188AF7067E1F73DB08AB028E3D564273442B907742B9C41FA0 SWAP10 DUP12 SWAP6 DUP9 SWAP2 PUSH2 0x2A6C JUMPI POP PUSH2 0x3B9D JUMP JUMPDEST PUSH1 0x40 MLOAD DUP2 DUP2 MSTORE DUP3 DUP10 DUP3 ADD MSTORE DUP6 DUP6 PUSH32 0x33C49DA1FF633FF516CC2661D0CD94AF11B7B76985B6FE549151782C14DB745A PUSH1 0x40 CALLER SWAP5 LOG4 PUSH1 0x6 SLOAD SWAP1 PUSH2 0x2A42 DUP3 PUSH2 0x3A73 JUMP JUMPDEST PUSH1 0x6 SSTORE PUSH1 0x40 DUP1 MLOAD CALLER DUP2 MSTORE DUP11 DUP2 ADD SWAP5 SWAP1 SWAP5 MSTORE DUP4 ADD MSTORE PUSH1 0x60 DUP3 ADD MSTORE PUSH1 0x80 SWAP1 LOG4 PUSH1 0x40 MLOAD SWAP1 DUP2 MSTORE LOG2 PUSH1 0x1 DUP1 SSTORE STOP JUMPDEST PUSH2 0x2A83 SWAP2 POP DUP11 RETURNDATASIZE DUP13 GT PUSH2 0x8D6 JUMPI PUSH2 0x8C8 DUP2 DUP4 PUSH2 0x35D7 JUMP JUMPDEST DUP13 PUSH2 0x8A2 JUMP JUMPDEST POP PUSH1 0x1 SHR SWAP3 PUSH2 0x284D JUMP JUMPDEST PUSH1 0x40 MLOAD PUSH3 0x461BCD PUSH1 0xE5 SHL DUP2 MSTORE PUSH1 0x20 PUSH1 0x4 DUP3 ADD MSTORE PUSH1 0xD PUSH1 0x24 DUP3 ADD MSTORE PUSH13 0x507269636520746F6F206C6F77 PUSH1 0x98 SHL PUSH1 0x44 DUP3 ADD MSTORE PUSH1 0x64 SWAP1 REVERT JUMPDEST PUSH1 0x40 MLOAD PUSH3 0x461BCD PUSH1 0xE5 SHL DUP2 MSTORE PUSH1 0x20 PUSH1 0x4 DUP3 ADD MSTORE PUSH1 0x13 PUSH1 0x24 DUP3 ADD MSTORE PUSH19 0x496E73756666696369656E7420736861726573 PUSH1 0x68 SHL PUSH1 0x44 DUP3 ADD MSTORE PUSH1 0x64 SWAP1 REVERT JUMPDEST CALLVALUE PUSH2 0x2AC JUMPI PUSH1 0x20 CALLDATASIZE PUSH1 0x3 NOT ADD SLT PUSH2 0x2AC JUMPI PUSH1 0x4 CALLDATALOAD PUSH0 PUSH1 0xA0 PUSH1 0x40 MLOAD PUSH2 0x2B26 DUP2 PUSH2 0x3585 JUMP JUMPDEST DUP3 DUP2 MSTORE DUP3 PUSH1 0x20 DUP3 ADD MSTORE DUP3 PUSH1 0x40 DUP3 ADD MSTORE DUP3 PUSH1 0x60 DUP3 ADD MSTORE DUP3 PUSH1 0x80 DUP3 ADD MSTORE ADD MSTORE PUSH2 0x2B50 PUSH1 0x4 SLOAD DUP3 LT PUSH2 0x38A4 JUMP JUMPDEST DUP1 PUSH0 MSTORE PUSH1 0x8 PUSH1 0x20 MSTORE PUSH1 0x40 PUSH0 KECCAK256 PUSH0 DUP1 PUSH1 0x9 DUP4 ADD SLOAD SWAP2 PUSH1 0xA DUP5 ADD JUMPDEST DUP4 DUP3 LT PUSH2 0x2C76 JUMPI POP POP SWAP1 PUSH2 0x2B7C SWAP2 PUSH2 0x38F5 JUMP JUMPDEST PUSH1 0xD PUSH1 0x7 DUP4 ADD SLOAD SWAP3 ADD SLOAD DUP4 PUSH0 MSTORE PUSH1 0xC PUSH1 0x20 MSTORE PUSH1 0x40 PUSH0 KECCAK256 SLOAD ISZERO ISZERO PUSH0 EQ PUSH2 0x2C6F JUMPI PUSH0 DUP5 DUP2 MSTORE PUSH1 0xC PUSH1 0x20 MSTORE PUSH1 0x40 SWAP1 KECCAK256 DUP1 SLOAD PUSH0 NOT DUP2 ADD SWAP2 SWAP1 DUP3 GT PUSH2 0x721 JUMPI PUSH1 0x4 SWAP2 PUSH2 0x2BC2 SWAP2 PUSH2 0x349A JUMP JUMPDEST POP ADD SLOAD SWAP1 JUMPDEST PUSH0 DUP6 DUP2 MSTORE PUSH1 0xC PUSH1 0x20 MSTORE PUSH1 0x40 SWAP1 KECCAK256 SLOAD ISZERO PUSH2 0x2C64 JUMPI PUSH0 SWAP5 DUP6 MSTORE PUSH1 0xC PUSH1 0x20 MSTORE PUSH1 0x40 SWAP1 SWAP5 KECCAK256 DUP1 SLOAD SWAP1 SWAP5 SWAP1 PUSH0 NOT DUP2 ADD SWAP1 DUP2 GT PUSH2 0x721 JUMPI PUSH2 0x2C06 PUSH1 0x6 SWAP2 PUSH1 0xC0 SWAP8 PUSH2 0x349A JUMP JUMPDEST POP ADD SLOAD SWAP3 JUMPDEST PUSH1 0x40 MLOAD SWAP2 PUSH2 0x2C18 DUP4 PUSH2 0x3585 JUMP JUMPDEST DUP6 DUP4 MSTORE PUSH1 0x20 DUP4 ADD SWAP1 DUP2 MSTORE PUSH1 0x40 DUP4 ADD SWAP2 DUP3 MSTORE PUSH1 0xA0 PUSH1 0x60 DUP5 ADD SWAP4 PUSH0 DUP6 MSTORE PUSH1 0x80 DUP2 ADD SWAP6 DUP7 MSTORE ADD SWAP5 DUP6 MSTORE PUSH1 0x40 MLOAD SWAP6 DUP7 MSTORE MLOAD PUSH1 0x20 DUP7 ADD MSTORE MLOAD PUSH1 0x40 DUP6 ADD MSTORE MLOAD PUSH1 0x60 DUP5 ADD MSTORE MLOAD PUSH1 0x80 DUP4 ADD MSTORE MLOAD PUSH1 0xA0 DUP3 ADD MSTORE RETURN JUMPDEST PUSH1 0xC0 SWAP5 POP PUSH0 SWAP3 PUSH2 0x2C0B JUMP JUMPDEST PUSH0 SWAP1 PUSH2 0x2BC7 JUMP JUMPDEST SWAP1 SWAP2 PUSH2 0x2C93 PUSH1 0x1 SWAP2 DUP5 PUSH0 MSTORE DUP4 PUSH1 0x20 MSTORE PUSH1 0x4 PUSH1 0x40 PUSH0 KECCAK256 ADD SLOAD SWAP1 PUSH2 0x38E8 JUMP JUMPDEST SWAP3 ADD SWAP1 PUSH2 0x2B69 JUMP JUMPDEST CALLVALUE PUSH2 0x2AC JUMPI PUSH1 0x40 CALLDATASIZE PUSH1 0x3 NOT ADD SLT PUSH2 0x2AC JUMPI PUSH1 0x4 CALLDATALOAD PUSH1 0x24 CALLDATALOAD PUSH1 0x1 PUSH1 0x1 PUSH1 0x40 SHL SUB DUP2 GT PUSH2 0x2AC JUMPI PUSH2 0x2CCE SWAP1 CALLDATASIZE SWAP1 PUSH1 0x4 ADD PUSH2 0x35F8 JUMP JUMPDEST PUSH2 0x2CDB PUSH1 0x4 SLOAD DUP4 LT PUSH2 0x38A4 JUMP JUMPDEST DUP2 PUSH0 MSTORE PUSH1 0x8 PUSH1 0x20 MSTORE PUSH1 0xFF PUSH1 0x5 PUSH1 0x40 PUSH0 KECCAK256 ADD SLOAD AND ISZERO PUSH2 0x2E25 JUMPI DUP2 PUSH0 MSTORE PUSH1 0x8 PUSH1 0x20 MSTORE PUSH1 0xFF PUSH1 0x5 PUSH1 0x40 PUSH0 KECCAK256 ADD SLOAD PUSH1 0x8 SHR AND PUSH2 0x2DE0 JUMPI PUSH0 DUP3 DUP2 MSTORE PUSH1 0x8 PUSH1 0x20 SWAP1 DUP2 MSTORE PUSH1 0x40 DUP1 DUP4 KECCAK256 CALLER DUP5 MSTORE PUSH1 0xB DUP2 ADD DUP4 MSTORE DUP2 DUP5 KECCAK256 PUSH1 0x4 SWAP1 SWAP2 ADD SLOAD DUP5 MSTORE SWAP1 SWAP2 MSTORE SWAP1 KECCAK256 SLOAD PUSH2 0x2D9B JUMPI PUSH2 0x2D96 PUSH32 0xF20590B2CB9AF0BB070AD77DE2C0B74DB291DD43666E7A386FFB0E65974B050A SWAP2 DUP4 PUSH0 MSTORE PUSH1 0x8 PUSH1 0x20 MSTORE PUSH1 0x5 PUSH1 0x40 PUSH0 KECCAK256 ADD PUSH2 0x100 PUSH2 0xFF00 NOT DUP3 SLOAD AND OR SWAP1 SSTORE PUSH1 0x40 MLOAD SWAP2 DUP3 SWAP2 CALLER DUP4 MSTORE PUSH1 0x40 PUSH1 0x20 DUP5 ADD MSTORE PUSH1 0x40 DUP4 ADD SWAP1 PUSH2 0x3539 JUMP JUMPDEST SUB SWAP1 LOG2 STOP JUMPDEST PUSH1 0x40 MLOAD PUSH3 0x461BCD PUSH1 0xE5 SHL DUP2 MSTORE PUSH1 0x20 PUSH1 0x4 DUP3 ADD MSTORE PUSH1 0x19 PUSH1 0x24 DUP3 ADD MSTORE PUSH32 0x43616E6E6F74206469737075746520696620796F7520776F6E00000000000000 PUSH1 0x44 DUP3 ADD MSTORE PUSH1 0x64 SWAP1 REVERT JUMPDEST PUSH1 0x40 MLOAD PUSH3 0x461BCD PUSH1 0xE5 SHL DUP2 MSTORE PUSH1 0x20 PUSH1 0x4 DUP3 ADD MSTORE PUSH1 0x17 PUSH1 0x24 DUP3 ADD MSTORE PUSH32 0x4D61726B657420616C7265616479206469737075746564000000000000000000 PUSH1 0x44 DUP3 ADD MSTORE PUSH1 0x64 SWAP1 REVERT JUMPDEST PUSH1 0x40 MLOAD PUSH3 0x461BCD PUSH1 0xE5 SHL DUP2 MSTORE PUSH1 0x20 PUSH1 0x4 DUP3 ADD MSTORE PUSH1 0x17 PUSH1 0x24 DUP3 ADD MSTORE PUSH32 0x4D61726B6574206E6F74207265736F6C76656420796574000000000000000000 PUSH1 0x44 DUP3 ADD MSTORE PUSH1 0x64 SWAP1 REVERT JUMPDEST CALLVALUE PUSH2 0x2AC JUMPI PUSH0 CALLDATASIZE PUSH1 0x3 NOT ADD SLT PUSH2 0x2AC JUMPI PUSH1 0x3 SLOAD PUSH1 0x40 MLOAD PUSH1 0x8 SWAP2 SWAP1 SWAP2 SHR PUSH1 0x1 PUSH1 0x1 PUSH1 0xA0 SHL SUB AND DUP2 MSTORE PUSH1 0x20 SWAP1 RETURN JUMPDEST CALLVALUE PUSH2 0x2AC JUMPI PUSH0 CALLDATASIZE PUSH1 0x3 NOT ADD SLT PUSH2 0x2AC JUMPI PUSH2 0x2EAE PUSH2 0x3F04 JUMP JUMPDEST PUSH1 0x3 SLOAD PUSH1 0xFF DUP2 AND ISZERO PUSH2 0x2EED JUMPI PUSH1 0xFF NOT AND PUSH1 0x3 SSTORE PUSH32 0x5DB9EE0A495BF2E6FF9C91A7834C1BA4FDD244A5E8AA4E537BD38AEAE4B073AA PUSH1 0x20 PUSH1 0x40 MLOAD CALLER DUP2 MSTORE LOG1 STOP JUMPDEST PUSH4 0x8DFC202B PUSH1 0xE0 SHL PUSH0 MSTORE PUSH1 0x4 PUSH0 REVERT JUMPDEST CALLVALUE PUSH2 0x2AC JUMPI PUSH1 0x20 CALLDATASIZE PUSH1 0x3 NOT ADD SLT PUSH2 0x2AC JUMPI PUSH1 0x4 CALLDATALOAD PUSH2 0x2F1D PUSH1 0x4 SLOAD DUP3 LT PUSH2 0x38A4 JUMP JUMPDEST PUSH0 MSTORE PUSH1 0x8 PUSH1 0x20 MSTORE PUSH2 0x2F7B PUSH1 0x40 PUSH0 KECCAK256 PUSH1 0x2 DUP2 ADD SLOAD PUSH1 0xFF PUSH1 0x3 DUP4 ADD SLOAD AND PUSH1 0x9 DUP4 ADD SLOAD SWAP1 PUSH1 0x5 DUP5 ADD SLOAD SWAP2 PUSH2 0x2F99 PUSH1 0x4 DUP7 ADD SLOAD SWAP3 PUSH2 0x2F89 PUSH2 0x2F65 PUSH1 0x1 PUSH2 0x2F5E DUP11 PUSH2 0x3745 JUMP JUMPDEST SWAP10 ADD PUSH2 0x3745 JUMP JUMPDEST PUSH1 0x40 MLOAD SWAP10 DUP11 SWAP10 PUSH2 0x120 DUP12 MSTORE PUSH2 0x120 DUP12 ADD SWAP1 PUSH2 0x3539 JUMP JUMPDEST SWAP1 DUP10 DUP3 SUB PUSH1 0x20 DUP12 ADD MSTORE PUSH2 0x3539 JUMP JUMPDEST SWAP6 PUSH1 0x40 DUP9 ADD MSTORE PUSH1 0x60 DUP8 ADD SWAP1 PUSH2 0x355D JUMP JUMPDEST PUSH1 0x80 DUP6 ADD MSTORE PUSH1 0xFF DUP3 DUP2 AND ISZERO ISZERO PUSH1 0xA0 DUP7 ADD MSTORE PUSH1 0x8 DUP4 SWAP1 SHR AND ISZERO ISZERO PUSH1 0xC0 DUP6 ADD MSTORE PUSH1 0xE0 DUP5 ADD MSTORE PUSH1 0x18 SHR PUSH1 0x1 PUSH1 0x1 PUSH1 0xA0 SHL SUB AND PUSH2 0x100 DUP4 ADD MSTORE SUB SWAP1 RETURN JUMPDEST CALLVALUE PUSH2 0x2AC JUMPI PUSH1 0x40 CALLDATASIZE PUSH1 0x3 NOT ADD SLT PUSH2 0x2AC JUMPI PUSH2 0x2FEB PUSH2 0x3484 JUMP JUMPDEST CALLER PUSH1 0x1 PUSH1 0x1 PUSH1 0xA0 SHL SUB DUP3 AND SUB PUSH2 0x3007 JUMPI PUSH2 0x99D SWAP1 PUSH1 0x4 CALLDATALOAD PUSH2 0x3F2A JUMP JUMPDEST PUSH4 0x334BD919 PUSH1 0xE1 SHL PUSH0 MSTORE PUSH1 0x4 PUSH0 REVERT JUMPDEST CALLVALUE PUSH2 0x2AC JUMPI PUSH1 0x20 CALLDATASIZE PUSH1 0x3 NOT ADD SLT PUSH2 0x2AC JUMPI PUSH2 0x99D PUSH2 0x3032 PUSH2 0x346E JUMP JUMPDEST PUSH2 0x303A PUSH2 0x3F04 JUMP JUMPDEST PUSH32 0xDCEE1D35C83A32B436264A5C9AFD68685C124F3F9097E87804C55410E67FC59A PUSH0 MSTORE PUSH1 0x2 PUSH1 0x20 MSTORE PUSH32 0x8E2C297E756B2A427C5DC4607F639842A8EA6E0F6322302F4EA76306B642CFC3 SLOAD PUSH2 0x308D SWAP1 PUSH2 0x3C21 JUMP JUMPDEST PUSH2 0x3C5B JUMP JUMPDEST CALLVALUE PUSH2 0x2AC JUMPI PUSH0 CALLDATASIZE PUSH1 0x3 NOT ADD SLT PUSH2 0x2AC JUMPI PUSH1 0x20 PUSH1 0x40 MLOAD PUSH32 0xD486618B282CB35034D59C30C062B5B3822D6CDF87EC459191CE7F5B7B8A4873 DUP2 MSTORE RETURN JUMPDEST CALLVALUE PUSH2 0x2AC JUMPI PUSH1 0x40 CALLDATASIZE PUSH1 0x3 NOT ADD SLT PUSH2 0x2AC JUMPI PUSH2 0x99D PUSH1 0x4 CALLDATALOAD PUSH2 0x30EB PUSH2 0x3484 JUMP JUMPDEST SWAP1 PUSH2 0x3105 PUSH2 0x993 DUP3 PUSH0 MSTORE PUSH1 0x2 PUSH1 0x20 MSTORE PUSH1 0x1 PUSH1 0x40 PUSH0 KECCAK256 ADD SLOAD SWAP1 JUMP JUMPDEST PUSH2 0x3E8B JUMP JUMPDEST CALLVALUE PUSH2 0x2AC JUMPI PUSH2 0x3118 CALLDATASIZE PUSH2 0x3523 JUMP JUMPDEST SWAP1 PUSH0 MSTORE PUSH1 0xE PUSH1 0x20 MSTORE PUSH1 0x40 PUSH0 KECCAK256 DUP1 SLOAD DUP3 LT ISZERO PUSH2 0x2AC JUMPI PUSH1 0x20 SWAP2 PUSH2 0x18AC SWAP2 PUSH2 0x3459 JUMP JUMPDEST CALLVALUE PUSH2 0x2AC JUMPI PUSH1 0x20 CALLDATASIZE PUSH1 0x3 NOT ADD SLT PUSH2 0x2AC JUMPI PUSH1 0x20 PUSH2 0x1580 PUSH1 0x4 CALLDATALOAD PUSH0 MSTORE PUSH1 0x2 PUSH1 0x20 MSTORE PUSH1 0x1 PUSH1 0x40 PUSH0 KECCAK256 ADD SLOAD SWAP1 JUMP JUMPDEST CALLVALUE PUSH2 0x2AC JUMPI PUSH0 CALLDATASIZE PUSH1 0x3 NOT ADD SLT PUSH2 0x2AC JUMPI PUSH1 0x20 PUSH1 0x5 SLOAD PUSH1 0x40 MLOAD SWAP1 DUP2 MSTORE RETURN JUMPDEST CALLVALUE PUSH2 0x2AC JUMPI PUSH2 0x318F CALLDATASIZE PUSH2 0x3523 JUMP JUMPDEST SWAP1 PUSH2 0x319D PUSH1 0x4 SLOAD DUP3 LT PUSH2 0x38A4 JUMP JUMPDEST PUSH0 MSTORE PUSH1 0x8 PUSH1 0x20 MSTORE PUSH1 0xA PUSH1 0x40 PUSH0 KECCAK256 ADD SWAP1 PUSH0 MSTORE PUSH1 0x20 MSTORE PUSH2 0x31FC PUSH1 0x40 PUSH0 KECCAK256 PUSH1 0x2 DUP2 ADD SLOAD PUSH1 0x3 DUP3 ADD SLOAD PUSH1 0x4 DUP4 ADD SLOAD PUSH1 0xFF PUSH1 0x5 DUP6 ADD SLOAD AND SWAP2 PUSH2 0x320A PUSH2 0x31E8 PUSH1 0x1 PUSH2 0x31E1 DUP9 PUSH2 0x3745 JUMP JUMPDEST SWAP8 ADD PUSH2 0x3745 JUMP JUMPDEST PUSH1 0x40 MLOAD SWAP8 DUP9 SWAP8 PUSH1 0xC0 DUP10 MSTORE PUSH1 0xC0 DUP10 ADD SWAP1 PUSH2 0x3539 JUMP JUMPDEST SWAP1 DUP8 DUP3 SUB PUSH1 0x20 DUP10 ADD MSTORE PUSH2 0x3539 JUMP JUMPDEST SWAP4 PUSH1 0x40 DUP7 ADD MSTORE PUSH1 0x60 DUP6 ADD MSTORE PUSH1 0x80 DUP5 ADD MSTORE ISZERO ISZERO PUSH1 0xA0 DUP4 ADD MSTORE SUB SWAP1 RETURN JUMPDEST CALLVALUE PUSH2 0x2AC JUMPI PUSH1 0x20 CALLDATASIZE PUSH1 0x3 NOT ADD SLT PUSH2 0x2AC JUMPI PUSH2 0x323E PUSH2 0x346E JUMP JUMPDEST PUSH2 0x3246 PUSH2 0x387A JUMP JUMPDEST POP PUSH1 0x1 DUP1 PUSH1 0xA0 SHL SUB AND PUSH0 MSTORE PUSH1 0xA PUSH1 0x20 MSTORE PUSH1 0xA0 PUSH1 0x40 PUSH0 KECCAK256 PUSH1 0x40 MLOAD PUSH2 0x3268 DUP2 PUSH2 0x356A JUMP JUMPDEST DUP2 SLOAD SWAP2 DUP3 DUP3 MSTORE PUSH1 0x1 DUP2 ADD SLOAD PUSH1 0x20 DUP4 ADD SWAP1 DUP2 MSTORE PUSH1 0x2 DUP3 ADD SLOAD SWAP1 PUSH1 0x40 DUP5 ADD SWAP2 DUP3 MSTORE PUSH1 0x80 PUSH1 0x4 PUSH1 0x3 DUP6 ADD SLOAD SWAP5 PUSH1 0x60 DUP8 ADD SWAP6 DUP7 MSTORE ADD SLOAD SWAP5 ADD SWAP4 DUP5 MSTORE PUSH1 0x40 MLOAD SWAP5 DUP6 MSTORE MLOAD PUSH1 0x20 DUP6 ADD MSTORE MLOAD PUSH1 0x40 DUP5 ADD MSTORE MLOAD PUSH1 0x60 DUP4 ADD MSTORE MLOAD PUSH1 0x80 DUP3 ADD MSTORE RETURN JUMPDEST CALLVALUE PUSH2 0x2AC JUMPI PUSH2 0x32CD CALLDATASIZE PUSH2 0x3523 JUMP JUMPDEST SWAP1 PUSH0 MSTORE PUSH1 0xC PUSH1 0x20 MSTORE PUSH1 0x40 PUSH0 KECCAK256 SWAP1 DUP2 SLOAD DUP2 LT ISZERO PUSH2 0x2AC JUMPI PUSH2 0x32EC SWAP2 PUSH2 0x349A JUMP JUMPDEST POP DUP1 SLOAD PUSH2 0x148B PUSH1 0x1 DUP4 ADD SLOAD SWAP3 PUSH1 0x1 DUP1 PUSH1 0xA0 SHL SUB PUSH1 0x2 DUP3 ADD SLOAD AND SWAP1 PUSH1 0x1 DUP1 PUSH1 0xA0 SHL SUB PUSH1 0x3 DUP3 ADD SLOAD AND PUSH1 0x4 DUP3 ADD SLOAD PUSH1 0x5 DUP4 ADD SLOAD SWAP2 PUSH1 0xFF PUSH1 0x7 PUSH1 0x6 DUP7 ADD SLOAD SWAP6 ADD SLOAD AND SWAP5 PUSH1 0x40 MLOAD SWAP9 DUP10 SWAP9 DUP10 PUSH2 0x34D1 JUMP JUMPDEST CALLVALUE PUSH2 0x2AC JUMPI PUSH0 CALLDATASIZE PUSH1 0x3 NOT ADD SLT PUSH2 0x2AC JUMPI PUSH1 0x20 PUSH1 0x40 MLOAD PUSH1 0xA DUP2 MSTORE RETURN JUMPDEST CALLVALUE PUSH2 0x2AC JUMPI PUSH1 0x40 CALLDATASIZE PUSH1 0x3 NOT ADD SLT PUSH2 0x2AC JUMPI PUSH2 0x336C PUSH2 0x346E JUMP JUMPDEST PUSH1 0x1 PUSH1 0x1 PUSH1 0xA0 SHL SUB AND PUSH0 SWAP1 DUP2 MSTORE PUSH1 0xB PUSH1 0x20 MSTORE PUSH1 0x40 SWAP1 KECCAK256 DUP1 SLOAD PUSH1 0x24 CALLDATALOAD SWAP1 DUP2 LT ISZERO PUSH2 0x2AC JUMPI PUSH2 0x32EC SWAP2 PUSH2 0x349A JUMP JUMPDEST CALLVALUE PUSH2 0x2AC JUMPI PUSH1 0x20 CALLDATASIZE PUSH1 0x3 NOT ADD SLT PUSH2 0x2AC JUMPI PUSH1 0x4 CALLDATALOAD PUSH1 0x12 SLOAD DUP2 LT ISZERO PUSH2 0x2AC JUMPI PUSH2 0x33C1 PUSH1 0x20 SWAP2 PUSH2 0x342D JUMP JUMPDEST SWAP1 SLOAD PUSH1 0x40 MLOAD PUSH1 0x3 SWAP3 SWAP1 SWAP3 SHL SHR PUSH1 0x1 PUSH1 0x1 PUSH1 0xA0 SHL SUB AND DUP2 MSTORE RETURN JUMPDEST CALLVALUE PUSH2 0x2AC JUMPI PUSH1 0x20 CALLDATASIZE PUSH1 0x3 NOT ADD SLT PUSH2 0x2AC JUMPI PUSH1 0x4 CALLDATALOAD SWAP1 PUSH4 0xFFFFFFFF PUSH1 0xE0 SHL DUP3 AND DUP1 SWAP3 SUB PUSH2 0x2AC JUMPI PUSH1 0x20 SWAP2 PUSH4 0x7965DB0B PUSH1 0xE0 SHL DUP2 EQ SWAP1 DUP2 ISZERO PUSH2 0x341C JUMPI JUMPDEST POP ISZERO ISZERO DUP2 MSTORE RETURN JUMPDEST PUSH4 0x1FFC9A7 PUSH1 0xE0 SHL EQ SWAP1 POP DUP4 PUSH2 0x3415 JUMP JUMPDEST PUSH1 0x12 SLOAD DUP2 LT ISZERO PUSH2 0x3445 JUMPI PUSH1 0x12 PUSH0 MSTORE PUSH1 0x20 PUSH0 KECCAK256 ADD SWAP1 PUSH0 SWAP1 JUMP JUMPDEST PUSH4 0x4E487B71 PUSH1 0xE0 SHL PUSH0 MSTORE PUSH1 0x32 PUSH1 0x4 MSTORE PUSH1 0x24 PUSH0 REVERT JUMPDEST DUP1 SLOAD DUP3 LT ISZERO PUSH2 0x3445 JUMPI PUSH0 MSTORE PUSH1 0x20 PUSH0 KECCAK256 ADD SWAP1 PUSH0 SWAP1 JUMP JUMPDEST PUSH1 0x4 CALLDATALOAD SWAP1 PUSH1 0x1 PUSH1 0x1 PUSH1 0xA0 SHL SUB DUP3 AND DUP3 SUB PUSH2 0x2AC JUMPI JUMP JUMPDEST PUSH1 0x24 CALLDATALOAD SWAP1 PUSH1 0x1 PUSH1 0x1 PUSH1 0xA0 SHL SUB DUP3 AND DUP3 SUB PUSH2 0x2AC JUMPI JUMP JUMPDEST DUP1 SLOAD DUP3 LT ISZERO PUSH2 0x3445 JUMPI PUSH0 MSTORE PUSH1 0x20 PUSH0 KECCAK256 SWAP1 PUSH1 0x3 SHL ADD SWAP1 PUSH0 SWAP1 JUMP JUMPDEST PUSH1 0x2 GT ISZERO PUSH2 0x34BD JUMPI JUMP JUMPDEST PUSH4 0x4E487B71 PUSH1 0xE0 SHL PUSH0 MSTORE PUSH1 0x21 PUSH1 0x4 MSTORE PUSH1 0x24 PUSH0 REVERT JUMPDEST SWAP1 DUP2 MSTORE PUSH1 0x20 DUP2 ADD SWAP2 SWAP1 SWAP2 MSTORE PUSH1 0x1 PUSH1 0x1 PUSH1 0xA0 SHL SUB SWAP2 DUP3 AND PUSH1 0x40 DUP3 ADD MSTORE SWAP2 AND PUSH1 0x60 DUP3 ADD MSTORE PUSH1 0x80 DUP2 ADD SWAP2 SWAP1 SWAP2 MSTORE PUSH1 0xA0 DUP2 ADD SWAP2 SWAP1 SWAP2 MSTORE PUSH1 0xC0 DUP2 ADD SWAP2 SWAP1 SWAP2 MSTORE PUSH2 0x100 DUP2 ADD SWAP3 SWAP2 SWAP1 PUSH1 0xE0 SWAP1 PUSH2 0x351F DUP4 PUSH2 0x34B3 JUMP JUMPDEST ADD MSTORE JUMP JUMPDEST PUSH1 0x40 SWAP1 PUSH1 0x3 NOT ADD SLT PUSH2 0x2AC JUMPI PUSH1 0x4 CALLDATALOAD SWAP1 PUSH1 0x24 CALLDATALOAD SWAP1 JUMP JUMPDEST DUP1 MLOAD DUP1 DUP4 MSTORE PUSH1 0x20 SWAP3 SWAP2 DUP2 SWAP1 DUP5 ADD DUP5 DUP5 ADD MCOPY PUSH0 DUP3 DUP3 ADD DUP5 ADD MSTORE PUSH1 0x1F ADD PUSH1 0x1F NOT AND ADD ADD SWAP1 JUMP JUMPDEST SWAP1 PUSH1 0xA DUP3 LT ISZERO PUSH2 0x34BD JUMPI MSTORE JUMP JUMPDEST PUSH1 0xA0 DUP2 ADD SWAP1 DUP2 LT PUSH1 0x1 PUSH1 0x1 PUSH1 0x40 SHL SUB DUP3 GT OR PUSH2 0x7C7 JUMPI PUSH1 0x40 MSTORE JUMP JUMPDEST PUSH1 0xC0 DUP2 ADD SWAP1 DUP2 LT PUSH1 0x1 PUSH1 0x1 PUSH1 0x40 SHL SUB DUP3 GT OR PUSH2 0x7C7 JUMPI PUSH1 0x40 MSTORE JUMP JUMPDEST PUSH1 0x60 DUP2 ADD SWAP1 DUP2 LT PUSH1 0x1 PUSH1 0x1 PUSH1 0x40 SHL SUB DUP3 GT OR PUSH2 0x7C7 JUMPI PUSH1 0x40 MSTORE JUMP JUMPDEST PUSH2 0x100 DUP2 ADD SWAP1 DUP2 LT PUSH1 0x1 PUSH1 0x1 PUSH1 0x40 SHL SUB DUP3 GT OR PUSH2 0x7C7 JUMPI PUSH1 0x40 MSTORE JUMP JUMPDEST SWAP1 PUSH1 0x1F DUP1 NOT SWAP2 ADD AND DUP2 ADD SWAP1 DUP2 LT PUSH1 0x1 PUSH1 0x1 PUSH1 0x40 SHL SUB DUP3 GT OR PUSH2 0x7C7 JUMPI PUSH1 0x40 MSTORE JUMP JUMPDEST DUP2 PUSH1 0x1F DUP3 ADD SLT ISZERO PUSH2 0x2AC JUMPI DUP1 CALLDATALOAD SWAP1 PUSH1 0x1 PUSH1 0x1 PUSH1 0x40 SHL SUB DUP3 GT PUSH2 0x7C7 JUMPI PUSH1 0x40 MLOAD SWAP3 PUSH2 0x362C PUSH1 0x1F DUP5 ADD PUSH1 0x1F NOT AND PUSH1 0x20 ADD DUP6 PUSH2 0x35D7 JUMP JUMPDEST DUP3 DUP5 MSTORE PUSH1 0x20 DUP4 DUP4 ADD ADD GT PUSH2 0x2AC JUMPI DUP2 PUSH0 SWAP3 PUSH1 0x20 DUP1 SWAP4 ADD DUP4 DUP7 ADD CALLDATACOPY DUP4 ADD ADD MSTORE SWAP1 JUMP JUMPDEST PUSH1 0x80 SWAP1 PUSH1 0x3 NOT ADD SLT PUSH2 0x2AC JUMPI PUSH1 0x4 CALLDATALOAD SWAP1 PUSH1 0x24 CALLDATALOAD SWAP1 PUSH1 0x44 CALLDATALOAD SWAP1 PUSH1 0x64 CALLDATALOAD SWAP1 JUMP JUMPDEST PUSH1 0x60 SWAP1 PUSH1 0x3 NOT ADD SLT PUSH2 0x2AC JUMPI PUSH1 0x4 CALLDATALOAD SWAP1 PUSH1 0x24 CALLDATALOAD SWAP1 PUSH1 0x44 CALLDATALOAD SWAP1 JUMP JUMPDEST PUSH1 0x20 PUSH1 0x40 DUP2 DUP4 ADD SWAP3 DUP3 DUP2 MSTORE DUP5 MLOAD DUP1 SWAP5 MSTORE ADD SWAP3 ADD SWAP1 PUSH0 JUMPDEST DUP2 DUP2 LT PUSH2 0x36A8 JUMPI POP POP POP SWAP1 JUMP JUMPDEST DUP3 MLOAD DUP5 MSTORE PUSH1 0x20 SWAP4 DUP5 ADD SWAP4 SWAP1 SWAP3 ADD SWAP2 PUSH1 0x1 ADD PUSH2 0x369B JUMP JUMPDEST DUP1 SLOAD DUP3 LT ISZERO PUSH2 0x3445 JUMPI PUSH0 MSTORE PUSH1 0x3 PUSH1 0x20 PUSH0 KECCAK256 SWAP2 MUL ADD SWAP1 PUSH0 SWAP1 JUMP JUMPDEST PUSH1 0x40 SWAP1 PUSH1 0x3 NOT ADD SLT PUSH2 0x2AC JUMPI PUSH1 0x4 CALLDATALOAD PUSH1 0xA DUP2 LT ISZERO PUSH2 0x2AC JUMPI SWAP1 PUSH1 0x24 CALLDATALOAD SWAP1 JUMP JUMPDEST PUSH1 0xA DUP2 LT ISZERO PUSH2 0x34BD JUMPI PUSH0 MSTORE PUSH1 0x10 PUSH1 0x20 MSTORE PUSH1 0x40 PUSH0 KECCAK256 SWAP1 JUMP JUMPDEST SWAP1 PUSH1 0x1 DUP3 DUP2 SHR SWAP3 AND DUP1 ISZERO PUSH2 0x373B JUMPI JUMPDEST PUSH1 0x20 DUP4 LT EQ PUSH2 0x3727 JUMPI JUMP JUMPDEST PUSH4 0x4E487B71 PUSH1 0xE0 SHL PUSH0 MSTORE PUSH1 0x22 PUSH1 0x4 MSTORE PUSH1 0x24 PUSH0 REVERT JUMPDEST SWAP2 PUSH1 0x7F AND SWAP2 PUSH2 0x371C JUMP JUMPDEST SWAP1 PUSH1 0x40 MLOAD SWAP2 DUP3 PUSH0 DUP3 SLOAD SWAP3 PUSH2 0x3758 DUP5 PUSH2 0x370D JUMP JUMPDEST DUP1 DUP5 MSTORE SWAP4 PUSH1 0x1 DUP2 AND SWAP1 DUP2 ISZERO PUSH2 0x37C3 JUMPI POP PUSH1 0x1 EQ PUSH2 0x377F JUMPI JUMPDEST POP PUSH2 0x377D SWAP3 POP SUB DUP4 PUSH2 0x35D7 JUMP JUMPDEST JUMP JUMPDEST SWAP1 POP PUSH0 SWAP3 SWAP2 SWAP3 MSTORE PUSH1 0x20 PUSH0 KECCAK256 SWAP1 PUSH0 SWAP2 JUMPDEST DUP2 DUP4 LT PUSH2 0x37A7 JUMPI POP POP SWAP1 PUSH1 0x20 PUSH2 0x377D SWAP3 DUP3 ADD ADD PUSH0 PUSH2 0x3770 JUMP JUMPDEST PUSH1 0x20 SWAP2 SWAP4 POP DUP1 PUSH1 0x1 SWAP2 SLOAD DUP4 DUP6 DUP10 ADD ADD MSTORE ADD SWAP2 ADD SWAP1 SWAP2 DUP5 SWAP3 PUSH2 0x378E JUMP JUMPDEST SWAP1 POP PUSH1 0x20 SWAP3 POP PUSH2 0x377D SWAP5 SWAP2 POP PUSH1 0xFF NOT AND DUP3 DUP5 ADD MSTORE ISZERO ISZERO PUSH1 0x5 SHL DUP3 ADD ADD PUSH0 PUSH2 0x3770 JUMP JUMPDEST PUSH1 0x1 PUSH1 0x1 PUSH1 0x40 SHL SUB DUP2 GT PUSH2 0x7C7 JUMPI PUSH1 0x5 SHL PUSH1 0x20 ADD SWAP1 JUMP JUMPDEST SWAP1 DUP1 PUSH1 0x1F DUP4 ADD SLT ISZERO PUSH2 0x2AC JUMPI DUP2 CALLDATALOAD PUSH2 0x3813 DUP2 PUSH2 0x37E5 JUMP JUMPDEST SWAP3 PUSH2 0x3821 PUSH1 0x40 MLOAD SWAP5 DUP6 PUSH2 0x35D7 JUMP JUMPDEST DUP2 DUP5 MSTORE PUSH1 0x20 DUP1 DUP6 ADD SWAP3 PUSH1 0x5 SHL DUP3 ADD ADD SWAP2 DUP4 DUP4 GT PUSH2 0x2AC JUMPI PUSH1 0x20 DUP3 ADD SWAP1 JUMPDEST DUP4 DUP3 LT PUSH2 0x384D JUMPI POP POP POP POP POP SWAP1 JUMP JUMPDEST DUP2 CALLDATALOAD PUSH1 0x1 PUSH1 0x1 PUSH1 0x40 SHL SUB DUP2 GT PUSH2 0x2AC JUMPI PUSH1 0x20 SWAP2 PUSH2 0x386F DUP8 DUP5 DUP1 SWAP5 DUP9 ADD ADD PUSH2 0x35F8 JUMP JUMPDEST DUP2 MSTORE ADD SWAP2 ADD SWAP1 PUSH2 0x383E JUMP JUMPDEST PUSH1 0x40 MLOAD SWAP1 PUSH2 0x3887 DUP3 PUSH2 0x356A JUMP JUMPDEST PUSH0 PUSH1 0x80 DUP4 DUP3 DUP2 MSTORE DUP3 PUSH1 0x20 DUP3 ADD MSTORE DUP3 PUSH1 0x40 DUP3 ADD MSTORE DUP3 PUSH1 0x60 DUP3 ADD MSTORE ADD MSTORE JUMP JUMPDEST ISZERO PUSH2 0x38AB JUMPI JUMP JUMPDEST PUSH1 0x40 MLOAD PUSH3 0x461BCD PUSH1 0xE5 SHL DUP2 MSTORE PUSH1 0x20 PUSH1 0x4 DUP3 ADD MSTORE PUSH1 0x15 PUSH1 0x24 DUP3 ADD MSTORE PUSH21 0x13585C9AD95D08191BD95CC81B9BDD08195E1A5CDD PUSH1 0x5A SHL PUSH1 0x44 DUP3 ADD MSTORE PUSH1 0x64 SWAP1 REVERT JUMPDEST SWAP2 SWAP1 DUP3 ADD DUP1 SWAP3 GT PUSH2 0x721 JUMPI JUMP JUMPDEST DUP2 ISZERO PUSH2 0x1003 JUMPI DIV SWAP1 JUMP JUMPDEST SWAP2 SWAP1 DUP3 SUB SWAP2 DUP3 GT PUSH2 0x721 JUMPI JUMP JUMPDEST ISZERO PUSH2 0x3913 JUMPI JUMP JUMPDEST PUSH1 0x40 MLOAD PUSH3 0x461BCD PUSH1 0xE5 SHL DUP2 MSTORE PUSH1 0x20 PUSH1 0x4 DUP3 ADD MSTORE PUSH1 0x10 PUSH1 0x24 DUP3 ADD MSTORE PUSH16 0x13585C9AD95D081A185CC8195B991959 PUSH1 0x82 SHL PUSH1 0x44 DUP3 ADD MSTORE PUSH1 0x64 SWAP1 REVERT JUMPDEST ISZERO PUSH2 0x3952 JUMPI JUMP JUMPDEST PUSH1 0x40 MLOAD PUSH3 0x461BCD PUSH1 0xE5 SHL DUP2 MSTORE PUSH1 0x20 PUSH1 0x4 DUP3 ADD MSTORE PUSH1 0x17 PUSH1 0x24 DUP3 ADD MSTORE PUSH32 0x4D61726B657420616C7265616479207265736F6C766564000000000000000000 PUSH1 0x44 DUP3 ADD MSTORE PUSH1 0x64 SWAP1 REVERT JUMPDEST ISZERO PUSH2 0x399E JUMPI JUMP JUMPDEST PUSH1 0x40 MLOAD PUSH3 0x461BCD PUSH1 0xE5 SHL DUP2 MSTORE PUSH1 0x20 PUSH1 0x4 DUP3 ADD MSTORE PUSH1 0xE PUSH1 0x24 DUP3 ADD MSTORE PUSH14 0x24B73B30B634B21037B83A34B7B7 PUSH1 0x91 SHL PUSH1 0x44 DUP3 ADD MSTORE PUSH1 0x64 SWAP1 REVERT JUMPDEST ISZERO PUSH2 0x39DB JUMPI JUMP JUMPDEST PUSH1 0x40 MLOAD PUSH3 0x461BCD PUSH1 0xE5 SHL DUP2 MSTORE PUSH1 0x20 PUSH1 0x4 DUP3 ADD MSTORE PUSH1 0x11 PUSH1 0x24 DUP3 ADD MSTORE PUSH17 0x4F7074696F6E206E6F7420616374697665 PUSH1 0x78 SHL PUSH1 0x44 DUP3 ADD MSTORE PUSH1 0x64 SWAP1 REVERT JUMPDEST ISZERO PUSH2 0x3A1B JUMPI JUMP JUMPDEST PUSH1 0x40 MLOAD PUSH3 0x461BCD PUSH1 0xE5 SHL DUP2 MSTORE PUSH1 0x20 PUSH1 0x4 DUP3 ADD MSTORE PUSH1 0x19 PUSH1 0x24 DUP3 ADD MSTORE PUSH32 0x5175616E74697479206D75737420626520706F73697469766500000000000000 PUSH1 0x44 DUP3 ADD MSTORE PUSH1 0x64 SWAP1 REVERT JUMPDEST DUP2 DUP2 MUL SWAP3 SWAP2 DUP2 ISZERO SWAP2 DUP5 DIV EQ OR ISZERO PUSH2 0x721 JUMPI JUMP JUMPDEST PUSH0 NOT DUP2 EQ PUSH2 0x721 JUMPI PUSH1 0x1 ADD SWAP1 JUMP JUMPDEST DUP1 SLOAD PUSH1 0x1 PUSH1 0x40 SHL DUP2 LT ISZERO PUSH2 0x7C7 JUMPI PUSH2 0x3A9E SWAP2 PUSH1 0x1 DUP3 ADD DUP2 SSTORE PUSH2 0x36BE JUMP JUMPDEST SWAP2 SWAP1 SWAP2 PUSH2 0x3ABF JUMPI PUSH1 0x40 DUP2 PUSH1 0x2 SWAP3 MLOAD DUP5 SSTORE PUSH1 0x20 DUP2 ADD MLOAD PUSH1 0x1 DUP6 ADD SSTORE ADD MLOAD SWAP2 ADD SSTORE JUMP JUMPDEST PUSH4 0x4E487B71 PUSH1 0xE0 SHL PUSH0 MSTORE PUSH0 PUSH1 0x4 MSTORE PUSH1 0x24 PUSH0 REVERT JUMPDEST DUP1 SLOAD PUSH1 0x1 PUSH1 0x40 SHL DUP2 LT ISZERO PUSH2 0x7C7 JUMPI PUSH2 0x3AEF SWAP2 PUSH1 0x1 DUP3 ADD DUP2 SSTORE PUSH2 0x349A JUMP JUMPDEST PUSH2 0x3ABF JUMPI DUP2 MLOAD DUP2 SSTORE PUSH1 0x20 DUP3 ADD MLOAD PUSH1 0x1 DUP3 ADD SSTORE PUSH1 0x40 DUP3 ADD MLOAD PUSH1 0x2 DUP3 ADD DUP1 SLOAD PUSH1 0x1 PUSH1 0x1 PUSH1 0xA0 SHL SUB SWAP3 DUP4 AND PUSH1 0x1 PUSH1 0x1 PUSH1 0xA0 SHL SUB NOT SWAP2 DUP3 AND OR SWAP1 SWAP2 SSTORE PUSH1 0x60 DUP5 ADD MLOAD PUSH1 0x3 DUP5 ADD DUP1 SLOAD SWAP2 SWAP1 SWAP4 AND SWAP2 AND OR SWAP1 SSTORE PUSH1 0x80 DUP3 ADD MLOAD PUSH1 0x4 DUP3 ADD SSTORE PUSH1 0xA0 DUP3 ADD MLOAD PUSH1 0x5 DUP3 ADD SSTORE PUSH1 0xC0 DUP3 ADD MLOAD PUSH1 0x6 DUP3 ADD SSTORE PUSH1 0xE0 SWAP1 SWAP2 ADD MLOAD PUSH1 0x7 SWAP1 SWAP2 ADD SWAP1 PUSH2 0x3B6E DUP2 PUSH2 0x34B3 JUMP JUMPDEST PUSH2 0x3B77 DUP2 PUSH2 0x34B3 JUMP JUMPDEST PUSH1 0xFF DUP1 NOT DUP4 SLOAD AND SWAP2 AND OR SWAP1 SSTORE JUMP JUMPDEST SWAP1 DUP2 PUSH1 0x20 SWAP2 SUB SLT PUSH2 0x2AC JUMPI MLOAD DUP1 ISZERO ISZERO DUP2 SUB PUSH2 0x2AC JUMPI SWAP1 JUMP JUMPDEST ISZERO PUSH2 0x3BA4 JUMPI JUMP JUMPDEST PUSH1 0x40 MLOAD PUSH3 0x461BCD PUSH1 0xE5 SHL DUP2 MSTORE PUSH1 0x20 PUSH1 0x4 DUP3 ADD MSTORE PUSH1 0xF PUSH1 0x24 DUP3 ADD MSTORE PUSH15 0x151C985B9CD9995C8819985A5B1959 PUSH1 0x8A SHL PUSH1 0x44 DUP3 ADD MSTORE PUSH1 0x64 SWAP1 REVERT JUMPDEST DUP1 MLOAD DUP3 LT ISZERO PUSH2 0x3445 JUMPI PUSH1 0x20 SWAP2 PUSH1 0x5 SHL ADD ADD SWAP1 JUMP JUMPDEST SWAP1 PUSH2 0x3BF9 DUP3 PUSH2 0x37E5 JUMP JUMPDEST PUSH2 0x3C06 PUSH1 0x40 MLOAD SWAP2 DUP3 PUSH2 0x35D7 JUMP JUMPDEST DUP3 DUP2 MSTORE DUP1 SWAP3 PUSH2 0x3C17 PUSH1 0x1F NOT SWAP2 PUSH2 0x37E5 JUMP JUMPDEST ADD SWAP1 PUSH1 0x20 CALLDATASIZE SWAP2 ADD CALLDATACOPY JUMP JUMPDEST PUSH0 DUP2 DUP2 MSTORE PUSH1 0x2 PUSH1 0x20 SWAP1 DUP2 MSTORE PUSH1 0x40 DUP1 DUP4 KECCAK256 CALLER DUP5 MSTORE SWAP1 SWAP2 MSTORE SWAP1 KECCAK256 SLOAD PUSH1 0xFF AND ISZERO PUSH2 0x3C45 JUMPI POP JUMP JUMPDEST PUSH4 0xE2517D3F PUSH1 0xE0 SHL PUSH0 MSTORE CALLER PUSH1 0x4 MSTORE PUSH1 0x24 MSTORE PUSH1 0x44 PUSH0 REVERT JUMPDEST PUSH1 0x1 PUSH1 0x1 PUSH1 0xA0 SHL SUB DUP2 AND PUSH0 SWAP1 DUP2 MSTORE PUSH32 0x8E2C297E756B2A427C5DC4607F639842A8EA6E0F6322302F4EA76306B642CFC2 PUSH1 0x20 MSTORE PUSH1 0x40 SWAP1 KECCAK256 SLOAD PUSH1 0xFF AND PUSH2 0x3D14 JUMPI PUSH1 0x1 PUSH1 0x1 PUSH1 0xA0 SHL SUB AND PUSH0 DUP2 DUP2 MSTORE PUSH32 0x8E2C297E756B2A427C5DC4607F639842A8EA6E0F6322302F4EA76306B642CFC2 PUSH1 0x20 MSTORE PUSH1 0x40 DUP2 KECCAK256 DUP1 SLOAD PUSH1 0xFF NOT AND PUSH1 0x1 OR SWAP1 SSTORE CALLER SWAP2 SWAP1 PUSH32 0xDCEE1D35C83A32B436264A5C9AFD68685C124F3F9097E87804C55410E67FC59A SWAP1 PUSH0 DUP1 MLOAD PUSH1 0x20 PUSH2 0x4046 DUP4 CODECOPY DUP2 MLOAD SWAP2 MSTORE SWAP1 DUP1 LOG4 PUSH1 0x1 SWAP1 JUMP JUMPDEST POP PUSH0 SWAP1 JUMP JUMPDEST PUSH1 0x1 PUSH1 0x1 PUSH1 0xA0 SHL SUB DUP2 AND PUSH0 SWAP1 DUP2 MSTORE PUSH32 0x30D995518B427F5A5863AD73FE356CA50CF70941F42C516830919C845FA5806F PUSH1 0x20 MSTORE PUSH1 0x40 SWAP1 KECCAK256 SLOAD PUSH1 0xFF AND PUSH2 0x3D14 JUMPI PUSH1 0x1 PUSH1 0x1 PUSH1 0xA0 SHL SUB AND PUSH0 DUP2 DUP2 MSTORE PUSH32 0x30D995518B427F5A5863AD73FE356CA50CF70941F42C516830919C845FA5806F PUSH1 0x20 MSTORE PUSH1 0x40 DUP2 KECCAK256 DUP1 SLOAD PUSH1 0xFF NOT AND PUSH1 0x1 OR SWAP1 SSTORE CALLER SWAP2 SWAP1 PUSH32 0xEF485BE696BBC0C91AD541BBD553FFB5BD0E18DAC30BA76E992DDA23CB807A8A SWAP1 PUSH0 DUP1 MLOAD PUSH1 0x20 PUSH2 0x4046 DUP4 CODECOPY DUP2 MLOAD SWAP2 MSTORE SWAP1 DUP1 LOG4 PUSH1 0x1 SWAP1 JUMP JUMPDEST PUSH1 0x1 PUSH1 0x1 PUSH1 0xA0 SHL SUB DUP2 AND PUSH0 SWAP1 DUP2 MSTORE PUSH32 0xD3DCCF8D8289B9DEEE17E361620D7577DE7B525DD57F668D5C1BB85EC53112B5 PUSH1 0x20 MSTORE PUSH1 0x40 SWAP1 KECCAK256 SLOAD PUSH1 0xFF AND PUSH2 0x3D14 JUMPI PUSH1 0x1 PUSH1 0x1 PUSH1 0xA0 SHL SUB AND PUSH0 DUP2 DUP2 MSTORE PUSH32 0xD3DCCF8D8289B9DEEE17E361620D7577DE7B525DD57F668D5C1BB85EC53112B5 PUSH1 0x20 MSTORE PUSH1 0x40 DUP2 KECCAK256 DUP1 SLOAD PUSH1 0xFF NOT AND PUSH1 0x1 OR SWAP1 SSTORE CALLER SWAP2 SWAP1 PUSH32 0xD486618B282CB35034D59C30C062B5B3822D6CDF87EC459191CE7F5B7B8A4873 SWAP1 PUSH0 DUP1 MLOAD PUSH1 0x20 PUSH2 0x4046 DUP4 CODECOPY DUP2 MLOAD SWAP2 MSTORE SWAP1 DUP1 LOG4 PUSH1 0x1 SWAP1 JUMP JUMPDEST PUSH0 DUP2 DUP2 MSTORE PUSH1 0x2 PUSH1 0x20 SWAP1 DUP2 MSTORE PUSH1 0x40 DUP1 DUP4 KECCAK256 PUSH1 0x1 PUSH1 0x1 PUSH1 0xA0 SHL SUB DUP7 AND DUP5 MSTORE SWAP1 SWAP2 MSTORE SWAP1 KECCAK256 SLOAD PUSH1 0xFF AND PUSH2 0x3EFE JUMPI PUSH0 DUP2 DUP2 MSTORE PUSH1 0x2 PUSH1 0x20 SWAP1 DUP2 MSTORE PUSH1 0x40 DUP1 DUP4 KECCAK256 PUSH1 0x1 PUSH1 0x1 PUSH1 0xA0 SHL SUB SWAP6 SWAP1 SWAP6 AND DUP1 DUP5 MSTORE SWAP5 SWAP1 SWAP2 MSTORE DUP2 KECCAK256 DUP1 SLOAD PUSH1 0xFF NOT AND PUSH1 0x1 OR SWAP1 SSTORE CALLER SWAP3 SWAP2 SWAP1 PUSH0 DUP1 MLOAD PUSH1 0x20 PUSH2 0x4046 DUP4 CODECOPY DUP2 MLOAD SWAP2 MSTORE SWAP1 DUP1 LOG4 PUSH1 0x1 SWAP1 JUMP JUMPDEST POP POP PUSH0 SWAP1 JUMP JUMPDEST PUSH0 SLOAD PUSH1 0x1 PUSH1 0x1 PUSH1 0xA0 SHL SUB AND CALLER SUB PUSH2 0x3F17 JUMPI JUMP JUMPDEST PUSH4 0x118CDAA7 PUSH1 0xE0 SHL PUSH0 MSTORE CALLER PUSH1 0x4 MSTORE PUSH1 0x24 PUSH0 REVERT JUMPDEST PUSH0 DUP2 DUP2 MSTORE PUSH1 0x2 PUSH1 0x20 SWAP1 DUP2 MSTORE PUSH1 0x40 DUP1 DUP4 KECCAK256 PUSH1 0x1 PUSH1 0x1 PUSH1 0xA0 SHL SUB DUP7 AND DUP5 MSTORE SWAP1 SWAP2 MSTORE SWAP1 KECCAK256 SLOAD PUSH1 0xFF AND ISZERO PUSH2 0x3EFE JUMPI PUSH0 DUP2 DUP2 MSTORE PUSH1 0x2 PUSH1 0x20 SWAP1 DUP2 MSTORE PUSH1 0x40 DUP1 DUP4 KECCAK256 PUSH1 0x1 PUSH1 0x1 PUSH1 0xA0 SHL SUB SWAP6 SWAP1 SWAP6 AND DUP1 DUP5 MSTORE SWAP5 SWAP1 SWAP2 MSTORE DUP2 KECCAK256 DUP1 SLOAD PUSH1 0xFF NOT AND SWAP1 SSTORE CALLER SWAP3 SWAP2 SWAP1 PUSH32 0xF6391F5C32D9C69D2A47EA670B442974B53935D1EDC7FD64EB21E047A839171B SWAP1 DUP1 LOG4 PUSH1 0x1 SWAP1 JUMP JUMPDEST PUSH1 0x2 PUSH1 0x1 SLOAD EQ PUSH2 0x3FBF JUMPI PUSH1 0x2 PUSH1 0x1 SSTORE JUMP JUMPDEST PUSH4 0x3EE5AEB5 PUSH1 0xE0 SHL PUSH0 MSTORE PUSH1 0x4 PUSH0 REVERT JUMPDEST PUSH1 0xFF PUSH1 0x3 SLOAD AND PUSH2 0x3FDA JUMPI JUMP JUMPDEST PUSH4 0xD93C0665 PUSH1 0xE0 SHL PUSH0 MSTORE PUSH1 0x4 PUSH0 REVERT JUMPDEST SWAP1 PUSH0 MSTORE PUSH1 0x8 PUSH1 0x20 MSTORE PUSH1 0x40 PUSH0 KECCAK256 SWAP1 PUSH0 SWAP1 PUSH1 0xB PUSH1 0x9 DUP5 ADD SLOAD SWAP4 ADD SWAP2 JUMPDEST DUP4 DUP2 LT PUSH2 0x4013 JUMPI POP POP POP POP PUSH1 0x1 SWAP1 JUMP JUMPDEST PUSH1 0x1 DUP1 PUSH1 0xA0 SHL SUB DUP3 AND PUSH0 MSTORE DUP3 PUSH1 0x20 MSTORE PUSH1 0x40 PUSH0 KECCAK256 DUP2 PUSH0 MSTORE PUSH1 0x20 MSTORE PUSH1 0x40 PUSH0 KECCAK256 SLOAD PUSH2 0x403D JUMPI PUSH1 0x1 ADD PUSH2 0x4003 JUMP JUMPDEST POP POP POP POP PUSH0 SWAP1 JUMP INVALID 0x2F DUP8 DUP9 GT PUSH31 0x7EFF1D82E926EC794901D17C78024A50270940304540A733656F0DA2646970 PUSH7 0x73582212204C2E 0xF8 SWAP13 PUSH4 0xC65F3CB2 0xD6 0xD8 NOT PUSH13 0x7CDDAAA8B9FF94C9F02A1EA708 CODESIZE 0xF CALLER 0xEA SMOD 0xE7 PUSH5 0x736F6C6343 STOP ADDMOD BYTE STOP CALLER 0xAC CALLER SELFDESTRUCT PUSH22 0xC19E70FE83507DB0D683FD3465C996598DC972688B7A 0xCE PUSH8 0x6C89077B00000000 "
		},
		"gasEstimates": {
			"creation": {
				"codeDepositCost": "3307800",
				"executionCost": "infinite",
				"totalCost": "infinite"
			},
			"external": {
				"DEFAULT_ADMIN_ROLE()": "1010",
				"MARKET_VALIDATOR_ROLE()": "417",
				"MAX_MARKET_DURATION()": "813",
				"MAX_OPTIONS()": "219",
				"MIN_MARKET_DURATION()": "989",
				"QUESTION_CREATOR_ROLE()": "769",
				"QUESTION_RESOLVE_ROLE()": "747",
				"allParticipants(uint256)": "6655",
				"bettingToken()": "2663",
				"buyShares(uint256,uint256,uint256,uint256)": "infinite",
				"calculateCurrentPrice(uint256,uint256)": "3463",
				"categoryMarkets(uint8,uint256)": "7719",
				"claimWinnings(uint256)": "infinite",
				"createMarket(string,string,string[],string[],uint256,uint8,uint256,bool)": "infinite",
				"disputeMarket(uint256,string)": "infinite",
				"getBettingToken()": "2509",
				"getLeaderboard(uint256,uint256)": "infinite",
				"getMarketCount()": "3485",
				"getMarketInfo(uint256)": "infinite",
				"getMarketOption(uint256,uint256)": "infinite",
				"getMarketStats(uint256)": "infinite",
				"getMarketsByCategory(uint8,uint256)": "infinite",
				"getPriceHistory(uint256,uint256,uint256)": "infinite",
				"getRoleAdmin(bytes32)": "2518",
				"getUserPortfolio(address)": "infinite",
				"getUserShares(uint256,address)": "infinite",
				"grantMarketValidatorRole(address)": "36218",
				"grantQuestionCreatorRole(address)": "35778",
				"grantQuestionResolveRole(address)": "35536",
				"grantRole(bytes32,address)": "33551",
				"hasRole(bytes32,address)": "3277",
				"marketCount()": "3400",
				"marketOrderBook(uint256,uint256)": "6913",
				"marketTrades(uint256,uint256)": "21896",
				"markets(uint256)": "infinite",
				"orderCount()": "2410",
				"orders(uint256)": "infinite",
				"owner()": "3049",
				"pause()": "30394",
				"paused()": "2730",
				"platformFeeRate()": "3444",
				"priceHistory(uint256,uint256,uint256)": "11920",
				"renounceOwnership()": "28600",
				"renounceRole(bytes32,address)": "29149",
				"resolveMarket(uint256,uint256)": "59568",
				"revokeRole(bytes32,address)": "34396",
				"sellShares(uint256,uint256,uint256,uint256)": "infinite",
				"setPlatformFeeRate(uint256)": "25237",
				"supportsInterface(bytes4)": "270",
				"totalWinnings(address)": "3154",
				"tradeCount()": "3312",
				"transferOwnership(address)": "29380",
				"unpause()": "27915",
				"userOrders(address,uint256)": "7503",
				"userPortfolios(address)": "11948",
				"userTradeHistory(address,uint256)": "21908",
				"validateMarket(uint256)": "35475"
			},
			"internal": {
				"_isNewParticipant(address,uint256)": "infinite",
				"calculateNewPrice(uint256,uint256,uint256,bool)": "infinite"
			}
		},
		"methodIdentifiers": {
			"DEFAULT_ADMIN_ROLE()": "a217fddf",
			"MARKET_VALIDATOR_ROLE()": "32617b70",
			"MAX_MARKET_DURATION()": "7e50898e",
			"MAX_OPTIONS()": "0da183d6",
			"MIN_MARKET_DURATION()": "92f012b2",
			"QUESTION_CREATOR_ROLE()": "77b4a3e7",
			"QUESTION_RESOLVE_ROLE()": "755f0629",
			"allParticipants(uint256)": "05e33dd0",
			"bettingToken()": "43425e88",
			"buyShares(uint256,uint256,uint256,uint256)": "ed881230",
			"calculateCurrentPrice(uint256,uint256)": "b1ab13ff",
			"categoryMarkets(uint8,uint256)": "a8cc7f19",
			"claimWinnings(uint256)": "677bd9ff",
			"createMarket(string,string,string[],string[],uint256,uint8,uint256,bool)": "caf9fd43",
			"disputeMarket(uint256,string)": "4a2021ef",
			"getBettingToken()": "29cf655b",
			"getLeaderboard(uint256,uint256)": "73af16fc",
			"getMarketCount()": "fd69f3c2",
			"getMarketInfo(uint256)": "3ec79193",
			"getMarketOption(uint256,uint256)": "222fa267",
			"getMarketStats(uint256)": "58057fe5",
			"getMarketsByCategory(uint8,uint256)": "c2454af7",
			"getPriceHistory(uint256,uint256,uint256)": "7c946454",
			"getRoleAdmin(bytes32)": "248a9ca3",
			"getUserPortfolio(address)": "1edb27e9",
			"getUserShares(uint256,address)": "835dc40b",
			"grantMarketValidatorRole(address)": "abdce1a4",
			"grantQuestionCreatorRole(address)": "6db3b4dc",
			"grantQuestionResolveRole(address)": "35037e0b",
			"grantRole(bytes32,address)": "2f2ff15d",
			"hasRole(bytes32,address)": "91d14854",
			"marketCount()": "ec979082",
			"marketOrderBook(uint256,uint256)": "257ff7b6",
			"marketTrades(uint256,uint256)": "1cb1de2f",
			"markets(uint256)": "b1283e77",
			"orderCount()": "2453ffa8",
			"orders(uint256)": "a85c38ef",
			"owner()": "8da5cb5b",
			"pause()": "8456cb59",
			"paused()": "5c975abb",
			"platformFeeRate()": "eeca08f0",
			"priceHistory(uint256,uint256,uint256)": "a75dd115",
			"renounceOwnership()": "715018a6",
			"renounceRole(bytes32,address)": "36568abe",
			"resolveMarket(uint256,uint256)": "60557333",
			"revokeRole(bytes32,address)": "d547741f",
			"sellShares(uint256,uint256,uint256,uint256)": "5a2db6fb",
			"setPlatformFeeRate(uint256)": "927fef2e",
			"supportsInterface(bytes4)": "01ffc9a7",
			"totalWinnings(address)": "8b8840e0",
			"tradeCount()": "bd55022a",
			"transferOwnership(address)": "f2fde38b",
			"unpause()": "3f4ba83a",
			"userOrders(address,uint256)": "856652e9",
			"userPortfolios(address)": "b61920c1",
			"userTradeHistory(address,uint256)": "08693f3c",
			"validateMarket(uint256)": "ab44e635"
		}
	},
	"abi": [
		{
			"inputs": [
				{
					"internalType": "address",
					"name": "_bettingToken",
					"type": "address"
				}
			],
			"stateMutability": "nonpayable",
			"type": "constructor"
		},
		{
			"inputs": [],
			"name": "AccessControlBadConfirmation",
			"type": "error"
		},
		{
			"inputs": [
				{
					"internalType": "address",
					"name": "account",
					"type": "address"
				},
				{
					"internalType": "bytes32",
					"name": "neededRole",
					"type": "bytes32"
				}
			],
			"name": "AccessControlUnauthorizedAccount",
			"type": "error"
		},
		{
			"inputs": [],
			"name": "EnforcedPause",
			"type": "error"
		},
		{
			"inputs": [],
			"name": "ExpectedPause",
			"type": "error"
		},
		{
			"inputs": [
				{
					"internalType": "address",
					"name": "owner",
					"type": "address"
				}
			],
			"name": "OwnableInvalidOwner",
			"type": "error"
		},
		{
			"inputs": [
				{
					"internalType": "address",
					"name": "account",
					"type": "address"
				}
			],
			"name": "OwnableUnauthorizedAccount",
			"type": "error"
		},
		{
			"inputs": [],
			"name": "ReentrancyGuardReentrantCall",
			"type": "error"
		},
		{
			"anonymous": false,
			"inputs": [
				{
					"indexed": true,
					"internalType": "uint256",
					"name": "marketId",
					"type": "uint256"
				},
				{
					"indexed": true,
					"internalType": "address",
					"name": "user",
					"type": "address"
				},
				{
					"indexed": false,
					"internalType": "uint256",
					"name": "amount",
					"type": "uint256"
				}
			],
			"name": "Claimed",
			"type": "event"
		},
		{
			"anonymous": false,
			"inputs": [
				{
					"indexed": true,
					"internalType": "uint256",
					"name": "marketId",
					"type": "uint256"
				},
				{
					"indexed": false,
					"internalType": "uint256",
					"name": "amount",
					"type": "uint256"
				}
			],
			"name": "FeeCollected",
			"type": "event"
		},
		{
			"anonymous": false,
			"inputs": [
				{
					"indexed": true,
					"internalType": "uint256",
					"name": "marketId",
					"type": "uint256"
				},
				{
					"indexed": false,
					"internalType": "string",
					"name": "question",
					"type": "string"
				},
				{
					"indexed": false,
					"internalType": "string[]",
					"name": "options",
					"type": "string[]"
				},
				{
					"indexed": false,
					"internalType": "uint256",
					"name": "endTime",
					"type": "uint256"
				},
				{
					"indexed": false,
					"internalType": "enum PolicastMarketV2.MarketCategory",
					"name": "category",
					"type": "uint8"
				},
				{
					"indexed": false,
					"internalType": "address",
					"name": "creator",
					"type": "address"
				}
			],
			"name": "MarketCreated",
			"type": "event"
		},
		{
			"anonymous": false,
			"inputs": [
				{
					"indexed": true,
					"internalType": "uint256",
					"name": "marketId",
					"type": "uint256"
				},
				{
					"indexed": false,
					"internalType": "address",
					"name": "disputer",
					"type": "address"
				},
				{
					"indexed": false,
					"internalType": "string",
					"name": "reason",
					"type": "string"
				}
			],
			"name": "MarketDisputed",
			"type": "event"
		},
		{
			"anonymous": false,
			"inputs": [
				{
					"indexed": true,
					"internalType": "uint256",
					"name": "marketId",
					"type": "uint256"
				},
				{
					"indexed": false,
					"internalType": "uint256",
					"name": "winningOptionId",
					"type": "uint256"
				},
				{
					"indexed": false,
					"internalType": "address",
					"name": "resolver",
					"type": "address"
				}
			],
			"name": "MarketResolved",
			"type": "event"
		},
		{
			"anonymous": false,
			"inputs": [
				{
					"indexed": true,
					"internalType": "uint256",
					"name": "marketId",
					"type": "uint256"
				},
				{
					"indexed": false,
					"internalType": "address",
					"name": "validator",
					"type": "address"
				}
			],
			"name": "MarketValidated",
			"type": "event"
		},
		{
			"anonymous": false,
			"inputs": [
				{
					"indexed": true,
					"internalType": "uint256",
					"name": "orderId",
					"type": "uint256"
				},
				{
					"indexed": false,
					"internalType": "address",
					"name": "maker",
					"type": "address"
				}
			],
			"name": "OrderCancelled",
			"type": "event"
		},
		{
			"anonymous": false,
			"inputs": [
				{
					"indexed": true,
					"internalType": "uint256",
					"name": "orderId",
					"type": "uint256"
				},
				{
					"indexed": true,
					"internalType": "uint256",
					"name": "marketId",
					"type": "uint256"
				},
				{
					"indexed": true,
					"internalType": "uint256",
					"name": "optionId",
					"type": "uint256"
				},
				{
					"indexed": false,
					"internalType": "address",
					"name": "maker",
					"type": "address"
				},
				{
					"indexed": false,
					"internalType": "enum PolicastMarketV2.OrderType",
					"name": "orderType",
					"type": "uint8"
				},
				{
					"indexed": false,
					"internalType": "enum PolicastMarketV2.OrderSide",
					"name": "side",
					"type": "uint8"
				},
				{
					"indexed": false,
					"internalType": "uint256",
					"name": "price",
					"type": "uint256"
				},
				{
					"indexed": false,
					"internalType": "uint256",
					"name": "quantity",
					"type": "uint256"
				}
			],
			"name": "OrderPlaced",
			"type": "event"
		},
		{
			"anonymous": false,
			"inputs": [
				{
					"indexed": true,
					"internalType": "address",
					"name": "previousOwner",
					"type": "address"
				},
				{
					"indexed": true,
					"internalType": "address",
					"name": "newOwner",
					"type": "address"
				}
			],
			"name": "OwnershipTransferred",
			"type": "event"
		},
		{
			"anonymous": false,
			"inputs": [
				{
					"indexed": false,
					"internalType": "address",
					"name": "account",
					"type": "address"
				}
			],
			"name": "Paused",
			"type": "event"
		},
		{
			"anonymous": false,
			"inputs": [
				{
					"indexed": true,
					"internalType": "bytes32",
					"name": "role",
					"type": "bytes32"
				},
				{
					"indexed": true,
					"internalType": "bytes32",
					"name": "previousAdminRole",
					"type": "bytes32"
				},
				{
					"indexed": true,
					"internalType": "bytes32",
					"name": "newAdminRole",
					"type": "bytes32"
				}
			],
			"name": "RoleAdminChanged",
			"type": "event"
		},
		{
			"anonymous": false,
			"inputs": [
				{
					"indexed": true,
					"internalType": "bytes32",
					"name": "role",
					"type": "bytes32"
				},
				{
					"indexed": true,
					"internalType": "address",
					"name": "account",
					"type": "address"
				},
				{
					"indexed": true,
					"internalType": "address",
					"name": "sender",
					"type": "address"
				}
			],
			"name": "RoleGranted",
			"type": "event"
		},
		{
			"anonymous": false,
			"inputs": [
				{
					"indexed": true,
					"internalType": "bytes32",
					"name": "role",
					"type": "bytes32"
				},
				{
					"indexed": true,
					"internalType": "address",
					"name": "account",
					"type": "address"
				},
				{
					"indexed": true,
					"internalType": "address",
					"name": "sender",
					"type": "address"
				}
			],
			"name": "RoleRevoked",
			"type": "event"
		},
		{
			"anonymous": false,
			"inputs": [
				{
					"indexed": true,
					"internalType": "uint256",
					"name": "marketId",
					"type": "uint256"
				},
				{
					"indexed": true,
					"internalType": "uint256",
					"name": "optionId",
					"type": "uint256"
				},
				{
					"indexed": true,
					"internalType": "address",
					"name": "seller",
					"type": "address"
				},
				{
					"indexed": false,
					"internalType": "uint256",
					"name": "quantity",
					"type": "uint256"
				},
				{
					"indexed": false,
					"internalType": "uint256",
					"name": "price",
					"type": "uint256"
				}
			],
			"name": "SharesSold",
			"type": "event"
		},
		{
			"anonymous": false,
			"inputs": [
				{
					"indexed": true,
					"internalType": "uint256",
					"name": "marketId",
					"type": "uint256"
				},
				{
					"indexed": true,
					"internalType": "uint256",
					"name": "optionId",
					"type": "uint256"
				},
				{
					"indexed": true,
					"internalType": "address",
					"name": "buyer",
					"type": "address"
				},
				{
					"indexed": false,
					"internalType": "address",
					"name": "seller",
					"type": "address"
				},
				{
					"indexed": false,
					"internalType": "uint256",
					"name": "price",
					"type": "uint256"
				},
				{
					"indexed": false,
					"internalType": "uint256",
					"name": "quantity",
					"type": "uint256"
				},
				{
					"indexed": false,
					"internalType": "uint256",
					"name": "tradeId",
					"type": "uint256"
				}
			],
			"name": "TradeExecuted",
			"type": "event"
		},
		{
			"anonymous": false,
			"inputs": [
				{
					"indexed": false,
					"internalType": "address",
					"name": "account",
					"type": "address"
				}
			],
			"name": "Unpaused",
			"type": "event"
		},
		{
			"inputs": [],
			"name": "DEFAULT_ADMIN_ROLE",
			"outputs": [
				{
					"internalType": "bytes32",
					"name": "",
					"type": "bytes32"
				}
			],
			"stateMutability": "view",
			"type": "function"
		},
		{
			"inputs": [],
			"name": "MARKET_VALIDATOR_ROLE",
			"outputs": [
				{
					"internalType": "bytes32",
					"name": "",
					"type": "bytes32"
				}
			],
			"stateMutability": "view",
			"type": "function"
		},
		{
			"inputs": [],
			"name": "MAX_MARKET_DURATION",
			"outputs": [
				{
					"internalType": "uint256",
					"name": "",
					"type": "uint256"
				}
			],
			"stateMutability": "view",
			"type": "function"
		},
		{
			"inputs": [],
			"name": "MAX_OPTIONS",
			"outputs": [
				{
					"internalType": "uint256",
					"name": "",
					"type": "uint256"
				}
			],
			"stateMutability": "view",
			"type": "function"
		},
		{
			"inputs": [],
			"name": "MIN_MARKET_DURATION",
			"outputs": [
				{
					"internalType": "uint256",
					"name": "",
					"type": "uint256"
				}
			],
			"stateMutability": "view",
			"type": "function"
		},
		{
			"inputs": [],
			"name": "QUESTION_CREATOR_ROLE",
			"outputs": [
				{
					"internalType": "bytes32",
					"name": "",
					"type": "bytes32"
				}
			],
			"stateMutability": "view",
			"type": "function"
		},
		{
			"inputs": [],
			"name": "QUESTION_RESOLVE_ROLE",
			"outputs": [
				{
					"internalType": "bytes32",
					"name": "",
					"type": "bytes32"
				}
			],
			"stateMutability": "view",
			"type": "function"
		},
		{
			"inputs": [
				{
					"internalType": "uint256",
					"name": "",
					"type": "uint256"
				}
			],
			"name": "allParticipants",
			"outputs": [
				{
					"internalType": "address",
					"name": "",
					"type": "address"
				}
			],
			"stateMutability": "view",
			"type": "function"
		},
		{
			"inputs": [],
			"name": "bettingToken",
			"outputs": [
				{
					"internalType": "contract IERC20",
					"name": "",
					"type": "address"
				}
			],
			"stateMutability": "view",
			"type": "function"
		},
		{
			"inputs": [
				{
					"internalType": "uint256",
					"name": "_marketId",
					"type": "uint256"
				},
				{
					"internalType": "uint256",
					"name": "_optionId",
					"type": "uint256"
				},
				{
					"internalType": "uint256",
					"name": "_quantity",
					"type": "uint256"
				},
				{
					"internalType": "uint256",
					"name": "_maxPricePerShare",
					"type": "uint256"
				}
			],
			"name": "buyShares",
			"outputs": [],
			"stateMutability": "nonpayable",
			"type": "function"
		},
		{
			"inputs": [
				{
					"internalType": "uint256",
					"name": "_marketId",
					"type": "uint256"
				},
				{
					"internalType": "uint256",
					"name": "_optionId",
					"type": "uint256"
				}
			],
			"name": "calculateCurrentPrice",
			"outputs": [
				{
					"internalType": "uint256",
					"name": "",
					"type": "uint256"
				}
			],
			"stateMutability": "view",
			"type": "function"
		},
		{
			"inputs": [
				{
					"internalType": "enum PolicastMarketV2.MarketCategory",
					"name": "",
					"type": "uint8"
				},
				{
					"internalType": "uint256",
					"name": "",
					"type": "uint256"
				}
			],
			"name": "categoryMarkets",
			"outputs": [
				{
					"internalType": "uint256",
					"name": "",
					"type": "uint256"
				}
			],
			"stateMutability": "view",
			"type": "function"
		},
		{
			"inputs": [
				{
					"internalType": "uint256",
					"name": "_marketId",
					"type": "uint256"
				}
			],
			"name": "claimWinnings",
			"outputs": [],
			"stateMutability": "nonpayable",
			"type": "function"
		},
		{
			"inputs": [
				{
					"internalType": "string",
					"name": "_question",
					"type": "string"
				},
				{
					"internalType": "string",
					"name": "_description",
					"type": "string"
				},
				{
					"internalType": "string[]",
					"name": "_optionNames",
					"type": "string[]"
				},
				{
					"internalType": "string[]",
					"name": "_optionDescriptions",
					"type": "string[]"
				},
				{
					"internalType": "uint256",
					"name": "_duration",
					"type": "uint256"
				},
				{
					"internalType": "enum PolicastMarketV2.MarketCategory",
					"name": "_category",
					"type": "uint8"
				},
				{
					"internalType": "uint256",
					"name": "_rewardAmount",
					"type": "uint256"
				},
				{
					"internalType": "bool",
					"name": "_freeEntry",
					"type": "bool"
				}
			],
			"name": "createMarket",
			"outputs": [
				{
					"internalType": "uint256",
					"name": "",
					"type": "uint256"
				}
			],
			"stateMutability": "nonpayable",
			"type": "function"
		},
		{
			"inputs": [
				{
					"internalType": "uint256",
					"name": "_marketId",
					"type": "uint256"
				},
				{
					"internalType": "string",
					"name": "_reason",
					"type": "string"
				}
			],
			"name": "disputeMarket",
			"outputs": [],
			"stateMutability": "nonpayable",
			"type": "function"
		},
		{
			"inputs": [],
			"name": "getBettingToken",
			"outputs": [
				{
					"internalType": "address",
					"name": "",
					"type": "address"
				}
			],
			"stateMutability": "view",
			"type": "function"
		},
		{
			"inputs": [
				{
					"internalType": "uint256",
					"name": "_start",
					"type": "uint256"
				},
				{
					"internalType": "uint256",
					"name": "_limit",
					"type": "uint256"
				}
			],
			"name": "getLeaderboard",
			"outputs": [
				{
					"components": [
						{
							"internalType": "address",
							"name": "user",
							"type": "address"
						},
						{
							"internalType": "uint256",
							"name": "totalWinnings",
							"type": "uint256"
						},
						{
							"internalType": "uint256",
							"name": "totalVolume",
							"type": "uint256"
						},
						{
							"internalType": "uint256",
							"name": "winRate",
							"type": "uint256"
						},
						{
							"internalType": "uint256",
							"name": "tradeCount",
							"type": "uint256"
						}
					],
					"internalType": "struct PolicastMarketV2.LeaderboardEntry[]",
					"name": "",
					"type": "tuple[]"
				}
			],
			"stateMutability": "view",
			"type": "function"
		},
		{
			"inputs": [],
			"name": "getMarketCount",
			"outputs": [
				{
					"internalType": "uint256",
					"name": "",
					"type": "uint256"
				}
			],
			"stateMutability": "view",
			"type": "function"
		},
		{
			"inputs": [
				{
					"internalType": "uint256",
					"name": "_marketId",
					"type": "uint256"
				}
			],
			"name": "getMarketInfo",
			"outputs": [
				{
					"internalType": "string",
					"name": "question",
					"type": "string"
				},
				{
					"internalType": "string",
					"name": "description",
					"type": "string"
				},
				{
					"internalType": "uint256",
					"name": "endTime",
					"type": "uint256"
				},
				{
					"internalType": "enum PolicastMarketV2.MarketCategory",
					"name": "category",
					"type": "uint8"
				},
				{
					"internalType": "uint256",
					"name": "optionCount",
					"type": "uint256"
				},
				{
					"internalType": "bool",
					"name": "resolved",
					"type": "bool"
				},
				{
					"internalType": "bool",
					"name": "disputed",
					"type": "bool"
				},
				{
					"internalType": "uint256",
					"name": "winningOptionId",
					"type": "uint256"
				},
				{
					"internalType": "address",
					"name": "creator",
					"type": "address"
				}
			],
			"stateMutability": "view",
			"type": "function"
		},
		{
			"inputs": [
				{
					"internalType": "uint256",
					"name": "_marketId",
					"type": "uint256"
				},
				{
					"internalType": "uint256",
					"name": "_optionId",
					"type": "uint256"
				}
			],
			"name": "getMarketOption",
			"outputs": [
				{
					"internalType": "string",
					"name": "name",
					"type": "string"
				},
				{
					"internalType": "string",
					"name": "description",
					"type": "string"
				},
				{
					"internalType": "uint256",
					"name": "totalShares",
					"type": "uint256"
				},
				{
					"internalType": "uint256",
					"name": "totalVolume",
					"type": "uint256"
				},
				{
					"internalType": "uint256",
					"name": "currentPrice",
					"type": "uint256"
				},
				{
					"internalType": "bool",
					"name": "isActive",
					"type": "bool"
				}
			],
			"stateMutability": "view",
			"type": "function"
		},
		{
			"inputs": [
				{
					"internalType": "uint256",
					"name": "_marketId",
					"type": "uint256"
				}
			],
			"name": "getMarketStats",
			"outputs": [
				{
					"components": [
						{
							"internalType": "uint256",
							"name": "totalVolume",
							"type": "uint256"
						},
						{
							"internalType": "uint256",
							"name": "participantCount",
							"type": "uint256"
						},
						{
							"internalType": "uint256",
							"name": "averagePrice",
							"type": "uint256"
						},
						{
							"internalType": "uint256",
							"name": "priceVolatility",
							"type": "uint256"
						},
						{
							"internalType": "uint256",
							"name": "lastTradePrice",
							"type": "uint256"
						},
						{
							"internalType": "uint256",
							"name": "lastTradeTime",
							"type": "uint256"
						}
					],
					"internalType": "struct PolicastMarketV2.MarketStats",
					"name": "",
					"type": "tuple"
				}
			],
			"stateMutability": "view",
			"type": "function"
		},
		{
			"inputs": [
				{
					"internalType": "enum PolicastMarketV2.MarketCategory",
					"name": "_category",
					"type": "uint8"
				},
				{
					"internalType": "uint256",
					"name": "_limit",
					"type": "uint256"
				}
			],
			"name": "getMarketsByCategory",
			"outputs": [
				{
					"internalType": "uint256[]",
					"name": "",
					"type": "uint256[]"
				}
			],
			"stateMutability": "view",
			"type": "function"
		},
		{
			"inputs": [
				{
					"internalType": "uint256",
					"name": "_marketId",
					"type": "uint256"
				},
				{
					"internalType": "uint256",
					"name": "_optionId",
					"type": "uint256"
				},
				{
					"internalType": "uint256",
					"name": "_limit",
					"type": "uint256"
				}
			],
			"name": "getPriceHistory",
			"outputs": [
				{
					"components": [
						{
							"internalType": "uint256",
							"name": "price",
							"type": "uint256"
						},
						{
							"internalType": "uint256",
							"name": "timestamp",
							"type": "uint256"
						},
						{
							"internalType": "uint256",
							"name": "volume",
							"type": "uint256"
						}
					],
					"internalType": "struct PolicastMarketV2.PricePoint[]",
					"name": "",
					"type": "tuple[]"
				}
			],
			"stateMutability": "view",
			"type": "function"
		},
		{
			"inputs": [
				{
					"internalType": "bytes32",
					"name": "role",
					"type": "bytes32"
				}
			],
			"name": "getRoleAdmin",
			"outputs": [
				{
					"internalType": "bytes32",
					"name": "",
					"type": "bytes32"
				}
			],
			"stateMutability": "view",
			"type": "function"
		},
		{
			"inputs": [
				{
					"internalType": "address",
					"name": "_user",
					"type": "address"
				}
			],
			"name": "getUserPortfolio",
			"outputs": [
				{
					"components": [
						{
							"internalType": "uint256",
							"name": "totalInvested",
							"type": "uint256"
						},
						{
							"internalType": "uint256",
							"name": "totalWinnings",
							"type": "uint256"
						},
						{
							"internalType": "int256",
							"name": "unrealizedPnL",
							"type": "int256"
						},
						{
							"internalType": "int256",
							"name": "realizedPnL",
							"type": "int256"
						},
						{
							"internalType": "uint256",
							"name": "tradeCount",
							"type": "uint256"
						}
					],
					"internalType": "struct PolicastMarketV2.UserPortfolio",
					"name": "",
					"type": "tuple"
				}
			],
			"stateMutability": "view",
			"type": "function"
		},
		{
			"inputs": [
				{
					"internalType": "uint256",
					"name": "_marketId",
					"type": "uint256"
				},
				{
					"internalType": "address",
					"name": "_user",
					"type": "address"
				}
			],
			"name": "getUserShares",
			"outputs": [
				{
					"internalType": "uint256[]",
					"name": "",
					"type": "uint256[]"
				}
			],
			"stateMutability": "view",
			"type": "function"
		},
		{
			"inputs": [
				{
					"internalType": "address",
					"name": "_account",
					"type": "address"
				}
			],
			"name": "grantMarketValidatorRole",
			"outputs": [],
			"stateMutability": "nonpayable",
			"type": "function"
		},
		{
			"inputs": [
				{
					"internalType": "address",
					"name": "_account",
					"type": "address"
				}
			],
			"name": "grantQuestionCreatorRole",
			"outputs": [],
			"stateMutability": "nonpayable",
			"type": "function"
		},
		{
			"inputs": [
				{
					"internalType": "address",
					"name": "_account",
					"type": "address"
				}
			],
			"name": "grantQuestionResolveRole",
			"outputs": [],
			"stateMutability": "nonpayable",
			"type": "function"
		},
		{
			"inputs": [
				{
					"internalType": "bytes32",
					"name": "role",
					"type": "bytes32"
				},
				{
					"internalType": "address",
					"name": "account",
					"type": "address"
				}
			],
			"name": "grantRole",
			"outputs": [],
			"stateMutability": "nonpayable",
			"type": "function"
		},
		{
			"inputs": [
				{
					"internalType": "bytes32",
					"name": "role",
					"type": "bytes32"
				},
				{
					"internalType": "address",
					"name": "account",
					"type": "address"
				}
			],
			"name": "hasRole",
			"outputs": [
				{
					"internalType": "bool",
					"name": "",
					"type": "bool"
				}
			],
			"stateMutability": "view",
			"type": "function"
		},
		{
			"inputs": [],
			"name": "marketCount",
			"outputs": [
				{
					"internalType": "uint256",
					"name": "",
					"type": "uint256"
				}
			],
			"stateMutability": "view",
			"type": "function"
		},
		{
			"inputs": [
				{
					"internalType": "uint256",
					"name": "",
					"type": "uint256"
				},
				{
					"internalType": "uint256",
					"name": "",
					"type": "uint256"
				}
			],
			"name": "marketOrderBook",
			"outputs": [
				{
					"internalType": "uint256",
					"name": "",
					"type": "uint256"
				}
			],
			"stateMutability": "view",
			"type": "function"
		},
		{
			"inputs": [
				{
					"internalType": "uint256",
					"name": "",
					"type": "uint256"
				},
				{
					"internalType": "uint256",
					"name": "",
					"type": "uint256"
				}
			],
			"name": "marketTrades",
			"outputs": [
				{
					"internalType": "uint256",
					"name": "marketId",
					"type": "uint256"
				},
				{
					"internalType": "uint256",
					"name": "optionId",
					"type": "uint256"
				},
				{
					"internalType": "address",
					"name": "buyer",
					"type": "address"
				},
				{
					"internalType": "address",
					"name": "seller",
					"type": "address"
				},
				{
					"internalType": "uint256",
					"name": "price",
					"type": "uint256"
				},
				{
					"internalType": "uint256",
					"name": "quantity",
					"type": "uint256"
				},
				{
					"internalType": "uint256",
					"name": "timestamp",
					"type": "uint256"
				},
				{
					"internalType": "enum PolicastMarketV2.OrderType",
					"name": "orderType",
					"type": "uint8"
				}
			],
			"stateMutability": "view",
			"type": "function"
		},
		{
			"inputs": [
				{
					"internalType": "uint256",
					"name": "",
					"type": "uint256"
				}
			],
			"name": "markets",
			"outputs": [
				{
					"internalType": "string",
					"name": "question",
					"type": "string"
				},
				{
					"internalType": "string",
					"name": "description",
					"type": "string"
				},
				{
					"internalType": "uint256",
					"name": "endTime",
					"type": "uint256"
				},
				{
					"internalType": "enum PolicastMarketV2.MarketCategory",
					"name": "category",
					"type": "uint8"
				},
				{
					"internalType": "uint256",
					"name": "winningOptionId",
					"type": "uint256"
				},
				{
					"internalType": "bool",
					"name": "resolved",
					"type": "bool"
				},
				{
					"internalType": "bool",
					"name": "disputed",
					"type": "bool"
				},
				{
					"internalType": "bool",
					"name": "validated",
					"type": "bool"
				},
				{
					"internalType": "address",
					"name": "creator",
					"type": "address"
				},
				{
					"internalType": "uint256",
					"name": "totalLiquidity",
					"type": "uint256"
				},
				{
					"internalType": "uint256",
					"name": "totalVolume",
					"type": "uint256"
				},
				{
					"internalType": "uint256",
					"name": "createdAt",
					"type": "uint256"
				},
				{
					"internalType": "uint256",
					"name": "optionCount",
					"type": "uint256"
				},
				{
					"internalType": "uint256",
					"name": "payoutIndex",
					"type": "uint256"
				},
				{
					"internalType": "uint256",
					"name": "feeCollected",
					"type": "uint256"
				},
				{
					"internalType": "uint256",
					"name": "rewardAmount",
					"type": "uint256"
				},
				{
					"internalType": "bool",
					"name": "freeEntry",
					"type": "bool"
				}
			],
			"stateMutability": "view",
			"type": "function"
		},
		{
			"inputs": [],
			"name": "orderCount",
			"outputs": [
				{
					"internalType": "uint256",
					"name": "",
					"type": "uint256"
				}
			],
			"stateMutability": "view",
			"type": "function"
		},
		{
			"inputs": [
				{
					"internalType": "uint256",
					"name": "",
					"type": "uint256"
				}
			],
			"name": "orders",
			"outputs": [
				{
					"internalType": "uint256",
					"name": "id",
					"type": "uint256"
				},
				{
					"internalType": "uint256",
					"name": "marketId",
					"type": "uint256"
				},
				{
					"internalType": "uint256",
					"name": "optionId",
					"type": "uint256"
				},
				{
					"internalType": "address",
					"name": "maker",
					"type": "address"
				},
				{
					"internalType": "enum PolicastMarketV2.OrderType",
					"name": "orderType",
					"type": "uint8"
				},
				{
					"internalType": "enum PolicastMarketV2.OrderSide",
					"name": "side",
					"type": "uint8"
				},
				{
					"internalType": "uint256",
					"name": "price",
					"type": "uint256"
				},
				{
					"internalType": "uint256",
					"name": "quantity",
					"type": "uint256"
				},
				{
					"internalType": "uint256",
					"name": "filled",
					"type": "uint256"
				},
				{
					"internalType": "uint256",
					"name": "timestamp",
					"type": "uint256"
				},
				{
					"internalType": "bool",
					"name": "isActive",
					"type": "bool"
				}
			],
			"stateMutability": "view",
			"type": "function"
		},
		{
			"inputs": [],
			"name": "owner",
			"outputs": [
				{
					"internalType": "address",
					"name": "",
					"type": "address"
				}
			],
			"stateMutability": "view",
			"type": "function"
		},
		{
			"inputs": [],
			"name": "pause",
			"outputs": [],
			"stateMutability": "nonpayable",
			"type": "function"
		},
		{
			"inputs": [],
			"name": "paused",
			"outputs": [
				{
					"internalType": "bool",
					"name": "",
					"type": "bool"
				}
			],
			"stateMutability": "view",
			"type": "function"
		},
		{
			"inputs": [],
			"name": "platformFeeRate",
			"outputs": [
				{
					"internalType": "uint256",
					"name": "",
					"type": "uint256"
				}
			],
			"stateMutability": "view",
			"type": "function"
		},
		{
			"inputs": [
				{
					"internalType": "uint256",
					"name": "",
					"type": "uint256"
				},
				{
					"internalType": "uint256",
					"name": "",
					"type": "uint256"
				},
				{
					"internalType": "uint256",
					"name": "",
					"type": "uint256"
				}
			],
			"name": "priceHistory",
			"outputs": [
				{
					"internalType": "uint256",
					"name": "price",
					"type": "uint256"
				},
				{
					"internalType": "uint256",
					"name": "timestamp",
					"type": "uint256"
				},
				{
					"internalType": "uint256",
					"name": "volume",
					"type": "uint256"
				}
			],
			"stateMutability": "view",
			"type": "function"
		},
		{
			"inputs": [],
			"name": "renounceOwnership",
			"outputs": [],
			"stateMutability": "nonpayable",
			"type": "function"
		},
		{
			"inputs": [
				{
					"internalType": "bytes32",
					"name": "role",
					"type": "bytes32"
				},
				{
					"internalType": "address",
					"name": "callerConfirmation",
					"type": "address"
				}
			],
			"name": "renounceRole",
			"outputs": [],
			"stateMutability": "nonpayable",
			"type": "function"
		},
		{
			"inputs": [
				{
					"internalType": "uint256",
					"name": "_marketId",
					"type": "uint256"
				},
				{
					"internalType": "uint256",
					"name": "_winningOptionId",
					"type": "uint256"
				}
			],
			"name": "resolveMarket",
			"outputs": [],
			"stateMutability": "nonpayable",
			"type": "function"
		},
		{
			"inputs": [
				{
					"internalType": "bytes32",
					"name": "role",
					"type": "bytes32"
				},
				{
					"internalType": "address",
					"name": "account",
					"type": "address"
				}
			],
			"name": "revokeRole",
			"outputs": [],
			"stateMutability": "nonpayable",
			"type": "function"
		},
		{
			"inputs": [
				{
					"internalType": "uint256",
					"name": "_marketId",
					"type": "uint256"
				},
				{
					"internalType": "uint256",
					"name": "_optionId",
					"type": "uint256"
				},
				{
					"internalType": "uint256",
					"name": "_quantity",
					"type": "uint256"
				},
				{
					"internalType": "uint256",
					"name": "_minPricePerShare",
					"type": "uint256"
				}
			],
			"name": "sellShares",
			"outputs": [],
			"stateMutability": "nonpayable",
			"type": "function"
		},
		{
			"inputs": [
				{
					"internalType": "uint256",
					"name": "_feeRate",
					"type": "uint256"
				}
			],
			"name": "setPlatformFeeRate",
			"outputs": [],
			"stateMutability": "nonpayable",
			"type": "function"
		},
		{
			"inputs": [
				{
					"internalType": "bytes4",
					"name": "interfaceId",
					"type": "bytes4"
				}
			],
			"name": "supportsInterface",
			"outputs": [
				{
					"internalType": "bool",
					"name": "",
					"type": "bool"
				}
			],
			"stateMutability": "view",
			"type": "function"
		},
		{
			"inputs": [
				{
					"internalType": "address",
					"name": "",
					"type": "address"
				}
			],
			"name": "totalWinnings",
			"outputs": [
				{
					"internalType": "uint256",
					"name": "",
					"type": "uint256"
				}
			],
			"stateMutability": "view",
			"type": "function"
		},
		{
			"inputs": [],
			"name": "tradeCount",
			"outputs": [
				{
					"internalType": "uint256",
					"name": "",
					"type": "uint256"
				}
			],
			"stateMutability": "view",
			"type": "function"
		},
		{
			"inputs": [
				{
					"internalType": "address",
					"name": "newOwner",
					"type": "address"
				}
			],
			"name": "transferOwnership",
			"outputs": [],
			"stateMutability": "nonpayable",
			"type": "function"
		},
		{
			"inputs": [],
			"name": "unpause",
			"outputs": [],
			"stateMutability": "nonpayable",
			"type": "function"
		},
		{
			"inputs": [
				{
					"internalType": "address",
					"name": "",
					"type": "address"
				},
				{
					"internalType": "uint256",
					"name": "",
					"type": "uint256"
				}
			],
			"name": "userOrders",
			"outputs": [
				{
					"internalType": "uint256",
					"name": "",
					"type": "uint256"
				}
			],
			"stateMutability": "view",
			"type": "function"
		},
		{
			"inputs": [
				{
					"internalType": "address",
					"name": "",
					"type": "address"
				}
			],
			"name": "userPortfolios",
			"outputs": [
				{
					"internalType": "uint256",
					"name": "totalInvested",
					"type": "uint256"
				},
				{
					"internalType": "uint256",
					"name": "totalWinnings",
					"type": "uint256"
				},
				{
					"internalType": "int256",
					"name": "unrealizedPnL",
					"type": "int256"
				},
				{
					"internalType": "int256",
					"name": "realizedPnL",
					"type": "int256"
				},
				{
					"internalType": "uint256",
					"name": "tradeCount",
					"type": "uint256"
				}
			],
			"stateMutability": "view",
			"type": "function"
		},
		{
			"inputs": [
				{
					"internalType": "address",
					"name": "",
					"type": "address"
				},
				{
					"internalType": "uint256",
					"name": "",
					"type": "uint256"
				}
			],
			"name": "userTradeHistory",
			"outputs": [
				{
					"internalType": "uint256",
					"name": "marketId",
					"type": "uint256"
				},
				{
					"internalType": "uint256",
					"name": "optionId",
					"type": "uint256"
				},
				{
					"internalType": "address",
					"name": "buyer",
					"type": "address"
				},
				{
					"internalType": "address",
					"name": "seller",
					"type": "address"
				},
				{
					"internalType": "uint256",
					"name": "price",
					"type": "uint256"
				},
				{
					"internalType": "uint256",
					"name": "quantity",
					"type": "uint256"
				},
				{
					"internalType": "uint256",
					"name": "timestamp",
					"type": "uint256"
				},
				{
					"internalType": "enum PolicastMarketV2.OrderType",
					"name": "orderType",
					"type": "uint8"
				}
			],
			"stateMutability": "view",
			"type": "function"
		},
		{
			"inputs": [
				{
					"internalType": "uint256",
					"name": "_marketId",
					"type": "uint256"
				}
			],
			"name": "validateMarket",
			"outputs": [],
			"stateMutability": "nonpayable",
			"type": "function"
		}
	]
}