{
	"data": {
		"bytecode": {
			"linkReferences": {},
			"object": "6080346100fd57601f616b1738819003918201601f19168301916001600160401b03831184841017610101578084926020946040528339810103126100fd57516001600160a01b03811681036100fd5733156100ea575f8054336001600160a01b0319821681178355916001600160a01b03909116907f8be0079c531659141344cd1fd0a4f28419497f9722a3daafe3b4186f6b6457e09080a36001805560c86009556103e8600a5560038054610100600160a81b03191660089290921b610100600160a81b0316919091179055426005556100da33610115565b50604051616958908161019f8239f35b631e4fbdf760e01b5f525f60045260245ffd5b5f80fd5b634e487b7160e01b5f52604160045260245ffd5b6001600160a01b0381165f9081525f516020616af75f395f51905f52602052604090205460ff16610199576001600160a01b03165f8181525f516020616af75f395f51905f5260205260408120805460ff191660011790553391907f2f8788117e7eff1d82e926ec794901d17c78024a50270940304540a733656f0d8180a4600190565b505f9056fe6080806040526004361015610012575f80fd5b5f3560e01c90816301ffc9a714615b055750806305e33dd014615ac357806308693f3c14615a7e5780630da183d614615a635780631029191a14615a4657806312c413af14615a2b578063155719811461597a5780631cb1de2f146159015780631edb27e91461586757806321b86dc214615846578063222fa267146157a25780632453ffa814615785578063248a9ca31461575a578063257ff7b61461572b57806326e127521461565757806329cf655b1461435d5780632a49b42814614e165780632f2ff15d14614dd857806332617b7014614d9e57806333031b06146145a257806335037e0b1461452657806336568abe146144e25780633ec791931461440c5780633f4ba83a146143a6578063417257f91461438957806343425e881461435d5780634a2021ef1461418e5780634bdd45fb1461416657806358057fe514613fcd5780635a2db6fb14613b395780635c975abb14613b175780636055733314613960578063677bd9ff146136b35780636db3b4dc146136375780636eae4297146134e1578063715018a61461348a57806373af16fc14613245578063755f06291461320b57806377b4a3e7146131d15780637c946454146130695780637e50898e1461304b578063835dc40b14612fb75780638456cb5914612f5e578063856652e914612f155780638b8840e014612edd5780638da5cb5b14612eb657806391d1485414612e6d578063927fef2e14612e0a57806392f012b214612dee578063a217fddf14612dd4578063a75dd11514612d7a578063a85c38ef14612cbe578063a8cc7f1914612cad578063ab44e63514612b5d578063abdce1a414612ae1578063b1ab13ff14612aa6578063b41acdbe14612a6e578063b61920c114612a0a578063bd55022a146129ed578063c07d144914612664578063c2454af7146125cc578063d547741f14612587578063d8c39bd71461253a578063d911f19814611ad1578063e9ca202614611707578063eb44fdd3146115e3578063ec979082146104f0578063ed88123014611145578063eeca08f014611128578063f2fde38b146110a3578063f355f2e714610fde578063f98ce1ba14610576578063fc12524c1461050d578063fd69f3c2146104f05763fdd3cdf614610355575f80fd5b346104ec5760203660031901126104ec5761036e615b99565b5f546001600160a01b0316331480156104b5575b1561045b576001600160a01b0381169061039d821515615edd565b600354600881901c6001600160a01b03169183831461041d57600480546001600160a01b03191684179055610100600160a81b031990911660089190911b610100600160a81b0316176003554260058190556040519081527fa16c473a31f9f07338cd1d3ccebda80cefdc0cb743aec539af892abfbf5a534e90602090a3005b60405162461bcd60e51b815260206004820152601660248201527514d85b59481d1bdad95b88185b1c9958591e481cd95d60521b6044820152606490fd5b60405162461bcd60e51b815260206004820152602c60248201527f4f6e6c79206f776e6572206f722061646d696e2063616e20757064617465206260448201526b32ba3a34b733903a37b5b2b760a11b6064820152608490fd5b50335f9081527fac33ff75c19e70fe83507db0d683fd3465c996598dc972688b7ace676c89077b602052604090205460ff16610382565b5f80fd5b346104ec575f3660031901126104ec576020600654604051908152f35b346104ec5760203660031901126104ec576004356105296164c4565b6105366006548210615f4b565b805f52600b602052600560405f2001600160ff198254161790557f0b939016779c3297135b58aed6d343cf103faf818ea07a7c5f87b03a9bd872975f80a2005b346104ec5760e03660031901126104ec576004356001600160401b0381116104ec576105a6903690600401615d3b565b6024356001600160401b0381116104ec576105c5903690600401615d3b565b6044356001600160401b0381116104ec576105e4903690600401615da7565b6064356001600160401b0381116104ec57610603903690600401615da7565b6084359060a43560088110156104ec5760c4359360038510156104ec576106286164ea565b6106306164ea565b5f546001600160a01b031633148015610fba575b15610f7657610e1084101580610f68575b15610f3057865115610eeb57805160028110159081610edf575b5015610e9a578051835103610e44576003546040516323b872dd60e01b8152336004820152306024820152683635c9adc5dea00000604482015290602090829060649082905f9060081c6001600160a01b03165af1908115610e39575f91610e0a575b5015610dc557600654936106e5856160ef565b600655845f52600b60205260405f209688516001600160401b038111610a9a5761070f8954615f8f565b601f8111610d80575b50806020601f8211600114610d1d575f91610d12575b508160011b915f199060031b1c19161788555b805160018901916001600160401b038211610a9a576107608354615f8f565b601f8111610ccd575b50602090601f8311600114610c65576107a1949392915f9183610c5a575b50508160011b915f199060031b1c19161790555b42616099565b6002870190815560038701805461ffff191660ff851617600888811b61ff0016919091179091556005880180546301000000600160b81b0319163360181b6301000000600160b81b03161790554290880155815160098801819055683635c9adc5dea00000600a8901559097908015610c4657670de0b6b3a7640000049582518015610c4657600b9098019897683635c9adc5dea0000004935f5b8451811015610b6c5761084f81866160c3565b51868c61085c848b6160c3565b516040519361086a85615cfe565b8452602084019081528c604085015f815260608601905f82526080870192835260a08701936001855260c088019587875260e08901978852895f5260205260405f2097518051906001600160401b038211610a9a5781906108cb8b54615f8f565b601f8111610b1c575b50602090601f8311600114610ab9575f92610aae575b50508160011b915f199060031b1c19161788555b51805160018901916001600160401b038211610a9a5761091e8354615f8f565b601f8111610a55575b50602090601f83116001146109e357928261098e969360019d9c9b99969360079b99965f926109d8575b50505f19600383901b1c1916908d1b1790555b516002890155516003880155516004870155511515600586019060ff801983541691151516179055565b51600684015551910155885f52601060205260405f20815f526020526109d260405f20604051906109be82615ce3565b8c82524260208301525f60408301526160fd565b0161083c565b015190505f80610951565b90601f19831691845f52815f20925f5b818110610a3d57509360019d9c9b99969360079b9996938f938361098e9b9810610a25575b505050811b019055610964565b01515f1960f88460031b161c191690555f8080610a18565b929360206001819287860151815501950193016109f3565b835f5260205f20601f840160051c81019160208510610a90575b601f0160051c01905b818110610a855750610927565b5f8155600101610a78565b9091508190610a6f565b634e487b7160e01b5f52604160045260245ffd5b015190505f806108ea565b5f8c81528281209350601f198516905b818110610b045750908460019594939210610aec575b505050811b0188556108fe565b01515f1960f88460031b161c191690555f8080610adf565b92936020600181928786015181550195019301610ac9565b9091508a5f5260205f20601f840160051c81019160208510610b62575b90601f859493920160051c01905b818110610b5457506108d4565b5f8155849350600101610b47565b9091508190610b39565b50869184918a610b8485610b7f84615ea2565b61614e565b610b9185610b7f85615eb9565b54610ba76040519660c0885260c0880190615c50565b8681036020880152845180825260208201916020808360051b8301019701925f915b838310610c195750602089805f5160206169035f395f51905f528d808d610c088e610bfe8f8f60408701526060860190615e25565b6080840190615ed0565b3360a08301520390a2604051908152f35b9091929397602080610c37600193601f198682030187528c51615c50565b9a019301930191939290610bc9565b634e487b7160e01b5f52601260045260245ffd5b015190508c80610787565b90601f19831691845f52815f20925f5b818110610cb557509160019391856107a19897969410610c9d575b505050811b01905561079b565b01515f1960f88460031b161c191690558c8080610c90565b92936020600181928786015181550195019301610c75565b835f5260205f20601f840160051c81019160208510610d08575b601f0160051c01905b818110610cfd5750610769565b5f8155600101610cf0565b9091508190610ce7565b90508a01518b61072e565b5f8b81528181209250601f198416905b8d828210610d685750509083600194939210610d50575b5050811b018855610741565b8c01515f1960f88460031b161c191690558b80610d44565b60018495602093958493015181550194019201610d2d565b895f5260205f20601f830160051c81019160208410610dbb575b601f0160051c01905b818110610db05750610718565b5f8155600101610da3565b9091508190610d9a565b60405162461bcd60e51b815260206004820152601960248201527f4c6971756964697479207472616e73666572206661696c6564000000000000006044820152606490fd5b610e2c915060203d602011610e32575b610e248183615d1a565b8101906160d7565b886106d2565b503d610e1a565b6040513d5f823e3d90fd5b60405162461bcd60e51b815260206004820152602860248201527f4f7074696f6e7320616e64206465736372697074696f6e73206c656e677468206044820152670dad2e6dac2e8c6d60c31b6064820152608490fd5b60405162461bcd60e51b815260206004820152601960248201527f496e76616c6964206e756d626572206f66206f7074696f6e73000000000000006044820152606490fd5b600a915011158861066f565b60405162461bcd60e51b815260206004820152601860248201527f5175657374696f6e2063616e6e6f7420626520656d70747900000000000000006044820152606490fd5b60405162461bcd60e51b815260206004820152601060248201526f24b73b30b634b210323ab930ba34b7b760811b6044820152606490fd5b506301e13380841115610655565b606460405162461bcd60e51b815260206004820152602060248201527f4e6f7420617574686f72697a656420746f20637265617465206d61726b6574736044820152fd5b50335f9081525f5160206168e35f395f51905f52602052604090205460ff16610644565b346104ec57610fec36615e50565b915f52600b602052600b60405f2001905f5260205260405f2060066007820154838082115f146110995761101f91616182565b915b015491670de0b6b3a7640000830292808404670de0b6b3a764000014901517156110855761105b61106092670de0b6b3a7640000946160b9565b6160a6565b046103e58102908082046103e51490151715611085576020906103e860405191048152f35b634e487b7160e01b5f52601160045260245ffd5b5060011c91611021565b346104ec5760203660031901126104ec576110bc615b99565b6110c46164c4565b6001600160a01b03168015611115575f80546001600160a01b03198116831782556001600160a01b0316907f8be0079c531659141344cd1fd0a4f28419497f9722a3daafe3b4186f6b6457e09080a3005b631e4fbdf760e01b5f525f60045260245ffd5b346104ec575f3660031901126104ec576020600954604051908152f35b346104ec5761115336615e32565b61115e929192616846565b6111666164ea565b6111736006548510615f4b565b835f52600b60205261118d600260405f200154421061618f565b835f52600b6020526111a960ff600560405f20015416156161ce565b835f52600b6020526111c3600960405f200154831061621a565b835f52600b602052600b60405f2001825f526020526111eb60ff600560405f20015416616257565b6111f6831515616297565b835f52600b60205260ff600560405f20015460101c16156115a7575f848152600b60208181526040808420868552928301909152909120600481015490939192919091821161157157670de0b6b3a764000061125286846160a6565b0494612710611263600954886160a6565b049361126f8588616099565b6003546040516323b872dd60e01b815233600482015230602482015260448101839052919290602090839060081c6001600160a01b0316815f816064810103925af1918215610e39576010926112cc915f91611552575b506163d8565b335f908152600c820160208181526040808420898552909152909120541580611542575b611516575b60018060a01b0333165f5260205260405f20855f5260205260405f2061131c858254616099565b90556002880161132d858254616099565b90556003880161133e8a8254616099565b90556006810161134f8a8254616099565b9055600781016113608a8254616099565b90550161136e868254616099565b9055335f52600d60205261138760405f20918254616099565b9055335f52600d602052600460405f20016113a281546160ef565b9055865f52600b602052600b60405f2001825f5260205260405f206113d1826006600784015493015492616099565b670de0b6b3a7640000820291808304670de0b6b3a76400001490151715611085577faf7c505ee772ec188af7067e1f73db08ab028e3d564273442b907742b9c41fa09760209761142660049361145e956160b9565b9283910155895f526010885260405f20855f52885260405f20906040519261144d84615ce3565b8352428984015260408301526160fd565b6114bd60405161146d81615cfe565b88815283878201523360408201525f60608201528460808201528260a08201524260c08201525f60e0820152335f52600e87526114ad8160405f20616325565b885f52600f875260405f20616325565b600854906114ca826160ef565b600855604051935f85528685015260408401526060830152857f976184626638b6c7e51a4ab66b297beb1714b545ce4e867a70d622566573098c60803394a4604051908152a260018055005b61152333600e84016164a7565b335f52600d60205260405f20546112f55761153d33616462565b6112f5565b5061154d8b33616866565b6112f0565b61156b915060203d602011610e3257610e248183615d1a565b8c6112c6565b60405162461bcd60e51b815260206004820152600e60248201526d0a0e4d2c6ca40e8dede40d0d2ced60931b6044820152606490fd5b60405162461bcd60e51b815260206004820152601460248201527313585c9ad95d081b9bdd081d985b1a59185d195960621b6044820152606490fd5b346104ec5760203660031901126104ec576004356116046006548210615f4b565b5f52600b60205260405f206101e060028201548260038101546004820154600583015460068401546007850154916008860154936116a660098801549661168061165e6001611657600a8d01549c615fc7565b9e01615fc7565b6116726040519e8f9e8f8181520190615c50565b8d810360208f015290615c50565b9960408c015261169660608c0160ff8316615e25565b60ff60808c019160081c16615ed0565b60a089015260ff818116151560c08a0152600882901c8116151560e08a0152601082901c16151561010089015260181c6001600160a01b03166101208801526101408701526101608601526101808501526101a08401526101c08301520390f35b346104ec5760a03660031901126104ec5760443560643560043560243561172c616846565b6117346164ea565b6117416006548310615f4b565b815f52600b60205261175b600260405f200154421061618f565b815f52600b60205261177760ff600560405f20015416156161ce565b838114611a8c5782159261178b8415616416565b825f52600b602052600c60405f200160018060a01b0333165f5260205260405f20825f526020526117c28160405f205410156162e3565b825f52600b60205260405f2091600b830191815f528260205260405f2092875f5260205260405f209660078401805460078a01968754996126f28602908682046126f2141715611085578a61182961182261271061182f940480936160a6565b9185616099565b906160b9565b996084358b10611a47578a1015611a095761184c85600c93616099565b83556118598a8954616182565b88550160018060a01b0333165f528060205260405f20855f5260205260405f20611884858254616182565b905560018060a01b0333165f5260205260405f20825f5260205260405f206118ad898254616099565b9055600685015490670de0b6b3a7640000820291808304670de0b6b3a76400001490151715611085576004916118e49154906160b9565b94019384556006880154670de0b6b3a7640000810290808204670de0b6b3a764000014901517156110855760209861199860a096600461194a6119e1957fca95f9f211eceb8cf82eff4e16ae708336f056d94515a268f4b8fd1f5c08ef509b54906160b9565b9301928355895f5260108c5260405f20875f528c5260405f20905490670de0b6b3a764000061197983896160a6565b046040519261198784615ce3565b8352428e84015260408301526160fd565b875f5260108a5260405f20835f528a5260405f20905490670de0b6b3a76400006119c2838c6160a6565b04604051926119d084615ce3565b8352428c84015260408301526160fd565b604051928352878301526040820152846060820152336080820152a260018055604051908152f35b60405162461bcd60e51b8152602060048201526016602482015275496e73756666696369656e74206c697175696469747960501b6044820152606490fd5b60405162461bcd60e51b815260206004820152601a60248201527f496e73756666696369656e74206f757470757420616d6f756e740000000000006044820152606490fd5b60405162461bcd60e51b815260206004820152601760248201527f43616e6e6f7420737761702073616d65206f7074696f6e0000000000000000006044820152606490fd5b6101203660031901126104ec576004356001600160401b0381116104ec57611afd903690600401615d3b565b6024356001600160401b0381116104ec57611b1c903690600401615d3b565b6044356001600160401b0381116104ec57611b3b903690600401615da7565b916064356001600160401b0381116104ec57611b5b903690600401615da7565b6084359060a4359260088410156104ec5760e4356001600160401b0381116104ec57611b8b903690600401615d3b565b956101043594611b996164ea565b34156124fc57611ba76164ea565b5f546001600160a01b0316331480156124d8575b15610f7657610e10851015806124ca575b15610f3057825115610eeb578151600281101590816124be575b5015610e9a578151845103610e445768056bc75e2d631000008610612463576003546040516323b872dd60e01b81523360048201523060248201526044810188905290602090829060081c6001600160a01b0316815f816064810103925af1908115610e39575f91612444575b5015610dc55760065494611c66866160ef565b600655855f52600b60205260405f209784516001600160401b038111610a9a57611c908a54615f8f565b601f81116123ff575b50806020601f821160011461239e575f91612393575b508160011b915f199060031b1c19161789555b805160018a01916001600160401b038211610a9a57611ce18354615f8f565b601f811161234e575b50602090601f83116001146122e757611d20949392915f91836122dc5750508160011b915f199060031b1c191617905542616099565b6002880190815560038801805461ffff191660ff8416176102001790556005880180546301000000600160b81b0319163360181b6301000000600160b81b0316179055426008890155825160098901819055600a89018890559098908015610c4657611d9c90670de0b6b3a76400009a999a04978451906160b9565b93600b5f9a01995b845181101561208657611db781866160c3565b51868c611dc4848b6160c3565b5160405193611dd285615cfe565b8452602084019081528c604085015f815260608601905f82526080870192835260a08701936001855260c088019587875260e08901978852895f5260205260405f2097518051906001600160401b038211610a9a578190611e338b54615f8f565b601f8111612036575b50602090601f8311600114611fd3575f92611fc8575b50508160011b915f199060031b1c19161788555b51805160018901916001600160401b038211610a9a57611e868354615f8f565b601f8111611f83575b50602090601f8311600114611f2a579282611ef4969360019d9c9b99969360079b99965f926109d85750505f19600383901b1c1916908d1b179055516002890155516003880155516004870155511515600586019060ff801983541691151516179055565b51600684015551910155885f52601060205260405f20815f52602052611f2460405f20604051906109be82615ce3565b01611da4565b90601f19831691845f52815f20925f5b818110611f6b57509360019d9c9b99969360079b9996938f9383611ef49b9810610a2557505050811b019055610964565b92936020600181928786015181550195019301611f3a565b835f5260205f20601f840160051c81019160208510611fbe575b601f0160051c01905b818110611fb35750611e8f565b5f8155600101611fa6565b9091508190611f9d565b015190505f80611e52565b5f8c81528281209350601f198516905b81811061201e5750908460019594939210612006575b505050811b018855611e66565b01515f1960f88460031b161c191690555f8080611ff9565b92936020600181928786015181550195019301611fe3565b9091508a5f5260205f20601f840160051c8101916020851061207c575b90601f859493920160051c01905b81811061206e5750611e3c565b5f8155849350600101612061565b9091508190612053565b508690848a61209884610b7f88615ea2565b6120a684610b7f6002615eb9565b54946120bd6040519360c0855260c0850190615c50565b958387036020850152825180885260208801906020808260051b8b01019501915f905b8282106122b0575050505060408401526120fe906060840190615e25565b81805f5160206169035f395f51905f529260026080879601523360a08301520390a25f818152600b602052604090206017810180546001600160a01b0319163317905534601882015560c435601982015582519290601b016001600160401b038411610a9a5761216e8154615f8f565b93601f8511612257575b602094508085601f82116001146121f7575f916121ec575b508160011b915f199060031b1c19161790555b817f5ecba3331a79c832c0833d5f1b33759b26d8743c93f4a1b5402053fcbe29de84604051348152604086820152806121e133956040830190615c50565b0390a3604051908152f35b905083015186612190565b5f8481528181209250601f198416905b81811061224057509083600194939210612228575b5050811b0190556121a3565b8501515f1960f88460031b161c19169055868061221c565b91928860018192868a015181550194019201612207565b815f5260205f20601f820160051c81019560208310612292575b601f0160051c01945b8581106122875750612178565b5f815560010161227a565b9095508590612271565b634e487b7160e01b5f52602160045260245ffd5b909192956020806122ce6001938e601f199082030186528a51615c50565b9801920192019092916120e0565b015190508d80610787565b90601f19831691845f52815f20925f5b8181106123365750916001939185611d20989796941061231e57505050811b01905561079b565b01515f1960f88460031b161c191690558d8080610c90565b929360206001819287860151815501950193016122f7565b835f5260205f20601f840160051c81019160208510612389575b601f0160051c01905b81811061237e5750611cea565b5f8155600101612371565b9091508190612368565b90508601518c611caf565b5f8c81528181209250601f198416905b8181106123e7575090836001949392106123cf575b5050811b018955611cc2565b8801515f1960f88460031b161c191690558c806123c3565b9192602060018192868d0151815501940192016123ae565b8a5f5260205f20601f830160051c8101916020841061243a575b601f0160051c01905b81811061242f5750611c99565b5f8155600101612422565b9091508190612419565b61245d915060203d602011610e3257610e248183615d1a565b89611c53565b60405162461bcd60e51b815260206004820152602d60248201527f4d696e696d756d2031303020746f6b656e7320696e697469616c206c6971756960448201526c191a5d1e481c995c5d5a5c9959609a1b6064820152608490fd5b600a9150111589611be6565b506301e13380851115611bcc565b50335f9081525f5160206168e35f395f51905f52602052604090205460ff16611bbb565b60405162461bcd60e51b815260206004820152601660248201527514dc1bdb9cdbdc881c1c9a5e99481c995c5d5a5c995960521b6044820152606490fd5b346104ec5760403660031901126104ec5760043560038110156104ec5761256360243591615eb9565b80548210156104ec5760209161257891615b84565b90549060031b1c604051908152f35b346104ec5760403660031901126104ec576125ca6004356125a6615baf565b906125c56125c0825f526002602052600160405f20015490565b616505565b6167c2565b005b346104ec576125e46125dd36615e83565b9190615ea2565b8054908183111561265d57815b6125fa83616067565b93808211156126555761260c91616182565b5f5b83811061262757604051806126238782615c74565b0390f35b8061263d61263760019385616099565b85615b84565b90549060031b1c61264e82886160c3565b520161260e565b50505f61260c565b82916125f1565b346104ec5761267236615c3a565b9061267b616846565b6126836164ea565b6126906006548210615f4b565b805f52600b6020526126aa600260405f200154421061618f565b805f52600b6020526126c660ff600560405f20015416156161ce565b805f52600b6020526126e0600960405f200154831061621a565b805f52600b602052600b60405f2001825f5260205261270860ff600560405f20015416616257565b805f52600b60205260405f2060ff600382015460081c16600381101561229c576001036129b45760ff6014820154161561296f57335f90815260158201602081905260409091205460ff1661292a5760138201918254601182015411156128f357335f52601660205260405f20549261278660128301548095616099565b600a54106128b557335f90815260209384526040808220805460ff1916600117905560168401909452929092208390558154600b92906127c5906160ef565b9055335f52601660205260405f206127de848254616099565b90556127ea8433616866565b612889575b60018060a01b0333165f52600c810160205260405f20855f5260205260405f2061281a848254616099565b9055845f5201602052600260405f2001612835828254616099565b9055335f52600d602052600460405f200161285081546160ef565b905560405192835260208301527fba1358e4391d1f20b35776c79553f82c2795e406eb2237bcd294702bf75bd56d60403393a360018055005b61289633600e83016164a7565b335f52600d60205260405f20546127ef576128b033616462565b6127ef565b60405162461bcd60e51b815260206004820152601660248201527545786365656473206672656520616c6c6f77616e636560501b6044820152606490fd5b60405162461bcd60e51b815260206004820152600f60248201526e119c9959481cdb1bdd1cc8199d5b1b608a1b6044820152606490fd5b60405162461bcd60e51b815260206004820152601b60248201527f416c726561647920636c61696d656420667265652073686172657300000000006044820152606490fd5b60405162461bcd60e51b815260206004820152601b60248201527f4672656520656e747279206e6f206c6f6e6765722061637469766500000000006044820152606490fd5b60405162461bcd60e51b8152602060048201526011602482015270139bdd081848199c9959481b585c9ad95d607a1b6044820152606490fd5b346104ec575f3660031901126104ec576020600854604051908152f35b346104ec5760203660031901126104ec576001600160a01b03612a2b615b99565b165f52600d60205260a060405f20805490600181015490600281015460046003830154920154926040519485526020850152604084015260608301526080820152f35b346104ec5760203660031901126104ec576001600160a01b03612a8f615b99565b165f526016602052602060405f2054604051908152f35b346104ec576020612ad9612ab936615c3a565b905f52600b602052600b60405f2001905f52602052600460405f20015490565b604051908152f35b346104ec5760203660031901126104ec576125ca612afd615b99565b612b056164c4565b7fd486618b282cb35034d59c30c062b5b3822d6cdf87ec459191ce7f5b7b8a48735f5260026020527fd3dccf8d8289b9deee17e361620d7577de7b525dd57f668d5c1bb85ec53112b654612b5890616505565b616690565b346104ec5760203660031901126104ec57600435612b7e6006548210615f4b565b335f9081527fd3dccf8d8289b9deee17e361620d7577de7b525dd57f668d5c1bb85ec53112b5602052604090205460ff168015612c9a575b15612c6457805f52600b60205260ff600560405f20015460101c16612c1f57805f52600b602052600560405f20016201000062ff0000198254161790557fcd5b0c95d548cdba5f9a45b4210642d0b866a0cc878e0a863855455908c6db656020604051338152a2005b60405162461bcd60e51b815260206004820152601860248201527f4d61726b657420616c72656164792076616c69646174656400000000000000006044820152606490fd5b60405162461bcd60e51b815260206004820152600e60248201526d139bdd08185d5d1a1bdc9a5e995960921b6044820152606490fd5b505f546001600160a01b03163314612bb6565b346104ec576125636125dd36615e83565b346104ec5760203660031901126104ec576004355f52600c60205261016060405f208054906001810154906002810154600382015460ff8160a01c1660ff8260a81c1660048501549160058601549360068701549560ff600860078a015499015416986040519a8b5260208b015260408a015260018060a01b03166060890152612d4781615bde565b6080880152612d5581615bde565b60a087015260c086015260e08501526101008401526101208301521515610140820152f35b346104ec57612d8836615e50565b915f52601060205260405f20905f5260205260405f2080548210156104ec57606091612db391615e6a565b50805490600260018201549101549060405192835260208301526040820152f35b346104ec575f3660031901126104ec5760206040515f8152f35b346104ec575f3660031901126104ec576020604051610e108152f35b346104ec5760203660031901126104ec57600435612e266164c4565b6103e88111612e3457600955005b60405162461bcd60e51b815260206004820152601160248201527008ccaca40e4c2e8ca40e8dede40d0d2ced607b1b6044820152606490fd5b346104ec5760403660031901126104ec57612e86615baf565b6004355f52600260205260405f209060018060a01b03165f52602052602060ff60405f2054166040519015158152f35b346104ec575f3660031901126104ec575f546040516001600160a01b039091168152602090f35b346104ec5760203660031901126104ec576001600160a01b03612efe615b99565b165f526014602052602060405f2054604051908152f35b346104ec5760403660031901126104ec57612f2e615b99565b6001600160a01b03165f908152601260205260409020805460243591908210156104ec5760209161257891615b84565b346104ec575f3660031901126104ec57612f766164c4565b612f7e6164ea565b600160ff1960035416176003557f62e78cea01bee320cd4e420270b5ea74000d11b0c9f74754ebdbfc544b05a2586020604051338152a1005b346104ec5760403660031901126104ec57600435612fd3615baf565b90612fe16006548210615f4b565b5f52600b60205260405f2090600982015490612ffc82616067565b92600c01906001600160a01b03165f5b83811061302157604051806126238782615c74565b600190825f528360205260405f20815f5260205260405f205461304482886160c3565b520161300c565b346104ec575f3660031901126104ec5760206040516301e133808152f35b346104ec5761307736615e50565b915f52601060205260405f20905f5260205260405f208054908183115f146131ca57815b6130a483615d90565b936130b26040519586615d1a565b838552601f196130c185615d90565b015f5b8181106131a157505080821115613199576130de91616182565b5f5b83811061314357846040518091602082016020835281518091526020604084019201905f5b818110613113575050500390f35b91935091602060606001926040875180518352848101518584015201516040820152019401910191849392613105565b8061315961315360019385616099565b85615e6a565b5060026040519161316983615ce3565b805483528481015460208401520154604082015261318782886160c3565b5261319281876160c3565b50016130e0565b50505f6130de565b6020906040516131b081615ce3565b5f81525f838201525f604082015282828a010152016130c4565b829161309b565b346104ec575f3660031901126104ec5760206040517fef485be696bbc0c91ad541bbd553ffb5bd0e18dac30ba76e992dda23cb807a8a8152f35b346104ec575f3660031901126104ec5760206040517fdcee1d35c83a32b436264a5c9afd68685c124f3f9097e87804c55410e67fc59a8152f35b346104ec5761325336615c3a565b6017549081831015613445578161326a8285616099565b111561343557505b61327c8282616182565b9161328683615d90565b926132946040519485615d1a565b8084526132a3601f1991615d90565b015f5b81811061341e575050805b82811061332e57836040518091602082016020835281518091526020604084019201905f5b8181106132e4575050500390f35b91935091602060a0600192608087518580851b03815116835284810151858401526040810151604084015260608101516060840152015160808201520194019101918493926132d6565b61333781615b58565b60018060a01b0391549060031b1c1690815f52600d60205260405f20916040519061336182615cad565b83548252600184015491600460208201958487526002810154604084015260038101546060840152015494608082019580875215155f1461340f57606484029380850460641490151715611085576001956133c1613408958451906160b9565b915b519251905192604051946133d686615cad565b855260208501526040840152606083015260808201526133f68584616182565b9061340182896160c3565b52866160c3565b50016132b1565b61340893506001955f916133c3565b602090613429615f21565b828288010152016132a6565b613440915082616099565b613272565b60405162461bcd60e51b815260206004820152601960248201527f537461727420696e646578206f7574206f6620626f756e6473000000000000006044820152606490fd5b346104ec575f3660031901126104ec576134a26164c4565b5f80546001600160a01b0319811682556001600160a01b03167f8be0079c531659141344cd1fd0a4f28419497f9722a3daafe3b4186f6b6457e08280a3005b346104ec576134ef36615c3a565b906134f8616846565b6135056006548210615f4b565b613510821515616416565b6003546040516323b872dd60e01b81523360048201523060248201526044810184905290602090829060081c6001600160a01b0316815f816064810103925af18015610e3957613566915f9161361857506163d8565b805f52600b60205260405f2090600a8201613582848254616099565b905560098201916135948354856160b9565b91600b5f9201915b84548110156135e457806001915f5283602052600660405f20016135c1868254616099565b9055805f5283602052600760405f20016135dc868254616099565b90550161359c565b85826040519182527fc733c2813826d31c105dbff518b08258e9e7aeb3eb1c7c7f642d77696faf501d60203393a360018055005b613631915060203d602011610e3257610e248183615d1a565b846112c6565b346104ec5760203660031901126104ec576125ca613653615b99565b61365b6164c4565b7fef485be696bbc0c91ad541bbd553ffb5bd0e18dac30ba76e992dda23cb807a8a5f5260026020527f30d995518b427f5a5863ad73fe356ca50cf70941f42c516830919c845fa58070546136ae90616505565b6165fd565b346104ec5760203660031901126104ec576004356136cf616846565b6136dc6006548210615f4b565b805f52600b60205260405f2090600582015460ff81169081613951575b501561390c57600d82019160018060a01b0333165f528260205260ff60405f2054166138d557335f908152600c820160209081526040808320600485015480855292529091205490811561389c57826137bc6137c192600b6137c79601815f52806020526137956006600260405f200154950154835f5282602052670de0b6b3a764000061378e600460405f200154886160a6565b0490616182565b915f52602052670de0b6b3a76400006137b5600460405f200154876160a6565b04946160a6565b6160b9565b90616099565b9160018060a01b0333165f5260205260405f20600160ff19825416179055335f52600d602052600160405f20016137ff838254616099565b9055335f52601460205260405f20613818838254616099565b905560035460405163a9059cbb60e01b81523360048201526024810184905290602090829060081c6001600160a01b0316815f816044810103925af18015610e395761386a915f9161361857506163d8565b6040519182527f4ec90e965519d92681267467f775ada5bd214aa92c0dc93d90a5e880ce9ed02660203393a360018055005b60405162461bcd60e51b81526020600482015260116024820152704e6f2077696e6e696e672073686172657360781b6044820152606490fd5b60405162461bcd60e51b815260206004820152600f60248201526e105b1c9958591e4818db185a5b5959608a1b6044820152606490fd5b60405162461bcd60e51b815260206004820152601b60248201527f4d61726b6574206e6f7420726561647920666f7220636c61696d7300000000006044820152606490fd5b60ff915060081c1615836136f9565b346104ec5761396e36615c3a565b61397b6006548310615f4b565b5f546001600160a01b031633148015613ae0575b15613a9157815f52600b60205260405f209060028201544210613a4c5760058201908154916139c160ff8416156161ce565b6009840154821015613a0e5760016040938360047fc160a477581cb2155b1578581d805dcc0e6623403811fc2853465045bc0b049297015560ff19161790558151908152336020820152a2005b60405162461bcd60e51b815260206004820152601660248201527524b73b30b634b2103bb4b73734b7339037b83a34b7b760511b6044820152606490fd5b60405162461bcd60e51b815260206004820152601860248201527f4d61726b657420686173206e6f7420656e6465642079657400000000000000006044820152606490fd5b60405162461bcd60e51b815260206004820152602160248201527f4e6f7420617574686f72697a656420746f207265736f6c7665206d61726b65746044820152607360f81b6064820152608490fd5b50335f9081527f8e2c297e756b2a427c5dc4607f639842a8ea6e0f6322302f4ea76306b642cfc2602052604090205460ff1661398f565b346104ec575f3660031901126104ec57602060ff600354166040519015158152f35b346104ec57613b4736615e32565b613b4f616846565b613b576164ea565b613b646006548510615f4b565b835f52600b602052613b7e600260405f200154421061618f565b835f52600b602052613b9a60ff600560405f20015416156161ce565b835f52600b602052613bb4600960405f200154841061621a565b835f52600b602052600b60405f2001835f52602052613bdc60ff600560405f20015416616257565b613be7821515616297565b835f52600b602052600c60405f200160018060a01b0333165f5260205260405f20835f52602052613c1e8260405f205410156162e3565b5f848152600b602081815260408084208785529283019091529091206004810154909491929190918210613f9857670de0b6b3a7640000613c5f85846160a6565b0494612710613c70600954886160a6565b04936010613c7e8689616182565b9160018060a01b0333165f52600c810160205260405f20855f5260205260405f20613caa898254616182565b905560028401613cbb898254616182565b905560038401613ccc8a8254616099565b905560078101613cdd8a8254616099565b905501613ceb868254616099565b9055875f52600b602052600b60405f2001835f5260205260405f206006600782015491015490878082115f14613f8e57613d2491616182565b905b670de0b6b3a7640000810290808204670de0b6b3a7640000149015171561108557600491613d53916160b9565b9201918255670de0b6b3a7640000613d6b87866160a6565b04905f82820392128183128116908284139015161761108557335f52600d602052600360405f200180545f8482019485129112908015821691151617611085575f98602094613ea594613e089355338b52600d8652600460408c2001613dd181546160ef565b90558b8b526010865260408b20878c52865260408b2090549160405192613df784615ce3565b8352428784015260408301526160fd565b613e67604051613e1781615cfe565b8a815285858201528960408201523360608201528660808201528860a08201524260c08201528960e0820152338a52600e8552613e578160408c20616325565b8a8a52600f855260408a20616325565b60035460405163a9059cbb60e01b815233600482015260248101929092529097889260089290921c6001600160a01b03169183919082906044820190565b03925af1938415610e39577f976184626638b6c7e51a4ab66b297beb1714b545ce4e867a70d622566573098c60805f948993613f0b6020997faf7c505ee772ec188af7067e1f73db08ab028e3d564273442b907742b9c41fa09b8991613f7157506163d8565b604051818152828a82015286867f33c49da1ff633ff516cc2661d0cd94af11b7b76985b6fe549151782c14db745a60403394a460085490613f4b826160ef565b600855604051923384528a84015260408301526060820152a4604051908152a260018055005b613f8891508b3d8d11610e3257610e248183615d1a565b8d6112c6565b5060011c90613d26565b60405162461bcd60e51b815260206004820152600d60248201526c507269636520746f6f206c6f7760981b6044820152606490fd5b346104ec5760203660031901126104ec576004355f60a0604051613ff081615cc8565b828152826020820152826040820152826060820152826080820152015261401a6006548210615f4b565b805f52600b60205260405f205f5f90600983015491600b84015b83821061414157505090614047916160b9565b600e6007830154920154835f52600f60205260405f205415155f1461413a575f848152600f6020526040902080545f198101919082116110855760049161408d91615bc5565b500154905b5f858152600f60205260409020541561412f575f948552600f602052604090942080549094905f198101908111611085576140d160069160c097615bc5565b500154925b604051916140e383615cc8565b858352602083019081526040830191825260a060608401935f855260808101958652019485526040519586525160208601525160408501525160608401525160808301525160a0820152f35b60c094505f926140d6565b5f90614092565b909161415e600191845f5283602052600460405f20015490616099565b920190614034565b346104ec575f3660031901126104ec576004546040516001600160a01b039091168152602090f35b346104ec5760403660031901126104ec576004356024356001600160401b0381116104ec576141c1903690600401615d3b565b6141ce6006548310615f4b565b815f52600b60205260ff600560405f200154161561431857815f52600b60205260ff600560405f20015460081c166142d3575f828152600b60209081526040808320338452600c81018352818420600490910154845290915290205461428e576142897ff20590b2cb9af0bb070ad77de2c0b74db291dd43666e7a386ffb0e65974b050a91835f52600b602052600560405f200161010061ff0019825416179055604051918291338352604060208401526040830190615c50565b0390a2005b60405162461bcd60e51b815260206004820152601960248201527f43616e6e6f74206469737075746520696620796f7520776f6e000000000000006044820152606490fd5b60405162461bcd60e51b815260206004820152601760248201527f4d61726b657420616c72656164792064697370757465640000000000000000006044820152606490fd5b60405162461bcd60e51b815260206004820152601760248201527f4d61726b6574206e6f74207265736f6c766564207965740000000000000000006044820152606490fd5b346104ec575f3660031901126104ec5760035460405160089190911c6001600160a01b03168152602090f35b346104ec575f3660031901126104ec576020600a54604051908152f35b346104ec575f3660031901126104ec576143be6164c4565b60035460ff8116156143fd5760ff19166003557f5db9ee0a495bf2e6ff9c91a7834c1ba4fdd244a5e8aa4e537bd38aeae4b073aa6020604051338152a1005b638dfc202b60e01b5f5260045ffd5b346104ec5760203660031901126104ec5760043561442d6006548210615f4b565b5f52600b60205261448b60405f20600281015460ff6003830154166009830154906005840154916144a9600486015492614499614475600161446e8a615fc7565b9901615fc7565b604051998a996101208b526101208b0190615c50565b9089820360208b0152615c50565b9560408801526060870190615e25565b608085015260ff828116151560a0860152600883901c16151560c085015260e084015260181c6001600160a01b03166101008301520390f35b346104ec5760403660031901126104ec576144fb615baf565b336001600160a01b03821603614517576125ca906004356167c2565b63334bd91960e11b5f5260045ffd5b346104ec5760203660031901126104ec576125ca614542615b99565b61454a6164c4565b7fdcee1d35c83a32b436264a5c9afd68685c124f3f9097e87804c55410e67fc59a5f5260026020527f8e2c297e756b2a427c5dc4607f639842a8ea6e0f6322302f4ea76306b642cfc35461459d90616505565b61653f565b346104ec576101003660031901126104ec576004356001600160401b0381116104ec576145d3903690600401615d3b565b6024356001600160401b0381116104ec576145f2903690600401615d3b565b6044356001600160401b0381116104ec57614611903690600401615da7565b916064356001600160401b0381116104ec57614631903690600401615da7565b6084359060a43560088110156104ec5760c4359560038710156104ec5760e4359461465a6164ea565b5f546001600160a01b031633148015614d7a575b15610f7657610e1085101580614d6c575b15610f3057805115610eeb57815160028110159081614d60575b5015610e9a578151845103610e445768056bc75e2d631000008610612463576003546040516323b872dd60e01b81523360048201523060248201526044810188905290602090829060081c6001600160a01b0316815f816064810103925af1908115610e39575f91614d41575b5015610dc55760065494614719866160ef565b600655855f52600b60205260405f209782516001600160401b038111610a9a576147438a54615f8f565b601f8111614cfc575b50806020601f8211600114614c9b575f91614c90575b508160011b915f199060031b1c19161789555b805160018a01916001600160401b038211610a9a576147948354615f8f565b601f8111614c4b575b50602090601f8311600114614bfc576147d3949392915f91836122dc5750508160011b915f199060031b1c191617905542616099565b6002880190815560038801805461ffff191660ff86161760088b811b61ff0016919091179091556005890180546301000000600160b81b0319163360181b6301000000600160b81b03161790554290890155825160098901819055600a89018890559098908015610c465761485890670de0b6b3a76400009a999a04978451906160b9565b93600b5f9a01995b8451811015614b425761487381866160c3565b51868c614880848b6160c3565b516040519361488e85615cfe565b8452602084019081528c604085015f815260608601905f82526080870192835260a08701936001855260c088019587875260e08901978852895f5260205260405f2097518051906001600160401b038211610a9a5781906148ef8b54615f8f565b601f8111614af2575b50602090601f8311600114614a8f575f92614a84575b50508160011b915f199060031b1c19161788555b51805160018901916001600160401b038211610a9a576149428354615f8f565b601f8111614a3f575b50602090601f83116001146149e65792826149b0969360019d9c9b99969360079b99965f926109d85750505f19600383901b1c1916908d1b179055516002890155516003880155516004870155511515600586019060ff801983541691151516179055565b51600684015551910155885f52601060205260405f20815f526020526149e060405f20604051906109be82615ce3565b01614860565b90601f19831691845f52815f20925f5b818110614a2757509360019d9c9b99969360079b9996938f93836149b09b9810610a2557505050811b019055610964565b929360206001819287860151815501950193016149f6565b835f5260205f20601f840160051c81019160208510614a7a575b601f0160051c01905b818110614a6f575061494b565b5f8155600101614a62565b9091508190614a59565b015190505f8061490e565b5f8c81528281209350601f198516905b818110614ada5750908460019594939210614ac2575b505050811b018855614922565b01515f1960f88460031b161c191690555f8080614ab5565b92936020600181928786015181550195019301614a9f565b9091508a5f5260205f20601f840160051c81019160208510614b38575b90601f859493920160051c01905b818110614b2a57506148f8565b5f8155849350600101614b1d565b9091508190614b0f565b50869184918a614b5585610b7f84615ea2565b614b6285610b7f85615eb9565b54614b786040519660c0885260c0880190615c50565b8681036020880152845180825260208201916020808360051b8301019701925f915b838310614bcf5750602089805f5160206169035f395f51905f528d808d610c088e610bfe8f8f60408701526060860190615e25565b9091929397602080614bed600193601f198682030187528c51615c50565b9a019301930191939290614b9a565b90601f19831691845f52815f20925f5b818110614c3357509160019391856147d3989796941061231e57505050811b01905561079b565b92936020600181928786015181550195019301614c0c565b835f5260205f20601f840160051c81019160208510614c86575b601f0160051c01905b818110614c7b575061479d565b5f8155600101614c6e565b9091508190614c65565b90508401518c614762565b5f8c81528181209250601f198416905b818110614ce457509083600194939210614ccc575b5050811b018955614775565b8601515f1960f88460031b161c191690558c80614cc0565b9192602060018192868b015181550194019201614cab565b8a5f5260205f20601f830160051c81019160208410614d37575b601f0160051c01905b818110614d2c575061474c565b5f8155600101614d1f565b9091508190614d16565b614d5a915060203d602011610e3257610e248183615d1a565b89614706565b600a9150111589614699565b506301e1338085111561467f565b50335f9081525f5160206168e35f395f51905f52602052604090205460ff1661466e565b346104ec575f3660031901126104ec5760206040517fd486618b282cb35034d59c30c062b5b3822d6cdf87ec459191ce7f5b7b8a48738152f35b346104ec5760403660031901126104ec576125ca600435614df7615baf565b90614e116125c0825f526002602052600160405f20015490565b616749565b346104ec576101203660031901126104ec576004356001600160401b0381116104ec57614e47903690600401615d3b565b6024356001600160401b0381116104ec57614e66903690600401615d3b565b6044356001600160401b0381116104ec57614e85903690600401615da7565b6064356001600160401b0381116104ec57614ea4903690600401615da7565b6084359060a43560088110156104ec576101043593614ec16164ea565b614ec96164ea565b5f546001600160a01b031633148015615633575b15610f7657610e1084101580615625575b15610f3057865115610eeb57805160028110159081615619575b5015610e9a578051835103610e445768056bc75e2d631000008510612463576003546040516323b872dd60e01b81523360048201523060248201526044810187905290602090829060081c6001600160a01b0316815f816064810103925af1908115610e39575f916155fa575b5015610dc55760065493614f88856160ef565b600655845f52600b60205260405f209688516001600160401b038111610a9a57614fb28954615f8f565b601f81116155b5575b50806020601f8211600114615552575f91615547575b508160011b915f199060031b1c19161788555b805160018901916001600160401b038211610a9a576150038354615f8f565b601f8111615502575b50602090601f83116001146154b357615042949392915f9183610c5a5750508160011b915f199060031b1c191617905542616099565b6002870190815560038701805461ffff191660ff8516176101001790556005870180546301000000600160b81b0319163360181b6301000000600160b81b0316179055426008880155815160098801819055600a88018790559097908015610c46576150be90670de0b6b3a764000099989904968351906160b9565b92600b5f9901985b83518110156153bb576150d981856160c3565b518a6150e583896160c3565b51604051926150f384615cfe565b835260208301908152604083015f8152606084015f815260808501908d825260a08601926001845260c08701948c865260e08801968d8852895f5260205260405f2097518051906001600160401b038211610a9a5781906151548b54615f8f565b601f811161536b575b50602090601f8311600114615308575f926152fd575b50508160011b915f199060031b1c19161788555b51805160018901916001600160401b038211610a9a576151a78354615f8f565b601f81116152b8575b50602090601f831160011461525f579282615215969360019d9c9b99969360079b99965f926109d85750505f19600383901b1c1916908d1b179055516002890155516003880155516004870155511515600586019060ff801983541691151516179055565b51600684015551910155875f52601060205260405f20815f5260205261525960405f206040519061524582615ce3565b8b82524260208301525f60408301526160fd565b016150c6565b90601f19831691845f52815f20925f5b8181106152a057509360019d9c9b99969360079b9996938f93836152159b9810610a2557505050811b019055610964565b9293602060018192878601518155019501930161526f565b835f5260205f20601f840160051c810191602085106152f3575b601f0160051c01905b8181106152e857506151b0565b5f81556001016152db565b90915081906152d2565b015190505f80615173565b5f8c81528281209350601f198516905b818110615353575090846001959493921061533b575b505050811b018855615187565b01515f1960f88460031b161c191690555f808061532e565b92936020600181928786015181550195019301615318565b9091508a5f5260205f20601f840160051c810191602085106153b1575b90601f859493920160051c01905b8181106153a3575061515d565b5f8155849350600101615396565b9091508190615388565b50908591886153cd84610b7f84615ea2565b6153db84610b7f6001615eb9565b546153f16040519360c0855260c0850190615c50565b8381036020850152855180825260208201916020808360051b8301019801925f915b838310615486578989896154318a8a60408401526060830190615e25565b5f5160206169035f395f51905f52818060209560016080879601523360a08301520390a2805f52600b8252601460405f2060c435601182015560e435601282015501600160ff19825416179055604051908152f35b90919293986020806154a4600193601f198682030187528d51615c50565b9b019301930191939290615413565b90601f19831691845f52815f20925f5b8181106154ea57509160019391856150429897969410610c9d57505050811b01905561079b565b929360206001819287860151815501950193016154c3565b835f5260205f20601f840160051c8101916020851061553d575b601f0160051c01905b818110615532575061500c565b5f8155600101615525565b909150819061551c565b90508a01518b614fd1565b5f8b81528181209250601f198416905b8d82821061559d5750509083600194939210615585575b5050811b018855614fe4565b8c01515f1960f88460031b161c191690558b80615579565b60018495602093958493015181550194019201615562565b895f5260205f20601f830160051c810191602084106155f0575b601f0160051c01905b8181106155e55750614fbb565b5f81556001016155d8565b90915081906155cf565b615613915060203d602011610e3257610e248183615d1a565b88614f75565b600a9150111588614f08565b506301e13380841115614eee565b50335f9081525f5160206168e35f395f51905f52602052604090205460ff16614edd565b346104ec5760203660031901126104ec576004356156786006548210615f4b565b5f52600b60205260405f20600981015461569181616067565b905f92600b5f9101905b82811061570857505f5b8281106156ba57604051806126238682615c74565b805f5281602052600660405f20015490670de0b6b3a7640000820291808304670de0b6b3a76400001490151715611085576156f7866001936160b9565b61570182876160c3565b52016156a5565b93615724600191865f5283602052600660405f20015490616099565b940161569b565b346104ec5761573936615c3a565b905f52601160205260405f2080548210156104ec5760209161257891615b84565b346104ec5760203660031901126104ec576020612ad96004355f526002602052600160405f20015490565b346104ec575f3660031901126104ec576020600754604051908152f35b346104ec576157b036615c3a565b906157be6006548210615f4b565b5f52600b602052600b60405f2001905f5260205261581d60405f2060028101546003820154600483015460ff6005850154169161582b615809600161580288615fc7565b9701615fc7565b60405197889760c0895260c0890190615c50565b908782036020890152615c50565b93604086015260608501526080840152151560a08301520390f35b346104ec5760203660031901126104ec5761585f6164c4565b600435600a55005b346104ec5760203660031901126104ec57615880615b99565b615888615f21565b5060018060a01b03165f52600d60205260a060405f206040516158aa81615cad565b81549182825260018101546020830190815260028201549060408401918252608060046003850154946060870195865201549401938452604051948552516020850152516040840152516060830152516080820152f35b346104ec5761590f36615c3a565b905f52600f60205260405f209081548110156104ec5761592e91615bc5565b50805461262360018301549260018060a01b036002820154169060018060a01b03600382015416600482015460058301549160ff60076006860154950154169460405198899889615be8565b346104ec5760203660031901126104ec57615993615b99565b61599b6164c4565b6001600160a01b038116906159b1821515615edd565b60038054600480546001600160a01b031916600883811c6001600160a01b0316918217909255610100600160a81b031990921693901b610100600160a81b03169290921790554260058190556040519081527fa16c473a31f9f07338cd1d3ccebda80cefdc0cb743aec539af892abfbf5a534e90602090a3005b346104ec575f3660031901126104ec576020604051601e8152f35b346104ec575f3660031901126104ec576020600554604051908152f35b346104ec575f3660031901126104ec576020604051600a8152f35b346104ec5760403660031901126104ec57615a97615b99565b6001600160a01b03165f908152600e602052604090208054602435908110156104ec5761592e91615bc5565b346104ec5760203660031901126104ec576004356017548110156104ec57615aec602091615b58565b905460405160039290921b1c6001600160a01b03168152f35b346104ec5760203660031901126104ec576004359063ffffffff60e01b82168092036104ec57602091637965db0b60e01b8114908115615b47575b5015158152f35b6301ffc9a760e01b14905083615b40565b601754811015615b705760175f5260205f2001905f90565b634e487b7160e01b5f52603260045260245ffd5b8054821015615b70575f5260205f2001905f90565b600435906001600160a01b03821682036104ec57565b602435906001600160a01b03821682036104ec57565b8054821015615b70575f5260205f209060031b01905f90565b6002111561229c57565b90815260208101919091526001600160a01b03918216604082015291166060820152608081019190915260a081019190915260c0810191909152610100810192919060e090615c3683615bde565b0152565b60409060031901126104ec576004359060243590565b805180835260209291819084018484015e5f828201840152601f01601f1916010190565b60206040818301928281528451809452019201905f5b818110615c975750505090565b8251845260209384019390920191600101615c8a565b60a081019081106001600160401b03821117610a9a57604052565b60c081019081106001600160401b03821117610a9a57604052565b606081019081106001600160401b03821117610a9a57604052565b61010081019081106001600160401b03821117610a9a57604052565b90601f801991011681019081106001600160401b03821117610a9a57604052565b81601f820112156104ec578035906001600160401b038211610a9a5760405192615d6f601f8401601f191660200185615d1a565b828452602083830101116104ec57815f926020809301838601378301015290565b6001600160401b038111610a9a5760051b60200190565b9080601f830112156104ec578135615dbe81615d90565b92615dcc6040519485615d1a565b81845260208085019260051b820101918383116104ec5760208201905b838210615df857505050505090565b81356001600160401b0381116104ec57602091615e1a87848094880101615d3b565b815201910190615de9565b90600882101561229c5752565b60809060031901126104ec5760043590602435906044359060643590565b60609060031901126104ec57600435906024359060443590565b8054821015615b70575f52600360205f20910201905f90565b60409060031901126104ec5760043560088110156104ec579060243590565b600881101561229c575f52601360205260405f2090565b600381101561229c575f52601560205260405f2090565b90600382101561229c5752565b15615ee457565b60405162461bcd60e51b8152602060048201526015602482015274496e76616c696420746f6b656e206164647265737360581b6044820152606490fd5b60405190615f2e82615cad565b5f6080838281528260208201528260408201528260608201520152565b15615f5257565b60405162461bcd60e51b815260206004820152601560248201527413585c9ad95d08191bd95cc81b9bdd08195e1a5cdd605a1b6044820152606490fd5b90600182811c92168015615fbd575b6020831014615fa957565b634e487b7160e01b5f52602260045260245ffd5b91607f1691615f9e565b9060405191825f825492615fda84615f8f565b80845293600181169081156160455750600114616001575b50615fff92500383615d1a565b565b90505f9291925260205f20905f915b818310616029575050906020615fff928201015f615ff2565b6020919350806001915483858901015201910190918492616010565b905060209250615fff94915060ff191682840152151560051b8201015f615ff2565b9061607182615d90565b61607e6040519182615d1a565b828152809261608f601f1991615d90565b0190602036910137565b9190820180921161108557565b8181029291811591840414171561108557565b8115610c46570490565b8051821015615b705760209160051b010190565b908160209103126104ec575180151581036104ec5790565b5f1981146110855760010190565b8054600160401b811015610a9a5761611a91600182018155615e6a565b91909161613b57604081600292518455602081015160018501550151910155565b634e487b7160e01b5f525f60045260245ffd5b8054600160401b811015610a9a5761616b91600182018155615b84565b819291549060031b91821b915f19901b1916179055565b9190820391821161108557565b1561619657565b60405162461bcd60e51b815260206004820152601060248201526f13585c9ad95d081a185cc8195b99195960821b6044820152606490fd5b156161d557565b60405162461bcd60e51b815260206004820152601760248201527f4d61726b657420616c7265616479207265736f6c7665640000000000000000006044820152606490fd5b1561622157565b60405162461bcd60e51b815260206004820152600e60248201526d24b73b30b634b21037b83a34b7b760911b6044820152606490fd5b1561625e57565b60405162461bcd60e51b81526020600482015260116024820152704f7074696f6e206e6f742061637469766560781b6044820152606490fd5b1561629e57565b60405162461bcd60e51b815260206004820152601960248201527f5175616e74697479206d75737420626520706f736974697665000000000000006044820152606490fd5b156162ea57565b60405162461bcd60e51b8152602060048201526013602482015272496e73756666696369656e742073686172657360681b6044820152606490fd5b8054600160401b811015610a9a5761634291600182018155615bc5565b61613b57815181556020820151600182015560408201516002820180546001600160a01b039283166001600160a01b03199182161790915560608401516003840180549190931691161790556080820151600482015560a0820151600582015560c0820151600682015560e0909101516007909101906163c181615bde565b6163ca81615bde565b60ff80198354169116179055565b156163df57565b60405162461bcd60e51b815260206004820152600f60248201526e151c985b9cd9995c8819985a5b1959608a1b6044820152606490fd5b1561641d57565b60405162461bcd60e51b815260206004820152601760248201527f416d6f756e74206d75737420626520706f7369746976650000000000000000006044820152606490fd5b601754600160401b811015610a9a5780600161648392016017556017615b84565b81546001600160a01b0393841660039290921b91821b9390911b1916919091179055565b8054600160401b811015610a9a5761648391600182018155615b84565b5f546001600160a01b031633036164d757565b63118cdaa760e01b5f523360045260245ffd5b60ff600354166164f657565b63d93c066560e01b5f5260045ffd5b5f81815260026020908152604080832033845290915290205460ff16156165295750565b63e2517d3f60e01b5f523360045260245260445ffd5b6001600160a01b0381165f9081527f8e2c297e756b2a427c5dc4607f639842a8ea6e0f6322302f4ea76306b642cfc2602052604090205460ff166165f8576001600160a01b03165f8181527f8e2c297e756b2a427c5dc4607f639842a8ea6e0f6322302f4ea76306b642cfc260205260408120805460ff191660011790553391907fdcee1d35c83a32b436264a5c9afd68685c124f3f9097e87804c55410e67fc59a905f5160206168c35f395f51905f529080a4600190565b505f90565b6001600160a01b0381165f9081525f5160206168e35f395f51905f52602052604090205460ff166165f8576001600160a01b03165f8181525f5160206168e35f395f51905f5260205260408120805460ff191660011790553391907fef485be696bbc0c91ad541bbd553ffb5bd0e18dac30ba76e992dda23cb807a8a905f5160206168c35f395f51905f529080a4600190565b6001600160a01b0381165f9081527fd3dccf8d8289b9deee17e361620d7577de7b525dd57f668d5c1bb85ec53112b5602052604090205460ff166165f8576001600160a01b03165f8181527fd3dccf8d8289b9deee17e361620d7577de7b525dd57f668d5c1bb85ec53112b560205260408120805460ff191660011790553391907fd486618b282cb35034d59c30c062b5b3822d6cdf87ec459191ce7f5b7b8a4873905f5160206168c35f395f51905f529080a4600190565b5f8181526002602090815260408083206001600160a01b038616845290915290205460ff166167bc575f8181526002602090815260408083206001600160a01b0395909516808452949091528120805460ff19166001179055339291905f5160206168c35f395f51905f529080a4600190565b50505f90565b5f8181526002602090815260408083206001600160a01b038616845290915290205460ff16156167bc575f8181526002602090815260408083206001600160a01b0395909516808452949091528120805460ff19169055339291907ff6391f5c32d9c69d2a47ea670b442974b53935d1edc7fd64eb21e047a839171b9080a4600190565b600260015414616857576002600155565b633ee5aeb560e01b5f5260045ffd5b905f52600b60205260405f20905f90600c60098401549301915b8381106168905750505050600190565b60018060a01b0382165f528260205260405f20815f5260205260405f20546168ba57600101616880565b505050505f9056fe2f8788117e7eff1d82e926ec794901d17c78024a50270940304540a733656f0d30d995518b427f5a5863ad73fe356ca50cf70941f42c516830919c845fa5806f74bf668e97161f1fd80fcd26f349d41699f70913de17765803d0880629da0de3a2646970667358221220d6f8fdbc042445739ff9310ffdcb8cdbacb62befbfa23124dd8003d8f2e6066c64736f6c634300081e0033ac33ff75c19e70fe83507db0d683fd3465c996598dc972688b7ace676c89077b",
			"opcodes": "PUSH1 0x80 CALLVALUE PUSH2 0xFD JUMPI PUSH1 0x1F PUSH2 0x6B17 CODESIZE DUP2 SWAP1 SUB SWAP2 DUP3 ADD PUSH1 0x1F NOT AND DUP4 ADD SWAP2 PUSH1 0x1 PUSH1 0x1 PUSH1 0x40 SHL SUB DUP4 GT DUP5 DUP5 LT OR PUSH2 0x101 JUMPI DUP1 DUP5 SWAP3 PUSH1 0x20 SWAP5 PUSH1 0x40 MSTORE DUP4 CODECOPY DUP2 ADD SUB SLT PUSH2 0xFD JUMPI MLOAD PUSH1 0x1 PUSH1 0x1 PUSH1 0xA0 SHL SUB DUP2 AND DUP2 SUB PUSH2 0xFD JUMPI CALLER ISZERO PUSH2 0xEA JUMPI PUSH0 DUP1 SLOAD CALLER PUSH1 0x1 PUSH1 0x1 PUSH1 0xA0 SHL SUB NOT DUP3 AND DUP2 OR DUP4 SSTORE SWAP2 PUSH1 0x1 PUSH1 0x1 PUSH1 0xA0 SHL SUB SWAP1 SWAP2 AND SWAP1 PUSH32 0x8BE0079C531659141344CD1FD0A4F28419497F9722A3DAAFE3B4186F6B6457E0 SWAP1 DUP1 LOG3 PUSH1 0x1 DUP1 SSTORE PUSH1 0xC8 PUSH1 0x9 SSTORE PUSH2 0x3E8 PUSH1 0xA SSTORE PUSH1 0x3 DUP1 SLOAD PUSH2 0x100 PUSH1 0x1 PUSH1 0xA8 SHL SUB NOT AND PUSH1 0x8 SWAP3 SWAP1 SWAP3 SHL PUSH2 0x100 PUSH1 0x1 PUSH1 0xA8 SHL SUB AND SWAP2 SWAP1 SWAP2 OR SWAP1 SSTORE TIMESTAMP PUSH1 0x5 SSTORE PUSH2 0xDA CALLER PUSH2 0x115 JUMP JUMPDEST POP PUSH1 0x40 MLOAD PUSH2 0x6958 SWAP1 DUP2 PUSH2 0x19F DUP3 CODECOPY RETURN JUMPDEST PUSH4 0x1E4FBDF7 PUSH1 0xE0 SHL PUSH0 MSTORE PUSH0 PUSH1 0x4 MSTORE PUSH1 0x24 PUSH0 REVERT JUMPDEST PUSH0 DUP1 REVERT JUMPDEST PUSH4 0x4E487B71 PUSH1 0xE0 SHL PUSH0 MSTORE PUSH1 0x41 PUSH1 0x4 MSTORE PUSH1 0x24 PUSH0 REVERT JUMPDEST PUSH1 0x1 PUSH1 0x1 PUSH1 0xA0 SHL SUB DUP2 AND PUSH0 SWAP1 DUP2 MSTORE PUSH0 MLOAD PUSH1 0x20 PUSH2 0x6AF7 PUSH0 CODECOPY PUSH0 MLOAD SWAP1 PUSH0 MSTORE PUSH1 0x20 MSTORE PUSH1 0x40 SWAP1 KECCAK256 SLOAD PUSH1 0xFF AND PUSH2 0x199 JUMPI PUSH1 0x1 PUSH1 0x1 PUSH1 0xA0 SHL SUB AND PUSH0 DUP2 DUP2 MSTORE PUSH0 MLOAD PUSH1 0x20 PUSH2 0x6AF7 PUSH0 CODECOPY PUSH0 MLOAD SWAP1 PUSH0 MSTORE PUSH1 0x20 MSTORE PUSH1 0x40 DUP2 KECCAK256 DUP1 SLOAD PUSH1 0xFF NOT AND PUSH1 0x1 OR SWAP1 SSTORE CALLER SWAP2 SWAP1 PUSH32 0x2F8788117E7EFF1D82E926EC794901D17C78024A50270940304540A733656F0D DUP2 DUP1 LOG4 PUSH1 0x1 SWAP1 JUMP JUMPDEST POP PUSH0 SWAP1 JUMP INVALID PUSH1 0x80 DUP1 PUSH1 0x40 MSTORE PUSH1 0x4 CALLDATASIZE LT ISZERO PUSH2 0x12 JUMPI PUSH0 DUP1 REVERT JUMPDEST PUSH0 CALLDATALOAD PUSH1 0xE0 SHR SWAP1 DUP2 PUSH4 0x1FFC9A7 EQ PUSH2 0x5B05 JUMPI POP DUP1 PUSH4 0x5E33DD0 EQ PUSH2 0x5AC3 JUMPI DUP1 PUSH4 0x8693F3C EQ PUSH2 0x5A7E JUMPI DUP1 PUSH4 0xDA183D6 EQ PUSH2 0x5A63 JUMPI DUP1 PUSH4 0x1029191A EQ PUSH2 0x5A46 JUMPI DUP1 PUSH4 0x12C413AF EQ PUSH2 0x5A2B JUMPI DUP1 PUSH4 0x15571981 EQ PUSH2 0x597A JUMPI DUP1 PUSH4 0x1CB1DE2F EQ PUSH2 0x5901 JUMPI DUP1 PUSH4 0x1EDB27E9 EQ PUSH2 0x5867 JUMPI DUP1 PUSH4 0x21B86DC2 EQ PUSH2 0x5846 JUMPI DUP1 PUSH4 0x222FA267 EQ PUSH2 0x57A2 JUMPI DUP1 PUSH4 0x2453FFA8 EQ PUSH2 0x5785 JUMPI DUP1 PUSH4 0x248A9CA3 EQ PUSH2 0x575A JUMPI DUP1 PUSH4 0x257FF7B6 EQ PUSH2 0x572B JUMPI DUP1 PUSH4 0x26E12752 EQ PUSH2 0x5657 JUMPI DUP1 PUSH4 0x29CF655B EQ PUSH2 0x435D JUMPI DUP1 PUSH4 0x2A49B428 EQ PUSH2 0x4E16 JUMPI DUP1 PUSH4 0x2F2FF15D EQ PUSH2 0x4DD8 JUMPI DUP1 PUSH4 0x32617B70 EQ PUSH2 0x4D9E JUMPI DUP1 PUSH4 0x33031B06 EQ PUSH2 0x45A2 JUMPI DUP1 PUSH4 0x35037E0B EQ PUSH2 0x4526 JUMPI DUP1 PUSH4 0x36568ABE EQ PUSH2 0x44E2 JUMPI DUP1 PUSH4 0x3EC79193 EQ PUSH2 0x440C JUMPI DUP1 PUSH4 0x3F4BA83A EQ PUSH2 0x43A6 JUMPI DUP1 PUSH4 0x417257F9 EQ PUSH2 0x4389 JUMPI DUP1 PUSH4 0x43425E88 EQ PUSH2 0x435D JUMPI DUP1 PUSH4 0x4A2021EF EQ PUSH2 0x418E JUMPI DUP1 PUSH4 0x4BDD45FB EQ PUSH2 0x4166 JUMPI DUP1 PUSH4 0x58057FE5 EQ PUSH2 0x3FCD JUMPI DUP1 PUSH4 0x5A2DB6FB EQ PUSH2 0x3B39 JUMPI DUP1 PUSH4 0x5C975ABB EQ PUSH2 0x3B17 JUMPI DUP1 PUSH4 0x60557333 EQ PUSH2 0x3960 JUMPI DUP1 PUSH4 0x677BD9FF EQ PUSH2 0x36B3 JUMPI DUP1 PUSH4 0x6DB3B4DC EQ PUSH2 0x3637 JUMPI DUP1 PUSH4 0x6EAE4297 EQ PUSH2 0x34E1 JUMPI DUP1 PUSH4 0x715018A6 EQ PUSH2 0x348A JUMPI DUP1 PUSH4 0x73AF16FC EQ PUSH2 0x3245 JUMPI DUP1 PUSH4 0x755F0629 EQ PUSH2 0x320B JUMPI DUP1 PUSH4 0x77B4A3E7 EQ PUSH2 0x31D1 JUMPI DUP1 PUSH4 0x7C946454 EQ PUSH2 0x3069 JUMPI DUP1 PUSH4 0x7E50898E EQ PUSH2 0x304B JUMPI DUP1 PUSH4 0x835DC40B EQ PUSH2 0x2FB7 JUMPI DUP1 PUSH4 0x8456CB59 EQ PUSH2 0x2F5E JUMPI DUP1 PUSH4 0x856652E9 EQ PUSH2 0x2F15 JUMPI DUP1 PUSH4 0x8B8840E0 EQ PUSH2 0x2EDD JUMPI DUP1 PUSH4 0x8DA5CB5B EQ PUSH2 0x2EB6 JUMPI DUP1 PUSH4 0x91D14854 EQ PUSH2 0x2E6D JUMPI DUP1 PUSH4 0x927FEF2E EQ PUSH2 0x2E0A JUMPI DUP1 PUSH4 0x92F012B2 EQ PUSH2 0x2DEE JUMPI DUP1 PUSH4 0xA217FDDF EQ PUSH2 0x2DD4 JUMPI DUP1 PUSH4 0xA75DD115 EQ PUSH2 0x2D7A JUMPI DUP1 PUSH4 0xA85C38EF EQ PUSH2 0x2CBE JUMPI DUP1 PUSH4 0xA8CC7F19 EQ PUSH2 0x2CAD JUMPI DUP1 PUSH4 0xAB44E635 EQ PUSH2 0x2B5D JUMPI DUP1 PUSH4 0xABDCE1A4 EQ PUSH2 0x2AE1 JUMPI DUP1 PUSH4 0xB1AB13FF EQ PUSH2 0x2AA6 JUMPI DUP1 PUSH4 0xB41ACDBE EQ PUSH2 0x2A6E JUMPI DUP1 PUSH4 0xB61920C1 EQ PUSH2 0x2A0A JUMPI DUP1 PUSH4 0xBD55022A EQ PUSH2 0x29ED JUMPI DUP1 PUSH4 0xC07D1449 EQ PUSH2 0x2664 JUMPI DUP1 PUSH4 0xC2454AF7 EQ PUSH2 0x25CC JUMPI DUP1 PUSH4 0xD547741F EQ PUSH2 0x2587 JUMPI DUP1 PUSH4 0xD8C39BD7 EQ PUSH2 0x253A JUMPI DUP1 PUSH4 0xD911F198 EQ PUSH2 0x1AD1 JUMPI DUP1 PUSH4 0xE9CA2026 EQ PUSH2 0x1707 JUMPI DUP1 PUSH4 0xEB44FDD3 EQ PUSH2 0x15E3 JUMPI DUP1 PUSH4 0xEC979082 EQ PUSH2 0x4F0 JUMPI DUP1 PUSH4 0xED881230 EQ PUSH2 0x1145 JUMPI DUP1 PUSH4 0xEECA08F0 EQ PUSH2 0x1128 JUMPI DUP1 PUSH4 0xF2FDE38B EQ PUSH2 0x10A3 JUMPI DUP1 PUSH4 0xF355F2E7 EQ PUSH2 0xFDE JUMPI DUP1 PUSH4 0xF98CE1BA EQ PUSH2 0x576 JUMPI DUP1 PUSH4 0xFC12524C EQ PUSH2 0x50D JUMPI DUP1 PUSH4 0xFD69F3C2 EQ PUSH2 0x4F0 JUMPI PUSH4 0xFDD3CDF6 EQ PUSH2 0x355 JUMPI PUSH0 DUP1 REVERT JUMPDEST CALLVALUE PUSH2 0x4EC JUMPI PUSH1 0x20 CALLDATASIZE PUSH1 0x3 NOT ADD SLT PUSH2 0x4EC JUMPI PUSH2 0x36E PUSH2 0x5B99 JUMP JUMPDEST PUSH0 SLOAD PUSH1 0x1 PUSH1 0x1 PUSH1 0xA0 SHL SUB AND CALLER EQ DUP1 ISZERO PUSH2 0x4B5 JUMPI JUMPDEST ISZERO PUSH2 0x45B JUMPI PUSH1 0x1 PUSH1 0x1 PUSH1 0xA0 SHL SUB DUP2 AND SWAP1 PUSH2 0x39D DUP3 ISZERO ISZERO PUSH2 0x5EDD JUMP JUMPDEST PUSH1 0x3 SLOAD PUSH1 0x8 DUP2 SWAP1 SHR PUSH1 0x1 PUSH1 0x1 PUSH1 0xA0 SHL SUB AND SWAP2 DUP4 DUP4 EQ PUSH2 0x41D JUMPI PUSH1 0x4 DUP1 SLOAD PUSH1 0x1 PUSH1 0x1 PUSH1 0xA0 SHL SUB NOT AND DUP5 OR SWAP1 SSTORE PUSH2 0x100 PUSH1 0x1 PUSH1 0xA8 SHL SUB NOT SWAP1 SWAP2 AND PUSH1 0x8 SWAP2 SWAP1 SWAP2 SHL PUSH2 0x100 PUSH1 0x1 PUSH1 0xA8 SHL SUB AND OR PUSH1 0x3 SSTORE TIMESTAMP PUSH1 0x5 DUP2 SWAP1 SSTORE PUSH1 0x40 MLOAD SWAP1 DUP2 MSTORE PUSH32 0xA16C473A31F9F07338CD1D3CCEBDA80CEFDC0CB743AEC539AF892ABFBF5A534E SWAP1 PUSH1 0x20 SWAP1 LOG3 STOP JUMPDEST PUSH1 0x40 MLOAD PUSH3 0x461BCD PUSH1 0xE5 SHL DUP2 MSTORE PUSH1 0x20 PUSH1 0x4 DUP3 ADD MSTORE PUSH1 0x16 PUSH1 0x24 DUP3 ADD MSTORE PUSH22 0x14D85B59481D1BDAD95B88185B1C9958591E481CD95D PUSH1 0x52 SHL PUSH1 0x44 DUP3 ADD MSTORE PUSH1 0x64 SWAP1 REVERT JUMPDEST PUSH1 0x40 MLOAD PUSH3 0x461BCD PUSH1 0xE5 SHL DUP2 MSTORE PUSH1 0x20 PUSH1 0x4 DUP3 ADD MSTORE PUSH1 0x2C PUSH1 0x24 DUP3 ADD MSTORE PUSH32 0x4F6E6C79206F776E6572206F722061646D696E2063616E207570646174652062 PUSH1 0x44 DUP3 ADD MSTORE PUSH12 0x32BA3A34B733903A37B5B2B7 PUSH1 0xA1 SHL PUSH1 0x64 DUP3 ADD MSTORE PUSH1 0x84 SWAP1 REVERT JUMPDEST POP CALLER PUSH0 SWAP1 DUP2 MSTORE PUSH32 0xAC33FF75C19E70FE83507DB0D683FD3465C996598DC972688B7ACE676C89077B PUSH1 0x20 MSTORE PUSH1 0x40 SWAP1 KECCAK256 SLOAD PUSH1 0xFF AND PUSH2 0x382 JUMP JUMPDEST PUSH0 DUP1 REVERT JUMPDEST CALLVALUE PUSH2 0x4EC JUMPI PUSH0 CALLDATASIZE PUSH1 0x3 NOT ADD SLT PUSH2 0x4EC JUMPI PUSH1 0x20 PUSH1 0x6 SLOAD PUSH1 0x40 MLOAD SWAP1 DUP2 MSTORE RETURN JUMPDEST CALLVALUE PUSH2 0x4EC JUMPI PUSH1 0x20 CALLDATASIZE PUSH1 0x3 NOT ADD SLT PUSH2 0x4EC JUMPI PUSH1 0x4 CALLDATALOAD PUSH2 0x529 PUSH2 0x64C4 JUMP JUMPDEST PUSH2 0x536 PUSH1 0x6 SLOAD DUP3 LT PUSH2 0x5F4B JUMP JUMPDEST DUP1 PUSH0 MSTORE PUSH1 0xB PUSH1 0x20 MSTORE PUSH1 0x5 PUSH1 0x40 PUSH0 KECCAK256 ADD PUSH1 0x1 PUSH1 0xFF NOT DUP3 SLOAD AND OR SWAP1 SSTORE PUSH32 0xB939016779C3297135B58AED6D343CF103FAF818EA07A7C5F87B03A9BD87297 PUSH0 DUP1 LOG2 STOP JUMPDEST CALLVALUE PUSH2 0x4EC JUMPI PUSH1 0xE0 CALLDATASIZE PUSH1 0x3 NOT ADD SLT PUSH2 0x4EC JUMPI PUSH1 0x4 CALLDATALOAD PUSH1 0x1 PUSH1 0x1 PUSH1 0x40 SHL SUB DUP2 GT PUSH2 0x4EC JUMPI PUSH2 0x5A6 SWAP1 CALLDATASIZE SWAP1 PUSH1 0x4 ADD PUSH2 0x5D3B JUMP JUMPDEST PUSH1 0x24 CALLDATALOAD PUSH1 0x1 PUSH1 0x1 PUSH1 0x40 SHL SUB DUP2 GT PUSH2 0x4EC JUMPI PUSH2 0x5C5 SWAP1 CALLDATASIZE SWAP1 PUSH1 0x4 ADD PUSH2 0x5D3B JUMP JUMPDEST PUSH1 0x44 CALLDATALOAD PUSH1 0x1 PUSH1 0x1 PUSH1 0x40 SHL SUB DUP2 GT PUSH2 0x4EC JUMPI PUSH2 0x5E4 SWAP1 CALLDATASIZE SWAP1 PUSH1 0x4 ADD PUSH2 0x5DA7 JUMP JUMPDEST PUSH1 0x64 CALLDATALOAD PUSH1 0x1 PUSH1 0x1 PUSH1 0x40 SHL SUB DUP2 GT PUSH2 0x4EC JUMPI PUSH2 0x603 SWAP1 CALLDATASIZE SWAP1 PUSH1 0x4 ADD PUSH2 0x5DA7 JUMP JUMPDEST PUSH1 0x84 CALLDATALOAD SWAP1 PUSH1 0xA4 CALLDATALOAD PUSH1 0x8 DUP2 LT ISZERO PUSH2 0x4EC JUMPI PUSH1 0xC4 CALLDATALOAD SWAP4 PUSH1 0x3 DUP6 LT ISZERO PUSH2 0x4EC JUMPI PUSH2 0x628 PUSH2 0x64EA JUMP JUMPDEST PUSH2 0x630 PUSH2 0x64EA JUMP JUMPDEST PUSH0 SLOAD PUSH1 0x1 PUSH1 0x1 PUSH1 0xA0 SHL SUB AND CALLER EQ DUP1 ISZERO PUSH2 0xFBA JUMPI JUMPDEST ISZERO PUSH2 0xF76 JUMPI PUSH2 0xE10 DUP5 LT ISZERO DUP1 PUSH2 0xF68 JUMPI JUMPDEST ISZERO PUSH2 0xF30 JUMPI DUP7 MLOAD ISZERO PUSH2 0xEEB JUMPI DUP1 MLOAD PUSH1 0x2 DUP2 LT ISZERO SWAP1 DUP2 PUSH2 0xEDF JUMPI JUMPDEST POP ISZERO PUSH2 0xE9A JUMPI DUP1 MLOAD DUP4 MLOAD SUB PUSH2 0xE44 JUMPI PUSH1 0x3 SLOAD PUSH1 0x40 MLOAD PUSH4 0x23B872DD PUSH1 0xE0 SHL DUP2 MSTORE CALLER PUSH1 0x4 DUP3 ADD MSTORE ADDRESS PUSH1 0x24 DUP3 ADD MSTORE PUSH9 0x3635C9ADC5DEA00000 PUSH1 0x44 DUP3 ADD MSTORE SWAP1 PUSH1 0x20 SWAP1 DUP3 SWAP1 PUSH1 0x64 SWAP1 DUP3 SWAP1 PUSH0 SWAP1 PUSH1 0x8 SHR PUSH1 0x1 PUSH1 0x1 PUSH1 0xA0 SHL SUB AND GAS CALL SWAP1 DUP2 ISZERO PUSH2 0xE39 JUMPI PUSH0 SWAP2 PUSH2 0xE0A JUMPI JUMPDEST POP ISZERO PUSH2 0xDC5 JUMPI PUSH1 0x6 SLOAD SWAP4 PUSH2 0x6E5 DUP6 PUSH2 0x60EF JUMP JUMPDEST PUSH1 0x6 SSTORE DUP5 PUSH0 MSTORE PUSH1 0xB PUSH1 0x20 MSTORE PUSH1 0x40 PUSH0 KECCAK256 SWAP7 DUP9 MLOAD PUSH1 0x1 PUSH1 0x1 PUSH1 0x40 SHL SUB DUP2 GT PUSH2 0xA9A JUMPI PUSH2 0x70F DUP10 SLOAD PUSH2 0x5F8F JUMP JUMPDEST PUSH1 0x1F DUP2 GT PUSH2 0xD80 JUMPI JUMPDEST POP DUP1 PUSH1 0x20 PUSH1 0x1F DUP3 GT PUSH1 0x1 EQ PUSH2 0xD1D JUMPI PUSH0 SWAP2 PUSH2 0xD12 JUMPI JUMPDEST POP DUP2 PUSH1 0x1 SHL SWAP2 PUSH0 NOT SWAP1 PUSH1 0x3 SHL SHR NOT AND OR DUP9 SSTORE JUMPDEST DUP1 MLOAD PUSH1 0x1 DUP10 ADD SWAP2 PUSH1 0x1 PUSH1 0x1 PUSH1 0x40 SHL SUB DUP3 GT PUSH2 0xA9A JUMPI PUSH2 0x760 DUP4 SLOAD PUSH2 0x5F8F JUMP JUMPDEST PUSH1 0x1F DUP2 GT PUSH2 0xCCD JUMPI JUMPDEST POP PUSH1 0x20 SWAP1 PUSH1 0x1F DUP4 GT PUSH1 0x1 EQ PUSH2 0xC65 JUMPI PUSH2 0x7A1 SWAP5 SWAP4 SWAP3 SWAP2 PUSH0 SWAP2 DUP4 PUSH2 0xC5A JUMPI JUMPDEST POP POP DUP2 PUSH1 0x1 SHL SWAP2 PUSH0 NOT SWAP1 PUSH1 0x3 SHL SHR NOT AND OR SWAP1 SSTORE JUMPDEST TIMESTAMP PUSH2 0x6099 JUMP JUMPDEST PUSH1 0x2 DUP8 ADD SWAP1 DUP2 SSTORE PUSH1 0x3 DUP8 ADD DUP1 SLOAD PUSH2 0xFFFF NOT AND PUSH1 0xFF DUP6 AND OR PUSH1 0x8 DUP9 DUP2 SHL PUSH2 0xFF00 AND SWAP2 SWAP1 SWAP2 OR SWAP1 SWAP2 SSTORE PUSH1 0x5 DUP9 ADD DUP1 SLOAD PUSH4 0x1000000 PUSH1 0x1 PUSH1 0xB8 SHL SUB NOT AND CALLER PUSH1 0x18 SHL PUSH4 0x1000000 PUSH1 0x1 PUSH1 0xB8 SHL SUB AND OR SWAP1 SSTORE TIMESTAMP SWAP1 DUP9 ADD SSTORE DUP2 MLOAD PUSH1 0x9 DUP9 ADD DUP2 SWAP1 SSTORE PUSH9 0x3635C9ADC5DEA00000 PUSH1 0xA DUP10 ADD SSTORE SWAP1 SWAP8 SWAP1 DUP1 ISZERO PUSH2 0xC46 JUMPI PUSH8 0xDE0B6B3A7640000 DIV SWAP6 DUP3 MLOAD DUP1 ISZERO PUSH2 0xC46 JUMPI PUSH1 0xB SWAP1 SWAP9 ADD SWAP9 SWAP8 PUSH9 0x3635C9ADC5DEA00000 DIV SWAP4 PUSH0 JUMPDEST DUP5 MLOAD DUP2 LT ISZERO PUSH2 0xB6C JUMPI PUSH2 0x84F DUP2 DUP7 PUSH2 0x60C3 JUMP JUMPDEST MLOAD DUP7 DUP13 PUSH2 0x85C DUP5 DUP12 PUSH2 0x60C3 JUMP JUMPDEST MLOAD PUSH1 0x40 MLOAD SWAP4 PUSH2 0x86A DUP6 PUSH2 0x5CFE JUMP JUMPDEST DUP5 MSTORE PUSH1 0x20 DUP5 ADD SWAP1 DUP2 MSTORE DUP13 PUSH1 0x40 DUP6 ADD PUSH0 DUP2 MSTORE PUSH1 0x60 DUP7 ADD SWAP1 PUSH0 DUP3 MSTORE PUSH1 0x80 DUP8 ADD SWAP3 DUP4 MSTORE PUSH1 0xA0 DUP8 ADD SWAP4 PUSH1 0x1 DUP6 MSTORE PUSH1 0xC0 DUP9 ADD SWAP6 DUP8 DUP8 MSTORE PUSH1 0xE0 DUP10 ADD SWAP8 DUP9 MSTORE DUP10 PUSH0 MSTORE PUSH1 0x20 MSTORE PUSH1 0x40 PUSH0 KECCAK256 SWAP8 MLOAD DUP1 MLOAD SWAP1 PUSH1 0x1 PUSH1 0x1 PUSH1 0x40 SHL SUB DUP3 GT PUSH2 0xA9A JUMPI DUP2 SWAP1 PUSH2 0x8CB DUP12 SLOAD PUSH2 0x5F8F JUMP JUMPDEST PUSH1 0x1F DUP2 GT PUSH2 0xB1C JUMPI JUMPDEST POP PUSH1 0x20 SWAP1 PUSH1 0x1F DUP4 GT PUSH1 0x1 EQ PUSH2 0xAB9 JUMPI PUSH0 SWAP3 PUSH2 0xAAE JUMPI JUMPDEST POP POP DUP2 PUSH1 0x1 SHL SWAP2 PUSH0 NOT SWAP1 PUSH1 0x3 SHL SHR NOT AND OR DUP9 SSTORE JUMPDEST MLOAD DUP1 MLOAD PUSH1 0x1 DUP10 ADD SWAP2 PUSH1 0x1 PUSH1 0x1 PUSH1 0x40 SHL SUB DUP3 GT PUSH2 0xA9A JUMPI PUSH2 0x91E DUP4 SLOAD PUSH2 0x5F8F JUMP JUMPDEST PUSH1 0x1F DUP2 GT PUSH2 0xA55 JUMPI JUMPDEST POP PUSH1 0x20 SWAP1 PUSH1 0x1F DUP4 GT PUSH1 0x1 EQ PUSH2 0x9E3 JUMPI SWAP3 DUP3 PUSH2 0x98E SWAP7 SWAP4 PUSH1 0x1 SWAP14 SWAP13 SWAP12 SWAP10 SWAP7 SWAP4 PUSH1 0x7 SWAP12 SWAP10 SWAP7 PUSH0 SWAP3 PUSH2 0x9D8 JUMPI JUMPDEST POP POP PUSH0 NOT PUSH1 0x3 DUP4 SWAP1 SHL SHR NOT AND SWAP1 DUP14 SHL OR SWAP1 SSTORE JUMPDEST MLOAD PUSH1 0x2 DUP10 ADD SSTORE MLOAD PUSH1 0x3 DUP9 ADD SSTORE MLOAD PUSH1 0x4 DUP8 ADD SSTORE MLOAD ISZERO ISZERO PUSH1 0x5 DUP7 ADD SWAP1 PUSH1 0xFF DUP1 NOT DUP4 SLOAD AND SWAP2 ISZERO ISZERO AND OR SWAP1 SSTORE JUMP JUMPDEST MLOAD PUSH1 0x6 DUP5 ADD SSTORE MLOAD SWAP2 ADD SSTORE DUP9 PUSH0 MSTORE PUSH1 0x10 PUSH1 0x20 MSTORE PUSH1 0x40 PUSH0 KECCAK256 DUP2 PUSH0 MSTORE PUSH1 0x20 MSTORE PUSH2 0x9D2 PUSH1 0x40 PUSH0 KECCAK256 PUSH1 0x40 MLOAD SWAP1 PUSH2 0x9BE DUP3 PUSH2 0x5CE3 JUMP JUMPDEST DUP13 DUP3 MSTORE TIMESTAMP PUSH1 0x20 DUP4 ADD MSTORE PUSH0 PUSH1 0x40 DUP4 ADD MSTORE PUSH2 0x60FD JUMP JUMPDEST ADD PUSH2 0x83C JUMP JUMPDEST ADD MLOAD SWAP1 POP PUSH0 DUP1 PUSH2 0x951 JUMP JUMPDEST SWAP1 PUSH1 0x1F NOT DUP4 AND SWAP2 DUP5 PUSH0 MSTORE DUP2 PUSH0 KECCAK256 SWAP3 PUSH0 JUMPDEST DUP2 DUP2 LT PUSH2 0xA3D JUMPI POP SWAP4 PUSH1 0x1 SWAP14 SWAP13 SWAP12 SWAP10 SWAP7 SWAP4 PUSH1 0x7 SWAP12 SWAP10 SWAP7 SWAP4 DUP16 SWAP4 DUP4 PUSH2 0x98E SWAP12 SWAP9 LT PUSH2 0xA25 JUMPI JUMPDEST POP POP POP DUP2 SHL ADD SWAP1 SSTORE PUSH2 0x964 JUMP JUMPDEST ADD MLOAD PUSH0 NOT PUSH1 0xF8 DUP5 PUSH1 0x3 SHL AND SHR NOT AND SWAP1 SSTORE PUSH0 DUP1 DUP1 PUSH2 0xA18 JUMP JUMPDEST SWAP3 SWAP4 PUSH1 0x20 PUSH1 0x1 DUP2 SWAP3 DUP8 DUP7 ADD MLOAD DUP2 SSTORE ADD SWAP6 ADD SWAP4 ADD PUSH2 0x9F3 JUMP JUMPDEST DUP4 PUSH0 MSTORE PUSH1 0x20 PUSH0 KECCAK256 PUSH1 0x1F DUP5 ADD PUSH1 0x5 SHR DUP2 ADD SWAP2 PUSH1 0x20 DUP6 LT PUSH2 0xA90 JUMPI JUMPDEST PUSH1 0x1F ADD PUSH1 0x5 SHR ADD SWAP1 JUMPDEST DUP2 DUP2 LT PUSH2 0xA85 JUMPI POP PUSH2 0x927 JUMP JUMPDEST PUSH0 DUP2 SSTORE PUSH1 0x1 ADD PUSH2 0xA78 JUMP JUMPDEST SWAP1 SWAP2 POP DUP2 SWAP1 PUSH2 0xA6F JUMP JUMPDEST PUSH4 0x4E487B71 PUSH1 0xE0 SHL PUSH0 MSTORE PUSH1 0x41 PUSH1 0x4 MSTORE PUSH1 0x24 PUSH0 REVERT JUMPDEST ADD MLOAD SWAP1 POP PUSH0 DUP1 PUSH2 0x8EA JUMP JUMPDEST PUSH0 DUP13 DUP2 MSTORE DUP3 DUP2 KECCAK256 SWAP4 POP PUSH1 0x1F NOT DUP6 AND SWAP1 JUMPDEST DUP2 DUP2 LT PUSH2 0xB04 JUMPI POP SWAP1 DUP5 PUSH1 0x1 SWAP6 SWAP5 SWAP4 SWAP3 LT PUSH2 0xAEC JUMPI JUMPDEST POP POP POP DUP2 SHL ADD DUP9 SSTORE PUSH2 0x8FE JUMP JUMPDEST ADD MLOAD PUSH0 NOT PUSH1 0xF8 DUP5 PUSH1 0x3 SHL AND SHR NOT AND SWAP1 SSTORE PUSH0 DUP1 DUP1 PUSH2 0xADF JUMP JUMPDEST SWAP3 SWAP4 PUSH1 0x20 PUSH1 0x1 DUP2 SWAP3 DUP8 DUP7 ADD MLOAD DUP2 SSTORE ADD SWAP6 ADD SWAP4 ADD PUSH2 0xAC9 JUMP JUMPDEST SWAP1 SWAP2 POP DUP11 PUSH0 MSTORE PUSH1 0x20 PUSH0 KECCAK256 PUSH1 0x1F DUP5 ADD PUSH1 0x5 SHR DUP2 ADD SWAP2 PUSH1 0x20 DUP6 LT PUSH2 0xB62 JUMPI JUMPDEST SWAP1 PUSH1 0x1F DUP6 SWAP5 SWAP4 SWAP3 ADD PUSH1 0x5 SHR ADD SWAP1 JUMPDEST DUP2 DUP2 LT PUSH2 0xB54 JUMPI POP PUSH2 0x8D4 JUMP JUMPDEST PUSH0 DUP2 SSTORE DUP5 SWAP4 POP PUSH1 0x1 ADD PUSH2 0xB47 JUMP JUMPDEST SWAP1 SWAP2 POP DUP2 SWAP1 PUSH2 0xB39 JUMP JUMPDEST POP DUP7 SWAP2 DUP5 SWAP2 DUP11 PUSH2 0xB84 DUP6 PUSH2 0xB7F DUP5 PUSH2 0x5EA2 JUMP JUMPDEST PUSH2 0x614E JUMP JUMPDEST PUSH2 0xB91 DUP6 PUSH2 0xB7F DUP6 PUSH2 0x5EB9 JUMP JUMPDEST SLOAD PUSH2 0xBA7 PUSH1 0x40 MLOAD SWAP7 PUSH1 0xC0 DUP9 MSTORE PUSH1 0xC0 DUP9 ADD SWAP1 PUSH2 0x5C50 JUMP JUMPDEST DUP7 DUP2 SUB PUSH1 0x20 DUP9 ADD MSTORE DUP5 MLOAD DUP1 DUP3 MSTORE PUSH1 0x20 DUP3 ADD SWAP2 PUSH1 0x20 DUP1 DUP4 PUSH1 0x5 SHL DUP4 ADD ADD SWAP8 ADD SWAP3 PUSH0 SWAP2 JUMPDEST DUP4 DUP4 LT PUSH2 0xC19 JUMPI POP PUSH1 0x20 DUP10 DUP1 PUSH0 MLOAD PUSH1 0x20 PUSH2 0x6903 PUSH0 CODECOPY PUSH0 MLOAD SWAP1 PUSH0 MSTORE DUP14 DUP1 DUP14 PUSH2 0xC08 DUP15 PUSH2 0xBFE DUP16 DUP16 PUSH1 0x40 DUP8 ADD MSTORE PUSH1 0x60 DUP7 ADD SWAP1 PUSH2 0x5E25 JUMP JUMPDEST PUSH1 0x80 DUP5 ADD SWAP1 PUSH2 0x5ED0 JUMP JUMPDEST CALLER PUSH1 0xA0 DUP4 ADD MSTORE SUB SWAP1 LOG2 PUSH1 0x40 MLOAD SWAP1 DUP2 MSTORE RETURN JUMPDEST SWAP1 SWAP2 SWAP3 SWAP4 SWAP8 PUSH1 0x20 DUP1 PUSH2 0xC37 PUSH1 0x1 SWAP4 PUSH1 0x1F NOT DUP7 DUP3 SUB ADD DUP8 MSTORE DUP13 MLOAD PUSH2 0x5C50 JUMP JUMPDEST SWAP11 ADD SWAP4 ADD SWAP4 ADD SWAP2 SWAP4 SWAP3 SWAP1 PUSH2 0xBC9 JUMP JUMPDEST PUSH4 0x4E487B71 PUSH1 0xE0 SHL PUSH0 MSTORE PUSH1 0x12 PUSH1 0x4 MSTORE PUSH1 0x24 PUSH0 REVERT JUMPDEST ADD MLOAD SWAP1 POP DUP13 DUP1 PUSH2 0x787 JUMP JUMPDEST SWAP1 PUSH1 0x1F NOT DUP4 AND SWAP2 DUP5 PUSH0 MSTORE DUP2 PUSH0 KECCAK256 SWAP3 PUSH0 JUMPDEST DUP2 DUP2 LT PUSH2 0xCB5 JUMPI POP SWAP2 PUSH1 0x1 SWAP4 SWAP2 DUP6 PUSH2 0x7A1 SWAP9 SWAP8 SWAP7 SWAP5 LT PUSH2 0xC9D JUMPI JUMPDEST POP POP POP DUP2 SHL ADD SWAP1 SSTORE PUSH2 0x79B JUMP JUMPDEST ADD MLOAD PUSH0 NOT PUSH1 0xF8 DUP5 PUSH1 0x3 SHL AND SHR NOT AND SWAP1 SSTORE DUP13 DUP1 DUP1 PUSH2 0xC90 JUMP JUMPDEST SWAP3 SWAP4 PUSH1 0x20 PUSH1 0x1 DUP2 SWAP3 DUP8 DUP7 ADD MLOAD DUP2 SSTORE ADD SWAP6 ADD SWAP4 ADD PUSH2 0xC75 JUMP JUMPDEST DUP4 PUSH0 MSTORE PUSH1 0x20 PUSH0 KECCAK256 PUSH1 0x1F DUP5 ADD PUSH1 0x5 SHR DUP2 ADD SWAP2 PUSH1 0x20 DUP6 LT PUSH2 0xD08 JUMPI JUMPDEST PUSH1 0x1F ADD PUSH1 0x5 SHR ADD SWAP1 JUMPDEST DUP2 DUP2 LT PUSH2 0xCFD JUMPI POP PUSH2 0x769 JUMP JUMPDEST PUSH0 DUP2 SSTORE PUSH1 0x1 ADD PUSH2 0xCF0 JUMP JUMPDEST SWAP1 SWAP2 POP DUP2 SWAP1 PUSH2 0xCE7 JUMP JUMPDEST SWAP1 POP DUP11 ADD MLOAD DUP12 PUSH2 0x72E JUMP JUMPDEST PUSH0 DUP12 DUP2 MSTORE DUP2 DUP2 KECCAK256 SWAP3 POP PUSH1 0x1F NOT DUP5 AND SWAP1 JUMPDEST DUP14 DUP3 DUP3 LT PUSH2 0xD68 JUMPI POP POP SWAP1 DUP4 PUSH1 0x1 SWAP5 SWAP4 SWAP3 LT PUSH2 0xD50 JUMPI JUMPDEST POP POP DUP2 SHL ADD DUP9 SSTORE PUSH2 0x741 JUMP JUMPDEST DUP13 ADD MLOAD PUSH0 NOT PUSH1 0xF8 DUP5 PUSH1 0x3 SHL AND SHR NOT AND SWAP1 SSTORE DUP12 DUP1 PUSH2 0xD44 JUMP JUMPDEST PUSH1 0x1 DUP5 SWAP6 PUSH1 0x20 SWAP4 SWAP6 DUP5 SWAP4 ADD MLOAD DUP2 SSTORE ADD SWAP5 ADD SWAP3 ADD PUSH2 0xD2D JUMP JUMPDEST DUP10 PUSH0 MSTORE PUSH1 0x20 PUSH0 KECCAK256 PUSH1 0x1F DUP4 ADD PUSH1 0x5 SHR DUP2 ADD SWAP2 PUSH1 0x20 DUP5 LT PUSH2 0xDBB JUMPI JUMPDEST PUSH1 0x1F ADD PUSH1 0x5 SHR ADD SWAP1 JUMPDEST DUP2 DUP2 LT PUSH2 0xDB0 JUMPI POP PUSH2 0x718 JUMP JUMPDEST PUSH0 DUP2 SSTORE PUSH1 0x1 ADD PUSH2 0xDA3 JUMP JUMPDEST SWAP1 SWAP2 POP DUP2 SWAP1 PUSH2 0xD9A JUMP JUMPDEST PUSH1 0x40 MLOAD PUSH3 0x461BCD PUSH1 0xE5 SHL DUP2 MSTORE PUSH1 0x20 PUSH1 0x4 DUP3 ADD MSTORE PUSH1 0x19 PUSH1 0x24 DUP3 ADD MSTORE PUSH32 0x4C6971756964697479207472616E73666572206661696C656400000000000000 PUSH1 0x44 DUP3 ADD MSTORE PUSH1 0x64 SWAP1 REVERT JUMPDEST PUSH2 0xE2C SWAP2 POP PUSH1 0x20 RETURNDATASIZE PUSH1 0x20 GT PUSH2 0xE32 JUMPI JUMPDEST PUSH2 0xE24 DUP2 DUP4 PUSH2 0x5D1A JUMP JUMPDEST DUP2 ADD SWAP1 PUSH2 0x60D7 JUMP JUMPDEST DUP9 PUSH2 0x6D2 JUMP JUMPDEST POP RETURNDATASIZE PUSH2 0xE1A JUMP JUMPDEST PUSH1 0x40 MLOAD RETURNDATASIZE PUSH0 DUP3 RETURNDATACOPY RETURNDATASIZE SWAP1 REVERT JUMPDEST PUSH1 0x40 MLOAD PUSH3 0x461BCD PUSH1 0xE5 SHL DUP2 MSTORE PUSH1 0x20 PUSH1 0x4 DUP3 ADD MSTORE PUSH1 0x28 PUSH1 0x24 DUP3 ADD MSTORE PUSH32 0x4F7074696F6E7320616E64206465736372697074696F6E73206C656E67746820 PUSH1 0x44 DUP3 ADD MSTORE PUSH8 0xDAD2E6DAC2E8C6D PUSH1 0xC3 SHL PUSH1 0x64 DUP3 ADD MSTORE PUSH1 0x84 SWAP1 REVERT JUMPDEST PUSH1 0x40 MLOAD PUSH3 0x461BCD PUSH1 0xE5 SHL DUP2 MSTORE PUSH1 0x20 PUSH1 0x4 DUP3 ADD MSTORE PUSH1 0x19 PUSH1 0x24 DUP3 ADD MSTORE PUSH32 0x496E76616C6964206E756D626572206F66206F7074696F6E7300000000000000 PUSH1 0x44 DUP3 ADD MSTORE PUSH1 0x64 SWAP1 REVERT JUMPDEST PUSH1 0xA SWAP2 POP GT ISZERO DUP9 PUSH2 0x66F JUMP JUMPDEST PUSH1 0x40 MLOAD PUSH3 0x461BCD PUSH1 0xE5 SHL DUP2 MSTORE PUSH1 0x20 PUSH1 0x4 DUP3 ADD MSTORE PUSH1 0x18 PUSH1 0x24 DUP3 ADD MSTORE PUSH32 0x5175657374696F6E2063616E6E6F7420626520656D7074790000000000000000 PUSH1 0x44 DUP3 ADD MSTORE PUSH1 0x64 SWAP1 REVERT JUMPDEST PUSH1 0x40 MLOAD PUSH3 0x461BCD PUSH1 0xE5 SHL DUP2 MSTORE PUSH1 0x20 PUSH1 0x4 DUP3 ADD MSTORE PUSH1 0x10 PUSH1 0x24 DUP3 ADD MSTORE PUSH16 0x24B73B30B634B210323AB930BA34B7B7 PUSH1 0x81 SHL PUSH1 0x44 DUP3 ADD MSTORE PUSH1 0x64 SWAP1 REVERT JUMPDEST POP PUSH4 0x1E13380 DUP5 GT ISZERO PUSH2 0x655 JUMP JUMPDEST PUSH1 0x64 PUSH1 0x40 MLOAD PUSH3 0x461BCD PUSH1 0xE5 SHL DUP2 MSTORE PUSH1 0x20 PUSH1 0x4 DUP3 ADD MSTORE PUSH1 0x20 PUSH1 0x24 DUP3 ADD MSTORE PUSH32 0x4E6F7420617574686F72697A656420746F20637265617465206D61726B657473 PUSH1 0x44 DUP3 ADD MSTORE REVERT JUMPDEST POP CALLER PUSH0 SWAP1 DUP2 MSTORE PUSH0 MLOAD PUSH1 0x20 PUSH2 0x68E3 PUSH0 CODECOPY PUSH0 MLOAD SWAP1 PUSH0 MSTORE PUSH1 0x20 MSTORE PUSH1 0x40 SWAP1 KECCAK256 SLOAD PUSH1 0xFF AND PUSH2 0x644 JUMP JUMPDEST CALLVALUE PUSH2 0x4EC JUMPI PUSH2 0xFEC CALLDATASIZE PUSH2 0x5E50 JUMP JUMPDEST SWAP2 PUSH0 MSTORE PUSH1 0xB PUSH1 0x20 MSTORE PUSH1 0xB PUSH1 0x40 PUSH0 KECCAK256 ADD SWAP1 PUSH0 MSTORE PUSH1 0x20 MSTORE PUSH1 0x40 PUSH0 KECCAK256 PUSH1 0x6 PUSH1 0x7 DUP3 ADD SLOAD DUP4 DUP1 DUP3 GT PUSH0 EQ PUSH2 0x1099 JUMPI PUSH2 0x101F SWAP2 PUSH2 0x6182 JUMP JUMPDEST SWAP2 JUMPDEST ADD SLOAD SWAP2 PUSH8 0xDE0B6B3A7640000 DUP4 MUL SWAP3 DUP1 DUP5 DIV PUSH8 0xDE0B6B3A7640000 EQ SWAP1 ISZERO OR ISZERO PUSH2 0x1085 JUMPI PUSH2 0x105B PUSH2 0x1060 SWAP3 PUSH8 0xDE0B6B3A7640000 SWAP5 PUSH2 0x60B9 JUMP JUMPDEST PUSH2 0x60A6 JUMP JUMPDEST DIV PUSH2 0x3E5 DUP2 MUL SWAP1 DUP1 DUP3 DIV PUSH2 0x3E5 EQ SWAP1 ISZERO OR ISZERO PUSH2 0x1085 JUMPI PUSH1 0x20 SWAP1 PUSH2 0x3E8 PUSH1 0x40 MLOAD SWAP2 DIV DUP2 MSTORE RETURN JUMPDEST PUSH4 0x4E487B71 PUSH1 0xE0 SHL PUSH0 MSTORE PUSH1 0x11 PUSH1 0x4 MSTORE PUSH1 0x24 PUSH0 REVERT JUMPDEST POP PUSH1 0x1 SHR SWAP2 PUSH2 0x1021 JUMP JUMPDEST CALLVALUE PUSH2 0x4EC JUMPI PUSH1 0x20 CALLDATASIZE PUSH1 0x3 NOT ADD SLT PUSH2 0x4EC JUMPI PUSH2 0x10BC PUSH2 0x5B99 JUMP JUMPDEST PUSH2 0x10C4 PUSH2 0x64C4 JUMP JUMPDEST PUSH1 0x1 PUSH1 0x1 PUSH1 0xA0 SHL SUB AND DUP1 ISZERO PUSH2 0x1115 JUMPI PUSH0 DUP1 SLOAD PUSH1 0x1 PUSH1 0x1 PUSH1 0xA0 SHL SUB NOT DUP2 AND DUP4 OR DUP3 SSTORE PUSH1 0x1 PUSH1 0x1 PUSH1 0xA0 SHL SUB AND SWAP1 PUSH32 0x8BE0079C531659141344CD1FD0A4F28419497F9722A3DAAFE3B4186F6B6457E0 SWAP1 DUP1 LOG3 STOP JUMPDEST PUSH4 0x1E4FBDF7 PUSH1 0xE0 SHL PUSH0 MSTORE PUSH0 PUSH1 0x4 MSTORE PUSH1 0x24 PUSH0 REVERT JUMPDEST CALLVALUE PUSH2 0x4EC JUMPI PUSH0 CALLDATASIZE PUSH1 0x3 NOT ADD SLT PUSH2 0x4EC JUMPI PUSH1 0x20 PUSH1 0x9 SLOAD PUSH1 0x40 MLOAD SWAP1 DUP2 MSTORE RETURN JUMPDEST CALLVALUE PUSH2 0x4EC JUMPI PUSH2 0x1153 CALLDATASIZE PUSH2 0x5E32 JUMP JUMPDEST PUSH2 0x115E SWAP3 SWAP2 SWAP3 PUSH2 0x6846 JUMP JUMPDEST PUSH2 0x1166 PUSH2 0x64EA JUMP JUMPDEST PUSH2 0x1173 PUSH1 0x6 SLOAD DUP6 LT PUSH2 0x5F4B JUMP JUMPDEST DUP4 PUSH0 MSTORE PUSH1 0xB PUSH1 0x20 MSTORE PUSH2 0x118D PUSH1 0x2 PUSH1 0x40 PUSH0 KECCAK256 ADD SLOAD TIMESTAMP LT PUSH2 0x618F JUMP JUMPDEST DUP4 PUSH0 MSTORE PUSH1 0xB PUSH1 0x20 MSTORE PUSH2 0x11A9 PUSH1 0xFF PUSH1 0x5 PUSH1 0x40 PUSH0 KECCAK256 ADD SLOAD AND ISZERO PUSH2 0x61CE JUMP JUMPDEST DUP4 PUSH0 MSTORE PUSH1 0xB PUSH1 0x20 MSTORE PUSH2 0x11C3 PUSH1 0x9 PUSH1 0x40 PUSH0 KECCAK256 ADD SLOAD DUP4 LT PUSH2 0x621A JUMP JUMPDEST DUP4 PUSH0 MSTORE PUSH1 0xB PUSH1 0x20 MSTORE PUSH1 0xB PUSH1 0x40 PUSH0 KECCAK256 ADD DUP3 PUSH0 MSTORE PUSH1 0x20 MSTORE PUSH2 0x11EB PUSH1 0xFF PUSH1 0x5 PUSH1 0x40 PUSH0 KECCAK256 ADD SLOAD AND PUSH2 0x6257 JUMP JUMPDEST PUSH2 0x11F6 DUP4 ISZERO ISZERO PUSH2 0x6297 JUMP JUMPDEST DUP4 PUSH0 MSTORE PUSH1 0xB PUSH1 0x20 MSTORE PUSH1 0xFF PUSH1 0x5 PUSH1 0x40 PUSH0 KECCAK256 ADD SLOAD PUSH1 0x10 SHR AND ISZERO PUSH2 0x15A7 JUMPI PUSH0 DUP5 DUP2 MSTORE PUSH1 0xB PUSH1 0x20 DUP2 DUP2 MSTORE PUSH1 0x40 DUP1 DUP5 KECCAK256 DUP7 DUP6 MSTORE SWAP3 DUP4 ADD SWAP1 SWAP2 MSTORE SWAP1 SWAP2 KECCAK256 PUSH1 0x4 DUP2 ADD SLOAD SWAP1 SWAP4 SWAP2 SWAP3 SWAP2 SWAP1 SWAP2 DUP3 GT PUSH2 0x1571 JUMPI PUSH8 0xDE0B6B3A7640000 PUSH2 0x1252 DUP7 DUP5 PUSH2 0x60A6 JUMP JUMPDEST DIV SWAP5 PUSH2 0x2710 PUSH2 0x1263 PUSH1 0x9 SLOAD DUP9 PUSH2 0x60A6 JUMP JUMPDEST DIV SWAP4 PUSH2 0x126F DUP6 DUP9 PUSH2 0x6099 JUMP JUMPDEST PUSH1 0x3 SLOAD PUSH1 0x40 MLOAD PUSH4 0x23B872DD PUSH1 0xE0 SHL DUP2 MSTORE CALLER PUSH1 0x4 DUP3 ADD MSTORE ADDRESS PUSH1 0x24 DUP3 ADD MSTORE PUSH1 0x44 DUP2 ADD DUP4 SWAP1 MSTORE SWAP2 SWAP3 SWAP1 PUSH1 0x20 SWAP1 DUP4 SWAP1 PUSH1 0x8 SHR PUSH1 0x1 PUSH1 0x1 PUSH1 0xA0 SHL SUB AND DUP2 PUSH0 DUP2 PUSH1 0x64 DUP2 ADD SUB SWAP3 GAS CALL SWAP2 DUP3 ISZERO PUSH2 0xE39 JUMPI PUSH1 0x10 SWAP3 PUSH2 0x12CC SWAP2 PUSH0 SWAP2 PUSH2 0x1552 JUMPI JUMPDEST POP PUSH2 0x63D8 JUMP JUMPDEST CALLER PUSH0 SWAP1 DUP2 MSTORE PUSH1 0xC DUP3 ADD PUSH1 0x20 DUP2 DUP2 MSTORE PUSH1 0x40 DUP1 DUP5 KECCAK256 DUP10 DUP6 MSTORE SWAP1 SWAP2 MSTORE SWAP1 SWAP2 KECCAK256 SLOAD ISZERO DUP1 PUSH2 0x1542 JUMPI JUMPDEST PUSH2 0x1516 JUMPI JUMPDEST PUSH1 0x1 DUP1 PUSH1 0xA0 SHL SUB CALLER AND PUSH0 MSTORE PUSH1 0x20 MSTORE PUSH1 0x40 PUSH0 KECCAK256 DUP6 PUSH0 MSTORE PUSH1 0x20 MSTORE PUSH1 0x40 PUSH0 KECCAK256 PUSH2 0x131C DUP6 DUP3 SLOAD PUSH2 0x6099 JUMP JUMPDEST SWAP1 SSTORE PUSH1 0x2 DUP9 ADD PUSH2 0x132D DUP6 DUP3 SLOAD PUSH2 0x6099 JUMP JUMPDEST SWAP1 SSTORE PUSH1 0x3 DUP9 ADD PUSH2 0x133E DUP11 DUP3 SLOAD PUSH2 0x6099 JUMP JUMPDEST SWAP1 SSTORE PUSH1 0x6 DUP2 ADD PUSH2 0x134F DUP11 DUP3 SLOAD PUSH2 0x6099 JUMP JUMPDEST SWAP1 SSTORE PUSH1 0x7 DUP2 ADD PUSH2 0x1360 DUP11 DUP3 SLOAD PUSH2 0x6099 JUMP JUMPDEST SWAP1 SSTORE ADD PUSH2 0x136E DUP7 DUP3 SLOAD PUSH2 0x6099 JUMP JUMPDEST SWAP1 SSTORE CALLER PUSH0 MSTORE PUSH1 0xD PUSH1 0x20 MSTORE PUSH2 0x1387 PUSH1 0x40 PUSH0 KECCAK256 SWAP2 DUP3 SLOAD PUSH2 0x6099 JUMP JUMPDEST SWAP1 SSTORE CALLER PUSH0 MSTORE PUSH1 0xD PUSH1 0x20 MSTORE PUSH1 0x4 PUSH1 0x40 PUSH0 KECCAK256 ADD PUSH2 0x13A2 DUP2 SLOAD PUSH2 0x60EF JUMP JUMPDEST SWAP1 SSTORE DUP7 PUSH0 MSTORE PUSH1 0xB PUSH1 0x20 MSTORE PUSH1 0xB PUSH1 0x40 PUSH0 KECCAK256 ADD DUP3 PUSH0 MSTORE PUSH1 0x20 MSTORE PUSH1 0x40 PUSH0 KECCAK256 PUSH2 0x13D1 DUP3 PUSH1 0x6 PUSH1 0x7 DUP5 ADD SLOAD SWAP4 ADD SLOAD SWAP3 PUSH2 0x6099 JUMP JUMPDEST PUSH8 0xDE0B6B3A7640000 DUP3 MUL SWAP2 DUP1 DUP4 DIV PUSH8 0xDE0B6B3A7640000 EQ SWAP1 ISZERO OR ISZERO PUSH2 0x1085 JUMPI PUSH32 0xAF7C505EE772EC188AF7067E1F73DB08AB028E3D564273442B907742B9C41FA0 SWAP8 PUSH1 0x20 SWAP8 PUSH2 0x1426 PUSH1 0x4 SWAP4 PUSH2 0x145E SWAP6 PUSH2 0x60B9 JUMP JUMPDEST SWAP3 DUP4 SWAP2 ADD SSTORE DUP10 PUSH0 MSTORE PUSH1 0x10 DUP9 MSTORE PUSH1 0x40 PUSH0 KECCAK256 DUP6 PUSH0 MSTORE DUP9 MSTORE PUSH1 0x40 PUSH0 KECCAK256 SWAP1 PUSH1 0x40 MLOAD SWAP3 PUSH2 0x144D DUP5 PUSH2 0x5CE3 JUMP JUMPDEST DUP4 MSTORE TIMESTAMP DUP10 DUP5 ADD MSTORE PUSH1 0x40 DUP4 ADD MSTORE PUSH2 0x60FD JUMP JUMPDEST PUSH2 0x14BD PUSH1 0x40 MLOAD PUSH2 0x146D DUP2 PUSH2 0x5CFE JUMP JUMPDEST DUP9 DUP2 MSTORE DUP4 DUP8 DUP3 ADD MSTORE CALLER PUSH1 0x40 DUP3 ADD MSTORE PUSH0 PUSH1 0x60 DUP3 ADD MSTORE DUP5 PUSH1 0x80 DUP3 ADD MSTORE DUP3 PUSH1 0xA0 DUP3 ADD MSTORE TIMESTAMP PUSH1 0xC0 DUP3 ADD MSTORE PUSH0 PUSH1 0xE0 DUP3 ADD MSTORE CALLER PUSH0 MSTORE PUSH1 0xE DUP8 MSTORE PUSH2 0x14AD DUP2 PUSH1 0x40 PUSH0 KECCAK256 PUSH2 0x6325 JUMP JUMPDEST DUP9 PUSH0 MSTORE PUSH1 0xF DUP8 MSTORE PUSH1 0x40 PUSH0 KECCAK256 PUSH2 0x6325 JUMP JUMPDEST PUSH1 0x8 SLOAD SWAP1 PUSH2 0x14CA DUP3 PUSH2 0x60EF JUMP JUMPDEST PUSH1 0x8 SSTORE PUSH1 0x40 MLOAD SWAP4 PUSH0 DUP6 MSTORE DUP7 DUP6 ADD MSTORE PUSH1 0x40 DUP5 ADD MSTORE PUSH1 0x60 DUP4 ADD MSTORE DUP6 PUSH32 0x976184626638B6C7E51A4AB66B297BEB1714B545CE4E867A70D622566573098C PUSH1 0x80 CALLER SWAP5 LOG4 PUSH1 0x40 MLOAD SWAP1 DUP2 MSTORE LOG2 PUSH1 0x1 DUP1 SSTORE STOP JUMPDEST PUSH2 0x1523 CALLER PUSH1 0xE DUP5 ADD PUSH2 0x64A7 JUMP JUMPDEST CALLER PUSH0 MSTORE PUSH1 0xD PUSH1 0x20 MSTORE PUSH1 0x40 PUSH0 KECCAK256 SLOAD PUSH2 0x12F5 JUMPI PUSH2 0x153D CALLER PUSH2 0x6462 JUMP JUMPDEST PUSH2 0x12F5 JUMP JUMPDEST POP PUSH2 0x154D DUP12 CALLER PUSH2 0x6866 JUMP JUMPDEST PUSH2 0x12F0 JUMP JUMPDEST PUSH2 0x156B SWAP2 POP PUSH1 0x20 RETURNDATASIZE PUSH1 0x20 GT PUSH2 0xE32 JUMPI PUSH2 0xE24 DUP2 DUP4 PUSH2 0x5D1A JUMP JUMPDEST DUP13 PUSH2 0x12C6 JUMP JUMPDEST PUSH1 0x40 MLOAD PUSH3 0x461BCD PUSH1 0xE5 SHL DUP2 MSTORE PUSH1 0x20 PUSH1 0x4 DUP3 ADD MSTORE PUSH1 0xE PUSH1 0x24 DUP3 ADD MSTORE PUSH14 0xA0E4D2C6CA40E8DEDE40D0D2CED PUSH1 0x93 SHL PUSH1 0x44 DUP3 ADD MSTORE PUSH1 0x64 SWAP1 REVERT JUMPDEST PUSH1 0x40 MLOAD PUSH3 0x461BCD PUSH1 0xE5 SHL DUP2 MSTORE PUSH1 0x20 PUSH1 0x4 DUP3 ADD MSTORE PUSH1 0x14 PUSH1 0x24 DUP3 ADD MSTORE PUSH20 0x13585C9AD95D081B9BDD081D985B1A59185D1959 PUSH1 0x62 SHL PUSH1 0x44 DUP3 ADD MSTORE PUSH1 0x64 SWAP1 REVERT JUMPDEST CALLVALUE PUSH2 0x4EC JUMPI PUSH1 0x20 CALLDATASIZE PUSH1 0x3 NOT ADD SLT PUSH2 0x4EC JUMPI PUSH1 0x4 CALLDATALOAD PUSH2 0x1604 PUSH1 0x6 SLOAD DUP3 LT PUSH2 0x5F4B JUMP JUMPDEST PUSH0 MSTORE PUSH1 0xB PUSH1 0x20 MSTORE PUSH1 0x40 PUSH0 KECCAK256 PUSH2 0x1E0 PUSH1 0x2 DUP3 ADD SLOAD DUP3 PUSH1 0x3 DUP2 ADD SLOAD PUSH1 0x4 DUP3 ADD SLOAD PUSH1 0x5 DUP4 ADD SLOAD PUSH1 0x6 DUP5 ADD SLOAD PUSH1 0x7 DUP6 ADD SLOAD SWAP2 PUSH1 0x8 DUP7 ADD SLOAD SWAP4 PUSH2 0x16A6 PUSH1 0x9 DUP9 ADD SLOAD SWAP7 PUSH2 0x1680 PUSH2 0x165E PUSH1 0x1 PUSH2 0x1657 PUSH1 0xA DUP14 ADD SLOAD SWAP13 PUSH2 0x5FC7 JUMP JUMPDEST SWAP15 ADD PUSH2 0x5FC7 JUMP JUMPDEST PUSH2 0x1672 PUSH1 0x40 MLOAD SWAP15 DUP16 SWAP15 DUP16 DUP2 DUP2 MSTORE ADD SWAP1 PUSH2 0x5C50 JUMP JUMPDEST DUP14 DUP2 SUB PUSH1 0x20 DUP16 ADD MSTORE SWAP1 PUSH2 0x5C50 JUMP JUMPDEST SWAP10 PUSH1 0x40 DUP13 ADD MSTORE PUSH2 0x1696 PUSH1 0x60 DUP13 ADD PUSH1 0xFF DUP4 AND PUSH2 0x5E25 JUMP JUMPDEST PUSH1 0xFF PUSH1 0x80 DUP13 ADD SWAP2 PUSH1 0x8 SHR AND PUSH2 0x5ED0 JUMP JUMPDEST PUSH1 0xA0 DUP10 ADD MSTORE PUSH1 0xFF DUP2 DUP2 AND ISZERO ISZERO PUSH1 0xC0 DUP11 ADD MSTORE PUSH1 0x8 DUP3 SWAP1 SHR DUP2 AND ISZERO ISZERO PUSH1 0xE0 DUP11 ADD MSTORE PUSH1 0x10 DUP3 SWAP1 SHR AND ISZERO ISZERO PUSH2 0x100 DUP10 ADD MSTORE PUSH1 0x18 SHR PUSH1 0x1 PUSH1 0x1 PUSH1 0xA0 SHL SUB AND PUSH2 0x120 DUP9 ADD MSTORE PUSH2 0x140 DUP8 ADD MSTORE PUSH2 0x160 DUP7 ADD MSTORE PUSH2 0x180 DUP6 ADD MSTORE PUSH2 0x1A0 DUP5 ADD MSTORE PUSH2 0x1C0 DUP4 ADD MSTORE SUB SWAP1 RETURN JUMPDEST CALLVALUE PUSH2 0x4EC JUMPI PUSH1 0xA0 CALLDATASIZE PUSH1 0x3 NOT ADD SLT PUSH2 0x4EC JUMPI PUSH1 0x44 CALLDATALOAD PUSH1 0x64 CALLDATALOAD PUSH1 0x4 CALLDATALOAD PUSH1 0x24 CALLDATALOAD PUSH2 0x172C PUSH2 0x6846 JUMP JUMPDEST PUSH2 0x1734 PUSH2 0x64EA JUMP JUMPDEST PUSH2 0x1741 PUSH1 0x6 SLOAD DUP4 LT PUSH2 0x5F4B JUMP JUMPDEST DUP2 PUSH0 MSTORE PUSH1 0xB PUSH1 0x20 MSTORE PUSH2 0x175B PUSH1 0x2 PUSH1 0x40 PUSH0 KECCAK256 ADD SLOAD TIMESTAMP LT PUSH2 0x618F JUMP JUMPDEST DUP2 PUSH0 MSTORE PUSH1 0xB PUSH1 0x20 MSTORE PUSH2 0x1777 PUSH1 0xFF PUSH1 0x5 PUSH1 0x40 PUSH0 KECCAK256 ADD SLOAD AND ISZERO PUSH2 0x61CE JUMP JUMPDEST DUP4 DUP2 EQ PUSH2 0x1A8C JUMPI DUP3 ISZERO SWAP3 PUSH2 0x178B DUP5 ISZERO PUSH2 0x6416 JUMP JUMPDEST DUP3 PUSH0 MSTORE PUSH1 0xB PUSH1 0x20 MSTORE PUSH1 0xC PUSH1 0x40 PUSH0 KECCAK256 ADD PUSH1 0x1 DUP1 PUSH1 0xA0 SHL SUB CALLER AND PUSH0 MSTORE PUSH1 0x20 MSTORE PUSH1 0x40 PUSH0 KECCAK256 DUP3 PUSH0 MSTORE PUSH1 0x20 MSTORE PUSH2 0x17C2 DUP2 PUSH1 0x40 PUSH0 KECCAK256 SLOAD LT ISZERO PUSH2 0x62E3 JUMP JUMPDEST DUP3 PUSH0 MSTORE PUSH1 0xB PUSH1 0x20 MSTORE PUSH1 0x40 PUSH0 KECCAK256 SWAP2 PUSH1 0xB DUP4 ADD SWAP2 DUP2 PUSH0 MSTORE DUP3 PUSH1 0x20 MSTORE PUSH1 0x40 PUSH0 KECCAK256 SWAP3 DUP8 PUSH0 MSTORE PUSH1 0x20 MSTORE PUSH1 0x40 PUSH0 KECCAK256 SWAP7 PUSH1 0x7 DUP5 ADD DUP1 SLOAD PUSH1 0x7 DUP11 ADD SWAP7 DUP8 SLOAD SWAP10 PUSH2 0x26F2 DUP7 MUL SWAP1 DUP7 DUP3 DIV PUSH2 0x26F2 EQ OR ISZERO PUSH2 0x1085 JUMPI DUP11 PUSH2 0x1829 PUSH2 0x1822 PUSH2 0x2710 PUSH2 0x182F SWAP5 DIV DUP1 SWAP4 PUSH2 0x60A6 JUMP JUMPDEST SWAP2 DUP6 PUSH2 0x6099 JUMP JUMPDEST SWAP1 PUSH2 0x60B9 JUMP JUMPDEST SWAP10 PUSH1 0x84 CALLDATALOAD DUP12 LT PUSH2 0x1A47 JUMPI DUP11 LT ISZERO PUSH2 0x1A09 JUMPI PUSH2 0x184C DUP6 PUSH1 0xC SWAP4 PUSH2 0x6099 JUMP JUMPDEST DUP4 SSTORE PUSH2 0x1859 DUP11 DUP10 SLOAD PUSH2 0x6182 JUMP JUMPDEST DUP9 SSTORE ADD PUSH1 0x1 DUP1 PUSH1 0xA0 SHL SUB CALLER AND PUSH0 MSTORE DUP1 PUSH1 0x20 MSTORE PUSH1 0x40 PUSH0 KECCAK256 DUP6 PUSH0 MSTORE PUSH1 0x20 MSTORE PUSH1 0x40 PUSH0 KECCAK256 PUSH2 0x1884 DUP6 DUP3 SLOAD PUSH2 0x6182 JUMP JUMPDEST SWAP1 SSTORE PUSH1 0x1 DUP1 PUSH1 0xA0 SHL SUB CALLER AND PUSH0 MSTORE PUSH1 0x20 MSTORE PUSH1 0x40 PUSH0 KECCAK256 DUP3 PUSH0 MSTORE PUSH1 0x20 MSTORE PUSH1 0x40 PUSH0 KECCAK256 PUSH2 0x18AD DUP10 DUP3 SLOAD PUSH2 0x6099 JUMP JUMPDEST SWAP1 SSTORE PUSH1 0x6 DUP6 ADD SLOAD SWAP1 PUSH8 0xDE0B6B3A7640000 DUP3 MUL SWAP2 DUP1 DUP4 DIV PUSH8 0xDE0B6B3A7640000 EQ SWAP1 ISZERO OR ISZERO PUSH2 0x1085 JUMPI PUSH1 0x4 SWAP2 PUSH2 0x18E4 SWAP2 SLOAD SWAP1 PUSH2 0x60B9 JUMP JUMPDEST SWAP5 ADD SWAP4 DUP5 SSTORE PUSH1 0x6 DUP9 ADD SLOAD PUSH8 0xDE0B6B3A7640000 DUP2 MUL SWAP1 DUP1 DUP3 DIV PUSH8 0xDE0B6B3A7640000 EQ SWAP1 ISZERO OR ISZERO PUSH2 0x1085 JUMPI PUSH1 0x20 SWAP9 PUSH2 0x1998 PUSH1 0xA0 SWAP7 PUSH1 0x4 PUSH2 0x194A PUSH2 0x19E1 SWAP6 PUSH32 0xCA95F9F211ECEB8CF82EFF4E16AE708336F056D94515A268F4B8FD1F5C08EF50 SWAP12 SLOAD SWAP1 PUSH2 0x60B9 JUMP JUMPDEST SWAP4 ADD SWAP3 DUP4 SSTORE DUP10 PUSH0 MSTORE PUSH1 0x10 DUP13 MSTORE PUSH1 0x40 PUSH0 KECCAK256 DUP8 PUSH0 MSTORE DUP13 MSTORE PUSH1 0x40 PUSH0 KECCAK256 SWAP1 SLOAD SWAP1 PUSH8 0xDE0B6B3A7640000 PUSH2 0x1979 DUP4 DUP10 PUSH2 0x60A6 JUMP JUMPDEST DIV PUSH1 0x40 MLOAD SWAP3 PUSH2 0x1987 DUP5 PUSH2 0x5CE3 JUMP JUMPDEST DUP4 MSTORE TIMESTAMP DUP15 DUP5 ADD MSTORE PUSH1 0x40 DUP4 ADD MSTORE PUSH2 0x60FD JUMP JUMPDEST DUP8 PUSH0 MSTORE PUSH1 0x10 DUP11 MSTORE PUSH1 0x40 PUSH0 KECCAK256 DUP4 PUSH0 MSTORE DUP11 MSTORE PUSH1 0x40 PUSH0 KECCAK256 SWAP1 SLOAD SWAP1 PUSH8 0xDE0B6B3A7640000 PUSH2 0x19C2 DUP4 DUP13 PUSH2 0x60A6 JUMP JUMPDEST DIV PUSH1 0x40 MLOAD SWAP3 PUSH2 0x19D0 DUP5 PUSH2 0x5CE3 JUMP JUMPDEST DUP4 MSTORE TIMESTAMP DUP13 DUP5 ADD MSTORE PUSH1 0x40 DUP4 ADD MSTORE PUSH2 0x60FD JUMP JUMPDEST PUSH1 0x40 MLOAD SWAP3 DUP4 MSTORE DUP8 DUP4 ADD MSTORE PUSH1 0x40 DUP3 ADD MSTORE DUP5 PUSH1 0x60 DUP3 ADD MSTORE CALLER PUSH1 0x80 DUP3 ADD MSTORE LOG2 PUSH1 0x1 DUP1 SSTORE PUSH1 0x40 MLOAD SWAP1 DUP2 MSTORE RETURN JUMPDEST PUSH1 0x40 MLOAD PUSH3 0x461BCD PUSH1 0xE5 SHL DUP2 MSTORE PUSH1 0x20 PUSH1 0x4 DUP3 ADD MSTORE PUSH1 0x16 PUSH1 0x24 DUP3 ADD MSTORE PUSH22 0x496E73756666696369656E74206C6971756964697479 PUSH1 0x50 SHL PUSH1 0x44 DUP3 ADD MSTORE PUSH1 0x64 SWAP1 REVERT JUMPDEST PUSH1 0x40 MLOAD PUSH3 0x461BCD PUSH1 0xE5 SHL DUP2 MSTORE PUSH1 0x20 PUSH1 0x4 DUP3 ADD MSTORE PUSH1 0x1A PUSH1 0x24 DUP3 ADD MSTORE PUSH32 0x496E73756666696369656E74206F757470757420616D6F756E74000000000000 PUSH1 0x44 DUP3 ADD MSTORE PUSH1 0x64 SWAP1 REVERT JUMPDEST PUSH1 0x40 MLOAD PUSH3 0x461BCD PUSH1 0xE5 SHL DUP2 MSTORE PUSH1 0x20 PUSH1 0x4 DUP3 ADD MSTORE PUSH1 0x17 PUSH1 0x24 DUP3 ADD MSTORE PUSH32 0x43616E6E6F7420737761702073616D65206F7074696F6E000000000000000000 PUSH1 0x44 DUP3 ADD MSTORE PUSH1 0x64 SWAP1 REVERT JUMPDEST PUSH2 0x120 CALLDATASIZE PUSH1 0x3 NOT ADD SLT PUSH2 0x4EC JUMPI PUSH1 0x4 CALLDATALOAD PUSH1 0x1 PUSH1 0x1 PUSH1 0x40 SHL SUB DUP2 GT PUSH2 0x4EC JUMPI PUSH2 0x1AFD SWAP1 CALLDATASIZE SWAP1 PUSH1 0x4 ADD PUSH2 0x5D3B JUMP JUMPDEST PUSH1 0x24 CALLDATALOAD PUSH1 0x1 PUSH1 0x1 PUSH1 0x40 SHL SUB DUP2 GT PUSH2 0x4EC JUMPI PUSH2 0x1B1C SWAP1 CALLDATASIZE SWAP1 PUSH1 0x4 ADD PUSH2 0x5D3B JUMP JUMPDEST PUSH1 0x44 CALLDATALOAD PUSH1 0x1 PUSH1 0x1 PUSH1 0x40 SHL SUB DUP2 GT PUSH2 0x4EC JUMPI PUSH2 0x1B3B SWAP1 CALLDATASIZE SWAP1 PUSH1 0x4 ADD PUSH2 0x5DA7 JUMP JUMPDEST SWAP2 PUSH1 0x64 CALLDATALOAD PUSH1 0x1 PUSH1 0x1 PUSH1 0x40 SHL SUB DUP2 GT PUSH2 0x4EC JUMPI PUSH2 0x1B5B SWAP1 CALLDATASIZE SWAP1 PUSH1 0x4 ADD PUSH2 0x5DA7 JUMP JUMPDEST PUSH1 0x84 CALLDATALOAD SWAP1 PUSH1 0xA4 CALLDATALOAD SWAP3 PUSH1 0x8 DUP5 LT ISZERO PUSH2 0x4EC JUMPI PUSH1 0xE4 CALLDATALOAD PUSH1 0x1 PUSH1 0x1 PUSH1 0x40 SHL SUB DUP2 GT PUSH2 0x4EC JUMPI PUSH2 0x1B8B SWAP1 CALLDATASIZE SWAP1 PUSH1 0x4 ADD PUSH2 0x5D3B JUMP JUMPDEST SWAP6 PUSH2 0x104 CALLDATALOAD SWAP5 PUSH2 0x1B99 PUSH2 0x64EA JUMP JUMPDEST CALLVALUE ISZERO PUSH2 0x24FC JUMPI PUSH2 0x1BA7 PUSH2 0x64EA JUMP JUMPDEST PUSH0 SLOAD PUSH1 0x1 PUSH1 0x1 PUSH1 0xA0 SHL SUB AND CALLER EQ DUP1 ISZERO PUSH2 0x24D8 JUMPI JUMPDEST ISZERO PUSH2 0xF76 JUMPI PUSH2 0xE10 DUP6 LT ISZERO DUP1 PUSH2 0x24CA JUMPI JUMPDEST ISZERO PUSH2 0xF30 JUMPI DUP3 MLOAD ISZERO PUSH2 0xEEB JUMPI DUP2 MLOAD PUSH1 0x2 DUP2 LT ISZERO SWAP1 DUP2 PUSH2 0x24BE JUMPI JUMPDEST POP ISZERO PUSH2 0xE9A JUMPI DUP2 MLOAD DUP5 MLOAD SUB PUSH2 0xE44 JUMPI PUSH9 0x56BC75E2D63100000 DUP7 LT PUSH2 0x2463 JUMPI PUSH1 0x3 SLOAD PUSH1 0x40 MLOAD PUSH4 0x23B872DD PUSH1 0xE0 SHL DUP2 MSTORE CALLER PUSH1 0x4 DUP3 ADD MSTORE ADDRESS PUSH1 0x24 DUP3 ADD MSTORE PUSH1 0x44 DUP2 ADD DUP9 SWAP1 MSTORE SWAP1 PUSH1 0x20 SWAP1 DUP3 SWAP1 PUSH1 0x8 SHR PUSH1 0x1 PUSH1 0x1 PUSH1 0xA0 SHL SUB AND DUP2 PUSH0 DUP2 PUSH1 0x64 DUP2 ADD SUB SWAP3 GAS CALL SWAP1 DUP2 ISZERO PUSH2 0xE39 JUMPI PUSH0 SWAP2 PUSH2 0x2444 JUMPI JUMPDEST POP ISZERO PUSH2 0xDC5 JUMPI PUSH1 0x6 SLOAD SWAP5 PUSH2 0x1C66 DUP7 PUSH2 0x60EF JUMP JUMPDEST PUSH1 0x6 SSTORE DUP6 PUSH0 MSTORE PUSH1 0xB PUSH1 0x20 MSTORE PUSH1 0x40 PUSH0 KECCAK256 SWAP8 DUP5 MLOAD PUSH1 0x1 PUSH1 0x1 PUSH1 0x40 SHL SUB DUP2 GT PUSH2 0xA9A JUMPI PUSH2 0x1C90 DUP11 SLOAD PUSH2 0x5F8F JUMP JUMPDEST PUSH1 0x1F DUP2 GT PUSH2 0x23FF JUMPI JUMPDEST POP DUP1 PUSH1 0x20 PUSH1 0x1F DUP3 GT PUSH1 0x1 EQ PUSH2 0x239E JUMPI PUSH0 SWAP2 PUSH2 0x2393 JUMPI JUMPDEST POP DUP2 PUSH1 0x1 SHL SWAP2 PUSH0 NOT SWAP1 PUSH1 0x3 SHL SHR NOT AND OR DUP10 SSTORE JUMPDEST DUP1 MLOAD PUSH1 0x1 DUP11 ADD SWAP2 PUSH1 0x1 PUSH1 0x1 PUSH1 0x40 SHL SUB DUP3 GT PUSH2 0xA9A JUMPI PUSH2 0x1CE1 DUP4 SLOAD PUSH2 0x5F8F JUMP JUMPDEST PUSH1 0x1F DUP2 GT PUSH2 0x234E JUMPI JUMPDEST POP PUSH1 0x20 SWAP1 PUSH1 0x1F DUP4 GT PUSH1 0x1 EQ PUSH2 0x22E7 JUMPI PUSH2 0x1D20 SWAP5 SWAP4 SWAP3 SWAP2 PUSH0 SWAP2 DUP4 PUSH2 0x22DC JUMPI POP POP DUP2 PUSH1 0x1 SHL SWAP2 PUSH0 NOT SWAP1 PUSH1 0x3 SHL SHR NOT AND OR SWAP1 SSTORE TIMESTAMP PUSH2 0x6099 JUMP JUMPDEST PUSH1 0x2 DUP9 ADD SWAP1 DUP2 SSTORE PUSH1 0x3 DUP9 ADD DUP1 SLOAD PUSH2 0xFFFF NOT AND PUSH1 0xFF DUP5 AND OR PUSH2 0x200 OR SWAP1 SSTORE PUSH1 0x5 DUP9 ADD DUP1 SLOAD PUSH4 0x1000000 PUSH1 0x1 PUSH1 0xB8 SHL SUB NOT AND CALLER PUSH1 0x18 SHL PUSH4 0x1000000 PUSH1 0x1 PUSH1 0xB8 SHL SUB AND OR SWAP1 SSTORE TIMESTAMP PUSH1 0x8 DUP10 ADD SSTORE DUP3 MLOAD PUSH1 0x9 DUP10 ADD DUP2 SWAP1 SSTORE PUSH1 0xA DUP10 ADD DUP9 SWAP1 SSTORE SWAP1 SWAP9 SWAP1 DUP1 ISZERO PUSH2 0xC46 JUMPI PUSH2 0x1D9C SWAP1 PUSH8 0xDE0B6B3A7640000 SWAP11 SWAP10 SWAP11 DIV SWAP8 DUP5 MLOAD SWAP1 PUSH2 0x60B9 JUMP JUMPDEST SWAP4 PUSH1 0xB PUSH0 SWAP11 ADD SWAP10 JUMPDEST DUP5 MLOAD DUP2 LT ISZERO PUSH2 0x2086 JUMPI PUSH2 0x1DB7 DUP2 DUP7 PUSH2 0x60C3 JUMP JUMPDEST MLOAD DUP7 DUP13 PUSH2 0x1DC4 DUP5 DUP12 PUSH2 0x60C3 JUMP JUMPDEST MLOAD PUSH1 0x40 MLOAD SWAP4 PUSH2 0x1DD2 DUP6 PUSH2 0x5CFE JUMP JUMPDEST DUP5 MSTORE PUSH1 0x20 DUP5 ADD SWAP1 DUP2 MSTORE DUP13 PUSH1 0x40 DUP6 ADD PUSH0 DUP2 MSTORE PUSH1 0x60 DUP7 ADD SWAP1 PUSH0 DUP3 MSTORE PUSH1 0x80 DUP8 ADD SWAP3 DUP4 MSTORE PUSH1 0xA0 DUP8 ADD SWAP4 PUSH1 0x1 DUP6 MSTORE PUSH1 0xC0 DUP9 ADD SWAP6 DUP8 DUP8 MSTORE PUSH1 0xE0 DUP10 ADD SWAP8 DUP9 MSTORE DUP10 PUSH0 MSTORE PUSH1 0x20 MSTORE PUSH1 0x40 PUSH0 KECCAK256 SWAP8 MLOAD DUP1 MLOAD SWAP1 PUSH1 0x1 PUSH1 0x1 PUSH1 0x40 SHL SUB DUP3 GT PUSH2 0xA9A JUMPI DUP2 SWAP1 PUSH2 0x1E33 DUP12 SLOAD PUSH2 0x5F8F JUMP JUMPDEST PUSH1 0x1F DUP2 GT PUSH2 0x2036 JUMPI JUMPDEST POP PUSH1 0x20 SWAP1 PUSH1 0x1F DUP4 GT PUSH1 0x1 EQ PUSH2 0x1FD3 JUMPI PUSH0 SWAP3 PUSH2 0x1FC8 JUMPI JUMPDEST POP POP DUP2 PUSH1 0x1 SHL SWAP2 PUSH0 NOT SWAP1 PUSH1 0x3 SHL SHR NOT AND OR DUP9 SSTORE JUMPDEST MLOAD DUP1 MLOAD PUSH1 0x1 DUP10 ADD SWAP2 PUSH1 0x1 PUSH1 0x1 PUSH1 0x40 SHL SUB DUP3 GT PUSH2 0xA9A JUMPI PUSH2 0x1E86 DUP4 SLOAD PUSH2 0x5F8F JUMP JUMPDEST PUSH1 0x1F DUP2 GT PUSH2 0x1F83 JUMPI JUMPDEST POP PUSH1 0x20 SWAP1 PUSH1 0x1F DUP4 GT PUSH1 0x1 EQ PUSH2 0x1F2A JUMPI SWAP3 DUP3 PUSH2 0x1EF4 SWAP7 SWAP4 PUSH1 0x1 SWAP14 SWAP13 SWAP12 SWAP10 SWAP7 SWAP4 PUSH1 0x7 SWAP12 SWAP10 SWAP7 PUSH0 SWAP3 PUSH2 0x9D8 JUMPI POP POP PUSH0 NOT PUSH1 0x3 DUP4 SWAP1 SHL SHR NOT AND SWAP1 DUP14 SHL OR SWAP1 SSTORE MLOAD PUSH1 0x2 DUP10 ADD SSTORE MLOAD PUSH1 0x3 DUP9 ADD SSTORE MLOAD PUSH1 0x4 DUP8 ADD SSTORE MLOAD ISZERO ISZERO PUSH1 0x5 DUP7 ADD SWAP1 PUSH1 0xFF DUP1 NOT DUP4 SLOAD AND SWAP2 ISZERO ISZERO AND OR SWAP1 SSTORE JUMP JUMPDEST MLOAD PUSH1 0x6 DUP5 ADD SSTORE MLOAD SWAP2 ADD SSTORE DUP9 PUSH0 MSTORE PUSH1 0x10 PUSH1 0x20 MSTORE PUSH1 0x40 PUSH0 KECCAK256 DUP2 PUSH0 MSTORE PUSH1 0x20 MSTORE PUSH2 0x1F24 PUSH1 0x40 PUSH0 KECCAK256 PUSH1 0x40 MLOAD SWAP1 PUSH2 0x9BE DUP3 PUSH2 0x5CE3 JUMP JUMPDEST ADD PUSH2 0x1DA4 JUMP JUMPDEST SWAP1 PUSH1 0x1F NOT DUP4 AND SWAP2 DUP5 PUSH0 MSTORE DUP2 PUSH0 KECCAK256 SWAP3 PUSH0 JUMPDEST DUP2 DUP2 LT PUSH2 0x1F6B JUMPI POP SWAP4 PUSH1 0x1 SWAP14 SWAP13 SWAP12 SWAP10 SWAP7 SWAP4 PUSH1 0x7 SWAP12 SWAP10 SWAP7 SWAP4 DUP16 SWAP4 DUP4 PUSH2 0x1EF4 SWAP12 SWAP9 LT PUSH2 0xA25 JUMPI POP POP POP DUP2 SHL ADD SWAP1 SSTORE PUSH2 0x964 JUMP JUMPDEST SWAP3 SWAP4 PUSH1 0x20 PUSH1 0x1 DUP2 SWAP3 DUP8 DUP7 ADD MLOAD DUP2 SSTORE ADD SWAP6 ADD SWAP4 ADD PUSH2 0x1F3A JUMP JUMPDEST DUP4 PUSH0 MSTORE PUSH1 0x20 PUSH0 KECCAK256 PUSH1 0x1F DUP5 ADD PUSH1 0x5 SHR DUP2 ADD SWAP2 PUSH1 0x20 DUP6 LT PUSH2 0x1FBE JUMPI JUMPDEST PUSH1 0x1F ADD PUSH1 0x5 SHR ADD SWAP1 JUMPDEST DUP2 DUP2 LT PUSH2 0x1FB3 JUMPI POP PUSH2 0x1E8F JUMP JUMPDEST PUSH0 DUP2 SSTORE PUSH1 0x1 ADD PUSH2 0x1FA6 JUMP JUMPDEST SWAP1 SWAP2 POP DUP2 SWAP1 PUSH2 0x1F9D JUMP JUMPDEST ADD MLOAD SWAP1 POP PUSH0 DUP1 PUSH2 0x1E52 JUMP JUMPDEST PUSH0 DUP13 DUP2 MSTORE DUP3 DUP2 KECCAK256 SWAP4 POP PUSH1 0x1F NOT DUP6 AND SWAP1 JUMPDEST DUP2 DUP2 LT PUSH2 0x201E JUMPI POP SWAP1 DUP5 PUSH1 0x1 SWAP6 SWAP5 SWAP4 SWAP3 LT PUSH2 0x2006 JUMPI JUMPDEST POP POP POP DUP2 SHL ADD DUP9 SSTORE PUSH2 0x1E66 JUMP JUMPDEST ADD MLOAD PUSH0 NOT PUSH1 0xF8 DUP5 PUSH1 0x3 SHL AND SHR NOT AND SWAP1 SSTORE PUSH0 DUP1 DUP1 PUSH2 0x1FF9 JUMP JUMPDEST SWAP3 SWAP4 PUSH1 0x20 PUSH1 0x1 DUP2 SWAP3 DUP8 DUP7 ADD MLOAD DUP2 SSTORE ADD SWAP6 ADD SWAP4 ADD PUSH2 0x1FE3 JUMP JUMPDEST SWAP1 SWAP2 POP DUP11 PUSH0 MSTORE PUSH1 0x20 PUSH0 KECCAK256 PUSH1 0x1F DUP5 ADD PUSH1 0x5 SHR DUP2 ADD SWAP2 PUSH1 0x20 DUP6 LT PUSH2 0x207C JUMPI JUMPDEST SWAP1 PUSH1 0x1F DUP6 SWAP5 SWAP4 SWAP3 ADD PUSH1 0x5 SHR ADD SWAP1 JUMPDEST DUP2 DUP2 LT PUSH2 0x206E JUMPI POP PUSH2 0x1E3C JUMP JUMPDEST PUSH0 DUP2 SSTORE DUP5 SWAP4 POP PUSH1 0x1 ADD PUSH2 0x2061 JUMP JUMPDEST SWAP1 SWAP2 POP DUP2 SWAP1 PUSH2 0x2053 JUMP JUMPDEST POP DUP7 SWAP1 DUP5 DUP11 PUSH2 0x2098 DUP5 PUSH2 0xB7F DUP9 PUSH2 0x5EA2 JUMP JUMPDEST PUSH2 0x20A6 DUP5 PUSH2 0xB7F PUSH1 0x2 PUSH2 0x5EB9 JUMP JUMPDEST SLOAD SWAP5 PUSH2 0x20BD PUSH1 0x40 MLOAD SWAP4 PUSH1 0xC0 DUP6 MSTORE PUSH1 0xC0 DUP6 ADD SWAP1 PUSH2 0x5C50 JUMP JUMPDEST SWAP6 DUP4 DUP8 SUB PUSH1 0x20 DUP6 ADD MSTORE DUP3 MLOAD DUP1 DUP9 MSTORE PUSH1 0x20 DUP9 ADD SWAP1 PUSH1 0x20 DUP1 DUP3 PUSH1 0x5 SHL DUP12 ADD ADD SWAP6 ADD SWAP2 PUSH0 SWAP1 JUMPDEST DUP3 DUP3 LT PUSH2 0x22B0 JUMPI POP POP POP POP PUSH1 0x40 DUP5 ADD MSTORE PUSH2 0x20FE SWAP1 PUSH1 0x60 DUP5 ADD SWAP1 PUSH2 0x5E25 JUMP JUMPDEST DUP2 DUP1 PUSH0 MLOAD PUSH1 0x20 PUSH2 0x6903 PUSH0 CODECOPY PUSH0 MLOAD SWAP1 PUSH0 MSTORE SWAP3 PUSH1 0x2 PUSH1 0x80 DUP8 SWAP7 ADD MSTORE CALLER PUSH1 0xA0 DUP4 ADD MSTORE SUB SWAP1 LOG2 PUSH0 DUP2 DUP2 MSTORE PUSH1 0xB PUSH1 0x20 MSTORE PUSH1 0x40 SWAP1 KECCAK256 PUSH1 0x17 DUP2 ADD DUP1 SLOAD PUSH1 0x1 PUSH1 0x1 PUSH1 0xA0 SHL SUB NOT AND CALLER OR SWAP1 SSTORE CALLVALUE PUSH1 0x18 DUP3 ADD SSTORE PUSH1 0xC4 CALLDATALOAD PUSH1 0x19 DUP3 ADD SSTORE DUP3 MLOAD SWAP3 SWAP1 PUSH1 0x1B ADD PUSH1 0x1 PUSH1 0x1 PUSH1 0x40 SHL SUB DUP5 GT PUSH2 0xA9A JUMPI PUSH2 0x216E DUP2 SLOAD PUSH2 0x5F8F JUMP JUMPDEST SWAP4 PUSH1 0x1F DUP6 GT PUSH2 0x2257 JUMPI JUMPDEST PUSH1 0x20 SWAP5 POP DUP1 DUP6 PUSH1 0x1F DUP3 GT PUSH1 0x1 EQ PUSH2 0x21F7 JUMPI PUSH0 SWAP2 PUSH2 0x21EC JUMPI JUMPDEST POP DUP2 PUSH1 0x1 SHL SWAP2 PUSH0 NOT SWAP1 PUSH1 0x3 SHL SHR NOT AND OR SWAP1 SSTORE JUMPDEST DUP2 PUSH32 0x5ECBA3331A79C832C0833D5F1B33759B26D8743C93F4A1B5402053FCBE29DE84 PUSH1 0x40 MLOAD CALLVALUE DUP2 MSTORE PUSH1 0x40 DUP7 DUP3 ADD MSTORE DUP1 PUSH2 0x21E1 CALLER SWAP6 PUSH1 0x40 DUP4 ADD SWAP1 PUSH2 0x5C50 JUMP JUMPDEST SUB SWAP1 LOG3 PUSH1 0x40 MLOAD SWAP1 DUP2 MSTORE RETURN JUMPDEST SWAP1 POP DUP4 ADD MLOAD DUP7 PUSH2 0x2190 JUMP JUMPDEST PUSH0 DUP5 DUP2 MSTORE DUP2 DUP2 KECCAK256 SWAP3 POP PUSH1 0x1F NOT DUP5 AND SWAP1 JUMPDEST DUP2 DUP2 LT PUSH2 0x2240 JUMPI POP SWAP1 DUP4 PUSH1 0x1 SWAP5 SWAP4 SWAP3 LT PUSH2 0x2228 JUMPI JUMPDEST POP POP DUP2 SHL ADD SWAP1 SSTORE PUSH2 0x21A3 JUMP JUMPDEST DUP6 ADD MLOAD PUSH0 NOT PUSH1 0xF8 DUP5 PUSH1 0x3 SHL AND SHR NOT AND SWAP1 SSTORE DUP7 DUP1 PUSH2 0x221C JUMP JUMPDEST SWAP2 SWAP3 DUP9 PUSH1 0x1 DUP2 SWAP3 DUP7 DUP11 ADD MLOAD DUP2 SSTORE ADD SWAP5 ADD SWAP3 ADD PUSH2 0x2207 JUMP JUMPDEST DUP2 PUSH0 MSTORE PUSH1 0x20 PUSH0 KECCAK256 PUSH1 0x1F DUP3 ADD PUSH1 0x5 SHR DUP2 ADD SWAP6 PUSH1 0x20 DUP4 LT PUSH2 0x2292 JUMPI JUMPDEST PUSH1 0x1F ADD PUSH1 0x5 SHR ADD SWAP5 JUMPDEST DUP6 DUP2 LT PUSH2 0x2287 JUMPI POP PUSH2 0x2178 JUMP JUMPDEST PUSH0 DUP2 SSTORE PUSH1 0x1 ADD PUSH2 0x227A JUMP JUMPDEST SWAP1 SWAP6 POP DUP6 SWAP1 PUSH2 0x2271 JUMP JUMPDEST PUSH4 0x4E487B71 PUSH1 0xE0 SHL PUSH0 MSTORE PUSH1 0x21 PUSH1 0x4 MSTORE PUSH1 0x24 PUSH0 REVERT JUMPDEST SWAP1 SWAP2 SWAP3 SWAP6 PUSH1 0x20 DUP1 PUSH2 0x22CE PUSH1 0x1 SWAP4 DUP15 PUSH1 0x1F NOT SWAP1 DUP3 SUB ADD DUP7 MSTORE DUP11 MLOAD PUSH2 0x5C50 JUMP JUMPDEST SWAP9 ADD SWAP3 ADD SWAP3 ADD SWAP1 SWAP3 SWAP2 PUSH2 0x20E0 JUMP JUMPDEST ADD MLOAD SWAP1 POP DUP14 DUP1 PUSH2 0x787 JUMP JUMPDEST SWAP1 PUSH1 0x1F NOT DUP4 AND SWAP2 DUP5 PUSH0 MSTORE DUP2 PUSH0 KECCAK256 SWAP3 PUSH0 JUMPDEST DUP2 DUP2 LT PUSH2 0x2336 JUMPI POP SWAP2 PUSH1 0x1 SWAP4 SWAP2 DUP6 PUSH2 0x1D20 SWAP9 SWAP8 SWAP7 SWAP5 LT PUSH2 0x231E JUMPI POP POP POP DUP2 SHL ADD SWAP1 SSTORE PUSH2 0x79B JUMP JUMPDEST ADD MLOAD PUSH0 NOT PUSH1 0xF8 DUP5 PUSH1 0x3 SHL AND SHR NOT AND SWAP1 SSTORE DUP14 DUP1 DUP1 PUSH2 0xC90 JUMP JUMPDEST SWAP3 SWAP4 PUSH1 0x20 PUSH1 0x1 DUP2 SWAP3 DUP8 DUP7 ADD MLOAD DUP2 SSTORE ADD SWAP6 ADD SWAP4 ADD PUSH2 0x22F7 JUMP JUMPDEST DUP4 PUSH0 MSTORE PUSH1 0x20 PUSH0 KECCAK256 PUSH1 0x1F DUP5 ADD PUSH1 0x5 SHR DUP2 ADD SWAP2 PUSH1 0x20 DUP6 LT PUSH2 0x2389 JUMPI JUMPDEST PUSH1 0x1F ADD PUSH1 0x5 SHR ADD SWAP1 JUMPDEST DUP2 DUP2 LT PUSH2 0x237E JUMPI POP PUSH2 0x1CEA JUMP JUMPDEST PUSH0 DUP2 SSTORE PUSH1 0x1 ADD PUSH2 0x2371 JUMP JUMPDEST SWAP1 SWAP2 POP DUP2 SWAP1 PUSH2 0x2368 JUMP JUMPDEST SWAP1 POP DUP7 ADD MLOAD DUP13 PUSH2 0x1CAF JUMP JUMPDEST PUSH0 DUP13 DUP2 MSTORE DUP2 DUP2 KECCAK256 SWAP3 POP PUSH1 0x1F NOT DUP5 AND SWAP1 JUMPDEST DUP2 DUP2 LT PUSH2 0x23E7 JUMPI POP SWAP1 DUP4 PUSH1 0x1 SWAP5 SWAP4 SWAP3 LT PUSH2 0x23CF JUMPI JUMPDEST POP POP DUP2 SHL ADD DUP10 SSTORE PUSH2 0x1CC2 JUMP JUMPDEST DUP9 ADD MLOAD PUSH0 NOT PUSH1 0xF8 DUP5 PUSH1 0x3 SHL AND SHR NOT AND SWAP1 SSTORE DUP13 DUP1 PUSH2 0x23C3 JUMP JUMPDEST SWAP2 SWAP3 PUSH1 0x20 PUSH1 0x1 DUP2 SWAP3 DUP7 DUP14 ADD MLOAD DUP2 SSTORE ADD SWAP5 ADD SWAP3 ADD PUSH2 0x23AE JUMP JUMPDEST DUP11 PUSH0 MSTORE PUSH1 0x20 PUSH0 KECCAK256 PUSH1 0x1F DUP4 ADD PUSH1 0x5 SHR DUP2 ADD SWAP2 PUSH1 0x20 DUP5 LT PUSH2 0x243A JUMPI JUMPDEST PUSH1 0x1F ADD PUSH1 0x5 SHR ADD SWAP1 JUMPDEST DUP2 DUP2 LT PUSH2 0x242F JUMPI POP PUSH2 0x1C99 JUMP JUMPDEST PUSH0 DUP2 SSTORE PUSH1 0x1 ADD PUSH2 0x2422 JUMP JUMPDEST SWAP1 SWAP2 POP DUP2 SWAP1 PUSH2 0x2419 JUMP JUMPDEST PUSH2 0x245D SWAP2 POP PUSH1 0x20 RETURNDATASIZE PUSH1 0x20 GT PUSH2 0xE32 JUMPI PUSH2 0xE24 DUP2 DUP4 PUSH2 0x5D1A JUMP JUMPDEST DUP10 PUSH2 0x1C53 JUMP JUMPDEST PUSH1 0x40 MLOAD PUSH3 0x461BCD PUSH1 0xE5 SHL DUP2 MSTORE PUSH1 0x20 PUSH1 0x4 DUP3 ADD MSTORE PUSH1 0x2D PUSH1 0x24 DUP3 ADD MSTORE PUSH32 0x4D696E696D756D2031303020746F6B656E7320696E697469616C206C69717569 PUSH1 0x44 DUP3 ADD MSTORE PUSH13 0x191A5D1E481C995C5D5A5C9959 PUSH1 0x9A SHL PUSH1 0x64 DUP3 ADD MSTORE PUSH1 0x84 SWAP1 REVERT JUMPDEST PUSH1 0xA SWAP2 POP GT ISZERO DUP10 PUSH2 0x1BE6 JUMP JUMPDEST POP PUSH4 0x1E13380 DUP6 GT ISZERO PUSH2 0x1BCC JUMP JUMPDEST POP CALLER PUSH0 SWAP1 DUP2 MSTORE PUSH0 MLOAD PUSH1 0x20 PUSH2 0x68E3 PUSH0 CODECOPY PUSH0 MLOAD SWAP1 PUSH0 MSTORE PUSH1 0x20 MSTORE PUSH1 0x40 SWAP1 KECCAK256 SLOAD PUSH1 0xFF AND PUSH2 0x1BBB JUMP JUMPDEST PUSH1 0x40 MLOAD PUSH3 0x461BCD PUSH1 0xE5 SHL DUP2 MSTORE PUSH1 0x20 PUSH1 0x4 DUP3 ADD MSTORE PUSH1 0x16 PUSH1 0x24 DUP3 ADD MSTORE PUSH22 0x14DC1BDB9CDBDC881C1C9A5E99481C995C5D5A5C9959 PUSH1 0x52 SHL PUSH1 0x44 DUP3 ADD MSTORE PUSH1 0x64 SWAP1 REVERT JUMPDEST CALLVALUE PUSH2 0x4EC JUMPI PUSH1 0x40 CALLDATASIZE PUSH1 0x3 NOT ADD SLT PUSH2 0x4EC JUMPI PUSH1 0x4 CALLDATALOAD PUSH1 0x3 DUP2 LT ISZERO PUSH2 0x4EC JUMPI PUSH2 0x2563 PUSH1 0x24 CALLDATALOAD SWAP2 PUSH2 0x5EB9 JUMP JUMPDEST DUP1 SLOAD DUP3 LT ISZERO PUSH2 0x4EC JUMPI PUSH1 0x20 SWAP2 PUSH2 0x2578 SWAP2 PUSH2 0x5B84 JUMP JUMPDEST SWAP1 SLOAD SWAP1 PUSH1 0x3 SHL SHR PUSH1 0x40 MLOAD SWAP1 DUP2 MSTORE RETURN JUMPDEST CALLVALUE PUSH2 0x4EC JUMPI PUSH1 0x40 CALLDATASIZE PUSH1 0x3 NOT ADD SLT PUSH2 0x4EC JUMPI PUSH2 0x25CA PUSH1 0x4 CALLDATALOAD PUSH2 0x25A6 PUSH2 0x5BAF JUMP JUMPDEST SWAP1 PUSH2 0x25C5 PUSH2 0x25C0 DUP3 PUSH0 MSTORE PUSH1 0x2 PUSH1 0x20 MSTORE PUSH1 0x1 PUSH1 0x40 PUSH0 KECCAK256 ADD SLOAD SWAP1 JUMP JUMPDEST PUSH2 0x6505 JUMP JUMPDEST PUSH2 0x67C2 JUMP JUMPDEST STOP JUMPDEST CALLVALUE PUSH2 0x4EC JUMPI PUSH2 0x25E4 PUSH2 0x25DD CALLDATASIZE PUSH2 0x5E83 JUMP JUMPDEST SWAP2 SWAP1 PUSH2 0x5EA2 JUMP JUMPDEST DUP1 SLOAD SWAP1 DUP2 DUP4 GT ISZERO PUSH2 0x265D JUMPI DUP2 JUMPDEST PUSH2 0x25FA DUP4 PUSH2 0x6067 JUMP JUMPDEST SWAP4 DUP1 DUP3 GT ISZERO PUSH2 0x2655 JUMPI PUSH2 0x260C SWAP2 PUSH2 0x6182 JUMP JUMPDEST PUSH0 JUMPDEST DUP4 DUP2 LT PUSH2 0x2627 JUMPI PUSH1 0x40 MLOAD DUP1 PUSH2 0x2623 DUP8 DUP3 PUSH2 0x5C74 JUMP JUMPDEST SUB SWAP1 RETURN JUMPDEST DUP1 PUSH2 0x263D PUSH2 0x2637 PUSH1 0x1 SWAP4 DUP6 PUSH2 0x6099 JUMP JUMPDEST DUP6 PUSH2 0x5B84 JUMP JUMPDEST SWAP1 SLOAD SWAP1 PUSH1 0x3 SHL SHR PUSH2 0x264E DUP3 DUP9 PUSH2 0x60C3 JUMP JUMPDEST MSTORE ADD PUSH2 0x260E JUMP JUMPDEST POP POP PUSH0 PUSH2 0x260C JUMP JUMPDEST DUP3 SWAP2 PUSH2 0x25F1 JUMP JUMPDEST CALLVALUE PUSH2 0x4EC JUMPI PUSH2 0x2672 CALLDATASIZE PUSH2 0x5C3A JUMP JUMPDEST SWAP1 PUSH2 0x267B PUSH2 0x6846 JUMP JUMPDEST PUSH2 0x2683 PUSH2 0x64EA JUMP JUMPDEST PUSH2 0x2690 PUSH1 0x6 SLOAD DUP3 LT PUSH2 0x5F4B JUMP JUMPDEST DUP1 PUSH0 MSTORE PUSH1 0xB PUSH1 0x20 MSTORE PUSH2 0x26AA PUSH1 0x2 PUSH1 0x40 PUSH0 KECCAK256 ADD SLOAD TIMESTAMP LT PUSH2 0x618F JUMP JUMPDEST DUP1 PUSH0 MSTORE PUSH1 0xB PUSH1 0x20 MSTORE PUSH2 0x26C6 PUSH1 0xFF PUSH1 0x5 PUSH1 0x40 PUSH0 KECCAK256 ADD SLOAD AND ISZERO PUSH2 0x61CE JUMP JUMPDEST DUP1 PUSH0 MSTORE PUSH1 0xB PUSH1 0x20 MSTORE PUSH2 0x26E0 PUSH1 0x9 PUSH1 0x40 PUSH0 KECCAK256 ADD SLOAD DUP4 LT PUSH2 0x621A JUMP JUMPDEST DUP1 PUSH0 MSTORE PUSH1 0xB PUSH1 0x20 MSTORE PUSH1 0xB PUSH1 0x40 PUSH0 KECCAK256 ADD DUP3 PUSH0 MSTORE PUSH1 0x20 MSTORE PUSH2 0x2708 PUSH1 0xFF PUSH1 0x5 PUSH1 0x40 PUSH0 KECCAK256 ADD SLOAD AND PUSH2 0x6257 JUMP JUMPDEST DUP1 PUSH0 MSTORE PUSH1 0xB PUSH1 0x20 MSTORE PUSH1 0x40 PUSH0 KECCAK256 PUSH1 0xFF PUSH1 0x3 DUP3 ADD SLOAD PUSH1 0x8 SHR AND PUSH1 0x3 DUP2 LT ISZERO PUSH2 0x229C JUMPI PUSH1 0x1 SUB PUSH2 0x29B4 JUMPI PUSH1 0xFF PUSH1 0x14 DUP3 ADD SLOAD AND ISZERO PUSH2 0x296F JUMPI CALLER PUSH0 SWAP1 DUP2 MSTORE PUSH1 0x15 DUP3 ADD PUSH1 0x20 DUP2 SWAP1 MSTORE PUSH1 0x40 SWAP1 SWAP2 KECCAK256 SLOAD PUSH1 0xFF AND PUSH2 0x292A JUMPI PUSH1 0x13 DUP3 ADD SWAP2 DUP3 SLOAD PUSH1 0x11 DUP3 ADD SLOAD GT ISZERO PUSH2 0x28F3 JUMPI CALLER PUSH0 MSTORE PUSH1 0x16 PUSH1 0x20 MSTORE PUSH1 0x40 PUSH0 KECCAK256 SLOAD SWAP3 PUSH2 0x2786 PUSH1 0x12 DUP4 ADD SLOAD DUP1 SWAP6 PUSH2 0x6099 JUMP JUMPDEST PUSH1 0xA SLOAD LT PUSH2 0x28B5 JUMPI CALLER PUSH0 SWAP1 DUP2 MSTORE PUSH1 0x20 SWAP4 DUP5 MSTORE PUSH1 0x40 DUP1 DUP3 KECCAK256 DUP1 SLOAD PUSH1 0xFF NOT AND PUSH1 0x1 OR SWAP1 SSTORE PUSH1 0x16 DUP5 ADD SWAP1 SWAP5 MSTORE SWAP3 SWAP1 SWAP3 KECCAK256 DUP4 SWAP1 SSTORE DUP2 SLOAD PUSH1 0xB SWAP3 SWAP1 PUSH2 0x27C5 SWAP1 PUSH2 0x60EF JUMP JUMPDEST SWAP1 SSTORE CALLER PUSH0 MSTORE PUSH1 0x16 PUSH1 0x20 MSTORE PUSH1 0x40 PUSH0 KECCAK256 PUSH2 0x27DE DUP5 DUP3 SLOAD PUSH2 0x6099 JUMP JUMPDEST SWAP1 SSTORE PUSH2 0x27EA DUP5 CALLER PUSH2 0x6866 JUMP JUMPDEST PUSH2 0x2889 JUMPI JUMPDEST PUSH1 0x1 DUP1 PUSH1 0xA0 SHL SUB CALLER AND PUSH0 MSTORE PUSH1 0xC DUP2 ADD PUSH1 0x20 MSTORE PUSH1 0x40 PUSH0 KECCAK256 DUP6 PUSH0 MSTORE PUSH1 0x20 MSTORE PUSH1 0x40 PUSH0 KECCAK256 PUSH2 0x281A DUP5 DUP3 SLOAD PUSH2 0x6099 JUMP JUMPDEST SWAP1 SSTORE DUP5 PUSH0 MSTORE ADD PUSH1 0x20 MSTORE PUSH1 0x2 PUSH1 0x40 PUSH0 KECCAK256 ADD PUSH2 0x2835 DUP3 DUP3 SLOAD PUSH2 0x6099 JUMP JUMPDEST SWAP1 SSTORE CALLER PUSH0 MSTORE PUSH1 0xD PUSH1 0x20 MSTORE PUSH1 0x4 PUSH1 0x40 PUSH0 KECCAK256 ADD PUSH2 0x2850 DUP2 SLOAD PUSH2 0x60EF JUMP JUMPDEST SWAP1 SSTORE PUSH1 0x40 MLOAD SWAP3 DUP4 MSTORE PUSH1 0x20 DUP4 ADD MSTORE PUSH32 0xBA1358E4391D1F20B35776C79553F82C2795E406EB2237BCD294702BF75BD56D PUSH1 0x40 CALLER SWAP4 LOG3 PUSH1 0x1 DUP1 SSTORE STOP JUMPDEST PUSH2 0x2896 CALLER PUSH1 0xE DUP4 ADD PUSH2 0x64A7 JUMP JUMPDEST CALLER PUSH0 MSTORE PUSH1 0xD PUSH1 0x20 MSTORE PUSH1 0x40 PUSH0 KECCAK256 SLOAD PUSH2 0x27EF JUMPI PUSH2 0x28B0 CALLER PUSH2 0x6462 JUMP JUMPDEST PUSH2 0x27EF JUMP JUMPDEST PUSH1 0x40 MLOAD PUSH3 0x461BCD PUSH1 0xE5 SHL DUP2 MSTORE PUSH1 0x20 PUSH1 0x4 DUP3 ADD MSTORE PUSH1 0x16 PUSH1 0x24 DUP3 ADD MSTORE PUSH22 0x45786365656473206672656520616C6C6F77616E6365 PUSH1 0x50 SHL PUSH1 0x44 DUP3 ADD MSTORE PUSH1 0x64 SWAP1 REVERT JUMPDEST PUSH1 0x40 MLOAD PUSH3 0x461BCD PUSH1 0xE5 SHL DUP2 MSTORE PUSH1 0x20 PUSH1 0x4 DUP3 ADD MSTORE PUSH1 0xF PUSH1 0x24 DUP3 ADD MSTORE PUSH15 0x119C9959481CDB1BDD1CC8199D5B1B PUSH1 0x8A SHL PUSH1 0x44 DUP3 ADD MSTORE PUSH1 0x64 SWAP1 REVERT JUMPDEST PUSH1 0x40 MLOAD PUSH3 0x461BCD PUSH1 0xE5 SHL DUP2 MSTORE PUSH1 0x20 PUSH1 0x4 DUP3 ADD MSTORE PUSH1 0x1B PUSH1 0x24 DUP3 ADD MSTORE PUSH32 0x416C726561647920636C61696D65642066726565207368617265730000000000 PUSH1 0x44 DUP3 ADD MSTORE PUSH1 0x64 SWAP1 REVERT JUMPDEST PUSH1 0x40 MLOAD PUSH3 0x461BCD PUSH1 0xE5 SHL DUP2 MSTORE PUSH1 0x20 PUSH1 0x4 DUP3 ADD MSTORE PUSH1 0x1B PUSH1 0x24 DUP3 ADD MSTORE PUSH32 0x4672656520656E747279206E6F206C6F6E676572206163746976650000000000 PUSH1 0x44 DUP3 ADD MSTORE PUSH1 0x64 SWAP1 REVERT JUMPDEST PUSH1 0x40 MLOAD PUSH3 0x461BCD PUSH1 0xE5 SHL DUP2 MSTORE PUSH1 0x20 PUSH1 0x4 DUP3 ADD MSTORE PUSH1 0x11 PUSH1 0x24 DUP3 ADD MSTORE PUSH17 0x139BDD081848199C9959481B585C9AD95D PUSH1 0x7A SHL PUSH1 0x44 DUP3 ADD MSTORE PUSH1 0x64 SWAP1 REVERT JUMPDEST CALLVALUE PUSH2 0x4EC JUMPI PUSH0 CALLDATASIZE PUSH1 0x3 NOT ADD SLT PUSH2 0x4EC JUMPI PUSH1 0x20 PUSH1 0x8 SLOAD PUSH1 0x40 MLOAD SWAP1 DUP2 MSTORE RETURN JUMPDEST CALLVALUE PUSH2 0x4EC JUMPI PUSH1 0x20 CALLDATASIZE PUSH1 0x3 NOT ADD SLT PUSH2 0x4EC JUMPI PUSH1 0x1 PUSH1 0x1 PUSH1 0xA0 SHL SUB PUSH2 0x2A2B PUSH2 0x5B99 JUMP JUMPDEST AND PUSH0 MSTORE PUSH1 0xD PUSH1 0x20 MSTORE PUSH1 0xA0 PUSH1 0x40 PUSH0 KECCAK256 DUP1 SLOAD SWAP1 PUSH1 0x1 DUP2 ADD SLOAD SWAP1 PUSH1 0x2 DUP2 ADD SLOAD PUSH1 0x4 PUSH1 0x3 DUP4 ADD SLOAD SWAP3 ADD SLOAD SWAP3 PUSH1 0x40 MLOAD SWAP5 DUP6 MSTORE PUSH1 0x20 DUP6 ADD MSTORE PUSH1 0x40 DUP5 ADD MSTORE PUSH1 0x60 DUP4 ADD MSTORE PUSH1 0x80 DUP3 ADD MSTORE RETURN JUMPDEST CALLVALUE PUSH2 0x4EC JUMPI PUSH1 0x20 CALLDATASIZE PUSH1 0x3 NOT ADD SLT PUSH2 0x4EC JUMPI PUSH1 0x1 PUSH1 0x1 PUSH1 0xA0 SHL SUB PUSH2 0x2A8F PUSH2 0x5B99 JUMP JUMPDEST AND PUSH0 MSTORE PUSH1 0x16 PUSH1 0x20 MSTORE PUSH1 0x20 PUSH1 0x40 PUSH0 KECCAK256 SLOAD PUSH1 0x40 MLOAD SWAP1 DUP2 MSTORE RETURN JUMPDEST CALLVALUE PUSH2 0x4EC JUMPI PUSH1 0x20 PUSH2 0x2AD9 PUSH2 0x2AB9 CALLDATASIZE PUSH2 0x5C3A JUMP JUMPDEST SWAP1 PUSH0 MSTORE PUSH1 0xB PUSH1 0x20 MSTORE PUSH1 0xB PUSH1 0x40 PUSH0 KECCAK256 ADD SWAP1 PUSH0 MSTORE PUSH1 0x20 MSTORE PUSH1 0x4 PUSH1 0x40 PUSH0 KECCAK256 ADD SLOAD SWAP1 JUMP JUMPDEST PUSH1 0x40 MLOAD SWAP1 DUP2 MSTORE RETURN JUMPDEST CALLVALUE PUSH2 0x4EC JUMPI PUSH1 0x20 CALLDATASIZE PUSH1 0x3 NOT ADD SLT PUSH2 0x4EC JUMPI PUSH2 0x25CA PUSH2 0x2AFD PUSH2 0x5B99 JUMP JUMPDEST PUSH2 0x2B05 PUSH2 0x64C4 JUMP JUMPDEST PUSH32 0xD486618B282CB35034D59C30C062B5B3822D6CDF87EC459191CE7F5B7B8A4873 PUSH0 MSTORE PUSH1 0x2 PUSH1 0x20 MSTORE PUSH32 0xD3DCCF8D8289B9DEEE17E361620D7577DE7B525DD57F668D5C1BB85EC53112B6 SLOAD PUSH2 0x2B58 SWAP1 PUSH2 0x6505 JUMP JUMPDEST PUSH2 0x6690 JUMP JUMPDEST CALLVALUE PUSH2 0x4EC JUMPI PUSH1 0x20 CALLDATASIZE PUSH1 0x3 NOT ADD SLT PUSH2 0x4EC JUMPI PUSH1 0x4 CALLDATALOAD PUSH2 0x2B7E PUSH1 0x6 SLOAD DUP3 LT PUSH2 0x5F4B JUMP JUMPDEST CALLER PUSH0 SWAP1 DUP2 MSTORE PUSH32 0xD3DCCF8D8289B9DEEE17E361620D7577DE7B525DD57F668D5C1BB85EC53112B5 PUSH1 0x20 MSTORE PUSH1 0x40 SWAP1 KECCAK256 SLOAD PUSH1 0xFF AND DUP1 ISZERO PUSH2 0x2C9A JUMPI JUMPDEST ISZERO PUSH2 0x2C64 JUMPI DUP1 PUSH0 MSTORE PUSH1 0xB PUSH1 0x20 MSTORE PUSH1 0xFF PUSH1 0x5 PUSH1 0x40 PUSH0 KECCAK256 ADD SLOAD PUSH1 0x10 SHR AND PUSH2 0x2C1F JUMPI DUP1 PUSH0 MSTORE PUSH1 0xB PUSH1 0x20 MSTORE PUSH1 0x5 PUSH1 0x40 PUSH0 KECCAK256 ADD PUSH3 0x10000 PUSH3 0xFF0000 NOT DUP3 SLOAD AND OR SWAP1 SSTORE PUSH32 0xCD5B0C95D548CDBA5F9A45B4210642D0B866A0CC878E0A863855455908C6DB65 PUSH1 0x20 PUSH1 0x40 MLOAD CALLER DUP2 MSTORE LOG2 STOP JUMPDEST PUSH1 0x40 MLOAD PUSH3 0x461BCD PUSH1 0xE5 SHL DUP2 MSTORE PUSH1 0x20 PUSH1 0x4 DUP3 ADD MSTORE PUSH1 0x18 PUSH1 0x24 DUP3 ADD MSTORE PUSH32 0x4D61726B657420616C72656164792076616C6964617465640000000000000000 PUSH1 0x44 DUP3 ADD MSTORE PUSH1 0x64 SWAP1 REVERT JUMPDEST PUSH1 0x40 MLOAD PUSH3 0x461BCD PUSH1 0xE5 SHL DUP2 MSTORE PUSH1 0x20 PUSH1 0x4 DUP3 ADD MSTORE PUSH1 0xE PUSH1 0x24 DUP3 ADD MSTORE PUSH14 0x139BDD08185D5D1A1BDC9A5E9959 PUSH1 0x92 SHL PUSH1 0x44 DUP3 ADD MSTORE PUSH1 0x64 SWAP1 REVERT JUMPDEST POP PUSH0 SLOAD PUSH1 0x1 PUSH1 0x1 PUSH1 0xA0 SHL SUB AND CALLER EQ PUSH2 0x2BB6 JUMP JUMPDEST CALLVALUE PUSH2 0x4EC JUMPI PUSH2 0x2563 PUSH2 0x25DD CALLDATASIZE PUSH2 0x5E83 JUMP JUMPDEST CALLVALUE PUSH2 0x4EC JUMPI PUSH1 0x20 CALLDATASIZE PUSH1 0x3 NOT ADD SLT PUSH2 0x4EC JUMPI PUSH1 0x4 CALLDATALOAD PUSH0 MSTORE PUSH1 0xC PUSH1 0x20 MSTORE PUSH2 0x160 PUSH1 0x40 PUSH0 KECCAK256 DUP1 SLOAD SWAP1 PUSH1 0x1 DUP2 ADD SLOAD SWAP1 PUSH1 0x2 DUP2 ADD SLOAD PUSH1 0x3 DUP3 ADD SLOAD PUSH1 0xFF DUP2 PUSH1 0xA0 SHR AND PUSH1 0xFF DUP3 PUSH1 0xA8 SHR AND PUSH1 0x4 DUP6 ADD SLOAD SWAP2 PUSH1 0x5 DUP7 ADD SLOAD SWAP4 PUSH1 0x6 DUP8 ADD SLOAD SWAP6 PUSH1 0xFF PUSH1 0x8 PUSH1 0x7 DUP11 ADD SLOAD SWAP10 ADD SLOAD AND SWAP9 PUSH1 0x40 MLOAD SWAP11 DUP12 MSTORE PUSH1 0x20 DUP12 ADD MSTORE PUSH1 0x40 DUP11 ADD MSTORE PUSH1 0x1 DUP1 PUSH1 0xA0 SHL SUB AND PUSH1 0x60 DUP10 ADD MSTORE PUSH2 0x2D47 DUP2 PUSH2 0x5BDE JUMP JUMPDEST PUSH1 0x80 DUP9 ADD MSTORE PUSH2 0x2D55 DUP2 PUSH2 0x5BDE JUMP JUMPDEST PUSH1 0xA0 DUP8 ADD MSTORE PUSH1 0xC0 DUP7 ADD MSTORE PUSH1 0xE0 DUP6 ADD MSTORE PUSH2 0x100 DUP5 ADD MSTORE PUSH2 0x120 DUP4 ADD MSTORE ISZERO ISZERO PUSH2 0x140 DUP3 ADD MSTORE RETURN JUMPDEST CALLVALUE PUSH2 0x4EC JUMPI PUSH2 0x2D88 CALLDATASIZE PUSH2 0x5E50 JUMP JUMPDEST SWAP2 PUSH0 MSTORE PUSH1 0x10 PUSH1 0x20 MSTORE PUSH1 0x40 PUSH0 KECCAK256 SWAP1 PUSH0 MSTORE PUSH1 0x20 MSTORE PUSH1 0x40 PUSH0 KECCAK256 DUP1 SLOAD DUP3 LT ISZERO PUSH2 0x4EC JUMPI PUSH1 0x60 SWAP2 PUSH2 0x2DB3 SWAP2 PUSH2 0x5E6A JUMP JUMPDEST POP DUP1 SLOAD SWAP1 PUSH1 0x2 PUSH1 0x1 DUP3 ADD SLOAD SWAP2 ADD SLOAD SWAP1 PUSH1 0x40 MLOAD SWAP3 DUP4 MSTORE PUSH1 0x20 DUP4 ADD MSTORE PUSH1 0x40 DUP3 ADD MSTORE RETURN JUMPDEST CALLVALUE PUSH2 0x4EC JUMPI PUSH0 CALLDATASIZE PUSH1 0x3 NOT ADD SLT PUSH2 0x4EC JUMPI PUSH1 0x20 PUSH1 0x40 MLOAD PUSH0 DUP2 MSTORE RETURN JUMPDEST CALLVALUE PUSH2 0x4EC JUMPI PUSH0 CALLDATASIZE PUSH1 0x3 NOT ADD SLT PUSH2 0x4EC JUMPI PUSH1 0x20 PUSH1 0x40 MLOAD PUSH2 0xE10 DUP2 MSTORE RETURN JUMPDEST CALLVALUE PUSH2 0x4EC JUMPI PUSH1 0x20 CALLDATASIZE PUSH1 0x3 NOT ADD SLT PUSH2 0x4EC JUMPI PUSH1 0x4 CALLDATALOAD PUSH2 0x2E26 PUSH2 0x64C4 JUMP JUMPDEST PUSH2 0x3E8 DUP2 GT PUSH2 0x2E34 JUMPI PUSH1 0x9 SSTORE STOP JUMPDEST PUSH1 0x40 MLOAD PUSH3 0x461BCD PUSH1 0xE5 SHL DUP2 MSTORE PUSH1 0x20 PUSH1 0x4 DUP3 ADD MSTORE PUSH1 0x11 PUSH1 0x24 DUP3 ADD MSTORE PUSH17 0x8CCACA40E4C2E8CA40E8DEDE40D0D2CED PUSH1 0x7B SHL PUSH1 0x44 DUP3 ADD MSTORE PUSH1 0x64 SWAP1 REVERT JUMPDEST CALLVALUE PUSH2 0x4EC JUMPI PUSH1 0x40 CALLDATASIZE PUSH1 0x3 NOT ADD SLT PUSH2 0x4EC JUMPI PUSH2 0x2E86 PUSH2 0x5BAF JUMP JUMPDEST PUSH1 0x4 CALLDATALOAD PUSH0 MSTORE PUSH1 0x2 PUSH1 0x20 MSTORE PUSH1 0x40 PUSH0 KECCAK256 SWAP1 PUSH1 0x1 DUP1 PUSH1 0xA0 SHL SUB AND PUSH0 MSTORE PUSH1 0x20 MSTORE PUSH1 0x20 PUSH1 0xFF PUSH1 0x40 PUSH0 KECCAK256 SLOAD AND PUSH1 0x40 MLOAD SWAP1 ISZERO ISZERO DUP2 MSTORE RETURN JUMPDEST CALLVALUE PUSH2 0x4EC JUMPI PUSH0 CALLDATASIZE PUSH1 0x3 NOT ADD SLT PUSH2 0x4EC JUMPI PUSH0 SLOAD PUSH1 0x40 MLOAD PUSH1 0x1 PUSH1 0x1 PUSH1 0xA0 SHL SUB SWAP1 SWAP2 AND DUP2 MSTORE PUSH1 0x20 SWAP1 RETURN JUMPDEST CALLVALUE PUSH2 0x4EC JUMPI PUSH1 0x20 CALLDATASIZE PUSH1 0x3 NOT ADD SLT PUSH2 0x4EC JUMPI PUSH1 0x1 PUSH1 0x1 PUSH1 0xA0 SHL SUB PUSH2 0x2EFE PUSH2 0x5B99 JUMP JUMPDEST AND PUSH0 MSTORE PUSH1 0x14 PUSH1 0x20 MSTORE PUSH1 0x20 PUSH1 0x40 PUSH0 KECCAK256 SLOAD PUSH1 0x40 MLOAD SWAP1 DUP2 MSTORE RETURN JUMPDEST CALLVALUE PUSH2 0x4EC JUMPI PUSH1 0x40 CALLDATASIZE PUSH1 0x3 NOT ADD SLT PUSH2 0x4EC JUMPI PUSH2 0x2F2E PUSH2 0x5B99 JUMP JUMPDEST PUSH1 0x1 PUSH1 0x1 PUSH1 0xA0 SHL SUB AND PUSH0 SWAP1 DUP2 MSTORE PUSH1 0x12 PUSH1 0x20 MSTORE PUSH1 0x40 SWAP1 KECCAK256 DUP1 SLOAD PUSH1 0x24 CALLDATALOAD SWAP2 SWAP1 DUP3 LT ISZERO PUSH2 0x4EC JUMPI PUSH1 0x20 SWAP2 PUSH2 0x2578 SWAP2 PUSH2 0x5B84 JUMP JUMPDEST CALLVALUE PUSH2 0x4EC JUMPI PUSH0 CALLDATASIZE PUSH1 0x3 NOT ADD SLT PUSH2 0x4EC JUMPI PUSH2 0x2F76 PUSH2 0x64C4 JUMP JUMPDEST PUSH2 0x2F7E PUSH2 0x64EA JUMP JUMPDEST PUSH1 0x1 PUSH1 0xFF NOT PUSH1 0x3 SLOAD AND OR PUSH1 0x3 SSTORE PUSH32 0x62E78CEA01BEE320CD4E420270B5EA74000D11B0C9F74754EBDBFC544B05A258 PUSH1 0x20 PUSH1 0x40 MLOAD CALLER DUP2 MSTORE LOG1 STOP JUMPDEST CALLVALUE PUSH2 0x4EC JUMPI PUSH1 0x40 CALLDATASIZE PUSH1 0x3 NOT ADD SLT PUSH2 0x4EC JUMPI PUSH1 0x4 CALLDATALOAD PUSH2 0x2FD3 PUSH2 0x5BAF JUMP JUMPDEST SWAP1 PUSH2 0x2FE1 PUSH1 0x6 SLOAD DUP3 LT PUSH2 0x5F4B JUMP JUMPDEST PUSH0 MSTORE PUSH1 0xB PUSH1 0x20 MSTORE PUSH1 0x40 PUSH0 KECCAK256 SWAP1 PUSH1 0x9 DUP3 ADD SLOAD SWAP1 PUSH2 0x2FFC DUP3 PUSH2 0x6067 JUMP JUMPDEST SWAP3 PUSH1 0xC ADD SWAP1 PUSH1 0x1 PUSH1 0x1 PUSH1 0xA0 SHL SUB AND PUSH0 JUMPDEST DUP4 DUP2 LT PUSH2 0x3021 JUMPI PUSH1 0x40 MLOAD DUP1 PUSH2 0x2623 DUP8 DUP3 PUSH2 0x5C74 JUMP JUMPDEST PUSH1 0x1 SWAP1 DUP3 PUSH0 MSTORE DUP4 PUSH1 0x20 MSTORE PUSH1 0x40 PUSH0 KECCAK256 DUP2 PUSH0 MSTORE PUSH1 0x20 MSTORE PUSH1 0x40 PUSH0 KECCAK256 SLOAD PUSH2 0x3044 DUP3 DUP9 PUSH2 0x60C3 JUMP JUMPDEST MSTORE ADD PUSH2 0x300C JUMP JUMPDEST CALLVALUE PUSH2 0x4EC JUMPI PUSH0 CALLDATASIZE PUSH1 0x3 NOT ADD SLT PUSH2 0x4EC JUMPI PUSH1 0x20 PUSH1 0x40 MLOAD PUSH4 0x1E13380 DUP2 MSTORE RETURN JUMPDEST CALLVALUE PUSH2 0x4EC JUMPI PUSH2 0x3077 CALLDATASIZE PUSH2 0x5E50 JUMP JUMPDEST SWAP2 PUSH0 MSTORE PUSH1 0x10 PUSH1 0x20 MSTORE PUSH1 0x40 PUSH0 KECCAK256 SWAP1 PUSH0 MSTORE PUSH1 0x20 MSTORE PUSH1 0x40 PUSH0 KECCAK256 DUP1 SLOAD SWAP1 DUP2 DUP4 GT PUSH0 EQ PUSH2 0x31CA JUMPI DUP2 JUMPDEST PUSH2 0x30A4 DUP4 PUSH2 0x5D90 JUMP JUMPDEST SWAP4 PUSH2 0x30B2 PUSH1 0x40 MLOAD SWAP6 DUP7 PUSH2 0x5D1A JUMP JUMPDEST DUP4 DUP6 MSTORE PUSH1 0x1F NOT PUSH2 0x30C1 DUP6 PUSH2 0x5D90 JUMP JUMPDEST ADD PUSH0 JUMPDEST DUP2 DUP2 LT PUSH2 0x31A1 JUMPI POP POP DUP1 DUP3 GT ISZERO PUSH2 0x3199 JUMPI PUSH2 0x30DE SWAP2 PUSH2 0x6182 JUMP JUMPDEST PUSH0 JUMPDEST DUP4 DUP2 LT PUSH2 0x3143 JUMPI DUP5 PUSH1 0x40 MLOAD DUP1 SWAP2 PUSH1 0x20 DUP3 ADD PUSH1 0x20 DUP4 MSTORE DUP2 MLOAD DUP1 SWAP2 MSTORE PUSH1 0x20 PUSH1 0x40 DUP5 ADD SWAP3 ADD SWAP1 PUSH0 JUMPDEST DUP2 DUP2 LT PUSH2 0x3113 JUMPI POP POP POP SUB SWAP1 RETURN JUMPDEST SWAP2 SWAP4 POP SWAP2 PUSH1 0x20 PUSH1 0x60 PUSH1 0x1 SWAP3 PUSH1 0x40 DUP8 MLOAD DUP1 MLOAD DUP4 MSTORE DUP5 DUP2 ADD MLOAD DUP6 DUP5 ADD MSTORE ADD MLOAD PUSH1 0x40 DUP3 ADD MSTORE ADD SWAP5 ADD SWAP2 ADD SWAP2 DUP5 SWAP4 SWAP3 PUSH2 0x3105 JUMP JUMPDEST DUP1 PUSH2 0x3159 PUSH2 0x3153 PUSH1 0x1 SWAP4 DUP6 PUSH2 0x6099 JUMP JUMPDEST DUP6 PUSH2 0x5E6A JUMP JUMPDEST POP PUSH1 0x2 PUSH1 0x40 MLOAD SWAP2 PUSH2 0x3169 DUP4 PUSH2 0x5CE3 JUMP JUMPDEST DUP1 SLOAD DUP4 MSTORE DUP5 DUP2 ADD SLOAD PUSH1 0x20 DUP5 ADD MSTORE ADD SLOAD PUSH1 0x40 DUP3 ADD MSTORE PUSH2 0x3187 DUP3 DUP9 PUSH2 0x60C3 JUMP JUMPDEST MSTORE PUSH2 0x3192 DUP2 DUP8 PUSH2 0x60C3 JUMP JUMPDEST POP ADD PUSH2 0x30E0 JUMP JUMPDEST POP POP PUSH0 PUSH2 0x30DE JUMP JUMPDEST PUSH1 0x20 SWAP1 PUSH1 0x40 MLOAD PUSH2 0x31B0 DUP2 PUSH2 0x5CE3 JUMP JUMPDEST PUSH0 DUP2 MSTORE PUSH0 DUP4 DUP3 ADD MSTORE PUSH0 PUSH1 0x40 DUP3 ADD MSTORE DUP3 DUP3 DUP11 ADD ADD MSTORE ADD PUSH2 0x30C4 JUMP JUMPDEST DUP3 SWAP2 PUSH2 0x309B JUMP JUMPDEST CALLVALUE PUSH2 0x4EC JUMPI PUSH0 CALLDATASIZE PUSH1 0x3 NOT ADD SLT PUSH2 0x4EC JUMPI PUSH1 0x20 PUSH1 0x40 MLOAD PUSH32 0xEF485BE696BBC0C91AD541BBD553FFB5BD0E18DAC30BA76E992DDA23CB807A8A DUP2 MSTORE RETURN JUMPDEST CALLVALUE PUSH2 0x4EC JUMPI PUSH0 CALLDATASIZE PUSH1 0x3 NOT ADD SLT PUSH2 0x4EC JUMPI PUSH1 0x20 PUSH1 0x40 MLOAD PUSH32 0xDCEE1D35C83A32B436264A5C9AFD68685C124F3F9097E87804C55410E67FC59A DUP2 MSTORE RETURN JUMPDEST CALLVALUE PUSH2 0x4EC JUMPI PUSH2 0x3253 CALLDATASIZE PUSH2 0x5C3A JUMP JUMPDEST PUSH1 0x17 SLOAD SWAP1 DUP2 DUP4 LT ISZERO PUSH2 0x3445 JUMPI DUP2 PUSH2 0x326A DUP3 DUP6 PUSH2 0x6099 JUMP JUMPDEST GT ISZERO PUSH2 0x3435 JUMPI POP JUMPDEST PUSH2 0x327C DUP3 DUP3 PUSH2 0x6182 JUMP JUMPDEST SWAP2 PUSH2 0x3286 DUP4 PUSH2 0x5D90 JUMP JUMPDEST SWAP3 PUSH2 0x3294 PUSH1 0x40 MLOAD SWAP5 DUP6 PUSH2 0x5D1A JUMP JUMPDEST DUP1 DUP5 MSTORE PUSH2 0x32A3 PUSH1 0x1F NOT SWAP2 PUSH2 0x5D90 JUMP JUMPDEST ADD PUSH0 JUMPDEST DUP2 DUP2 LT PUSH2 0x341E JUMPI POP POP DUP1 JUMPDEST DUP3 DUP2 LT PUSH2 0x332E JUMPI DUP4 PUSH1 0x40 MLOAD DUP1 SWAP2 PUSH1 0x20 DUP3 ADD PUSH1 0x20 DUP4 MSTORE DUP2 MLOAD DUP1 SWAP2 MSTORE PUSH1 0x20 PUSH1 0x40 DUP5 ADD SWAP3 ADD SWAP1 PUSH0 JUMPDEST DUP2 DUP2 LT PUSH2 0x32E4 JUMPI POP POP POP SUB SWAP1 RETURN JUMPDEST SWAP2 SWAP4 POP SWAP2 PUSH1 0x20 PUSH1 0xA0 PUSH1 0x1 SWAP3 PUSH1 0x80 DUP8 MLOAD DUP6 DUP1 DUP6 SHL SUB DUP2 MLOAD AND DUP4 MSTORE DUP5 DUP2 ADD MLOAD DUP6 DUP5 ADD MSTORE PUSH1 0x40 DUP2 ADD MLOAD PUSH1 0x40 DUP5 ADD MSTORE PUSH1 0x60 DUP2 ADD MLOAD PUSH1 0x60 DUP5 ADD MSTORE ADD MLOAD PUSH1 0x80 DUP3 ADD MSTORE ADD SWAP5 ADD SWAP2 ADD SWAP2 DUP5 SWAP4 SWAP3 PUSH2 0x32D6 JUMP JUMPDEST PUSH2 0x3337 DUP2 PUSH2 0x5B58 JUMP JUMPDEST PUSH1 0x1 DUP1 PUSH1 0xA0 SHL SUB SWAP2 SLOAD SWAP1 PUSH1 0x3 SHL SHR AND SWAP1 DUP2 PUSH0 MSTORE PUSH1 0xD PUSH1 0x20 MSTORE PUSH1 0x40 PUSH0 KECCAK256 SWAP2 PUSH1 0x40 MLOAD SWAP1 PUSH2 0x3361 DUP3 PUSH2 0x5CAD JUMP JUMPDEST DUP4 SLOAD DUP3 MSTORE PUSH1 0x1 DUP5 ADD SLOAD SWAP2 PUSH1 0x4 PUSH1 0x20 DUP3 ADD SWAP6 DUP5 DUP8 MSTORE PUSH1 0x2 DUP2 ADD SLOAD PUSH1 0x40 DUP5 ADD MSTORE PUSH1 0x3 DUP2 ADD SLOAD PUSH1 0x60 DUP5 ADD MSTORE ADD SLOAD SWAP5 PUSH1 0x80 DUP3 ADD SWAP6 DUP1 DUP8 MSTORE ISZERO ISZERO PUSH0 EQ PUSH2 0x340F JUMPI PUSH1 0x64 DUP5 MUL SWAP4 DUP1 DUP6 DIV PUSH1 0x64 EQ SWAP1 ISZERO OR ISZERO PUSH2 0x1085 JUMPI PUSH1 0x1 SWAP6 PUSH2 0x33C1 PUSH2 0x3408 SWAP6 DUP5 MLOAD SWAP1 PUSH2 0x60B9 JUMP JUMPDEST SWAP2 JUMPDEST MLOAD SWAP3 MLOAD SWAP1 MLOAD SWAP3 PUSH1 0x40 MLOAD SWAP5 PUSH2 0x33D6 DUP7 PUSH2 0x5CAD JUMP JUMPDEST DUP6 MSTORE PUSH1 0x20 DUP6 ADD MSTORE PUSH1 0x40 DUP5 ADD MSTORE PUSH1 0x60 DUP4 ADD MSTORE PUSH1 0x80 DUP3 ADD MSTORE PUSH2 0x33F6 DUP6 DUP5 PUSH2 0x6182 JUMP JUMPDEST SWAP1 PUSH2 0x3401 DUP3 DUP10 PUSH2 0x60C3 JUMP JUMPDEST MSTORE DUP7 PUSH2 0x60C3 JUMP JUMPDEST POP ADD PUSH2 0x32B1 JUMP JUMPDEST PUSH2 0x3408 SWAP4 POP PUSH1 0x1 SWAP6 PUSH0 SWAP2 PUSH2 0x33C3 JUMP JUMPDEST PUSH1 0x20 SWAP1 PUSH2 0x3429 PUSH2 0x5F21 JUMP JUMPDEST DUP3 DUP3 DUP9 ADD ADD MSTORE ADD PUSH2 0x32A6 JUMP JUMPDEST PUSH2 0x3440 SWAP2 POP DUP3 PUSH2 0x6099 JUMP JUMPDEST PUSH2 0x3272 JUMP JUMPDEST PUSH1 0x40 MLOAD PUSH3 0x461BCD PUSH1 0xE5 SHL DUP2 MSTORE PUSH1 0x20 PUSH1 0x4 DUP3 ADD MSTORE PUSH1 0x19 PUSH1 0x24 DUP3 ADD MSTORE PUSH32 0x537461727420696E646578206F7574206F6620626F756E647300000000000000 PUSH1 0x44 DUP3 ADD MSTORE PUSH1 0x64 SWAP1 REVERT JUMPDEST CALLVALUE PUSH2 0x4EC JUMPI PUSH0 CALLDATASIZE PUSH1 0x3 NOT ADD SLT PUSH2 0x4EC JUMPI PUSH2 0x34A2 PUSH2 0x64C4 JUMP JUMPDEST PUSH0 DUP1 SLOAD PUSH1 0x1 PUSH1 0x1 PUSH1 0xA0 SHL SUB NOT DUP2 AND DUP3 SSTORE PUSH1 0x1 PUSH1 0x1 PUSH1 0xA0 SHL SUB AND PUSH32 0x8BE0079C531659141344CD1FD0A4F28419497F9722A3DAAFE3B4186F6B6457E0 DUP3 DUP1 LOG3 STOP JUMPDEST CALLVALUE PUSH2 0x4EC JUMPI PUSH2 0x34EF CALLDATASIZE PUSH2 0x5C3A JUMP JUMPDEST SWAP1 PUSH2 0x34F8 PUSH2 0x6846 JUMP JUMPDEST PUSH2 0x3505 PUSH1 0x6 SLOAD DUP3 LT PUSH2 0x5F4B JUMP JUMPDEST PUSH2 0x3510 DUP3 ISZERO ISZERO PUSH2 0x6416 JUMP JUMPDEST PUSH1 0x3 SLOAD PUSH1 0x40 MLOAD PUSH4 0x23B872DD PUSH1 0xE0 SHL DUP2 MSTORE CALLER PUSH1 0x4 DUP3 ADD MSTORE ADDRESS PUSH1 0x24 DUP3 ADD MSTORE PUSH1 0x44 DUP2 ADD DUP5 SWAP1 MSTORE SWAP1 PUSH1 0x20 SWAP1 DUP3 SWAP1 PUSH1 0x8 SHR PUSH1 0x1 PUSH1 0x1 PUSH1 0xA0 SHL SUB AND DUP2 PUSH0 DUP2 PUSH1 0x64 DUP2 ADD SUB SWAP3 GAS CALL DUP1 ISZERO PUSH2 0xE39 JUMPI PUSH2 0x3566 SWAP2 PUSH0 SWAP2 PUSH2 0x3618 JUMPI POP PUSH2 0x63D8 JUMP JUMPDEST DUP1 PUSH0 MSTORE PUSH1 0xB PUSH1 0x20 MSTORE PUSH1 0x40 PUSH0 KECCAK256 SWAP1 PUSH1 0xA DUP3 ADD PUSH2 0x3582 DUP5 DUP3 SLOAD PUSH2 0x6099 JUMP JUMPDEST SWAP1 SSTORE PUSH1 0x9 DUP3 ADD SWAP2 PUSH2 0x3594 DUP4 SLOAD DUP6 PUSH2 0x60B9 JUMP JUMPDEST SWAP2 PUSH1 0xB PUSH0 SWAP3 ADD SWAP2 JUMPDEST DUP5 SLOAD DUP2 LT ISZERO PUSH2 0x35E4 JUMPI DUP1 PUSH1 0x1 SWAP2 PUSH0 MSTORE DUP4 PUSH1 0x20 MSTORE PUSH1 0x6 PUSH1 0x40 PUSH0 KECCAK256 ADD PUSH2 0x35C1 DUP7 DUP3 SLOAD PUSH2 0x6099 JUMP JUMPDEST SWAP1 SSTORE DUP1 PUSH0 MSTORE DUP4 PUSH1 0x20 MSTORE PUSH1 0x7 PUSH1 0x40 PUSH0 KECCAK256 ADD PUSH2 0x35DC DUP7 DUP3 SLOAD PUSH2 0x6099 JUMP JUMPDEST SWAP1 SSTORE ADD PUSH2 0x359C JUMP JUMPDEST DUP6 DUP3 PUSH1 0x40 MLOAD SWAP2 DUP3 MSTORE PUSH32 0xC733C2813826D31C105DBFF518B08258E9E7AEB3EB1C7C7F642D77696FAF501D PUSH1 0x20 CALLER SWAP4 LOG3 PUSH1 0x1 DUP1 SSTORE STOP JUMPDEST PUSH2 0x3631 SWAP2 POP PUSH1 0x20 RETURNDATASIZE PUSH1 0x20 GT PUSH2 0xE32 JUMPI PUSH2 0xE24 DUP2 DUP4 PUSH2 0x5D1A JUMP JUMPDEST DUP5 PUSH2 0x12C6 JUMP JUMPDEST CALLVALUE PUSH2 0x4EC JUMPI PUSH1 0x20 CALLDATASIZE PUSH1 0x3 NOT ADD SLT PUSH2 0x4EC JUMPI PUSH2 0x25CA PUSH2 0x3653 PUSH2 0x5B99 JUMP JUMPDEST PUSH2 0x365B PUSH2 0x64C4 JUMP JUMPDEST PUSH32 0xEF485BE696BBC0C91AD541BBD553FFB5BD0E18DAC30BA76E992DDA23CB807A8A PUSH0 MSTORE PUSH1 0x2 PUSH1 0x20 MSTORE PUSH32 0x30D995518B427F5A5863AD73FE356CA50CF70941F42C516830919C845FA58070 SLOAD PUSH2 0x36AE SWAP1 PUSH2 0x6505 JUMP JUMPDEST PUSH2 0x65FD JUMP JUMPDEST CALLVALUE PUSH2 0x4EC JUMPI PUSH1 0x20 CALLDATASIZE PUSH1 0x3 NOT ADD SLT PUSH2 0x4EC JUMPI PUSH1 0x4 CALLDATALOAD PUSH2 0x36CF PUSH2 0x6846 JUMP JUMPDEST PUSH2 0x36DC PUSH1 0x6 SLOAD DUP3 LT PUSH2 0x5F4B JUMP JUMPDEST DUP1 PUSH0 MSTORE PUSH1 0xB PUSH1 0x20 MSTORE PUSH1 0x40 PUSH0 KECCAK256 SWAP1 PUSH1 0x5 DUP3 ADD SLOAD PUSH1 0xFF DUP2 AND SWAP1 DUP2 PUSH2 0x3951 JUMPI JUMPDEST POP ISZERO PUSH2 0x390C JUMPI PUSH1 0xD DUP3 ADD SWAP2 PUSH1 0x1 DUP1 PUSH1 0xA0 SHL SUB CALLER AND PUSH0 MSTORE DUP3 PUSH1 0x20 MSTORE PUSH1 0xFF PUSH1 0x40 PUSH0 KECCAK256 SLOAD AND PUSH2 0x38D5 JUMPI CALLER PUSH0 SWAP1 DUP2 MSTORE PUSH1 0xC DUP3 ADD PUSH1 0x20 SWAP1 DUP2 MSTORE PUSH1 0x40 DUP1 DUP4 KECCAK256 PUSH1 0x4 DUP6 ADD SLOAD DUP1 DUP6 MSTORE SWAP3 MSTORE SWAP1 SWAP2 KECCAK256 SLOAD SWAP1 DUP2 ISZERO PUSH2 0x389C JUMPI DUP3 PUSH2 0x37BC PUSH2 0x37C1 SWAP3 PUSH1 0xB PUSH2 0x37C7 SWAP7 ADD DUP2 PUSH0 MSTORE DUP1 PUSH1 0x20 MSTORE PUSH2 0x3795 PUSH1 0x6 PUSH1 0x2 PUSH1 0x40 PUSH0 KECCAK256 ADD SLOAD SWAP6 ADD SLOAD DUP4 PUSH0 MSTORE DUP3 PUSH1 0x20 MSTORE PUSH8 0xDE0B6B3A7640000 PUSH2 0x378E PUSH1 0x4 PUSH1 0x40 PUSH0 KECCAK256 ADD SLOAD DUP9 PUSH2 0x60A6 JUMP JUMPDEST DIV SWAP1 PUSH2 0x6182 JUMP JUMPDEST SWAP2 PUSH0 MSTORE PUSH1 0x20 MSTORE PUSH8 0xDE0B6B3A7640000 PUSH2 0x37B5 PUSH1 0x4 PUSH1 0x40 PUSH0 KECCAK256 ADD SLOAD DUP8 PUSH2 0x60A6 JUMP JUMPDEST DIV SWAP5 PUSH2 0x60A6 JUMP JUMPDEST PUSH2 0x60B9 JUMP JUMPDEST SWAP1 PUSH2 0x6099 JUMP JUMPDEST SWAP2 PUSH1 0x1 DUP1 PUSH1 0xA0 SHL SUB CALLER AND PUSH0 MSTORE PUSH1 0x20 MSTORE PUSH1 0x40 PUSH0 KECCAK256 PUSH1 0x1 PUSH1 0xFF NOT DUP3 SLOAD AND OR SWAP1 SSTORE CALLER PUSH0 MSTORE PUSH1 0xD PUSH1 0x20 MSTORE PUSH1 0x1 PUSH1 0x40 PUSH0 KECCAK256 ADD PUSH2 0x37FF DUP4 DUP3 SLOAD PUSH2 0x6099 JUMP JUMPDEST SWAP1 SSTORE CALLER PUSH0 MSTORE PUSH1 0x14 PUSH1 0x20 MSTORE PUSH1 0x40 PUSH0 KECCAK256 PUSH2 0x3818 DUP4 DUP3 SLOAD PUSH2 0x6099 JUMP JUMPDEST SWAP1 SSTORE PUSH1 0x3 SLOAD PUSH1 0x40 MLOAD PUSH4 0xA9059CBB PUSH1 0xE0 SHL DUP2 MSTORE CALLER PUSH1 0x4 DUP3 ADD MSTORE PUSH1 0x24 DUP2 ADD DUP5 SWAP1 MSTORE SWAP1 PUSH1 0x20 SWAP1 DUP3 SWAP1 PUSH1 0x8 SHR PUSH1 0x1 PUSH1 0x1 PUSH1 0xA0 SHL SUB AND DUP2 PUSH0 DUP2 PUSH1 0x44 DUP2 ADD SUB SWAP3 GAS CALL DUP1 ISZERO PUSH2 0xE39 JUMPI PUSH2 0x386A SWAP2 PUSH0 SWAP2 PUSH2 0x3618 JUMPI POP PUSH2 0x63D8 JUMP JUMPDEST PUSH1 0x40 MLOAD SWAP2 DUP3 MSTORE PUSH32 0x4EC90E965519D92681267467F775ADA5BD214AA92C0DC93D90A5E880CE9ED026 PUSH1 0x20 CALLER SWAP4 LOG3 PUSH1 0x1 DUP1 SSTORE STOP JUMPDEST PUSH1 0x40 MLOAD PUSH3 0x461BCD PUSH1 0xE5 SHL DUP2 MSTORE PUSH1 0x20 PUSH1 0x4 DUP3 ADD MSTORE PUSH1 0x11 PUSH1 0x24 DUP3 ADD MSTORE PUSH17 0x4E6F2077696E6E696E6720736861726573 PUSH1 0x78 SHL PUSH1 0x44 DUP3 ADD MSTORE PUSH1 0x64 SWAP1 REVERT JUMPDEST PUSH1 0x40 MLOAD PUSH3 0x461BCD PUSH1 0xE5 SHL DUP2 MSTORE PUSH1 0x20 PUSH1 0x4 DUP3 ADD MSTORE PUSH1 0xF PUSH1 0x24 DUP3 ADD MSTORE PUSH15 0x105B1C9958591E4818DB185A5B5959 PUSH1 0x8A SHL PUSH1 0x44 DUP3 ADD MSTORE PUSH1 0x64 SWAP1 REVERT JUMPDEST PUSH1 0x40 MLOAD PUSH3 0x461BCD PUSH1 0xE5 SHL DUP2 MSTORE PUSH1 0x20 PUSH1 0x4 DUP3 ADD MSTORE PUSH1 0x1B PUSH1 0x24 DUP3 ADD MSTORE PUSH32 0x4D61726B6574206E6F7420726561647920666F7220636C61696D730000000000 PUSH1 0x44 DUP3 ADD MSTORE PUSH1 0x64 SWAP1 REVERT JUMPDEST PUSH1 0xFF SWAP2 POP PUSH1 0x8 SHR AND ISZERO DUP4 PUSH2 0x36F9 JUMP JUMPDEST CALLVALUE PUSH2 0x4EC JUMPI PUSH2 0x396E CALLDATASIZE PUSH2 0x5C3A JUMP JUMPDEST PUSH2 0x397B PUSH1 0x6 SLOAD DUP4 LT PUSH2 0x5F4B JUMP JUMPDEST PUSH0 SLOAD PUSH1 0x1 PUSH1 0x1 PUSH1 0xA0 SHL SUB AND CALLER EQ DUP1 ISZERO PUSH2 0x3AE0 JUMPI JUMPDEST ISZERO PUSH2 0x3A91 JUMPI DUP2 PUSH0 MSTORE PUSH1 0xB PUSH1 0x20 MSTORE PUSH1 0x40 PUSH0 KECCAK256 SWAP1 PUSH1 0x2 DUP3 ADD SLOAD TIMESTAMP LT PUSH2 0x3A4C JUMPI PUSH1 0x5 DUP3 ADD SWAP1 DUP2 SLOAD SWAP2 PUSH2 0x39C1 PUSH1 0xFF DUP5 AND ISZERO PUSH2 0x61CE JUMP JUMPDEST PUSH1 0x9 DUP5 ADD SLOAD DUP3 LT ISZERO PUSH2 0x3A0E JUMPI PUSH1 0x1 PUSH1 0x40 SWAP4 DUP4 PUSH1 0x4 PUSH32 0xC160A477581CB2155B1578581D805DCC0E6623403811FC2853465045BC0B0492 SWAP8 ADD SSTORE PUSH1 0xFF NOT AND OR SWAP1 SSTORE DUP2 MLOAD SWAP1 DUP2 MSTORE CALLER PUSH1 0x20 DUP3 ADD MSTORE LOG2 STOP JUMPDEST PUSH1 0x40 MLOAD PUSH3 0x461BCD PUSH1 0xE5 SHL DUP2 MSTORE PUSH1 0x20 PUSH1 0x4 DUP3 ADD MSTORE PUSH1 0x16 PUSH1 0x24 DUP3 ADD MSTORE PUSH22 0x24B73B30B634B2103BB4B73734B7339037B83A34B7B7 PUSH1 0x51 SHL PUSH1 0x44 DUP3 ADD MSTORE PUSH1 0x64 SWAP1 REVERT JUMPDEST PUSH1 0x40 MLOAD PUSH3 0x461BCD PUSH1 0xE5 SHL DUP2 MSTORE PUSH1 0x20 PUSH1 0x4 DUP3 ADD MSTORE PUSH1 0x18 PUSH1 0x24 DUP3 ADD MSTORE PUSH32 0x4D61726B657420686173206E6F7420656E646564207965740000000000000000 PUSH1 0x44 DUP3 ADD MSTORE PUSH1 0x64 SWAP1 REVERT JUMPDEST PUSH1 0x40 MLOAD PUSH3 0x461BCD PUSH1 0xE5 SHL DUP2 MSTORE PUSH1 0x20 PUSH1 0x4 DUP3 ADD MSTORE PUSH1 0x21 PUSH1 0x24 DUP3 ADD MSTORE PUSH32 0x4E6F7420617574686F72697A656420746F207265736F6C7665206D61726B6574 PUSH1 0x44 DUP3 ADD MSTORE PUSH1 0x73 PUSH1 0xF8 SHL PUSH1 0x64 DUP3 ADD MSTORE PUSH1 0x84 SWAP1 REVERT JUMPDEST POP CALLER PUSH0 SWAP1 DUP2 MSTORE PUSH32 0x8E2C297E756B2A427C5DC4607F639842A8EA6E0F6322302F4EA76306B642CFC2 PUSH1 0x20 MSTORE PUSH1 0x40 SWAP1 KECCAK256 SLOAD PUSH1 0xFF AND PUSH2 0x398F JUMP JUMPDEST CALLVALUE PUSH2 0x4EC JUMPI PUSH0 CALLDATASIZE PUSH1 0x3 NOT ADD SLT PUSH2 0x4EC JUMPI PUSH1 0x20 PUSH1 0xFF PUSH1 0x3 SLOAD AND PUSH1 0x40 MLOAD SWAP1 ISZERO ISZERO DUP2 MSTORE RETURN JUMPDEST CALLVALUE PUSH2 0x4EC JUMPI PUSH2 0x3B47 CALLDATASIZE PUSH2 0x5E32 JUMP JUMPDEST PUSH2 0x3B4F PUSH2 0x6846 JUMP JUMPDEST PUSH2 0x3B57 PUSH2 0x64EA JUMP JUMPDEST PUSH2 0x3B64 PUSH1 0x6 SLOAD DUP6 LT PUSH2 0x5F4B JUMP JUMPDEST DUP4 PUSH0 MSTORE PUSH1 0xB PUSH1 0x20 MSTORE PUSH2 0x3B7E PUSH1 0x2 PUSH1 0x40 PUSH0 KECCAK256 ADD SLOAD TIMESTAMP LT PUSH2 0x618F JUMP JUMPDEST DUP4 PUSH0 MSTORE PUSH1 0xB PUSH1 0x20 MSTORE PUSH2 0x3B9A PUSH1 0xFF PUSH1 0x5 PUSH1 0x40 PUSH0 KECCAK256 ADD SLOAD AND ISZERO PUSH2 0x61CE JUMP JUMPDEST DUP4 PUSH0 MSTORE PUSH1 0xB PUSH1 0x20 MSTORE PUSH2 0x3BB4 PUSH1 0x9 PUSH1 0x40 PUSH0 KECCAK256 ADD SLOAD DUP5 LT PUSH2 0x621A JUMP JUMPDEST DUP4 PUSH0 MSTORE PUSH1 0xB PUSH1 0x20 MSTORE PUSH1 0xB PUSH1 0x40 PUSH0 KECCAK256 ADD DUP4 PUSH0 MSTORE PUSH1 0x20 MSTORE PUSH2 0x3BDC PUSH1 0xFF PUSH1 0x5 PUSH1 0x40 PUSH0 KECCAK256 ADD SLOAD AND PUSH2 0x6257 JUMP JUMPDEST PUSH2 0x3BE7 DUP3 ISZERO ISZERO PUSH2 0x6297 JUMP JUMPDEST DUP4 PUSH0 MSTORE PUSH1 0xB PUSH1 0x20 MSTORE PUSH1 0xC PUSH1 0x40 PUSH0 KECCAK256 ADD PUSH1 0x1 DUP1 PUSH1 0xA0 SHL SUB CALLER AND PUSH0 MSTORE PUSH1 0x20 MSTORE PUSH1 0x40 PUSH0 KECCAK256 DUP4 PUSH0 MSTORE PUSH1 0x20 MSTORE PUSH2 0x3C1E DUP3 PUSH1 0x40 PUSH0 KECCAK256 SLOAD LT ISZERO PUSH2 0x62E3 JUMP JUMPDEST PUSH0 DUP5 DUP2 MSTORE PUSH1 0xB PUSH1 0x20 DUP2 DUP2 MSTORE PUSH1 0x40 DUP1 DUP5 KECCAK256 DUP8 DUP6 MSTORE SWAP3 DUP4 ADD SWAP1 SWAP2 MSTORE SWAP1 SWAP2 KECCAK256 PUSH1 0x4 DUP2 ADD SLOAD SWAP1 SWAP5 SWAP2 SWAP3 SWAP2 SWAP1 SWAP2 DUP3 LT PUSH2 0x3F98 JUMPI PUSH8 0xDE0B6B3A7640000 PUSH2 0x3C5F DUP6 DUP5 PUSH2 0x60A6 JUMP JUMPDEST DIV SWAP5 PUSH2 0x2710 PUSH2 0x3C70 PUSH1 0x9 SLOAD DUP9 PUSH2 0x60A6 JUMP JUMPDEST DIV SWAP4 PUSH1 0x10 PUSH2 0x3C7E DUP7 DUP10 PUSH2 0x6182 JUMP JUMPDEST SWAP2 PUSH1 0x1 DUP1 PUSH1 0xA0 SHL SUB CALLER AND PUSH0 MSTORE PUSH1 0xC DUP2 ADD PUSH1 0x20 MSTORE PUSH1 0x40 PUSH0 KECCAK256 DUP6 PUSH0 MSTORE PUSH1 0x20 MSTORE PUSH1 0x40 PUSH0 KECCAK256 PUSH2 0x3CAA DUP10 DUP3 SLOAD PUSH2 0x6182 JUMP JUMPDEST SWAP1 SSTORE PUSH1 0x2 DUP5 ADD PUSH2 0x3CBB DUP10 DUP3 SLOAD PUSH2 0x6182 JUMP JUMPDEST SWAP1 SSTORE PUSH1 0x3 DUP5 ADD PUSH2 0x3CCC DUP11 DUP3 SLOAD PUSH2 0x6099 JUMP JUMPDEST SWAP1 SSTORE PUSH1 0x7 DUP2 ADD PUSH2 0x3CDD DUP11 DUP3 SLOAD PUSH2 0x6099 JUMP JUMPDEST SWAP1 SSTORE ADD PUSH2 0x3CEB DUP7 DUP3 SLOAD PUSH2 0x6099 JUMP JUMPDEST SWAP1 SSTORE DUP8 PUSH0 MSTORE PUSH1 0xB PUSH1 0x20 MSTORE PUSH1 0xB PUSH1 0x40 PUSH0 KECCAK256 ADD DUP4 PUSH0 MSTORE PUSH1 0x20 MSTORE PUSH1 0x40 PUSH0 KECCAK256 PUSH1 0x6 PUSH1 0x7 DUP3 ADD SLOAD SWAP2 ADD SLOAD SWAP1 DUP8 DUP1 DUP3 GT PUSH0 EQ PUSH2 0x3F8E JUMPI PUSH2 0x3D24 SWAP2 PUSH2 0x6182 JUMP JUMPDEST SWAP1 JUMPDEST PUSH8 0xDE0B6B3A7640000 DUP2 MUL SWAP1 DUP1 DUP3 DIV PUSH8 0xDE0B6B3A7640000 EQ SWAP1 ISZERO OR ISZERO PUSH2 0x1085 JUMPI PUSH1 0x4 SWAP2 PUSH2 0x3D53 SWAP2 PUSH2 0x60B9 JUMP JUMPDEST SWAP3 ADD SWAP2 DUP3 SSTORE PUSH8 0xDE0B6B3A7640000 PUSH2 0x3D6B DUP8 DUP7 PUSH2 0x60A6 JUMP JUMPDEST DIV SWAP1 PUSH0 DUP3 DUP3 SUB SWAP3 SLT DUP2 DUP4 SLT DUP2 AND SWAP1 DUP3 DUP5 SGT SWAP1 ISZERO AND OR PUSH2 0x1085 JUMPI CALLER PUSH0 MSTORE PUSH1 0xD PUSH1 0x20 MSTORE PUSH1 0x3 PUSH1 0x40 PUSH0 KECCAK256 ADD DUP1 SLOAD PUSH0 DUP5 DUP3 ADD SWAP5 DUP6 SLT SWAP2 SLT SWAP1 DUP1 ISZERO DUP3 AND SWAP2 ISZERO AND OR PUSH2 0x1085 JUMPI PUSH0 SWAP9 PUSH1 0x20 SWAP5 PUSH2 0x3EA5 SWAP5 PUSH2 0x3E08 SWAP4 SSTORE CALLER DUP12 MSTORE PUSH1 0xD DUP7 MSTORE PUSH1 0x4 PUSH1 0x40 DUP13 KECCAK256 ADD PUSH2 0x3DD1 DUP2 SLOAD PUSH2 0x60EF JUMP JUMPDEST SWAP1 SSTORE DUP12 DUP12 MSTORE PUSH1 0x10 DUP7 MSTORE PUSH1 0x40 DUP12 KECCAK256 DUP8 DUP13 MSTORE DUP7 MSTORE PUSH1 0x40 DUP12 KECCAK256 SWAP1 SLOAD SWAP2 PUSH1 0x40 MLOAD SWAP3 PUSH2 0x3DF7 DUP5 PUSH2 0x5CE3 JUMP JUMPDEST DUP4 MSTORE TIMESTAMP DUP8 DUP5 ADD MSTORE PUSH1 0x40 DUP4 ADD MSTORE PUSH2 0x60FD JUMP JUMPDEST PUSH2 0x3E67 PUSH1 0x40 MLOAD PUSH2 0x3E17 DUP2 PUSH2 0x5CFE JUMP JUMPDEST DUP11 DUP2 MSTORE DUP6 DUP6 DUP3 ADD MSTORE DUP10 PUSH1 0x40 DUP3 ADD MSTORE CALLER PUSH1 0x60 DUP3 ADD MSTORE DUP7 PUSH1 0x80 DUP3 ADD MSTORE DUP9 PUSH1 0xA0 DUP3 ADD MSTORE TIMESTAMP PUSH1 0xC0 DUP3 ADD MSTORE DUP10 PUSH1 0xE0 DUP3 ADD MSTORE CALLER DUP11 MSTORE PUSH1 0xE DUP6 MSTORE PUSH2 0x3E57 DUP2 PUSH1 0x40 DUP13 KECCAK256 PUSH2 0x6325 JUMP JUMPDEST DUP11 DUP11 MSTORE PUSH1 0xF DUP6 MSTORE PUSH1 0x40 DUP11 KECCAK256 PUSH2 0x6325 JUMP JUMPDEST PUSH1 0x3 SLOAD PUSH1 0x40 MLOAD PUSH4 0xA9059CBB PUSH1 0xE0 SHL DUP2 MSTORE CALLER PUSH1 0x4 DUP3 ADD MSTORE PUSH1 0x24 DUP2 ADD SWAP3 SWAP1 SWAP3 MSTORE SWAP1 SWAP8 DUP9 SWAP3 PUSH1 0x8 SWAP3 SWAP1 SWAP3 SHR PUSH1 0x1 PUSH1 0x1 PUSH1 0xA0 SHL SUB AND SWAP2 DUP4 SWAP2 SWAP1 DUP3 SWAP1 PUSH1 0x44 DUP3 ADD SWAP1 JUMP JUMPDEST SUB SWAP3 GAS CALL SWAP4 DUP5 ISZERO PUSH2 0xE39 JUMPI PUSH32 0x976184626638B6C7E51A4AB66B297BEB1714B545CE4E867A70D622566573098C PUSH1 0x80 PUSH0 SWAP5 DUP10 SWAP4 PUSH2 0x3F0B PUSH1 0x20 SWAP10 PUSH32 0xAF7C505EE772EC188AF7067E1F73DB08AB028E3D564273442B907742B9C41FA0 SWAP12 DUP10 SWAP2 PUSH2 0x3F71 JUMPI POP PUSH2 0x63D8 JUMP JUMPDEST PUSH1 0x40 MLOAD DUP2 DUP2 MSTORE DUP3 DUP11 DUP3 ADD MSTORE DUP7 DUP7 PUSH32 0x33C49DA1FF633FF516CC2661D0CD94AF11B7B76985B6FE549151782C14DB745A PUSH1 0x40 CALLER SWAP5 LOG4 PUSH1 0x8 SLOAD SWAP1 PUSH2 0x3F4B DUP3 PUSH2 0x60EF JUMP JUMPDEST PUSH1 0x8 SSTORE PUSH1 0x40 MLOAD SWAP3 CALLER DUP5 MSTORE DUP11 DUP5 ADD MSTORE PUSH1 0x40 DUP4 ADD MSTORE PUSH1 0x60 DUP3 ADD MSTORE LOG4 PUSH1 0x40 MLOAD SWAP1 DUP2 MSTORE LOG2 PUSH1 0x1 DUP1 SSTORE STOP JUMPDEST PUSH2 0x3F88 SWAP2 POP DUP12 RETURNDATASIZE DUP14 GT PUSH2 0xE32 JUMPI PUSH2 0xE24 DUP2 DUP4 PUSH2 0x5D1A JUMP JUMPDEST DUP14 PUSH2 0x12C6 JUMP JUMPDEST POP PUSH1 0x1 SHR SWAP1 PUSH2 0x3D26 JUMP JUMPDEST PUSH1 0x40 MLOAD PUSH3 0x461BCD PUSH1 0xE5 SHL DUP2 MSTORE PUSH1 0x20 PUSH1 0x4 DUP3 ADD MSTORE PUSH1 0xD PUSH1 0x24 DUP3 ADD MSTORE PUSH13 0x507269636520746F6F206C6F77 PUSH1 0x98 SHL PUSH1 0x44 DUP3 ADD MSTORE PUSH1 0x64 SWAP1 REVERT JUMPDEST CALLVALUE PUSH2 0x4EC JUMPI PUSH1 0x20 CALLDATASIZE PUSH1 0x3 NOT ADD SLT PUSH2 0x4EC JUMPI PUSH1 0x4 CALLDATALOAD PUSH0 PUSH1 0xA0 PUSH1 0x40 MLOAD PUSH2 0x3FF0 DUP2 PUSH2 0x5CC8 JUMP JUMPDEST DUP3 DUP2 MSTORE DUP3 PUSH1 0x20 DUP3 ADD MSTORE DUP3 PUSH1 0x40 DUP3 ADD MSTORE DUP3 PUSH1 0x60 DUP3 ADD MSTORE DUP3 PUSH1 0x80 DUP3 ADD MSTORE ADD MSTORE PUSH2 0x401A PUSH1 0x6 SLOAD DUP3 LT PUSH2 0x5F4B JUMP JUMPDEST DUP1 PUSH0 MSTORE PUSH1 0xB PUSH1 0x20 MSTORE PUSH1 0x40 PUSH0 KECCAK256 PUSH0 PUSH0 SWAP1 PUSH1 0x9 DUP4 ADD SLOAD SWAP2 PUSH1 0xB DUP5 ADD JUMPDEST DUP4 DUP3 LT PUSH2 0x4141 JUMPI POP POP SWAP1 PUSH2 0x4047 SWAP2 PUSH2 0x60B9 JUMP JUMPDEST PUSH1 0xE PUSH1 0x7 DUP4 ADD SLOAD SWAP3 ADD SLOAD DUP4 PUSH0 MSTORE PUSH1 0xF PUSH1 0x20 MSTORE PUSH1 0x40 PUSH0 KECCAK256 SLOAD ISZERO ISZERO PUSH0 EQ PUSH2 0x413A JUMPI PUSH0 DUP5 DUP2 MSTORE PUSH1 0xF PUSH1 0x20 MSTORE PUSH1 0x40 SWAP1 KECCAK256 DUP1 SLOAD PUSH0 NOT DUP2 ADD SWAP2 SWAP1 DUP3 GT PUSH2 0x1085 JUMPI PUSH1 0x4 SWAP2 PUSH2 0x408D SWAP2 PUSH2 0x5BC5 JUMP JUMPDEST POP ADD SLOAD SWAP1 JUMPDEST PUSH0 DUP6 DUP2 MSTORE PUSH1 0xF PUSH1 0x20 MSTORE PUSH1 0x40 SWAP1 KECCAK256 SLOAD ISZERO PUSH2 0x412F JUMPI PUSH0 SWAP5 DUP6 MSTORE PUSH1 0xF PUSH1 0x20 MSTORE PUSH1 0x40 SWAP1 SWAP5 KECCAK256 DUP1 SLOAD SWAP1 SWAP5 SWAP1 PUSH0 NOT DUP2 ADD SWAP1 DUP2 GT PUSH2 0x1085 JUMPI PUSH2 0x40D1 PUSH1 0x6 SWAP2 PUSH1 0xC0 SWAP8 PUSH2 0x5BC5 JUMP JUMPDEST POP ADD SLOAD SWAP3 JUMPDEST PUSH1 0x40 MLOAD SWAP2 PUSH2 0x40E3 DUP4 PUSH2 0x5CC8 JUMP JUMPDEST DUP6 DUP4 MSTORE PUSH1 0x20 DUP4 ADD SWAP1 DUP2 MSTORE PUSH1 0x40 DUP4 ADD SWAP2 DUP3 MSTORE PUSH1 0xA0 PUSH1 0x60 DUP5 ADD SWAP4 PUSH0 DUP6 MSTORE PUSH1 0x80 DUP2 ADD SWAP6 DUP7 MSTORE ADD SWAP5 DUP6 MSTORE PUSH1 0x40 MLOAD SWAP6 DUP7 MSTORE MLOAD PUSH1 0x20 DUP7 ADD MSTORE MLOAD PUSH1 0x40 DUP6 ADD MSTORE MLOAD PUSH1 0x60 DUP5 ADD MSTORE MLOAD PUSH1 0x80 DUP4 ADD MSTORE MLOAD PUSH1 0xA0 DUP3 ADD MSTORE RETURN JUMPDEST PUSH1 0xC0 SWAP5 POP PUSH0 SWAP3 PUSH2 0x40D6 JUMP JUMPDEST PUSH0 SWAP1 PUSH2 0x4092 JUMP JUMPDEST SWAP1 SWAP2 PUSH2 0x415E PUSH1 0x1 SWAP2 DUP5 PUSH0 MSTORE DUP4 PUSH1 0x20 MSTORE PUSH1 0x4 PUSH1 0x40 PUSH0 KECCAK256 ADD SLOAD SWAP1 PUSH2 0x6099 JUMP JUMPDEST SWAP3 ADD SWAP1 PUSH2 0x4034 JUMP JUMPDEST CALLVALUE PUSH2 0x4EC JUMPI PUSH0 CALLDATASIZE PUSH1 0x3 NOT ADD SLT PUSH2 0x4EC JUMPI PUSH1 0x4 SLOAD PUSH1 0x40 MLOAD PUSH1 0x1 PUSH1 0x1 PUSH1 0xA0 SHL SUB SWAP1 SWAP2 AND DUP2 MSTORE PUSH1 0x20 SWAP1 RETURN JUMPDEST CALLVALUE PUSH2 0x4EC JUMPI PUSH1 0x40 CALLDATASIZE PUSH1 0x3 NOT ADD SLT PUSH2 0x4EC JUMPI PUSH1 0x4 CALLDATALOAD PUSH1 0x24 CALLDATALOAD PUSH1 0x1 PUSH1 0x1 PUSH1 0x40 SHL SUB DUP2 GT PUSH2 0x4EC JUMPI PUSH2 0x41C1 SWAP1 CALLDATASIZE SWAP1 PUSH1 0x4 ADD PUSH2 0x5D3B JUMP JUMPDEST PUSH2 0x41CE PUSH1 0x6 SLOAD DUP4 LT PUSH2 0x5F4B JUMP JUMPDEST DUP2 PUSH0 MSTORE PUSH1 0xB PUSH1 0x20 MSTORE PUSH1 0xFF PUSH1 0x5 PUSH1 0x40 PUSH0 KECCAK256 ADD SLOAD AND ISZERO PUSH2 0x4318 JUMPI DUP2 PUSH0 MSTORE PUSH1 0xB PUSH1 0x20 MSTORE PUSH1 0xFF PUSH1 0x5 PUSH1 0x40 PUSH0 KECCAK256 ADD SLOAD PUSH1 0x8 SHR AND PUSH2 0x42D3 JUMPI PUSH0 DUP3 DUP2 MSTORE PUSH1 0xB PUSH1 0x20 SWAP1 DUP2 MSTORE PUSH1 0x40 DUP1 DUP4 KECCAK256 CALLER DUP5 MSTORE PUSH1 0xC DUP2 ADD DUP4 MSTORE DUP2 DUP5 KECCAK256 PUSH1 0x4 SWAP1 SWAP2 ADD SLOAD DUP5 MSTORE SWAP1 SWAP2 MSTORE SWAP1 KECCAK256 SLOAD PUSH2 0x428E JUMPI PUSH2 0x4289 PUSH32 0xF20590B2CB9AF0BB070AD77DE2C0B74DB291DD43666E7A386FFB0E65974B050A SWAP2 DUP4 PUSH0 MSTORE PUSH1 0xB PUSH1 0x20 MSTORE PUSH1 0x5 PUSH1 0x40 PUSH0 KECCAK256 ADD PUSH2 0x100 PUSH2 0xFF00 NOT DUP3 SLOAD AND OR SWAP1 SSTORE PUSH1 0x40 MLOAD SWAP2 DUP3 SWAP2 CALLER DUP4 MSTORE PUSH1 0x40 PUSH1 0x20 DUP5 ADD MSTORE PUSH1 0x40 DUP4 ADD SWAP1 PUSH2 0x5C50 JUMP JUMPDEST SUB SWAP1 LOG2 STOP JUMPDEST PUSH1 0x40 MLOAD PUSH3 0x461BCD PUSH1 0xE5 SHL DUP2 MSTORE PUSH1 0x20 PUSH1 0x4 DUP3 ADD MSTORE PUSH1 0x19 PUSH1 0x24 DUP3 ADD MSTORE PUSH32 0x43616E6E6F74206469737075746520696620796F7520776F6E00000000000000 PUSH1 0x44 DUP3 ADD MSTORE PUSH1 0x64 SWAP1 REVERT JUMPDEST PUSH1 0x40 MLOAD PUSH3 0x461BCD PUSH1 0xE5 SHL DUP2 MSTORE PUSH1 0x20 PUSH1 0x4 DUP3 ADD MSTORE PUSH1 0x17 PUSH1 0x24 DUP3 ADD MSTORE PUSH32 0x4D61726B657420616C7265616479206469737075746564000000000000000000 PUSH1 0x44 DUP3 ADD MSTORE PUSH1 0x64 SWAP1 REVERT JUMPDEST PUSH1 0x40 MLOAD PUSH3 0x461BCD PUSH1 0xE5 SHL DUP2 MSTORE PUSH1 0x20 PUSH1 0x4 DUP3 ADD MSTORE PUSH1 0x17 PUSH1 0x24 DUP3 ADD MSTORE PUSH32 0x4D61726B6574206E6F74207265736F6C76656420796574000000000000000000 PUSH1 0x44 DUP3 ADD MSTORE PUSH1 0x64 SWAP1 REVERT JUMPDEST CALLVALUE PUSH2 0x4EC JUMPI PUSH0 CALLDATASIZE PUSH1 0x3 NOT ADD SLT PUSH2 0x4EC JUMPI PUSH1 0x3 SLOAD PUSH1 0x40 MLOAD PUSH1 0x8 SWAP2 SWAP1 SWAP2 SHR PUSH1 0x1 PUSH1 0x1 PUSH1 0xA0 SHL SUB AND DUP2 MSTORE PUSH1 0x20 SWAP1 RETURN JUMPDEST CALLVALUE PUSH2 0x4EC JUMPI PUSH0 CALLDATASIZE PUSH1 0x3 NOT ADD SLT PUSH2 0x4EC JUMPI PUSH1 0x20 PUSH1 0xA SLOAD PUSH1 0x40 MLOAD SWAP1 DUP2 MSTORE RETURN JUMPDEST CALLVALUE PUSH2 0x4EC JUMPI PUSH0 CALLDATASIZE PUSH1 0x3 NOT ADD SLT PUSH2 0x4EC JUMPI PUSH2 0x43BE PUSH2 0x64C4 JUMP JUMPDEST PUSH1 0x3 SLOAD PUSH1 0xFF DUP2 AND ISZERO PUSH2 0x43FD JUMPI PUSH1 0xFF NOT AND PUSH1 0x3 SSTORE PUSH32 0x5DB9EE0A495BF2E6FF9C91A7834C1BA4FDD244A5E8AA4E537BD38AEAE4B073AA PUSH1 0x20 PUSH1 0x40 MLOAD CALLER DUP2 MSTORE LOG1 STOP JUMPDEST PUSH4 0x8DFC202B PUSH1 0xE0 SHL PUSH0 MSTORE PUSH1 0x4 PUSH0 REVERT JUMPDEST CALLVALUE PUSH2 0x4EC JUMPI PUSH1 0x20 CALLDATASIZE PUSH1 0x3 NOT ADD SLT PUSH2 0x4EC JUMPI PUSH1 0x4 CALLDATALOAD PUSH2 0x442D PUSH1 0x6 SLOAD DUP3 LT PUSH2 0x5F4B JUMP JUMPDEST PUSH0 MSTORE PUSH1 0xB PUSH1 0x20 MSTORE PUSH2 0x448B PUSH1 0x40 PUSH0 KECCAK256 PUSH1 0x2 DUP2 ADD SLOAD PUSH1 0xFF PUSH1 0x3 DUP4 ADD SLOAD AND PUSH1 0x9 DUP4 ADD SLOAD SWAP1 PUSH1 0x5 DUP5 ADD SLOAD SWAP2 PUSH2 0x44A9 PUSH1 0x4 DUP7 ADD SLOAD SWAP3 PUSH2 0x4499 PUSH2 0x4475 PUSH1 0x1 PUSH2 0x446E DUP11 PUSH2 0x5FC7 JUMP JUMPDEST SWAP10 ADD PUSH2 0x5FC7 JUMP JUMPDEST PUSH1 0x40 MLOAD SWAP10 DUP11 SWAP10 PUSH2 0x120 DUP12 MSTORE PUSH2 0x120 DUP12 ADD SWAP1 PUSH2 0x5C50 JUMP JUMPDEST SWAP1 DUP10 DUP3 SUB PUSH1 0x20 DUP12 ADD MSTORE PUSH2 0x5C50 JUMP JUMPDEST SWAP6 PUSH1 0x40 DUP9 ADD MSTORE PUSH1 0x60 DUP8 ADD SWAP1 PUSH2 0x5E25 JUMP JUMPDEST PUSH1 0x80 DUP6 ADD MSTORE PUSH1 0xFF DUP3 DUP2 AND ISZERO ISZERO PUSH1 0xA0 DUP7 ADD MSTORE PUSH1 0x8 DUP4 SWAP1 SHR AND ISZERO ISZERO PUSH1 0xC0 DUP6 ADD MSTORE PUSH1 0xE0 DUP5 ADD MSTORE PUSH1 0x18 SHR PUSH1 0x1 PUSH1 0x1 PUSH1 0xA0 SHL SUB AND PUSH2 0x100 DUP4 ADD MSTORE SUB SWAP1 RETURN JUMPDEST CALLVALUE PUSH2 0x4EC JUMPI PUSH1 0x40 CALLDATASIZE PUSH1 0x3 NOT ADD SLT PUSH2 0x4EC JUMPI PUSH2 0x44FB PUSH2 0x5BAF JUMP JUMPDEST CALLER PUSH1 0x1 PUSH1 0x1 PUSH1 0xA0 SHL SUB DUP3 AND SUB PUSH2 0x4517 JUMPI PUSH2 0x25CA SWAP1 PUSH1 0x4 CALLDATALOAD PUSH2 0x67C2 JUMP JUMPDEST PUSH4 0x334BD919 PUSH1 0xE1 SHL PUSH0 MSTORE PUSH1 0x4 PUSH0 REVERT JUMPDEST CALLVALUE PUSH2 0x4EC JUMPI PUSH1 0x20 CALLDATASIZE PUSH1 0x3 NOT ADD SLT PUSH2 0x4EC JUMPI PUSH2 0x25CA PUSH2 0x4542 PUSH2 0x5B99 JUMP JUMPDEST PUSH2 0x454A PUSH2 0x64C4 JUMP JUMPDEST PUSH32 0xDCEE1D35C83A32B436264A5C9AFD68685C124F3F9097E87804C55410E67FC59A PUSH0 MSTORE PUSH1 0x2 PUSH1 0x20 MSTORE PUSH32 0x8E2C297E756B2A427C5DC4607F639842A8EA6E0F6322302F4EA76306B642CFC3 SLOAD PUSH2 0x459D SWAP1 PUSH2 0x6505 JUMP JUMPDEST PUSH2 0x653F JUMP JUMPDEST CALLVALUE PUSH2 0x4EC JUMPI PUSH2 0x100 CALLDATASIZE PUSH1 0x3 NOT ADD SLT PUSH2 0x4EC JUMPI PUSH1 0x4 CALLDATALOAD PUSH1 0x1 PUSH1 0x1 PUSH1 0x40 SHL SUB DUP2 GT PUSH2 0x4EC JUMPI PUSH2 0x45D3 SWAP1 CALLDATASIZE SWAP1 PUSH1 0x4 ADD PUSH2 0x5D3B JUMP JUMPDEST PUSH1 0x24 CALLDATALOAD PUSH1 0x1 PUSH1 0x1 PUSH1 0x40 SHL SUB DUP2 GT PUSH2 0x4EC JUMPI PUSH2 0x45F2 SWAP1 CALLDATASIZE SWAP1 PUSH1 0x4 ADD PUSH2 0x5D3B JUMP JUMPDEST PUSH1 0x44 CALLDATALOAD PUSH1 0x1 PUSH1 0x1 PUSH1 0x40 SHL SUB DUP2 GT PUSH2 0x4EC JUMPI PUSH2 0x4611 SWAP1 CALLDATASIZE SWAP1 PUSH1 0x4 ADD PUSH2 0x5DA7 JUMP JUMPDEST SWAP2 PUSH1 0x64 CALLDATALOAD PUSH1 0x1 PUSH1 0x1 PUSH1 0x40 SHL SUB DUP2 GT PUSH2 0x4EC JUMPI PUSH2 0x4631 SWAP1 CALLDATASIZE SWAP1 PUSH1 0x4 ADD PUSH2 0x5DA7 JUMP JUMPDEST PUSH1 0x84 CALLDATALOAD SWAP1 PUSH1 0xA4 CALLDATALOAD PUSH1 0x8 DUP2 LT ISZERO PUSH2 0x4EC JUMPI PUSH1 0xC4 CALLDATALOAD SWAP6 PUSH1 0x3 DUP8 LT ISZERO PUSH2 0x4EC JUMPI PUSH1 0xE4 CALLDATALOAD SWAP5 PUSH2 0x465A PUSH2 0x64EA JUMP JUMPDEST PUSH0 SLOAD PUSH1 0x1 PUSH1 0x1 PUSH1 0xA0 SHL SUB AND CALLER EQ DUP1 ISZERO PUSH2 0x4D7A JUMPI JUMPDEST ISZERO PUSH2 0xF76 JUMPI PUSH2 0xE10 DUP6 LT ISZERO DUP1 PUSH2 0x4D6C JUMPI JUMPDEST ISZERO PUSH2 0xF30 JUMPI DUP1 MLOAD ISZERO PUSH2 0xEEB JUMPI DUP2 MLOAD PUSH1 0x2 DUP2 LT ISZERO SWAP1 DUP2 PUSH2 0x4D60 JUMPI JUMPDEST POP ISZERO PUSH2 0xE9A JUMPI DUP2 MLOAD DUP5 MLOAD SUB PUSH2 0xE44 JUMPI PUSH9 0x56BC75E2D63100000 DUP7 LT PUSH2 0x2463 JUMPI PUSH1 0x3 SLOAD PUSH1 0x40 MLOAD PUSH4 0x23B872DD PUSH1 0xE0 SHL DUP2 MSTORE CALLER PUSH1 0x4 DUP3 ADD MSTORE ADDRESS PUSH1 0x24 DUP3 ADD MSTORE PUSH1 0x44 DUP2 ADD DUP9 SWAP1 MSTORE SWAP1 PUSH1 0x20 SWAP1 DUP3 SWAP1 PUSH1 0x8 SHR PUSH1 0x1 PUSH1 0x1 PUSH1 0xA0 SHL SUB AND DUP2 PUSH0 DUP2 PUSH1 0x64 DUP2 ADD SUB SWAP3 GAS CALL SWAP1 DUP2 ISZERO PUSH2 0xE39 JUMPI PUSH0 SWAP2 PUSH2 0x4D41 JUMPI JUMPDEST POP ISZERO PUSH2 0xDC5 JUMPI PUSH1 0x6 SLOAD SWAP5 PUSH2 0x4719 DUP7 PUSH2 0x60EF JUMP JUMPDEST PUSH1 0x6 SSTORE DUP6 PUSH0 MSTORE PUSH1 0xB PUSH1 0x20 MSTORE PUSH1 0x40 PUSH0 KECCAK256 SWAP8 DUP3 MLOAD PUSH1 0x1 PUSH1 0x1 PUSH1 0x40 SHL SUB DUP2 GT PUSH2 0xA9A JUMPI PUSH2 0x4743 DUP11 SLOAD PUSH2 0x5F8F JUMP JUMPDEST PUSH1 0x1F DUP2 GT PUSH2 0x4CFC JUMPI JUMPDEST POP DUP1 PUSH1 0x20 PUSH1 0x1F DUP3 GT PUSH1 0x1 EQ PUSH2 0x4C9B JUMPI PUSH0 SWAP2 PUSH2 0x4C90 JUMPI JUMPDEST POP DUP2 PUSH1 0x1 SHL SWAP2 PUSH0 NOT SWAP1 PUSH1 0x3 SHL SHR NOT AND OR DUP10 SSTORE JUMPDEST DUP1 MLOAD PUSH1 0x1 DUP11 ADD SWAP2 PUSH1 0x1 PUSH1 0x1 PUSH1 0x40 SHL SUB DUP3 GT PUSH2 0xA9A JUMPI PUSH2 0x4794 DUP4 SLOAD PUSH2 0x5F8F JUMP JUMPDEST PUSH1 0x1F DUP2 GT PUSH2 0x4C4B JUMPI JUMPDEST POP PUSH1 0x20 SWAP1 PUSH1 0x1F DUP4 GT PUSH1 0x1 EQ PUSH2 0x4BFC JUMPI PUSH2 0x47D3 SWAP5 SWAP4 SWAP3 SWAP2 PUSH0 SWAP2 DUP4 PUSH2 0x22DC JUMPI POP POP DUP2 PUSH1 0x1 SHL SWAP2 PUSH0 NOT SWAP1 PUSH1 0x3 SHL SHR NOT AND OR SWAP1 SSTORE TIMESTAMP PUSH2 0x6099 JUMP JUMPDEST PUSH1 0x2 DUP9 ADD SWAP1 DUP2 SSTORE PUSH1 0x3 DUP9 ADD DUP1 SLOAD PUSH2 0xFFFF NOT AND PUSH1 0xFF DUP7 AND OR PUSH1 0x8 DUP12 DUP2 SHL PUSH2 0xFF00 AND SWAP2 SWAP1 SWAP2 OR SWAP1 SWAP2 SSTORE PUSH1 0x5 DUP10 ADD DUP1 SLOAD PUSH4 0x1000000 PUSH1 0x1 PUSH1 0xB8 SHL SUB NOT AND CALLER PUSH1 0x18 SHL PUSH4 0x1000000 PUSH1 0x1 PUSH1 0xB8 SHL SUB AND OR SWAP1 SSTORE TIMESTAMP SWAP1 DUP10 ADD SSTORE DUP3 MLOAD PUSH1 0x9 DUP10 ADD DUP2 SWAP1 SSTORE PUSH1 0xA DUP10 ADD DUP9 SWAP1 SSTORE SWAP1 SWAP9 SWAP1 DUP1 ISZERO PUSH2 0xC46 JUMPI PUSH2 0x4858 SWAP1 PUSH8 0xDE0B6B3A7640000 SWAP11 SWAP10 SWAP11 DIV SWAP8 DUP5 MLOAD SWAP1 PUSH2 0x60B9 JUMP JUMPDEST SWAP4 PUSH1 0xB PUSH0 SWAP11 ADD SWAP10 JUMPDEST DUP5 MLOAD DUP2 LT ISZERO PUSH2 0x4B42 JUMPI PUSH2 0x4873 DUP2 DUP7 PUSH2 0x60C3 JUMP JUMPDEST MLOAD DUP7 DUP13 PUSH2 0x4880 DUP5 DUP12 PUSH2 0x60C3 JUMP JUMPDEST MLOAD PUSH1 0x40 MLOAD SWAP4 PUSH2 0x488E DUP6 PUSH2 0x5CFE JUMP JUMPDEST DUP5 MSTORE PUSH1 0x20 DUP5 ADD SWAP1 DUP2 MSTORE DUP13 PUSH1 0x40 DUP6 ADD PUSH0 DUP2 MSTORE PUSH1 0x60 DUP7 ADD SWAP1 PUSH0 DUP3 MSTORE PUSH1 0x80 DUP8 ADD SWAP3 DUP4 MSTORE PUSH1 0xA0 DUP8 ADD SWAP4 PUSH1 0x1 DUP6 MSTORE PUSH1 0xC0 DUP9 ADD SWAP6 DUP8 DUP8 MSTORE PUSH1 0xE0 DUP10 ADD SWAP8 DUP9 MSTORE DUP10 PUSH0 MSTORE PUSH1 0x20 MSTORE PUSH1 0x40 PUSH0 KECCAK256 SWAP8 MLOAD DUP1 MLOAD SWAP1 PUSH1 0x1 PUSH1 0x1 PUSH1 0x40 SHL SUB DUP3 GT PUSH2 0xA9A JUMPI DUP2 SWAP1 PUSH2 0x48EF DUP12 SLOAD PUSH2 0x5F8F JUMP JUMPDEST PUSH1 0x1F DUP2 GT PUSH2 0x4AF2 JUMPI JUMPDEST POP PUSH1 0x20 SWAP1 PUSH1 0x1F DUP4 GT PUSH1 0x1 EQ PUSH2 0x4A8F JUMPI PUSH0 SWAP3 PUSH2 0x4A84 JUMPI JUMPDEST POP POP DUP2 PUSH1 0x1 SHL SWAP2 PUSH0 NOT SWAP1 PUSH1 0x3 SHL SHR NOT AND OR DUP9 SSTORE JUMPDEST MLOAD DUP1 MLOAD PUSH1 0x1 DUP10 ADD SWAP2 PUSH1 0x1 PUSH1 0x1 PUSH1 0x40 SHL SUB DUP3 GT PUSH2 0xA9A JUMPI PUSH2 0x4942 DUP4 SLOAD PUSH2 0x5F8F JUMP JUMPDEST PUSH1 0x1F DUP2 GT PUSH2 0x4A3F JUMPI JUMPDEST POP PUSH1 0x20 SWAP1 PUSH1 0x1F DUP4 GT PUSH1 0x1 EQ PUSH2 0x49E6 JUMPI SWAP3 DUP3 PUSH2 0x49B0 SWAP7 SWAP4 PUSH1 0x1 SWAP14 SWAP13 SWAP12 SWAP10 SWAP7 SWAP4 PUSH1 0x7 SWAP12 SWAP10 SWAP7 PUSH0 SWAP3 PUSH2 0x9D8 JUMPI POP POP PUSH0 NOT PUSH1 0x3 DUP4 SWAP1 SHL SHR NOT AND SWAP1 DUP14 SHL OR SWAP1 SSTORE MLOAD PUSH1 0x2 DUP10 ADD SSTORE MLOAD PUSH1 0x3 DUP9 ADD SSTORE MLOAD PUSH1 0x4 DUP8 ADD SSTORE MLOAD ISZERO ISZERO PUSH1 0x5 DUP7 ADD SWAP1 PUSH1 0xFF DUP1 NOT DUP4 SLOAD AND SWAP2 ISZERO ISZERO AND OR SWAP1 SSTORE JUMP JUMPDEST MLOAD PUSH1 0x6 DUP5 ADD SSTORE MLOAD SWAP2 ADD SSTORE DUP9 PUSH0 MSTORE PUSH1 0x10 PUSH1 0x20 MSTORE PUSH1 0x40 PUSH0 KECCAK256 DUP2 PUSH0 MSTORE PUSH1 0x20 MSTORE PUSH2 0x49E0 PUSH1 0x40 PUSH0 KECCAK256 PUSH1 0x40 MLOAD SWAP1 PUSH2 0x9BE DUP3 PUSH2 0x5CE3 JUMP JUMPDEST ADD PUSH2 0x4860 JUMP JUMPDEST SWAP1 PUSH1 0x1F NOT DUP4 AND SWAP2 DUP5 PUSH0 MSTORE DUP2 PUSH0 KECCAK256 SWAP3 PUSH0 JUMPDEST DUP2 DUP2 LT PUSH2 0x4A27 JUMPI POP SWAP4 PUSH1 0x1 SWAP14 SWAP13 SWAP12 SWAP10 SWAP7 SWAP4 PUSH1 0x7 SWAP12 SWAP10 SWAP7 SWAP4 DUP16 SWAP4 DUP4 PUSH2 0x49B0 SWAP12 SWAP9 LT PUSH2 0xA25 JUMPI POP POP POP DUP2 SHL ADD SWAP1 SSTORE PUSH2 0x964 JUMP JUMPDEST SWAP3 SWAP4 PUSH1 0x20 PUSH1 0x1 DUP2 SWAP3 DUP8 DUP7 ADD MLOAD DUP2 SSTORE ADD SWAP6 ADD SWAP4 ADD PUSH2 0x49F6 JUMP JUMPDEST DUP4 PUSH0 MSTORE PUSH1 0x20 PUSH0 KECCAK256 PUSH1 0x1F DUP5 ADD PUSH1 0x5 SHR DUP2 ADD SWAP2 PUSH1 0x20 DUP6 LT PUSH2 0x4A7A JUMPI JUMPDEST PUSH1 0x1F ADD PUSH1 0x5 SHR ADD SWAP1 JUMPDEST DUP2 DUP2 LT PUSH2 0x4A6F JUMPI POP PUSH2 0x494B JUMP JUMPDEST PUSH0 DUP2 SSTORE PUSH1 0x1 ADD PUSH2 0x4A62 JUMP JUMPDEST SWAP1 SWAP2 POP DUP2 SWAP1 PUSH2 0x4A59 JUMP JUMPDEST ADD MLOAD SWAP1 POP PUSH0 DUP1 PUSH2 0x490E JUMP JUMPDEST PUSH0 DUP13 DUP2 MSTORE DUP3 DUP2 KECCAK256 SWAP4 POP PUSH1 0x1F NOT DUP6 AND SWAP1 JUMPDEST DUP2 DUP2 LT PUSH2 0x4ADA JUMPI POP SWAP1 DUP5 PUSH1 0x1 SWAP6 SWAP5 SWAP4 SWAP3 LT PUSH2 0x4AC2 JUMPI JUMPDEST POP POP POP DUP2 SHL ADD DUP9 SSTORE PUSH2 0x4922 JUMP JUMPDEST ADD MLOAD PUSH0 NOT PUSH1 0xF8 DUP5 PUSH1 0x3 SHL AND SHR NOT AND SWAP1 SSTORE PUSH0 DUP1 DUP1 PUSH2 0x4AB5 JUMP JUMPDEST SWAP3 SWAP4 PUSH1 0x20 PUSH1 0x1 DUP2 SWAP3 DUP8 DUP7 ADD MLOAD DUP2 SSTORE ADD SWAP6 ADD SWAP4 ADD PUSH2 0x4A9F JUMP JUMPDEST SWAP1 SWAP2 POP DUP11 PUSH0 MSTORE PUSH1 0x20 PUSH0 KECCAK256 PUSH1 0x1F DUP5 ADD PUSH1 0x5 SHR DUP2 ADD SWAP2 PUSH1 0x20 DUP6 LT PUSH2 0x4B38 JUMPI JUMPDEST SWAP1 PUSH1 0x1F DUP6 SWAP5 SWAP4 SWAP3 ADD PUSH1 0x5 SHR ADD SWAP1 JUMPDEST DUP2 DUP2 LT PUSH2 0x4B2A JUMPI POP PUSH2 0x48F8 JUMP JUMPDEST PUSH0 DUP2 SSTORE DUP5 SWAP4 POP PUSH1 0x1 ADD PUSH2 0x4B1D JUMP JUMPDEST SWAP1 SWAP2 POP DUP2 SWAP1 PUSH2 0x4B0F JUMP JUMPDEST POP DUP7 SWAP2 DUP5 SWAP2 DUP11 PUSH2 0x4B55 DUP6 PUSH2 0xB7F DUP5 PUSH2 0x5EA2 JUMP JUMPDEST PUSH2 0x4B62 DUP6 PUSH2 0xB7F DUP6 PUSH2 0x5EB9 JUMP JUMPDEST SLOAD PUSH2 0x4B78 PUSH1 0x40 MLOAD SWAP7 PUSH1 0xC0 DUP9 MSTORE PUSH1 0xC0 DUP9 ADD SWAP1 PUSH2 0x5C50 JUMP JUMPDEST DUP7 DUP2 SUB PUSH1 0x20 DUP9 ADD MSTORE DUP5 MLOAD DUP1 DUP3 MSTORE PUSH1 0x20 DUP3 ADD SWAP2 PUSH1 0x20 DUP1 DUP4 PUSH1 0x5 SHL DUP4 ADD ADD SWAP8 ADD SWAP3 PUSH0 SWAP2 JUMPDEST DUP4 DUP4 LT PUSH2 0x4BCF JUMPI POP PUSH1 0x20 DUP10 DUP1 PUSH0 MLOAD PUSH1 0x20 PUSH2 0x6903 PUSH0 CODECOPY PUSH0 MLOAD SWAP1 PUSH0 MSTORE DUP14 DUP1 DUP14 PUSH2 0xC08 DUP15 PUSH2 0xBFE DUP16 DUP16 PUSH1 0x40 DUP8 ADD MSTORE PUSH1 0x60 DUP7 ADD SWAP1 PUSH2 0x5E25 JUMP JUMPDEST SWAP1 SWAP2 SWAP3 SWAP4 SWAP8 PUSH1 0x20 DUP1 PUSH2 0x4BED PUSH1 0x1 SWAP4 PUSH1 0x1F NOT DUP7 DUP3 SUB ADD DUP8 MSTORE DUP13 MLOAD PUSH2 0x5C50 JUMP JUMPDEST SWAP11 ADD SWAP4 ADD SWAP4 ADD SWAP2 SWAP4 SWAP3 SWAP1 PUSH2 0x4B9A JUMP JUMPDEST SWAP1 PUSH1 0x1F NOT DUP4 AND SWAP2 DUP5 PUSH0 MSTORE DUP2 PUSH0 KECCAK256 SWAP3 PUSH0 JUMPDEST DUP2 DUP2 LT PUSH2 0x4C33 JUMPI POP SWAP2 PUSH1 0x1 SWAP4 SWAP2 DUP6 PUSH2 0x47D3 SWAP9 SWAP8 SWAP7 SWAP5 LT PUSH2 0x231E JUMPI POP POP POP DUP2 SHL ADD SWAP1 SSTORE PUSH2 0x79B JUMP JUMPDEST SWAP3 SWAP4 PUSH1 0x20 PUSH1 0x1 DUP2 SWAP3 DUP8 DUP7 ADD MLOAD DUP2 SSTORE ADD SWAP6 ADD SWAP4 ADD PUSH2 0x4C0C JUMP JUMPDEST DUP4 PUSH0 MSTORE PUSH1 0x20 PUSH0 KECCAK256 PUSH1 0x1F DUP5 ADD PUSH1 0x5 SHR DUP2 ADD SWAP2 PUSH1 0x20 DUP6 LT PUSH2 0x4C86 JUMPI JUMPDEST PUSH1 0x1F ADD PUSH1 0x5 SHR ADD SWAP1 JUMPDEST DUP2 DUP2 LT PUSH2 0x4C7B JUMPI POP PUSH2 0x479D JUMP JUMPDEST PUSH0 DUP2 SSTORE PUSH1 0x1 ADD PUSH2 0x4C6E JUMP JUMPDEST SWAP1 SWAP2 POP DUP2 SWAP1 PUSH2 0x4C65 JUMP JUMPDEST SWAP1 POP DUP5 ADD MLOAD DUP13 PUSH2 0x4762 JUMP JUMPDEST PUSH0 DUP13 DUP2 MSTORE DUP2 DUP2 KECCAK256 SWAP3 POP PUSH1 0x1F NOT DUP5 AND SWAP1 JUMPDEST DUP2 DUP2 LT PUSH2 0x4CE4 JUMPI POP SWAP1 DUP4 PUSH1 0x1 SWAP5 SWAP4 SWAP3 LT PUSH2 0x4CCC JUMPI JUMPDEST POP POP DUP2 SHL ADD DUP10 SSTORE PUSH2 0x4775 JUMP JUMPDEST DUP7 ADD MLOAD PUSH0 NOT PUSH1 0xF8 DUP5 PUSH1 0x3 SHL AND SHR NOT AND SWAP1 SSTORE DUP13 DUP1 PUSH2 0x4CC0 JUMP JUMPDEST SWAP2 SWAP3 PUSH1 0x20 PUSH1 0x1 DUP2 SWAP3 DUP7 DUP12 ADD MLOAD DUP2 SSTORE ADD SWAP5 ADD SWAP3 ADD PUSH2 0x4CAB JUMP JUMPDEST DUP11 PUSH0 MSTORE PUSH1 0x20 PUSH0 KECCAK256 PUSH1 0x1F DUP4 ADD PUSH1 0x5 SHR DUP2 ADD SWAP2 PUSH1 0x20 DUP5 LT PUSH2 0x4D37 JUMPI JUMPDEST PUSH1 0x1F ADD PUSH1 0x5 SHR ADD SWAP1 JUMPDEST DUP2 DUP2 LT PUSH2 0x4D2C JUMPI POP PUSH2 0x474C JUMP JUMPDEST PUSH0 DUP2 SSTORE PUSH1 0x1 ADD PUSH2 0x4D1F JUMP JUMPDEST SWAP1 SWAP2 POP DUP2 SWAP1 PUSH2 0x4D16 JUMP JUMPDEST PUSH2 0x4D5A SWAP2 POP PUSH1 0x20 RETURNDATASIZE PUSH1 0x20 GT PUSH2 0xE32 JUMPI PUSH2 0xE24 DUP2 DUP4 PUSH2 0x5D1A JUMP JUMPDEST DUP10 PUSH2 0x4706 JUMP JUMPDEST PUSH1 0xA SWAP2 POP GT ISZERO DUP10 PUSH2 0x4699 JUMP JUMPDEST POP PUSH4 0x1E13380 DUP6 GT ISZERO PUSH2 0x467F JUMP JUMPDEST POP CALLER PUSH0 SWAP1 DUP2 MSTORE PUSH0 MLOAD PUSH1 0x20 PUSH2 0x68E3 PUSH0 CODECOPY PUSH0 MLOAD SWAP1 PUSH0 MSTORE PUSH1 0x20 MSTORE PUSH1 0x40 SWAP1 KECCAK256 SLOAD PUSH1 0xFF AND PUSH2 0x466E JUMP JUMPDEST CALLVALUE PUSH2 0x4EC JUMPI PUSH0 CALLDATASIZE PUSH1 0x3 NOT ADD SLT PUSH2 0x4EC JUMPI PUSH1 0x20 PUSH1 0x40 MLOAD PUSH32 0xD486618B282CB35034D59C30C062B5B3822D6CDF87EC459191CE7F5B7B8A4873 DUP2 MSTORE RETURN JUMPDEST CALLVALUE PUSH2 0x4EC JUMPI PUSH1 0x40 CALLDATASIZE PUSH1 0x3 NOT ADD SLT PUSH2 0x4EC JUMPI PUSH2 0x25CA PUSH1 0x4 CALLDATALOAD PUSH2 0x4DF7 PUSH2 0x5BAF JUMP JUMPDEST SWAP1 PUSH2 0x4E11 PUSH2 0x25C0 DUP3 PUSH0 MSTORE PUSH1 0x2 PUSH1 0x20 MSTORE PUSH1 0x1 PUSH1 0x40 PUSH0 KECCAK256 ADD SLOAD SWAP1 JUMP JUMPDEST PUSH2 0x6749 JUMP JUMPDEST CALLVALUE PUSH2 0x4EC JUMPI PUSH2 0x120 CALLDATASIZE PUSH1 0x3 NOT ADD SLT PUSH2 0x4EC JUMPI PUSH1 0x4 CALLDATALOAD PUSH1 0x1 PUSH1 0x1 PUSH1 0x40 SHL SUB DUP2 GT PUSH2 0x4EC JUMPI PUSH2 0x4E47 SWAP1 CALLDATASIZE SWAP1 PUSH1 0x4 ADD PUSH2 0x5D3B JUMP JUMPDEST PUSH1 0x24 CALLDATALOAD PUSH1 0x1 PUSH1 0x1 PUSH1 0x40 SHL SUB DUP2 GT PUSH2 0x4EC JUMPI PUSH2 0x4E66 SWAP1 CALLDATASIZE SWAP1 PUSH1 0x4 ADD PUSH2 0x5D3B JUMP JUMPDEST PUSH1 0x44 CALLDATALOAD PUSH1 0x1 PUSH1 0x1 PUSH1 0x40 SHL SUB DUP2 GT PUSH2 0x4EC JUMPI PUSH2 0x4E85 SWAP1 CALLDATASIZE SWAP1 PUSH1 0x4 ADD PUSH2 0x5DA7 JUMP JUMPDEST PUSH1 0x64 CALLDATALOAD PUSH1 0x1 PUSH1 0x1 PUSH1 0x40 SHL SUB DUP2 GT PUSH2 0x4EC JUMPI PUSH2 0x4EA4 SWAP1 CALLDATASIZE SWAP1 PUSH1 0x4 ADD PUSH2 0x5DA7 JUMP JUMPDEST PUSH1 0x84 CALLDATALOAD SWAP1 PUSH1 0xA4 CALLDATALOAD PUSH1 0x8 DUP2 LT ISZERO PUSH2 0x4EC JUMPI PUSH2 0x104 CALLDATALOAD SWAP4 PUSH2 0x4EC1 PUSH2 0x64EA JUMP JUMPDEST PUSH2 0x4EC9 PUSH2 0x64EA JUMP JUMPDEST PUSH0 SLOAD PUSH1 0x1 PUSH1 0x1 PUSH1 0xA0 SHL SUB AND CALLER EQ DUP1 ISZERO PUSH2 0x5633 JUMPI JUMPDEST ISZERO PUSH2 0xF76 JUMPI PUSH2 0xE10 DUP5 LT ISZERO DUP1 PUSH2 0x5625 JUMPI JUMPDEST ISZERO PUSH2 0xF30 JUMPI DUP7 MLOAD ISZERO PUSH2 0xEEB JUMPI DUP1 MLOAD PUSH1 0x2 DUP2 LT ISZERO SWAP1 DUP2 PUSH2 0x5619 JUMPI JUMPDEST POP ISZERO PUSH2 0xE9A JUMPI DUP1 MLOAD DUP4 MLOAD SUB PUSH2 0xE44 JUMPI PUSH9 0x56BC75E2D63100000 DUP6 LT PUSH2 0x2463 JUMPI PUSH1 0x3 SLOAD PUSH1 0x40 MLOAD PUSH4 0x23B872DD PUSH1 0xE0 SHL DUP2 MSTORE CALLER PUSH1 0x4 DUP3 ADD MSTORE ADDRESS PUSH1 0x24 DUP3 ADD MSTORE PUSH1 0x44 DUP2 ADD DUP8 SWAP1 MSTORE SWAP1 PUSH1 0x20 SWAP1 DUP3 SWAP1 PUSH1 0x8 SHR PUSH1 0x1 PUSH1 0x1 PUSH1 0xA0 SHL SUB AND DUP2 PUSH0 DUP2 PUSH1 0x64 DUP2 ADD SUB SWAP3 GAS CALL SWAP1 DUP2 ISZERO PUSH2 0xE39 JUMPI PUSH0 SWAP2 PUSH2 0x55FA JUMPI JUMPDEST POP ISZERO PUSH2 0xDC5 JUMPI PUSH1 0x6 SLOAD SWAP4 PUSH2 0x4F88 DUP6 PUSH2 0x60EF JUMP JUMPDEST PUSH1 0x6 SSTORE DUP5 PUSH0 MSTORE PUSH1 0xB PUSH1 0x20 MSTORE PUSH1 0x40 PUSH0 KECCAK256 SWAP7 DUP9 MLOAD PUSH1 0x1 PUSH1 0x1 PUSH1 0x40 SHL SUB DUP2 GT PUSH2 0xA9A JUMPI PUSH2 0x4FB2 DUP10 SLOAD PUSH2 0x5F8F JUMP JUMPDEST PUSH1 0x1F DUP2 GT PUSH2 0x55B5 JUMPI JUMPDEST POP DUP1 PUSH1 0x20 PUSH1 0x1F DUP3 GT PUSH1 0x1 EQ PUSH2 0x5552 JUMPI PUSH0 SWAP2 PUSH2 0x5547 JUMPI JUMPDEST POP DUP2 PUSH1 0x1 SHL SWAP2 PUSH0 NOT SWAP1 PUSH1 0x3 SHL SHR NOT AND OR DUP9 SSTORE JUMPDEST DUP1 MLOAD PUSH1 0x1 DUP10 ADD SWAP2 PUSH1 0x1 PUSH1 0x1 PUSH1 0x40 SHL SUB DUP3 GT PUSH2 0xA9A JUMPI PUSH2 0x5003 DUP4 SLOAD PUSH2 0x5F8F JUMP JUMPDEST PUSH1 0x1F DUP2 GT PUSH2 0x5502 JUMPI JUMPDEST POP PUSH1 0x20 SWAP1 PUSH1 0x1F DUP4 GT PUSH1 0x1 EQ PUSH2 0x54B3 JUMPI PUSH2 0x5042 SWAP5 SWAP4 SWAP3 SWAP2 PUSH0 SWAP2 DUP4 PUSH2 0xC5A JUMPI POP POP DUP2 PUSH1 0x1 SHL SWAP2 PUSH0 NOT SWAP1 PUSH1 0x3 SHL SHR NOT AND OR SWAP1 SSTORE TIMESTAMP PUSH2 0x6099 JUMP JUMPDEST PUSH1 0x2 DUP8 ADD SWAP1 DUP2 SSTORE PUSH1 0x3 DUP8 ADD DUP1 SLOAD PUSH2 0xFFFF NOT AND PUSH1 0xFF DUP6 AND OR PUSH2 0x100 OR SWAP1 SSTORE PUSH1 0x5 DUP8 ADD DUP1 SLOAD PUSH4 0x1000000 PUSH1 0x1 PUSH1 0xB8 SHL SUB NOT AND CALLER PUSH1 0x18 SHL PUSH4 0x1000000 PUSH1 0x1 PUSH1 0xB8 SHL SUB AND OR SWAP1 SSTORE TIMESTAMP PUSH1 0x8 DUP9 ADD SSTORE DUP2 MLOAD PUSH1 0x9 DUP9 ADD DUP2 SWAP1 SSTORE PUSH1 0xA DUP9 ADD DUP8 SWAP1 SSTORE SWAP1 SWAP8 SWAP1 DUP1 ISZERO PUSH2 0xC46 JUMPI PUSH2 0x50BE SWAP1 PUSH8 0xDE0B6B3A7640000 SWAP10 SWAP9 SWAP10 DIV SWAP7 DUP4 MLOAD SWAP1 PUSH2 0x60B9 JUMP JUMPDEST SWAP3 PUSH1 0xB PUSH0 SWAP10 ADD SWAP9 JUMPDEST DUP4 MLOAD DUP2 LT ISZERO PUSH2 0x53BB JUMPI PUSH2 0x50D9 DUP2 DUP6 PUSH2 0x60C3 JUMP JUMPDEST MLOAD DUP11 PUSH2 0x50E5 DUP4 DUP10 PUSH2 0x60C3 JUMP JUMPDEST MLOAD PUSH1 0x40 MLOAD SWAP3 PUSH2 0x50F3 DUP5 PUSH2 0x5CFE JUMP JUMPDEST DUP4 MSTORE PUSH1 0x20 DUP4 ADD SWAP1 DUP2 MSTORE PUSH1 0x40 DUP4 ADD PUSH0 DUP2 MSTORE PUSH1 0x60 DUP5 ADD PUSH0 DUP2 MSTORE PUSH1 0x80 DUP6 ADD SWAP1 DUP14 DUP3 MSTORE PUSH1 0xA0 DUP7 ADD SWAP3 PUSH1 0x1 DUP5 MSTORE PUSH1 0xC0 DUP8 ADD SWAP5 DUP13 DUP7 MSTORE PUSH1 0xE0 DUP9 ADD SWAP7 DUP14 DUP9 MSTORE DUP10 PUSH0 MSTORE PUSH1 0x20 MSTORE PUSH1 0x40 PUSH0 KECCAK256 SWAP8 MLOAD DUP1 MLOAD SWAP1 PUSH1 0x1 PUSH1 0x1 PUSH1 0x40 SHL SUB DUP3 GT PUSH2 0xA9A JUMPI DUP2 SWAP1 PUSH2 0x5154 DUP12 SLOAD PUSH2 0x5F8F JUMP JUMPDEST PUSH1 0x1F DUP2 GT PUSH2 0x536B JUMPI JUMPDEST POP PUSH1 0x20 SWAP1 PUSH1 0x1F DUP4 GT PUSH1 0x1 EQ PUSH2 0x5308 JUMPI PUSH0 SWAP3 PUSH2 0x52FD JUMPI JUMPDEST POP POP DUP2 PUSH1 0x1 SHL SWAP2 PUSH0 NOT SWAP1 PUSH1 0x3 SHL SHR NOT AND OR DUP9 SSTORE JUMPDEST MLOAD DUP1 MLOAD PUSH1 0x1 DUP10 ADD SWAP2 PUSH1 0x1 PUSH1 0x1 PUSH1 0x40 SHL SUB DUP3 GT PUSH2 0xA9A JUMPI PUSH2 0x51A7 DUP4 SLOAD PUSH2 0x5F8F JUMP JUMPDEST PUSH1 0x1F DUP2 GT PUSH2 0x52B8 JUMPI JUMPDEST POP PUSH1 0x20 SWAP1 PUSH1 0x1F DUP4 GT PUSH1 0x1 EQ PUSH2 0x525F JUMPI SWAP3 DUP3 PUSH2 0x5215 SWAP7 SWAP4 PUSH1 0x1 SWAP14 SWAP13 SWAP12 SWAP10 SWAP7 SWAP4 PUSH1 0x7 SWAP12 SWAP10 SWAP7 PUSH0 SWAP3 PUSH2 0x9D8 JUMPI POP POP PUSH0 NOT PUSH1 0x3 DUP4 SWAP1 SHL SHR NOT AND SWAP1 DUP14 SHL OR SWAP1 SSTORE MLOAD PUSH1 0x2 DUP10 ADD SSTORE MLOAD PUSH1 0x3 DUP9 ADD SSTORE MLOAD PUSH1 0x4 DUP8 ADD SSTORE MLOAD ISZERO ISZERO PUSH1 0x5 DUP7 ADD SWAP1 PUSH1 0xFF DUP1 NOT DUP4 SLOAD AND SWAP2 ISZERO ISZERO AND OR SWAP1 SSTORE JUMP JUMPDEST MLOAD PUSH1 0x6 DUP5 ADD SSTORE MLOAD SWAP2 ADD SSTORE DUP8 PUSH0 MSTORE PUSH1 0x10 PUSH1 0x20 MSTORE PUSH1 0x40 PUSH0 KECCAK256 DUP2 PUSH0 MSTORE PUSH1 0x20 MSTORE PUSH2 0x5259 PUSH1 0x40 PUSH0 KECCAK256 PUSH1 0x40 MLOAD SWAP1 PUSH2 0x5245 DUP3 PUSH2 0x5CE3 JUMP JUMPDEST DUP12 DUP3 MSTORE TIMESTAMP PUSH1 0x20 DUP4 ADD MSTORE PUSH0 PUSH1 0x40 DUP4 ADD MSTORE PUSH2 0x60FD JUMP JUMPDEST ADD PUSH2 0x50C6 JUMP JUMPDEST SWAP1 PUSH1 0x1F NOT DUP4 AND SWAP2 DUP5 PUSH0 MSTORE DUP2 PUSH0 KECCAK256 SWAP3 PUSH0 JUMPDEST DUP2 DUP2 LT PUSH2 0x52A0 JUMPI POP SWAP4 PUSH1 0x1 SWAP14 SWAP13 SWAP12 SWAP10 SWAP7 SWAP4 PUSH1 0x7 SWAP12 SWAP10 SWAP7 SWAP4 DUP16 SWAP4 DUP4 PUSH2 0x5215 SWAP12 SWAP9 LT PUSH2 0xA25 JUMPI POP POP POP DUP2 SHL ADD SWAP1 SSTORE PUSH2 0x964 JUMP JUMPDEST SWAP3 SWAP4 PUSH1 0x20 PUSH1 0x1 DUP2 SWAP3 DUP8 DUP7 ADD MLOAD DUP2 SSTORE ADD SWAP6 ADD SWAP4 ADD PUSH2 0x526F JUMP JUMPDEST DUP4 PUSH0 MSTORE PUSH1 0x20 PUSH0 KECCAK256 PUSH1 0x1F DUP5 ADD PUSH1 0x5 SHR DUP2 ADD SWAP2 PUSH1 0x20 DUP6 LT PUSH2 0x52F3 JUMPI JUMPDEST PUSH1 0x1F ADD PUSH1 0x5 SHR ADD SWAP1 JUMPDEST DUP2 DUP2 LT PUSH2 0x52E8 JUMPI POP PUSH2 0x51B0 JUMP JUMPDEST PUSH0 DUP2 SSTORE PUSH1 0x1 ADD PUSH2 0x52DB JUMP JUMPDEST SWAP1 SWAP2 POP DUP2 SWAP1 PUSH2 0x52D2 JUMP JUMPDEST ADD MLOAD SWAP1 POP PUSH0 DUP1 PUSH2 0x5173 JUMP JUMPDEST PUSH0 DUP13 DUP2 MSTORE DUP3 DUP2 KECCAK256 SWAP4 POP PUSH1 0x1F NOT DUP6 AND SWAP1 JUMPDEST DUP2 DUP2 LT PUSH2 0x5353 JUMPI POP SWAP1 DUP5 PUSH1 0x1 SWAP6 SWAP5 SWAP4 SWAP3 LT PUSH2 0x533B JUMPI JUMPDEST POP POP POP DUP2 SHL ADD DUP9 SSTORE PUSH2 0x5187 JUMP JUMPDEST ADD MLOAD PUSH0 NOT PUSH1 0xF8 DUP5 PUSH1 0x3 SHL AND SHR NOT AND SWAP1 SSTORE PUSH0 DUP1 DUP1 PUSH2 0x532E JUMP JUMPDEST SWAP3 SWAP4 PUSH1 0x20 PUSH1 0x1 DUP2 SWAP3 DUP8 DUP7 ADD MLOAD DUP2 SSTORE ADD SWAP6 ADD SWAP4 ADD PUSH2 0x5318 JUMP JUMPDEST SWAP1 SWAP2 POP DUP11 PUSH0 MSTORE PUSH1 0x20 PUSH0 KECCAK256 PUSH1 0x1F DUP5 ADD PUSH1 0x5 SHR DUP2 ADD SWAP2 PUSH1 0x20 DUP6 LT PUSH2 0x53B1 JUMPI JUMPDEST SWAP1 PUSH1 0x1F DUP6 SWAP5 SWAP4 SWAP3 ADD PUSH1 0x5 SHR ADD SWAP1 JUMPDEST DUP2 DUP2 LT PUSH2 0x53A3 JUMPI POP PUSH2 0x515D JUMP JUMPDEST PUSH0 DUP2 SSTORE DUP5 SWAP4 POP PUSH1 0x1 ADD PUSH2 0x5396 JUMP JUMPDEST SWAP1 SWAP2 POP DUP2 SWAP1 PUSH2 0x5388 JUMP JUMPDEST POP SWAP1 DUP6 SWAP2 DUP9 PUSH2 0x53CD DUP5 PUSH2 0xB7F DUP5 PUSH2 0x5EA2 JUMP JUMPDEST PUSH2 0x53DB DUP5 PUSH2 0xB7F PUSH1 0x1 PUSH2 0x5EB9 JUMP JUMPDEST SLOAD PUSH2 0x53F1 PUSH1 0x40 MLOAD SWAP4 PUSH1 0xC0 DUP6 MSTORE PUSH1 0xC0 DUP6 ADD SWAP1 PUSH2 0x5C50 JUMP JUMPDEST DUP4 DUP2 SUB PUSH1 0x20 DUP6 ADD MSTORE DUP6 MLOAD DUP1 DUP3 MSTORE PUSH1 0x20 DUP3 ADD SWAP2 PUSH1 0x20 DUP1 DUP4 PUSH1 0x5 SHL DUP4 ADD ADD SWAP9 ADD SWAP3 PUSH0 SWAP2 JUMPDEST DUP4 DUP4 LT PUSH2 0x5486 JUMPI DUP10 DUP10 DUP10 PUSH2 0x5431 DUP11 DUP11 PUSH1 0x40 DUP5 ADD MSTORE PUSH1 0x60 DUP4 ADD SWAP1 PUSH2 0x5E25 JUMP JUMPDEST PUSH0 MLOAD PUSH1 0x20 PUSH2 0x6903 PUSH0 CODECOPY PUSH0 MLOAD SWAP1 PUSH0 MSTORE DUP2 DUP1 PUSH1 0x20 SWAP6 PUSH1 0x1 PUSH1 0x80 DUP8 SWAP7 ADD MSTORE CALLER PUSH1 0xA0 DUP4 ADD MSTORE SUB SWAP1 LOG2 DUP1 PUSH0 MSTORE PUSH1 0xB DUP3 MSTORE PUSH1 0x14 PUSH1 0x40 PUSH0 KECCAK256 PUSH1 0xC4 CALLDATALOAD PUSH1 0x11 DUP3 ADD SSTORE PUSH1 0xE4 CALLDATALOAD PUSH1 0x12 DUP3 ADD SSTORE ADD PUSH1 0x1 PUSH1 0xFF NOT DUP3 SLOAD AND OR SWAP1 SSTORE PUSH1 0x40 MLOAD SWAP1 DUP2 MSTORE RETURN JUMPDEST SWAP1 SWAP2 SWAP3 SWAP4 SWAP9 PUSH1 0x20 DUP1 PUSH2 0x54A4 PUSH1 0x1 SWAP4 PUSH1 0x1F NOT DUP7 DUP3 SUB ADD DUP8 MSTORE DUP14 MLOAD PUSH2 0x5C50 JUMP JUMPDEST SWAP12 ADD SWAP4 ADD SWAP4 ADD SWAP2 SWAP4 SWAP3 SWAP1 PUSH2 0x5413 JUMP JUMPDEST SWAP1 PUSH1 0x1F NOT DUP4 AND SWAP2 DUP5 PUSH0 MSTORE DUP2 PUSH0 KECCAK256 SWAP3 PUSH0 JUMPDEST DUP2 DUP2 LT PUSH2 0x54EA JUMPI POP SWAP2 PUSH1 0x1 SWAP4 SWAP2 DUP6 PUSH2 0x5042 SWAP9 SWAP8 SWAP7 SWAP5 LT PUSH2 0xC9D JUMPI POP POP POP DUP2 SHL ADD SWAP1 SSTORE PUSH2 0x79B JUMP JUMPDEST SWAP3 SWAP4 PUSH1 0x20 PUSH1 0x1 DUP2 SWAP3 DUP8 DUP7 ADD MLOAD DUP2 SSTORE ADD SWAP6 ADD SWAP4 ADD PUSH2 0x54C3 JUMP JUMPDEST DUP4 PUSH0 MSTORE PUSH1 0x20 PUSH0 KECCAK256 PUSH1 0x1F DUP5 ADD PUSH1 0x5 SHR DUP2 ADD SWAP2 PUSH1 0x20 DUP6 LT PUSH2 0x553D JUMPI JUMPDEST PUSH1 0x1F ADD PUSH1 0x5 SHR ADD SWAP1 JUMPDEST DUP2 DUP2 LT PUSH2 0x5532 JUMPI POP PUSH2 0x500C JUMP JUMPDEST PUSH0 DUP2 SSTORE PUSH1 0x1 ADD PUSH2 0x5525 JUMP JUMPDEST SWAP1 SWAP2 POP DUP2 SWAP1 PUSH2 0x551C JUMP JUMPDEST SWAP1 POP DUP11 ADD MLOAD DUP12 PUSH2 0x4FD1 JUMP JUMPDEST PUSH0 DUP12 DUP2 MSTORE DUP2 DUP2 KECCAK256 SWAP3 POP PUSH1 0x1F NOT DUP5 AND SWAP1 JUMPDEST DUP14 DUP3 DUP3 LT PUSH2 0x559D JUMPI POP POP SWAP1 DUP4 PUSH1 0x1 SWAP5 SWAP4 SWAP3 LT PUSH2 0x5585 JUMPI JUMPDEST POP POP DUP2 SHL ADD DUP9 SSTORE PUSH2 0x4FE4 JUMP JUMPDEST DUP13 ADD MLOAD PUSH0 NOT PUSH1 0xF8 DUP5 PUSH1 0x3 SHL AND SHR NOT AND SWAP1 SSTORE DUP12 DUP1 PUSH2 0x5579 JUMP JUMPDEST PUSH1 0x1 DUP5 SWAP6 PUSH1 0x20 SWAP4 SWAP6 DUP5 SWAP4 ADD MLOAD DUP2 SSTORE ADD SWAP5 ADD SWAP3 ADD PUSH2 0x5562 JUMP JUMPDEST DUP10 PUSH0 MSTORE PUSH1 0x20 PUSH0 KECCAK256 PUSH1 0x1F DUP4 ADD PUSH1 0x5 SHR DUP2 ADD SWAP2 PUSH1 0x20 DUP5 LT PUSH2 0x55F0 JUMPI JUMPDEST PUSH1 0x1F ADD PUSH1 0x5 SHR ADD SWAP1 JUMPDEST DUP2 DUP2 LT PUSH2 0x55E5 JUMPI POP PUSH2 0x4FBB JUMP JUMPDEST PUSH0 DUP2 SSTORE PUSH1 0x1 ADD PUSH2 0x55D8 JUMP JUMPDEST SWAP1 SWAP2 POP DUP2 SWAP1 PUSH2 0x55CF JUMP JUMPDEST PUSH2 0x5613 SWAP2 POP PUSH1 0x20 RETURNDATASIZE PUSH1 0x20 GT PUSH2 0xE32 JUMPI PUSH2 0xE24 DUP2 DUP4 PUSH2 0x5D1A JUMP JUMPDEST DUP9 PUSH2 0x4F75 JUMP JUMPDEST PUSH1 0xA SWAP2 POP GT ISZERO DUP9 PUSH2 0x4F08 JUMP JUMPDEST POP PUSH4 0x1E13380 DUP5 GT ISZERO PUSH2 0x4EEE JUMP JUMPDEST POP CALLER PUSH0 SWAP1 DUP2 MSTORE PUSH0 MLOAD PUSH1 0x20 PUSH2 0x68E3 PUSH0 CODECOPY PUSH0 MLOAD SWAP1 PUSH0 MSTORE PUSH1 0x20 MSTORE PUSH1 0x40 SWAP1 KECCAK256 SLOAD PUSH1 0xFF AND PUSH2 0x4EDD JUMP JUMPDEST CALLVALUE PUSH2 0x4EC JUMPI PUSH1 0x20 CALLDATASIZE PUSH1 0x3 NOT ADD SLT PUSH2 0x4EC JUMPI PUSH1 0x4 CALLDATALOAD PUSH2 0x5678 PUSH1 0x6 SLOAD DUP3 LT PUSH2 0x5F4B JUMP JUMPDEST PUSH0 MSTORE PUSH1 0xB PUSH1 0x20 MSTORE PUSH1 0x40 PUSH0 KECCAK256 PUSH1 0x9 DUP2 ADD SLOAD PUSH2 0x5691 DUP2 PUSH2 0x6067 JUMP JUMPDEST SWAP1 PUSH0 SWAP3 PUSH1 0xB PUSH0 SWAP2 ADD SWAP1 JUMPDEST DUP3 DUP2 LT PUSH2 0x5708 JUMPI POP PUSH0 JUMPDEST DUP3 DUP2 LT PUSH2 0x56BA JUMPI PUSH1 0x40 MLOAD DUP1 PUSH2 0x2623 DUP7 DUP3 PUSH2 0x5C74 JUMP JUMPDEST DUP1 PUSH0 MSTORE DUP2 PUSH1 0x20 MSTORE PUSH1 0x6 PUSH1 0x40 PUSH0 KECCAK256 ADD SLOAD SWAP1 PUSH8 0xDE0B6B3A7640000 DUP3 MUL SWAP2 DUP1 DUP4 DIV PUSH8 0xDE0B6B3A7640000 EQ SWAP1 ISZERO OR ISZERO PUSH2 0x1085 JUMPI PUSH2 0x56F7 DUP7 PUSH1 0x1 SWAP4 PUSH2 0x60B9 JUMP JUMPDEST PUSH2 0x5701 DUP3 DUP8 PUSH2 0x60C3 JUMP JUMPDEST MSTORE ADD PUSH2 0x56A5 JUMP JUMPDEST SWAP4 PUSH2 0x5724 PUSH1 0x1 SWAP2 DUP7 PUSH0 MSTORE DUP4 PUSH1 0x20 MSTORE PUSH1 0x6 PUSH1 0x40 PUSH0 KECCAK256 ADD SLOAD SWAP1 PUSH2 0x6099 JUMP JUMPDEST SWAP5 ADD PUSH2 0x569B JUMP JUMPDEST CALLVALUE PUSH2 0x4EC JUMPI PUSH2 0x5739 CALLDATASIZE PUSH2 0x5C3A JUMP JUMPDEST SWAP1 PUSH0 MSTORE PUSH1 0x11 PUSH1 0x20 MSTORE PUSH1 0x40 PUSH0 KECCAK256 DUP1 SLOAD DUP3 LT ISZERO PUSH2 0x4EC JUMPI PUSH1 0x20 SWAP2 PUSH2 0x2578 SWAP2 PUSH2 0x5B84 JUMP JUMPDEST CALLVALUE PUSH2 0x4EC JUMPI PUSH1 0x20 CALLDATASIZE PUSH1 0x3 NOT ADD SLT PUSH2 0x4EC JUMPI PUSH1 0x20 PUSH2 0x2AD9 PUSH1 0x4 CALLDATALOAD PUSH0 MSTORE PUSH1 0x2 PUSH1 0x20 MSTORE PUSH1 0x1 PUSH1 0x40 PUSH0 KECCAK256 ADD SLOAD SWAP1 JUMP JUMPDEST CALLVALUE PUSH2 0x4EC JUMPI PUSH0 CALLDATASIZE PUSH1 0x3 NOT ADD SLT PUSH2 0x4EC JUMPI PUSH1 0x20 PUSH1 0x7 SLOAD PUSH1 0x40 MLOAD SWAP1 DUP2 MSTORE RETURN JUMPDEST CALLVALUE PUSH2 0x4EC JUMPI PUSH2 0x57B0 CALLDATASIZE PUSH2 0x5C3A JUMP JUMPDEST SWAP1 PUSH2 0x57BE PUSH1 0x6 SLOAD DUP3 LT PUSH2 0x5F4B JUMP JUMPDEST PUSH0 MSTORE PUSH1 0xB PUSH1 0x20 MSTORE PUSH1 0xB PUSH1 0x40 PUSH0 KECCAK256 ADD SWAP1 PUSH0 MSTORE PUSH1 0x20 MSTORE PUSH2 0x581D PUSH1 0x40 PUSH0 KECCAK256 PUSH1 0x2 DUP2 ADD SLOAD PUSH1 0x3 DUP3 ADD SLOAD PUSH1 0x4 DUP4 ADD SLOAD PUSH1 0xFF PUSH1 0x5 DUP6 ADD SLOAD AND SWAP2 PUSH2 0x582B PUSH2 0x5809 PUSH1 0x1 PUSH2 0x5802 DUP9 PUSH2 0x5FC7 JUMP JUMPDEST SWAP8 ADD PUSH2 0x5FC7 JUMP JUMPDEST PUSH1 0x40 MLOAD SWAP8 DUP9 SWAP8 PUSH1 0xC0 DUP10 MSTORE PUSH1 0xC0 DUP10 ADD SWAP1 PUSH2 0x5C50 JUMP JUMPDEST SWAP1 DUP8 DUP3 SUB PUSH1 0x20 DUP10 ADD MSTORE PUSH2 0x5C50 JUMP JUMPDEST SWAP4 PUSH1 0x40 DUP7 ADD MSTORE PUSH1 0x60 DUP6 ADD MSTORE PUSH1 0x80 DUP5 ADD MSTORE ISZERO ISZERO PUSH1 0xA0 DUP4 ADD MSTORE SUB SWAP1 RETURN JUMPDEST CALLVALUE PUSH2 0x4EC JUMPI PUSH1 0x20 CALLDATASIZE PUSH1 0x3 NOT ADD SLT PUSH2 0x4EC JUMPI PUSH2 0x585F PUSH2 0x64C4 JUMP JUMPDEST PUSH1 0x4 CALLDATALOAD PUSH1 0xA SSTORE STOP JUMPDEST CALLVALUE PUSH2 0x4EC JUMPI PUSH1 0x20 CALLDATASIZE PUSH1 0x3 NOT ADD SLT PUSH2 0x4EC JUMPI PUSH2 0x5880 PUSH2 0x5B99 JUMP JUMPDEST PUSH2 0x5888 PUSH2 0x5F21 JUMP JUMPDEST POP PUSH1 0x1 DUP1 PUSH1 0xA0 SHL SUB AND PUSH0 MSTORE PUSH1 0xD PUSH1 0x20 MSTORE PUSH1 0xA0 PUSH1 0x40 PUSH0 KECCAK256 PUSH1 0x40 MLOAD PUSH2 0x58AA DUP2 PUSH2 0x5CAD JUMP JUMPDEST DUP2 SLOAD SWAP2 DUP3 DUP3 MSTORE PUSH1 0x1 DUP2 ADD SLOAD PUSH1 0x20 DUP4 ADD SWAP1 DUP2 MSTORE PUSH1 0x2 DUP3 ADD SLOAD SWAP1 PUSH1 0x40 DUP5 ADD SWAP2 DUP3 MSTORE PUSH1 0x80 PUSH1 0x4 PUSH1 0x3 DUP6 ADD SLOAD SWAP5 PUSH1 0x60 DUP8 ADD SWAP6 DUP7 MSTORE ADD SLOAD SWAP5 ADD SWAP4 DUP5 MSTORE PUSH1 0x40 MLOAD SWAP5 DUP6 MSTORE MLOAD PUSH1 0x20 DUP6 ADD MSTORE MLOAD PUSH1 0x40 DUP5 ADD MSTORE MLOAD PUSH1 0x60 DUP4 ADD MSTORE MLOAD PUSH1 0x80 DUP3 ADD MSTORE RETURN JUMPDEST CALLVALUE PUSH2 0x4EC JUMPI PUSH2 0x590F CALLDATASIZE PUSH2 0x5C3A JUMP JUMPDEST SWAP1 PUSH0 MSTORE PUSH1 0xF PUSH1 0x20 MSTORE PUSH1 0x40 PUSH0 KECCAK256 SWAP1 DUP2 SLOAD DUP2 LT ISZERO PUSH2 0x4EC JUMPI PUSH2 0x592E SWAP2 PUSH2 0x5BC5 JUMP JUMPDEST POP DUP1 SLOAD PUSH2 0x2623 PUSH1 0x1 DUP4 ADD SLOAD SWAP3 PUSH1 0x1 DUP1 PUSH1 0xA0 SHL SUB PUSH1 0x2 DUP3 ADD SLOAD AND SWAP1 PUSH1 0x1 DUP1 PUSH1 0xA0 SHL SUB PUSH1 0x3 DUP3 ADD SLOAD AND PUSH1 0x4 DUP3 ADD SLOAD PUSH1 0x5 DUP4 ADD SLOAD SWAP2 PUSH1 0xFF PUSH1 0x7 PUSH1 0x6 DUP7 ADD SLOAD SWAP6 ADD SLOAD AND SWAP5 PUSH1 0x40 MLOAD SWAP9 DUP10 SWAP9 DUP10 PUSH2 0x5BE8 JUMP JUMPDEST CALLVALUE PUSH2 0x4EC JUMPI PUSH1 0x20 CALLDATASIZE PUSH1 0x3 NOT ADD SLT PUSH2 0x4EC JUMPI PUSH2 0x5993 PUSH2 0x5B99 JUMP JUMPDEST PUSH2 0x599B PUSH2 0x64C4 JUMP JUMPDEST PUSH1 0x1 PUSH1 0x1 PUSH1 0xA0 SHL SUB DUP2 AND SWAP1 PUSH2 0x59B1 DUP3 ISZERO ISZERO PUSH2 0x5EDD JUMP JUMPDEST PUSH1 0x3 DUP1 SLOAD PUSH1 0x4 DUP1 SLOAD PUSH1 0x1 PUSH1 0x1 PUSH1 0xA0 SHL SUB NOT AND PUSH1 0x8 DUP4 DUP2 SHR PUSH1 0x1 PUSH1 0x1 PUSH1 0xA0 SHL SUB AND SWAP2 DUP3 OR SWAP1 SWAP3 SSTORE PUSH2 0x100 PUSH1 0x1 PUSH1 0xA8 SHL SUB NOT SWAP1 SWAP3 AND SWAP4 SWAP1 SHL PUSH2 0x100 PUSH1 0x1 PUSH1 0xA8 SHL SUB AND SWAP3 SWAP1 SWAP3 OR SWAP1 SSTORE TIMESTAMP PUSH1 0x5 DUP2 SWAP1 SSTORE PUSH1 0x40 MLOAD SWAP1 DUP2 MSTORE PUSH32 0xA16C473A31F9F07338CD1D3CCEBDA80CEFDC0CB743AEC539AF892ABFBF5A534E SWAP1 PUSH1 0x20 SWAP1 LOG3 STOP JUMPDEST CALLVALUE PUSH2 0x4EC JUMPI PUSH0 CALLDATASIZE PUSH1 0x3 NOT ADD SLT PUSH2 0x4EC JUMPI PUSH1 0x20 PUSH1 0x40 MLOAD PUSH1 0x1E DUP2 MSTORE RETURN JUMPDEST CALLVALUE PUSH2 0x4EC JUMPI PUSH0 CALLDATASIZE PUSH1 0x3 NOT ADD SLT PUSH2 0x4EC JUMPI PUSH1 0x20 PUSH1 0x5 SLOAD PUSH1 0x40 MLOAD SWAP1 DUP2 MSTORE RETURN JUMPDEST CALLVALUE PUSH2 0x4EC JUMPI PUSH0 CALLDATASIZE PUSH1 0x3 NOT ADD SLT PUSH2 0x4EC JUMPI PUSH1 0x20 PUSH1 0x40 MLOAD PUSH1 0xA DUP2 MSTORE RETURN JUMPDEST CALLVALUE PUSH2 0x4EC JUMPI PUSH1 0x40 CALLDATASIZE PUSH1 0x3 NOT ADD SLT PUSH2 0x4EC JUMPI PUSH2 0x5A97 PUSH2 0x5B99 JUMP JUMPDEST PUSH1 0x1 PUSH1 0x1 PUSH1 0xA0 SHL SUB AND PUSH0 SWAP1 DUP2 MSTORE PUSH1 0xE PUSH1 0x20 MSTORE PUSH1 0x40 SWAP1 KECCAK256 DUP1 SLOAD PUSH1 0x24 CALLDATALOAD SWAP1 DUP2 LT ISZERO PUSH2 0x4EC JUMPI PUSH2 0x592E SWAP2 PUSH2 0x5BC5 JUMP JUMPDEST CALLVALUE PUSH2 0x4EC JUMPI PUSH1 0x20 CALLDATASIZE PUSH1 0x3 NOT ADD SLT PUSH2 0x4EC JUMPI PUSH1 0x4 CALLDATALOAD PUSH1 0x17 SLOAD DUP2 LT ISZERO PUSH2 0x4EC JUMPI PUSH2 0x5AEC PUSH1 0x20 SWAP2 PUSH2 0x5B58 JUMP JUMPDEST SWAP1 SLOAD PUSH1 0x40 MLOAD PUSH1 0x3 SWAP3 SWAP1 SWAP3 SHL SHR PUSH1 0x1 PUSH1 0x1 PUSH1 0xA0 SHL SUB AND DUP2 MSTORE RETURN JUMPDEST CALLVALUE PUSH2 0x4EC JUMPI PUSH1 0x20 CALLDATASIZE PUSH1 0x3 NOT ADD SLT PUSH2 0x4EC JUMPI PUSH1 0x4 CALLDATALOAD SWAP1 PUSH4 0xFFFFFFFF PUSH1 0xE0 SHL DUP3 AND DUP1 SWAP3 SUB PUSH2 0x4EC JUMPI PUSH1 0x20 SWAP2 PUSH4 0x7965DB0B PUSH1 0xE0 SHL DUP2 EQ SWAP1 DUP2 ISZERO PUSH2 0x5B47 JUMPI JUMPDEST POP ISZERO ISZERO DUP2 MSTORE RETURN JUMPDEST PUSH4 0x1FFC9A7 PUSH1 0xE0 SHL EQ SWAP1 POP DUP4 PUSH2 0x5B40 JUMP JUMPDEST PUSH1 0x17 SLOAD DUP2 LT ISZERO PUSH2 0x5B70 JUMPI PUSH1 0x17 PUSH0 MSTORE PUSH1 0x20 PUSH0 KECCAK256 ADD SWAP1 PUSH0 SWAP1 JUMP JUMPDEST PUSH4 0x4E487B71 PUSH1 0xE0 SHL PUSH0 MSTORE PUSH1 0x32 PUSH1 0x4 MSTORE PUSH1 0x24 PUSH0 REVERT JUMPDEST DUP1 SLOAD DUP3 LT ISZERO PUSH2 0x5B70 JUMPI PUSH0 MSTORE PUSH1 0x20 PUSH0 KECCAK256 ADD SWAP1 PUSH0 SWAP1 JUMP JUMPDEST PUSH1 0x4 CALLDATALOAD SWAP1 PUSH1 0x1 PUSH1 0x1 PUSH1 0xA0 SHL SUB DUP3 AND DUP3 SUB PUSH2 0x4EC JUMPI JUMP JUMPDEST PUSH1 0x24 CALLDATALOAD SWAP1 PUSH1 0x1 PUSH1 0x1 PUSH1 0xA0 SHL SUB DUP3 AND DUP3 SUB PUSH2 0x4EC JUMPI JUMP JUMPDEST DUP1 SLOAD DUP3 LT ISZERO PUSH2 0x5B70 JUMPI PUSH0 MSTORE PUSH1 0x20 PUSH0 KECCAK256 SWAP1 PUSH1 0x3 SHL ADD SWAP1 PUSH0 SWAP1 JUMP JUMPDEST PUSH1 0x2 GT ISZERO PUSH2 0x229C JUMPI JUMP JUMPDEST SWAP1 DUP2 MSTORE PUSH1 0x20 DUP2 ADD SWAP2 SWAP1 SWAP2 MSTORE PUSH1 0x1 PUSH1 0x1 PUSH1 0xA0 SHL SUB SWAP2 DUP3 AND PUSH1 0x40 DUP3 ADD MSTORE SWAP2 AND PUSH1 0x60 DUP3 ADD MSTORE PUSH1 0x80 DUP2 ADD SWAP2 SWAP1 SWAP2 MSTORE PUSH1 0xA0 DUP2 ADD SWAP2 SWAP1 SWAP2 MSTORE PUSH1 0xC0 DUP2 ADD SWAP2 SWAP1 SWAP2 MSTORE PUSH2 0x100 DUP2 ADD SWAP3 SWAP2 SWAP1 PUSH1 0xE0 SWAP1 PUSH2 0x5C36 DUP4 PUSH2 0x5BDE JUMP JUMPDEST ADD MSTORE JUMP JUMPDEST PUSH1 0x40 SWAP1 PUSH1 0x3 NOT ADD SLT PUSH2 0x4EC JUMPI PUSH1 0x4 CALLDATALOAD SWAP1 PUSH1 0x24 CALLDATALOAD SWAP1 JUMP JUMPDEST DUP1 MLOAD DUP1 DUP4 MSTORE PUSH1 0x20 SWAP3 SWAP2 DUP2 SWAP1 DUP5 ADD DUP5 DUP5 ADD MCOPY PUSH0 DUP3 DUP3 ADD DUP5 ADD MSTORE PUSH1 0x1F ADD PUSH1 0x1F NOT AND ADD ADD SWAP1 JUMP JUMPDEST PUSH1 0x20 PUSH1 0x40 DUP2 DUP4 ADD SWAP3 DUP3 DUP2 MSTORE DUP5 MLOAD DUP1 SWAP5 MSTORE ADD SWAP3 ADD SWAP1 PUSH0 JUMPDEST DUP2 DUP2 LT PUSH2 0x5C97 JUMPI POP POP POP SWAP1 JUMP JUMPDEST DUP3 MLOAD DUP5 MSTORE PUSH1 0x20 SWAP4 DUP5 ADD SWAP4 SWAP1 SWAP3 ADD SWAP2 PUSH1 0x1 ADD PUSH2 0x5C8A JUMP JUMPDEST PUSH1 0xA0 DUP2 ADD SWAP1 DUP2 LT PUSH1 0x1 PUSH1 0x1 PUSH1 0x40 SHL SUB DUP3 GT OR PUSH2 0xA9A JUMPI PUSH1 0x40 MSTORE JUMP JUMPDEST PUSH1 0xC0 DUP2 ADD SWAP1 DUP2 LT PUSH1 0x1 PUSH1 0x1 PUSH1 0x40 SHL SUB DUP3 GT OR PUSH2 0xA9A JUMPI PUSH1 0x40 MSTORE JUMP JUMPDEST PUSH1 0x60 DUP2 ADD SWAP1 DUP2 LT PUSH1 0x1 PUSH1 0x1 PUSH1 0x40 SHL SUB DUP3 GT OR PUSH2 0xA9A JUMPI PUSH1 0x40 MSTORE JUMP JUMPDEST PUSH2 0x100 DUP2 ADD SWAP1 DUP2 LT PUSH1 0x1 PUSH1 0x1 PUSH1 0x40 SHL SUB DUP3 GT OR PUSH2 0xA9A JUMPI PUSH1 0x40 MSTORE JUMP JUMPDEST SWAP1 PUSH1 0x1F DUP1 NOT SWAP2 ADD AND DUP2 ADD SWAP1 DUP2 LT PUSH1 0x1 PUSH1 0x1 PUSH1 0x40 SHL SUB DUP3 GT OR PUSH2 0xA9A JUMPI PUSH1 0x40 MSTORE JUMP JUMPDEST DUP2 PUSH1 0x1F DUP3 ADD SLT ISZERO PUSH2 0x4EC JUMPI DUP1 CALLDATALOAD SWAP1 PUSH1 0x1 PUSH1 0x1 PUSH1 0x40 SHL SUB DUP3 GT PUSH2 0xA9A JUMPI PUSH1 0x40 MLOAD SWAP3 PUSH2 0x5D6F PUSH1 0x1F DUP5 ADD PUSH1 0x1F NOT AND PUSH1 0x20 ADD DUP6 PUSH2 0x5D1A JUMP JUMPDEST DUP3 DUP5 MSTORE PUSH1 0x20 DUP4 DUP4 ADD ADD GT PUSH2 0x4EC JUMPI DUP2 PUSH0 SWAP3 PUSH1 0x20 DUP1 SWAP4 ADD DUP4 DUP7 ADD CALLDATACOPY DUP4 ADD ADD MSTORE SWAP1 JUMP JUMPDEST PUSH1 0x1 PUSH1 0x1 PUSH1 0x40 SHL SUB DUP2 GT PUSH2 0xA9A JUMPI PUSH1 0x5 SHL PUSH1 0x20 ADD SWAP1 JUMP JUMPDEST SWAP1 DUP1 PUSH1 0x1F DUP4 ADD SLT ISZERO PUSH2 0x4EC JUMPI DUP2 CALLDATALOAD PUSH2 0x5DBE DUP2 PUSH2 0x5D90 JUMP JUMPDEST SWAP3 PUSH2 0x5DCC PUSH1 0x40 MLOAD SWAP5 DUP6 PUSH2 0x5D1A JUMP JUMPDEST DUP2 DUP5 MSTORE PUSH1 0x20 DUP1 DUP6 ADD SWAP3 PUSH1 0x5 SHL DUP3 ADD ADD SWAP2 DUP4 DUP4 GT PUSH2 0x4EC JUMPI PUSH1 0x20 DUP3 ADD SWAP1 JUMPDEST DUP4 DUP3 LT PUSH2 0x5DF8 JUMPI POP POP POP POP POP SWAP1 JUMP JUMPDEST DUP2 CALLDATALOAD PUSH1 0x1 PUSH1 0x1 PUSH1 0x40 SHL SUB DUP2 GT PUSH2 0x4EC JUMPI PUSH1 0x20 SWAP2 PUSH2 0x5E1A DUP8 DUP5 DUP1 SWAP5 DUP9 ADD ADD PUSH2 0x5D3B JUMP JUMPDEST DUP2 MSTORE ADD SWAP2 ADD SWAP1 PUSH2 0x5DE9 JUMP JUMPDEST SWAP1 PUSH1 0x8 DUP3 LT ISZERO PUSH2 0x229C JUMPI MSTORE JUMP JUMPDEST PUSH1 0x80 SWAP1 PUSH1 0x3 NOT ADD SLT PUSH2 0x4EC JUMPI PUSH1 0x4 CALLDATALOAD SWAP1 PUSH1 0x24 CALLDATALOAD SWAP1 PUSH1 0x44 CALLDATALOAD SWAP1 PUSH1 0x64 CALLDATALOAD SWAP1 JUMP JUMPDEST PUSH1 0x60 SWAP1 PUSH1 0x3 NOT ADD SLT PUSH2 0x4EC JUMPI PUSH1 0x4 CALLDATALOAD SWAP1 PUSH1 0x24 CALLDATALOAD SWAP1 PUSH1 0x44 CALLDATALOAD SWAP1 JUMP JUMPDEST DUP1 SLOAD DUP3 LT ISZERO PUSH2 0x5B70 JUMPI PUSH0 MSTORE PUSH1 0x3 PUSH1 0x20 PUSH0 KECCAK256 SWAP2 MUL ADD SWAP1 PUSH0 SWAP1 JUMP JUMPDEST PUSH1 0x40 SWAP1 PUSH1 0x3 NOT ADD SLT PUSH2 0x4EC JUMPI PUSH1 0x4 CALLDATALOAD PUSH1 0x8 DUP2 LT ISZERO PUSH2 0x4EC JUMPI SWAP1 PUSH1 0x24 CALLDATALOAD SWAP1 JUMP JUMPDEST PUSH1 0x8 DUP2 LT ISZERO PUSH2 0x229C JUMPI PUSH0 MSTORE PUSH1 0x13 PUSH1 0x20 MSTORE PUSH1 0x40 PUSH0 KECCAK256 SWAP1 JUMP JUMPDEST PUSH1 0x3 DUP2 LT ISZERO PUSH2 0x229C JUMPI PUSH0 MSTORE PUSH1 0x15 PUSH1 0x20 MSTORE PUSH1 0x40 PUSH0 KECCAK256 SWAP1 JUMP JUMPDEST SWAP1 PUSH1 0x3 DUP3 LT ISZERO PUSH2 0x229C JUMPI MSTORE JUMP JUMPDEST ISZERO PUSH2 0x5EE4 JUMPI JUMP JUMPDEST PUSH1 0x40 MLOAD PUSH3 0x461BCD PUSH1 0xE5 SHL DUP2 MSTORE PUSH1 0x20 PUSH1 0x4 DUP3 ADD MSTORE PUSH1 0x15 PUSH1 0x24 DUP3 ADD MSTORE PUSH21 0x496E76616C696420746F6B656E2061646472657373 PUSH1 0x58 SHL PUSH1 0x44 DUP3 ADD MSTORE PUSH1 0x64 SWAP1 REVERT JUMPDEST PUSH1 0x40 MLOAD SWAP1 PUSH2 0x5F2E DUP3 PUSH2 0x5CAD JUMP JUMPDEST PUSH0 PUSH1 0x80 DUP4 DUP3 DUP2 MSTORE DUP3 PUSH1 0x20 DUP3 ADD MSTORE DUP3 PUSH1 0x40 DUP3 ADD MSTORE DUP3 PUSH1 0x60 DUP3 ADD MSTORE ADD MSTORE JUMP JUMPDEST ISZERO PUSH2 0x5F52 JUMPI JUMP JUMPDEST PUSH1 0x40 MLOAD PUSH3 0x461BCD PUSH1 0xE5 SHL DUP2 MSTORE PUSH1 0x20 PUSH1 0x4 DUP3 ADD MSTORE PUSH1 0x15 PUSH1 0x24 DUP3 ADD MSTORE PUSH21 0x13585C9AD95D08191BD95CC81B9BDD08195E1A5CDD PUSH1 0x5A SHL PUSH1 0x44 DUP3 ADD MSTORE PUSH1 0x64 SWAP1 REVERT JUMPDEST SWAP1 PUSH1 0x1 DUP3 DUP2 SHR SWAP3 AND DUP1 ISZERO PUSH2 0x5FBD JUMPI JUMPDEST PUSH1 0x20 DUP4 LT EQ PUSH2 0x5FA9 JUMPI JUMP JUMPDEST PUSH4 0x4E487B71 PUSH1 0xE0 SHL PUSH0 MSTORE PUSH1 0x22 PUSH1 0x4 MSTORE PUSH1 0x24 PUSH0 REVERT JUMPDEST SWAP2 PUSH1 0x7F AND SWAP2 PUSH2 0x5F9E JUMP JUMPDEST SWAP1 PUSH1 0x40 MLOAD SWAP2 DUP3 PUSH0 DUP3 SLOAD SWAP3 PUSH2 0x5FDA DUP5 PUSH2 0x5F8F JUMP JUMPDEST DUP1 DUP5 MSTORE SWAP4 PUSH1 0x1 DUP2 AND SWAP1 DUP2 ISZERO PUSH2 0x6045 JUMPI POP PUSH1 0x1 EQ PUSH2 0x6001 JUMPI JUMPDEST POP PUSH2 0x5FFF SWAP3 POP SUB DUP4 PUSH2 0x5D1A JUMP JUMPDEST JUMP JUMPDEST SWAP1 POP PUSH0 SWAP3 SWAP2 SWAP3 MSTORE PUSH1 0x20 PUSH0 KECCAK256 SWAP1 PUSH0 SWAP2 JUMPDEST DUP2 DUP4 LT PUSH2 0x6029 JUMPI POP POP SWAP1 PUSH1 0x20 PUSH2 0x5FFF SWAP3 DUP3 ADD ADD PUSH0 PUSH2 0x5FF2 JUMP JUMPDEST PUSH1 0x20 SWAP2 SWAP4 POP DUP1 PUSH1 0x1 SWAP2 SLOAD DUP4 DUP6 DUP10 ADD ADD MSTORE ADD SWAP2 ADD SWAP1 SWAP2 DUP5 SWAP3 PUSH2 0x6010 JUMP JUMPDEST SWAP1 POP PUSH1 0x20 SWAP3 POP PUSH2 0x5FFF SWAP5 SWAP2 POP PUSH1 0xFF NOT AND DUP3 DUP5 ADD MSTORE ISZERO ISZERO PUSH1 0x5 SHL DUP3 ADD ADD PUSH0 PUSH2 0x5FF2 JUMP JUMPDEST SWAP1 PUSH2 0x6071 DUP3 PUSH2 0x5D90 JUMP JUMPDEST PUSH2 0x607E PUSH1 0x40 MLOAD SWAP2 DUP3 PUSH2 0x5D1A JUMP JUMPDEST DUP3 DUP2 MSTORE DUP1 SWAP3 PUSH2 0x608F PUSH1 0x1F NOT SWAP2 PUSH2 0x5D90 JUMP JUMPDEST ADD SWAP1 PUSH1 0x20 CALLDATASIZE SWAP2 ADD CALLDATACOPY JUMP JUMPDEST SWAP2 SWAP1 DUP3 ADD DUP1 SWAP3 GT PUSH2 0x1085 JUMPI JUMP JUMPDEST DUP2 DUP2 MUL SWAP3 SWAP2 DUP2 ISZERO SWAP2 DUP5 DIV EQ OR ISZERO PUSH2 0x1085 JUMPI JUMP JUMPDEST DUP2 ISZERO PUSH2 0xC46 JUMPI DIV SWAP1 JUMP JUMPDEST DUP1 MLOAD DUP3 LT ISZERO PUSH2 0x5B70 JUMPI PUSH1 0x20 SWAP2 PUSH1 0x5 SHL ADD ADD SWAP1 JUMP JUMPDEST SWAP1 DUP2 PUSH1 0x20 SWAP2 SUB SLT PUSH2 0x4EC JUMPI MLOAD DUP1 ISZERO ISZERO DUP2 SUB PUSH2 0x4EC JUMPI SWAP1 JUMP JUMPDEST PUSH0 NOT DUP2 EQ PUSH2 0x1085 JUMPI PUSH1 0x1 ADD SWAP1 JUMP JUMPDEST DUP1 SLOAD PUSH1 0x1 PUSH1 0x40 SHL DUP2 LT ISZERO PUSH2 0xA9A JUMPI PUSH2 0x611A SWAP2 PUSH1 0x1 DUP3 ADD DUP2 SSTORE PUSH2 0x5E6A JUMP JUMPDEST SWAP2 SWAP1 SWAP2 PUSH2 0x613B JUMPI PUSH1 0x40 DUP2 PUSH1 0x2 SWAP3 MLOAD DUP5 SSTORE PUSH1 0x20 DUP2 ADD MLOAD PUSH1 0x1 DUP6 ADD SSTORE ADD MLOAD SWAP2 ADD SSTORE JUMP JUMPDEST PUSH4 0x4E487B71 PUSH1 0xE0 SHL PUSH0 MSTORE PUSH0 PUSH1 0x4 MSTORE PUSH1 0x24 PUSH0 REVERT JUMPDEST DUP1 SLOAD PUSH1 0x1 PUSH1 0x40 SHL DUP2 LT ISZERO PUSH2 0xA9A JUMPI PUSH2 0x616B SWAP2 PUSH1 0x1 DUP3 ADD DUP2 SSTORE PUSH2 0x5B84 JUMP JUMPDEST DUP2 SWAP3 SWAP2 SLOAD SWAP1 PUSH1 0x3 SHL SWAP2 DUP3 SHL SWAP2 PUSH0 NOT SWAP1 SHL NOT AND OR SWAP1 SSTORE JUMP JUMPDEST SWAP2 SWAP1 DUP3 SUB SWAP2 DUP3 GT PUSH2 0x1085 JUMPI JUMP JUMPDEST ISZERO PUSH2 0x6196 JUMPI JUMP JUMPDEST PUSH1 0x40 MLOAD PUSH3 0x461BCD PUSH1 0xE5 SHL DUP2 MSTORE PUSH1 0x20 PUSH1 0x4 DUP3 ADD MSTORE PUSH1 0x10 PUSH1 0x24 DUP3 ADD MSTORE PUSH16 0x13585C9AD95D081A185CC8195B991959 PUSH1 0x82 SHL PUSH1 0x44 DUP3 ADD MSTORE PUSH1 0x64 SWAP1 REVERT JUMPDEST ISZERO PUSH2 0x61D5 JUMPI JUMP JUMPDEST PUSH1 0x40 MLOAD PUSH3 0x461BCD PUSH1 0xE5 SHL DUP2 MSTORE PUSH1 0x20 PUSH1 0x4 DUP3 ADD MSTORE PUSH1 0x17 PUSH1 0x24 DUP3 ADD MSTORE PUSH32 0x4D61726B657420616C7265616479207265736F6C766564000000000000000000 PUSH1 0x44 DUP3 ADD MSTORE PUSH1 0x64 SWAP1 REVERT JUMPDEST ISZERO PUSH2 0x6221 JUMPI JUMP JUMPDEST PUSH1 0x40 MLOAD PUSH3 0x461BCD PUSH1 0xE5 SHL DUP2 MSTORE PUSH1 0x20 PUSH1 0x4 DUP3 ADD MSTORE PUSH1 0xE PUSH1 0x24 DUP3 ADD MSTORE PUSH14 0x24B73B30B634B21037B83A34B7B7 PUSH1 0x91 SHL PUSH1 0x44 DUP3 ADD MSTORE PUSH1 0x64 SWAP1 REVERT JUMPDEST ISZERO PUSH2 0x625E JUMPI JUMP JUMPDEST PUSH1 0x40 MLOAD PUSH3 0x461BCD PUSH1 0xE5 SHL DUP2 MSTORE PUSH1 0x20 PUSH1 0x4 DUP3 ADD MSTORE PUSH1 0x11 PUSH1 0x24 DUP3 ADD MSTORE PUSH17 0x4F7074696F6E206E6F7420616374697665 PUSH1 0x78 SHL PUSH1 0x44 DUP3 ADD MSTORE PUSH1 0x64 SWAP1 REVERT JUMPDEST ISZERO PUSH2 0x629E JUMPI JUMP JUMPDEST PUSH1 0x40 MLOAD PUSH3 0x461BCD PUSH1 0xE5 SHL DUP2 MSTORE PUSH1 0x20 PUSH1 0x4 DUP3 ADD MSTORE PUSH1 0x19 PUSH1 0x24 DUP3 ADD MSTORE PUSH32 0x5175616E74697479206D75737420626520706F73697469766500000000000000 PUSH1 0x44 DUP3 ADD MSTORE PUSH1 0x64 SWAP1 REVERT JUMPDEST ISZERO PUSH2 0x62EA JUMPI JUMP JUMPDEST PUSH1 0x40 MLOAD PUSH3 0x461BCD PUSH1 0xE5 SHL DUP2 MSTORE PUSH1 0x20 PUSH1 0x4 DUP3 ADD MSTORE PUSH1 0x13 PUSH1 0x24 DUP3 ADD MSTORE PUSH19 0x496E73756666696369656E7420736861726573 PUSH1 0x68 SHL PUSH1 0x44 DUP3 ADD MSTORE PUSH1 0x64 SWAP1 REVERT JUMPDEST DUP1 SLOAD PUSH1 0x1 PUSH1 0x40 SHL DUP2 LT ISZERO PUSH2 0xA9A JUMPI PUSH2 0x6342 SWAP2 PUSH1 0x1 DUP3 ADD DUP2 SSTORE PUSH2 0x5BC5 JUMP JUMPDEST PUSH2 0x613B JUMPI DUP2 MLOAD DUP2 SSTORE PUSH1 0x20 DUP3 ADD MLOAD PUSH1 0x1 DUP3 ADD SSTORE PUSH1 0x40 DUP3 ADD MLOAD PUSH1 0x2 DUP3 ADD DUP1 SLOAD PUSH1 0x1 PUSH1 0x1 PUSH1 0xA0 SHL SUB SWAP3 DUP4 AND PUSH1 0x1 PUSH1 0x1 PUSH1 0xA0 SHL SUB NOT SWAP2 DUP3 AND OR SWAP1 SWAP2 SSTORE PUSH1 0x60 DUP5 ADD MLOAD PUSH1 0x3 DUP5 ADD DUP1 SLOAD SWAP2 SWAP1 SWAP4 AND SWAP2 AND OR SWAP1 SSTORE PUSH1 0x80 DUP3 ADD MLOAD PUSH1 0x4 DUP3 ADD SSTORE PUSH1 0xA0 DUP3 ADD MLOAD PUSH1 0x5 DUP3 ADD SSTORE PUSH1 0xC0 DUP3 ADD MLOAD PUSH1 0x6 DUP3 ADD SSTORE PUSH1 0xE0 SWAP1 SWAP2 ADD MLOAD PUSH1 0x7 SWAP1 SWAP2 ADD SWAP1 PUSH2 0x63C1 DUP2 PUSH2 0x5BDE JUMP JUMPDEST PUSH2 0x63CA DUP2 PUSH2 0x5BDE JUMP JUMPDEST PUSH1 0xFF DUP1 NOT DUP4 SLOAD AND SWAP2 AND OR SWAP1 SSTORE JUMP JUMPDEST ISZERO PUSH2 0x63DF JUMPI JUMP JUMPDEST PUSH1 0x40 MLOAD PUSH3 0x461BCD PUSH1 0xE5 SHL DUP2 MSTORE PUSH1 0x20 PUSH1 0x4 DUP3 ADD MSTORE PUSH1 0xF PUSH1 0x24 DUP3 ADD MSTORE PUSH15 0x151C985B9CD9995C8819985A5B1959 PUSH1 0x8A SHL PUSH1 0x44 DUP3 ADD MSTORE PUSH1 0x64 SWAP1 REVERT JUMPDEST ISZERO PUSH2 0x641D JUMPI JUMP JUMPDEST PUSH1 0x40 MLOAD PUSH3 0x461BCD PUSH1 0xE5 SHL DUP2 MSTORE PUSH1 0x20 PUSH1 0x4 DUP3 ADD MSTORE PUSH1 0x17 PUSH1 0x24 DUP3 ADD MSTORE PUSH32 0x416D6F756E74206D75737420626520706F736974697665000000000000000000 PUSH1 0x44 DUP3 ADD MSTORE PUSH1 0x64 SWAP1 REVERT JUMPDEST PUSH1 0x17 SLOAD PUSH1 0x1 PUSH1 0x40 SHL DUP2 LT ISZERO PUSH2 0xA9A JUMPI DUP1 PUSH1 0x1 PUSH2 0x6483 SWAP3 ADD PUSH1 0x17 SSTORE PUSH1 0x17 PUSH2 0x5B84 JUMP JUMPDEST DUP2 SLOAD PUSH1 0x1 PUSH1 0x1 PUSH1 0xA0 SHL SUB SWAP4 DUP5 AND PUSH1 0x3 SWAP3 SWAP1 SWAP3 SHL SWAP2 DUP3 SHL SWAP4 SWAP1 SWAP2 SHL NOT AND SWAP2 SWAP1 SWAP2 OR SWAP1 SSTORE JUMP JUMPDEST DUP1 SLOAD PUSH1 0x1 PUSH1 0x40 SHL DUP2 LT ISZERO PUSH2 0xA9A JUMPI PUSH2 0x6483 SWAP2 PUSH1 0x1 DUP3 ADD DUP2 SSTORE PUSH2 0x5B84 JUMP JUMPDEST PUSH0 SLOAD PUSH1 0x1 PUSH1 0x1 PUSH1 0xA0 SHL SUB AND CALLER SUB PUSH2 0x64D7 JUMPI JUMP JUMPDEST PUSH4 0x118CDAA7 PUSH1 0xE0 SHL PUSH0 MSTORE CALLER PUSH1 0x4 MSTORE PUSH1 0x24 PUSH0 REVERT JUMPDEST PUSH1 0xFF PUSH1 0x3 SLOAD AND PUSH2 0x64F6 JUMPI JUMP JUMPDEST PUSH4 0xD93C0665 PUSH1 0xE0 SHL PUSH0 MSTORE PUSH1 0x4 PUSH0 REVERT JUMPDEST PUSH0 DUP2 DUP2 MSTORE PUSH1 0x2 PUSH1 0x20 SWAP1 DUP2 MSTORE PUSH1 0x40 DUP1 DUP4 KECCAK256 CALLER DUP5 MSTORE SWAP1 SWAP2 MSTORE SWAP1 KECCAK256 SLOAD PUSH1 0xFF AND ISZERO PUSH2 0x6529 JUMPI POP JUMP JUMPDEST PUSH4 0xE2517D3F PUSH1 0xE0 SHL PUSH0 MSTORE CALLER PUSH1 0x4 MSTORE PUSH1 0x24 MSTORE PUSH1 0x44 PUSH0 REVERT JUMPDEST PUSH1 0x1 PUSH1 0x1 PUSH1 0xA0 SHL SUB DUP2 AND PUSH0 SWAP1 DUP2 MSTORE PUSH32 0x8E2C297E756B2A427C5DC4607F639842A8EA6E0F6322302F4EA76306B642CFC2 PUSH1 0x20 MSTORE PUSH1 0x40 SWAP1 KECCAK256 SLOAD PUSH1 0xFF AND PUSH2 0x65F8 JUMPI PUSH1 0x1 PUSH1 0x1 PUSH1 0xA0 SHL SUB AND PUSH0 DUP2 DUP2 MSTORE PUSH32 0x8E2C297E756B2A427C5DC4607F639842A8EA6E0F6322302F4EA76306B642CFC2 PUSH1 0x20 MSTORE PUSH1 0x40 DUP2 KECCAK256 DUP1 SLOAD PUSH1 0xFF NOT AND PUSH1 0x1 OR SWAP1 SSTORE CALLER SWAP2 SWAP1 PUSH32 0xDCEE1D35C83A32B436264A5C9AFD68685C124F3F9097E87804C55410E67FC59A SWAP1 PUSH0 MLOAD PUSH1 0x20 PUSH2 0x68C3 PUSH0 CODECOPY PUSH0 MLOAD SWAP1 PUSH0 MSTORE SWAP1 DUP1 LOG4 PUSH1 0x1 SWAP1 JUMP JUMPDEST POP PUSH0 SWAP1 JUMP JUMPDEST PUSH1 0x1 PUSH1 0x1 PUSH1 0xA0 SHL SUB DUP2 AND PUSH0 SWAP1 DUP2 MSTORE PUSH0 MLOAD PUSH1 0x20 PUSH2 0x68E3 PUSH0 CODECOPY PUSH0 MLOAD SWAP1 PUSH0 MSTORE PUSH1 0x20 MSTORE PUSH1 0x40 SWAP1 KECCAK256 SLOAD PUSH1 0xFF AND PUSH2 0x65F8 JUMPI PUSH1 0x1 PUSH1 0x1 PUSH1 0xA0 SHL SUB AND PUSH0 DUP2 DUP2 MSTORE PUSH0 MLOAD PUSH1 0x20 PUSH2 0x68E3 PUSH0 CODECOPY PUSH0 MLOAD SWAP1 PUSH0 MSTORE PUSH1 0x20 MSTORE PUSH1 0x40 DUP2 KECCAK256 DUP1 SLOAD PUSH1 0xFF NOT AND PUSH1 0x1 OR SWAP1 SSTORE CALLER SWAP2 SWAP1 PUSH32 0xEF485BE696BBC0C91AD541BBD553FFB5BD0E18DAC30BA76E992DDA23CB807A8A SWAP1 PUSH0 MLOAD PUSH1 0x20 PUSH2 0x68C3 PUSH0 CODECOPY PUSH0 MLOAD SWAP1 PUSH0 MSTORE SWAP1 DUP1 LOG4 PUSH1 0x1 SWAP1 JUMP JUMPDEST PUSH1 0x1 PUSH1 0x1 PUSH1 0xA0 SHL SUB DUP2 AND PUSH0 SWAP1 DUP2 MSTORE PUSH32 0xD3DCCF8D8289B9DEEE17E361620D7577DE7B525DD57F668D5C1BB85EC53112B5 PUSH1 0x20 MSTORE PUSH1 0x40 SWAP1 KECCAK256 SLOAD PUSH1 0xFF AND PUSH2 0x65F8 JUMPI PUSH1 0x1 PUSH1 0x1 PUSH1 0xA0 SHL SUB AND PUSH0 DUP2 DUP2 MSTORE PUSH32 0xD3DCCF8D8289B9DEEE17E361620D7577DE7B525DD57F668D5C1BB85EC53112B5 PUSH1 0x20 MSTORE PUSH1 0x40 DUP2 KECCAK256 DUP1 SLOAD PUSH1 0xFF NOT AND PUSH1 0x1 OR SWAP1 SSTORE CALLER SWAP2 SWAP1 PUSH32 0xD486618B282CB35034D59C30C062B5B3822D6CDF87EC459191CE7F5B7B8A4873 SWAP1 PUSH0 MLOAD PUSH1 0x20 PUSH2 0x68C3 PUSH0 CODECOPY PUSH0 MLOAD SWAP1 PUSH0 MSTORE SWAP1 DUP1 LOG4 PUSH1 0x1 SWAP1 JUMP JUMPDEST PUSH0 DUP2 DUP2 MSTORE PUSH1 0x2 PUSH1 0x20 SWAP1 DUP2 MSTORE PUSH1 0x40 DUP1 DUP4 KECCAK256 PUSH1 0x1 PUSH1 0x1 PUSH1 0xA0 SHL SUB DUP7 AND DUP5 MSTORE SWAP1 SWAP2 MSTORE SWAP1 KECCAK256 SLOAD PUSH1 0xFF AND PUSH2 0x67BC JUMPI PUSH0 DUP2 DUP2 MSTORE PUSH1 0x2 PUSH1 0x20 SWAP1 DUP2 MSTORE PUSH1 0x40 DUP1 DUP4 KECCAK256 PUSH1 0x1 PUSH1 0x1 PUSH1 0xA0 SHL SUB SWAP6 SWAP1 SWAP6 AND DUP1 DUP5 MSTORE SWAP5 SWAP1 SWAP2 MSTORE DUP2 KECCAK256 DUP1 SLOAD PUSH1 0xFF NOT AND PUSH1 0x1 OR SWAP1 SSTORE CALLER SWAP3 SWAP2 SWAP1 PUSH0 MLOAD PUSH1 0x20 PUSH2 0x68C3 PUSH0 CODECOPY PUSH0 MLOAD SWAP1 PUSH0 MSTORE SWAP1 DUP1 LOG4 PUSH1 0x1 SWAP1 JUMP JUMPDEST POP POP PUSH0 SWAP1 JUMP JUMPDEST PUSH0 DUP2 DUP2 MSTORE PUSH1 0x2 PUSH1 0x20 SWAP1 DUP2 MSTORE PUSH1 0x40 DUP1 DUP4 KECCAK256 PUSH1 0x1 PUSH1 0x1 PUSH1 0xA0 SHL SUB DUP7 AND DUP5 MSTORE SWAP1 SWAP2 MSTORE SWAP1 KECCAK256 SLOAD PUSH1 0xFF AND ISZERO PUSH2 0x67BC JUMPI PUSH0 DUP2 DUP2 MSTORE PUSH1 0x2 PUSH1 0x20 SWAP1 DUP2 MSTORE PUSH1 0x40 DUP1 DUP4 KECCAK256 PUSH1 0x1 PUSH1 0x1 PUSH1 0xA0 SHL SUB SWAP6 SWAP1 SWAP6 AND DUP1 DUP5 MSTORE SWAP5 SWAP1 SWAP2 MSTORE DUP2 KECCAK256 DUP1 SLOAD PUSH1 0xFF NOT AND SWAP1 SSTORE CALLER SWAP3 SWAP2 SWAP1 PUSH32 0xF6391F5C32D9C69D2A47EA670B442974B53935D1EDC7FD64EB21E047A839171B SWAP1 DUP1 LOG4 PUSH1 0x1 SWAP1 JUMP JUMPDEST PUSH1 0x2 PUSH1 0x1 SLOAD EQ PUSH2 0x6857 JUMPI PUSH1 0x2 PUSH1 0x1 SSTORE JUMP JUMPDEST PUSH4 0x3EE5AEB5 PUSH1 0xE0 SHL PUSH0 MSTORE PUSH1 0x4 PUSH0 REVERT JUMPDEST SWAP1 PUSH0 MSTORE PUSH1 0xB PUSH1 0x20 MSTORE PUSH1 0x40 PUSH0 KECCAK256 SWAP1 PUSH0 SWAP1 PUSH1 0xC PUSH1 0x9 DUP5 ADD SLOAD SWAP4 ADD SWAP2 JUMPDEST DUP4 DUP2 LT PUSH2 0x6890 JUMPI POP POP POP POP PUSH1 0x1 SWAP1 JUMP JUMPDEST PUSH1 0x1 DUP1 PUSH1 0xA0 SHL SUB DUP3 AND PUSH0 MSTORE DUP3 PUSH1 0x20 MSTORE PUSH1 0x40 PUSH0 KECCAK256 DUP2 PUSH0 MSTORE PUSH1 0x20 MSTORE PUSH1 0x40 PUSH0 KECCAK256 SLOAD PUSH2 0x68BA JUMPI PUSH1 0x1 ADD PUSH2 0x6880 JUMP JUMPDEST POP POP POP POP PUSH0 SWAP1 JUMP INVALID 0x2F DUP8 DUP9 GT PUSH31 0x7EFF1D82E926EC794901D17C78024A50270940304540A733656F0D30D99551 DUP12 TIMESTAMP PUSH32 0x5A5863AD73FE356CA50CF70941F42C516830919C845FA5806F74BF668E97161F 0x1F 0xD8 0xF 0xCD 0x26 RETURN BLOBHASH 0xD4 AND SWAP10 0xF7 MULMOD SGT 0xDE OR PUSH23 0x5803D0880629DA0DE3A2646970667358221220D6F8FDBC DIV 0x24 GASLIMIT PUSH20 0x9FF9310FFDCB8CDBACB62BEFBFA23124DD8003D8 CALLCODE DUPN 0x6 PUSH13 0x64736F6C634300081E0033AC33 SELFDESTRUCT PUSH22 0xC19E70FE83507DB0D683FD3465C996598DC972688B7A 0xCE PUSH8 0x6C89077B00000000 "
		},
		"gasEstimates": {
			"creation": {
				"codeDepositCost": "5393600",
				"executionCost": "infinite",
				"totalCost": "infinite"
			},
			"external": {
				"AMM_FEE_RATE()": "263",
				"DEFAULT_ADMIN_ROLE()": "1230",
				"MARKET_VALIDATOR_ROLE()": "549",
				"MAX_MARKET_DURATION()": "1033",
				"MAX_OPTIONS()": "219",
				"MIN_MARKET_DURATION()": "1209",
				"QUESTION_CREATOR_ROLE()": "989",
				"QUESTION_RESOLVE_ROLE()": "967",
				"addAMMLiquidity(uint256,uint256)": "infinite",
				"allParticipants(uint256)": "6655",
				"ammSwap(uint256,uint256,uint256,uint256,uint256)": "infinite",
				"bettingToken()": "2839",
				"buyShares(uint256,uint256,uint256,uint256)": "infinite",
				"calculateCurrentPrice(uint256,uint256)": "3661",
				"calculateSellPrice(uint256,uint256,uint256)": "6460",
				"categoryMarkets(uint8,uint256)": "7939",
				"claimFreeShares(uint256,uint256)": "infinite",
				"claimWinnings(uint256)": "infinite",
				"createFreeMarket(string,string,string[],string[],uint256,uint8,uint256,uint256,uint256)": "infinite",
				"createMarket(string,string,string[],string[],uint256,uint8,uint8,uint256)": "infinite",
				"createMarketWithDefaultLiquidity(string,string,string[],string[],uint256,uint8,uint8)": "infinite",
				"createSponsoredMarket(string,string,string[],string[],uint256,uint8,uint256,string,uint256)": "infinite",
				"disputeMarket(uint256,string)": "infinite",
				"freeMarketAllowance()": "2784",
				"getBettingToken()": "2619",
				"getLeaderboard(uint256,uint256)": "infinite",
				"getMarket(uint256)": "infinite",
				"getMarketCount()": "3862",
				"getMarketInfo(uint256)": "infinite",
				"getMarketOdds(uint256)": "infinite",
				"getMarketOption(uint256,uint256)": "infinite",
				"getMarketStats(uint256)": "infinite",
				"getMarketsByCategory(uint8,uint256)": "infinite",
				"getPriceHistory(uint256,uint256,uint256)": "infinite",
				"getRoleAdmin(bytes32)": "2606",
				"getUserPortfolio(address)": "infinite",
				"getUserShares(uint256,address)": "infinite",
				"grantMarketValidatorRole(address)": "36435",
				"grantQuestionCreatorRole(address)": "36031",
				"grantQuestionResolveRole(address)": "35687",
				"grantRole(bytes32,address)": "33680",
				"hasRole(bytes32,address)": "3497",
				"marketCount()": "3708",
				"marketOrderBook(uint256,uint256)": "7001",
				"marketTrades(uint256,uint256)": "21962",
				"marketsByType(uint8,uint256)": "8123",
				"orderCount()": "2498",
				"orders(uint256)": "infinite",
				"owner()": "3269",
				"pause()": "30614",
				"pauseMarket(uint256)": "31455",
				"paused()": "2928",
				"platformFeeRate()": "3752",
				"previousBettingToken()": "2874",
				"priceHistory(uint256,uint256,uint256)": "12140",
				"renounceOwnership()": "28820",
				"renounceRole(bytes32,address)": "29303",
				"resolveMarket(uint256,uint256)": "59766",
				"revokeRole(bytes32,address)": "34616",
				"sellShares(uint256,uint256,uint256,uint256)": "infinite",
				"setFreeMarketAllowance(uint256)": "24599",
				"setPlatformFeeRate(uint256)": "25457",
				"supportsInterface(bytes4)": "270",
				"tokenUpdatedAt()": "2344",
				"totalWinnings(address)": "3374",
				"tradeCount()": "3532",
				"transferOwnership(address)": "29688",
				"unpause()": "28069",
				"updateBettingToken(address)": "78712",
				"updateBettingTokenAddress(address)": "75017",
				"userFreeSharesUsed(address)": "3638",
				"userOrders(address,uint256)": "7723",
				"userPortfolios(address)": "12168",
				"userTradeHistory(address,uint256)": "21908",
				"validateMarket(uint256)": "35695"
			},
			"internal": {
				"_isNewParticipant(address,uint256)": "infinite",
				"calculateNewPrice(uint256,uint256,uint256,bool)": "infinite"
			}
		},
		"methodIdentifiers": {
			"AMM_FEE_RATE()": "12c413af",
			"DEFAULT_ADMIN_ROLE()": "a217fddf",
			"MARKET_VALIDATOR_ROLE()": "32617b70",
			"MAX_MARKET_DURATION()": "7e50898e",
			"MAX_OPTIONS()": "0da183d6",
			"MIN_MARKET_DURATION()": "92f012b2",
			"QUESTION_CREATOR_ROLE()": "77b4a3e7",
			"QUESTION_RESOLVE_ROLE()": "755f0629",
			"addAMMLiquidity(uint256,uint256)": "6eae4297",
			"allParticipants(uint256)": "05e33dd0",
			"ammSwap(uint256,uint256,uint256,uint256,uint256)": "e9ca2026",
			"bettingToken()": "43425e88",
			"buyShares(uint256,uint256,uint256,uint256)": "ed881230",
			"calculateCurrentPrice(uint256,uint256)": "b1ab13ff",
			"calculateSellPrice(uint256,uint256,uint256)": "f355f2e7",
			"categoryMarkets(uint8,uint256)": "a8cc7f19",
			"claimFreeShares(uint256,uint256)": "c07d1449",
			"claimWinnings(uint256)": "677bd9ff",
			"createFreeMarket(string,string,string[],string[],uint256,uint8,uint256,uint256,uint256)": "2a49b428",
			"createMarket(string,string,string[],string[],uint256,uint8,uint8,uint256)": "33031b06",
			"createMarketWithDefaultLiquidity(string,string,string[],string[],uint256,uint8,uint8)": "f98ce1ba",
			"createSponsoredMarket(string,string,string[],string[],uint256,uint8,uint256,string,uint256)": "d911f198",
			"disputeMarket(uint256,string)": "4a2021ef",
			"freeMarketAllowance()": "417257f9",
			"getBettingToken()": "29cf655b",
			"getLeaderboard(uint256,uint256)": "73af16fc",
			"getMarket(uint256)": "eb44fdd3",
			"getMarketCount()": "fd69f3c2",
			"getMarketInfo(uint256)": "3ec79193",
			"getMarketOdds(uint256)": "26e12752",
			"getMarketOption(uint256,uint256)": "222fa267",
			"getMarketStats(uint256)": "58057fe5",
			"getMarketsByCategory(uint8,uint256)": "c2454af7",
			"getPriceHistory(uint256,uint256,uint256)": "7c946454",
			"getRoleAdmin(bytes32)": "248a9ca3",
			"getUserPortfolio(address)": "1edb27e9",
			"getUserShares(uint256,address)": "835dc40b",
			"grantMarketValidatorRole(address)": "abdce1a4",
			"grantQuestionCreatorRole(address)": "6db3b4dc",
			"grantQuestionResolveRole(address)": "35037e0b",
			"grantRole(bytes32,address)": "2f2ff15d",
			"hasRole(bytes32,address)": "91d14854",
			"marketCount()": "ec979082",
			"marketOrderBook(uint256,uint256)": "257ff7b6",
			"marketTrades(uint256,uint256)": "1cb1de2f",
			"marketsByType(uint8,uint256)": "d8c39bd7",
			"orderCount()": "2453ffa8",
			"orders(uint256)": "a85c38ef",
			"owner()": "8da5cb5b",
			"pause()": "8456cb59",
			"pauseMarket(uint256)": "fc12524c",
			"paused()": "5c975abb",
			"platformFeeRate()": "eeca08f0",
			"previousBettingToken()": "4bdd45fb",
			"priceHistory(uint256,uint256,uint256)": "a75dd115",
			"renounceOwnership()": "715018a6",
			"renounceRole(bytes32,address)": "36568abe",
			"resolveMarket(uint256,uint256)": "60557333",
			"revokeRole(bytes32,address)": "d547741f",
			"sellShares(uint256,uint256,uint256,uint256)": "5a2db6fb",
			"setFreeMarketAllowance(uint256)": "21b86dc2",
			"setPlatformFeeRate(uint256)": "927fef2e",
			"supportsInterface(bytes4)": "01ffc9a7",
			"tokenUpdatedAt()": "1029191a",
			"totalWinnings(address)": "8b8840e0",
			"tradeCount()": "bd55022a",
			"transferOwnership(address)": "f2fde38b",
			"unpause()": "3f4ba83a",
			"updateBettingToken(address)": "fdd3cdf6",
			"updateBettingTokenAddress(address)": "15571981",
			"userFreeSharesUsed(address)": "b41acdbe",
			"userOrders(address,uint256)": "856652e9",
			"userPortfolios(address)": "b61920c1",
			"userTradeHistory(address,uint256)": "08693f3c",
			"validateMarket(uint256)": "ab44e635"
		}
	},
	"abi": [
		{
			"inputs": [
				{
					"internalType": "address",
					"name": "_bettingToken",
					"type": "address"
				}
			],
			"stateMutability": "nonpayable",
			"type": "constructor"
		},
		{
			"inputs": [],
			"name": "AccessControlBadConfirmation",
			"type": "error"
		},
		{
			"inputs": [
				{
					"internalType": "address",
					"name": "account",
					"type": "address"
				},
				{
					"internalType": "bytes32",
					"name": "neededRole",
					"type": "bytes32"
				}
			],
			"name": "AccessControlUnauthorizedAccount",
			"type": "error"
		},
		{
			"inputs": [],
			"name": "EnforcedPause",
			"type": "error"
		},
		{
			"inputs": [],
			"name": "ExpectedPause",
			"type": "error"
		},
		{
			"inputs": [
				{
					"internalType": "address",
					"name": "owner",
					"type": "address"
				}
			],
			"name": "OwnableInvalidOwner",
			"type": "error"
		},
		{
			"inputs": [
				{
					"internalType": "address",
					"name": "account",
					"type": "address"
				}
			],
			"name": "OwnableUnauthorizedAccount",
			"type": "error"
		},
		{
			"inputs": [],
			"name": "ReentrancyGuardReentrantCall",
			"type": "error"
		},
		{
			"anonymous": false,
			"inputs": [
				{
					"indexed": true,
					"internalType": "uint256",
					"name": "marketId",
					"type": "uint256"
				},
				{
					"indexed": false,
					"internalType": "uint256",
					"name": "optionIdIn",
					"type": "uint256"
				},
				{
					"indexed": false,
					"internalType": "uint256",
					"name": "optionIdOut",
					"type": "uint256"
				},
				{
					"indexed": false,
					"internalType": "uint256",
					"name": "amountIn",
					"type": "uint256"
				},
				{
					"indexed": false,
					"internalType": "uint256",
					"name": "amountOut",
					"type": "uint256"
				},
				{
					"indexed": false,
					"internalType": "address",
					"name": "trader",
					"type": "address"
				}
			],
			"name": "AMMSwap",
			"type": "event"
		},
		{
			"anonymous": false,
			"inputs": [
				{
					"indexed": true,
					"internalType": "address",
					"name": "oldToken",
					"type": "address"
				},
				{
					"indexed": true,
					"internalType": "address",
					"name": "newToken",
					"type": "address"
				},
				{
					"indexed": false,
					"internalType": "uint256",
					"name": "timestamp",
					"type": "uint256"
				}
			],
			"name": "BettingTokenUpdated",
			"type": "event"
		},
		{
			"anonymous": false,
			"inputs": [
				{
					"indexed": true,
					"internalType": "uint256",
					"name": "marketId",
					"type": "uint256"
				},
				{
					"indexed": true,
					"internalType": "address",
					"name": "user",
					"type": "address"
				},
				{
					"indexed": false,
					"internalType": "uint256",
					"name": "amount",
					"type": "uint256"
				}
			],
			"name": "Claimed",
			"type": "event"
		},
		{
			"anonymous": false,
			"inputs": [
				{
					"indexed": true,
					"internalType": "uint256",
					"name": "marketId",
					"type": "uint256"
				},
				{
					"indexed": false,
					"internalType": "uint256",
					"name": "amount",
					"type": "uint256"
				}
			],
			"name": "FeeCollected",
			"type": "event"
		},
		{
			"anonymous": false,
			"inputs": [
				{
					"indexed": true,
					"internalType": "uint256",
					"name": "marketId",
					"type": "uint256"
				},
				{
					"indexed": true,
					"internalType": "address",
					"name": "user",
					"type": "address"
				},
				{
					"indexed": false,
					"internalType": "uint256",
					"name": "optionId",
					"type": "uint256"
				},
				{
					"indexed": false,
					"internalType": "uint256",
					"name": "shares",
					"type": "uint256"
				}
			],
			"name": "FreeSharesClaimed",
			"type": "event"
		},
		{
			"anonymous": false,
			"inputs": [
				{
					"indexed": true,
					"internalType": "uint256",
					"name": "marketId",
					"type": "uint256"
				},
				{
					"indexed": true,
					"internalType": "address",
					"name": "provider",
					"type": "address"
				},
				{
					"indexed": false,
					"internalType": "uint256",
					"name": "amount",
					"type": "uint256"
				}
			],
			"name": "LiquidityAdded",
			"type": "event"
		},
		{
			"anonymous": false,
			"inputs": [
				{
					"indexed": true,
					"internalType": "uint256",
					"name": "marketId",
					"type": "uint256"
				},
				{
					"indexed": false,
					"internalType": "string",
					"name": "question",
					"type": "string"
				},
				{
					"indexed": false,
					"internalType": "string[]",
					"name": "options",
					"type": "string[]"
				},
				{
					"indexed": false,
					"internalType": "uint256",
					"name": "endTime",
					"type": "uint256"
				},
				{
					"indexed": false,
					"internalType": "enum PolicastMarketV2.MarketCategory",
					"name": "category",
					"type": "uint8"
				},
				{
					"indexed": false,
					"internalType": "enum PolicastMarketV2.MarketType",
					"name": "marketType",
					"type": "uint8"
				},
				{
					"indexed": false,
					"internalType": "address",
					"name": "creator",
					"type": "address"
				}
			],
			"name": "MarketCreated",
			"type": "event"
		},
		{
			"anonymous": false,
			"inputs": [
				{
					"indexed": true,
					"internalType": "uint256",
					"name": "marketId",
					"type": "uint256"
				},
				{
					"indexed": false,
					"internalType": "address",
					"name": "disputer",
					"type": "address"
				},
				{
					"indexed": false,
					"internalType": "string",
					"name": "reason",
					"type": "string"
				}
			],
			"name": "MarketDisputed",
			"type": "event"
		},
		{
			"anonymous": false,
			"inputs": [
				{
					"indexed": true,
					"internalType": "uint256",
					"name": "marketId",
					"type": "uint256"
				}
			],
			"name": "MarketPaused",
			"type": "event"
		},
		{
			"anonymous": false,
			"inputs": [
				{
					"indexed": true,
					"internalType": "uint256",
					"name": "marketId",
					"type": "uint256"
				},
				{
					"indexed": false,
					"internalType": "uint256",
					"name": "winningOptionId",
					"type": "uint256"
				},
				{
					"indexed": false,
					"internalType": "address",
					"name": "resolver",
					"type": "address"
				}
			],
			"name": "MarketResolved",
			"type": "event"
		},
		{
			"anonymous": false,
			"inputs": [
				{
					"indexed": true,
					"internalType": "uint256",
					"name": "marketId",
					"type": "uint256"
				},
				{
					"indexed": true,
					"internalType": "address",
					"name": "sponsor",
					"type": "address"
				},
				{
					"indexed": false,
					"internalType": "uint256",
					"name": "prizeAmount",
					"type": "uint256"
				},
				{
					"indexed": false,
					"internalType": "string",
					"name": "message",
					"type": "string"
				}
			],
			"name": "MarketSponsored",
			"type": "event"
		},
		{
			"anonymous": false,
			"inputs": [
				{
					"indexed": true,
					"internalType": "uint256",
					"name": "marketId",
					"type": "uint256"
				},
				{
					"indexed": false,
					"internalType": "address",
					"name": "validator",
					"type": "address"
				}
			],
			"name": "MarketValidated",
			"type": "event"
		},
		{
			"anonymous": false,
			"inputs": [
				{
					"indexed": true,
					"internalType": "uint256",
					"name": "orderId",
					"type": "uint256"
				},
				{
					"indexed": false,
					"internalType": "address",
					"name": "maker",
					"type": "address"
				}
			],
			"name": "OrderCancelled",
			"type": "event"
		},
		{
			"anonymous": false,
			"inputs": [
				{
					"indexed": true,
					"internalType": "uint256",
					"name": "orderId",
					"type": "uint256"
				},
				{
					"indexed": true,
					"internalType": "uint256",
					"name": "marketId",
					"type": "uint256"
				},
				{
					"indexed": true,
					"internalType": "uint256",
					"name": "optionId",
					"type": "uint256"
				},
				{
					"indexed": false,
					"internalType": "address",
					"name": "maker",
					"type": "address"
				},
				{
					"indexed": false,
					"internalType": "enum PolicastMarketV2.OrderType",
					"name": "orderType",
					"type": "uint8"
				},
				{
					"indexed": false,
					"internalType": "enum PolicastMarketV2.OrderSide",
					"name": "side",
					"type": "uint8"
				},
				{
					"indexed": false,
					"internalType": "uint256",
					"name": "price",
					"type": "uint256"
				},
				{
					"indexed": false,
					"internalType": "uint256",
					"name": "quantity",
					"type": "uint256"
				}
			],
			"name": "OrderPlaced",
			"type": "event"
		},
		{
			"anonymous": false,
			"inputs": [
				{
					"indexed": true,
					"internalType": "address",
					"name": "previousOwner",
					"type": "address"
				},
				{
					"indexed": true,
					"internalType": "address",
					"name": "newOwner",
					"type": "address"
				}
			],
			"name": "OwnershipTransferred",
			"type": "event"
		},
		{
			"anonymous": false,
			"inputs": [
				{
					"indexed": false,
					"internalType": "address",
					"name": "account",
					"type": "address"
				}
			],
			"name": "Paused",
			"type": "event"
		},
		{
			"anonymous": false,
			"inputs": [
				{
					"indexed": true,
					"internalType": "bytes32",
					"name": "role",
					"type": "bytes32"
				},
				{
					"indexed": true,
					"internalType": "bytes32",
					"name": "previousAdminRole",
					"type": "bytes32"
				},
				{
					"indexed": true,
					"internalType": "bytes32",
					"name": "newAdminRole",
					"type": "bytes32"
				}
			],
			"name": "RoleAdminChanged",
			"type": "event"
		},
		{
			"anonymous": false,
			"inputs": [
				{
					"indexed": true,
					"internalType": "bytes32",
					"name": "role",
					"type": "bytes32"
				},
				{
					"indexed": true,
					"internalType": "address",
					"name": "account",
					"type": "address"
				},
				{
					"indexed": true,
					"internalType": "address",
					"name": "sender",
					"type": "address"
				}
			],
			"name": "RoleGranted",
			"type": "event"
		},
		{
			"anonymous": false,
			"inputs": [
				{
					"indexed": true,
					"internalType": "bytes32",
					"name": "role",
					"type": "bytes32"
				},
				{
					"indexed": true,
					"internalType": "address",
					"name": "account",
					"type": "address"
				},
				{
					"indexed": true,
					"internalType": "address",
					"name": "sender",
					"type": "address"
				}
			],
			"name": "RoleRevoked",
			"type": "event"
		},
		{
			"anonymous": false,
			"inputs": [
				{
					"indexed": true,
					"internalType": "uint256",
					"name": "marketId",
					"type": "uint256"
				},
				{
					"indexed": true,
					"internalType": "uint256",
					"name": "optionId",
					"type": "uint256"
				},
				{
					"indexed": true,
					"internalType": "address",
					"name": "seller",
					"type": "address"
				},
				{
					"indexed": false,
					"internalType": "uint256",
					"name": "quantity",
					"type": "uint256"
				},
				{
					"indexed": false,
					"internalType": "uint256",
					"name": "price",
					"type": "uint256"
				}
			],
			"name": "SharesSold",
			"type": "event"
		},
		{
			"anonymous": false,
			"inputs": [
				{
					"indexed": true,
					"internalType": "uint256",
					"name": "marketId",
					"type": "uint256"
				},
				{
					"indexed": true,
					"internalType": "uint256",
					"name": "optionId",
					"type": "uint256"
				},
				{
					"indexed": true,
					"internalType": "address",
					"name": "buyer",
					"type": "address"
				},
				{
					"indexed": false,
					"internalType": "address",
					"name": "seller",
					"type": "address"
				},
				{
					"indexed": false,
					"internalType": "uint256",
					"name": "price",
					"type": "uint256"
				},
				{
					"indexed": false,
					"internalType": "uint256",
					"name": "quantity",
					"type": "uint256"
				},
				{
					"indexed": false,
					"internalType": "uint256",
					"name": "tradeId",
					"type": "uint256"
				}
			],
			"name": "TradeExecuted",
			"type": "event"
		},
		{
			"anonymous": false,
			"inputs": [
				{
					"indexed": false,
					"internalType": "address",
					"name": "account",
					"type": "address"
				}
			],
			"name": "Unpaused",
			"type": "event"
		},
		{
			"inputs": [],
			"name": "AMM_FEE_RATE",
			"outputs": [
				{
					"internalType": "uint256",
					"name": "",
					"type": "uint256"
				}
			],
			"stateMutability": "view",
			"type": "function"
		},
		{
			"inputs": [],
			"name": "DEFAULT_ADMIN_ROLE",
			"outputs": [
				{
					"internalType": "bytes32",
					"name": "",
					"type": "bytes32"
				}
			],
			"stateMutability": "view",
			"type": "function"
		},
		{
			"inputs": [],
			"name": "MARKET_VALIDATOR_ROLE",
			"outputs": [
				{
					"internalType": "bytes32",
					"name": "",
					"type": "bytes32"
				}
			],
			"stateMutability": "view",
			"type": "function"
		},
		{
			"inputs": [],
			"name": "MAX_MARKET_DURATION",
			"outputs": [
				{
					"internalType": "uint256",
					"name": "",
					"type": "uint256"
				}
			],
			"stateMutability": "view",
			"type": "function"
		},
		{
			"inputs": [],
			"name": "MAX_OPTIONS",
			"outputs": [
				{
					"internalType": "uint256",
					"name": "",
					"type": "uint256"
				}
			],
			"stateMutability": "view",
			"type": "function"
		},
		{
			"inputs": [],
			"name": "MIN_MARKET_DURATION",
			"outputs": [
				{
					"internalType": "uint256",
					"name": "",
					"type": "uint256"
				}
			],
			"stateMutability": "view",
			"type": "function"
		},
		{
			"inputs": [],
			"name": "QUESTION_CREATOR_ROLE",
			"outputs": [
				{
					"internalType": "bytes32",
					"name": "",
					"type": "bytes32"
				}
			],
			"stateMutability": "view",
			"type": "function"
		},
		{
			"inputs": [],
			"name": "QUESTION_RESOLVE_ROLE",
			"outputs": [
				{
					"internalType": "bytes32",
					"name": "",
					"type": "bytes32"
				}
			],
			"stateMutability": "view",
			"type": "function"
		},
		{
			"inputs": [
				{
					"internalType": "uint256",
					"name": "_marketId",
					"type": "uint256"
				},
				{
					"internalType": "uint256",
					"name": "_amount",
					"type": "uint256"
				}
			],
			"name": "addAMMLiquidity",
			"outputs": [],
			"stateMutability": "nonpayable",
			"type": "function"
		},
		{
			"inputs": [
				{
					"internalType": "uint256",
					"name": "",
					"type": "uint256"
				}
			],
			"name": "allParticipants",
			"outputs": [
				{
					"internalType": "address",
					"name": "",
					"type": "address"
				}
			],
			"stateMutability": "view",
			"type": "function"
		},
		{
			"inputs": [
				{
					"internalType": "uint256",
					"name": "_marketId",
					"type": "uint256"
				},
				{
					"internalType": "uint256",
					"name": "_optionIdIn",
					"type": "uint256"
				},
				{
					"internalType": "uint256",
					"name": "_optionIdOut",
					"type": "uint256"
				},
				{
					"internalType": "uint256",
					"name": "_amountIn",
					"type": "uint256"
				},
				{
					"internalType": "uint256",
					"name": "_minAmountOut",
					"type": "uint256"
				}
			],
			"name": "ammSwap",
			"outputs": [
				{
					"internalType": "uint256",
					"name": "amountOut",
					"type": "uint256"
				}
			],
			"stateMutability": "nonpayable",
			"type": "function"
		},
		{
			"inputs": [],
			"name": "bettingToken",
			"outputs": [
				{
					"internalType": "contract IERC20",
					"name": "",
					"type": "address"
				}
			],
			"stateMutability": "view",
			"type": "function"
		},
		{
			"inputs": [
				{
					"internalType": "uint256",
					"name": "_marketId",
					"type": "uint256"
				},
				{
					"internalType": "uint256",
					"name": "_optionId",
					"type": "uint256"
				},
				{
					"internalType": "uint256",
					"name": "_quantity",
					"type": "uint256"
				},
				{
					"internalType": "uint256",
					"name": "_maxPricePerShare",
					"type": "uint256"
				}
			],
			"name": "buyShares",
			"outputs": [],
			"stateMutability": "nonpayable",
			"type": "function"
		},
		{
			"inputs": [
				{
					"internalType": "uint256",
					"name": "_marketId",
					"type": "uint256"
				},
				{
					"internalType": "uint256",
					"name": "_optionId",
					"type": "uint256"
				}
			],
			"name": "calculateCurrentPrice",
			"outputs": [
				{
					"internalType": "uint256",
					"name": "",
					"type": "uint256"
				}
			],
			"stateMutability": "view",
			"type": "function"
		},
		{
			"inputs": [
				{
					"internalType": "uint256",
					"name": "_marketId",
					"type": "uint256"
				},
				{
					"internalType": "uint256",
					"name": "_optionId",
					"type": "uint256"
				},
				{
					"internalType": "uint256",
					"name": "_quantity",
					"type": "uint256"
				}
			],
			"name": "calculateSellPrice",
			"outputs": [
				{
					"internalType": "uint256",
					"name": "",
					"type": "uint256"
				}
			],
			"stateMutability": "view",
			"type": "function"
		},
		{
			"inputs": [
				{
					"internalType": "enum PolicastMarketV2.MarketCategory",
					"name": "",
					"type": "uint8"
				},
				{
					"internalType": "uint256",
					"name": "",
					"type": "uint256"
				}
			],
			"name": "categoryMarkets",
			"outputs": [
				{
					"internalType": "uint256",
					"name": "",
					"type": "uint256"
				}
			],
			"stateMutability": "view",
			"type": "function"
		},
		{
			"inputs": [
				{
					"internalType": "uint256",
					"name": "_marketId",
					"type": "uint256"
				},
				{
					"internalType": "uint256",
					"name": "_optionId",
					"type": "uint256"
				}
			],
			"name": "claimFreeShares",
			"outputs": [],
			"stateMutability": "nonpayable",
			"type": "function"
		},
		{
			"inputs": [
				{
					"internalType": "uint256",
					"name": "_marketId",
					"type": "uint256"
				}
			],
			"name": "claimWinnings",
			"outputs": [],
			"stateMutability": "nonpayable",
			"type": "function"
		},
		{
			"inputs": [
				{
					"internalType": "string",
					"name": "_question",
					"type": "string"
				},
				{
					"internalType": "string",
					"name": "_description",
					"type": "string"
				},
				{
					"internalType": "string[]",
					"name": "_optionNames",
					"type": "string[]"
				},
				{
					"internalType": "string[]",
					"name": "_optionDescriptions",
					"type": "string[]"
				},
				{
					"internalType": "uint256",
					"name": "_duration",
					"type": "uint256"
				},
				{
					"internalType": "enum PolicastMarketV2.MarketCategory",
					"name": "_category",
					"type": "uint8"
				},
				{
					"internalType": "uint256",
					"name": "_maxFreeParticipants",
					"type": "uint256"
				},
				{
					"internalType": "uint256",
					"name": "_freeSharesPerUser",
					"type": "uint256"
				},
				{
					"internalType": "uint256",
					"name": "_initialLiquidity",
					"type": "uint256"
				}
			],
			"name": "createFreeMarket",
			"outputs": [
				{
					"internalType": "uint256",
					"name": "",
					"type": "uint256"
				}
			],
			"stateMutability": "nonpayable",
			"type": "function"
		},
		{
			"inputs": [
				{
					"internalType": "string",
					"name": "_question",
					"type": "string"
				},
				{
					"internalType": "string",
					"name": "_description",
					"type": "string"
				},
				{
					"internalType": "string[]",
					"name": "_optionNames",
					"type": "string[]"
				},
				{
					"internalType": "string[]",
					"name": "_optionDescriptions",
					"type": "string[]"
				},
				{
					"internalType": "uint256",
					"name": "_duration",
					"type": "uint256"
				},
				{
					"internalType": "enum PolicastMarketV2.MarketCategory",
					"name": "_category",
					"type": "uint8"
				},
				{
					"internalType": "enum PolicastMarketV2.MarketType",
					"name": "_marketType",
					"type": "uint8"
				},
				{
					"internalType": "uint256",
					"name": "_initialLiquidity",
					"type": "uint256"
				}
			],
			"name": "createMarket",
			"outputs": [
				{
					"internalType": "uint256",
					"name": "",
					"type": "uint256"
				}
			],
			"stateMutability": "nonpayable",
			"type": "function"
		},
		{
			"inputs": [
				{
					"internalType": "string",
					"name": "_question",
					"type": "string"
				},
				{
					"internalType": "string",
					"name": "_description",
					"type": "string"
				},
				{
					"internalType": "string[]",
					"name": "_optionNames",
					"type": "string[]"
				},
				{
					"internalType": "string[]",
					"name": "_optionDescriptions",
					"type": "string[]"
				},
				{
					"internalType": "uint256",
					"name": "_duration",
					"type": "uint256"
				},
				{
					"internalType": "enum PolicastMarketV2.MarketCategory",
					"name": "_category",
					"type": "uint8"
				},
				{
					"internalType": "enum PolicastMarketV2.MarketType",
					"name": "_marketType",
					"type": "uint8"
				}
			],
			"name": "createMarketWithDefaultLiquidity",
			"outputs": [
				{
					"internalType": "uint256",
					"name": "",
					"type": "uint256"
				}
			],
			"stateMutability": "nonpayable",
			"type": "function"
		},
		{
			"inputs": [
				{
					"internalType": "string",
					"name": "_question",
					"type": "string"
				},
				{
					"internalType": "string",
					"name": "_description",
					"type": "string"
				},
				{
					"internalType": "string[]",
					"name": "_optionNames",
					"type": "string[]"
				},
				{
					"internalType": "string[]",
					"name": "_optionDescriptions",
					"type": "string[]"
				},
				{
					"internalType": "uint256",
					"name": "_duration",
					"type": "uint256"
				},
				{
					"internalType": "enum PolicastMarketV2.MarketCategory",
					"name": "_category",
					"type": "uint8"
				},
				{
					"internalType": "uint256",
					"name": "_minimumParticipants",
					"type": "uint256"
				},
				{
					"internalType": "string",
					"name": "_sponsorMessage",
					"type": "string"
				},
				{
					"internalType": "uint256",
					"name": "_initialLiquidity",
					"type": "uint256"
				}
			],
			"name": "createSponsoredMarket",
			"outputs": [
				{
					"internalType": "uint256",
					"name": "",
					"type": "uint256"
				}
			],
			"stateMutability": "payable",
			"type": "function"
		},
		{
			"inputs": [
				{
					"internalType": "uint256",
					"name": "_marketId",
					"type": "uint256"
				},
				{
					"internalType": "string",
					"name": "_reason",
					"type": "string"
				}
			],
			"name": "disputeMarket",
			"outputs": [],
			"stateMutability": "nonpayable",
			"type": "function"
		},
		{
			"inputs": [],
			"name": "freeMarketAllowance",
			"outputs": [
				{
					"internalType": "uint256",
					"name": "",
					"type": "uint256"
				}
			],
			"stateMutability": "view",
			"type": "function"
		},
		{
			"inputs": [],
			"name": "getBettingToken",
			"outputs": [
				{
					"internalType": "address",
					"name": "",
					"type": "address"
				}
			],
			"stateMutability": "view",
			"type": "function"
		},
		{
			"inputs": [
				{
					"internalType": "uint256",
					"name": "_start",
					"type": "uint256"
				},
				{
					"internalType": "uint256",
					"name": "_limit",
					"type": "uint256"
				}
			],
			"name": "getLeaderboard",
			"outputs": [
				{
					"components": [
						{
							"internalType": "address",
							"name": "user",
							"type": "address"
						},
						{
							"internalType": "uint256",
							"name": "totalWinnings",
							"type": "uint256"
						},
						{
							"internalType": "uint256",
							"name": "totalVolume",
							"type": "uint256"
						},
						{
							"internalType": "uint256",
							"name": "winRate",
							"type": "uint256"
						},
						{
							"internalType": "uint256",
							"name": "tradeCount",
							"type": "uint256"
						}
					],
					"internalType": "struct PolicastMarketV2.LeaderboardEntry[]",
					"name": "",
					"type": "tuple[]"
				}
			],
			"stateMutability": "view",
			"type": "function"
		},
		{
			"inputs": [
				{
					"internalType": "uint256",
					"name": "_marketId",
					"type": "uint256"
				}
			],
			"name": "getMarket",
			"outputs": [
				{
					"internalType": "string",
					"name": "question",
					"type": "string"
				},
				{
					"internalType": "string",
					"name": "description",
					"type": "string"
				},
				{
					"internalType": "uint256",
					"name": "endTime",
					"type": "uint256"
				},
				{
					"internalType": "enum PolicastMarketV2.MarketCategory",
					"name": "category",
					"type": "uint8"
				},
				{
					"internalType": "enum PolicastMarketV2.MarketType",
					"name": "marketType",
					"type": "uint8"
				},
				{
					"internalType": "uint256",
					"name": "winningOptionId",
					"type": "uint256"
				},
				{
					"internalType": "bool",
					"name": "resolved",
					"type": "bool"
				},
				{
					"internalType": "bool",
					"name": "disputed",
					"type": "bool"
				},
				{
					"internalType": "bool",
					"name": "validated",
					"type": "bool"
				},
				{
					"internalType": "address",
					"name": "creator",
					"type": "address"
				},
				{
					"internalType": "uint256",
					"name": "totalLiquidity",
					"type": "uint256"
				},
				{
					"internalType": "uint256",
					"name": "totalVolume",
					"type": "uint256"
				},
				{
					"internalType": "uint256",
					"name": "createdAt",
					"type": "uint256"
				},
				{
					"internalType": "uint256",
					"name": "optionCount",
					"type": "uint256"
				},
				{
					"internalType": "uint256",
					"name": "ammLiquidityPool",
					"type": "uint256"
				}
			],
			"stateMutability": "view",
			"type": "function"
		},
		{
			"inputs": [],
			"name": "getMarketCount",
			"outputs": [
				{
					"internalType": "uint256",
					"name": "",
					"type": "uint256"
				}
			],
			"stateMutability": "view",
			"type": "function"
		},
		{
			"inputs": [
				{
					"internalType": "uint256",
					"name": "_marketId",
					"type": "uint256"
				}
			],
			"name": "getMarketInfo",
			"outputs": [
				{
					"internalType": "string",
					"name": "question",
					"type": "string"
				},
				{
					"internalType": "string",
					"name": "description",
					"type": "string"
				},
				{
					"internalType": "uint256",
					"name": "endTime",
					"type": "uint256"
				},
				{
					"internalType": "enum PolicastMarketV2.MarketCategory",
					"name": "category",
					"type": "uint8"
				},
				{
					"internalType": "uint256",
					"name": "optionCount",
					"type": "uint256"
				},
				{
					"internalType": "bool",
					"name": "resolved",
					"type": "bool"
				},
				{
					"internalType": "bool",
					"name": "disputed",
					"type": "bool"
				},
				{
					"internalType": "uint256",
					"name": "winningOptionId",
					"type": "uint256"
				},
				{
					"internalType": "address",
					"name": "creator",
					"type": "address"
				}
			],
			"stateMutability": "view",
			"type": "function"
		},
		{
			"inputs": [
				{
					"internalType": "uint256",
					"name": "_marketId",
					"type": "uint256"
				}
			],
			"name": "getMarketOdds",
			"outputs": [
				{
					"internalType": "uint256[]",
					"name": "",
					"type": "uint256[]"
				}
			],
			"stateMutability": "view",
			"type": "function"
		},
		{
			"inputs": [
				{
					"internalType": "uint256",
					"name": "_marketId",
					"type": "uint256"
				},
				{
					"internalType": "uint256",
					"name": "_optionId",
					"type": "uint256"
				}
			],
			"name": "getMarketOption",
			"outputs": [
				{
					"internalType": "string",
					"name": "name",
					"type": "string"
				},
				{
					"internalType": "string",
					"name": "description",
					"type": "string"
				},
				{
					"internalType": "uint256",
					"name": "totalShares",
					"type": "uint256"
				},
				{
					"internalType": "uint256",
					"name": "totalVolume",
					"type": "uint256"
				},
				{
					"internalType": "uint256",
					"name": "currentPrice",
					"type": "uint256"
				},
				{
					"internalType": "bool",
					"name": "isActive",
					"type": "bool"
				}
			],
			"stateMutability": "view",
			"type": "function"
		},
		{
			"inputs": [
				{
					"internalType": "uint256",
					"name": "_marketId",
					"type": "uint256"
				}
			],
			"name": "getMarketStats",
			"outputs": [
				{
					"components": [
						{
							"internalType": "uint256",
							"name": "totalVolume",
							"type": "uint256"
						},
						{
							"internalType": "uint256",
							"name": "participantCount",
							"type": "uint256"
						},
						{
							"internalType": "uint256",
							"name": "averagePrice",
							"type": "uint256"
						},
						{
							"internalType": "uint256",
							"name": "priceVolatility",
							"type": "uint256"
						},
						{
							"internalType": "uint256",
							"name": "lastTradePrice",
							"type": "uint256"
						},
						{
							"internalType": "uint256",
							"name": "lastTradeTime",
							"type": "uint256"
						}
					],
					"internalType": "struct PolicastMarketV2.MarketStats",
					"name": "",
					"type": "tuple"
				}
			],
			"stateMutability": "view",
			"type": "function"
		},
		{
			"inputs": [
				{
					"internalType": "enum PolicastMarketV2.MarketCategory",
					"name": "_category",
					"type": "uint8"
				},
				{
					"internalType": "uint256",
					"name": "_limit",
					"type": "uint256"
				}
			],
			"name": "getMarketsByCategory",
			"outputs": [
				{
					"internalType": "uint256[]",
					"name": "",
					"type": "uint256[]"
				}
			],
			"stateMutability": "view",
			"type": "function"
		},
		{
			"inputs": [
				{
					"internalType": "uint256",
					"name": "_marketId",
					"type": "uint256"
				},
				{
					"internalType": "uint256",
					"name": "_optionId",
					"type": "uint256"
				},
				{
					"internalType": "uint256",
					"name": "_limit",
					"type": "uint256"
				}
			],
			"name": "getPriceHistory",
			"outputs": [
				{
					"components": [
						{
							"internalType": "uint256",
							"name": "price",
							"type": "uint256"
						},
						{
							"internalType": "uint256",
							"name": "timestamp",
							"type": "uint256"
						},
						{
							"internalType": "uint256",
							"name": "volume",
							"type": "uint256"
						}
					],
					"internalType": "struct PolicastMarketV2.PricePoint[]",
					"name": "",
					"type": "tuple[]"
				}
			],
			"stateMutability": "view",
			"type": "function"
		},
		{
			"inputs": [
				{
					"internalType": "bytes32",
					"name": "role",
					"type": "bytes32"
				}
			],
			"name": "getRoleAdmin",
			"outputs": [
				{
					"internalType": "bytes32",
					"name": "",
					"type": "bytes32"
				}
			],
			"stateMutability": "view",
			"type": "function"
		},
		{
			"inputs": [
				{
					"internalType": "address",
					"name": "_user",
					"type": "address"
				}
			],
			"name": "getUserPortfolio",
			"outputs": [
				{
					"components": [
						{
							"internalType": "uint256",
							"name": "totalInvested",
							"type": "uint256"
						},
						{
							"internalType": "uint256",
							"name": "totalWinnings",
							"type": "uint256"
						},
						{
							"internalType": "int256",
							"name": "unrealizedPnL",
							"type": "int256"
						},
						{
							"internalType": "int256",
							"name": "realizedPnL",
							"type": "int256"
						},
						{
							"internalType": "uint256",
							"name": "tradeCount",
							"type": "uint256"
						}
					],
					"internalType": "struct PolicastMarketV2.UserPortfolio",
					"name": "",
					"type": "tuple"
				}
			],
			"stateMutability": "view",
			"type": "function"
		},
		{
			"inputs": [
				{
					"internalType": "uint256",
					"name": "_marketId",
					"type": "uint256"
				},
				{
					"internalType": "address",
					"name": "_user",
					"type": "address"
				}
			],
			"name": "getUserShares",
			"outputs": [
				{
					"internalType": "uint256[]",
					"name": "",
					"type": "uint256[]"
				}
			],
			"stateMutability": "view",
			"type": "function"
		},
		{
			"inputs": [
				{
					"internalType": "address",
					"name": "_account",
					"type": "address"
				}
			],
			"name": "grantMarketValidatorRole",
			"outputs": [],
			"stateMutability": "nonpayable",
			"type": "function"
		},
		{
			"inputs": [
				{
					"internalType": "address",
					"name": "_account",
					"type": "address"
				}
			],
			"name": "grantQuestionCreatorRole",
			"outputs": [],
			"stateMutability": "nonpayable",
			"type": "function"
		},
		{
			"inputs": [
				{
					"internalType": "address",
					"name": "_account",
					"type": "address"
				}
			],
			"name": "grantQuestionResolveRole",
			"outputs": [],
			"stateMutability": "nonpayable",
			"type": "function"
		},
		{
			"inputs": [
				{
					"internalType": "bytes32",
					"name": "role",
					"type": "bytes32"
				},
				{
					"internalType": "address",
					"name": "account",
					"type": "address"
				}
			],
			"name": "grantRole",
			"outputs": [],
			"stateMutability": "nonpayable",
			"type": "function"
		},
		{
			"inputs": [
				{
					"internalType": "bytes32",
					"name": "role",
					"type": "bytes32"
				},
				{
					"internalType": "address",
					"name": "account",
					"type": "address"
				}
			],
			"name": "hasRole",
			"outputs": [
				{
					"internalType": "bool",
					"name": "",
					"type": "bool"
				}
			],
			"stateMutability": "view",
			"type": "function"
		},
		{
			"inputs": [],
			"name": "marketCount",
			"outputs": [
				{
					"internalType": "uint256",
					"name": "",
					"type": "uint256"
				}
			],
			"stateMutability": "view",
			"type": "function"
		},
		{
			"inputs": [
				{
					"internalType": "uint256",
					"name": "",
					"type": "uint256"
				},
				{
					"internalType": "uint256",
					"name": "",
					"type": "uint256"
				}
			],
			"name": "marketOrderBook",
			"outputs": [
				{
					"internalType": "uint256",
					"name": "",
					"type": "uint256"
				}
			],
			"stateMutability": "view",
			"type": "function"
		},
		{
			"inputs": [
				{
					"internalType": "uint256",
					"name": "",
					"type": "uint256"
				},
				{
					"internalType": "uint256",
					"name": "",
					"type": "uint256"
				}
			],
			"name": "marketTrades",
			"outputs": [
				{
					"internalType": "uint256",
					"name": "marketId",
					"type": "uint256"
				},
				{
					"internalType": "uint256",
					"name": "optionId",
					"type": "uint256"
				},
				{
					"internalType": "address",
					"name": "buyer",
					"type": "address"
				},
				{
					"internalType": "address",
					"name": "seller",
					"type": "address"
				},
				{
					"internalType": "uint256",
					"name": "price",
					"type": "uint256"
				},
				{
					"internalType": "uint256",
					"name": "quantity",
					"type": "uint256"
				},
				{
					"internalType": "uint256",
					"name": "timestamp",
					"type": "uint256"
				},
				{
					"internalType": "enum PolicastMarketV2.OrderType",
					"name": "orderType",
					"type": "uint8"
				}
			],
			"stateMutability": "view",
			"type": "function"
		},
		{
			"inputs": [
				{
					"internalType": "enum PolicastMarketV2.MarketType",
					"name": "",
					"type": "uint8"
				},
				{
					"internalType": "uint256",
					"name": "",
					"type": "uint256"
				}
			],
			"name": "marketsByType",
			"outputs": [
				{
					"internalType": "uint256",
					"name": "",
					"type": "uint256"
				}
			],
			"stateMutability": "view",
			"type": "function"
		},
		{
			"inputs": [],
			"name": "orderCount",
			"outputs": [
				{
					"internalType": "uint256",
					"name": "",
					"type": "uint256"
				}
			],
			"stateMutability": "view",
			"type": "function"
		},
		{
			"inputs": [
				{
					"internalType": "uint256",
					"name": "",
					"type": "uint256"
				}
			],
			"name": "orders",
			"outputs": [
				{
					"internalType": "uint256",
					"name": "id",
					"type": "uint256"
				},
				{
					"internalType": "uint256",
					"name": "marketId",
					"type": "uint256"
				},
				{
					"internalType": "uint256",
					"name": "optionId",
					"type": "uint256"
				},
				{
					"internalType": "address",
					"name": "maker",
					"type": "address"
				},
				{
					"internalType": "enum PolicastMarketV2.OrderType",
					"name": "orderType",
					"type": "uint8"
				},
				{
					"internalType": "enum PolicastMarketV2.OrderSide",
					"name": "side",
					"type": "uint8"
				},
				{
					"internalType": "uint256",
					"name": "price",
					"type": "uint256"
				},
				{
					"internalType": "uint256",
					"name": "quantity",
					"type": "uint256"
				},
				{
					"internalType": "uint256",
					"name": "filled",
					"type": "uint256"
				},
				{
					"internalType": "uint256",
					"name": "timestamp",
					"type": "uint256"
				},
				{
					"internalType": "bool",
					"name": "isActive",
					"type": "bool"
				}
			],
			"stateMutability": "view",
			"type": "function"
		},
		{
			"inputs": [],
			"name": "owner",
			"outputs": [
				{
					"internalType": "address",
					"name": "",
					"type": "address"
				}
			],
			"stateMutability": "view",
			"type": "function"
		},
		{
			"inputs": [],
			"name": "pause",
			"outputs": [],
			"stateMutability": "nonpayable",
			"type": "function"
		},
		{
			"inputs": [
				{
					"internalType": "uint256",
					"name": "_marketId",
					"type": "uint256"
				}
			],
			"name": "pauseMarket",
			"outputs": [],
			"stateMutability": "nonpayable",
			"type": "function"
		},
		{
			"inputs": [],
			"name": "paused",
			"outputs": [
				{
					"internalType": "bool",
					"name": "",
					"type": "bool"
				}
			],
			"stateMutability": "view",
			"type": "function"
		},
		{
			"inputs": [],
			"name": "platformFeeRate",
			"outputs": [
				{
					"internalType": "uint256",
					"name": "",
					"type": "uint256"
				}
			],
			"stateMutability": "view",
			"type": "function"
		},
		{
			"inputs": [],
			"name": "previousBettingToken",
			"outputs": [
				{
					"internalType": "address",
					"name": "",
					"type": "address"
				}
			],
			"stateMutability": "view",
			"type": "function"
		},
		{
			"inputs": [
				{
					"internalType": "uint256",
					"name": "",
					"type": "uint256"
				},
				{
					"internalType": "uint256",
					"name": "",
					"type": "uint256"
				},
				{
					"internalType": "uint256",
					"name": "",
					"type": "uint256"
				}
			],
			"name": "priceHistory",
			"outputs": [
				{
					"internalType": "uint256",
					"name": "price",
					"type": "uint256"
				},
				{
					"internalType": "uint256",
					"name": "timestamp",
					"type": "uint256"
				},
				{
					"internalType": "uint256",
					"name": "volume",
					"type": "uint256"
				}
			],
			"stateMutability": "view",
			"type": "function"
		},
		{
			"inputs": [],
			"name": "renounceOwnership",
			"outputs": [],
			"stateMutability": "nonpayable",
			"type": "function"
		},
		{
			"inputs": [
				{
					"internalType": "bytes32",
					"name": "role",
					"type": "bytes32"
				},
				{
					"internalType": "address",
					"name": "callerConfirmation",
					"type": "address"
				}
			],
			"name": "renounceRole",
			"outputs": [],
			"stateMutability": "nonpayable",
			"type": "function"
		},
		{
			"inputs": [
				{
					"internalType": "uint256",
					"name": "_marketId",
					"type": "uint256"
				},
				{
					"internalType": "uint256",
					"name": "_winningOptionId",
					"type": "uint256"
				}
			],
			"name": "resolveMarket",
			"outputs": [],
			"stateMutability": "nonpayable",
			"type": "function"
		},
		{
			"inputs": [
				{
					"internalType": "bytes32",
					"name": "role",
					"type": "bytes32"
				},
				{
					"internalType": "address",
					"name": "account",
					"type": "address"
				}
			],
			"name": "revokeRole",
			"outputs": [],
			"stateMutability": "nonpayable",
			"type": "function"
		},
		{
			"inputs": [
				{
					"internalType": "uint256",
					"name": "_marketId",
					"type": "uint256"
				},
				{
					"internalType": "uint256",
					"name": "_optionId",
					"type": "uint256"
				},
				{
					"internalType": "uint256",
					"name": "_quantity",
					"type": "uint256"
				},
				{
					"internalType": "uint256",
					"name": "_minPricePerShare",
					"type": "uint256"
				}
			],
			"name": "sellShares",
			"outputs": [],
			"stateMutability": "nonpayable",
			"type": "function"
		},
		{
			"inputs": [
				{
					"internalType": "uint256",
					"name": "_allowance",
					"type": "uint256"
				}
			],
			"name": "setFreeMarketAllowance",
			"outputs": [],
			"stateMutability": "nonpayable",
			"type": "function"
		},
		{
			"inputs": [
				{
					"internalType": "uint256",
					"name": "_feeRate",
					"type": "uint256"
				}
			],
			"name": "setPlatformFeeRate",
			"outputs": [],
			"stateMutability": "nonpayable",
			"type": "function"
		},
		{
			"inputs": [
				{
					"internalType": "bytes4",
					"name": "interfaceId",
					"type": "bytes4"
				}
			],
			"name": "supportsInterface",
			"outputs": [
				{
					"internalType": "bool",
					"name": "",
					"type": "bool"
				}
			],
			"stateMutability": "view",
			"type": "function"
		},
		{
			"inputs": [],
			"name": "tokenUpdatedAt",
			"outputs": [
				{
					"internalType": "uint256",
					"name": "",
					"type": "uint256"
				}
			],
			"stateMutability": "view",
			"type": "function"
		},
		{
			"inputs": [
				{
					"internalType": "address",
					"name": "",
					"type": "address"
				}
			],
			"name": "totalWinnings",
			"outputs": [
				{
					"internalType": "uint256",
					"name": "",
					"type": "uint256"
				}
			],
			"stateMutability": "view",
			"type": "function"
		},
		{
			"inputs": [],
			"name": "tradeCount",
			"outputs": [
				{
					"internalType": "uint256",
					"name": "",
					"type": "uint256"
				}
			],
			"stateMutability": "view",
			"type": "function"
		},
		{
			"inputs": [
				{
					"internalType": "address",
					"name": "newOwner",
					"type": "address"
				}
			],
			"name": "transferOwnership",
			"outputs": [],
			"stateMutability": "nonpayable",
			"type": "function"
		},
		{
			"inputs": [],
			"name": "unpause",
			"outputs": [],
			"stateMutability": "nonpayable",
			"type": "function"
		},
		{
			"inputs": [
				{
					"internalType": "address",
					"name": "_newToken",
					"type": "address"
				}
			],
			"name": "updateBettingToken",
			"outputs": [],
			"stateMutability": "nonpayable",
			"type": "function"
		},
		{
			"inputs": [
				{
					"internalType": "address",
					"name": "_newToken",
					"type": "address"
				}
			],
			"name": "updateBettingTokenAddress",
			"outputs": [],
			"stateMutability": "nonpayable",
			"type": "function"
		},
		{
			"inputs": [
				{
					"internalType": "address",
					"name": "",
					"type": "address"
				}
			],
			"name": "userFreeSharesUsed",
			"outputs": [
				{
					"internalType": "uint256",
					"name": "",
					"type": "uint256"
				}
			],
			"stateMutability": "view",
			"type": "function"
		},
		{
			"inputs": [
				{
					"internalType": "address",
					"name": "",
					"type": "address"
				},
				{
					"internalType": "uint256",
					"name": "",
					"type": "uint256"
				}
			],
			"name": "userOrders",
			"outputs": [
				{
					"internalType": "uint256",
					"name": "",
					"type": "uint256"
				}
			],
			"stateMutability": "view",
			"type": "function"
		},
		{
			"inputs": [
				{
					"internalType": "address",
					"name": "",
					"type": "address"
				}
			],
			"name": "userPortfolios",
			"outputs": [
				{
					"internalType": "uint256",
					"name": "totalInvested",
					"type": "uint256"
				},
				{
					"internalType": "uint256",
					"name": "totalWinnings",
					"type": "uint256"
				},
				{
					"internalType": "int256",
					"name": "unrealizedPnL",
					"type": "int256"
				},
				{
					"internalType": "int256",
					"name": "realizedPnL",
					"type": "int256"
				},
				{
					"internalType": "uint256",
					"name": "tradeCount",
					"type": "uint256"
				}
			],
			"stateMutability": "view",
			"type": "function"
		},
		{
			"inputs": [
				{
					"internalType": "address",
					"name": "",
					"type": "address"
				},
				{
					"internalType": "uint256",
					"name": "",
					"type": "uint256"
				}
			],
			"name": "userTradeHistory",
			"outputs": [
				{
					"internalType": "uint256",
					"name": "marketId",
					"type": "uint256"
				},
				{
					"internalType": "uint256",
					"name": "optionId",
					"type": "uint256"
				},
				{
					"internalType": "address",
					"name": "buyer",
					"type": "address"
				},
				{
					"internalType": "address",
					"name": "seller",
					"type": "address"
				},
				{
					"internalType": "uint256",
					"name": "price",
					"type": "uint256"
				},
				{
					"internalType": "uint256",
					"name": "quantity",
					"type": "uint256"
				},
				{
					"internalType": "uint256",
					"name": "timestamp",
					"type": "uint256"
				},
				{
					"internalType": "enum PolicastMarketV2.OrderType",
					"name": "orderType",
					"type": "uint8"
				}
			],
			"stateMutability": "view",
			"type": "function"
		},
		{
			"inputs": [
				{
					"internalType": "uint256",
					"name": "_marketId",
					"type": "uint256"
				}
			],
			"name": "validateMarket",
			"outputs": [],
			"stateMutability": "nonpayable",
			"type": "function"
		}
	]
}