{
	"data": {
		"bytecode": {
			"linkReferences": {},
			"object": "6080346100fd57601f615a5038819003918201601f19168301916001600160401b03831184841017610101578084926020946040528339810103126100fd57516001600160a01b03811681036100fd5733156100ea575f8054336001600160a01b0319821681178355916001600160a01b03909116907f8be0079c531659141344cd1fd0a4f28419497f9722a3daafe3b4186f6b6457e09080a36001805560c860089081556103e860095560038054610100600160a81b0319169290911b610100600160a81b0316919091179055426005556100da33610115565b50604051615891908161019f8239f35b631e4fbdf760e01b5f525f60045260245ffd5b5f80fd5b634e487b7160e01b5f52604160045260245ffd5b6001600160a01b0381165f9081525f516020615a305f395f51905f52602052604090205460ff16610199576001600160a01b03165f8181525f516020615a305f395f51905f5260205260408120805460ff191660011790553391907f2f8788117e7eff1d82e926ec794901d17c78024a50270940304540a733656f0d8180a4600190565b505f9056fe6080806040526004361015610012575f80fd5b5f3560e01c90816301ffc9a714614dcc5750806305e33dd014614d5457806308693f3c14614d0f5780630da183d614614cf45780631029191a14614cd757806312c413af14614cbc5780631557198114614c105780631cb1de2f14614b7f5780631edb27e914614ac857806321b86dc214614aa7578063222fa26714614a06578063248a9ca3146149db57806326e127521461490a57806329cf655b146136215780632a49b428146140cf5780632f2ff15d1461409157806332617b701461405757806333031b061461386357806335037e0b146137e757806336568abe146137a35780633ec79193146136d05780633f4ba83a1461366a578063417257f91461364d57806343425e88146136215780634a2021ef146135065780634bdd45fb146134de5780635a2db6fb1461309e5780635c975abb1461307c5780636055733314612f81578063677bd9ff14612d425780636db3b4dc14612cc65780636eae429714612b7a578063715018a614612b23578063755f062914612ae957806377b4a3e714612aaf5780637c946454146129475780637e50898e14612929578063835dc40b146128985780638456cb591461283f5780638b8840e0146128075780638da5cb5b146127e057806391d1485414612797578063927fef2e1461275e57806392f012b214612742578063a217fddf14612728578063a75dd115146126ce578063a8cc7f19146126bd578063ab44e635146125eb578063abdce1a41461256f578063b1ab13ff14612534578063b41acdbe146124fc578063b61920c114612498578063bd55022a1461247b578063c07d1449146121dd578063c2454af714612145578063d547741f14612100578063d8c39bd7146120b3578063d911f198146116da578063e9ca2026146113bc578063ec97908214610433578063ed88123014610f40578063eeca08f014610f23578063f2fde38b14610e9e578063f355f2e714610dd9578063f98ce1ba146104c5578063fc12524c14610450578063fd69f3c2146104335763fdd3cdf614610308575f80fd5b3461042f57602036600319011261042f57610321614e34565b5f546001600160a01b0316331415806103f7575b6103e8576001600160a01b0381169081156103d957600354600881901c6001600160a01b0316918383146103ca57600480546001600160a01b03191684179055610100600160a81b031990911660089190911b610100600160a81b0316176003554260058190556040519081527fa16c473a31f9f07338cd1d3ccebda80cefdc0cb743aec539af892abfbf5a534e90602090a3005b63100dac0560e11b5f5260045ffd5b63c1ab6dc160e01b5f5260045ffd5b6361685c2b60e01b5f5260045ffd5b50335f9081527fac33ff75c19e70fe83507db0d683fd3465c996598dc972688b7ace676c89077b602052604090205460ff1615610335565b5f80fd5b3461042f575f36600319011261042f576020600654604051908152f35b3461042f57602036600319011261042f5760043561046c6153fd565b6006548110156104b657805f52600a602052600560405f2001600160ff198254161790557f0b939016779c3297135b58aed6d343cf103faf818ea07a7c5f87b03a9bd872975f80a2005b639db8d5b160e01b5f5260045ffd5b3461042f5760e036600319011261042f576004356001600160401b03811161042f576104f5903690600401614f7a565b6024356001600160401b03811161042f57610514903690600401614f7a565b6044356001600160401b03811161042f57610533903690600401614fe6565b6064356001600160401b03811161042f57610552903690600401614fe6565b6084359060a435600881101561042f5760c43593600385101561042f57610577615423565b61057f615423565b5f546001600160a01b031633141580610db4575b610da557610e1084108015610d98575b610d8957865115610d7a57805160028110908115610d6f575b50610d60578051835103610d51576003546040516323b872dd60e01b8152336004820152306024820152683635c9adc5dea00000604482015290602090829060649082905f9060081c6001600160a01b03165af1908115610d46575f91610d17575b5015610d0857600654936106318561526f565b600655845f52600a60205260405f209688516001600160401b0381116109e65761065b895461510f565b601f8111610cc3575b50806020601f8211600114610c60575f91610c55575b508160011b915f199060031b1c19161788555b805160018901916001600160401b0382116109e6576106ac835461510f565b601f8111610c10575b50602090601f8311600114610ba8576106ed949392915f9183610b9d575b50508160011b915f199060031b1c19161790555b42615219565b6002870190815560038701805461ffff191660ff851617600888811b61ff0016919091179091556005880180546301000000600160b81b0319163360181b6301000000600160b81b03161790554290880155815160098801819055683635c9adc5dea00000600a8901559097908015610b8957670de0b6b3a7640000049582518015610b8957600b9098019897683635c9adc5dea0000004935f5b8451811015610ab85761079b8186615243565b51868c6107a8848b615243565b51604051936107b685614f3d565b8452602084019081528c604085015f815260608601905f82526080870192835260a08701936001855260c088019587875260e08901978852895f5260205260405f2097518051906001600160401b0382116109e65781906108178b5461510f565b601f8111610a68575b50602090601f8311600114610a05575f926109fa575b50508160011b915f199060031b1c19161788555b51805160018901916001600160401b0382116109e65761086a835461510f565b601f81116109a1575b50602090601f831160011461092f5792826108da969360019d9c9b99969360079b99965f92610924575b50505f19600383901b1c1916908d1b1790555b516002890155516003880155516004870155511515600586019060ff801983541691151516179055565b51600684015551910155885f52600e60205260405f20815f5260205261091e60405f206040519061090a82614f07565b8c82524260208301525f604083015261527d565b01610788565b015190505f8061089d565b90601f19831691845f52815f20925f5b81811061098957509360019d9c9b99969360079b9996938f93836108da9b9810610971575b505050811b0190556108b0565b01515f1960f88460031b161c191690555f8080610964565b9293602060018192878601518155019501930161093f565b835f5260205f20601f840160051c810191602085106109dc575b601f0160051c01905b8181106109d15750610873565b5f81556001016109c4565b90915081906109bb565b634e487b7160e01b5f52604160045260245ffd5b015190505f80610836565b5f8c81528281209350601f198516905b818110610a505750908460019594939210610a38575b505050811b01885561084a565b01515f1960f88460031b161c191690555f8080610a2b565b92936020600181928786015181550195019301610a15565b9091508a5f5260205f20601f840160051c81019160208510610aae575b90601f859493920160051c01905b818110610aa05750610820565b5f8155849350600101610a93565b9091508190610a85565b50869184918a610ad085610acb846150e1565b6152ce565b610add85610acb856150f8565b54610af36040519660c0885260c0880190614e8f565b8681036020880152845180825260208201916020808360051b8301019701925f915b838310610b5c5760208a805f51602061583c5f395f51905f528e808e8e610b468f8f60408601526060850190615064565b60808301523360a08301520390a2604051908152f35b9091929397602080610b7a600193601f198682030187528c51614e8f565b9a019301930191939290610b15565b634e487b7160e01b5f52601260045260245ffd5b015190508c806106d3565b90601f19831691845f52815f20925f5b818110610bf857509160019391856106ed9897969410610be0575b505050811b0190556106e7565b01515f1960f88460031b161c191690558c8080610bd3565b92936020600181928786015181550195019301610bb8565b835f5260205f20601f840160051c81019160208510610c4b575b601f0160051c01905b818110610c4057506106b5565b5f8155600101610c33565b9091508190610c2a565b90508a01518b61067a565b5f8b81528181209250601f198416905b8d828210610cab5750509083600194939210610c93575b5050811b01885561068d565b8c01515f1960f88460031b161c191690558b80610c87565b60018495602093958493015181550194019201610c70565b895f5260205f20601f830160051c81019160208410610cfe575b601f0160051c01905b818110610cf35750610664565b5f8155600101610ce6565b9091508190610cdd565b6312171d8360e31b5f5260045ffd5b610d39915060203d602011610d3f575b610d318183614f59565b810190615257565b8861061e565b503d610d27565b6040513d5f823e3d90fd5b631fec674760e31b5f5260045ffd5b63dab5b42b60e01b5f5260045ffd5b600a915011886105bc565b630d5003f360e01b5f5260045ffd5b634d84c2e960e01b5f5260045ffd5b506301e1338084116105a3565b63ea8e4eb560e01b5f5260045ffd5b50335f9081525f51602061581c5f395f51905f52602052604090205460ff1615610593565b3461042f57610de73661508f565b915f52600a602052600b60405f2001905f5260205260405f2060066007820154838082115f14610e9457610e1a91615302565b915b015491670de0b6b3a7640000830292808404670de0b6b3a76400001490151715610e8057610e56610e5b92670de0b6b3a764000094615239565b615226565b046103e58102908082046103e51490151715610e80576020906103e860405191048152f35b634e487b7160e01b5f52601160045260245ffd5b5060011c91610e1c565b3461042f57602036600319011261042f57610eb7614e34565b610ebf6153fd565b6001600160a01b03168015610f10575f80546001600160a01b03198116831782556001600160a01b0316907f8be0079c531659141344cd1fd0a4f28419497f9722a3daafe3b4186f6b6457e09080a3005b631e4fbdf760e01b5f525f60045260245ffd5b3461042f575f36600319011261042f576020600854604051908152f35b3461042f57610f4e36615071565b610f5992919261577f565b610f61615423565b6006548410156104b657835f52600a602052600260405f2001544210156113ad57835f52600a60205260ff600560405f2001541661139e57835f52600a602052600960405f20015482101561138f57835f52600a602052600b60405f2001825f5260205260ff600560405f200154161561138057821561137157835f52600a60205260ff600560405f20015460101c1615611362575f848152600a60209081526040808320858452600b8101909252909120600481015490939192919091821161135357670de0b6b3a76400006110388684615226565b049461271061104960085488615226565b04936110558588615219565b6003546040516323b872dd60e01b81523360048201523060248201526044810183905291929190602090829060081c6001600160a01b0316815f816064810103925af1908115610d46575f91611334575b5015610d085780600c6010920160018060a01b0333165f528060205260405f20865f5260205260405f20541580611324575b6112f8575b60018060a01b0333165f5260205260405f20855f5260205260405f20611104858254615219565b905560028801611115858254615219565b9055600388016111268a8254615219565b9055600681016111378a8254615219565b9055600781016111488a8254615219565b905501611156868254615219565b9055335f52600b60205261116f60405f20918254615219565b9055335f52600b602052600460405f200161118a815461526f565b9055865f52600a602052600b60405f2001825f5260205260405f206111b9826006600784015493015492615219565b670de0b6b3a7640000820291808304670de0b6b3a76400001490151715610e80577faf7c505ee772ec188af7067e1f73db08ab028e3d564273442b907742b9c41fa09760209761120e60049361124695615239565b9283910155895f52600e885260405f20855f52885260405f20906040519261123584614f07565b83524289840152604083015261527d565b61129f60405161125581614f22565b88815283878201523360408201525f60608201528460808201528260a08201524260c0820152335f52600c875261128f8160405f2061530f565b885f52600d875260405f2061530f565b600754906112ac8261526f565b600755604051935f85528685015260408401526060830152857f976184626638b6c7e51a4ab66b297beb1714b545ce4e867a70d622566573098c60803394a4604051908152a260018055005b61130533600e84016153e0565b335f52600b60205260405f20546110dd5761131f3361539b565b6110dd565b5061132f8b3361579f565b6110d8565b61134d915060203d602011610d3f57610d318183614f59565b8a6110a6565b63127f08c960e11b5f5260045ffd5b636864aac360e11b5f5260045ffd5b632e11316f60e11b5f5260045ffd5b63f6b715c360e01b5f5260045ffd5b632a71953160e01b5f5260045ffd5b63aa43cb2d60e01b5f5260045ffd5b63262b753160e21b5f5260045ffd5b3461042f5760a036600319011261042f576064356024356004356044356113e161577f565b6113e9615423565b6006548210156104b657815f52600a602052600260405f2001544210156113ad57815f52600a60205260ff600560405f2001541661139e578083146116cb578315611371575f828152600a60209081526040808320338452600c01825280832086845290915290205484116116bc57815f52600a60205260405f2092600b840190805f528160205260405f2091835f5260205260405f2095600783019384549460078901958654986126f285028581046126f203610e80578a6114be6114b76127106114c494048093615226565b9185615219565b90615239565b996084358b106116ad578a101561169e576114e185600c93615219565b83556114ee8a8954615302565b88550160018060a01b0333165f528060205260405f20855f5260205260405f20611519858254615302565b905560018060a01b0333165f5260205260405f20825f5260205260405f20611542898254615219565b9055600685015490670de0b6b3a7640000820291808304670de0b6b3a76400001490151715610e8057600491611579915490615239565b94019384556006880154670de0b6b3a7640000810290808204670de0b6b3a76400001490151715610e805760209861162d60a09660046115df611676957fca95f9f211eceb8cf82eff4e16ae708336f056d94515a268f4b8fd1f5c08ef509b5490615239565b9301928355895f52600e8c5260405f20875f528c5260405f20905490670de0b6b3a764000061160e8389615226565b046040519261161c84614f07565b8352428e840152604083015261527d565b875f52600e8a5260405f20835f528a5260405f20905490670de0b6b3a7640000611657838c615226565b046040519261166584614f07565b8352428c840152604083015261527d565b604051928352878301526040820152846060820152336080820152a260018055604051908152f35b63bb55fd2760e01b5f5260045ffd5b63bb2875c360e01b5f5260045ffd5b633999656760e01b5f5260045ffd5b6302ef184b60e31b5f5260045ffd5b61012036600319011261042f576004356001600160401b03811161042f57611706903690600401614f7a565b6024356001600160401b03811161042f57611725903690600401614f7a565b6044356001600160401b03811161042f57611744903690600401614fe6565b916064356001600160401b03811161042f57611764903690600401614fe6565b6084359060a43592600884101561042f5760e4356001600160401b03811161042f57611794903690600401614f7a565b9561010435946117a2615423565b34156120a4576117b0615423565b5f546001600160a01b03163314158061207f575b610da557610e1085108015612072575b610d8957825115610d7a57815160028110908115612067575b50610d60578151845103610d515768056bc75e2d631000008610612058576003546040516323b872dd60e01b81523360048201523060248201526044810188905290602090829060081c6001600160a01b0316815f816064810103925af1908115610d46575f91612039575b5015610d08576006549461186c8661526f565b600655855f52600a60205260405f209784516001600160401b0381116109e6576118968a5461510f565b601f8111611ff4575b50806020601f8211600114611f93575f91611f88575b508160011b915f199060031b1c19161789555b805160018a01916001600160401b0382116109e6576118e7835461510f565b601f8111611f43575b50602090601f8311600114611edc57611926949392915f9183611ed15750508160011b915f199060031b1c191617905542615219565b6002880190815560038801805461ffff191660ff8416176102001790556005880180546301000000600160b81b0319163360181b6301000000600160b81b0316179055426008890155825160098901819055600a89018890559098908015610b89576119a290670de0b6b3a76400009a999a0497845190615239565b93600b5f9a01995b8451811015611c8c576119bd8186615243565b51868c6119ca848b615243565b51604051936119d885614f3d565b8452602084019081528c604085015f815260608601905f82526080870192835260a08701936001855260c088019587875260e08901978852895f5260205260405f2097518051906001600160401b0382116109e6578190611a398b5461510f565b601f8111611c3c575b50602090601f8311600114611bd9575f92611bce575b50508160011b915f199060031b1c19161788555b51805160018901916001600160401b0382116109e657611a8c835461510f565b601f8111611b89575b50602090601f8311600114611b30579282611afa969360019d9c9b99969360079b99965f926109245750505f19600383901b1c1916908d1b179055516002890155516003880155516004870155511515600586019060ff801983541691151516179055565b51600684015551910155885f52600e60205260405f20815f52602052611b2a60405f206040519061090a82614f07565b016119aa565b90601f19831691845f52815f20925f5b818110611b7157509360019d9c9b99969360079b9996938f9383611afa9b981061097157505050811b0190556108b0565b92936020600181928786015181550195019301611b40565b835f5260205f20601f840160051c81019160208510611bc4575b601f0160051c01905b818110611bb95750611a95565b5f8155600101611bac565b9091508190611ba3565b015190505f80611a58565b5f8c81528281209350601f198516905b818110611c245750908460019594939210611c0c575b505050811b018855611a6c565b01515f1960f88460031b161c191690555f8080611bff565b92936020600181928786015181550195019301611be9565b9091508a5f5260205f20601f840160051c81019160208510611c82575b90601f859493920160051c01905b818110611c745750611a42565b5f8155849350600101611c67565b9091508190611c59565b508690848a611c9e84610acb886150e1565b611cac84610acb60026150f8565b5494611cc36040519360c0855260c0850190614e8f565b8381036020850152825180825260208201906020808260051b8501019501915f905b828210611ea057604088018b90528989805f51602061583c5f395f51905f528b808c611d14606083018e615064565b600260808301523360a08301520390a25f818152600a602052604090206017810180546001600160a01b0319163317905534601882015560c435601982015582519290601b016001600160401b0384116109e657611d72815461510f565b93601f8511611e5b575b602094508085601f8211600114611dfb575f91611df0575b508160011b915f199060031b1c19161790555b817f5ecba3331a79c832c0833d5f1b33759b26d8743c93f4a1b5402053fcbe29de8460405134815260408682015280611de533956040830190614e8f565b0390a3604051908152f35b905083015186611d94565b5f8481528181209250601f198416905b818110611e4457509083600194939210611e2c575b5050811b019055611da7565b8501515f1960f88460031b161c191690558680611e20565b91928860018192868a015181550194019201611e0b565b815f5260205f20601f820160051c81019560208310611e96575b601f0160051c01945b858110611e8b5750611d7c565b5f8155600101611e7e565b9095508590611e75565b90919295602080611ec0600193889e98601f199082030186528a51614e8f565b980192019201909291999399611ce5565b015190508d806106d3565b90601f19831691845f52815f20925f5b818110611f2b57509160019391856119269897969410611f1357505050811b0190556106e7565b01515f1960f88460031b161c191690558d8080610bd3565b92936020600181928786015181550195019301611eec565b835f5260205f20601f840160051c81019160208510611f7e575b601f0160051c01905b818110611f7357506118f0565b5f8155600101611f66565b9091508190611f5d565b90508601518c6118b5565b5f8c81528181209250601f198416905b818110611fdc57509083600194939210611fc4575b5050811b0189556118c8565b8801515f1960f88460031b161c191690558c80611fb8565b9192602060018192868d015181550194019201611fa3565b8a5f5260205f20601f830160051c8101916020841061202f575b601f0160051c01905b818110612024575061189f565b5f8155600101612017565b909150819061200e565b612052915060203d602011610d3f57610d318183614f59565b89611859565b63cca3833560e01b5f5260045ffd5b600a915011896117ed565b506301e1338085116117d4565b50335f9081525f51602061581c5f395f51905f52602052604090205460ff16156117c4565b63697df94b60e11b5f5260045ffd5b3461042f57604036600319011261042f57600435600381101561042f576120dc602435916150f8565b805482101561042f576020916120f191614e1f565b90549060031b1c604051908152f35b3461042f57604036600319011261042f5761214360043561211f614e4a565b9061213e612139825f526002602052600160405f20015490565b61543e565b6156fb565b005b3461042f5761215d612156366150c2565b91906150e1565b805490818311156121d657815b612173836151e7565b93808211156121ce5761218591615302565b5f5b8381106121a0576040518061219c8782614eb3565b0390f35b806121b66121b060019385615219565b85614e1f565b90549060031b1c6121c78288615243565b5201612187565b50505f612185565b829161216a565b3461042f576121eb36614e79565b906121f461577f565b6121fc615423565b6006548110156104b657805f52600a602052600260405f2001544210156113ad57805f52600a60205260ff600560405f2001541661139e57805f52600a602052600960405f20015482101561138f57805f52600a602052600b60405f2001825f5260205260ff600560405f200154161561138057805f52600a60205260405f2060ff600382015460081c166003811015612467576001036124585760ff6014820154161561244957335f90815260158201602081905260409091205460ff1661243a57601382019182546011820154111561242b57335f52601260205260405f2054926122ee60128301548095615219565b6009541061241c57335f90815260209384526040808220805460ff1916600117905560168401909452929092208390558154600b929061232d9061526f565b9055335f52601260205260405f20612346848254615219565b9055612352843361579f565b6123f1575b60018060a01b0333165f52600c810160205260405f20855f5260205260405f20612382848254615219565b9055845f5201602052600260405f200161239d828254615219565b9055335f52600b602052600460405f20016123b8815461526f565b905560405192835260208301527fba1358e4391d1f20b35776c79553f82c2795e406eb2237bcd294702bf75bd56d60403393a360018055005b6123fe33600e83016153e0565b335f528160205260405f2054612357576124173361539b565b612357565b63b8c6679960e01b5f5260045ffd5b631d28dd2d60e01b5f5260045ffd5b6302e98e0360e31b5f5260045ffd5b636883c16d60e01b5f5260045ffd5b6348c511c960e11b5f5260045ffd5b634e487b7160e01b5f52602160045260245ffd5b3461042f575f36600319011261042f576020600754604051908152f35b3461042f57602036600319011261042f576001600160a01b036124b9614e34565b165f52600b60205260a060405f20805490600181015490600281015460046003830154920154926040519485526020850152604084015260608301526080820152f35b3461042f57602036600319011261042f576001600160a01b0361251d614e34565b165f526012602052602060405f2054604051908152f35b3461042f57602061256761254736614e79565b905f52600a602052600b60405f2001905f52602052600460405f20015490565b604051908152f35b3461042f57602036600319011261042f5761214361258b614e34565b6125936153fd565b7fd486618b282cb35034d59c30c062b5b3822d6cdf87ec459191ce7f5b7b8a48735f5260026020527fd3dccf8d8289b9deee17e361620d7577de7b525dd57f668d5c1bb85ec53112b6546125e69061543e565b6155c9565b3461042f57602036600319011261042f576004356006548110156104b657335f9081527fd3dccf8d8289b9deee17e361620d7577de7b525dd57f668d5c1bb85ec53112b5602052604090205460ff1615806126a9575b610da557805f52600a60205260ff600560405f20015460101c1661139e57805f52600a602052600560405f20016201000062ff0000198254161790557fcd5b0c95d548cdba5f9a45b4210642d0b866a0cc878e0a863855455908c6db656020604051338152a2005b505f546001600160a01b0316331415612641565b3461042f576120dc612156366150c2565b3461042f576126dc3661508f565b915f52600e60205260405f20905f5260205260405f20805482101561042f57606091612707916150a9565b50805490600260018201549101549060405192835260208301526040820152f35b3461042f575f36600319011261042f5760206040515f8152f35b3461042f575f36600319011261042f576020604051610e108152f35b3461042f57602036600319011261042f5760043561277a6153fd565b6103e8811161278857600855005b63cd4e616760e01b5f5260045ffd5b3461042f57604036600319011261042f576127b0614e4a565b6004355f52600260205260405f209060018060a01b03165f52602052602060ff60405f2054166040519015158152f35b3461042f575f36600319011261042f575f546040516001600160a01b039091168152602090f35b3461042f57602036600319011261042f576001600160a01b03612828614e34565b165f526010602052602060405f2054604051908152f35b3461042f575f36600319011261042f576128576153fd565b61285f615423565b600160ff1960035416176003557f62e78cea01bee320cd4e420270b5ea74000d11b0c9f74754ebdbfc544b05a2586020604051338152a1005b3461042f57604036600319011261042f576004356128b4614e4a565b906006548110156104b6575f52600a60205260405f20906009820154906128da826151e7565b92600c01906001600160a01b03165f5b8381106128ff576040518061219c8782614eb3565b600190825f528360205260405f20815f5260205260405f20546129228288615243565b52016128ea565b3461042f575f36600319011261042f5760206040516301e133808152f35b3461042f576129553661508f565b915f52600e60205260405f20905f5260205260405f208054908183115f14612aa857815b61298283614fcf565b936129906040519586614f59565b838552601f1961299f85614fcf565b015f5b818110612a7f57505080821115612a77576129bc91615302565b5f5b838110612a2157846040518091602082016020835281518091526020604084019201905f5b8181106129f1575050500390f35b919350916020606060019260408751805183528481015185840152015160408201520194019101918493926129e3565b80612a37612a3160019385615219565b856150a9565b50600260405191612a4783614f07565b8054835284810154602084015201546040820152612a658288615243565b52612a708187615243565b50016129be565b50505f6129bc565b602090604051612a8e81614f07565b5f81525f838201525f604082015282828a010152016129a2565b8291612979565b3461042f575f36600319011261042f5760206040517fef485be696bbc0c91ad541bbd553ffb5bd0e18dac30ba76e992dda23cb807a8a8152f35b3461042f575f36600319011261042f5760206040517fdcee1d35c83a32b436264a5c9afd68685c124f3f9097e87804c55410e67fc59a8152f35b3461042f575f36600319011261042f57612b3b6153fd565b5f80546001600160a01b0319811682556001600160a01b03167f8be0079c531659141344cd1fd0a4f28419497f9722a3daafe3b4186f6b6457e08280a3005b3461042f57612b8836614e79565b90612b9161577f565b6006548110156104b6578115611371576003546040516323b872dd60e01b81523360048201523060248201526044810184905290602090829060081c6001600160a01b0316815f816064810103925af1908115610d46575f91612ca7575b5015610d0857805f52600a60205260405f2090600a8201612c11848254615219565b90556009820191612c23835485615239565b91600b5f9201915b8454811015612c7357806001915f5283602052600660405f2001612c50868254615219565b9055805f5283602052600760405f2001612c6b868254615219565b905501612c2b565b85826040519182527fc733c2813826d31c105dbff518b08258e9e7aeb3eb1c7c7f642d77696faf501d60203393a360018055005b612cc0915060203d602011610d3f57610d318183614f59565b83612bef565b3461042f57602036600319011261042f57612143612ce2614e34565b612cea6153fd565b7fef485be696bbc0c91ad541bbd553ffb5bd0e18dac30ba76e992dda23cb807a8a5f5260026020527f30d995518b427f5a5863ad73fe356ca50cf70941f42c516830919c845fa5807054612d3d9061543e565b615536565b3461042f57602036600319011261042f57600435612d5e61577f565b6006548110156104b657805f52600a60205260405f2090600582015460ff811615908115612f73575b50612f6457600d82019160018060a01b0333165f528260205260ff60405f205416612f5557335f908152600c8201602090815260408083206004850154808552925290912054908115612f465782612e49612e4e92600b612e549601815f5280602052612e226006600260405f200154950154835f5282602052670de0b6b3a7640000612e1b600460405f20015488615226565b0490615302565b915f52602052670de0b6b3a7640000612e42600460405f20015487615226565b0494615226565b615239565b90615219565b9160018060a01b0333165f5260205260405f20600160ff19825416179055335f52600b602052600160405f2001612e8c838254615219565b9055335f52601060205260405f20612ea5838254615219565b905560035460405163a9059cbb60e01b81523360048201526024810184905290602090829060081c6001600160a01b0316815f816044810103925af1908115610d46575f91612f27575b5015610d08576040519182527f4ec90e965519d92681267467f775ada5bd214aa92c0dc93d90a5e880ce9ed02660203393a360018055005b612f40915060203d602011610d3f57610d318183614f59565b83612eef565b63843f941b60e01b5f5260045ffd5b630c8d9eab60e31b5f5260045ffd5b6356c5d21d60e01b5f5260045ffd5b60ff915060081c1683612d87565b3461042f57612f8f36614e79565b6006548210156104b6575f546001600160a01b031633141580613044575b610da557815f52600a60205260405f20906002820154421061303557600582019081549160ff831661139e5760098401548210156130265760016040938360047fc160a477581cb2155b1578581d805dcc0e6623403811fc2853465045bc0b049297015560ff19161790558151908152336020820152a2005b631387e78360e11b5f5260045ffd5b63123099e160e11b5f5260045ffd5b50335f9081527f8e2c297e756b2a427c5dc4607f639842a8ea6e0f6322302f4ea76306b642cfc2602052604090205460ff1615612fad565b3461042f575f36600319011261042f57602060ff600354166040519015158152f35b3461042f576130ac36615071565b6130b461577f565b6130bc615423565b6006548410156104b657835f52600a602052600260405f2001544210156113ad57835f52600a60205260ff600560405f2001541661139e57835f52600a602052600960405f20015483101561138f57835f52600a602052600b60405f2001835f5260205260ff600560405f2001541615611380578115611371575f848152600a60209081526040808320338452600c01825280832086845290915290205482116116bc575f848152600a60209081526040808320868452600b81019092529091206004810154919282106134cf57670de0b6b3a764000061319d8584615226565b04906127106131ae60085484615226565b049360106131bc8685615302565b9160018060a01b0333165f52600c810160205260405f20895f5260205260405f206131e8898254615302565b9055600284016131f9898254615302565b90556003840161320a868254615219565b90556007810161321b868254615219565b905501613229868254615219565b9055875f52600a602052600b60405f2001875f5260205260405f206006600782015491015490878082115f146134c55761326291615302565b905b670de0b6b3a7640000810290808204670de0b6b3a76400001490151715610e805760049161329191615239565b9201918255670de0b6b3a76400006132a98786615226565b04905f828203921281831281169082841390151617610e8057335f52600b602052600360405f200180545f8482019485129112908015821691151617610e80575f946020946133dd946133469355338752600b86526004604088200161330f815461526f565b90558b8752600e8652604087208b88528652604087209054916040519261333584614f07565b83524287840152604083015261527d565b61339f60405161335581614f22565b8a815289858201528560408201523360608201528660808201528860a08201524260c0820152338652600c855261338f816040882061530f565b8a8652600d85526040862061530f565b60035460405163a9059cbb60e01b815233600482015260248101929092529093849260089290921c6001600160a01b03169183919082906044820190565b03925af1908115610d46575f916134a6575b5015610d08577faf7c505ee772ec188af7067e1f73db08ab028e3d564273442b907742b9c41fa093857f976184626638b6c7e51a4ab66b297beb1714b545ce4e867a70d622566573098c60805f94602097604051818152828a82015286867f33c49da1ff633ff516cc2661d0cd94af11b7b76985b6fe549151782c14db745a60403394a4600754906134808261526f565b600755604051923384528a84015260408301526060820152a4604051908152a260018055005b6134bf915060203d602011610d3f57610d318183614f59565b866133ef565b5060011c90613264565b636dddf41160e11b5f5260045ffd5b3461042f575f36600319011261042f576004546040516001600160a01b039091168152602090f35b3461042f57604036600319011261042f576004356024356001600160401b03811161042f57613539903690600401614f7a565b6006548210156104b657815f52600a60205260ff600560405f200154161561361257815f52600a60205260ff600560405f20015460081c16612f55575f828152600a60209081526040808320338452600c810183528184206004909101548452909152902054613603576135fe7ff20590b2cb9af0bb070ad77de2c0b74db291dd43666e7a386ffb0e65974b050a91835f52600a602052600560405f200161010061ff0019825416179055604051918291338352604060208401526040830190614e8f565b0390a2005b635a570b3d60e01b5f5260045ffd5b63174b639360e11b5f5260045ffd5b3461042f575f36600319011261042f5760035460405160089190911c6001600160a01b03168152602090f35b3461042f575f36600319011261042f576020600954604051908152f35b3461042f575f36600319011261042f576136826153fd565b60035460ff8116156136c15760ff19166003557f5db9ee0a495bf2e6ff9c91a7834c1ba4fdd244a5e8aa4e537bd38aeae4b073aa6020604051338152a1005b638dfc202b60e01b5f5260045ffd5b3461042f57602036600319011261042f576004356006548110156104b6575f52600a60205261374c60405f20600281015460ff60038301541660098301549060058401549161376a60048601549261375a613736600161372f8a615147565b9901615147565b604051998a996101208b526101208b0190614e8f565b9089820360208b0152614e8f565b9560408801526060870190615064565b608085015260ff828116151560a0860152600883901c16151560c085015260e084015260181c6001600160a01b03166101008301520390f35b3461042f57604036600319011261042f576137bc614e4a565b336001600160a01b038216036137d857612143906004356156fb565b63334bd91960e11b5f5260045ffd5b3461042f57602036600319011261042f57612143613803614e34565b61380b6153fd565b7fdcee1d35c83a32b436264a5c9afd68685c124f3f9097e87804c55410e67fc59a5f5260026020527f8e2c297e756b2a427c5dc4607f639842a8ea6e0f6322302f4ea76306b642cfc35461385e9061543e565b615478565b3461042f5761010036600319011261042f576004356001600160401b03811161042f57613894903690600401614f7a565b6024356001600160401b03811161042f576138b3903690600401614f7a565b6044356001600160401b03811161042f576138d2903690600401614fe6565b916064356001600160401b03811161042f576138f2903690600401614fe6565b6084359060a435600881101561042f5760c43595600387101561042f5760e4359461391b615423565b5f546001600160a01b031633141580614032575b610da557610e1085108015614025575b610d8957805115610d7a5781516002811090811561401a575b50610d60578151845103610d515768056bc75e2d631000008610612058576003546040516323b872dd60e01b81523360048201523060248201526044810188905290602090829060081c6001600160a01b0316815f816064810103925af1908115610d46575f91613ffb575b5015610d0857600654946139d78661526f565b600655855f52600a60205260405f209782516001600160401b0381116109e657613a018a5461510f565b601f8111613fb6575b50806020601f8211600114613f55575f91613f4a575b508160011b915f199060031b1c19161789555b805160018a01916001600160401b0382116109e657613a52835461510f565b601f8111613f05575b50602090601f8311600114613eb657613a91949392915f9183611ed15750508160011b915f199060031b1c191617905542615219565b6002880190815560038801805461ffff191660ff86161760088b811b61ff0016919091179091556005890180546301000000600160b81b0319163360181b6301000000600160b81b03161790554290890155825160098901819055600a89018890559098908015610b8957613b1690670de0b6b3a76400009a999a0497845190615239565b93600b5f9a01995b8451811015613e0057613b318186615243565b51868c613b3e848b615243565b5160405193613b4c85614f3d565b8452602084019081528c604085015f815260608601905f82526080870192835260a08701936001855260c088019587875260e08901978852895f5260205260405f2097518051906001600160401b0382116109e6578190613bad8b5461510f565b601f8111613db0575b50602090601f8311600114613d4d575f92613d42575b50508160011b915f199060031b1c19161788555b51805160018901916001600160401b0382116109e657613c00835461510f565b601f8111613cfd575b50602090601f8311600114613ca4579282613c6e969360019d9c9b99969360079b99965f926109245750505f19600383901b1c1916908d1b179055516002890155516003880155516004870155511515600586019060ff801983541691151516179055565b51600684015551910155885f52600e60205260405f20815f52602052613c9e60405f206040519061090a82614f07565b01613b1e565b90601f19831691845f52815f20925f5b818110613ce557509360019d9c9b99969360079b9996938f9383613c6e9b981061097157505050811b0190556108b0565b92936020600181928786015181550195019301613cb4565b835f5260205f20601f840160051c81019160208510613d38575b601f0160051c01905b818110613d2d5750613c09565b5f8155600101613d20565b9091508190613d17565b015190505f80613bcc565b5f8c81528281209350601f198516905b818110613d985750908460019594939210613d80575b505050811b018855613be0565b01515f1960f88460031b161c191690555f8080613d73565b92936020600181928786015181550195019301613d5d565b9091508a5f5260205f20601f840160051c81019160208510613df6575b90601f859493920160051c01905b818110613de85750613bb6565b5f8155849350600101613ddb565b9091508190613dcd565b50869184918a613e1385610acb846150e1565b613e2085610acb856150f8565b54613e366040519660c0885260c0880190614e8f565b8681036020880152845180825260208201916020808360051b8301019701925f915b838310613e895760208a805f51602061583c5f395f51905f528e808e8e610b468f8f60408601526060850190615064565b9091929397602080613ea7600193601f198682030187528c51614e8f565b9a019301930191939290613e58565b90601f19831691845f52815f20925f5b818110613eed5750916001939185613a919897969410611f1357505050811b0190556106e7565b92936020600181928786015181550195019301613ec6565b835f5260205f20601f840160051c81019160208510613f40575b601f0160051c01905b818110613f355750613a5b565b5f8155600101613f28565b9091508190613f1f565b90508401518c613a20565b5f8c81528181209250601f198416905b818110613f9e57509083600194939210613f86575b5050811b018955613a33565b8601515f1960f88460031b161c191690558c80613f7a565b9192602060018192868b015181550194019201613f65565b8a5f5260205f20601f830160051c81019160208410613ff1575b601f0160051c01905b818110613fe65750613a0a565b5f8155600101613fd9565b9091508190613fd0565b614014915060203d602011610d3f57610d318183614f59565b896139c4565b600a91501189613958565b506301e13380851161393f565b50335f9081525f51602061581c5f395f51905f52602052604090205460ff161561392f565b3461042f575f36600319011261042f5760206040517fd486618b282cb35034d59c30c062b5b3822d6cdf87ec459191ce7f5b7b8a48738152f35b3461042f57604036600319011261042f576121436004356140b0614e4a565b906140ca612139825f526002602052600160405f20015490565b615682565b3461042f5761012036600319011261042f576004356001600160401b03811161042f57614100903690600401614f7a565b6024356001600160401b03811161042f5761411f903690600401614f7a565b6044356001600160401b03811161042f5761413e903690600401614fe6565b6064356001600160401b03811161042f5761415d903690600401614fe6565b6084359060a435600881101561042f57610104359361417a615423565b614182615423565b5f546001600160a01b0316331415806148e5575b610da557610e10841080156148d8575b610d8957865115610d7a578051600281109081156148cd575b50610d60578051835103610d515768056bc75e2d631000008510612058576003546040516323b872dd60e01b81523360048201523060248201526044810187905290602090829060081c6001600160a01b0316815f816064810103925af1908115610d46575f916148ae575b5015610d08576006549361423e8561526f565b600655845f52600a60205260405f209688516001600160401b0381116109e657614268895461510f565b601f8111614869575b50806020601f8211600114614806575f916147fb575b508160011b915f199060031b1c19161788555b805160018901916001600160401b0382116109e6576142b9835461510f565b601f81116147b6575b50602090601f8311600114614767576142f8949392915f9183610b9d5750508160011b915f199060031b1c191617905542615219565b6002870190815560038701805461ffff191660ff8516176101001790556005870180546301000000600160b81b0319163360181b6301000000600160b81b0316179055426008880155815160098801819055600a88018790559097908015610b895761437490670de0b6b3a76400009998990496835190615239565b92600b5f9901985b83518110156146715761438f8185615243565b518a61439b8389615243565b51604051926143a984614f3d565b835260208301908152604083015f8152606084015f815260808501908d825260a08601926001845260c08701948c865260e08801968d8852895f5260205260405f2097518051906001600160401b0382116109e657819061440a8b5461510f565b601f8111614621575b50602090601f83116001146145be575f926145b3575b50508160011b915f199060031b1c19161788555b51805160018901916001600160401b0382116109e65761445d835461510f565b601f811161456e575b50602090601f83116001146145155792826144cb969360019d9c9b99969360079b99965f926109245750505f19600383901b1c1916908d1b179055516002890155516003880155516004870155511515600586019060ff801983541691151516179055565b51600684015551910155875f52600e60205260405f20815f5260205261450f60405f20604051906144fb82614f07565b8b82524260208301525f604083015261527d565b0161437c565b90601f19831691845f52815f20925f5b81811061455657509360019d9c9b99969360079b9996938f93836144cb9b981061097157505050811b0190556108b0565b92936020600181928786015181550195019301614525565b835f5260205f20601f840160051c810191602085106145a9575b601f0160051c01905b81811061459e5750614466565b5f8155600101614591565b9091508190614588565b015190505f80614429565b5f8c81528281209350601f198516905b81811061460957509084600195949392106145f1575b505050811b01885561443d565b01515f1960f88460031b161c191690555f80806145e4565b929360206001819287860151815501950193016145ce565b9091508a5f5260205f20601f840160051c81019160208510614667575b90601f859493920160051c01905b8181106146595750614413565b5f815584935060010161464c565b909150819061463e565b508286918961468384610acb846150e1565b61469184610acb60016150f8565b546146a76040519560c0875260c0870190614e8f565b8581036020870152835180825260208201916020808360051b8301019601925f915b83831061473a57602089805f51602061583c5f395f51905f528d808d6146f98e8e60408501526060840190615064565b600160808301523360a08301520390a2805f52600a8252601460405f2060c435601182015560e435601282015501600160ff19825416179055604051908152f35b9091929396602080614758600193601f198682030187528b51614e8f565b990193019301919392906146c9565b90601f19831691845f52815f20925f5b81811061479e57509160019391856142f89897969410610be057505050811b0190556106e7565b92936020600181928786015181550195019301614777565b835f5260205f20601f840160051c810191602085106147f1575b601f0160051c01905b8181106147e657506142c2565b5f81556001016147d9565b90915081906147d0565b90508a01518b614287565b5f8b81528181209250601f198416905b8d8282106148515750509083600194939210614839575b5050811b01885561429a565b8c01515f1960f88460031b161c191690558b8061482d565b60018495602093958493015181550194019201614816565b895f5260205f20601f830160051c810191602084106148a4575b601f0160051c01905b8181106148995750614271565b5f815560010161488c565b9091508190614883565b6148c7915060203d602011610d3f57610d318183614f59565b8861422b565b600a915011886141bf565b506301e1338084116141a6565b50335f9081525f51602061581c5f395f51905f52602052604090205460ff1615614196565b3461042f57602036600319011261042f576004356006548110156104b6575f52600a60205260405f206009810154614941816151e7565b905f92600b5f9101905b8281106149b857505f5b82811061496a576040518061219c8682614eb3565b805f5281602052600660405f20015490670de0b6b3a7640000820291808304670de0b6b3a76400001490151715610e80576149a786600193615239565b6149b18287615243565b5201614955565b936149d4600191865f5283602052600660405f20015490615219565b940161494b565b3461042f57602036600319011261042f5760206125676004355f526002602052600160405f20015490565b3461042f57614a1436614e79565b906006548110156104b6575f52600a602052600b60405f2001905f52602052614a7e60405f2060028101546003820154600483015460ff60058501541691614a8c614a6a6001614a6388615147565b9701615147565b60405197889760c0895260c0890190614e8f565b908782036020890152614e8f565b93604086015260608501526080840152151560a08301520390f35b3461042f57602036600319011261042f57614ac06153fd565b600435600955005b3461042f57602036600319011261042f57614ae1614e34565b5f6080604051614af081614eec565b828152826020820152826040820152826060820152015260018060a01b03165f52600b60205260a060405f20604051614b2881614eec565b81549182825260018101546020830190815260028201549060408401918252608060046003850154946060870195865201549401938452604051948552516020850152516040840152516060830152516080820152f35b3461042f57614b8d36614e79565b905f52600d60205260405f2090815481101561042f57614bac91614e60565b508054600182015460028301546003840154600485015460058601546006909601546040805196875260208701959095526001600160a01b039384169486019490945291166060840152608083015260a082019290925260c081019190915260e090f35b3461042f57602036600319011261042f57614c29614e34565b614c316153fd565b6001600160a01b0381169081156103d95760038054600480546001600160a01b031916600883811c6001600160a01b0316918217909255610100600160a81b031990921693901b610100600160a81b03169290921790554260058190556040519081527fa16c473a31f9f07338cd1d3ccebda80cefdc0cb743aec539af892abfbf5a534e90602090a3005b3461042f575f36600319011261042f576020604051601e8152f35b3461042f575f36600319011261042f576020600554604051908152f35b3461042f575f36600319011261042f576020604051600a8152f35b3461042f57604036600319011261042f57614d28614e34565b6001600160a01b03165f908152600c6020526040902080546024359081101561042f57614bac91614e60565b3461042f57602036600319011261042f5760043560135481101561042f57601354811015614db85760135f527f66de8ffda797e3de9c05e8fc57b3bf0ec28a930d40b0d285d93c06501cf6a09001546040516001600160a01b039091168152602090f35b634e487b7160e01b5f52603260045260245ffd5b3461042f57602036600319011261042f576004359063ffffffff60e01b821680920361042f57602091637965db0b60e01b8114908115614e0e575b5015158152f35b6301ffc9a760e01b14905083614e07565b8054821015614db8575f5260205f2001905f90565b600435906001600160a01b038216820361042f57565b602435906001600160a01b038216820361042f57565b8054821015614db8575f52600760205f20910201905f90565b604090600319011261042f576004359060243590565b805180835260209291819084018484015e5f828201840152601f01601f1916010190565b60206040818301928281528451809452019201905f5b818110614ed65750505090565b8251845260209384019390920191600101614ec9565b60a081019081106001600160401b038211176109e657604052565b606081019081106001600160401b038211176109e657604052565b60e081019081106001600160401b038211176109e657604052565b61010081019081106001600160401b038211176109e657604052565b90601f801991011681019081106001600160401b038211176109e657604052565b81601f8201121561042f578035906001600160401b0382116109e65760405192614fae601f8401601f191660200185614f59565b8284526020838301011161042f57815f926020809301838601378301015290565b6001600160401b0381116109e65760051b60200190565b9080601f8301121561042f578135614ffd81614fcf565b9261500b6040519485614f59565b81845260208085019260051b8201019183831161042f5760208201905b83821061503757505050505090565b81356001600160401b03811161042f5760209161505987848094880101614f7a565b815201910190615028565b9060088210156124675752565b608090600319011261042f5760043590602435906044359060643590565b606090600319011261042f57600435906024359060443590565b8054821015614db8575f52600360205f20910201905f90565b604090600319011261042f57600435600881101561042f579060243590565b6008811015612467575f52600f60205260405f2090565b6003811015612467575f52601160205260405f2090565b90600182811c9216801561513d575b602083101461512957565b634e487b7160e01b5f52602260045260245ffd5b91607f169161511e565b9060405191825f82549261515a8461510f565b80845293600181169081156151c55750600114615181575b5061517f92500383614f59565b565b90505f9291925260205f20905f915b8183106151a957505090602061517f928201015f615172565b6020919350806001915483858901015201910190918492615190565b90506020925061517f94915060ff191682840152151560051b8201015f615172565b906151f182614fcf565b6151fe6040519182614f59565b828152809261520f601f1991614fcf565b0190602036910137565b91908201809211610e8057565b81810292918115918404141715610e8057565b8115610b89570490565b8051821015614db85760209160051b010190565b9081602091031261042f5751801515810361042f5790565b5f198114610e805760010190565b8054600160401b8110156109e65761529a916001820181556150a9565b9190916152bb57604081600292518455602081015160018501550151910155565b634e487b7160e01b5f525f60045260245ffd5b8054600160401b8110156109e6576152eb91600182018155614e1f565b819291549060031b91821b915f19901b1916179055565b91908203918211610e8057565b8054600160401b8110156109e65761532c91600182018155614e60565b9190916152bb57805182556020810151600183015560408101516002830180546001600160a01b039283166001600160a01b03199182161790915560608301516003850180549190931691161790556080810151600483015560a0810151600583015560c00151600690910155565b601354600160401b8110156109e6578060016153bc92016013556013614e1f565b81546001600160a01b0393841660039290921b91821b9390911b1916919091179055565b8054600160401b8110156109e6576153bc91600182018155614e1f565b5f546001600160a01b0316330361541057565b63118cdaa760e01b5f523360045260245ffd5b60ff6003541661542f57565b63d93c066560e01b5f5260045ffd5b5f81815260026020908152604080832033845290915290205460ff16156154625750565b63e2517d3f60e01b5f523360045260245260445ffd5b6001600160a01b0381165f9081527f8e2c297e756b2a427c5dc4607f639842a8ea6e0f6322302f4ea76306b642cfc2602052604090205460ff16615531576001600160a01b03165f8181527f8e2c297e756b2a427c5dc4607f639842a8ea6e0f6322302f4ea76306b642cfc260205260408120805460ff191660011790553391907fdcee1d35c83a32b436264a5c9afd68685c124f3f9097e87804c55410e67fc59a905f5160206157fc5f395f51905f529080a4600190565b505f90565b6001600160a01b0381165f9081525f51602061581c5f395f51905f52602052604090205460ff16615531576001600160a01b03165f8181525f51602061581c5f395f51905f5260205260408120805460ff191660011790553391907fef485be696bbc0c91ad541bbd553ffb5bd0e18dac30ba76e992dda23cb807a8a905f5160206157fc5f395f51905f529080a4600190565b6001600160a01b0381165f9081527fd3dccf8d8289b9deee17e361620d7577de7b525dd57f668d5c1bb85ec53112b5602052604090205460ff16615531576001600160a01b03165f8181527fd3dccf8d8289b9deee17e361620d7577de7b525dd57f668d5c1bb85ec53112b560205260408120805460ff191660011790553391907fd486618b282cb35034d59c30c062b5b3822d6cdf87ec459191ce7f5b7b8a4873905f5160206157fc5f395f51905f529080a4600190565b5f8181526002602090815260408083206001600160a01b038616845290915290205460ff166156f5575f8181526002602090815260408083206001600160a01b0395909516808452949091528120805460ff19166001179055339291905f5160206157fc5f395f51905f529080a4600190565b50505f90565b5f8181526002602090815260408083206001600160a01b038616845290915290205460ff16156156f5575f8181526002602090815260408083206001600160a01b0395909516808452949091528120805460ff19169055339291907ff6391f5c32d9c69d2a47ea670b442974b53935d1edc7fd64eb21e047a839171b9080a4600190565b600260015414615790576002600155565b633ee5aeb560e01b5f5260045ffd5b905f52600a60205260405f20905f90600c60098401549301915b8381106157c95750505050600190565b60018060a01b0382165f528260205260405f20815f5260205260405f20546157f3576001016157b9565b505050505f9056fe2f8788117e7eff1d82e926ec794901d17c78024a50270940304540a733656f0d30d995518b427f5a5863ad73fe356ca50cf70941f42c516830919c845fa5806f74bf668e97161f1fd80fcd26f349d41699f70913de17765803d0880629da0de3a2646970667358221220b79f93e1f7ea35f97ec3f0339164dd232747be3f3f36edad44ad4a91362c906664736f6c634300081e0033ac33ff75c19e70fe83507db0d683fd3465c996598dc972688b7ace676c89077b",
			"opcodes": "PUSH1 0x80 CALLVALUE PUSH2 0xFD JUMPI PUSH1 0x1F PUSH2 0x5A50 CODESIZE DUP2 SWAP1 SUB SWAP2 DUP3 ADD PUSH1 0x1F NOT AND DUP4 ADD SWAP2 PUSH1 0x1 PUSH1 0x1 PUSH1 0x40 SHL SUB DUP4 GT DUP5 DUP5 LT OR PUSH2 0x101 JUMPI DUP1 DUP5 SWAP3 PUSH1 0x20 SWAP5 PUSH1 0x40 MSTORE DUP4 CODECOPY DUP2 ADD SUB SLT PUSH2 0xFD JUMPI MLOAD PUSH1 0x1 PUSH1 0x1 PUSH1 0xA0 SHL SUB DUP2 AND DUP2 SUB PUSH2 0xFD JUMPI CALLER ISZERO PUSH2 0xEA JUMPI PUSH0 DUP1 SLOAD CALLER PUSH1 0x1 PUSH1 0x1 PUSH1 0xA0 SHL SUB NOT DUP3 AND DUP2 OR DUP4 SSTORE SWAP2 PUSH1 0x1 PUSH1 0x1 PUSH1 0xA0 SHL SUB SWAP1 SWAP2 AND SWAP1 PUSH32 0x8BE0079C531659141344CD1FD0A4F28419497F9722A3DAAFE3B4186F6B6457E0 SWAP1 DUP1 LOG3 PUSH1 0x1 DUP1 SSTORE PUSH1 0xC8 PUSH1 0x8 SWAP1 DUP2 SSTORE PUSH2 0x3E8 PUSH1 0x9 SSTORE PUSH1 0x3 DUP1 SLOAD PUSH2 0x100 PUSH1 0x1 PUSH1 0xA8 SHL SUB NOT AND SWAP3 SWAP1 SWAP2 SHL PUSH2 0x100 PUSH1 0x1 PUSH1 0xA8 SHL SUB AND SWAP2 SWAP1 SWAP2 OR SWAP1 SSTORE TIMESTAMP PUSH1 0x5 SSTORE PUSH2 0xDA CALLER PUSH2 0x115 JUMP JUMPDEST POP PUSH1 0x40 MLOAD PUSH2 0x5891 SWAP1 DUP2 PUSH2 0x19F DUP3 CODECOPY RETURN JUMPDEST PUSH4 0x1E4FBDF7 PUSH1 0xE0 SHL PUSH0 MSTORE PUSH0 PUSH1 0x4 MSTORE PUSH1 0x24 PUSH0 REVERT JUMPDEST PUSH0 DUP1 REVERT JUMPDEST PUSH4 0x4E487B71 PUSH1 0xE0 SHL PUSH0 MSTORE PUSH1 0x41 PUSH1 0x4 MSTORE PUSH1 0x24 PUSH0 REVERT JUMPDEST PUSH1 0x1 PUSH1 0x1 PUSH1 0xA0 SHL SUB DUP2 AND PUSH0 SWAP1 DUP2 MSTORE PUSH0 MLOAD PUSH1 0x20 PUSH2 0x5A30 PUSH0 CODECOPY PUSH0 MLOAD SWAP1 PUSH0 MSTORE PUSH1 0x20 MSTORE PUSH1 0x40 SWAP1 KECCAK256 SLOAD PUSH1 0xFF AND PUSH2 0x199 JUMPI PUSH1 0x1 PUSH1 0x1 PUSH1 0xA0 SHL SUB AND PUSH0 DUP2 DUP2 MSTORE PUSH0 MLOAD PUSH1 0x20 PUSH2 0x5A30 PUSH0 CODECOPY PUSH0 MLOAD SWAP1 PUSH0 MSTORE PUSH1 0x20 MSTORE PUSH1 0x40 DUP2 KECCAK256 DUP1 SLOAD PUSH1 0xFF NOT AND PUSH1 0x1 OR SWAP1 SSTORE CALLER SWAP2 SWAP1 PUSH32 0x2F8788117E7EFF1D82E926EC794901D17C78024A50270940304540A733656F0D DUP2 DUP1 LOG4 PUSH1 0x1 SWAP1 JUMP JUMPDEST POP PUSH0 SWAP1 JUMP INVALID PUSH1 0x80 DUP1 PUSH1 0x40 MSTORE PUSH1 0x4 CALLDATASIZE LT ISZERO PUSH2 0x12 JUMPI PUSH0 DUP1 REVERT JUMPDEST PUSH0 CALLDATALOAD PUSH1 0xE0 SHR SWAP1 DUP2 PUSH4 0x1FFC9A7 EQ PUSH2 0x4DCC JUMPI POP DUP1 PUSH4 0x5E33DD0 EQ PUSH2 0x4D54 JUMPI DUP1 PUSH4 0x8693F3C EQ PUSH2 0x4D0F JUMPI DUP1 PUSH4 0xDA183D6 EQ PUSH2 0x4CF4 JUMPI DUP1 PUSH4 0x1029191A EQ PUSH2 0x4CD7 JUMPI DUP1 PUSH4 0x12C413AF EQ PUSH2 0x4CBC JUMPI DUP1 PUSH4 0x15571981 EQ PUSH2 0x4C10 JUMPI DUP1 PUSH4 0x1CB1DE2F EQ PUSH2 0x4B7F JUMPI DUP1 PUSH4 0x1EDB27E9 EQ PUSH2 0x4AC8 JUMPI DUP1 PUSH4 0x21B86DC2 EQ PUSH2 0x4AA7 JUMPI DUP1 PUSH4 0x222FA267 EQ PUSH2 0x4A06 JUMPI DUP1 PUSH4 0x248A9CA3 EQ PUSH2 0x49DB JUMPI DUP1 PUSH4 0x26E12752 EQ PUSH2 0x490A JUMPI DUP1 PUSH4 0x29CF655B EQ PUSH2 0x3621 JUMPI DUP1 PUSH4 0x2A49B428 EQ PUSH2 0x40CF JUMPI DUP1 PUSH4 0x2F2FF15D EQ PUSH2 0x4091 JUMPI DUP1 PUSH4 0x32617B70 EQ PUSH2 0x4057 JUMPI DUP1 PUSH4 0x33031B06 EQ PUSH2 0x3863 JUMPI DUP1 PUSH4 0x35037E0B EQ PUSH2 0x37E7 JUMPI DUP1 PUSH4 0x36568ABE EQ PUSH2 0x37A3 JUMPI DUP1 PUSH4 0x3EC79193 EQ PUSH2 0x36D0 JUMPI DUP1 PUSH4 0x3F4BA83A EQ PUSH2 0x366A JUMPI DUP1 PUSH4 0x417257F9 EQ PUSH2 0x364D JUMPI DUP1 PUSH4 0x43425E88 EQ PUSH2 0x3621 JUMPI DUP1 PUSH4 0x4A2021EF EQ PUSH2 0x3506 JUMPI DUP1 PUSH4 0x4BDD45FB EQ PUSH2 0x34DE JUMPI DUP1 PUSH4 0x5A2DB6FB EQ PUSH2 0x309E JUMPI DUP1 PUSH4 0x5C975ABB EQ PUSH2 0x307C JUMPI DUP1 PUSH4 0x60557333 EQ PUSH2 0x2F81 JUMPI DUP1 PUSH4 0x677BD9FF EQ PUSH2 0x2D42 JUMPI DUP1 PUSH4 0x6DB3B4DC EQ PUSH2 0x2CC6 JUMPI DUP1 PUSH4 0x6EAE4297 EQ PUSH2 0x2B7A JUMPI DUP1 PUSH4 0x715018A6 EQ PUSH2 0x2B23 JUMPI DUP1 PUSH4 0x755F0629 EQ PUSH2 0x2AE9 JUMPI DUP1 PUSH4 0x77B4A3E7 EQ PUSH2 0x2AAF JUMPI DUP1 PUSH4 0x7C946454 EQ PUSH2 0x2947 JUMPI DUP1 PUSH4 0x7E50898E EQ PUSH2 0x2929 JUMPI DUP1 PUSH4 0x835DC40B EQ PUSH2 0x2898 JUMPI DUP1 PUSH4 0x8456CB59 EQ PUSH2 0x283F JUMPI DUP1 PUSH4 0x8B8840E0 EQ PUSH2 0x2807 JUMPI DUP1 PUSH4 0x8DA5CB5B EQ PUSH2 0x27E0 JUMPI DUP1 PUSH4 0x91D14854 EQ PUSH2 0x2797 JUMPI DUP1 PUSH4 0x927FEF2E EQ PUSH2 0x275E JUMPI DUP1 PUSH4 0x92F012B2 EQ PUSH2 0x2742 JUMPI DUP1 PUSH4 0xA217FDDF EQ PUSH2 0x2728 JUMPI DUP1 PUSH4 0xA75DD115 EQ PUSH2 0x26CE JUMPI DUP1 PUSH4 0xA8CC7F19 EQ PUSH2 0x26BD JUMPI DUP1 PUSH4 0xAB44E635 EQ PUSH2 0x25EB JUMPI DUP1 PUSH4 0xABDCE1A4 EQ PUSH2 0x256F JUMPI DUP1 PUSH4 0xB1AB13FF EQ PUSH2 0x2534 JUMPI DUP1 PUSH4 0xB41ACDBE EQ PUSH2 0x24FC JUMPI DUP1 PUSH4 0xB61920C1 EQ PUSH2 0x2498 JUMPI DUP1 PUSH4 0xBD55022A EQ PUSH2 0x247B JUMPI DUP1 PUSH4 0xC07D1449 EQ PUSH2 0x21DD JUMPI DUP1 PUSH4 0xC2454AF7 EQ PUSH2 0x2145 JUMPI DUP1 PUSH4 0xD547741F EQ PUSH2 0x2100 JUMPI DUP1 PUSH4 0xD8C39BD7 EQ PUSH2 0x20B3 JUMPI DUP1 PUSH4 0xD911F198 EQ PUSH2 0x16DA JUMPI DUP1 PUSH4 0xE9CA2026 EQ PUSH2 0x13BC JUMPI DUP1 PUSH4 0xEC979082 EQ PUSH2 0x433 JUMPI DUP1 PUSH4 0xED881230 EQ PUSH2 0xF40 JUMPI DUP1 PUSH4 0xEECA08F0 EQ PUSH2 0xF23 JUMPI DUP1 PUSH4 0xF2FDE38B EQ PUSH2 0xE9E JUMPI DUP1 PUSH4 0xF355F2E7 EQ PUSH2 0xDD9 JUMPI DUP1 PUSH4 0xF98CE1BA EQ PUSH2 0x4C5 JUMPI DUP1 PUSH4 0xFC12524C EQ PUSH2 0x450 JUMPI DUP1 PUSH4 0xFD69F3C2 EQ PUSH2 0x433 JUMPI PUSH4 0xFDD3CDF6 EQ PUSH2 0x308 JUMPI PUSH0 DUP1 REVERT JUMPDEST CALLVALUE PUSH2 0x42F JUMPI PUSH1 0x20 CALLDATASIZE PUSH1 0x3 NOT ADD SLT PUSH2 0x42F JUMPI PUSH2 0x321 PUSH2 0x4E34 JUMP JUMPDEST PUSH0 SLOAD PUSH1 0x1 PUSH1 0x1 PUSH1 0xA0 SHL SUB AND CALLER EQ ISZERO DUP1 PUSH2 0x3F7 JUMPI JUMPDEST PUSH2 0x3E8 JUMPI PUSH1 0x1 PUSH1 0x1 PUSH1 0xA0 SHL SUB DUP2 AND SWAP1 DUP2 ISZERO PUSH2 0x3D9 JUMPI PUSH1 0x3 SLOAD PUSH1 0x8 DUP2 SWAP1 SHR PUSH1 0x1 PUSH1 0x1 PUSH1 0xA0 SHL SUB AND SWAP2 DUP4 DUP4 EQ PUSH2 0x3CA JUMPI PUSH1 0x4 DUP1 SLOAD PUSH1 0x1 PUSH1 0x1 PUSH1 0xA0 SHL SUB NOT AND DUP5 OR SWAP1 SSTORE PUSH2 0x100 PUSH1 0x1 PUSH1 0xA8 SHL SUB NOT SWAP1 SWAP2 AND PUSH1 0x8 SWAP2 SWAP1 SWAP2 SHL PUSH2 0x100 PUSH1 0x1 PUSH1 0xA8 SHL SUB AND OR PUSH1 0x3 SSTORE TIMESTAMP PUSH1 0x5 DUP2 SWAP1 SSTORE PUSH1 0x40 MLOAD SWAP1 DUP2 MSTORE PUSH32 0xA16C473A31F9F07338CD1D3CCEBDA80CEFDC0CB743AEC539AF892ABFBF5A534E SWAP1 PUSH1 0x20 SWAP1 LOG3 STOP JUMPDEST PUSH4 0x100DAC05 PUSH1 0xE1 SHL PUSH0 MSTORE PUSH1 0x4 PUSH0 REVERT JUMPDEST PUSH4 0xC1AB6DC1 PUSH1 0xE0 SHL PUSH0 MSTORE PUSH1 0x4 PUSH0 REVERT JUMPDEST PUSH4 0x61685C2B PUSH1 0xE0 SHL PUSH0 MSTORE PUSH1 0x4 PUSH0 REVERT JUMPDEST POP CALLER PUSH0 SWAP1 DUP2 MSTORE PUSH32 0xAC33FF75C19E70FE83507DB0D683FD3465C996598DC972688B7ACE676C89077B PUSH1 0x20 MSTORE PUSH1 0x40 SWAP1 KECCAK256 SLOAD PUSH1 0xFF AND ISZERO PUSH2 0x335 JUMP JUMPDEST PUSH0 DUP1 REVERT JUMPDEST CALLVALUE PUSH2 0x42F JUMPI PUSH0 CALLDATASIZE PUSH1 0x3 NOT ADD SLT PUSH2 0x42F JUMPI PUSH1 0x20 PUSH1 0x6 SLOAD PUSH1 0x40 MLOAD SWAP1 DUP2 MSTORE RETURN JUMPDEST CALLVALUE PUSH2 0x42F JUMPI PUSH1 0x20 CALLDATASIZE PUSH1 0x3 NOT ADD SLT PUSH2 0x42F JUMPI PUSH1 0x4 CALLDATALOAD PUSH2 0x46C PUSH2 0x53FD JUMP JUMPDEST PUSH1 0x6 SLOAD DUP2 LT ISZERO PUSH2 0x4B6 JUMPI DUP1 PUSH0 MSTORE PUSH1 0xA PUSH1 0x20 MSTORE PUSH1 0x5 PUSH1 0x40 PUSH0 KECCAK256 ADD PUSH1 0x1 PUSH1 0xFF NOT DUP3 SLOAD AND OR SWAP1 SSTORE PUSH32 0xB939016779C3297135B58AED6D343CF103FAF818EA07A7C5F87B03A9BD87297 PUSH0 DUP1 LOG2 STOP JUMPDEST PUSH4 0x9DB8D5B1 PUSH1 0xE0 SHL PUSH0 MSTORE PUSH1 0x4 PUSH0 REVERT JUMPDEST CALLVALUE PUSH2 0x42F JUMPI PUSH1 0xE0 CALLDATASIZE PUSH1 0x3 NOT ADD SLT PUSH2 0x42F JUMPI PUSH1 0x4 CALLDATALOAD PUSH1 0x1 PUSH1 0x1 PUSH1 0x40 SHL SUB DUP2 GT PUSH2 0x42F JUMPI PUSH2 0x4F5 SWAP1 CALLDATASIZE SWAP1 PUSH1 0x4 ADD PUSH2 0x4F7A JUMP JUMPDEST PUSH1 0x24 CALLDATALOAD PUSH1 0x1 PUSH1 0x1 PUSH1 0x40 SHL SUB DUP2 GT PUSH2 0x42F JUMPI PUSH2 0x514 SWAP1 CALLDATASIZE SWAP1 PUSH1 0x4 ADD PUSH2 0x4F7A JUMP JUMPDEST PUSH1 0x44 CALLDATALOAD PUSH1 0x1 PUSH1 0x1 PUSH1 0x40 SHL SUB DUP2 GT PUSH2 0x42F JUMPI PUSH2 0x533 SWAP1 CALLDATASIZE SWAP1 PUSH1 0x4 ADD PUSH2 0x4FE6 JUMP JUMPDEST PUSH1 0x64 CALLDATALOAD PUSH1 0x1 PUSH1 0x1 PUSH1 0x40 SHL SUB DUP2 GT PUSH2 0x42F JUMPI PUSH2 0x552 SWAP1 CALLDATASIZE SWAP1 PUSH1 0x4 ADD PUSH2 0x4FE6 JUMP JUMPDEST PUSH1 0x84 CALLDATALOAD SWAP1 PUSH1 0xA4 CALLDATALOAD PUSH1 0x8 DUP2 LT ISZERO PUSH2 0x42F JUMPI PUSH1 0xC4 CALLDATALOAD SWAP4 PUSH1 0x3 DUP6 LT ISZERO PUSH2 0x42F JUMPI PUSH2 0x577 PUSH2 0x5423 JUMP JUMPDEST PUSH2 0x57F PUSH2 0x5423 JUMP JUMPDEST PUSH0 SLOAD PUSH1 0x1 PUSH1 0x1 PUSH1 0xA0 SHL SUB AND CALLER EQ ISZERO DUP1 PUSH2 0xDB4 JUMPI JUMPDEST PUSH2 0xDA5 JUMPI PUSH2 0xE10 DUP5 LT DUP1 ISZERO PUSH2 0xD98 JUMPI JUMPDEST PUSH2 0xD89 JUMPI DUP7 MLOAD ISZERO PUSH2 0xD7A JUMPI DUP1 MLOAD PUSH1 0x2 DUP2 LT SWAP1 DUP2 ISZERO PUSH2 0xD6F JUMPI JUMPDEST POP PUSH2 0xD60 JUMPI DUP1 MLOAD DUP4 MLOAD SUB PUSH2 0xD51 JUMPI PUSH1 0x3 SLOAD PUSH1 0x40 MLOAD PUSH4 0x23B872DD PUSH1 0xE0 SHL DUP2 MSTORE CALLER PUSH1 0x4 DUP3 ADD MSTORE ADDRESS PUSH1 0x24 DUP3 ADD MSTORE PUSH9 0x3635C9ADC5DEA00000 PUSH1 0x44 DUP3 ADD MSTORE SWAP1 PUSH1 0x20 SWAP1 DUP3 SWAP1 PUSH1 0x64 SWAP1 DUP3 SWAP1 PUSH0 SWAP1 PUSH1 0x8 SHR PUSH1 0x1 PUSH1 0x1 PUSH1 0xA0 SHL SUB AND GAS CALL SWAP1 DUP2 ISZERO PUSH2 0xD46 JUMPI PUSH0 SWAP2 PUSH2 0xD17 JUMPI JUMPDEST POP ISZERO PUSH2 0xD08 JUMPI PUSH1 0x6 SLOAD SWAP4 PUSH2 0x631 DUP6 PUSH2 0x526F JUMP JUMPDEST PUSH1 0x6 SSTORE DUP5 PUSH0 MSTORE PUSH1 0xA PUSH1 0x20 MSTORE PUSH1 0x40 PUSH0 KECCAK256 SWAP7 DUP9 MLOAD PUSH1 0x1 PUSH1 0x1 PUSH1 0x40 SHL SUB DUP2 GT PUSH2 0x9E6 JUMPI PUSH2 0x65B DUP10 SLOAD PUSH2 0x510F JUMP JUMPDEST PUSH1 0x1F DUP2 GT PUSH2 0xCC3 JUMPI JUMPDEST POP DUP1 PUSH1 0x20 PUSH1 0x1F DUP3 GT PUSH1 0x1 EQ PUSH2 0xC60 JUMPI PUSH0 SWAP2 PUSH2 0xC55 JUMPI JUMPDEST POP DUP2 PUSH1 0x1 SHL SWAP2 PUSH0 NOT SWAP1 PUSH1 0x3 SHL SHR NOT AND OR DUP9 SSTORE JUMPDEST DUP1 MLOAD PUSH1 0x1 DUP10 ADD SWAP2 PUSH1 0x1 PUSH1 0x1 PUSH1 0x40 SHL SUB DUP3 GT PUSH2 0x9E6 JUMPI PUSH2 0x6AC DUP4 SLOAD PUSH2 0x510F JUMP JUMPDEST PUSH1 0x1F DUP2 GT PUSH2 0xC10 JUMPI JUMPDEST POP PUSH1 0x20 SWAP1 PUSH1 0x1F DUP4 GT PUSH1 0x1 EQ PUSH2 0xBA8 JUMPI PUSH2 0x6ED SWAP5 SWAP4 SWAP3 SWAP2 PUSH0 SWAP2 DUP4 PUSH2 0xB9D JUMPI JUMPDEST POP POP DUP2 PUSH1 0x1 SHL SWAP2 PUSH0 NOT SWAP1 PUSH1 0x3 SHL SHR NOT AND OR SWAP1 SSTORE JUMPDEST TIMESTAMP PUSH2 0x5219 JUMP JUMPDEST PUSH1 0x2 DUP8 ADD SWAP1 DUP2 SSTORE PUSH1 0x3 DUP8 ADD DUP1 SLOAD PUSH2 0xFFFF NOT AND PUSH1 0xFF DUP6 AND OR PUSH1 0x8 DUP9 DUP2 SHL PUSH2 0xFF00 AND SWAP2 SWAP1 SWAP2 OR SWAP1 SWAP2 SSTORE PUSH1 0x5 DUP9 ADD DUP1 SLOAD PUSH4 0x1000000 PUSH1 0x1 PUSH1 0xB8 SHL SUB NOT AND CALLER PUSH1 0x18 SHL PUSH4 0x1000000 PUSH1 0x1 PUSH1 0xB8 SHL SUB AND OR SWAP1 SSTORE TIMESTAMP SWAP1 DUP9 ADD SSTORE DUP2 MLOAD PUSH1 0x9 DUP9 ADD DUP2 SWAP1 SSTORE PUSH9 0x3635C9ADC5DEA00000 PUSH1 0xA DUP10 ADD SSTORE SWAP1 SWAP8 SWAP1 DUP1 ISZERO PUSH2 0xB89 JUMPI PUSH8 0xDE0B6B3A7640000 DIV SWAP6 DUP3 MLOAD DUP1 ISZERO PUSH2 0xB89 JUMPI PUSH1 0xB SWAP1 SWAP9 ADD SWAP9 SWAP8 PUSH9 0x3635C9ADC5DEA00000 DIV SWAP4 PUSH0 JUMPDEST DUP5 MLOAD DUP2 LT ISZERO PUSH2 0xAB8 JUMPI PUSH2 0x79B DUP2 DUP7 PUSH2 0x5243 JUMP JUMPDEST MLOAD DUP7 DUP13 PUSH2 0x7A8 DUP5 DUP12 PUSH2 0x5243 JUMP JUMPDEST MLOAD PUSH1 0x40 MLOAD SWAP4 PUSH2 0x7B6 DUP6 PUSH2 0x4F3D JUMP JUMPDEST DUP5 MSTORE PUSH1 0x20 DUP5 ADD SWAP1 DUP2 MSTORE DUP13 PUSH1 0x40 DUP6 ADD PUSH0 DUP2 MSTORE PUSH1 0x60 DUP7 ADD SWAP1 PUSH0 DUP3 MSTORE PUSH1 0x80 DUP8 ADD SWAP3 DUP4 MSTORE PUSH1 0xA0 DUP8 ADD SWAP4 PUSH1 0x1 DUP6 MSTORE PUSH1 0xC0 DUP9 ADD SWAP6 DUP8 DUP8 MSTORE PUSH1 0xE0 DUP10 ADD SWAP8 DUP9 MSTORE DUP10 PUSH0 MSTORE PUSH1 0x20 MSTORE PUSH1 0x40 PUSH0 KECCAK256 SWAP8 MLOAD DUP1 MLOAD SWAP1 PUSH1 0x1 PUSH1 0x1 PUSH1 0x40 SHL SUB DUP3 GT PUSH2 0x9E6 JUMPI DUP2 SWAP1 PUSH2 0x817 DUP12 SLOAD PUSH2 0x510F JUMP JUMPDEST PUSH1 0x1F DUP2 GT PUSH2 0xA68 JUMPI JUMPDEST POP PUSH1 0x20 SWAP1 PUSH1 0x1F DUP4 GT PUSH1 0x1 EQ PUSH2 0xA05 JUMPI PUSH0 SWAP3 PUSH2 0x9FA JUMPI JUMPDEST POP POP DUP2 PUSH1 0x1 SHL SWAP2 PUSH0 NOT SWAP1 PUSH1 0x3 SHL SHR NOT AND OR DUP9 SSTORE JUMPDEST MLOAD DUP1 MLOAD PUSH1 0x1 DUP10 ADD SWAP2 PUSH1 0x1 PUSH1 0x1 PUSH1 0x40 SHL SUB DUP3 GT PUSH2 0x9E6 JUMPI PUSH2 0x86A DUP4 SLOAD PUSH2 0x510F JUMP JUMPDEST PUSH1 0x1F DUP2 GT PUSH2 0x9A1 JUMPI JUMPDEST POP PUSH1 0x20 SWAP1 PUSH1 0x1F DUP4 GT PUSH1 0x1 EQ PUSH2 0x92F JUMPI SWAP3 DUP3 PUSH2 0x8DA SWAP7 SWAP4 PUSH1 0x1 SWAP14 SWAP13 SWAP12 SWAP10 SWAP7 SWAP4 PUSH1 0x7 SWAP12 SWAP10 SWAP7 PUSH0 SWAP3 PUSH2 0x924 JUMPI JUMPDEST POP POP PUSH0 NOT PUSH1 0x3 DUP4 SWAP1 SHL SHR NOT AND SWAP1 DUP14 SHL OR SWAP1 SSTORE JUMPDEST MLOAD PUSH1 0x2 DUP10 ADD SSTORE MLOAD PUSH1 0x3 DUP9 ADD SSTORE MLOAD PUSH1 0x4 DUP8 ADD SSTORE MLOAD ISZERO ISZERO PUSH1 0x5 DUP7 ADD SWAP1 PUSH1 0xFF DUP1 NOT DUP4 SLOAD AND SWAP2 ISZERO ISZERO AND OR SWAP1 SSTORE JUMP JUMPDEST MLOAD PUSH1 0x6 DUP5 ADD SSTORE MLOAD SWAP2 ADD SSTORE DUP9 PUSH0 MSTORE PUSH1 0xE PUSH1 0x20 MSTORE PUSH1 0x40 PUSH0 KECCAK256 DUP2 PUSH0 MSTORE PUSH1 0x20 MSTORE PUSH2 0x91E PUSH1 0x40 PUSH0 KECCAK256 PUSH1 0x40 MLOAD SWAP1 PUSH2 0x90A DUP3 PUSH2 0x4F07 JUMP JUMPDEST DUP13 DUP3 MSTORE TIMESTAMP PUSH1 0x20 DUP4 ADD MSTORE PUSH0 PUSH1 0x40 DUP4 ADD MSTORE PUSH2 0x527D JUMP JUMPDEST ADD PUSH2 0x788 JUMP JUMPDEST ADD MLOAD SWAP1 POP PUSH0 DUP1 PUSH2 0x89D JUMP JUMPDEST SWAP1 PUSH1 0x1F NOT DUP4 AND SWAP2 DUP5 PUSH0 MSTORE DUP2 PUSH0 KECCAK256 SWAP3 PUSH0 JUMPDEST DUP2 DUP2 LT PUSH2 0x989 JUMPI POP SWAP4 PUSH1 0x1 SWAP14 SWAP13 SWAP12 SWAP10 SWAP7 SWAP4 PUSH1 0x7 SWAP12 SWAP10 SWAP7 SWAP4 DUP16 SWAP4 DUP4 PUSH2 0x8DA SWAP12 SWAP9 LT PUSH2 0x971 JUMPI JUMPDEST POP POP POP DUP2 SHL ADD SWAP1 SSTORE PUSH2 0x8B0 JUMP JUMPDEST ADD MLOAD PUSH0 NOT PUSH1 0xF8 DUP5 PUSH1 0x3 SHL AND SHR NOT AND SWAP1 SSTORE PUSH0 DUP1 DUP1 PUSH2 0x964 JUMP JUMPDEST SWAP3 SWAP4 PUSH1 0x20 PUSH1 0x1 DUP2 SWAP3 DUP8 DUP7 ADD MLOAD DUP2 SSTORE ADD SWAP6 ADD SWAP4 ADD PUSH2 0x93F JUMP JUMPDEST DUP4 PUSH0 MSTORE PUSH1 0x20 PUSH0 KECCAK256 PUSH1 0x1F DUP5 ADD PUSH1 0x5 SHR DUP2 ADD SWAP2 PUSH1 0x20 DUP6 LT PUSH2 0x9DC JUMPI JUMPDEST PUSH1 0x1F ADD PUSH1 0x5 SHR ADD SWAP1 JUMPDEST DUP2 DUP2 LT PUSH2 0x9D1 JUMPI POP PUSH2 0x873 JUMP JUMPDEST PUSH0 DUP2 SSTORE PUSH1 0x1 ADD PUSH2 0x9C4 JUMP JUMPDEST SWAP1 SWAP2 POP DUP2 SWAP1 PUSH2 0x9BB JUMP JUMPDEST PUSH4 0x4E487B71 PUSH1 0xE0 SHL PUSH0 MSTORE PUSH1 0x41 PUSH1 0x4 MSTORE PUSH1 0x24 PUSH0 REVERT JUMPDEST ADD MLOAD SWAP1 POP PUSH0 DUP1 PUSH2 0x836 JUMP JUMPDEST PUSH0 DUP13 DUP2 MSTORE DUP3 DUP2 KECCAK256 SWAP4 POP PUSH1 0x1F NOT DUP6 AND SWAP1 JUMPDEST DUP2 DUP2 LT PUSH2 0xA50 JUMPI POP SWAP1 DUP5 PUSH1 0x1 SWAP6 SWAP5 SWAP4 SWAP3 LT PUSH2 0xA38 JUMPI JUMPDEST POP POP POP DUP2 SHL ADD DUP9 SSTORE PUSH2 0x84A JUMP JUMPDEST ADD MLOAD PUSH0 NOT PUSH1 0xF8 DUP5 PUSH1 0x3 SHL AND SHR NOT AND SWAP1 SSTORE PUSH0 DUP1 DUP1 PUSH2 0xA2B JUMP JUMPDEST SWAP3 SWAP4 PUSH1 0x20 PUSH1 0x1 DUP2 SWAP3 DUP8 DUP7 ADD MLOAD DUP2 SSTORE ADD SWAP6 ADD SWAP4 ADD PUSH2 0xA15 JUMP JUMPDEST SWAP1 SWAP2 POP DUP11 PUSH0 MSTORE PUSH1 0x20 PUSH0 KECCAK256 PUSH1 0x1F DUP5 ADD PUSH1 0x5 SHR DUP2 ADD SWAP2 PUSH1 0x20 DUP6 LT PUSH2 0xAAE JUMPI JUMPDEST SWAP1 PUSH1 0x1F DUP6 SWAP5 SWAP4 SWAP3 ADD PUSH1 0x5 SHR ADD SWAP1 JUMPDEST DUP2 DUP2 LT PUSH2 0xAA0 JUMPI POP PUSH2 0x820 JUMP JUMPDEST PUSH0 DUP2 SSTORE DUP5 SWAP4 POP PUSH1 0x1 ADD PUSH2 0xA93 JUMP JUMPDEST SWAP1 SWAP2 POP DUP2 SWAP1 PUSH2 0xA85 JUMP JUMPDEST POP DUP7 SWAP2 DUP5 SWAP2 DUP11 PUSH2 0xAD0 DUP6 PUSH2 0xACB DUP5 PUSH2 0x50E1 JUMP JUMPDEST PUSH2 0x52CE JUMP JUMPDEST PUSH2 0xADD DUP6 PUSH2 0xACB DUP6 PUSH2 0x50F8 JUMP JUMPDEST SLOAD PUSH2 0xAF3 PUSH1 0x40 MLOAD SWAP7 PUSH1 0xC0 DUP9 MSTORE PUSH1 0xC0 DUP9 ADD SWAP1 PUSH2 0x4E8F JUMP JUMPDEST DUP7 DUP2 SUB PUSH1 0x20 DUP9 ADD MSTORE DUP5 MLOAD DUP1 DUP3 MSTORE PUSH1 0x20 DUP3 ADD SWAP2 PUSH1 0x20 DUP1 DUP4 PUSH1 0x5 SHL DUP4 ADD ADD SWAP8 ADD SWAP3 PUSH0 SWAP2 JUMPDEST DUP4 DUP4 LT PUSH2 0xB5C JUMPI PUSH1 0x20 DUP11 DUP1 PUSH0 MLOAD PUSH1 0x20 PUSH2 0x583C PUSH0 CODECOPY PUSH0 MLOAD SWAP1 PUSH0 MSTORE DUP15 DUP1 DUP15 DUP15 PUSH2 0xB46 DUP16 DUP16 PUSH1 0x40 DUP7 ADD MSTORE PUSH1 0x60 DUP6 ADD SWAP1 PUSH2 0x5064 JUMP JUMPDEST PUSH1 0x80 DUP4 ADD MSTORE CALLER PUSH1 0xA0 DUP4 ADD MSTORE SUB SWAP1 LOG2 PUSH1 0x40 MLOAD SWAP1 DUP2 MSTORE RETURN JUMPDEST SWAP1 SWAP2 SWAP3 SWAP4 SWAP8 PUSH1 0x20 DUP1 PUSH2 0xB7A PUSH1 0x1 SWAP4 PUSH1 0x1F NOT DUP7 DUP3 SUB ADD DUP8 MSTORE DUP13 MLOAD PUSH2 0x4E8F JUMP JUMPDEST SWAP11 ADD SWAP4 ADD SWAP4 ADD SWAP2 SWAP4 SWAP3 SWAP1 PUSH2 0xB15 JUMP JUMPDEST PUSH4 0x4E487B71 PUSH1 0xE0 SHL PUSH0 MSTORE PUSH1 0x12 PUSH1 0x4 MSTORE PUSH1 0x24 PUSH0 REVERT JUMPDEST ADD MLOAD SWAP1 POP DUP13 DUP1 PUSH2 0x6D3 JUMP JUMPDEST SWAP1 PUSH1 0x1F NOT DUP4 AND SWAP2 DUP5 PUSH0 MSTORE DUP2 PUSH0 KECCAK256 SWAP3 PUSH0 JUMPDEST DUP2 DUP2 LT PUSH2 0xBF8 JUMPI POP SWAP2 PUSH1 0x1 SWAP4 SWAP2 DUP6 PUSH2 0x6ED SWAP9 SWAP8 SWAP7 SWAP5 LT PUSH2 0xBE0 JUMPI JUMPDEST POP POP POP DUP2 SHL ADD SWAP1 SSTORE PUSH2 0x6E7 JUMP JUMPDEST ADD MLOAD PUSH0 NOT PUSH1 0xF8 DUP5 PUSH1 0x3 SHL AND SHR NOT AND SWAP1 SSTORE DUP13 DUP1 DUP1 PUSH2 0xBD3 JUMP JUMPDEST SWAP3 SWAP4 PUSH1 0x20 PUSH1 0x1 DUP2 SWAP3 DUP8 DUP7 ADD MLOAD DUP2 SSTORE ADD SWAP6 ADD SWAP4 ADD PUSH2 0xBB8 JUMP JUMPDEST DUP4 PUSH0 MSTORE PUSH1 0x20 PUSH0 KECCAK256 PUSH1 0x1F DUP5 ADD PUSH1 0x5 SHR DUP2 ADD SWAP2 PUSH1 0x20 DUP6 LT PUSH2 0xC4B JUMPI JUMPDEST PUSH1 0x1F ADD PUSH1 0x5 SHR ADD SWAP1 JUMPDEST DUP2 DUP2 LT PUSH2 0xC40 JUMPI POP PUSH2 0x6B5 JUMP JUMPDEST PUSH0 DUP2 SSTORE PUSH1 0x1 ADD PUSH2 0xC33 JUMP JUMPDEST SWAP1 SWAP2 POP DUP2 SWAP1 PUSH2 0xC2A JUMP JUMPDEST SWAP1 POP DUP11 ADD MLOAD DUP12 PUSH2 0x67A JUMP JUMPDEST PUSH0 DUP12 DUP2 MSTORE DUP2 DUP2 KECCAK256 SWAP3 POP PUSH1 0x1F NOT DUP5 AND SWAP1 JUMPDEST DUP14 DUP3 DUP3 LT PUSH2 0xCAB JUMPI POP POP SWAP1 DUP4 PUSH1 0x1 SWAP5 SWAP4 SWAP3 LT PUSH2 0xC93 JUMPI JUMPDEST POP POP DUP2 SHL ADD DUP9 SSTORE PUSH2 0x68D JUMP JUMPDEST DUP13 ADD MLOAD PUSH0 NOT PUSH1 0xF8 DUP5 PUSH1 0x3 SHL AND SHR NOT AND SWAP1 SSTORE DUP12 DUP1 PUSH2 0xC87 JUMP JUMPDEST PUSH1 0x1 DUP5 SWAP6 PUSH1 0x20 SWAP4 SWAP6 DUP5 SWAP4 ADD MLOAD DUP2 SSTORE ADD SWAP5 ADD SWAP3 ADD PUSH2 0xC70 JUMP JUMPDEST DUP10 PUSH0 MSTORE PUSH1 0x20 PUSH0 KECCAK256 PUSH1 0x1F DUP4 ADD PUSH1 0x5 SHR DUP2 ADD SWAP2 PUSH1 0x20 DUP5 LT PUSH2 0xCFE JUMPI JUMPDEST PUSH1 0x1F ADD PUSH1 0x5 SHR ADD SWAP1 JUMPDEST DUP2 DUP2 LT PUSH2 0xCF3 JUMPI POP PUSH2 0x664 JUMP JUMPDEST PUSH0 DUP2 SSTORE PUSH1 0x1 ADD PUSH2 0xCE6 JUMP JUMPDEST SWAP1 SWAP2 POP DUP2 SWAP1 PUSH2 0xCDD JUMP JUMPDEST PUSH4 0x12171D83 PUSH1 0xE3 SHL PUSH0 MSTORE PUSH1 0x4 PUSH0 REVERT JUMPDEST PUSH2 0xD39 SWAP2 POP PUSH1 0x20 RETURNDATASIZE PUSH1 0x20 GT PUSH2 0xD3F JUMPI JUMPDEST PUSH2 0xD31 DUP2 DUP4 PUSH2 0x4F59 JUMP JUMPDEST DUP2 ADD SWAP1 PUSH2 0x5257 JUMP JUMPDEST DUP9 PUSH2 0x61E JUMP JUMPDEST POP RETURNDATASIZE PUSH2 0xD27 JUMP JUMPDEST PUSH1 0x40 MLOAD RETURNDATASIZE PUSH0 DUP3 RETURNDATACOPY RETURNDATASIZE SWAP1 REVERT JUMPDEST PUSH4 0x1FEC6747 PUSH1 0xE3 SHL PUSH0 MSTORE PUSH1 0x4 PUSH0 REVERT JUMPDEST PUSH4 0xDAB5B42B PUSH1 0xE0 SHL PUSH0 MSTORE PUSH1 0x4 PUSH0 REVERT JUMPDEST PUSH1 0xA SWAP2 POP GT DUP9 PUSH2 0x5BC JUMP JUMPDEST PUSH4 0xD5003F3 PUSH1 0xE0 SHL PUSH0 MSTORE PUSH1 0x4 PUSH0 REVERT JUMPDEST PUSH4 0x4D84C2E9 PUSH1 0xE0 SHL PUSH0 MSTORE PUSH1 0x4 PUSH0 REVERT JUMPDEST POP PUSH4 0x1E13380 DUP5 GT PUSH2 0x5A3 JUMP JUMPDEST PUSH4 0xEA8E4EB5 PUSH1 0xE0 SHL PUSH0 MSTORE PUSH1 0x4 PUSH0 REVERT JUMPDEST POP CALLER PUSH0 SWAP1 DUP2 MSTORE PUSH0 MLOAD PUSH1 0x20 PUSH2 0x581C PUSH0 CODECOPY PUSH0 MLOAD SWAP1 PUSH0 MSTORE PUSH1 0x20 MSTORE PUSH1 0x40 SWAP1 KECCAK256 SLOAD PUSH1 0xFF AND ISZERO PUSH2 0x593 JUMP JUMPDEST CALLVALUE PUSH2 0x42F JUMPI PUSH2 0xDE7 CALLDATASIZE PUSH2 0x508F JUMP JUMPDEST SWAP2 PUSH0 MSTORE PUSH1 0xA PUSH1 0x20 MSTORE PUSH1 0xB PUSH1 0x40 PUSH0 KECCAK256 ADD SWAP1 PUSH0 MSTORE PUSH1 0x20 MSTORE PUSH1 0x40 PUSH0 KECCAK256 PUSH1 0x6 PUSH1 0x7 DUP3 ADD SLOAD DUP4 DUP1 DUP3 GT PUSH0 EQ PUSH2 0xE94 JUMPI PUSH2 0xE1A SWAP2 PUSH2 0x5302 JUMP JUMPDEST SWAP2 JUMPDEST ADD SLOAD SWAP2 PUSH8 0xDE0B6B3A7640000 DUP4 MUL SWAP3 DUP1 DUP5 DIV PUSH8 0xDE0B6B3A7640000 EQ SWAP1 ISZERO OR ISZERO PUSH2 0xE80 JUMPI PUSH2 0xE56 PUSH2 0xE5B SWAP3 PUSH8 0xDE0B6B3A7640000 SWAP5 PUSH2 0x5239 JUMP JUMPDEST PUSH2 0x5226 JUMP JUMPDEST DIV PUSH2 0x3E5 DUP2 MUL SWAP1 DUP1 DUP3 DIV PUSH2 0x3E5 EQ SWAP1 ISZERO OR ISZERO PUSH2 0xE80 JUMPI PUSH1 0x20 SWAP1 PUSH2 0x3E8 PUSH1 0x40 MLOAD SWAP2 DIV DUP2 MSTORE RETURN JUMPDEST PUSH4 0x4E487B71 PUSH1 0xE0 SHL PUSH0 MSTORE PUSH1 0x11 PUSH1 0x4 MSTORE PUSH1 0x24 PUSH0 REVERT JUMPDEST POP PUSH1 0x1 SHR SWAP2 PUSH2 0xE1C JUMP JUMPDEST CALLVALUE PUSH2 0x42F JUMPI PUSH1 0x20 CALLDATASIZE PUSH1 0x3 NOT ADD SLT PUSH2 0x42F JUMPI PUSH2 0xEB7 PUSH2 0x4E34 JUMP JUMPDEST PUSH2 0xEBF PUSH2 0x53FD JUMP JUMPDEST PUSH1 0x1 PUSH1 0x1 PUSH1 0xA0 SHL SUB AND DUP1 ISZERO PUSH2 0xF10 JUMPI PUSH0 DUP1 SLOAD PUSH1 0x1 PUSH1 0x1 PUSH1 0xA0 SHL SUB NOT DUP2 AND DUP4 OR DUP3 SSTORE PUSH1 0x1 PUSH1 0x1 PUSH1 0xA0 SHL SUB AND SWAP1 PUSH32 0x8BE0079C531659141344CD1FD0A4F28419497F9722A3DAAFE3B4186F6B6457E0 SWAP1 DUP1 LOG3 STOP JUMPDEST PUSH4 0x1E4FBDF7 PUSH1 0xE0 SHL PUSH0 MSTORE PUSH0 PUSH1 0x4 MSTORE PUSH1 0x24 PUSH0 REVERT JUMPDEST CALLVALUE PUSH2 0x42F JUMPI PUSH0 CALLDATASIZE PUSH1 0x3 NOT ADD SLT PUSH2 0x42F JUMPI PUSH1 0x20 PUSH1 0x8 SLOAD PUSH1 0x40 MLOAD SWAP1 DUP2 MSTORE RETURN JUMPDEST CALLVALUE PUSH2 0x42F JUMPI PUSH2 0xF4E CALLDATASIZE PUSH2 0x5071 JUMP JUMPDEST PUSH2 0xF59 SWAP3 SWAP2 SWAP3 PUSH2 0x577F JUMP JUMPDEST PUSH2 0xF61 PUSH2 0x5423 JUMP JUMPDEST PUSH1 0x6 SLOAD DUP5 LT ISZERO PUSH2 0x4B6 JUMPI DUP4 PUSH0 MSTORE PUSH1 0xA PUSH1 0x20 MSTORE PUSH1 0x2 PUSH1 0x40 PUSH0 KECCAK256 ADD SLOAD TIMESTAMP LT ISZERO PUSH2 0x13AD JUMPI DUP4 PUSH0 MSTORE PUSH1 0xA PUSH1 0x20 MSTORE PUSH1 0xFF PUSH1 0x5 PUSH1 0x40 PUSH0 KECCAK256 ADD SLOAD AND PUSH2 0x139E JUMPI DUP4 PUSH0 MSTORE PUSH1 0xA PUSH1 0x20 MSTORE PUSH1 0x9 PUSH1 0x40 PUSH0 KECCAK256 ADD SLOAD DUP3 LT ISZERO PUSH2 0x138F JUMPI DUP4 PUSH0 MSTORE PUSH1 0xA PUSH1 0x20 MSTORE PUSH1 0xB PUSH1 0x40 PUSH0 KECCAK256 ADD DUP3 PUSH0 MSTORE PUSH1 0x20 MSTORE PUSH1 0xFF PUSH1 0x5 PUSH1 0x40 PUSH0 KECCAK256 ADD SLOAD AND ISZERO PUSH2 0x1380 JUMPI DUP3 ISZERO PUSH2 0x1371 JUMPI DUP4 PUSH0 MSTORE PUSH1 0xA PUSH1 0x20 MSTORE PUSH1 0xFF PUSH1 0x5 PUSH1 0x40 PUSH0 KECCAK256 ADD SLOAD PUSH1 0x10 SHR AND ISZERO PUSH2 0x1362 JUMPI PUSH0 DUP5 DUP2 MSTORE PUSH1 0xA PUSH1 0x20 SWAP1 DUP2 MSTORE PUSH1 0x40 DUP1 DUP4 KECCAK256 DUP6 DUP5 MSTORE PUSH1 0xB DUP2 ADD SWAP1 SWAP3 MSTORE SWAP1 SWAP2 KECCAK256 PUSH1 0x4 DUP2 ADD SLOAD SWAP1 SWAP4 SWAP2 SWAP3 SWAP2 SWAP1 SWAP2 DUP3 GT PUSH2 0x1353 JUMPI PUSH8 0xDE0B6B3A7640000 PUSH2 0x1038 DUP7 DUP5 PUSH2 0x5226 JUMP JUMPDEST DIV SWAP5 PUSH2 0x2710 PUSH2 0x1049 PUSH1 0x8 SLOAD DUP9 PUSH2 0x5226 JUMP JUMPDEST DIV SWAP4 PUSH2 0x1055 DUP6 DUP9 PUSH2 0x5219 JUMP JUMPDEST PUSH1 0x3 SLOAD PUSH1 0x40 MLOAD PUSH4 0x23B872DD PUSH1 0xE0 SHL DUP2 MSTORE CALLER PUSH1 0x4 DUP3 ADD MSTORE ADDRESS PUSH1 0x24 DUP3 ADD MSTORE PUSH1 0x44 DUP2 ADD DUP4 SWAP1 MSTORE SWAP2 SWAP3 SWAP2 SWAP1 PUSH1 0x20 SWAP1 DUP3 SWAP1 PUSH1 0x8 SHR PUSH1 0x1 PUSH1 0x1 PUSH1 0xA0 SHL SUB AND DUP2 PUSH0 DUP2 PUSH1 0x64 DUP2 ADD SUB SWAP3 GAS CALL SWAP1 DUP2 ISZERO PUSH2 0xD46 JUMPI PUSH0 SWAP2 PUSH2 0x1334 JUMPI JUMPDEST POP ISZERO PUSH2 0xD08 JUMPI DUP1 PUSH1 0xC PUSH1 0x10 SWAP3 ADD PUSH1 0x1 DUP1 PUSH1 0xA0 SHL SUB CALLER AND PUSH0 MSTORE DUP1 PUSH1 0x20 MSTORE PUSH1 0x40 PUSH0 KECCAK256 DUP7 PUSH0 MSTORE PUSH1 0x20 MSTORE PUSH1 0x40 PUSH0 KECCAK256 SLOAD ISZERO DUP1 PUSH2 0x1324 JUMPI JUMPDEST PUSH2 0x12F8 JUMPI JUMPDEST PUSH1 0x1 DUP1 PUSH1 0xA0 SHL SUB CALLER AND PUSH0 MSTORE PUSH1 0x20 MSTORE PUSH1 0x40 PUSH0 KECCAK256 DUP6 PUSH0 MSTORE PUSH1 0x20 MSTORE PUSH1 0x40 PUSH0 KECCAK256 PUSH2 0x1104 DUP6 DUP3 SLOAD PUSH2 0x5219 JUMP JUMPDEST SWAP1 SSTORE PUSH1 0x2 DUP9 ADD PUSH2 0x1115 DUP6 DUP3 SLOAD PUSH2 0x5219 JUMP JUMPDEST SWAP1 SSTORE PUSH1 0x3 DUP9 ADD PUSH2 0x1126 DUP11 DUP3 SLOAD PUSH2 0x5219 JUMP JUMPDEST SWAP1 SSTORE PUSH1 0x6 DUP2 ADD PUSH2 0x1137 DUP11 DUP3 SLOAD PUSH2 0x5219 JUMP JUMPDEST SWAP1 SSTORE PUSH1 0x7 DUP2 ADD PUSH2 0x1148 DUP11 DUP3 SLOAD PUSH2 0x5219 JUMP JUMPDEST SWAP1 SSTORE ADD PUSH2 0x1156 DUP7 DUP3 SLOAD PUSH2 0x5219 JUMP JUMPDEST SWAP1 SSTORE CALLER PUSH0 MSTORE PUSH1 0xB PUSH1 0x20 MSTORE PUSH2 0x116F PUSH1 0x40 PUSH0 KECCAK256 SWAP2 DUP3 SLOAD PUSH2 0x5219 JUMP JUMPDEST SWAP1 SSTORE CALLER PUSH0 MSTORE PUSH1 0xB PUSH1 0x20 MSTORE PUSH1 0x4 PUSH1 0x40 PUSH0 KECCAK256 ADD PUSH2 0x118A DUP2 SLOAD PUSH2 0x526F JUMP JUMPDEST SWAP1 SSTORE DUP7 PUSH0 MSTORE PUSH1 0xA PUSH1 0x20 MSTORE PUSH1 0xB PUSH1 0x40 PUSH0 KECCAK256 ADD DUP3 PUSH0 MSTORE PUSH1 0x20 MSTORE PUSH1 0x40 PUSH0 KECCAK256 PUSH2 0x11B9 DUP3 PUSH1 0x6 PUSH1 0x7 DUP5 ADD SLOAD SWAP4 ADD SLOAD SWAP3 PUSH2 0x5219 JUMP JUMPDEST PUSH8 0xDE0B6B3A7640000 DUP3 MUL SWAP2 DUP1 DUP4 DIV PUSH8 0xDE0B6B3A7640000 EQ SWAP1 ISZERO OR ISZERO PUSH2 0xE80 JUMPI PUSH32 0xAF7C505EE772EC188AF7067E1F73DB08AB028E3D564273442B907742B9C41FA0 SWAP8 PUSH1 0x20 SWAP8 PUSH2 0x120E PUSH1 0x4 SWAP4 PUSH2 0x1246 SWAP6 PUSH2 0x5239 JUMP JUMPDEST SWAP3 DUP4 SWAP2 ADD SSTORE DUP10 PUSH0 MSTORE PUSH1 0xE DUP9 MSTORE PUSH1 0x40 PUSH0 KECCAK256 DUP6 PUSH0 MSTORE DUP9 MSTORE PUSH1 0x40 PUSH0 KECCAK256 SWAP1 PUSH1 0x40 MLOAD SWAP3 PUSH2 0x1235 DUP5 PUSH2 0x4F07 JUMP JUMPDEST DUP4 MSTORE TIMESTAMP DUP10 DUP5 ADD MSTORE PUSH1 0x40 DUP4 ADD MSTORE PUSH2 0x527D JUMP JUMPDEST PUSH2 0x129F PUSH1 0x40 MLOAD PUSH2 0x1255 DUP2 PUSH2 0x4F22 JUMP JUMPDEST DUP9 DUP2 MSTORE DUP4 DUP8 DUP3 ADD MSTORE CALLER PUSH1 0x40 DUP3 ADD MSTORE PUSH0 PUSH1 0x60 DUP3 ADD MSTORE DUP5 PUSH1 0x80 DUP3 ADD MSTORE DUP3 PUSH1 0xA0 DUP3 ADD MSTORE TIMESTAMP PUSH1 0xC0 DUP3 ADD MSTORE CALLER PUSH0 MSTORE PUSH1 0xC DUP8 MSTORE PUSH2 0x128F DUP2 PUSH1 0x40 PUSH0 KECCAK256 PUSH2 0x530F JUMP JUMPDEST DUP9 PUSH0 MSTORE PUSH1 0xD DUP8 MSTORE PUSH1 0x40 PUSH0 KECCAK256 PUSH2 0x530F JUMP JUMPDEST PUSH1 0x7 SLOAD SWAP1 PUSH2 0x12AC DUP3 PUSH2 0x526F JUMP JUMPDEST PUSH1 0x7 SSTORE PUSH1 0x40 MLOAD SWAP4 PUSH0 DUP6 MSTORE DUP7 DUP6 ADD MSTORE PUSH1 0x40 DUP5 ADD MSTORE PUSH1 0x60 DUP4 ADD MSTORE DUP6 PUSH32 0x976184626638B6C7E51A4AB66B297BEB1714B545CE4E867A70D622566573098C PUSH1 0x80 CALLER SWAP5 LOG4 PUSH1 0x40 MLOAD SWAP1 DUP2 MSTORE LOG2 PUSH1 0x1 DUP1 SSTORE STOP JUMPDEST PUSH2 0x1305 CALLER PUSH1 0xE DUP5 ADD PUSH2 0x53E0 JUMP JUMPDEST CALLER PUSH0 MSTORE PUSH1 0xB PUSH1 0x20 MSTORE PUSH1 0x40 PUSH0 KECCAK256 SLOAD PUSH2 0x10DD JUMPI PUSH2 0x131F CALLER PUSH2 0x539B JUMP JUMPDEST PUSH2 0x10DD JUMP JUMPDEST POP PUSH2 0x132F DUP12 CALLER PUSH2 0x579F JUMP JUMPDEST PUSH2 0x10D8 JUMP JUMPDEST PUSH2 0x134D SWAP2 POP PUSH1 0x20 RETURNDATASIZE PUSH1 0x20 GT PUSH2 0xD3F JUMPI PUSH2 0xD31 DUP2 DUP4 PUSH2 0x4F59 JUMP JUMPDEST DUP11 PUSH2 0x10A6 JUMP JUMPDEST PUSH4 0x127F08C9 PUSH1 0xE1 SHL PUSH0 MSTORE PUSH1 0x4 PUSH0 REVERT JUMPDEST PUSH4 0x6864AAC3 PUSH1 0xE1 SHL PUSH0 MSTORE PUSH1 0x4 PUSH0 REVERT JUMPDEST PUSH4 0x2E11316F PUSH1 0xE1 SHL PUSH0 MSTORE PUSH1 0x4 PUSH0 REVERT JUMPDEST PUSH4 0xF6B715C3 PUSH1 0xE0 SHL PUSH0 MSTORE PUSH1 0x4 PUSH0 REVERT JUMPDEST PUSH4 0x2A719531 PUSH1 0xE0 SHL PUSH0 MSTORE PUSH1 0x4 PUSH0 REVERT JUMPDEST PUSH4 0xAA43CB2D PUSH1 0xE0 SHL PUSH0 MSTORE PUSH1 0x4 PUSH0 REVERT JUMPDEST PUSH4 0x262B7531 PUSH1 0xE2 SHL PUSH0 MSTORE PUSH1 0x4 PUSH0 REVERT JUMPDEST CALLVALUE PUSH2 0x42F JUMPI PUSH1 0xA0 CALLDATASIZE PUSH1 0x3 NOT ADD SLT PUSH2 0x42F JUMPI PUSH1 0x64 CALLDATALOAD PUSH1 0x24 CALLDATALOAD PUSH1 0x4 CALLDATALOAD PUSH1 0x44 CALLDATALOAD PUSH2 0x13E1 PUSH2 0x577F JUMP JUMPDEST PUSH2 0x13E9 PUSH2 0x5423 JUMP JUMPDEST PUSH1 0x6 SLOAD DUP3 LT ISZERO PUSH2 0x4B6 JUMPI DUP2 PUSH0 MSTORE PUSH1 0xA PUSH1 0x20 MSTORE PUSH1 0x2 PUSH1 0x40 PUSH0 KECCAK256 ADD SLOAD TIMESTAMP LT ISZERO PUSH2 0x13AD JUMPI DUP2 PUSH0 MSTORE PUSH1 0xA PUSH1 0x20 MSTORE PUSH1 0xFF PUSH1 0x5 PUSH1 0x40 PUSH0 KECCAK256 ADD SLOAD AND PUSH2 0x139E JUMPI DUP1 DUP4 EQ PUSH2 0x16CB JUMPI DUP4 ISZERO PUSH2 0x1371 JUMPI PUSH0 DUP3 DUP2 MSTORE PUSH1 0xA PUSH1 0x20 SWAP1 DUP2 MSTORE PUSH1 0x40 DUP1 DUP4 KECCAK256 CALLER DUP5 MSTORE PUSH1 0xC ADD DUP3 MSTORE DUP1 DUP4 KECCAK256 DUP7 DUP5 MSTORE SWAP1 SWAP2 MSTORE SWAP1 KECCAK256 SLOAD DUP5 GT PUSH2 0x16BC JUMPI DUP2 PUSH0 MSTORE PUSH1 0xA PUSH1 0x20 MSTORE PUSH1 0x40 PUSH0 KECCAK256 SWAP3 PUSH1 0xB DUP5 ADD SWAP1 DUP1 PUSH0 MSTORE DUP2 PUSH1 0x20 MSTORE PUSH1 0x40 PUSH0 KECCAK256 SWAP2 DUP4 PUSH0 MSTORE PUSH1 0x20 MSTORE PUSH1 0x40 PUSH0 KECCAK256 SWAP6 PUSH1 0x7 DUP4 ADD SWAP4 DUP5 SLOAD SWAP5 PUSH1 0x7 DUP10 ADD SWAP6 DUP7 SLOAD SWAP9 PUSH2 0x26F2 DUP6 MUL DUP6 DUP2 DIV PUSH2 0x26F2 SUB PUSH2 0xE80 JUMPI DUP11 PUSH2 0x14BE PUSH2 0x14B7 PUSH2 0x2710 PUSH2 0x14C4 SWAP5 DIV DUP1 SWAP4 PUSH2 0x5226 JUMP JUMPDEST SWAP2 DUP6 PUSH2 0x5219 JUMP JUMPDEST SWAP1 PUSH2 0x5239 JUMP JUMPDEST SWAP10 PUSH1 0x84 CALLDATALOAD DUP12 LT PUSH2 0x16AD JUMPI DUP11 LT ISZERO PUSH2 0x169E JUMPI PUSH2 0x14E1 DUP6 PUSH1 0xC SWAP4 PUSH2 0x5219 JUMP JUMPDEST DUP4 SSTORE PUSH2 0x14EE DUP11 DUP10 SLOAD PUSH2 0x5302 JUMP JUMPDEST DUP9 SSTORE ADD PUSH1 0x1 DUP1 PUSH1 0xA0 SHL SUB CALLER AND PUSH0 MSTORE DUP1 PUSH1 0x20 MSTORE PUSH1 0x40 PUSH0 KECCAK256 DUP6 PUSH0 MSTORE PUSH1 0x20 MSTORE PUSH1 0x40 PUSH0 KECCAK256 PUSH2 0x1519 DUP6 DUP3 SLOAD PUSH2 0x5302 JUMP JUMPDEST SWAP1 SSTORE PUSH1 0x1 DUP1 PUSH1 0xA0 SHL SUB CALLER AND PUSH0 MSTORE PUSH1 0x20 MSTORE PUSH1 0x40 PUSH0 KECCAK256 DUP3 PUSH0 MSTORE PUSH1 0x20 MSTORE PUSH1 0x40 PUSH0 KECCAK256 PUSH2 0x1542 DUP10 DUP3 SLOAD PUSH2 0x5219 JUMP JUMPDEST SWAP1 SSTORE PUSH1 0x6 DUP6 ADD SLOAD SWAP1 PUSH8 0xDE0B6B3A7640000 DUP3 MUL SWAP2 DUP1 DUP4 DIV PUSH8 0xDE0B6B3A7640000 EQ SWAP1 ISZERO OR ISZERO PUSH2 0xE80 JUMPI PUSH1 0x4 SWAP2 PUSH2 0x1579 SWAP2 SLOAD SWAP1 PUSH2 0x5239 JUMP JUMPDEST SWAP5 ADD SWAP4 DUP5 SSTORE PUSH1 0x6 DUP9 ADD SLOAD PUSH8 0xDE0B6B3A7640000 DUP2 MUL SWAP1 DUP1 DUP3 DIV PUSH8 0xDE0B6B3A7640000 EQ SWAP1 ISZERO OR ISZERO PUSH2 0xE80 JUMPI PUSH1 0x20 SWAP9 PUSH2 0x162D PUSH1 0xA0 SWAP7 PUSH1 0x4 PUSH2 0x15DF PUSH2 0x1676 SWAP6 PUSH32 0xCA95F9F211ECEB8CF82EFF4E16AE708336F056D94515A268F4B8FD1F5C08EF50 SWAP12 SLOAD SWAP1 PUSH2 0x5239 JUMP JUMPDEST SWAP4 ADD SWAP3 DUP4 SSTORE DUP10 PUSH0 MSTORE PUSH1 0xE DUP13 MSTORE PUSH1 0x40 PUSH0 KECCAK256 DUP8 PUSH0 MSTORE DUP13 MSTORE PUSH1 0x40 PUSH0 KECCAK256 SWAP1 SLOAD SWAP1 PUSH8 0xDE0B6B3A7640000 PUSH2 0x160E DUP4 DUP10 PUSH2 0x5226 JUMP JUMPDEST DIV PUSH1 0x40 MLOAD SWAP3 PUSH2 0x161C DUP5 PUSH2 0x4F07 JUMP JUMPDEST DUP4 MSTORE TIMESTAMP DUP15 DUP5 ADD MSTORE PUSH1 0x40 DUP4 ADD MSTORE PUSH2 0x527D JUMP JUMPDEST DUP8 PUSH0 MSTORE PUSH1 0xE DUP11 MSTORE PUSH1 0x40 PUSH0 KECCAK256 DUP4 PUSH0 MSTORE DUP11 MSTORE PUSH1 0x40 PUSH0 KECCAK256 SWAP1 SLOAD SWAP1 PUSH8 0xDE0B6B3A7640000 PUSH2 0x1657 DUP4 DUP13 PUSH2 0x5226 JUMP JUMPDEST DIV PUSH1 0x40 MLOAD SWAP3 PUSH2 0x1665 DUP5 PUSH2 0x4F07 JUMP JUMPDEST DUP4 MSTORE TIMESTAMP DUP13 DUP5 ADD MSTORE PUSH1 0x40 DUP4 ADD MSTORE PUSH2 0x527D JUMP JUMPDEST PUSH1 0x40 MLOAD SWAP3 DUP4 MSTORE DUP8 DUP4 ADD MSTORE PUSH1 0x40 DUP3 ADD MSTORE DUP5 PUSH1 0x60 DUP3 ADD MSTORE CALLER PUSH1 0x80 DUP3 ADD MSTORE LOG2 PUSH1 0x1 DUP1 SSTORE PUSH1 0x40 MLOAD SWAP1 DUP2 MSTORE RETURN JUMPDEST PUSH4 0xBB55FD27 PUSH1 0xE0 SHL PUSH0 MSTORE PUSH1 0x4 PUSH0 REVERT JUMPDEST PUSH4 0xBB2875C3 PUSH1 0xE0 SHL PUSH0 MSTORE PUSH1 0x4 PUSH0 REVERT JUMPDEST PUSH4 0x39996567 PUSH1 0xE0 SHL PUSH0 MSTORE PUSH1 0x4 PUSH0 REVERT JUMPDEST PUSH4 0x2EF184B PUSH1 0xE3 SHL PUSH0 MSTORE PUSH1 0x4 PUSH0 REVERT JUMPDEST PUSH2 0x120 CALLDATASIZE PUSH1 0x3 NOT ADD SLT PUSH2 0x42F JUMPI PUSH1 0x4 CALLDATALOAD PUSH1 0x1 PUSH1 0x1 PUSH1 0x40 SHL SUB DUP2 GT PUSH2 0x42F JUMPI PUSH2 0x1706 SWAP1 CALLDATASIZE SWAP1 PUSH1 0x4 ADD PUSH2 0x4F7A JUMP JUMPDEST PUSH1 0x24 CALLDATALOAD PUSH1 0x1 PUSH1 0x1 PUSH1 0x40 SHL SUB DUP2 GT PUSH2 0x42F JUMPI PUSH2 0x1725 SWAP1 CALLDATASIZE SWAP1 PUSH1 0x4 ADD PUSH2 0x4F7A JUMP JUMPDEST PUSH1 0x44 CALLDATALOAD PUSH1 0x1 PUSH1 0x1 PUSH1 0x40 SHL SUB DUP2 GT PUSH2 0x42F JUMPI PUSH2 0x1744 SWAP1 CALLDATASIZE SWAP1 PUSH1 0x4 ADD PUSH2 0x4FE6 JUMP JUMPDEST SWAP2 PUSH1 0x64 CALLDATALOAD PUSH1 0x1 PUSH1 0x1 PUSH1 0x40 SHL SUB DUP2 GT PUSH2 0x42F JUMPI PUSH2 0x1764 SWAP1 CALLDATASIZE SWAP1 PUSH1 0x4 ADD PUSH2 0x4FE6 JUMP JUMPDEST PUSH1 0x84 CALLDATALOAD SWAP1 PUSH1 0xA4 CALLDATALOAD SWAP3 PUSH1 0x8 DUP5 LT ISZERO PUSH2 0x42F JUMPI PUSH1 0xE4 CALLDATALOAD PUSH1 0x1 PUSH1 0x1 PUSH1 0x40 SHL SUB DUP2 GT PUSH2 0x42F JUMPI PUSH2 0x1794 SWAP1 CALLDATASIZE SWAP1 PUSH1 0x4 ADD PUSH2 0x4F7A JUMP JUMPDEST SWAP6 PUSH2 0x104 CALLDATALOAD SWAP5 PUSH2 0x17A2 PUSH2 0x5423 JUMP JUMPDEST CALLVALUE ISZERO PUSH2 0x20A4 JUMPI PUSH2 0x17B0 PUSH2 0x5423 JUMP JUMPDEST PUSH0 SLOAD PUSH1 0x1 PUSH1 0x1 PUSH1 0xA0 SHL SUB AND CALLER EQ ISZERO DUP1 PUSH2 0x207F JUMPI JUMPDEST PUSH2 0xDA5 JUMPI PUSH2 0xE10 DUP6 LT DUP1 ISZERO PUSH2 0x2072 JUMPI JUMPDEST PUSH2 0xD89 JUMPI DUP3 MLOAD ISZERO PUSH2 0xD7A JUMPI DUP2 MLOAD PUSH1 0x2 DUP2 LT SWAP1 DUP2 ISZERO PUSH2 0x2067 JUMPI JUMPDEST POP PUSH2 0xD60 JUMPI DUP2 MLOAD DUP5 MLOAD SUB PUSH2 0xD51 JUMPI PUSH9 0x56BC75E2D63100000 DUP7 LT PUSH2 0x2058 JUMPI PUSH1 0x3 SLOAD PUSH1 0x40 MLOAD PUSH4 0x23B872DD PUSH1 0xE0 SHL DUP2 MSTORE CALLER PUSH1 0x4 DUP3 ADD MSTORE ADDRESS PUSH1 0x24 DUP3 ADD MSTORE PUSH1 0x44 DUP2 ADD DUP9 SWAP1 MSTORE SWAP1 PUSH1 0x20 SWAP1 DUP3 SWAP1 PUSH1 0x8 SHR PUSH1 0x1 PUSH1 0x1 PUSH1 0xA0 SHL SUB AND DUP2 PUSH0 DUP2 PUSH1 0x64 DUP2 ADD SUB SWAP3 GAS CALL SWAP1 DUP2 ISZERO PUSH2 0xD46 JUMPI PUSH0 SWAP2 PUSH2 0x2039 JUMPI JUMPDEST POP ISZERO PUSH2 0xD08 JUMPI PUSH1 0x6 SLOAD SWAP5 PUSH2 0x186C DUP7 PUSH2 0x526F JUMP JUMPDEST PUSH1 0x6 SSTORE DUP6 PUSH0 MSTORE PUSH1 0xA PUSH1 0x20 MSTORE PUSH1 0x40 PUSH0 KECCAK256 SWAP8 DUP5 MLOAD PUSH1 0x1 PUSH1 0x1 PUSH1 0x40 SHL SUB DUP2 GT PUSH2 0x9E6 JUMPI PUSH2 0x1896 DUP11 SLOAD PUSH2 0x510F JUMP JUMPDEST PUSH1 0x1F DUP2 GT PUSH2 0x1FF4 JUMPI JUMPDEST POP DUP1 PUSH1 0x20 PUSH1 0x1F DUP3 GT PUSH1 0x1 EQ PUSH2 0x1F93 JUMPI PUSH0 SWAP2 PUSH2 0x1F88 JUMPI JUMPDEST POP DUP2 PUSH1 0x1 SHL SWAP2 PUSH0 NOT SWAP1 PUSH1 0x3 SHL SHR NOT AND OR DUP10 SSTORE JUMPDEST DUP1 MLOAD PUSH1 0x1 DUP11 ADD SWAP2 PUSH1 0x1 PUSH1 0x1 PUSH1 0x40 SHL SUB DUP3 GT PUSH2 0x9E6 JUMPI PUSH2 0x18E7 DUP4 SLOAD PUSH2 0x510F JUMP JUMPDEST PUSH1 0x1F DUP2 GT PUSH2 0x1F43 JUMPI JUMPDEST POP PUSH1 0x20 SWAP1 PUSH1 0x1F DUP4 GT PUSH1 0x1 EQ PUSH2 0x1EDC JUMPI PUSH2 0x1926 SWAP5 SWAP4 SWAP3 SWAP2 PUSH0 SWAP2 DUP4 PUSH2 0x1ED1 JUMPI POP POP DUP2 PUSH1 0x1 SHL SWAP2 PUSH0 NOT SWAP1 PUSH1 0x3 SHL SHR NOT AND OR SWAP1 SSTORE TIMESTAMP PUSH2 0x5219 JUMP JUMPDEST PUSH1 0x2 DUP9 ADD SWAP1 DUP2 SSTORE PUSH1 0x3 DUP9 ADD DUP1 SLOAD PUSH2 0xFFFF NOT AND PUSH1 0xFF DUP5 AND OR PUSH2 0x200 OR SWAP1 SSTORE PUSH1 0x5 DUP9 ADD DUP1 SLOAD PUSH4 0x1000000 PUSH1 0x1 PUSH1 0xB8 SHL SUB NOT AND CALLER PUSH1 0x18 SHL PUSH4 0x1000000 PUSH1 0x1 PUSH1 0xB8 SHL SUB AND OR SWAP1 SSTORE TIMESTAMP PUSH1 0x8 DUP10 ADD SSTORE DUP3 MLOAD PUSH1 0x9 DUP10 ADD DUP2 SWAP1 SSTORE PUSH1 0xA DUP10 ADD DUP9 SWAP1 SSTORE SWAP1 SWAP9 SWAP1 DUP1 ISZERO PUSH2 0xB89 JUMPI PUSH2 0x19A2 SWAP1 PUSH8 0xDE0B6B3A7640000 SWAP11 SWAP10 SWAP11 DIV SWAP8 DUP5 MLOAD SWAP1 PUSH2 0x5239 JUMP JUMPDEST SWAP4 PUSH1 0xB PUSH0 SWAP11 ADD SWAP10 JUMPDEST DUP5 MLOAD DUP2 LT ISZERO PUSH2 0x1C8C JUMPI PUSH2 0x19BD DUP2 DUP7 PUSH2 0x5243 JUMP JUMPDEST MLOAD DUP7 DUP13 PUSH2 0x19CA DUP5 DUP12 PUSH2 0x5243 JUMP JUMPDEST MLOAD PUSH1 0x40 MLOAD SWAP4 PUSH2 0x19D8 DUP6 PUSH2 0x4F3D JUMP JUMPDEST DUP5 MSTORE PUSH1 0x20 DUP5 ADD SWAP1 DUP2 MSTORE DUP13 PUSH1 0x40 DUP6 ADD PUSH0 DUP2 MSTORE PUSH1 0x60 DUP7 ADD SWAP1 PUSH0 DUP3 MSTORE PUSH1 0x80 DUP8 ADD SWAP3 DUP4 MSTORE PUSH1 0xA0 DUP8 ADD SWAP4 PUSH1 0x1 DUP6 MSTORE PUSH1 0xC0 DUP9 ADD SWAP6 DUP8 DUP8 MSTORE PUSH1 0xE0 DUP10 ADD SWAP8 DUP9 MSTORE DUP10 PUSH0 MSTORE PUSH1 0x20 MSTORE PUSH1 0x40 PUSH0 KECCAK256 SWAP8 MLOAD DUP1 MLOAD SWAP1 PUSH1 0x1 PUSH1 0x1 PUSH1 0x40 SHL SUB DUP3 GT PUSH2 0x9E6 JUMPI DUP2 SWAP1 PUSH2 0x1A39 DUP12 SLOAD PUSH2 0x510F JUMP JUMPDEST PUSH1 0x1F DUP2 GT PUSH2 0x1C3C JUMPI JUMPDEST POP PUSH1 0x20 SWAP1 PUSH1 0x1F DUP4 GT PUSH1 0x1 EQ PUSH2 0x1BD9 JUMPI PUSH0 SWAP3 PUSH2 0x1BCE JUMPI JUMPDEST POP POP DUP2 PUSH1 0x1 SHL SWAP2 PUSH0 NOT SWAP1 PUSH1 0x3 SHL SHR NOT AND OR DUP9 SSTORE JUMPDEST MLOAD DUP1 MLOAD PUSH1 0x1 DUP10 ADD SWAP2 PUSH1 0x1 PUSH1 0x1 PUSH1 0x40 SHL SUB DUP3 GT PUSH2 0x9E6 JUMPI PUSH2 0x1A8C DUP4 SLOAD PUSH2 0x510F JUMP JUMPDEST PUSH1 0x1F DUP2 GT PUSH2 0x1B89 JUMPI JUMPDEST POP PUSH1 0x20 SWAP1 PUSH1 0x1F DUP4 GT PUSH1 0x1 EQ PUSH2 0x1B30 JUMPI SWAP3 DUP3 PUSH2 0x1AFA SWAP7 SWAP4 PUSH1 0x1 SWAP14 SWAP13 SWAP12 SWAP10 SWAP7 SWAP4 PUSH1 0x7 SWAP12 SWAP10 SWAP7 PUSH0 SWAP3 PUSH2 0x924 JUMPI POP POP PUSH0 NOT PUSH1 0x3 DUP4 SWAP1 SHL SHR NOT AND SWAP1 DUP14 SHL OR SWAP1 SSTORE MLOAD PUSH1 0x2 DUP10 ADD SSTORE MLOAD PUSH1 0x3 DUP9 ADD SSTORE MLOAD PUSH1 0x4 DUP8 ADD SSTORE MLOAD ISZERO ISZERO PUSH1 0x5 DUP7 ADD SWAP1 PUSH1 0xFF DUP1 NOT DUP4 SLOAD AND SWAP2 ISZERO ISZERO AND OR SWAP1 SSTORE JUMP JUMPDEST MLOAD PUSH1 0x6 DUP5 ADD SSTORE MLOAD SWAP2 ADD SSTORE DUP9 PUSH0 MSTORE PUSH1 0xE PUSH1 0x20 MSTORE PUSH1 0x40 PUSH0 KECCAK256 DUP2 PUSH0 MSTORE PUSH1 0x20 MSTORE PUSH2 0x1B2A PUSH1 0x40 PUSH0 KECCAK256 PUSH1 0x40 MLOAD SWAP1 PUSH2 0x90A DUP3 PUSH2 0x4F07 JUMP JUMPDEST ADD PUSH2 0x19AA JUMP JUMPDEST SWAP1 PUSH1 0x1F NOT DUP4 AND SWAP2 DUP5 PUSH0 MSTORE DUP2 PUSH0 KECCAK256 SWAP3 PUSH0 JUMPDEST DUP2 DUP2 LT PUSH2 0x1B71 JUMPI POP SWAP4 PUSH1 0x1 SWAP14 SWAP13 SWAP12 SWAP10 SWAP7 SWAP4 PUSH1 0x7 SWAP12 SWAP10 SWAP7 SWAP4 DUP16 SWAP4 DUP4 PUSH2 0x1AFA SWAP12 SWAP9 LT PUSH2 0x971 JUMPI POP POP POP DUP2 SHL ADD SWAP1 SSTORE PUSH2 0x8B0 JUMP JUMPDEST SWAP3 SWAP4 PUSH1 0x20 PUSH1 0x1 DUP2 SWAP3 DUP8 DUP7 ADD MLOAD DUP2 SSTORE ADD SWAP6 ADD SWAP4 ADD PUSH2 0x1B40 JUMP JUMPDEST DUP4 PUSH0 MSTORE PUSH1 0x20 PUSH0 KECCAK256 PUSH1 0x1F DUP5 ADD PUSH1 0x5 SHR DUP2 ADD SWAP2 PUSH1 0x20 DUP6 LT PUSH2 0x1BC4 JUMPI JUMPDEST PUSH1 0x1F ADD PUSH1 0x5 SHR ADD SWAP1 JUMPDEST DUP2 DUP2 LT PUSH2 0x1BB9 JUMPI POP PUSH2 0x1A95 JUMP JUMPDEST PUSH0 DUP2 SSTORE PUSH1 0x1 ADD PUSH2 0x1BAC JUMP JUMPDEST SWAP1 SWAP2 POP DUP2 SWAP1 PUSH2 0x1BA3 JUMP JUMPDEST ADD MLOAD SWAP1 POP PUSH0 DUP1 PUSH2 0x1A58 JUMP JUMPDEST PUSH0 DUP13 DUP2 MSTORE DUP3 DUP2 KECCAK256 SWAP4 POP PUSH1 0x1F NOT DUP6 AND SWAP1 JUMPDEST DUP2 DUP2 LT PUSH2 0x1C24 JUMPI POP SWAP1 DUP5 PUSH1 0x1 SWAP6 SWAP5 SWAP4 SWAP3 LT PUSH2 0x1C0C JUMPI JUMPDEST POP POP POP DUP2 SHL ADD DUP9 SSTORE PUSH2 0x1A6C JUMP JUMPDEST ADD MLOAD PUSH0 NOT PUSH1 0xF8 DUP5 PUSH1 0x3 SHL AND SHR NOT AND SWAP1 SSTORE PUSH0 DUP1 DUP1 PUSH2 0x1BFF JUMP JUMPDEST SWAP3 SWAP4 PUSH1 0x20 PUSH1 0x1 DUP2 SWAP3 DUP8 DUP7 ADD MLOAD DUP2 SSTORE ADD SWAP6 ADD SWAP4 ADD PUSH2 0x1BE9 JUMP JUMPDEST SWAP1 SWAP2 POP DUP11 PUSH0 MSTORE PUSH1 0x20 PUSH0 KECCAK256 PUSH1 0x1F DUP5 ADD PUSH1 0x5 SHR DUP2 ADD SWAP2 PUSH1 0x20 DUP6 LT PUSH2 0x1C82 JUMPI JUMPDEST SWAP1 PUSH1 0x1F DUP6 SWAP5 SWAP4 SWAP3 ADD PUSH1 0x5 SHR ADD SWAP1 JUMPDEST DUP2 DUP2 LT PUSH2 0x1C74 JUMPI POP PUSH2 0x1A42 JUMP JUMPDEST PUSH0 DUP2 SSTORE DUP5 SWAP4 POP PUSH1 0x1 ADD PUSH2 0x1C67 JUMP JUMPDEST SWAP1 SWAP2 POP DUP2 SWAP1 PUSH2 0x1C59 JUMP JUMPDEST POP DUP7 SWAP1 DUP5 DUP11 PUSH2 0x1C9E DUP5 PUSH2 0xACB DUP9 PUSH2 0x50E1 JUMP JUMPDEST PUSH2 0x1CAC DUP5 PUSH2 0xACB PUSH1 0x2 PUSH2 0x50F8 JUMP JUMPDEST SLOAD SWAP5 PUSH2 0x1CC3 PUSH1 0x40 MLOAD SWAP4 PUSH1 0xC0 DUP6 MSTORE PUSH1 0xC0 DUP6 ADD SWAP1 PUSH2 0x4E8F JUMP JUMPDEST DUP4 DUP2 SUB PUSH1 0x20 DUP6 ADD MSTORE DUP3 MLOAD DUP1 DUP3 MSTORE PUSH1 0x20 DUP3 ADD SWAP1 PUSH1 0x20 DUP1 DUP3 PUSH1 0x5 SHL DUP6 ADD ADD SWAP6 ADD SWAP2 PUSH0 SWAP1 JUMPDEST DUP3 DUP3 LT PUSH2 0x1EA0 JUMPI PUSH1 0x40 DUP9 ADD DUP12 SWAP1 MSTORE DUP10 DUP10 DUP1 PUSH0 MLOAD PUSH1 0x20 PUSH2 0x583C PUSH0 CODECOPY PUSH0 MLOAD SWAP1 PUSH0 MSTORE DUP12 DUP1 DUP13 PUSH2 0x1D14 PUSH1 0x60 DUP4 ADD DUP15 PUSH2 0x5064 JUMP JUMPDEST PUSH1 0x2 PUSH1 0x80 DUP4 ADD MSTORE CALLER PUSH1 0xA0 DUP4 ADD MSTORE SUB SWAP1 LOG2 PUSH0 DUP2 DUP2 MSTORE PUSH1 0xA PUSH1 0x20 MSTORE PUSH1 0x40 SWAP1 KECCAK256 PUSH1 0x17 DUP2 ADD DUP1 SLOAD PUSH1 0x1 PUSH1 0x1 PUSH1 0xA0 SHL SUB NOT AND CALLER OR SWAP1 SSTORE CALLVALUE PUSH1 0x18 DUP3 ADD SSTORE PUSH1 0xC4 CALLDATALOAD PUSH1 0x19 DUP3 ADD SSTORE DUP3 MLOAD SWAP3 SWAP1 PUSH1 0x1B ADD PUSH1 0x1 PUSH1 0x1 PUSH1 0x40 SHL SUB DUP5 GT PUSH2 0x9E6 JUMPI PUSH2 0x1D72 DUP2 SLOAD PUSH2 0x510F JUMP JUMPDEST SWAP4 PUSH1 0x1F DUP6 GT PUSH2 0x1E5B JUMPI JUMPDEST PUSH1 0x20 SWAP5 POP DUP1 DUP6 PUSH1 0x1F DUP3 GT PUSH1 0x1 EQ PUSH2 0x1DFB JUMPI PUSH0 SWAP2 PUSH2 0x1DF0 JUMPI JUMPDEST POP DUP2 PUSH1 0x1 SHL SWAP2 PUSH0 NOT SWAP1 PUSH1 0x3 SHL SHR NOT AND OR SWAP1 SSTORE JUMPDEST DUP2 PUSH32 0x5ECBA3331A79C832C0833D5F1B33759B26D8743C93F4A1B5402053FCBE29DE84 PUSH1 0x40 MLOAD CALLVALUE DUP2 MSTORE PUSH1 0x40 DUP7 DUP3 ADD MSTORE DUP1 PUSH2 0x1DE5 CALLER SWAP6 PUSH1 0x40 DUP4 ADD SWAP1 PUSH2 0x4E8F JUMP JUMPDEST SUB SWAP1 LOG3 PUSH1 0x40 MLOAD SWAP1 DUP2 MSTORE RETURN JUMPDEST SWAP1 POP DUP4 ADD MLOAD DUP7 PUSH2 0x1D94 JUMP JUMPDEST PUSH0 DUP5 DUP2 MSTORE DUP2 DUP2 KECCAK256 SWAP3 POP PUSH1 0x1F NOT DUP5 AND SWAP1 JUMPDEST DUP2 DUP2 LT PUSH2 0x1E44 JUMPI POP SWAP1 DUP4 PUSH1 0x1 SWAP5 SWAP4 SWAP3 LT PUSH2 0x1E2C JUMPI JUMPDEST POP POP DUP2 SHL ADD SWAP1 SSTORE PUSH2 0x1DA7 JUMP JUMPDEST DUP6 ADD MLOAD PUSH0 NOT PUSH1 0xF8 DUP5 PUSH1 0x3 SHL AND SHR NOT AND SWAP1 SSTORE DUP7 DUP1 PUSH2 0x1E20 JUMP JUMPDEST SWAP2 SWAP3 DUP9 PUSH1 0x1 DUP2 SWAP3 DUP7 DUP11 ADD MLOAD DUP2 SSTORE ADD SWAP5 ADD SWAP3 ADD PUSH2 0x1E0B JUMP JUMPDEST DUP2 PUSH0 MSTORE PUSH1 0x20 PUSH0 KECCAK256 PUSH1 0x1F DUP3 ADD PUSH1 0x5 SHR DUP2 ADD SWAP6 PUSH1 0x20 DUP4 LT PUSH2 0x1E96 JUMPI JUMPDEST PUSH1 0x1F ADD PUSH1 0x5 SHR ADD SWAP5 JUMPDEST DUP6 DUP2 LT PUSH2 0x1E8B JUMPI POP PUSH2 0x1D7C JUMP JUMPDEST PUSH0 DUP2 SSTORE PUSH1 0x1 ADD PUSH2 0x1E7E JUMP JUMPDEST SWAP1 SWAP6 POP DUP6 SWAP1 PUSH2 0x1E75 JUMP JUMPDEST SWAP1 SWAP2 SWAP3 SWAP6 PUSH1 0x20 DUP1 PUSH2 0x1EC0 PUSH1 0x1 SWAP4 DUP9 SWAP15 SWAP9 PUSH1 0x1F NOT SWAP1 DUP3 SUB ADD DUP7 MSTORE DUP11 MLOAD PUSH2 0x4E8F JUMP JUMPDEST SWAP9 ADD SWAP3 ADD SWAP3 ADD SWAP1 SWAP3 SWAP2 SWAP10 SWAP4 SWAP10 PUSH2 0x1CE5 JUMP JUMPDEST ADD MLOAD SWAP1 POP DUP14 DUP1 PUSH2 0x6D3 JUMP JUMPDEST SWAP1 PUSH1 0x1F NOT DUP4 AND SWAP2 DUP5 PUSH0 MSTORE DUP2 PUSH0 KECCAK256 SWAP3 PUSH0 JUMPDEST DUP2 DUP2 LT PUSH2 0x1F2B JUMPI POP SWAP2 PUSH1 0x1 SWAP4 SWAP2 DUP6 PUSH2 0x1926 SWAP9 SWAP8 SWAP7 SWAP5 LT PUSH2 0x1F13 JUMPI POP POP POP DUP2 SHL ADD SWAP1 SSTORE PUSH2 0x6E7 JUMP JUMPDEST ADD MLOAD PUSH0 NOT PUSH1 0xF8 DUP5 PUSH1 0x3 SHL AND SHR NOT AND SWAP1 SSTORE DUP14 DUP1 DUP1 PUSH2 0xBD3 JUMP JUMPDEST SWAP3 SWAP4 PUSH1 0x20 PUSH1 0x1 DUP2 SWAP3 DUP8 DUP7 ADD MLOAD DUP2 SSTORE ADD SWAP6 ADD SWAP4 ADD PUSH2 0x1EEC JUMP JUMPDEST DUP4 PUSH0 MSTORE PUSH1 0x20 PUSH0 KECCAK256 PUSH1 0x1F DUP5 ADD PUSH1 0x5 SHR DUP2 ADD SWAP2 PUSH1 0x20 DUP6 LT PUSH2 0x1F7E JUMPI JUMPDEST PUSH1 0x1F ADD PUSH1 0x5 SHR ADD SWAP1 JUMPDEST DUP2 DUP2 LT PUSH2 0x1F73 JUMPI POP PUSH2 0x18F0 JUMP JUMPDEST PUSH0 DUP2 SSTORE PUSH1 0x1 ADD PUSH2 0x1F66 JUMP JUMPDEST SWAP1 SWAP2 POP DUP2 SWAP1 PUSH2 0x1F5D JUMP JUMPDEST SWAP1 POP DUP7 ADD MLOAD DUP13 PUSH2 0x18B5 JUMP JUMPDEST PUSH0 DUP13 DUP2 MSTORE DUP2 DUP2 KECCAK256 SWAP3 POP PUSH1 0x1F NOT DUP5 AND SWAP1 JUMPDEST DUP2 DUP2 LT PUSH2 0x1FDC JUMPI POP SWAP1 DUP4 PUSH1 0x1 SWAP5 SWAP4 SWAP3 LT PUSH2 0x1FC4 JUMPI JUMPDEST POP POP DUP2 SHL ADD DUP10 SSTORE PUSH2 0x18C8 JUMP JUMPDEST DUP9 ADD MLOAD PUSH0 NOT PUSH1 0xF8 DUP5 PUSH1 0x3 SHL AND SHR NOT AND SWAP1 SSTORE DUP13 DUP1 PUSH2 0x1FB8 JUMP JUMPDEST SWAP2 SWAP3 PUSH1 0x20 PUSH1 0x1 DUP2 SWAP3 DUP7 DUP14 ADD MLOAD DUP2 SSTORE ADD SWAP5 ADD SWAP3 ADD PUSH2 0x1FA3 JUMP JUMPDEST DUP11 PUSH0 MSTORE PUSH1 0x20 PUSH0 KECCAK256 PUSH1 0x1F DUP4 ADD PUSH1 0x5 SHR DUP2 ADD SWAP2 PUSH1 0x20 DUP5 LT PUSH2 0x202F JUMPI JUMPDEST PUSH1 0x1F ADD PUSH1 0x5 SHR ADD SWAP1 JUMPDEST DUP2 DUP2 LT PUSH2 0x2024 JUMPI POP PUSH2 0x189F JUMP JUMPDEST PUSH0 DUP2 SSTORE PUSH1 0x1 ADD PUSH2 0x2017 JUMP JUMPDEST SWAP1 SWAP2 POP DUP2 SWAP1 PUSH2 0x200E JUMP JUMPDEST PUSH2 0x2052 SWAP2 POP PUSH1 0x20 RETURNDATASIZE PUSH1 0x20 GT PUSH2 0xD3F JUMPI PUSH2 0xD31 DUP2 DUP4 PUSH2 0x4F59 JUMP JUMPDEST DUP10 PUSH2 0x1859 JUMP JUMPDEST PUSH4 0xCCA38335 PUSH1 0xE0 SHL PUSH0 MSTORE PUSH1 0x4 PUSH0 REVERT JUMPDEST PUSH1 0xA SWAP2 POP GT DUP10 PUSH2 0x17ED JUMP JUMPDEST POP PUSH4 0x1E13380 DUP6 GT PUSH2 0x17D4 JUMP JUMPDEST POP CALLER PUSH0 SWAP1 DUP2 MSTORE PUSH0 MLOAD PUSH1 0x20 PUSH2 0x581C PUSH0 CODECOPY PUSH0 MLOAD SWAP1 PUSH0 MSTORE PUSH1 0x20 MSTORE PUSH1 0x40 SWAP1 KECCAK256 SLOAD PUSH1 0xFF AND ISZERO PUSH2 0x17C4 JUMP JUMPDEST PUSH4 0x697DF94B PUSH1 0xE1 SHL PUSH0 MSTORE PUSH1 0x4 PUSH0 REVERT JUMPDEST CALLVALUE PUSH2 0x42F JUMPI PUSH1 0x40 CALLDATASIZE PUSH1 0x3 NOT ADD SLT PUSH2 0x42F JUMPI PUSH1 0x4 CALLDATALOAD PUSH1 0x3 DUP2 LT ISZERO PUSH2 0x42F JUMPI PUSH2 0x20DC PUSH1 0x24 CALLDATALOAD SWAP2 PUSH2 0x50F8 JUMP JUMPDEST DUP1 SLOAD DUP3 LT ISZERO PUSH2 0x42F JUMPI PUSH1 0x20 SWAP2 PUSH2 0x20F1 SWAP2 PUSH2 0x4E1F JUMP JUMPDEST SWAP1 SLOAD SWAP1 PUSH1 0x3 SHL SHR PUSH1 0x40 MLOAD SWAP1 DUP2 MSTORE RETURN JUMPDEST CALLVALUE PUSH2 0x42F JUMPI PUSH1 0x40 CALLDATASIZE PUSH1 0x3 NOT ADD SLT PUSH2 0x42F JUMPI PUSH2 0x2143 PUSH1 0x4 CALLDATALOAD PUSH2 0x211F PUSH2 0x4E4A JUMP JUMPDEST SWAP1 PUSH2 0x213E PUSH2 0x2139 DUP3 PUSH0 MSTORE PUSH1 0x2 PUSH1 0x20 MSTORE PUSH1 0x1 PUSH1 0x40 PUSH0 KECCAK256 ADD SLOAD SWAP1 JUMP JUMPDEST PUSH2 0x543E JUMP JUMPDEST PUSH2 0x56FB JUMP JUMPDEST STOP JUMPDEST CALLVALUE PUSH2 0x42F JUMPI PUSH2 0x215D PUSH2 0x2156 CALLDATASIZE PUSH2 0x50C2 JUMP JUMPDEST SWAP2 SWAP1 PUSH2 0x50E1 JUMP JUMPDEST DUP1 SLOAD SWAP1 DUP2 DUP4 GT ISZERO PUSH2 0x21D6 JUMPI DUP2 JUMPDEST PUSH2 0x2173 DUP4 PUSH2 0x51E7 JUMP JUMPDEST SWAP4 DUP1 DUP3 GT ISZERO PUSH2 0x21CE JUMPI PUSH2 0x2185 SWAP2 PUSH2 0x5302 JUMP JUMPDEST PUSH0 JUMPDEST DUP4 DUP2 LT PUSH2 0x21A0 JUMPI PUSH1 0x40 MLOAD DUP1 PUSH2 0x219C DUP8 DUP3 PUSH2 0x4EB3 JUMP JUMPDEST SUB SWAP1 RETURN JUMPDEST DUP1 PUSH2 0x21B6 PUSH2 0x21B0 PUSH1 0x1 SWAP4 DUP6 PUSH2 0x5219 JUMP JUMPDEST DUP6 PUSH2 0x4E1F JUMP JUMPDEST SWAP1 SLOAD SWAP1 PUSH1 0x3 SHL SHR PUSH2 0x21C7 DUP3 DUP9 PUSH2 0x5243 JUMP JUMPDEST MSTORE ADD PUSH2 0x2187 JUMP JUMPDEST POP POP PUSH0 PUSH2 0x2185 JUMP JUMPDEST DUP3 SWAP2 PUSH2 0x216A JUMP JUMPDEST CALLVALUE PUSH2 0x42F JUMPI PUSH2 0x21EB CALLDATASIZE PUSH2 0x4E79 JUMP JUMPDEST SWAP1 PUSH2 0x21F4 PUSH2 0x577F JUMP JUMPDEST PUSH2 0x21FC PUSH2 0x5423 JUMP JUMPDEST PUSH1 0x6 SLOAD DUP2 LT ISZERO PUSH2 0x4B6 JUMPI DUP1 PUSH0 MSTORE PUSH1 0xA PUSH1 0x20 MSTORE PUSH1 0x2 PUSH1 0x40 PUSH0 KECCAK256 ADD SLOAD TIMESTAMP LT ISZERO PUSH2 0x13AD JUMPI DUP1 PUSH0 MSTORE PUSH1 0xA PUSH1 0x20 MSTORE PUSH1 0xFF PUSH1 0x5 PUSH1 0x40 PUSH0 KECCAK256 ADD SLOAD AND PUSH2 0x139E JUMPI DUP1 PUSH0 MSTORE PUSH1 0xA PUSH1 0x20 MSTORE PUSH1 0x9 PUSH1 0x40 PUSH0 KECCAK256 ADD SLOAD DUP3 LT ISZERO PUSH2 0x138F JUMPI DUP1 PUSH0 MSTORE PUSH1 0xA PUSH1 0x20 MSTORE PUSH1 0xB PUSH1 0x40 PUSH0 KECCAK256 ADD DUP3 PUSH0 MSTORE PUSH1 0x20 MSTORE PUSH1 0xFF PUSH1 0x5 PUSH1 0x40 PUSH0 KECCAK256 ADD SLOAD AND ISZERO PUSH2 0x1380 JUMPI DUP1 PUSH0 MSTORE PUSH1 0xA PUSH1 0x20 MSTORE PUSH1 0x40 PUSH0 KECCAK256 PUSH1 0xFF PUSH1 0x3 DUP3 ADD SLOAD PUSH1 0x8 SHR AND PUSH1 0x3 DUP2 LT ISZERO PUSH2 0x2467 JUMPI PUSH1 0x1 SUB PUSH2 0x2458 JUMPI PUSH1 0xFF PUSH1 0x14 DUP3 ADD SLOAD AND ISZERO PUSH2 0x2449 JUMPI CALLER PUSH0 SWAP1 DUP2 MSTORE PUSH1 0x15 DUP3 ADD PUSH1 0x20 DUP2 SWAP1 MSTORE PUSH1 0x40 SWAP1 SWAP2 KECCAK256 SLOAD PUSH1 0xFF AND PUSH2 0x243A JUMPI PUSH1 0x13 DUP3 ADD SWAP2 DUP3 SLOAD PUSH1 0x11 DUP3 ADD SLOAD GT ISZERO PUSH2 0x242B JUMPI CALLER PUSH0 MSTORE PUSH1 0x12 PUSH1 0x20 MSTORE PUSH1 0x40 PUSH0 KECCAK256 SLOAD SWAP3 PUSH2 0x22EE PUSH1 0x12 DUP4 ADD SLOAD DUP1 SWAP6 PUSH2 0x5219 JUMP JUMPDEST PUSH1 0x9 SLOAD LT PUSH2 0x241C JUMPI CALLER PUSH0 SWAP1 DUP2 MSTORE PUSH1 0x20 SWAP4 DUP5 MSTORE PUSH1 0x40 DUP1 DUP3 KECCAK256 DUP1 SLOAD PUSH1 0xFF NOT AND PUSH1 0x1 OR SWAP1 SSTORE PUSH1 0x16 DUP5 ADD SWAP1 SWAP5 MSTORE SWAP3 SWAP1 SWAP3 KECCAK256 DUP4 SWAP1 SSTORE DUP2 SLOAD PUSH1 0xB SWAP3 SWAP1 PUSH2 0x232D SWAP1 PUSH2 0x526F JUMP JUMPDEST SWAP1 SSTORE CALLER PUSH0 MSTORE PUSH1 0x12 PUSH1 0x20 MSTORE PUSH1 0x40 PUSH0 KECCAK256 PUSH2 0x2346 DUP5 DUP3 SLOAD PUSH2 0x5219 JUMP JUMPDEST SWAP1 SSTORE PUSH2 0x2352 DUP5 CALLER PUSH2 0x579F JUMP JUMPDEST PUSH2 0x23F1 JUMPI JUMPDEST PUSH1 0x1 DUP1 PUSH1 0xA0 SHL SUB CALLER AND PUSH0 MSTORE PUSH1 0xC DUP2 ADD PUSH1 0x20 MSTORE PUSH1 0x40 PUSH0 KECCAK256 DUP6 PUSH0 MSTORE PUSH1 0x20 MSTORE PUSH1 0x40 PUSH0 KECCAK256 PUSH2 0x2382 DUP5 DUP3 SLOAD PUSH2 0x5219 JUMP JUMPDEST SWAP1 SSTORE DUP5 PUSH0 MSTORE ADD PUSH1 0x20 MSTORE PUSH1 0x2 PUSH1 0x40 PUSH0 KECCAK256 ADD PUSH2 0x239D DUP3 DUP3 SLOAD PUSH2 0x5219 JUMP JUMPDEST SWAP1 SSTORE CALLER PUSH0 MSTORE PUSH1 0xB PUSH1 0x20 MSTORE PUSH1 0x4 PUSH1 0x40 PUSH0 KECCAK256 ADD PUSH2 0x23B8 DUP2 SLOAD PUSH2 0x526F JUMP JUMPDEST SWAP1 SSTORE PUSH1 0x40 MLOAD SWAP3 DUP4 MSTORE PUSH1 0x20 DUP4 ADD MSTORE PUSH32 0xBA1358E4391D1F20B35776C79553F82C2795E406EB2237BCD294702BF75BD56D PUSH1 0x40 CALLER SWAP4 LOG3 PUSH1 0x1 DUP1 SSTORE STOP JUMPDEST PUSH2 0x23FE CALLER PUSH1 0xE DUP4 ADD PUSH2 0x53E0 JUMP JUMPDEST CALLER PUSH0 MSTORE DUP2 PUSH1 0x20 MSTORE PUSH1 0x40 PUSH0 KECCAK256 SLOAD PUSH2 0x2357 JUMPI PUSH2 0x2417 CALLER PUSH2 0x539B JUMP JUMPDEST PUSH2 0x2357 JUMP JUMPDEST PUSH4 0xB8C66799 PUSH1 0xE0 SHL PUSH0 MSTORE PUSH1 0x4 PUSH0 REVERT JUMPDEST PUSH4 0x1D28DD2D PUSH1 0xE0 SHL PUSH0 MSTORE PUSH1 0x4 PUSH0 REVERT JUMPDEST PUSH4 0x2E98E03 PUSH1 0xE3 SHL PUSH0 MSTORE PUSH1 0x4 PUSH0 REVERT JUMPDEST PUSH4 0x6883C16D PUSH1 0xE0 SHL PUSH0 MSTORE PUSH1 0x4 PUSH0 REVERT JUMPDEST PUSH4 0x48C511C9 PUSH1 0xE1 SHL PUSH0 MSTORE PUSH1 0x4 PUSH0 REVERT JUMPDEST PUSH4 0x4E487B71 PUSH1 0xE0 SHL PUSH0 MSTORE PUSH1 0x21 PUSH1 0x4 MSTORE PUSH1 0x24 PUSH0 REVERT JUMPDEST CALLVALUE PUSH2 0x42F JUMPI PUSH0 CALLDATASIZE PUSH1 0x3 NOT ADD SLT PUSH2 0x42F JUMPI PUSH1 0x20 PUSH1 0x7 SLOAD PUSH1 0x40 MLOAD SWAP1 DUP2 MSTORE RETURN JUMPDEST CALLVALUE PUSH2 0x42F JUMPI PUSH1 0x20 CALLDATASIZE PUSH1 0x3 NOT ADD SLT PUSH2 0x42F JUMPI PUSH1 0x1 PUSH1 0x1 PUSH1 0xA0 SHL SUB PUSH2 0x24B9 PUSH2 0x4E34 JUMP JUMPDEST AND PUSH0 MSTORE PUSH1 0xB PUSH1 0x20 MSTORE PUSH1 0xA0 PUSH1 0x40 PUSH0 KECCAK256 DUP1 SLOAD SWAP1 PUSH1 0x1 DUP2 ADD SLOAD SWAP1 PUSH1 0x2 DUP2 ADD SLOAD PUSH1 0x4 PUSH1 0x3 DUP4 ADD SLOAD SWAP3 ADD SLOAD SWAP3 PUSH1 0x40 MLOAD SWAP5 DUP6 MSTORE PUSH1 0x20 DUP6 ADD MSTORE PUSH1 0x40 DUP5 ADD MSTORE PUSH1 0x60 DUP4 ADD MSTORE PUSH1 0x80 DUP3 ADD MSTORE RETURN JUMPDEST CALLVALUE PUSH2 0x42F JUMPI PUSH1 0x20 CALLDATASIZE PUSH1 0x3 NOT ADD SLT PUSH2 0x42F JUMPI PUSH1 0x1 PUSH1 0x1 PUSH1 0xA0 SHL SUB PUSH2 0x251D PUSH2 0x4E34 JUMP JUMPDEST AND PUSH0 MSTORE PUSH1 0x12 PUSH1 0x20 MSTORE PUSH1 0x20 PUSH1 0x40 PUSH0 KECCAK256 SLOAD PUSH1 0x40 MLOAD SWAP1 DUP2 MSTORE RETURN JUMPDEST CALLVALUE PUSH2 0x42F JUMPI PUSH1 0x20 PUSH2 0x2567 PUSH2 0x2547 CALLDATASIZE PUSH2 0x4E79 JUMP JUMPDEST SWAP1 PUSH0 MSTORE PUSH1 0xA PUSH1 0x20 MSTORE PUSH1 0xB PUSH1 0x40 PUSH0 KECCAK256 ADD SWAP1 PUSH0 MSTORE PUSH1 0x20 MSTORE PUSH1 0x4 PUSH1 0x40 PUSH0 KECCAK256 ADD SLOAD SWAP1 JUMP JUMPDEST PUSH1 0x40 MLOAD SWAP1 DUP2 MSTORE RETURN JUMPDEST CALLVALUE PUSH2 0x42F JUMPI PUSH1 0x20 CALLDATASIZE PUSH1 0x3 NOT ADD SLT PUSH2 0x42F JUMPI PUSH2 0x2143 PUSH2 0x258B PUSH2 0x4E34 JUMP JUMPDEST PUSH2 0x2593 PUSH2 0x53FD JUMP JUMPDEST PUSH32 0xD486618B282CB35034D59C30C062B5B3822D6CDF87EC459191CE7F5B7B8A4873 PUSH0 MSTORE PUSH1 0x2 PUSH1 0x20 MSTORE PUSH32 0xD3DCCF8D8289B9DEEE17E361620D7577DE7B525DD57F668D5C1BB85EC53112B6 SLOAD PUSH2 0x25E6 SWAP1 PUSH2 0x543E JUMP JUMPDEST PUSH2 0x55C9 JUMP JUMPDEST CALLVALUE PUSH2 0x42F JUMPI PUSH1 0x20 CALLDATASIZE PUSH1 0x3 NOT ADD SLT PUSH2 0x42F JUMPI PUSH1 0x4 CALLDATALOAD PUSH1 0x6 SLOAD DUP2 LT ISZERO PUSH2 0x4B6 JUMPI CALLER PUSH0 SWAP1 DUP2 MSTORE PUSH32 0xD3DCCF8D8289B9DEEE17E361620D7577DE7B525DD57F668D5C1BB85EC53112B5 PUSH1 0x20 MSTORE PUSH1 0x40 SWAP1 KECCAK256 SLOAD PUSH1 0xFF AND ISZERO DUP1 PUSH2 0x26A9 JUMPI JUMPDEST PUSH2 0xDA5 JUMPI DUP1 PUSH0 MSTORE PUSH1 0xA PUSH1 0x20 MSTORE PUSH1 0xFF PUSH1 0x5 PUSH1 0x40 PUSH0 KECCAK256 ADD SLOAD PUSH1 0x10 SHR AND PUSH2 0x139E JUMPI DUP1 PUSH0 MSTORE PUSH1 0xA PUSH1 0x20 MSTORE PUSH1 0x5 PUSH1 0x40 PUSH0 KECCAK256 ADD PUSH3 0x10000 PUSH3 0xFF0000 NOT DUP3 SLOAD AND OR SWAP1 SSTORE PUSH32 0xCD5B0C95D548CDBA5F9A45B4210642D0B866A0CC878E0A863855455908C6DB65 PUSH1 0x20 PUSH1 0x40 MLOAD CALLER DUP2 MSTORE LOG2 STOP JUMPDEST POP PUSH0 SLOAD PUSH1 0x1 PUSH1 0x1 PUSH1 0xA0 SHL SUB AND CALLER EQ ISZERO PUSH2 0x2641 JUMP JUMPDEST CALLVALUE PUSH2 0x42F JUMPI PUSH2 0x20DC PUSH2 0x2156 CALLDATASIZE PUSH2 0x50C2 JUMP JUMPDEST CALLVALUE PUSH2 0x42F JUMPI PUSH2 0x26DC CALLDATASIZE PUSH2 0x508F JUMP JUMPDEST SWAP2 PUSH0 MSTORE PUSH1 0xE PUSH1 0x20 MSTORE PUSH1 0x40 PUSH0 KECCAK256 SWAP1 PUSH0 MSTORE PUSH1 0x20 MSTORE PUSH1 0x40 PUSH0 KECCAK256 DUP1 SLOAD DUP3 LT ISZERO PUSH2 0x42F JUMPI PUSH1 0x60 SWAP2 PUSH2 0x2707 SWAP2 PUSH2 0x50A9 JUMP JUMPDEST POP DUP1 SLOAD SWAP1 PUSH1 0x2 PUSH1 0x1 DUP3 ADD SLOAD SWAP2 ADD SLOAD SWAP1 PUSH1 0x40 MLOAD SWAP3 DUP4 MSTORE PUSH1 0x20 DUP4 ADD MSTORE PUSH1 0x40 DUP3 ADD MSTORE RETURN JUMPDEST CALLVALUE PUSH2 0x42F JUMPI PUSH0 CALLDATASIZE PUSH1 0x3 NOT ADD SLT PUSH2 0x42F JUMPI PUSH1 0x20 PUSH1 0x40 MLOAD PUSH0 DUP2 MSTORE RETURN JUMPDEST CALLVALUE PUSH2 0x42F JUMPI PUSH0 CALLDATASIZE PUSH1 0x3 NOT ADD SLT PUSH2 0x42F JUMPI PUSH1 0x20 PUSH1 0x40 MLOAD PUSH2 0xE10 DUP2 MSTORE RETURN JUMPDEST CALLVALUE PUSH2 0x42F JUMPI PUSH1 0x20 CALLDATASIZE PUSH1 0x3 NOT ADD SLT PUSH2 0x42F JUMPI PUSH1 0x4 CALLDATALOAD PUSH2 0x277A PUSH2 0x53FD JUMP JUMPDEST PUSH2 0x3E8 DUP2 GT PUSH2 0x2788 JUMPI PUSH1 0x8 SSTORE STOP JUMPDEST PUSH4 0xCD4E6167 PUSH1 0xE0 SHL PUSH0 MSTORE PUSH1 0x4 PUSH0 REVERT JUMPDEST CALLVALUE PUSH2 0x42F JUMPI PUSH1 0x40 CALLDATASIZE PUSH1 0x3 NOT ADD SLT PUSH2 0x42F JUMPI PUSH2 0x27B0 PUSH2 0x4E4A JUMP JUMPDEST PUSH1 0x4 CALLDATALOAD PUSH0 MSTORE PUSH1 0x2 PUSH1 0x20 MSTORE PUSH1 0x40 PUSH0 KECCAK256 SWAP1 PUSH1 0x1 DUP1 PUSH1 0xA0 SHL SUB AND PUSH0 MSTORE PUSH1 0x20 MSTORE PUSH1 0x20 PUSH1 0xFF PUSH1 0x40 PUSH0 KECCAK256 SLOAD AND PUSH1 0x40 MLOAD SWAP1 ISZERO ISZERO DUP2 MSTORE RETURN JUMPDEST CALLVALUE PUSH2 0x42F JUMPI PUSH0 CALLDATASIZE PUSH1 0x3 NOT ADD SLT PUSH2 0x42F JUMPI PUSH0 SLOAD PUSH1 0x40 MLOAD PUSH1 0x1 PUSH1 0x1 PUSH1 0xA0 SHL SUB SWAP1 SWAP2 AND DUP2 MSTORE PUSH1 0x20 SWAP1 RETURN JUMPDEST CALLVALUE PUSH2 0x42F JUMPI PUSH1 0x20 CALLDATASIZE PUSH1 0x3 NOT ADD SLT PUSH2 0x42F JUMPI PUSH1 0x1 PUSH1 0x1 PUSH1 0xA0 SHL SUB PUSH2 0x2828 PUSH2 0x4E34 JUMP JUMPDEST AND PUSH0 MSTORE PUSH1 0x10 PUSH1 0x20 MSTORE PUSH1 0x20 PUSH1 0x40 PUSH0 KECCAK256 SLOAD PUSH1 0x40 MLOAD SWAP1 DUP2 MSTORE RETURN JUMPDEST CALLVALUE PUSH2 0x42F JUMPI PUSH0 CALLDATASIZE PUSH1 0x3 NOT ADD SLT PUSH2 0x42F JUMPI PUSH2 0x2857 PUSH2 0x53FD JUMP JUMPDEST PUSH2 0x285F PUSH2 0x5423 JUMP JUMPDEST PUSH1 0x1 PUSH1 0xFF NOT PUSH1 0x3 SLOAD AND OR PUSH1 0x3 SSTORE PUSH32 0x62E78CEA01BEE320CD4E420270B5EA74000D11B0C9F74754EBDBFC544B05A258 PUSH1 0x20 PUSH1 0x40 MLOAD CALLER DUP2 MSTORE LOG1 STOP JUMPDEST CALLVALUE PUSH2 0x42F JUMPI PUSH1 0x40 CALLDATASIZE PUSH1 0x3 NOT ADD SLT PUSH2 0x42F JUMPI PUSH1 0x4 CALLDATALOAD PUSH2 0x28B4 PUSH2 0x4E4A JUMP JUMPDEST SWAP1 PUSH1 0x6 SLOAD DUP2 LT ISZERO PUSH2 0x4B6 JUMPI PUSH0 MSTORE PUSH1 0xA PUSH1 0x20 MSTORE PUSH1 0x40 PUSH0 KECCAK256 SWAP1 PUSH1 0x9 DUP3 ADD SLOAD SWAP1 PUSH2 0x28DA DUP3 PUSH2 0x51E7 JUMP JUMPDEST SWAP3 PUSH1 0xC ADD SWAP1 PUSH1 0x1 PUSH1 0x1 PUSH1 0xA0 SHL SUB AND PUSH0 JUMPDEST DUP4 DUP2 LT PUSH2 0x28FF JUMPI PUSH1 0x40 MLOAD DUP1 PUSH2 0x219C DUP8 DUP3 PUSH2 0x4EB3 JUMP JUMPDEST PUSH1 0x1 SWAP1 DUP3 PUSH0 MSTORE DUP4 PUSH1 0x20 MSTORE PUSH1 0x40 PUSH0 KECCAK256 DUP2 PUSH0 MSTORE PUSH1 0x20 MSTORE PUSH1 0x40 PUSH0 KECCAK256 SLOAD PUSH2 0x2922 DUP3 DUP9 PUSH2 0x5243 JUMP JUMPDEST MSTORE ADD PUSH2 0x28EA JUMP JUMPDEST CALLVALUE PUSH2 0x42F JUMPI PUSH0 CALLDATASIZE PUSH1 0x3 NOT ADD SLT PUSH2 0x42F JUMPI PUSH1 0x20 PUSH1 0x40 MLOAD PUSH4 0x1E13380 DUP2 MSTORE RETURN JUMPDEST CALLVALUE PUSH2 0x42F JUMPI PUSH2 0x2955 CALLDATASIZE PUSH2 0x508F JUMP JUMPDEST SWAP2 PUSH0 MSTORE PUSH1 0xE PUSH1 0x20 MSTORE PUSH1 0x40 PUSH0 KECCAK256 SWAP1 PUSH0 MSTORE PUSH1 0x20 MSTORE PUSH1 0x40 PUSH0 KECCAK256 DUP1 SLOAD SWAP1 DUP2 DUP4 GT PUSH0 EQ PUSH2 0x2AA8 JUMPI DUP2 JUMPDEST PUSH2 0x2982 DUP4 PUSH2 0x4FCF JUMP JUMPDEST SWAP4 PUSH2 0x2990 PUSH1 0x40 MLOAD SWAP6 DUP7 PUSH2 0x4F59 JUMP JUMPDEST DUP4 DUP6 MSTORE PUSH1 0x1F NOT PUSH2 0x299F DUP6 PUSH2 0x4FCF JUMP JUMPDEST ADD PUSH0 JUMPDEST DUP2 DUP2 LT PUSH2 0x2A7F JUMPI POP POP DUP1 DUP3 GT ISZERO PUSH2 0x2A77 JUMPI PUSH2 0x29BC SWAP2 PUSH2 0x5302 JUMP JUMPDEST PUSH0 JUMPDEST DUP4 DUP2 LT PUSH2 0x2A21 JUMPI DUP5 PUSH1 0x40 MLOAD DUP1 SWAP2 PUSH1 0x20 DUP3 ADD PUSH1 0x20 DUP4 MSTORE DUP2 MLOAD DUP1 SWAP2 MSTORE PUSH1 0x20 PUSH1 0x40 DUP5 ADD SWAP3 ADD SWAP1 PUSH0 JUMPDEST DUP2 DUP2 LT PUSH2 0x29F1 JUMPI POP POP POP SUB SWAP1 RETURN JUMPDEST SWAP2 SWAP4 POP SWAP2 PUSH1 0x20 PUSH1 0x60 PUSH1 0x1 SWAP3 PUSH1 0x40 DUP8 MLOAD DUP1 MLOAD DUP4 MSTORE DUP5 DUP2 ADD MLOAD DUP6 DUP5 ADD MSTORE ADD MLOAD PUSH1 0x40 DUP3 ADD MSTORE ADD SWAP5 ADD SWAP2 ADD SWAP2 DUP5 SWAP4 SWAP3 PUSH2 0x29E3 JUMP JUMPDEST DUP1 PUSH2 0x2A37 PUSH2 0x2A31 PUSH1 0x1 SWAP4 DUP6 PUSH2 0x5219 JUMP JUMPDEST DUP6 PUSH2 0x50A9 JUMP JUMPDEST POP PUSH1 0x2 PUSH1 0x40 MLOAD SWAP2 PUSH2 0x2A47 DUP4 PUSH2 0x4F07 JUMP JUMPDEST DUP1 SLOAD DUP4 MSTORE DUP5 DUP2 ADD SLOAD PUSH1 0x20 DUP5 ADD MSTORE ADD SLOAD PUSH1 0x40 DUP3 ADD MSTORE PUSH2 0x2A65 DUP3 DUP9 PUSH2 0x5243 JUMP JUMPDEST MSTORE PUSH2 0x2A70 DUP2 DUP8 PUSH2 0x5243 JUMP JUMPDEST POP ADD PUSH2 0x29BE JUMP JUMPDEST POP POP PUSH0 PUSH2 0x29BC JUMP JUMPDEST PUSH1 0x20 SWAP1 PUSH1 0x40 MLOAD PUSH2 0x2A8E DUP2 PUSH2 0x4F07 JUMP JUMPDEST PUSH0 DUP2 MSTORE PUSH0 DUP4 DUP3 ADD MSTORE PUSH0 PUSH1 0x40 DUP3 ADD MSTORE DUP3 DUP3 DUP11 ADD ADD MSTORE ADD PUSH2 0x29A2 JUMP JUMPDEST DUP3 SWAP2 PUSH2 0x2979 JUMP JUMPDEST CALLVALUE PUSH2 0x42F JUMPI PUSH0 CALLDATASIZE PUSH1 0x3 NOT ADD SLT PUSH2 0x42F JUMPI PUSH1 0x20 PUSH1 0x40 MLOAD PUSH32 0xEF485BE696BBC0C91AD541BBD553FFB5BD0E18DAC30BA76E992DDA23CB807A8A DUP2 MSTORE RETURN JUMPDEST CALLVALUE PUSH2 0x42F JUMPI PUSH0 CALLDATASIZE PUSH1 0x3 NOT ADD SLT PUSH2 0x42F JUMPI PUSH1 0x20 PUSH1 0x40 MLOAD PUSH32 0xDCEE1D35C83A32B436264A5C9AFD68685C124F3F9097E87804C55410E67FC59A DUP2 MSTORE RETURN JUMPDEST CALLVALUE PUSH2 0x42F JUMPI PUSH0 CALLDATASIZE PUSH1 0x3 NOT ADD SLT PUSH2 0x42F JUMPI PUSH2 0x2B3B PUSH2 0x53FD JUMP JUMPDEST PUSH0 DUP1 SLOAD PUSH1 0x1 PUSH1 0x1 PUSH1 0xA0 SHL SUB NOT DUP2 AND DUP3 SSTORE PUSH1 0x1 PUSH1 0x1 PUSH1 0xA0 SHL SUB AND PUSH32 0x8BE0079C531659141344CD1FD0A4F28419497F9722A3DAAFE3B4186F6B6457E0 DUP3 DUP1 LOG3 STOP JUMPDEST CALLVALUE PUSH2 0x42F JUMPI PUSH2 0x2B88 CALLDATASIZE PUSH2 0x4E79 JUMP JUMPDEST SWAP1 PUSH2 0x2B91 PUSH2 0x577F JUMP JUMPDEST PUSH1 0x6 SLOAD DUP2 LT ISZERO PUSH2 0x4B6 JUMPI DUP2 ISZERO PUSH2 0x1371 JUMPI PUSH1 0x3 SLOAD PUSH1 0x40 MLOAD PUSH4 0x23B872DD PUSH1 0xE0 SHL DUP2 MSTORE CALLER PUSH1 0x4 DUP3 ADD MSTORE ADDRESS PUSH1 0x24 DUP3 ADD MSTORE PUSH1 0x44 DUP2 ADD DUP5 SWAP1 MSTORE SWAP1 PUSH1 0x20 SWAP1 DUP3 SWAP1 PUSH1 0x8 SHR PUSH1 0x1 PUSH1 0x1 PUSH1 0xA0 SHL SUB AND DUP2 PUSH0 DUP2 PUSH1 0x64 DUP2 ADD SUB SWAP3 GAS CALL SWAP1 DUP2 ISZERO PUSH2 0xD46 JUMPI PUSH0 SWAP2 PUSH2 0x2CA7 JUMPI JUMPDEST POP ISZERO PUSH2 0xD08 JUMPI DUP1 PUSH0 MSTORE PUSH1 0xA PUSH1 0x20 MSTORE PUSH1 0x40 PUSH0 KECCAK256 SWAP1 PUSH1 0xA DUP3 ADD PUSH2 0x2C11 DUP5 DUP3 SLOAD PUSH2 0x5219 JUMP JUMPDEST SWAP1 SSTORE PUSH1 0x9 DUP3 ADD SWAP2 PUSH2 0x2C23 DUP4 SLOAD DUP6 PUSH2 0x5239 JUMP JUMPDEST SWAP2 PUSH1 0xB PUSH0 SWAP3 ADD SWAP2 JUMPDEST DUP5 SLOAD DUP2 LT ISZERO PUSH2 0x2C73 JUMPI DUP1 PUSH1 0x1 SWAP2 PUSH0 MSTORE DUP4 PUSH1 0x20 MSTORE PUSH1 0x6 PUSH1 0x40 PUSH0 KECCAK256 ADD PUSH2 0x2C50 DUP7 DUP3 SLOAD PUSH2 0x5219 JUMP JUMPDEST SWAP1 SSTORE DUP1 PUSH0 MSTORE DUP4 PUSH1 0x20 MSTORE PUSH1 0x7 PUSH1 0x40 PUSH0 KECCAK256 ADD PUSH2 0x2C6B DUP7 DUP3 SLOAD PUSH2 0x5219 JUMP JUMPDEST SWAP1 SSTORE ADD PUSH2 0x2C2B JUMP JUMPDEST DUP6 DUP3 PUSH1 0x40 MLOAD SWAP2 DUP3 MSTORE PUSH32 0xC733C2813826D31C105DBFF518B08258E9E7AEB3EB1C7C7F642D77696FAF501D PUSH1 0x20 CALLER SWAP4 LOG3 PUSH1 0x1 DUP1 SSTORE STOP JUMPDEST PUSH2 0x2CC0 SWAP2 POP PUSH1 0x20 RETURNDATASIZE PUSH1 0x20 GT PUSH2 0xD3F JUMPI PUSH2 0xD31 DUP2 DUP4 PUSH2 0x4F59 JUMP JUMPDEST DUP4 PUSH2 0x2BEF JUMP JUMPDEST CALLVALUE PUSH2 0x42F JUMPI PUSH1 0x20 CALLDATASIZE PUSH1 0x3 NOT ADD SLT PUSH2 0x42F JUMPI PUSH2 0x2143 PUSH2 0x2CE2 PUSH2 0x4E34 JUMP JUMPDEST PUSH2 0x2CEA PUSH2 0x53FD JUMP JUMPDEST PUSH32 0xEF485BE696BBC0C91AD541BBD553FFB5BD0E18DAC30BA76E992DDA23CB807A8A PUSH0 MSTORE PUSH1 0x2 PUSH1 0x20 MSTORE PUSH32 0x30D995518B427F5A5863AD73FE356CA50CF70941F42C516830919C845FA58070 SLOAD PUSH2 0x2D3D SWAP1 PUSH2 0x543E JUMP JUMPDEST PUSH2 0x5536 JUMP JUMPDEST CALLVALUE PUSH2 0x42F JUMPI PUSH1 0x20 CALLDATASIZE PUSH1 0x3 NOT ADD SLT PUSH2 0x42F JUMPI PUSH1 0x4 CALLDATALOAD PUSH2 0x2D5E PUSH2 0x577F JUMP JUMPDEST PUSH1 0x6 SLOAD DUP2 LT ISZERO PUSH2 0x4B6 JUMPI DUP1 PUSH0 MSTORE PUSH1 0xA PUSH1 0x20 MSTORE PUSH1 0x40 PUSH0 KECCAK256 SWAP1 PUSH1 0x5 DUP3 ADD SLOAD PUSH1 0xFF DUP2 AND ISZERO SWAP1 DUP2 ISZERO PUSH2 0x2F73 JUMPI JUMPDEST POP PUSH2 0x2F64 JUMPI PUSH1 0xD DUP3 ADD SWAP2 PUSH1 0x1 DUP1 PUSH1 0xA0 SHL SUB CALLER AND PUSH0 MSTORE DUP3 PUSH1 0x20 MSTORE PUSH1 0xFF PUSH1 0x40 PUSH0 KECCAK256 SLOAD AND PUSH2 0x2F55 JUMPI CALLER PUSH0 SWAP1 DUP2 MSTORE PUSH1 0xC DUP3 ADD PUSH1 0x20 SWAP1 DUP2 MSTORE PUSH1 0x40 DUP1 DUP4 KECCAK256 PUSH1 0x4 DUP6 ADD SLOAD DUP1 DUP6 MSTORE SWAP3 MSTORE SWAP1 SWAP2 KECCAK256 SLOAD SWAP1 DUP2 ISZERO PUSH2 0x2F46 JUMPI DUP3 PUSH2 0x2E49 PUSH2 0x2E4E SWAP3 PUSH1 0xB PUSH2 0x2E54 SWAP7 ADD DUP2 PUSH0 MSTORE DUP1 PUSH1 0x20 MSTORE PUSH2 0x2E22 PUSH1 0x6 PUSH1 0x2 PUSH1 0x40 PUSH0 KECCAK256 ADD SLOAD SWAP6 ADD SLOAD DUP4 PUSH0 MSTORE DUP3 PUSH1 0x20 MSTORE PUSH8 0xDE0B6B3A7640000 PUSH2 0x2E1B PUSH1 0x4 PUSH1 0x40 PUSH0 KECCAK256 ADD SLOAD DUP9 PUSH2 0x5226 JUMP JUMPDEST DIV SWAP1 PUSH2 0x5302 JUMP JUMPDEST SWAP2 PUSH0 MSTORE PUSH1 0x20 MSTORE PUSH8 0xDE0B6B3A7640000 PUSH2 0x2E42 PUSH1 0x4 PUSH1 0x40 PUSH0 KECCAK256 ADD SLOAD DUP8 PUSH2 0x5226 JUMP JUMPDEST DIV SWAP5 PUSH2 0x5226 JUMP JUMPDEST PUSH2 0x5239 JUMP JUMPDEST SWAP1 PUSH2 0x5219 JUMP JUMPDEST SWAP2 PUSH1 0x1 DUP1 PUSH1 0xA0 SHL SUB CALLER AND PUSH0 MSTORE PUSH1 0x20 MSTORE PUSH1 0x40 PUSH0 KECCAK256 PUSH1 0x1 PUSH1 0xFF NOT DUP3 SLOAD AND OR SWAP1 SSTORE CALLER PUSH0 MSTORE PUSH1 0xB PUSH1 0x20 MSTORE PUSH1 0x1 PUSH1 0x40 PUSH0 KECCAK256 ADD PUSH2 0x2E8C DUP4 DUP3 SLOAD PUSH2 0x5219 JUMP JUMPDEST SWAP1 SSTORE CALLER PUSH0 MSTORE PUSH1 0x10 PUSH1 0x20 MSTORE PUSH1 0x40 PUSH0 KECCAK256 PUSH2 0x2EA5 DUP4 DUP3 SLOAD PUSH2 0x5219 JUMP JUMPDEST SWAP1 SSTORE PUSH1 0x3 SLOAD PUSH1 0x40 MLOAD PUSH4 0xA9059CBB PUSH1 0xE0 SHL DUP2 MSTORE CALLER PUSH1 0x4 DUP3 ADD MSTORE PUSH1 0x24 DUP2 ADD DUP5 SWAP1 MSTORE SWAP1 PUSH1 0x20 SWAP1 DUP3 SWAP1 PUSH1 0x8 SHR PUSH1 0x1 PUSH1 0x1 PUSH1 0xA0 SHL SUB AND DUP2 PUSH0 DUP2 PUSH1 0x44 DUP2 ADD SUB SWAP3 GAS CALL SWAP1 DUP2 ISZERO PUSH2 0xD46 JUMPI PUSH0 SWAP2 PUSH2 0x2F27 JUMPI JUMPDEST POP ISZERO PUSH2 0xD08 JUMPI PUSH1 0x40 MLOAD SWAP2 DUP3 MSTORE PUSH32 0x4EC90E965519D92681267467F775ADA5BD214AA92C0DC93D90A5E880CE9ED026 PUSH1 0x20 CALLER SWAP4 LOG3 PUSH1 0x1 DUP1 SSTORE STOP JUMPDEST PUSH2 0x2F40 SWAP2 POP PUSH1 0x20 RETURNDATASIZE PUSH1 0x20 GT PUSH2 0xD3F JUMPI PUSH2 0xD31 DUP2 DUP4 PUSH2 0x4F59 JUMP JUMPDEST DUP4 PUSH2 0x2EEF JUMP JUMPDEST PUSH4 0x843F941B PUSH1 0xE0 SHL PUSH0 MSTORE PUSH1 0x4 PUSH0 REVERT JUMPDEST PUSH4 0xC8D9EAB PUSH1 0xE3 SHL PUSH0 MSTORE PUSH1 0x4 PUSH0 REVERT JUMPDEST PUSH4 0x56C5D21D PUSH1 0xE0 SHL PUSH0 MSTORE PUSH1 0x4 PUSH0 REVERT JUMPDEST PUSH1 0xFF SWAP2 POP PUSH1 0x8 SHR AND DUP4 PUSH2 0x2D87 JUMP JUMPDEST CALLVALUE PUSH2 0x42F JUMPI PUSH2 0x2F8F CALLDATASIZE PUSH2 0x4E79 JUMP JUMPDEST PUSH1 0x6 SLOAD DUP3 LT ISZERO PUSH2 0x4B6 JUMPI PUSH0 SLOAD PUSH1 0x1 PUSH1 0x1 PUSH1 0xA0 SHL SUB AND CALLER EQ ISZERO DUP1 PUSH2 0x3044 JUMPI JUMPDEST PUSH2 0xDA5 JUMPI DUP2 PUSH0 MSTORE PUSH1 0xA PUSH1 0x20 MSTORE PUSH1 0x40 PUSH0 KECCAK256 SWAP1 PUSH1 0x2 DUP3 ADD SLOAD TIMESTAMP LT PUSH2 0x3035 JUMPI PUSH1 0x5 DUP3 ADD SWAP1 DUP2 SLOAD SWAP2 PUSH1 0xFF DUP4 AND PUSH2 0x139E JUMPI PUSH1 0x9 DUP5 ADD SLOAD DUP3 LT ISZERO PUSH2 0x3026 JUMPI PUSH1 0x1 PUSH1 0x40 SWAP4 DUP4 PUSH1 0x4 PUSH32 0xC160A477581CB2155B1578581D805DCC0E6623403811FC2853465045BC0B0492 SWAP8 ADD SSTORE PUSH1 0xFF NOT AND OR SWAP1 SSTORE DUP2 MLOAD SWAP1 DUP2 MSTORE CALLER PUSH1 0x20 DUP3 ADD MSTORE LOG2 STOP JUMPDEST PUSH4 0x1387E783 PUSH1 0xE1 SHL PUSH0 MSTORE PUSH1 0x4 PUSH0 REVERT JUMPDEST PUSH4 0x123099E1 PUSH1 0xE1 SHL PUSH0 MSTORE PUSH1 0x4 PUSH0 REVERT JUMPDEST POP CALLER PUSH0 SWAP1 DUP2 MSTORE PUSH32 0x8E2C297E756B2A427C5DC4607F639842A8EA6E0F6322302F4EA76306B642CFC2 PUSH1 0x20 MSTORE PUSH1 0x40 SWAP1 KECCAK256 SLOAD PUSH1 0xFF AND ISZERO PUSH2 0x2FAD JUMP JUMPDEST CALLVALUE PUSH2 0x42F JUMPI PUSH0 CALLDATASIZE PUSH1 0x3 NOT ADD SLT PUSH2 0x42F JUMPI PUSH1 0x20 PUSH1 0xFF PUSH1 0x3 SLOAD AND PUSH1 0x40 MLOAD SWAP1 ISZERO ISZERO DUP2 MSTORE RETURN JUMPDEST CALLVALUE PUSH2 0x42F JUMPI PUSH2 0x30AC CALLDATASIZE PUSH2 0x5071 JUMP JUMPDEST PUSH2 0x30B4 PUSH2 0x577F JUMP JUMPDEST PUSH2 0x30BC PUSH2 0x5423 JUMP JUMPDEST PUSH1 0x6 SLOAD DUP5 LT ISZERO PUSH2 0x4B6 JUMPI DUP4 PUSH0 MSTORE PUSH1 0xA PUSH1 0x20 MSTORE PUSH1 0x2 PUSH1 0x40 PUSH0 KECCAK256 ADD SLOAD TIMESTAMP LT ISZERO PUSH2 0x13AD JUMPI DUP4 PUSH0 MSTORE PUSH1 0xA PUSH1 0x20 MSTORE PUSH1 0xFF PUSH1 0x5 PUSH1 0x40 PUSH0 KECCAK256 ADD SLOAD AND PUSH2 0x139E JUMPI DUP4 PUSH0 MSTORE PUSH1 0xA PUSH1 0x20 MSTORE PUSH1 0x9 PUSH1 0x40 PUSH0 KECCAK256 ADD SLOAD DUP4 LT ISZERO PUSH2 0x138F JUMPI DUP4 PUSH0 MSTORE PUSH1 0xA PUSH1 0x20 MSTORE PUSH1 0xB PUSH1 0x40 PUSH0 KECCAK256 ADD DUP4 PUSH0 MSTORE PUSH1 0x20 MSTORE PUSH1 0xFF PUSH1 0x5 PUSH1 0x40 PUSH0 KECCAK256 ADD SLOAD AND ISZERO PUSH2 0x1380 JUMPI DUP2 ISZERO PUSH2 0x1371 JUMPI PUSH0 DUP5 DUP2 MSTORE PUSH1 0xA PUSH1 0x20 SWAP1 DUP2 MSTORE PUSH1 0x40 DUP1 DUP4 KECCAK256 CALLER DUP5 MSTORE PUSH1 0xC ADD DUP3 MSTORE DUP1 DUP4 KECCAK256 DUP7 DUP5 MSTORE SWAP1 SWAP2 MSTORE SWAP1 KECCAK256 SLOAD DUP3 GT PUSH2 0x16BC JUMPI PUSH0 DUP5 DUP2 MSTORE PUSH1 0xA PUSH1 0x20 SWAP1 DUP2 MSTORE PUSH1 0x40 DUP1 DUP4 KECCAK256 DUP7 DUP5 MSTORE PUSH1 0xB DUP2 ADD SWAP1 SWAP3 MSTORE SWAP1 SWAP2 KECCAK256 PUSH1 0x4 DUP2 ADD SLOAD SWAP2 SWAP3 DUP3 LT PUSH2 0x34CF JUMPI PUSH8 0xDE0B6B3A7640000 PUSH2 0x319D DUP6 DUP5 PUSH2 0x5226 JUMP JUMPDEST DIV SWAP1 PUSH2 0x2710 PUSH2 0x31AE PUSH1 0x8 SLOAD DUP5 PUSH2 0x5226 JUMP JUMPDEST DIV SWAP4 PUSH1 0x10 PUSH2 0x31BC DUP7 DUP6 PUSH2 0x5302 JUMP JUMPDEST SWAP2 PUSH1 0x1 DUP1 PUSH1 0xA0 SHL SUB CALLER AND PUSH0 MSTORE PUSH1 0xC DUP2 ADD PUSH1 0x20 MSTORE PUSH1 0x40 PUSH0 KECCAK256 DUP10 PUSH0 MSTORE PUSH1 0x20 MSTORE PUSH1 0x40 PUSH0 KECCAK256 PUSH2 0x31E8 DUP10 DUP3 SLOAD PUSH2 0x5302 JUMP JUMPDEST SWAP1 SSTORE PUSH1 0x2 DUP5 ADD PUSH2 0x31F9 DUP10 DUP3 SLOAD PUSH2 0x5302 JUMP JUMPDEST SWAP1 SSTORE PUSH1 0x3 DUP5 ADD PUSH2 0x320A DUP7 DUP3 SLOAD PUSH2 0x5219 JUMP JUMPDEST SWAP1 SSTORE PUSH1 0x7 DUP2 ADD PUSH2 0x321B DUP7 DUP3 SLOAD PUSH2 0x5219 JUMP JUMPDEST SWAP1 SSTORE ADD PUSH2 0x3229 DUP7 DUP3 SLOAD PUSH2 0x5219 JUMP JUMPDEST SWAP1 SSTORE DUP8 PUSH0 MSTORE PUSH1 0xA PUSH1 0x20 MSTORE PUSH1 0xB PUSH1 0x40 PUSH0 KECCAK256 ADD DUP8 PUSH0 MSTORE PUSH1 0x20 MSTORE PUSH1 0x40 PUSH0 KECCAK256 PUSH1 0x6 PUSH1 0x7 DUP3 ADD SLOAD SWAP2 ADD SLOAD SWAP1 DUP8 DUP1 DUP3 GT PUSH0 EQ PUSH2 0x34C5 JUMPI PUSH2 0x3262 SWAP2 PUSH2 0x5302 JUMP JUMPDEST SWAP1 JUMPDEST PUSH8 0xDE0B6B3A7640000 DUP2 MUL SWAP1 DUP1 DUP3 DIV PUSH8 0xDE0B6B3A7640000 EQ SWAP1 ISZERO OR ISZERO PUSH2 0xE80 JUMPI PUSH1 0x4 SWAP2 PUSH2 0x3291 SWAP2 PUSH2 0x5239 JUMP JUMPDEST SWAP3 ADD SWAP2 DUP3 SSTORE PUSH8 0xDE0B6B3A7640000 PUSH2 0x32A9 DUP8 DUP7 PUSH2 0x5226 JUMP JUMPDEST DIV SWAP1 PUSH0 DUP3 DUP3 SUB SWAP3 SLT DUP2 DUP4 SLT DUP2 AND SWAP1 DUP3 DUP5 SGT SWAP1 ISZERO AND OR PUSH2 0xE80 JUMPI CALLER PUSH0 MSTORE PUSH1 0xB PUSH1 0x20 MSTORE PUSH1 0x3 PUSH1 0x40 PUSH0 KECCAK256 ADD DUP1 SLOAD PUSH0 DUP5 DUP3 ADD SWAP5 DUP6 SLT SWAP2 SLT SWAP1 DUP1 ISZERO DUP3 AND SWAP2 ISZERO AND OR PUSH2 0xE80 JUMPI PUSH0 SWAP5 PUSH1 0x20 SWAP5 PUSH2 0x33DD SWAP5 PUSH2 0x3346 SWAP4 SSTORE CALLER DUP8 MSTORE PUSH1 0xB DUP7 MSTORE PUSH1 0x4 PUSH1 0x40 DUP9 KECCAK256 ADD PUSH2 0x330F DUP2 SLOAD PUSH2 0x526F JUMP JUMPDEST SWAP1 SSTORE DUP12 DUP8 MSTORE PUSH1 0xE DUP7 MSTORE PUSH1 0x40 DUP8 KECCAK256 DUP12 DUP9 MSTORE DUP7 MSTORE PUSH1 0x40 DUP8 KECCAK256 SWAP1 SLOAD SWAP2 PUSH1 0x40 MLOAD SWAP3 PUSH2 0x3335 DUP5 PUSH2 0x4F07 JUMP JUMPDEST DUP4 MSTORE TIMESTAMP DUP8 DUP5 ADD MSTORE PUSH1 0x40 DUP4 ADD MSTORE PUSH2 0x527D JUMP JUMPDEST PUSH2 0x339F PUSH1 0x40 MLOAD PUSH2 0x3355 DUP2 PUSH2 0x4F22 JUMP JUMPDEST DUP11 DUP2 MSTORE DUP10 DUP6 DUP3 ADD MSTORE DUP6 PUSH1 0x40 DUP3 ADD MSTORE CALLER PUSH1 0x60 DUP3 ADD MSTORE DUP7 PUSH1 0x80 DUP3 ADD MSTORE DUP9 PUSH1 0xA0 DUP3 ADD MSTORE TIMESTAMP PUSH1 0xC0 DUP3 ADD MSTORE CALLER DUP7 MSTORE PUSH1 0xC DUP6 MSTORE PUSH2 0x338F DUP2 PUSH1 0x40 DUP9 KECCAK256 PUSH2 0x530F JUMP JUMPDEST DUP11 DUP7 MSTORE PUSH1 0xD DUP6 MSTORE PUSH1 0x40 DUP7 KECCAK256 PUSH2 0x530F JUMP JUMPDEST PUSH1 0x3 SLOAD PUSH1 0x40 MLOAD PUSH4 0xA9059CBB PUSH1 0xE0 SHL DUP2 MSTORE CALLER PUSH1 0x4 DUP3 ADD MSTORE PUSH1 0x24 DUP2 ADD SWAP3 SWAP1 SWAP3 MSTORE SWAP1 SWAP4 DUP5 SWAP3 PUSH1 0x8 SWAP3 SWAP1 SWAP3 SHR PUSH1 0x1 PUSH1 0x1 PUSH1 0xA0 SHL SUB AND SWAP2 DUP4 SWAP2 SWAP1 DUP3 SWAP1 PUSH1 0x44 DUP3 ADD SWAP1 JUMP JUMPDEST SUB SWAP3 GAS CALL SWAP1 DUP2 ISZERO PUSH2 0xD46 JUMPI PUSH0 SWAP2 PUSH2 0x34A6 JUMPI JUMPDEST POP ISZERO PUSH2 0xD08 JUMPI PUSH32 0xAF7C505EE772EC188AF7067E1F73DB08AB028E3D564273442B907742B9C41FA0 SWAP4 DUP6 PUSH32 0x976184626638B6C7E51A4AB66B297BEB1714B545CE4E867A70D622566573098C PUSH1 0x80 PUSH0 SWAP5 PUSH1 0x20 SWAP8 PUSH1 0x40 MLOAD DUP2 DUP2 MSTORE DUP3 DUP11 DUP3 ADD MSTORE DUP7 DUP7 PUSH32 0x33C49DA1FF633FF516CC2661D0CD94AF11B7B76985B6FE549151782C14DB745A PUSH1 0x40 CALLER SWAP5 LOG4 PUSH1 0x7 SLOAD SWAP1 PUSH2 0x3480 DUP3 PUSH2 0x526F JUMP JUMPDEST PUSH1 0x7 SSTORE PUSH1 0x40 MLOAD SWAP3 CALLER DUP5 MSTORE DUP11 DUP5 ADD MSTORE PUSH1 0x40 DUP4 ADD MSTORE PUSH1 0x60 DUP3 ADD MSTORE LOG4 PUSH1 0x40 MLOAD SWAP1 DUP2 MSTORE LOG2 PUSH1 0x1 DUP1 SSTORE STOP JUMPDEST PUSH2 0x34BF SWAP2 POP PUSH1 0x20 RETURNDATASIZE PUSH1 0x20 GT PUSH2 0xD3F JUMPI PUSH2 0xD31 DUP2 DUP4 PUSH2 0x4F59 JUMP JUMPDEST DUP7 PUSH2 0x33EF JUMP JUMPDEST POP PUSH1 0x1 SHR SWAP1 PUSH2 0x3264 JUMP JUMPDEST PUSH4 0x6DDDF411 PUSH1 0xE1 SHL PUSH0 MSTORE PUSH1 0x4 PUSH0 REVERT JUMPDEST CALLVALUE PUSH2 0x42F JUMPI PUSH0 CALLDATASIZE PUSH1 0x3 NOT ADD SLT PUSH2 0x42F JUMPI PUSH1 0x4 SLOAD PUSH1 0x40 MLOAD PUSH1 0x1 PUSH1 0x1 PUSH1 0xA0 SHL SUB SWAP1 SWAP2 AND DUP2 MSTORE PUSH1 0x20 SWAP1 RETURN JUMPDEST CALLVALUE PUSH2 0x42F JUMPI PUSH1 0x40 CALLDATASIZE PUSH1 0x3 NOT ADD SLT PUSH2 0x42F JUMPI PUSH1 0x4 CALLDATALOAD PUSH1 0x24 CALLDATALOAD PUSH1 0x1 PUSH1 0x1 PUSH1 0x40 SHL SUB DUP2 GT PUSH2 0x42F JUMPI PUSH2 0x3539 SWAP1 CALLDATASIZE SWAP1 PUSH1 0x4 ADD PUSH2 0x4F7A JUMP JUMPDEST PUSH1 0x6 SLOAD DUP3 LT ISZERO PUSH2 0x4B6 JUMPI DUP2 PUSH0 MSTORE PUSH1 0xA PUSH1 0x20 MSTORE PUSH1 0xFF PUSH1 0x5 PUSH1 0x40 PUSH0 KECCAK256 ADD SLOAD AND ISZERO PUSH2 0x3612 JUMPI DUP2 PUSH0 MSTORE PUSH1 0xA PUSH1 0x20 MSTORE PUSH1 0xFF PUSH1 0x5 PUSH1 0x40 PUSH0 KECCAK256 ADD SLOAD PUSH1 0x8 SHR AND PUSH2 0x2F55 JUMPI PUSH0 DUP3 DUP2 MSTORE PUSH1 0xA PUSH1 0x20 SWAP1 DUP2 MSTORE PUSH1 0x40 DUP1 DUP4 KECCAK256 CALLER DUP5 MSTORE PUSH1 0xC DUP2 ADD DUP4 MSTORE DUP2 DUP5 KECCAK256 PUSH1 0x4 SWAP1 SWAP2 ADD SLOAD DUP5 MSTORE SWAP1 SWAP2 MSTORE SWAP1 KECCAK256 SLOAD PUSH2 0x3603 JUMPI PUSH2 0x35FE PUSH32 0xF20590B2CB9AF0BB070AD77DE2C0B74DB291DD43666E7A386FFB0E65974B050A SWAP2 DUP4 PUSH0 MSTORE PUSH1 0xA PUSH1 0x20 MSTORE PUSH1 0x5 PUSH1 0x40 PUSH0 KECCAK256 ADD PUSH2 0x100 PUSH2 0xFF00 NOT DUP3 SLOAD AND OR SWAP1 SSTORE PUSH1 0x40 MLOAD SWAP2 DUP3 SWAP2 CALLER DUP4 MSTORE PUSH1 0x40 PUSH1 0x20 DUP5 ADD MSTORE PUSH1 0x40 DUP4 ADD SWAP1 PUSH2 0x4E8F JUMP JUMPDEST SUB SWAP1 LOG2 STOP JUMPDEST PUSH4 0x5A570B3D PUSH1 0xE0 SHL PUSH0 MSTORE PUSH1 0x4 PUSH0 REVERT JUMPDEST PUSH4 0x174B6393 PUSH1 0xE1 SHL PUSH0 MSTORE PUSH1 0x4 PUSH0 REVERT JUMPDEST CALLVALUE PUSH2 0x42F JUMPI PUSH0 CALLDATASIZE PUSH1 0x3 NOT ADD SLT PUSH2 0x42F JUMPI PUSH1 0x3 SLOAD PUSH1 0x40 MLOAD PUSH1 0x8 SWAP2 SWAP1 SWAP2 SHR PUSH1 0x1 PUSH1 0x1 PUSH1 0xA0 SHL SUB AND DUP2 MSTORE PUSH1 0x20 SWAP1 RETURN JUMPDEST CALLVALUE PUSH2 0x42F JUMPI PUSH0 CALLDATASIZE PUSH1 0x3 NOT ADD SLT PUSH2 0x42F JUMPI PUSH1 0x20 PUSH1 0x9 SLOAD PUSH1 0x40 MLOAD SWAP1 DUP2 MSTORE RETURN JUMPDEST CALLVALUE PUSH2 0x42F JUMPI PUSH0 CALLDATASIZE PUSH1 0x3 NOT ADD SLT PUSH2 0x42F JUMPI PUSH2 0x3682 PUSH2 0x53FD JUMP JUMPDEST PUSH1 0x3 SLOAD PUSH1 0xFF DUP2 AND ISZERO PUSH2 0x36C1 JUMPI PUSH1 0xFF NOT AND PUSH1 0x3 SSTORE PUSH32 0x5DB9EE0A495BF2E6FF9C91A7834C1BA4FDD244A5E8AA4E537BD38AEAE4B073AA PUSH1 0x20 PUSH1 0x40 MLOAD CALLER DUP2 MSTORE LOG1 STOP JUMPDEST PUSH4 0x8DFC202B PUSH1 0xE0 SHL PUSH0 MSTORE PUSH1 0x4 PUSH0 REVERT JUMPDEST CALLVALUE PUSH2 0x42F JUMPI PUSH1 0x20 CALLDATASIZE PUSH1 0x3 NOT ADD SLT PUSH2 0x42F JUMPI PUSH1 0x4 CALLDATALOAD PUSH1 0x6 SLOAD DUP2 LT ISZERO PUSH2 0x4B6 JUMPI PUSH0 MSTORE PUSH1 0xA PUSH1 0x20 MSTORE PUSH2 0x374C PUSH1 0x40 PUSH0 KECCAK256 PUSH1 0x2 DUP2 ADD SLOAD PUSH1 0xFF PUSH1 0x3 DUP4 ADD SLOAD AND PUSH1 0x9 DUP4 ADD SLOAD SWAP1 PUSH1 0x5 DUP5 ADD SLOAD SWAP2 PUSH2 0x376A PUSH1 0x4 DUP7 ADD SLOAD SWAP3 PUSH2 0x375A PUSH2 0x3736 PUSH1 0x1 PUSH2 0x372F DUP11 PUSH2 0x5147 JUMP JUMPDEST SWAP10 ADD PUSH2 0x5147 JUMP JUMPDEST PUSH1 0x40 MLOAD SWAP10 DUP11 SWAP10 PUSH2 0x120 DUP12 MSTORE PUSH2 0x120 DUP12 ADD SWAP1 PUSH2 0x4E8F JUMP JUMPDEST SWAP1 DUP10 DUP3 SUB PUSH1 0x20 DUP12 ADD MSTORE PUSH2 0x4E8F JUMP JUMPDEST SWAP6 PUSH1 0x40 DUP9 ADD MSTORE PUSH1 0x60 DUP8 ADD SWAP1 PUSH2 0x5064 JUMP JUMPDEST PUSH1 0x80 DUP6 ADD MSTORE PUSH1 0xFF DUP3 DUP2 AND ISZERO ISZERO PUSH1 0xA0 DUP7 ADD MSTORE PUSH1 0x8 DUP4 SWAP1 SHR AND ISZERO ISZERO PUSH1 0xC0 DUP6 ADD MSTORE PUSH1 0xE0 DUP5 ADD MSTORE PUSH1 0x18 SHR PUSH1 0x1 PUSH1 0x1 PUSH1 0xA0 SHL SUB AND PUSH2 0x100 DUP4 ADD MSTORE SUB SWAP1 RETURN JUMPDEST CALLVALUE PUSH2 0x42F JUMPI PUSH1 0x40 CALLDATASIZE PUSH1 0x3 NOT ADD SLT PUSH2 0x42F JUMPI PUSH2 0x37BC PUSH2 0x4E4A JUMP JUMPDEST CALLER PUSH1 0x1 PUSH1 0x1 PUSH1 0xA0 SHL SUB DUP3 AND SUB PUSH2 0x37D8 JUMPI PUSH2 0x2143 SWAP1 PUSH1 0x4 CALLDATALOAD PUSH2 0x56FB JUMP JUMPDEST PUSH4 0x334BD919 PUSH1 0xE1 SHL PUSH0 MSTORE PUSH1 0x4 PUSH0 REVERT JUMPDEST CALLVALUE PUSH2 0x42F JUMPI PUSH1 0x20 CALLDATASIZE PUSH1 0x3 NOT ADD SLT PUSH2 0x42F JUMPI PUSH2 0x2143 PUSH2 0x3803 PUSH2 0x4E34 JUMP JUMPDEST PUSH2 0x380B PUSH2 0x53FD JUMP JUMPDEST PUSH32 0xDCEE1D35C83A32B436264A5C9AFD68685C124F3F9097E87804C55410E67FC59A PUSH0 MSTORE PUSH1 0x2 PUSH1 0x20 MSTORE PUSH32 0x8E2C297E756B2A427C5DC4607F639842A8EA6E0F6322302F4EA76306B642CFC3 SLOAD PUSH2 0x385E SWAP1 PUSH2 0x543E JUMP JUMPDEST PUSH2 0x5478 JUMP JUMPDEST CALLVALUE PUSH2 0x42F JUMPI PUSH2 0x100 CALLDATASIZE PUSH1 0x3 NOT ADD SLT PUSH2 0x42F JUMPI PUSH1 0x4 CALLDATALOAD PUSH1 0x1 PUSH1 0x1 PUSH1 0x40 SHL SUB DUP2 GT PUSH2 0x42F JUMPI PUSH2 0x3894 SWAP1 CALLDATASIZE SWAP1 PUSH1 0x4 ADD PUSH2 0x4F7A JUMP JUMPDEST PUSH1 0x24 CALLDATALOAD PUSH1 0x1 PUSH1 0x1 PUSH1 0x40 SHL SUB DUP2 GT PUSH2 0x42F JUMPI PUSH2 0x38B3 SWAP1 CALLDATASIZE SWAP1 PUSH1 0x4 ADD PUSH2 0x4F7A JUMP JUMPDEST PUSH1 0x44 CALLDATALOAD PUSH1 0x1 PUSH1 0x1 PUSH1 0x40 SHL SUB DUP2 GT PUSH2 0x42F JUMPI PUSH2 0x38D2 SWAP1 CALLDATASIZE SWAP1 PUSH1 0x4 ADD PUSH2 0x4FE6 JUMP JUMPDEST SWAP2 PUSH1 0x64 CALLDATALOAD PUSH1 0x1 PUSH1 0x1 PUSH1 0x40 SHL SUB DUP2 GT PUSH2 0x42F JUMPI PUSH2 0x38F2 SWAP1 CALLDATASIZE SWAP1 PUSH1 0x4 ADD PUSH2 0x4FE6 JUMP JUMPDEST PUSH1 0x84 CALLDATALOAD SWAP1 PUSH1 0xA4 CALLDATALOAD PUSH1 0x8 DUP2 LT ISZERO PUSH2 0x42F JUMPI PUSH1 0xC4 CALLDATALOAD SWAP6 PUSH1 0x3 DUP8 LT ISZERO PUSH2 0x42F JUMPI PUSH1 0xE4 CALLDATALOAD SWAP5 PUSH2 0x391B PUSH2 0x5423 JUMP JUMPDEST PUSH0 SLOAD PUSH1 0x1 PUSH1 0x1 PUSH1 0xA0 SHL SUB AND CALLER EQ ISZERO DUP1 PUSH2 0x4032 JUMPI JUMPDEST PUSH2 0xDA5 JUMPI PUSH2 0xE10 DUP6 LT DUP1 ISZERO PUSH2 0x4025 JUMPI JUMPDEST PUSH2 0xD89 JUMPI DUP1 MLOAD ISZERO PUSH2 0xD7A JUMPI DUP2 MLOAD PUSH1 0x2 DUP2 LT SWAP1 DUP2 ISZERO PUSH2 0x401A JUMPI JUMPDEST POP PUSH2 0xD60 JUMPI DUP2 MLOAD DUP5 MLOAD SUB PUSH2 0xD51 JUMPI PUSH9 0x56BC75E2D63100000 DUP7 LT PUSH2 0x2058 JUMPI PUSH1 0x3 SLOAD PUSH1 0x40 MLOAD PUSH4 0x23B872DD PUSH1 0xE0 SHL DUP2 MSTORE CALLER PUSH1 0x4 DUP3 ADD MSTORE ADDRESS PUSH1 0x24 DUP3 ADD MSTORE PUSH1 0x44 DUP2 ADD DUP9 SWAP1 MSTORE SWAP1 PUSH1 0x20 SWAP1 DUP3 SWAP1 PUSH1 0x8 SHR PUSH1 0x1 PUSH1 0x1 PUSH1 0xA0 SHL SUB AND DUP2 PUSH0 DUP2 PUSH1 0x64 DUP2 ADD SUB SWAP3 GAS CALL SWAP1 DUP2 ISZERO PUSH2 0xD46 JUMPI PUSH0 SWAP2 PUSH2 0x3FFB JUMPI JUMPDEST POP ISZERO PUSH2 0xD08 JUMPI PUSH1 0x6 SLOAD SWAP5 PUSH2 0x39D7 DUP7 PUSH2 0x526F JUMP JUMPDEST PUSH1 0x6 SSTORE DUP6 PUSH0 MSTORE PUSH1 0xA PUSH1 0x20 MSTORE PUSH1 0x40 PUSH0 KECCAK256 SWAP8 DUP3 MLOAD PUSH1 0x1 PUSH1 0x1 PUSH1 0x40 SHL SUB DUP2 GT PUSH2 0x9E6 JUMPI PUSH2 0x3A01 DUP11 SLOAD PUSH2 0x510F JUMP JUMPDEST PUSH1 0x1F DUP2 GT PUSH2 0x3FB6 JUMPI JUMPDEST POP DUP1 PUSH1 0x20 PUSH1 0x1F DUP3 GT PUSH1 0x1 EQ PUSH2 0x3F55 JUMPI PUSH0 SWAP2 PUSH2 0x3F4A JUMPI JUMPDEST POP DUP2 PUSH1 0x1 SHL SWAP2 PUSH0 NOT SWAP1 PUSH1 0x3 SHL SHR NOT AND OR DUP10 SSTORE JUMPDEST DUP1 MLOAD PUSH1 0x1 DUP11 ADD SWAP2 PUSH1 0x1 PUSH1 0x1 PUSH1 0x40 SHL SUB DUP3 GT PUSH2 0x9E6 JUMPI PUSH2 0x3A52 DUP4 SLOAD PUSH2 0x510F JUMP JUMPDEST PUSH1 0x1F DUP2 GT PUSH2 0x3F05 JUMPI JUMPDEST POP PUSH1 0x20 SWAP1 PUSH1 0x1F DUP4 GT PUSH1 0x1 EQ PUSH2 0x3EB6 JUMPI PUSH2 0x3A91 SWAP5 SWAP4 SWAP3 SWAP2 PUSH0 SWAP2 DUP4 PUSH2 0x1ED1 JUMPI POP POP DUP2 PUSH1 0x1 SHL SWAP2 PUSH0 NOT SWAP1 PUSH1 0x3 SHL SHR NOT AND OR SWAP1 SSTORE TIMESTAMP PUSH2 0x5219 JUMP JUMPDEST PUSH1 0x2 DUP9 ADD SWAP1 DUP2 SSTORE PUSH1 0x3 DUP9 ADD DUP1 SLOAD PUSH2 0xFFFF NOT AND PUSH1 0xFF DUP7 AND OR PUSH1 0x8 DUP12 DUP2 SHL PUSH2 0xFF00 AND SWAP2 SWAP1 SWAP2 OR SWAP1 SWAP2 SSTORE PUSH1 0x5 DUP10 ADD DUP1 SLOAD PUSH4 0x1000000 PUSH1 0x1 PUSH1 0xB8 SHL SUB NOT AND CALLER PUSH1 0x18 SHL PUSH4 0x1000000 PUSH1 0x1 PUSH1 0xB8 SHL SUB AND OR SWAP1 SSTORE TIMESTAMP SWAP1 DUP10 ADD SSTORE DUP3 MLOAD PUSH1 0x9 DUP10 ADD DUP2 SWAP1 SSTORE PUSH1 0xA DUP10 ADD DUP9 SWAP1 SSTORE SWAP1 SWAP9 SWAP1 DUP1 ISZERO PUSH2 0xB89 JUMPI PUSH2 0x3B16 SWAP1 PUSH8 0xDE0B6B3A7640000 SWAP11 SWAP10 SWAP11 DIV SWAP8 DUP5 MLOAD SWAP1 PUSH2 0x5239 JUMP JUMPDEST SWAP4 PUSH1 0xB PUSH0 SWAP11 ADD SWAP10 JUMPDEST DUP5 MLOAD DUP2 LT ISZERO PUSH2 0x3E00 JUMPI PUSH2 0x3B31 DUP2 DUP7 PUSH2 0x5243 JUMP JUMPDEST MLOAD DUP7 DUP13 PUSH2 0x3B3E DUP5 DUP12 PUSH2 0x5243 JUMP JUMPDEST MLOAD PUSH1 0x40 MLOAD SWAP4 PUSH2 0x3B4C DUP6 PUSH2 0x4F3D JUMP JUMPDEST DUP5 MSTORE PUSH1 0x20 DUP5 ADD SWAP1 DUP2 MSTORE DUP13 PUSH1 0x40 DUP6 ADD PUSH0 DUP2 MSTORE PUSH1 0x60 DUP7 ADD SWAP1 PUSH0 DUP3 MSTORE PUSH1 0x80 DUP8 ADD SWAP3 DUP4 MSTORE PUSH1 0xA0 DUP8 ADD SWAP4 PUSH1 0x1 DUP6 MSTORE PUSH1 0xC0 DUP9 ADD SWAP6 DUP8 DUP8 MSTORE PUSH1 0xE0 DUP10 ADD SWAP8 DUP9 MSTORE DUP10 PUSH0 MSTORE PUSH1 0x20 MSTORE PUSH1 0x40 PUSH0 KECCAK256 SWAP8 MLOAD DUP1 MLOAD SWAP1 PUSH1 0x1 PUSH1 0x1 PUSH1 0x40 SHL SUB DUP3 GT PUSH2 0x9E6 JUMPI DUP2 SWAP1 PUSH2 0x3BAD DUP12 SLOAD PUSH2 0x510F JUMP JUMPDEST PUSH1 0x1F DUP2 GT PUSH2 0x3DB0 JUMPI JUMPDEST POP PUSH1 0x20 SWAP1 PUSH1 0x1F DUP4 GT PUSH1 0x1 EQ PUSH2 0x3D4D JUMPI PUSH0 SWAP3 PUSH2 0x3D42 JUMPI JUMPDEST POP POP DUP2 PUSH1 0x1 SHL SWAP2 PUSH0 NOT SWAP1 PUSH1 0x3 SHL SHR NOT AND OR DUP9 SSTORE JUMPDEST MLOAD DUP1 MLOAD PUSH1 0x1 DUP10 ADD SWAP2 PUSH1 0x1 PUSH1 0x1 PUSH1 0x40 SHL SUB DUP3 GT PUSH2 0x9E6 JUMPI PUSH2 0x3C00 DUP4 SLOAD PUSH2 0x510F JUMP JUMPDEST PUSH1 0x1F DUP2 GT PUSH2 0x3CFD JUMPI JUMPDEST POP PUSH1 0x20 SWAP1 PUSH1 0x1F DUP4 GT PUSH1 0x1 EQ PUSH2 0x3CA4 JUMPI SWAP3 DUP3 PUSH2 0x3C6E SWAP7 SWAP4 PUSH1 0x1 SWAP14 SWAP13 SWAP12 SWAP10 SWAP7 SWAP4 PUSH1 0x7 SWAP12 SWAP10 SWAP7 PUSH0 SWAP3 PUSH2 0x924 JUMPI POP POP PUSH0 NOT PUSH1 0x3 DUP4 SWAP1 SHL SHR NOT AND SWAP1 DUP14 SHL OR SWAP1 SSTORE MLOAD PUSH1 0x2 DUP10 ADD SSTORE MLOAD PUSH1 0x3 DUP9 ADD SSTORE MLOAD PUSH1 0x4 DUP8 ADD SSTORE MLOAD ISZERO ISZERO PUSH1 0x5 DUP7 ADD SWAP1 PUSH1 0xFF DUP1 NOT DUP4 SLOAD AND SWAP2 ISZERO ISZERO AND OR SWAP1 SSTORE JUMP JUMPDEST MLOAD PUSH1 0x6 DUP5 ADD SSTORE MLOAD SWAP2 ADD SSTORE DUP9 PUSH0 MSTORE PUSH1 0xE PUSH1 0x20 MSTORE PUSH1 0x40 PUSH0 KECCAK256 DUP2 PUSH0 MSTORE PUSH1 0x20 MSTORE PUSH2 0x3C9E PUSH1 0x40 PUSH0 KECCAK256 PUSH1 0x40 MLOAD SWAP1 PUSH2 0x90A DUP3 PUSH2 0x4F07 JUMP JUMPDEST ADD PUSH2 0x3B1E JUMP JUMPDEST SWAP1 PUSH1 0x1F NOT DUP4 AND SWAP2 DUP5 PUSH0 MSTORE DUP2 PUSH0 KECCAK256 SWAP3 PUSH0 JUMPDEST DUP2 DUP2 LT PUSH2 0x3CE5 JUMPI POP SWAP4 PUSH1 0x1 SWAP14 SWAP13 SWAP12 SWAP10 SWAP7 SWAP4 PUSH1 0x7 SWAP12 SWAP10 SWAP7 SWAP4 DUP16 SWAP4 DUP4 PUSH2 0x3C6E SWAP12 SWAP9 LT PUSH2 0x971 JUMPI POP POP POP DUP2 SHL ADD SWAP1 SSTORE PUSH2 0x8B0 JUMP JUMPDEST SWAP3 SWAP4 PUSH1 0x20 PUSH1 0x1 DUP2 SWAP3 DUP8 DUP7 ADD MLOAD DUP2 SSTORE ADD SWAP6 ADD SWAP4 ADD PUSH2 0x3CB4 JUMP JUMPDEST DUP4 PUSH0 MSTORE PUSH1 0x20 PUSH0 KECCAK256 PUSH1 0x1F DUP5 ADD PUSH1 0x5 SHR DUP2 ADD SWAP2 PUSH1 0x20 DUP6 LT PUSH2 0x3D38 JUMPI JUMPDEST PUSH1 0x1F ADD PUSH1 0x5 SHR ADD SWAP1 JUMPDEST DUP2 DUP2 LT PUSH2 0x3D2D JUMPI POP PUSH2 0x3C09 JUMP JUMPDEST PUSH0 DUP2 SSTORE PUSH1 0x1 ADD PUSH2 0x3D20 JUMP JUMPDEST SWAP1 SWAP2 POP DUP2 SWAP1 PUSH2 0x3D17 JUMP JUMPDEST ADD MLOAD SWAP1 POP PUSH0 DUP1 PUSH2 0x3BCC JUMP JUMPDEST PUSH0 DUP13 DUP2 MSTORE DUP3 DUP2 KECCAK256 SWAP4 POP PUSH1 0x1F NOT DUP6 AND SWAP1 JUMPDEST DUP2 DUP2 LT PUSH2 0x3D98 JUMPI POP SWAP1 DUP5 PUSH1 0x1 SWAP6 SWAP5 SWAP4 SWAP3 LT PUSH2 0x3D80 JUMPI JUMPDEST POP POP POP DUP2 SHL ADD DUP9 SSTORE PUSH2 0x3BE0 JUMP JUMPDEST ADD MLOAD PUSH0 NOT PUSH1 0xF8 DUP5 PUSH1 0x3 SHL AND SHR NOT AND SWAP1 SSTORE PUSH0 DUP1 DUP1 PUSH2 0x3D73 JUMP JUMPDEST SWAP3 SWAP4 PUSH1 0x20 PUSH1 0x1 DUP2 SWAP3 DUP8 DUP7 ADD MLOAD DUP2 SSTORE ADD SWAP6 ADD SWAP4 ADD PUSH2 0x3D5D JUMP JUMPDEST SWAP1 SWAP2 POP DUP11 PUSH0 MSTORE PUSH1 0x20 PUSH0 KECCAK256 PUSH1 0x1F DUP5 ADD PUSH1 0x5 SHR DUP2 ADD SWAP2 PUSH1 0x20 DUP6 LT PUSH2 0x3DF6 JUMPI JUMPDEST SWAP1 PUSH1 0x1F DUP6 SWAP5 SWAP4 SWAP3 ADD PUSH1 0x5 SHR ADD SWAP1 JUMPDEST DUP2 DUP2 LT PUSH2 0x3DE8 JUMPI POP PUSH2 0x3BB6 JUMP JUMPDEST PUSH0 DUP2 SSTORE DUP5 SWAP4 POP PUSH1 0x1 ADD PUSH2 0x3DDB JUMP JUMPDEST SWAP1 SWAP2 POP DUP2 SWAP1 PUSH2 0x3DCD JUMP JUMPDEST POP DUP7 SWAP2 DUP5 SWAP2 DUP11 PUSH2 0x3E13 DUP6 PUSH2 0xACB DUP5 PUSH2 0x50E1 JUMP JUMPDEST PUSH2 0x3E20 DUP6 PUSH2 0xACB DUP6 PUSH2 0x50F8 JUMP JUMPDEST SLOAD PUSH2 0x3E36 PUSH1 0x40 MLOAD SWAP7 PUSH1 0xC0 DUP9 MSTORE PUSH1 0xC0 DUP9 ADD SWAP1 PUSH2 0x4E8F JUMP JUMPDEST DUP7 DUP2 SUB PUSH1 0x20 DUP9 ADD MSTORE DUP5 MLOAD DUP1 DUP3 MSTORE PUSH1 0x20 DUP3 ADD SWAP2 PUSH1 0x20 DUP1 DUP4 PUSH1 0x5 SHL DUP4 ADD ADD SWAP8 ADD SWAP3 PUSH0 SWAP2 JUMPDEST DUP4 DUP4 LT PUSH2 0x3E89 JUMPI PUSH1 0x20 DUP11 DUP1 PUSH0 MLOAD PUSH1 0x20 PUSH2 0x583C PUSH0 CODECOPY PUSH0 MLOAD SWAP1 PUSH0 MSTORE DUP15 DUP1 DUP15 DUP15 PUSH2 0xB46 DUP16 DUP16 PUSH1 0x40 DUP7 ADD MSTORE PUSH1 0x60 DUP6 ADD SWAP1 PUSH2 0x5064 JUMP JUMPDEST SWAP1 SWAP2 SWAP3 SWAP4 SWAP8 PUSH1 0x20 DUP1 PUSH2 0x3EA7 PUSH1 0x1 SWAP4 PUSH1 0x1F NOT DUP7 DUP3 SUB ADD DUP8 MSTORE DUP13 MLOAD PUSH2 0x4E8F JUMP JUMPDEST SWAP11 ADD SWAP4 ADD SWAP4 ADD SWAP2 SWAP4 SWAP3 SWAP1 PUSH2 0x3E58 JUMP JUMPDEST SWAP1 PUSH1 0x1F NOT DUP4 AND SWAP2 DUP5 PUSH0 MSTORE DUP2 PUSH0 KECCAK256 SWAP3 PUSH0 JUMPDEST DUP2 DUP2 LT PUSH2 0x3EED JUMPI POP SWAP2 PUSH1 0x1 SWAP4 SWAP2 DUP6 PUSH2 0x3A91 SWAP9 SWAP8 SWAP7 SWAP5 LT PUSH2 0x1F13 JUMPI POP POP POP DUP2 SHL ADD SWAP1 SSTORE PUSH2 0x6E7 JUMP JUMPDEST SWAP3 SWAP4 PUSH1 0x20 PUSH1 0x1 DUP2 SWAP3 DUP8 DUP7 ADD MLOAD DUP2 SSTORE ADD SWAP6 ADD SWAP4 ADD PUSH2 0x3EC6 JUMP JUMPDEST DUP4 PUSH0 MSTORE PUSH1 0x20 PUSH0 KECCAK256 PUSH1 0x1F DUP5 ADD PUSH1 0x5 SHR DUP2 ADD SWAP2 PUSH1 0x20 DUP6 LT PUSH2 0x3F40 JUMPI JUMPDEST PUSH1 0x1F ADD PUSH1 0x5 SHR ADD SWAP1 JUMPDEST DUP2 DUP2 LT PUSH2 0x3F35 JUMPI POP PUSH2 0x3A5B JUMP JUMPDEST PUSH0 DUP2 SSTORE PUSH1 0x1 ADD PUSH2 0x3F28 JUMP JUMPDEST SWAP1 SWAP2 POP DUP2 SWAP1 PUSH2 0x3F1F JUMP JUMPDEST SWAP1 POP DUP5 ADD MLOAD DUP13 PUSH2 0x3A20 JUMP JUMPDEST PUSH0 DUP13 DUP2 MSTORE DUP2 DUP2 KECCAK256 SWAP3 POP PUSH1 0x1F NOT DUP5 AND SWAP1 JUMPDEST DUP2 DUP2 LT PUSH2 0x3F9E JUMPI POP SWAP1 DUP4 PUSH1 0x1 SWAP5 SWAP4 SWAP3 LT PUSH2 0x3F86 JUMPI JUMPDEST POP POP DUP2 SHL ADD DUP10 SSTORE PUSH2 0x3A33 JUMP JUMPDEST DUP7 ADD MLOAD PUSH0 NOT PUSH1 0xF8 DUP5 PUSH1 0x3 SHL AND SHR NOT AND SWAP1 SSTORE DUP13 DUP1 PUSH2 0x3F7A JUMP JUMPDEST SWAP2 SWAP3 PUSH1 0x20 PUSH1 0x1 DUP2 SWAP3 DUP7 DUP12 ADD MLOAD DUP2 SSTORE ADD SWAP5 ADD SWAP3 ADD PUSH2 0x3F65 JUMP JUMPDEST DUP11 PUSH0 MSTORE PUSH1 0x20 PUSH0 KECCAK256 PUSH1 0x1F DUP4 ADD PUSH1 0x5 SHR DUP2 ADD SWAP2 PUSH1 0x20 DUP5 LT PUSH2 0x3FF1 JUMPI JUMPDEST PUSH1 0x1F ADD PUSH1 0x5 SHR ADD SWAP1 JUMPDEST DUP2 DUP2 LT PUSH2 0x3FE6 JUMPI POP PUSH2 0x3A0A JUMP JUMPDEST PUSH0 DUP2 SSTORE PUSH1 0x1 ADD PUSH2 0x3FD9 JUMP JUMPDEST SWAP1 SWAP2 POP DUP2 SWAP1 PUSH2 0x3FD0 JUMP JUMPDEST PUSH2 0x4014 SWAP2 POP PUSH1 0x20 RETURNDATASIZE PUSH1 0x20 GT PUSH2 0xD3F JUMPI PUSH2 0xD31 DUP2 DUP4 PUSH2 0x4F59 JUMP JUMPDEST DUP10 PUSH2 0x39C4 JUMP JUMPDEST PUSH1 0xA SWAP2 POP GT DUP10 PUSH2 0x3958 JUMP JUMPDEST POP PUSH4 0x1E13380 DUP6 GT PUSH2 0x393F JUMP JUMPDEST POP CALLER PUSH0 SWAP1 DUP2 MSTORE PUSH0 MLOAD PUSH1 0x20 PUSH2 0x581C PUSH0 CODECOPY PUSH0 MLOAD SWAP1 PUSH0 MSTORE PUSH1 0x20 MSTORE PUSH1 0x40 SWAP1 KECCAK256 SLOAD PUSH1 0xFF AND ISZERO PUSH2 0x392F JUMP JUMPDEST CALLVALUE PUSH2 0x42F JUMPI PUSH0 CALLDATASIZE PUSH1 0x3 NOT ADD SLT PUSH2 0x42F JUMPI PUSH1 0x20 PUSH1 0x40 MLOAD PUSH32 0xD486618B282CB35034D59C30C062B5B3822D6CDF87EC459191CE7F5B7B8A4873 DUP2 MSTORE RETURN JUMPDEST CALLVALUE PUSH2 0x42F JUMPI PUSH1 0x40 CALLDATASIZE PUSH1 0x3 NOT ADD SLT PUSH2 0x42F JUMPI PUSH2 0x2143 PUSH1 0x4 CALLDATALOAD PUSH2 0x40B0 PUSH2 0x4E4A JUMP JUMPDEST SWAP1 PUSH2 0x40CA PUSH2 0x2139 DUP3 PUSH0 MSTORE PUSH1 0x2 PUSH1 0x20 MSTORE PUSH1 0x1 PUSH1 0x40 PUSH0 KECCAK256 ADD SLOAD SWAP1 JUMP JUMPDEST PUSH2 0x5682 JUMP JUMPDEST CALLVALUE PUSH2 0x42F JUMPI PUSH2 0x120 CALLDATASIZE PUSH1 0x3 NOT ADD SLT PUSH2 0x42F JUMPI PUSH1 0x4 CALLDATALOAD PUSH1 0x1 PUSH1 0x1 PUSH1 0x40 SHL SUB DUP2 GT PUSH2 0x42F JUMPI PUSH2 0x4100 SWAP1 CALLDATASIZE SWAP1 PUSH1 0x4 ADD PUSH2 0x4F7A JUMP JUMPDEST PUSH1 0x24 CALLDATALOAD PUSH1 0x1 PUSH1 0x1 PUSH1 0x40 SHL SUB DUP2 GT PUSH2 0x42F JUMPI PUSH2 0x411F SWAP1 CALLDATASIZE SWAP1 PUSH1 0x4 ADD PUSH2 0x4F7A JUMP JUMPDEST PUSH1 0x44 CALLDATALOAD PUSH1 0x1 PUSH1 0x1 PUSH1 0x40 SHL SUB DUP2 GT PUSH2 0x42F JUMPI PUSH2 0x413E SWAP1 CALLDATASIZE SWAP1 PUSH1 0x4 ADD PUSH2 0x4FE6 JUMP JUMPDEST PUSH1 0x64 CALLDATALOAD PUSH1 0x1 PUSH1 0x1 PUSH1 0x40 SHL SUB DUP2 GT PUSH2 0x42F JUMPI PUSH2 0x415D SWAP1 CALLDATASIZE SWAP1 PUSH1 0x4 ADD PUSH2 0x4FE6 JUMP JUMPDEST PUSH1 0x84 CALLDATALOAD SWAP1 PUSH1 0xA4 CALLDATALOAD PUSH1 0x8 DUP2 LT ISZERO PUSH2 0x42F JUMPI PUSH2 0x104 CALLDATALOAD SWAP4 PUSH2 0x417A PUSH2 0x5423 JUMP JUMPDEST PUSH2 0x4182 PUSH2 0x5423 JUMP JUMPDEST PUSH0 SLOAD PUSH1 0x1 PUSH1 0x1 PUSH1 0xA0 SHL SUB AND CALLER EQ ISZERO DUP1 PUSH2 0x48E5 JUMPI JUMPDEST PUSH2 0xDA5 JUMPI PUSH2 0xE10 DUP5 LT DUP1 ISZERO PUSH2 0x48D8 JUMPI JUMPDEST PUSH2 0xD89 JUMPI DUP7 MLOAD ISZERO PUSH2 0xD7A JUMPI DUP1 MLOAD PUSH1 0x2 DUP2 LT SWAP1 DUP2 ISZERO PUSH2 0x48CD JUMPI JUMPDEST POP PUSH2 0xD60 JUMPI DUP1 MLOAD DUP4 MLOAD SUB PUSH2 0xD51 JUMPI PUSH9 0x56BC75E2D63100000 DUP6 LT PUSH2 0x2058 JUMPI PUSH1 0x3 SLOAD PUSH1 0x40 MLOAD PUSH4 0x23B872DD PUSH1 0xE0 SHL DUP2 MSTORE CALLER PUSH1 0x4 DUP3 ADD MSTORE ADDRESS PUSH1 0x24 DUP3 ADD MSTORE PUSH1 0x44 DUP2 ADD DUP8 SWAP1 MSTORE SWAP1 PUSH1 0x20 SWAP1 DUP3 SWAP1 PUSH1 0x8 SHR PUSH1 0x1 PUSH1 0x1 PUSH1 0xA0 SHL SUB AND DUP2 PUSH0 DUP2 PUSH1 0x64 DUP2 ADD SUB SWAP3 GAS CALL SWAP1 DUP2 ISZERO PUSH2 0xD46 JUMPI PUSH0 SWAP2 PUSH2 0x48AE JUMPI JUMPDEST POP ISZERO PUSH2 0xD08 JUMPI PUSH1 0x6 SLOAD SWAP4 PUSH2 0x423E DUP6 PUSH2 0x526F JUMP JUMPDEST PUSH1 0x6 SSTORE DUP5 PUSH0 MSTORE PUSH1 0xA PUSH1 0x20 MSTORE PUSH1 0x40 PUSH0 KECCAK256 SWAP7 DUP9 MLOAD PUSH1 0x1 PUSH1 0x1 PUSH1 0x40 SHL SUB DUP2 GT PUSH2 0x9E6 JUMPI PUSH2 0x4268 DUP10 SLOAD PUSH2 0x510F JUMP JUMPDEST PUSH1 0x1F DUP2 GT PUSH2 0x4869 JUMPI JUMPDEST POP DUP1 PUSH1 0x20 PUSH1 0x1F DUP3 GT PUSH1 0x1 EQ PUSH2 0x4806 JUMPI PUSH0 SWAP2 PUSH2 0x47FB JUMPI JUMPDEST POP DUP2 PUSH1 0x1 SHL SWAP2 PUSH0 NOT SWAP1 PUSH1 0x3 SHL SHR NOT AND OR DUP9 SSTORE JUMPDEST DUP1 MLOAD PUSH1 0x1 DUP10 ADD SWAP2 PUSH1 0x1 PUSH1 0x1 PUSH1 0x40 SHL SUB DUP3 GT PUSH2 0x9E6 JUMPI PUSH2 0x42B9 DUP4 SLOAD PUSH2 0x510F JUMP JUMPDEST PUSH1 0x1F DUP2 GT PUSH2 0x47B6 JUMPI JUMPDEST POP PUSH1 0x20 SWAP1 PUSH1 0x1F DUP4 GT PUSH1 0x1 EQ PUSH2 0x4767 JUMPI PUSH2 0x42F8 SWAP5 SWAP4 SWAP3 SWAP2 PUSH0 SWAP2 DUP4 PUSH2 0xB9D JUMPI POP POP DUP2 PUSH1 0x1 SHL SWAP2 PUSH0 NOT SWAP1 PUSH1 0x3 SHL SHR NOT AND OR SWAP1 SSTORE TIMESTAMP PUSH2 0x5219 JUMP JUMPDEST PUSH1 0x2 DUP8 ADD SWAP1 DUP2 SSTORE PUSH1 0x3 DUP8 ADD DUP1 SLOAD PUSH2 0xFFFF NOT AND PUSH1 0xFF DUP6 AND OR PUSH2 0x100 OR SWAP1 SSTORE PUSH1 0x5 DUP8 ADD DUP1 SLOAD PUSH4 0x1000000 PUSH1 0x1 PUSH1 0xB8 SHL SUB NOT AND CALLER PUSH1 0x18 SHL PUSH4 0x1000000 PUSH1 0x1 PUSH1 0xB8 SHL SUB AND OR SWAP1 SSTORE TIMESTAMP PUSH1 0x8 DUP9 ADD SSTORE DUP2 MLOAD PUSH1 0x9 DUP9 ADD DUP2 SWAP1 SSTORE PUSH1 0xA DUP9 ADD DUP8 SWAP1 SSTORE SWAP1 SWAP8 SWAP1 DUP1 ISZERO PUSH2 0xB89 JUMPI PUSH2 0x4374 SWAP1 PUSH8 0xDE0B6B3A7640000 SWAP10 SWAP9 SWAP10 DIV SWAP7 DUP4 MLOAD SWAP1 PUSH2 0x5239 JUMP JUMPDEST SWAP3 PUSH1 0xB PUSH0 SWAP10 ADD SWAP9 JUMPDEST DUP4 MLOAD DUP2 LT ISZERO PUSH2 0x4671 JUMPI PUSH2 0x438F DUP2 DUP6 PUSH2 0x5243 JUMP JUMPDEST MLOAD DUP11 PUSH2 0x439B DUP4 DUP10 PUSH2 0x5243 JUMP JUMPDEST MLOAD PUSH1 0x40 MLOAD SWAP3 PUSH2 0x43A9 DUP5 PUSH2 0x4F3D JUMP JUMPDEST DUP4 MSTORE PUSH1 0x20 DUP4 ADD SWAP1 DUP2 MSTORE PUSH1 0x40 DUP4 ADD PUSH0 DUP2 MSTORE PUSH1 0x60 DUP5 ADD PUSH0 DUP2 MSTORE PUSH1 0x80 DUP6 ADD SWAP1 DUP14 DUP3 MSTORE PUSH1 0xA0 DUP7 ADD SWAP3 PUSH1 0x1 DUP5 MSTORE PUSH1 0xC0 DUP8 ADD SWAP5 DUP13 DUP7 MSTORE PUSH1 0xE0 DUP9 ADD SWAP7 DUP14 DUP9 MSTORE DUP10 PUSH0 MSTORE PUSH1 0x20 MSTORE PUSH1 0x40 PUSH0 KECCAK256 SWAP8 MLOAD DUP1 MLOAD SWAP1 PUSH1 0x1 PUSH1 0x1 PUSH1 0x40 SHL SUB DUP3 GT PUSH2 0x9E6 JUMPI DUP2 SWAP1 PUSH2 0x440A DUP12 SLOAD PUSH2 0x510F JUMP JUMPDEST PUSH1 0x1F DUP2 GT PUSH2 0x4621 JUMPI JUMPDEST POP PUSH1 0x20 SWAP1 PUSH1 0x1F DUP4 GT PUSH1 0x1 EQ PUSH2 0x45BE JUMPI PUSH0 SWAP3 PUSH2 0x45B3 JUMPI JUMPDEST POP POP DUP2 PUSH1 0x1 SHL SWAP2 PUSH0 NOT SWAP1 PUSH1 0x3 SHL SHR NOT AND OR DUP9 SSTORE JUMPDEST MLOAD DUP1 MLOAD PUSH1 0x1 DUP10 ADD SWAP2 PUSH1 0x1 PUSH1 0x1 PUSH1 0x40 SHL SUB DUP3 GT PUSH2 0x9E6 JUMPI PUSH2 0x445D DUP4 SLOAD PUSH2 0x510F JUMP JUMPDEST PUSH1 0x1F DUP2 GT PUSH2 0x456E JUMPI JUMPDEST POP PUSH1 0x20 SWAP1 PUSH1 0x1F DUP4 GT PUSH1 0x1 EQ PUSH2 0x4515 JUMPI SWAP3 DUP3 PUSH2 0x44CB SWAP7 SWAP4 PUSH1 0x1 SWAP14 SWAP13 SWAP12 SWAP10 SWAP7 SWAP4 PUSH1 0x7 SWAP12 SWAP10 SWAP7 PUSH0 SWAP3 PUSH2 0x924 JUMPI POP POP PUSH0 NOT PUSH1 0x3 DUP4 SWAP1 SHL SHR NOT AND SWAP1 DUP14 SHL OR SWAP1 SSTORE MLOAD PUSH1 0x2 DUP10 ADD SSTORE MLOAD PUSH1 0x3 DUP9 ADD SSTORE MLOAD PUSH1 0x4 DUP8 ADD SSTORE MLOAD ISZERO ISZERO PUSH1 0x5 DUP7 ADD SWAP1 PUSH1 0xFF DUP1 NOT DUP4 SLOAD AND SWAP2 ISZERO ISZERO AND OR SWAP1 SSTORE JUMP JUMPDEST MLOAD PUSH1 0x6 DUP5 ADD SSTORE MLOAD SWAP2 ADD SSTORE DUP8 PUSH0 MSTORE PUSH1 0xE PUSH1 0x20 MSTORE PUSH1 0x40 PUSH0 KECCAK256 DUP2 PUSH0 MSTORE PUSH1 0x20 MSTORE PUSH2 0x450F PUSH1 0x40 PUSH0 KECCAK256 PUSH1 0x40 MLOAD SWAP1 PUSH2 0x44FB DUP3 PUSH2 0x4F07 JUMP JUMPDEST DUP12 DUP3 MSTORE TIMESTAMP PUSH1 0x20 DUP4 ADD MSTORE PUSH0 PUSH1 0x40 DUP4 ADD MSTORE PUSH2 0x527D JUMP JUMPDEST ADD PUSH2 0x437C JUMP JUMPDEST SWAP1 PUSH1 0x1F NOT DUP4 AND SWAP2 DUP5 PUSH0 MSTORE DUP2 PUSH0 KECCAK256 SWAP3 PUSH0 JUMPDEST DUP2 DUP2 LT PUSH2 0x4556 JUMPI POP SWAP4 PUSH1 0x1 SWAP14 SWAP13 SWAP12 SWAP10 SWAP7 SWAP4 PUSH1 0x7 SWAP12 SWAP10 SWAP7 SWAP4 DUP16 SWAP4 DUP4 PUSH2 0x44CB SWAP12 SWAP9 LT PUSH2 0x971 JUMPI POP POP POP DUP2 SHL ADD SWAP1 SSTORE PUSH2 0x8B0 JUMP JUMPDEST SWAP3 SWAP4 PUSH1 0x20 PUSH1 0x1 DUP2 SWAP3 DUP8 DUP7 ADD MLOAD DUP2 SSTORE ADD SWAP6 ADD SWAP4 ADD PUSH2 0x4525 JUMP JUMPDEST DUP4 PUSH0 MSTORE PUSH1 0x20 PUSH0 KECCAK256 PUSH1 0x1F DUP5 ADD PUSH1 0x5 SHR DUP2 ADD SWAP2 PUSH1 0x20 DUP6 LT PUSH2 0x45A9 JUMPI JUMPDEST PUSH1 0x1F ADD PUSH1 0x5 SHR ADD SWAP1 JUMPDEST DUP2 DUP2 LT PUSH2 0x459E JUMPI POP PUSH2 0x4466 JUMP JUMPDEST PUSH0 DUP2 SSTORE PUSH1 0x1 ADD PUSH2 0x4591 JUMP JUMPDEST SWAP1 SWAP2 POP DUP2 SWAP1 PUSH2 0x4588 JUMP JUMPDEST ADD MLOAD SWAP1 POP PUSH0 DUP1 PUSH2 0x4429 JUMP JUMPDEST PUSH0 DUP13 DUP2 MSTORE DUP3 DUP2 KECCAK256 SWAP4 POP PUSH1 0x1F NOT DUP6 AND SWAP1 JUMPDEST DUP2 DUP2 LT PUSH2 0x4609 JUMPI POP SWAP1 DUP5 PUSH1 0x1 SWAP6 SWAP5 SWAP4 SWAP3 LT PUSH2 0x45F1 JUMPI JUMPDEST POP POP POP DUP2 SHL ADD DUP9 SSTORE PUSH2 0x443D JUMP JUMPDEST ADD MLOAD PUSH0 NOT PUSH1 0xF8 DUP5 PUSH1 0x3 SHL AND SHR NOT AND SWAP1 SSTORE PUSH0 DUP1 DUP1 PUSH2 0x45E4 JUMP JUMPDEST SWAP3 SWAP4 PUSH1 0x20 PUSH1 0x1 DUP2 SWAP3 DUP8 DUP7 ADD MLOAD DUP2 SSTORE ADD SWAP6 ADD SWAP4 ADD PUSH2 0x45CE JUMP JUMPDEST SWAP1 SWAP2 POP DUP11 PUSH0 MSTORE PUSH1 0x20 PUSH0 KECCAK256 PUSH1 0x1F DUP5 ADD PUSH1 0x5 SHR DUP2 ADD SWAP2 PUSH1 0x20 DUP6 LT PUSH2 0x4667 JUMPI JUMPDEST SWAP1 PUSH1 0x1F DUP6 SWAP5 SWAP4 SWAP3 ADD PUSH1 0x5 SHR ADD SWAP1 JUMPDEST DUP2 DUP2 LT PUSH2 0x4659 JUMPI POP PUSH2 0x4413 JUMP JUMPDEST PUSH0 DUP2 SSTORE DUP5 SWAP4 POP PUSH1 0x1 ADD PUSH2 0x464C JUMP JUMPDEST SWAP1 SWAP2 POP DUP2 SWAP1 PUSH2 0x463E JUMP JUMPDEST POP DUP3 DUP7 SWAP2 DUP10 PUSH2 0x4683 DUP5 PUSH2 0xACB DUP5 PUSH2 0x50E1 JUMP JUMPDEST PUSH2 0x4691 DUP5 PUSH2 0xACB PUSH1 0x1 PUSH2 0x50F8 JUMP JUMPDEST SLOAD PUSH2 0x46A7 PUSH1 0x40 MLOAD SWAP6 PUSH1 0xC0 DUP8 MSTORE PUSH1 0xC0 DUP8 ADD SWAP1 PUSH2 0x4E8F JUMP JUMPDEST DUP6 DUP2 SUB PUSH1 0x20 DUP8 ADD MSTORE DUP4 MLOAD DUP1 DUP3 MSTORE PUSH1 0x20 DUP3 ADD SWAP2 PUSH1 0x20 DUP1 DUP4 PUSH1 0x5 SHL DUP4 ADD ADD SWAP7 ADD SWAP3 PUSH0 SWAP2 JUMPDEST DUP4 DUP4 LT PUSH2 0x473A JUMPI PUSH1 0x20 DUP10 DUP1 PUSH0 MLOAD PUSH1 0x20 PUSH2 0x583C PUSH0 CODECOPY PUSH0 MLOAD SWAP1 PUSH0 MSTORE DUP14 DUP1 DUP14 PUSH2 0x46F9 DUP15 DUP15 PUSH1 0x40 DUP6 ADD MSTORE PUSH1 0x60 DUP5 ADD SWAP1 PUSH2 0x5064 JUMP JUMPDEST PUSH1 0x1 PUSH1 0x80 DUP4 ADD MSTORE CALLER PUSH1 0xA0 DUP4 ADD MSTORE SUB SWAP1 LOG2 DUP1 PUSH0 MSTORE PUSH1 0xA DUP3 MSTORE PUSH1 0x14 PUSH1 0x40 PUSH0 KECCAK256 PUSH1 0xC4 CALLDATALOAD PUSH1 0x11 DUP3 ADD SSTORE PUSH1 0xE4 CALLDATALOAD PUSH1 0x12 DUP3 ADD SSTORE ADD PUSH1 0x1 PUSH1 0xFF NOT DUP3 SLOAD AND OR SWAP1 SSTORE PUSH1 0x40 MLOAD SWAP1 DUP2 MSTORE RETURN JUMPDEST SWAP1 SWAP2 SWAP3 SWAP4 SWAP7 PUSH1 0x20 DUP1 PUSH2 0x4758 PUSH1 0x1 SWAP4 PUSH1 0x1F NOT DUP7 DUP3 SUB ADD DUP8 MSTORE DUP12 MLOAD PUSH2 0x4E8F JUMP JUMPDEST SWAP10 ADD SWAP4 ADD SWAP4 ADD SWAP2 SWAP4 SWAP3 SWAP1 PUSH2 0x46C9 JUMP JUMPDEST SWAP1 PUSH1 0x1F NOT DUP4 AND SWAP2 DUP5 PUSH0 MSTORE DUP2 PUSH0 KECCAK256 SWAP3 PUSH0 JUMPDEST DUP2 DUP2 LT PUSH2 0x479E JUMPI POP SWAP2 PUSH1 0x1 SWAP4 SWAP2 DUP6 PUSH2 0x42F8 SWAP9 SWAP8 SWAP7 SWAP5 LT PUSH2 0xBE0 JUMPI POP POP POP DUP2 SHL ADD SWAP1 SSTORE PUSH2 0x6E7 JUMP JUMPDEST SWAP3 SWAP4 PUSH1 0x20 PUSH1 0x1 DUP2 SWAP3 DUP8 DUP7 ADD MLOAD DUP2 SSTORE ADD SWAP6 ADD SWAP4 ADD PUSH2 0x4777 JUMP JUMPDEST DUP4 PUSH0 MSTORE PUSH1 0x20 PUSH0 KECCAK256 PUSH1 0x1F DUP5 ADD PUSH1 0x5 SHR DUP2 ADD SWAP2 PUSH1 0x20 DUP6 LT PUSH2 0x47F1 JUMPI JUMPDEST PUSH1 0x1F ADD PUSH1 0x5 SHR ADD SWAP1 JUMPDEST DUP2 DUP2 LT PUSH2 0x47E6 JUMPI POP PUSH2 0x42C2 JUMP JUMPDEST PUSH0 DUP2 SSTORE PUSH1 0x1 ADD PUSH2 0x47D9 JUMP JUMPDEST SWAP1 SWAP2 POP DUP2 SWAP1 PUSH2 0x47D0 JUMP JUMPDEST SWAP1 POP DUP11 ADD MLOAD DUP12 PUSH2 0x4287 JUMP JUMPDEST PUSH0 DUP12 DUP2 MSTORE DUP2 DUP2 KECCAK256 SWAP3 POP PUSH1 0x1F NOT DUP5 AND SWAP1 JUMPDEST DUP14 DUP3 DUP3 LT PUSH2 0x4851 JUMPI POP POP SWAP1 DUP4 PUSH1 0x1 SWAP5 SWAP4 SWAP3 LT PUSH2 0x4839 JUMPI JUMPDEST POP POP DUP2 SHL ADD DUP9 SSTORE PUSH2 0x429A JUMP JUMPDEST DUP13 ADD MLOAD PUSH0 NOT PUSH1 0xF8 DUP5 PUSH1 0x3 SHL AND SHR NOT AND SWAP1 SSTORE DUP12 DUP1 PUSH2 0x482D JUMP JUMPDEST PUSH1 0x1 DUP5 SWAP6 PUSH1 0x20 SWAP4 SWAP6 DUP5 SWAP4 ADD MLOAD DUP2 SSTORE ADD SWAP5 ADD SWAP3 ADD PUSH2 0x4816 JUMP JUMPDEST DUP10 PUSH0 MSTORE PUSH1 0x20 PUSH0 KECCAK256 PUSH1 0x1F DUP4 ADD PUSH1 0x5 SHR DUP2 ADD SWAP2 PUSH1 0x20 DUP5 LT PUSH2 0x48A4 JUMPI JUMPDEST PUSH1 0x1F ADD PUSH1 0x5 SHR ADD SWAP1 JUMPDEST DUP2 DUP2 LT PUSH2 0x4899 JUMPI POP PUSH2 0x4271 JUMP JUMPDEST PUSH0 DUP2 SSTORE PUSH1 0x1 ADD PUSH2 0x488C JUMP JUMPDEST SWAP1 SWAP2 POP DUP2 SWAP1 PUSH2 0x4883 JUMP JUMPDEST PUSH2 0x48C7 SWAP2 POP PUSH1 0x20 RETURNDATASIZE PUSH1 0x20 GT PUSH2 0xD3F JUMPI PUSH2 0xD31 DUP2 DUP4 PUSH2 0x4F59 JUMP JUMPDEST DUP9 PUSH2 0x422B JUMP JUMPDEST PUSH1 0xA SWAP2 POP GT DUP9 PUSH2 0x41BF JUMP JUMPDEST POP PUSH4 0x1E13380 DUP5 GT PUSH2 0x41A6 JUMP JUMPDEST POP CALLER PUSH0 SWAP1 DUP2 MSTORE PUSH0 MLOAD PUSH1 0x20 PUSH2 0x581C PUSH0 CODECOPY PUSH0 MLOAD SWAP1 PUSH0 MSTORE PUSH1 0x20 MSTORE PUSH1 0x40 SWAP1 KECCAK256 SLOAD PUSH1 0xFF AND ISZERO PUSH2 0x4196 JUMP JUMPDEST CALLVALUE PUSH2 0x42F JUMPI PUSH1 0x20 CALLDATASIZE PUSH1 0x3 NOT ADD SLT PUSH2 0x42F JUMPI PUSH1 0x4 CALLDATALOAD PUSH1 0x6 SLOAD DUP2 LT ISZERO PUSH2 0x4B6 JUMPI PUSH0 MSTORE PUSH1 0xA PUSH1 0x20 MSTORE PUSH1 0x40 PUSH0 KECCAK256 PUSH1 0x9 DUP2 ADD SLOAD PUSH2 0x4941 DUP2 PUSH2 0x51E7 JUMP JUMPDEST SWAP1 PUSH0 SWAP3 PUSH1 0xB PUSH0 SWAP2 ADD SWAP1 JUMPDEST DUP3 DUP2 LT PUSH2 0x49B8 JUMPI POP PUSH0 JUMPDEST DUP3 DUP2 LT PUSH2 0x496A JUMPI PUSH1 0x40 MLOAD DUP1 PUSH2 0x219C DUP7 DUP3 PUSH2 0x4EB3 JUMP JUMPDEST DUP1 PUSH0 MSTORE DUP2 PUSH1 0x20 MSTORE PUSH1 0x6 PUSH1 0x40 PUSH0 KECCAK256 ADD SLOAD SWAP1 PUSH8 0xDE0B6B3A7640000 DUP3 MUL SWAP2 DUP1 DUP4 DIV PUSH8 0xDE0B6B3A7640000 EQ SWAP1 ISZERO OR ISZERO PUSH2 0xE80 JUMPI PUSH2 0x49A7 DUP7 PUSH1 0x1 SWAP4 PUSH2 0x5239 JUMP JUMPDEST PUSH2 0x49B1 DUP3 DUP8 PUSH2 0x5243 JUMP JUMPDEST MSTORE ADD PUSH2 0x4955 JUMP JUMPDEST SWAP4 PUSH2 0x49D4 PUSH1 0x1 SWAP2 DUP7 PUSH0 MSTORE DUP4 PUSH1 0x20 MSTORE PUSH1 0x6 PUSH1 0x40 PUSH0 KECCAK256 ADD SLOAD SWAP1 PUSH2 0x5219 JUMP JUMPDEST SWAP5 ADD PUSH2 0x494B JUMP JUMPDEST CALLVALUE PUSH2 0x42F JUMPI PUSH1 0x20 CALLDATASIZE PUSH1 0x3 NOT ADD SLT PUSH2 0x42F JUMPI PUSH1 0x20 PUSH2 0x2567 PUSH1 0x4 CALLDATALOAD PUSH0 MSTORE PUSH1 0x2 PUSH1 0x20 MSTORE PUSH1 0x1 PUSH1 0x40 PUSH0 KECCAK256 ADD SLOAD SWAP1 JUMP JUMPDEST CALLVALUE PUSH2 0x42F JUMPI PUSH2 0x4A14 CALLDATASIZE PUSH2 0x4E79 JUMP JUMPDEST SWAP1 PUSH1 0x6 SLOAD DUP2 LT ISZERO PUSH2 0x4B6 JUMPI PUSH0 MSTORE PUSH1 0xA PUSH1 0x20 MSTORE PUSH1 0xB PUSH1 0x40 PUSH0 KECCAK256 ADD SWAP1 PUSH0 MSTORE PUSH1 0x20 MSTORE PUSH2 0x4A7E PUSH1 0x40 PUSH0 KECCAK256 PUSH1 0x2 DUP2 ADD SLOAD PUSH1 0x3 DUP3 ADD SLOAD PUSH1 0x4 DUP4 ADD SLOAD PUSH1 0xFF PUSH1 0x5 DUP6 ADD SLOAD AND SWAP2 PUSH2 0x4A8C PUSH2 0x4A6A PUSH1 0x1 PUSH2 0x4A63 DUP9 PUSH2 0x5147 JUMP JUMPDEST SWAP8 ADD PUSH2 0x5147 JUMP JUMPDEST PUSH1 0x40 MLOAD SWAP8 DUP9 SWAP8 PUSH1 0xC0 DUP10 MSTORE PUSH1 0xC0 DUP10 ADD SWAP1 PUSH2 0x4E8F JUMP JUMPDEST SWAP1 DUP8 DUP3 SUB PUSH1 0x20 DUP10 ADD MSTORE PUSH2 0x4E8F JUMP JUMPDEST SWAP4 PUSH1 0x40 DUP7 ADD MSTORE PUSH1 0x60 DUP6 ADD MSTORE PUSH1 0x80 DUP5 ADD MSTORE ISZERO ISZERO PUSH1 0xA0 DUP4 ADD MSTORE SUB SWAP1 RETURN JUMPDEST CALLVALUE PUSH2 0x42F JUMPI PUSH1 0x20 CALLDATASIZE PUSH1 0x3 NOT ADD SLT PUSH2 0x42F JUMPI PUSH2 0x4AC0 PUSH2 0x53FD JUMP JUMPDEST PUSH1 0x4 CALLDATALOAD PUSH1 0x9 SSTORE STOP JUMPDEST CALLVALUE PUSH2 0x42F JUMPI PUSH1 0x20 CALLDATASIZE PUSH1 0x3 NOT ADD SLT PUSH2 0x42F JUMPI PUSH2 0x4AE1 PUSH2 0x4E34 JUMP JUMPDEST PUSH0 PUSH1 0x80 PUSH1 0x40 MLOAD PUSH2 0x4AF0 DUP2 PUSH2 0x4EEC JUMP JUMPDEST DUP3 DUP2 MSTORE DUP3 PUSH1 0x20 DUP3 ADD MSTORE DUP3 PUSH1 0x40 DUP3 ADD MSTORE DUP3 PUSH1 0x60 DUP3 ADD MSTORE ADD MSTORE PUSH1 0x1 DUP1 PUSH1 0xA0 SHL SUB AND PUSH0 MSTORE PUSH1 0xB PUSH1 0x20 MSTORE PUSH1 0xA0 PUSH1 0x40 PUSH0 KECCAK256 PUSH1 0x40 MLOAD PUSH2 0x4B28 DUP2 PUSH2 0x4EEC JUMP JUMPDEST DUP2 SLOAD SWAP2 DUP3 DUP3 MSTORE PUSH1 0x1 DUP2 ADD SLOAD PUSH1 0x20 DUP4 ADD SWAP1 DUP2 MSTORE PUSH1 0x2 DUP3 ADD SLOAD SWAP1 PUSH1 0x40 DUP5 ADD SWAP2 DUP3 MSTORE PUSH1 0x80 PUSH1 0x4 PUSH1 0x3 DUP6 ADD SLOAD SWAP5 PUSH1 0x60 DUP8 ADD SWAP6 DUP7 MSTORE ADD SLOAD SWAP5 ADD SWAP4 DUP5 MSTORE PUSH1 0x40 MLOAD SWAP5 DUP6 MSTORE MLOAD PUSH1 0x20 DUP6 ADD MSTORE MLOAD PUSH1 0x40 DUP5 ADD MSTORE MLOAD PUSH1 0x60 DUP4 ADD MSTORE MLOAD PUSH1 0x80 DUP3 ADD MSTORE RETURN JUMPDEST CALLVALUE PUSH2 0x42F JUMPI PUSH2 0x4B8D CALLDATASIZE PUSH2 0x4E79 JUMP JUMPDEST SWAP1 PUSH0 MSTORE PUSH1 0xD PUSH1 0x20 MSTORE PUSH1 0x40 PUSH0 KECCAK256 SWAP1 DUP2 SLOAD DUP2 LT ISZERO PUSH2 0x42F JUMPI PUSH2 0x4BAC SWAP2 PUSH2 0x4E60 JUMP JUMPDEST POP DUP1 SLOAD PUSH1 0x1 DUP3 ADD SLOAD PUSH1 0x2 DUP4 ADD SLOAD PUSH1 0x3 DUP5 ADD SLOAD PUSH1 0x4 DUP6 ADD SLOAD PUSH1 0x5 DUP7 ADD SLOAD PUSH1 0x6 SWAP1 SWAP7 ADD SLOAD PUSH1 0x40 DUP1 MLOAD SWAP7 DUP8 MSTORE PUSH1 0x20 DUP8 ADD SWAP6 SWAP1 SWAP6 MSTORE PUSH1 0x1 PUSH1 0x1 PUSH1 0xA0 SHL SUB SWAP4 DUP5 AND SWAP5 DUP7 ADD SWAP5 SWAP1 SWAP5 MSTORE SWAP2 AND PUSH1 0x60 DUP5 ADD MSTORE PUSH1 0x80 DUP4 ADD MSTORE PUSH1 0xA0 DUP3 ADD SWAP3 SWAP1 SWAP3 MSTORE PUSH1 0xC0 DUP2 ADD SWAP2 SWAP1 SWAP2 MSTORE PUSH1 0xE0 SWAP1 RETURN JUMPDEST CALLVALUE PUSH2 0x42F JUMPI PUSH1 0x20 CALLDATASIZE PUSH1 0x3 NOT ADD SLT PUSH2 0x42F JUMPI PUSH2 0x4C29 PUSH2 0x4E34 JUMP JUMPDEST PUSH2 0x4C31 PUSH2 0x53FD JUMP JUMPDEST PUSH1 0x1 PUSH1 0x1 PUSH1 0xA0 SHL SUB DUP2 AND SWAP1 DUP2 ISZERO PUSH2 0x3D9 JUMPI PUSH1 0x3 DUP1 SLOAD PUSH1 0x4 DUP1 SLOAD PUSH1 0x1 PUSH1 0x1 PUSH1 0xA0 SHL SUB NOT AND PUSH1 0x8 DUP4 DUP2 SHR PUSH1 0x1 PUSH1 0x1 PUSH1 0xA0 SHL SUB AND SWAP2 DUP3 OR SWAP1 SWAP3 SSTORE PUSH2 0x100 PUSH1 0x1 PUSH1 0xA8 SHL SUB NOT SWAP1 SWAP3 AND SWAP4 SWAP1 SHL PUSH2 0x100 PUSH1 0x1 PUSH1 0xA8 SHL SUB AND SWAP3 SWAP1 SWAP3 OR SWAP1 SSTORE TIMESTAMP PUSH1 0x5 DUP2 SWAP1 SSTORE PUSH1 0x40 MLOAD SWAP1 DUP2 MSTORE PUSH32 0xA16C473A31F9F07338CD1D3CCEBDA80CEFDC0CB743AEC539AF892ABFBF5A534E SWAP1 PUSH1 0x20 SWAP1 LOG3 STOP JUMPDEST CALLVALUE PUSH2 0x42F JUMPI PUSH0 CALLDATASIZE PUSH1 0x3 NOT ADD SLT PUSH2 0x42F JUMPI PUSH1 0x20 PUSH1 0x40 MLOAD PUSH1 0x1E DUP2 MSTORE RETURN JUMPDEST CALLVALUE PUSH2 0x42F JUMPI PUSH0 CALLDATASIZE PUSH1 0x3 NOT ADD SLT PUSH2 0x42F JUMPI PUSH1 0x20 PUSH1 0x5 SLOAD PUSH1 0x40 MLOAD SWAP1 DUP2 MSTORE RETURN JUMPDEST CALLVALUE PUSH2 0x42F JUMPI PUSH0 CALLDATASIZE PUSH1 0x3 NOT ADD SLT PUSH2 0x42F JUMPI PUSH1 0x20 PUSH1 0x40 MLOAD PUSH1 0xA DUP2 MSTORE RETURN JUMPDEST CALLVALUE PUSH2 0x42F JUMPI PUSH1 0x40 CALLDATASIZE PUSH1 0x3 NOT ADD SLT PUSH2 0x42F JUMPI PUSH2 0x4D28 PUSH2 0x4E34 JUMP JUMPDEST PUSH1 0x1 PUSH1 0x1 PUSH1 0xA0 SHL SUB AND PUSH0 SWAP1 DUP2 MSTORE PUSH1 0xC PUSH1 0x20 MSTORE PUSH1 0x40 SWAP1 KECCAK256 DUP1 SLOAD PUSH1 0x24 CALLDATALOAD SWAP1 DUP2 LT ISZERO PUSH2 0x42F JUMPI PUSH2 0x4BAC SWAP2 PUSH2 0x4E60 JUMP JUMPDEST CALLVALUE PUSH2 0x42F JUMPI PUSH1 0x20 CALLDATASIZE PUSH1 0x3 NOT ADD SLT PUSH2 0x42F JUMPI PUSH1 0x4 CALLDATALOAD PUSH1 0x13 SLOAD DUP2 LT ISZERO PUSH2 0x42F JUMPI PUSH1 0x13 SLOAD DUP2 LT ISZERO PUSH2 0x4DB8 JUMPI PUSH1 0x13 PUSH0 MSTORE PUSH32 0x66DE8FFDA797E3DE9C05E8FC57B3BF0EC28A930D40B0D285D93C06501CF6A090 ADD SLOAD PUSH1 0x40 MLOAD PUSH1 0x1 PUSH1 0x1 PUSH1 0xA0 SHL SUB SWAP1 SWAP2 AND DUP2 MSTORE PUSH1 0x20 SWAP1 RETURN JUMPDEST PUSH4 0x4E487B71 PUSH1 0xE0 SHL PUSH0 MSTORE PUSH1 0x32 PUSH1 0x4 MSTORE PUSH1 0x24 PUSH0 REVERT JUMPDEST CALLVALUE PUSH2 0x42F JUMPI PUSH1 0x20 CALLDATASIZE PUSH1 0x3 NOT ADD SLT PUSH2 0x42F JUMPI PUSH1 0x4 CALLDATALOAD SWAP1 PUSH4 0xFFFFFFFF PUSH1 0xE0 SHL DUP3 AND DUP1 SWAP3 SUB PUSH2 0x42F JUMPI PUSH1 0x20 SWAP2 PUSH4 0x7965DB0B PUSH1 0xE0 SHL DUP2 EQ SWAP1 DUP2 ISZERO PUSH2 0x4E0E JUMPI JUMPDEST POP ISZERO ISZERO DUP2 MSTORE RETURN JUMPDEST PUSH4 0x1FFC9A7 PUSH1 0xE0 SHL EQ SWAP1 POP DUP4 PUSH2 0x4E07 JUMP JUMPDEST DUP1 SLOAD DUP3 LT ISZERO PUSH2 0x4DB8 JUMPI PUSH0 MSTORE PUSH1 0x20 PUSH0 KECCAK256 ADD SWAP1 PUSH0 SWAP1 JUMP JUMPDEST PUSH1 0x4 CALLDATALOAD SWAP1 PUSH1 0x1 PUSH1 0x1 PUSH1 0xA0 SHL SUB DUP3 AND DUP3 SUB PUSH2 0x42F JUMPI JUMP JUMPDEST PUSH1 0x24 CALLDATALOAD SWAP1 PUSH1 0x1 PUSH1 0x1 PUSH1 0xA0 SHL SUB DUP3 AND DUP3 SUB PUSH2 0x42F JUMPI JUMP JUMPDEST DUP1 SLOAD DUP3 LT ISZERO PUSH2 0x4DB8 JUMPI PUSH0 MSTORE PUSH1 0x7 PUSH1 0x20 PUSH0 KECCAK256 SWAP2 MUL ADD SWAP1 PUSH0 SWAP1 JUMP JUMPDEST PUSH1 0x40 SWAP1 PUSH1 0x3 NOT ADD SLT PUSH2 0x42F JUMPI PUSH1 0x4 CALLDATALOAD SWAP1 PUSH1 0x24 CALLDATALOAD SWAP1 JUMP JUMPDEST DUP1 MLOAD DUP1 DUP4 MSTORE PUSH1 0x20 SWAP3 SWAP2 DUP2 SWAP1 DUP5 ADD DUP5 DUP5 ADD MCOPY PUSH0 DUP3 DUP3 ADD DUP5 ADD MSTORE PUSH1 0x1F ADD PUSH1 0x1F NOT AND ADD ADD SWAP1 JUMP JUMPDEST PUSH1 0x20 PUSH1 0x40 DUP2 DUP4 ADD SWAP3 DUP3 DUP2 MSTORE DUP5 MLOAD DUP1 SWAP5 MSTORE ADD SWAP3 ADD SWAP1 PUSH0 JUMPDEST DUP2 DUP2 LT PUSH2 0x4ED6 JUMPI POP POP POP SWAP1 JUMP JUMPDEST DUP3 MLOAD DUP5 MSTORE PUSH1 0x20 SWAP4 DUP5 ADD SWAP4 SWAP1 SWAP3 ADD SWAP2 PUSH1 0x1 ADD PUSH2 0x4EC9 JUMP JUMPDEST PUSH1 0xA0 DUP2 ADD SWAP1 DUP2 LT PUSH1 0x1 PUSH1 0x1 PUSH1 0x40 SHL SUB DUP3 GT OR PUSH2 0x9E6 JUMPI PUSH1 0x40 MSTORE JUMP JUMPDEST PUSH1 0x60 DUP2 ADD SWAP1 DUP2 LT PUSH1 0x1 PUSH1 0x1 PUSH1 0x40 SHL SUB DUP3 GT OR PUSH2 0x9E6 JUMPI PUSH1 0x40 MSTORE JUMP JUMPDEST PUSH1 0xE0 DUP2 ADD SWAP1 DUP2 LT PUSH1 0x1 PUSH1 0x1 PUSH1 0x40 SHL SUB DUP3 GT OR PUSH2 0x9E6 JUMPI PUSH1 0x40 MSTORE JUMP JUMPDEST PUSH2 0x100 DUP2 ADD SWAP1 DUP2 LT PUSH1 0x1 PUSH1 0x1 PUSH1 0x40 SHL SUB DUP3 GT OR PUSH2 0x9E6 JUMPI PUSH1 0x40 MSTORE JUMP JUMPDEST SWAP1 PUSH1 0x1F DUP1 NOT SWAP2 ADD AND DUP2 ADD SWAP1 DUP2 LT PUSH1 0x1 PUSH1 0x1 PUSH1 0x40 SHL SUB DUP3 GT OR PUSH2 0x9E6 JUMPI PUSH1 0x40 MSTORE JUMP JUMPDEST DUP2 PUSH1 0x1F DUP3 ADD SLT ISZERO PUSH2 0x42F JUMPI DUP1 CALLDATALOAD SWAP1 PUSH1 0x1 PUSH1 0x1 PUSH1 0x40 SHL SUB DUP3 GT PUSH2 0x9E6 JUMPI PUSH1 0x40 MLOAD SWAP3 PUSH2 0x4FAE PUSH1 0x1F DUP5 ADD PUSH1 0x1F NOT AND PUSH1 0x20 ADD DUP6 PUSH2 0x4F59 JUMP JUMPDEST DUP3 DUP5 MSTORE PUSH1 0x20 DUP4 DUP4 ADD ADD GT PUSH2 0x42F JUMPI DUP2 PUSH0 SWAP3 PUSH1 0x20 DUP1 SWAP4 ADD DUP4 DUP7 ADD CALLDATACOPY DUP4 ADD ADD MSTORE SWAP1 JUMP JUMPDEST PUSH1 0x1 PUSH1 0x1 PUSH1 0x40 SHL SUB DUP2 GT PUSH2 0x9E6 JUMPI PUSH1 0x5 SHL PUSH1 0x20 ADD SWAP1 JUMP JUMPDEST SWAP1 DUP1 PUSH1 0x1F DUP4 ADD SLT ISZERO PUSH2 0x42F JUMPI DUP2 CALLDATALOAD PUSH2 0x4FFD DUP2 PUSH2 0x4FCF JUMP JUMPDEST SWAP3 PUSH2 0x500B PUSH1 0x40 MLOAD SWAP5 DUP6 PUSH2 0x4F59 JUMP JUMPDEST DUP2 DUP5 MSTORE PUSH1 0x20 DUP1 DUP6 ADD SWAP3 PUSH1 0x5 SHL DUP3 ADD ADD SWAP2 DUP4 DUP4 GT PUSH2 0x42F JUMPI PUSH1 0x20 DUP3 ADD SWAP1 JUMPDEST DUP4 DUP3 LT PUSH2 0x5037 JUMPI POP POP POP POP POP SWAP1 JUMP JUMPDEST DUP2 CALLDATALOAD PUSH1 0x1 PUSH1 0x1 PUSH1 0x40 SHL SUB DUP2 GT PUSH2 0x42F JUMPI PUSH1 0x20 SWAP2 PUSH2 0x5059 DUP8 DUP5 DUP1 SWAP5 DUP9 ADD ADD PUSH2 0x4F7A JUMP JUMPDEST DUP2 MSTORE ADD SWAP2 ADD SWAP1 PUSH2 0x5028 JUMP JUMPDEST SWAP1 PUSH1 0x8 DUP3 LT ISZERO PUSH2 0x2467 JUMPI MSTORE JUMP JUMPDEST PUSH1 0x80 SWAP1 PUSH1 0x3 NOT ADD SLT PUSH2 0x42F JUMPI PUSH1 0x4 CALLDATALOAD SWAP1 PUSH1 0x24 CALLDATALOAD SWAP1 PUSH1 0x44 CALLDATALOAD SWAP1 PUSH1 0x64 CALLDATALOAD SWAP1 JUMP JUMPDEST PUSH1 0x60 SWAP1 PUSH1 0x3 NOT ADD SLT PUSH2 0x42F JUMPI PUSH1 0x4 CALLDATALOAD SWAP1 PUSH1 0x24 CALLDATALOAD SWAP1 PUSH1 0x44 CALLDATALOAD SWAP1 JUMP JUMPDEST DUP1 SLOAD DUP3 LT ISZERO PUSH2 0x4DB8 JUMPI PUSH0 MSTORE PUSH1 0x3 PUSH1 0x20 PUSH0 KECCAK256 SWAP2 MUL ADD SWAP1 PUSH0 SWAP1 JUMP JUMPDEST PUSH1 0x40 SWAP1 PUSH1 0x3 NOT ADD SLT PUSH2 0x42F JUMPI PUSH1 0x4 CALLDATALOAD PUSH1 0x8 DUP2 LT ISZERO PUSH2 0x42F JUMPI SWAP1 PUSH1 0x24 CALLDATALOAD SWAP1 JUMP JUMPDEST PUSH1 0x8 DUP2 LT ISZERO PUSH2 0x2467 JUMPI PUSH0 MSTORE PUSH1 0xF PUSH1 0x20 MSTORE PUSH1 0x40 PUSH0 KECCAK256 SWAP1 JUMP JUMPDEST PUSH1 0x3 DUP2 LT ISZERO PUSH2 0x2467 JUMPI PUSH0 MSTORE PUSH1 0x11 PUSH1 0x20 MSTORE PUSH1 0x40 PUSH0 KECCAK256 SWAP1 JUMP JUMPDEST SWAP1 PUSH1 0x1 DUP3 DUP2 SHR SWAP3 AND DUP1 ISZERO PUSH2 0x513D JUMPI JUMPDEST PUSH1 0x20 DUP4 LT EQ PUSH2 0x5129 JUMPI JUMP JUMPDEST PUSH4 0x4E487B71 PUSH1 0xE0 SHL PUSH0 MSTORE PUSH1 0x22 PUSH1 0x4 MSTORE PUSH1 0x24 PUSH0 REVERT JUMPDEST SWAP2 PUSH1 0x7F AND SWAP2 PUSH2 0x511E JUMP JUMPDEST SWAP1 PUSH1 0x40 MLOAD SWAP2 DUP3 PUSH0 DUP3 SLOAD SWAP3 PUSH2 0x515A DUP5 PUSH2 0x510F JUMP JUMPDEST DUP1 DUP5 MSTORE SWAP4 PUSH1 0x1 DUP2 AND SWAP1 DUP2 ISZERO PUSH2 0x51C5 JUMPI POP PUSH1 0x1 EQ PUSH2 0x5181 JUMPI JUMPDEST POP PUSH2 0x517F SWAP3 POP SUB DUP4 PUSH2 0x4F59 JUMP JUMPDEST JUMP JUMPDEST SWAP1 POP PUSH0 SWAP3 SWAP2 SWAP3 MSTORE PUSH1 0x20 PUSH0 KECCAK256 SWAP1 PUSH0 SWAP2 JUMPDEST DUP2 DUP4 LT PUSH2 0x51A9 JUMPI POP POP SWAP1 PUSH1 0x20 PUSH2 0x517F SWAP3 DUP3 ADD ADD PUSH0 PUSH2 0x5172 JUMP JUMPDEST PUSH1 0x20 SWAP2 SWAP4 POP DUP1 PUSH1 0x1 SWAP2 SLOAD DUP4 DUP6 DUP10 ADD ADD MSTORE ADD SWAP2 ADD SWAP1 SWAP2 DUP5 SWAP3 PUSH2 0x5190 JUMP JUMPDEST SWAP1 POP PUSH1 0x20 SWAP3 POP PUSH2 0x517F SWAP5 SWAP2 POP PUSH1 0xFF NOT AND DUP3 DUP5 ADD MSTORE ISZERO ISZERO PUSH1 0x5 SHL DUP3 ADD ADD PUSH0 PUSH2 0x5172 JUMP JUMPDEST SWAP1 PUSH2 0x51F1 DUP3 PUSH2 0x4FCF JUMP JUMPDEST PUSH2 0x51FE PUSH1 0x40 MLOAD SWAP2 DUP3 PUSH2 0x4F59 JUMP JUMPDEST DUP3 DUP2 MSTORE DUP1 SWAP3 PUSH2 0x520F PUSH1 0x1F NOT SWAP2 PUSH2 0x4FCF JUMP JUMPDEST ADD SWAP1 PUSH1 0x20 CALLDATASIZE SWAP2 ADD CALLDATACOPY JUMP JUMPDEST SWAP2 SWAP1 DUP3 ADD DUP1 SWAP3 GT PUSH2 0xE80 JUMPI JUMP JUMPDEST DUP2 DUP2 MUL SWAP3 SWAP2 DUP2 ISZERO SWAP2 DUP5 DIV EQ OR ISZERO PUSH2 0xE80 JUMPI JUMP JUMPDEST DUP2 ISZERO PUSH2 0xB89 JUMPI DIV SWAP1 JUMP JUMPDEST DUP1 MLOAD DUP3 LT ISZERO PUSH2 0x4DB8 JUMPI PUSH1 0x20 SWAP2 PUSH1 0x5 SHL ADD ADD SWAP1 JUMP JUMPDEST SWAP1 DUP2 PUSH1 0x20 SWAP2 SUB SLT PUSH2 0x42F JUMPI MLOAD DUP1 ISZERO ISZERO DUP2 SUB PUSH2 0x42F JUMPI SWAP1 JUMP JUMPDEST PUSH0 NOT DUP2 EQ PUSH2 0xE80 JUMPI PUSH1 0x1 ADD SWAP1 JUMP JUMPDEST DUP1 SLOAD PUSH1 0x1 PUSH1 0x40 SHL DUP2 LT ISZERO PUSH2 0x9E6 JUMPI PUSH2 0x529A SWAP2 PUSH1 0x1 DUP3 ADD DUP2 SSTORE PUSH2 0x50A9 JUMP JUMPDEST SWAP2 SWAP1 SWAP2 PUSH2 0x52BB JUMPI PUSH1 0x40 DUP2 PUSH1 0x2 SWAP3 MLOAD DUP5 SSTORE PUSH1 0x20 DUP2 ADD MLOAD PUSH1 0x1 DUP6 ADD SSTORE ADD MLOAD SWAP2 ADD SSTORE JUMP JUMPDEST PUSH4 0x4E487B71 PUSH1 0xE0 SHL PUSH0 MSTORE PUSH0 PUSH1 0x4 MSTORE PUSH1 0x24 PUSH0 REVERT JUMPDEST DUP1 SLOAD PUSH1 0x1 PUSH1 0x40 SHL DUP2 LT ISZERO PUSH2 0x9E6 JUMPI PUSH2 0x52EB SWAP2 PUSH1 0x1 DUP3 ADD DUP2 SSTORE PUSH2 0x4E1F JUMP JUMPDEST DUP2 SWAP3 SWAP2 SLOAD SWAP1 PUSH1 0x3 SHL SWAP2 DUP3 SHL SWAP2 PUSH0 NOT SWAP1 SHL NOT AND OR SWAP1 SSTORE JUMP JUMPDEST SWAP2 SWAP1 DUP3 SUB SWAP2 DUP3 GT PUSH2 0xE80 JUMPI JUMP JUMPDEST DUP1 SLOAD PUSH1 0x1 PUSH1 0x40 SHL DUP2 LT ISZERO PUSH2 0x9E6 JUMPI PUSH2 0x532C SWAP2 PUSH1 0x1 DUP3 ADD DUP2 SSTORE PUSH2 0x4E60 JUMP JUMPDEST SWAP2 SWAP1 SWAP2 PUSH2 0x52BB JUMPI DUP1 MLOAD DUP3 SSTORE PUSH1 0x20 DUP2 ADD MLOAD PUSH1 0x1 DUP4 ADD SSTORE PUSH1 0x40 DUP2 ADD MLOAD PUSH1 0x2 DUP4 ADD DUP1 SLOAD PUSH1 0x1 PUSH1 0x1 PUSH1 0xA0 SHL SUB SWAP3 DUP4 AND PUSH1 0x1 PUSH1 0x1 PUSH1 0xA0 SHL SUB NOT SWAP2 DUP3 AND OR SWAP1 SWAP2 SSTORE PUSH1 0x60 DUP4 ADD MLOAD PUSH1 0x3 DUP6 ADD DUP1 SLOAD SWAP2 SWAP1 SWAP4 AND SWAP2 AND OR SWAP1 SSTORE PUSH1 0x80 DUP2 ADD MLOAD PUSH1 0x4 DUP4 ADD SSTORE PUSH1 0xA0 DUP2 ADD MLOAD PUSH1 0x5 DUP4 ADD SSTORE PUSH1 0xC0 ADD MLOAD PUSH1 0x6 SWAP1 SWAP2 ADD SSTORE JUMP JUMPDEST PUSH1 0x13 SLOAD PUSH1 0x1 PUSH1 0x40 SHL DUP2 LT ISZERO PUSH2 0x9E6 JUMPI DUP1 PUSH1 0x1 PUSH2 0x53BC SWAP3 ADD PUSH1 0x13 SSTORE PUSH1 0x13 PUSH2 0x4E1F JUMP JUMPDEST DUP2 SLOAD PUSH1 0x1 PUSH1 0x1 PUSH1 0xA0 SHL SUB SWAP4 DUP5 AND PUSH1 0x3 SWAP3 SWAP1 SWAP3 SHL SWAP2 DUP3 SHL SWAP4 SWAP1 SWAP2 SHL NOT AND SWAP2 SWAP1 SWAP2 OR SWAP1 SSTORE JUMP JUMPDEST DUP1 SLOAD PUSH1 0x1 PUSH1 0x40 SHL DUP2 LT ISZERO PUSH2 0x9E6 JUMPI PUSH2 0x53BC SWAP2 PUSH1 0x1 DUP3 ADD DUP2 SSTORE PUSH2 0x4E1F JUMP JUMPDEST PUSH0 SLOAD PUSH1 0x1 PUSH1 0x1 PUSH1 0xA0 SHL SUB AND CALLER SUB PUSH2 0x5410 JUMPI JUMP JUMPDEST PUSH4 0x118CDAA7 PUSH1 0xE0 SHL PUSH0 MSTORE CALLER PUSH1 0x4 MSTORE PUSH1 0x24 PUSH0 REVERT JUMPDEST PUSH1 0xFF PUSH1 0x3 SLOAD AND PUSH2 0x542F JUMPI JUMP JUMPDEST PUSH4 0xD93C0665 PUSH1 0xE0 SHL PUSH0 MSTORE PUSH1 0x4 PUSH0 REVERT JUMPDEST PUSH0 DUP2 DUP2 MSTORE PUSH1 0x2 PUSH1 0x20 SWAP1 DUP2 MSTORE PUSH1 0x40 DUP1 DUP4 KECCAK256 CALLER DUP5 MSTORE SWAP1 SWAP2 MSTORE SWAP1 KECCAK256 SLOAD PUSH1 0xFF AND ISZERO PUSH2 0x5462 JUMPI POP JUMP JUMPDEST PUSH4 0xE2517D3F PUSH1 0xE0 SHL PUSH0 MSTORE CALLER PUSH1 0x4 MSTORE PUSH1 0x24 MSTORE PUSH1 0x44 PUSH0 REVERT JUMPDEST PUSH1 0x1 PUSH1 0x1 PUSH1 0xA0 SHL SUB DUP2 AND PUSH0 SWAP1 DUP2 MSTORE PUSH32 0x8E2C297E756B2A427C5DC4607F639842A8EA6E0F6322302F4EA76306B642CFC2 PUSH1 0x20 MSTORE PUSH1 0x40 SWAP1 KECCAK256 SLOAD PUSH1 0xFF AND PUSH2 0x5531 JUMPI PUSH1 0x1 PUSH1 0x1 PUSH1 0xA0 SHL SUB AND PUSH0 DUP2 DUP2 MSTORE PUSH32 0x8E2C297E756B2A427C5DC4607F639842A8EA6E0F6322302F4EA76306B642CFC2 PUSH1 0x20 MSTORE PUSH1 0x40 DUP2 KECCAK256 DUP1 SLOAD PUSH1 0xFF NOT AND PUSH1 0x1 OR SWAP1 SSTORE CALLER SWAP2 SWAP1 PUSH32 0xDCEE1D35C83A32B436264A5C9AFD68685C124F3F9097E87804C55410E67FC59A SWAP1 PUSH0 MLOAD PUSH1 0x20 PUSH2 0x57FC PUSH0 CODECOPY PUSH0 MLOAD SWAP1 PUSH0 MSTORE SWAP1 DUP1 LOG4 PUSH1 0x1 SWAP1 JUMP JUMPDEST POP PUSH0 SWAP1 JUMP JUMPDEST PUSH1 0x1 PUSH1 0x1 PUSH1 0xA0 SHL SUB DUP2 AND PUSH0 SWAP1 DUP2 MSTORE PUSH0 MLOAD PUSH1 0x20 PUSH2 0x581C PUSH0 CODECOPY PUSH0 MLOAD SWAP1 PUSH0 MSTORE PUSH1 0x20 MSTORE PUSH1 0x40 SWAP1 KECCAK256 SLOAD PUSH1 0xFF AND PUSH2 0x5531 JUMPI PUSH1 0x1 PUSH1 0x1 PUSH1 0xA0 SHL SUB AND PUSH0 DUP2 DUP2 MSTORE PUSH0 MLOAD PUSH1 0x20 PUSH2 0x581C PUSH0 CODECOPY PUSH0 MLOAD SWAP1 PUSH0 MSTORE PUSH1 0x20 MSTORE PUSH1 0x40 DUP2 KECCAK256 DUP1 SLOAD PUSH1 0xFF NOT AND PUSH1 0x1 OR SWAP1 SSTORE CALLER SWAP2 SWAP1 PUSH32 0xEF485BE696BBC0C91AD541BBD553FFB5BD0E18DAC30BA76E992DDA23CB807A8A SWAP1 PUSH0 MLOAD PUSH1 0x20 PUSH2 0x57FC PUSH0 CODECOPY PUSH0 MLOAD SWAP1 PUSH0 MSTORE SWAP1 DUP1 LOG4 PUSH1 0x1 SWAP1 JUMP JUMPDEST PUSH1 0x1 PUSH1 0x1 PUSH1 0xA0 SHL SUB DUP2 AND PUSH0 SWAP1 DUP2 MSTORE PUSH32 0xD3DCCF8D8289B9DEEE17E361620D7577DE7B525DD57F668D5C1BB85EC53112B5 PUSH1 0x20 MSTORE PUSH1 0x40 SWAP1 KECCAK256 SLOAD PUSH1 0xFF AND PUSH2 0x5531 JUMPI PUSH1 0x1 PUSH1 0x1 PUSH1 0xA0 SHL SUB AND PUSH0 DUP2 DUP2 MSTORE PUSH32 0xD3DCCF8D8289B9DEEE17E361620D7577DE7B525DD57F668D5C1BB85EC53112B5 PUSH1 0x20 MSTORE PUSH1 0x40 DUP2 KECCAK256 DUP1 SLOAD PUSH1 0xFF NOT AND PUSH1 0x1 OR SWAP1 SSTORE CALLER SWAP2 SWAP1 PUSH32 0xD486618B282CB35034D59C30C062B5B3822D6CDF87EC459191CE7F5B7B8A4873 SWAP1 PUSH0 MLOAD PUSH1 0x20 PUSH2 0x57FC PUSH0 CODECOPY PUSH0 MLOAD SWAP1 PUSH0 MSTORE SWAP1 DUP1 LOG4 PUSH1 0x1 SWAP1 JUMP JUMPDEST PUSH0 DUP2 DUP2 MSTORE PUSH1 0x2 PUSH1 0x20 SWAP1 DUP2 MSTORE PUSH1 0x40 DUP1 DUP4 KECCAK256 PUSH1 0x1 PUSH1 0x1 PUSH1 0xA0 SHL SUB DUP7 AND DUP5 MSTORE SWAP1 SWAP2 MSTORE SWAP1 KECCAK256 SLOAD PUSH1 0xFF AND PUSH2 0x56F5 JUMPI PUSH0 DUP2 DUP2 MSTORE PUSH1 0x2 PUSH1 0x20 SWAP1 DUP2 MSTORE PUSH1 0x40 DUP1 DUP4 KECCAK256 PUSH1 0x1 PUSH1 0x1 PUSH1 0xA0 SHL SUB SWAP6 SWAP1 SWAP6 AND DUP1 DUP5 MSTORE SWAP5 SWAP1 SWAP2 MSTORE DUP2 KECCAK256 DUP1 SLOAD PUSH1 0xFF NOT AND PUSH1 0x1 OR SWAP1 SSTORE CALLER SWAP3 SWAP2 SWAP1 PUSH0 MLOAD PUSH1 0x20 PUSH2 0x57FC PUSH0 CODECOPY PUSH0 MLOAD SWAP1 PUSH0 MSTORE SWAP1 DUP1 LOG4 PUSH1 0x1 SWAP1 JUMP JUMPDEST POP POP PUSH0 SWAP1 JUMP JUMPDEST PUSH0 DUP2 DUP2 MSTORE PUSH1 0x2 PUSH1 0x20 SWAP1 DUP2 MSTORE PUSH1 0x40 DUP1 DUP4 KECCAK256 PUSH1 0x1 PUSH1 0x1 PUSH1 0xA0 SHL SUB DUP7 AND DUP5 MSTORE SWAP1 SWAP2 MSTORE SWAP1 KECCAK256 SLOAD PUSH1 0xFF AND ISZERO PUSH2 0x56F5 JUMPI PUSH0 DUP2 DUP2 MSTORE PUSH1 0x2 PUSH1 0x20 SWAP1 DUP2 MSTORE PUSH1 0x40 DUP1 DUP4 KECCAK256 PUSH1 0x1 PUSH1 0x1 PUSH1 0xA0 SHL SUB SWAP6 SWAP1 SWAP6 AND DUP1 DUP5 MSTORE SWAP5 SWAP1 SWAP2 MSTORE DUP2 KECCAK256 DUP1 SLOAD PUSH1 0xFF NOT AND SWAP1 SSTORE CALLER SWAP3 SWAP2 SWAP1 PUSH32 0xF6391F5C32D9C69D2A47EA670B442974B53935D1EDC7FD64EB21E047A839171B SWAP1 DUP1 LOG4 PUSH1 0x1 SWAP1 JUMP JUMPDEST PUSH1 0x2 PUSH1 0x1 SLOAD EQ PUSH2 0x5790 JUMPI PUSH1 0x2 PUSH1 0x1 SSTORE JUMP JUMPDEST PUSH4 0x3EE5AEB5 PUSH1 0xE0 SHL PUSH0 MSTORE PUSH1 0x4 PUSH0 REVERT JUMPDEST SWAP1 PUSH0 MSTORE PUSH1 0xA PUSH1 0x20 MSTORE PUSH1 0x40 PUSH0 KECCAK256 SWAP1 PUSH0 SWAP1 PUSH1 0xC PUSH1 0x9 DUP5 ADD SLOAD SWAP4 ADD SWAP2 JUMPDEST DUP4 DUP2 LT PUSH2 0x57C9 JUMPI POP POP POP POP PUSH1 0x1 SWAP1 JUMP JUMPDEST PUSH1 0x1 DUP1 PUSH1 0xA0 SHL SUB DUP3 AND PUSH0 MSTORE DUP3 PUSH1 0x20 MSTORE PUSH1 0x40 PUSH0 KECCAK256 DUP2 PUSH0 MSTORE PUSH1 0x20 MSTORE PUSH1 0x40 PUSH0 KECCAK256 SLOAD PUSH2 0x57F3 JUMPI PUSH1 0x1 ADD PUSH2 0x57B9 JUMP JUMPDEST POP POP POP POP PUSH0 SWAP1 JUMP INVALID 0x2F DUP8 DUP9 GT PUSH31 0x7EFF1D82E926EC794901D17C78024A50270940304540A733656F0D30D99551 DUP12 TIMESTAMP PUSH32 0x5A5863AD73FE356CA50CF70941F42C516830919C845FA5806F74BF668E97161F 0x1F 0xD8 0xF 0xCD 0x26 RETURN BLOBHASH 0xD4 AND SWAP10 0xF7 MULMOD SGT 0xDE OR PUSH23 0x5803D0880629DA0DE3A2646970667358221220B79F93E1 0xF7 0xEA CALLDATALOAD EXTDELEGATECALL PUSH31 0xC3F0339164DD232747BE3F3F36EDAD44AD4A91362C906664736F6C63430008 0x1E STOP CALLER 0xAC CALLER SELFDESTRUCT PUSH22 0xC19E70FE83507DB0D683FD3465C996598DC972688B7A 0xCE PUSH8 0x6C89077B00000000 "
		},
		"gasEstimates": {
			"creation": {
				"codeDepositCost": "4534600",
				"executionCost": "infinite",
				"totalCost": "infinite"
			},
			"external": {
				"AMM_FEE_RATE()": "263",
				"DEFAULT_ADMIN_ROLE()": "1120",
				"MARKET_VALIDATOR_ROLE()": "505",
				"MAX_MARKET_DURATION()": "945",
				"MAX_OPTIONS()": "219",
				"MIN_MARKET_DURATION()": "1099",
				"QUESTION_CREATOR_ROLE()": "901",
				"QUESTION_RESOLVE_ROLE()": "879",
				"addAMMLiquidity(uint256,uint256)": "infinite",
				"allParticipants(uint256)": "6570",
				"ammSwap(uint256,uint256,uint256,uint256,uint256)": "infinite",
				"bettingToken()": "2795",
				"buyShares(uint256,uint256,uint256,uint256)": "infinite",
				"calculateCurrentPrice(uint256,uint256)": "3529",
				"calculateSellPrice(uint256,uint256,uint256)": "6306",
				"categoryMarkets(uint8,uint256)": "7807",
				"claimFreeShares(uint256,uint256)": "infinite",
				"claimWinnings(uint256)": "infinite",
				"createFreeMarket(string,string,string[],string[],uint256,uint8,uint256,uint256,uint256)": "infinite",
				"createMarket(string,string,string[],string[],uint256,uint8,uint8,uint256)": "infinite",
				"createMarketWithDefaultLiquidity(string,string,string[],string[],uint256,uint8,uint8)": "infinite",
				"createSponsoredMarket(string,string,string[],string[],uint256,uint8,uint256,string,uint256)": "infinite",
				"disputeMarket(uint256,string)": "infinite",
				"freeMarketAllowance()": "2740",
				"getBettingToken()": "2575",
				"getMarketCount()": "3708",
				"getMarketInfo(uint256)": "infinite",
				"getMarketOdds(uint256)": "infinite",
				"getMarketOption(uint256,uint256)": "infinite",
				"getMarketsByCategory(uint8,uint256)": "infinite",
				"getPriceHistory(uint256,uint256,uint256)": "infinite",
				"getRoleAdmin(bytes32)": "2584",
				"getUserPortfolio(address)": "infinite",
				"getUserShares(uint256,address)": "infinite",
				"grantMarketValidatorRole(address)": "36303",
				"grantQuestionCreatorRole(address)": "35965",
				"grantQuestionResolveRole(address)": "35643",
				"grantRole(bytes32,address)": "33636",
				"hasRole(bytes32,address)": "3387",
				"marketCount()": "3554",
				"marketTrades(uint256,uint256)": "19689",
				"marketsByType(uint8,uint256)": "7991",
				"owner()": "3159",
				"pause()": "30526",
				"pauseMarket(uint256)": "31277",
				"paused()": "2862",
				"platformFeeRate()": "3598",
				"previousBettingToken()": "2830",
				"priceHistory(uint256,uint256,uint256)": "12030",
				"renounceOwnership()": "28754",
				"renounceRole(bytes32,address)": "29259",
				"resolveMarket(uint256,uint256)": "59646",
				"revokeRole(bytes32,address)": "34484",
				"sellShares(uint256,uint256,uint256,uint256)": "infinite",
				"setFreeMarketAllowance(uint256)": "24599",
				"setPlatformFeeRate(uint256)": "25347",
				"supportsInterface(bytes4)": "270",
				"tokenUpdatedAt()": "2344",
				"totalWinnings(address)": "3264",
				"tradeCount()": "3400",
				"transferOwnership(address)": "29534",
				"unpause()": "28025",
				"updateBettingToken(address)": "78528",
				"updateBettingTokenAddress(address)": "74987",
				"userFreeSharesUsed(address)": "3506",
				"userPortfolios(address)": "12036",
				"userTradeHistory(address,uint256)": "19635",
				"validateMarket(uint256)": "35539"
			},
			"internal": {
				"_isNewParticipant(address,uint256)": "infinite",
				"calculateNewPrice(uint256,uint256,uint256,bool)": "infinite"
			}
		},
		"methodIdentifiers": {
			"AMM_FEE_RATE()": "12c413af",
			"DEFAULT_ADMIN_ROLE()": "a217fddf",
			"MARKET_VALIDATOR_ROLE()": "32617b70",
			"MAX_MARKET_DURATION()": "7e50898e",
			"MAX_OPTIONS()": "0da183d6",
			"MIN_MARKET_DURATION()": "92f012b2",
			"QUESTION_CREATOR_ROLE()": "77b4a3e7",
			"QUESTION_RESOLVE_ROLE()": "755f0629",
			"addAMMLiquidity(uint256,uint256)": "6eae4297",
			"allParticipants(uint256)": "05e33dd0",
			"ammSwap(uint256,uint256,uint256,uint256,uint256)": "e9ca2026",
			"bettingToken()": "43425e88",
			"buyShares(uint256,uint256,uint256,uint256)": "ed881230",
			"calculateCurrentPrice(uint256,uint256)": "b1ab13ff",
			"calculateSellPrice(uint256,uint256,uint256)": "f355f2e7",
			"categoryMarkets(uint8,uint256)": "a8cc7f19",
			"claimFreeShares(uint256,uint256)": "c07d1449",
			"claimWinnings(uint256)": "677bd9ff",
			"createFreeMarket(string,string,string[],string[],uint256,uint8,uint256,uint256,uint256)": "2a49b428",
			"createMarket(string,string,string[],string[],uint256,uint8,uint8,uint256)": "33031b06",
			"createMarketWithDefaultLiquidity(string,string,string[],string[],uint256,uint8,uint8)": "f98ce1ba",
			"createSponsoredMarket(string,string,string[],string[],uint256,uint8,uint256,string,uint256)": "d911f198",
			"disputeMarket(uint256,string)": "4a2021ef",
			"freeMarketAllowance()": "417257f9",
			"getBettingToken()": "29cf655b",
			"getMarketCount()": "fd69f3c2",
			"getMarketInfo(uint256)": "3ec79193",
			"getMarketOdds(uint256)": "26e12752",
			"getMarketOption(uint256,uint256)": "222fa267",
			"getMarketsByCategory(uint8,uint256)": "c2454af7",
			"getPriceHistory(uint256,uint256,uint256)": "7c946454",
			"getRoleAdmin(bytes32)": "248a9ca3",
			"getUserPortfolio(address)": "1edb27e9",
			"getUserShares(uint256,address)": "835dc40b",
			"grantMarketValidatorRole(address)": "abdce1a4",
			"grantQuestionCreatorRole(address)": "6db3b4dc",
			"grantQuestionResolveRole(address)": "35037e0b",
			"grantRole(bytes32,address)": "2f2ff15d",
			"hasRole(bytes32,address)": "91d14854",
			"marketCount()": "ec979082",
			"marketTrades(uint256,uint256)": "1cb1de2f",
			"marketsByType(uint8,uint256)": "d8c39bd7",
			"owner()": "8da5cb5b",
			"pause()": "8456cb59",
			"pauseMarket(uint256)": "fc12524c",
			"paused()": "5c975abb",
			"platformFeeRate()": "eeca08f0",
			"previousBettingToken()": "4bdd45fb",
			"priceHistory(uint256,uint256,uint256)": "a75dd115",
			"renounceOwnership()": "715018a6",
			"renounceRole(bytes32,address)": "36568abe",
			"resolveMarket(uint256,uint256)": "60557333",
			"revokeRole(bytes32,address)": "d547741f",
			"sellShares(uint256,uint256,uint256,uint256)": "5a2db6fb",
			"setFreeMarketAllowance(uint256)": "21b86dc2",
			"setPlatformFeeRate(uint256)": "927fef2e",
			"supportsInterface(bytes4)": "01ffc9a7",
			"tokenUpdatedAt()": "1029191a",
			"totalWinnings(address)": "8b8840e0",
			"tradeCount()": "bd55022a",
			"transferOwnership(address)": "f2fde38b",
			"unpause()": "3f4ba83a",
			"updateBettingToken(address)": "fdd3cdf6",
			"updateBettingTokenAddress(address)": "15571981",
			"userFreeSharesUsed(address)": "b41acdbe",
			"userPortfolios(address)": "b61920c1",
			"userTradeHistory(address,uint256)": "08693f3c",
			"validateMarket(uint256)": "ab44e635"
		}
	},
	"abi": [
		{
			"inputs": [
				{
					"internalType": "address",
					"name": "_bettingToken",
					"type": "address"
				}
			],
			"stateMutability": "nonpayable",
			"type": "constructor"
		},
		{
			"inputs": [],
			"name": "AccessControlBadConfirmation",
			"type": "error"
		},
		{
			"inputs": [
				{
					"internalType": "address",
					"name": "account",
					"type": "address"
				},
				{
					"internalType": "bytes32",
					"name": "neededRole",
					"type": "bytes32"
				}
			],
			"name": "AccessControlUnauthorizedAccount",
			"type": "error"
		},
		{
			"inputs": [],
			"name": "AlreadyClaimed",
			"type": "error"
		},
		{
			"inputs": [],
			"name": "AlreadyClaimedFree",
			"type": "error"
		},
		{
			"inputs": [],
			"name": "AmountMustBePositive",
			"type": "error"
		},
		{
			"inputs": [],
			"name": "BadDuration",
			"type": "error"
		},
		{
			"inputs": [],
			"name": "BadOptionCount",
			"type": "error"
		},
		{
			"inputs": [],
			"name": "CannotDisputeIfWon",
			"type": "error"
		},
		{
			"inputs": [],
			"name": "CannotSwapSameOption",
			"type": "error"
		},
		{
			"inputs": [],
			"name": "EmptyQuestion",
			"type": "error"
		},
		{
			"inputs": [],
			"name": "EnforcedPause",
			"type": "error"
		},
		{
			"inputs": [],
			"name": "ExceedsFreeAllowance",
			"type": "error"
		},
		{
			"inputs": [],
			"name": "ExpectedPause",
			"type": "error"
		},
		{
			"inputs": [],
			"name": "FeeTooHigh",
			"type": "error"
		},
		{
			"inputs": [],
			"name": "FreeEntryInactive",
			"type": "error"
		},
		{
			"inputs": [],
			"name": "FreeSlotseFull",
			"type": "error"
		},
		{
			"inputs": [],
			"name": "InsufficientBalance",
			"type": "error"
		},
		{
			"inputs": [],
			"name": "InsufficientLiquidity",
			"type": "error"
		},
		{
			"inputs": [],
			"name": "InsufficientOutput",
			"type": "error"
		},
		{
			"inputs": [],
			"name": "InsufficientShares",
			"type": "error"
		},
		{
			"inputs": [],
			"name": "InvalidInput",
			"type": "error"
		},
		{
			"inputs": [],
			"name": "InvalidMarket",
			"type": "error"
		},
		{
			"inputs": [],
			"name": "InvalidOption",
			"type": "error"
		},
		{
			"inputs": [],
			"name": "InvalidToken",
			"type": "error"
		},
		{
			"inputs": [],
			"name": "InvalidWinningOption",
			"type": "error"
		},
		{
			"inputs": [],
			"name": "LengthMismatch",
			"type": "error"
		},
		{
			"inputs": [],
			"name": "MarketAlreadyResolved",
			"type": "error"
		},
		{
			"inputs": [],
			"name": "MarketEnded",
			"type": "error"
		},
		{
			"inputs": [],
			"name": "MarketNotActive",
			"type": "error"
		},
		{
			"inputs": [],
			"name": "MarketNotEndedYet",
			"type": "error"
		},
		{
			"inputs": [],
			"name": "MarketNotReady",
			"type": "error"
		},
		{
			"inputs": [],
			"name": "MarketNotResolved",
			"type": "error"
		},
		{
			"inputs": [],
			"name": "MarketNotValidated",
			"type": "error"
		},
		{
			"inputs": [],
			"name": "MinTokensRequired",
			"type": "error"
		},
		{
			"inputs": [],
			"name": "NoWinningShares",
			"type": "error"
		},
		{
			"inputs": [],
			"name": "NotAuthorized",
			"type": "error"
		},
		{
			"inputs": [],
			"name": "NotFreeMarket",
			"type": "error"
		},
		{
			"inputs": [],
			"name": "OnlyAdminOrOwner",
			"type": "error"
		},
		{
			"inputs": [],
			"name": "OptionInactive",
			"type": "error"
		},
		{
			"inputs": [
				{
					"internalType": "address",
					"name": "owner",
					"type": "address"
				}
			],
			"name": "OwnableInvalidOwner",
			"type": "error"
		},
		{
			"inputs": [
				{
					"internalType": "address",
					"name": "account",
					"type": "address"
				}
			],
			"name": "OwnableUnauthorizedAccount",
			"type": "error"
		},
		{
			"inputs": [],
			"name": "PriceTooHigh",
			"type": "error"
		},
		{
			"inputs": [],
			"name": "PriceTooLow",
			"type": "error"
		},
		{
			"inputs": [],
			"name": "ReentrancyGuardReentrantCall",
			"type": "error"
		},
		{
			"inputs": [],
			"name": "SamePrizeRequired",
			"type": "error"
		},
		{
			"inputs": [],
			"name": "SameToken",
			"type": "error"
		},
		{
			"inputs": [],
			"name": "TransferFailed",
			"type": "error"
		},
		{
			"anonymous": false,
			"inputs": [
				{
					"indexed": true,
					"internalType": "uint256",
					"name": "marketId",
					"type": "uint256"
				},
				{
					"indexed": false,
					"internalType": "uint256",
					"name": "optionIdIn",
					"type": "uint256"
				},
				{
					"indexed": false,
					"internalType": "uint256",
					"name": "optionIdOut",
					"type": "uint256"
				},
				{
					"indexed": false,
					"internalType": "uint256",
					"name": "amountIn",
					"type": "uint256"
				},
				{
					"indexed": false,
					"internalType": "uint256",
					"name": "amountOut",
					"type": "uint256"
				},
				{
					"indexed": false,
					"internalType": "address",
					"name": "trader",
					"type": "address"
				}
			],
			"name": "AMMSwap",
			"type": "event"
		},
		{
			"anonymous": false,
			"inputs": [
				{
					"indexed": true,
					"internalType": "address",
					"name": "oldToken",
					"type": "address"
				},
				{
					"indexed": true,
					"internalType": "address",
					"name": "newToken",
					"type": "address"
				},
				{
					"indexed": false,
					"internalType": "uint256",
					"name": "timestamp",
					"type": "uint256"
				}
			],
			"name": "BettingTokenUpdated",
			"type": "event"
		},
		{
			"anonymous": false,
			"inputs": [
				{
					"indexed": true,
					"internalType": "uint256",
					"name": "marketId",
					"type": "uint256"
				},
				{
					"indexed": true,
					"internalType": "address",
					"name": "user",
					"type": "address"
				},
				{
					"indexed": false,
					"internalType": "uint256",
					"name": "amount",
					"type": "uint256"
				}
			],
			"name": "Claimed",
			"type": "event"
		},
		{
			"anonymous": false,
			"inputs": [
				{
					"indexed": true,
					"internalType": "uint256",
					"name": "marketId",
					"type": "uint256"
				},
				{
					"indexed": false,
					"internalType": "uint256",
					"name": "amount",
					"type": "uint256"
				}
			],
			"name": "FeeCollected",
			"type": "event"
		},
		{
			"anonymous": false,
			"inputs": [
				{
					"indexed": true,
					"internalType": "uint256",
					"name": "marketId",
					"type": "uint256"
				},
				{
					"indexed": true,
					"internalType": "address",
					"name": "user",
					"type": "address"
				},
				{
					"indexed": false,
					"internalType": "uint256",
					"name": "optionId",
					"type": "uint256"
				},
				{
					"indexed": false,
					"internalType": "uint256",
					"name": "shares",
					"type": "uint256"
				}
			],
			"name": "FreeSharesClaimed",
			"type": "event"
		},
		{
			"anonymous": false,
			"inputs": [
				{
					"indexed": true,
					"internalType": "uint256",
					"name": "marketId",
					"type": "uint256"
				},
				{
					"indexed": true,
					"internalType": "address",
					"name": "provider",
					"type": "address"
				},
				{
					"indexed": false,
					"internalType": "uint256",
					"name": "amount",
					"type": "uint256"
				}
			],
			"name": "LiquidityAdded",
			"type": "event"
		},
		{
			"anonymous": false,
			"inputs": [
				{
					"indexed": true,
					"internalType": "uint256",
					"name": "marketId",
					"type": "uint256"
				},
				{
					"indexed": false,
					"internalType": "string",
					"name": "question",
					"type": "string"
				},
				{
					"indexed": false,
					"internalType": "string[]",
					"name": "options",
					"type": "string[]"
				},
				{
					"indexed": false,
					"internalType": "uint256",
					"name": "endTime",
					"type": "uint256"
				},
				{
					"indexed": false,
					"internalType": "enum PolicastMarketV2.MarketCategory",
					"name": "category",
					"type": "uint8"
				},
				{
					"indexed": false,
					"internalType": "enum PolicastMarketV2.MarketType",
					"name": "marketType",
					"type": "uint8"
				},
				{
					"indexed": false,
					"internalType": "address",
					"name": "creator",
					"type": "address"
				}
			],
			"name": "MarketCreated",
			"type": "event"
		},
		{
			"anonymous": false,
			"inputs": [
				{
					"indexed": true,
					"internalType": "uint256",
					"name": "marketId",
					"type": "uint256"
				},
				{
					"indexed": false,
					"internalType": "address",
					"name": "disputer",
					"type": "address"
				},
				{
					"indexed": false,
					"internalType": "string",
					"name": "reason",
					"type": "string"
				}
			],
			"name": "MarketDisputed",
			"type": "event"
		},
		{
			"anonymous": false,
			"inputs": [
				{
					"indexed": true,
					"internalType": "uint256",
					"name": "marketId",
					"type": "uint256"
				}
			],
			"name": "MarketPaused",
			"type": "event"
		},
		{
			"anonymous": false,
			"inputs": [
				{
					"indexed": true,
					"internalType": "uint256",
					"name": "marketId",
					"type": "uint256"
				},
				{
					"indexed": false,
					"internalType": "uint256",
					"name": "winningOptionId",
					"type": "uint256"
				},
				{
					"indexed": false,
					"internalType": "address",
					"name": "resolver",
					"type": "address"
				}
			],
			"name": "MarketResolved",
			"type": "event"
		},
		{
			"anonymous": false,
			"inputs": [
				{
					"indexed": true,
					"internalType": "uint256",
					"name": "marketId",
					"type": "uint256"
				},
				{
					"indexed": true,
					"internalType": "address",
					"name": "sponsor",
					"type": "address"
				},
				{
					"indexed": false,
					"internalType": "uint256",
					"name": "prizeAmount",
					"type": "uint256"
				},
				{
					"indexed": false,
					"internalType": "string",
					"name": "message",
					"type": "string"
				}
			],
			"name": "MarketSponsored",
			"type": "event"
		},
		{
			"anonymous": false,
			"inputs": [
				{
					"indexed": true,
					"internalType": "uint256",
					"name": "marketId",
					"type": "uint256"
				},
				{
					"indexed": false,
					"internalType": "address",
					"name": "validator",
					"type": "address"
				}
			],
			"name": "MarketValidated",
			"type": "event"
		},
		{
			"anonymous": false,
			"inputs": [
				{
					"indexed": true,
					"internalType": "address",
					"name": "previousOwner",
					"type": "address"
				},
				{
					"indexed": true,
					"internalType": "address",
					"name": "newOwner",
					"type": "address"
				}
			],
			"name": "OwnershipTransferred",
			"type": "event"
		},
		{
			"anonymous": false,
			"inputs": [
				{
					"indexed": false,
					"internalType": "address",
					"name": "account",
					"type": "address"
				}
			],
			"name": "Paused",
			"type": "event"
		},
		{
			"anonymous": false,
			"inputs": [
				{
					"indexed": true,
					"internalType": "bytes32",
					"name": "role",
					"type": "bytes32"
				},
				{
					"indexed": true,
					"internalType": "bytes32",
					"name": "previousAdminRole",
					"type": "bytes32"
				},
				{
					"indexed": true,
					"internalType": "bytes32",
					"name": "newAdminRole",
					"type": "bytes32"
				}
			],
			"name": "RoleAdminChanged",
			"type": "event"
		},
		{
			"anonymous": false,
			"inputs": [
				{
					"indexed": true,
					"internalType": "bytes32",
					"name": "role",
					"type": "bytes32"
				},
				{
					"indexed": true,
					"internalType": "address",
					"name": "account",
					"type": "address"
				},
				{
					"indexed": true,
					"internalType": "address",
					"name": "sender",
					"type": "address"
				}
			],
			"name": "RoleGranted",
			"type": "event"
		},
		{
			"anonymous": false,
			"inputs": [
				{
					"indexed": true,
					"internalType": "bytes32",
					"name": "role",
					"type": "bytes32"
				},
				{
					"indexed": true,
					"internalType": "address",
					"name": "account",
					"type": "address"
				},
				{
					"indexed": true,
					"internalType": "address",
					"name": "sender",
					"type": "address"
				}
			],
			"name": "RoleRevoked",
			"type": "event"
		},
		{
			"anonymous": false,
			"inputs": [
				{
					"indexed": true,
					"internalType": "uint256",
					"name": "marketId",
					"type": "uint256"
				},
				{
					"indexed": true,
					"internalType": "uint256",
					"name": "optionId",
					"type": "uint256"
				},
				{
					"indexed": true,
					"internalType": "address",
					"name": "seller",
					"type": "address"
				},
				{
					"indexed": false,
					"internalType": "uint256",
					"name": "quantity",
					"type": "uint256"
				},
				{
					"indexed": false,
					"internalType": "uint256",
					"name": "price",
					"type": "uint256"
				}
			],
			"name": "SharesSold",
			"type": "event"
		},
		{
			"anonymous": false,
			"inputs": [
				{
					"indexed": true,
					"internalType": "uint256",
					"name": "marketId",
					"type": "uint256"
				},
				{
					"indexed": true,
					"internalType": "uint256",
					"name": "optionId",
					"type": "uint256"
				},
				{
					"indexed": true,
					"internalType": "address",
					"name": "buyer",
					"type": "address"
				},
				{
					"indexed": false,
					"internalType": "address",
					"name": "seller",
					"type": "address"
				},
				{
					"indexed": false,
					"internalType": "uint256",
					"name": "price",
					"type": "uint256"
				},
				{
					"indexed": false,
					"internalType": "uint256",
					"name": "quantity",
					"type": "uint256"
				},
				{
					"indexed": false,
					"internalType": "uint256",
					"name": "tradeId",
					"type": "uint256"
				}
			],
			"name": "TradeExecuted",
			"type": "event"
		},
		{
			"anonymous": false,
			"inputs": [
				{
					"indexed": false,
					"internalType": "address",
					"name": "account",
					"type": "address"
				}
			],
			"name": "Unpaused",
			"type": "event"
		},
		{
			"inputs": [],
			"name": "AMM_FEE_RATE",
			"outputs": [
				{
					"internalType": "uint256",
					"name": "",
					"type": "uint256"
				}
			],
			"stateMutability": "view",
			"type": "function"
		},
		{
			"inputs": [],
			"name": "DEFAULT_ADMIN_ROLE",
			"outputs": [
				{
					"internalType": "bytes32",
					"name": "",
					"type": "bytes32"
				}
			],
			"stateMutability": "view",
			"type": "function"
		},
		{
			"inputs": [],
			"name": "MARKET_VALIDATOR_ROLE",
			"outputs": [
				{
					"internalType": "bytes32",
					"name": "",
					"type": "bytes32"
				}
			],
			"stateMutability": "view",
			"type": "function"
		},
		{
			"inputs": [],
			"name": "MAX_MARKET_DURATION",
			"outputs": [
				{
					"internalType": "uint256",
					"name": "",
					"type": "uint256"
				}
			],
			"stateMutability": "view",
			"type": "function"
		},
		{
			"inputs": [],
			"name": "MAX_OPTIONS",
			"outputs": [
				{
					"internalType": "uint256",
					"name": "",
					"type": "uint256"
				}
			],
			"stateMutability": "view",
			"type": "function"
		},
		{
			"inputs": [],
			"name": "MIN_MARKET_DURATION",
			"outputs": [
				{
					"internalType": "uint256",
					"name": "",
					"type": "uint256"
				}
			],
			"stateMutability": "view",
			"type": "function"
		},
		{
			"inputs": [],
			"name": "QUESTION_CREATOR_ROLE",
			"outputs": [
				{
					"internalType": "bytes32",
					"name": "",
					"type": "bytes32"
				}
			],
			"stateMutability": "view",
			"type": "function"
		},
		{
			"inputs": [],
			"name": "QUESTION_RESOLVE_ROLE",
			"outputs": [
				{
					"internalType": "bytes32",
					"name": "",
					"type": "bytes32"
				}
			],
			"stateMutability": "view",
			"type": "function"
		},
		{
			"inputs": [
				{
					"internalType": "uint256",
					"name": "_marketId",
					"type": "uint256"
				},
				{
					"internalType": "uint256",
					"name": "_amount",
					"type": "uint256"
				}
			],
			"name": "addAMMLiquidity",
			"outputs": [],
			"stateMutability": "nonpayable",
			"type": "function"
		},
		{
			"inputs": [
				{
					"internalType": "uint256",
					"name": "",
					"type": "uint256"
				}
			],
			"name": "allParticipants",
			"outputs": [
				{
					"internalType": "address",
					"name": "",
					"type": "address"
				}
			],
			"stateMutability": "view",
			"type": "function"
		},
		{
			"inputs": [
				{
					"internalType": "uint256",
					"name": "_marketId",
					"type": "uint256"
				},
				{
					"internalType": "uint256",
					"name": "_optionIdIn",
					"type": "uint256"
				},
				{
					"internalType": "uint256",
					"name": "_optionIdOut",
					"type": "uint256"
				},
				{
					"internalType": "uint256",
					"name": "_amountIn",
					"type": "uint256"
				},
				{
					"internalType": "uint256",
					"name": "_minAmountOut",
					"type": "uint256"
				}
			],
			"name": "ammSwap",
			"outputs": [
				{
					"internalType": "uint256",
					"name": "amountOut",
					"type": "uint256"
				}
			],
			"stateMutability": "nonpayable",
			"type": "function"
		},
		{
			"inputs": [],
			"name": "bettingToken",
			"outputs": [
				{
					"internalType": "contract IERC20",
					"name": "",
					"type": "address"
				}
			],
			"stateMutability": "view",
			"type": "function"
		},
		{
			"inputs": [
				{
					"internalType": "uint256",
					"name": "_marketId",
					"type": "uint256"
				},
				{
					"internalType": "uint256",
					"name": "_optionId",
					"type": "uint256"
				},
				{
					"internalType": "uint256",
					"name": "_quantity",
					"type": "uint256"
				},
				{
					"internalType": "uint256",
					"name": "_maxPricePerShare",
					"type": "uint256"
				}
			],
			"name": "buyShares",
			"outputs": [],
			"stateMutability": "nonpayable",
			"type": "function"
		},
		{
			"inputs": [
				{
					"internalType": "uint256",
					"name": "_marketId",
					"type": "uint256"
				},
				{
					"internalType": "uint256",
					"name": "_optionId",
					"type": "uint256"
				}
			],
			"name": "calculateCurrentPrice",
			"outputs": [
				{
					"internalType": "uint256",
					"name": "",
					"type": "uint256"
				}
			],
			"stateMutability": "view",
			"type": "function"
		},
		{
			"inputs": [
				{
					"internalType": "uint256",
					"name": "_marketId",
					"type": "uint256"
				},
				{
					"internalType": "uint256",
					"name": "_optionId",
					"type": "uint256"
				},
				{
					"internalType": "uint256",
					"name": "_quantity",
					"type": "uint256"
				}
			],
			"name": "calculateSellPrice",
			"outputs": [
				{
					"internalType": "uint256",
					"name": "",
					"type": "uint256"
				}
			],
			"stateMutability": "view",
			"type": "function"
		},
		{
			"inputs": [
				{
					"internalType": "enum PolicastMarketV2.MarketCategory",
					"name": "",
					"type": "uint8"
				},
				{
					"internalType": "uint256",
					"name": "",
					"type": "uint256"
				}
			],
			"name": "categoryMarkets",
			"outputs": [
				{
					"internalType": "uint256",
					"name": "",
					"type": "uint256"
				}
			],
			"stateMutability": "view",
			"type": "function"
		},
		{
			"inputs": [
				{
					"internalType": "uint256",
					"name": "_marketId",
					"type": "uint256"
				},
				{
					"internalType": "uint256",
					"name": "_optionId",
					"type": "uint256"
				}
			],
			"name": "claimFreeShares",
			"outputs": [],
			"stateMutability": "nonpayable",
			"type": "function"
		},
		{
			"inputs": [
				{
					"internalType": "uint256",
					"name": "_marketId",
					"type": "uint256"
				}
			],
			"name": "claimWinnings",
			"outputs": [],
			"stateMutability": "nonpayable",
			"type": "function"
		},
		{
			"inputs": [
				{
					"internalType": "string",
					"name": "_question",
					"type": "string"
				},
				{
					"internalType": "string",
					"name": "_description",
					"type": "string"
				},
				{
					"internalType": "string[]",
					"name": "_optionNames",
					"type": "string[]"
				},
				{
					"internalType": "string[]",
					"name": "_optionDescriptions",
					"type": "string[]"
				},
				{
					"internalType": "uint256",
					"name": "_duration",
					"type": "uint256"
				},
				{
					"internalType": "enum PolicastMarketV2.MarketCategory",
					"name": "_category",
					"type": "uint8"
				},
				{
					"internalType": "uint256",
					"name": "_maxFreeParticipants",
					"type": "uint256"
				},
				{
					"internalType": "uint256",
					"name": "_freeSharesPerUser",
					"type": "uint256"
				},
				{
					"internalType": "uint256",
					"name": "_initialLiquidity",
					"type": "uint256"
				}
			],
			"name": "createFreeMarket",
			"outputs": [
				{
					"internalType": "uint256",
					"name": "",
					"type": "uint256"
				}
			],
			"stateMutability": "nonpayable",
			"type": "function"
		},
		{
			"inputs": [
				{
					"internalType": "string",
					"name": "_question",
					"type": "string"
				},
				{
					"internalType": "string",
					"name": "_description",
					"type": "string"
				},
				{
					"internalType": "string[]",
					"name": "_optionNames",
					"type": "string[]"
				},
				{
					"internalType": "string[]",
					"name": "_optionDescriptions",
					"type": "string[]"
				},
				{
					"internalType": "uint256",
					"name": "_duration",
					"type": "uint256"
				},
				{
					"internalType": "enum PolicastMarketV2.MarketCategory",
					"name": "_category",
					"type": "uint8"
				},
				{
					"internalType": "enum PolicastMarketV2.MarketType",
					"name": "_marketType",
					"type": "uint8"
				},
				{
					"internalType": "uint256",
					"name": "_initialLiquidity",
					"type": "uint256"
				}
			],
			"name": "createMarket",
			"outputs": [
				{
					"internalType": "uint256",
					"name": "",
					"type": "uint256"
				}
			],
			"stateMutability": "nonpayable",
			"type": "function"
		},
		{
			"inputs": [
				{
					"internalType": "string",
					"name": "_question",
					"type": "string"
				},
				{
					"internalType": "string",
					"name": "_description",
					"type": "string"
				},
				{
					"internalType": "string[]",
					"name": "_optionNames",
					"type": "string[]"
				},
				{
					"internalType": "string[]",
					"name": "_optionDescriptions",
					"type": "string[]"
				},
				{
					"internalType": "uint256",
					"name": "_duration",
					"type": "uint256"
				},
				{
					"internalType": "enum PolicastMarketV2.MarketCategory",
					"name": "_category",
					"type": "uint8"
				},
				{
					"internalType": "enum PolicastMarketV2.MarketType",
					"name": "_marketType",
					"type": "uint8"
				}
			],
			"name": "createMarketWithDefaultLiquidity",
			"outputs": [
				{
					"internalType": "uint256",
					"name": "",
					"type": "uint256"
				}
			],
			"stateMutability": "nonpayable",
			"type": "function"
		},
		{
			"inputs": [
				{
					"internalType": "string",
					"name": "_question",
					"type": "string"
				},
				{
					"internalType": "string",
					"name": "_description",
					"type": "string"
				},
				{
					"internalType": "string[]",
					"name": "_optionNames",
					"type": "string[]"
				},
				{
					"internalType": "string[]",
					"name": "_optionDescriptions",
					"type": "string[]"
				},
				{
					"internalType": "uint256",
					"name": "_duration",
					"type": "uint256"
				},
				{
					"internalType": "enum PolicastMarketV2.MarketCategory",
					"name": "_category",
					"type": "uint8"
				},
				{
					"internalType": "uint256",
					"name": "_minimumParticipants",
					"type": "uint256"
				},
				{
					"internalType": "string",
					"name": "_sponsorMessage",
					"type": "string"
				},
				{
					"internalType": "uint256",
					"name": "_initialLiquidity",
					"type": "uint256"
				}
			],
			"name": "createSponsoredMarket",
			"outputs": [
				{
					"internalType": "uint256",
					"name": "",
					"type": "uint256"
				}
			],
			"stateMutability": "payable",
			"type": "function"
		},
		{
			"inputs": [
				{
					"internalType": "uint256",
					"name": "_marketId",
					"type": "uint256"
				},
				{
					"internalType": "string",
					"name": "_reason",
					"type": "string"
				}
			],
			"name": "disputeMarket",
			"outputs": [],
			"stateMutability": "nonpayable",
			"type": "function"
		},
		{
			"inputs": [],
			"name": "freeMarketAllowance",
			"outputs": [
				{
					"internalType": "uint256",
					"name": "",
					"type": "uint256"
				}
			],
			"stateMutability": "view",
			"type": "function"
		},
		{
			"inputs": [],
			"name": "getBettingToken",
			"outputs": [
				{
					"internalType": "address",
					"name": "",
					"type": "address"
				}
			],
			"stateMutability": "view",
			"type": "function"
		},
		{
			"inputs": [],
			"name": "getMarketCount",
			"outputs": [
				{
					"internalType": "uint256",
					"name": "",
					"type": "uint256"
				}
			],
			"stateMutability": "view",
			"type": "function"
		},
		{
			"inputs": [
				{
					"internalType": "uint256",
					"name": "_marketId",
					"type": "uint256"
				}
			],
			"name": "getMarketInfo",
			"outputs": [
				{
					"internalType": "string",
					"name": "question",
					"type": "string"
				},
				{
					"internalType": "string",
					"name": "description",
					"type": "string"
				},
				{
					"internalType": "uint256",
					"name": "endTime",
					"type": "uint256"
				},
				{
					"internalType": "enum PolicastMarketV2.MarketCategory",
					"name": "category",
					"type": "uint8"
				},
				{
					"internalType": "uint256",
					"name": "optionCount",
					"type": "uint256"
				},
				{
					"internalType": "bool",
					"name": "resolved",
					"type": "bool"
				},
				{
					"internalType": "bool",
					"name": "disputed",
					"type": "bool"
				},
				{
					"internalType": "uint256",
					"name": "winningOptionId",
					"type": "uint256"
				},
				{
					"internalType": "address",
					"name": "creator",
					"type": "address"
				}
			],
			"stateMutability": "view",
			"type": "function"
		},
		{
			"inputs": [
				{
					"internalType": "uint256",
					"name": "_marketId",
					"type": "uint256"
				}
			],
			"name": "getMarketOdds",
			"outputs": [
				{
					"internalType": "uint256[]",
					"name": "",
					"type": "uint256[]"
				}
			],
			"stateMutability": "view",
			"type": "function"
		},
		{
			"inputs": [
				{
					"internalType": "uint256",
					"name": "_marketId",
					"type": "uint256"
				},
				{
					"internalType": "uint256",
					"name": "_optionId",
					"type": "uint256"
				}
			],
			"name": "getMarketOption",
			"outputs": [
				{
					"internalType": "string",
					"name": "name",
					"type": "string"
				},
				{
					"internalType": "string",
					"name": "description",
					"type": "string"
				},
				{
					"internalType": "uint256",
					"name": "totalShares",
					"type": "uint256"
				},
				{
					"internalType": "uint256",
					"name": "totalVolume",
					"type": "uint256"
				},
				{
					"internalType": "uint256",
					"name": "currentPrice",
					"type": "uint256"
				},
				{
					"internalType": "bool",
					"name": "isActive",
					"type": "bool"
				}
			],
			"stateMutability": "view",
			"type": "function"
		},
		{
			"inputs": [
				{
					"internalType": "enum PolicastMarketV2.MarketCategory",
					"name": "_category",
					"type": "uint8"
				},
				{
					"internalType": "uint256",
					"name": "_limit",
					"type": "uint256"
				}
			],
			"name": "getMarketsByCategory",
			"outputs": [
				{
					"internalType": "uint256[]",
					"name": "",
					"type": "uint256[]"
				}
			],
			"stateMutability": "view",
			"type": "function"
		},
		{
			"inputs": [
				{
					"internalType": "uint256",
					"name": "_marketId",
					"type": "uint256"
				},
				{
					"internalType": "uint256",
					"name": "_optionId",
					"type": "uint256"
				},
				{
					"internalType": "uint256",
					"name": "_limit",
					"type": "uint256"
				}
			],
			"name": "getPriceHistory",
			"outputs": [
				{
					"components": [
						{
							"internalType": "uint256",
							"name": "price",
							"type": "uint256"
						},
						{
							"internalType": "uint256",
							"name": "timestamp",
							"type": "uint256"
						},
						{
							"internalType": "uint256",
							"name": "volume",
							"type": "uint256"
						}
					],
					"internalType": "struct PolicastMarketV2.PricePoint[]",
					"name": "",
					"type": "tuple[]"
				}
			],
			"stateMutability": "view",
			"type": "function"
		},
		{
			"inputs": [
				{
					"internalType": "bytes32",
					"name": "role",
					"type": "bytes32"
				}
			],
			"name": "getRoleAdmin",
			"outputs": [
				{
					"internalType": "bytes32",
					"name": "",
					"type": "bytes32"
				}
			],
			"stateMutability": "view",
			"type": "function"
		},
		{
			"inputs": [
				{
					"internalType": "address",
					"name": "_user",
					"type": "address"
				}
			],
			"name": "getUserPortfolio",
			"outputs": [
				{
					"components": [
						{
							"internalType": "uint256",
							"name": "totalInvested",
							"type": "uint256"
						},
						{
							"internalType": "uint256",
							"name": "totalWinnings",
							"type": "uint256"
						},
						{
							"internalType": "int256",
							"name": "unrealizedPnL",
							"type": "int256"
						},
						{
							"internalType": "int256",
							"name": "realizedPnL",
							"type": "int256"
						},
						{
							"internalType": "uint256",
							"name": "tradeCount",
							"type": "uint256"
						}
					],
					"internalType": "struct PolicastMarketV2.UserPortfolio",
					"name": "",
					"type": "tuple"
				}
			],
			"stateMutability": "view",
			"type": "function"
		},
		{
			"inputs": [
				{
					"internalType": "uint256",
					"name": "_marketId",
					"type": "uint256"
				},
				{
					"internalType": "address",
					"name": "_user",
					"type": "address"
				}
			],
			"name": "getUserShares",
			"outputs": [
				{
					"internalType": "uint256[]",
					"name": "",
					"type": "uint256[]"
				}
			],
			"stateMutability": "view",
			"type": "function"
		},
		{
			"inputs": [
				{
					"internalType": "address",
					"name": "_account",
					"type": "address"
				}
			],
			"name": "grantMarketValidatorRole",
			"outputs": [],
			"stateMutability": "nonpayable",
			"type": "function"
		},
		{
			"inputs": [
				{
					"internalType": "address",
					"name": "_account",
					"type": "address"
				}
			],
			"name": "grantQuestionCreatorRole",
			"outputs": [],
			"stateMutability": "nonpayable",
			"type": "function"
		},
		{
			"inputs": [
				{
					"internalType": "address",
					"name": "_account",
					"type": "address"
				}
			],
			"name": "grantQuestionResolveRole",
			"outputs": [],
			"stateMutability": "nonpayable",
			"type": "function"
		},
		{
			"inputs": [
				{
					"internalType": "bytes32",
					"name": "role",
					"type": "bytes32"
				},
				{
					"internalType": "address",
					"name": "account",
					"type": "address"
				}
			],
			"name": "grantRole",
			"outputs": [],
			"stateMutability": "nonpayable",
			"type": "function"
		},
		{
			"inputs": [
				{
					"internalType": "bytes32",
					"name": "role",
					"type": "bytes32"
				},
				{
					"internalType": "address",
					"name": "account",
					"type": "address"
				}
			],
			"name": "hasRole",
			"outputs": [
				{
					"internalType": "bool",
					"name": "",
					"type": "bool"
				}
			],
			"stateMutability": "view",
			"type": "function"
		},
		{
			"inputs": [],
			"name": "marketCount",
			"outputs": [
				{
					"internalType": "uint256",
					"name": "",
					"type": "uint256"
				}
			],
			"stateMutability": "view",
			"type": "function"
		},
		{
			"inputs": [
				{
					"internalType": "uint256",
					"name": "",
					"type": "uint256"
				},
				{
					"internalType": "uint256",
					"name": "",
					"type": "uint256"
				}
			],
			"name": "marketTrades",
			"outputs": [
				{
					"internalType": "uint256",
					"name": "marketId",
					"type": "uint256"
				},
				{
					"internalType": "uint256",
					"name": "optionId",
					"type": "uint256"
				},
				{
					"internalType": "address",
					"name": "buyer",
					"type": "address"
				},
				{
					"internalType": "address",
					"name": "seller",
					"type": "address"
				},
				{
					"internalType": "uint256",
					"name": "price",
					"type": "uint256"
				},
				{
					"internalType": "uint256",
					"name": "quantity",
					"type": "uint256"
				},
				{
					"internalType": "uint256",
					"name": "timestamp",
					"type": "uint256"
				}
			],
			"stateMutability": "view",
			"type": "function"
		},
		{
			"inputs": [
				{
					"internalType": "enum PolicastMarketV2.MarketType",
					"name": "",
					"type": "uint8"
				},
				{
					"internalType": "uint256",
					"name": "",
					"type": "uint256"
				}
			],
			"name": "marketsByType",
			"outputs": [
				{
					"internalType": "uint256",
					"name": "",
					"type": "uint256"
				}
			],
			"stateMutability": "view",
			"type": "function"
		},
		{
			"inputs": [],
			"name": "owner",
			"outputs": [
				{
					"internalType": "address",
					"name": "",
					"type": "address"
				}
			],
			"stateMutability": "view",
			"type": "function"
		},
		{
			"inputs": [],
			"name": "pause",
			"outputs": [],
			"stateMutability": "nonpayable",
			"type": "function"
		},
		{
			"inputs": [
				{
					"internalType": "uint256",
					"name": "_marketId",
					"type": "uint256"
				}
			],
			"name": "pauseMarket",
			"outputs": [],
			"stateMutability": "nonpayable",
			"type": "function"
		},
		{
			"inputs": [],
			"name": "paused",
			"outputs": [
				{
					"internalType": "bool",
					"name": "",
					"type": "bool"
				}
			],
			"stateMutability": "view",
			"type": "function"
		},
		{
			"inputs": [],
			"name": "platformFeeRate",
			"outputs": [
				{
					"internalType": "uint256",
					"name": "",
					"type": "uint256"
				}
			],
			"stateMutability": "view",
			"type": "function"
		},
		{
			"inputs": [],
			"name": "previousBettingToken",
			"outputs": [
				{
					"internalType": "address",
					"name": "",
					"type": "address"
				}
			],
			"stateMutability": "view",
			"type": "function"
		},
		{
			"inputs": [
				{
					"internalType": "uint256",
					"name": "",
					"type": "uint256"
				},
				{
					"internalType": "uint256",
					"name": "",
					"type": "uint256"
				},
				{
					"internalType": "uint256",
					"name": "",
					"type": "uint256"
				}
			],
			"name": "priceHistory",
			"outputs": [
				{
					"internalType": "uint256",
					"name": "price",
					"type": "uint256"
				},
				{
					"internalType": "uint256",
					"name": "timestamp",
					"type": "uint256"
				},
				{
					"internalType": "uint256",
					"name": "volume",
					"type": "uint256"
				}
			],
			"stateMutability": "view",
			"type": "function"
		},
		{
			"inputs": [],
			"name": "renounceOwnership",
			"outputs": [],
			"stateMutability": "nonpayable",
			"type": "function"
		},
		{
			"inputs": [
				{
					"internalType": "bytes32",
					"name": "role",
					"type": "bytes32"
				},
				{
					"internalType": "address",
					"name": "callerConfirmation",
					"type": "address"
				}
			],
			"name": "renounceRole",
			"outputs": [],
			"stateMutability": "nonpayable",
			"type": "function"
		},
		{
			"inputs": [
				{
					"internalType": "uint256",
					"name": "_marketId",
					"type": "uint256"
				},
				{
					"internalType": "uint256",
					"name": "_winningOptionId",
					"type": "uint256"
				}
			],
			"name": "resolveMarket",
			"outputs": [],
			"stateMutability": "nonpayable",
			"type": "function"
		},
		{
			"inputs": [
				{
					"internalType": "bytes32",
					"name": "role",
					"type": "bytes32"
				},
				{
					"internalType": "address",
					"name": "account",
					"type": "address"
				}
			],
			"name": "revokeRole",
			"outputs": [],
			"stateMutability": "nonpayable",
			"type": "function"
		},
		{
			"inputs": [
				{
					"internalType": "uint256",
					"name": "_marketId",
					"type": "uint256"
				},
				{
					"internalType": "uint256",
					"name": "_optionId",
					"type": "uint256"
				},
				{
					"internalType": "uint256",
					"name": "_quantity",
					"type": "uint256"
				},
				{
					"internalType": "uint256",
					"name": "_minPricePerShare",
					"type": "uint256"
				}
			],
			"name": "sellShares",
			"outputs": [],
			"stateMutability": "nonpayable",
			"type": "function"
		},
		{
			"inputs": [
				{
					"internalType": "uint256",
					"name": "_allowance",
					"type": "uint256"
				}
			],
			"name": "setFreeMarketAllowance",
			"outputs": [],
			"stateMutability": "nonpayable",
			"type": "function"
		},
		{
			"inputs": [
				{
					"internalType": "uint256",
					"name": "_feeRate",
					"type": "uint256"
				}
			],
			"name": "setPlatformFeeRate",
			"outputs": [],
			"stateMutability": "nonpayable",
			"type": "function"
		},
		{
			"inputs": [
				{
					"internalType": "bytes4",
					"name": "interfaceId",
					"type": "bytes4"
				}
			],
			"name": "supportsInterface",
			"outputs": [
				{
					"internalType": "bool",
					"name": "",
					"type": "bool"
				}
			],
			"stateMutability": "view",
			"type": "function"
		},
		{
			"inputs": [],
			"name": "tokenUpdatedAt",
			"outputs": [
				{
					"internalType": "uint256",
					"name": "",
					"type": "uint256"
				}
			],
			"stateMutability": "view",
			"type": "function"
		},
		{
			"inputs": [
				{
					"internalType": "address",
					"name": "",
					"type": "address"
				}
			],
			"name": "totalWinnings",
			"outputs": [
				{
					"internalType": "uint256",
					"name": "",
					"type": "uint256"
				}
			],
			"stateMutability": "view",
			"type": "function"
		},
		{
			"inputs": [],
			"name": "tradeCount",
			"outputs": [
				{
					"internalType": "uint256",
					"name": "",
					"type": "uint256"
				}
			],
			"stateMutability": "view",
			"type": "function"
		},
		{
			"inputs": [
				{
					"internalType": "address",
					"name": "newOwner",
					"type": "address"
				}
			],
			"name": "transferOwnership",
			"outputs": [],
			"stateMutability": "nonpayable",
			"type": "function"
		},
		{
			"inputs": [],
			"name": "unpause",
			"outputs": [],
			"stateMutability": "nonpayable",
			"type": "function"
		},
		{
			"inputs": [
				{
					"internalType": "address",
					"name": "_newToken",
					"type": "address"
				}
			],
			"name": "updateBettingToken",
			"outputs": [],
			"stateMutability": "nonpayable",
			"type": "function"
		},
		{
			"inputs": [
				{
					"internalType": "address",
					"name": "_newToken",
					"type": "address"
				}
			],
			"name": "updateBettingTokenAddress",
			"outputs": [],
			"stateMutability": "nonpayable",
			"type": "function"
		},
		{
			"inputs": [
				{
					"internalType": "address",
					"name": "",
					"type": "address"
				}
			],
			"name": "userFreeSharesUsed",
			"outputs": [
				{
					"internalType": "uint256",
					"name": "",
					"type": "uint256"
				}
			],
			"stateMutability": "view",
			"type": "function"
		},
		{
			"inputs": [
				{
					"internalType": "address",
					"name": "",
					"type": "address"
				}
			],
			"name": "userPortfolios",
			"outputs": [
				{
					"internalType": "uint256",
					"name": "totalInvested",
					"type": "uint256"
				},
				{
					"internalType": "uint256",
					"name": "totalWinnings",
					"type": "uint256"
				},
				{
					"internalType": "int256",
					"name": "unrealizedPnL",
					"type": "int256"
				},
				{
					"internalType": "int256",
					"name": "realizedPnL",
					"type": "int256"
				},
				{
					"internalType": "uint256",
					"name": "tradeCount",
					"type": "uint256"
				}
			],
			"stateMutability": "view",
			"type": "function"
		},
		{
			"inputs": [
				{
					"internalType": "address",
					"name": "",
					"type": "address"
				},
				{
					"internalType": "uint256",
					"name": "",
					"type": "uint256"
				}
			],
			"name": "userTradeHistory",
			"outputs": [
				{
					"internalType": "uint256",
					"name": "marketId",
					"type": "uint256"
				},
				{
					"internalType": "uint256",
					"name": "optionId",
					"type": "uint256"
				},
				{
					"internalType": "address",
					"name": "buyer",
					"type": "address"
				},
				{
					"internalType": "address",
					"name": "seller",
					"type": "address"
				},
				{
					"internalType": "uint256",
					"name": "price",
					"type": "uint256"
				},
				{
					"internalType": "uint256",
					"name": "quantity",
					"type": "uint256"
				},
				{
					"internalType": "uint256",
					"name": "timestamp",
					"type": "uint256"
				}
			],
			"stateMutability": "view",
			"type": "function"
		},
		{
			"inputs": [
				{
					"internalType": "uint256",
					"name": "_marketId",
					"type": "uint256"
				}
			],
			"name": "validateMarket",
			"outputs": [],
			"stateMutability": "nonpayable",
			"type": "function"
		}
	]
}