{
	"data": {
		"bytecode": {
			"linkReferences": {},
			"object": "6080346100f357601f613fe738819003918201601f19168301916001600160401b038311848410176100f7578084926020946040528339810103126100f357516001600160a01b03811681036100f35733156100e0575f8054336001600160a01b0319821681178355916001600160a01b03909116907f8be0079c531659141344cd1fd0a4f28419497f9722a3daafe3b4186f6b6457e09080a36001805560c860075560038054610100600160a81b03191660089290921b610100600160a81b03169190911790556100d03361010b565b50604051613e3290816101958239f35b631e4fbdf760e01b5f525f60045260245ffd5b5f80fd5b634e487b7160e01b5f52604160045260245ffd5b6001600160a01b0381165f9081525f80516020613fc7833981519152602052604090205460ff1661018f576001600160a01b03165f8181525f80516020613fc783398151915260205260408120805460ff191660011790553391907f2f8788117e7eff1d82e926ec794901d17c78024a50270940304540a733656f0d8180a4600190565b505f9056fe6080806040526004361015610012575f80fd5b5f3560e01c90816301ffc9a7146131715750806305e33dd01461312f57806308693f3c146130ea5780630da183d6146130cf5780631cb1de2f146130565780631edb27e914612fbc578063204f61251461267e578063222fa267146125da5780632453ffa8146125bd578063248a9ca314612592578063257ff7b61461256357806329cf655b146122c35780632f2ff15d1461252557806332617b70146124eb57806335037e0b1461246f57806336568abe1461242b5780633ec79193146123555780633f4ba83a146122ef57806343425e88146122c35780634a2021ef146120f457806358057fe514611f5c5780635a2db6fb14611a8f5780635c975abb14611a6d57806360557333146118b6578063677bd9ff146115ea5780636db3b4dc1461156e578063715018a61461151757806373af16fc146112d2578063755f06291461129857806377b4a3e71461125e5780637c946454146110f65780637e50898e146110d8578063835dc40b146110445780638456cb5914610feb578063856652e914610fa25780638b8840e014610f6a5780638da5cb5b14610f4357806391d1485414610efa578063927fef2e14610e9757806392f012b214610e7b578063a217fddf14610e61578063a75dd11514610e07578063a85c38ef14610d4b578063a8cc7f1914610d16578063ab44e63514610bc6578063abdce1a414610b4a578063b1283e7714610a35578063b1ab13ff146109fa578063b61920c114610996578063bd55022a14610979578063c2454af7146108e1578063d547741f1461089c578063ec9790821461028f578063ed88123014610352578063eeca08f014610335578063f2fde38b146102b05763fd69f3c21461028f575f80fd5b346102ac575f3660031901126102ac576020600454604051908152f35b5f80fd5b346102ac5760203660031901126102ac576102c9613205565b6102d1613cb6565b6001600160a01b03168015610322575f80546001600160a01b03198116831782556001600160a01b0316907f8be0079c531659141344cd1fd0a4f28419497f9722a3daafe3b4186f6b6457e09080a3005b631e4fbdf760e01b5f525f60045260245ffd5b346102ac575f3660031901126102ac576020600754604051908152f35b346102ac5761036036613479565b610368613d60565b6103706139b8565b61037d60045485106136c5565b835f526008602052610397600260405f2001544210613716565b835f5260086020526103b360ff600560405f2001541615613755565b835f5260086020526103cd600960405f20015484106137a1565b835f526008602052600a60405f2001835f526020526103f560ff600560405f200154166137de565b61040082151561381e565b835f52600860205260ff600560405f20015460101c1615610860575f848152600860209081526040808320868452600a8101909252909120600481015490949192919091821161082a57670de0b6b3a764000061045d858461386a565b049361271061046e6007548761386a565b049361047a8587613649565b905f602060018060a01b0360035460081c166064604051809481936323b872dd60e01b83523360048401523060248401528860448401525af1801561081f576104ca915f916107f0575b50613948565b600b81019060018060a01b0333165f528160205260405f20855f5260205260405f205415806107e0575b61073a575b600f9160018060a01b0333165f5260205260405f20855f5260205260405f20610523858254613649565b905560028901610534858254613649565b905560038901610545898254613649565b905560068101610556898254613649565b905560078101610567898254613649565b905501610575868254613649565b9055335f52600a60205261058e60405f20918254613649565b9055335f52600a602052600460405f20016105a9815461363b565b9055865f526008602052600a60405f2001825f5260205260405f206002810154670de0b6b3a7640000830296838804670de0b6b3a76400001484151715610726576103e88201809211610726577faf7c505ee772ec188af7067e1f73db08ab028e3d564273442b907742b9c41fa09861063661066e94600461062e819660209d613656565b910154613649565b9283910155895f52600d885260405f20855f52885260405f20906040519261065d84613306565b835242898401526040830152613674565b6106cd60405161067d81613321565b88815283878201523360408201525f60608201528460808201528260a08201524260c08201525f60e0820152335f52600b87526106bd8160405f2061387d565b885f52600c875260405f2061387d565b600654906106da8261363b565b600655604051935f85528685015260408401526060830152857f976184626638b6c7e51a4ab66b297beb1714b545ce4e867a70d622566573098c60803394a4604051908152a260018055005b634e487b7160e01b5f52601160045260245ffd5b600d81018054600160401b8110156107cc5761075b916001820181556131f0565b81549060031b9033821b9160018060a01b03901b1916179055335f52600a60205260405f20546104f95760125491600160401b8310156107cc576107a9836001600f950160125560126131f0565b81546001600160a01b0360039290921b91821b19163390911b17905591506104f9565b634e487b7160e01b5f52604160045260245ffd5b506107eb8a33613d80565b6104f4565b610812915060203d602011610818575b61080a818361333d565b810190613930565b8b6104c4565b503d610800565b6040513d5f823e3d90fd5b60405162461bcd60e51b815260206004820152600e60248201526d0a0e4d2c6ca40e8dede40d0d2ced60931b6044820152606490fd5b60405162461bcd60e51b815260206004820152601460248201527313585c9ad95d081b9bdd081d985b1a59185d195960621b6044820152606490fd5b346102ac5760403660031901126102ac576108df6004356108bb61321b565b906108da6108d5825f526002602052600160405f20015490565b6139d3565b613cdc565b005b346102ac576108f96108f236613503565b9190613522565b8054908183111561097257815b61090f83613986565b938082111561096a5761092191613709565b5f5b83811061093c576040518061093887826134b1565b0390f35b8061095261094c60019385613649565b856131f0565b90549060031b1c6109638288613660565b5201610923565b50505f610921565b8291610906565b346102ac575f3660031901126102ac576020600654604051908152f35b346102ac5760203660031901126102ac576001600160a01b036109b7613205565b165f52600a60205260a060405f20805490600181015490600281015460046003830154920154926040519485526020850152604084015260608301526080820152f35b346102ac576020610a2d610a0d366132ba565b905f526008602052600a60405f2001905f52602052600460405f20015490565b604051908152f35b346102ac5760203660031901126102ac576004355f52600860205260405f20610ac6610a6082613571565b91610a6d60018201613571565b9260028201549160ff600382015416600482015460058301546006840154600785015491600886015493610ae4600988015496610ad4600f600e8b01549a01549a6040519e8f9e8f926101e084526101e0840190613448565b916020818403910152613448565b9a60408d015260608c019061346c565b60808a015260ff818116151560a08b0152600882901c8116151560c08b0152601082901c16151560e08a015260181c6001600160a01b03166101008901526101208801526101408701526101608601526101808501526101a08401526101c08301520390f35b346102ac5760203660031901126102ac576108df610b66613205565b610b6e613cb6565b7fd486618b282cb35034d59c30c062b5b3822d6cdf87ec459191ce7f5b7b8a48735f5260026020527fd3dccf8d8289b9deee17e361620d7577de7b525dd57f668d5c1bb85ec53112b654610bc1906139d3565b613b84565b346102ac5760203660031901126102ac57600435610be760045482106136c5565b335f9081527fd3dccf8d8289b9deee17e361620d7577de7b525dd57f668d5c1bb85ec53112b5602052604090205460ff168015610d03575b15610ccd57805f52600860205260ff600560405f20015460101c16610c8857805f526008602052600560405f20016201000062ff0000198254161790557fcd5b0c95d548cdba5f9a45b4210642d0b866a0cc878e0a863855455908c6db656020604051338152a2005b60405162461bcd60e51b815260206004820152601860248201527f4d61726b657420616c72656164792076616c69646174656400000000000000006044820152606490fd5b60405162461bcd60e51b815260206004820152600e60248201526d139bdd08185d5d1a1bdc9a5e995960921b6044820152606490fd5b505f546001600160a01b03163314610c1f565b346102ac57610d276108f236613503565b80548210156102ac57602091610d3c916131f0565b90549060031b1c604051908152f35b346102ac5760203660031901126102ac576004355f52600960205261016060405f208054906001810154906002810154600382015460ff8160a01c1660ff8260a81c1660048501549160058601549360068701549560ff600860078a015499015416986040519a8b5260208b015260408a015260018060a01b03166060890152610dd48161324a565b6080880152610de28161324a565b60a087015260c086015260e08501526101008401526101208301521515610140820152f35b346102ac57610e1536613497565b915f52600d60205260405f20905f5260205260405f2080548210156102ac57606091610e40916134ea565b50805490600260018201549101549060405192835260208301526040820152f35b346102ac575f3660031901126102ac5760206040515f8152f35b346102ac575f3660031901126102ac576020604051610e108152f35b346102ac5760203660031901126102ac57600435610eb3613cb6565b6103e88111610ec157600755005b60405162461bcd60e51b815260206004820152601160248201527008ccaca40e4c2e8ca40e8dede40d0d2ced607b1b6044820152606490fd5b346102ac5760403660031901126102ac57610f1361321b565b6004355f52600260205260405f209060018060a01b03165f52602052602060ff60405f2054166040519015158152f35b346102ac575f3660031901126102ac575f546040516001600160a01b039091168152602090f35b346102ac5760203660031901126102ac576001600160a01b03610f8b613205565b165f526011602052602060405f2054604051908152f35b346102ac5760403660031901126102ac57610fbb613205565b6001600160a01b03165f908152600f60205260409020805460243591908210156102ac57602091610d3c916131f0565b346102ac575f3660031901126102ac57611003613cb6565b61100b6139b8565b600160ff1960035416176003557f62e78cea01bee320cd4e420270b5ea74000d11b0c9f74754ebdbfc544b05a2586020604051338152a1005b346102ac5760403660031901126102ac5760043561106061321b565b9061106e60045482106136c5565b5f52600860205260405f209060098201549061108982613986565b92600b01906001600160a01b03165f5b8381106110ae576040518061093887826134b1565b600190825f528360205260405f20815f5260205260405f20546110d18288613660565b5201611099565b346102ac575f3660031901126102ac5760206040516301e133808152f35b346102ac5761110436613497565b915f52600d60205260405f20905f5260205260405f208054908183115f1461125757815b611131836133b3565b9361113f604051958661333d565b838552601f1961114e856133b3565b015f5b81811061122e575050808211156112265761116b91613709565b5f5b8381106111d057846040518091602082016020835281518091526020604084019201905f5b8181106111a0575050500390f35b91935091602060606001926040875180518352848101518584015201516040820152019401910191849392611192565b806111e66111e060019385613649565b856134ea565b506002604051916111f683613306565b80548352848101546020840152015460408201526112148288613660565b5261121f8187613660565b500161116d565b50505f61116b565b60209060405161123d81613306565b5f81525f838201525f604082015282828a01015201611151565b8291611128565b346102ac575f3660031901126102ac5760206040517fef485be696bbc0c91ad541bbd553ffb5bd0e18dac30ba76e992dda23cb807a8a8152f35b346102ac575f3660031901126102ac5760206040517fdcee1d35c83a32b436264a5c9afd68685c124f3f9097e87804c55410e67fc59a8152f35b346102ac576112e0366132ba565b60125490818310156114d257816112f78285613649565b11156114c257505b6113098282613709565b91611313836133b3565b92611321604051948561333d565b808452611330601f19916133b3565b015f5b8181106114ab575050805b8281106113bb57836040518091602082016020835281518091526020604084019201905f5b818110611371575050500390f35b91935091602060a0600192608087518580851b0381511683528481015185840152604081015160408401526060810151606084015201516080820152019401910191849392611363565b6113c4816131c4565b60018060a01b0391549060031b1c1690815f52600a60205260405f2091604051906113ee826132d0565b83548252600184015491600460208201958487526002810154604084015260038101546060840152015494608082019580875215155f1461149c576064840293808504606414901517156107265760019561144e61149595845190613656565b915b51925190519260405194611463866132d0565b855260208501526040840152606083015260808201526114838584613709565b9061148e8289613660565b5286613660565b500161133e565b61149593506001955f91611450565b6020906114b6613611565b82828801015201611333565b6114cd915082613649565b6112ff565b60405162461bcd60e51b815260206004820152601960248201527f537461727420696e646578206f7574206f6620626f756e6473000000000000006044820152606490fd5b346102ac575f3660031901126102ac5761152f613cb6565b5f80546001600160a01b0319811682556001600160a01b03167f8be0079c531659141344cd1fd0a4f28419497f9722a3daafe3b4186f6b6457e08280a3005b346102ac5760203660031901126102ac576108df61158a613205565b611592613cb6565b7fef485be696bbc0c91ad541bbd553ffb5bd0e18dac30ba76e992dda23cb807a8a5f5260026020527f30d995518b427f5a5863ad73fe356ca50cf70941f42c516830919c845fa58070546115e5906139d3565b613acb565b346102ac5760203660031901126102ac57600435611606613d60565b61161360045482106136c5565b805f52600860205260405f2090600582015460ff811690816118a7575b501561186257600c82019160018060a01b0333165f528260205260ff60405f20541661182b57335f908152600b82016020908152604080832060048501548085529252909120549081156117f257826116f36116f892600a6116fe9601815f52806020526116cc6006600260405f200154950154835f5282602052670de0b6b3a76400006116c5600460405f2001548861386a565b0490613709565b915f52602052670de0b6b3a76400006116ec600460405f2001548761386a565b049461386a565b613656565b90613649565b9160018060a01b0333165f5260205260405f20600160ff19825416179055335f52600a602052600160405f2001611736838254613649565b9055335f52601160205260405f2061174f838254613649565b905560035460405163a9059cbb60e01b81523360048201526024810184905290602090829060081c6001600160a01b0316815f816044810103925af1801561081f576117a1915f916117d35750613948565b6040519182527f4ec90e965519d92681267467f775ada5bd214aa92c0dc93d90a5e880ce9ed02660203393a360018055005b6117ec915060203d6020116108185761080a818361333d565b846104c4565b60405162461bcd60e51b81526020600482015260116024820152704e6f2077696e6e696e672073686172657360781b6044820152606490fd5b60405162461bcd60e51b815260206004820152600f60248201526e105b1c9958591e4818db185a5b5959608a1b6044820152606490fd5b60405162461bcd60e51b815260206004820152601b60248201527f4d61726b6574206e6f7420726561647920666f7220636c61696d7300000000006044820152606490fd5b60ff915060081c161583611630565b346102ac576118c4366132ba565b6118d160045483106136c5565b5f546001600160a01b031633148015611a36575b156119e757815f52600860205260405f2090600282015442106119a257600582019081549161191760ff841615613755565b60098401548210156119645760016040938360047fc160a477581cb2155b1578581d805dcc0e6623403811fc2853465045bc0b049297015560ff19161790558151908152336020820152a2005b60405162461bcd60e51b815260206004820152601660248201527524b73b30b634b2103bb4b73734b7339037b83a34b7b760511b6044820152606490fd5b60405162461bcd60e51b815260206004820152601860248201527f4d61726b657420686173206e6f7420656e6465642079657400000000000000006044820152606490fd5b60405162461bcd60e51b815260206004820152602160248201527f4e6f7420617574686f72697a656420746f207265736f6c7665206d61726b65746044820152607360f81b6064820152608490fd5b50335f9081527f8e2c297e756b2a427c5dc4607f639842a8ea6e0f6322302f4ea76306b642cfc2602052604090205460ff166118e5565b346102ac575f3660031901126102ac57602060ff600354166040519015158152f35b346102ac57611a9d36613479565b611aa5613d60565b611aad6139b8565b611aba60045485106136c5565b835f526008602052611ad4600260405f2001544210613716565b835f526008602052611af060ff600560405f2001541615613755565b835f526008602052611b0a600960405f20015484106137a1565b835f526008602052600a60405f2001835f52602052611b3260ff600560405f200154166137de565b611b3d82151561381e565b5f848152600860209081526040808320338452600b0182528083208684529091529020548211611f21575f848152600860209081526040808320868452600a81019092529091206004810154909491929190918210611eec57670de0b6b3a7640000611ba9858461386a565b0494612710611bba6007548861386a565b0493600f611bc88689613709565b9160018060a01b0333165f52600b810160205260405f20855f5260205260405f20611bf4898254613709565b905560028401611c05898254613709565b905560038401611c168a8254613649565b905560078101611c278a8254613649565b905501611c35868254613649565b9055875f526008602052600a60405f2001835f5260205260405f20600281015490670de0b6b3a7640000880291888304670de0b6b3a76400001489151715610726576103e8810180911161072657611c91600493918492613656565b9101549080821115611ee257611ca691613709565b925b01918255670de0b6b3a7640000611cbf878661386a565b04905f82820392128183128116908284139015161761072657335f52600a602052600360405f200180545f8482019485129112908015821691151617610726575f98602094611df994611d5c9355338b52600a8652600460408c2001611d25815461363b565b90558b8b52600d865260408b20878c52865260408b2090549160405192611d4b84613306565b835242878401526040830152613674565b611dbb604051611d6b81613321565b8a815285858201528960408201523360608201528660808201528860a08201524260c08201528960e0820152338a52600b8552611dab8160408c2061387d565b8a8a52600c855260408a2061387d565b60035460405163a9059cbb60e01b815233600482015260248101929092529097889260089290921c6001600160a01b03169183919082906044820190565b03925af193841561081f577f976184626638b6c7e51a4ab66b297beb1714b545ce4e867a70d622566573098c60805f948993611e5f6020997faf7c505ee772ec188af7067e1f73db08ab028e3d564273442b907742b9c41fa09b8991611ec55750613948565b604051818152828a82015286867f33c49da1ff633ff516cc2661d0cd94af11b7b76985b6fe549151782c14db745a60403394a460065490611e9f8261363b565b600655604051923384528a84015260408301526060820152a4604051908152a260018055005b611edc91508b3d8d116108185761080a818361333d565b8d6104c4565b5060011c92611ca8565b60405162461bcd60e51b815260206004820152600d60248201526c507269636520746f6f206c6f7760981b6044820152606490fd5b60405162461bcd60e51b8152602060048201526013602482015272496e73756666696369656e742073686172657360681b6044820152606490fd5b346102ac5760203660031901126102ac576004355f60a0604051611f7f816132eb565b8281528260208201528260408201528260608201528260808201520152611fa960045482106136c5565b805f52600860205260405f205f80600983015491600a84015b8382106120cf57505090611fd591613656565b600d6007830154920154835f52600c60205260405f205415155f146120c8575f848152600c6020526040902080545f198101919082116107265760049161201b91613231565b500154905b5f858152600c6020526040902054156120bd575f948552600c602052604090942080549094905f1981019081116107265761205f60069160c097613231565b500154925b60405191612071836132eb565b858352602083019081526040830191825260a060608401935f855260808101958652019485526040519586525160208601525160408501525160608401525160808301525160a0820152f35b60c094505f92612064565b5f90612020565b90916120ec600191845f5283602052600460405f20015490613649565b920190611fc2565b346102ac5760403660031901126102ac576004356024356001600160401b0381116102ac5761212790369060040161335e565b61213460045483106136c5565b815f52600860205260ff600560405f200154161561227e57815f52600860205260ff600560405f20015460081c16612239575f828152600860209081526040808320338452600b8101835281842060049091015484529091529020546121f4576121ef7ff20590b2cb9af0bb070ad77de2c0b74db291dd43666e7a386ffb0e65974b050a91835f526008602052600560405f200161010061ff0019825416179055604051918291338352604060208401526040830190613448565b0390a2005b60405162461bcd60e51b815260206004820152601960248201527f43616e6e6f74206469737075746520696620796f7520776f6e000000000000006044820152606490fd5b60405162461bcd60e51b815260206004820152601760248201527f4d61726b657420616c72656164792064697370757465640000000000000000006044820152606490fd5b60405162461bcd60e51b815260206004820152601760248201527f4d61726b6574206e6f74207265736f6c766564207965740000000000000000006044820152606490fd5b346102ac575f3660031901126102ac5760035460405160089190911c6001600160a01b03168152602090f35b346102ac575f3660031901126102ac57612307613cb6565b60035460ff8116156123465760ff19166003557f5db9ee0a495bf2e6ff9c91a7834c1ba4fdd244a5e8aa4e537bd38aeae4b073aa6020604051338152a1005b638dfc202b60e01b5f5260045ffd5b346102ac5760203660031901126102ac5760043561237660045482106136c5565b5f5260086020526123d460405f20600281015460ff6003830154166009830154906005840154916123f26004860154926123e26123be60016123b78a613571565b9901613571565b604051998a996101208b526101208b0190613448565b9089820360208b0152613448565b956040880152606087019061346c565b608085015260ff828116151560a0860152600883901c16151560c085015260e084015260181c6001600160a01b03166101008301520390f35b346102ac5760403660031901126102ac5761244461321b565b336001600160a01b03821603612460576108df90600435613cdc565b63334bd91960e11b5f5260045ffd5b346102ac5760203660031901126102ac576108df61248b613205565b612493613cb6565b7fdcee1d35c83a32b436264a5c9afd68685c124f3f9097e87804c55410e67fc59a5f5260026020527f8e2c297e756b2a427c5dc4607f639842a8ea6e0f6322302f4ea76306b642cfc3546124e6906139d3565b613a0d565b346102ac575f3660031901126102ac5760206040517fd486618b282cb35034d59c30c062b5b3822d6cdf87ec459191ce7f5b7b8a48738152f35b346102ac5760403660031901126102ac576108df60043561254461321b565b9061255e6108d5825f526002602052600160405f20015490565b613c3d565b346102ac57612571366132ba565b905f52600e60205260405f2080548210156102ac57602091610d3c916131f0565b346102ac5760203660031901126102ac576020610a2d6004355f526002602052600160405f20015490565b346102ac575f3660031901126102ac576020600554604051908152f35b346102ac576125e8366132ba565b906125f660045482106136c5565b5f526008602052600a60405f2001905f5260205261265560405f2060028101546003820154600483015460ff60058501541691612663612641600161263a88613571565b9701613571565b60405197889760c0895260c0890190613448565b908782036020890152613448565b93604086015260608501526080840152151560a08301520390f35b346102ac5760c03660031901126102ac576004356001600160401b0381116102ac576126ae90369060040161335e565b6024356001600160401b0381116102ac576126cd90369060040161335e565b6044356001600160401b0381116102ac576126ec9036906004016133ca565b916064356001600160401b0381116102ac5761270c9036906004016133ca565b906084359160a43594600a8610156102ac576127266139b8565b5f546001600160a01b031633148015612f85575b15612f4157610e1084101580612f33575b15612efb57825115612eb657805160028110159081612eaa575b5015612e65578051825103612e0f57600454936127818561363b565b600455845f52600860205260405f209584516001600160401b0381116107cc576127ab8854613539565b601f8111612dca575b50806020601f8211600114612d69575f91612d5e575b508160011b915f199060031b1c19161787555b805160018801916001600160401b0382116107cc576127fc8354613539565b601f8111612d19575b50602090601f8311600114612cb15761283d949392915f9183612ca6575b50508160011b915f199060031b1c19161790555b42613649565b6002860190815560038601805460ff191660ff89161790556005860180546301000000600160b81b033360181b166301000000600160b81b03199091161790554260088701558151600987018190559093908015612c9257670de0b6b3a764000004969395600a01935f5b8351811015612b9a576128bb8185613660565b516128c68287613660565b5190604051906128d5826132eb565b815260208101918252604081015f8152606082015f815260808301918d835260a084019460018652865f528b60205260405f2094518051906001600160401b0382116107cc5781906129278854613539565b601f8111612b4a575b50602090601f8311600114612ae7575f92612adc575b50508160011b915f199060031b1c19161785555b51805160018601916001600160401b0382116107cc5761297a8354613539565b601f8111612a97575b50602090601f8311600114612a2957918060019a999896949260059896945f92612a1e575b50505f19600383901b1c1916908a1b1790555b516002840155516003830155516004820155019051151560ff80198354169116179055875f52600d60205260405f20815f52602052612a1860405f2060405190612a0482613306565b8c82524260208301525f6040830152613674565b016128a8565b015190505f806129a8565b90601f19831691845f52815f20925f5b818110612a7f57509260019b9a9997959392859260059a98968e9510612a67575b505050811b0190556129bb565b01515f1960f88460031b161c191690555f8080612a5a565b92936020600181928786015181550195019301612a39565b835f5260205f20601f840160051c81019160208510612ad2575b601f0160051c01905b818110612ac75750612983565b5f8155600101612aba565b9091508190612ab1565b015190505f80612946565b5f8981528281209350601f198516905b818110612b325750908460019594939210612b1a575b505050811b01855561295a565b01515f1960f88460031b161c191690555f8080612b0d565b92936020600181928786015181550195019301612af7565b909150875f5260205f20601f840160051c81019160208510612b90575b90601f859493920160051c01905b818110612b825750612930565b5f8155849350600101612b75565b9091508190612b67565b5082869188612ba882613522565b8054600160401b8110156107cc57612bc5916001820181556131f0565b81549060031b9086821b915f19901b191617905554612bef6040519560a0875260a0870190613448565b8581036020870152835180825260208201916020808360051b8301019601925f915b838310612c6557602089807f93f20d1ee811e3a7847933eca44474c052f00d323ddac70f72ad001fb49fe9158d808d612c548e8e6040850152606084019061346c565b3360808301520390a2604051908152f35b9091929396602080612c83600193601f198682030187528b51613448565b99019301930191939290612c11565b634e487b7160e01b5f52601260045260245ffd5b015190508b80612823565b90601f19831691845f52815f20925f5b818110612d01575091600193918561283d9897969410612ce9575b505050811b019055612837565b01515f1960f88460031b161c191690558b8080612cdc565b92936020600181928786015181550195019301612cc1565b835f5260205f20601f840160051c81019160208510612d54575b601f0160051c01905b818110612d495750612805565b5f8155600101612d3c565b9091508190612d33565b90508601518a6127ca565b5f8a81528181209250601f198416905b818110612db257509083600194939210612d9a575b5050811b0187556127dd565b8801515f1960f88460031b161c191690558a80612d8e565b9192602060018192868d015181550194019201612d79565b885f5260205f20601f830160051c81019160208410612e05575b601f0160051c01905b818110612dfa57506127b4565b5f8155600101612ded565b9091508190612de4565b60405162461bcd60e51b815260206004820152602860248201527f4f7074696f6e7320616e64206465736372697074696f6e73206c656e677468206044820152670dad2e6dac2e8c6d60c31b6064820152608490fd5b60405162461bcd60e51b815260206004820152601960248201527f496e76616c6964206e756d626572206f66206f7074696f6e73000000000000006044820152606490fd5b600a9150111587612765565b60405162461bcd60e51b815260206004820152601860248201527f5175657374696f6e2063616e6e6f7420626520656d70747900000000000000006044820152606490fd5b60405162461bcd60e51b815260206004820152601060248201526f24b73b30b634b210323ab930ba34b7b760811b6044820152606490fd5b506301e1338084111561274b565b606460405162461bcd60e51b815260206004820152602060248201527f4e6f7420617574686f72697a656420746f20637265617465206d61726b6574736044820152fd5b50335f9081527f30d995518b427f5a5863ad73fe356ca50cf70941f42c516830919c845fa5806f602052604090205460ff1661273a565b346102ac5760203660031901126102ac57612fd5613205565b612fdd613611565b5060018060a01b03165f52600a60205260a060405f20604051612fff816132d0565b81549182825260018101546020830190815260028201549060408401918252608060046003850154946060870195865201549401938452604051948552516020850152516040840152516060830152516080820152f35b346102ac57613064366132ba565b905f52600c60205260405f209081548110156102ac5761308391613231565b50805461093860018301549260018060a01b036002820154169060018060a01b03600382015416600482015460058301549160ff60076006860154950154169460405198899889613268565b346102ac575f3660031901126102ac576020604051600a8152f35b346102ac5760403660031901126102ac57613103613205565b6001600160a01b03165f908152600b602052604090208054602435908110156102ac5761308391613231565b346102ac5760203660031901126102ac576004356012548110156102ac576131586020916131c4565b905460405160039290921b1c6001600160a01b03168152f35b346102ac5760203660031901126102ac576004359063ffffffff60e01b82168092036102ac57602091637965db0b60e01b81149081156131b3575b5015158152f35b6301ffc9a760e01b149050836131ac565b6012548110156131dc5760125f5260205f2001905f90565b634e487b7160e01b5f52603260045260245ffd5b80548210156131dc575f5260205f2001905f90565b600435906001600160a01b03821682036102ac57565b602435906001600160a01b03821682036102ac57565b80548210156131dc575f5260205f209060031b01905f90565b6002111561325457565b634e487b7160e01b5f52602160045260245ffd5b90815260208101919091526001600160a01b03918216604082015291166060820152608081019190915260a081019190915260c0810191909152610100810192919060e0906132b68361324a565b0152565b60409060031901126102ac576004359060243590565b60a081019081106001600160401b038211176107cc57604052565b60c081019081106001600160401b038211176107cc57604052565b606081019081106001600160401b038211176107cc57604052565b61010081019081106001600160401b038211176107cc57604052565b90601f801991011681019081106001600160401b038211176107cc57604052565b81601f820112156102ac578035906001600160401b0382116107cc5760405192613392601f8401601f19166020018561333d565b828452602083830101116102ac57815f926020809301838601378301015290565b6001600160401b0381116107cc5760051b60200190565b9080601f830112156102ac5781356133e1816133b3565b926133ef604051948561333d565b81845260208085019260051b820101918383116102ac5760208201905b83821061341b57505050505090565b81356001600160401b0381116102ac5760209161343d8784809488010161335e565b81520191019061340c565b805180835260209291819084018484015e5f828201840152601f01601f1916010190565b90600a8210156132545752565b60809060031901126102ac5760043590602435906044359060643590565b60609060031901126102ac57600435906024359060443590565b60206040818301928281528451809452019201905f5b8181106134d45750505090565b82518452602093840193909201916001016134c7565b80548210156131dc575f52600360205f20910201905f90565b60409060031901126102ac57600435600a8110156102ac579060243590565b600a811015613254575f52601060205260405f2090565b90600182811c92168015613567575b602083101461355357565b634e487b7160e01b5f52602260045260245ffd5b91607f1691613548565b9060405191825f82549261358484613539565b80845293600181169081156135ef57506001146135ab575b506135a99250038361333d565b565b90505f9291925260205f20905f915b8183106135d35750509060206135a9928201015f61359c565b60209193508060019154838589010152019101909184926135ba565b9050602092506135a994915060ff191682840152151560051b8201015f61359c565b6040519061361e826132d0565b5f6080838281528260208201528260408201528260608201520152565b5f1981146107265760010190565b9190820180921161072657565b8115612c92570490565b80518210156131dc5760209160051b010190565b8054600160401b8110156107cc57613691916001820181556134ea565b9190916136b257604081600292518455602081015160018501550151910155565b634e487b7160e01b5f525f60045260245ffd5b156136cc57565b60405162461bcd60e51b815260206004820152601560248201527413585c9ad95d08191bd95cc81b9bdd08195e1a5cdd605a1b6044820152606490fd5b9190820391821161072657565b1561371d57565b60405162461bcd60e51b815260206004820152601060248201526f13585c9ad95d081a185cc8195b99195960821b6044820152606490fd5b1561375c57565b60405162461bcd60e51b815260206004820152601760248201527f4d61726b657420616c7265616479207265736f6c7665640000000000000000006044820152606490fd5b156137a857565b60405162461bcd60e51b815260206004820152600e60248201526d24b73b30b634b21037b83a34b7b760911b6044820152606490fd5b156137e557565b60405162461bcd60e51b81526020600482015260116024820152704f7074696f6e206e6f742061637469766560781b6044820152606490fd5b1561382557565b60405162461bcd60e51b815260206004820152601960248201527f5175616e74697479206d75737420626520706f736974697665000000000000006044820152606490fd5b8181029291811591840414171561072657565b8054600160401b8110156107cc5761389a91600182018155613231565b6136b257815181556020820151600182015560408201516002820180546001600160a01b039283166001600160a01b03199182161790915560608401516003840180549190931691161790556080820151600482015560a0820151600582015560c0820151600682015560e0909101516007909101906139198161324a565b6139228161324a565b60ff80198354169116179055565b908160209103126102ac575180151581036102ac5790565b1561394f57565b60405162461bcd60e51b815260206004820152600f60248201526e151c985b9cd9995c8819985a5b1959608a1b6044820152606490fd5b90613990826133b3565b61399d604051918261333d565b82815280926139ae601f19916133b3565b0190602036910137565b60ff600354166139c457565b63d93c066560e01b5f5260045ffd5b5f81815260026020908152604080832033845290915290205460ff16156139f75750565b63e2517d3f60e01b5f523360045260245260445ffd5b6001600160a01b0381165f9081527f8e2c297e756b2a427c5dc4607f639842a8ea6e0f6322302f4ea76306b642cfc2602052604090205460ff16613ac6576001600160a01b03165f8181527f8e2c297e756b2a427c5dc4607f639842a8ea6e0f6322302f4ea76306b642cfc260205260408120805460ff191660011790553391907fdcee1d35c83a32b436264a5c9afd68685c124f3f9097e87804c55410e67fc59a905f80516020613ddd8339815191529080a4600190565b505f90565b6001600160a01b0381165f9081527f30d995518b427f5a5863ad73fe356ca50cf70941f42c516830919c845fa5806f602052604090205460ff16613ac6576001600160a01b03165f8181527f30d995518b427f5a5863ad73fe356ca50cf70941f42c516830919c845fa5806f60205260408120805460ff191660011790553391907fef485be696bbc0c91ad541bbd553ffb5bd0e18dac30ba76e992dda23cb807a8a905f80516020613ddd8339815191529080a4600190565b6001600160a01b0381165f9081527fd3dccf8d8289b9deee17e361620d7577de7b525dd57f668d5c1bb85ec53112b5602052604090205460ff16613ac6576001600160a01b03165f8181527fd3dccf8d8289b9deee17e361620d7577de7b525dd57f668d5c1bb85ec53112b560205260408120805460ff191660011790553391907fd486618b282cb35034d59c30c062b5b3822d6cdf87ec459191ce7f5b7b8a4873905f80516020613ddd8339815191529080a4600190565b5f8181526002602090815260408083206001600160a01b038616845290915290205460ff16613cb0575f8181526002602090815260408083206001600160a01b0395909516808452949091528120805460ff19166001179055339291905f80516020613ddd8339815191529080a4600190565b50505f90565b5f546001600160a01b03163303613cc957565b63118cdaa760e01b5f523360045260245ffd5b5f8181526002602090815260408083206001600160a01b038616845290915290205460ff1615613cb0575f8181526002602090815260408083206001600160a01b0395909516808452949091528120805460ff19169055339291907ff6391f5c32d9c69d2a47ea670b442974b53935d1edc7fd64eb21e047a839171b9080a4600190565b600260015414613d71576002600155565b633ee5aeb560e01b5f5260045ffd5b905f52600860205260405f20905f90600b60098401549301915b838110613daa5750505050600190565b60018060a01b0382165f528260205260405f20815f5260205260405f2054613dd457600101613d9a565b505050505f9056fe2f8788117e7eff1d82e926ec794901d17c78024a50270940304540a733656f0da26469706673582212204af711458aa9010b581d202419783f7839ebb1a173a9526bb035ef71921e847764736f6c634300081a0033ac33ff75c19e70fe83507db0d683fd3465c996598dc972688b7ace676c89077b",
			"opcodes": "PUSH1 0x80 CALLVALUE PUSH2 0xF3 JUMPI PUSH1 0x1F PUSH2 0x3FE7 CODESIZE DUP2 SWAP1 SUB SWAP2 DUP3 ADD PUSH1 0x1F NOT AND DUP4 ADD SWAP2 PUSH1 0x1 PUSH1 0x1 PUSH1 0x40 SHL SUB DUP4 GT DUP5 DUP5 LT OR PUSH2 0xF7 JUMPI DUP1 DUP5 SWAP3 PUSH1 0x20 SWAP5 PUSH1 0x40 MSTORE DUP4 CODECOPY DUP2 ADD SUB SLT PUSH2 0xF3 JUMPI MLOAD PUSH1 0x1 PUSH1 0x1 PUSH1 0xA0 SHL SUB DUP2 AND DUP2 SUB PUSH2 0xF3 JUMPI CALLER ISZERO PUSH2 0xE0 JUMPI PUSH0 DUP1 SLOAD CALLER PUSH1 0x1 PUSH1 0x1 PUSH1 0xA0 SHL SUB NOT DUP3 AND DUP2 OR DUP4 SSTORE SWAP2 PUSH1 0x1 PUSH1 0x1 PUSH1 0xA0 SHL SUB SWAP1 SWAP2 AND SWAP1 PUSH32 0x8BE0079C531659141344CD1FD0A4F28419497F9722A3DAAFE3B4186F6B6457E0 SWAP1 DUP1 LOG3 PUSH1 0x1 DUP1 SSTORE PUSH1 0xC8 PUSH1 0x7 SSTORE PUSH1 0x3 DUP1 SLOAD PUSH2 0x100 PUSH1 0x1 PUSH1 0xA8 SHL SUB NOT AND PUSH1 0x8 SWAP3 SWAP1 SWAP3 SHL PUSH2 0x100 PUSH1 0x1 PUSH1 0xA8 SHL SUB AND SWAP2 SWAP1 SWAP2 OR SWAP1 SSTORE PUSH2 0xD0 CALLER PUSH2 0x10B JUMP JUMPDEST POP PUSH1 0x40 MLOAD PUSH2 0x3E32 SWAP1 DUP2 PUSH2 0x195 DUP3 CODECOPY RETURN JUMPDEST PUSH4 0x1E4FBDF7 PUSH1 0xE0 SHL PUSH0 MSTORE PUSH0 PUSH1 0x4 MSTORE PUSH1 0x24 PUSH0 REVERT JUMPDEST PUSH0 DUP1 REVERT JUMPDEST PUSH4 0x4E487B71 PUSH1 0xE0 SHL PUSH0 MSTORE PUSH1 0x41 PUSH1 0x4 MSTORE PUSH1 0x24 PUSH0 REVERT JUMPDEST PUSH1 0x1 PUSH1 0x1 PUSH1 0xA0 SHL SUB DUP2 AND PUSH0 SWAP1 DUP2 MSTORE PUSH0 DUP1 MLOAD PUSH1 0x20 PUSH2 0x3FC7 DUP4 CODECOPY DUP2 MLOAD SWAP2 MSTORE PUSH1 0x20 MSTORE PUSH1 0x40 SWAP1 KECCAK256 SLOAD PUSH1 0xFF AND PUSH2 0x18F JUMPI PUSH1 0x1 PUSH1 0x1 PUSH1 0xA0 SHL SUB AND PUSH0 DUP2 DUP2 MSTORE PUSH0 DUP1 MLOAD PUSH1 0x20 PUSH2 0x3FC7 DUP4 CODECOPY DUP2 MLOAD SWAP2 MSTORE PUSH1 0x20 MSTORE PUSH1 0x40 DUP2 KECCAK256 DUP1 SLOAD PUSH1 0xFF NOT AND PUSH1 0x1 OR SWAP1 SSTORE CALLER SWAP2 SWAP1 PUSH32 0x2F8788117E7EFF1D82E926EC794901D17C78024A50270940304540A733656F0D DUP2 DUP1 LOG4 PUSH1 0x1 SWAP1 JUMP JUMPDEST POP PUSH0 SWAP1 JUMP INVALID PUSH1 0x80 DUP1 PUSH1 0x40 MSTORE PUSH1 0x4 CALLDATASIZE LT ISZERO PUSH2 0x12 JUMPI PUSH0 DUP1 REVERT JUMPDEST PUSH0 CALLDATALOAD PUSH1 0xE0 SHR SWAP1 DUP2 PUSH4 0x1FFC9A7 EQ PUSH2 0x3171 JUMPI POP DUP1 PUSH4 0x5E33DD0 EQ PUSH2 0x312F JUMPI DUP1 PUSH4 0x8693F3C EQ PUSH2 0x30EA JUMPI DUP1 PUSH4 0xDA183D6 EQ PUSH2 0x30CF JUMPI DUP1 PUSH4 0x1CB1DE2F EQ PUSH2 0x3056 JUMPI DUP1 PUSH4 0x1EDB27E9 EQ PUSH2 0x2FBC JUMPI DUP1 PUSH4 0x204F6125 EQ PUSH2 0x267E JUMPI DUP1 PUSH4 0x222FA267 EQ PUSH2 0x25DA JUMPI DUP1 PUSH4 0x2453FFA8 EQ PUSH2 0x25BD JUMPI DUP1 PUSH4 0x248A9CA3 EQ PUSH2 0x2592 JUMPI DUP1 PUSH4 0x257FF7B6 EQ PUSH2 0x2563 JUMPI DUP1 PUSH4 0x29CF655B EQ PUSH2 0x22C3 JUMPI DUP1 PUSH4 0x2F2FF15D EQ PUSH2 0x2525 JUMPI DUP1 PUSH4 0x32617B70 EQ PUSH2 0x24EB JUMPI DUP1 PUSH4 0x35037E0B EQ PUSH2 0x246F JUMPI DUP1 PUSH4 0x36568ABE EQ PUSH2 0x242B JUMPI DUP1 PUSH4 0x3EC79193 EQ PUSH2 0x2355 JUMPI DUP1 PUSH4 0x3F4BA83A EQ PUSH2 0x22EF JUMPI DUP1 PUSH4 0x43425E88 EQ PUSH2 0x22C3 JUMPI DUP1 PUSH4 0x4A2021EF EQ PUSH2 0x20F4 JUMPI DUP1 PUSH4 0x58057FE5 EQ PUSH2 0x1F5C JUMPI DUP1 PUSH4 0x5A2DB6FB EQ PUSH2 0x1A8F JUMPI DUP1 PUSH4 0x5C975ABB EQ PUSH2 0x1A6D JUMPI DUP1 PUSH4 0x60557333 EQ PUSH2 0x18B6 JUMPI DUP1 PUSH4 0x677BD9FF EQ PUSH2 0x15EA JUMPI DUP1 PUSH4 0x6DB3B4DC EQ PUSH2 0x156E JUMPI DUP1 PUSH4 0x715018A6 EQ PUSH2 0x1517 JUMPI DUP1 PUSH4 0x73AF16FC EQ PUSH2 0x12D2 JUMPI DUP1 PUSH4 0x755F0629 EQ PUSH2 0x1298 JUMPI DUP1 PUSH4 0x77B4A3E7 EQ PUSH2 0x125E JUMPI DUP1 PUSH4 0x7C946454 EQ PUSH2 0x10F6 JUMPI DUP1 PUSH4 0x7E50898E EQ PUSH2 0x10D8 JUMPI DUP1 PUSH4 0x835DC40B EQ PUSH2 0x1044 JUMPI DUP1 PUSH4 0x8456CB59 EQ PUSH2 0xFEB JUMPI DUP1 PUSH4 0x856652E9 EQ PUSH2 0xFA2 JUMPI DUP1 PUSH4 0x8B8840E0 EQ PUSH2 0xF6A JUMPI DUP1 PUSH4 0x8DA5CB5B EQ PUSH2 0xF43 JUMPI DUP1 PUSH4 0x91D14854 EQ PUSH2 0xEFA JUMPI DUP1 PUSH4 0x927FEF2E EQ PUSH2 0xE97 JUMPI DUP1 PUSH4 0x92F012B2 EQ PUSH2 0xE7B JUMPI DUP1 PUSH4 0xA217FDDF EQ PUSH2 0xE61 JUMPI DUP1 PUSH4 0xA75DD115 EQ PUSH2 0xE07 JUMPI DUP1 PUSH4 0xA85C38EF EQ PUSH2 0xD4B JUMPI DUP1 PUSH4 0xA8CC7F19 EQ PUSH2 0xD16 JUMPI DUP1 PUSH4 0xAB44E635 EQ PUSH2 0xBC6 JUMPI DUP1 PUSH4 0xABDCE1A4 EQ PUSH2 0xB4A JUMPI DUP1 PUSH4 0xB1283E77 EQ PUSH2 0xA35 JUMPI DUP1 PUSH4 0xB1AB13FF EQ PUSH2 0x9FA JUMPI DUP1 PUSH4 0xB61920C1 EQ PUSH2 0x996 JUMPI DUP1 PUSH4 0xBD55022A EQ PUSH2 0x979 JUMPI DUP1 PUSH4 0xC2454AF7 EQ PUSH2 0x8E1 JUMPI DUP1 PUSH4 0xD547741F EQ PUSH2 0x89C JUMPI DUP1 PUSH4 0xEC979082 EQ PUSH2 0x28F JUMPI DUP1 PUSH4 0xED881230 EQ PUSH2 0x352 JUMPI DUP1 PUSH4 0xEECA08F0 EQ PUSH2 0x335 JUMPI DUP1 PUSH4 0xF2FDE38B EQ PUSH2 0x2B0 JUMPI PUSH4 0xFD69F3C2 EQ PUSH2 0x28F JUMPI PUSH0 DUP1 REVERT JUMPDEST CALLVALUE PUSH2 0x2AC JUMPI PUSH0 CALLDATASIZE PUSH1 0x3 NOT ADD SLT PUSH2 0x2AC JUMPI PUSH1 0x20 PUSH1 0x4 SLOAD PUSH1 0x40 MLOAD SWAP1 DUP2 MSTORE RETURN JUMPDEST PUSH0 DUP1 REVERT JUMPDEST CALLVALUE PUSH2 0x2AC JUMPI PUSH1 0x20 CALLDATASIZE PUSH1 0x3 NOT ADD SLT PUSH2 0x2AC JUMPI PUSH2 0x2C9 PUSH2 0x3205 JUMP JUMPDEST PUSH2 0x2D1 PUSH2 0x3CB6 JUMP JUMPDEST PUSH1 0x1 PUSH1 0x1 PUSH1 0xA0 SHL SUB AND DUP1 ISZERO PUSH2 0x322 JUMPI PUSH0 DUP1 SLOAD PUSH1 0x1 PUSH1 0x1 PUSH1 0xA0 SHL SUB NOT DUP2 AND DUP4 OR DUP3 SSTORE PUSH1 0x1 PUSH1 0x1 PUSH1 0xA0 SHL SUB AND SWAP1 PUSH32 0x8BE0079C531659141344CD1FD0A4F28419497F9722A3DAAFE3B4186F6B6457E0 SWAP1 DUP1 LOG3 STOP JUMPDEST PUSH4 0x1E4FBDF7 PUSH1 0xE0 SHL PUSH0 MSTORE PUSH0 PUSH1 0x4 MSTORE PUSH1 0x24 PUSH0 REVERT JUMPDEST CALLVALUE PUSH2 0x2AC JUMPI PUSH0 CALLDATASIZE PUSH1 0x3 NOT ADD SLT PUSH2 0x2AC JUMPI PUSH1 0x20 PUSH1 0x7 SLOAD PUSH1 0x40 MLOAD SWAP1 DUP2 MSTORE RETURN JUMPDEST CALLVALUE PUSH2 0x2AC JUMPI PUSH2 0x360 CALLDATASIZE PUSH2 0x3479 JUMP JUMPDEST PUSH2 0x368 PUSH2 0x3D60 JUMP JUMPDEST PUSH2 0x370 PUSH2 0x39B8 JUMP JUMPDEST PUSH2 0x37D PUSH1 0x4 SLOAD DUP6 LT PUSH2 0x36C5 JUMP JUMPDEST DUP4 PUSH0 MSTORE PUSH1 0x8 PUSH1 0x20 MSTORE PUSH2 0x397 PUSH1 0x2 PUSH1 0x40 PUSH0 KECCAK256 ADD SLOAD TIMESTAMP LT PUSH2 0x3716 JUMP JUMPDEST DUP4 PUSH0 MSTORE PUSH1 0x8 PUSH1 0x20 MSTORE PUSH2 0x3B3 PUSH1 0xFF PUSH1 0x5 PUSH1 0x40 PUSH0 KECCAK256 ADD SLOAD AND ISZERO PUSH2 0x3755 JUMP JUMPDEST DUP4 PUSH0 MSTORE PUSH1 0x8 PUSH1 0x20 MSTORE PUSH2 0x3CD PUSH1 0x9 PUSH1 0x40 PUSH0 KECCAK256 ADD SLOAD DUP5 LT PUSH2 0x37A1 JUMP JUMPDEST DUP4 PUSH0 MSTORE PUSH1 0x8 PUSH1 0x20 MSTORE PUSH1 0xA PUSH1 0x40 PUSH0 KECCAK256 ADD DUP4 PUSH0 MSTORE PUSH1 0x20 MSTORE PUSH2 0x3F5 PUSH1 0xFF PUSH1 0x5 PUSH1 0x40 PUSH0 KECCAK256 ADD SLOAD AND PUSH2 0x37DE JUMP JUMPDEST PUSH2 0x400 DUP3 ISZERO ISZERO PUSH2 0x381E JUMP JUMPDEST DUP4 PUSH0 MSTORE PUSH1 0x8 PUSH1 0x20 MSTORE PUSH1 0xFF PUSH1 0x5 PUSH1 0x40 PUSH0 KECCAK256 ADD SLOAD PUSH1 0x10 SHR AND ISZERO PUSH2 0x860 JUMPI PUSH0 DUP5 DUP2 MSTORE PUSH1 0x8 PUSH1 0x20 SWAP1 DUP2 MSTORE PUSH1 0x40 DUP1 DUP4 KECCAK256 DUP7 DUP5 MSTORE PUSH1 0xA DUP2 ADD SWAP1 SWAP3 MSTORE SWAP1 SWAP2 KECCAK256 PUSH1 0x4 DUP2 ADD SLOAD SWAP1 SWAP5 SWAP2 SWAP3 SWAP2 SWAP1 SWAP2 DUP3 GT PUSH2 0x82A JUMPI PUSH8 0xDE0B6B3A7640000 PUSH2 0x45D DUP6 DUP5 PUSH2 0x386A JUMP JUMPDEST DIV SWAP4 PUSH2 0x2710 PUSH2 0x46E PUSH1 0x7 SLOAD DUP8 PUSH2 0x386A JUMP JUMPDEST DIV SWAP4 PUSH2 0x47A DUP6 DUP8 PUSH2 0x3649 JUMP JUMPDEST SWAP1 PUSH0 PUSH1 0x20 PUSH1 0x1 DUP1 PUSH1 0xA0 SHL SUB PUSH1 0x3 SLOAD PUSH1 0x8 SHR AND PUSH1 0x64 PUSH1 0x40 MLOAD DUP1 SWAP5 DUP2 SWAP4 PUSH4 0x23B872DD PUSH1 0xE0 SHL DUP4 MSTORE CALLER PUSH1 0x4 DUP5 ADD MSTORE ADDRESS PUSH1 0x24 DUP5 ADD MSTORE DUP9 PUSH1 0x44 DUP5 ADD MSTORE GAS CALL DUP1 ISZERO PUSH2 0x81F JUMPI PUSH2 0x4CA SWAP2 PUSH0 SWAP2 PUSH2 0x7F0 JUMPI JUMPDEST POP PUSH2 0x3948 JUMP JUMPDEST PUSH1 0xB DUP2 ADD SWAP1 PUSH1 0x1 DUP1 PUSH1 0xA0 SHL SUB CALLER AND PUSH0 MSTORE DUP2 PUSH1 0x20 MSTORE PUSH1 0x40 PUSH0 KECCAK256 DUP6 PUSH0 MSTORE PUSH1 0x20 MSTORE PUSH1 0x40 PUSH0 KECCAK256 SLOAD ISZERO DUP1 PUSH2 0x7E0 JUMPI JUMPDEST PUSH2 0x73A JUMPI JUMPDEST PUSH1 0xF SWAP2 PUSH1 0x1 DUP1 PUSH1 0xA0 SHL SUB CALLER AND PUSH0 MSTORE PUSH1 0x20 MSTORE PUSH1 0x40 PUSH0 KECCAK256 DUP6 PUSH0 MSTORE PUSH1 0x20 MSTORE PUSH1 0x40 PUSH0 KECCAK256 PUSH2 0x523 DUP6 DUP3 SLOAD PUSH2 0x3649 JUMP JUMPDEST SWAP1 SSTORE PUSH1 0x2 DUP10 ADD PUSH2 0x534 DUP6 DUP3 SLOAD PUSH2 0x3649 JUMP JUMPDEST SWAP1 SSTORE PUSH1 0x3 DUP10 ADD PUSH2 0x545 DUP10 DUP3 SLOAD PUSH2 0x3649 JUMP JUMPDEST SWAP1 SSTORE PUSH1 0x6 DUP2 ADD PUSH2 0x556 DUP10 DUP3 SLOAD PUSH2 0x3649 JUMP JUMPDEST SWAP1 SSTORE PUSH1 0x7 DUP2 ADD PUSH2 0x567 DUP10 DUP3 SLOAD PUSH2 0x3649 JUMP JUMPDEST SWAP1 SSTORE ADD PUSH2 0x575 DUP7 DUP3 SLOAD PUSH2 0x3649 JUMP JUMPDEST SWAP1 SSTORE CALLER PUSH0 MSTORE PUSH1 0xA PUSH1 0x20 MSTORE PUSH2 0x58E PUSH1 0x40 PUSH0 KECCAK256 SWAP2 DUP3 SLOAD PUSH2 0x3649 JUMP JUMPDEST SWAP1 SSTORE CALLER PUSH0 MSTORE PUSH1 0xA PUSH1 0x20 MSTORE PUSH1 0x4 PUSH1 0x40 PUSH0 KECCAK256 ADD PUSH2 0x5A9 DUP2 SLOAD PUSH2 0x363B JUMP JUMPDEST SWAP1 SSTORE DUP7 PUSH0 MSTORE PUSH1 0x8 PUSH1 0x20 MSTORE PUSH1 0xA PUSH1 0x40 PUSH0 KECCAK256 ADD DUP3 PUSH0 MSTORE PUSH1 0x20 MSTORE PUSH1 0x40 PUSH0 KECCAK256 PUSH1 0x2 DUP2 ADD SLOAD PUSH8 0xDE0B6B3A7640000 DUP4 MUL SWAP7 DUP4 DUP9 DIV PUSH8 0xDE0B6B3A7640000 EQ DUP5 ISZERO OR ISZERO PUSH2 0x726 JUMPI PUSH2 0x3E8 DUP3 ADD DUP1 SWAP3 GT PUSH2 0x726 JUMPI PUSH32 0xAF7C505EE772EC188AF7067E1F73DB08AB028E3D564273442B907742B9C41FA0 SWAP9 PUSH2 0x636 PUSH2 0x66E SWAP5 PUSH1 0x4 PUSH2 0x62E DUP2 SWAP7 PUSH1 0x20 SWAP14 PUSH2 0x3656 JUMP JUMPDEST SWAP2 ADD SLOAD PUSH2 0x3649 JUMP JUMPDEST SWAP3 DUP4 SWAP2 ADD SSTORE DUP10 PUSH0 MSTORE PUSH1 0xD DUP9 MSTORE PUSH1 0x40 PUSH0 KECCAK256 DUP6 PUSH0 MSTORE DUP9 MSTORE PUSH1 0x40 PUSH0 KECCAK256 SWAP1 PUSH1 0x40 MLOAD SWAP3 PUSH2 0x65D DUP5 PUSH2 0x3306 JUMP JUMPDEST DUP4 MSTORE TIMESTAMP DUP10 DUP5 ADD MSTORE PUSH1 0x40 DUP4 ADD MSTORE PUSH2 0x3674 JUMP JUMPDEST PUSH2 0x6CD PUSH1 0x40 MLOAD PUSH2 0x67D DUP2 PUSH2 0x3321 JUMP JUMPDEST DUP9 DUP2 MSTORE DUP4 DUP8 DUP3 ADD MSTORE CALLER PUSH1 0x40 DUP3 ADD MSTORE PUSH0 PUSH1 0x60 DUP3 ADD MSTORE DUP5 PUSH1 0x80 DUP3 ADD MSTORE DUP3 PUSH1 0xA0 DUP3 ADD MSTORE TIMESTAMP PUSH1 0xC0 DUP3 ADD MSTORE PUSH0 PUSH1 0xE0 DUP3 ADD MSTORE CALLER PUSH0 MSTORE PUSH1 0xB DUP8 MSTORE PUSH2 0x6BD DUP2 PUSH1 0x40 PUSH0 KECCAK256 PUSH2 0x387D JUMP JUMPDEST DUP9 PUSH0 MSTORE PUSH1 0xC DUP8 MSTORE PUSH1 0x40 PUSH0 KECCAK256 PUSH2 0x387D JUMP JUMPDEST PUSH1 0x6 SLOAD SWAP1 PUSH2 0x6DA DUP3 PUSH2 0x363B JUMP JUMPDEST PUSH1 0x6 SSTORE PUSH1 0x40 MLOAD SWAP4 PUSH0 DUP6 MSTORE DUP7 DUP6 ADD MSTORE PUSH1 0x40 DUP5 ADD MSTORE PUSH1 0x60 DUP4 ADD MSTORE DUP6 PUSH32 0x976184626638B6C7E51A4AB66B297BEB1714B545CE4E867A70D622566573098C PUSH1 0x80 CALLER SWAP5 LOG4 PUSH1 0x40 MLOAD SWAP1 DUP2 MSTORE LOG2 PUSH1 0x1 DUP1 SSTORE STOP JUMPDEST PUSH4 0x4E487B71 PUSH1 0xE0 SHL PUSH0 MSTORE PUSH1 0x11 PUSH1 0x4 MSTORE PUSH1 0x24 PUSH0 REVERT JUMPDEST PUSH1 0xD DUP2 ADD DUP1 SLOAD PUSH1 0x1 PUSH1 0x40 SHL DUP2 LT ISZERO PUSH2 0x7CC JUMPI PUSH2 0x75B SWAP2 PUSH1 0x1 DUP3 ADD DUP2 SSTORE PUSH2 0x31F0 JUMP JUMPDEST DUP2 SLOAD SWAP1 PUSH1 0x3 SHL SWAP1 CALLER DUP3 SHL SWAP2 PUSH1 0x1 DUP1 PUSH1 0xA0 SHL SUB SWAP1 SHL NOT AND OR SWAP1 SSTORE CALLER PUSH0 MSTORE PUSH1 0xA PUSH1 0x20 MSTORE PUSH1 0x40 PUSH0 KECCAK256 SLOAD PUSH2 0x4F9 JUMPI PUSH1 0x12 SLOAD SWAP2 PUSH1 0x1 PUSH1 0x40 SHL DUP4 LT ISZERO PUSH2 0x7CC JUMPI PUSH2 0x7A9 DUP4 PUSH1 0x1 PUSH1 0xF SWAP6 ADD PUSH1 0x12 SSTORE PUSH1 0x12 PUSH2 0x31F0 JUMP JUMPDEST DUP2 SLOAD PUSH1 0x1 PUSH1 0x1 PUSH1 0xA0 SHL SUB PUSH1 0x3 SWAP3 SWAP1 SWAP3 SHL SWAP2 DUP3 SHL NOT AND CALLER SWAP1 SWAP2 SHL OR SWAP1 SSTORE SWAP2 POP PUSH2 0x4F9 JUMP JUMPDEST PUSH4 0x4E487B71 PUSH1 0xE0 SHL PUSH0 MSTORE PUSH1 0x41 PUSH1 0x4 MSTORE PUSH1 0x24 PUSH0 REVERT JUMPDEST POP PUSH2 0x7EB DUP11 CALLER PUSH2 0x3D80 JUMP JUMPDEST PUSH2 0x4F4 JUMP JUMPDEST PUSH2 0x812 SWAP2 POP PUSH1 0x20 RETURNDATASIZE PUSH1 0x20 GT PUSH2 0x818 JUMPI JUMPDEST PUSH2 0x80A DUP2 DUP4 PUSH2 0x333D JUMP JUMPDEST DUP2 ADD SWAP1 PUSH2 0x3930 JUMP JUMPDEST DUP12 PUSH2 0x4C4 JUMP JUMPDEST POP RETURNDATASIZE PUSH2 0x800 JUMP JUMPDEST PUSH1 0x40 MLOAD RETURNDATASIZE PUSH0 DUP3 RETURNDATACOPY RETURNDATASIZE SWAP1 REVERT JUMPDEST PUSH1 0x40 MLOAD PUSH3 0x461BCD PUSH1 0xE5 SHL DUP2 MSTORE PUSH1 0x20 PUSH1 0x4 DUP3 ADD MSTORE PUSH1 0xE PUSH1 0x24 DUP3 ADD MSTORE PUSH14 0xA0E4D2C6CA40E8DEDE40D0D2CED PUSH1 0x93 SHL PUSH1 0x44 DUP3 ADD MSTORE PUSH1 0x64 SWAP1 REVERT JUMPDEST PUSH1 0x40 MLOAD PUSH3 0x461BCD PUSH1 0xE5 SHL DUP2 MSTORE PUSH1 0x20 PUSH1 0x4 DUP3 ADD MSTORE PUSH1 0x14 PUSH1 0x24 DUP3 ADD MSTORE PUSH20 0x13585C9AD95D081B9BDD081D985B1A59185D1959 PUSH1 0x62 SHL PUSH1 0x44 DUP3 ADD MSTORE PUSH1 0x64 SWAP1 REVERT JUMPDEST CALLVALUE PUSH2 0x2AC JUMPI PUSH1 0x40 CALLDATASIZE PUSH1 0x3 NOT ADD SLT PUSH2 0x2AC JUMPI PUSH2 0x8DF PUSH1 0x4 CALLDATALOAD PUSH2 0x8BB PUSH2 0x321B JUMP JUMPDEST SWAP1 PUSH2 0x8DA PUSH2 0x8D5 DUP3 PUSH0 MSTORE PUSH1 0x2 PUSH1 0x20 MSTORE PUSH1 0x1 PUSH1 0x40 PUSH0 KECCAK256 ADD SLOAD SWAP1 JUMP JUMPDEST PUSH2 0x39D3 JUMP JUMPDEST PUSH2 0x3CDC JUMP JUMPDEST STOP JUMPDEST CALLVALUE PUSH2 0x2AC JUMPI PUSH2 0x8F9 PUSH2 0x8F2 CALLDATASIZE PUSH2 0x3503 JUMP JUMPDEST SWAP2 SWAP1 PUSH2 0x3522 JUMP JUMPDEST DUP1 SLOAD SWAP1 DUP2 DUP4 GT ISZERO PUSH2 0x972 JUMPI DUP2 JUMPDEST PUSH2 0x90F DUP4 PUSH2 0x3986 JUMP JUMPDEST SWAP4 DUP1 DUP3 GT ISZERO PUSH2 0x96A JUMPI PUSH2 0x921 SWAP2 PUSH2 0x3709 JUMP JUMPDEST PUSH0 JUMPDEST DUP4 DUP2 LT PUSH2 0x93C JUMPI PUSH1 0x40 MLOAD DUP1 PUSH2 0x938 DUP8 DUP3 PUSH2 0x34B1 JUMP JUMPDEST SUB SWAP1 RETURN JUMPDEST DUP1 PUSH2 0x952 PUSH2 0x94C PUSH1 0x1 SWAP4 DUP6 PUSH2 0x3649 JUMP JUMPDEST DUP6 PUSH2 0x31F0 JUMP JUMPDEST SWAP1 SLOAD SWAP1 PUSH1 0x3 SHL SHR PUSH2 0x963 DUP3 DUP9 PUSH2 0x3660 JUMP JUMPDEST MSTORE ADD PUSH2 0x923 JUMP JUMPDEST POP POP PUSH0 PUSH2 0x921 JUMP JUMPDEST DUP3 SWAP2 PUSH2 0x906 JUMP JUMPDEST CALLVALUE PUSH2 0x2AC JUMPI PUSH0 CALLDATASIZE PUSH1 0x3 NOT ADD SLT PUSH2 0x2AC JUMPI PUSH1 0x20 PUSH1 0x6 SLOAD PUSH1 0x40 MLOAD SWAP1 DUP2 MSTORE RETURN JUMPDEST CALLVALUE PUSH2 0x2AC JUMPI PUSH1 0x20 CALLDATASIZE PUSH1 0x3 NOT ADD SLT PUSH2 0x2AC JUMPI PUSH1 0x1 PUSH1 0x1 PUSH1 0xA0 SHL SUB PUSH2 0x9B7 PUSH2 0x3205 JUMP JUMPDEST AND PUSH0 MSTORE PUSH1 0xA PUSH1 0x20 MSTORE PUSH1 0xA0 PUSH1 0x40 PUSH0 KECCAK256 DUP1 SLOAD SWAP1 PUSH1 0x1 DUP2 ADD SLOAD SWAP1 PUSH1 0x2 DUP2 ADD SLOAD PUSH1 0x4 PUSH1 0x3 DUP4 ADD SLOAD SWAP3 ADD SLOAD SWAP3 PUSH1 0x40 MLOAD SWAP5 DUP6 MSTORE PUSH1 0x20 DUP6 ADD MSTORE PUSH1 0x40 DUP5 ADD MSTORE PUSH1 0x60 DUP4 ADD MSTORE PUSH1 0x80 DUP3 ADD MSTORE RETURN JUMPDEST CALLVALUE PUSH2 0x2AC JUMPI PUSH1 0x20 PUSH2 0xA2D PUSH2 0xA0D CALLDATASIZE PUSH2 0x32BA JUMP JUMPDEST SWAP1 PUSH0 MSTORE PUSH1 0x8 PUSH1 0x20 MSTORE PUSH1 0xA PUSH1 0x40 PUSH0 KECCAK256 ADD SWAP1 PUSH0 MSTORE PUSH1 0x20 MSTORE PUSH1 0x4 PUSH1 0x40 PUSH0 KECCAK256 ADD SLOAD SWAP1 JUMP JUMPDEST PUSH1 0x40 MLOAD SWAP1 DUP2 MSTORE RETURN JUMPDEST CALLVALUE PUSH2 0x2AC JUMPI PUSH1 0x20 CALLDATASIZE PUSH1 0x3 NOT ADD SLT PUSH2 0x2AC JUMPI PUSH1 0x4 CALLDATALOAD PUSH0 MSTORE PUSH1 0x8 PUSH1 0x20 MSTORE PUSH1 0x40 PUSH0 KECCAK256 PUSH2 0xAC6 PUSH2 0xA60 DUP3 PUSH2 0x3571 JUMP JUMPDEST SWAP2 PUSH2 0xA6D PUSH1 0x1 DUP3 ADD PUSH2 0x3571 JUMP JUMPDEST SWAP3 PUSH1 0x2 DUP3 ADD SLOAD SWAP2 PUSH1 0xFF PUSH1 0x3 DUP3 ADD SLOAD AND PUSH1 0x4 DUP3 ADD SLOAD PUSH1 0x5 DUP4 ADD SLOAD PUSH1 0x6 DUP5 ADD SLOAD PUSH1 0x7 DUP6 ADD SLOAD SWAP2 PUSH1 0x8 DUP7 ADD SLOAD SWAP4 PUSH2 0xAE4 PUSH1 0x9 DUP9 ADD SLOAD SWAP7 PUSH2 0xAD4 PUSH1 0xF PUSH1 0xE DUP12 ADD SLOAD SWAP11 ADD SLOAD SWAP11 PUSH1 0x40 MLOAD SWAP15 DUP16 SWAP15 DUP16 SWAP3 PUSH2 0x1E0 DUP5 MSTORE PUSH2 0x1E0 DUP5 ADD SWAP1 PUSH2 0x3448 JUMP JUMPDEST SWAP2 PUSH1 0x20 DUP2 DUP5 SUB SWAP2 ADD MSTORE PUSH2 0x3448 JUMP JUMPDEST SWAP11 PUSH1 0x40 DUP14 ADD MSTORE PUSH1 0x60 DUP13 ADD SWAP1 PUSH2 0x346C JUMP JUMPDEST PUSH1 0x80 DUP11 ADD MSTORE PUSH1 0xFF DUP2 DUP2 AND ISZERO ISZERO PUSH1 0xA0 DUP12 ADD MSTORE PUSH1 0x8 DUP3 SWAP1 SHR DUP2 AND ISZERO ISZERO PUSH1 0xC0 DUP12 ADD MSTORE PUSH1 0x10 DUP3 SWAP1 SHR AND ISZERO ISZERO PUSH1 0xE0 DUP11 ADD MSTORE PUSH1 0x18 SHR PUSH1 0x1 PUSH1 0x1 PUSH1 0xA0 SHL SUB AND PUSH2 0x100 DUP10 ADD MSTORE PUSH2 0x120 DUP9 ADD MSTORE PUSH2 0x140 DUP8 ADD MSTORE PUSH2 0x160 DUP7 ADD MSTORE PUSH2 0x180 DUP6 ADD MSTORE PUSH2 0x1A0 DUP5 ADD MSTORE PUSH2 0x1C0 DUP4 ADD MSTORE SUB SWAP1 RETURN JUMPDEST CALLVALUE PUSH2 0x2AC JUMPI PUSH1 0x20 CALLDATASIZE PUSH1 0x3 NOT ADD SLT PUSH2 0x2AC JUMPI PUSH2 0x8DF PUSH2 0xB66 PUSH2 0x3205 JUMP JUMPDEST PUSH2 0xB6E PUSH2 0x3CB6 JUMP JUMPDEST PUSH32 0xD486618B282CB35034D59C30C062B5B3822D6CDF87EC459191CE7F5B7B8A4873 PUSH0 MSTORE PUSH1 0x2 PUSH1 0x20 MSTORE PUSH32 0xD3DCCF8D8289B9DEEE17E361620D7577DE7B525DD57F668D5C1BB85EC53112B6 SLOAD PUSH2 0xBC1 SWAP1 PUSH2 0x39D3 JUMP JUMPDEST PUSH2 0x3B84 JUMP JUMPDEST CALLVALUE PUSH2 0x2AC JUMPI PUSH1 0x20 CALLDATASIZE PUSH1 0x3 NOT ADD SLT PUSH2 0x2AC JUMPI PUSH1 0x4 CALLDATALOAD PUSH2 0xBE7 PUSH1 0x4 SLOAD DUP3 LT PUSH2 0x36C5 JUMP JUMPDEST CALLER PUSH0 SWAP1 DUP2 MSTORE PUSH32 0xD3DCCF8D8289B9DEEE17E361620D7577DE7B525DD57F668D5C1BB85EC53112B5 PUSH1 0x20 MSTORE PUSH1 0x40 SWAP1 KECCAK256 SLOAD PUSH1 0xFF AND DUP1 ISZERO PUSH2 0xD03 JUMPI JUMPDEST ISZERO PUSH2 0xCCD JUMPI DUP1 PUSH0 MSTORE PUSH1 0x8 PUSH1 0x20 MSTORE PUSH1 0xFF PUSH1 0x5 PUSH1 0x40 PUSH0 KECCAK256 ADD SLOAD PUSH1 0x10 SHR AND PUSH2 0xC88 JUMPI DUP1 PUSH0 MSTORE PUSH1 0x8 PUSH1 0x20 MSTORE PUSH1 0x5 PUSH1 0x40 PUSH0 KECCAK256 ADD PUSH3 0x10000 PUSH3 0xFF0000 NOT DUP3 SLOAD AND OR SWAP1 SSTORE PUSH32 0xCD5B0C95D548CDBA5F9A45B4210642D0B866A0CC878E0A863855455908C6DB65 PUSH1 0x20 PUSH1 0x40 MLOAD CALLER DUP2 MSTORE LOG2 STOP JUMPDEST PUSH1 0x40 MLOAD PUSH3 0x461BCD PUSH1 0xE5 SHL DUP2 MSTORE PUSH1 0x20 PUSH1 0x4 DUP3 ADD MSTORE PUSH1 0x18 PUSH1 0x24 DUP3 ADD MSTORE PUSH32 0x4D61726B657420616C72656164792076616C6964617465640000000000000000 PUSH1 0x44 DUP3 ADD MSTORE PUSH1 0x64 SWAP1 REVERT JUMPDEST PUSH1 0x40 MLOAD PUSH3 0x461BCD PUSH1 0xE5 SHL DUP2 MSTORE PUSH1 0x20 PUSH1 0x4 DUP3 ADD MSTORE PUSH1 0xE PUSH1 0x24 DUP3 ADD MSTORE PUSH14 0x139BDD08185D5D1A1BDC9A5E9959 PUSH1 0x92 SHL PUSH1 0x44 DUP3 ADD MSTORE PUSH1 0x64 SWAP1 REVERT JUMPDEST POP PUSH0 SLOAD PUSH1 0x1 PUSH1 0x1 PUSH1 0xA0 SHL SUB AND CALLER EQ PUSH2 0xC1F JUMP JUMPDEST CALLVALUE PUSH2 0x2AC JUMPI PUSH2 0xD27 PUSH2 0x8F2 CALLDATASIZE PUSH2 0x3503 JUMP JUMPDEST DUP1 SLOAD DUP3 LT ISZERO PUSH2 0x2AC JUMPI PUSH1 0x20 SWAP2 PUSH2 0xD3C SWAP2 PUSH2 0x31F0 JUMP JUMPDEST SWAP1 SLOAD SWAP1 PUSH1 0x3 SHL SHR PUSH1 0x40 MLOAD SWAP1 DUP2 MSTORE RETURN JUMPDEST CALLVALUE PUSH2 0x2AC JUMPI PUSH1 0x20 CALLDATASIZE PUSH1 0x3 NOT ADD SLT PUSH2 0x2AC JUMPI PUSH1 0x4 CALLDATALOAD PUSH0 MSTORE PUSH1 0x9 PUSH1 0x20 MSTORE PUSH2 0x160 PUSH1 0x40 PUSH0 KECCAK256 DUP1 SLOAD SWAP1 PUSH1 0x1 DUP2 ADD SLOAD SWAP1 PUSH1 0x2 DUP2 ADD SLOAD PUSH1 0x3 DUP3 ADD SLOAD PUSH1 0xFF DUP2 PUSH1 0xA0 SHR AND PUSH1 0xFF DUP3 PUSH1 0xA8 SHR AND PUSH1 0x4 DUP6 ADD SLOAD SWAP2 PUSH1 0x5 DUP7 ADD SLOAD SWAP4 PUSH1 0x6 DUP8 ADD SLOAD SWAP6 PUSH1 0xFF PUSH1 0x8 PUSH1 0x7 DUP11 ADD SLOAD SWAP10 ADD SLOAD AND SWAP9 PUSH1 0x40 MLOAD SWAP11 DUP12 MSTORE PUSH1 0x20 DUP12 ADD MSTORE PUSH1 0x40 DUP11 ADD MSTORE PUSH1 0x1 DUP1 PUSH1 0xA0 SHL SUB AND PUSH1 0x60 DUP10 ADD MSTORE PUSH2 0xDD4 DUP2 PUSH2 0x324A JUMP JUMPDEST PUSH1 0x80 DUP9 ADD MSTORE PUSH2 0xDE2 DUP2 PUSH2 0x324A JUMP JUMPDEST PUSH1 0xA0 DUP8 ADD MSTORE PUSH1 0xC0 DUP7 ADD MSTORE PUSH1 0xE0 DUP6 ADD MSTORE PUSH2 0x100 DUP5 ADD MSTORE PUSH2 0x120 DUP4 ADD MSTORE ISZERO ISZERO PUSH2 0x140 DUP3 ADD MSTORE RETURN JUMPDEST CALLVALUE PUSH2 0x2AC JUMPI PUSH2 0xE15 CALLDATASIZE PUSH2 0x3497 JUMP JUMPDEST SWAP2 PUSH0 MSTORE PUSH1 0xD PUSH1 0x20 MSTORE PUSH1 0x40 PUSH0 KECCAK256 SWAP1 PUSH0 MSTORE PUSH1 0x20 MSTORE PUSH1 0x40 PUSH0 KECCAK256 DUP1 SLOAD DUP3 LT ISZERO PUSH2 0x2AC JUMPI PUSH1 0x60 SWAP2 PUSH2 0xE40 SWAP2 PUSH2 0x34EA JUMP JUMPDEST POP DUP1 SLOAD SWAP1 PUSH1 0x2 PUSH1 0x1 DUP3 ADD SLOAD SWAP2 ADD SLOAD SWAP1 PUSH1 0x40 MLOAD SWAP3 DUP4 MSTORE PUSH1 0x20 DUP4 ADD MSTORE PUSH1 0x40 DUP3 ADD MSTORE RETURN JUMPDEST CALLVALUE PUSH2 0x2AC JUMPI PUSH0 CALLDATASIZE PUSH1 0x3 NOT ADD SLT PUSH2 0x2AC JUMPI PUSH1 0x20 PUSH1 0x40 MLOAD PUSH0 DUP2 MSTORE RETURN JUMPDEST CALLVALUE PUSH2 0x2AC JUMPI PUSH0 CALLDATASIZE PUSH1 0x3 NOT ADD SLT PUSH2 0x2AC JUMPI PUSH1 0x20 PUSH1 0x40 MLOAD PUSH2 0xE10 DUP2 MSTORE RETURN JUMPDEST CALLVALUE PUSH2 0x2AC JUMPI PUSH1 0x20 CALLDATASIZE PUSH1 0x3 NOT ADD SLT PUSH2 0x2AC JUMPI PUSH1 0x4 CALLDATALOAD PUSH2 0xEB3 PUSH2 0x3CB6 JUMP JUMPDEST PUSH2 0x3E8 DUP2 GT PUSH2 0xEC1 JUMPI PUSH1 0x7 SSTORE STOP JUMPDEST PUSH1 0x40 MLOAD PUSH3 0x461BCD PUSH1 0xE5 SHL DUP2 MSTORE PUSH1 0x20 PUSH1 0x4 DUP3 ADD MSTORE PUSH1 0x11 PUSH1 0x24 DUP3 ADD MSTORE PUSH17 0x8CCACA40E4C2E8CA40E8DEDE40D0D2CED PUSH1 0x7B SHL PUSH1 0x44 DUP3 ADD MSTORE PUSH1 0x64 SWAP1 REVERT JUMPDEST CALLVALUE PUSH2 0x2AC JUMPI PUSH1 0x40 CALLDATASIZE PUSH1 0x3 NOT ADD SLT PUSH2 0x2AC JUMPI PUSH2 0xF13 PUSH2 0x321B JUMP JUMPDEST PUSH1 0x4 CALLDATALOAD PUSH0 MSTORE PUSH1 0x2 PUSH1 0x20 MSTORE PUSH1 0x40 PUSH0 KECCAK256 SWAP1 PUSH1 0x1 DUP1 PUSH1 0xA0 SHL SUB AND PUSH0 MSTORE PUSH1 0x20 MSTORE PUSH1 0x20 PUSH1 0xFF PUSH1 0x40 PUSH0 KECCAK256 SLOAD AND PUSH1 0x40 MLOAD SWAP1 ISZERO ISZERO DUP2 MSTORE RETURN JUMPDEST CALLVALUE PUSH2 0x2AC JUMPI PUSH0 CALLDATASIZE PUSH1 0x3 NOT ADD SLT PUSH2 0x2AC JUMPI PUSH0 SLOAD PUSH1 0x40 MLOAD PUSH1 0x1 PUSH1 0x1 PUSH1 0xA0 SHL SUB SWAP1 SWAP2 AND DUP2 MSTORE PUSH1 0x20 SWAP1 RETURN JUMPDEST CALLVALUE PUSH2 0x2AC JUMPI PUSH1 0x20 CALLDATASIZE PUSH1 0x3 NOT ADD SLT PUSH2 0x2AC JUMPI PUSH1 0x1 PUSH1 0x1 PUSH1 0xA0 SHL SUB PUSH2 0xF8B PUSH2 0x3205 JUMP JUMPDEST AND PUSH0 MSTORE PUSH1 0x11 PUSH1 0x20 MSTORE PUSH1 0x20 PUSH1 0x40 PUSH0 KECCAK256 SLOAD PUSH1 0x40 MLOAD SWAP1 DUP2 MSTORE RETURN JUMPDEST CALLVALUE PUSH2 0x2AC JUMPI PUSH1 0x40 CALLDATASIZE PUSH1 0x3 NOT ADD SLT PUSH2 0x2AC JUMPI PUSH2 0xFBB PUSH2 0x3205 JUMP JUMPDEST PUSH1 0x1 PUSH1 0x1 PUSH1 0xA0 SHL SUB AND PUSH0 SWAP1 DUP2 MSTORE PUSH1 0xF PUSH1 0x20 MSTORE PUSH1 0x40 SWAP1 KECCAK256 DUP1 SLOAD PUSH1 0x24 CALLDATALOAD SWAP2 SWAP1 DUP3 LT ISZERO PUSH2 0x2AC JUMPI PUSH1 0x20 SWAP2 PUSH2 0xD3C SWAP2 PUSH2 0x31F0 JUMP JUMPDEST CALLVALUE PUSH2 0x2AC JUMPI PUSH0 CALLDATASIZE PUSH1 0x3 NOT ADD SLT PUSH2 0x2AC JUMPI PUSH2 0x1003 PUSH2 0x3CB6 JUMP JUMPDEST PUSH2 0x100B PUSH2 0x39B8 JUMP JUMPDEST PUSH1 0x1 PUSH1 0xFF NOT PUSH1 0x3 SLOAD AND OR PUSH1 0x3 SSTORE PUSH32 0x62E78CEA01BEE320CD4E420270B5EA74000D11B0C9F74754EBDBFC544B05A258 PUSH1 0x20 PUSH1 0x40 MLOAD CALLER DUP2 MSTORE LOG1 STOP JUMPDEST CALLVALUE PUSH2 0x2AC JUMPI PUSH1 0x40 CALLDATASIZE PUSH1 0x3 NOT ADD SLT PUSH2 0x2AC JUMPI PUSH1 0x4 CALLDATALOAD PUSH2 0x1060 PUSH2 0x321B JUMP JUMPDEST SWAP1 PUSH2 0x106E PUSH1 0x4 SLOAD DUP3 LT PUSH2 0x36C5 JUMP JUMPDEST PUSH0 MSTORE PUSH1 0x8 PUSH1 0x20 MSTORE PUSH1 0x40 PUSH0 KECCAK256 SWAP1 PUSH1 0x9 DUP3 ADD SLOAD SWAP1 PUSH2 0x1089 DUP3 PUSH2 0x3986 JUMP JUMPDEST SWAP3 PUSH1 0xB ADD SWAP1 PUSH1 0x1 PUSH1 0x1 PUSH1 0xA0 SHL SUB AND PUSH0 JUMPDEST DUP4 DUP2 LT PUSH2 0x10AE JUMPI PUSH1 0x40 MLOAD DUP1 PUSH2 0x938 DUP8 DUP3 PUSH2 0x34B1 JUMP JUMPDEST PUSH1 0x1 SWAP1 DUP3 PUSH0 MSTORE DUP4 PUSH1 0x20 MSTORE PUSH1 0x40 PUSH0 KECCAK256 DUP2 PUSH0 MSTORE PUSH1 0x20 MSTORE PUSH1 0x40 PUSH0 KECCAK256 SLOAD PUSH2 0x10D1 DUP3 DUP9 PUSH2 0x3660 JUMP JUMPDEST MSTORE ADD PUSH2 0x1099 JUMP JUMPDEST CALLVALUE PUSH2 0x2AC JUMPI PUSH0 CALLDATASIZE PUSH1 0x3 NOT ADD SLT PUSH2 0x2AC JUMPI PUSH1 0x20 PUSH1 0x40 MLOAD PUSH4 0x1E13380 DUP2 MSTORE RETURN JUMPDEST CALLVALUE PUSH2 0x2AC JUMPI PUSH2 0x1104 CALLDATASIZE PUSH2 0x3497 JUMP JUMPDEST SWAP2 PUSH0 MSTORE PUSH1 0xD PUSH1 0x20 MSTORE PUSH1 0x40 PUSH0 KECCAK256 SWAP1 PUSH0 MSTORE PUSH1 0x20 MSTORE PUSH1 0x40 PUSH0 KECCAK256 DUP1 SLOAD SWAP1 DUP2 DUP4 GT PUSH0 EQ PUSH2 0x1257 JUMPI DUP2 JUMPDEST PUSH2 0x1131 DUP4 PUSH2 0x33B3 JUMP JUMPDEST SWAP4 PUSH2 0x113F PUSH1 0x40 MLOAD SWAP6 DUP7 PUSH2 0x333D JUMP JUMPDEST DUP4 DUP6 MSTORE PUSH1 0x1F NOT PUSH2 0x114E DUP6 PUSH2 0x33B3 JUMP JUMPDEST ADD PUSH0 JUMPDEST DUP2 DUP2 LT PUSH2 0x122E JUMPI POP POP DUP1 DUP3 GT ISZERO PUSH2 0x1226 JUMPI PUSH2 0x116B SWAP2 PUSH2 0x3709 JUMP JUMPDEST PUSH0 JUMPDEST DUP4 DUP2 LT PUSH2 0x11D0 JUMPI DUP5 PUSH1 0x40 MLOAD DUP1 SWAP2 PUSH1 0x20 DUP3 ADD PUSH1 0x20 DUP4 MSTORE DUP2 MLOAD DUP1 SWAP2 MSTORE PUSH1 0x20 PUSH1 0x40 DUP5 ADD SWAP3 ADD SWAP1 PUSH0 JUMPDEST DUP2 DUP2 LT PUSH2 0x11A0 JUMPI POP POP POP SUB SWAP1 RETURN JUMPDEST SWAP2 SWAP4 POP SWAP2 PUSH1 0x20 PUSH1 0x60 PUSH1 0x1 SWAP3 PUSH1 0x40 DUP8 MLOAD DUP1 MLOAD DUP4 MSTORE DUP5 DUP2 ADD MLOAD DUP6 DUP5 ADD MSTORE ADD MLOAD PUSH1 0x40 DUP3 ADD MSTORE ADD SWAP5 ADD SWAP2 ADD SWAP2 DUP5 SWAP4 SWAP3 PUSH2 0x1192 JUMP JUMPDEST DUP1 PUSH2 0x11E6 PUSH2 0x11E0 PUSH1 0x1 SWAP4 DUP6 PUSH2 0x3649 JUMP JUMPDEST DUP6 PUSH2 0x34EA JUMP JUMPDEST POP PUSH1 0x2 PUSH1 0x40 MLOAD SWAP2 PUSH2 0x11F6 DUP4 PUSH2 0x3306 JUMP JUMPDEST DUP1 SLOAD DUP4 MSTORE DUP5 DUP2 ADD SLOAD PUSH1 0x20 DUP5 ADD MSTORE ADD SLOAD PUSH1 0x40 DUP3 ADD MSTORE PUSH2 0x1214 DUP3 DUP9 PUSH2 0x3660 JUMP JUMPDEST MSTORE PUSH2 0x121F DUP2 DUP8 PUSH2 0x3660 JUMP JUMPDEST POP ADD PUSH2 0x116D JUMP JUMPDEST POP POP PUSH0 PUSH2 0x116B JUMP JUMPDEST PUSH1 0x20 SWAP1 PUSH1 0x40 MLOAD PUSH2 0x123D DUP2 PUSH2 0x3306 JUMP JUMPDEST PUSH0 DUP2 MSTORE PUSH0 DUP4 DUP3 ADD MSTORE PUSH0 PUSH1 0x40 DUP3 ADD MSTORE DUP3 DUP3 DUP11 ADD ADD MSTORE ADD PUSH2 0x1151 JUMP JUMPDEST DUP3 SWAP2 PUSH2 0x1128 JUMP JUMPDEST CALLVALUE PUSH2 0x2AC JUMPI PUSH0 CALLDATASIZE PUSH1 0x3 NOT ADD SLT PUSH2 0x2AC JUMPI PUSH1 0x20 PUSH1 0x40 MLOAD PUSH32 0xEF485BE696BBC0C91AD541BBD553FFB5BD0E18DAC30BA76E992DDA23CB807A8A DUP2 MSTORE RETURN JUMPDEST CALLVALUE PUSH2 0x2AC JUMPI PUSH0 CALLDATASIZE PUSH1 0x3 NOT ADD SLT PUSH2 0x2AC JUMPI PUSH1 0x20 PUSH1 0x40 MLOAD PUSH32 0xDCEE1D35C83A32B436264A5C9AFD68685C124F3F9097E87804C55410E67FC59A DUP2 MSTORE RETURN JUMPDEST CALLVALUE PUSH2 0x2AC JUMPI PUSH2 0x12E0 CALLDATASIZE PUSH2 0x32BA JUMP JUMPDEST PUSH1 0x12 SLOAD SWAP1 DUP2 DUP4 LT ISZERO PUSH2 0x14D2 JUMPI DUP2 PUSH2 0x12F7 DUP3 DUP6 PUSH2 0x3649 JUMP JUMPDEST GT ISZERO PUSH2 0x14C2 JUMPI POP JUMPDEST PUSH2 0x1309 DUP3 DUP3 PUSH2 0x3709 JUMP JUMPDEST SWAP2 PUSH2 0x1313 DUP4 PUSH2 0x33B3 JUMP JUMPDEST SWAP3 PUSH2 0x1321 PUSH1 0x40 MLOAD SWAP5 DUP6 PUSH2 0x333D JUMP JUMPDEST DUP1 DUP5 MSTORE PUSH2 0x1330 PUSH1 0x1F NOT SWAP2 PUSH2 0x33B3 JUMP JUMPDEST ADD PUSH0 JUMPDEST DUP2 DUP2 LT PUSH2 0x14AB JUMPI POP POP DUP1 JUMPDEST DUP3 DUP2 LT PUSH2 0x13BB JUMPI DUP4 PUSH1 0x40 MLOAD DUP1 SWAP2 PUSH1 0x20 DUP3 ADD PUSH1 0x20 DUP4 MSTORE DUP2 MLOAD DUP1 SWAP2 MSTORE PUSH1 0x20 PUSH1 0x40 DUP5 ADD SWAP3 ADD SWAP1 PUSH0 JUMPDEST DUP2 DUP2 LT PUSH2 0x1371 JUMPI POP POP POP SUB SWAP1 RETURN JUMPDEST SWAP2 SWAP4 POP SWAP2 PUSH1 0x20 PUSH1 0xA0 PUSH1 0x1 SWAP3 PUSH1 0x80 DUP8 MLOAD DUP6 DUP1 DUP6 SHL SUB DUP2 MLOAD AND DUP4 MSTORE DUP5 DUP2 ADD MLOAD DUP6 DUP5 ADD MSTORE PUSH1 0x40 DUP2 ADD MLOAD PUSH1 0x40 DUP5 ADD MSTORE PUSH1 0x60 DUP2 ADD MLOAD PUSH1 0x60 DUP5 ADD MSTORE ADD MLOAD PUSH1 0x80 DUP3 ADD MSTORE ADD SWAP5 ADD SWAP2 ADD SWAP2 DUP5 SWAP4 SWAP3 PUSH2 0x1363 JUMP JUMPDEST PUSH2 0x13C4 DUP2 PUSH2 0x31C4 JUMP JUMPDEST PUSH1 0x1 DUP1 PUSH1 0xA0 SHL SUB SWAP2 SLOAD SWAP1 PUSH1 0x3 SHL SHR AND SWAP1 DUP2 PUSH0 MSTORE PUSH1 0xA PUSH1 0x20 MSTORE PUSH1 0x40 PUSH0 KECCAK256 SWAP2 PUSH1 0x40 MLOAD SWAP1 PUSH2 0x13EE DUP3 PUSH2 0x32D0 JUMP JUMPDEST DUP4 SLOAD DUP3 MSTORE PUSH1 0x1 DUP5 ADD SLOAD SWAP2 PUSH1 0x4 PUSH1 0x20 DUP3 ADD SWAP6 DUP5 DUP8 MSTORE PUSH1 0x2 DUP2 ADD SLOAD PUSH1 0x40 DUP5 ADD MSTORE PUSH1 0x3 DUP2 ADD SLOAD PUSH1 0x60 DUP5 ADD MSTORE ADD SLOAD SWAP5 PUSH1 0x80 DUP3 ADD SWAP6 DUP1 DUP8 MSTORE ISZERO ISZERO PUSH0 EQ PUSH2 0x149C JUMPI PUSH1 0x64 DUP5 MUL SWAP4 DUP1 DUP6 DIV PUSH1 0x64 EQ SWAP1 ISZERO OR ISZERO PUSH2 0x726 JUMPI PUSH1 0x1 SWAP6 PUSH2 0x144E PUSH2 0x1495 SWAP6 DUP5 MLOAD SWAP1 PUSH2 0x3656 JUMP JUMPDEST SWAP2 JUMPDEST MLOAD SWAP3 MLOAD SWAP1 MLOAD SWAP3 PUSH1 0x40 MLOAD SWAP5 PUSH2 0x1463 DUP7 PUSH2 0x32D0 JUMP JUMPDEST DUP6 MSTORE PUSH1 0x20 DUP6 ADD MSTORE PUSH1 0x40 DUP5 ADD MSTORE PUSH1 0x60 DUP4 ADD MSTORE PUSH1 0x80 DUP3 ADD MSTORE PUSH2 0x1483 DUP6 DUP5 PUSH2 0x3709 JUMP JUMPDEST SWAP1 PUSH2 0x148E DUP3 DUP10 PUSH2 0x3660 JUMP JUMPDEST MSTORE DUP7 PUSH2 0x3660 JUMP JUMPDEST POP ADD PUSH2 0x133E JUMP JUMPDEST PUSH2 0x1495 SWAP4 POP PUSH1 0x1 SWAP6 PUSH0 SWAP2 PUSH2 0x1450 JUMP JUMPDEST PUSH1 0x20 SWAP1 PUSH2 0x14B6 PUSH2 0x3611 JUMP JUMPDEST DUP3 DUP3 DUP9 ADD ADD MSTORE ADD PUSH2 0x1333 JUMP JUMPDEST PUSH2 0x14CD SWAP2 POP DUP3 PUSH2 0x3649 JUMP JUMPDEST PUSH2 0x12FF JUMP JUMPDEST PUSH1 0x40 MLOAD PUSH3 0x461BCD PUSH1 0xE5 SHL DUP2 MSTORE PUSH1 0x20 PUSH1 0x4 DUP3 ADD MSTORE PUSH1 0x19 PUSH1 0x24 DUP3 ADD MSTORE PUSH32 0x537461727420696E646578206F7574206F6620626F756E647300000000000000 PUSH1 0x44 DUP3 ADD MSTORE PUSH1 0x64 SWAP1 REVERT JUMPDEST CALLVALUE PUSH2 0x2AC JUMPI PUSH0 CALLDATASIZE PUSH1 0x3 NOT ADD SLT PUSH2 0x2AC JUMPI PUSH2 0x152F PUSH2 0x3CB6 JUMP JUMPDEST PUSH0 DUP1 SLOAD PUSH1 0x1 PUSH1 0x1 PUSH1 0xA0 SHL SUB NOT DUP2 AND DUP3 SSTORE PUSH1 0x1 PUSH1 0x1 PUSH1 0xA0 SHL SUB AND PUSH32 0x8BE0079C531659141344CD1FD0A4F28419497F9722A3DAAFE3B4186F6B6457E0 DUP3 DUP1 LOG3 STOP JUMPDEST CALLVALUE PUSH2 0x2AC JUMPI PUSH1 0x20 CALLDATASIZE PUSH1 0x3 NOT ADD SLT PUSH2 0x2AC JUMPI PUSH2 0x8DF PUSH2 0x158A PUSH2 0x3205 JUMP JUMPDEST PUSH2 0x1592 PUSH2 0x3CB6 JUMP JUMPDEST PUSH32 0xEF485BE696BBC0C91AD541BBD553FFB5BD0E18DAC30BA76E992DDA23CB807A8A PUSH0 MSTORE PUSH1 0x2 PUSH1 0x20 MSTORE PUSH32 0x30D995518B427F5A5863AD73FE356CA50CF70941F42C516830919C845FA58070 SLOAD PUSH2 0x15E5 SWAP1 PUSH2 0x39D3 JUMP JUMPDEST PUSH2 0x3ACB JUMP JUMPDEST CALLVALUE PUSH2 0x2AC JUMPI PUSH1 0x20 CALLDATASIZE PUSH1 0x3 NOT ADD SLT PUSH2 0x2AC JUMPI PUSH1 0x4 CALLDATALOAD PUSH2 0x1606 PUSH2 0x3D60 JUMP JUMPDEST PUSH2 0x1613 PUSH1 0x4 SLOAD DUP3 LT PUSH2 0x36C5 JUMP JUMPDEST DUP1 PUSH0 MSTORE PUSH1 0x8 PUSH1 0x20 MSTORE PUSH1 0x40 PUSH0 KECCAK256 SWAP1 PUSH1 0x5 DUP3 ADD SLOAD PUSH1 0xFF DUP2 AND SWAP1 DUP2 PUSH2 0x18A7 JUMPI JUMPDEST POP ISZERO PUSH2 0x1862 JUMPI PUSH1 0xC DUP3 ADD SWAP2 PUSH1 0x1 DUP1 PUSH1 0xA0 SHL SUB CALLER AND PUSH0 MSTORE DUP3 PUSH1 0x20 MSTORE PUSH1 0xFF PUSH1 0x40 PUSH0 KECCAK256 SLOAD AND PUSH2 0x182B JUMPI CALLER PUSH0 SWAP1 DUP2 MSTORE PUSH1 0xB DUP3 ADD PUSH1 0x20 SWAP1 DUP2 MSTORE PUSH1 0x40 DUP1 DUP4 KECCAK256 PUSH1 0x4 DUP6 ADD SLOAD DUP1 DUP6 MSTORE SWAP3 MSTORE SWAP1 SWAP2 KECCAK256 SLOAD SWAP1 DUP2 ISZERO PUSH2 0x17F2 JUMPI DUP3 PUSH2 0x16F3 PUSH2 0x16F8 SWAP3 PUSH1 0xA PUSH2 0x16FE SWAP7 ADD DUP2 PUSH0 MSTORE DUP1 PUSH1 0x20 MSTORE PUSH2 0x16CC PUSH1 0x6 PUSH1 0x2 PUSH1 0x40 PUSH0 KECCAK256 ADD SLOAD SWAP6 ADD SLOAD DUP4 PUSH0 MSTORE DUP3 PUSH1 0x20 MSTORE PUSH8 0xDE0B6B3A7640000 PUSH2 0x16C5 PUSH1 0x4 PUSH1 0x40 PUSH0 KECCAK256 ADD SLOAD DUP9 PUSH2 0x386A JUMP JUMPDEST DIV SWAP1 PUSH2 0x3709 JUMP JUMPDEST SWAP2 PUSH0 MSTORE PUSH1 0x20 MSTORE PUSH8 0xDE0B6B3A7640000 PUSH2 0x16EC PUSH1 0x4 PUSH1 0x40 PUSH0 KECCAK256 ADD SLOAD DUP8 PUSH2 0x386A JUMP JUMPDEST DIV SWAP5 PUSH2 0x386A JUMP JUMPDEST PUSH2 0x3656 JUMP JUMPDEST SWAP1 PUSH2 0x3649 JUMP JUMPDEST SWAP2 PUSH1 0x1 DUP1 PUSH1 0xA0 SHL SUB CALLER AND PUSH0 MSTORE PUSH1 0x20 MSTORE PUSH1 0x40 PUSH0 KECCAK256 PUSH1 0x1 PUSH1 0xFF NOT DUP3 SLOAD AND OR SWAP1 SSTORE CALLER PUSH0 MSTORE PUSH1 0xA PUSH1 0x20 MSTORE PUSH1 0x1 PUSH1 0x40 PUSH0 KECCAK256 ADD PUSH2 0x1736 DUP4 DUP3 SLOAD PUSH2 0x3649 JUMP JUMPDEST SWAP1 SSTORE CALLER PUSH0 MSTORE PUSH1 0x11 PUSH1 0x20 MSTORE PUSH1 0x40 PUSH0 KECCAK256 PUSH2 0x174F DUP4 DUP3 SLOAD PUSH2 0x3649 JUMP JUMPDEST SWAP1 SSTORE PUSH1 0x3 SLOAD PUSH1 0x40 MLOAD PUSH4 0xA9059CBB PUSH1 0xE0 SHL DUP2 MSTORE CALLER PUSH1 0x4 DUP3 ADD MSTORE PUSH1 0x24 DUP2 ADD DUP5 SWAP1 MSTORE SWAP1 PUSH1 0x20 SWAP1 DUP3 SWAP1 PUSH1 0x8 SHR PUSH1 0x1 PUSH1 0x1 PUSH1 0xA0 SHL SUB AND DUP2 PUSH0 DUP2 PUSH1 0x44 DUP2 ADD SUB SWAP3 GAS CALL DUP1 ISZERO PUSH2 0x81F JUMPI PUSH2 0x17A1 SWAP2 PUSH0 SWAP2 PUSH2 0x17D3 JUMPI POP PUSH2 0x3948 JUMP JUMPDEST PUSH1 0x40 MLOAD SWAP2 DUP3 MSTORE PUSH32 0x4EC90E965519D92681267467F775ADA5BD214AA92C0DC93D90A5E880CE9ED026 PUSH1 0x20 CALLER SWAP4 LOG3 PUSH1 0x1 DUP1 SSTORE STOP JUMPDEST PUSH2 0x17EC SWAP2 POP PUSH1 0x20 RETURNDATASIZE PUSH1 0x20 GT PUSH2 0x818 JUMPI PUSH2 0x80A DUP2 DUP4 PUSH2 0x333D JUMP JUMPDEST DUP5 PUSH2 0x4C4 JUMP JUMPDEST PUSH1 0x40 MLOAD PUSH3 0x461BCD PUSH1 0xE5 SHL DUP2 MSTORE PUSH1 0x20 PUSH1 0x4 DUP3 ADD MSTORE PUSH1 0x11 PUSH1 0x24 DUP3 ADD MSTORE PUSH17 0x4E6F2077696E6E696E6720736861726573 PUSH1 0x78 SHL PUSH1 0x44 DUP3 ADD MSTORE PUSH1 0x64 SWAP1 REVERT JUMPDEST PUSH1 0x40 MLOAD PUSH3 0x461BCD PUSH1 0xE5 SHL DUP2 MSTORE PUSH1 0x20 PUSH1 0x4 DUP3 ADD MSTORE PUSH1 0xF PUSH1 0x24 DUP3 ADD MSTORE PUSH15 0x105B1C9958591E4818DB185A5B5959 PUSH1 0x8A SHL PUSH1 0x44 DUP3 ADD MSTORE PUSH1 0x64 SWAP1 REVERT JUMPDEST PUSH1 0x40 MLOAD PUSH3 0x461BCD PUSH1 0xE5 SHL DUP2 MSTORE PUSH1 0x20 PUSH1 0x4 DUP3 ADD MSTORE PUSH1 0x1B PUSH1 0x24 DUP3 ADD MSTORE PUSH32 0x4D61726B6574206E6F7420726561647920666F7220636C61696D730000000000 PUSH1 0x44 DUP3 ADD MSTORE PUSH1 0x64 SWAP1 REVERT JUMPDEST PUSH1 0xFF SWAP2 POP PUSH1 0x8 SHR AND ISZERO DUP4 PUSH2 0x1630 JUMP JUMPDEST CALLVALUE PUSH2 0x2AC JUMPI PUSH2 0x18C4 CALLDATASIZE PUSH2 0x32BA JUMP JUMPDEST PUSH2 0x18D1 PUSH1 0x4 SLOAD DUP4 LT PUSH2 0x36C5 JUMP JUMPDEST PUSH0 SLOAD PUSH1 0x1 PUSH1 0x1 PUSH1 0xA0 SHL SUB AND CALLER EQ DUP1 ISZERO PUSH2 0x1A36 JUMPI JUMPDEST ISZERO PUSH2 0x19E7 JUMPI DUP2 PUSH0 MSTORE PUSH1 0x8 PUSH1 0x20 MSTORE PUSH1 0x40 PUSH0 KECCAK256 SWAP1 PUSH1 0x2 DUP3 ADD SLOAD TIMESTAMP LT PUSH2 0x19A2 JUMPI PUSH1 0x5 DUP3 ADD SWAP1 DUP2 SLOAD SWAP2 PUSH2 0x1917 PUSH1 0xFF DUP5 AND ISZERO PUSH2 0x3755 JUMP JUMPDEST PUSH1 0x9 DUP5 ADD SLOAD DUP3 LT ISZERO PUSH2 0x1964 JUMPI PUSH1 0x1 PUSH1 0x40 SWAP4 DUP4 PUSH1 0x4 PUSH32 0xC160A477581CB2155B1578581D805DCC0E6623403811FC2853465045BC0B0492 SWAP8 ADD SSTORE PUSH1 0xFF NOT AND OR SWAP1 SSTORE DUP2 MLOAD SWAP1 DUP2 MSTORE CALLER PUSH1 0x20 DUP3 ADD MSTORE LOG2 STOP JUMPDEST PUSH1 0x40 MLOAD PUSH3 0x461BCD PUSH1 0xE5 SHL DUP2 MSTORE PUSH1 0x20 PUSH1 0x4 DUP3 ADD MSTORE PUSH1 0x16 PUSH1 0x24 DUP3 ADD MSTORE PUSH22 0x24B73B30B634B2103BB4B73734B7339037B83A34B7B7 PUSH1 0x51 SHL PUSH1 0x44 DUP3 ADD MSTORE PUSH1 0x64 SWAP1 REVERT JUMPDEST PUSH1 0x40 MLOAD PUSH3 0x461BCD PUSH1 0xE5 SHL DUP2 MSTORE PUSH1 0x20 PUSH1 0x4 DUP3 ADD MSTORE PUSH1 0x18 PUSH1 0x24 DUP3 ADD MSTORE PUSH32 0x4D61726B657420686173206E6F7420656E646564207965740000000000000000 PUSH1 0x44 DUP3 ADD MSTORE PUSH1 0x64 SWAP1 REVERT JUMPDEST PUSH1 0x40 MLOAD PUSH3 0x461BCD PUSH1 0xE5 SHL DUP2 MSTORE PUSH1 0x20 PUSH1 0x4 DUP3 ADD MSTORE PUSH1 0x21 PUSH1 0x24 DUP3 ADD MSTORE PUSH32 0x4E6F7420617574686F72697A656420746F207265736F6C7665206D61726B6574 PUSH1 0x44 DUP3 ADD MSTORE PUSH1 0x73 PUSH1 0xF8 SHL PUSH1 0x64 DUP3 ADD MSTORE PUSH1 0x84 SWAP1 REVERT JUMPDEST POP CALLER PUSH0 SWAP1 DUP2 MSTORE PUSH32 0x8E2C297E756B2A427C5DC4607F639842A8EA6E0F6322302F4EA76306B642CFC2 PUSH1 0x20 MSTORE PUSH1 0x40 SWAP1 KECCAK256 SLOAD PUSH1 0xFF AND PUSH2 0x18E5 JUMP JUMPDEST CALLVALUE PUSH2 0x2AC JUMPI PUSH0 CALLDATASIZE PUSH1 0x3 NOT ADD SLT PUSH2 0x2AC JUMPI PUSH1 0x20 PUSH1 0xFF PUSH1 0x3 SLOAD AND PUSH1 0x40 MLOAD SWAP1 ISZERO ISZERO DUP2 MSTORE RETURN JUMPDEST CALLVALUE PUSH2 0x2AC JUMPI PUSH2 0x1A9D CALLDATASIZE PUSH2 0x3479 JUMP JUMPDEST PUSH2 0x1AA5 PUSH2 0x3D60 JUMP JUMPDEST PUSH2 0x1AAD PUSH2 0x39B8 JUMP JUMPDEST PUSH2 0x1ABA PUSH1 0x4 SLOAD DUP6 LT PUSH2 0x36C5 JUMP JUMPDEST DUP4 PUSH0 MSTORE PUSH1 0x8 PUSH1 0x20 MSTORE PUSH2 0x1AD4 PUSH1 0x2 PUSH1 0x40 PUSH0 KECCAK256 ADD SLOAD TIMESTAMP LT PUSH2 0x3716 JUMP JUMPDEST DUP4 PUSH0 MSTORE PUSH1 0x8 PUSH1 0x20 MSTORE PUSH2 0x1AF0 PUSH1 0xFF PUSH1 0x5 PUSH1 0x40 PUSH0 KECCAK256 ADD SLOAD AND ISZERO PUSH2 0x3755 JUMP JUMPDEST DUP4 PUSH0 MSTORE PUSH1 0x8 PUSH1 0x20 MSTORE PUSH2 0x1B0A PUSH1 0x9 PUSH1 0x40 PUSH0 KECCAK256 ADD SLOAD DUP5 LT PUSH2 0x37A1 JUMP JUMPDEST DUP4 PUSH0 MSTORE PUSH1 0x8 PUSH1 0x20 MSTORE PUSH1 0xA PUSH1 0x40 PUSH0 KECCAK256 ADD DUP4 PUSH0 MSTORE PUSH1 0x20 MSTORE PUSH2 0x1B32 PUSH1 0xFF PUSH1 0x5 PUSH1 0x40 PUSH0 KECCAK256 ADD SLOAD AND PUSH2 0x37DE JUMP JUMPDEST PUSH2 0x1B3D DUP3 ISZERO ISZERO PUSH2 0x381E JUMP JUMPDEST PUSH0 DUP5 DUP2 MSTORE PUSH1 0x8 PUSH1 0x20 SWAP1 DUP2 MSTORE PUSH1 0x40 DUP1 DUP4 KECCAK256 CALLER DUP5 MSTORE PUSH1 0xB ADD DUP3 MSTORE DUP1 DUP4 KECCAK256 DUP7 DUP5 MSTORE SWAP1 SWAP2 MSTORE SWAP1 KECCAK256 SLOAD DUP3 GT PUSH2 0x1F21 JUMPI PUSH0 DUP5 DUP2 MSTORE PUSH1 0x8 PUSH1 0x20 SWAP1 DUP2 MSTORE PUSH1 0x40 DUP1 DUP4 KECCAK256 DUP7 DUP5 MSTORE PUSH1 0xA DUP2 ADD SWAP1 SWAP3 MSTORE SWAP1 SWAP2 KECCAK256 PUSH1 0x4 DUP2 ADD SLOAD SWAP1 SWAP5 SWAP2 SWAP3 SWAP2 SWAP1 SWAP2 DUP3 LT PUSH2 0x1EEC JUMPI PUSH8 0xDE0B6B3A7640000 PUSH2 0x1BA9 DUP6 DUP5 PUSH2 0x386A JUMP JUMPDEST DIV SWAP5 PUSH2 0x2710 PUSH2 0x1BBA PUSH1 0x7 SLOAD DUP9 PUSH2 0x386A JUMP JUMPDEST DIV SWAP4 PUSH1 0xF PUSH2 0x1BC8 DUP7 DUP10 PUSH2 0x3709 JUMP JUMPDEST SWAP2 PUSH1 0x1 DUP1 PUSH1 0xA0 SHL SUB CALLER AND PUSH0 MSTORE PUSH1 0xB DUP2 ADD PUSH1 0x20 MSTORE PUSH1 0x40 PUSH0 KECCAK256 DUP6 PUSH0 MSTORE PUSH1 0x20 MSTORE PUSH1 0x40 PUSH0 KECCAK256 PUSH2 0x1BF4 DUP10 DUP3 SLOAD PUSH2 0x3709 JUMP JUMPDEST SWAP1 SSTORE PUSH1 0x2 DUP5 ADD PUSH2 0x1C05 DUP10 DUP3 SLOAD PUSH2 0x3709 JUMP JUMPDEST SWAP1 SSTORE PUSH1 0x3 DUP5 ADD PUSH2 0x1C16 DUP11 DUP3 SLOAD PUSH2 0x3649 JUMP JUMPDEST SWAP1 SSTORE PUSH1 0x7 DUP2 ADD PUSH2 0x1C27 DUP11 DUP3 SLOAD PUSH2 0x3649 JUMP JUMPDEST SWAP1 SSTORE ADD PUSH2 0x1C35 DUP7 DUP3 SLOAD PUSH2 0x3649 JUMP JUMPDEST SWAP1 SSTORE DUP8 PUSH0 MSTORE PUSH1 0x8 PUSH1 0x20 MSTORE PUSH1 0xA PUSH1 0x40 PUSH0 KECCAK256 ADD DUP4 PUSH0 MSTORE PUSH1 0x20 MSTORE PUSH1 0x40 PUSH0 KECCAK256 PUSH1 0x2 DUP2 ADD SLOAD SWAP1 PUSH8 0xDE0B6B3A7640000 DUP9 MUL SWAP2 DUP9 DUP4 DIV PUSH8 0xDE0B6B3A7640000 EQ DUP10 ISZERO OR ISZERO PUSH2 0x726 JUMPI PUSH2 0x3E8 DUP2 ADD DUP1 SWAP2 GT PUSH2 0x726 JUMPI PUSH2 0x1C91 PUSH1 0x4 SWAP4 SWAP2 DUP5 SWAP3 PUSH2 0x3656 JUMP JUMPDEST SWAP2 ADD SLOAD SWAP1 DUP1 DUP3 GT ISZERO PUSH2 0x1EE2 JUMPI PUSH2 0x1CA6 SWAP2 PUSH2 0x3709 JUMP JUMPDEST SWAP3 JUMPDEST ADD SWAP2 DUP3 SSTORE PUSH8 0xDE0B6B3A7640000 PUSH2 0x1CBF DUP8 DUP7 PUSH2 0x386A JUMP JUMPDEST DIV SWAP1 PUSH0 DUP3 DUP3 SUB SWAP3 SLT DUP2 DUP4 SLT DUP2 AND SWAP1 DUP3 DUP5 SGT SWAP1 ISZERO AND OR PUSH2 0x726 JUMPI CALLER PUSH0 MSTORE PUSH1 0xA PUSH1 0x20 MSTORE PUSH1 0x3 PUSH1 0x40 PUSH0 KECCAK256 ADD DUP1 SLOAD PUSH0 DUP5 DUP3 ADD SWAP5 DUP6 SLT SWAP2 SLT SWAP1 DUP1 ISZERO DUP3 AND SWAP2 ISZERO AND OR PUSH2 0x726 JUMPI PUSH0 SWAP9 PUSH1 0x20 SWAP5 PUSH2 0x1DF9 SWAP5 PUSH2 0x1D5C SWAP4 SSTORE CALLER DUP12 MSTORE PUSH1 0xA DUP7 MSTORE PUSH1 0x4 PUSH1 0x40 DUP13 KECCAK256 ADD PUSH2 0x1D25 DUP2 SLOAD PUSH2 0x363B JUMP JUMPDEST SWAP1 SSTORE DUP12 DUP12 MSTORE PUSH1 0xD DUP7 MSTORE PUSH1 0x40 DUP12 KECCAK256 DUP8 DUP13 MSTORE DUP7 MSTORE PUSH1 0x40 DUP12 KECCAK256 SWAP1 SLOAD SWAP2 PUSH1 0x40 MLOAD SWAP3 PUSH2 0x1D4B DUP5 PUSH2 0x3306 JUMP JUMPDEST DUP4 MSTORE TIMESTAMP DUP8 DUP5 ADD MSTORE PUSH1 0x40 DUP4 ADD MSTORE PUSH2 0x3674 JUMP JUMPDEST PUSH2 0x1DBB PUSH1 0x40 MLOAD PUSH2 0x1D6B DUP2 PUSH2 0x3321 JUMP JUMPDEST DUP11 DUP2 MSTORE DUP6 DUP6 DUP3 ADD MSTORE DUP10 PUSH1 0x40 DUP3 ADD MSTORE CALLER PUSH1 0x60 DUP3 ADD MSTORE DUP7 PUSH1 0x80 DUP3 ADD MSTORE DUP9 PUSH1 0xA0 DUP3 ADD MSTORE TIMESTAMP PUSH1 0xC0 DUP3 ADD MSTORE DUP10 PUSH1 0xE0 DUP3 ADD MSTORE CALLER DUP11 MSTORE PUSH1 0xB DUP6 MSTORE PUSH2 0x1DAB DUP2 PUSH1 0x40 DUP13 KECCAK256 PUSH2 0x387D JUMP JUMPDEST DUP11 DUP11 MSTORE PUSH1 0xC DUP6 MSTORE PUSH1 0x40 DUP11 KECCAK256 PUSH2 0x387D JUMP JUMPDEST PUSH1 0x3 SLOAD PUSH1 0x40 MLOAD PUSH4 0xA9059CBB PUSH1 0xE0 SHL DUP2 MSTORE CALLER PUSH1 0x4 DUP3 ADD MSTORE PUSH1 0x24 DUP2 ADD SWAP3 SWAP1 SWAP3 MSTORE SWAP1 SWAP8 DUP9 SWAP3 PUSH1 0x8 SWAP3 SWAP1 SWAP3 SHR PUSH1 0x1 PUSH1 0x1 PUSH1 0xA0 SHL SUB AND SWAP2 DUP4 SWAP2 SWAP1 DUP3 SWAP1 PUSH1 0x44 DUP3 ADD SWAP1 JUMP JUMPDEST SUB SWAP3 GAS CALL SWAP4 DUP5 ISZERO PUSH2 0x81F JUMPI PUSH32 0x976184626638B6C7E51A4AB66B297BEB1714B545CE4E867A70D622566573098C PUSH1 0x80 PUSH0 SWAP5 DUP10 SWAP4 PUSH2 0x1E5F PUSH1 0x20 SWAP10 PUSH32 0xAF7C505EE772EC188AF7067E1F73DB08AB028E3D564273442B907742B9C41FA0 SWAP12 DUP10 SWAP2 PUSH2 0x1EC5 JUMPI POP PUSH2 0x3948 JUMP JUMPDEST PUSH1 0x40 MLOAD DUP2 DUP2 MSTORE DUP3 DUP11 DUP3 ADD MSTORE DUP7 DUP7 PUSH32 0x33C49DA1FF633FF516CC2661D0CD94AF11B7B76985B6FE549151782C14DB745A PUSH1 0x40 CALLER SWAP5 LOG4 PUSH1 0x6 SLOAD SWAP1 PUSH2 0x1E9F DUP3 PUSH2 0x363B JUMP JUMPDEST PUSH1 0x6 SSTORE PUSH1 0x40 MLOAD SWAP3 CALLER DUP5 MSTORE DUP11 DUP5 ADD MSTORE PUSH1 0x40 DUP4 ADD MSTORE PUSH1 0x60 DUP3 ADD MSTORE LOG4 PUSH1 0x40 MLOAD SWAP1 DUP2 MSTORE LOG2 PUSH1 0x1 DUP1 SSTORE STOP JUMPDEST PUSH2 0x1EDC SWAP2 POP DUP12 RETURNDATASIZE DUP14 GT PUSH2 0x818 JUMPI PUSH2 0x80A DUP2 DUP4 PUSH2 0x333D JUMP JUMPDEST DUP14 PUSH2 0x4C4 JUMP JUMPDEST POP PUSH1 0x1 SHR SWAP3 PUSH2 0x1CA8 JUMP JUMPDEST PUSH1 0x40 MLOAD PUSH3 0x461BCD PUSH1 0xE5 SHL DUP2 MSTORE PUSH1 0x20 PUSH1 0x4 DUP3 ADD MSTORE PUSH1 0xD PUSH1 0x24 DUP3 ADD MSTORE PUSH13 0x507269636520746F6F206C6F77 PUSH1 0x98 SHL PUSH1 0x44 DUP3 ADD MSTORE PUSH1 0x64 SWAP1 REVERT JUMPDEST PUSH1 0x40 MLOAD PUSH3 0x461BCD PUSH1 0xE5 SHL DUP2 MSTORE PUSH1 0x20 PUSH1 0x4 DUP3 ADD MSTORE PUSH1 0x13 PUSH1 0x24 DUP3 ADD MSTORE PUSH19 0x496E73756666696369656E7420736861726573 PUSH1 0x68 SHL PUSH1 0x44 DUP3 ADD MSTORE PUSH1 0x64 SWAP1 REVERT JUMPDEST CALLVALUE PUSH2 0x2AC JUMPI PUSH1 0x20 CALLDATASIZE PUSH1 0x3 NOT ADD SLT PUSH2 0x2AC JUMPI PUSH1 0x4 CALLDATALOAD PUSH0 PUSH1 0xA0 PUSH1 0x40 MLOAD PUSH2 0x1F7F DUP2 PUSH2 0x32EB JUMP JUMPDEST DUP3 DUP2 MSTORE DUP3 PUSH1 0x20 DUP3 ADD MSTORE DUP3 PUSH1 0x40 DUP3 ADD MSTORE DUP3 PUSH1 0x60 DUP3 ADD MSTORE DUP3 PUSH1 0x80 DUP3 ADD MSTORE ADD MSTORE PUSH2 0x1FA9 PUSH1 0x4 SLOAD DUP3 LT PUSH2 0x36C5 JUMP JUMPDEST DUP1 PUSH0 MSTORE PUSH1 0x8 PUSH1 0x20 MSTORE PUSH1 0x40 PUSH0 KECCAK256 PUSH0 DUP1 PUSH1 0x9 DUP4 ADD SLOAD SWAP2 PUSH1 0xA DUP5 ADD JUMPDEST DUP4 DUP3 LT PUSH2 0x20CF JUMPI POP POP SWAP1 PUSH2 0x1FD5 SWAP2 PUSH2 0x3656 JUMP JUMPDEST PUSH1 0xD PUSH1 0x7 DUP4 ADD SLOAD SWAP3 ADD SLOAD DUP4 PUSH0 MSTORE PUSH1 0xC PUSH1 0x20 MSTORE PUSH1 0x40 PUSH0 KECCAK256 SLOAD ISZERO ISZERO PUSH0 EQ PUSH2 0x20C8 JUMPI PUSH0 DUP5 DUP2 MSTORE PUSH1 0xC PUSH1 0x20 MSTORE PUSH1 0x40 SWAP1 KECCAK256 DUP1 SLOAD PUSH0 NOT DUP2 ADD SWAP2 SWAP1 DUP3 GT PUSH2 0x726 JUMPI PUSH1 0x4 SWAP2 PUSH2 0x201B SWAP2 PUSH2 0x3231 JUMP JUMPDEST POP ADD SLOAD SWAP1 JUMPDEST PUSH0 DUP6 DUP2 MSTORE PUSH1 0xC PUSH1 0x20 MSTORE PUSH1 0x40 SWAP1 KECCAK256 SLOAD ISZERO PUSH2 0x20BD JUMPI PUSH0 SWAP5 DUP6 MSTORE PUSH1 0xC PUSH1 0x20 MSTORE PUSH1 0x40 SWAP1 SWAP5 KECCAK256 DUP1 SLOAD SWAP1 SWAP5 SWAP1 PUSH0 NOT DUP2 ADD SWAP1 DUP2 GT PUSH2 0x726 JUMPI PUSH2 0x205F PUSH1 0x6 SWAP2 PUSH1 0xC0 SWAP8 PUSH2 0x3231 JUMP JUMPDEST POP ADD SLOAD SWAP3 JUMPDEST PUSH1 0x40 MLOAD SWAP2 PUSH2 0x2071 DUP4 PUSH2 0x32EB JUMP JUMPDEST DUP6 DUP4 MSTORE PUSH1 0x20 DUP4 ADD SWAP1 DUP2 MSTORE PUSH1 0x40 DUP4 ADD SWAP2 DUP3 MSTORE PUSH1 0xA0 PUSH1 0x60 DUP5 ADD SWAP4 PUSH0 DUP6 MSTORE PUSH1 0x80 DUP2 ADD SWAP6 DUP7 MSTORE ADD SWAP5 DUP6 MSTORE PUSH1 0x40 MLOAD SWAP6 DUP7 MSTORE MLOAD PUSH1 0x20 DUP7 ADD MSTORE MLOAD PUSH1 0x40 DUP6 ADD MSTORE MLOAD PUSH1 0x60 DUP5 ADD MSTORE MLOAD PUSH1 0x80 DUP4 ADD MSTORE MLOAD PUSH1 0xA0 DUP3 ADD MSTORE RETURN JUMPDEST PUSH1 0xC0 SWAP5 POP PUSH0 SWAP3 PUSH2 0x2064 JUMP JUMPDEST PUSH0 SWAP1 PUSH2 0x2020 JUMP JUMPDEST SWAP1 SWAP2 PUSH2 0x20EC PUSH1 0x1 SWAP2 DUP5 PUSH0 MSTORE DUP4 PUSH1 0x20 MSTORE PUSH1 0x4 PUSH1 0x40 PUSH0 KECCAK256 ADD SLOAD SWAP1 PUSH2 0x3649 JUMP JUMPDEST SWAP3 ADD SWAP1 PUSH2 0x1FC2 JUMP JUMPDEST CALLVALUE PUSH2 0x2AC JUMPI PUSH1 0x40 CALLDATASIZE PUSH1 0x3 NOT ADD SLT PUSH2 0x2AC JUMPI PUSH1 0x4 CALLDATALOAD PUSH1 0x24 CALLDATALOAD PUSH1 0x1 PUSH1 0x1 PUSH1 0x40 SHL SUB DUP2 GT PUSH2 0x2AC JUMPI PUSH2 0x2127 SWAP1 CALLDATASIZE SWAP1 PUSH1 0x4 ADD PUSH2 0x335E JUMP JUMPDEST PUSH2 0x2134 PUSH1 0x4 SLOAD DUP4 LT PUSH2 0x36C5 JUMP JUMPDEST DUP2 PUSH0 MSTORE PUSH1 0x8 PUSH1 0x20 MSTORE PUSH1 0xFF PUSH1 0x5 PUSH1 0x40 PUSH0 KECCAK256 ADD SLOAD AND ISZERO PUSH2 0x227E JUMPI DUP2 PUSH0 MSTORE PUSH1 0x8 PUSH1 0x20 MSTORE PUSH1 0xFF PUSH1 0x5 PUSH1 0x40 PUSH0 KECCAK256 ADD SLOAD PUSH1 0x8 SHR AND PUSH2 0x2239 JUMPI PUSH0 DUP3 DUP2 MSTORE PUSH1 0x8 PUSH1 0x20 SWAP1 DUP2 MSTORE PUSH1 0x40 DUP1 DUP4 KECCAK256 CALLER DUP5 MSTORE PUSH1 0xB DUP2 ADD DUP4 MSTORE DUP2 DUP5 KECCAK256 PUSH1 0x4 SWAP1 SWAP2 ADD SLOAD DUP5 MSTORE SWAP1 SWAP2 MSTORE SWAP1 KECCAK256 SLOAD PUSH2 0x21F4 JUMPI PUSH2 0x21EF PUSH32 0xF20590B2CB9AF0BB070AD77DE2C0B74DB291DD43666E7A386FFB0E65974B050A SWAP2 DUP4 PUSH0 MSTORE PUSH1 0x8 PUSH1 0x20 MSTORE PUSH1 0x5 PUSH1 0x40 PUSH0 KECCAK256 ADD PUSH2 0x100 PUSH2 0xFF00 NOT DUP3 SLOAD AND OR SWAP1 SSTORE PUSH1 0x40 MLOAD SWAP2 DUP3 SWAP2 CALLER DUP4 MSTORE PUSH1 0x40 PUSH1 0x20 DUP5 ADD MSTORE PUSH1 0x40 DUP4 ADD SWAP1 PUSH2 0x3448 JUMP JUMPDEST SUB SWAP1 LOG2 STOP JUMPDEST PUSH1 0x40 MLOAD PUSH3 0x461BCD PUSH1 0xE5 SHL DUP2 MSTORE PUSH1 0x20 PUSH1 0x4 DUP3 ADD MSTORE PUSH1 0x19 PUSH1 0x24 DUP3 ADD MSTORE PUSH32 0x43616E6E6F74206469737075746520696620796F7520776F6E00000000000000 PUSH1 0x44 DUP3 ADD MSTORE PUSH1 0x64 SWAP1 REVERT JUMPDEST PUSH1 0x40 MLOAD PUSH3 0x461BCD PUSH1 0xE5 SHL DUP2 MSTORE PUSH1 0x20 PUSH1 0x4 DUP3 ADD MSTORE PUSH1 0x17 PUSH1 0x24 DUP3 ADD MSTORE PUSH32 0x4D61726B657420616C7265616479206469737075746564000000000000000000 PUSH1 0x44 DUP3 ADD MSTORE PUSH1 0x64 SWAP1 REVERT JUMPDEST PUSH1 0x40 MLOAD PUSH3 0x461BCD PUSH1 0xE5 SHL DUP2 MSTORE PUSH1 0x20 PUSH1 0x4 DUP3 ADD MSTORE PUSH1 0x17 PUSH1 0x24 DUP3 ADD MSTORE PUSH32 0x4D61726B6574206E6F74207265736F6C76656420796574000000000000000000 PUSH1 0x44 DUP3 ADD MSTORE PUSH1 0x64 SWAP1 REVERT JUMPDEST CALLVALUE PUSH2 0x2AC JUMPI PUSH0 CALLDATASIZE PUSH1 0x3 NOT ADD SLT PUSH2 0x2AC JUMPI PUSH1 0x3 SLOAD PUSH1 0x40 MLOAD PUSH1 0x8 SWAP2 SWAP1 SWAP2 SHR PUSH1 0x1 PUSH1 0x1 PUSH1 0xA0 SHL SUB AND DUP2 MSTORE PUSH1 0x20 SWAP1 RETURN JUMPDEST CALLVALUE PUSH2 0x2AC JUMPI PUSH0 CALLDATASIZE PUSH1 0x3 NOT ADD SLT PUSH2 0x2AC JUMPI PUSH2 0x2307 PUSH2 0x3CB6 JUMP JUMPDEST PUSH1 0x3 SLOAD PUSH1 0xFF DUP2 AND ISZERO PUSH2 0x2346 JUMPI PUSH1 0xFF NOT AND PUSH1 0x3 SSTORE PUSH32 0x5DB9EE0A495BF2E6FF9C91A7834C1BA4FDD244A5E8AA4E537BD38AEAE4B073AA PUSH1 0x20 PUSH1 0x40 MLOAD CALLER DUP2 MSTORE LOG1 STOP JUMPDEST PUSH4 0x8DFC202B PUSH1 0xE0 SHL PUSH0 MSTORE PUSH1 0x4 PUSH0 REVERT JUMPDEST CALLVALUE PUSH2 0x2AC JUMPI PUSH1 0x20 CALLDATASIZE PUSH1 0x3 NOT ADD SLT PUSH2 0x2AC JUMPI PUSH1 0x4 CALLDATALOAD PUSH2 0x2376 PUSH1 0x4 SLOAD DUP3 LT PUSH2 0x36C5 JUMP JUMPDEST PUSH0 MSTORE PUSH1 0x8 PUSH1 0x20 MSTORE PUSH2 0x23D4 PUSH1 0x40 PUSH0 KECCAK256 PUSH1 0x2 DUP2 ADD SLOAD PUSH1 0xFF PUSH1 0x3 DUP4 ADD SLOAD AND PUSH1 0x9 DUP4 ADD SLOAD SWAP1 PUSH1 0x5 DUP5 ADD SLOAD SWAP2 PUSH2 0x23F2 PUSH1 0x4 DUP7 ADD SLOAD SWAP3 PUSH2 0x23E2 PUSH2 0x23BE PUSH1 0x1 PUSH2 0x23B7 DUP11 PUSH2 0x3571 JUMP JUMPDEST SWAP10 ADD PUSH2 0x3571 JUMP JUMPDEST PUSH1 0x40 MLOAD SWAP10 DUP11 SWAP10 PUSH2 0x120 DUP12 MSTORE PUSH2 0x120 DUP12 ADD SWAP1 PUSH2 0x3448 JUMP JUMPDEST SWAP1 DUP10 DUP3 SUB PUSH1 0x20 DUP12 ADD MSTORE PUSH2 0x3448 JUMP JUMPDEST SWAP6 PUSH1 0x40 DUP9 ADD MSTORE PUSH1 0x60 DUP8 ADD SWAP1 PUSH2 0x346C JUMP JUMPDEST PUSH1 0x80 DUP6 ADD MSTORE PUSH1 0xFF DUP3 DUP2 AND ISZERO ISZERO PUSH1 0xA0 DUP7 ADD MSTORE PUSH1 0x8 DUP4 SWAP1 SHR AND ISZERO ISZERO PUSH1 0xC0 DUP6 ADD MSTORE PUSH1 0xE0 DUP5 ADD MSTORE PUSH1 0x18 SHR PUSH1 0x1 PUSH1 0x1 PUSH1 0xA0 SHL SUB AND PUSH2 0x100 DUP4 ADD MSTORE SUB SWAP1 RETURN JUMPDEST CALLVALUE PUSH2 0x2AC JUMPI PUSH1 0x40 CALLDATASIZE PUSH1 0x3 NOT ADD SLT PUSH2 0x2AC JUMPI PUSH2 0x2444 PUSH2 0x321B JUMP JUMPDEST CALLER PUSH1 0x1 PUSH1 0x1 PUSH1 0xA0 SHL SUB DUP3 AND SUB PUSH2 0x2460 JUMPI PUSH2 0x8DF SWAP1 PUSH1 0x4 CALLDATALOAD PUSH2 0x3CDC JUMP JUMPDEST PUSH4 0x334BD919 PUSH1 0xE1 SHL PUSH0 MSTORE PUSH1 0x4 PUSH0 REVERT JUMPDEST CALLVALUE PUSH2 0x2AC JUMPI PUSH1 0x20 CALLDATASIZE PUSH1 0x3 NOT ADD SLT PUSH2 0x2AC JUMPI PUSH2 0x8DF PUSH2 0x248B PUSH2 0x3205 JUMP JUMPDEST PUSH2 0x2493 PUSH2 0x3CB6 JUMP JUMPDEST PUSH32 0xDCEE1D35C83A32B436264A5C9AFD68685C124F3F9097E87804C55410E67FC59A PUSH0 MSTORE PUSH1 0x2 PUSH1 0x20 MSTORE PUSH32 0x8E2C297E756B2A427C5DC4607F639842A8EA6E0F6322302F4EA76306B642CFC3 SLOAD PUSH2 0x24E6 SWAP1 PUSH2 0x39D3 JUMP JUMPDEST PUSH2 0x3A0D JUMP JUMPDEST CALLVALUE PUSH2 0x2AC JUMPI PUSH0 CALLDATASIZE PUSH1 0x3 NOT ADD SLT PUSH2 0x2AC JUMPI PUSH1 0x20 PUSH1 0x40 MLOAD PUSH32 0xD486618B282CB35034D59C30C062B5B3822D6CDF87EC459191CE7F5B7B8A4873 DUP2 MSTORE RETURN JUMPDEST CALLVALUE PUSH2 0x2AC JUMPI PUSH1 0x40 CALLDATASIZE PUSH1 0x3 NOT ADD SLT PUSH2 0x2AC JUMPI PUSH2 0x8DF PUSH1 0x4 CALLDATALOAD PUSH2 0x2544 PUSH2 0x321B JUMP JUMPDEST SWAP1 PUSH2 0x255E PUSH2 0x8D5 DUP3 PUSH0 MSTORE PUSH1 0x2 PUSH1 0x20 MSTORE PUSH1 0x1 PUSH1 0x40 PUSH0 KECCAK256 ADD SLOAD SWAP1 JUMP JUMPDEST PUSH2 0x3C3D JUMP JUMPDEST CALLVALUE PUSH2 0x2AC JUMPI PUSH2 0x2571 CALLDATASIZE PUSH2 0x32BA JUMP JUMPDEST SWAP1 PUSH0 MSTORE PUSH1 0xE PUSH1 0x20 MSTORE PUSH1 0x40 PUSH0 KECCAK256 DUP1 SLOAD DUP3 LT ISZERO PUSH2 0x2AC JUMPI PUSH1 0x20 SWAP2 PUSH2 0xD3C SWAP2 PUSH2 0x31F0 JUMP JUMPDEST CALLVALUE PUSH2 0x2AC JUMPI PUSH1 0x20 CALLDATASIZE PUSH1 0x3 NOT ADD SLT PUSH2 0x2AC JUMPI PUSH1 0x20 PUSH2 0xA2D PUSH1 0x4 CALLDATALOAD PUSH0 MSTORE PUSH1 0x2 PUSH1 0x20 MSTORE PUSH1 0x1 PUSH1 0x40 PUSH0 KECCAK256 ADD SLOAD SWAP1 JUMP JUMPDEST CALLVALUE PUSH2 0x2AC JUMPI PUSH0 CALLDATASIZE PUSH1 0x3 NOT ADD SLT PUSH2 0x2AC JUMPI PUSH1 0x20 PUSH1 0x5 SLOAD PUSH1 0x40 MLOAD SWAP1 DUP2 MSTORE RETURN JUMPDEST CALLVALUE PUSH2 0x2AC JUMPI PUSH2 0x25E8 CALLDATASIZE PUSH2 0x32BA JUMP JUMPDEST SWAP1 PUSH2 0x25F6 PUSH1 0x4 SLOAD DUP3 LT PUSH2 0x36C5 JUMP JUMPDEST PUSH0 MSTORE PUSH1 0x8 PUSH1 0x20 MSTORE PUSH1 0xA PUSH1 0x40 PUSH0 KECCAK256 ADD SWAP1 PUSH0 MSTORE PUSH1 0x20 MSTORE PUSH2 0x2655 PUSH1 0x40 PUSH0 KECCAK256 PUSH1 0x2 DUP2 ADD SLOAD PUSH1 0x3 DUP3 ADD SLOAD PUSH1 0x4 DUP4 ADD SLOAD PUSH1 0xFF PUSH1 0x5 DUP6 ADD SLOAD AND SWAP2 PUSH2 0x2663 PUSH2 0x2641 PUSH1 0x1 PUSH2 0x263A DUP9 PUSH2 0x3571 JUMP JUMPDEST SWAP8 ADD PUSH2 0x3571 JUMP JUMPDEST PUSH1 0x40 MLOAD SWAP8 DUP9 SWAP8 PUSH1 0xC0 DUP10 MSTORE PUSH1 0xC0 DUP10 ADD SWAP1 PUSH2 0x3448 JUMP JUMPDEST SWAP1 DUP8 DUP3 SUB PUSH1 0x20 DUP10 ADD MSTORE PUSH2 0x3448 JUMP JUMPDEST SWAP4 PUSH1 0x40 DUP7 ADD MSTORE PUSH1 0x60 DUP6 ADD MSTORE PUSH1 0x80 DUP5 ADD MSTORE ISZERO ISZERO PUSH1 0xA0 DUP4 ADD MSTORE SUB SWAP1 RETURN JUMPDEST CALLVALUE PUSH2 0x2AC JUMPI PUSH1 0xC0 CALLDATASIZE PUSH1 0x3 NOT ADD SLT PUSH2 0x2AC JUMPI PUSH1 0x4 CALLDATALOAD PUSH1 0x1 PUSH1 0x1 PUSH1 0x40 SHL SUB DUP2 GT PUSH2 0x2AC JUMPI PUSH2 0x26AE SWAP1 CALLDATASIZE SWAP1 PUSH1 0x4 ADD PUSH2 0x335E JUMP JUMPDEST PUSH1 0x24 CALLDATALOAD PUSH1 0x1 PUSH1 0x1 PUSH1 0x40 SHL SUB DUP2 GT PUSH2 0x2AC JUMPI PUSH2 0x26CD SWAP1 CALLDATASIZE SWAP1 PUSH1 0x4 ADD PUSH2 0x335E JUMP JUMPDEST PUSH1 0x44 CALLDATALOAD PUSH1 0x1 PUSH1 0x1 PUSH1 0x40 SHL SUB DUP2 GT PUSH2 0x2AC JUMPI PUSH2 0x26EC SWAP1 CALLDATASIZE SWAP1 PUSH1 0x4 ADD PUSH2 0x33CA JUMP JUMPDEST SWAP2 PUSH1 0x64 CALLDATALOAD PUSH1 0x1 PUSH1 0x1 PUSH1 0x40 SHL SUB DUP2 GT PUSH2 0x2AC JUMPI PUSH2 0x270C SWAP1 CALLDATASIZE SWAP1 PUSH1 0x4 ADD PUSH2 0x33CA JUMP JUMPDEST SWAP1 PUSH1 0x84 CALLDATALOAD SWAP2 PUSH1 0xA4 CALLDATALOAD SWAP5 PUSH1 0xA DUP7 LT ISZERO PUSH2 0x2AC JUMPI PUSH2 0x2726 PUSH2 0x39B8 JUMP JUMPDEST PUSH0 SLOAD PUSH1 0x1 PUSH1 0x1 PUSH1 0xA0 SHL SUB AND CALLER EQ DUP1 ISZERO PUSH2 0x2F85 JUMPI JUMPDEST ISZERO PUSH2 0x2F41 JUMPI PUSH2 0xE10 DUP5 LT ISZERO DUP1 PUSH2 0x2F33 JUMPI JUMPDEST ISZERO PUSH2 0x2EFB JUMPI DUP3 MLOAD ISZERO PUSH2 0x2EB6 JUMPI DUP1 MLOAD PUSH1 0x2 DUP2 LT ISZERO SWAP1 DUP2 PUSH2 0x2EAA JUMPI JUMPDEST POP ISZERO PUSH2 0x2E65 JUMPI DUP1 MLOAD DUP3 MLOAD SUB PUSH2 0x2E0F JUMPI PUSH1 0x4 SLOAD SWAP4 PUSH2 0x2781 DUP6 PUSH2 0x363B JUMP JUMPDEST PUSH1 0x4 SSTORE DUP5 PUSH0 MSTORE PUSH1 0x8 PUSH1 0x20 MSTORE PUSH1 0x40 PUSH0 KECCAK256 SWAP6 DUP5 MLOAD PUSH1 0x1 PUSH1 0x1 PUSH1 0x40 SHL SUB DUP2 GT PUSH2 0x7CC JUMPI PUSH2 0x27AB DUP9 SLOAD PUSH2 0x3539 JUMP JUMPDEST PUSH1 0x1F DUP2 GT PUSH2 0x2DCA JUMPI JUMPDEST POP DUP1 PUSH1 0x20 PUSH1 0x1F DUP3 GT PUSH1 0x1 EQ PUSH2 0x2D69 JUMPI PUSH0 SWAP2 PUSH2 0x2D5E JUMPI JUMPDEST POP DUP2 PUSH1 0x1 SHL SWAP2 PUSH0 NOT SWAP1 PUSH1 0x3 SHL SHR NOT AND OR DUP8 SSTORE JUMPDEST DUP1 MLOAD PUSH1 0x1 DUP9 ADD SWAP2 PUSH1 0x1 PUSH1 0x1 PUSH1 0x40 SHL SUB DUP3 GT PUSH2 0x7CC JUMPI PUSH2 0x27FC DUP4 SLOAD PUSH2 0x3539 JUMP JUMPDEST PUSH1 0x1F DUP2 GT PUSH2 0x2D19 JUMPI JUMPDEST POP PUSH1 0x20 SWAP1 PUSH1 0x1F DUP4 GT PUSH1 0x1 EQ PUSH2 0x2CB1 JUMPI PUSH2 0x283D SWAP5 SWAP4 SWAP3 SWAP2 PUSH0 SWAP2 DUP4 PUSH2 0x2CA6 JUMPI JUMPDEST POP POP DUP2 PUSH1 0x1 SHL SWAP2 PUSH0 NOT SWAP1 PUSH1 0x3 SHL SHR NOT AND OR SWAP1 SSTORE JUMPDEST TIMESTAMP PUSH2 0x3649 JUMP JUMPDEST PUSH1 0x2 DUP7 ADD SWAP1 DUP2 SSTORE PUSH1 0x3 DUP7 ADD DUP1 SLOAD PUSH1 0xFF NOT AND PUSH1 0xFF DUP10 AND OR SWAP1 SSTORE PUSH1 0x5 DUP7 ADD DUP1 SLOAD PUSH4 0x1000000 PUSH1 0x1 PUSH1 0xB8 SHL SUB CALLER PUSH1 0x18 SHL AND PUSH4 0x1000000 PUSH1 0x1 PUSH1 0xB8 SHL SUB NOT SWAP1 SWAP2 AND OR SWAP1 SSTORE TIMESTAMP PUSH1 0x8 DUP8 ADD SSTORE DUP2 MLOAD PUSH1 0x9 DUP8 ADD DUP2 SWAP1 SSTORE SWAP1 SWAP4 SWAP1 DUP1 ISZERO PUSH2 0x2C92 JUMPI PUSH8 0xDE0B6B3A7640000 DIV SWAP7 SWAP4 SWAP6 PUSH1 0xA ADD SWAP4 PUSH0 JUMPDEST DUP4 MLOAD DUP2 LT ISZERO PUSH2 0x2B9A JUMPI PUSH2 0x28BB DUP2 DUP6 PUSH2 0x3660 JUMP JUMPDEST MLOAD PUSH2 0x28C6 DUP3 DUP8 PUSH2 0x3660 JUMP JUMPDEST MLOAD SWAP1 PUSH1 0x40 MLOAD SWAP1 PUSH2 0x28D5 DUP3 PUSH2 0x32EB JUMP JUMPDEST DUP2 MSTORE PUSH1 0x20 DUP2 ADD SWAP2 DUP3 MSTORE PUSH1 0x40 DUP2 ADD PUSH0 DUP2 MSTORE PUSH1 0x60 DUP3 ADD PUSH0 DUP2 MSTORE PUSH1 0x80 DUP4 ADD SWAP2 DUP14 DUP4 MSTORE PUSH1 0xA0 DUP5 ADD SWAP5 PUSH1 0x1 DUP7 MSTORE DUP7 PUSH0 MSTORE DUP12 PUSH1 0x20 MSTORE PUSH1 0x40 PUSH0 KECCAK256 SWAP5 MLOAD DUP1 MLOAD SWAP1 PUSH1 0x1 PUSH1 0x1 PUSH1 0x40 SHL SUB DUP3 GT PUSH2 0x7CC JUMPI DUP2 SWAP1 PUSH2 0x2927 DUP9 SLOAD PUSH2 0x3539 JUMP JUMPDEST PUSH1 0x1F DUP2 GT PUSH2 0x2B4A JUMPI JUMPDEST POP PUSH1 0x20 SWAP1 PUSH1 0x1F DUP4 GT PUSH1 0x1 EQ PUSH2 0x2AE7 JUMPI PUSH0 SWAP3 PUSH2 0x2ADC JUMPI JUMPDEST POP POP DUP2 PUSH1 0x1 SHL SWAP2 PUSH0 NOT SWAP1 PUSH1 0x3 SHL SHR NOT AND OR DUP6 SSTORE JUMPDEST MLOAD DUP1 MLOAD PUSH1 0x1 DUP7 ADD SWAP2 PUSH1 0x1 PUSH1 0x1 PUSH1 0x40 SHL SUB DUP3 GT PUSH2 0x7CC JUMPI PUSH2 0x297A DUP4 SLOAD PUSH2 0x3539 JUMP JUMPDEST PUSH1 0x1F DUP2 GT PUSH2 0x2A97 JUMPI JUMPDEST POP PUSH1 0x20 SWAP1 PUSH1 0x1F DUP4 GT PUSH1 0x1 EQ PUSH2 0x2A29 JUMPI SWAP2 DUP1 PUSH1 0x1 SWAP11 SWAP10 SWAP9 SWAP7 SWAP5 SWAP3 PUSH1 0x5 SWAP9 SWAP7 SWAP5 PUSH0 SWAP3 PUSH2 0x2A1E JUMPI JUMPDEST POP POP PUSH0 NOT PUSH1 0x3 DUP4 SWAP1 SHL SHR NOT AND SWAP1 DUP11 SHL OR SWAP1 SSTORE JUMPDEST MLOAD PUSH1 0x2 DUP5 ADD SSTORE MLOAD PUSH1 0x3 DUP4 ADD SSTORE MLOAD PUSH1 0x4 DUP3 ADD SSTORE ADD SWAP1 MLOAD ISZERO ISZERO PUSH1 0xFF DUP1 NOT DUP4 SLOAD AND SWAP2 AND OR SWAP1 SSTORE DUP8 PUSH0 MSTORE PUSH1 0xD PUSH1 0x20 MSTORE PUSH1 0x40 PUSH0 KECCAK256 DUP2 PUSH0 MSTORE PUSH1 0x20 MSTORE PUSH2 0x2A18 PUSH1 0x40 PUSH0 KECCAK256 PUSH1 0x40 MLOAD SWAP1 PUSH2 0x2A04 DUP3 PUSH2 0x3306 JUMP JUMPDEST DUP13 DUP3 MSTORE TIMESTAMP PUSH1 0x20 DUP4 ADD MSTORE PUSH0 PUSH1 0x40 DUP4 ADD MSTORE PUSH2 0x3674 JUMP JUMPDEST ADD PUSH2 0x28A8 JUMP JUMPDEST ADD MLOAD SWAP1 POP PUSH0 DUP1 PUSH2 0x29A8 JUMP JUMPDEST SWAP1 PUSH1 0x1F NOT DUP4 AND SWAP2 DUP5 PUSH0 MSTORE DUP2 PUSH0 KECCAK256 SWAP3 PUSH0 JUMPDEST DUP2 DUP2 LT PUSH2 0x2A7F JUMPI POP SWAP3 PUSH1 0x1 SWAP12 SWAP11 SWAP10 SWAP8 SWAP6 SWAP4 SWAP3 DUP6 SWAP3 PUSH1 0x5 SWAP11 SWAP9 SWAP7 DUP15 SWAP6 LT PUSH2 0x2A67 JUMPI JUMPDEST POP POP POP DUP2 SHL ADD SWAP1 SSTORE PUSH2 0x29BB JUMP JUMPDEST ADD MLOAD PUSH0 NOT PUSH1 0xF8 DUP5 PUSH1 0x3 SHL AND SHR NOT AND SWAP1 SSTORE PUSH0 DUP1 DUP1 PUSH2 0x2A5A JUMP JUMPDEST SWAP3 SWAP4 PUSH1 0x20 PUSH1 0x1 DUP2 SWAP3 DUP8 DUP7 ADD MLOAD DUP2 SSTORE ADD SWAP6 ADD SWAP4 ADD PUSH2 0x2A39 JUMP JUMPDEST DUP4 PUSH0 MSTORE PUSH1 0x20 PUSH0 KECCAK256 PUSH1 0x1F DUP5 ADD PUSH1 0x5 SHR DUP2 ADD SWAP2 PUSH1 0x20 DUP6 LT PUSH2 0x2AD2 JUMPI JUMPDEST PUSH1 0x1F ADD PUSH1 0x5 SHR ADD SWAP1 JUMPDEST DUP2 DUP2 LT PUSH2 0x2AC7 JUMPI POP PUSH2 0x2983 JUMP JUMPDEST PUSH0 DUP2 SSTORE PUSH1 0x1 ADD PUSH2 0x2ABA JUMP JUMPDEST SWAP1 SWAP2 POP DUP2 SWAP1 PUSH2 0x2AB1 JUMP JUMPDEST ADD MLOAD SWAP1 POP PUSH0 DUP1 PUSH2 0x2946 JUMP JUMPDEST PUSH0 DUP10 DUP2 MSTORE DUP3 DUP2 KECCAK256 SWAP4 POP PUSH1 0x1F NOT DUP6 AND SWAP1 JUMPDEST DUP2 DUP2 LT PUSH2 0x2B32 JUMPI POP SWAP1 DUP5 PUSH1 0x1 SWAP6 SWAP5 SWAP4 SWAP3 LT PUSH2 0x2B1A JUMPI JUMPDEST POP POP POP DUP2 SHL ADD DUP6 SSTORE PUSH2 0x295A JUMP JUMPDEST ADD MLOAD PUSH0 NOT PUSH1 0xF8 DUP5 PUSH1 0x3 SHL AND SHR NOT AND SWAP1 SSTORE PUSH0 DUP1 DUP1 PUSH2 0x2B0D JUMP JUMPDEST SWAP3 SWAP4 PUSH1 0x20 PUSH1 0x1 DUP2 SWAP3 DUP8 DUP7 ADD MLOAD DUP2 SSTORE ADD SWAP6 ADD SWAP4 ADD PUSH2 0x2AF7 JUMP JUMPDEST SWAP1 SWAP2 POP DUP8 PUSH0 MSTORE PUSH1 0x20 PUSH0 KECCAK256 PUSH1 0x1F DUP5 ADD PUSH1 0x5 SHR DUP2 ADD SWAP2 PUSH1 0x20 DUP6 LT PUSH2 0x2B90 JUMPI JUMPDEST SWAP1 PUSH1 0x1F DUP6 SWAP5 SWAP4 SWAP3 ADD PUSH1 0x5 SHR ADD SWAP1 JUMPDEST DUP2 DUP2 LT PUSH2 0x2B82 JUMPI POP PUSH2 0x2930 JUMP JUMPDEST PUSH0 DUP2 SSTORE DUP5 SWAP4 POP PUSH1 0x1 ADD PUSH2 0x2B75 JUMP JUMPDEST SWAP1 SWAP2 POP DUP2 SWAP1 PUSH2 0x2B67 JUMP JUMPDEST POP DUP3 DUP7 SWAP2 DUP9 PUSH2 0x2BA8 DUP3 PUSH2 0x3522 JUMP JUMPDEST DUP1 SLOAD PUSH1 0x1 PUSH1 0x40 SHL DUP2 LT ISZERO PUSH2 0x7CC JUMPI PUSH2 0x2BC5 SWAP2 PUSH1 0x1 DUP3 ADD DUP2 SSTORE PUSH2 0x31F0 JUMP JUMPDEST DUP2 SLOAD SWAP1 PUSH1 0x3 SHL SWAP1 DUP7 DUP3 SHL SWAP2 PUSH0 NOT SWAP1 SHL NOT AND OR SWAP1 SSTORE SLOAD PUSH2 0x2BEF PUSH1 0x40 MLOAD SWAP6 PUSH1 0xA0 DUP8 MSTORE PUSH1 0xA0 DUP8 ADD SWAP1 PUSH2 0x3448 JUMP JUMPDEST DUP6 DUP2 SUB PUSH1 0x20 DUP8 ADD MSTORE DUP4 MLOAD DUP1 DUP3 MSTORE PUSH1 0x20 DUP3 ADD SWAP2 PUSH1 0x20 DUP1 DUP4 PUSH1 0x5 SHL DUP4 ADD ADD SWAP7 ADD SWAP3 PUSH0 SWAP2 JUMPDEST DUP4 DUP4 LT PUSH2 0x2C65 JUMPI PUSH1 0x20 DUP10 DUP1 PUSH32 0x93F20D1EE811E3A7847933ECA44474C052F00D323DDAC70F72AD001FB49FE915 DUP14 DUP1 DUP14 PUSH2 0x2C54 DUP15 DUP15 PUSH1 0x40 DUP6 ADD MSTORE PUSH1 0x60 DUP5 ADD SWAP1 PUSH2 0x346C JUMP JUMPDEST CALLER PUSH1 0x80 DUP4 ADD MSTORE SUB SWAP1 LOG2 PUSH1 0x40 MLOAD SWAP1 DUP2 MSTORE RETURN JUMPDEST SWAP1 SWAP2 SWAP3 SWAP4 SWAP7 PUSH1 0x20 DUP1 PUSH2 0x2C83 PUSH1 0x1 SWAP4 PUSH1 0x1F NOT DUP7 DUP3 SUB ADD DUP8 MSTORE DUP12 MLOAD PUSH2 0x3448 JUMP JUMPDEST SWAP10 ADD SWAP4 ADD SWAP4 ADD SWAP2 SWAP4 SWAP3 SWAP1 PUSH2 0x2C11 JUMP JUMPDEST PUSH4 0x4E487B71 PUSH1 0xE0 SHL PUSH0 MSTORE PUSH1 0x12 PUSH1 0x4 MSTORE PUSH1 0x24 PUSH0 REVERT JUMPDEST ADD MLOAD SWAP1 POP DUP12 DUP1 PUSH2 0x2823 JUMP JUMPDEST SWAP1 PUSH1 0x1F NOT DUP4 AND SWAP2 DUP5 PUSH0 MSTORE DUP2 PUSH0 KECCAK256 SWAP3 PUSH0 JUMPDEST DUP2 DUP2 LT PUSH2 0x2D01 JUMPI POP SWAP2 PUSH1 0x1 SWAP4 SWAP2 DUP6 PUSH2 0x283D SWAP9 SWAP8 SWAP7 SWAP5 LT PUSH2 0x2CE9 JUMPI JUMPDEST POP POP POP DUP2 SHL ADD SWAP1 SSTORE PUSH2 0x2837 JUMP JUMPDEST ADD MLOAD PUSH0 NOT PUSH1 0xF8 DUP5 PUSH1 0x3 SHL AND SHR NOT AND SWAP1 SSTORE DUP12 DUP1 DUP1 PUSH2 0x2CDC JUMP JUMPDEST SWAP3 SWAP4 PUSH1 0x20 PUSH1 0x1 DUP2 SWAP3 DUP8 DUP7 ADD MLOAD DUP2 SSTORE ADD SWAP6 ADD SWAP4 ADD PUSH2 0x2CC1 JUMP JUMPDEST DUP4 PUSH0 MSTORE PUSH1 0x20 PUSH0 KECCAK256 PUSH1 0x1F DUP5 ADD PUSH1 0x5 SHR DUP2 ADD SWAP2 PUSH1 0x20 DUP6 LT PUSH2 0x2D54 JUMPI JUMPDEST PUSH1 0x1F ADD PUSH1 0x5 SHR ADD SWAP1 JUMPDEST DUP2 DUP2 LT PUSH2 0x2D49 JUMPI POP PUSH2 0x2805 JUMP JUMPDEST PUSH0 DUP2 SSTORE PUSH1 0x1 ADD PUSH2 0x2D3C JUMP JUMPDEST SWAP1 SWAP2 POP DUP2 SWAP1 PUSH2 0x2D33 JUMP JUMPDEST SWAP1 POP DUP7 ADD MLOAD DUP11 PUSH2 0x27CA JUMP JUMPDEST PUSH0 DUP11 DUP2 MSTORE DUP2 DUP2 KECCAK256 SWAP3 POP PUSH1 0x1F NOT DUP5 AND SWAP1 JUMPDEST DUP2 DUP2 LT PUSH2 0x2DB2 JUMPI POP SWAP1 DUP4 PUSH1 0x1 SWAP5 SWAP4 SWAP3 LT PUSH2 0x2D9A JUMPI JUMPDEST POP POP DUP2 SHL ADD DUP8 SSTORE PUSH2 0x27DD JUMP JUMPDEST DUP9 ADD MLOAD PUSH0 NOT PUSH1 0xF8 DUP5 PUSH1 0x3 SHL AND SHR NOT AND SWAP1 SSTORE DUP11 DUP1 PUSH2 0x2D8E JUMP JUMPDEST SWAP2 SWAP3 PUSH1 0x20 PUSH1 0x1 DUP2 SWAP3 DUP7 DUP14 ADD MLOAD DUP2 SSTORE ADD SWAP5 ADD SWAP3 ADD PUSH2 0x2D79 JUMP JUMPDEST DUP9 PUSH0 MSTORE PUSH1 0x20 PUSH0 KECCAK256 PUSH1 0x1F DUP4 ADD PUSH1 0x5 SHR DUP2 ADD SWAP2 PUSH1 0x20 DUP5 LT PUSH2 0x2E05 JUMPI JUMPDEST PUSH1 0x1F ADD PUSH1 0x5 SHR ADD SWAP1 JUMPDEST DUP2 DUP2 LT PUSH2 0x2DFA JUMPI POP PUSH2 0x27B4 JUMP JUMPDEST PUSH0 DUP2 SSTORE PUSH1 0x1 ADD PUSH2 0x2DED JUMP JUMPDEST SWAP1 SWAP2 POP DUP2 SWAP1 PUSH2 0x2DE4 JUMP JUMPDEST PUSH1 0x40 MLOAD PUSH3 0x461BCD PUSH1 0xE5 SHL DUP2 MSTORE PUSH1 0x20 PUSH1 0x4 DUP3 ADD MSTORE PUSH1 0x28 PUSH1 0x24 DUP3 ADD MSTORE PUSH32 0x4F7074696F6E7320616E64206465736372697074696F6E73206C656E67746820 PUSH1 0x44 DUP3 ADD MSTORE PUSH8 0xDAD2E6DAC2E8C6D PUSH1 0xC3 SHL PUSH1 0x64 DUP3 ADD MSTORE PUSH1 0x84 SWAP1 REVERT JUMPDEST PUSH1 0x40 MLOAD PUSH3 0x461BCD PUSH1 0xE5 SHL DUP2 MSTORE PUSH1 0x20 PUSH1 0x4 DUP3 ADD MSTORE PUSH1 0x19 PUSH1 0x24 DUP3 ADD MSTORE PUSH32 0x496E76616C6964206E756D626572206F66206F7074696F6E7300000000000000 PUSH1 0x44 DUP3 ADD MSTORE PUSH1 0x64 SWAP1 REVERT JUMPDEST PUSH1 0xA SWAP2 POP GT ISZERO DUP8 PUSH2 0x2765 JUMP JUMPDEST PUSH1 0x40 MLOAD PUSH3 0x461BCD PUSH1 0xE5 SHL DUP2 MSTORE PUSH1 0x20 PUSH1 0x4 DUP3 ADD MSTORE PUSH1 0x18 PUSH1 0x24 DUP3 ADD MSTORE PUSH32 0x5175657374696F6E2063616E6E6F7420626520656D7074790000000000000000 PUSH1 0x44 DUP3 ADD MSTORE PUSH1 0x64 SWAP1 REVERT JUMPDEST PUSH1 0x40 MLOAD PUSH3 0x461BCD PUSH1 0xE5 SHL DUP2 MSTORE PUSH1 0x20 PUSH1 0x4 DUP3 ADD MSTORE PUSH1 0x10 PUSH1 0x24 DUP3 ADD MSTORE PUSH16 0x24B73B30B634B210323AB930BA34B7B7 PUSH1 0x81 SHL PUSH1 0x44 DUP3 ADD MSTORE PUSH1 0x64 SWAP1 REVERT JUMPDEST POP PUSH4 0x1E13380 DUP5 GT ISZERO PUSH2 0x274B JUMP JUMPDEST PUSH1 0x64 PUSH1 0x40 MLOAD PUSH3 0x461BCD PUSH1 0xE5 SHL DUP2 MSTORE PUSH1 0x20 PUSH1 0x4 DUP3 ADD MSTORE PUSH1 0x20 PUSH1 0x24 DUP3 ADD MSTORE PUSH32 0x4E6F7420617574686F72697A656420746F20637265617465206D61726B657473 PUSH1 0x44 DUP3 ADD MSTORE REVERT JUMPDEST POP CALLER PUSH0 SWAP1 DUP2 MSTORE PUSH32 0x30D995518B427F5A5863AD73FE356CA50CF70941F42C516830919C845FA5806F PUSH1 0x20 MSTORE PUSH1 0x40 SWAP1 KECCAK256 SLOAD PUSH1 0xFF AND PUSH2 0x273A JUMP JUMPDEST CALLVALUE PUSH2 0x2AC JUMPI PUSH1 0x20 CALLDATASIZE PUSH1 0x3 NOT ADD SLT PUSH2 0x2AC JUMPI PUSH2 0x2FD5 PUSH2 0x3205 JUMP JUMPDEST PUSH2 0x2FDD PUSH2 0x3611 JUMP JUMPDEST POP PUSH1 0x1 DUP1 PUSH1 0xA0 SHL SUB AND PUSH0 MSTORE PUSH1 0xA PUSH1 0x20 MSTORE PUSH1 0xA0 PUSH1 0x40 PUSH0 KECCAK256 PUSH1 0x40 MLOAD PUSH2 0x2FFF DUP2 PUSH2 0x32D0 JUMP JUMPDEST DUP2 SLOAD SWAP2 DUP3 DUP3 MSTORE PUSH1 0x1 DUP2 ADD SLOAD PUSH1 0x20 DUP4 ADD SWAP1 DUP2 MSTORE PUSH1 0x2 DUP3 ADD SLOAD SWAP1 PUSH1 0x40 DUP5 ADD SWAP2 DUP3 MSTORE PUSH1 0x80 PUSH1 0x4 PUSH1 0x3 DUP6 ADD SLOAD SWAP5 PUSH1 0x60 DUP8 ADD SWAP6 DUP7 MSTORE ADD SLOAD SWAP5 ADD SWAP4 DUP5 MSTORE PUSH1 0x40 MLOAD SWAP5 DUP6 MSTORE MLOAD PUSH1 0x20 DUP6 ADD MSTORE MLOAD PUSH1 0x40 DUP5 ADD MSTORE MLOAD PUSH1 0x60 DUP4 ADD MSTORE MLOAD PUSH1 0x80 DUP3 ADD MSTORE RETURN JUMPDEST CALLVALUE PUSH2 0x2AC JUMPI PUSH2 0x3064 CALLDATASIZE PUSH2 0x32BA JUMP JUMPDEST SWAP1 PUSH0 MSTORE PUSH1 0xC PUSH1 0x20 MSTORE PUSH1 0x40 PUSH0 KECCAK256 SWAP1 DUP2 SLOAD DUP2 LT ISZERO PUSH2 0x2AC JUMPI PUSH2 0x3083 SWAP2 PUSH2 0x3231 JUMP JUMPDEST POP DUP1 SLOAD PUSH2 0x938 PUSH1 0x1 DUP4 ADD SLOAD SWAP3 PUSH1 0x1 DUP1 PUSH1 0xA0 SHL SUB PUSH1 0x2 DUP3 ADD SLOAD AND SWAP1 PUSH1 0x1 DUP1 PUSH1 0xA0 SHL SUB PUSH1 0x3 DUP3 ADD SLOAD AND PUSH1 0x4 DUP3 ADD SLOAD PUSH1 0x5 DUP4 ADD SLOAD SWAP2 PUSH1 0xFF PUSH1 0x7 PUSH1 0x6 DUP7 ADD SLOAD SWAP6 ADD SLOAD AND SWAP5 PUSH1 0x40 MLOAD SWAP9 DUP10 SWAP9 DUP10 PUSH2 0x3268 JUMP JUMPDEST CALLVALUE PUSH2 0x2AC JUMPI PUSH0 CALLDATASIZE PUSH1 0x3 NOT ADD SLT PUSH2 0x2AC JUMPI PUSH1 0x20 PUSH1 0x40 MLOAD PUSH1 0xA DUP2 MSTORE RETURN JUMPDEST CALLVALUE PUSH2 0x2AC JUMPI PUSH1 0x40 CALLDATASIZE PUSH1 0x3 NOT ADD SLT PUSH2 0x2AC JUMPI PUSH2 0x3103 PUSH2 0x3205 JUMP JUMPDEST PUSH1 0x1 PUSH1 0x1 PUSH1 0xA0 SHL SUB AND PUSH0 SWAP1 DUP2 MSTORE PUSH1 0xB PUSH1 0x20 MSTORE PUSH1 0x40 SWAP1 KECCAK256 DUP1 SLOAD PUSH1 0x24 CALLDATALOAD SWAP1 DUP2 LT ISZERO PUSH2 0x2AC JUMPI PUSH2 0x3083 SWAP2 PUSH2 0x3231 JUMP JUMPDEST CALLVALUE PUSH2 0x2AC JUMPI PUSH1 0x20 CALLDATASIZE PUSH1 0x3 NOT ADD SLT PUSH2 0x2AC JUMPI PUSH1 0x4 CALLDATALOAD PUSH1 0x12 SLOAD DUP2 LT ISZERO PUSH2 0x2AC JUMPI PUSH2 0x3158 PUSH1 0x20 SWAP2 PUSH2 0x31C4 JUMP JUMPDEST SWAP1 SLOAD PUSH1 0x40 MLOAD PUSH1 0x3 SWAP3 SWAP1 SWAP3 SHL SHR PUSH1 0x1 PUSH1 0x1 PUSH1 0xA0 SHL SUB AND DUP2 MSTORE RETURN JUMPDEST CALLVALUE PUSH2 0x2AC JUMPI PUSH1 0x20 CALLDATASIZE PUSH1 0x3 NOT ADD SLT PUSH2 0x2AC JUMPI PUSH1 0x4 CALLDATALOAD SWAP1 PUSH4 0xFFFFFFFF PUSH1 0xE0 SHL DUP3 AND DUP1 SWAP3 SUB PUSH2 0x2AC JUMPI PUSH1 0x20 SWAP2 PUSH4 0x7965DB0B PUSH1 0xE0 SHL DUP2 EQ SWAP1 DUP2 ISZERO PUSH2 0x31B3 JUMPI JUMPDEST POP ISZERO ISZERO DUP2 MSTORE RETURN JUMPDEST PUSH4 0x1FFC9A7 PUSH1 0xE0 SHL EQ SWAP1 POP DUP4 PUSH2 0x31AC JUMP JUMPDEST PUSH1 0x12 SLOAD DUP2 LT ISZERO PUSH2 0x31DC JUMPI PUSH1 0x12 PUSH0 MSTORE PUSH1 0x20 PUSH0 KECCAK256 ADD SWAP1 PUSH0 SWAP1 JUMP JUMPDEST PUSH4 0x4E487B71 PUSH1 0xE0 SHL PUSH0 MSTORE PUSH1 0x32 PUSH1 0x4 MSTORE PUSH1 0x24 PUSH0 REVERT JUMPDEST DUP1 SLOAD DUP3 LT ISZERO PUSH2 0x31DC JUMPI PUSH0 MSTORE PUSH1 0x20 PUSH0 KECCAK256 ADD SWAP1 PUSH0 SWAP1 JUMP JUMPDEST PUSH1 0x4 CALLDATALOAD SWAP1 PUSH1 0x1 PUSH1 0x1 PUSH1 0xA0 SHL SUB DUP3 AND DUP3 SUB PUSH2 0x2AC JUMPI JUMP JUMPDEST PUSH1 0x24 CALLDATALOAD SWAP1 PUSH1 0x1 PUSH1 0x1 PUSH1 0xA0 SHL SUB DUP3 AND DUP3 SUB PUSH2 0x2AC JUMPI JUMP JUMPDEST DUP1 SLOAD DUP3 LT ISZERO PUSH2 0x31DC JUMPI PUSH0 MSTORE PUSH1 0x20 PUSH0 KECCAK256 SWAP1 PUSH1 0x3 SHL ADD SWAP1 PUSH0 SWAP1 JUMP JUMPDEST PUSH1 0x2 GT ISZERO PUSH2 0x3254 JUMPI JUMP JUMPDEST PUSH4 0x4E487B71 PUSH1 0xE0 SHL PUSH0 MSTORE PUSH1 0x21 PUSH1 0x4 MSTORE PUSH1 0x24 PUSH0 REVERT JUMPDEST SWAP1 DUP2 MSTORE PUSH1 0x20 DUP2 ADD SWAP2 SWAP1 SWAP2 MSTORE PUSH1 0x1 PUSH1 0x1 PUSH1 0xA0 SHL SUB SWAP2 DUP3 AND PUSH1 0x40 DUP3 ADD MSTORE SWAP2 AND PUSH1 0x60 DUP3 ADD MSTORE PUSH1 0x80 DUP2 ADD SWAP2 SWAP1 SWAP2 MSTORE PUSH1 0xA0 DUP2 ADD SWAP2 SWAP1 SWAP2 MSTORE PUSH1 0xC0 DUP2 ADD SWAP2 SWAP1 SWAP2 MSTORE PUSH2 0x100 DUP2 ADD SWAP3 SWAP2 SWAP1 PUSH1 0xE0 SWAP1 PUSH2 0x32B6 DUP4 PUSH2 0x324A JUMP JUMPDEST ADD MSTORE JUMP JUMPDEST PUSH1 0x40 SWAP1 PUSH1 0x3 NOT ADD SLT PUSH2 0x2AC JUMPI PUSH1 0x4 CALLDATALOAD SWAP1 PUSH1 0x24 CALLDATALOAD SWAP1 JUMP JUMPDEST PUSH1 0xA0 DUP2 ADD SWAP1 DUP2 LT PUSH1 0x1 PUSH1 0x1 PUSH1 0x40 SHL SUB DUP3 GT OR PUSH2 0x7CC JUMPI PUSH1 0x40 MSTORE JUMP JUMPDEST PUSH1 0xC0 DUP2 ADD SWAP1 DUP2 LT PUSH1 0x1 PUSH1 0x1 PUSH1 0x40 SHL SUB DUP3 GT OR PUSH2 0x7CC JUMPI PUSH1 0x40 MSTORE JUMP JUMPDEST PUSH1 0x60 DUP2 ADD SWAP1 DUP2 LT PUSH1 0x1 PUSH1 0x1 PUSH1 0x40 SHL SUB DUP3 GT OR PUSH2 0x7CC JUMPI PUSH1 0x40 MSTORE JUMP JUMPDEST PUSH2 0x100 DUP2 ADD SWAP1 DUP2 LT PUSH1 0x1 PUSH1 0x1 PUSH1 0x40 SHL SUB DUP3 GT OR PUSH2 0x7CC JUMPI PUSH1 0x40 MSTORE JUMP JUMPDEST SWAP1 PUSH1 0x1F DUP1 NOT SWAP2 ADD AND DUP2 ADD SWAP1 DUP2 LT PUSH1 0x1 PUSH1 0x1 PUSH1 0x40 SHL SUB DUP3 GT OR PUSH2 0x7CC JUMPI PUSH1 0x40 MSTORE JUMP JUMPDEST DUP2 PUSH1 0x1F DUP3 ADD SLT ISZERO PUSH2 0x2AC JUMPI DUP1 CALLDATALOAD SWAP1 PUSH1 0x1 PUSH1 0x1 PUSH1 0x40 SHL SUB DUP3 GT PUSH2 0x7CC JUMPI PUSH1 0x40 MLOAD SWAP3 PUSH2 0x3392 PUSH1 0x1F DUP5 ADD PUSH1 0x1F NOT AND PUSH1 0x20 ADD DUP6 PUSH2 0x333D JUMP JUMPDEST DUP3 DUP5 MSTORE PUSH1 0x20 DUP4 DUP4 ADD ADD GT PUSH2 0x2AC JUMPI DUP2 PUSH0 SWAP3 PUSH1 0x20 DUP1 SWAP4 ADD DUP4 DUP7 ADD CALLDATACOPY DUP4 ADD ADD MSTORE SWAP1 JUMP JUMPDEST PUSH1 0x1 PUSH1 0x1 PUSH1 0x40 SHL SUB DUP2 GT PUSH2 0x7CC JUMPI PUSH1 0x5 SHL PUSH1 0x20 ADD SWAP1 JUMP JUMPDEST SWAP1 DUP1 PUSH1 0x1F DUP4 ADD SLT ISZERO PUSH2 0x2AC JUMPI DUP2 CALLDATALOAD PUSH2 0x33E1 DUP2 PUSH2 0x33B3 JUMP JUMPDEST SWAP3 PUSH2 0x33EF PUSH1 0x40 MLOAD SWAP5 DUP6 PUSH2 0x333D JUMP JUMPDEST DUP2 DUP5 MSTORE PUSH1 0x20 DUP1 DUP6 ADD SWAP3 PUSH1 0x5 SHL DUP3 ADD ADD SWAP2 DUP4 DUP4 GT PUSH2 0x2AC JUMPI PUSH1 0x20 DUP3 ADD SWAP1 JUMPDEST DUP4 DUP3 LT PUSH2 0x341B JUMPI POP POP POP POP POP SWAP1 JUMP JUMPDEST DUP2 CALLDATALOAD PUSH1 0x1 PUSH1 0x1 PUSH1 0x40 SHL SUB DUP2 GT PUSH2 0x2AC JUMPI PUSH1 0x20 SWAP2 PUSH2 0x343D DUP8 DUP5 DUP1 SWAP5 DUP9 ADD ADD PUSH2 0x335E JUMP JUMPDEST DUP2 MSTORE ADD SWAP2 ADD SWAP1 PUSH2 0x340C JUMP JUMPDEST DUP1 MLOAD DUP1 DUP4 MSTORE PUSH1 0x20 SWAP3 SWAP2 DUP2 SWAP1 DUP5 ADD DUP5 DUP5 ADD MCOPY PUSH0 DUP3 DUP3 ADD DUP5 ADD MSTORE PUSH1 0x1F ADD PUSH1 0x1F NOT AND ADD ADD SWAP1 JUMP JUMPDEST SWAP1 PUSH1 0xA DUP3 LT ISZERO PUSH2 0x3254 JUMPI MSTORE JUMP JUMPDEST PUSH1 0x80 SWAP1 PUSH1 0x3 NOT ADD SLT PUSH2 0x2AC JUMPI PUSH1 0x4 CALLDATALOAD SWAP1 PUSH1 0x24 CALLDATALOAD SWAP1 PUSH1 0x44 CALLDATALOAD SWAP1 PUSH1 0x64 CALLDATALOAD SWAP1 JUMP JUMPDEST PUSH1 0x60 SWAP1 PUSH1 0x3 NOT ADD SLT PUSH2 0x2AC JUMPI PUSH1 0x4 CALLDATALOAD SWAP1 PUSH1 0x24 CALLDATALOAD SWAP1 PUSH1 0x44 CALLDATALOAD SWAP1 JUMP JUMPDEST PUSH1 0x20 PUSH1 0x40 DUP2 DUP4 ADD SWAP3 DUP3 DUP2 MSTORE DUP5 MLOAD DUP1 SWAP5 MSTORE ADD SWAP3 ADD SWAP1 PUSH0 JUMPDEST DUP2 DUP2 LT PUSH2 0x34D4 JUMPI POP POP POP SWAP1 JUMP JUMPDEST DUP3 MLOAD DUP5 MSTORE PUSH1 0x20 SWAP4 DUP5 ADD SWAP4 SWAP1 SWAP3 ADD SWAP2 PUSH1 0x1 ADD PUSH2 0x34C7 JUMP JUMPDEST DUP1 SLOAD DUP3 LT ISZERO PUSH2 0x31DC JUMPI PUSH0 MSTORE PUSH1 0x3 PUSH1 0x20 PUSH0 KECCAK256 SWAP2 MUL ADD SWAP1 PUSH0 SWAP1 JUMP JUMPDEST PUSH1 0x40 SWAP1 PUSH1 0x3 NOT ADD SLT PUSH2 0x2AC JUMPI PUSH1 0x4 CALLDATALOAD PUSH1 0xA DUP2 LT ISZERO PUSH2 0x2AC JUMPI SWAP1 PUSH1 0x24 CALLDATALOAD SWAP1 JUMP JUMPDEST PUSH1 0xA DUP2 LT ISZERO PUSH2 0x3254 JUMPI PUSH0 MSTORE PUSH1 0x10 PUSH1 0x20 MSTORE PUSH1 0x40 PUSH0 KECCAK256 SWAP1 JUMP JUMPDEST SWAP1 PUSH1 0x1 DUP3 DUP2 SHR SWAP3 AND DUP1 ISZERO PUSH2 0x3567 JUMPI JUMPDEST PUSH1 0x20 DUP4 LT EQ PUSH2 0x3553 JUMPI JUMP JUMPDEST PUSH4 0x4E487B71 PUSH1 0xE0 SHL PUSH0 MSTORE PUSH1 0x22 PUSH1 0x4 MSTORE PUSH1 0x24 PUSH0 REVERT JUMPDEST SWAP2 PUSH1 0x7F AND SWAP2 PUSH2 0x3548 JUMP JUMPDEST SWAP1 PUSH1 0x40 MLOAD SWAP2 DUP3 PUSH0 DUP3 SLOAD SWAP3 PUSH2 0x3584 DUP5 PUSH2 0x3539 JUMP JUMPDEST DUP1 DUP5 MSTORE SWAP4 PUSH1 0x1 DUP2 AND SWAP1 DUP2 ISZERO PUSH2 0x35EF JUMPI POP PUSH1 0x1 EQ PUSH2 0x35AB JUMPI JUMPDEST POP PUSH2 0x35A9 SWAP3 POP SUB DUP4 PUSH2 0x333D JUMP JUMPDEST JUMP JUMPDEST SWAP1 POP PUSH0 SWAP3 SWAP2 SWAP3 MSTORE PUSH1 0x20 PUSH0 KECCAK256 SWAP1 PUSH0 SWAP2 JUMPDEST DUP2 DUP4 LT PUSH2 0x35D3 JUMPI POP POP SWAP1 PUSH1 0x20 PUSH2 0x35A9 SWAP3 DUP3 ADD ADD PUSH0 PUSH2 0x359C JUMP JUMPDEST PUSH1 0x20 SWAP2 SWAP4 POP DUP1 PUSH1 0x1 SWAP2 SLOAD DUP4 DUP6 DUP10 ADD ADD MSTORE ADD SWAP2 ADD SWAP1 SWAP2 DUP5 SWAP3 PUSH2 0x35BA JUMP JUMPDEST SWAP1 POP PUSH1 0x20 SWAP3 POP PUSH2 0x35A9 SWAP5 SWAP2 POP PUSH1 0xFF NOT AND DUP3 DUP5 ADD MSTORE ISZERO ISZERO PUSH1 0x5 SHL DUP3 ADD ADD PUSH0 PUSH2 0x359C JUMP JUMPDEST PUSH1 0x40 MLOAD SWAP1 PUSH2 0x361E DUP3 PUSH2 0x32D0 JUMP JUMPDEST PUSH0 PUSH1 0x80 DUP4 DUP3 DUP2 MSTORE DUP3 PUSH1 0x20 DUP3 ADD MSTORE DUP3 PUSH1 0x40 DUP3 ADD MSTORE DUP3 PUSH1 0x60 DUP3 ADD MSTORE ADD MSTORE JUMP JUMPDEST PUSH0 NOT DUP2 EQ PUSH2 0x726 JUMPI PUSH1 0x1 ADD SWAP1 JUMP JUMPDEST SWAP2 SWAP1 DUP3 ADD DUP1 SWAP3 GT PUSH2 0x726 JUMPI JUMP JUMPDEST DUP2 ISZERO PUSH2 0x2C92 JUMPI DIV SWAP1 JUMP JUMPDEST DUP1 MLOAD DUP3 LT ISZERO PUSH2 0x31DC JUMPI PUSH1 0x20 SWAP2 PUSH1 0x5 SHL ADD ADD SWAP1 JUMP JUMPDEST DUP1 SLOAD PUSH1 0x1 PUSH1 0x40 SHL DUP2 LT ISZERO PUSH2 0x7CC JUMPI PUSH2 0x3691 SWAP2 PUSH1 0x1 DUP3 ADD DUP2 SSTORE PUSH2 0x34EA JUMP JUMPDEST SWAP2 SWAP1 SWAP2 PUSH2 0x36B2 JUMPI PUSH1 0x40 DUP2 PUSH1 0x2 SWAP3 MLOAD DUP5 SSTORE PUSH1 0x20 DUP2 ADD MLOAD PUSH1 0x1 DUP6 ADD SSTORE ADD MLOAD SWAP2 ADD SSTORE JUMP JUMPDEST PUSH4 0x4E487B71 PUSH1 0xE0 SHL PUSH0 MSTORE PUSH0 PUSH1 0x4 MSTORE PUSH1 0x24 PUSH0 REVERT JUMPDEST ISZERO PUSH2 0x36CC JUMPI JUMP JUMPDEST PUSH1 0x40 MLOAD PUSH3 0x461BCD PUSH1 0xE5 SHL DUP2 MSTORE PUSH1 0x20 PUSH1 0x4 DUP3 ADD MSTORE PUSH1 0x15 PUSH1 0x24 DUP3 ADD MSTORE PUSH21 0x13585C9AD95D08191BD95CC81B9BDD08195E1A5CDD PUSH1 0x5A SHL PUSH1 0x44 DUP3 ADD MSTORE PUSH1 0x64 SWAP1 REVERT JUMPDEST SWAP2 SWAP1 DUP3 SUB SWAP2 DUP3 GT PUSH2 0x726 JUMPI JUMP JUMPDEST ISZERO PUSH2 0x371D JUMPI JUMP JUMPDEST PUSH1 0x40 MLOAD PUSH3 0x461BCD PUSH1 0xE5 SHL DUP2 MSTORE PUSH1 0x20 PUSH1 0x4 DUP3 ADD MSTORE PUSH1 0x10 PUSH1 0x24 DUP3 ADD MSTORE PUSH16 0x13585C9AD95D081A185CC8195B991959 PUSH1 0x82 SHL PUSH1 0x44 DUP3 ADD MSTORE PUSH1 0x64 SWAP1 REVERT JUMPDEST ISZERO PUSH2 0x375C JUMPI JUMP JUMPDEST PUSH1 0x40 MLOAD PUSH3 0x461BCD PUSH1 0xE5 SHL DUP2 MSTORE PUSH1 0x20 PUSH1 0x4 DUP3 ADD MSTORE PUSH1 0x17 PUSH1 0x24 DUP3 ADD MSTORE PUSH32 0x4D61726B657420616C7265616479207265736F6C766564000000000000000000 PUSH1 0x44 DUP3 ADD MSTORE PUSH1 0x64 SWAP1 REVERT JUMPDEST ISZERO PUSH2 0x37A8 JUMPI JUMP JUMPDEST PUSH1 0x40 MLOAD PUSH3 0x461BCD PUSH1 0xE5 SHL DUP2 MSTORE PUSH1 0x20 PUSH1 0x4 DUP3 ADD MSTORE PUSH1 0xE PUSH1 0x24 DUP3 ADD MSTORE PUSH14 0x24B73B30B634B21037B83A34B7B7 PUSH1 0x91 SHL PUSH1 0x44 DUP3 ADD MSTORE PUSH1 0x64 SWAP1 REVERT JUMPDEST ISZERO PUSH2 0x37E5 JUMPI JUMP JUMPDEST PUSH1 0x40 MLOAD PUSH3 0x461BCD PUSH1 0xE5 SHL DUP2 MSTORE PUSH1 0x20 PUSH1 0x4 DUP3 ADD MSTORE PUSH1 0x11 PUSH1 0x24 DUP3 ADD MSTORE PUSH17 0x4F7074696F6E206E6F7420616374697665 PUSH1 0x78 SHL PUSH1 0x44 DUP3 ADD MSTORE PUSH1 0x64 SWAP1 REVERT JUMPDEST ISZERO PUSH2 0x3825 JUMPI JUMP JUMPDEST PUSH1 0x40 MLOAD PUSH3 0x461BCD PUSH1 0xE5 SHL DUP2 MSTORE PUSH1 0x20 PUSH1 0x4 DUP3 ADD MSTORE PUSH1 0x19 PUSH1 0x24 DUP3 ADD MSTORE PUSH32 0x5175616E74697479206D75737420626520706F73697469766500000000000000 PUSH1 0x44 DUP3 ADD MSTORE PUSH1 0x64 SWAP1 REVERT JUMPDEST DUP2 DUP2 MUL SWAP3 SWAP2 DUP2 ISZERO SWAP2 DUP5 DIV EQ OR ISZERO PUSH2 0x726 JUMPI JUMP JUMPDEST DUP1 SLOAD PUSH1 0x1 PUSH1 0x40 SHL DUP2 LT ISZERO PUSH2 0x7CC JUMPI PUSH2 0x389A SWAP2 PUSH1 0x1 DUP3 ADD DUP2 SSTORE PUSH2 0x3231 JUMP JUMPDEST PUSH2 0x36B2 JUMPI DUP2 MLOAD DUP2 SSTORE PUSH1 0x20 DUP3 ADD MLOAD PUSH1 0x1 DUP3 ADD SSTORE PUSH1 0x40 DUP3 ADD MLOAD PUSH1 0x2 DUP3 ADD DUP1 SLOAD PUSH1 0x1 PUSH1 0x1 PUSH1 0xA0 SHL SUB SWAP3 DUP4 AND PUSH1 0x1 PUSH1 0x1 PUSH1 0xA0 SHL SUB NOT SWAP2 DUP3 AND OR SWAP1 SWAP2 SSTORE PUSH1 0x60 DUP5 ADD MLOAD PUSH1 0x3 DUP5 ADD DUP1 SLOAD SWAP2 SWAP1 SWAP4 AND SWAP2 AND OR SWAP1 SSTORE PUSH1 0x80 DUP3 ADD MLOAD PUSH1 0x4 DUP3 ADD SSTORE PUSH1 0xA0 DUP3 ADD MLOAD PUSH1 0x5 DUP3 ADD SSTORE PUSH1 0xC0 DUP3 ADD MLOAD PUSH1 0x6 DUP3 ADD SSTORE PUSH1 0xE0 SWAP1 SWAP2 ADD MLOAD PUSH1 0x7 SWAP1 SWAP2 ADD SWAP1 PUSH2 0x3919 DUP2 PUSH2 0x324A JUMP JUMPDEST PUSH2 0x3922 DUP2 PUSH2 0x324A JUMP JUMPDEST PUSH1 0xFF DUP1 NOT DUP4 SLOAD AND SWAP2 AND OR SWAP1 SSTORE JUMP JUMPDEST SWAP1 DUP2 PUSH1 0x20 SWAP2 SUB SLT PUSH2 0x2AC JUMPI MLOAD DUP1 ISZERO ISZERO DUP2 SUB PUSH2 0x2AC JUMPI SWAP1 JUMP JUMPDEST ISZERO PUSH2 0x394F JUMPI JUMP JUMPDEST PUSH1 0x40 MLOAD PUSH3 0x461BCD PUSH1 0xE5 SHL DUP2 MSTORE PUSH1 0x20 PUSH1 0x4 DUP3 ADD MSTORE PUSH1 0xF PUSH1 0x24 DUP3 ADD MSTORE PUSH15 0x151C985B9CD9995C8819985A5B1959 PUSH1 0x8A SHL PUSH1 0x44 DUP3 ADD MSTORE PUSH1 0x64 SWAP1 REVERT JUMPDEST SWAP1 PUSH2 0x3990 DUP3 PUSH2 0x33B3 JUMP JUMPDEST PUSH2 0x399D PUSH1 0x40 MLOAD SWAP2 DUP3 PUSH2 0x333D JUMP JUMPDEST DUP3 DUP2 MSTORE DUP1 SWAP3 PUSH2 0x39AE PUSH1 0x1F NOT SWAP2 PUSH2 0x33B3 JUMP JUMPDEST ADD SWAP1 PUSH1 0x20 CALLDATASIZE SWAP2 ADD CALLDATACOPY JUMP JUMPDEST PUSH1 0xFF PUSH1 0x3 SLOAD AND PUSH2 0x39C4 JUMPI JUMP JUMPDEST PUSH4 0xD93C0665 PUSH1 0xE0 SHL PUSH0 MSTORE PUSH1 0x4 PUSH0 REVERT JUMPDEST PUSH0 DUP2 DUP2 MSTORE PUSH1 0x2 PUSH1 0x20 SWAP1 DUP2 MSTORE PUSH1 0x40 DUP1 DUP4 KECCAK256 CALLER DUP5 MSTORE SWAP1 SWAP2 MSTORE SWAP1 KECCAK256 SLOAD PUSH1 0xFF AND ISZERO PUSH2 0x39F7 JUMPI POP JUMP JUMPDEST PUSH4 0xE2517D3F PUSH1 0xE0 SHL PUSH0 MSTORE CALLER PUSH1 0x4 MSTORE PUSH1 0x24 MSTORE PUSH1 0x44 PUSH0 REVERT JUMPDEST PUSH1 0x1 PUSH1 0x1 PUSH1 0xA0 SHL SUB DUP2 AND PUSH0 SWAP1 DUP2 MSTORE PUSH32 0x8E2C297E756B2A427C5DC4607F639842A8EA6E0F6322302F4EA76306B642CFC2 PUSH1 0x20 MSTORE PUSH1 0x40 SWAP1 KECCAK256 SLOAD PUSH1 0xFF AND PUSH2 0x3AC6 JUMPI PUSH1 0x1 PUSH1 0x1 PUSH1 0xA0 SHL SUB AND PUSH0 DUP2 DUP2 MSTORE PUSH32 0x8E2C297E756B2A427C5DC4607F639842A8EA6E0F6322302F4EA76306B642CFC2 PUSH1 0x20 MSTORE PUSH1 0x40 DUP2 KECCAK256 DUP1 SLOAD PUSH1 0xFF NOT AND PUSH1 0x1 OR SWAP1 SSTORE CALLER SWAP2 SWAP1 PUSH32 0xDCEE1D35C83A32B436264A5C9AFD68685C124F3F9097E87804C55410E67FC59A SWAP1 PUSH0 DUP1 MLOAD PUSH1 0x20 PUSH2 0x3DDD DUP4 CODECOPY DUP2 MLOAD SWAP2 MSTORE SWAP1 DUP1 LOG4 PUSH1 0x1 SWAP1 JUMP JUMPDEST POP PUSH0 SWAP1 JUMP JUMPDEST PUSH1 0x1 PUSH1 0x1 PUSH1 0xA0 SHL SUB DUP2 AND PUSH0 SWAP1 DUP2 MSTORE PUSH32 0x30D995518B427F5A5863AD73FE356CA50CF70941F42C516830919C845FA5806F PUSH1 0x20 MSTORE PUSH1 0x40 SWAP1 KECCAK256 SLOAD PUSH1 0xFF AND PUSH2 0x3AC6 JUMPI PUSH1 0x1 PUSH1 0x1 PUSH1 0xA0 SHL SUB AND PUSH0 DUP2 DUP2 MSTORE PUSH32 0x30D995518B427F5A5863AD73FE356CA50CF70941F42C516830919C845FA5806F PUSH1 0x20 MSTORE PUSH1 0x40 DUP2 KECCAK256 DUP1 SLOAD PUSH1 0xFF NOT AND PUSH1 0x1 OR SWAP1 SSTORE CALLER SWAP2 SWAP1 PUSH32 0xEF485BE696BBC0C91AD541BBD553FFB5BD0E18DAC30BA76E992DDA23CB807A8A SWAP1 PUSH0 DUP1 MLOAD PUSH1 0x20 PUSH2 0x3DDD DUP4 CODECOPY DUP2 MLOAD SWAP2 MSTORE SWAP1 DUP1 LOG4 PUSH1 0x1 SWAP1 JUMP JUMPDEST PUSH1 0x1 PUSH1 0x1 PUSH1 0xA0 SHL SUB DUP2 AND PUSH0 SWAP1 DUP2 MSTORE PUSH32 0xD3DCCF8D8289B9DEEE17E361620D7577DE7B525DD57F668D5C1BB85EC53112B5 PUSH1 0x20 MSTORE PUSH1 0x40 SWAP1 KECCAK256 SLOAD PUSH1 0xFF AND PUSH2 0x3AC6 JUMPI PUSH1 0x1 PUSH1 0x1 PUSH1 0xA0 SHL SUB AND PUSH0 DUP2 DUP2 MSTORE PUSH32 0xD3DCCF8D8289B9DEEE17E361620D7577DE7B525DD57F668D5C1BB85EC53112B5 PUSH1 0x20 MSTORE PUSH1 0x40 DUP2 KECCAK256 DUP1 SLOAD PUSH1 0xFF NOT AND PUSH1 0x1 OR SWAP1 SSTORE CALLER SWAP2 SWAP1 PUSH32 0xD486618B282CB35034D59C30C062B5B3822D6CDF87EC459191CE7F5B7B8A4873 SWAP1 PUSH0 DUP1 MLOAD PUSH1 0x20 PUSH2 0x3DDD DUP4 CODECOPY DUP2 MLOAD SWAP2 MSTORE SWAP1 DUP1 LOG4 PUSH1 0x1 SWAP1 JUMP JUMPDEST PUSH0 DUP2 DUP2 MSTORE PUSH1 0x2 PUSH1 0x20 SWAP1 DUP2 MSTORE PUSH1 0x40 DUP1 DUP4 KECCAK256 PUSH1 0x1 PUSH1 0x1 PUSH1 0xA0 SHL SUB DUP7 AND DUP5 MSTORE SWAP1 SWAP2 MSTORE SWAP1 KECCAK256 SLOAD PUSH1 0xFF AND PUSH2 0x3CB0 JUMPI PUSH0 DUP2 DUP2 MSTORE PUSH1 0x2 PUSH1 0x20 SWAP1 DUP2 MSTORE PUSH1 0x40 DUP1 DUP4 KECCAK256 PUSH1 0x1 PUSH1 0x1 PUSH1 0xA0 SHL SUB SWAP6 SWAP1 SWAP6 AND DUP1 DUP5 MSTORE SWAP5 SWAP1 SWAP2 MSTORE DUP2 KECCAK256 DUP1 SLOAD PUSH1 0xFF NOT AND PUSH1 0x1 OR SWAP1 SSTORE CALLER SWAP3 SWAP2 SWAP1 PUSH0 DUP1 MLOAD PUSH1 0x20 PUSH2 0x3DDD DUP4 CODECOPY DUP2 MLOAD SWAP2 MSTORE SWAP1 DUP1 LOG4 PUSH1 0x1 SWAP1 JUMP JUMPDEST POP POP PUSH0 SWAP1 JUMP JUMPDEST PUSH0 SLOAD PUSH1 0x1 PUSH1 0x1 PUSH1 0xA0 SHL SUB AND CALLER SUB PUSH2 0x3CC9 JUMPI JUMP JUMPDEST PUSH4 0x118CDAA7 PUSH1 0xE0 SHL PUSH0 MSTORE CALLER PUSH1 0x4 MSTORE PUSH1 0x24 PUSH0 REVERT JUMPDEST PUSH0 DUP2 DUP2 MSTORE PUSH1 0x2 PUSH1 0x20 SWAP1 DUP2 MSTORE PUSH1 0x40 DUP1 DUP4 KECCAK256 PUSH1 0x1 PUSH1 0x1 PUSH1 0xA0 SHL SUB DUP7 AND DUP5 MSTORE SWAP1 SWAP2 MSTORE SWAP1 KECCAK256 SLOAD PUSH1 0xFF AND ISZERO PUSH2 0x3CB0 JUMPI PUSH0 DUP2 DUP2 MSTORE PUSH1 0x2 PUSH1 0x20 SWAP1 DUP2 MSTORE PUSH1 0x40 DUP1 DUP4 KECCAK256 PUSH1 0x1 PUSH1 0x1 PUSH1 0xA0 SHL SUB SWAP6 SWAP1 SWAP6 AND DUP1 DUP5 MSTORE SWAP5 SWAP1 SWAP2 MSTORE DUP2 KECCAK256 DUP1 SLOAD PUSH1 0xFF NOT AND SWAP1 SSTORE CALLER SWAP3 SWAP2 SWAP1 PUSH32 0xF6391F5C32D9C69D2A47EA670B442974B53935D1EDC7FD64EB21E047A839171B SWAP1 DUP1 LOG4 PUSH1 0x1 SWAP1 JUMP JUMPDEST PUSH1 0x2 PUSH1 0x1 SLOAD EQ PUSH2 0x3D71 JUMPI PUSH1 0x2 PUSH1 0x1 SSTORE JUMP JUMPDEST PUSH4 0x3EE5AEB5 PUSH1 0xE0 SHL PUSH0 MSTORE PUSH1 0x4 PUSH0 REVERT JUMPDEST SWAP1 PUSH0 MSTORE PUSH1 0x8 PUSH1 0x20 MSTORE PUSH1 0x40 PUSH0 KECCAK256 SWAP1 PUSH0 SWAP1 PUSH1 0xB PUSH1 0x9 DUP5 ADD SLOAD SWAP4 ADD SWAP2 JUMPDEST DUP4 DUP2 LT PUSH2 0x3DAA JUMPI POP POP POP POP PUSH1 0x1 SWAP1 JUMP JUMPDEST PUSH1 0x1 DUP1 PUSH1 0xA0 SHL SUB DUP3 AND PUSH0 MSTORE DUP3 PUSH1 0x20 MSTORE PUSH1 0x40 PUSH0 KECCAK256 DUP2 PUSH0 MSTORE PUSH1 0x20 MSTORE PUSH1 0x40 PUSH0 KECCAK256 SLOAD PUSH2 0x3DD4 JUMPI PUSH1 0x1 ADD PUSH2 0x3D9A JUMP JUMPDEST POP POP POP POP PUSH0 SWAP1 JUMP INVALID 0x2F DUP8 DUP9 GT PUSH31 0x7EFF1D82E926EC794901D17C78024A50270940304540A733656F0DA2646970 PUSH7 0x73582212204AF7 GT GASLIMIT DUP11 0xA9 ADD SIGNEXTEND PC SAR KECCAK256 0x24 NOT PUSH25 0x3F7839EBB1A173A9526BB035EF71921E847764736F6C634300 ADDMOD BYTE STOP CALLER 0xAC CALLER SELFDESTRUCT PUSH22 0xC19E70FE83507DB0D683FD3465C996598DC972688B7A 0xCE PUSH8 0x6C89077B00000000 "
		},
		"gasEstimates": {
			"creation": {
				"codeDepositCost": "3184400",
				"executionCost": "infinite",
				"totalCost": "infinite"
			},
			"external": {
				"DEFAULT_ADMIN_ROLE()": "1032",
				"MARKET_VALIDATOR_ROLE()": "439",
				"MAX_MARKET_DURATION()": "835",
				"MAX_OPTIONS()": "219",
				"MIN_MARKET_DURATION()": "1011",
				"QUESTION_CREATOR_ROLE()": "791",
				"QUESTION_RESOLVE_ROLE()": "769",
				"allParticipants(uint256)": "6655",
				"bettingToken()": "2685",
				"buyShares(uint256,uint256,uint256,uint256)": "infinite",
				"calculateCurrentPrice(uint256,uint256)": "3485",
				"categoryMarkets(uint8,uint256)": "7741",
				"claimWinnings(uint256)": "infinite",
				"createMarket(string,string,string[],string[],uint256,uint8)": "infinite",
				"disputeMarket(uint256,string)": "infinite",
				"getBettingToken()": "2531",
				"getLeaderboard(uint256,uint256)": "infinite",
				"getMarketCount()": "3485",
				"getMarketInfo(uint256)": "infinite",
				"getMarketOption(uint256,uint256)": "infinite",
				"getMarketStats(uint256)": "infinite",
				"getMarketsByCategory(uint8,uint256)": "infinite",
				"getPriceHistory(uint256,uint256,uint256)": "infinite",
				"getRoleAdmin(bytes32)": "2540",
				"getUserPortfolio(address)": "infinite",
				"getUserShares(uint256,address)": "infinite",
				"grantMarketValidatorRole(address)": "36240",
				"grantQuestionCreatorRole(address)": "35800",
				"grantQuestionResolveRole(address)": "35558",
				"grantRole(bytes32,address)": "33573",
				"hasRole(bytes32,address)": "3299",
				"marketCount()": "3400",
				"marketOrderBook(uint256,uint256)": "6935",
				"marketTrades(uint256,uint256)": "21896",
				"markets(uint256)": "infinite",
				"orderCount()": "2432",
				"orders(uint256)": "infinite",
				"owner()": "3071",
				"pause()": "30416",
				"paused()": "2752",
				"platformFeeRate()": "3444",
				"priceHistory(uint256,uint256,uint256)": "11942",
				"renounceOwnership()": "28622",
				"renounceRole(bytes32,address)": "29171",
				"resolveMarket(uint256,uint256)": "59590",
				"revokeRole(bytes32,address)": "34396",
				"sellShares(uint256,uint256,uint256,uint256)": "infinite",
				"setPlatformFeeRate(uint256)": "25259",
				"supportsInterface(bytes4)": "270",
				"totalWinnings(address)": "3176",
				"tradeCount()": "3334",
				"transferOwnership(address)": "29380",
				"unpause()": "27937",
				"userOrders(address,uint256)": "7525",
				"userPortfolios(address)": "11970",
				"userTradeHistory(address,uint256)": "21908",
				"validateMarket(uint256)": "35497"
			},
			"internal": {
				"_isNewParticipant(address,uint256)": "infinite",
				"calculateNewPrice(uint256,uint256,uint256,bool)": "infinite"
			}
		},
		"methodIdentifiers": {
			"DEFAULT_ADMIN_ROLE()": "a217fddf",
			"MARKET_VALIDATOR_ROLE()": "32617b70",
			"MAX_MARKET_DURATION()": "7e50898e",
			"MAX_OPTIONS()": "0da183d6",
			"MIN_MARKET_DURATION()": "92f012b2",
			"QUESTION_CREATOR_ROLE()": "77b4a3e7",
			"QUESTION_RESOLVE_ROLE()": "755f0629",
			"allParticipants(uint256)": "05e33dd0",
			"bettingToken()": "43425e88",
			"buyShares(uint256,uint256,uint256,uint256)": "ed881230",
			"calculateCurrentPrice(uint256,uint256)": "b1ab13ff",
			"categoryMarkets(uint8,uint256)": "a8cc7f19",
			"claimWinnings(uint256)": "677bd9ff",
			"createMarket(string,string,string[],string[],uint256,uint8)": "204f6125",
			"disputeMarket(uint256,string)": "4a2021ef",
			"getBettingToken()": "29cf655b",
			"getLeaderboard(uint256,uint256)": "73af16fc",
			"getMarketCount()": "fd69f3c2",
			"getMarketInfo(uint256)": "3ec79193",
			"getMarketOption(uint256,uint256)": "222fa267",
			"getMarketStats(uint256)": "58057fe5",
			"getMarketsByCategory(uint8,uint256)": "c2454af7",
			"getPriceHistory(uint256,uint256,uint256)": "7c946454",
			"getRoleAdmin(bytes32)": "248a9ca3",
			"getUserPortfolio(address)": "1edb27e9",
			"getUserShares(uint256,address)": "835dc40b",
			"grantMarketValidatorRole(address)": "abdce1a4",
			"grantQuestionCreatorRole(address)": "6db3b4dc",
			"grantQuestionResolveRole(address)": "35037e0b",
			"grantRole(bytes32,address)": "2f2ff15d",
			"hasRole(bytes32,address)": "91d14854",
			"marketCount()": "ec979082",
			"marketOrderBook(uint256,uint256)": "257ff7b6",
			"marketTrades(uint256,uint256)": "1cb1de2f",
			"markets(uint256)": "b1283e77",
			"orderCount()": "2453ffa8",
			"orders(uint256)": "a85c38ef",
			"owner()": "8da5cb5b",
			"pause()": "8456cb59",
			"paused()": "5c975abb",
			"platformFeeRate()": "eeca08f0",
			"priceHistory(uint256,uint256,uint256)": "a75dd115",
			"renounceOwnership()": "715018a6",
			"renounceRole(bytes32,address)": "36568abe",
			"resolveMarket(uint256,uint256)": "60557333",
			"revokeRole(bytes32,address)": "d547741f",
			"sellShares(uint256,uint256,uint256,uint256)": "5a2db6fb",
			"setPlatformFeeRate(uint256)": "927fef2e",
			"supportsInterface(bytes4)": "01ffc9a7",
			"totalWinnings(address)": "8b8840e0",
			"tradeCount()": "bd55022a",
			"transferOwnership(address)": "f2fde38b",
			"unpause()": "3f4ba83a",
			"userOrders(address,uint256)": "856652e9",
			"userPortfolios(address)": "b61920c1",
			"userTradeHistory(address,uint256)": "08693f3c",
			"validateMarket(uint256)": "ab44e635"
		}
	},
	"abi": [
		{
			"inputs": [
				{
					"internalType": "address",
					"name": "_bettingToken",
					"type": "address"
				}
			],
			"stateMutability": "nonpayable",
			"type": "constructor"
		},
		{
			"inputs": [],
			"name": "AccessControlBadConfirmation",
			"type": "error"
		},
		{
			"inputs": [
				{
					"internalType": "address",
					"name": "account",
					"type": "address"
				},
				{
					"internalType": "bytes32",
					"name": "neededRole",
					"type": "bytes32"
				}
			],
			"name": "AccessControlUnauthorizedAccount",
			"type": "error"
		},
		{
			"inputs": [],
			"name": "EnforcedPause",
			"type": "error"
		},
		{
			"inputs": [],
			"name": "ExpectedPause",
			"type": "error"
		},
		{
			"inputs": [
				{
					"internalType": "address",
					"name": "owner",
					"type": "address"
				}
			],
			"name": "OwnableInvalidOwner",
			"type": "error"
		},
		{
			"inputs": [
				{
					"internalType": "address",
					"name": "account",
					"type": "address"
				}
			],
			"name": "OwnableUnauthorizedAccount",
			"type": "error"
		},
		{
			"inputs": [],
			"name": "ReentrancyGuardReentrantCall",
			"type": "error"
		},
		{
			"anonymous": false,
			"inputs": [
				{
					"indexed": true,
					"internalType": "uint256",
					"name": "marketId",
					"type": "uint256"
				},
				{
					"indexed": true,
					"internalType": "address",
					"name": "user",
					"type": "address"
				},
				{
					"indexed": false,
					"internalType": "uint256",
					"name": "amount",
					"type": "uint256"
				}
			],
			"name": "Claimed",
			"type": "event"
		},
		{
			"anonymous": false,
			"inputs": [
				{
					"indexed": true,
					"internalType": "uint256",
					"name": "marketId",
					"type": "uint256"
				},
				{
					"indexed": false,
					"internalType": "uint256",
					"name": "amount",
					"type": "uint256"
				}
			],
			"name": "FeeCollected",
			"type": "event"
		},
		{
			"anonymous": false,
			"inputs": [
				{
					"indexed": true,
					"internalType": "uint256",
					"name": "marketId",
					"type": "uint256"
				},
				{
					"indexed": false,
					"internalType": "string",
					"name": "question",
					"type": "string"
				},
				{
					"indexed": false,
					"internalType": "string[]",
					"name": "options",
					"type": "string[]"
				},
				{
					"indexed": false,
					"internalType": "uint256",
					"name": "endTime",
					"type": "uint256"
				},
				{
					"indexed": false,
					"internalType": "enum PolicastMarketV2.MarketCategory",
					"name": "category",
					"type": "uint8"
				},
				{
					"indexed": false,
					"internalType": "address",
					"name": "creator",
					"type": "address"
				}
			],
			"name": "MarketCreated",
			"type": "event"
		},
		{
			"anonymous": false,
			"inputs": [
				{
					"indexed": true,
					"internalType": "uint256",
					"name": "marketId",
					"type": "uint256"
				},
				{
					"indexed": false,
					"internalType": "address",
					"name": "disputer",
					"type": "address"
				},
				{
					"indexed": false,
					"internalType": "string",
					"name": "reason",
					"type": "string"
				}
			],
			"name": "MarketDisputed",
			"type": "event"
		},
		{
			"anonymous": false,
			"inputs": [
				{
					"indexed": true,
					"internalType": "uint256",
					"name": "marketId",
					"type": "uint256"
				},
				{
					"indexed": false,
					"internalType": "uint256",
					"name": "winningOptionId",
					"type": "uint256"
				},
				{
					"indexed": false,
					"internalType": "address",
					"name": "resolver",
					"type": "address"
				}
			],
			"name": "MarketResolved",
			"type": "event"
		},
		{
			"anonymous": false,
			"inputs": [
				{
					"indexed": true,
					"internalType": "uint256",
					"name": "marketId",
					"type": "uint256"
				},
				{
					"indexed": false,
					"internalType": "address",
					"name": "validator",
					"type": "address"
				}
			],
			"name": "MarketValidated",
			"type": "event"
		},
		{
			"anonymous": false,
			"inputs": [
				{
					"indexed": true,
					"internalType": "uint256",
					"name": "orderId",
					"type": "uint256"
				},
				{
					"indexed": false,
					"internalType": "address",
					"name": "maker",
					"type": "address"
				}
			],
			"name": "OrderCancelled",
			"type": "event"
		},
		{
			"anonymous": false,
			"inputs": [
				{
					"indexed": true,
					"internalType": "uint256",
					"name": "orderId",
					"type": "uint256"
				},
				{
					"indexed": true,
					"internalType": "uint256",
					"name": "marketId",
					"type": "uint256"
				},
				{
					"indexed": true,
					"internalType": "uint256",
					"name": "optionId",
					"type": "uint256"
				},
				{
					"indexed": false,
					"internalType": "address",
					"name": "maker",
					"type": "address"
				},
				{
					"indexed": false,
					"internalType": "enum PolicastMarketV2.OrderType",
					"name": "orderType",
					"type": "uint8"
				},
				{
					"indexed": false,
					"internalType": "enum PolicastMarketV2.OrderSide",
					"name": "side",
					"type": "uint8"
				},
				{
					"indexed": false,
					"internalType": "uint256",
					"name": "price",
					"type": "uint256"
				},
				{
					"indexed": false,
					"internalType": "uint256",
					"name": "quantity",
					"type": "uint256"
				}
			],
			"name": "OrderPlaced",
			"type": "event"
		},
		{
			"anonymous": false,
			"inputs": [
				{
					"indexed": true,
					"internalType": "address",
					"name": "previousOwner",
					"type": "address"
				},
				{
					"indexed": true,
					"internalType": "address",
					"name": "newOwner",
					"type": "address"
				}
			],
			"name": "OwnershipTransferred",
			"type": "event"
		},
		{
			"anonymous": false,
			"inputs": [
				{
					"indexed": false,
					"internalType": "address",
					"name": "account",
					"type": "address"
				}
			],
			"name": "Paused",
			"type": "event"
		},
		{
			"anonymous": false,
			"inputs": [
				{
					"indexed": true,
					"internalType": "bytes32",
					"name": "role",
					"type": "bytes32"
				},
				{
					"indexed": true,
					"internalType": "bytes32",
					"name": "previousAdminRole",
					"type": "bytes32"
				},
				{
					"indexed": true,
					"internalType": "bytes32",
					"name": "newAdminRole",
					"type": "bytes32"
				}
			],
			"name": "RoleAdminChanged",
			"type": "event"
		},
		{
			"anonymous": false,
			"inputs": [
				{
					"indexed": true,
					"internalType": "bytes32",
					"name": "role",
					"type": "bytes32"
				},
				{
					"indexed": true,
					"internalType": "address",
					"name": "account",
					"type": "address"
				},
				{
					"indexed": true,
					"internalType": "address",
					"name": "sender",
					"type": "address"
				}
			],
			"name": "RoleGranted",
			"type": "event"
		},
		{
			"anonymous": false,
			"inputs": [
				{
					"indexed": true,
					"internalType": "bytes32",
					"name": "role",
					"type": "bytes32"
				},
				{
					"indexed": true,
					"internalType": "address",
					"name": "account",
					"type": "address"
				},
				{
					"indexed": true,
					"internalType": "address",
					"name": "sender",
					"type": "address"
				}
			],
			"name": "RoleRevoked",
			"type": "event"
		},
		{
			"anonymous": false,
			"inputs": [
				{
					"indexed": true,
					"internalType": "uint256",
					"name": "marketId",
					"type": "uint256"
				},
				{
					"indexed": true,
					"internalType": "uint256",
					"name": "optionId",
					"type": "uint256"
				},
				{
					"indexed": true,
					"internalType": "address",
					"name": "seller",
					"type": "address"
				},
				{
					"indexed": false,
					"internalType": "uint256",
					"name": "quantity",
					"type": "uint256"
				},
				{
					"indexed": false,
					"internalType": "uint256",
					"name": "price",
					"type": "uint256"
				}
			],
			"name": "SharesSold",
			"type": "event"
		},
		{
			"anonymous": false,
			"inputs": [
				{
					"indexed": true,
					"internalType": "uint256",
					"name": "marketId",
					"type": "uint256"
				},
				{
					"indexed": true,
					"internalType": "uint256",
					"name": "optionId",
					"type": "uint256"
				},
				{
					"indexed": true,
					"internalType": "address",
					"name": "buyer",
					"type": "address"
				},
				{
					"indexed": false,
					"internalType": "address",
					"name": "seller",
					"type": "address"
				},
				{
					"indexed": false,
					"internalType": "uint256",
					"name": "price",
					"type": "uint256"
				},
				{
					"indexed": false,
					"internalType": "uint256",
					"name": "quantity",
					"type": "uint256"
				},
				{
					"indexed": false,
					"internalType": "uint256",
					"name": "tradeId",
					"type": "uint256"
				}
			],
			"name": "TradeExecuted",
			"type": "event"
		},
		{
			"anonymous": false,
			"inputs": [
				{
					"indexed": false,
					"internalType": "address",
					"name": "account",
					"type": "address"
				}
			],
			"name": "Unpaused",
			"type": "event"
		},
		{
			"inputs": [],
			"name": "DEFAULT_ADMIN_ROLE",
			"outputs": [
				{
					"internalType": "bytes32",
					"name": "",
					"type": "bytes32"
				}
			],
			"stateMutability": "view",
			"type": "function"
		},
		{
			"inputs": [],
			"name": "MARKET_VALIDATOR_ROLE",
			"outputs": [
				{
					"internalType": "bytes32",
					"name": "",
					"type": "bytes32"
				}
			],
			"stateMutability": "view",
			"type": "function"
		},
		{
			"inputs": [],
			"name": "MAX_MARKET_DURATION",
			"outputs": [
				{
					"internalType": "uint256",
					"name": "",
					"type": "uint256"
				}
			],
			"stateMutability": "view",
			"type": "function"
		},
		{
			"inputs": [],
			"name": "MAX_OPTIONS",
			"outputs": [
				{
					"internalType": "uint256",
					"name": "",
					"type": "uint256"
				}
			],
			"stateMutability": "view",
			"type": "function"
		},
		{
			"inputs": [],
			"name": "MIN_MARKET_DURATION",
			"outputs": [
				{
					"internalType": "uint256",
					"name": "",
					"type": "uint256"
				}
			],
			"stateMutability": "view",
			"type": "function"
		},
		{
			"inputs": [],
			"name": "QUESTION_CREATOR_ROLE",
			"outputs": [
				{
					"internalType": "bytes32",
					"name": "",
					"type": "bytes32"
				}
			],
			"stateMutability": "view",
			"type": "function"
		},
		{
			"inputs": [],
			"name": "QUESTION_RESOLVE_ROLE",
			"outputs": [
				{
					"internalType": "bytes32",
					"name": "",
					"type": "bytes32"
				}
			],
			"stateMutability": "view",
			"type": "function"
		},
		{
			"inputs": [
				{
					"internalType": "uint256",
					"name": "",
					"type": "uint256"
				}
			],
			"name": "allParticipants",
			"outputs": [
				{
					"internalType": "address",
					"name": "",
					"type": "address"
				}
			],
			"stateMutability": "view",
			"type": "function"
		},
		{
			"inputs": [],
			"name": "bettingToken",
			"outputs": [
				{
					"internalType": "contract IERC20",
					"name": "",
					"type": "address"
				}
			],
			"stateMutability": "view",
			"type": "function"
		},
		{
			"inputs": [
				{
					"internalType": "uint256",
					"name": "_marketId",
					"type": "uint256"
				},
				{
					"internalType": "uint256",
					"name": "_optionId",
					"type": "uint256"
				},
				{
					"internalType": "uint256",
					"name": "_quantity",
					"type": "uint256"
				},
				{
					"internalType": "uint256",
					"name": "_maxPricePerShare",
					"type": "uint256"
				}
			],
			"name": "buyShares",
			"outputs": [],
			"stateMutability": "nonpayable",
			"type": "function"
		},
		{
			"inputs": [
				{
					"internalType": "uint256",
					"name": "_marketId",
					"type": "uint256"
				},
				{
					"internalType": "uint256",
					"name": "_optionId",
					"type": "uint256"
				}
			],
			"name": "calculateCurrentPrice",
			"outputs": [
				{
					"internalType": "uint256",
					"name": "",
					"type": "uint256"
				}
			],
			"stateMutability": "view",
			"type": "function"
		},
		{
			"inputs": [
				{
					"internalType": "enum PolicastMarketV2.MarketCategory",
					"name": "",
					"type": "uint8"
				},
				{
					"internalType": "uint256",
					"name": "",
					"type": "uint256"
				}
			],
			"name": "categoryMarkets",
			"outputs": [
				{
					"internalType": "uint256",
					"name": "",
					"type": "uint256"
				}
			],
			"stateMutability": "view",
			"type": "function"
		},
		{
			"inputs": [
				{
					"internalType": "uint256",
					"name": "_marketId",
					"type": "uint256"
				}
			],
			"name": "claimWinnings",
			"outputs": [],
			"stateMutability": "nonpayable",
			"type": "function"
		},
		{
			"inputs": [
				{
					"internalType": "string",
					"name": "_question",
					"type": "string"
				},
				{
					"internalType": "string",
					"name": "_description",
					"type": "string"
				},
				{
					"internalType": "string[]",
					"name": "_optionNames",
					"type": "string[]"
				},
				{
					"internalType": "string[]",
					"name": "_optionDescriptions",
					"type": "string[]"
				},
				{
					"internalType": "uint256",
					"name": "_duration",
					"type": "uint256"
				},
				{
					"internalType": "enum PolicastMarketV2.MarketCategory",
					"name": "_category",
					"type": "uint8"
				}
			],
			"name": "createMarket",
			"outputs": [
				{
					"internalType": "uint256",
					"name": "",
					"type": "uint256"
				}
			],
			"stateMutability": "nonpayable",
			"type": "function"
		},
		{
			"inputs": [
				{
					"internalType": "uint256",
					"name": "_marketId",
					"type": "uint256"
				},
				{
					"internalType": "string",
					"name": "_reason",
					"type": "string"
				}
			],
			"name": "disputeMarket",
			"outputs": [],
			"stateMutability": "nonpayable",
			"type": "function"
		},
		{
			"inputs": [],
			"name": "getBettingToken",
			"outputs": [
				{
					"internalType": "address",
					"name": "",
					"type": "address"
				}
			],
			"stateMutability": "view",
			"type": "function"
		},
		{
			"inputs": [
				{
					"internalType": "uint256",
					"name": "_start",
					"type": "uint256"
				},
				{
					"internalType": "uint256",
					"name": "_limit",
					"type": "uint256"
				}
			],
			"name": "getLeaderboard",
			"outputs": [
				{
					"components": [
						{
							"internalType": "address",
							"name": "user",
							"type": "address"
						},
						{
							"internalType": "uint256",
							"name": "totalWinnings",
							"type": "uint256"
						},
						{
							"internalType": "uint256",
							"name": "totalVolume",
							"type": "uint256"
						},
						{
							"internalType": "uint256",
							"name": "winRate",
							"type": "uint256"
						},
						{
							"internalType": "uint256",
							"name": "tradeCount",
							"type": "uint256"
						}
					],
					"internalType": "struct PolicastMarketV2.LeaderboardEntry[]",
					"name": "",
					"type": "tuple[]"
				}
			],
			"stateMutability": "view",
			"type": "function"
		},
		{
			"inputs": [],
			"name": "getMarketCount",
			"outputs": [
				{
					"internalType": "uint256",
					"name": "",
					"type": "uint256"
				}
			],
			"stateMutability": "view",
			"type": "function"
		},
		{
			"inputs": [
				{
					"internalType": "uint256",
					"name": "_marketId",
					"type": "uint256"
				}
			],
			"name": "getMarketInfo",
			"outputs": [
				{
					"internalType": "string",
					"name": "question",
					"type": "string"
				},
				{
					"internalType": "string",
					"name": "description",
					"type": "string"
				},
				{
					"internalType": "uint256",
					"name": "endTime",
					"type": "uint256"
				},
				{
					"internalType": "enum PolicastMarketV2.MarketCategory",
					"name": "category",
					"type": "uint8"
				},
				{
					"internalType": "uint256",
					"name": "optionCount",
					"type": "uint256"
				},
				{
					"internalType": "bool",
					"name": "resolved",
					"type": "bool"
				},
				{
					"internalType": "bool",
					"name": "disputed",
					"type": "bool"
				},
				{
					"internalType": "uint256",
					"name": "winningOptionId",
					"type": "uint256"
				},
				{
					"internalType": "address",
					"name": "creator",
					"type": "address"
				}
			],
			"stateMutability": "view",
			"type": "function"
		},
		{
			"inputs": [
				{
					"internalType": "uint256",
					"name": "_marketId",
					"type": "uint256"
				},
				{
					"internalType": "uint256",
					"name": "_optionId",
					"type": "uint256"
				}
			],
			"name": "getMarketOption",
			"outputs": [
				{
					"internalType": "string",
					"name": "name",
					"type": "string"
				},
				{
					"internalType": "string",
					"name": "description",
					"type": "string"
				},
				{
					"internalType": "uint256",
					"name": "totalShares",
					"type": "uint256"
				},
				{
					"internalType": "uint256",
					"name": "totalVolume",
					"type": "uint256"
				},
				{
					"internalType": "uint256",
					"name": "currentPrice",
					"type": "uint256"
				},
				{
					"internalType": "bool",
					"name": "isActive",
					"type": "bool"
				}
			],
			"stateMutability": "view",
			"type": "function"
		},
		{
			"inputs": [
				{
					"internalType": "uint256",
					"name": "_marketId",
					"type": "uint256"
				}
			],
			"name": "getMarketStats",
			"outputs": [
				{
					"components": [
						{
							"internalType": "uint256",
							"name": "totalVolume",
							"type": "uint256"
						},
						{
							"internalType": "uint256",
							"name": "participantCount",
							"type": "uint256"
						},
						{
							"internalType": "uint256",
							"name": "averagePrice",
							"type": "uint256"
						},
						{
							"internalType": "uint256",
							"name": "priceVolatility",
							"type": "uint256"
						},
						{
							"internalType": "uint256",
							"name": "lastTradePrice",
							"type": "uint256"
						},
						{
							"internalType": "uint256",
							"name": "lastTradeTime",
							"type": "uint256"
						}
					],
					"internalType": "struct PolicastMarketV2.MarketStats",
					"name": "",
					"type": "tuple"
				}
			],
			"stateMutability": "view",
			"type": "function"
		},
		{
			"inputs": [
				{
					"internalType": "enum PolicastMarketV2.MarketCategory",
					"name": "_category",
					"type": "uint8"
				},
				{
					"internalType": "uint256",
					"name": "_limit",
					"type": "uint256"
				}
			],
			"name": "getMarketsByCategory",
			"outputs": [
				{
					"internalType": "uint256[]",
					"name": "",
					"type": "uint256[]"
				}
			],
			"stateMutability": "view",
			"type": "function"
		},
		{
			"inputs": [
				{
					"internalType": "uint256",
					"name": "_marketId",
					"type": "uint256"
				},
				{
					"internalType": "uint256",
					"name": "_optionId",
					"type": "uint256"
				},
				{
					"internalType": "uint256",
					"name": "_limit",
					"type": "uint256"
				}
			],
			"name": "getPriceHistory",
			"outputs": [
				{
					"components": [
						{
							"internalType": "uint256",
							"name": "price",
							"type": "uint256"
						},
						{
							"internalType": "uint256",
							"name": "timestamp",
							"type": "uint256"
						},
						{
							"internalType": "uint256",
							"name": "volume",
							"type": "uint256"
						}
					],
					"internalType": "struct PolicastMarketV2.PricePoint[]",
					"name": "",
					"type": "tuple[]"
				}
			],
			"stateMutability": "view",
			"type": "function"
		},
		{
			"inputs": [
				{
					"internalType": "bytes32",
					"name": "role",
					"type": "bytes32"
				}
			],
			"name": "getRoleAdmin",
			"outputs": [
				{
					"internalType": "bytes32",
					"name": "",
					"type": "bytes32"
				}
			],
			"stateMutability": "view",
			"type": "function"
		},
		{
			"inputs": [
				{
					"internalType": "address",
					"name": "_user",
					"type": "address"
				}
			],
			"name": "getUserPortfolio",
			"outputs": [
				{
					"components": [
						{
							"internalType": "uint256",
							"name": "totalInvested",
							"type": "uint256"
						},
						{
							"internalType": "uint256",
							"name": "totalWinnings",
							"type": "uint256"
						},
						{
							"internalType": "int256",
							"name": "unrealizedPnL",
							"type": "int256"
						},
						{
							"internalType": "int256",
							"name": "realizedPnL",
							"type": "int256"
						},
						{
							"internalType": "uint256",
							"name": "tradeCount",
							"type": "uint256"
						}
					],
					"internalType": "struct PolicastMarketV2.UserPortfolio",
					"name": "",
					"type": "tuple"
				}
			],
			"stateMutability": "view",
			"type": "function"
		},
		{
			"inputs": [
				{
					"internalType": "uint256",
					"name": "_marketId",
					"type": "uint256"
				},
				{
					"internalType": "address",
					"name": "_user",
					"type": "address"
				}
			],
			"name": "getUserShares",
			"outputs": [
				{
					"internalType": "uint256[]",
					"name": "",
					"type": "uint256[]"
				}
			],
			"stateMutability": "view",
			"type": "function"
		},
		{
			"inputs": [
				{
					"internalType": "address",
					"name": "_account",
					"type": "address"
				}
			],
			"name": "grantMarketValidatorRole",
			"outputs": [],
			"stateMutability": "nonpayable",
			"type": "function"
		},
		{
			"inputs": [
				{
					"internalType": "address",
					"name": "_account",
					"type": "address"
				}
			],
			"name": "grantQuestionCreatorRole",
			"outputs": [],
			"stateMutability": "nonpayable",
			"type": "function"
		},
		{
			"inputs": [
				{
					"internalType": "address",
					"name": "_account",
					"type": "address"
				}
			],
			"name": "grantQuestionResolveRole",
			"outputs": [],
			"stateMutability": "nonpayable",
			"type": "function"
		},
		{
			"inputs": [
				{
					"internalType": "bytes32",
					"name": "role",
					"type": "bytes32"
				},
				{
					"internalType": "address",
					"name": "account",
					"type": "address"
				}
			],
			"name": "grantRole",
			"outputs": [],
			"stateMutability": "nonpayable",
			"type": "function"
		},
		{
			"inputs": [
				{
					"internalType": "bytes32",
					"name": "role",
					"type": "bytes32"
				},
				{
					"internalType": "address",
					"name": "account",
					"type": "address"
				}
			],
			"name": "hasRole",
			"outputs": [
				{
					"internalType": "bool",
					"name": "",
					"type": "bool"
				}
			],
			"stateMutability": "view",
			"type": "function"
		},
		{
			"inputs": [],
			"name": "marketCount",
			"outputs": [
				{
					"internalType": "uint256",
					"name": "",
					"type": "uint256"
				}
			],
			"stateMutability": "view",
			"type": "function"
		},
		{
			"inputs": [
				{
					"internalType": "uint256",
					"name": "",
					"type": "uint256"
				},
				{
					"internalType": "uint256",
					"name": "",
					"type": "uint256"
				}
			],
			"name": "marketOrderBook",
			"outputs": [
				{
					"internalType": "uint256",
					"name": "",
					"type": "uint256"
				}
			],
			"stateMutability": "view",
			"type": "function"
		},
		{
			"inputs": [
				{
					"internalType": "uint256",
					"name": "",
					"type": "uint256"
				},
				{
					"internalType": "uint256",
					"name": "",
					"type": "uint256"
				}
			],
			"name": "marketTrades",
			"outputs": [
				{
					"internalType": "uint256",
					"name": "marketId",
					"type": "uint256"
				},
				{
					"internalType": "uint256",
					"name": "optionId",
					"type": "uint256"
				},
				{
					"internalType": "address",
					"name": "buyer",
					"type": "address"
				},
				{
					"internalType": "address",
					"name": "seller",
					"type": "address"
				},
				{
					"internalType": "uint256",
					"name": "price",
					"type": "uint256"
				},
				{
					"internalType": "uint256",
					"name": "quantity",
					"type": "uint256"
				},
				{
					"internalType": "uint256",
					"name": "timestamp",
					"type": "uint256"
				},
				{
					"internalType": "enum PolicastMarketV2.OrderType",
					"name": "orderType",
					"type": "uint8"
				}
			],
			"stateMutability": "view",
			"type": "function"
		},
		{
			"inputs": [
				{
					"internalType": "uint256",
					"name": "",
					"type": "uint256"
				}
			],
			"name": "markets",
			"outputs": [
				{
					"internalType": "string",
					"name": "question",
					"type": "string"
				},
				{
					"internalType": "string",
					"name": "description",
					"type": "string"
				},
				{
					"internalType": "uint256",
					"name": "endTime",
					"type": "uint256"
				},
				{
					"internalType": "enum PolicastMarketV2.MarketCategory",
					"name": "category",
					"type": "uint8"
				},
				{
					"internalType": "uint256",
					"name": "winningOptionId",
					"type": "uint256"
				},
				{
					"internalType": "bool",
					"name": "resolved",
					"type": "bool"
				},
				{
					"internalType": "bool",
					"name": "disputed",
					"type": "bool"
				},
				{
					"internalType": "bool",
					"name": "validated",
					"type": "bool"
				},
				{
					"internalType": "address",
					"name": "creator",
					"type": "address"
				},
				{
					"internalType": "uint256",
					"name": "totalLiquidity",
					"type": "uint256"
				},
				{
					"internalType": "uint256",
					"name": "totalVolume",
					"type": "uint256"
				},
				{
					"internalType": "uint256",
					"name": "createdAt",
					"type": "uint256"
				},
				{
					"internalType": "uint256",
					"name": "optionCount",
					"type": "uint256"
				},
				{
					"internalType": "uint256",
					"name": "payoutIndex",
					"type": "uint256"
				},
				{
					"internalType": "uint256",
					"name": "feeCollected",
					"type": "uint256"
				}
			],
			"stateMutability": "view",
			"type": "function"
		},
		{
			"inputs": [],
			"name": "orderCount",
			"outputs": [
				{
					"internalType": "uint256",
					"name": "",
					"type": "uint256"
				}
			],
			"stateMutability": "view",
			"type": "function"
		},
		{
			"inputs": [
				{
					"internalType": "uint256",
					"name": "",
					"type": "uint256"
				}
			],
			"name": "orders",
			"outputs": [
				{
					"internalType": "uint256",
					"name": "id",
					"type": "uint256"
				},
				{
					"internalType": "uint256",
					"name": "marketId",
					"type": "uint256"
				},
				{
					"internalType": "uint256",
					"name": "optionId",
					"type": "uint256"
				},
				{
					"internalType": "address",
					"name": "maker",
					"type": "address"
				},
				{
					"internalType": "enum PolicastMarketV2.OrderType",
					"name": "orderType",
					"type": "uint8"
				},
				{
					"internalType": "enum PolicastMarketV2.OrderSide",
					"name": "side",
					"type": "uint8"
				},
				{
					"internalType": "uint256",
					"name": "price",
					"type": "uint256"
				},
				{
					"internalType": "uint256",
					"name": "quantity",
					"type": "uint256"
				},
				{
					"internalType": "uint256",
					"name": "filled",
					"type": "uint256"
				},
				{
					"internalType": "uint256",
					"name": "timestamp",
					"type": "uint256"
				},
				{
					"internalType": "bool",
					"name": "isActive",
					"type": "bool"
				}
			],
			"stateMutability": "view",
			"type": "function"
		},
		{
			"inputs": [],
			"name": "owner",
			"outputs": [
				{
					"internalType": "address",
					"name": "",
					"type": "address"
				}
			],
			"stateMutability": "view",
			"type": "function"
		},
		{
			"inputs": [],
			"name": "pause",
			"outputs": [],
			"stateMutability": "nonpayable",
			"type": "function"
		},
		{
			"inputs": [],
			"name": "paused",
			"outputs": [
				{
					"internalType": "bool",
					"name": "",
					"type": "bool"
				}
			],
			"stateMutability": "view",
			"type": "function"
		},
		{
			"inputs": [],
			"name": "platformFeeRate",
			"outputs": [
				{
					"internalType": "uint256",
					"name": "",
					"type": "uint256"
				}
			],
			"stateMutability": "view",
			"type": "function"
		},
		{
			"inputs": [
				{
					"internalType": "uint256",
					"name": "",
					"type": "uint256"
				},
				{
					"internalType": "uint256",
					"name": "",
					"type": "uint256"
				},
				{
					"internalType": "uint256",
					"name": "",
					"type": "uint256"
				}
			],
			"name": "priceHistory",
			"outputs": [
				{
					"internalType": "uint256",
					"name": "price",
					"type": "uint256"
				},
				{
					"internalType": "uint256",
					"name": "timestamp",
					"type": "uint256"
				},
				{
					"internalType": "uint256",
					"name": "volume",
					"type": "uint256"
				}
			],
			"stateMutability": "view",
			"type": "function"
		},
		{
			"inputs": [],
			"name": "renounceOwnership",
			"outputs": [],
			"stateMutability": "nonpayable",
			"type": "function"
		},
		{
			"inputs": [
				{
					"internalType": "bytes32",
					"name": "role",
					"type": "bytes32"
				},
				{
					"internalType": "address",
					"name": "callerConfirmation",
					"type": "address"
				}
			],
			"name": "renounceRole",
			"outputs": [],
			"stateMutability": "nonpayable",
			"type": "function"
		},
		{
			"inputs": [
				{
					"internalType": "uint256",
					"name": "_marketId",
					"type": "uint256"
				},
				{
					"internalType": "uint256",
					"name": "_winningOptionId",
					"type": "uint256"
				}
			],
			"name": "resolveMarket",
			"outputs": [],
			"stateMutability": "nonpayable",
			"type": "function"
		},
		{
			"inputs": [
				{
					"internalType": "bytes32",
					"name": "role",
					"type": "bytes32"
				},
				{
					"internalType": "address",
					"name": "account",
					"type": "address"
				}
			],
			"name": "revokeRole",
			"outputs": [],
			"stateMutability": "nonpayable",
			"type": "function"
		},
		{
			"inputs": [
				{
					"internalType": "uint256",
					"name": "_marketId",
					"type": "uint256"
				},
				{
					"internalType": "uint256",
					"name": "_optionId",
					"type": "uint256"
				},
				{
					"internalType": "uint256",
					"name": "_quantity",
					"type": "uint256"
				},
				{
					"internalType": "uint256",
					"name": "_minPricePerShare",
					"type": "uint256"
				}
			],
			"name": "sellShares",
			"outputs": [],
			"stateMutability": "nonpayable",
			"type": "function"
		},
		{
			"inputs": [
				{
					"internalType": "uint256",
					"name": "_feeRate",
					"type": "uint256"
				}
			],
			"name": "setPlatformFeeRate",
			"outputs": [],
			"stateMutability": "nonpayable",
			"type": "function"
		},
		{
			"inputs": [
				{
					"internalType": "bytes4",
					"name": "interfaceId",
					"type": "bytes4"
				}
			],
			"name": "supportsInterface",
			"outputs": [
				{
					"internalType": "bool",
					"name": "",
					"type": "bool"
				}
			],
			"stateMutability": "view",
			"type": "function"
		},
		{
			"inputs": [
				{
					"internalType": "address",
					"name": "",
					"type": "address"
				}
			],
			"name": "totalWinnings",
			"outputs": [
				{
					"internalType": "uint256",
					"name": "",
					"type": "uint256"
				}
			],
			"stateMutability": "view",
			"type": "function"
		},
		{
			"inputs": [],
			"name": "tradeCount",
			"outputs": [
				{
					"internalType": "uint256",
					"name": "",
					"type": "uint256"
				}
			],
			"stateMutability": "view",
			"type": "function"
		},
		{
			"inputs": [
				{
					"internalType": "address",
					"name": "newOwner",
					"type": "address"
				}
			],
			"name": "transferOwnership",
			"outputs": [],
			"stateMutability": "nonpayable",
			"type": "function"
		},
		{
			"inputs": [],
			"name": "unpause",
			"outputs": [],
			"stateMutability": "nonpayable",
			"type": "function"
		},
		{
			"inputs": [
				{
					"internalType": "address",
					"name": "",
					"type": "address"
				},
				{
					"internalType": "uint256",
					"name": "",
					"type": "uint256"
				}
			],
			"name": "userOrders",
			"outputs": [
				{
					"internalType": "uint256",
					"name": "",
					"type": "uint256"
				}
			],
			"stateMutability": "view",
			"type": "function"
		},
		{
			"inputs": [
				{
					"internalType": "address",
					"name": "",
					"type": "address"
				}
			],
			"name": "userPortfolios",
			"outputs": [
				{
					"internalType": "uint256",
					"name": "totalInvested",
					"type": "uint256"
				},
				{
					"internalType": "uint256",
					"name": "totalWinnings",
					"type": "uint256"
				},
				{
					"internalType": "int256",
					"name": "unrealizedPnL",
					"type": "int256"
				},
				{
					"internalType": "int256",
					"name": "realizedPnL",
					"type": "int256"
				},
				{
					"internalType": "uint256",
					"name": "tradeCount",
					"type": "uint256"
				}
			],
			"stateMutability": "view",
			"type": "function"
		},
		{
			"inputs": [
				{
					"internalType": "address",
					"name": "",
					"type": "address"
				},
				{
					"internalType": "uint256",
					"name": "",
					"type": "uint256"
				}
			],
			"name": "userTradeHistory",
			"outputs": [
				{
					"internalType": "uint256",
					"name": "marketId",
					"type": "uint256"
				},
				{
					"internalType": "uint256",
					"name": "optionId",
					"type": "uint256"
				},
				{
					"internalType": "address",
					"name": "buyer",
					"type": "address"
				},
				{
					"internalType": "address",
					"name": "seller",
					"type": "address"
				},
				{
					"internalType": "uint256",
					"name": "price",
					"type": "uint256"
				},
				{
					"internalType": "uint256",
					"name": "quantity",
					"type": "uint256"
				},
				{
					"internalType": "uint256",
					"name": "timestamp",
					"type": "uint256"
				},
				{
					"internalType": "enum PolicastMarketV2.OrderType",
					"name": "orderType",
					"type": "uint8"
				}
			],
			"stateMutability": "view",
			"type": "function"
		},
		{
			"inputs": [
				{
					"internalType": "uint256",
					"name": "_marketId",
					"type": "uint256"
				}
			],
			"name": "validateMarket",
			"outputs": [],
			"stateMutability": "nonpayable",
			"type": "function"
		}
	]
}