{
	"data": {
		"bytecode": {
			"linkReferences": {},
			"object": "6080806040523460755733156062575f8054336001600160a01b0319821681178355916001600160a01b03909116907f8be0079c531659141344cd1fd0a4f28419497f9722a3daafe3b4186f6b6457e09080a3600180556109f8908161007a8239f35b631e4fbdf760e01b5f525f60045260245ffd5b5f80fdfe60806040526004361015610018575b361561001657005b005b5f3560e01c80633e46cd53146105fa57806344004cc1146105735780634782f7791461047d578063715018a6146104265780638da5cb5b146103ff5780639f62eafe1461027c578063b874fa6a146100fd5763f2fde38b0361000e57346100f95760203660031901126100f95761008d6106f2565b610095610902565b6001600160a01b031680156100e6575f80546001600160a01b03198116831782556001600160a01b0316907f8be0079c531659141344cd1fd0a4f28419497f9722a3daafe3b4186f6b6457e09080a3005b631e4fbdf760e01b5f525f60045260245ffd5b5f80fd5b60403660031901126100f95760043567ffffffffffffffff81116100f957610129903690600401610708565b60243567ffffffffffffffff81116100f957610149903690600401610708565b92906101536108ac565b61015e8484146107a0565b5f935f5b84811061025c5750348503610226575f5b8481106101b357858560405191825260208201527f45d6845dd4f0bdd735a522e3076f82702e80547a0e2b1304a2e483bca6d9cdc460403392a260018055005b5f8080806101ca6101c5868b8b6107de565b610823565b6101d586888a6107de565b35905af16101e161086d565b50156101ef57600101610173565b60405162461bcd60e51b815260206004820152600f60248201526e195d1a0b5cd95b990b59985a5b1959608a1b6044820152606490fd5b60405162461bcd60e51b815260206004820152600e60248201526d0ecc2d8eaca5adad2e6dac2e8c6d60931b6044820152606490fd5b9461027560019161026e8885876107de565b3590610802565b9501610162565b346100f95761028a36610739565b929093610295610902565b61029d6108ac565b6102a88484146107a0565b5f945f5b8481106103e657506040516370a0823160e01b81523060048201526001600160a01b03831695906020816024818a5afa80156103db5788915f916103a6575b5010610361575f5b8581106103345787878760405192835260208301527f8a88ad5eb4d4acfb8c47fcc9c5b0e66c5162ea704dd1e08cce235927434e18d260403093a360018055005b8061035b6103486101c56001948a8a6107de565b6103538386886107de565b359087610928565b016102f3565b60405162461bcd60e51b815260206004820152601d60248201527f696e73756666696369656e742d636f6e74726163742d62616c616e63650000006044820152606490fd5b9150506020813d6020116103d3575b816103c260209383610837565b810103126100f957879051896102eb565b3d91506103b5565b6040513d5f823e3d90fd5b956103f860019161026e8989866107de565b96016102ac565b346100f9575f3660031901126100f9575f546040516001600160a01b039091168152602090f35b346100f9575f3660031901126100f95761043e610902565b5f80546001600160a01b0319811682556001600160a01b03167f8be0079c531659141344cd1fd0a4f28419497f9722a3daafe3b4186f6b6457e08280a3005b346100f95760403660031901126100f9576004356001600160a01b038116908190036100f9576024356104ae610902565b6104b66108ac565b80471061053b575f80808084865af16104cd61086d565b50156105045760207f94b2de810873337ed265c5f8cf98c9cffefa06b8607f9a2f1fbaebdfbcfbef1c91604051908152a260018055005b60405162461bcd60e51b815260206004820152600f60248201526e1dda5d1a191c985dcb59985a5b1959608a1b6044820152606490fd5b60405162461bcd60e51b815260206004820152601060248201526f0d2dce6eaccccd2c6d2cadce85acae8d60831b6044820152606490fd5b346100f95760603660031901126100f95761058c6106f2565b6024356001600160a01b038116918282036100f95760207fbfed55bdcd242e3dd0f60ddd7d1e87c67f61c34cd9527b3e6455d841b1025362916105e360443580956105d5610902565b6105dd6108ac565b83610928565b6040519384526001600160a01b031692a360018055005b346100f95761060836610739565b92906106126108ac565b61061d8484146107a0565b5f935f5b8481106106d957505f5b848110610676575050505060405191825260208201527f8a88ad5eb4d4acfb8c47fcc9c5b0e66c5162ea704dd1e08cce235927434e18d26040339360018060a01b031692a360018055005b806106d361068a6101c560019489896107de565b6106958386886107de565b35604051916323b872dd60e01b6020840152336024840152858060a01b031660448301526064820152606481526106cd608482610837565b8961096a565b0161062b565b946106eb60019161026e8885876107de565b9501610621565b600435906001600160a01b03821682036100f957565b9181601f840112156100f95782359167ffffffffffffffff83116100f9576020808501948460051b0101116100f957565b9060606003198301126100f9576004356001600160a01b03811681036100f9579160243567ffffffffffffffff81116100f9578161077991600401610708565b929092916044359067ffffffffffffffff82116100f95761079c91600401610708565b9091565b156107a757565b60405162461bcd60e51b815260206004820152600f60248201526e0d8cadccee8d05adad2e6dac2e8c6d608b1b6044820152606490fd5b91908110156107ee5760051b0190565b634e487b7160e01b5f52603260045260245ffd5b9190820180921161080f57565b634e487b7160e01b5f52601160045260245ffd5b356001600160a01b03811681036100f95790565b90601f8019910116810190811067ffffffffffffffff82111761085957604052565b634e487b7160e01b5f52604160045260245ffd5b3d156108a7573d9067ffffffffffffffff8211610859576040519161089c601f8201601f191660200184610837565b82523d5f602084013e565b606090565b6002600154146108bd576002600155565b60405162461bcd60e51b815260206004820152601f60248201527f5265656e7472616e637947756172643a207265656e7472616e742063616c6c006044820152606490fd5b5f546001600160a01b0316330361091557565b63118cdaa760e01b5f523360045260245ffd5b60405163a9059cbb60e01b60208201526001600160a01b03909216602483015260448083019390935291815261096891610963606483610837565b61096a565b565b905f602091828151910182855af1156103db575f513d6109b957506001600160a01b0381163b155b6109995750565b635274afe760e01b5f9081526001600160a01b0391909116600452602490fd5b6001141561099256fea264697066735822122007ca3ac050eaea03d45ea0c712b709b21f1a9713468c4e22cbbf6a49a3e7572864736f6c634300081a0033",
			"opcodes": "PUSH1 0x80 DUP1 PUSH1 0x40 MSTORE CALLVALUE PUSH1 0x75 JUMPI CALLER ISZERO PUSH1 0x62 JUMPI PUSH0 DUP1 SLOAD CALLER PUSH1 0x1 PUSH1 0x1 PUSH1 0xA0 SHL SUB NOT DUP3 AND DUP2 OR DUP4 SSTORE SWAP2 PUSH1 0x1 PUSH1 0x1 PUSH1 0xA0 SHL SUB SWAP1 SWAP2 AND SWAP1 PUSH32 0x8BE0079C531659141344CD1FD0A4F28419497F9722A3DAAFE3B4186F6B6457E0 SWAP1 DUP1 LOG3 PUSH1 0x1 DUP1 SSTORE PUSH2 0x9F8 SWAP1 DUP2 PUSH2 0x7A DUP3 CODECOPY RETURN JUMPDEST PUSH4 0x1E4FBDF7 PUSH1 0xE0 SHL PUSH0 MSTORE PUSH0 PUSH1 0x4 MSTORE PUSH1 0x24 PUSH0 REVERT JUMPDEST PUSH0 DUP1 REVERT INVALID PUSH1 0x80 PUSH1 0x40 MSTORE PUSH1 0x4 CALLDATASIZE LT ISZERO PUSH2 0x18 JUMPI JUMPDEST CALLDATASIZE ISZERO PUSH2 0x16 JUMPI STOP JUMPDEST STOP JUMPDEST PUSH0 CALLDATALOAD PUSH1 0xE0 SHR DUP1 PUSH4 0x3E46CD53 EQ PUSH2 0x5FA JUMPI DUP1 PUSH4 0x44004CC1 EQ PUSH2 0x573 JUMPI DUP1 PUSH4 0x4782F779 EQ PUSH2 0x47D JUMPI DUP1 PUSH4 0x715018A6 EQ PUSH2 0x426 JUMPI DUP1 PUSH4 0x8DA5CB5B EQ PUSH2 0x3FF JUMPI DUP1 PUSH4 0x9F62EAFE EQ PUSH2 0x27C JUMPI DUP1 PUSH4 0xB874FA6A EQ PUSH2 0xFD JUMPI PUSH4 0xF2FDE38B SUB PUSH2 0xE JUMPI CALLVALUE PUSH2 0xF9 JUMPI PUSH1 0x20 CALLDATASIZE PUSH1 0x3 NOT ADD SLT PUSH2 0xF9 JUMPI PUSH2 0x8D PUSH2 0x6F2 JUMP JUMPDEST PUSH2 0x95 PUSH2 0x902 JUMP JUMPDEST PUSH1 0x1 PUSH1 0x1 PUSH1 0xA0 SHL SUB AND DUP1 ISZERO PUSH2 0xE6 JUMPI PUSH0 DUP1 SLOAD PUSH1 0x1 PUSH1 0x1 PUSH1 0xA0 SHL SUB NOT DUP2 AND DUP4 OR DUP3 SSTORE PUSH1 0x1 PUSH1 0x1 PUSH1 0xA0 SHL SUB AND SWAP1 PUSH32 0x8BE0079C531659141344CD1FD0A4F28419497F9722A3DAAFE3B4186F6B6457E0 SWAP1 DUP1 LOG3 STOP JUMPDEST PUSH4 0x1E4FBDF7 PUSH1 0xE0 SHL PUSH0 MSTORE PUSH0 PUSH1 0x4 MSTORE PUSH1 0x24 PUSH0 REVERT JUMPDEST PUSH0 DUP1 REVERT JUMPDEST PUSH1 0x40 CALLDATASIZE PUSH1 0x3 NOT ADD SLT PUSH2 0xF9 JUMPI PUSH1 0x4 CALLDATALOAD PUSH8 0xFFFFFFFFFFFFFFFF DUP2 GT PUSH2 0xF9 JUMPI PUSH2 0x129 SWAP1 CALLDATASIZE SWAP1 PUSH1 0x4 ADD PUSH2 0x708 JUMP JUMPDEST PUSH1 0x24 CALLDATALOAD PUSH8 0xFFFFFFFFFFFFFFFF DUP2 GT PUSH2 0xF9 JUMPI PUSH2 0x149 SWAP1 CALLDATASIZE SWAP1 PUSH1 0x4 ADD PUSH2 0x708 JUMP JUMPDEST SWAP3 SWAP1 PUSH2 0x153 PUSH2 0x8AC JUMP JUMPDEST PUSH2 0x15E DUP5 DUP5 EQ PUSH2 0x7A0 JUMP JUMPDEST PUSH0 SWAP4 PUSH0 JUMPDEST DUP5 DUP2 LT PUSH2 0x25C JUMPI POP CALLVALUE DUP6 SUB PUSH2 0x226 JUMPI PUSH0 JUMPDEST DUP5 DUP2 LT PUSH2 0x1B3 JUMPI DUP6 DUP6 PUSH1 0x40 MLOAD SWAP2 DUP3 MSTORE PUSH1 0x20 DUP3 ADD MSTORE PUSH32 0x45D6845DD4F0BDD735A522E3076F82702E80547A0E2B1304A2E483BCA6D9CDC4 PUSH1 0x40 CALLER SWAP3 LOG2 PUSH1 0x1 DUP1 SSTORE STOP JUMPDEST PUSH0 DUP1 DUP1 DUP1 PUSH2 0x1CA PUSH2 0x1C5 DUP7 DUP12 DUP12 PUSH2 0x7DE JUMP JUMPDEST PUSH2 0x823 JUMP JUMPDEST PUSH2 0x1D5 DUP7 DUP9 DUP11 PUSH2 0x7DE JUMP JUMPDEST CALLDATALOAD SWAP1 GAS CALL PUSH2 0x1E1 PUSH2 0x86D JUMP JUMPDEST POP ISZERO PUSH2 0x1EF JUMPI PUSH1 0x1 ADD PUSH2 0x173 JUMP JUMPDEST PUSH1 0x40 MLOAD PUSH3 0x461BCD PUSH1 0xE5 SHL DUP2 MSTORE PUSH1 0x20 PUSH1 0x4 DUP3 ADD MSTORE PUSH1 0xF PUSH1 0x24 DUP3 ADD MSTORE PUSH15 0x195D1A0B5CD95B990B59985A5B1959 PUSH1 0x8A SHL PUSH1 0x44 DUP3 ADD MSTORE PUSH1 0x64 SWAP1 REVERT JUMPDEST PUSH1 0x40 MLOAD PUSH3 0x461BCD PUSH1 0xE5 SHL DUP2 MSTORE PUSH1 0x20 PUSH1 0x4 DUP3 ADD MSTORE PUSH1 0xE PUSH1 0x24 DUP3 ADD MSTORE PUSH14 0xECC2D8EACA5ADAD2E6DAC2E8C6D PUSH1 0x93 SHL PUSH1 0x44 DUP3 ADD MSTORE PUSH1 0x64 SWAP1 REVERT JUMPDEST SWAP5 PUSH2 0x275 PUSH1 0x1 SWAP2 PUSH2 0x26E DUP9 DUP6 DUP8 PUSH2 0x7DE JUMP JUMPDEST CALLDATALOAD SWAP1 PUSH2 0x802 JUMP JUMPDEST SWAP6 ADD PUSH2 0x162 JUMP JUMPDEST CALLVALUE PUSH2 0xF9 JUMPI PUSH2 0x28A CALLDATASIZE PUSH2 0x739 JUMP JUMPDEST SWAP3 SWAP1 SWAP4 PUSH2 0x295 PUSH2 0x902 JUMP JUMPDEST PUSH2 0x29D PUSH2 0x8AC JUMP JUMPDEST PUSH2 0x2A8 DUP5 DUP5 EQ PUSH2 0x7A0 JUMP JUMPDEST PUSH0 SWAP5 PUSH0 JUMPDEST DUP5 DUP2 LT PUSH2 0x3E6 JUMPI POP PUSH1 0x40 MLOAD PUSH4 0x70A08231 PUSH1 0xE0 SHL DUP2 MSTORE ADDRESS PUSH1 0x4 DUP3 ADD MSTORE PUSH1 0x1 PUSH1 0x1 PUSH1 0xA0 SHL SUB DUP4 AND SWAP6 SWAP1 PUSH1 0x20 DUP2 PUSH1 0x24 DUP2 DUP11 GAS STATICCALL DUP1 ISZERO PUSH2 0x3DB JUMPI DUP9 SWAP2 PUSH0 SWAP2 PUSH2 0x3A6 JUMPI JUMPDEST POP LT PUSH2 0x361 JUMPI PUSH0 JUMPDEST DUP6 DUP2 LT PUSH2 0x334 JUMPI DUP8 DUP8 DUP8 PUSH1 0x40 MLOAD SWAP3 DUP4 MSTORE PUSH1 0x20 DUP4 ADD MSTORE PUSH32 0x8A88AD5EB4D4ACFB8C47FCC9C5B0E66C5162EA704DD1E08CCE235927434E18D2 PUSH1 0x40 ADDRESS SWAP4 LOG3 PUSH1 0x1 DUP1 SSTORE STOP JUMPDEST DUP1 PUSH2 0x35B PUSH2 0x348 PUSH2 0x1C5 PUSH1 0x1 SWAP5 DUP11 DUP11 PUSH2 0x7DE JUMP JUMPDEST PUSH2 0x353 DUP4 DUP7 DUP9 PUSH2 0x7DE JUMP JUMPDEST CALLDATALOAD SWAP1 DUP8 PUSH2 0x928 JUMP JUMPDEST ADD PUSH2 0x2F3 JUMP JUMPDEST PUSH1 0x40 MLOAD PUSH3 0x461BCD PUSH1 0xE5 SHL DUP2 MSTORE PUSH1 0x20 PUSH1 0x4 DUP3 ADD MSTORE PUSH1 0x1D PUSH1 0x24 DUP3 ADD MSTORE PUSH32 0x696E73756666696369656E742D636F6E74726163742D62616C616E6365000000 PUSH1 0x44 DUP3 ADD MSTORE PUSH1 0x64 SWAP1 REVERT JUMPDEST SWAP2 POP POP PUSH1 0x20 DUP2 RETURNDATASIZE PUSH1 0x20 GT PUSH2 0x3D3 JUMPI JUMPDEST DUP2 PUSH2 0x3C2 PUSH1 0x20 SWAP4 DUP4 PUSH2 0x837 JUMP JUMPDEST DUP2 ADD SUB SLT PUSH2 0xF9 JUMPI DUP8 SWAP1 MLOAD DUP10 PUSH2 0x2EB JUMP JUMPDEST RETURNDATASIZE SWAP2 POP PUSH2 0x3B5 JUMP JUMPDEST PUSH1 0x40 MLOAD RETURNDATASIZE PUSH0 DUP3 RETURNDATACOPY RETURNDATASIZE SWAP1 REVERT JUMPDEST SWAP6 PUSH2 0x3F8 PUSH1 0x1 SWAP2 PUSH2 0x26E DUP10 DUP10 DUP7 PUSH2 0x7DE JUMP JUMPDEST SWAP7 ADD PUSH2 0x2AC JUMP JUMPDEST CALLVALUE PUSH2 0xF9 JUMPI PUSH0 CALLDATASIZE PUSH1 0x3 NOT ADD SLT PUSH2 0xF9 JUMPI PUSH0 SLOAD PUSH1 0x40 MLOAD PUSH1 0x1 PUSH1 0x1 PUSH1 0xA0 SHL SUB SWAP1 SWAP2 AND DUP2 MSTORE PUSH1 0x20 SWAP1 RETURN JUMPDEST CALLVALUE PUSH2 0xF9 JUMPI PUSH0 CALLDATASIZE PUSH1 0x3 NOT ADD SLT PUSH2 0xF9 JUMPI PUSH2 0x43E PUSH2 0x902 JUMP JUMPDEST PUSH0 DUP1 SLOAD PUSH1 0x1 PUSH1 0x1 PUSH1 0xA0 SHL SUB NOT DUP2 AND DUP3 SSTORE PUSH1 0x1 PUSH1 0x1 PUSH1 0xA0 SHL SUB AND PUSH32 0x8BE0079C531659141344CD1FD0A4F28419497F9722A3DAAFE3B4186F6B6457E0 DUP3 DUP1 LOG3 STOP JUMPDEST CALLVALUE PUSH2 0xF9 JUMPI PUSH1 0x40 CALLDATASIZE PUSH1 0x3 NOT ADD SLT PUSH2 0xF9 JUMPI PUSH1 0x4 CALLDATALOAD PUSH1 0x1 PUSH1 0x1 PUSH1 0xA0 SHL SUB DUP2 AND SWAP1 DUP2 SWAP1 SUB PUSH2 0xF9 JUMPI PUSH1 0x24 CALLDATALOAD PUSH2 0x4AE PUSH2 0x902 JUMP JUMPDEST PUSH2 0x4B6 PUSH2 0x8AC JUMP JUMPDEST DUP1 SELFBALANCE LT PUSH2 0x53B JUMPI PUSH0 DUP1 DUP1 DUP1 DUP5 DUP7 GAS CALL PUSH2 0x4CD PUSH2 0x86D JUMP JUMPDEST POP ISZERO PUSH2 0x504 JUMPI PUSH1 0x20 PUSH32 0x94B2DE810873337ED265C5F8CF98C9CFFEFA06B8607F9A2F1FBAEBDFBCFBEF1C SWAP2 PUSH1 0x40 MLOAD SWAP1 DUP2 MSTORE LOG2 PUSH1 0x1 DUP1 SSTORE STOP JUMPDEST PUSH1 0x40 MLOAD PUSH3 0x461BCD PUSH1 0xE5 SHL DUP2 MSTORE PUSH1 0x20 PUSH1 0x4 DUP3 ADD MSTORE PUSH1 0xF PUSH1 0x24 DUP3 ADD MSTORE PUSH15 0x1DDA5D1A191C985DCB59985A5B1959 PUSH1 0x8A SHL PUSH1 0x44 DUP3 ADD MSTORE PUSH1 0x64 SWAP1 REVERT JUMPDEST PUSH1 0x40 MLOAD PUSH3 0x461BCD PUSH1 0xE5 SHL DUP2 MSTORE PUSH1 0x20 PUSH1 0x4 DUP3 ADD MSTORE PUSH1 0x10 PUSH1 0x24 DUP3 ADD MSTORE PUSH16 0xD2DCE6EACCCCD2C6D2CADCE85ACAE8D PUSH1 0x83 SHL PUSH1 0x44 DUP3 ADD MSTORE PUSH1 0x64 SWAP1 REVERT JUMPDEST CALLVALUE PUSH2 0xF9 JUMPI PUSH1 0x60 CALLDATASIZE PUSH1 0x3 NOT ADD SLT PUSH2 0xF9 JUMPI PUSH2 0x58C PUSH2 0x6F2 JUMP JUMPDEST PUSH1 0x24 CALLDATALOAD PUSH1 0x1 PUSH1 0x1 PUSH1 0xA0 SHL SUB DUP2 AND SWAP2 DUP3 DUP3 SUB PUSH2 0xF9 JUMPI PUSH1 0x20 PUSH32 0xBFED55BDCD242E3DD0F60DDD7D1E87C67F61C34CD9527B3E6455D841B1025362 SWAP2 PUSH2 0x5E3 PUSH1 0x44 CALLDATALOAD DUP1 SWAP6 PUSH2 0x5D5 PUSH2 0x902 JUMP JUMPDEST PUSH2 0x5DD PUSH2 0x8AC JUMP JUMPDEST DUP4 PUSH2 0x928 JUMP JUMPDEST PUSH1 0x40 MLOAD SWAP4 DUP5 MSTORE PUSH1 0x1 PUSH1 0x1 PUSH1 0xA0 SHL SUB AND SWAP3 LOG3 PUSH1 0x1 DUP1 SSTORE STOP JUMPDEST CALLVALUE PUSH2 0xF9 JUMPI PUSH2 0x608 CALLDATASIZE PUSH2 0x739 JUMP JUMPDEST SWAP3 SWAP1 PUSH2 0x612 PUSH2 0x8AC JUMP JUMPDEST PUSH2 0x61D DUP5 DUP5 EQ PUSH2 0x7A0 JUMP JUMPDEST PUSH0 SWAP4 PUSH0 JUMPDEST DUP5 DUP2 LT PUSH2 0x6D9 JUMPI POP PUSH0 JUMPDEST DUP5 DUP2 LT PUSH2 0x676 JUMPI POP POP POP POP PUSH1 0x40 MLOAD SWAP2 DUP3 MSTORE PUSH1 0x20 DUP3 ADD MSTORE PUSH32 0x8A88AD5EB4D4ACFB8C47FCC9C5B0E66C5162EA704DD1E08CCE235927434E18D2 PUSH1 0x40 CALLER SWAP4 PUSH1 0x1 DUP1 PUSH1 0xA0 SHL SUB AND SWAP3 LOG3 PUSH1 0x1 DUP1 SSTORE STOP JUMPDEST DUP1 PUSH2 0x6D3 PUSH2 0x68A PUSH2 0x1C5 PUSH1 0x1 SWAP5 DUP10 DUP10 PUSH2 0x7DE JUMP JUMPDEST PUSH2 0x695 DUP4 DUP7 DUP9 PUSH2 0x7DE JUMP JUMPDEST CALLDATALOAD PUSH1 0x40 MLOAD SWAP2 PUSH4 0x23B872DD PUSH1 0xE0 SHL PUSH1 0x20 DUP5 ADD MSTORE CALLER PUSH1 0x24 DUP5 ADD MSTORE DUP6 DUP1 PUSH1 0xA0 SHL SUB AND PUSH1 0x44 DUP4 ADD MSTORE PUSH1 0x64 DUP3 ADD MSTORE PUSH1 0x64 DUP2 MSTORE PUSH2 0x6CD PUSH1 0x84 DUP3 PUSH2 0x837 JUMP JUMPDEST DUP10 PUSH2 0x96A JUMP JUMPDEST ADD PUSH2 0x62B JUMP JUMPDEST SWAP5 PUSH2 0x6EB PUSH1 0x1 SWAP2 PUSH2 0x26E DUP9 DUP6 DUP8 PUSH2 0x7DE JUMP JUMPDEST SWAP6 ADD PUSH2 0x621 JUMP JUMPDEST PUSH1 0x4 CALLDATALOAD SWAP1 PUSH1 0x1 PUSH1 0x1 PUSH1 0xA0 SHL SUB DUP3 AND DUP3 SUB PUSH2 0xF9 JUMPI JUMP JUMPDEST SWAP2 DUP2 PUSH1 0x1F DUP5 ADD SLT ISZERO PUSH2 0xF9 JUMPI DUP3 CALLDATALOAD SWAP2 PUSH8 0xFFFFFFFFFFFFFFFF DUP4 GT PUSH2 0xF9 JUMPI PUSH1 0x20 DUP1 DUP6 ADD SWAP5 DUP5 PUSH1 0x5 SHL ADD ADD GT PUSH2 0xF9 JUMPI JUMP JUMPDEST SWAP1 PUSH1 0x60 PUSH1 0x3 NOT DUP4 ADD SLT PUSH2 0xF9 JUMPI PUSH1 0x4 CALLDATALOAD PUSH1 0x1 PUSH1 0x1 PUSH1 0xA0 SHL SUB DUP2 AND DUP2 SUB PUSH2 0xF9 JUMPI SWAP2 PUSH1 0x24 CALLDATALOAD PUSH8 0xFFFFFFFFFFFFFFFF DUP2 GT PUSH2 0xF9 JUMPI DUP2 PUSH2 0x779 SWAP2 PUSH1 0x4 ADD PUSH2 0x708 JUMP JUMPDEST SWAP3 SWAP1 SWAP3 SWAP2 PUSH1 0x44 CALLDATALOAD SWAP1 PUSH8 0xFFFFFFFFFFFFFFFF DUP3 GT PUSH2 0xF9 JUMPI PUSH2 0x79C SWAP2 PUSH1 0x4 ADD PUSH2 0x708 JUMP JUMPDEST SWAP1 SWAP2 JUMP JUMPDEST ISZERO PUSH2 0x7A7 JUMPI JUMP JUMPDEST PUSH1 0x40 MLOAD PUSH3 0x461BCD PUSH1 0xE5 SHL DUP2 MSTORE PUSH1 0x20 PUSH1 0x4 DUP3 ADD MSTORE PUSH1 0xF PUSH1 0x24 DUP3 ADD MSTORE PUSH15 0xD8CADCCEE8D05ADAD2E6DAC2E8C6D PUSH1 0x8B SHL PUSH1 0x44 DUP3 ADD MSTORE PUSH1 0x64 SWAP1 REVERT JUMPDEST SWAP2 SWAP1 DUP2 LT ISZERO PUSH2 0x7EE JUMPI PUSH1 0x5 SHL ADD SWAP1 JUMP JUMPDEST PUSH4 0x4E487B71 PUSH1 0xE0 SHL PUSH0 MSTORE PUSH1 0x32 PUSH1 0x4 MSTORE PUSH1 0x24 PUSH0 REVERT JUMPDEST SWAP2 SWAP1 DUP3 ADD DUP1 SWAP3 GT PUSH2 0x80F JUMPI JUMP JUMPDEST PUSH4 0x4E487B71 PUSH1 0xE0 SHL PUSH0 MSTORE PUSH1 0x11 PUSH1 0x4 MSTORE PUSH1 0x24 PUSH0 REVERT JUMPDEST CALLDATALOAD PUSH1 0x1 PUSH1 0x1 PUSH1 0xA0 SHL SUB DUP2 AND DUP2 SUB PUSH2 0xF9 JUMPI SWAP1 JUMP JUMPDEST SWAP1 PUSH1 0x1F DUP1 NOT SWAP2 ADD AND DUP2 ADD SWAP1 DUP2 LT PUSH8 0xFFFFFFFFFFFFFFFF DUP3 GT OR PUSH2 0x859 JUMPI PUSH1 0x40 MSTORE JUMP JUMPDEST PUSH4 0x4E487B71 PUSH1 0xE0 SHL PUSH0 MSTORE PUSH1 0x41 PUSH1 0x4 MSTORE PUSH1 0x24 PUSH0 REVERT JUMPDEST RETURNDATASIZE ISZERO PUSH2 0x8A7 JUMPI RETURNDATASIZE SWAP1 PUSH8 0xFFFFFFFFFFFFFFFF DUP3 GT PUSH2 0x859 JUMPI PUSH1 0x40 MLOAD SWAP2 PUSH2 0x89C PUSH1 0x1F DUP3 ADD PUSH1 0x1F NOT AND PUSH1 0x20 ADD DUP5 PUSH2 0x837 JUMP JUMPDEST DUP3 MSTORE RETURNDATASIZE PUSH0 PUSH1 0x20 DUP5 ADD RETURNDATACOPY JUMP JUMPDEST PUSH1 0x60 SWAP1 JUMP JUMPDEST PUSH1 0x2 PUSH1 0x1 SLOAD EQ PUSH2 0x8BD JUMPI PUSH1 0x2 PUSH1 0x1 SSTORE JUMP JUMPDEST PUSH1 0x40 MLOAD PUSH3 0x461BCD PUSH1 0xE5 SHL DUP2 MSTORE PUSH1 0x20 PUSH1 0x4 DUP3 ADD MSTORE PUSH1 0x1F PUSH1 0x24 DUP3 ADD MSTORE PUSH32 0x5265656E7472616E637947756172643A207265656E7472616E742063616C6C00 PUSH1 0x44 DUP3 ADD MSTORE PUSH1 0x64 SWAP1 REVERT JUMPDEST PUSH0 SLOAD PUSH1 0x1 PUSH1 0x1 PUSH1 0xA0 SHL SUB AND CALLER SUB PUSH2 0x915 JUMPI JUMP JUMPDEST PUSH4 0x118CDAA7 PUSH1 0xE0 SHL PUSH0 MSTORE CALLER PUSH1 0x4 MSTORE PUSH1 0x24 PUSH0 REVERT JUMPDEST PUSH1 0x40 MLOAD PUSH4 0xA9059CBB PUSH1 0xE0 SHL PUSH1 0x20 DUP3 ADD MSTORE PUSH1 0x1 PUSH1 0x1 PUSH1 0xA0 SHL SUB SWAP1 SWAP3 AND PUSH1 0x24 DUP4 ADD MSTORE PUSH1 0x44 DUP1 DUP4 ADD SWAP4 SWAP1 SWAP4 MSTORE SWAP2 DUP2 MSTORE PUSH2 0x968 SWAP2 PUSH2 0x963 PUSH1 0x64 DUP4 PUSH2 0x837 JUMP JUMPDEST PUSH2 0x96A JUMP JUMPDEST JUMP JUMPDEST SWAP1 PUSH0 PUSH1 0x20 SWAP2 DUP3 DUP2 MLOAD SWAP2 ADD DUP3 DUP6 GAS CALL ISZERO PUSH2 0x3DB JUMPI PUSH0 MLOAD RETURNDATASIZE PUSH2 0x9B9 JUMPI POP PUSH1 0x1 PUSH1 0x1 PUSH1 0xA0 SHL SUB DUP2 AND EXTCODESIZE ISZERO JUMPDEST PUSH2 0x999 JUMPI POP JUMP JUMPDEST PUSH4 0x5274AFE7 PUSH1 0xE0 SHL PUSH0 SWAP1 DUP2 MSTORE PUSH1 0x1 PUSH1 0x1 PUSH1 0xA0 SHL SUB SWAP2 SWAP1 SWAP2 AND PUSH1 0x4 MSTORE PUSH1 0x24 SWAP1 REVERT JUMPDEST PUSH1 0x1 EQ ISZERO PUSH2 0x992 JUMP INVALID LOG2 PUSH5 0x6970667358 0x22 SLT KECCAK256 SMOD 0xCA GASPRICE 0xC0 POP 0xEA 0xEA SUB 0xD4 MCOPY LOG0 0xC7 SLT 0xB7 MULMOD 0xB2 0x1F BYTE SWAP8 SGT CHAINID DUP13 0x4E 0x22 0xCB 0xBF PUSH11 0x49A3E7572864736F6C6343 STOP ADDMOD BYTE STOP CALLER "
		},
		"gasEstimates": {
			"creation": {
				"codeDepositCost": "510400",
				"executionCost": "48453",
				"totalCost": "558853"
			},
			"external": {
				"": "247",
				"bulkTransferERC20(address,address[],uint256[])": "infinite",
				"bulkTransferERC20FromContract(address,address[],uint256[])": "infinite",
				"bulkTransferETH(address[],uint256[])": "infinite",
				"owner()": "2359",
				"renounceOwnership()": "28108",
				"transferOwnership(address)": "28312",
				"withdrawERC20(address,address,uint256)": "infinite",
				"withdrawETH(address,uint256)": "infinite"
			}
		},
		"methodIdentifiers": {
			"bulkTransferERC20(address,address[],uint256[])": "3e46cd53",
			"bulkTransferERC20FromContract(address,address[],uint256[])": "9f62eafe",
			"bulkTransferETH(address[],uint256[])": "b874fa6a",
			"owner()": "8da5cb5b",
			"renounceOwnership()": "715018a6",
			"transferOwnership(address)": "f2fde38b",
			"withdrawERC20(address,address,uint256)": "44004cc1",
			"withdrawETH(address,uint256)": "4782f779"
		}
	},
	"abi": [
		{
			"inputs": [],
			"stateMutability": "nonpayable",
			"type": "constructor"
		},
		{
			"inputs": [
				{
					"internalType": "address",
					"name": "owner",
					"type": "address"
				}
			],
			"name": "OwnableInvalidOwner",
			"type": "error"
		},
		{
			"inputs": [
				{
					"internalType": "address",
					"name": "account",
					"type": "address"
				}
			],
			"name": "OwnableUnauthorizedAccount",
			"type": "error"
		},
		{
			"inputs": [
				{
					"internalType": "address",
					"name": "token",
					"type": "address"
				}
			],
			"name": "SafeERC20FailedOperation",
			"type": "error"
		},
		{
			"anonymous": false,
			"inputs": [
				{
					"indexed": true,
					"internalType": "address",
					"name": "token",
					"type": "address"
				},
				{
					"indexed": true,
					"internalType": "address",
					"name": "sender",
					"type": "address"
				},
				{
					"indexed": false,
					"internalType": "uint256",
					"name": "total",
					"type": "uint256"
				},
				{
					"indexed": false,
					"internalType": "uint256",
					"name": "recipientsCount",
					"type": "uint256"
				}
			],
			"name": "BulkERC20Transferred",
			"type": "event"
		},
		{
			"anonymous": false,
			"inputs": [
				{
					"indexed": true,
					"internalType": "address",
					"name": "sender",
					"type": "address"
				},
				{
					"indexed": false,
					"internalType": "uint256",
					"name": "total",
					"type": "uint256"
				},
				{
					"indexed": false,
					"internalType": "uint256",
					"name": "recipientsCount",
					"type": "uint256"
				}
			],
			"name": "BulkETHTransferred",
			"type": "event"
		},
		{
			"anonymous": false,
			"inputs": [
				{
					"indexed": true,
					"internalType": "address",
					"name": "token",
					"type": "address"
				},
				{
					"indexed": true,
					"internalType": "address",
					"name": "to",
					"type": "address"
				},
				{
					"indexed": false,
					"internalType": "uint256",
					"name": "amount",
					"type": "uint256"
				}
			],
			"name": "ERC20Withdrawn",
			"type": "event"
		},
		{
			"anonymous": false,
			"inputs": [
				{
					"indexed": true,
					"internalType": "address",
					"name": "to",
					"type": "address"
				},
				{
					"indexed": false,
					"internalType": "uint256",
					"name": "amount",
					"type": "uint256"
				}
			],
			"name": "ETHWithdrawn",
			"type": "event"
		},
		{
			"anonymous": false,
			"inputs": [
				{
					"indexed": true,
					"internalType": "address",
					"name": "previousOwner",
					"type": "address"
				},
				{
					"indexed": true,
					"internalType": "address",
					"name": "newOwner",
					"type": "address"
				}
			],
			"name": "OwnershipTransferred",
			"type": "event"
		},
		{
			"stateMutability": "payable",
			"type": "fallback"
		},
		{
			"inputs": [
				{
					"internalType": "contract IERC20",
					"name": "token",
					"type": "address"
				},
				{
					"internalType": "address[]",
					"name": "recipients",
					"type": "address[]"
				},
				{
					"internalType": "uint256[]",
					"name": "amounts",
					"type": "uint256[]"
				}
			],
			"name": "bulkTransferERC20",
			"outputs": [],
			"stateMutability": "nonpayable",
			"type": "function"
		},
		{
			"inputs": [
				{
					"internalType": "contract IERC20",
					"name": "token",
					"type": "address"
				},
				{
					"internalType": "address[]",
					"name": "recipients",
					"type": "address[]"
				},
				{
					"internalType": "uint256[]",
					"name": "amounts",
					"type": "uint256[]"
				}
			],
			"name": "bulkTransferERC20FromContract",
			"outputs": [],
			"stateMutability": "nonpayable",
			"type": "function"
		},
		{
			"inputs": [
				{
					"internalType": "address[]",
					"name": "recipients",
					"type": "address[]"
				},
				{
					"internalType": "uint256[]",
					"name": "amounts",
					"type": "uint256[]"
				}
			],
			"name": "bulkTransferETH",
			"outputs": [],
			"stateMutability": "payable",
			"type": "function"
		},
		{
			"inputs": [],
			"name": "owner",
			"outputs": [
				{
					"internalType": "address",
					"name": "",
					"type": "address"
				}
			],
			"stateMutability": "view",
			"type": "function"
		},
		{
			"inputs": [],
			"name": "renounceOwnership",
			"outputs": [],
			"stateMutability": "nonpayable",
			"type": "function"
		},
		{
			"inputs": [
				{
					"internalType": "address",
					"name": "newOwner",
					"type": "address"
				}
			],
			"name": "transferOwnership",
			"outputs": [],
			"stateMutability": "nonpayable",
			"type": "function"
		},
		{
			"inputs": [
				{
					"internalType": "contract IERC20",
					"name": "token",
					"type": "address"
				},
				{
					"internalType": "address",
					"name": "to",
					"type": "address"
				},
				{
					"internalType": "uint256",
					"name": "amount",
					"type": "uint256"
				}
			],
			"name": "withdrawERC20",
			"outputs": [],
			"stateMutability": "nonpayable",
			"type": "function"
		},
		{
			"inputs": [
				{
					"internalType": "address payable",
					"name": "to",
					"type": "address"
				},
				{
					"internalType": "uint256",
					"name": "amount",
					"type": "uint256"
				}
			],
			"name": "withdrawETH",
			"outputs": [],
			"stateMutability": "nonpayable",
			"type": "function"
		},
		{
			"stateMutability": "payable",
			"type": "receive"
		}
	]
}